{
  "_format": "hh-sol-artifact-1",
  "contractName": "ArtiziaMarketplace",
  "sourceName": "contracts/ArtiziaMarketplace.sol",
  "abi": [
    {
      "inputs": [],
      "stateMutability": "nonpayable",
      "type": "constructor"
    },
    {
      "inputs": [],
      "name": "invalidListingType",
      "type": "error"
    },
    {
      "inputs": [],
      "name": "invalidPrice",
      "type": "error"
    },
    {
      "anonymous": false,
      "inputs": [
        {
          "indexed": false,
          "internalType": "address",
          "name": "nftContract",
          "type": "address"
        },
        {
          "indexed": false,
          "internalType": "uint256",
          "name": "tokenId",
          "type": "uint256"
        },
        {
          "indexed": false,
          "internalType": "address",
          "name": "seller",
          "type": "address"
        },
        {
          "indexed": false,
          "internalType": "address",
          "name": "owner",
          "type": "address"
        },
        {
          "indexed": false,
          "internalType": "uint256",
          "name": "price",
          "type": "uint256"
        },
        {
          "indexed": false,
          "internalType": "uint256",
          "name": "collectionId",
          "type": "uint256"
        },
        {
          "indexed": false,
          "internalType": "uint256",
          "name": "listingType",
          "type": "uint256"
        },
        {
          "indexed": false,
          "internalType": "uint256",
          "name": "sellerId",
          "type": "uint256"
        }
      ],
      "name": "NFTListed",
      "type": "event"
    },
    {
      "anonymous": false,
      "inputs": [
        {
          "indexed": false,
          "internalType": "address",
          "name": "nftContract",
          "type": "address"
        },
        {
          "indexed": false,
          "internalType": "uint256",
          "name": "tokenId",
          "type": "uint256"
        },
        {
          "indexed": false,
          "internalType": "uint256",
          "name": "price",
          "type": "uint256"
        },
        {
          "indexed": false,
          "internalType": "address",
          "name": "seller",
          "type": "address"
        },
        {
          "indexed": false,
          "internalType": "address",
          "name": "buyer",
          "type": "address"
        },
        {
          "indexed": false,
          "internalType": "uint256",
          "name": "sellerId",
          "type": "uint256"
        },
        {
          "indexed": false,
          "internalType": "uint256",
          "name": "buyerId",
          "type": "uint256"
        }
      ],
      "name": "NFTSold",
      "type": "event"
    },
    {
      "anonymous": false,
      "inputs": [
        {
          "indexed": true,
          "internalType": "address",
          "name": "previousOwner",
          "type": "address"
        },
        {
          "indexed": true,
          "internalType": "address",
          "name": "newOwner",
          "type": "address"
        }
      ],
      "name": "OwnershipTransferred",
      "type": "event"
    },
    {
      "anonymous": false,
      "inputs": [
        {
          "indexed": false,
          "internalType": "uint256",
          "name": "tokenId",
          "type": "uint256"
        },
        {
          "indexed": false,
          "internalType": "bool",
          "name": "decision",
          "type": "bool"
        }
      ],
      "name": "approvalUpdate",
      "type": "event"
    },
    {
      "anonymous": false,
      "inputs": [
        {
          "indexed": false,
          "internalType": "uint256",
          "name": "tokenId",
          "type": "uint256"
        },
        {
          "indexed": false,
          "internalType": "address",
          "name": "seller",
          "type": "address"
        },
        {
          "indexed": false,
          "internalType": "uint256",
          "name": "newTime",
          "type": "uint256"
        }
      ],
      "name": "auctionEndTimeIncreased",
      "type": "event"
    },
    {
      "anonymous": false,
      "inputs": [
        {
          "indexed": false,
          "internalType": "address",
          "name": "nftContract",
          "type": "address"
        },
        {
          "indexed": false,
          "internalType": "uint256",
          "name": "tokenId",
          "type": "uint256"
        },
        {
          "indexed": false,
          "internalType": "address",
          "name": "owner",
          "type": "address"
        },
        {
          "indexed": false,
          "internalType": "uint256",
          "name": "sellerId",
          "type": "uint256"
        }
      ],
      "name": "cancelList",
      "type": "event"
    },
    {
      "anonymous": false,
      "inputs": [
        {
          "indexed": false,
          "internalType": "uint256",
          "name": "tokenId",
          "type": "uint256"
        },
        {
          "indexed": false,
          "internalType": "address",
          "name": "seller",
          "type": "address"
        },
        {
          "indexed": false,
          "internalType": "address",
          "name": "highestBidder",
          "type": "address"
        },
        {
          "indexed": false,
          "internalType": "uint256",
          "name": "highestBidIntoETH",
          "type": "uint256"
        },
        {
          "indexed": false,
          "internalType": "uint256",
          "name": "highestBidIntoUSDT",
          "type": "uint256"
        }
      ],
      "name": "receivedABid",
      "type": "event"
    },
    {
      "stateMutability": "payable",
      "type": "fallback"
    },
    {
      "inputs": [],
      "name": "UNISWAP_ROUTER_ADDRESS",
      "outputs": [
        {
          "internalType": "address",
          "name": "",
          "type": "address"
        }
      ],
      "stateMutability": "view",
      "type": "function"
    },
    {
      "inputs": [],
      "name": "USDT_ADDRESS",
      "outputs": [
        {
          "internalType": "address",
          "name": "",
          "type": "address"
        }
      ],
      "stateMutability": "view",
      "type": "function"
    },
    {
      "inputs": [
        {
          "internalType": "uint256",
          "name": "",
          "type": "uint256"
        }
      ],
      "name": "_idToAuction",
      "outputs": [
        {
          "internalType": "uint256",
          "name": "tokenId",
          "type": "uint256"
        },
        {
          "internalType": "address payable",
          "name": "seller",
          "type": "address"
        },
        {
          "internalType": "uint256",
          "name": "basePrice",
          "type": "uint256"
        },
        {
          "internalType": "uint256",
          "name": "startTime",
          "type": "uint256"
        },
        {
          "internalType": "uint256",
          "name": "endTime",
          "type": "uint256"
        },
        {
          "internalType": "uint256",
          "name": "highestBidIntoETH",
          "type": "uint256"
        },
        {
          "internalType": "uint256",
          "name": "highestBidIntoUSDT",
          "type": "uint256"
        },
        {
          "internalType": "address payable",
          "name": "highestBidder",
          "type": "address"
        },
        {
          "internalType": "enum ArtiziaMarketplace.PaymentMethod",
          "name": "highestBidCurrency",
          "type": "uint8"
        },
        {
          "internalType": "uint8",
          "name": "buyerPlane",
          "type": "uint8"
        },
        {
          "internalType": "bool",
          "name": "royalty",
          "type": "bool"
        }
      ],
      "stateMutability": "view",
      "type": "function"
    },
    {
      "inputs": [
        {
          "internalType": "uint256",
          "name": "",
          "type": "uint256"
        }
      ],
      "name": "_idToNFT",
      "outputs": [
        {
          "internalType": "address",
          "name": "nftContract",
          "type": "address"
        },
        {
          "internalType": "uint256",
          "name": "tokenId",
          "type": "uint256"
        },
        {
          "internalType": "address payable",
          "name": "firstOwner",
          "type": "address"
        },
        {
          "internalType": "address payable",
          "name": "seller",
          "type": "address"
        },
        {
          "internalType": "address payable",
          "name": "owner",
          "type": "address"
        },
        {
          "internalType": "uint256",
          "name": "price",
          "type": "uint256"
        },
        {
          "internalType": "bool",
          "name": "listed",
          "type": "bool"
        },
        {
          "internalType": "uint256",
          "name": "royaltyPrice",
          "type": "uint256"
        },
        {
          "internalType": "enum ArtiziaMarketplace.ListingType",
          "name": "listingType",
          "type": "uint8"
        },
        {
          "internalType": "enum ArtiziaMarketplace.PaymentMethod",
          "name": "paymentMethod",
          "type": "uint8"
        },
        {
          "internalType": "bool",
          "name": "approve",
          "type": "bool"
        },
        {
          "internalType": "uint256",
          "name": "collectionId",
          "type": "uint256"
        },
        {
          "internalType": "bool",
          "name": "royalty",
          "type": "bool"
        }
      ],
      "stateMutability": "view",
      "type": "function"
    },
    {
      "inputs": [],
      "name": "_nftCount",
      "outputs": [
        {
          "internalType": "uint256",
          "name": "",
          "type": "uint256"
        }
      ],
      "stateMutability": "view",
      "type": "function"
    },
    {
      "inputs": [],
      "name": "_nftsSold",
      "outputs": [
        {
          "internalType": "uint256",
          "name": "",
          "type": "uint256"
        }
      ],
      "stateMutability": "view",
      "type": "function"
    },
    {
      "inputs": [
        {
          "internalType": "uint256[]",
          "name": "_tokenId",
          "type": "uint256[]"
        },
        {
          "internalType": "bool",
          "name": "_decision",
          "type": "bool"
        }
      ],
      "name": "approveNfts",
      "outputs": [
        {
          "internalType": "bool",
          "name": "",
          "type": "bool"
        }
      ],
      "stateMutability": "nonpayable",
      "type": "function"
    },
    {
      "inputs": [
        {
          "internalType": "address",
          "name": "_user",
          "type": "address"
        },
        {
          "internalType": "bool",
          "name": "_status",
          "type": "bool"
        }
      ],
      "name": "banUser",
      "outputs": [],
      "stateMutability": "nonpayable",
      "type": "function"
    },
    {
      "inputs": [
        {
          "internalType": "address",
          "name": "",
          "type": "address"
        }
      ],
      "name": "bannedUsers",
      "outputs": [
        {
          "internalType": "bool",
          "name": "",
          "type": "bool"
        }
      ],
      "stateMutability": "view",
      "type": "function"
    },
    {
      "inputs": [
        {
          "internalType": "uint256",
          "name": "_tokenId",
          "type": "uint256"
        },
        {
          "internalType": "uint8",
          "name": "_buyerPlan",
          "type": "uint8"
        }
      ],
      "name": "bidInETH",
      "outputs": [],
      "stateMutability": "payable",
      "type": "function"
    },
    {
      "inputs": [
        {
          "internalType": "uint256",
          "name": "_tokenId",
          "type": "uint256"
        },
        {
          "internalType": "uint256",
          "name": "_amount",
          "type": "uint256"
        },
        {
          "internalType": "uint8",
          "name": "_buyerPlan",
          "type": "uint8"
        }
      ],
      "name": "bidInUSDT",
      "outputs": [],
      "stateMutability": "payable",
      "type": "function"
    },
    {
      "inputs": [
        {
          "internalType": "address",
          "name": "_nftContract",
          "type": "address"
        },
        {
          "internalType": "uint256",
          "name": "_tokenId",
          "type": "uint256"
        },
        {
          "internalType": "uint8",
          "name": "_sellerPlan",
          "type": "uint8"
        },
        {
          "internalType": "uint8",
          "name": "_buyerPlan",
          "type": "uint8"
        },
        {
          "internalType": "uint256",
          "name": "sellerId",
          "type": "uint256"
        },
        {
          "internalType": "uint256",
          "name": "buyerId",
          "type": "uint256"
        }
      ],
      "name": "buyWithETH",
      "outputs": [],
      "stateMutability": "payable",
      "type": "function"
    },
    {
      "inputs": [
        {
          "internalType": "address",
          "name": "_nftContract",
          "type": "address"
        },
        {
          "internalType": "uint256",
          "name": "_tokenId",
          "type": "uint256"
        },
        {
          "internalType": "uint8",
          "name": "_sellerPlan",
          "type": "uint8"
        },
        {
          "internalType": "address",
          "name": "_buyerAddress",
          "type": "address"
        },
        {
          "internalType": "uint8",
          "name": "_buyerPlan",
          "type": "uint8"
        },
        {
          "internalType": "uint256",
          "name": "sellerId",
          "type": "uint256"
        },
        {
          "internalType": "uint256",
          "name": "buyerId",
          "type": "uint256"
        }
      ],
      "name": "buyWithFIAT",
      "outputs": [],
      "stateMutability": "payable",
      "type": "function"
    },
    {
      "inputs": [
        {
          "internalType": "address",
          "name": "_nftContract",
          "type": "address"
        },
        {
          "internalType": "uint256",
          "name": "_tokenId",
          "type": "uint256"
        },
        {
          "internalType": "uint256",
          "name": "_amount",
          "type": "uint256"
        },
        {
          "internalType": "uint8",
          "name": "_sellerPlan",
          "type": "uint8"
        },
        {
          "internalType": "uint8",
          "name": "_buyerPlan",
          "type": "uint8"
        },
        {
          "internalType": "uint256",
          "name": "sellerId",
          "type": "uint256"
        },
        {
          "internalType": "uint256",
          "name": "buyerId",
          "type": "uint256"
        }
      ],
      "name": "buyWithUSDT",
      "outputs": [],
      "stateMutability": "payable",
      "type": "function"
    },
    {
      "inputs": [
        {
          "internalType": "address",
          "name": "_nftContract",
          "type": "address"
        },
        {
          "internalType": "uint256",
          "name": "_tokenId",
          "type": "uint256"
        },
        {
          "internalType": "uint256",
          "name": "_sellerId",
          "type": "uint256"
        }
      ],
      "name": "cancelListing",
      "outputs": [],
      "stateMutability": "payable",
      "type": "function"
    },
    {
      "inputs": [
        {
          "internalType": "address",
          "name": "_nftContract",
          "type": "address"
        },
        {
          "internalType": "uint256",
          "name": "_tokenId",
          "type": "uint256"
        },
        {
          "internalType": "uint8",
          "name": "_sellerPlan",
          "type": "uint8"
        },
        {
          "internalType": "uint256",
          "name": "sellerId",
          "type": "uint256"
        },
        {
          "internalType": "uint256",
          "name": "buyerId",
          "type": "uint256"
        }
      ],
      "name": "closeAuction",
      "outputs": [],
      "stateMutability": "payable",
      "type": "function"
    },
    {
      "inputs": [
        {
          "internalType": "uint256",
          "name": "",
          "type": "uint256"
        },
        {
          "internalType": "uint256",
          "name": "",
          "type": "uint256"
        }
      ],
      "name": "collection",
      "outputs": [
        {
          "internalType": "uint256",
          "name": "",
          "type": "uint256"
        }
      ],
      "stateMutability": "view",
      "type": "function"
    },
    {
      "inputs": [
        {
          "internalType": "uint256",
          "name": "_collectionId",
          "type": "uint256"
        }
      ],
      "name": "getCollectionNfts",
      "outputs": [
        {
          "components": [
            {
              "internalType": "address",
              "name": "nftContract",
              "type": "address"
            },
            {
              "internalType": "uint256",
              "name": "tokenId",
              "type": "uint256"
            },
            {
              "internalType": "address payable",
              "name": "firstOwner",
              "type": "address"
            },
            {
              "internalType": "address payable",
              "name": "seller",
              "type": "address"
            },
            {
              "internalType": "address payable",
              "name": "owner",
              "type": "address"
            },
            {
              "internalType": "uint256",
              "name": "price",
              "type": "uint256"
            },
            {
              "internalType": "bool",
              "name": "listed",
              "type": "bool"
            },
            {
              "internalType": "uint256",
              "name": "royaltyPrice",
              "type": "uint256"
            },
            {
              "internalType": "enum ArtiziaMarketplace.ListingType",
              "name": "listingType",
              "type": "uint8"
            },
            {
              "internalType": "enum ArtiziaMarketplace.PaymentMethod",
              "name": "paymentMethod",
              "type": "uint8"
            },
            {
              "internalType": "bool",
              "name": "approve",
              "type": "bool"
            },
            {
              "internalType": "uint256",
              "name": "collectionId",
              "type": "uint256"
            },
            {
              "internalType": "bool",
              "name": "royalty",
              "type": "bool"
            }
          ],
          "internalType": "struct ArtiziaMarketplace.NFT[]",
          "name": "",
          "type": "tuple[]"
        }
      ],
      "stateMutability": "view",
      "type": "function"
    },
    {
      "inputs": [
        {
          "internalType": "uint256",
          "name": "EthAmountIn",
          "type": "uint256"
        }
      ],
      "name": "getETHIntoUSDT",
      "outputs": [
        {
          "internalType": "uint256",
          "name": "",
          "type": "uint256"
        }
      ],
      "stateMutability": "view",
      "type": "function"
    },
    {
      "inputs": [
        {
          "internalType": "uint256",
          "name": "EthAmountOut",
          "type": "uint256"
        }
      ],
      "name": "getETHOutUSDTInOutPut",
      "outputs": [
        {
          "internalType": "uint256",
          "name": "",
          "type": "uint256"
        }
      ],
      "stateMutability": "view",
      "type": "function"
    },
    {
      "inputs": [],
      "name": "getListedNfts",
      "outputs": [
        {
          "components": [
            {
              "internalType": "address",
              "name": "nftContract",
              "type": "address"
            },
            {
              "internalType": "uint256",
              "name": "tokenId",
              "type": "uint256"
            },
            {
              "internalType": "address payable",
              "name": "firstOwner",
              "type": "address"
            },
            {
              "internalType": "address payable",
              "name": "seller",
              "type": "address"
            },
            {
              "internalType": "address payable",
              "name": "owner",
              "type": "address"
            },
            {
              "internalType": "uint256",
              "name": "price",
              "type": "uint256"
            },
            {
              "internalType": "bool",
              "name": "listed",
              "type": "bool"
            },
            {
              "internalType": "uint256",
              "name": "royaltyPrice",
              "type": "uint256"
            },
            {
              "internalType": "enum ArtiziaMarketplace.ListingType",
              "name": "listingType",
              "type": "uint8"
            },
            {
              "internalType": "enum ArtiziaMarketplace.PaymentMethod",
              "name": "paymentMethod",
              "type": "uint8"
            },
            {
              "internalType": "bool",
              "name": "approve",
              "type": "bool"
            },
            {
              "internalType": "uint256",
              "name": "collectionId",
              "type": "uint256"
            },
            {
              "internalType": "bool",
              "name": "royalty",
              "type": "bool"
            }
          ],
          "internalType": "struct ArtiziaMarketplace.NFT[]",
          "name": "",
          "type": "tuple[]"
        }
      ],
      "stateMutability": "view",
      "type": "function"
    },
    {
      "inputs": [
        {
          "internalType": "address",
          "name": "_user",
          "type": "address"
        }
      ],
      "name": "getMyListedNfts",
      "outputs": [
        {
          "components": [
            {
              "internalType": "address",
              "name": "nftContract",
              "type": "address"
            },
            {
              "internalType": "uint256",
              "name": "tokenId",
              "type": "uint256"
            },
            {
              "internalType": "address payable",
              "name": "firstOwner",
              "type": "address"
            },
            {
              "internalType": "address payable",
              "name": "seller",
              "type": "address"
            },
            {
              "internalType": "address payable",
              "name": "owner",
              "type": "address"
            },
            {
              "internalType": "uint256",
              "name": "price",
              "type": "uint256"
            },
            {
              "internalType": "bool",
              "name": "listed",
              "type": "bool"
            },
            {
              "internalType": "uint256",
              "name": "royaltyPrice",
              "type": "uint256"
            },
            {
              "internalType": "enum ArtiziaMarketplace.ListingType",
              "name": "listingType",
              "type": "uint8"
            },
            {
              "internalType": "enum ArtiziaMarketplace.PaymentMethod",
              "name": "paymentMethod",
              "type": "uint8"
            },
            {
              "internalType": "bool",
              "name": "approve",
              "type": "bool"
            },
            {
              "internalType": "uint256",
              "name": "collectionId",
              "type": "uint256"
            },
            {
              "internalType": "bool",
              "name": "royalty",
              "type": "bool"
            }
          ],
          "internalType": "struct ArtiziaMarketplace.NFT[]",
          "name": "",
          "type": "tuple[]"
        }
      ],
      "stateMutability": "view",
      "type": "function"
    },
    {
      "inputs": [
        {
          "internalType": "address",
          "name": "_user",
          "type": "address"
        }
      ],
      "name": "getMyNfts",
      "outputs": [
        {
          "components": [
            {
              "internalType": "address",
              "name": "nftContract",
              "type": "address"
            },
            {
              "internalType": "uint256",
              "name": "tokenId",
              "type": "uint256"
            },
            {
              "internalType": "address payable",
              "name": "firstOwner",
              "type": "address"
            },
            {
              "internalType": "address payable",
              "name": "seller",
              "type": "address"
            },
            {
              "internalType": "address payable",
              "name": "owner",
              "type": "address"
            },
            {
              "internalType": "uint256",
              "name": "price",
              "type": "uint256"
            },
            {
              "internalType": "bool",
              "name": "listed",
              "type": "bool"
            },
            {
              "internalType": "uint256",
              "name": "royaltyPrice",
              "type": "uint256"
            },
            {
              "internalType": "enum ArtiziaMarketplace.ListingType",
              "name": "listingType",
              "type": "uint8"
            },
            {
              "internalType": "enum ArtiziaMarketplace.PaymentMethod",
              "name": "paymentMethod",
              "type": "uint8"
            },
            {
              "internalType": "bool",
              "name": "approve",
              "type": "bool"
            },
            {
              "internalType": "uint256",
              "name": "collectionId",
              "type": "uint256"
            },
            {
              "internalType": "bool",
              "name": "royalty",
              "type": "bool"
            }
          ],
          "internalType": "struct ArtiziaMarketplace.NFT[]",
          "name": "",
          "type": "tuple[]"
        }
      ],
      "stateMutability": "view",
      "type": "function"
    },
    {
      "inputs": [
        {
          "internalType": "uint256",
          "name": "_tokenId",
          "type": "uint256"
        }
      ],
      "name": "getStatusOfAuction",
      "outputs": [
        {
          "internalType": "bool",
          "name": "",
          "type": "bool"
        }
      ],
      "stateMutability": "view",
      "type": "function"
    },
    {
      "inputs": [
        {
          "internalType": "uint8",
          "name": "level",
          "type": "uint8"
        }
      ],
      "name": "getSubscriptionFee",
      "outputs": [
        {
          "internalType": "uint256",
          "name": "",
          "type": "uint256"
        }
      ],
      "stateMutability": "view",
      "type": "function"
    },
    {
      "inputs": [
        {
          "internalType": "uint256",
          "name": "usdtAmountIn",
          "type": "uint256"
        }
      ],
      "name": "getUSDTIntoETH",
      "outputs": [
        {
          "internalType": "uint256",
          "name": "",
          "type": "uint256"
        }
      ],
      "stateMutability": "view",
      "type": "function"
    },
    {
      "inputs": [
        {
          "internalType": "uint256",
          "name": "USDTAmountOut",
          "type": "uint256"
        }
      ],
      "name": "getUSDTOutETHInOutPut",
      "outputs": [
        {
          "internalType": "uint256",
          "name": "",
          "type": "uint256"
        }
      ],
      "stateMutability": "view",
      "type": "function"
    },
    {
      "inputs": [
        {
          "internalType": "address",
          "name": "_user",
          "type": "address"
        }
      ],
      "name": "getUsersNfts",
      "outputs": [
        {
          "components": [
            {
              "internalType": "address",
              "name": "nftContract",
              "type": "address"
            },
            {
              "internalType": "uint256",
              "name": "tokenId",
              "type": "uint256"
            },
            {
              "internalType": "address payable",
              "name": "firstOwner",
              "type": "address"
            },
            {
              "internalType": "address payable",
              "name": "seller",
              "type": "address"
            },
            {
              "internalType": "address payable",
              "name": "owner",
              "type": "address"
            },
            {
              "internalType": "uint256",
              "name": "price",
              "type": "uint256"
            },
            {
              "internalType": "bool",
              "name": "listed",
              "type": "bool"
            },
            {
              "internalType": "uint256",
              "name": "royaltyPrice",
              "type": "uint256"
            },
            {
              "internalType": "enum ArtiziaMarketplace.ListingType",
              "name": "listingType",
              "type": "uint8"
            },
            {
              "internalType": "enum ArtiziaMarketplace.PaymentMethod",
              "name": "paymentMethod",
              "type": "uint8"
            },
            {
              "internalType": "bool",
              "name": "approve",
              "type": "bool"
            },
            {
              "internalType": "uint256",
              "name": "collectionId",
              "type": "uint256"
            },
            {
              "internalType": "bool",
              "name": "royalty",
              "type": "bool"
            }
          ],
          "internalType": "struct ArtiziaMarketplace.NFT[]",
          "name": "",
          "type": "tuple[]"
        }
      ],
      "stateMutability": "view",
      "type": "function"
    },
    {
      "inputs": [
        {
          "internalType": "address",
          "name": "_nftContract",
          "type": "address"
        },
        {
          "internalType": "uint256[]",
          "name": "_tokenId",
          "type": "uint256[]"
        },
        {
          "internalType": "uint256[]",
          "name": "_price",
          "type": "uint256[]"
        },
        {
          "internalType": "uint256[]",
          "name": "_royaltyPrice",
          "type": "uint256[]"
        },
        {
          "internalType": "uint256",
          "name": "_listingType",
          "type": "uint256"
        },
        {
          "internalType": "uint256[]",
          "name": "_startTime",
          "type": "uint256[]"
        },
        {
          "internalType": "uint256[]",
          "name": "_endTime",
          "type": "uint256[]"
        },
        {
          "internalType": "uint256",
          "name": "_collectionId",
          "type": "uint256"
        },
        {
          "internalType": "uint256",
          "name": "_paymentMethod",
          "type": "uint256"
        },
        {
          "internalType": "uint256",
          "name": "_sellerId",
          "type": "uint256"
        }
      ],
      "name": "listNft",
      "outputs": [],
      "stateMutability": "payable",
      "type": "function"
    },
    {
      "inputs": [],
      "name": "owner",
      "outputs": [
        {
          "internalType": "address",
          "name": "",
          "type": "address"
        }
      ],
      "stateMutability": "view",
      "type": "function"
    },
    {
      "inputs": [],
      "name": "renounceOwnership",
      "outputs": [],
      "stateMutability": "nonpayable",
      "type": "function"
    },
    {
      "inputs": [
        {
          "internalType": "address",
          "name": "_nftContract",
          "type": "address"
        },
        {
          "internalType": "uint256",
          "name": "_tokenId",
          "type": "uint256"
        },
        {
          "internalType": "uint256",
          "name": "_price",
          "type": "uint256"
        },
        {
          "internalType": "uint256",
          "name": "_listingType",
          "type": "uint256"
        },
        {
          "internalType": "uint256",
          "name": "_startTime",
          "type": "uint256"
        },
        {
          "internalType": "uint256",
          "name": "_endTime",
          "type": "uint256"
        },
        {
          "internalType": "uint256",
          "name": "sellerId",
          "type": "uint256"
        }
      ],
      "name": "resellNft",
      "outputs": [],
      "stateMutability": "nonpayable",
      "type": "function"
    },
    {
      "inputs": [
        {
          "internalType": "enum ArtiziaMarketplace.SubscriptionLevel",
          "name": "",
          "type": "uint8"
        }
      ],
      "name": "subscriptionFees",
      "outputs": [
        {
          "internalType": "uint256",
          "name": "",
          "type": "uint256"
        }
      ],
      "stateMutability": "view",
      "type": "function"
    },
    {
      "inputs": [
        {
          "internalType": "uint256",
          "name": "usdtAmountOut",
          "type": "uint256"
        },
        {
          "internalType": "uint256",
          "name": "meth",
          "type": "uint256"
        }
      ],
      "name": "swapETHForUSDT",
      "outputs": [
        {
          "internalType": "uint256",
          "name": "",
          "type": "uint256"
        }
      ],
      "stateMutability": "payable",
      "type": "function"
    },
    {
      "inputs": [
        {
          "internalType": "uint256",
          "name": "usdtAmountIn",
          "type": "uint256"
        }
      ],
      "name": "swapUSDTForETH",
      "outputs": [
        {
          "internalType": "uint256",
          "name": "",
          "type": "uint256"
        }
      ],
      "stateMutability": "nonpayable",
      "type": "function"
    },
    {
      "inputs": [
        {
          "internalType": "address",
          "name": "newOwner",
          "type": "address"
        }
      ],
      "name": "transferOwnership",
      "outputs": [],
      "stateMutability": "nonpayable",
      "type": "function"
    },
    {
      "stateMutability": "payable",
      "type": "receive"
    }
  ],
  "bytecode": "0x608060409080825234620001b457600160008181558154336001600160a01b031980831682178555929493916001600160a01b03919082167f8be0079c531659141344cd1fd0a4f28419497f9722a3daafe3b4186f6b6457e08780a38160025581600355737a250d5630b4cf539739df2c5dacb4c659f2488d928381600a541617600a5573dac17f958d2ee523a2206206994597c13d831ec7908181600b541617600b55600494338287541617865581600c541617600c55600d541617600d5582855260209360098552858781205533828454160362000186575060038552600984526064868620553381835416036200015657600285526009845260968686205533915416036200012757508160098492826096955252205551615dca9081620001ba8239f35b8160649285519262461bcd60e51b8452830152602482015260008051602062005f848339815191526044820152fd5b606483858089519262461bcd60e51b8452830152602482015260008051602062005f848339815191526044820152fd5b60649085808662461bcd60e51b8452830152602482015260008051602062005f848339815191526044820152fd5b600080fdfe60806040526004361015610018575b361561001657005b005b6000803560e01c806302a18c80146140a65780632381c58d1461408757806331824a49146140695780634afbcdae146140295780634b3320e014613e935780634d3fb81714613e695780635021b42b146137025780635274cff6146135955780635f96218b14613576578063715018a61461350257806379b36943146134db5780638110c57914612ff85780638988d07814612fbb5780638cd410f414612f9c5780638d6cb3fb14612e445780638da5cb5b14612e1d5780638ee223f914612dc65780639c74405814612d9d578063aeb46a1b14612d65578063b4fa041214612cb4578063b8820d8214612c98578063b9e07df114612bba578063c189205814612b93578063c36ac2d214612a25578063c3e11ced14612962578063d12824f1146127e8578063d6cbb202146127ca578063d6fc3dbd14612501578063e5994231146120a3578063e7fc941214611b5e578063e89fe4b7146113b0578063f2fde38b146112be578063f6c1b77a146110fe578063f711a4e914610882578063fbe8d30f146103335763fe25db09146101b0575061000e565b346103305760208060031936011261032c576040516101ce816147f5565b6002815260403683830137826001600160a01b039182600c5416604051937fad5c46480000000000000000000000000000000000000000000000000000000085528585600481855afa80156103215761029f9585916102f4575b5081610233856149f7565b91169052600b541661024483614a04565b5260408051610252816147f5565b60028152863691013760405180809581947f1f00ca740000000000000000000000000000000000000000000000000000000083526004356004840152604060248401526044830190614ac1565b03915afa9081156102e957836102bd9394926102c6575b50506149f7565b51604051908152f35b6102e292503d8091833e6102da8183614811565b810190614a47565b38806102b6565b6040513d85823e3d90fd5b6103149150873d891161031a575b61030c8183614811565b810190614a28565b38610228565b503d610302565b6040513d86823e3d90fd5b5080fd5b80fd5b5060e060031936011261033057610348614638565b6024356103536145c4565b606435906001600160a01b039384831680930361087d5785916103746145e4565b958584526020906005825260019760ff9761039e8a8a600860408b20015460101c16151514615498565b338752600784526103b58960408920541615615335565b6103bd615443565b8652600583526103d96103d36040882095614920565b91614920565b926003850198610406816040868d54169a6103f6338d14156154e3565b8b8152600786522054161561559f565b6008860192818454166002811015610869576104229015615610565b60068701956104378d84895416151514615554565b8d6005890189815492896127109461046761045f878304926104598a856158a9565b9061565b565b341015615675565b600a840154891661073857505050506104959261048f61049b959361045993540493846158a9565b926158a9565b34615668565b925460081c166003811015610724578b92839290916106535750818091858c541682821561064a575bf11561063f57875b6104d8575b8888815580f35b8316918888820193845490803b1561063b576040517f23b872dd0000000000000000000000000000000000000000000000000000000081523060048201526001600160a01b038a166024820152604481019290925282908290606490829084905af1801561063057610610575b5050907f36622ac3c55df2afe092b02595624d4572c4cc04125857ad1b41a57b58e7cdf3966004610601959493017fffffffffffffffffffffffff0000000000000000000000000000000000000000908882825416179055815416905560ff1981541690556105b5600254615380565b60025554604080516001600160a01b039384168152602081019290925234908201529281166060840152909216608082015260a43560a082015260c43560c082015290819060e0820190565b0390a1388080808080806104d1565b61061e909594939295614775565b61062c579091928838610545565b8880fd5b6040513d84823e3d90fd5b8280fd5b6040513d8a823e3d90fd5b506108fc6104c4565b915061066161069d91615003565b80927f75736474416d6f756e740000000000000000000000000000000000000000000060405191610691836147d9565b600a8352820152615c83565b82600d541690838a541690823b15610720576040517fa9059cbb0000000000000000000000000000000000000000000000000000000081526001600160a01b0392909216600483015260248201529082908290604490829084905af180156106305761070c575b5050876104cc565b61071590614775565b61062c578838610704565b8380fd5b60248c634e487b7160e01b81526021600452fd5b82955082945090600261077b859c996107756104599a9561075e6007899a0154826158a9565b9b8c9761048f61076e8a34615668565b95846158a9565b90615668565b9b6107bb8d8d7f5f616d6f756e74546f4265506169645f616d6f756e74546f4265506169640000604051916107af836147d9565b601e8352820152615c83565b015416828215610860575bf1156108555761080a906040516107dc816147d9565b601781527f5f726f79616c74794665652c5f726f79616c747946656500000000000000000086820152615c83565b5460081c166003811015610724578b92839290916108475750818091858c541682821561083e575bf11561063f57876104cc565b506108fc610832565b915061066161069d91614d8c565b6040513d8f823e3d90fd5b506108fc6107c6565b60248e634e487b7160e01b81526021600452fd5b600080fd5b5060a060031936011261033057610897614638565b61089f6145c4565b906024803584526005602052604084209260066020526108c26040862091614920565b92600782019283549460ff916108dc838860a81c16614920565b9260038901926001600160a01b039485855416998681168015600014610ace5750505050508260018601541690813303610a64575088908385169060018a0154823b15610720576040517f23b872dd0000000000000000000000000000000000000000000000000000000081523060048201526001600160a01b0392909216602483015260448201529082908290606490829084905af1801561063057610a44575b505090600560018883610a3e97969560067f36622ac3c55df2afe092b02595624d4572c4cc04125857ad1b41a57b58e7cdf39c0160ff198154169055541660048201907fffffffffffffffffffffffff00000000000000000000000000000000000000008254161790555b0154930154945416604051958695608435946064359488939060c09591989796939860e08601996001600160a01b03948580941688526020880152604087015216606085015216608083015260a08201520152565b0390a180f35b610a52909594939295614775565b610a6057909192873861097e565b8780fd5b608490602c6040519162461bcd60e51b8352602060048401528201527f4f6e6c79207468652073656c6c65722063616e20636c6f73652074686520756e60448201527f736f6c642061756374696f6e00000000000000000000000000000000000000006064820152fd5b949091929394331480156110ef575b1561108557600489015442111561104157908b9160058a01549186600860068d015495015460081c16600381101561102d5780610d8e575050858b5460a01c16906003821015610d7c575092878e96938e96936001899714600014610d305750610b4690614afe565b93600a8701541615600014610cab575083945091610775610b7592610459869561048f612710860493846158a9565b86865416828215610ca2575bf115610c97575b878284168387541660018a0154823b15610720576040517f23b872dd0000000000000000000000000000000000000000000000000000000081523060048201526001600160a01b0392909216602483015260448201529082908290606490829084905af1801561063057610c7b575b505090600560017f36622ac3c55df2afe092b02595624d4572c4cc04125857ad1b41a57b58e7cdf398610a3e96959484895416600483017fffffffffffffffffffffffff0000000000000000000000000000000000000000918282541617905581541690556006810160ff198154169055610c73600254615380565b6002556109e9565b610c89909594939295614775565b610a60579091928738610bf7565b6040513d89823e3d90fd5b506108fc610b81565b9284936002610cdf8695610775879661045960078d01549161048f61076e610cd86127108c0495866158a9565b809b615668565b97015416828215610d27575bf115610d1a578180809286865416828215610d11575bf1610b88576040513d89823e3d90fd5b506108fc610d01565b50604051903d90823e3d90fd5b506108fc610ceb565b949050600a8701541615600014610cab575083945091610775610d6192610459869561048f612710860493846158a9565b86865416828215610d1157f1610b88576040513d89823e3d90fd5b8e634e487b7160e01b81526021600452fd5b94969594929392600114610da9575b50505050505050610b88565b60a01c8516906003821015610d7c5750918c918e9695949315600014610fa35750610dd390614d8c565b92600a8201541615600014610e87575061077590610459610dfd9461048f612710860493846158a9565b83600d5416908484541690823b15610720576040517fa9059cbb0000000000000000000000000000000000000000000000000000000081526001600160a01b0392909216600483015260248201529082908290604490829084905af1801561063057610e73575b50505b38808080808080610d9d565b610e7c90614775565b610a60578738610e64565b610eb4929361045960076107759301549161048f61076e610ead6127108a0495866158a9565b8099615668565b9084600d5416908560028c01541691803b15610f8b576040517fa9059cbb000000000000000000000000000000000000000000000000000000008082526001600160a01b03949094166004820152602481019290925284908290604490829084905af1908115610321578491610f8f575b505084600d5416918585541692803b15610f8b576040519283526001600160a01b03909316600483015260248201529082908290818381604481015b03925af1801561063057610f77575b5050610e67565b610f8090614775565b610a60578738610f70565b8480fd5b610f9890614775565b61063b578238610f25565b939050600a8201541615600014610e87575061077590610459610fcf9461048f612710860493846158a9565b83600d5416908484541690823b15610720576040517fa9059cbb0000000000000000000000000000000000000000000000000000000081526001600160a01b0390921660048301526024820152908290829081838160448101610f61565b50508d634e487b7160e01b81526021600452fd5b606490601a6040519162461bcd60e51b8352602060048401528201527f41756374696f6e20686173206e6f7420656e646564207965742e0000000000006044820152fd5b60849060386040519162461bcd60e51b8352602060048401528201527f4f6e6c792074686520686967686573742062696464657220616e64207468652060448201527f73656c6c65722063616e20636c61696d20746865204e465400000000000000006064820152fd5b508660018a0154163314610add565b50346103305760208060031936011261032c57611119614638565b91338152600780835260ff6111348160408520541615615335565b600394855494849285936001600160a01b03809416945b888110611283575061115c90615ab1565b978695875b89811061117a57604051806111768d8261467e565b0390f35b8089528a600580875260408b2090886004830154168a81146111a9575b505050506111a490615380565b611161565b9a611277938989600a6111a4989f96611271968f9887998e604051976111ce8961479f565b828654168952600186015490890152816002860154166040890152840154166060870152608086015281015460a085015282600682015416151560c08501528a81015460e085015282600861123f828285015480936112338383166101008c016153c3565b1c1661012088016153cf565b60101c1615156101408501526009810154610160850152015416151561018082015261126b8383614a14565b52614a14565b50615380565b9790508a388080611197565b808852600584528585600460408b20015416146112a9575b6112a490615380565b61114b565b906112b66112a491615380565b91905061129b565b5034610330576020600319360112610330576112d8614638565b6112e06148c8565b6001600160a01b0380911690811561134657600154827fffffffffffffffffffffffff0000000000000000000000000000000000000000821617600155167f8be0079c531659141344cd1fd0a4f28419497f9722a3daafe3b4186f6b6457e0600080a380f35b608460405162461bcd60e51b815260206004820152602660248201527f4f776e61626c653a206e6577206f776e657220697320746865207a65726f206160448201527f64647265737300000000000000000000000000000000000000000000000000006064820152fd5b50610140600319360112610330576113c6614638565b67ffffffffffffffff90602435828111610720576113e890369060040161486a565b604435838111610f8b5761140090369060040161486a565b9360643584811161032c5761141990369060040161486a565b9360a43581811161063b5761143290369060040161486a565b9060c43590811161063b5761144b90369060040161486a565b90611454615443565b338352600760205261146d60ff60408520541615615335565b825b8451811015611b56576114828189614a14565b516114b15760046040517fb52612a6000000000000000000000000000000000000000000000000000000008152fd5b600160843511156114e65760046040517f17142a4d000000000000000000000000000000000000000000000000000000008152fd5b6114f08186614a14565b516001600160a01b0387163b15610f8b576040517f23b872dd00000000000000000000000000000000000000000000000000000000815233600482015230602482015260448101919091528481606481836001600160a01b038c165af18015611b4b57908591611b37575b5050611568600354615380565b60035560e43584526008602052604084206115838287614a14565b519080549068010000000000000000821015611b2357906115a99160018201815561460a565b7fffffffffffffffffffffffffffffffffffffffffffffffffffffffffffffffff829392549160031b92831b921b19161790556115e68186614a14565b516115f1828a614a14565b516115fc838a614a14565b519060026084351015611b0f576003610104351015611b0f57604051926116228461479f565b6001600160a01b038a168452602084015233604084015233606084015230608084015260a0830152600160c083015260e082015261166660843561010083016153c3565b6116776101043561012083016153cf565b600161014082015260e435610160820152846101808201526116998287614a14565b518552600560205260408520906001600160a01b038151167fffffffffffffffffffffffff000000000000000000000000000000000000000083541617825560208101516001830155600282016001600160a01b036040830151167fffffffffffffffffffffffff0000000000000000000000000000000000000000825416179055600382016001600160a01b036060830151167fffffffffffffffffffffffff0000000000000000000000000000000000000000825416179055600482016001600160a01b036080830151167fffffffffffffffffffffffff000000000000000000000000000000000000000082541617905560a081015160058301556117b760c08201511515600684019060ff60ff1983541691151516179055565b60e081015160078301556101008101516002811015611b0f576117dd90600884016153db565b6101208101516003811015611b0f57600880840180546101408501517fffffffffffffffffffffffffffffffffffffffffffffffffffffffffff0000ff9091169390921b61ff00169290921790151560101b62ff0000161790556118669190600a906101809061016081015160098501550151151591019060ff60ff1983541691151516179055565b6001608435146118fc575b807ff744c4e912fa3b7b216317585f74fc338fdfb67d0aa78e9c1078c6c7bb0d16b36118a06118f79388614a14565b516118ab838c614a14565b51604080516001600160a01b038c16815260208101939093523390830152306060830152608082015260e43560a082015260843560c08201526101243560e082015261010090a1615380565b61146f565b6119068186614a14565b51611911828a614a14565b5161191c8385614a14565b516119278487614a14565b519160405193611936856147bc565b84523360208501526040840152606083015260808201528460a08201528460c08201528460e08201526119706101043561010083016153cf565b6096610120820152846101408201526119898287614a14565b5185526006602052604085209080518255600182016001600160a01b036020830151167fffffffffffffffffffffffff000000000000000000000000000000000000000082541617905560408101516002830155606081015160038301556080810151600483015560a0810151600583015560c081015160068301556001600160a01b0360e0820151167fffffffffffffffffffffffff00000000000000000000000000000000000000006007840154161760078301556101008101516003811015611b0f576101408392611a66600793846118f79897016153f4565b611abc60ff61012083015116848601907fffffffffffffffffffff00ffffffffffffffffffffffffffffffffffffffffff75ff00000000000000000000000000000000000000000083549260a81b169116179055565b015115157fffffffffffffffffff00ffffffffffffffffffffffffffffffffffffffffffff76ff00000000000000000000000000000000000000000000838501549260b01b169116179101559050611871565b602487634e487b7160e01b81526021600452fd5b602487634e487b7160e01b81526041600452fd5b611b4090614775565b61072057833861155b565b6040513d87823e3d90fd5b836001815580f35b5060406003193601126103305760ff90602480359060043590848316830361087d5781845260209460068652611ba1604086206004600382015491015490615c16565b611be183604051611bb1816147d9565b600881527f4175637469696e73000000000000000000000000000000000000000000000000898201524290615d12565b82855260068652611c0360408620600381015442119081612095575b506156e6565b828552600586526001611c258183600860408a20015460101c16151514615498565b33865260078752611c3c8260408820541615615335565b838652600687526040862090600588526040872091611c5a87614920565b9460028201549761271098611c71888b83046158a9565b611c8360058601998a549c8d046158a9565b916001600160a01b0397611c9f89600383015416331415615757565b89600882015416600281101561208257611cef93611cf69593611cdc8b8e6006611ce997611cd184611ce199146157a2565b015416151514615554565b61565b565b3410156157ed565b8b61565b565b3411615838565b600783019889549086821690600686019889549383611f70575b5050505050611d9490348855611d25346159fd565b875589547fffffffffffffffffffff0000ffffffffffffffffffffffffffffffffffffffff33167fffffffffffffffffffff000000000000000000000000000000000000000000009091161760a89190911b75ff00000000000000000000000000000000000000000016178955565b60048201998a549161025880420190814211611f4a57818510611e20575b8c7fd2bac7185d7afc210e088ad31a00e9c773a7ad5c90bbf00d874a34af391b46b38d8d610a3e8e8e8e808f8f01541695541691549054916040519586958691608093969594919660a084019784526001600160a01b03809216602085015216604083015260608201520152565b61012c850194858111611f5d57019c8d8511611f4a578d9055604051928301937fd1ed7a3c0000000000000000000000000000000000000000000000000000000085528284015260448301528b60648301526064825260a082019082821067ffffffffffffffff831117611f3657508a9b8b7fd2bac7185d7afc210e088ad31a00e9c773a7ad5c90bbf00d874a34af391b46b39c889795610a3e9b9a9997957f8e1cb85d0855921b3c958b068fa707efb7db88099af764dd47f37eef82c3334d9560405251906a636f6e736f6c652e6c6f675afa50848484015416611f256040519283928d846001600160a01b03604092959493606083019683521660208201520152565b0390a1919394958a99829438611db2565b634e487b7160e01b60005260416004526000fd5b828d634e487b7160e01b81526011600452fd5b838e634e487b7160e01b81526011600452fd5b60a01c16600381101561206f578d91908881036120295750505086600d541690813b15612025576040517fa9059cbb0000000000000000000000000000000000000000000000000000000081526001600160a01b0391909116600482015260248101929092528b908290604490829084905af1801561201a57908b91612002575b5050611d94905b9038808080611d10565b61200b90614775565b612016578938611ff1565b8980fd5b6040513d8d823e3d90fd5b8c80fd5b909291935015612040575b505050611d9490611ff8565b8280928192828215612066575bf11561205b57893880612034565b6040513d8b823e3d90fd5b506108fc61204d565b858e634e487b7160e01b81526021600452fd5b868f634e487b7160e01b81526021600452fd5b600491500154421038611bfd565b5060c0600319360112610330576120b8614638565b6024356120c36145c4565b916120cc6145d4565b918085526020936005855260019460ff926120f68785600860408c20015460101c16151514615498565b3388526007825261210d8460408a20541615615335565b612115615443565b87526005815261213161212b6040892093614920565b95614920565b9060038301956001600160a01b03918288541695612151338814156154e3565b868b52600782526121688160408d2054161561559f565b60088601928184541660028110156124ed576121849015615610565b60068701956121998c84895416151514615554565b8c600589018981549289612710946121bb61045f878304926104598a856158a9565b600a840154891661241357505050506104959261048f6121e3959361045993540493846158a9565b925460081c1660038110156123ff578a928392909161236e5750818091858b5416828215612365575bf115610c9757865b612220575b8787815580f35b8416918787820193845490803b1561063b576040517f23b872dd000000000000000000000000000000000000000000000000000000008152306004820152336024820152604481019290925282908290606490829084905af180156106305761234b575b5050907f36622ac3c55df2afe092b02595624d4572c4cc04125857ad1b41a57b58e7cdf395600461233d9493017fffffffffffffffffffffffff0000000000000000000000000000000000000000903382825416179055815416905560ff1981541690556122f3600254615380565b60025554604080516001600160a01b0395861681526020810192909252349082015292909116606083015233608083015260843560a083015260a43560c0830152819060e0820190565b0390a1388080808080612219565b6123589094939294614775565b610a605790918738612284565b506108fc61220c565b915061066161237c91615003565b82600d5416908389541690823b15610720576040517fa9059cbb0000000000000000000000000000000000000000000000000000000081526001600160a01b0392909216600483015260248201529082908290604490829084905af18015610630576123eb575b505086612214565b6123f490614775565b610a605787386123e3565b60248b634e487b7160e01b81526021600452fd5b829550829450906002612439859c996107756104599a9561075e6007899a0154826158a9565b9b61246d8d8d7f5f616d6f756e74546f4265506169645f616d6f756e74546f4265506169640000604051916107af836147d9565b0154168282156124e4575bf1156124d95761248e906040516107dc816147d9565b5460081c1660038110156123ff578a92839290916124cb5750818091858b54168282156124c2575bf115610c975786612214565b506108fc6124b6565b915061066161237c91614d8c565b6040513d8e823e3d90fd5b506108fc612478565b60248d634e487b7160e01b81526021600452fd5b50346103305760406003193601126103305760043567ffffffffffffffff811161032c5761253390369060040161486a565b61253b614766565b6125436148c8565b82908015938415925b84518110156127bf5761255f8186614a14565b51808352600560208181526040852060080180547fffffffffffffffffffffffffffffffffffffffffffffffffffffffffff00ffff1687151560101b62ff0000161781558792908a908161278b575b506125f2575b506125ed93927f6ffa1c2dfe558962660d78387d612607ef3f19ee482f7d51a12634d131e8db6e926040928351928352820152a1615380565b61254c565b83865260069081835260408720916007830154926001600160a01b03918285169384612623575b50505050506125b4565b8260ff9394959697985001549201549460a01c166003811015612777578a9189916001810361270e5750505050600d541690813b1561270a576040517fa9059cbb0000000000000000000000000000000000000000000000000000000081526001600160a01b03919091166004820152602481019290925285908290604490829084905af18015611b4b5787929186916126f1575b50506125ed93927f6ffa1c2dfe558962660d78387d612607ef3f19ee482f7d51a12634d131e8db6e926040925b92829596829538612619565b6126fd91929350614775565b61072057859084386126b8565b8680fd5b91949296955092501561274e575b5050506125ed93927f6ffa1c2dfe558962660d78387d612607ef3f19ee482f7d51a12634d131e8db6e926040926126e5565b829394508291829182821561276e575bf1156102e957859084388061271c565b506108fc61275e565b602489634e487b7160e01b81526021600452fd5b905060ff91929350541660028110156127ab5790600188939214386125ae565b602486634e487b7160e01b81526021600452fd5b602084604051908152f35b50346103305780600319360112610330576020600354604051908152f35b50346103305760208060031936011261032c57612803614638565b33835260079081835260ff9361281f8560408320541615615335565b600391825494829683976001600160a01b03809416985b888110612928575061284790615ab1565b978495855b89811061286157604051806111768d8261467e565b8087528a60058087528a60408a2091898684015416878114612891575b505050505061288c90615380565b61284c565b938989600a61288c989f96611271968f96899761291b9b604051976128b58961479f565b8286541689526001860154908901528160028601541660408901526060880152600484015416608087015282015460a086015283600683015416151560c086015281015460e085015282600861123f828285015480936112338383166101008c016153c3565b9790508a388a818061287e565b80865260058452898588604089200154161461294d575b61294890615380565b612836565b9061295a61294891615380565b91905061293f565b50346103305760208060031936011261032c57604051612981816147f5565b6002815260403683830137826001600160a01b039182600b54166129a4826149f7565b5282600c5416604051937fad5c46480000000000000000000000000000000000000000000000000000000085528585600481855afa9081156103215761029f958592612a06575b506129f584614a04565b9116905260408051610252816147f5565b612a1e919250873d891161031a5761030c8183614811565b90386129eb565b50346103305760209081600319360112610330576004356003928354926002612a57612a52825487615668565b615ab1565b958293835b878110612a7157604051806111768b8261467e565b80855260058083526040862060ff9081600682015416808091612b86575b80612b76575b612aac575b50505050612aa790615380565b612a5c565b91600a612b6c9492612aa7969b9460405194612ac78661479f565b6001600160a01b0380845416875260018401548b880152808d850154166040880152808c850154166060880152600484015416608087015282015460a0860152151560c0850152600781015460e0850152826008612b35828285015480936112338383166101008c016153c3565b60101c16151561014085015260098101546101608501520154161515610180820152612b61828d614a14565b52611271818c614a14565b9590388080612a9a565b5082600883015460101c16612a95565b508a600983015414612a8f565b503461033057806003193601126103305760206001600160a01b03600b5416604051908152f35b50346103305760206003193601126103305760406101a09160043581526005602052206001600160a01b03808254169160ff600182015492806002840154169080600385015416906004850154166005850154846006870154169160078701549360088801549587600a60098b01549a015416996040519b8c5260208c015260408b015260608a0152608089015260a0880152151560c087015260e0860152612c69610100860183831661464e565b612c7c6101208601838360081c16614671565b60101c1615156101408401526101608301521515610180820152f35b6020612cac612ca6366145f4565b906151b8565b604051908152f35b503461033057602060031936011261033057604061016091600435815260066020522060ff8154916001600160a01b038060018301541691600281015460038201546004830154906005840154926007600686015495015496604051998a5260208a015260408901526060880152608087015260a086015260c0850152811660e0840152612d4b6101008401838360a01c16614671565b818160a81c1661012084015260b01c161515610140820152f35b503461033057602060031936011261033057600435906005821015610330575060005260096020526020604060002054604051908152f35b5034610330576020600319360112610330576020612dbc600435615b7f565b6040519015158152f35b503461033057604060031936011261033057612e1a612de3614638565b6001600160a01b03612df3614766565b91612dfc6148c8565b1683526007602052604083209060ff60ff1983541691151516179055565b80f35b503461033057806003193601126103305760206001600160a01b0360015416604051908152f35b50346103305780600319360112610330576003908154906002612e6b612a52825485615668565b938291835b858110612e855760405180611176898261467e565b80855260056020908082526040872060ff918260068301541690818092612f8c575b612ebf575b5050505050612eba90615380565b612e70565b612f819492612eba96999492600a9260405195612edb8761479f565b6001600160a01b0390818554168852600185015490880152808b850154166040880152808c850154166060880152600484015416608087015282015460a0860152151560c0850152600781015460e0850152826008612f4a828285015480936112338383166101008c016153c3565b60101c16151561014085015260098101546101608501520154161515610180820152612f76828b614a14565b52611271818a614a14565b939038808080612eac565b5083600884015460101c16612ea7565b5034610330576020600319360112610330576020612cac600435614afe565b50346103305760206003193601126103305760ff60406020926001600160a01b03612fe4614638565b168152600784522054166040519015158152f35b50346103305760e060031936011261033057613012614638565b9060443560643592338352600760205261303360ff60408520541615615335565b61303b615443565b6024938435845260056020526040842083156134975760048101336001600160a01b038254160361342d576001600160a01b038416803b1561270a576040517f23b872dd000000000000000000000000000000000000000000000000000000008152336004820152306024820152883560448201529087908290606490829084905af18015610c9757908791613415575b505060038201337fffffffffffffffffffffffff0000000000000000000000000000000000000000825416179055307fffffffffffffffffffffffff00000000000000000000000000000000000000008254161790558360058201556006810160ff1990600182825416179055600283101561340257600882019061315184836153db565b6001600a84019182541617905560018314613220575b50600254801561320d577fffffffffffffffffffffffffffffffffffffffffffffffffffffffffffffffff0160025560090154604080516001600160a01b03949094168452953560208401523395830195909552306060830152608082019290925260a081019390935260c083015260c43560e0830152907ff744c4e912fa3b7b216317585f74fc338fdfb67d0aa78e9c1078c6c7bb0d16b39061010090a16001815580f35b8686634e487b7160e01b81526011600452fd5b60ff905460081c1661327460405191613238836147bc565b88358352336020840152866040840152608435606084015260a43560808401528760a08401528760c08401528760e084015261010083016153cf565b6096610120820152600161014082015286358652600660205260076040872082518155600181016001600160a01b036020850151167fffffffffffffffffffffffff000000000000000000000000000000000000000082541617905560408301516002820155606083015160038201556080830151600482015560a0830151600582015560c0830151600682015501906001600160a01b0360e0820151167fffffffffffffffffffffffff00000000000000000000000000000000000000008354161782556101008101519060038210156133ef5761335661014092846153f4565b61012081015183547fffffffffffffffffffff00ffffffffffffffffffffffffffffffffffffffffff1660a89190911b75ff00000000000000000000000000000000000000000016178355015181547fffffffffffffffffff00ffffffffffffffffffffffffffffffffffffffffffff1690151560b01b76ff000000000000000000000000000000000000000000001617905538613167565b8888634e487b7160e01b81526021600452fd5b8686634e487b7160e01b81526021600452fd5b61341e90614775565b6134295785386130cc565b8580fd5b608487602a6040519162461bcd60e51b8352602060048401528201527f4f6e6c7920746865206f776e6572206f6620616e206e66742063616e206c697360448201527f7420746865206e66742e000000000000000000000000000000000000000000006064820152fd5b606486601c6040519162461bcd60e51b8352602060048401528201527f5072696365206d757374206265206174206c65617374203120776569000000006044820152fd5b503461033057806003193601126103305760206001600160a01b03600a5416604051908152f35b503461033057806003193601126103305761351b6148c8565b60006001600160a01b036001547fffffffffffffffffffffffff00000000000000000000000000000000000000008116600155167f8be0079c531659141344cd1fd0a4f28419497f9722a3daafe3b4186f6b6457e08280a380f35b5034610330576020600319360112610330576020612cac6004356158bc565b50346103305760208060031936011261032c576135b0614638565b33835260079081835260ff936135cc8560408320541615615335565b600391825494829683976001600160a01b03809416985b88811061369857506135f490615ab1565b978495855b89811061360e57604051806111768d8261467e565b8087528a60058087528a60408a20918986840154168781148061368b575b8061367b575b61364a575b505050505061364590615380565b6135f9565b938989600a613645989f96611271968f96899761366e9b604051976128b58961479f565b9790508a388a8180613637565b5088600885015460101c16613632565b508860068501541661362c565b8086526005845260408620838b878a840154161491826136f4575b826136e3575b50506136ce575b6136c990615380565b6135e3565b906136db6136c991615380565b9190506136c0565b6008015460101c16905083386136b9565b6006810154821692506136b3565b5060e060031936011261033057613717614638565b602435906137236145d4565b9161372c6145e4565b908085526005602052613750600160ff600860408920015460101c16151514615498565b338552600760205261376960ff60408720541615615335565b613771615443565b845260056020526137886103d36040862094614920565b6001600160a01b03600385015416916137a3338414156154e3565b6137b8600160ff600688015416151514615554565b82865260076020526137d160ff6040882054161561559f565b60ff6008860154166002811015611b0f576137ec9015615610565b60058501546138136138028461271084046158a9565b61380d6044356158bc565b9261565b565b11613dff57856001600160a01b03600d5416803b1561032c576040517f23b872dd00000000000000000000000000000000000000000000000000000000815233600482015230602482015260448035908201529082908290606490829084905af1801561063057613deb575b50600a86015460ff16613af957506138a9906104596138b19361048f6127106044350493846158a9565b604435615668565b60ff600885015460081c1660038110156127ab5790856001819314600014613ac257506001600160a01b03600d5416906001600160a01b0360038701541690823b15610720576040517fa9059cbb0000000000000000000000000000000000000000000000000000000081526001600160a01b0392909216600483015260248201529082908290604490829084905af1801561063057613aae575b505060015b61395d57836001815580f35b6001600160a01b03821692846001820194855490803b1561063b576040517f23b872dd000000000000000000000000000000000000000000000000000000008152306004820152336024820152604481019290925282908290606490829084905af1801561063057613a9a575b50507f36622ac3c55df2afe092b02595624d4572c4cc04125857ad1b41a57b58e7cdf393816004613a8f93017fffffffffffffffffffffffff00000000000000000000000000000000000000009033828254161790556003820154166003820155600660ff198183015416910155613a43600254615380565b60025554604080516001600160a01b03958616815260208101929092526044359082015292909116606083015233608083015260a43560a083015260c43560c0830152819060e0820190565b0390a1388080611b56565b613aa390614775565b610f8b5784386139ca565b613ab790614775565b61072057833861394c565b80613acd8193614afe565b6001600160a01b03600389015416828215613af0575bf1156102e9576001613951565b506108fc613ae3565b90613baf906107756007880154610459613b1a6127106044350492836158a9565b96613b5a88604051613b2b816147d9565b600b81527f5f726f79616c74794665650000000000000000000000000000000000000000006020820152615c83565b61048f613b6989604435615668565b95613ba987604051613b7a816147d9565b601381527f5f616d6f756e744166746572526f79616c7479000000000000000000000000006020820152615c83565b846158a9565b91613bef83604051613bc0816147d9565b600f81527f5f616d6f756e74546f42655061696400000000000000000000000000000000006020820152615c83565b6001600160a01b03600d5416906001600160a01b0360028801541690823b15610720576040517fa9059cbb0000000000000000000000000000000000000000000000000000000081526001600160a01b0392909216600483015260248201529082908290604490829084905af1801561063057613dd7575b505060ff600885015460081c1660038110156127ab5790856001819314600014613ac25780604051613c98816147d9565b600d81527f7061796d656e744d6574686f64000000000000000000000000000000000000006020820152604051613d3181613d0560208201947f41304fac000000000000000000000000000000000000000000000000000000008652602060248401526044830190615bb8565b037fffffffffffffffffffffffffffffffffffffffffffffffffffffffffffffffe08101835282614811565b51906a636f6e736f6c652e6c6f675afa506001600160a01b03600d5416906001600160a01b0360038701541690823b15610720576040517fa9059cbb0000000000000000000000000000000000000000000000000000000081526001600160a01b0392909216600483015260248201529082908290604490829084905af1801561063057613dc3575b50506001613951565b613dcc90614775565b610720578338613dba565b613de090614775565b610f8b578438613c67565b613df490614775565b61342957853861387f565b608460405162461bcd60e51b815260206004820152602760248201527f4e6f7420656e6f75676820616d6f756e7420746f20636f7665722061736b696e60448201527f67207072696365000000000000000000000000000000000000000000000000006064820152fd5b50346103305760206003193601126103305760043560ff8116810361087d57612cac602091614920565b50606060031936011261033057613ea8614638565b60243590613eb4615443565b3383526007602052613ecd60ff60408520541615615335565b8183526005602052604083209060038201918254906001600160a01b03938483163303613fe55760069260048301907fffffffffffffffffffffffff00000000000000000000000000000000000000009133838254161790551690550160ff1981541690551690813b1561063b576040517f23b872dd000000000000000000000000000000000000000000000000000000008152306004820152336024820152604481018290528390818160648183885af1801561063057613fd1575b507f9894bb06983a241f784ad8cc4a606cf1b279c281ba0c7dc78e53b678d1492ee56080848460405191825260208201523360408201526044356060820152a16001815580f35b613fda90614775565b61063b578238613f8a565b606460405162461bcd60e51b815260206004820152601d60248201527f4f6e6c792053656c6c65722063616e2063616e63656c4c697374696e670000006044820152fd5b503461033057614038366145f4565b9190815260086020526040812090815483101561033057602061405b848461460a565b90546040519160031b1c8152f35b50346103305780600319360112610330576020600254604051908152f35b5034610330576020600319360112610330576020612cac6004356159fd565b50606060031936011261033057600435906024356140c26145c4565b92808352602093600685526140e4604085206004600382015491015490615c16565b614124826040516140f4816147d9565b600881527f4175637469696e73000000000000000000000000000000000000000000000000888201524290615d12565b818452600685526141456040852060038101544211908161209557506156e6565b81845260058552600180604086206008015460101c60ff1615151461416990615498565b33855260078652604085205460ff161561418290615335565b8285526006865260408520956005905260408520906141a083614920565b966002810154936127109389858704906141b9916158a9565b94600584019a8b54918204906141ce916158a9565b6141d78a6158bc565b976001600160a01b0397886003860154163314156141f490615757565b6141fd9161565b565b881015614209906157ed565b6142129161565b565b861161421d90615838565b600881015460ff1660028110156145b05760ff600661424293611cd1888095146157a2565b83600d5416803b1561062c576040517f23b872dd000000000000000000000000000000000000000000000000000000008152336004820152306024820152604481018990529089908290606490829084905af1801561205b5761459d575b506007820196875495858716968b54976006860198895492826144b5575b505050908b5550855586547fffffffffffffffffffff00ffffffffffffffffffffffffffffffffffffffffff7fffffffffffffffffffffff000000000000000000000000000000000000000000909116337fffffffffffffffffffffff00ffffffffffffffffffffffffffffffffffffffff161774010000000000000000000000000000000000000000171660a89190911b75ff000000000000000000000000000000000000000000161786555b6004810180549061025842018042116144a15782106143f2575b50500154935495549154604080519485526001600160a01b039583168616602086015296909116939093169482019490945260608101939093526080830152907fd2bac7185d7afc210e088ad31a00e9c773a7ad5c90bbf00d874a34af391b46b3908060a08101610a3e565b61012c820180921161448d579284927f8e1cb85d0855921b3c958b068fa707efb7db88099af764dd47f37eef82c3334d837fd2bac7185d7afc210e088ad31a00e9c773a7ad5c90bbf00d874a34af391b46b39b9c9794610a3e99975584848401541661447e6040519283928d846001600160a01b03604092959493606083019683521660208201520152565b0390a192949998509294614386565b602489634e487b7160e01b81526011600452fd5b60248a634e487b7160e01b81526011600452fd5b60a01c60ff166003811015610869578d91908981036145605750505087600d541690813b15612025576040517fa9059cbb0000000000000000000000000000000000000000000000000000000081526001600160a01b0391909116600482015260248101929092528b908290604490829084905af1801561201a57908b9161454c575b50509061436c92915b9091923880806142be565b61455590614775565b612016578938614538565b909291935015614579575b5050509061436c9291614541565b8280928192828215614594575bf11561205b5789388061456b565b506108fc614586565b6145a990989198614775565b96386142a0565b60248a634e487b7160e01b81526021600452fd5b6044359060ff8216820361087d57565b6064359060ff8216820361087d57565b6084359060ff8216820361087d57565b600319604091011261087d576004359060243590565b80548210156146225760005260206000200190600090565b634e487b7160e01b600052603260045260246000fd5b600435906001600160a01b038216820361087d57565b90600282101561465b5752565b634e487b7160e01b600052602160045260246000fd5b90600382101561465b5752565b60208082019080835283518092528060408094019401926000905b8382106146a857505050505090565b9091929394836101a060019288516001600160a01b0380825116835284820151858401528087830151168784015260608181840151169084015260809081830151169083015260a0808201519083015260c08082015115159083015260e08082015190830152614721610100808301519084019061464e565b6147346101208083015190840190614671565b610140818101511515908301526101608082015190830152610180908101511515908201520196019493920190614699565b60243590811515820361087d57565b67ffffffffffffffff811161478957604052565b634e487b7160e01b600052604160045260246000fd5b6101a0810190811067ffffffffffffffff82111761478957604052565b610160810190811067ffffffffffffffff82111761478957604052565b6040810190811067ffffffffffffffff82111761478957604052565b6060810190811067ffffffffffffffff82111761478957604052565b90601f7fffffffffffffffffffffffffffffffffffffffffffffffffffffffffffffffe0910116810190811067ffffffffffffffff82111761478957604052565b67ffffffffffffffff81116147895760051b60200190565b81601f8201121561087d5780359161488183614852565b9261488f6040519485614811565b808452602092838086019260051b82010192831161087d578301905b8282106148b9575050505090565b813581529083019083016148ab565b6001600160a01b036001541633036148dc57565b606460405162461bcd60e51b815260206004820152602060248201527f4f776e61626c653a2063616c6c6572206973206e6f7420746865206f776e65726044820152fd5b60ff166003810361495b5750600460005260096020527f8dc18c4ccfd75f5c815b63770fa542fd953e8fef7e0e44bbdd4913470ce7e9cb5490565b600281036149935750600360005260096020527fc575c31fea594a6eb97c8e9d3f9caee4c16218c6ef37e923234c0fe9014a61e75490565b6001036149c957600260005260096020527f6cde3cea4b3a3fb2488b2808bae7556f4a405e50f65e1794383bc026131b13c35490565b6000805260096020527fec8156718a8372b1db44bb411437d0870f3e3790d4a08526d024ce1b0b668f6b5490565b8051156146225760200190565b8051600110156146225760400190565b80518210156146225760209160051b010190565b9081602091031261087d57516001600160a01b038116810361087d5790565b602090818184031261087d5780519067ffffffffffffffff821161087d57019180601f8401121561087d578251614a7d81614852565b93614a8b6040519586614811565b818552838086019260051b82010192831161087d578301905b828210614ab2575050505090565b81518152908301908301614aa4565b90815180825260208080930193019160005b828110614ae1575050505090565b83516001600160a01b031685529381019392810192600101614ad3565b906000916040928351614b10816147f5565b60028152843660208301376001600160a01b0380600b5416614b31836149f7565b526004602082600c54168851928380927fad5c46480000000000000000000000000000000000000000000000000000000082525afa908115614d1f578491614d3c575b5081614b7f84614a04565b9116905280600d541681600a5416813b15610f8b578491604483928a5194859384927f095ea7b300000000000000000000000000000000000000000000000000000000845260048401528a60248401525af18015614d1f57614d29575b50858051614be9816147f5565b60028152602036910137600c54168551937fd06ca61f000000000000000000000000000000000000000000000000000000008552806004860152866024860152838580614c396044820187614ac1565b0381855afa948515614d1f578495614cf9575b50918391614ca69383614c5e88614a04565b518a51968795869485937f4a25d94a0000000000000000000000000000000000000000000000000000000085526004850152602484015260a0604484015260a4830190614ac1565b30606483015242608483015203925af1948515614cee5750614ccf9394614cd3575b5050614a04565b5190565b614ce6913d8091833e6102da8183614811565b503880614cc8565b51913d9150823e3d90fd5b614ca69391955091614d1585933d8086833e6102da8183614811565b9591935091614c4c565b87513d86823e3d90fd5b614d3590939193614775565b9138614bdc565b614d54915060203d811161031a5761030c8183614811565b38614b74565b90614d816060936001600160a01b0392979695978452608060208501526080840190614ac1565b951660408201520152565b906040918251614d9b816147f5565b6002815260208436828401376001600160a01b039081600c54169186517fad5c46480000000000000000000000000000000000000000000000000000000081528281600481875afa908115614ff857600091614fdb575b5081614dfd866149f7565b91169052600b5416614e0e84614a04565b52858051614e1b816147f5565b6002815282369101378551937fd06ca61f00000000000000000000000000000000000000000000000000000000855280600486015286602486015260008580614e676044820188614ac1565b0381865afa948515614fd057600095614fa0575b5091614f12614f5f9492614ec46000958a51614e96816147d9565b601a81527f75736474416d6f756e744f757475736474416d6f756e744f757400000000000084820152615c83565b614ecd87614a04565b51614ed7886149f7565b51917f616d6f756e74734f7574000000000000000000000000000000000000000000008b5191614f06836147d9565b600a8352820152615d12565b614f1b856149f7565b51614f2586614a04565b519088518096819582947f7ff36ab50000000000000000000000000000000000000000000000000000000084524291309160048601614d5a565b03925af18015614f9557614ccf939450614f7a575b50614a04565b614f8e903d806000833e6102da8183614811565b5038614f74565b84513d6000823e3d90fd5b614f5f9492614ec4614fc3614f129360009795993d8091833e6102da8183614811565b9793955050929450614e7b565b87513d6000823e3d90fd5b614ff29150833d851161031a5761030c8183614811565b38614df2565b88513d6000823e3d90fd5b906040918251615012816147f5565b6002815260208436828401376001600160a01b039081600c54169186517fad5c46480000000000000000000000000000000000000000000000000000000081528281600481875afa908115614ff85760009161519b575b5081615074866149f7565b91169052600b541661508584614a04565b52858051615092816147f5565b6002815282369101378551937fd06ca61f000000000000000000000000000000000000000000000000000000008552806004860152866024860152600085806150de6044820188614ac1565b0381865afa948515614fd05760009561516b575b509161510d61514f9492614ec46000958a51614e96816147d9565b61511685614a04565b5187518095819482937f7ff36ab50000000000000000000000000000000000000000000000000000000084524291309160048601614d5a565b039134905af18015614f9557614ccf939450614f7a5750614a04565b61514f9492614ec461518e61510d9360009795993d8091833e6102da8183614811565b97939550509294506150f2565b6151b29150833d851161031a5761030c8183614811565b38615069565b604080519093926151c8826147f5565b6002825260208536828501376001600160a01b039182600c54169187517fad5c46480000000000000000000000000000000000000000000000000000000081528181600481875afa90811561530d57600091615318575b508461522a876149f7565b9116905283600b541661523c86614a04565b52878051615249816147f5565b6002815282369101378751957fd06ca61f00000000000000000000000000000000000000000000000000000000875280600488015288602488015260008780615295604482018a614ac1565b0381875afa96871561530d576000976152e8575b5090614ec46152bd928a51614e96816147d9565b6152d6575061514f91600091600c541661511685614a04565b6000915091614f5f92614f1b856149f7565b615304614ec4916152bd9493993d8091833e6102da8183614811565b979192506152a9565b89513d6000823e3d90fd5b61532f9150823d841161031a5761030c8183614811565b3861521f565b1561533c57565b606460405162461bcd60e51b815260206004820152602060248201527f596f75206172652062616e6e6564206f6e207468697320706c6174666f726d2e6044820152fd5b7fffffffffffffffffffffffffffffffffffffffffffffffffffffffffffffffff81146153ad5760010190565b634e487b7160e01b600052601160045260246000fd5b600282101561465b5752565b600382101561465b5752565b90600281101561465b5760ff60ff198354169116179055565b90600381101561465b577fffffffffffffffffffffff00ffffffffffffffffffffffffffffffffffffffff74ff000000000000000000000000000000000000000083549260a01b169116179055565b600260005414615454576002600055565b606460405162461bcd60e51b815260206004820152601f60248201527f5265656e7472616e637947756172643a207265656e7472616e742063616c6c006044820152fd5b1561549f57565b606460405162461bcd60e51b815260206004820152601460248201527f61646d696e20426c6f636b2054686973204e46540000000000000000000000006044820152fd5b156154ea57565b608460405162461bcd60e51b815260206004820152602560248201527f416e206f776e65722063616e6e6f7420707572636861736520697473206f776e60448201527f204e46542e0000000000000000000000000000000000000000000000000000006064820152fd5b1561555b57565b606460405162461bcd60e51b815260206004820152601d60248201527f4e6674206973206e6f74206c697374656420746f2070757263686173650000006044820152fd5b156155a657565b608460405162461bcd60e51b815260206004820152603660248201527f546865206f776e6572206f662074686973206e667420697320626c61636b6c6960448201527f73746564206f6e207468697320706c6174666f726d2e000000000000000000006064820152fd5b1561561757565b606460405162461bcd60e51b815260206004820152601a60248201527f54686973204e4654206973206e6f742061742061756374696f6e0000000000006044820152fd5b919082018092116153ad57565b919082039182116153ad57565b1561567c57565b608460405162461bcd60e51b815260206004820152602660248201527f4e6f7420656e6f75676820657468657220746f20636f7665722061736b696e6760448201527f20707269636500000000000000000000000000000000000000000000000000006064820152fd5b156156ed57565b608460405162461bcd60e51b815260206004820152602960248201527f54686973204e4654206973206e6f74206f6e2061756374696f6e20617420746860448201527f65206d6f6d656e742e00000000000000000000000000000000000000000000006064820152fd5b1561575e57565b606460405162461bcd60e51b815260206004820152601b60248201527f73656c6c65722063616e27742062696420696e2061756374696f6e00000000006044820152fd5b156157a957565b606460405162461bcd60e51b815260206004820152601960248201527f54686973204e46542069732061742061742061756374696f6e000000000000006044820152fd5b156157f457565b606460405162461bcd60e51b815260206004820152601c60248201527f4d696e696d756d206269642068617320746f20626520686967686572000000006044820152fd5b1561583f57565b608460405162461bcd60e51b815260206004820152603c60248201527f596f75206861766520746f2062696420686967686572207468616e207468652060448201527f686967686573742062696420746f206d616b6520616e206f66666572000000006064820152fd5b818102929181159184041417156153ad57565b906040918251906158cc826147f5565b60028252833660208401376001600160a01b039182600b54166158ee826149f7565b5282600c54168551927fad5c4648000000000000000000000000000000000000000000000000000000008452602084600481855afa8015614fd05761599b9560009586926159dd575b5061594185614a04565b91169052868051615951816147f5565b6002815260203691013786518095819482937fd06ca61f00000000000000000000000000000000000000000000000000000000845260048401528960248401526044830190614ac1565b03915afa9081156159d257614ccf9293506000916159b95750614a04565b6159cc913d8091833e6102da8183614811565b38614f74565b83513d6000823e3d90fd5b6159f691925060203d811161031a5761030c8183614811565b9038615937565b90604091825190615a0d826147f5565b60028252833660208401376001600160a01b039182600c54168551927fad5c4648000000000000000000000000000000000000000000000000000000008452602084600481855afa948515614fd05761599b956000958691615a93575b5081615a75866149f7565b91169052600b5416615a8684614a04565b52868051615951816147f5565b615aab915060203d811161031a5761030c8183614811565b38615a6a565b90615abb82614852565b604090615aca82519182614811565b8381527fffffffffffffffffffffffffffffffffffffffffffffffffffffffffffffffe0615af88295614852565b019160005b838110615b0a5750505050565b6020908251615b188161479f565b60008152826000818301526000858301526000606083015260006080830152600060a0830152600060c0830152600060e083015260006101008301526000610120830152600061014083015260006101608301526000610180830152828601015201615afd565b60005260066020526040600020600381015442119081615baa575b5015615ba557600190565b600090565b600491500154421038615b9a565b919082519283825260005b848110615c025750507fffffffffffffffffffffffffffffffffffffffffffffffffffffffffffffffe0601f8460006020809697860101520116010190565b602081830181015184830182015201615bc3565b6040519160208301917ff666715a0000000000000000000000000000000000000000000000000000000083526024840152604483015260448252608082019082821067ffffffffffffffff83111761478957600092839260405251906a636f6e736f6c652e6c6f675afa50565b600091908291615cff6040518092615ccd60208301957fb60e72cc000000000000000000000000000000000000000000000000000000008752604060248501526064840190615bb8565b906044830152037fffffffffffffffffffffffffffffffffffffffffffffffffffffffffffffffe08101835282614811565b51906a636f6e736f6c652e6c6f675afa50565b60009291615cff8493604051928391615d5d60208401967fca47c4eb000000000000000000000000000000000000000000000000000000008852606060248601526084850190615bb8565b9160448401526064830152037fffffffffffffffffffffffffffffffffffffffffffffffffffffffffffffffe0810183528261481156fea26469706673582212201f6b74c25fb89aa4b288259d27796c3a23042127f819eb28bbb2c8ab91cf13dd64736f6c634300081400334f776e61626c653a2063616c6c6572206973206e6f7420746865206f776e6572",
  "linkReferences": {},
  "deployedLinkReferences": {}
}