{
  "_format": "hh-sol-artifact-1",
  "contractName": "ArtiziaMarketplace",
  "sourceName": "contracts/ArtiziaMarketplace.sol",
  "abi": [
    {
      "inputs": [
        {
          "internalType": "address",
          "name": "_token",
          "type": "address"
        }
      ],
      "stateMutability": "nonpayable",
      "type": "constructor"
    },
    {
      "inputs": [],
      "name": "invalidListingType",
      "type": "error"
    },
    {
      "inputs": [],
      "name": "invalidPrice",
      "type": "error"
    },
    {
      "anonymous": false,
      "inputs": [
        {
          "indexed": false,
          "internalType": "address",
          "name": "nftContract",
          "type": "address"
        },
        {
          "indexed": false,
          "internalType": "uint256",
          "name": "tokenId",
          "type": "uint256"
        },
        {
          "indexed": false,
          "internalType": "address",
          "name": "seller",
          "type": "address"
        },
        {
          "indexed": false,
          "internalType": "address",
          "name": "owner",
          "type": "address"
        },
        {
          "indexed": false,
          "internalType": "uint256",
          "name": "price",
          "type": "uint256"
        },
        {
          "indexed": false,
          "internalType": "uint256",
          "name": "collectionId",
          "type": "uint256"
        },
        {
          "indexed": false,
          "internalType": "uint256",
          "name": "listingType",
          "type": "uint256"
        }
      ],
      "name": "NFTListed",
      "type": "event"
    },
    {
      "anonymous": false,
      "inputs": [
        {
          "indexed": false,
          "internalType": "uint256",
          "name": "tokenId",
          "type": "uint256"
        },
        {
          "indexed": false,
          "internalType": "address",
          "name": "seller",
          "type": "address"
        },
        {
          "indexed": false,
          "internalType": "address",
          "name": "buyer",
          "type": "address"
        },
        {
          "indexed": false,
          "internalType": "uint256",
          "name": "price",
          "type": "uint256"
        }
      ],
      "name": "NFTSold",
      "type": "event"
    },
    {
      "anonymous": false,
      "inputs": [
        {
          "indexed": true,
          "internalType": "address",
          "name": "previousOwner",
          "type": "address"
        },
        {
          "indexed": true,
          "internalType": "address",
          "name": "newOwner",
          "type": "address"
        }
      ],
      "name": "OwnershipTransferred",
      "type": "event"
    },
    {
      "anonymous": false,
      "inputs": [
        {
          "indexed": false,
          "internalType": "address[]",
          "name": "fans",
          "type": "address[]"
        }
      ],
      "name": "addedFans",
      "type": "event"
    },
    {
      "anonymous": false,
      "inputs": [
        {
          "indexed": false,
          "internalType": "uint256",
          "name": "tokenId",
          "type": "uint256"
        },
        {
          "indexed": false,
          "internalType": "bool",
          "name": "decision",
          "type": "bool"
        }
      ],
      "name": "approvalUpdate",
      "type": "event"
    },
    {
      "anonymous": false,
      "inputs": [
        {
          "indexed": false,
          "internalType": "uint256",
          "name": "tokenId",
          "type": "uint256"
        },
        {
          "indexed": false,
          "internalType": "address",
          "name": "seller",
          "type": "address"
        },
        {
          "indexed": false,
          "internalType": "uint256",
          "name": "newTime",
          "type": "uint256"
        }
      ],
      "name": "auctionEndTimeIncreased",
      "type": "event"
    },
    {
      "anonymous": false,
      "inputs": [
        {
          "indexed": false,
          "internalType": "uint256",
          "name": "tokenId",
          "type": "uint256"
        },
        {
          "indexed": false,
          "internalType": "address",
          "name": "seller",
          "type": "address"
        },
        {
          "indexed": false,
          "internalType": "address",
          "name": "highestBidder",
          "type": "address"
        },
        {
          "indexed": false,
          "internalType": "uint256",
          "name": "highestBid",
          "type": "uint256"
        }
      ],
      "name": "receivedABid",
      "type": "event"
    },
    {
      "anonymous": false,
      "inputs": [
        {
          "indexed": false,
          "internalType": "address",
          "name": "fan",
          "type": "address"
        }
      ],
      "name": "removeFan",
      "type": "event"
    },
    {
      "stateMutability": "payable",
      "type": "fallback"
    },
    {
      "inputs": [],
      "name": "UNISWAP_ROUTER_ADDRESS",
      "outputs": [
        {
          "internalType": "address",
          "name": "",
          "type": "address"
        }
      ],
      "stateMutability": "view",
      "type": "function"
    },
    {
      "inputs": [],
      "name": "USDT_ADDRESS",
      "outputs": [
        {
          "internalType": "address",
          "name": "",
          "type": "address"
        }
      ],
      "stateMutability": "view",
      "type": "function"
    },
    {
      "inputs": [
        {
          "internalType": "uint256",
          "name": "",
          "type": "uint256"
        }
      ],
      "name": "_idToAuction",
      "outputs": [
        {
          "internalType": "uint256",
          "name": "tokenId",
          "type": "uint256"
        },
        {
          "internalType": "address payable",
          "name": "seller",
          "type": "address"
        },
        {
          "internalType": "uint256",
          "name": "basePrice",
          "type": "uint256"
        },
        {
          "internalType": "uint256",
          "name": "startTime",
          "type": "uint256"
        },
        {
          "internalType": "uint256",
          "name": "endTime",
          "type": "uint256"
        },
        {
          "internalType": "uint256",
          "name": "highestBid",
          "type": "uint256"
        },
        {
          "internalType": "address payable",
          "name": "highestBidder",
          "type": "address"
        },
        {
          "internalType": "enum ArtiziaMarketplace.PaymentMethod",
          "name": "highestBidCurrency",
          "type": "uint8"
        }
      ],
      "stateMutability": "view",
      "type": "function"
    },
    {
      "inputs": [
        {
          "internalType": "uint256",
          "name": "",
          "type": "uint256"
        }
      ],
      "name": "_idToNFT",
      "outputs": [
        {
          "internalType": "address",
          "name": "nftContract",
          "type": "address"
        },
        {
          "internalType": "uint256",
          "name": "tokenId",
          "type": "uint256"
        },
        {
          "internalType": "address payable",
          "name": "firstOwner",
          "type": "address"
        },
        {
          "internalType": "address payable",
          "name": "seller",
          "type": "address"
        },
        {
          "internalType": "address payable",
          "name": "owner",
          "type": "address"
        },
        {
          "internalType": "uint256",
          "name": "price",
          "type": "uint256"
        },
        {
          "internalType": "bool",
          "name": "listed",
          "type": "bool"
        },
        {
          "internalType": "uint256",
          "name": "royaltyPrice",
          "type": "uint256"
        },
        {
          "internalType": "enum ArtiziaMarketplace.ListingType",
          "name": "listingType",
          "type": "uint8"
        },
        {
          "internalType": "enum ArtiziaMarketplace.PaymentMethod",
          "name": "paymentMethod",
          "type": "uint8"
        },
        {
          "internalType": "bool",
          "name": "approve",
          "type": "bool"
        },
        {
          "internalType": "uint256",
          "name": "collectionId",
          "type": "uint256"
        }
      ],
      "stateMutability": "view",
      "type": "function"
    },
    {
      "inputs": [
        {
          "internalType": "uint256",
          "name": "",
          "type": "uint256"
        }
      ],
      "name": "_idToNFT2",
      "outputs": [
        {
          "internalType": "uint256",
          "name": "tokenId",
          "type": "uint256"
        },
        {
          "internalType": "bool",
          "name": "onlyFans",
          "type": "bool"
        },
        {
          "internalType": "uint256",
          "name": "fanDiscountPercent",
          "type": "uint256"
        }
      ],
      "stateMutability": "view",
      "type": "function"
    },
    {
      "inputs": [],
      "name": "_nftCount",
      "outputs": [
        {
          "internalType": "uint256",
          "name": "_value",
          "type": "uint256"
        }
      ],
      "stateMutability": "view",
      "type": "function"
    },
    {
      "inputs": [],
      "name": "_nftsSold",
      "outputs": [
        {
          "internalType": "uint256",
          "name": "_value",
          "type": "uint256"
        }
      ],
      "stateMutability": "view",
      "type": "function"
    },
    {
      "inputs": [
        {
          "internalType": "address[]",
          "name": "fans",
          "type": "address[]"
        }
      ],
      "name": "addFans",
      "outputs": [],
      "stateMutability": "nonpayable",
      "type": "function"
    },
    {
      "inputs": [
        {
          "internalType": "uint256[]",
          "name": "_tokenId",
          "type": "uint256[]"
        },
        {
          "internalType": "bool",
          "name": "_decision",
          "type": "bool"
        }
      ],
      "name": "approveNfts",
      "outputs": [
        {
          "internalType": "bool",
          "name": "",
          "type": "bool"
        }
      ],
      "stateMutability": "nonpayable",
      "type": "function"
    },
    {
      "inputs": [
        {
          "internalType": "address",
          "name": "_user",
          "type": "address"
        }
      ],
      "name": "banUser",
      "outputs": [],
      "stateMutability": "nonpayable",
      "type": "function"
    },
    {
      "inputs": [
        {
          "internalType": "address",
          "name": "",
          "type": "address"
        },
        {
          "internalType": "uint256",
          "name": "",
          "type": "uint256"
        }
      ],
      "name": "bannedNfts",
      "outputs": [
        {
          "internalType": "uint256",
          "name": "",
          "type": "uint256"
        }
      ],
      "stateMutability": "view",
      "type": "function"
    },
    {
      "inputs": [
        {
          "internalType": "address",
          "name": "",
          "type": "address"
        }
      ],
      "name": "bannedUsers",
      "outputs": [
        {
          "internalType": "bool",
          "name": "",
          "type": "bool"
        }
      ],
      "stateMutability": "view",
      "type": "function"
    },
    {
      "inputs": [
        {
          "internalType": "uint256",
          "name": "_tokenId",
          "type": "uint256"
        },
        {
          "internalType": "uint256",
          "name": "_bidCurrency",
          "type": "uint256"
        }
      ],
      "name": "bidInETH",
      "outputs": [],
      "stateMutability": "payable",
      "type": "function"
    },
    {
      "inputs": [
        {
          "internalType": "uint256",
          "name": "_tokenId",
          "type": "uint256"
        },
        {
          "internalType": "uint256",
          "name": "_amount",
          "type": "uint256"
        },
        {
          "internalType": "uint256",
          "name": "_bidCurrency",
          "type": "uint256"
        },
        {
          "internalType": "uint256",
          "name": "_amountInETHInWei",
          "type": "uint256"
        }
      ],
      "name": "bidInUSDT",
      "outputs": [],
      "stateMutability": "payable",
      "type": "function"
    },
    {
      "inputs": [
        {
          "internalType": "address",
          "name": "_nftContract",
          "type": "address"
        },
        {
          "internalType": "uint256",
          "name": "_paymentMethod",
          "type": "uint256"
        },
        {
          "internalType": "uint256",
          "name": "_tokenId",
          "type": "uint256"
        },
        {
          "internalType": "uint8",
          "name": "_sellerPlan",
          "type": "uint8"
        },
        {
          "internalType": "uint8",
          "name": "_buyerPlan",
          "type": "uint8"
        }
      ],
      "name": "buyWithETH",
      "outputs": [],
      "stateMutability": "payable",
      "type": "function"
    },
    {
      "inputs": [
        {
          "internalType": "address",
          "name": "_nftContract",
          "type": "address"
        },
        {
          "internalType": "uint256",
          "name": "_paymentMethod",
          "type": "uint256"
        },
        {
          "internalType": "uint256",
          "name": "_tokenId",
          "type": "uint256"
        },
        {
          "internalType": "uint8",
          "name": "_sellerPlan",
          "type": "uint8"
        },
        {
          "internalType": "uint8",
          "name": "_buyerPlan",
          "type": "uint8"
        },
        {
          "internalType": "uint256",
          "name": "_amount",
          "type": "uint256"
        },
        {
          "internalType": "uint256",
          "name": "_amountInETHInWei",
          "type": "uint256"
        }
      ],
      "name": "buyWithUSDT",
      "outputs": [],
      "stateMutability": "payable",
      "type": "function"
    },
    {
      "inputs": [
        {
          "internalType": "uint256",
          "name": "_tokenId",
          "type": "uint256"
        },
        {
          "internalType": "uint256",
          "name": "_newDiscountPercent",
          "type": "uint256"
        }
      ],
      "name": "changeFanDiscountPercent",
      "outputs": [],
      "stateMutability": "nonpayable",
      "type": "function"
    },
    {
      "inputs": [
        {
          "internalType": "uint256",
          "name": "_tokenId",
          "type": "uint256"
        }
      ],
      "name": "checkFan",
      "outputs": [
        {
          "internalType": "bool",
          "name": "",
          "type": "bool"
        }
      ],
      "stateMutability": "view",
      "type": "function"
    },
    {
      "inputs": [
        {
          "internalType": "address",
          "name": "_nftContract",
          "type": "address"
        },
        {
          "internalType": "uint256",
          "name": "_tokenId",
          "type": "uint256"
        },
        {
          "internalType": "uint8",
          "name": "_sellerPlan",
          "type": "uint8"
        },
        {
          "internalType": "uint8",
          "name": "_buyerPlan",
          "type": "uint8"
        }
      ],
      "name": "closeAuction",
      "outputs": [],
      "stateMutability": "payable",
      "type": "function"
    },
    {
      "inputs": [
        {
          "internalType": "uint256",
          "name": "",
          "type": "uint256"
        },
        {
          "internalType": "uint256",
          "name": "",
          "type": "uint256"
        }
      ],
      "name": "collection",
      "outputs": [
        {
          "internalType": "uint256",
          "name": "",
          "type": "uint256"
        }
      ],
      "stateMutability": "view",
      "type": "function"
    },
    {
      "inputs": [
        {
          "internalType": "address",
          "name": "",
          "type": "address"
        },
        {
          "internalType": "uint256",
          "name": "",
          "type": "uint256"
        }
      ],
      "name": "fanLists",
      "outputs": [
        {
          "internalType": "address",
          "name": "",
          "type": "address"
        }
      ],
      "stateMutability": "view",
      "type": "function"
    },
    {
      "inputs": [
        {
          "internalType": "uint256",
          "name": "_collectionId",
          "type": "uint256"
        }
      ],
      "name": "getCollectionNfts",
      "outputs": [
        {
          "components": [
            {
              "internalType": "address",
              "name": "nftContract",
              "type": "address"
            },
            {
              "internalType": "uint256",
              "name": "tokenId",
              "type": "uint256"
            },
            {
              "internalType": "address payable",
              "name": "firstOwner",
              "type": "address"
            },
            {
              "internalType": "address payable",
              "name": "seller",
              "type": "address"
            },
            {
              "internalType": "address payable",
              "name": "owner",
              "type": "address"
            },
            {
              "internalType": "uint256",
              "name": "price",
              "type": "uint256"
            },
            {
              "internalType": "bool",
              "name": "listed",
              "type": "bool"
            },
            {
              "internalType": "uint256",
              "name": "royaltyPrice",
              "type": "uint256"
            },
            {
              "internalType": "enum ArtiziaMarketplace.ListingType",
              "name": "listingType",
              "type": "uint8"
            },
            {
              "internalType": "enum ArtiziaMarketplace.PaymentMethod",
              "name": "paymentMethod",
              "type": "uint8"
            },
            {
              "internalType": "bool",
              "name": "approve",
              "type": "bool"
            },
            {
              "internalType": "uint256",
              "name": "collectionId",
              "type": "uint256"
            }
          ],
          "internalType": "struct ArtiziaMarketplace.NFT[]",
          "name": "",
          "type": "tuple[]"
        }
      ],
      "stateMutability": "view",
      "type": "function"
    },
    {
      "inputs": [
        {
          "internalType": "address",
          "name": "user",
          "type": "address"
        }
      ],
      "name": "getFans",
      "outputs": [
        {
          "internalType": "address[]",
          "name": "",
          "type": "address[]"
        }
      ],
      "stateMutability": "view",
      "type": "function"
    },
    {
      "inputs": [],
      "name": "getLatestUSDTPrice",
      "outputs": [
        {
          "internalType": "uint256",
          "name": "",
          "type": "uint256"
        }
      ],
      "stateMutability": "view",
      "type": "function"
    },
    {
      "inputs": [],
      "name": "getListedNfts",
      "outputs": [
        {
          "components": [
            {
              "internalType": "address",
              "name": "nftContract",
              "type": "address"
            },
            {
              "internalType": "uint256",
              "name": "tokenId",
              "type": "uint256"
            },
            {
              "internalType": "address payable",
              "name": "firstOwner",
              "type": "address"
            },
            {
              "internalType": "address payable",
              "name": "seller",
              "type": "address"
            },
            {
              "internalType": "address payable",
              "name": "owner",
              "type": "address"
            },
            {
              "internalType": "uint256",
              "name": "price",
              "type": "uint256"
            },
            {
              "internalType": "bool",
              "name": "listed",
              "type": "bool"
            },
            {
              "internalType": "uint256",
              "name": "royaltyPrice",
              "type": "uint256"
            },
            {
              "internalType": "enum ArtiziaMarketplace.ListingType",
              "name": "listingType",
              "type": "uint8"
            },
            {
              "internalType": "enum ArtiziaMarketplace.PaymentMethod",
              "name": "paymentMethod",
              "type": "uint8"
            },
            {
              "internalType": "bool",
              "name": "approve",
              "type": "bool"
            },
            {
              "internalType": "uint256",
              "name": "collectionId",
              "type": "uint256"
            }
          ],
          "internalType": "struct ArtiziaMarketplace.NFT[]",
          "name": "",
          "type": "tuple[]"
        }
      ],
      "stateMutability": "view",
      "type": "function"
    },
    {
      "inputs": [
        {
          "internalType": "address",
          "name": "_user",
          "type": "address"
        }
      ],
      "name": "getMyListedNfts",
      "outputs": [
        {
          "components": [
            {
              "internalType": "address",
              "name": "nftContract",
              "type": "address"
            },
            {
              "internalType": "uint256",
              "name": "tokenId",
              "type": "uint256"
            },
            {
              "internalType": "address payable",
              "name": "firstOwner",
              "type": "address"
            },
            {
              "internalType": "address payable",
              "name": "seller",
              "type": "address"
            },
            {
              "internalType": "address payable",
              "name": "owner",
              "type": "address"
            },
            {
              "internalType": "uint256",
              "name": "price",
              "type": "uint256"
            },
            {
              "internalType": "bool",
              "name": "listed",
              "type": "bool"
            },
            {
              "internalType": "uint256",
              "name": "royaltyPrice",
              "type": "uint256"
            },
            {
              "internalType": "enum ArtiziaMarketplace.ListingType",
              "name": "listingType",
              "type": "uint8"
            },
            {
              "internalType": "enum ArtiziaMarketplace.PaymentMethod",
              "name": "paymentMethod",
              "type": "uint8"
            },
            {
              "internalType": "bool",
              "name": "approve",
              "type": "bool"
            },
            {
              "internalType": "uint256",
              "name": "collectionId",
              "type": "uint256"
            }
          ],
          "internalType": "struct ArtiziaMarketplace.NFT[]",
          "name": "",
          "type": "tuple[]"
        }
      ],
      "stateMutability": "view",
      "type": "function"
    },
    {
      "inputs": [
        {
          "internalType": "address",
          "name": "_user",
          "type": "address"
        }
      ],
      "name": "getMyNfts",
      "outputs": [
        {
          "components": [
            {
              "internalType": "address",
              "name": "nftContract",
              "type": "address"
            },
            {
              "internalType": "uint256",
              "name": "tokenId",
              "type": "uint256"
            },
            {
              "internalType": "address payable",
              "name": "firstOwner",
              "type": "address"
            },
            {
              "internalType": "address payable",
              "name": "seller",
              "type": "address"
            },
            {
              "internalType": "address payable",
              "name": "owner",
              "type": "address"
            },
            {
              "internalType": "uint256",
              "name": "price",
              "type": "uint256"
            },
            {
              "internalType": "bool",
              "name": "listed",
              "type": "bool"
            },
            {
              "internalType": "uint256",
              "name": "royaltyPrice",
              "type": "uint256"
            },
            {
              "internalType": "enum ArtiziaMarketplace.ListingType",
              "name": "listingType",
              "type": "uint8"
            },
            {
              "internalType": "enum ArtiziaMarketplace.PaymentMethod",
              "name": "paymentMethod",
              "type": "uint8"
            },
            {
              "internalType": "bool",
              "name": "approve",
              "type": "bool"
            },
            {
              "internalType": "uint256",
              "name": "collectionId",
              "type": "uint256"
            }
          ],
          "internalType": "struct ArtiziaMarketplace.NFT[]",
          "name": "",
          "type": "tuple[]"
        }
      ],
      "stateMutability": "view",
      "type": "function"
    },
    {
      "inputs": [
        {
          "internalType": "uint256",
          "name": "_tokenId",
          "type": "uint256"
        }
      ],
      "name": "getStatusOfAuction",
      "outputs": [
        {
          "internalType": "bool",
          "name": "",
          "type": "bool"
        }
      ],
      "stateMutability": "view",
      "type": "function"
    },
    {
      "inputs": [
        {
          "internalType": "uint8",
          "name": "level",
          "type": "uint8"
        }
      ],
      "name": "getSubscriptionFee",
      "outputs": [
        {
          "internalType": "uint256",
          "name": "",
          "type": "uint256"
        }
      ],
      "stateMutability": "view",
      "type": "function"
    },
    {
      "inputs": [
        {
          "internalType": "address",
          "name": "_user",
          "type": "address"
        }
      ],
      "name": "getUsersNfts",
      "outputs": [
        {
          "components": [
            {
              "internalType": "address",
              "name": "nftContract",
              "type": "address"
            },
            {
              "internalType": "uint256",
              "name": "tokenId",
              "type": "uint256"
            },
            {
              "internalType": "address payable",
              "name": "firstOwner",
              "type": "address"
            },
            {
              "internalType": "address payable",
              "name": "seller",
              "type": "address"
            },
            {
              "internalType": "address payable",
              "name": "owner",
              "type": "address"
            },
            {
              "internalType": "uint256",
              "name": "price",
              "type": "uint256"
            },
            {
              "internalType": "bool",
              "name": "listed",
              "type": "bool"
            },
            {
              "internalType": "uint256",
              "name": "royaltyPrice",
              "type": "uint256"
            },
            {
              "internalType": "enum ArtiziaMarketplace.ListingType",
              "name": "listingType",
              "type": "uint8"
            },
            {
              "internalType": "enum ArtiziaMarketplace.PaymentMethod",
              "name": "paymentMethod",
              "type": "uint8"
            },
            {
              "internalType": "bool",
              "name": "approve",
              "type": "bool"
            },
            {
              "internalType": "uint256",
              "name": "collectionId",
              "type": "uint256"
            }
          ],
          "internalType": "struct ArtiziaMarketplace.NFT[]",
          "name": "",
          "type": "tuple[]"
        }
      ],
      "stateMutability": "view",
      "type": "function"
    },
    {
      "inputs": [
        {
          "internalType": "address",
          "name": "",
          "type": "address"
        },
        {
          "internalType": "address",
          "name": "",
          "type": "address"
        }
      ],
      "name": "isFan",
      "outputs": [
        {
          "internalType": "bool",
          "name": "",
          "type": "bool"
        }
      ],
      "stateMutability": "view",
      "type": "function"
    },
    {
      "inputs": [
        {
          "internalType": "address",
          "name": "_nftContract",
          "type": "address"
        },
        {
          "internalType": "uint256[]",
          "name": "_tokenId",
          "type": "uint256[]"
        },
        {
          "internalType": "uint256[]",
          "name": "_price",
          "type": "uint256[]"
        },
        {
          "internalType": "uint256[]",
          "name": "_royaltyPrice",
          "type": "uint256[]"
        },
        {
          "internalType": "uint256",
          "name": "_listingType",
          "type": "uint256"
        },
        {
          "internalType": "uint256[]",
          "name": "_startTime",
          "type": "uint256[]"
        },
        {
          "internalType": "uint256[]",
          "name": "_endTime",
          "type": "uint256[]"
        },
        {
          "internalType": "uint256",
          "name": "_collectionId",
          "type": "uint256"
        },
        {
          "internalType": "uint256",
          "name": "_paymentMethod",
          "type": "uint256"
        }
      ],
      "name": "listNft",
      "outputs": [],
      "stateMutability": "payable",
      "type": "function"
    },
    {
      "inputs": [],
      "name": "owner",
      "outputs": [
        {
          "internalType": "address",
          "name": "",
          "type": "address"
        }
      ],
      "stateMutability": "view",
      "type": "function"
    },
    {
      "inputs": [
        {
          "internalType": "address",
          "name": "addressToRemove",
          "type": "address"
        }
      ],
      "name": "removeFans",
      "outputs": [],
      "stateMutability": "nonpayable",
      "type": "function"
    },
    {
      "inputs": [],
      "name": "renounceOwnership",
      "outputs": [],
      "stateMutability": "nonpayable",
      "type": "function"
    },
    {
      "inputs": [
        {
          "internalType": "enum ArtiziaMarketplace.SubscriptionLevel",
          "name": "",
          "type": "uint8"
        }
      ],
      "name": "subscriptionFees",
      "outputs": [
        {
          "internalType": "uint256",
          "name": "",
          "type": "uint256"
        }
      ],
      "stateMutability": "view",
      "type": "function"
    },
    {
      "inputs": [
        {
          "internalType": "uint256",
          "name": "usdtAmountOut",
          "type": "uint256"
        },
        {
          "internalType": "uint256",
          "name": "meth",
          "type": "uint256"
        }
      ],
      "name": "swapETHForUSDT",
      "outputs": [],
      "stateMutability": "payable",
      "type": "function"
    },
    {
      "inputs": [
        {
          "internalType": "uint256",
          "name": "usdtAmountIn",
          "type": "uint256"
        }
      ],
      "name": "swapUSDTForETH",
      "outputs": [
        {
          "internalType": "uint256",
          "name": "",
          "type": "uint256"
        }
      ],
      "stateMutability": "nonpayable",
      "type": "function"
    },
    {
      "inputs": [
        {
          "internalType": "address",
          "name": "newOwner",
          "type": "address"
        }
      ],
      "name": "transferOwnership",
      "outputs": [],
      "stateMutability": "nonpayable",
      "type": "function"
    },
    {
      "inputs": [
        {
          "internalType": "address",
          "name": "_user",
          "type": "address"
        }
      ],
      "name": "unbanUser",
      "outputs": [],
      "stateMutability": "nonpayable",
      "type": "function"
    },
    {
      "stateMutability": "payable",
      "type": "receive"
    }
  ],
  "bytecode": "0x6080604052600e80546001600160a01b0319908116737a250d5630b4cf539739df2c5dacb4c659f2488d17909155600f805490911673dac17f958d2ee523a2206206994597c13d831ec71790553480156200005957600080fd5b50604051620061d7380380620061d78339810160408190526200007c9162000213565b60016000556200008c3362000113565b600480546001600160a01b03199081163317909155600e546010805483166001600160a01b039283161790556011805491841691909216179055620000d46000609662000165565b620000e26001609662000165565b620000f06002609662000165565b620000fe6003606462000165565b6200010c6004600062000165565b506200025b565b600180546001600160a01b038381166001600160a01b0319831681179093556040519116919082907f8be0079c531659141344cd1fd0a4f28419497f9722a3daafe3b4186f6b6457e090600090a35050565b6200016f620001b2565b80600d600084600481111562000189576200018962000245565b60048111156200019d576200019d62000245565b81526020810191909152604001600020555050565b6001546001600160a01b03163314620002115760405162461bcd60e51b815260206004820181905260248201527f4f776e61626c653a2063616c6c6572206973206e6f7420746865206f776e6572604482015260640160405180910390fd5b565b6000602082840312156200022657600080fd5b81516001600160a01b03811681146200023e57600080fd5b9392505050565b634e487b7160e01b600052602160045260246000fd5b615f6c806200026b6000396000f3fe6080604052600436106102275760003560e01c80639a6e94be11610122578063c1892058116100a5578063e4fb2ab21161006c578063e4fb2ab2146107e0578063ed5a1c0f14610800578063f2fde38b1461083b578063f41dfb181461085b578063f6c1b77a1461086e57005b8063c189205814610749578063c36ac2d214610769578063d12824f114610789578063d6cbb202146107a9578063d6fc3dbd146107c057005b8063b32ac0c6116100e9578063b32ac0c6146105cd578063b4fa0412146105e0578063b8820d8214610665578063b9e07df114610678578063bbffa07b1461072957005b80639a6e94be146104a85780639c744058146105025780639ea36e8814610522578063a8ab8c0314610573578063aeb46a1b146105a057005b80635274cff6116101aa5780638988d078116101715780638988d078146104005780638cd410f4146104405780638d6cb3fb146104605780638da5cb5b1461047557806398dd36bf1461049357005b80635274cff6146103465780635ca11fa314610373578063715018a614610393578063719b2188146103a857806379b36943146103c857005b80634348478b116101ee5780634348478b146102c05780634afbcdae146102d35780634d12b695146102f35780634d3fb817146103135780635021b42b1461033357005b806310d86b1f1461023057806330221fc51461025057806331824a491461026357806331a7a70f1461028d5780633fa9df4b146102ad57005b3661022e57005b005b34801561023c57600080fd5b5061022e61024b366004615156565b61088e565b61022e61025e366004615184565b610954565b34801561026f57600080fd5b5060025461027a9081565b6040519081526020015b60405180910390f35b34801561029957600080fd5b5061022e6102a8366004615246565b610f0b565b61022e6102bb36600461534a565b611146565b61022e6102ce366004615449565b61181c565b3480156102df57600080fd5b5061027a6102ee36600461547b565b611d1e565b3480156102ff57600080fd5b5061022e61030e366004615156565b611d4f565b34801561031f57600080fd5b5061027a61032e36600461549d565b611d78565b61022e6103413660046154b8565b611dee565b34801561035257600080fd5b50610366610361366004615156565b61264c565b604051610284919061555e565b34801561037f57600080fd5b5061022e61038e36600461547b565b61293c565b34801561039f57600080fd5b5061022e6129d6565b3480156103b457600080fd5b5061022e6103c3366004615156565b6129ea565b3480156103d457600080fd5b50600e546103e8906001600160a01b031681565b6040516001600160a01b039091168152602001610284565b34801561040c57600080fd5b5061043061041b366004615156565b600b6020526000908152604090205460ff1681565b6040519015158152602001610284565b34801561044c57600080fd5b5061027a61045b366004615641565b612b40565b34801561046c57600080fd5b50610366612dfd565b34801561048157600080fd5b506001546001600160a01b03166103e8565b34801561049f57600080fd5b5061027a613018565b3480156104b457600080fd5b506104e76104c3366004615641565b600660205260009081526040902080546001820154600290920154909160ff169083565b60408051938452911515602084015290820152606001610284565b34801561050e57600080fd5b5061043061051d366004615641565b6130e7565b34801561052e57600080fd5b5061043061053d366004615641565b6000908152600560209081526040808320600301546001600160a01b031683526007825280832033845290915290205460ff1690565b34801561057f57600080fd5b5061059361058e366004615156565b61312c565b604051610284919061569e565b3480156105ac57600080fd5b5061027a6105bb3660046156b1565b600d6020526000908152604090205481565b61022e6105db3660046156d2565b6131d3565b3480156105ec57600080fd5b506106516105fb366004615641565b600a60205260009081526040902080546001820154600283015460038401546004850154600586015460069096015494956001600160a01b0394851695939492939192909190811690600160a01b900460ff1688565b604051610284989796959493929190615721565b61022e61067336600461547b565b613cdb565b34801561068457600080fd5b50610711610693366004615641565b600560208190526000918252604090912080546001820154600283015460038401546004850154958501546006860154600787015460088801546009909801546001600160a01b03978816999698958816979485169690941694929360ff92831693919282811692610100810482169262010000909104909116908c565b6040516102849c9b9a99989796959493929190615776565b34801561073557600080fd5b506103e86107443660046157f4565b614022565b34801561075557600080fd5b50600f546103e8906001600160a01b031681565b34801561077557600080fd5b50610366610784366004615641565b61405a565b34801561079557600080fd5b506103666107a4366004615156565b614287565b3480156107b557600080fd5b5060035461027a9081565b3480156107cc57600080fd5b506104306107db366004615820565b6144ea565b3480156107ec57600080fd5b5061027a6107fb3660046157f4565b61472d565b34801561080c57600080fd5b5061043061081b366004615876565b600760209081526000928352604080842090915290825290205460ff1681565b34801561084757600080fd5b5061022e610856366004615156565b614749565b61022e61086936600461547b565b6147c2565b34801561087a57600080fd5b50610366610889366004615156565b614c5a565b610896614ebd565b6001600160a01b0381166000908152600b60205260408120805460ff191660011790556108c260035490565b905060005b8181101561094f576000818152600560205260409020600301546001600160a01b0380851691160361093d5760008181526005602052604090206004810180546001600160a01b03199081163017909155600382018054909116905560068101805460ff19169055600801805462ff0000191690555b80610947816158ba565b9150506108c7565b505050565b600083815260056020526040902060080154839062010000900460ff16151560011461099b5760405162461bcd60e51b8152600401610992906158d3565b60405180910390fd5b336000908152600b602052604090205460ff16156109cb5760405162461bcd60e51b81526004016109929061592b565b6109d3614f17565b6000848152600560205260408120906109eb85611d78565b905060006109f885611d78565b6003840154909150336001600160a01b0390911603610a295760405162461bcd60e51b815260040161099290615960565b60038301546001600160a01b03166000908152600b602052604090205460ff1615610a665760405162461bcd60e51b8152600401610992906159a5565b6000600884015460ff166001811115610a8157610a81615524565b14610a9e5760405162461bcd60e51b8152600401610992906159fb565b600683015460ff161515600114610ac75760405162461bcd60e51b815260040161099290615a32565b6000878152600560209081526040808320600301546001600160a01b0316835260078252808320338085529252822054349060ff16610b63578560050154341015610b635760405162461bcd60e51b815260206004820152602660248201527f4e6f7420656e6f75676820657468657220746f20636f7665722061736b696e6760448201526520707269636560d01b6064820152608401610992565b600286015460038701546001600160a01b03918216911603610c8857610b8a818686614f70565b610b949082615a69565b90508a600003610be45760038601546040516001600160a01b039091169082156108fc029083906000818181858888f19350505050158015610bda573d6000803e3d6000fd5b5060019250610ded565b6000610bee613018565b610bf89083615a7c565b9050610c0781620f4240615a9e565b9050610c14816000613cdb565b601154600388015460405163a9059cbb60e01b81526001600160a01b039283169263a9059cbb92610c4c929116908590600401615ab5565b600060405180830381600087803b158015610c6657600080fd5b505af1158015610c7a573d6000803e3d6000fd5b505050506001935050610ded565b60008190506000610c9d828960070154614fb6565b9050610caa838888614f70565b610cb48284615a69565b610cbe9190615a69565b60028901546040519194506001600160a01b03169082156108fc029083906000818181858888f19350505050158015610cfb573d6000803e3d6000fd5b508c600003610d4a5760038801546040516001600160a01b039091169084156108fc029085906000818181858888f19350505050158015610d40573d6000803e3d6000fd5b5060019450610dea565b6000610d54613018565b610d5e9085615a7c565b9050610d6d81620f4240615a9e565b9050610d7a816000613cdb565b60115460038a015460405163a9059cbb60e01b81526001600160a01b039283169263a9059cbb92610db2929116908590600401615ab5565b600060405180830381600087803b158015610dcc57600080fd5b505af1158015610de0573d6000803e3d6000fd5b5050505060019550505b50505b8215610ef35760018601546040516323b872dd60e01b81526001600160a01b038e16916323b872dd91610e27913091879190600401615ace565b600060405180830381600087803b158015610e4157600080fd5b505af1158015610e55573d6000803e3d6000fd5b50505060018701546003880154604051600080516020615f178339815191529350610e8e92916001600160a01b03169086903490615af2565b60405180910390a16004860180546001600160a01b0384166001600160a01b031991821617909155600387018054909116905560068601805460ff19169055610edb600280546001019055565b60018601546000908152600660205260408120600201555b505050505050610f036001600055565b505050505050565b600081516001600160401b03811115610f2657610f266151dd565b604051908082528060200260200182016040528015610f4f578160200160208202803683370190505b50905060005b825181101561110a576000838281518110610f7257610f72615b17565b6020026020010151905060006001600160a01b0316816001600160a01b031603610fcf57610fca60405180604001604052806013815260200172496e76616c69642066616e206164647265737360681b815250614fd5565b6110f7565b3360009081526007602090815260408083206001600160a01b038516845290915290205460ff161561103457610fca6040518060400160405280601881526020017720b2323932b9b99034b99030b63932b0b23c9030903330b760411b815250614fd5565b3360008181526008602090815260408083208054600180820183559185528385200180546001600160a01b0319166001600160a01b0388169081179091559484526007835281842094845293825291829020805460ff19169093179092558051808201909152601181527011985b881859191959081d1bc81b1a5cdd607a1b918101919091526110c390614fd5565b808383815181106110d6576110d6615b17565b60200260200101906001600160a01b031690816001600160a01b0316815250505b5080611102816158ba565b915050610f55565b507fa99d709f8a9c899ba566c9b2515b1715239783ff40126e24d86e081505a7f50e8160405161113a919061569e565b60405180910390a15050565b61114e614f17565b336000908152600b602052604090205460ff161561117e5760405162461bcd60e51b81526004016109929061592b565b60005b885181101561180657600088828151811061119e5761119e615b17565b602002602001015110156111c557604051635a93095360e11b815260040160405180910390fd5b60018611156111e7576040516317142a4d60e01b815260040160405180910390fd5b896001600160a01b03166323b872dd33308c858151811061120a5761120a615b17565b60200260200101516040518463ffffffff1660e01b815260040161123093929190615ace565b600060405180830381600087803b15801561124a57600080fd5b505af115801561125e573d6000803e3d6000fd5b50505050611270600380546001019055565b6000838152600c6020526040902089518a908390811061129257611292615b17565b602002602001015190806001815401808255809150506001900390600052602060002001600090919091909150556040518061018001604052808b6001600160a01b031681526020018a83815181106112ed576112ed615b17565b60200260200101518152602001336001600160a01b03168152602001336001600160a01b03168152602001306001600160a01b0316815260200189838151811061133957611339615b17565b6020026020010151815260200160011515815260200188838151811061136157611361615b17565b6020026020010151815260200187600181111561138057611380615524565b600181111561139157611391615524565b81526020018360028111156113a8576113a8615524565b60028111156113b9576113b9615524565b815260200160001515815260200184815250600560008b84815181106113e1576113e1615b17565b6020908102919091018101518252818101929092526040908101600020835181546001600160a01b03199081166001600160a01b039283161783559385015160018084019190915592850151600283018054861691831691909117905560608501516003830180548616918316919091179055608085015160048301805490951691161790925560a0830151600583015560c083015160068301805460ff1990811692151592909217905560e0840151600784015561010084015160088401805491939092919091169083818111156114bc576114bc615524565b021790555061012082015160088201805461ff0019166101008360028111156114e7576114e7615524565b02179055506101408201518160080160026101000a81548160ff021916908315150217905550610160820151816009015590505060405180606001604052808a838151811061153857611538615b17565b602002602001015181526020016000151581526020016000815250600660008b848151811061156957611569615b17565b602090810291909101810151825281810192909252604090810160002083518155918301516001808401805460ff1916921515929092179091559201516002909101558603611755576040518061010001604052808a83815181106115d0576115d0615b17565b60200260200101518152602001336001600160a01b031681526020018983815181106115fe576115fe615b17565b6020026020010151815260200186838151811061161d5761161d615b17565b6020026020010151815260200185838151811061163c5761163c615b17565b602002602001015181526020016000815260200160006001600160a01b0316815260200183600281111561167257611672615524565b600281111561168357611683615524565b815250600a60008b848151811061169c5761169c615b17565b602090810291909101810151825281810192909252604090810160002083518155918301516001830180546001600160a01b03199081166001600160a01b039384161790915591840151600280850191909155606085015160038501556080850151600485015560a0850151600585015560c085015160068501805494851691909316908117835560e0860151936001600160a81b0319161790600160a01b90849081111561174d5761174d615524565b021790555050505b7f380acab0ee1d651da065961944240ee750b6935ba0edefa78afb1c8e076762868a8a838151811061178957611789615b17565b602002602001015133308c86815181106117a5576117a5615b17565b602090810291909101810151604080516001600160a01b039788168152928301959095529285168185015293166060840152608083015260a0820186905260c08201899052519081900360e00190a1806117fe816158ba565b915050611181565b506118116001600055565b505050505050505050565b6000848152600a602052604090206003015484904211801561184e57506000818152600a602052604090206004015442105b61186a5760405162461bcd60e51b815260040161099290615b2d565b600085815260056020526040902060080154859062010000900460ff1615156001146118a85760405162461bcd60e51b8152600401610992906158d3565b336000908152600b602052604090205460ff16156118d85760405162461bcd60e51b81526004016109929061592b565b60008681526006602052604081206001015460ff1615611941576000878152600560209081526040808320600301546001600160a01b031683526007825280832033845290915290205460ff166119415760405162461bcd60e51b815260040161099290615b76565b6000878152600a60205260409020600601546001600160a01b0316611991576000878152600a60205260409020600201548410156119915760405162461bcd60e51b815260040161099290615bad565b6000878152600a60205260409020600501548410156119c25760405162461bcd60e51b815260040161099290615be4565b600160008881526005602052604090206008015460ff1660018111156119ea576119ea615524565b14611a075760405162461bcd60e51b815260040161099290615c41565b60008781526005602052604090206006015460ff161515600114611a3d5760405162461bcd60e51b815260040161099290615a32565b6011546040516323b872dd60e01b81526001600160a01b03909116906323b872dd90611a7190339030908b90600401615ace565b600060405180830381600087803b158015611a8b57600080fd5b505af1158015611a9f573d6000803e3d6000fd5b5050506000888152600a60205260409020600681015460058201549192506001600160a01b0316908115611be15760016006840154600160a01b900460ff166002811115611aef57611aef615524565b03611b82576000611afe613018565b611b089083615a7c565b9050611b1781620f4240615a9e565b60115460405163a9059cbb60e01b81529192506001600160a01b03169063a9059cbb90611b4a9086908590600401615ab5565b600060405180830381600087803b158015611b6457600080fd5b505af1158015611b78573d6000803e3d6000fd5b5050505050611be1565b60006006840154600160a01b900460ff166002811115611ba457611ba4615524565b03611be1576040516001600160a01b0383169082156108fc029083906000818181858888f19350505050158015611bdf573d6000803e3d6000fd5b505b600583018790556006830180546001600160a01b03191633179055876002811115611c0e57611c0e615524565b60068401805460ff60a01b1916600160a01b836002811115611c3257611c32615524565b0217905550611c4342610258615c74565b83600401541015611cb85761012c836004016000828254611c649190615c74565b9091555050600183015460048401546040517f8e1cb85d0855921b3c958b068fa707efb7db88099af764dd47f37eef82c3334d92611caf928e926001600160a01b0390921691615c87565b60405180910390a15b600183810154600685015460058601546040519397507f4307392e6f0e441e74a4982d9fa9ddc49b3cd9d3902a9d3ecab0ad3c60a0acd193611d0a938f936001600160a01b0391821693911691615af2565b60405180910390a150505050505050505050565b600c6020528160005260406000208181548110611d3a57600080fd5b90600052602060002001600091509150505481565b611d57614ebd565b6001600160a01b03166000908152600b60205260409020805460ff19169055565b60008160ff16600303611db357600d600060045b6004811115611d9d57611d9d615524565b8152602001908152602001600020549050919050565b8160ff16600203611dc957600d60006003611d8c565b8160ff16600103611ddf57600d60006002611d8c565b600d600080611d8c565b919050565b600085815260056020526040902060080154859062010000900460ff161515600114611e2c5760405162461bcd60e51b8152600401610992906158d3565b336000908152600b602052604090205460ff1615611e5c5760405162461bcd60e51b81526004016109929061592b565b611e64614f17565b6000600560008881526020019081526020016000209050611eab6040518060400160405280600e81526020016d15195cdd080c0817d85b5bdd5b9d60921b81525085615018565b6003810154336001600160a01b0390911603611ed95760405162461bcd60e51b815260040161099290615960565b6000611ee487611d78565b90506000611ef187611d78565b9050611f2d60405180604001604052806018815260200177546573742030205f616d6f756e74496e455448496e57656960401b81525086615018565b60038301546001600160a01b03166000908152600b602052604090205460ff1615611f6a5760405162461bcd60e51b8152600401610992906159a5565b6000600884015460ff166001811115611f8557611f85615524565b14611fa25760405162461bcd60e51b8152600401610992906159fb565b6000898152600560209081526040808320600301546001600160a01b031683526007825280832033845290915281205460ff1661203d57836005015486101561203d5760405162461bcd60e51b815260206004820152602760248201527f4e6f7420656e6f75676820616d6f756e7420746f20636f7665722061736b696e6044820152666720707269636560c81b6064820152608401610992565b6011546040516323b872dd60e01b8152600091339183916001600160a01b0316906323b872dd9061207690859030908f90600401615ace565b600060405180830381600087803b15801561209057600080fd5b505af11580156120a4573d6000803e3d6000fd5b50505050600287015460038801546001600160a01b03918216911603612206576120ff6040518060400160405280601981526020017815195cdd080c88199a5c9cdd13dddb995c8817d85b5bdd5b9d603a1b8152508b615018565b61210a8a8787614f70565b612114908b615a69565b93506121386040518060600160405280602b8152602001615eec602b913985615018565b8d6001036121b357601154600388015460405163a9059cbb60e01b81526001600160a01b039283169263a9059cbb92612178929116908890600401615ab5565b600060405180830381600087803b15801561219257600080fd5b505af11580156121a6573d6000803e3d6000fd5b5050505060019250612500565b60006121be85612b40565b60038901546040519192506001600160a01b03169082156108fc029083906000818181858888f193505050501580156121fb573d6000803e3d6000fd5b506001935050612500565b60006122168b8960070154614fb6565b90506122576040518060400160405280601a81526020017f54657374203420726573656c6c205f726f79616c74794665652000000000000081525082615018565b612261818c615a69565b9150612285604051806060016040528060228152602001615eca6022913983615018565b612290828888614f70565b61229a9083615a69565b94506122db6040518060400160405280601e81526020017f54657374203620726573656c6c205f616d6f756e74546f42655061696420000081525086615018565b601154600289015460405163a9059cbb60e01b81526001600160a01b039283169263a9059cbb92612313929116908590600401615ab5565b600060405180830381600087803b15801561232d57600080fd5b505af1158015612341573d6000803e3d6000fd5b505050506123836040518060400160405280601e81526020017f54657374203720726573656c6c205f616d6f756e74546f426550616964200000815250614fd5565b8e600103612425576123b26040518060400160405280600681526020016554657374203760d01b815250614fd5565b601154600389015460405163a9059cbb60e01b81526001600160a01b039283169263a9059cbb926123ea929116908990600401615ab5565b600060405180830381600087803b15801561240457600080fd5b505af1158015612418573d6000803e3d6000fd5b50505050600193506124d6565b61242e85612b40565b50612456604051806040016040528060068152602001650a8cae6e840760d31b815250614fd5565b6000612460613018565b61246a9087615a9e565b90506124936040518060400160405280600681526020016554657374203960d01b815250614fd5565b60038901546040516001600160a01b039091169082156108fc029083906000818181858888f193505050501580156124cf573d6000803e3d6000fd5b5060019450505b6124fe604051806040016040528060078152602001660546573742031360cc1b815250614fd5565b505b8215612631578e6001600160a01b03166323b872dd30848a600101546040518463ffffffff1660e01b815260040161253a93929190615ace565b600060405180830381600087803b15801561255457600080fd5b505af1158015612568573d6000803e3d6000fd5b50505050612594604051806040016040528060078152602001665465737420313160c81b815250614fd5565b60018701546003880154604051600080516020615f17833981519152926125cc9290916001600160a01b039091169086908e90615af2565b60405180910390a16004870180546001600160a01b0384166001600160a01b031991821617909155600388018054909116905560068701805460ff19169055612619600280546001019055565b60018701546000908152600660205260408120600201555b505050505050506126426001600055565b5050505050505050565b336000908152600b602052604090205460609060ff161561267f5760405162461bcd60e51b81526004016109929061592b565b600061268a60035490565b90506000805b8281101561271d576000818152600560205260409020600301546001600160a01b0386811691161480156126d5575060008181526005602052604090206006015460ff165b80156126f8575060008181526005602052604090206008015462010000900460ff165b1561270b5781612707816158ba565b9250505b80612715816158ba565b915050612690565b506000816001600160401b03811115612738576127386151dd565b60405190808252806020026020018201604052801561277157816020015b61275e6150d4565b8152602001906001900390816127565790505b5090506000805b84811015612931576000818152600560205260409020600301546001600160a01b0388811691161480156127bd575060008181526005602052604090206006015460ff165b80156127e0575060008181526005602052604090206008015462010000900460ff165b1561291f5760008181526005602081815260409283902083516101808101855281546001600160a01b039081168252600180840154948301949094526002830154811695820195909552600382015485166060820152600482015490941660808501529182015460a0840152600682015460ff908116151560c0850152600783015460e0850152600883015461010085019291169081111561288457612884615524565b600181111561289557612895615524565b81526020016008820160019054906101000a900460ff1660028111156128bd576128bd615524565b60028111156128ce576128ce615524565b8152600882015462010000900460ff1615156020820152600990910154604090910152835184908490811061290557612905615b17565b6020026020010181905250818061291b906158ba565b9250505b80612929816158ba565b915050612778565b509095945050505050565b6000828152600560205260409020600301546001600160a01b031633146129c15760405162461bcd60e51b815260206004820152603360248201527f4f6e6c7920746865206f776e6572206f6620616e206e66742063616e20736574604482015272103234b9b1b7bab73a32b210383934b1b2b99760691b6064820152608401610992565b60009182526006602052604090912060020155565b6129de614ebd565b6129e86000615061565b565b336000908152600860205260408120905b815481101561094f57826001600160a01b0316828281548110612a2057612a20615b17565b6000918252602090912001546001600160a01b031603612b2e5781548290612a4a90600190615a69565b81548110612a5a57612a5a615b17565b9060005260206000200160009054906101000a90046001600160a01b0316828281548110612a8a57612a8a615b17565b9060005260206000200160006101000a8154816001600160a01b0302191690836001600160a01b0316021790555081805480612ac857612ac8615ca6565b6000828152602090819020600019908301810180546001600160a01b03191690559091019091556040516001600160a01b03851681527f89ec8e1c730740239f81b0dfce48eedca9d700bbc36fe56311fe9175c16f64ad910160405180910390a1505050565b80612b38816158ba565b9150506129fb565b604080516002808252606082018352600092839291906020830190803683375050600f5482519293506001600160a01b031691839150600090612b8557612b85615b17565b6001600160a01b03928316602091820292909201810191909152601054604080516315ab88c960e31b81529051919093169263ad5c46489260048083019391928290030181865afa158015612bde573d6000803e3d6000fd5b505050506040513d601f19601f82011682018060405250810190612c029190615cbc565b81600181518110612c1557612c15615b17565b6001600160a01b039283166020918202929092010152601154600e5460405163095ea7b360e01b81529183169263095ea7b392612c5a92909116908790600401615ab5565b600060405180830381600087803b158015612c7457600080fd5b505af1158015612c88573d6000803e3d6000fd5b506000925060029150612c989050565b604051908082528060200260200182016040528015612cc1578160200160208202803683370190505b5060105460405163d06ca61f60e01b81529192506001600160a01b03169063d06ca61f90612cf59087908690600401615cd9565b600060405180830381865afa158015612d12573d6000803e3d6000fd5b505050506040513d6000823e601f3d908101601f19168201604052612d3a9190810190615cfa565b60105481519192506001600160a01b031690634a25d94a9083906001908110612d6557612d65615b17565b6020026020010151868530426040518663ffffffff1660e01b8152600401612d91959493929190615d7f565b6000604051808303816000875af1158015612db0573d6000803e3d6000fd5b505050506040513d6000823e601f3d908101601f19168201604052612dd89190810190615cfa565b5080600181518110612dec57612dec615b17565b602002602001015192505050919050565b60606000612e0a60035490565b90506000612e1760025490565b612e219083615a69565b90506000816001600160401b03811115612e3d57612e3d6151dd565b604051908082528060200260200182016040528015612e7657816020015b612e636150d4565b815260200190600190039081612e5b5790505b5090506000805b8481101561300e5760008181526005602052604090206006015460ff168015612ebd575060008181526005602052604090206008015462010000900460ff165b15612ffc5760008181526005602081815260409283902083516101808101855281546001600160a01b039081168252600180840154948301949094526002830154811695820195909552600382015485166060820152600482015490941660808501529182015460a0840152600682015460ff908116151560c0850152600783015460e08501526008830154610100850192911690811115612f6157612f61615524565b6001811115612f7257612f72615524565b81526020016008820160019054906101000a900460ff166002811115612f9a57612f9a615524565b6002811115612fab57612fab615524565b8152600882015462010000900460ff16151560208201526009909101546040909101528351849084908110612fe257612fe2615b17565b60200260200101819052508180612ff8906158ba565b9250505b80613006816158ba565b915050612e7d565b5090949350505050565b60008073ee9f2375b4bdf6387aa8265dd4fb8f16512a1d4690506000816001600160a01b031663feaf968c6040518163ffffffff1660e01b815260040160a060405180830381865afa158015613072573d6000803e3d6000fd5b505050506040513d601f19601f820116820180604052508101906130969190615dd5565b505050915050600081136130e15760405162461bcd60e51b8152602060048201526012602482015271496e76616c6964205553445420707269636560701b6044820152606401610992565b92915050565b6000818152600a60205260408120600301544211801561311757506000828152600a602052604090206004015442105b1561312457506001919050565b506000919050565b336000908152600b602052604090205460609060ff161561315f5760405162461bcd60e51b81526004016109929061592b565b6001600160a01b038216600090815260086020908152604091829020805483518184028101840190945280845290918301828280156131c757602002820191906000526020600020905b81546001600160a01b031681526001909101906020018083116131a9575b50505050509050919050565b6131fa6040518060400160405280600681526020016554657374203160d01b815250614fd5565b600061320583611d78565b9050600061321283611d78565b6000868152600560209081526040808320600a835292819020815180830190925260068252652a32b9ba101b60d11b92820192909252929350909161325690614fd5565b6000878152600a60205260408120600601546001600160a01b03166133b5576000888152600a60205260409020600101546001600160a01b031633146132f35760405162461bcd60e51b815260206004820152602c60248201527f4f6e6c79207468652073656c6c65722063616e20636c6f73652074686520756e60448201526b39b7b6321030bab1ba34b7b760a11b6064820152608401610992565b61331a6040518060400160405280600681526020016554657374203760d01b815250614fd5565b6003830154600480850180546001600160a01b0319166001600160a01b0393841617905560068501805460ff19169055600184810154908601546040516323b872dd60e01b81528d8516946323b872dd9461337a94309492169201615ace565b600060405180830381600087803b15801561339457600080fd5b505af11580156133a8573d6000803e3d6000fd5b5050505060019050613c42565b6000888152600a60205260409020600601546001600160a01b03163314806133f657506000888152600a60205260409020600101546001600160a01b031633145b6134635760405162461bcd60e51b815260206004820152603860248201527f4f6e6c792074686520686967686573742062696464657220616e6420746865206044820152771cd95b1b195c8818d85b8818db185a5b481d1a194813919560421b6064820152608401610992565b61348a604051806040016040528060068152602001650a8cae6e840760d31b815250614fd5565b6005820154600090808261349c613018565b6134a69084615a7c565b90506134b581620f4240615a9e565b90506134eb60405180604001604052806012815260200171185d58dd1a5bdb8b9a1a59da195cdd109a5960721b81525084615018565b60006008880154610100900460ff16600281111561350b5761350b615524565b03613750576135376040518060400160405280600681526020016554657374203960d01b815250614fd5565b60016006870154600160a01b900460ff16600281111561355957613559615524565b036135ba57613586604051806040016040528060078152602001660546573742031360cc1b815250614fd5565b6000613590613018565b61359a9085615a7c565b90506135a981620f4240615a9e565b90506135b481612b40565b50839250505b600287015460038801546001600160a01b03918216911603613656576135fe604051806040016040528060078152602001665465737420313160c81b815250614fd5565b613609828a8a614f70565b6136139083615a69565b60038801546040519193506001600160a01b03169083156108fc029084906000818181858888f19350505050158015613650573d6000803e3d6000fd5b50613b53565b61367e604051806040016040528060078152602001662a32b9ba10189960c91b815250614fd5565b61368c828860070154614fb6565b9350613699828a8a614f70565b6136a38584615a69565b6136ad9190615a69565b91506136d7604051806040016040528060078152602001665465737420313360c81b815250614fd5565b60028701546040516001600160a01b039091169085156108fc029086906000818181858888f19350505050158015613713573d6000803e3d6000fd5b5060038701546040516001600160a01b039091169083156108fc029084906000818181858888f19350505050158015613650573d6000803e3d6000fd5b60016008880154610100900460ff16600281111561377057613770615524565b03613b535761379d6040518060400160405280600781526020016615195cdd080c4d60ca1b815250614fd5565b90508060006006870154600160a01b900460ff1660028111156137c2576137c2615524565b0361388b576137ef604051806040016040528060078152602001665465737420313560c81b815250614fd5565b6138246040518060400160405280601381526020017230bab1ba34b7b7173434b3b432b9ba2134b21960691b81525084615018565b6138526040518060400160405280600c81526020016b3ab9b23a2a37a932ba3ab93760a11b81525082615018565b61385d816001613cdb565b613887604051806040016040528060098152602001682a32b9ba10189a901960b91b815250614fd5565b8091505b600287015460038801546001600160a01b039182169116036139ae576138b2828a8a614f70565b6138bc9083615a69565b91506138e6604051806040016040528060078152602001662a32b9ba10189b60c91b815250614fd5565b6139176040518060400160405280600f81526020016e17d85b5bdd5b9d151bd09954185a59608a1b81525083615018565b601154600388015460405163a9059cbb60e01b81526001600160a01b039283169263a9059cbb9261394f929116908690600401615ab5565b600060405180830381600087803b15801561396957600080fd5b505af115801561397d573d6000803e3d6000fd5b505050506139a9604051806040016040528060078152602001665465737420313760c81b815250614fd5565b613b53565b6139bc828860070154614fb6565b93506139e6604051806040016040528060078152602001660a8cae6e84062760cb1b815250614fd5565b6139f1828a8a614f70565b6139fb8584615a69565b613a059190615a69565b9150613a2f604051806040016040528060078152602001665465737420313960c81b815250614fd5565b601154600388015460405163a9059cbb60e01b81526001600160a01b039283169263a9059cbb92613a67929116908690600401615ab5565b600060405180830381600087803b158015613a8157600080fd5b505af1158015613a95573d6000803e3d6000fd5b50505050613ac1604051806040016040528060078152602001660546573742032360cc1b815250614fd5565b601154600288015460405163a9059cbb60e01b81526001600160a01b039283169263a9059cbb92613af9929116908890600401615ab5565b600060405180830381600087803b158015613b1357600080fd5b505af1158015613b27573d6000803e3d6000fd5b50505050613b53604051806040016040528060078152602001665465737420323160c81b815250614fd5565b84613bfe57613b80604051806040016040528060078152602001660546573742035360cc1b815250614fd5565b8c6001600160a01b03166323b872dd308860060160009054906101000a90046001600160a01b03168a600101546040518463ffffffff1660e01b8152600401613bcb93929190615ace565b600060405180830381600087803b158015613be557600080fd5b505af1158015613bf9573d6000803e3d6000fd5b505050505b6006808701546004890180546001600160a01b0319166001600160a01b039092169190911790558701805460ff19169055613c3d600280546001019055565b505050505b613c6a604051806040016040528060078152602001660546573742036360cc1b815250614fd5565b6001830154600384015460068401546005850154604051600080516020615f1783398151915294613cab9490936001600160a01b0391821693911691615af2565b60405180910390a1611811604051806040016040528060078152602001660546573742037360cc1b815250614fd5565b6040805160028082526060820183526000926020830190803683375050601054604080516315ab88c960e31b815290519394506001600160a01b039091169263ad5c4648925060048083019260209291908290030181865afa158015613d45573d6000803e3d6000fd5b505050506040513d601f19601f82011682018060405250810190613d699190615cbc565b81600081518110613d7c57613d7c615b17565b6001600160a01b039283166020918202929092010152600f54825191169082906001908110613dad57613dad615b17565b6001600160a01b03929092166020928302919091018201526040805160028082526060820183526000939192909183019080368337505060105460405163d06ca61f60e01b81529293506001600160a01b03169163d06ca61f9150613e189087908690600401615cd9565b600060405180830381865afa158015613e35573d6000803e3d6000fd5b505050506040513d6000823e601f3d908101601f19168201604052613e5d9190810190615cfa565b905082600003613f0a5760105481516001600160a01b0390911690637ff36ab590349084906001908110613e9357613e93615b17565b60200260200101518530426040518663ffffffff1660e01b8152600401613ebd9493929190615e19565b60006040518083038185885af1158015613edb573d6000803e3d6000fd5b50505050506040513d6000823e601f3d908101601f19168201604052613f049190810190615cfa565b5061401c565b613f316040518060400160405280600681526020016553776170203160d01b815250614fd5565b6000613f3b613018565b613f459086615a9e565b9050613f54620f424082615a7c565b60105483519192506001600160a01b031690637ff36ab590839085906001908110613f8157613f81615b17565b60200260200101518630426040518663ffffffff1660e01b8152600401613fab9493929190615e19565b60006040518083038185885af1158015613fc9573d6000803e3d6000fd5b50505050506040513d6000823e601f3d908101601f19168201604052613ff29190810190615cfa565b5061401a6040518060400160405280600681526020016529bbb0b8101960d11b815250614fd5565b505b50505050565b6008602052816000526040600020818154811061403e57600080fd5b6000918252602090912001546001600160a01b03169150829050565b6060600061406760035490565b9050600061407460025490565b61407e9083615a69565b90506000816001600160401b0381111561409a5761409a6151dd565b6040519080825280602002602001820160405280156140d357816020015b6140c06150d4565b8152602001906001900390816140b85790505b5090506000805b848110156129315760008181526005602052604090206006015460ff168015614113575060008181526005602052604090206009015487145b8015614136575060008181526005602052604090206008015462010000900460ff165b156142755760008181526005602081815260409283902083516101808101855281546001600160a01b039081168252600180840154948301949094526002830154811695820195909552600382015485166060820152600482015490941660808501529182015460a0840152600682015460ff908116151560c0850152600783015460e085015260088301546101008501929116908111156141da576141da615524565b60018111156141eb576141eb615524565b81526020016008820160019054906101000a900460ff16600281111561421357614213615524565b600281111561422457614224615524565b8152600882015462010000900460ff1615156020820152600990910154604090910152835184908490811061425b5761425b615b17565b60200260200101819052508180614271906158ba565b9250505b8061427f816158ba565b9150506140da565b336000908152600b602052604090205460609060ff16156142ba5760405162461bcd60e51b81526004016109929061592b565b60006142c560035490565b90506000805b82811015614317576000818152600560205260409020600301546001600160a01b038087169116036143055781614301816158ba565b9250505b8061430f816158ba565b9150506142cb565b506000816001600160401b03811115614332576143326151dd565b60405190808252806020026020018201604052801561436b57816020015b6143586150d4565b8152602001906001900390816143505790505b5090506000805b84811015612931576000818152600560205260409020600301546001600160a01b038089169116036144d85760008181526005602081815260409283902083516101808101855281546001600160a01b039081168252600180840154948301949094526002830154811695820195909552600382015485166060820152600482015490941660808501529182015460a0840152600682015460ff908116151560c0850152600783015460e0850152600883015461010085019291169081111561443d5761443d615524565b600181111561444e5761444e615524565b81526020016008820160019054906101000a900460ff16600281111561447657614476615524565b600281111561448757614487615524565b8152600882015462010000900460ff161515602082015260099091015460409091015283518490849081106144be576144be615b17565b602002602001018190525081806144d4906158ba565b9250505b806144e2816158ba565b915050614372565b60006144f4614ebd565b6000805b84518110156147245784818151811061451357614513615b17565b602090810291909101810151600081815260059092526040909120600801805462ff0000191662010000871580159182029290921790925591935061457d5750600160008381526005602052604090206008015460ff16600181111561457b5761457b615524565b145b156146d8576000828152600a6020526040902060068101546001600160a01b0316156146d657600681015460058201546001600160a01b039091169081156146d35760016006840154600160a01b900460ff1660028111156145e1576145e1615524565b036146745760006145f0613018565b6145fa9083615a7c565b905061460981620f4240615a9e565b60115460405163a9059cbb60e01b81529192506001600160a01b03169063a9059cbb9061463c9086908590600401615ab5565b600060405180830381600087803b15801561465657600080fd5b505af115801561466a573d6000803e3d6000fd5b50505050506146d3565b60006006840154600160a01b900460ff16600281111561469657614696615524565b036146d3576040516001600160a01b0383169082156108fc029083906000818181858888f193505050501580156146d1573d6000803e3d6000fd5b505b50505b505b6040805183815285151560208201527f6ffa1c2dfe558962660d78387d612607ef3f19ee482f7d51a12634d131e8db6e910160405180910390a18061471c816158ba565b9150506144f8565b50919392505050565b60096020528160005260406000208181548110611d3a57600080fd5b614751614ebd565b6001600160a01b0381166147b65760405162461bcd60e51b815260206004820152602660248201527f4f776e61626c653a206e6577206f776e657220697320746865207a65726f206160448201526564647265737360d01b6064820152608401610992565b6147bf81615061565b50565b6000828152600a60205260409020600301548290421180156147f457506000818152600a602052604090206004015442105b6148105760405162461bcd60e51b815260040161099290615b2d565b600083815260056020526040902060080154839062010000900460ff16151560011461484e5760405162461bcd60e51b8152600401610992906158d3565b336000908152600b602052604090205460ff161561487e5760405162461bcd60e51b81526004016109929061592b565b60008481526006602052604081206001015460ff16156148e7576000858152600560209081526040808320600301546001600160a01b031683526007825280832033845290915290205460ff166148e75760405162461bcd60e51b815260040161099290615b76565b6000858152600a60205260409020600601546001600160a01b0316614937576000858152600a60205260409020600201543410156149375760405162461bcd60e51b815260040161099290615bad565b6000858152600a602052604090206005015434116149675760405162461bcd60e51b815260040161099290615be4565b600160008681526005602052604090206008015460ff16600181111561498f5761498f615524565b146149ac5760405162461bcd60e51b815260040161099290615c41565b60008581526005602052604090206006015460ff1615156001146149e25760405162461bcd60e51b815260040161099290615a32565b6000858152600a60205260409020600681015460058201546001600160a01b03909116908115614b205760016006840154600160a01b900460ff166002811115614a2e57614a2e615524565b03614ac1576000614a3d613018565b614a479083615a7c565b9050614a5681620f4240615a9e565b60115460405163a9059cbb60e01b81529192506001600160a01b03169063a9059cbb90614a899086908590600401615ab5565b600060405180830381600087803b158015614aa357600080fd5b505af1158015614ab7573d6000803e3d6000fd5b5050505050614b20565b60006006840154600160a01b900460ff166002811115614ae357614ae3615524565b03614b20576040516001600160a01b0383169082156108fc029083906000818181858888f19350505050158015614b1e573d6000803e3d6000fd5b505b3460058401556006830180546001600160a01b03191633179055866002811115614b4c57614b4c615524565b60068401805460ff60a01b1916600160a01b836002811115614b7057614b70615524565b0217905550614b8142610258615c74565b83600401541015614bf65761012c836004016000828254614ba29190615c74565b9091555050600183015460048401546040517f8e1cb85d0855921b3c958b068fa707efb7db88099af764dd47f37eef82c3334d92614bed928c926001600160a01b0390921691615c87565b60405180910390a15b600183810154600685015460058601546040519397507f4307392e6f0e441e74a4982d9fa9ddc49b3cd9d3902a9d3ecab0ad3c60a0acd193614c48938d936001600160a01b0391821693911691615af2565b60405180910390a15050505050505050565b336000908152600b602052604090205460609060ff1615614c8d5760405162461bcd60e51b81526004016109929061592b565b6000614c9860035490565b90506000805b82811015614cea576000818152600560205260409020600401546001600160a01b03808716911603614cd85781614cd4816158ba565b9250505b80614ce2816158ba565b915050614c9e565b506000816001600160401b03811115614d0557614d056151dd565b604051908082528060200260200182016040528015614d3e57816020015b614d2b6150d4565b815260200190600190039081614d235790505b5090506000805b84811015612931576000818152600560205260409020600401546001600160a01b03808916911603614eab5760008181526005602081815260409283902083516101808101855281546001600160a01b039081168252600180840154948301949094526002830154811695820195909552600382015485166060820152600482015490941660808501529182015460a0840152600682015460ff908116151560c0850152600783015460e08501526008830154610100850192911690811115614e1057614e10615524565b6001811115614e2157614e21615524565b81526020016008820160019054906101000a900460ff166002811115614e4957614e49615524565b6002811115614e5a57614e5a615524565b8152600882015462010000900460ff16151560208201526009909101546040909101528351849084908110614e9157614e91615b17565b60200260200101819052508180614ea7906158ba565b9250505b80614eb5816158ba565b915050614d45565b6001546001600160a01b031633146129e85760405162461bcd60e51b815260206004820181905260248201527f4f776e61626c653a2063616c6c6572206973206e6f7420746865206f776e65726044820152606401610992565b600260005403614f695760405162461bcd60e51b815260206004820152601f60248201527f5265656e7472616e637947756172643a207265656e7472616e742063616c6c006044820152606401610992565b6002600055565b600080612710614f808587615a9e565b614f8a9190615a7c565b9050612710614f998487615a9e565b614fa39190615a7c565b614fad9082615c74565b95945050505050565b60006064614fc48385615a9e565b614fce9190615a7c565b9392505050565b6147bf81604051602401614fe99190615e94565b60408051601f198184030181529190526020810180516001600160e01b031663104c13eb60e21b1790526150b3565b61505d828260405160240161502e929190615ea7565b60408051601f198184030181529190526020810180516001600160e01b0316632d839cb360e21b1790526150b3565b5050565b600180546001600160a01b038381166001600160a01b0319831681179093556040519116919082907f8be0079c531659141344cd1fd0a4f28419497f9722a3daafe3b4186f6b6457e090600090a35050565b60006a636f6e736f6c652e6c6f679050600080835160208501845afa505050565b6040805161018081018252600080825260208201819052918101829052606081018290526080810182905260a0810182905260c0810182905260e081018290529061010082019081526020016000815260006020820181905260409091015290565b6001600160a01b03811681146147bf57600080fd5b8035611de981615136565b60006020828403121561516857600080fd5b8135614fce81615136565b803560ff81168114611de957600080fd5b600080600080600060a0868803121561519c57600080fd5b85356151a781615136565b945060208601359350604086013592506151c360608701615173565b91506151d160808701615173565b90509295509295909350565b634e487b7160e01b600052604160045260246000fd5b604051601f8201601f191681016001600160401b038111828210171561521b5761521b6151dd565b604052919050565b60006001600160401b0382111561523c5761523c6151dd565b5060051b60200190565b6000602080838503121561525957600080fd5b82356001600160401b0381111561526f57600080fd5b8301601f8101851361528057600080fd5b803561529361528e82615223565b6151f3565b81815260059190911b820183019083810190878311156152b257600080fd5b928401925b828410156152d95783356152ca81615136565b825292840192908401906152b7565b979650505050505050565b600082601f8301126152f557600080fd5b8135602061530561528e83615223565b82815260059290921b8401810191818101908684111561532457600080fd5b8286015b8481101561533f5780358352918301918301615328565b509695505050505050565b60008060008060008060008060006101208a8c03121561536957600080fd5b6153728a61514b565b985060208a01356001600160401b038082111561538e57600080fd5b61539a8d838e016152e4565b995060408c01359150808211156153b057600080fd5b6153bc8d838e016152e4565b985060608c01359150808211156153d257600080fd5b6153de8d838e016152e4565b975060808c0135965060a08c01359150808211156153fb57600080fd5b6154078d838e016152e4565b955060c08c013591508082111561541d57600080fd5b5061542a8c828d016152e4565b93505060e08a013591506101008a013590509295985092959850929598565b6000806000806080858703121561545f57600080fd5b5050823594602084013594506040840135936060013592509050565b6000806040838503121561548e57600080fd5b50508035926020909101359150565b6000602082840312156154af57600080fd5b614fce82615173565b600080600080600080600060e0888a0312156154d357600080fd5b87356154de81615136565b965060208801359550604088013594506154fa60608901615173565b935061550860808901615173565b925060a0880135915060c0880135905092959891949750929550565b634e487b7160e01b600052602160045260246000fd5b6002811061554a5761554a615524565b9052565b6003811061554a5761554a615524565b602080825282518282018190526000919060409081850190868401855b8281101561563457815180516001600160a01b0390811686528782015188870152868201518116878701526060808301518216908701526080808301519091169086015260a0808201519086015260c08082015115159086015260e08082015190860152610100808201516155f28288018261553a565b5050610120808201516156078288018261554e565b5050610140818101511515908601526101609081015190850152610180909301929085019060010161557b565b5091979650505050505050565b60006020828403121561565357600080fd5b5035919050565b600081518084526020808501945080840160005b838110156156935781516001600160a01b03168752958201959082019060010161566e565b509495945050505050565b602081526000614fce602083018461565a565b6000602082840312156156c357600080fd5b813560058110614fce57600080fd5b600080600080608085870312156156e857600080fd5b84356156f381615136565b93506020850135925061570860408601615173565b915061571660608601615173565b905092959194509250565b8881526001600160a01b03888116602083015260408201889052606082018790526080820186905260a08201859052831660c0820152610100810161576960e083018461554e565b9998505050505050505050565b6001600160a01b038d81168252602082018d90528b811660408301528a811660608301528916608082015260a0810188905286151560c082015260e0810186905261018081016157ca61010083018761553a565b6157d861012083018661554e565b92151561014082015261016001529a9950505050505050505050565b6000806040838503121561580757600080fd5b823561581281615136565b946020939093013593505050565b6000806040838503121561583357600080fd5b82356001600160401b0381111561584957600080fd5b615855858286016152e4565b9250506020830135801515811461586b57600080fd5b809150509250929050565b6000806040838503121561588957600080fd5b823561589481615136565b9150602083013561586b81615136565b634e487b7160e01b600052601160045260246000fd5b6000600182016158cc576158cc6158a4565b5060010190565b60208082526038908201527f54686973204e4654206973206e6f7420617070726f766564207965742066726f6040820152776d207468652061646d696e20666f7220707572636861736560401b606082015260800190565b6020808252818101527f596f75206172652062616e6e6564206f6e207468697320706c6174666f726d2e604082015260600190565b60208082526025908201527f416e206f776e65722063616e6e6f7420707572636861736520697473206f776e6040820152641027232a1760d91b606082015260800190565b60208082526036908201527f546865206f776e6572206f662074686973206e667420697320626c61636b6c6960408201527539ba32b21037b7103a3434b990383630ba3337b9369760511b606082015260800190565b6020808252601a908201527f54686973204e4654206973206e6f742061742061756374696f6e000000000000604082015260600190565b6020808252601d908201527f4e6674206973206e6f74206c697374656420746f207075726368617365000000604082015260600190565b818103818111156130e1576130e16158a4565b600082615a9957634e487b7160e01b600052601260045260246000fd5b500490565b80820281158282048414176130e1576130e16158a4565b6001600160a01b03929092168252602082015260400190565b6001600160a01b039384168152919092166020820152604081019190915260600190565b9384526001600160a01b03928316602085015291166040830152606082015260800190565b634e487b7160e01b600052603260045260246000fd5b60208082526029908201527f54686973204e4654206973206e6f74206f6e2061756374696f6e206174207468604082015268329036b7b6b2b73a1760b91b606082015260800190565b6020808252601b908201527f596f7520617265206e6f7420696e207468652066616e206c6973740000000000604082015260600190565b6020808252601c908201527f4d696e696d756d206269642068617320746f2062652068696768657200000000604082015260600190565b6020808252603c908201527f596f75206861766520746f2062696420686967686572207468616e207468652060408201527f686967686573742062696420746f206d616b6520616e206f6666657200000000606082015260800190565b6020808252601990820152782a3434b99027232a1034b99030ba1030ba1030bab1ba34b7b760391b604082015260600190565b808201808211156130e1576130e16158a4565b9283526001600160a01b03919091166020830152604082015260600190565b634e487b7160e01b600052603160045260246000fd5b600060208284031215615cce57600080fd5b8151614fce81615136565b828152604060208201526000615cf2604083018461565a565b949350505050565b60006020808385031215615d0d57600080fd5b82516001600160401b03811115615d2357600080fd5b8301601f81018513615d3457600080fd5b8051615d4261528e82615223565b81815260059190911b82018301908381019087831115615d6157600080fd5b928401925b828410156152d957835182529284019290840190615d66565b85815284602082015260a060408201526000615d9e60a083018661565a565b6001600160a01b0394909416606083015250608001529392505050565b805169ffffffffffffffffffff81168114611de957600080fd5b600080600080600060a08688031215615ded57600080fd5b615df686615dbb565b94506020860151935060408601519250606086015191506151d160808701615dbb565b848152608060208201526000615e32608083018661565a565b6001600160a01b03949094166040830152506060015292915050565b6000815180845260005b81811015615e7457602081850181015186830182015201615e58565b506000602082860101526020601f19601f83011685010191505092915050565b602081526000614fce6020830184615e4e565b604081526000615eba6040830185615e4e565b9050826020830152939250505056fe54657374203520726573656c6c205f616d6f756e744166746572526f79616c7479205465737420332066697273744f776e6572205f616d6f756e74546f426550616964206166746572206665658562eb94748e30bb0071e932744ce902b460c683474fcb3bfd567ffa16b1afb2a2646970667358221220a3790af87b2e3c850d738b0ffc70640b233b55f8e84f65c3bbcef2cc850c354964736f6c63430008130033",
  "linkReferences": {},
  "deployedLinkReferences": {}
}