{
  "_format": "hh-sol-artifact-1",
  "contractName": "ArtiziaMarketplace",
  "sourceName": "contracts/ArtiziaMarketplace.sol",
  "abi": [
    {
      "inputs": [
        {
          "internalType": "address",
          "name": "_token",
          "type": "address"
        }
      ],
      "stateMutability": "nonpayable",
      "type": "constructor"
    },
    {
      "inputs": [],
      "name": "invalidListingType",
      "type": "error"
    },
    {
      "inputs": [],
      "name": "invalidPrice",
      "type": "error"
    },
    {
      "anonymous": false,
      "inputs": [
        {
          "indexed": false,
          "internalType": "address",
          "name": "nftContract",
          "type": "address"
        },
        {
          "indexed": false,
          "internalType": "uint256",
          "name": "tokenId",
          "type": "uint256"
        },
        {
          "indexed": false,
          "internalType": "address",
          "name": "seller",
          "type": "address"
        },
        {
          "indexed": false,
          "internalType": "address",
          "name": "owner",
          "type": "address"
        },
        {
          "indexed": false,
          "internalType": "uint256",
          "name": "price",
          "type": "uint256"
        }
      ],
      "name": "NFTListed",
      "type": "event"
    },
    {
      "anonymous": false,
      "inputs": [
        {
          "indexed": false,
          "internalType": "address",
          "name": "nftContract",
          "type": "address"
        },
        {
          "indexed": false,
          "internalType": "uint256",
          "name": "tokenId",
          "type": "uint256"
        },
        {
          "indexed": false,
          "internalType": "address",
          "name": "seller",
          "type": "address"
        },
        {
          "indexed": false,
          "internalType": "address",
          "name": "owner",
          "type": "address"
        },
        {
          "indexed": false,
          "internalType": "uint256",
          "name": "price",
          "type": "uint256"
        }
      ],
      "name": "NFTSold",
      "type": "event"
    },
    {
      "anonymous": false,
      "inputs": [
        {
          "indexed": true,
          "internalType": "address",
          "name": "previousOwner",
          "type": "address"
        },
        {
          "indexed": true,
          "internalType": "address",
          "name": "newOwner",
          "type": "address"
        }
      ],
      "name": "OwnershipTransferred",
      "type": "event"
    },
    {
      "anonymous": false,
      "inputs": [
        {
          "indexed": false,
          "internalType": "uint256",
          "name": "tokenId",
          "type": "uint256"
        },
        {
          "indexed": false,
          "internalType": "address",
          "name": "seller",
          "type": "address"
        },
        {
          "indexed": false,
          "internalType": "uint256",
          "name": "newTime",
          "type": "uint256"
        }
      ],
      "name": "auctionEndTimeIncreased",
      "type": "event"
    },
    {
      "anonymous": false,
      "inputs": [
        {
          "indexed": false,
          "internalType": "uint256",
          "name": "tokenId",
          "type": "uint256"
        },
        {
          "indexed": false,
          "internalType": "address",
          "name": "seller",
          "type": "address"
        },
        {
          "indexed": false,
          "internalType": "address",
          "name": "highestBidder",
          "type": "address"
        },
        {
          "indexed": false,
          "internalType": "uint256",
          "name": "highestBid",
          "type": "uint256"
        }
      ],
      "name": "getsOutbid",
      "type": "event"
    },
    {
      "anonymous": false,
      "inputs": [
        {
          "indexed": false,
          "internalType": "uint256",
          "name": "tokenId",
          "type": "uint256"
        },
        {
          "indexed": false,
          "internalType": "address",
          "name": "seller",
          "type": "address"
        },
        {
          "indexed": false,
          "internalType": "address",
          "name": "highestBidder",
          "type": "address"
        },
        {
          "indexed": false,
          "internalType": "uint256",
          "name": "highestBid",
          "type": "uint256"
        }
      ],
      "name": "receivedABid",
      "type": "event"
    },
    {
      "stateMutability": "payable",
      "type": "fallback"
    },
    {
      "inputs": [],
      "name": "UNISWAP_ROUTER_ADDRESS",
      "outputs": [
        {
          "internalType": "address",
          "name": "",
          "type": "address"
        }
      ],
      "stateMutability": "view",
      "type": "function"
    },
    {
      "inputs": [],
      "name": "USDT_ADDRESS",
      "outputs": [
        {
          "internalType": "address",
          "name": "",
          "type": "address"
        }
      ],
      "stateMutability": "view",
      "type": "function"
    },
    {
      "inputs": [
        {
          "internalType": "uint256",
          "name": "",
          "type": "uint256"
        }
      ],
      "name": "_idToAuction",
      "outputs": [
        {
          "internalType": "uint256",
          "name": "tokenId",
          "type": "uint256"
        },
        {
          "internalType": "address payable",
          "name": "seller",
          "type": "address"
        },
        {
          "internalType": "uint256",
          "name": "basePrice",
          "type": "uint256"
        },
        {
          "internalType": "uint256",
          "name": "startTime",
          "type": "uint256"
        },
        {
          "internalType": "uint256",
          "name": "endTime",
          "type": "uint256"
        },
        {
          "internalType": "uint256",
          "name": "highestBid",
          "type": "uint256"
        },
        {
          "internalType": "address payable",
          "name": "highestBidder",
          "type": "address"
        },
        {
          "internalType": "enum ArtiziaMarketplace.PaymentMethod",
          "name": "highestBidCurrency",
          "type": "uint8"
        }
      ],
      "stateMutability": "view",
      "type": "function"
    },
    {
      "inputs": [
        {
          "internalType": "uint256",
          "name": "",
          "type": "uint256"
        }
      ],
      "name": "_idToNFT",
      "outputs": [
        {
          "internalType": "address",
          "name": "nftContract",
          "type": "address"
        },
        {
          "internalType": "uint256",
          "name": "tokenId",
          "type": "uint256"
        },
        {
          "internalType": "address payable",
          "name": "firstOwner",
          "type": "address"
        },
        {
          "internalType": "address payable",
          "name": "seller",
          "type": "address"
        },
        {
          "internalType": "address payable",
          "name": "owner",
          "type": "address"
        },
        {
          "internalType": "uint256",
          "name": "price",
          "type": "uint256"
        },
        {
          "internalType": "bool",
          "name": "listed",
          "type": "bool"
        },
        {
          "internalType": "uint256",
          "name": "royaltyPrice",
          "type": "uint256"
        },
        {
          "internalType": "enum ArtiziaMarketplace.ListingType",
          "name": "listingType",
          "type": "uint8"
        },
        {
          "internalType": "enum ArtiziaMarketplace.PaymentMethod",
          "name": "paymentMethod",
          "type": "uint8"
        },
        {
          "internalType": "bool",
          "name": "approve",
          "type": "bool"
        },
        {
          "internalType": "uint256",
          "name": "collectionId",
          "type": "uint256"
        }
      ],
      "stateMutability": "view",
      "type": "function"
    },
    {
      "inputs": [],
      "name": "_nftCount",
      "outputs": [
        {
          "internalType": "uint256",
          "name": "_value",
          "type": "uint256"
        }
      ],
      "stateMutability": "view",
      "type": "function"
    },
    {
      "inputs": [],
      "name": "_nftsSold",
      "outputs": [
        {
          "internalType": "uint256",
          "name": "_value",
          "type": "uint256"
        }
      ],
      "stateMutability": "view",
      "type": "function"
    },
    {
      "inputs": [
        {
          "internalType": "address[]",
          "name": "fans",
          "type": "address[]"
        }
      ],
      "name": "addFans",
      "outputs": [],
      "stateMutability": "nonpayable",
      "type": "function"
    },
    {
      "inputs": [
        {
          "internalType": "uint256[]",
          "name": "_tokenId",
          "type": "uint256[]"
        },
        {
          "internalType": "bool",
          "name": "_decision",
          "type": "bool"
        }
      ],
      "name": "approveNfts",
      "outputs": [
        {
          "internalType": "bool",
          "name": "",
          "type": "bool"
        }
      ],
      "stateMutability": "nonpayable",
      "type": "function"
    },
    {
      "inputs": [
        {
          "internalType": "address",
          "name": "_user",
          "type": "address"
        }
      ],
      "name": "banUser",
      "outputs": [],
      "stateMutability": "nonpayable",
      "type": "function"
    },
    {
      "inputs": [
        {
          "internalType": "address",
          "name": "",
          "type": "address"
        }
      ],
      "name": "bannedUsers",
      "outputs": [
        {
          "internalType": "bool",
          "name": "",
          "type": "bool"
        }
      ],
      "stateMutability": "view",
      "type": "function"
    },
    {
      "inputs": [
        {
          "internalType": "uint256",
          "name": "_tokenId",
          "type": "uint256"
        },
        {
          "internalType": "uint256",
          "name": "_bidCurrency",
          "type": "uint256"
        }
      ],
      "name": "bidInETH",
      "outputs": [],
      "stateMutability": "payable",
      "type": "function"
    },
    {
      "inputs": [
        {
          "internalType": "uint256",
          "name": "_tokenId",
          "type": "uint256"
        },
        {
          "internalType": "uint256",
          "name": "_amount",
          "type": "uint256"
        },
        {
          "internalType": "uint256",
          "name": "_bidCurrency",
          "type": "uint256"
        }
      ],
      "name": "bidInUSDT",
      "outputs": [],
      "stateMutability": "payable",
      "type": "function"
    },
    {
      "inputs": [
        {
          "internalType": "address",
          "name": "_nftContract",
          "type": "address"
        },
        {
          "internalType": "uint256",
          "name": "_paymentMethod",
          "type": "uint256"
        },
        {
          "internalType": "uint256",
          "name": "_tokenId",
          "type": "uint256"
        }
      ],
      "name": "buyWithETH",
      "outputs": [],
      "stateMutability": "payable",
      "type": "function"
    },
    {
      "inputs": [
        {
          "internalType": "address",
          "name": "_nftContract",
          "type": "address"
        },
        {
          "internalType": "uint256",
          "name": "_paymentMethod",
          "type": "uint256"
        },
        {
          "internalType": "uint256",
          "name": "_tokenId",
          "type": "uint256"
        },
        {
          "internalType": "uint256",
          "name": "_amount",
          "type": "uint256"
        }
      ],
      "name": "buyWithUSDT",
      "outputs": [],
      "stateMutability": "payable",
      "type": "function"
    },
    {
      "inputs": [],
      "name": "checkBannedOrDeletedUser",
      "outputs": [
        {
          "internalType": "bool",
          "name": "",
          "type": "bool"
        }
      ],
      "stateMutability": "view",
      "type": "function"
    },
    {
      "inputs": [
        {
          "internalType": "address",
          "name": "_nftContract",
          "type": "address"
        },
        {
          "internalType": "uint256",
          "name": "_tokenId",
          "type": "uint256"
        }
      ],
      "name": "closeAuction",
      "outputs": [],
      "stateMutability": "payable",
      "type": "function"
    },
    {
      "inputs": [
        {
          "internalType": "uint256",
          "name": "",
          "type": "uint256"
        },
        {
          "internalType": "uint256",
          "name": "",
          "type": "uint256"
        }
      ],
      "name": "collection",
      "outputs": [
        {
          "internalType": "uint256",
          "name": "",
          "type": "uint256"
        }
      ],
      "stateMutability": "view",
      "type": "function"
    },
    {
      "inputs": [
        {
          "internalType": "address",
          "name": "_user",
          "type": "address"
        }
      ],
      "name": "deleteUser",
      "outputs": [],
      "stateMutability": "nonpayable",
      "type": "function"
    },
    {
      "inputs": [
        {
          "internalType": "address",
          "name": "",
          "type": "address"
        }
      ],
      "name": "deletedUsers",
      "outputs": [
        {
          "internalType": "bool",
          "name": "",
          "type": "bool"
        }
      ],
      "stateMutability": "view",
      "type": "function"
    },
    {
      "inputs": [
        {
          "internalType": "address",
          "name": "",
          "type": "address"
        },
        {
          "internalType": "uint256",
          "name": "",
          "type": "uint256"
        }
      ],
      "name": "fanLists",
      "outputs": [
        {
          "internalType": "address",
          "name": "",
          "type": "address"
        }
      ],
      "stateMutability": "view",
      "type": "function"
    },
    {
      "inputs": [
        {
          "internalType": "uint256",
          "name": "_collectionId",
          "type": "uint256"
        }
      ],
      "name": "getCollectionNfts",
      "outputs": [
        {
          "components": [
            {
              "internalType": "address",
              "name": "nftContract",
              "type": "address"
            },
            {
              "internalType": "uint256",
              "name": "tokenId",
              "type": "uint256"
            },
            {
              "internalType": "address payable",
              "name": "firstOwner",
              "type": "address"
            },
            {
              "internalType": "address payable",
              "name": "seller",
              "type": "address"
            },
            {
              "internalType": "address payable",
              "name": "owner",
              "type": "address"
            },
            {
              "internalType": "uint256",
              "name": "price",
              "type": "uint256"
            },
            {
              "internalType": "bool",
              "name": "listed",
              "type": "bool"
            },
            {
              "internalType": "uint256",
              "name": "royaltyPrice",
              "type": "uint256"
            },
            {
              "internalType": "enum ArtiziaMarketplace.ListingType",
              "name": "listingType",
              "type": "uint8"
            },
            {
              "internalType": "enum ArtiziaMarketplace.PaymentMethod",
              "name": "paymentMethod",
              "type": "uint8"
            },
            {
              "internalType": "bool",
              "name": "approve",
              "type": "bool"
            },
            {
              "internalType": "uint256",
              "name": "collectionId",
              "type": "uint256"
            }
          ],
          "internalType": "struct ArtiziaMarketplace.NFT[]",
          "name": "",
          "type": "tuple[]"
        }
      ],
      "stateMutability": "view",
      "type": "function"
    },
    {
      "inputs": [],
      "name": "getContractBalance",
      "outputs": [
        {
          "internalType": "uint256",
          "name": "",
          "type": "uint256"
        }
      ],
      "stateMutability": "view",
      "type": "function"
    },
    {
      "inputs": [],
      "name": "getFans",
      "outputs": [
        {
          "internalType": "address[]",
          "name": "",
          "type": "address[]"
        }
      ],
      "stateMutability": "view",
      "type": "function"
    },
    {
      "inputs": [
        {
          "internalType": "uint256",
          "name": "_tokenId",
          "type": "uint256"
        }
      ],
      "name": "getHighestBid",
      "outputs": [
        {
          "internalType": "uint256",
          "name": "",
          "type": "uint256"
        }
      ],
      "stateMutability": "view",
      "type": "function"
    },
    {
      "inputs": [],
      "name": "getLatestUSDTPrice",
      "outputs": [
        {
          "internalType": "uint256",
          "name": "",
          "type": "uint256"
        }
      ],
      "stateMutability": "view",
      "type": "function"
    },
    {
      "inputs": [],
      "name": "getListedNfts",
      "outputs": [
        {
          "components": [
            {
              "internalType": "address",
              "name": "nftContract",
              "type": "address"
            },
            {
              "internalType": "uint256",
              "name": "tokenId",
              "type": "uint256"
            },
            {
              "internalType": "address payable",
              "name": "firstOwner",
              "type": "address"
            },
            {
              "internalType": "address payable",
              "name": "seller",
              "type": "address"
            },
            {
              "internalType": "address payable",
              "name": "owner",
              "type": "address"
            },
            {
              "internalType": "uint256",
              "name": "price",
              "type": "uint256"
            },
            {
              "internalType": "bool",
              "name": "listed",
              "type": "bool"
            },
            {
              "internalType": "uint256",
              "name": "royaltyPrice",
              "type": "uint256"
            },
            {
              "internalType": "enum ArtiziaMarketplace.ListingType",
              "name": "listingType",
              "type": "uint8"
            },
            {
              "internalType": "enum ArtiziaMarketplace.PaymentMethod",
              "name": "paymentMethod",
              "type": "uint8"
            },
            {
              "internalType": "bool",
              "name": "approve",
              "type": "bool"
            },
            {
              "internalType": "uint256",
              "name": "collectionId",
              "type": "uint256"
            }
          ],
          "internalType": "struct ArtiziaMarketplace.NFT[]",
          "name": "",
          "type": "tuple[]"
        }
      ],
      "stateMutability": "view",
      "type": "function"
    },
    {
      "inputs": [
        {
          "internalType": "address",
          "name": "_user",
          "type": "address"
        }
      ],
      "name": "getMyListedNfts",
      "outputs": [
        {
          "components": [
            {
              "internalType": "address",
              "name": "nftContract",
              "type": "address"
            },
            {
              "internalType": "uint256",
              "name": "tokenId",
              "type": "uint256"
            },
            {
              "internalType": "address payable",
              "name": "firstOwner",
              "type": "address"
            },
            {
              "internalType": "address payable",
              "name": "seller",
              "type": "address"
            },
            {
              "internalType": "address payable",
              "name": "owner",
              "type": "address"
            },
            {
              "internalType": "uint256",
              "name": "price",
              "type": "uint256"
            },
            {
              "internalType": "bool",
              "name": "listed",
              "type": "bool"
            },
            {
              "internalType": "uint256",
              "name": "royaltyPrice",
              "type": "uint256"
            },
            {
              "internalType": "enum ArtiziaMarketplace.ListingType",
              "name": "listingType",
              "type": "uint8"
            },
            {
              "internalType": "enum ArtiziaMarketplace.PaymentMethod",
              "name": "paymentMethod",
              "type": "uint8"
            },
            {
              "internalType": "bool",
              "name": "approve",
              "type": "bool"
            },
            {
              "internalType": "uint256",
              "name": "collectionId",
              "type": "uint256"
            }
          ],
          "internalType": "struct ArtiziaMarketplace.NFT[]",
          "name": "",
          "type": "tuple[]"
        }
      ],
      "stateMutability": "view",
      "type": "function"
    },
    {
      "inputs": [
        {
          "internalType": "address",
          "name": "_user",
          "type": "address"
        }
      ],
      "name": "getMyNfts",
      "outputs": [
        {
          "components": [
            {
              "internalType": "address",
              "name": "nftContract",
              "type": "address"
            },
            {
              "internalType": "uint256",
              "name": "tokenId",
              "type": "uint256"
            },
            {
              "internalType": "address payable",
              "name": "firstOwner",
              "type": "address"
            },
            {
              "internalType": "address payable",
              "name": "seller",
              "type": "address"
            },
            {
              "internalType": "address payable",
              "name": "owner",
              "type": "address"
            },
            {
              "internalType": "uint256",
              "name": "price",
              "type": "uint256"
            },
            {
              "internalType": "bool",
              "name": "listed",
              "type": "bool"
            },
            {
              "internalType": "uint256",
              "name": "royaltyPrice",
              "type": "uint256"
            },
            {
              "internalType": "enum ArtiziaMarketplace.ListingType",
              "name": "listingType",
              "type": "uint8"
            },
            {
              "internalType": "enum ArtiziaMarketplace.PaymentMethod",
              "name": "paymentMethod",
              "type": "uint8"
            },
            {
              "internalType": "bool",
              "name": "approve",
              "type": "bool"
            },
            {
              "internalType": "uint256",
              "name": "collectionId",
              "type": "uint256"
            }
          ],
          "internalType": "struct ArtiziaMarketplace.NFT[]",
          "name": "",
          "type": "tuple[]"
        }
      ],
      "stateMutability": "view",
      "type": "function"
    },
    {
      "inputs": [
        {
          "internalType": "uint256",
          "name": "_tokenId",
          "type": "uint256"
        }
      ],
      "name": "getNftApprovalStatus",
      "outputs": [
        {
          "internalType": "bool",
          "name": "",
          "type": "bool"
        }
      ],
      "stateMutability": "view",
      "type": "function"
    },
    {
      "inputs": [
        {
          "internalType": "uint256",
          "name": "_tokenId",
          "type": "uint256"
        }
      ],
      "name": "getStatusOfAuction",
      "outputs": [
        {
          "internalType": "bool",
          "name": "",
          "type": "bool"
        }
      ],
      "stateMutability": "view",
      "type": "function"
    },
    {
      "inputs": [
        {
          "internalType": "address",
          "name": "",
          "type": "address"
        },
        {
          "internalType": "address",
          "name": "",
          "type": "address"
        }
      ],
      "name": "isFan",
      "outputs": [
        {
          "internalType": "bool",
          "name": "",
          "type": "bool"
        }
      ],
      "stateMutability": "view",
      "type": "function"
    },
    {
      "inputs": [
        {
          "internalType": "address",
          "name": "_nftContract",
          "type": "address"
        },
        {
          "internalType": "uint256[]",
          "name": "_tokenId",
          "type": "uint256[]"
        },
        {
          "internalType": "uint256[]",
          "name": "_price",
          "type": "uint256[]"
        },
        {
          "internalType": "uint256",
          "name": "_royaltyPrice",
          "type": "uint256"
        },
        {
          "internalType": "uint256",
          "name": "_listingType",
          "type": "uint256"
        },
        {
          "internalType": "uint256[]",
          "name": "_startTime",
          "type": "uint256[]"
        },
        {
          "internalType": "uint256[]",
          "name": "_endTime",
          "type": "uint256[]"
        },
        {
          "internalType": "uint256",
          "name": "_collectionId",
          "type": "uint256"
        },
        {
          "internalType": "uint256",
          "name": "_paymentMethod",
          "type": "uint256"
        }
      ],
      "name": "listNft",
      "outputs": [],
      "stateMutability": "payable",
      "type": "function"
    },
    {
      "inputs": [],
      "name": "owner",
      "outputs": [
        {
          "internalType": "address",
          "name": "",
          "type": "address"
        }
      ],
      "stateMutability": "view",
      "type": "function"
    },
    {
      "inputs": [],
      "name": "removeAllFans",
      "outputs": [],
      "stateMutability": "nonpayable",
      "type": "function"
    },
    {
      "inputs": [
        {
          "internalType": "address",
          "name": "fan",
          "type": "address"
        }
      ],
      "name": "removeFan",
      "outputs": [],
      "stateMutability": "nonpayable",
      "type": "function"
    },
    {
      "inputs": [],
      "name": "renounceOwnership",
      "outputs": [],
      "stateMutability": "nonpayable",
      "type": "function"
    },
    {
      "inputs": [
        {
          "internalType": "address",
          "name": "_nftContract",
          "type": "address"
        },
        {
          "internalType": "uint256",
          "name": "_tokenId",
          "type": "uint256"
        },
        {
          "internalType": "uint256",
          "name": "_price",
          "type": "uint256"
        },
        {
          "internalType": "uint256",
          "name": "_listingType",
          "type": "uint256"
        },
        {
          "internalType": "uint256",
          "name": "_startTime",
          "type": "uint256"
        },
        {
          "internalType": "uint256",
          "name": "_endTime",
          "type": "uint256"
        },
        {
          "internalType": "uint256",
          "name": "_paymentMethod",
          "type": "uint256"
        }
      ],
      "name": "resellNft",
      "outputs": [],
      "stateMutability": "nonpayable",
      "type": "function"
    },
    {
      "inputs": [
        {
          "internalType": "uint256",
          "name": "usdtAmountOut",
          "type": "uint256"
        }
      ],
      "name": "swapETHForUSDT",
      "outputs": [],
      "stateMutability": "payable",
      "type": "function"
    },
    {
      "inputs": [
        {
          "internalType": "uint256",
          "name": "usdtAmountIn",
          "type": "uint256"
        }
      ],
      "name": "swapUSDTForETH",
      "outputs": [
        {
          "internalType": "uint256",
          "name": "",
          "type": "uint256"
        }
      ],
      "stateMutability": "nonpayable",
      "type": "function"
    },
    {
      "inputs": [
        {
          "internalType": "address",
          "name": "newOwner",
          "type": "address"
        }
      ],
      "name": "transferOwnership",
      "outputs": [],
      "stateMutability": "nonpayable",
      "type": "function"
    },
    {
      "inputs": [
        {
          "internalType": "address",
          "name": "_user",
          "type": "address"
        }
      ],
      "name": "unbanUser",
      "outputs": [],
      "stateMutability": "nonpayable",
      "type": "function"
    },
    {
      "stateMutability": "payable",
      "type": "receive"
    }
  ],
  "bytecode": "0x6080604052600b80546001600160a01b0319908116737a250d5630b4cf539739df2c5dacb4c659f2488d17909155600c805490911673dac17f958d2ee523a2206206994597c13d831ec71790553480156200005957600080fd5b5060405162005d4438038062005d448339810160408190526200007c9162000120565b60016000556200008c33620000ce565b60048054336001600160a01b031991821617909155600b54600d80546001600160a01b03928316908416179055600e8054909216921691909117905562000152565b600180546001600160a01b038381166001600160a01b0319831681179093556040519116919082907f8be0079c531659141344cd1fd0a4f28419497f9722a3daafe3b4186f6b6457e090600090a35050565b6000602082840312156200013357600080fd5b81516001600160a01b03811681146200014b57600080fd5b9392505050565b615be280620001626000396000f3fe6080604052600436106102325760003560e01c80638988d0781161012d578063b9e07df1116100b0578063d6fc3dbd11610077578063d6fc3dbd1461076a578063ecb4ad0c1461078a578063ed5a1c0f146107c3578063f2fde38b146107fe578063f41dfb181461081e578063f6c1b77a1461083157005b8063b9e07df114610642578063bbffa07b146106f3578063c189205814610713578063c36ac2d214610733578063d6cbb2021461075357005b80638f288644116100f45780638f2886441461054457806398dd36bf146105745780639c74405814610589578063b4fa0412146105a9578063b8b3455d1461062f57005b80638988d078146104a157806389ec8e1c146104d15780638cd410f4146104f15780638d6cb3fb146105115780638da5cb5b1461052657005b80635274cff6116101b5578063715018a61161017c578063715018a6146103f157806377ec6a471461040657806379b36943146104365780638090551e1461046e5780638110c5791461048157005b80635274cff6146103595780635674c2e614610386578063572e2afe146103ab5780635c60f226146103be5780636f9fb98a146103de57005b80633b295cb0116101f95780633b295cb0146102de578063438364a1146102f35780634afbcdae146103065780634c070fe7146103265780634d12b6951461033957005b80630760943e1461023b57806310d86b1f146102665780633000df5d1461028657806331824a491461029957806331a7a70f146102be57005b3661023957005b005b34801561024757600080fd5b50610250610851565b60405161025d9190614fa7565b60405180910390f35b34801561027257600080fd5b50610239610281366004614fda565b6108f6565b6102396102943660046150cd565b610922565b3480156102a557600080fd5b506002546102b09081565b60405190815260200161025d565b3480156102ca57600080fd5b506102396102d93660046151b2565b61110d565b3480156102ea57600080fd5b506102396112a8565b61023961030136600461524c565b611349565b34801561031257600080fd5b506102b0610321366004615278565b6119db565b61023961033436600461529a565b611a0c565b34801561034557600080fd5b50610239610354366004614fda565b61226f565b34801561036557600080fd5b50610379610374366004614fda565b612298565b60405161025d919061530f565b34801561039257600080fd5b5061039b612575565b604051901515815260200161025d565b6102396103b93660046153f2565b6125b3565b3480156103ca57600080fd5b506102396103d9366004614fda565b612b3a565b3480156103ea57600080fd5b50476102b0565b3480156103fd57600080fd5b50610239612b66565b34801561041257600080fd5b5061039b610421366004614fda565b600a6020526000908152604090205460ff1681565b34801561044257600080fd5b50600b54610456906001600160a01b031681565b6040516001600160a01b03909116815260200161025d565b61023961047c366004615427565b612b7a565b34801561048d57600080fd5b5061023961049c366004615440565b612dc7565b3480156104ad57600080fd5b5061039b6104bc366004614fda565b60096020526000908152604090205460ff1681565b3480156104dd57600080fd5b506102396104ec366004614fda565b61318b565b3480156104fd57600080fd5b506102b061050c366004615427565b613389565b34801561051d57600080fd5b50610379613768565b34801561053257600080fd5b506001546001600160a01b0316610456565b34801561055057600080fd5b506102b061055f366004615427565b60009081526006602052604090206005015490565b34801561058057600080fd5b506102b0613a1a565b34801561059557600080fd5b5061039b6105a4366004615427565b613af8565b3480156105b557600080fd5b5061061b6105c4366004615427565b6006602081905260009182526040909120805460018201546002830154600384015460048501546005860154959096015493956001600160a01b03938416959294919390929190811690600160a01b900460ff1688565b60405161025d989796959493929190615495565b61023961063d3660046154ea565b613b3d565b34801561064e57600080fd5b506106db61065d366004615427565b600560208190526000918252604090912080546001820154600283015460038401546004850154958501546006860154600787015460088801546009909801546001600160a01b03978816999698958816979485169690941694929360ff92831693919282811692610100810482169262010000909104909116908c565b60405161025d9c9b9a99989796959493929190615516565b3480156106ff57600080fd5b5061045661070e36600461524c565b6141e3565b34801561071f57600080fd5b50600c54610456906001600160a01b031681565b34801561073f57600080fd5b5061037961074e366004615427565b61421b565b34801561075f57600080fd5b506003546102b09081565b34801561077657600080fd5b5061039b610785366004615594565b6144b0565b34801561079657600080fd5b5061039b6107a5366004615427565b60009081526005602052604090206008015462010000900460ff1690565b3480156107cf57600080fd5b5061039b6107de3660046155eb565b600760209081526000928352604080842090915290825290205460ff1681565b34801561080a57600080fd5b50610239610819366004614fda565b614529565b61023961082c366004615278565b61459f565b34801561083d57600080fd5b5061037961084c366004614fda565b614a26565b336000908152600a602052604090205460609060ff161561088d5760405162461bcd60e51b815260040161088490615619565b60405180910390fd5b33600090815260086020908152604091829020805483518184028101840190945280845290918301828280156108ec57602002820191906000526020600020905b81546001600160a01b031681526001909101906020018083116108ce575b5050505050905090565b6108fe614c8c565b6001600160a01b03166000908152600960205260409020805460ff19166001179055565b61092a614ce6565b3360009081526009602052604090205460ff161561095a5760405162461bcd60e51b815260040161088490615689565b336000908152600a602052604090205460ff161561098a5760405162461bcd60e51b815260040161088490615619565b60005b88518110156110f7576109da6040518060400160405280600981526020016874686973206973203160b81b8152508a83815181106109cd576109cd6156be565b6020026020010151614d40565b610a086040518060400160405280600c81526020016b5f6c697374696e675479706560a01b81525087614d40565b60408051808201909152601c81527f75696e74323536284c697374696e67547970652e41756374696f6e29000000006020820152610a47906001614d40565b6000888281518110610a5b57610a5b6156be565b60200260200101511015610a8257604051635a93095360e11b815260040160405180910390fd5b6001861115610aa4576040516317142a4d60e01b815260040160405180910390fd5b610add6040518060400160405280600b81526020016a5f746f6b656e49645b695d60a81b8152508a83815181106109cd576109cd6156be565b896001600160a01b03166323b872dd33308c8581518110610b0057610b006156be565b60200260200101516040518463ffffffff1660e01b8152600401610b26939291906156d4565b600060405180830381600087803b158015610b4057600080fd5b505af1158015610b54573d6000803e3d6000fd5b50505050610b82604051806040016040528060098152602001683a3434b99034b9901960b91b815250614d85565b610b90600380546001019055565b610bba604051806040016040528060098152602001681d1a1a5cc81a5cc80d60ba1b815250614d85565b6000838152600f6020526040902089518a9083908110610bdc57610bdc6156be565b602002602001015190806001815401808255809150506001900390600052602060002001600090919091909150556040518061018001604052808b6001600160a01b031681526020018a8381518110610c3757610c376156be565b60200260200101518152602001336001600160a01b03168152602001336001600160a01b03168152602001306001600160a01b03168152602001898381518110610c8357610c836156be565b60200260200101518152602001600115158152602001888152602001876001811115610cb157610cb16152d5565b6001811115610cc257610cc26152d5565b8152602001836002811115610cd957610cd96152d5565b6002811115610cea57610cea6152d5565b815260200160001515815260200184815250600560008b8481518110610d1257610d126156be565b6020908102919091018101518252818101929092526040908101600020835181546001600160a01b03199081166001600160a01b039283161783559385015160018084019190915592850151600283018054861691831691909117905560608501516003830180548616918316919091179055608085015160048301805490951691161790925560a0830151600583015560c083015160068301805460ff1990811692151592909217905560e084015160078401556101008401516008840180549193909291909116908381811115610ded57610ded6152d5565b021790555061012082015160088201805461ff001916610100836002811115610e1857610e186152d5565b0217905550610140820151600882018054911515620100000262ff00001990921691909117905561016090910151600991820155604080518082019091529081526874686973206973203560b81b6020820152610e7490614d85565b600186141561104a57610ea7604051806040016040528060098152602001683a3434b99034b9901b60b91b815250614d85565b6040518061010001604052808a8381518110610ec557610ec56156be565b60200260200101518152602001336001600160a01b03168152602001898381518110610ef357610ef36156be565b60200260200101518152602001868381518110610f1257610f126156be565b60200260200101518152602001858381518110610f3157610f316156be565b602002602001015181526020016000815260200160006001600160a01b03168152602001836002811115610f6757610f676152d5565b6002811115610f7857610f786152d5565b815250600660008b8481518110610f9157610f916156be565b602090810291909101810151825281810192909252604090810160002083518155918301516001830180546001600160a01b03199081166001600160a01b039384161790915591840151600280850191909155606085015160038501556080850151600485015560a0850151600585015560c085015160068501805494851691909316908117835560e0860151936001600160a81b0319161790600160a01b908490811115611042576110426152d5565b021790555050505b6110746040518060400160405280600981526020016874686973206973203760b81b815250614d85565b7fa0c6c0d02d86fdacecbaa5fdf5894bab204e31a778250474108540733a9b8d198a8a83815181106110a8576110a86156be565b602002602001015133308c86815181106110c4576110c46156be565b60200260200101516040516110dd9594939291906156f8565b60405180910390a1806110ef81615741565b91505061098d565b506111026001600055565b505050505050505050565b336000908152600a602052604090205460ff161561113d5760405162461bcd60e51b815260040161088490615619565b60005b81518110156112a457600082828151811061115d5761115d6156be565b6020026020010151905060006001600160a01b0316816001600160a01b031614156111c05760405162461bcd60e51b8152602060048201526013602482015272496e76616c69642066616e206164647265737360681b6044820152606401610884565b3360009081526007602090815260408083206001600160a01b038516845290915290205460ff16156112345760405162461bcd60e51b815260206004820152601860248201527f4164647265737320697320616c726561647920612066616e00000000000000006044820152606401610884565b3360008181526008602090815260408083208054600180820183559185528385200180546001600160a01b0319166001600160a01b039790971696871790559383526007825280832094835293905291909120805460ff191690911790558061129c81615741565b915050611140565b5050565b336000908152600860205260408120905b815481101561132d57336000908152600760205260408120835482908590859081106112e7576112e76156be565b6000918252602080832091909101546001600160a01b031683528201929092526040019020805460ff19169115159190911790558061132581615741565b9150506112b9565b5033600090815260086020526040812061134691614eca565b50565b60008181526006602052604090206004015442116113a95760405162461bcd60e51b815260206004820152601960248201527f41756374696f6e20686173206e6f7420656e64656420796574000000000000006044820152606401610884565b60008181526005602090815260408083206006928390529220908101546001600160a01b031661150957600181810154908301546040516323b872dd60e01b81526001600160a01b03878116936323b872dd9361140e933093909216916004016156d4565b600060405180830381600087803b15801561142857600080fd5b505af115801561143c573d6000803e3d6000fd5b50505060038301546004840180546001600160a01b0319166001600160a01b039283161790556006808501805460ff191690556000868152602082905260409020015416151590506115095760405162461bcd60e51b815260206004820152604a60248201527f4e6f7468696e6720746f20636c61696d2e20596f75206861766520676f74203060448201527f2062696473206f6e20796f75722061756374696f6e2e2052657475726e696e67606482015269103cb7bab91027232a1760b11b608482015260a401610884565b600581015460009081908190816008870154610100900460ff166002811115611534576115346152d5565b14156116a25760016006860154600160a01b900460ff16600281111561155c5761155c6152d5565b141561158457600061156c613a1a565b611576908361575c565b905061158181613389565b50505b600286015460048701546001600160a01b03908116911614156115f7576115aa81614dc8565b6115b4908261577b565b60038701546040519193506001600160a01b03169083156108fc029084906000818181858888f193505050501580156115f1573d6000803e3d6000fd5b506118ca565b61160985600501548760070154614de1565b935061161481614dc8565b61161e858361577b565b611628919061577b565b60028701546040519193506001600160a01b03169085156108fc029086906000818181858888f19350505050158015611665573d6000803e3d6000fd5b5060038601546040516001600160a01b039091169083156108fc029084906000818181858888f193505050501580156115f1573d6000803e3d6000fd5b60016008870154610100900460ff1660028111156116c2576116c26152d5565b14156118ca5760006006860154600160a01b900460ff1660028111156116ea576116ea6152d5565b14156117205760006116fa613a1a565b6117049083615792565b905061170f82612b7a565b61171c81620f424061575c565b9150505b600286015460048701546001600160a01b03908116911614156117c15761174681614dc8565b611750908261577b565b600e54600388015460405163a9059cbb60e01b81529294506001600160a01b039182169263a9059cbb9261178a92169086906004016157b4565b600060405180830381600087803b1580156117a457600080fd5b505af11580156117b8573d6000803e3d6000fd5b505050506118ca565b6117d385600501548760070154614de1565b93506117de81614dc8565b6117e8858361577b565b6117f2919061577b565b600e54600388015460405163a9059cbb60e01b81529294506001600160a01b039182169263a9059cbb9261182c92169086906004016157b4565b600060405180830381600087803b15801561184657600080fd5b505af115801561185a573d6000803e3d6000fd5b5050600e54600289015460405163a9059cbb60e01b81526001600160a01b03928316945063a9059cbb9350611897929091169088906004016157b4565b600060405180830381600087803b1580156118b157600080fd5b505af11580156118c5573d6000803e3d6000fd5b505050505b600685015460018701546040516323b872dd60e01b81526001600160a01b038b8116936323b872dd93611905933093909216916004016156d4565b600060405180830381600087803b15801561191f57600080fd5b505af1158015611933573d6000803e3d6000fd5b5050506006808701546004890180546001600160a01b0319166001600160a01b039092169190911790558701805460ff1916905550611976600280546001019055565b6001860154600387015460068701546040517f16f1dbd97e6bf646d429ed186cce832f1f7fd9907814293b83181e9970ab7bd2936119c9938d9391926001600160a01b03918216929091169089906156f8565b60405180910390a15050505050505050565b600f60205281600052604060002081815481106119f757600080fd5b90600052602060002001600091509150505481565b3360009081526009602052604090205460ff1615611a3c5760405162461bcd60e51b815260040161088490615689565b336000908152600a602052604090205460ff1615611a6c5760405162461bcd60e51b815260040161088490615619565b611a74614ce6565b600082815260056020526040812090611a8b613a1a565b90506000611a9e8464e8d4a5100061575c565b9050611aaa828261575c565b9050611abe670de0b6b3a764000082615792565b60048401546001600160a01b031660009081526009602052604090205490915060ff1615611afe5760405162461bcd60e51b8152600401610884906157cd565b60048301546001600160a01b03166000908152600a602052604090205460ff1615611b3b5760405162461bcd60e51b815260040161088490615823565b8260050154811015611b7c5760405162461bcd60e51b815260206004820152600a60248201526953656e64206d6f72652160b01b6044820152606401610884565b6000600884015460ff166001811115611b9757611b976152d5565b14611be45760405162461bcd60e51b815260206004820152601a60248201527f54686973204e4654206973206e6f742061742061756374696f6e0000000000006044820152606401610884565b600683015460ff161515600114611c0d5760405162461bcd60e51b815260040161088490615880565b600080339050611c3a60405180604001604052806006815260200165436865636b3160d01b815250614d85565b600e546040516323b872dd60e01b815260009182916001600160a01b03909116906323b872dd90611c7390339030908d906004016156d4565b600060405180830381600087803b158015611c8d57600080fd5b505af1158015611ca1573d6000803e3d6000fd5b50505050600287015460038801546001600160a01b0391821691161415611e4f57611ce960405180604001604052806006815260200165436865636b3360d01b815250614d85565b611cf288614dc8565b611cfc908961577b565b90508960011415611da157611d2e6040518060400160405280600681526020016510da1958dacd60d21b815250614d85565b600e54600388015460405163a9059cbb60e01b81526001600160a01b039283169263a9059cbb92611d669291169085906004016157b4565b600060405180830381600087803b158015611d8057600080fd5b505af1158015611d94573d6000803e3d6000fd5b50505050600193506120dd565b611dc860405180604001604052806006815260200165436865636b3560d01b815250614d85565b6000611dd382613389565b90506000611de68364e8d4a5100061575c565b9050611df2888861575c565b9650611e06670de0b6b3a764000088615792565b60038a01546040519198506001600160a01b03169083156108fc029084906000818181858888f19350505050158015611e43573d6000803e3d6000fd5b506001955050506120dd565b611e766040518060400160405280600681526020016521b432b1b59b60d11b815250614d85565b6000611e86898960070154614de1565b9050611e92818a61577b565b9250611e9d83614dc8565b611ea7908a61577b565b91506000611eb882620f424061575c565b600e5460028b015460405163a9059cbb60e01b81529293506001600160a01b039182169263a9059cbb92611ef292169086906004016157b4565b600060405180830381600087803b158015611f0c57600080fd5b505af1158015611f20573d6000803e3d6000fd5b50505050611f4b60405180604001604052806006815260200165436865636b3760d01b815250614d85565b8b6001141561202757611f7b60405180604001604052806006815260200165086d0cac6d6760d31b815250614d85565b6000611f8a84620f424061575c565b600e5460038c015460405163a9059cbb60e01b81529293506001600160a01b039182169263a9059cbb92611fc492169085906004016157b4565b600060405180830381600087803b158015611fde57600080fd5b505af1158015611ff2573d6000803e3d6000fd5b505050506001965061202160405180604001604052806006815260200165436865636b3960d01b815250614d85565b506120da565b61203083613389565b50600061203b613a1a565b612045908561575c565b905061206f60405180604001604052806007815260200166436865636b313160c81b815250614d85565b60038a01546040516001600160a01b039091169082156108fc029083906000818181858888f193505050501580156120ab573d6000803e3d6000fd5b506120d46040518060400160405280600781526020016621b432b1b5989960c91b815250614d85565b60019650505b50505b83156122585761210b60405180604001604052806007815260200166436865636b313360c81b815250614d85565b60018701546040516323b872dd60e01b81526001600160a01b038d16916323b872dd9161213f9130918891906004016156d4565b600060405180830381600087803b15801561215957600080fd5b505af115801561216d573d6000803e3d6000fd5b505050506121996040518060400160405280600781526020016610da1958dacc4d60ca1b815250614d85565b6004870180546001600160a01b0385166001600160a01b031991821617909155600388018054909116905560068701805460ff191690556121de600280546001019055565b600187015460038801546040517f16f1dbd97e6bf646d429ed186cce832f1f7fd9907814293b83181e9970ab7bd292612228928f926001600160a01b0390911690889088906156f8565b60405180910390a161225860405180604001604052806007815260200166436865636b313560c81b815250614d85565b505050505050506122696001600055565b50505050565b612277614c8c565b6001600160a01b03166000908152600960205260409020805460ff19169055565b336000908152600a602052604090205460609060ff16156122cb5760405162461bcd60e51b815260040161088490615619565b3360009081526009602052604090205460ff16156122fb5760405162461bcd60e51b815260040161088490615689565b600061230660035490565b90506000805b82811015612376576000818152600560205260409020600301546001600160a01b038681169116148015612351575060008181526005602052604090206006015460ff165b15612364578161236081615741565b9250505b8061236e81615741565b91505061230c565b5060008167ffffffffffffffff81111561239257612392614ff7565b6040519080825280602002602001820160405280156123cb57816020015b6123b8614ee8565b8152602001906001900390816123b05790505b5090506000805b84811015612568576000818152600560205260409020600301546001600160a01b038881169116148015612417575060008181526005602052604090206006015460ff165b156125565760008181526005602081815260409283902083516101808101855281546001600160a01b039081168252600180840154948301949094526002830154811695820195909552600382015485166060820152600482015490941660808501529182015460a0840152600682015460ff908116151560c0850152600783015460e085015260088301546101008501929116908111156124bb576124bb6152d5565b60018111156124cc576124cc6152d5565b81526020016008820160019054906101000a900460ff1660028111156124f4576124f46152d5565b6002811115612505576125056152d5565b8152600882015462010000900460ff1615156020820152600990910154604090910152835184908490811061253c5761253c6156be565b6020026020010181905250818061255290615741565b9250505b8061256081615741565b9150506123d2565b509093505050505b919050565b3360009081526009602052604081205460ff16806125a25750336000908152600a602052604090205460ff165b156125ad5750600190565b50600090565b3360009081526009602052604090205460ff16156125e35760405162461bcd60e51b815260040161088490615689565b336000908152600a602052604090205460ff16156126135760405162461bcd60e51b815260040161088490615619565b61261b614ce6565b600081815260056020908152604080832060048101546001600160a01b0316845260099092529091205460ff16156126655760405162461bcd60e51b8152600401610884906157cd565b60048101546001600160a01b03166000908152600a602052604090205460ff16156126a25760405162461bcd60e51b815260040161088490615823565b80600501543410156127055760405162461bcd60e51b815260206004820152602660248201527f4e6f7420656e6f75676820657468657220746f20636f7665722061736b696e6760448201526520707269636560d01b6064820152608401610884565b6000600882015460ff166001811115612720576127206152d5565b1461276d5760405162461bcd60e51b815260206004820152601a60248201527f54686973204e4654206973206e6f742061742061756374696f6e0000000000006044820152606401610884565b600681015460ff1615156001146127965760405162461bcd60e51b815260040161088490615880565b600281015460038201546000913391839182916001600160a01b03908116911614156128c1576127c534614dc8565b6127cf903461577b565b90508661281c5760038501546040516001600160a01b039091169082156108fc029083906000818181858888f19350505050158015612812573d6000803e3d6000fd5b5060019350612a22565b61282581612b7a565b600061282f613a1a565b612839908361575c565b9050600061284a82620f424061575c565b600e54600389015460405163a9059cbb60e01b81529293506001600160a01b039182169263a9059cbb9261288492169085906004016157b4565b600060405180830381600087803b15801561289e57600080fd5b505af11580156128b2573d6000803e3d6000fd5b50505050600195505050612a22565b600034905060006128d6828860070154614de1565b90506128e182614dc8565b6128eb828461577b565b6128f5919061577b565b60028801546040519194506001600160a01b03169082156108fc029083906000818181858888f19350505050158015612932573d6000803e3d6000fd5b508861297e5760038701546040516001600160a01b039091169084156108fc029085906000818181858888f19350505050158015612974573d6000803e3d6000fd5b5060019550612a1f565b61298783612b7a565b6000612991613a1a565b61299b9085615792565b905060006129ac82620f424061575c565b600e5460038b015460405163a9059cbb60e01b81529293506001600160a01b039182169263a9059cbb926129e692169085906004016157b4565b600060405180830381600087803b158015612a0057600080fd5b505af1158015612a14573d6000803e3d6000fd5b505050506001975050505b50505b8315612b265760018501546040516323b872dd60e01b81526001600160a01b038a16916323b872dd91612a5c9130918891906004016156d4565b600060405180830381600087803b158015612a7657600080fd5b505af1158015612a8a573d6000803e3d6000fd5b5050506004860180546001600160a01b0386166001600160a01b03199182161790915560038701805490911690555060068501805460ff19169055612ad3600280546001019055565b600185015460038601546040517f16f1dbd97e6bf646d429ed186cce832f1f7fd9907814293b83181e9970ab7bd292612b1d928c926001600160a01b0390911690889088906156f8565b60405180910390a15b5050505050612b356001600055565b505050565b612b42614c8c565b6001600160a01b03166000908152600a60205260409020805460ff19166001179055565b612b6e614c8c565b612b786000614e00565b565b6040805160028082526060820183526000926020830190803683375050600d54604080516315ab88c960e31b815290519394506001600160a01b039091169263ad5c464892506004808301926020929190829003018186803b158015612bdf57600080fd5b505afa158015612bf3573d6000803e3d6000fd5b505050506040513d601f19601f82011682018060405250810190612c1791906158b7565b81600081518110612c2a57612c2a6156be565b6001600160a01b039283166020918202929092010152600c54825191169082906001908110612c5b57612c5b6156be565b6001600160a01b039290921660209283029190910182015260408051600280825260608201835260009391929091830190803683375050600d5460405163d06ca61f60e01b81529293506001600160a01b03169163d06ca61f9150612cc690869086906004016158d4565b60006040518083038186803b158015612cde57600080fd5b505afa158015612cf2573d6000803e3d6000fd5b505050506040513d6000823e601f3d908101601f19168201604052612d1a91908101906158f5565b600d5481519192506001600160a01b031690637ff36ab590349084906001908110612d4757612d476156be565b60200260200101518530426040518663ffffffff1660e01b8152600401612d71949392919061597b565b6000604051808303818588803b158015612d8a57600080fd5b505af1158015612d9e573d6000803e3d6000fd5b50505050506040513d6000823e601f3d908101601f1916820160405261226991908101906158f5565b3360009081526009602052604090205460ff1615612df75760405162461bcd60e51b815260040161088490615689565b336000908152600a602052604090205460ff1615612e275760405162461bcd60e51b815260040161088490615619565b612e2f614ce6565b600086815260056020526040902085612e8a5760405162461bcd60e51b815260206004820152601c60248201527f5072696365206d757374206265206174206c65617374203120776569000000006044820152606401610884565b60048101546001600160a01b03163314612ef95760405162461bcd60e51b815260206004820152602a60248201527f4f6e6c7920746865206f776e6572206f6620616e206e66742063616e206c69736044820152693a103a34329037333a1760b11b6064820152608401610884565b6040516323b872dd60e01b81526001600160a01b038916906323b872dd90612f2990339030908c906004016156d4565b600060405180830381600087803b158015612f4357600080fd5b505af1158015612f57573d6000803e3d6000fd5b5050506003820180546001600160a01b0319908116331790915560048301805490911630179055506005810186905560068101805460ff191660019081179091558590811115612fa957612fa96152d5565b60088201805460ff191660018381811115612fc657612fc66152d5565b0217905550816002811115612fdd57612fdd6152d5565b60088201805461ff001916610100836002811115612ffd57612ffd6152d5565b0217905550600185141561312e57604051806101000160405280888152602001336001600160a01b031681526020018781526020018581526020018481526020016000815260200160006001600160a01b03168152602001836002811115613067576130676152d5565b6002811115613078576130786152d5565b905260008881526006602081815260409283902084518155908401516001820180546001600160a01b03199081166001600160a01b039384161790915593850151600280840191909155606086015160038401556080860151600484015560a0860151600584015560c0860151938301805495861694909216938417825560e08601519294929391926001600160a81b03191690911790600160a01b908490811115613126576131266152d5565b021790555050505b6131386002614e52565b7fa0c6c0d02d86fdacecbaa5fdf5894bab204e31a778250474108540733a9b8d19888833308a60405161316f9594939291906156f8565b60405180910390a1506131826001600055565b50505050505050565b6001600160a01b0381166131d75760405162461bcd60e51b8152602060048201526013602482015272496e76616c69642066616e206164647265737360681b6044820152606401610884565b3360009081526007602090815260408083206001600160a01b038516845290915290205460ff166132415760405162461bcd60e51b815260206004820152601460248201527320b2323932b9b99034b9903737ba1030903330b760611b6044820152606401610884565b336000908152600860205260408120905b815481101561335957826001600160a01b0316828281548110613277576132776156be565b6000918252602090912001546001600160a01b0316141561334757815482906132a29060019061577b565b815481106132b2576132b26156be565b9060005260206000200160009054906101000a90046001600160a01b03168282815481106132e2576132e26156be565b9060005260206000200160006101000a8154816001600160a01b0302191690836001600160a01b0316021790555081805480613320576133206159b0565b600082815260209020810160001990810180546001600160a01b0319169055019055613359565b8061335181615741565b915050613252565b50503360009081526007602090815260408083206001600160a01b0394909416835292905220805460ff19169055565b60006133b360405180604001604052806006815260200165746573743d3160d01b81525083614d40565b6040805160028082526060820183526000926020830190803683375050600c5482519293506001600160a01b0316918391506000906133f4576133f46156be565b6001600160a01b03928316602091820292909201810191909152600d54604080516315ab88c960e31b81529051919093169263ad5c4648926004808301939192829003018186803b15801561344857600080fd5b505afa15801561345c573d6000803e3d6000fd5b505050506040513d601f19601f8201168201806040525081019061348091906158b7565b81600181518110613493576134936156be565b6001600160a01b039283166020918202929092010152600e546040516323b872dd60e01b81529116906323b872dd906134d4903390309088906004016156d4565b600060405180830381600087803b1580156134ee57600080fd5b505af1158015613502573d6000803e3d6000fd5b5050600e54600b5460405163095ea7b360e01b81526001600160a01b03928316945063095ea7b3935061353d929091169087906004016157b4565b600060405180830381600087803b15801561355757600080fd5b505af115801561356b573d6000803e3d6000fd5b5050505061359560405180604001604052806005815260200164746573743360d81b815250614d85565b6040805160028082526060820183526000926020830190803683375050600d5460405163d06ca61f60e01b81529293506001600160a01b03169163d06ca61f91506135e690879086906004016158d4565b60006040518083038186803b1580156135fe57600080fd5b505afa158015613612573d6000803e3d6000fd5b505050506040513d6000823e601f3d908101601f1916820160405261363a91908101906158f5565b905061367160405180604001604052806006815260200165185b5bdd5b9d60d21b815250826001815181106109cd576109cd6156be565b600d5481516001600160a01b0390911690634a25d94a908390600190811061369b5761369b6156be565b6020026020010151868530426040518663ffffffff1660e01b81526004016136c79594939291906159c6565b600060405180830381600087803b1580156136e157600080fd5b505af11580156136f5573d6000803e3d6000fd5b505050506040513d6000823e601f3d908101601f1916820160405261371d91908101906158f5565b50613744604051806040016040528060058152602001641d195cdd0d60da1b815250614d85565b80600181518110613757576137576156be565b602002602001015192505050919050565b336000908152600a602052604090205460609060ff161561379b5760405162461bcd60e51b815260040161088490615619565b60006137a660035490565b905060006137b360025490565b6137bd908361577b565b90506137e9604051806040016040528060088152602001671b999d10dbdd5b9d60c21b81525083614d40565b61381a6040518060400160405280600f81526020016e1d5b9cdbdb1913999d1cd0dbdd5b9d608a1b81525082614d40565b60008167ffffffffffffffff81111561383557613835614ff7565b60405190808252806020026020018201604052801561386e57816020015b61385b614ee8565b8152602001906001900390816138535790505b509050600061389f6040518060400160405280600b81526020016a5f6964546f4e46545b695d60a81b815250614d85565b60005b84811015613a105760008181526005602052604090206006015460ff16156139fe5760008181526005602081815260409283902083516101808101855281546001600160a01b039081168252600180840154948301949094526002830154811695820195909552600382015485166060820152600482015490941660808501529182015460a0840152600682015460ff908116151560c0850152600783015460e08501526008830154610100850192911690811115613963576139636152d5565b6001811115613974576139746152d5565b81526020016008820160019054906101000a900460ff16600281111561399c5761399c6152d5565b60028111156139ad576139ad6152d5565b8152600882015462010000900460ff161515602082015260099091015460409091015283518490849081106139e4576139e46156be565b602002602001018190525081806139fa90615741565b9250505b80613a0881615741565b9150506138a2565b5090935050505090565b60008073ee9f2375b4bdf6387aa8265dd4fb8f16512a1d4690506000816001600160a01b031663feaf968c6040518163ffffffff1660e01b815260040160a06040518083038186803b158015613a6f57600080fd5b505afa158015613a83573d6000803e3d6000fd5b505050506040513d601f19601f82011682018060405250810190613aa79190615a1c565b50505091505060008113613af25760405162461bcd60e51b8152602060048201526012602482015271496e76616c6964205553445420707269636560701b6044820152606401610884565b92915050565b60008181526006602052604081206003015442118015613b28575060008281526006602052604090206004015442105b15613b3557506001919050565b506000919050565b600083815260066020526040902060030154839042118015613b6f575060008181526006602052604090206004015442105b613b8b5760405162461bcd60e51b815260040161088490615a6c565b336000908152600a602052604090205460ff1615613bbb5760405162461bcd60e51b815260040161088490615619565b3360009081526009602052604090205460ff1615613beb5760405162461bcd60e51b815260040161088490615689565b6000613bf5613a1a565b90506000613c088564e8d4a5100061575c565b9050613c14828261575c565b9050613c28670de0b6b3a764000082615792565b9050613c5d604051806040016040528060118152602001705f616d6f756e74496e455448496e57656960781b81525082614d40565b613c8460405180604001604052806006815260200165436865636b3160d01b815250614d85565b600086815260066020819052604090912001546001600160a01b0316613d0557600086815260066020526040902060020154811015613d055760405162461bcd60e51b815260206004820152601c60248201527f4d696e696d756d206269642068617320746f20626520686967686572000000006044820152606401610884565b613d2c6040518060400160405280600681526020016521b432b1b59960d11b815250614d85565b600086815260066020526040902060050154811015613d5d5760405162461bcd60e51b815260040161088490615ab5565b613d8460405180604001604052806006815260200165436865636b3360d01b815250614d85565b600160008781526005602052604090206008015460ff166001811115613dac57613dac6152d5565b14613df55760405162461bcd60e51b81526020600482015260196024820152782a3434b99027232a1034b99030ba1030ba1030bab1ba34b7b760391b6044820152606401610884565b60008681526005602052604090206006015460ff161515600114613e2b5760405162461bcd60e51b815260040161088490615880565b613e526040518060400160405280600681526020016510da1958dacd60d21b815250614d85565b600e546040516323b872dd60e01b81526001600160a01b03909116906323b872dd90613e8690339030908a906004016156d4565b600060405180830381600087803b158015613ea057600080fd5b505af1158015613eb4573d6000803e3d6000fd5b505050600087815260066020818152604092839020808301546005820154855180870190965293855265436865636b3560d01b9285019290925293506001600160a01b031691613f0390614d85565b60068301546001600160a01b03161561402c5760016006840154600160a01b900460ff166002811115613f3857613f386152d5565b1415613fcc576000613f48613a1a565b613f529083615792565b9050613f6181620f424061575c565b600e5460405163a9059cbb60e01b81529192506001600160a01b03169063a9059cbb90613f9490869085906004016157b4565b600060405180830381600087803b158015613fae57600080fd5b505af1158015613fc2573d6000803e3d6000fd5b505050505061402c565b60006006840154600160a01b900460ff166002811115613fee57613fee6152d5565b141561402c576040516001600160a01b0383169082156108fc029083906000818181858888f1935050505015801561402a573d6000803e3d6000fd5b505b600583018490556006830180546001600160a01b03191633179055866002811115614059576140596152d5565b60068401805460ff60a01b1916600160a01b83600281111561407d5761407d6152d5565b02179055506140a960405180604001604052806006815260200165436865636b3760d01b815250614d85565b6140b542610258615b12565b8360040154101561417a576140e760405180604001604052806006815260200165086d0cac6d6760d31b815250614d85565b61012c8360040160008282546140fd9190615b12565b909155505060018301546004840154604080518c81526001600160a01b0390931660208401528201527f8e1cb85d0855921b3c958b068fa707efb7db88099af764dd47f37eef82c3334d9060600160405180910390a161417a60405180604001604052806006815260200165436865636b3960d01b815250614d85565b600183015460068401546005850154604080518d81526001600160a01b03948516602082015293909216838301526060830152517f4307392e6f0e441e74a4982d9fa9ddc49b3cd9d3902a9d3ecab0ad3c60a0acd19181900360800190a1505050505050505050565b600860205281600052604060002081815481106141ff57600080fd5b6000918252602090912001546001600160a01b03169150829050565b6060600061422860035490565b9050600061423560025490565b61423f908361577b565b905061426b604051806040016040528060088152602001671b999d10dbdd5b9d60c21b81525083614d40565b61429c6040518060400160405280600f81526020016e1d5b9cdbdb1913999d1cd0dbdd5b9d608a1b81525082614d40565b60008167ffffffffffffffff8111156142b7576142b7614ff7565b6040519080825280602002602001820160405280156142f057816020015b6142dd614ee8565b8152602001906001900390816142d55790505b50905060006143236040518060400160405280600d81526020016c17d8dbdb1b1958dd1a5bdb9259609a1b815250614d85565b60005b848110156125685760008181526005602052604090206006015460ff16801561435f575060008181526005602052604090206009015487145b1561449e5760008181526005602081815260409283902083516101808101855281546001600160a01b039081168252600180840154948301949094526002830154811695820195909552600382015485166060820152600482015490941660808501529182015460a0840152600682015460ff908116151560c0850152600783015460e08501526008830154610100850192911690811115614403576144036152d5565b6001811115614414576144146152d5565b81526020016008820160019054906101000a900460ff16600281111561443c5761443c6152d5565b600281111561444d5761444d6152d5565b8152600882015462010000900460ff16151560208201526009909101546040909101528351849084908110614484576144846156be565b6020026020010181905250818061449a90615741565b9250505b806144a881615741565b915050614326565b60006144ba614c8c565b6000805b845181101561451e578481815181106144d9576144d96156be565b602090810291909101810151600081815260059092526040909120600801805462ff00001916620100008715150217905591508061451681615741565b9150506144be565b506001949350505050565b614531614c8c565b6001600160a01b0381166145965760405162461bcd60e51b815260206004820152602660248201527f4f776e61626c653a206e6577206f776e657220697320746865207a65726f206160448201526564647265737360d01b6064820152608401610884565b61134681614e00565b6000828152600660205260409020600301548290421180156145d1575060008181526006602052604090206004015442105b6145ed5760405162461bcd60e51b815260040161088490615a6c565b336000908152600a602052604090205460ff161561461d5760405162461bcd60e51b815260040161088490615619565b3360009081526009602052604090205460ff161561464d5760405162461bcd60e51b815260040161088490615689565b600083815260066020819052604090912001546001600160a01b03166146ce576000838152600660205260409020600201543410156146ce5760405162461bcd60e51b815260206004820152601c60248201527f4d696e696d756d206269642068617320746f20626520686967686572000000006044820152606401610884565b60008381526006602052604090206005015434116146fe5760405162461bcd60e51b815260040161088490615ab5565b600160008481526005602052604090206008015460ff166001811115614726576147266152d5565b1461476f5760405162461bcd60e51b81526020600482015260196024820152782a3434b99027232a1034b99030ba1030ba1030bab1ba34b7b760391b6044820152606401610884565b60008381526005602052604090206006015460ff1615156001146147a55760405162461bcd60e51b815260040161088490615880565b60008381526006602081905260409091209081015460058201546001600160a01b039091169081156148e75760016006840154600160a01b900460ff1660028111156147f3576147f36152d5565b1415614887576000614803613a1a565b61480d9083615792565b905061481c81620f424061575c565b600e5460405163a9059cbb60e01b81529192506001600160a01b03169063a9059cbb9061484f90869085906004016157b4565b600060405180830381600087803b15801561486957600080fd5b505af115801561487d573d6000803e3d6000fd5b50505050506148e7565b60006006840154600160a01b900460ff1660028111156148a9576148a96152d5565b14156148e7576040516001600160a01b0383169082156108fc029083906000818181858888f193505050501580156148e5573d6000803e3d6000fd5b505b3460058401556006830180546001600160a01b03191633179055846002811115614913576149136152d5565b60068401805460ff60a01b1916600160a01b836002811115614937576149376152d5565b021790555061494842610258615b12565b836004015410156149c05761012c8360040160008282546149699190615b12565b909155505060018301546004840154604080518981526001600160a01b0390931660208401528201527f8e1cb85d0855921b3c958b068fa707efb7db88099af764dd47f37eef82c3334d9060600160405180910390a15b600183015460068401546005850154604080518a81526001600160a01b03948516602082015293909216838301526060830152517f4307392e6f0e441e74a4982d9fa9ddc49b3cd9d3902a9d3ecab0ad3c60a0acd19181900360800190a1505050505050565b336000908152600a602052604090205460609060ff1615614a595760405162461bcd60e51b815260040161088490615619565b6000614a6460035490565b90506000805b82811015614ab7576000818152600560205260409020600401546001600160a01b0386811691161415614aa55781614aa181615741565b9250505b80614aaf81615741565b915050614a6a565b5060008167ffffffffffffffff811115614ad357614ad3614ff7565b604051908082528060200260200182016040528015614b0c57816020015b614af9614ee8565b815260200190600190039081614af15790505b5090506000805b84811015612568576000818152600560205260409020600401546001600160a01b0388811691161415614c7a5760008181526005602081815260409283902083516101808101855281546001600160a01b039081168252600180840154948301949094526002830154811695820195909552600382015485166060820152600482015490941660808501529182015460a0840152600682015460ff908116151560c0850152600783015460e08501526008830154610100850192911690811115614bdf57614bdf6152d5565b6001811115614bf057614bf06152d5565b81526020016008820160019054906101000a900460ff166002811115614c1857614c186152d5565b6002811115614c2957614c296152d5565b8152600882015462010000900460ff16151560208201526009909101546040909101528351849084908110614c6057614c606156be565b60200260200101819052508180614c7690615741565b9250505b80614c8481615741565b915050614b13565b6001546001600160a01b03163314612b785760405162461bcd60e51b815260206004820181905260248201527f4f776e61626c653a2063616c6c6572206973206e6f7420746865206f776e65726044820152606401610884565b60026000541415614d395760405162461bcd60e51b815260206004820152601f60248201527f5265656e7472616e637947756172643a207265656e7472616e742063616c6c006044820152606401610884565b6002600055565b6112a48282604051602401614d56929190615b77565b60408051601f198184030181529190526020810180516001600160e01b0316632d839cb360e21b179052614ea9565b61134681604051602401614d999190615b99565b60408051601f198184030181529190526020810180516001600160e01b031663104c13eb60e21b179052614ea9565b60006064614dd783600661575c565b613af29190615792565b60006064614def838561575c565b614df99190615792565b9392505050565b600180546001600160a01b038381166001600160a01b0319831681179093556040519116919082907f8be0079c531659141344cd1fd0a4f28419497f9722a3daafe3b4186f6b6457e090600090a35050565b805480614ea15760405162461bcd60e51b815260206004820152601b60248201527f436f756e7465723a2064656372656d656e74206f766572666c6f7700000000006044820152606401610884565b600019019055565b60006a636f6e736f6c652e6c6f679050600080835160208501845afa505050565b50805460008255906000526020600020908101906113469190614f4a565b6040805161018081018252600080825260208201819052918101829052606081018290526080810182905260a0810182905260c0810182905260e081018290529061010082019081526020016000815260006020820181905260409091015290565b5b80821115614f5f5760008155600101614f4b565b5090565b600081518084526020808501945080840160005b83811015614f9c5781516001600160a01b031687529582019590820190600101614f77565b509495945050505050565b602081526000614df96020830184614f63565b6001600160a01b038116811461134657600080fd5b803561257081614fba565b600060208284031215614fec57600080fd5b8135614df981614fba565b634e487b7160e01b600052604160045260246000fd5b604051601f8201601f1916810167ffffffffffffffff8111828210171561503657615036614ff7565b604052919050565b600067ffffffffffffffff82111561505857615058614ff7565b5060051b60200190565b600082601f83011261507357600080fd5b813560206150886150838361503e565b61500d565b82815260059290921b840181019181810190868411156150a757600080fd5b8286015b848110156150c257803583529183019183016150ab565b509695505050505050565b60008060008060008060008060006101208a8c0312156150ec57600080fd5b6150f58a614fcf565b985060208a013567ffffffffffffffff8082111561511257600080fd5b61511e8d838e01615062565b995060408c013591508082111561513457600080fd5b6151408d838e01615062565b985060608c0135975060808c0135965060a08c013591508082111561516457600080fd5b6151708d838e01615062565b955060c08c013591508082111561518657600080fd5b506151938c828d01615062565b93505060e08a013591506101008a013590509295985092959850929598565b600060208083850312156151c557600080fd5b823567ffffffffffffffff8111156151dc57600080fd5b8301601f810185136151ed57600080fd5b80356151fb6150838261503e565b81815260059190911b8201830190838101908783111561521a57600080fd5b928401925b8284101561524157833561523281614fba565b8252928401929084019061521f565b979650505050505050565b6000806040838503121561525f57600080fd5b823561526a81614fba565b946020939093013593505050565b6000806040838503121561528b57600080fd5b50508035926020909101359150565b600080600080608085870312156152b057600080fd5b84356152bb81614fba565b966020860135965060408601359560600135945092505050565b634e487b7160e01b600052602160045260246000fd5b600281106152fb576152fb6152d5565b9052565b600381106152fb576152fb6152d5565b602080825282518282018190526000919060409081850190868401855b828110156153e557815180516001600160a01b0390811686528782015188870152868201518116878701526060808301518216908701526080808301519091169086015260a0808201519086015260c08082015115159086015260e08082015190860152610100808201516153a3828801826152eb565b5050610120808201516153b8828801826152ff565b5050610140818101511515908601526101609081015190850152610180909301929085019060010161532c565b5091979650505050505050565b60008060006060848603121561540757600080fd5b833561541281614fba565b95602085013595506040909401359392505050565b60006020828403121561543957600080fd5b5035919050565b600080600080600080600060e0888a03121561545b57600080fd5b873561546681614fba565b9960208901359950604089013598606081013598506080810135975060a0810135965060c00135945092505050565b8881526001600160a01b03888116602083015260408201889052606082018790526080820186905260a08201859052831660c082015261010081016154dd60e08301846152ff565b9998505050505050505050565b6000806000606084860312156154ff57600080fd5b505081359360208301359350604090920135919050565b6001600160a01b038d81168252602082018d90528b811660408301528a811660608301528916608082015260a0810188905286151560c082015260e08101869052610180810161556a6101008301876152eb565b6155786101208301866152ff565b92151561014082015261016001529a9950505050505050505050565b600080604083850312156155a757600080fd5b823567ffffffffffffffff8111156155be57600080fd5b6155ca85828601615062565b925050602083013580151581146155e057600080fd5b809150509250929050565b600080604083850312156155fe57600080fd5b823561560981614fba565b915060208301356155e081614fba565b6020808252604a908201527f596f7520617265207065726d656e616e746c792064656c657465642066726f6d60408201527f207468697320706c6174666f726d20666f722076696f6c6174696e6720746865606082015269103837b634b1b4b2b99760b11b608082015260a00190565b6020808252818101527f596f75206172652062616e6e6564206f6e207468697320706c6174666f726d2e604082015260600190565b634e487b7160e01b600052603260045260246000fd5b6001600160a01b039384168152919092166020820152604081019190915260600190565b6001600160a01b039586168152602081019490945291841660408401529092166060820152608081019190915260a00190565b634e487b7160e01b600052601160045260246000fd5b60006000198214156157555761575561572b565b5060010190565b60008160001904831182151516156157765761577661572b565b500290565b60008282101561578d5761578d61572b565b500390565b6000826157af57634e487b7160e01b600052601260045260246000fd5b500490565b6001600160a01b03929092168252602082015260400190565b60208082526036908201527f546865206f776e6572206f662074686973206e667420697320626c61636b6c6960408201527539ba32b21037b7103a3434b990383630ba3337b9369760511b606082015260800190565b6020808252603d908201527f546865206f776e6572206f662074686973206e6674206973207065726d616e6160408201527f6e746c792062616e6e6564206f6e207468697320706c6174666f726d2e000000606082015260800190565b6020808252601d908201527f4e6674206973206e6f74206c697374656420746f207075726368617365000000604082015260600190565b6000602082840312156158c957600080fd5b8151614df981614fba565b8281526040602082015260006158ed6040830184614f63565b949350505050565b6000602080838503121561590857600080fd5b825167ffffffffffffffff81111561591f57600080fd5b8301601f8101851361593057600080fd5b805161593e6150838261503e565b81815260059190911b8201830190838101908783111561595d57600080fd5b928401925b8284101561524157835182529284019290840190615962565b8481526080602082015260006159946080830186614f63565b6001600160a01b03949094166040830152506060015292915050565b634e487b7160e01b600052603160045260246000fd5b85815284602082015260a0604082015260006159e560a0830186614f63565b6001600160a01b0394909416606083015250608001529392505050565b805169ffffffffffffffffffff8116811461257057600080fd5b600080600080600060a08688031215615a3457600080fd5b615a3d86615a02565b9450602086015193506040860151925060608601519150615a6060808701615a02565b90509295509295909350565b60208082526029908201527f54686973204e4654206973206e6f74206f6e2061756374696f6e206174207468604082015268329036b7b6b2b73a1760b91b606082015260800190565b6020808252603c908201527f596f75206861766520746f2062696420686967686572207468616e207468652060408201527f686967686573742062696420746f206d616b6520616e206f6666657200000000606082015260800190565b60008219821115615b2557615b2561572b565b500190565b6000815180845260005b81811015615b5057602081850181015186830182015201615b34565b81811115615b62576000602083870101525b50601f01601f19169290920160200192915050565b604081526000615b8a6040830185615b2a565b90508260208301529392505050565b602081526000614df96020830184615b2a56fea264697066735822122007bed24648a084d4eb71f5676b958bdb6d767d6524841b8e1ad5cd29b84efd3a64736f6c63430008090033",
  "linkReferences": {},
  "deployedLinkReferences": {}
}