{
  "_format": "hh-sol-artifact-1",
  "contractName": "ArtiziaNFT",
  "sourceName": "contracts/ArtiziaNFT.sol",
  "abi": [
    {
      "inputs": [
        {
          "internalType": "address",
          "name": "_artiziaMarketplaceContract",
          "type": "address"
        }
      ],
      "stateMutability": "nonpayable",
      "type": "constructor"
    },
    {
      "anonymous": false,
      "inputs": [
        {
          "indexed": true,
          "internalType": "address",
          "name": "owner",
          "type": "address"
        },
        {
          "indexed": true,
          "internalType": "address",
          "name": "approved",
          "type": "address"
        },
        {
          "indexed": true,
          "internalType": "uint256",
          "name": "tokenId",
          "type": "uint256"
        }
      ],
      "name": "Approval",
      "type": "event"
    },
    {
      "anonymous": false,
      "inputs": [
        {
          "indexed": true,
          "internalType": "address",
          "name": "owner",
          "type": "address"
        },
        {
          "indexed": true,
          "internalType": "address",
          "name": "operator",
          "type": "address"
        },
        {
          "indexed": false,
          "internalType": "bool",
          "name": "approved",
          "type": "bool"
        }
      ],
      "name": "ApprovalForAll",
      "type": "event"
    },
    {
      "anonymous": false,
      "inputs": [
        {
          "indexed": false,
          "internalType": "uint256",
          "name": "_fromTokenId",
          "type": "uint256"
        },
        {
          "indexed": false,
          "internalType": "uint256",
          "name": "_toTokenId",
          "type": "uint256"
        }
      ],
      "name": "BatchMetadataUpdate",
      "type": "event"
    },
    {
      "anonymous": false,
      "inputs": [
        {
          "indexed": false,
          "internalType": "uint256",
          "name": "_tokenId",
          "type": "uint256"
        }
      ],
      "name": "MetadataUpdate",
      "type": "event"
    },
    {
      "anonymous": false,
      "inputs": [
        {
          "indexed": false,
          "internalType": "uint256[]",
          "name": "",
          "type": "uint256[]"
        }
      ],
      "name": "NFTMinted",
      "type": "event"
    },
    {
      "anonymous": false,
      "inputs": [
        {
          "indexed": true,
          "internalType": "address",
          "name": "from",
          "type": "address"
        },
        {
          "indexed": true,
          "internalType": "address",
          "name": "to",
          "type": "address"
        },
        {
          "indexed": true,
          "internalType": "uint256",
          "name": "tokenId",
          "type": "uint256"
        }
      ],
      "name": "Transfer",
      "type": "event"
    },
    {
      "inputs": [],
      "name": "_tokenIds",
      "outputs": [
        {
          "internalType": "uint256",
          "name": "",
          "type": "uint256"
        }
      ],
      "stateMutability": "view",
      "type": "function"
    },
    {
      "inputs": [
        {
          "internalType": "address",
          "name": "to",
          "type": "address"
        },
        {
          "internalType": "uint256",
          "name": "tokenId",
          "type": "uint256"
        }
      ],
      "name": "approve",
      "outputs": [],
      "stateMutability": "nonpayable",
      "type": "function"
    },
    {
      "inputs": [
        {
          "internalType": "address",
          "name": "owner",
          "type": "address"
        }
      ],
      "name": "balanceOf",
      "outputs": [
        {
          "internalType": "uint256",
          "name": "",
          "type": "uint256"
        }
      ],
      "stateMutability": "view",
      "type": "function"
    },
    {
      "inputs": [
        {
          "internalType": "uint256",
          "name": "tokenId",
          "type": "uint256"
        }
      ],
      "name": "getApproved",
      "outputs": [
        {
          "internalType": "address",
          "name": "",
          "type": "address"
        }
      ],
      "stateMutability": "view",
      "type": "function"
    },
    {
      "inputs": [],
      "name": "getMintedTokensList",
      "outputs": [
        {
          "internalType": "uint256[]",
          "name": "",
          "type": "uint256[]"
        }
      ],
      "stateMutability": "view",
      "type": "function"
    },
    {
      "inputs": [
        {
          "internalType": "address",
          "name": "_contractAddress",
          "type": "address"
        }
      ],
      "name": "getNFTsOnAcount",
      "outputs": [
        {
          "internalType": "uint256[]",
          "name": "",
          "type": "uint256[]"
        }
      ],
      "stateMutability": "view",
      "type": "function"
    },
    {
      "inputs": [
        {
          "internalType": "address",
          "name": "owner",
          "type": "address"
        },
        {
          "internalType": "address",
          "name": "operator",
          "type": "address"
        }
      ],
      "name": "isApprovedForAll",
      "outputs": [
        {
          "internalType": "bool",
          "name": "",
          "type": "bool"
        }
      ],
      "stateMutability": "view",
      "type": "function"
    },
    {
      "inputs": [
        {
          "internalType": "string[]",
          "name": "_tokenURIs",
          "type": "string[]"
        }
      ],
      "name": "mint",
      "outputs": [],
      "stateMutability": "nonpayable",
      "type": "function"
    },
    {
      "inputs": [
        {
          "internalType": "address",
          "name": "",
          "type": "address"
        },
        {
          "internalType": "uint256",
          "name": "",
          "type": "uint256"
        }
      ],
      "name": "mintedTokens",
      "outputs": [
        {
          "internalType": "uint256",
          "name": "",
          "type": "uint256"
        }
      ],
      "stateMutability": "view",
      "type": "function"
    },
    {
      "inputs": [
        {
          "internalType": "uint256",
          "name": "",
          "type": "uint256"
        }
      ],
      "name": "mintedTokensList",
      "outputs": [
        {
          "internalType": "uint256",
          "name": "",
          "type": "uint256"
        }
      ],
      "stateMutability": "view",
      "type": "function"
    },
    {
      "inputs": [],
      "name": "name",
      "outputs": [
        {
          "internalType": "string",
          "name": "",
          "type": "string"
        }
      ],
      "stateMutability": "view",
      "type": "function"
    },
    {
      "inputs": [
        {
          "internalType": "uint256",
          "name": "tokenId",
          "type": "uint256"
        }
      ],
      "name": "ownerOf",
      "outputs": [
        {
          "internalType": "address",
          "name": "",
          "type": "address"
        }
      ],
      "stateMutability": "view",
      "type": "function"
    },
    {
      "inputs": [
        {
          "internalType": "address",
          "name": "from",
          "type": "address"
        },
        {
          "internalType": "address",
          "name": "to",
          "type": "address"
        },
        {
          "internalType": "uint256",
          "name": "tokenId",
          "type": "uint256"
        }
      ],
      "name": "safeTransferFrom",
      "outputs": [],
      "stateMutability": "nonpayable",
      "type": "function"
    },
    {
      "inputs": [
        {
          "internalType": "address",
          "name": "from",
          "type": "address"
        },
        {
          "internalType": "address",
          "name": "to",
          "type": "address"
        },
        {
          "internalType": "uint256",
          "name": "tokenId",
          "type": "uint256"
        },
        {
          "internalType": "bytes",
          "name": "data",
          "type": "bytes"
        }
      ],
      "name": "safeTransferFrom",
      "outputs": [],
      "stateMutability": "nonpayable",
      "type": "function"
    },
    {
      "inputs": [
        {
          "internalType": "address",
          "name": "operator",
          "type": "address"
        },
        {
          "internalType": "bool",
          "name": "approved",
          "type": "bool"
        }
      ],
      "name": "setApprovalForAll",
      "outputs": [],
      "stateMutability": "nonpayable",
      "type": "function"
    },
    {
      "inputs": [
        {
          "internalType": "bytes4",
          "name": "interfaceId",
          "type": "bytes4"
        }
      ],
      "name": "supportsInterface",
      "outputs": [
        {
          "internalType": "bool",
          "name": "",
          "type": "bool"
        }
      ],
      "stateMutability": "view",
      "type": "function"
    },
    {
      "inputs": [],
      "name": "symbol",
      "outputs": [
        {
          "internalType": "string",
          "name": "",
          "type": "string"
        }
      ],
      "stateMutability": "view",
      "type": "function"
    },
    {
      "inputs": [
        {
          "internalType": "uint256",
          "name": "tokenId",
          "type": "uint256"
        }
      ],
      "name": "tokenURI",
      "outputs": [
        {
          "internalType": "string",
          "name": "",
          "type": "string"
        }
      ],
      "stateMutability": "view",
      "type": "function"
    },
    {
      "inputs": [
        {
          "internalType": "address",
          "name": "from",
          "type": "address"
        },
        {
          "internalType": "address",
          "name": "to",
          "type": "address"
        },
        {
          "internalType": "uint256",
          "name": "tokenId",
          "type": "uint256"
        }
      ],
      "name": "transferFrom",
      "outputs": [],
      "stateMutability": "nonpayable",
      "type": "function"
    }
  ],
  "bytecode": "0x6080346200035657601f601f196001600160401b036200231038819003848101841686018381118782101762000340578692829160405283396020958691810103126200035657516001600160a01b03811693908490036200035657620000656200035b565b926007845266417274697a696160c81b86850152620000836200035b565b90600482526320a92a2d60e11b8783015284519084821162000340576000918254966001978881811c9116801562000335575b8b8210146200032157908187849311620002ce575b508a908783116001146200026b5785926200025f575b5050600019600383901b1c191690871b1782555b82519485116200024b5785548681811c9116801562000240575b898210146200022c57848111620001e4575b50879385116001146200017f575083949596509262000173575b5050600019600383901b1c191690821b1790555b600880546001600160a01b031916919091179055604051611f9490816200037c8239f35b0151905038806200013b565b8493929193169685845280842093905b888210620001cc5750508385969710620001b2575b505050811b0190556200014f565b015160001960f88460031b161c19169055388080620001a4565b8087859682949686015181550195019301906200018f565b8683528883208580880160051c8201928b891062000222575b0160051c019087905b8281106200021657505062000121565b84815501879062000206565b92508192620001fd565b634e487b7160e01b83526022600452602483fd5b90607f16906200010f565b634e487b7160e01b82526041600452602482fd5b015190503880620000e1565b90848a9416918680528c8720928d88905b828210620002b657505084116200029c575b505050811b018255620000f5565b015160001960f88460031b161c191690553880806200028e565b8385015186558d979095019493840193018e6200027c565b9091508480528a85208780850160051c8201928d861062000317575b918b91869594930160051c01915b82811062000308575050620000cb565b8781558594508b9101620002f8565b92508192620002ea565b634e487b7160e01b85526022600452602485fd5b90607f1690620000b6565b634e487b7160e01b600052604160045260246000fd5b600080fd5b60408051919082016001600160401b03811183821017620003405760405256fe608080604052600436101561001357600080fd5b60003560e01c90816301ffc9a71461139a5750806306fdde03146112f7578063081812fc146112d9578063095ea7b3146110ec5780630d9815361461108957806323b872dd14611065578063348b2f4714610fe057806342842e0e14610fad5780635768f271146107335780636352211e146106f757806370a082311461062657806374aecbb21461059f57806374c92fd11461054e57806395d89b4114610451578063a22cb4651461033b578063aa46a4001461031d578063b88d4fde14610295578063c87b56dd146101595763e985e9c5146100f057600080fd5b34610154576040600319360112610154576101096114fa565b61011161151d565b9073ffffffffffffffffffffffffffffffffffffffff809116600052600560205260406000209116600052602052602060ff604060002054166040519015158152f35b600080fd5b3461015457602080600319360112610154576004356101a361019e82600052600260205273ffffffffffffffffffffffffffffffffffffffff60406000205416151590565b611719565b600052600681526040600020906040519182600082546101c2816117b0565b93848452600191868382169182600014610254575050600114610215575b50506101ee9250038361164f565b60006040516101fc81611604565b5261021160405192828493845283019061149c565b0390f35b85925060005281600020906000915b85831061023c5750506101ee935082010185806101e0565b80548389018501528794508693909201918101610224565b915093506101ee9592507fffffffffffffffffffffffffffffffffffffffffffffffffffffffffffffff0091501682840152151560051b82010185806101e0565b34610154576080600319360112610154576102ae6114fa565b6102b661151d565b906064359060443567ffffffffffffffff831161015457366023840112156101545761031b936102f36103169436906024816004013591016116e2565b926103066103018433611971565b61185a565b610311838383611a77565b611ddb565b6118e5565b005b34610154576000600319360112610154576020600754604051908152f35b34610154576040600319360112610154576103546114fa565b602435908115158092036101545773ffffffffffffffffffffffffffffffffffffffff16908133146103f35733600052600560205260406000208260005260205260406000207fffffffffffffffffffffffffffffffffffffffffffffffffffffffffffffff0081541660ff83161790556040519081527f17307eab39ab6107e8899845ad3d59bd9653f200f220920489ca2b5937696c3160203392a3005b60646040517f08c379a000000000000000000000000000000000000000000000000000000000815260206004820152601960248201527f4552433732313a20617070726f766520746f2063616c6c6572000000000000006044820152fd5b346101545760006003193601126101545760405160006001805490610475826117b0565b8085529181811690811561050957506001146104b0575b6102118461049c8186038261164f565b60405191829160208352602083019061149c565b600081815292507fb10e2d527612073b26eecdfd717e6a320cf44b4afac2b0732d9fcbe2b7fa0cf65b8284106104f157505050810160200161049c8261048c565b805460208587018101919091529093019281016104d9565b7fffffffffffffffffffffffffffffffffffffffffffffffffffffffffffffff001660208087019190915292151560051b8501909201925061049c915083905061048c565b3461015457602060031936011261015457600435600a5481101561015457602090600a6000527fc65a7bb8d6351c1cf70c95a316cc6a92839c986682d98bc35f958f4883f9d2a80154604051908152f35b346101545760006003193601126101545760405180600a5491828152602080910192600a6000527fc65a7bb8d6351c1cf70c95a316cc6a92839c986682d98bc35f958f4883f9d2a8916000905b82821061060f57610211856106038189038261164f565b604051918291826115c9565b8354865294850194600193840193909101906105ec565b346101545760206003193601126101545773ffffffffffffffffffffffffffffffffffffffff6106546114fa565b1680156106735760005260036020526020604060002054604051908152f35b60846040517f08c379a000000000000000000000000000000000000000000000000000000000815260206004820152602960248201527f4552433732313a2061646472657373207a65726f206973206e6f74206120766160448201527f6c6964206f776e657200000000000000000000000000000000000000000000006064820152fd5b3461015457602060031936011261015457602061071560043561177e565b73ffffffffffffffffffffffffffffffffffffffff60405191168152f35b346101545760206003193601126101545760043567ffffffffffffffff811161015457366023820112156101545780600401359061077082611690565b9061077e604051928361164f565b82825260208201906024809460051b8201019036821161015457848101925b828410610f6d5785858051907fffffffffffffffffffffffffffffffffffffffffffffffffffffffffffffffe06107ec6107d684611690565b936107e4604051958661164f565b808552611690565b0136602084013760005b8151811015610f3857600761080b8154611e89565b80915560405161081a81611604565b600081523315610edb5761031661090b9161086161085b85600052600260205273ffffffffffffffffffffffffffffffffffffffff60406000205416151590565b15611ef9565b61089161085b85600052600260205273ffffffffffffffffffffffffffffffffffffffff60406000205416151590565b3360005260036020526040600020600181540190558360005260026020526040600020337fffffffffffffffffffffffff0000000000000000000000000000000000000000825416179055833360007fddf252ad1be2c89b69c2b068fc378daa952ba7f163c4a11628f55a4df523b3ef8180a48333611bfb565b6109158284611ee5565b5161094382600052600260205273ffffffffffffffffffffffffffffffffffffffff60406000205416151590565b15610e575781600052600660205260406000209080519067ffffffffffffffff8211610caa57819061097584546117b0565b601f8111610e07575b50602090601f8311600114610d4157600092610d36575b50507fffffffffffffffffffffffffffffffffffffffffffffffffffffffffffffffff8260011b9260031b1c19161790555b7ff8e1a15aba9398e019f0b49df1a4fde98ee17ae345cb5f6b5e2c27f5033e8ce76020604051838152a173ffffffffffffffffffffffffffffffffffffffff60085416803314610cd857336000526005602052604060002081600052602052604060002060017fffffffffffffffffffffffffffffffffffffffffffffffffffffffffffffff00825416179055604051600181527f17307eab39ab6107e8899845ad3d59bd9653f200f220920489ca2b5937696c3160203392a380610a8c8386611ee5565b52600a8054680100000000000000009182821015610caa5760018201809155811015610c7c5782907fc65a7bb8d6351c1cf70c95a316cc6a92839c986682d98bc35f958f4883f9d2a80155336000526009602052604060002090815490811015610c4e57610aff91600182018155611540565b7fffffffffffffffffffffffffffffffffffffffffffffffffffffffffffffffff829392549160031b92831b921b1916179055610b3c8184611ee5565b519060405160408101908681831067ffffffffffffffff841117610c2157610bd4610c0660009493610c1c978695604052600e82527f6d696e746564546f6b656e4964730000000000000000000000000000000000006020830152604051938492604060208501977fb60e72cc000000000000000000000000000000000000000000000000000000008952850152606484019061149c565b906044830152037fffffffffffffffffffffffffffffffffffffffffffffffffffffffffffffffe0810183528261164f565b51906a636f6e736f6c652e6c6f675afa50611e89565b6107f6565b7f4e487b710000000000000000000000000000000000000000000000000000000060005260416004526000fd5b867f4e487b710000000000000000000000000000000000000000000000000000000060005260416004526000fd5b867f4e487b710000000000000000000000000000000000000000000000000000000060005260326004526000fd5b877f4e487b710000000000000000000000000000000000000000000000000000000060005260416004526000fd5b6064866019604051917f08c379a0000000000000000000000000000000000000000000000000000000008352602060048401528201527f4552433732313a20617070726f766520746f2063616c6c6572000000000000006044820152fd5b015190508880610995565b9250836000526020600020906000935b7fffffffffffffffffffffffffffffffffffffffffffffffffffffffffffffffe084168510610dec5760019450837fffffffffffffffffffffffffffffffffffffffffffffffffffffffffffffffe0811610610db5575b505050811b0190556109c7565b01517fffffffffffffffffffffffffffffffffffffffffffffffffffffffffffffffff60f88460031b161c19169055888080610da8565b81810151835560209485019460019093019290910190610d51565b909150836000526020600020601f840160051c810160208510610e50575b90849392915b601f830160051c82018110610e4157505061097e565b60008155859450600101610e2b565b5080610e25565b608486602e604051917f08c379a0000000000000000000000000000000000000000000000000000000008352602060048401528201527f45524337323155524953746f726167653a2055524920736574206f66206e6f6e60448201527f6578697374656e7420746f6b656e0000000000000000000000000000000000006064820152fd5b6064866020604051917f08c379a00000000000000000000000000000000000000000000000000000000083528160048401528201527f4552433732313a206d696e7420746f20746865207a65726f20616464726573736044820152fd5b6040517f758666154f91d6dd1ff8bd2f2e7f207b25297952ffc083ed6fc3a4deac42b03a9080610f6886826115c9565b0390a1005b833567ffffffffffffffff81116101545782013660438201121561015457602091610fa28392369060448b82013591016116e2565b81520193019261079d565b346101545761031b610316610fc136611587565b9060405192610fcf84611604565b600084526103066103018433611971565b34610154576020806003193601126101545773ffffffffffffffffffffffffffffffffffffffff61100f6114fa565b1660005260098152604060002090604051908181845491828152019360005281600020916000905b82821061104e57610211856106038189038261164f565b835486529485019460019384019390910190611037565b346101545761031b61107636611587565b916110846103018433611971565b611a77565b34610154576040600319360112610154576110a26114fa565b73ffffffffffffffffffffffffffffffffffffffff6024359116600052600960205260406000208054821015610154576020916110de91611540565b90546040519160031b1c8152f35b34610154576040600319360112610154576111056114fa565b6024359073ffffffffffffffffffffffffffffffffffffffff80806111298561177e565b1692169180831461125557803314908115611230575b50156111ac578260005260046020526040600020827fffffffffffffffffffffffff00000000000000000000000000000000000000008254161790556111848361177e565b167f8c5be1e5ebec7d5bd14f71427d1e84f3dd0314c0f7b2291e5b200ac8c7c3b925600080a4005b60846040517f08c379a000000000000000000000000000000000000000000000000000000000815260206004820152603d60248201527f4552433732313a20617070726f76652063616c6c6572206973206e6f7420746f60448201527f6b656e206f776e6572206f7220617070726f76656420666f7220616c6c0000006064820152fd5b9050600052600560205260406000203360005260205260ff604060002054168461113f565b60846040517f08c379a000000000000000000000000000000000000000000000000000000000815260206004820152602160248201527f4552433732313a20617070726f76616c20746f2063757272656e74206f776e6560448201527f72000000000000000000000000000000000000000000000000000000000000006064820152fd5b34610154576020600319360112610154576020610715600435611803565b346101545760006003193601126101545760405160008054611318816117b0565b808452906001908181169081156105095750600114611341576102118461049c8186038261164f565b600080805292507f290decd9548b62a8d60345a988386fc84ba6bc95484008f6362f93160ef3e5635b82841061138257505050810160200161049c8261048c565b8054602085870181019190915290930192810161136a565b3461015457602060031936011261015457600435907fffffffff00000000000000000000000000000000000000000000000000000000821680920361015457817f49064906000000000000000000000000000000000000000000000000000000006020931490811561140e575b5015158152f35b7f80ac58cd00000000000000000000000000000000000000000000000000000000811491508115611472575b8115611448575b5083611407565b7f01ffc9a70000000000000000000000000000000000000000000000000000000091501483611441565b7f5b5e139f000000000000000000000000000000000000000000000000000000008114915061143a565b919082519283825260005b8481106114e65750507fffffffffffffffffffffffffffffffffffffffffffffffffffffffffffffffe0601f8460006020809697860101520116010190565b6020818301810151848301820152016114a7565b6004359073ffffffffffffffffffffffffffffffffffffffff8216820361015457565b6024359073ffffffffffffffffffffffffffffffffffffffff8216820361015457565b80548210156115585760005260206000200190600090565b7f4e487b7100000000000000000000000000000000000000000000000000000000600052603260045260246000fd5b60031960609101126101545773ffffffffffffffffffffffffffffffffffffffff90600435828116810361015457916024359081168103610154579060443590565b6020908160408183019282815285518094520193019160005b8281106115f0575050505090565b8351855293810193928101926001016115e2565b6020810190811067ffffffffffffffff82111761162057604052565b7f4e487b7100000000000000000000000000000000000000000000000000000000600052604160045260246000fd5b90601f7fffffffffffffffffffffffffffffffffffffffffffffffffffffffffffffffe0910116810190811067ffffffffffffffff82111761162057604052565b67ffffffffffffffff81116116205760051b60200190565b67ffffffffffffffff811161162057601f017fffffffffffffffffffffffffffffffffffffffffffffffffffffffffffffffe01660200190565b9291926116ee826116a8565b916116fc604051938461164f565b829481845281830111610154578281602093846000960137010152565b1561172057565b60646040517f08c379a000000000000000000000000000000000000000000000000000000000815260206004820152601860248201527f4552433732313a20696e76616c696420746f6b656e20494400000000000000006044820152fd5b600052600260205273ffffffffffffffffffffffffffffffffffffffff604060002054166117ad811515611719565b90565b90600182811c921680156117f9575b60208310146117ca57565b7f4e487b7100000000000000000000000000000000000000000000000000000000600052602260045260246000fd5b91607f16916117bf565b61183361019e82600052600260205273ffffffffffffffffffffffffffffffffffffffff60406000205416151590565b600052600460205273ffffffffffffffffffffffffffffffffffffffff6040600020541690565b1561186157565b60846040517f08c379a000000000000000000000000000000000000000000000000000000000815260206004820152602d60248201527f4552433732313a2063616c6c6572206973206e6f7420746f6b656e206f776e6560448201527f72206f7220617070726f766564000000000000000000000000000000000000006064820152fd5b156118ec57565b6040517f08c379a000000000000000000000000000000000000000000000000000000000815260206004820152603260248201527f4552433732313a207472616e7366657220746f206e6f6e20455243373231526560448201527f63656976657220696d706c656d656e74657200000000000000000000000000006064820152608490fd5b9073ffffffffffffffffffffffffffffffffffffffff80806119928461177e565b169316918383149384156119c5575b5083156119af575b50505090565b6119bb91929350611803565b16143880806119a9565b909350600052600560205260406000208260005260205260ff6040600020541692386119a1565b156119f357565b60846040517f08c379a000000000000000000000000000000000000000000000000000000000815260206004820152602560248201527f4552433732313a207472616e736665722066726f6d20696e636f72726563742060448201527f6f776e65720000000000000000000000000000000000000000000000000000006064820152fd5b90611aac91611a858461177e565b9173ffffffffffffffffffffffffffffffffffffffff9384938480941694859116146119ec565b16918215611b785781611ac991611ac28661177e565b16146119ec565b7fddf252ad1be2c89b69c2b068fc378daa952ba7f163c4a11628f55a4df523b3ef60008481526004602052604081207fffffffffffffffffffffffff0000000000000000000000000000000000000000908181541690558382526003602052604082207fffffffffffffffffffffffffffffffffffffffffffffffffffffffffffffffff81540190558482526040822060018154019055858252600260205284604083209182541617905580a4565b60846040517f08c379a0000000000000000000000000000000000000000000000000000000008152602060048201526024808201527f4552433732313a207472616e7366657220746f20746865207a65726f2061646460448201527f72657373000000000000000000000000000000000000000000000000000000006064820152fd5b91929091803b15611dd257611c769360405190817f150b7a020000000000000000000000000000000000000000000000000000000093848252336004830152600096876024840152604483015260806064830152818773ffffffffffffffffffffffffffffffffffffffff8260209b8c97608483019061149c565b0393165af1849181611d76575b50611d4d575050503d600014611d45573d611c9d816116a8565b90611cab604051928361164f565b81528091833d92013e5b80519182611d42576040517f08c379a000000000000000000000000000000000000000000000000000000000815260206004820152603260248201527f4552433732313a207472616e7366657220746f206e6f6e20455243373231526560448201527f63656976657220696d706c656d656e74657200000000000000000000000000006064820152608490fd5b01fd5b506060611cb5565b7fffffffff00000000000000000000000000000000000000000000000000000000161492509050565b9091508581813d8311611dcb575b611d8e818361164f565b81010312611dc757517fffffffff0000000000000000000000000000000000000000000000000000000081168103611dc7579038611c83565b8480fd5b503d611d84565b50915050600190565b92939190803b15611e7f57611e549460405180927f150b7a02000000000000000000000000000000000000000000000000000000009485835233600484015273ffffffffffffffffffffffffffffffffffffffff809816602484015260448301526080606483015281806020998a95608483019061149c565b03916000988991165af1849181611d765750611d4d575050503d600014611d45573d611c9d816116a8565b5050915050600190565b7fffffffffffffffffffffffffffffffffffffffffffffffffffffffffffffffff8114611eb65760010190565b7f4e487b7100000000000000000000000000000000000000000000000000000000600052601160045260246000fd5b80518210156115585760209160051b010190565b15611f0057565b60646040517f08c379a000000000000000000000000000000000000000000000000000000000815260206004820152601c60248201527f4552433732313a20746f6b656e20616c7265616479206d696e746564000000006044820152fdfea2646970667358221220e4ff3c4daf0be6fc828587a4fba75fc79ab8ac17e2526261be422a1e165b604564736f6c63430008140033",
  "linkReferences": {},
  "deployedLinkReferences": {}
}