{
  "_format": "hh-sol-artifact-1",
  "contractName": "ArtiziaMarketplace",
  "sourceName": "contracts/ArtiziaMarketplace.sol",
  "abi": [
    {
      "inputs": [
        {
          "internalType": "address",
          "name": "_token",
          "type": "address"
        }
      ],
      "stateMutability": "nonpayable",
      "type": "constructor"
    },
    {
      "inputs": [],
      "name": "invalidListingType",
      "type": "error"
    },
    {
      "inputs": [],
      "name": "invalidPrice",
      "type": "error"
    },
    {
      "anonymous": false,
      "inputs": [
        {
          "indexed": false,
          "internalType": "address",
          "name": "nftContract",
          "type": "address"
        },
        {
          "indexed": false,
          "internalType": "uint256",
          "name": "tokenId",
          "type": "uint256"
        },
        {
          "indexed": false,
          "internalType": "address",
          "name": "seller",
          "type": "address"
        },
        {
          "indexed": false,
          "internalType": "address",
          "name": "owner",
          "type": "address"
        },
        {
          "indexed": false,
          "internalType": "uint256",
          "name": "price",
          "type": "uint256"
        }
      ],
      "name": "NFTListed",
      "type": "event"
    },
    {
      "anonymous": false,
      "inputs": [
        {
          "indexed": false,
          "internalType": "address",
          "name": "nftContract",
          "type": "address"
        },
        {
          "indexed": false,
          "internalType": "uint256",
          "name": "tokenId",
          "type": "uint256"
        },
        {
          "indexed": false,
          "internalType": "address",
          "name": "seller",
          "type": "address"
        },
        {
          "indexed": false,
          "internalType": "address",
          "name": "owner",
          "type": "address"
        },
        {
          "indexed": false,
          "internalType": "uint256",
          "name": "price",
          "type": "uint256"
        }
      ],
      "name": "NFTSold",
      "type": "event"
    },
    {
      "anonymous": false,
      "inputs": [
        {
          "indexed": true,
          "internalType": "address",
          "name": "previousOwner",
          "type": "address"
        },
        {
          "indexed": true,
          "internalType": "address",
          "name": "newOwner",
          "type": "address"
        }
      ],
      "name": "OwnershipTransferred",
      "type": "event"
    },
    {
      "anonymous": false,
      "inputs": [
        {
          "indexed": false,
          "internalType": "uint256",
          "name": "newTime",
          "type": "uint256"
        }
      ],
      "name": "auctionEndTimeIncreased",
      "type": "event"
    },
    {
      "stateMutability": "payable",
      "type": "fallback"
    },
    {
      "inputs": [],
      "name": "UNISWAP_ROUTER_ADDRESS",
      "outputs": [
        {
          "internalType": "address",
          "name": "",
          "type": "address"
        }
      ],
      "stateMutability": "view",
      "type": "function"
    },
    {
      "inputs": [],
      "name": "USDT_ADDRESS",
      "outputs": [
        {
          "internalType": "address",
          "name": "",
          "type": "address"
        }
      ],
      "stateMutability": "view",
      "type": "function"
    },
    {
      "inputs": [
        {
          "internalType": "uint256",
          "name": "",
          "type": "uint256"
        }
      ],
      "name": "_idToAuction",
      "outputs": [
        {
          "internalType": "uint256",
          "name": "tokenId",
          "type": "uint256"
        },
        {
          "internalType": "address payable",
          "name": "seller",
          "type": "address"
        },
        {
          "internalType": "uint256",
          "name": "basePrice",
          "type": "uint256"
        },
        {
          "internalType": "uint256",
          "name": "startTime",
          "type": "uint256"
        },
        {
          "internalType": "uint256",
          "name": "endTime",
          "type": "uint256"
        },
        {
          "internalType": "uint256",
          "name": "highestBid",
          "type": "uint256"
        },
        {
          "internalType": "address payable",
          "name": "highestBidder",
          "type": "address"
        },
        {
          "internalType": "enum ArtiziaMarketplace.PaymentMethod",
          "name": "highestBidCurrency",
          "type": "uint8"
        },
        {
          "internalType": "bool",
          "name": "isLive",
          "type": "bool"
        }
      ],
      "stateMutability": "view",
      "type": "function"
    },
    {
      "inputs": [
        {
          "internalType": "uint256",
          "name": "",
          "type": "uint256"
        }
      ],
      "name": "_idToNFT",
      "outputs": [
        {
          "internalType": "address",
          "name": "nftContract",
          "type": "address"
        },
        {
          "internalType": "uint256",
          "name": "tokenId",
          "type": "uint256"
        },
        {
          "internalType": "address payable",
          "name": "firstOwner",
          "type": "address"
        },
        {
          "internalType": "address payable",
          "name": "seller",
          "type": "address"
        },
        {
          "internalType": "address payable",
          "name": "owner",
          "type": "address"
        },
        {
          "internalType": "uint256",
          "name": "price",
          "type": "uint256"
        },
        {
          "internalType": "bool",
          "name": "listed",
          "type": "bool"
        },
        {
          "internalType": "uint256",
          "name": "royaltyPrice",
          "type": "uint256"
        },
        {
          "internalType": "enum ArtiziaMarketplace.ListingType",
          "name": "listingType",
          "type": "uint8"
        },
        {
          "internalType": "enum ArtiziaMarketplace.PaymentMethod",
          "name": "paymentMethod",
          "type": "uint8"
        }
      ],
      "stateMutability": "view",
      "type": "function"
    },
    {
      "inputs": [],
      "name": "_nftCount",
      "outputs": [
        {
          "internalType": "uint256",
          "name": "_value",
          "type": "uint256"
        }
      ],
      "stateMutability": "view",
      "type": "function"
    },
    {
      "inputs": [],
      "name": "_nftsSold",
      "outputs": [
        {
          "internalType": "uint256",
          "name": "_value",
          "type": "uint256"
        }
      ],
      "stateMutability": "view",
      "type": "function"
    },
    {
      "inputs": [
        {
          "internalType": "address[]",
          "name": "fans",
          "type": "address[]"
        }
      ],
      "name": "addFans",
      "outputs": [],
      "stateMutability": "nonpayable",
      "type": "function"
    },
    {
      "inputs": [
        {
          "internalType": "address",
          "name": "_user",
          "type": "address"
        }
      ],
      "name": "banUser",
      "outputs": [],
      "stateMutability": "nonpayable",
      "type": "function"
    },
    {
      "inputs": [
        {
          "internalType": "address",
          "name": "",
          "type": "address"
        }
      ],
      "name": "bannedUsers",
      "outputs": [
        {
          "internalType": "bool",
          "name": "",
          "type": "bool"
        }
      ],
      "stateMutability": "view",
      "type": "function"
    },
    {
      "inputs": [
        {
          "internalType": "uint256",
          "name": "_tokenId",
          "type": "uint256"
        },
        {
          "internalType": "uint256",
          "name": "_bidCurrency",
          "type": "uint256"
        }
      ],
      "name": "bidInETH",
      "outputs": [],
      "stateMutability": "payable",
      "type": "function"
    },
    {
      "inputs": [
        {
          "internalType": "uint256",
          "name": "_tokenId",
          "type": "uint256"
        },
        {
          "internalType": "uint256",
          "name": "_amount",
          "type": "uint256"
        },
        {
          "internalType": "uint256",
          "name": "_bidCurrency",
          "type": "uint256"
        }
      ],
      "name": "bidInUSDT",
      "outputs": [],
      "stateMutability": "payable",
      "type": "function"
    },
    {
      "inputs": [
        {
          "internalType": "address",
          "name": "_nftContract",
          "type": "address"
        },
        {
          "internalType": "uint256",
          "name": "_paymentMethod",
          "type": "uint256"
        },
        {
          "internalType": "uint256",
          "name": "_tokenId",
          "type": "uint256"
        }
      ],
      "name": "buyWithETH",
      "outputs": [],
      "stateMutability": "payable",
      "type": "function"
    },
    {
      "inputs": [
        {
          "internalType": "address",
          "name": "_nftContract",
          "type": "address"
        },
        {
          "internalType": "uint256",
          "name": "_paymentMethod",
          "type": "uint256"
        },
        {
          "internalType": "uint256",
          "name": "_tokenId",
          "type": "uint256"
        },
        {
          "internalType": "uint256",
          "name": "_amount",
          "type": "uint256"
        }
      ],
      "name": "buyWithUSDT",
      "outputs": [],
      "stateMutability": "payable",
      "type": "function"
    },
    {
      "inputs": [],
      "name": "checkBannedOrDeletedUser",
      "outputs": [
        {
          "internalType": "bool",
          "name": "",
          "type": "bool"
        }
      ],
      "stateMutability": "view",
      "type": "function"
    },
    {
      "inputs": [
        {
          "internalType": "address",
          "name": "_nftContract",
          "type": "address"
        },
        {
          "internalType": "uint256",
          "name": "_tokenId",
          "type": "uint256"
        }
      ],
      "name": "closeAuction",
      "outputs": [],
      "stateMutability": "payable",
      "type": "function"
    },
    {
      "inputs": [
        {
          "internalType": "address",
          "name": "_user",
          "type": "address"
        }
      ],
      "name": "deleteUser",
      "outputs": [],
      "stateMutability": "nonpayable",
      "type": "function"
    },
    {
      "inputs": [
        {
          "internalType": "address",
          "name": "",
          "type": "address"
        }
      ],
      "name": "deletedUsers",
      "outputs": [
        {
          "internalType": "bool",
          "name": "",
          "type": "bool"
        }
      ],
      "stateMutability": "view",
      "type": "function"
    },
    {
      "inputs": [
        {
          "internalType": "address",
          "name": "",
          "type": "address"
        },
        {
          "internalType": "uint256",
          "name": "",
          "type": "uint256"
        }
      ],
      "name": "fanLists",
      "outputs": [
        {
          "internalType": "address",
          "name": "",
          "type": "address"
        }
      ],
      "stateMutability": "view",
      "type": "function"
    },
    {
      "inputs": [],
      "name": "getContractBalance",
      "outputs": [
        {
          "internalType": "uint256",
          "name": "",
          "type": "uint256"
        }
      ],
      "stateMutability": "view",
      "type": "function"
    },
    {
      "inputs": [],
      "name": "getFans",
      "outputs": [
        {
          "internalType": "address[]",
          "name": "",
          "type": "address[]"
        }
      ],
      "stateMutability": "view",
      "type": "function"
    },
    {
      "inputs": [
        {
          "internalType": "uint256",
          "name": "_tokenId",
          "type": "uint256"
        }
      ],
      "name": "getHighestBid",
      "outputs": [
        {
          "internalType": "uint256",
          "name": "",
          "type": "uint256"
        }
      ],
      "stateMutability": "view",
      "type": "function"
    },
    {
      "inputs": [],
      "name": "getLatestUSDTPrice",
      "outputs": [
        {
          "internalType": "uint256",
          "name": "",
          "type": "uint256"
        }
      ],
      "stateMutability": "view",
      "type": "function"
    },
    {
      "inputs": [],
      "name": "getListedNfts",
      "outputs": [
        {
          "components": [
            {
              "internalType": "address",
              "name": "nftContract",
              "type": "address"
            },
            {
              "internalType": "uint256",
              "name": "tokenId",
              "type": "uint256"
            },
            {
              "internalType": "address payable",
              "name": "firstOwner",
              "type": "address"
            },
            {
              "internalType": "address payable",
              "name": "seller",
              "type": "address"
            },
            {
              "internalType": "address payable",
              "name": "owner",
              "type": "address"
            },
            {
              "internalType": "uint256",
              "name": "price",
              "type": "uint256"
            },
            {
              "internalType": "bool",
              "name": "listed",
              "type": "bool"
            },
            {
              "internalType": "uint256",
              "name": "royaltyPrice",
              "type": "uint256"
            },
            {
              "internalType": "enum ArtiziaMarketplace.ListingType",
              "name": "listingType",
              "type": "uint8"
            },
            {
              "internalType": "enum ArtiziaMarketplace.PaymentMethod",
              "name": "paymentMethod",
              "type": "uint8"
            }
          ],
          "internalType": "struct ArtiziaMarketplace.NFT[]",
          "name": "",
          "type": "tuple[]"
        }
      ],
      "stateMutability": "view",
      "type": "function"
    },
    {
      "inputs": [
        {
          "internalType": "address",
          "name": "_user",
          "type": "address"
        }
      ],
      "name": "getMyListedNfts",
      "outputs": [
        {
          "components": [
            {
              "internalType": "address",
              "name": "nftContract",
              "type": "address"
            },
            {
              "internalType": "uint256",
              "name": "tokenId",
              "type": "uint256"
            },
            {
              "internalType": "address payable",
              "name": "firstOwner",
              "type": "address"
            },
            {
              "internalType": "address payable",
              "name": "seller",
              "type": "address"
            },
            {
              "internalType": "address payable",
              "name": "owner",
              "type": "address"
            },
            {
              "internalType": "uint256",
              "name": "price",
              "type": "uint256"
            },
            {
              "internalType": "bool",
              "name": "listed",
              "type": "bool"
            },
            {
              "internalType": "uint256",
              "name": "royaltyPrice",
              "type": "uint256"
            },
            {
              "internalType": "enum ArtiziaMarketplace.ListingType",
              "name": "listingType",
              "type": "uint8"
            },
            {
              "internalType": "enum ArtiziaMarketplace.PaymentMethod",
              "name": "paymentMethod",
              "type": "uint8"
            }
          ],
          "internalType": "struct ArtiziaMarketplace.NFT[]",
          "name": "",
          "type": "tuple[]"
        }
      ],
      "stateMutability": "view",
      "type": "function"
    },
    {
      "inputs": [
        {
          "internalType": "address",
          "name": "_user",
          "type": "address"
        }
      ],
      "name": "getMyNfts",
      "outputs": [
        {
          "components": [
            {
              "internalType": "address",
              "name": "nftContract",
              "type": "address"
            },
            {
              "internalType": "uint256",
              "name": "tokenId",
              "type": "uint256"
            },
            {
              "internalType": "address payable",
              "name": "firstOwner",
              "type": "address"
            },
            {
              "internalType": "address payable",
              "name": "seller",
              "type": "address"
            },
            {
              "internalType": "address payable",
              "name": "owner",
              "type": "address"
            },
            {
              "internalType": "uint256",
              "name": "price",
              "type": "uint256"
            },
            {
              "internalType": "bool",
              "name": "listed",
              "type": "bool"
            },
            {
              "internalType": "uint256",
              "name": "royaltyPrice",
              "type": "uint256"
            },
            {
              "internalType": "enum ArtiziaMarketplace.ListingType",
              "name": "listingType",
              "type": "uint8"
            },
            {
              "internalType": "enum ArtiziaMarketplace.PaymentMethod",
              "name": "paymentMethod",
              "type": "uint8"
            }
          ],
          "internalType": "struct ArtiziaMarketplace.NFT[]",
          "name": "",
          "type": "tuple[]"
        }
      ],
      "stateMutability": "view",
      "type": "function"
    },
    {
      "inputs": [
        {
          "internalType": "uint256",
          "name": "_tokenId",
          "type": "uint256"
        }
      ],
      "name": "getStatusOfAuction",
      "outputs": [
        {
          "internalType": "bool",
          "name": "",
          "type": "bool"
        }
      ],
      "stateMutability": "view",
      "type": "function"
    },
    {
      "inputs": [
        {
          "internalType": "address",
          "name": "",
          "type": "address"
        },
        {
          "internalType": "address",
          "name": "",
          "type": "address"
        }
      ],
      "name": "isFan",
      "outputs": [
        {
          "internalType": "bool",
          "name": "",
          "type": "bool"
        }
      ],
      "stateMutability": "view",
      "type": "function"
    },
    {
      "inputs": [
        {
          "internalType": "address",
          "name": "_nftContract",
          "type": "address"
        },
        {
          "internalType": "uint256[]",
          "name": "_tokenId",
          "type": "uint256[]"
        },
        {
          "internalType": "uint256",
          "name": "_price",
          "type": "uint256"
        },
        {
          "internalType": "uint256",
          "name": "_royaltyPrice",
          "type": "uint256"
        },
        {
          "internalType": "uint256",
          "name": "_listingType",
          "type": "uint256"
        },
        {
          "internalType": "uint256",
          "name": "_startTime",
          "type": "uint256"
        },
        {
          "internalType": "uint256",
          "name": "_endTime",
          "type": "uint256"
        },
        {
          "internalType": "uint256",
          "name": "_paymentMethod",
          "type": "uint256"
        }
      ],
      "name": "listNft",
      "outputs": [],
      "stateMutability": "payable",
      "type": "function"
    },
    {
      "inputs": [],
      "name": "owner",
      "outputs": [
        {
          "internalType": "address",
          "name": "",
          "type": "address"
        }
      ],
      "stateMutability": "view",
      "type": "function"
    },
    {
      "inputs": [],
      "name": "removeAllFans",
      "outputs": [],
      "stateMutability": "nonpayable",
      "type": "function"
    },
    {
      "inputs": [
        {
          "internalType": "address",
          "name": "fan",
          "type": "address"
        }
      ],
      "name": "removeFan",
      "outputs": [],
      "stateMutability": "nonpayable",
      "type": "function"
    },
    {
      "inputs": [],
      "name": "renounceOwnership",
      "outputs": [],
      "stateMutability": "nonpayable",
      "type": "function"
    },
    {
      "inputs": [
        {
          "internalType": "address",
          "name": "_nftContract",
          "type": "address"
        },
        {
          "internalType": "uint256",
          "name": "_tokenId",
          "type": "uint256"
        },
        {
          "internalType": "uint256",
          "name": "_price",
          "type": "uint256"
        },
        {
          "internalType": "uint256",
          "name": "_listingType",
          "type": "uint256"
        },
        {
          "internalType": "uint256",
          "name": "_startTime",
          "type": "uint256"
        },
        {
          "internalType": "uint256",
          "name": "_endTime",
          "type": "uint256"
        },
        {
          "internalType": "uint256",
          "name": "_paymentMethod",
          "type": "uint256"
        }
      ],
      "name": "resellNft",
      "outputs": [],
      "stateMutability": "nonpayable",
      "type": "function"
    },
    {
      "inputs": [
        {
          "internalType": "uint256",
          "name": "usdtAmountOut",
          "type": "uint256"
        }
      ],
      "name": "swapETHForUSDT",
      "outputs": [],
      "stateMutability": "payable",
      "type": "function"
    },
    {
      "inputs": [
        {
          "internalType": "uint256",
          "name": "usdtAmountIn",
          "type": "uint256"
        }
      ],
      "name": "swapUSDTForETH",
      "outputs": [],
      "stateMutability": "nonpayable",
      "type": "function"
    },
    {
      "inputs": [
        {
          "internalType": "address",
          "name": "newOwner",
          "type": "address"
        }
      ],
      "name": "transferOwnership",
      "outputs": [],
      "stateMutability": "nonpayable",
      "type": "function"
    },
    {
      "inputs": [
        {
          "internalType": "address",
          "name": "_user",
          "type": "address"
        }
      ],
      "name": "unbanUser",
      "outputs": [],
      "stateMutability": "nonpayable",
      "type": "function"
    },
    {
      "stateMutability": "payable",
      "type": "receive"
    }
  ],
  "bytecode": "0x6080604052600b80546001600160a01b0319908116737a250d5630b4cf539739df2c5dacb4c659f2488d17909155600c805490911673dac17f958d2ee523a2206206994597c13d831ec71790553480156200005957600080fd5b5060405162004fa038038062004fa08339810160408190526200007c9162000120565b60016000556200008c33620000ce565b60048054336001600160a01b031991821617909155600b54600d80546001600160a01b03928316908416179055600e8054909216921691909117905562000152565b600180546001600160a01b038381166001600160a01b0319831681179093556040519116919082907f8be0079c531659141344cd1fd0a4f28419497f9722a3daafe3b4186f6b6457e090600090a35050565b6000602082840312156200013357600080fd5b81516001600160a01b03811681146200014b57600080fd5b9392505050565b614e3e80620001626000396000f3fe6080604052600436106102065760003560e01c80638988d07811610117578063b4fa0412116100a5578063d6cbb2021161006c578063d6cbb202146106dd578063ed5a1c0f146106f4578063f2fde38b1461072f578063f41dfb181461074f578063f6c1b77a1461076257005b8063b4fa04121461055d578063b8b3455d146105ee578063b9e07df114610601578063bbffa07b1461069d578063c1892058146106bd57005b80638da5cb5b116100e95780638da5cb5b146104c75780638f288644146104e557806398dd36bf146105155780639c7440581461052a578063b48deb601461054a57005b80638988d0781461044257806389ec8e1c146104725780638cd410f4146104925780638d6cb3fb146104b257005b80635674c2e611610194578063715018a611610166578063715018a61461039257806377ec6a47146103a757806379b36943146103d75780638090551e1461040f5780638110c5791461042257005b80635674c2e614610327578063572e2afe1461034c5780635c60f2261461035f5780636f9fb98a1461037f57005b80633b295cb0116101d85780633b295cb01461029f578063438364a1146102b45780634c070fe7146102c75780634d12b695146102da5780635274cff6146102fa57005b80630760943e1461020f57806310d86b1f1461023a57806331824a491461025a57806331a7a70f1461027f57005b3661020d57005b005b34801561021b57600080fd5b50610224610782565b604051610231919061431c565b60405180910390f35b34801561024657600080fd5b5061020d610255366004614344565b610827565b34801561026657600080fd5b506002546102719081565b604051908152602001610231565b34801561028b57600080fd5b5061020d61029a3660046143cc565b610853565b3480156102ab57600080fd5b5061020d6109ee565b61020d6102c236600461446b565b610a8f565b61020d6102d5366004614497565b6111f3565b3480156102e657600080fd5b5061020d6102f5366004614344565b61180d565b34801561030657600080fd5b5061031a610315366004614344565b611836565b604051610231919061450c565b34801561033357600080fd5b5061033c611af2565b6040519015158152602001610231565b61020d61035a3660046145d9565b611b30565b34801561036b57600080fd5b5061020d61037a366004614344565b612057565b34801561038b57600080fd5b5047610271565b34801561039e57600080fd5b5061020d612083565b3480156103b357600080fd5b5061033c6103c2366004614344565b600a6020526000908152604090205460ff1681565b3480156103e357600080fd5b50600b546103f7906001600160a01b031681565b6040516001600160a01b039091168152602001610231565b61020d61041d36600461460e565b612097565b34801561042e57600080fd5b5061020d61043d366004614627565b6122e4565b34801561044e57600080fd5b5061033c61045d366004614344565b60096020526000908152604090205460ff1681565b34801561047e57600080fd5b5061020d61048d366004614344565b612667565b34801561049e57600080fd5b5061020d6104ad36600461460e565b612865565b3480156104be57600080fd5b5061031a612c2b565b3480156104d357600080fd5b506001546001600160a01b03166103f7565b3480156104f157600080fd5b5061027161050036600461460e565b60009081526006602052604090206005015490565b34801561052157600080fd5b50610271612ebc565b34801561053657600080fd5b5061033c61054536600461460e565b612f9a565b61020d61055836600461467c565b612fdf565b34801561056957600080fd5b506105d961057836600461460e565b6006602081905260009182526040909120805460018201546002830154600384015460048501546005860154959096015493956001600160a01b0393841695929491939092919081169060ff600160a01b8204811691600160a81b90041689565b60405161023199989796959493929190614755565b61020d6105fc3660046147b4565b6136a9565b34801561060d57600080fd5b5061068761061c36600461460e565b60056020819052600091825260409091208054600182015460028301546003840154600485015495850154600686015460078701546008909701546001600160a01b03968716989597948716969384169590931693919260ff9182169291818116916101009004168a565b6040516102319a999897969594939291906147e0565b3480156106a957600080fd5b506103f76106b836600461446b565b613a0b565b3480156106c957600080fd5b50600c546103f7906001600160a01b031681565b3480156106e957600080fd5b506003546102719081565b34801561070057600080fd5b5061033c61070f366004614851565b600760209081526000928352604080842090915290825290205460ff1681565b34801561073b57600080fd5b5061020d61074a366004614344565b613a43565b61020d61075d36600461488a565b613ab9565b34801561076e57600080fd5b5061031a61077d366004614344565b613dcf565b336000908152600a602052604090205460609060ff16156107be5760405162461bcd60e51b81526004016107b5906148ac565b60405180910390fd5b336000908152600860209081526040918290208054835181840281018401909452808452909183018282801561081d57602002820191906000526020600020905b81546001600160a01b031681526001909101906020018083116107ff575b5050505050905090565b61082f614014565b6001600160a01b03166000908152600960205260409020805460ff19166001179055565b336000908152600a602052604090205460ff16156108835760405162461bcd60e51b81526004016107b5906148ac565b60005b81518110156109ea5760008282815181106108a3576108a361491c565b6020026020010151905060006001600160a01b0316816001600160a01b031614156109065760405162461bcd60e51b8152602060048201526013602482015272496e76616c69642066616e206164647265737360681b60448201526064016107b5565b3360009081526007602090815260408083206001600160a01b038516845290915290205460ff161561097a5760405162461bcd60e51b815260206004820152601860248201527f4164647265737320697320616c726561647920612066616e000000000000000060448201526064016107b5565b3360008181526008602090815260408083208054600180820183559185528385200180546001600160a01b0319166001600160a01b039790971696871790559383526007825280832094835293905291909120805460ff19169091179055806109e281614948565b915050610886565b5050565b336000908152600860205260408120905b8154811015610a735733600090815260076020526040812083548290859085908110610a2d57610a2d61491c565b6000918252602080832091909101546001600160a01b031683528201929092526040019020805460ff191691151591909117905580610a6b81614948565b9150506109ff565b50336000908152600860205260408120610a8c9161424e565b50565b6000818152600660205260409020600401544211610aeb5760405162461bcd60e51b8152602060048201526019602482015278105d58dd1a5bdb881a185cc81b9bdd08195b991959081e595d603a1b60448201526064016107b5565b600081815260066020819052604090912001546001600160a01b0316610b4f5760405162461bcd60e51b8152602060048201526019602482015278105d58dd1a5bdb881a185cc81b9bdd08195b991959081e595d603a1b60448201526064016107b5565b60008181526005602090815260408083206006928390529220908101546001600160a01b0316610cbd57600181810154908301546040516323b872dd60e01b81526001600160a01b03878116936323b872dd93610bb493309390921691600401614963565b600060405180830381600087803b158015610bce57600080fd5b505af1158015610be2573d6000803e3d6000fd5b50505060038301546004840180546001600160a01b0319166001600160a01b039283161790556006808401805460ff60a81b19169055808501805460ff19169055600086815260208290526040902001541615159050610cbd5760405162461bcd60e51b815260206004820152604a60248201527f4e6f7468696e6720746f20636c61696d2e20596f75206861766520676f74203060448201527f2062696473206f6e20796f75722061756374696f6e2e2052657475726e696e67606482015269103cb7bab91027232a1760b11b608482015260a4016107b5565b6006808201805460ff60a81b19168155908301805460ff19169055600582015490546004840180546001600160a01b0319166001600160a01b0390921691909117905560009081908190816008870154610100900460ff166002811115610d2657610d266144d2565b1415610e935760016006860154600160a01b900460ff166002811115610d4e57610d4e6144d2565b1415610d75576000610d5e612ebc565b610d689083614987565b9050610d7381612865565b505b600286015460048701546001600160a01b0390811691161415610de857610d9b8161406e565b610da590826149a9565b60038701546040519193506001600160a01b03169083156108fc029084906000818181858888f19350505050158015610de2573d6000803e3d6000fd5b50611113565b610dfa85600501548760070154614087565b9350610e058161406e565b610e0f85836149a9565b610e1991906149a9565b60028701546040519193506001600160a01b03169085156108fc029086906000818181858888f19350505050158015610e56573d6000803e3d6000fd5b5060038601546040516001600160a01b039091169083156108fc029084906000818181858888f19350505050158015610de2573d6000803e3d6000fd5b60016008870154610100900460ff166002811115610eb357610eb36144d2565b14156111135760006006860154600160a01b900460ff166002811115610edb57610edb6144d2565b1415610f03576000610eeb612ebc565b610ef59083614987565b9050610f0082612097565b90505b600286015460048701546001600160a01b039081169116141561100a57600e546040516323b872dd60e01b81526001600160a01b03909116906323b872dd90610f5490339030908690600401614963565b600060405180830381600087803b158015610f6e57600080fd5b505af1158015610f82573d6000803e3d6000fd5b50505050610f8f8161406e565b610f9990826149a9565b600e54600388015460405163a9059cbb60e01b81529294506001600160a01b039182169263a9059cbb92610fd392169086906004016149c0565b600060405180830381600087803b158015610fed57600080fd5b505af1158015611001573d6000803e3d6000fd5b50505050611113565b61101c85600501548760070154614087565b93506110278161406e565b61103185836149a9565b61103b91906149a9565b600e54600388015460405163a9059cbb60e01b81529294506001600160a01b039182169263a9059cbb9261107592169086906004016149c0565b600060405180830381600087803b15801561108f57600080fd5b505af11580156110a3573d6000803e3d6000fd5b5050600e54600289015460405163a9059cbb60e01b81526001600160a01b03928316945063a9059cbb93506110e0929091169088906004016149c0565b600060405180830381600087803b1580156110fa57600080fd5b505af115801561110e573d6000803e3d6000fd5b505050505b600685015460018701546040516323b872dd60e01b81526001600160a01b038b8116936323b872dd9361114e93309390921691600401614963565b600060405180830381600087803b15801561116857600080fd5b505af115801561117c573d6000803e3d6000fd5b5050505061118e600280546001019055565b6001860154600387015460068701546040517f16f1dbd97e6bf646d429ed186cce832f1f7fd9907814293b83181e9970ab7bd2936111e1938d9391926001600160a01b03918216929091169089906149d9565b60405180910390a15050505050505050565b3360009081526009602052604090205460ff16156112235760405162461bcd60e51b81526004016107b590614a0c565b336000908152600a602052604090205460ff16156112535760405162461bcd60e51b81526004016107b5906148ac565b61125b6140a6565b600082815260056020526040812090611272612ebc565b61127c9084614987565b60048301546001600160a01b031660009081526009602052604090205490915060ff16156112bc5760405162461bcd60e51b81526004016107b590614a41565b60048201546001600160a01b03166000908152600a602052604090205460ff16156112f95760405162461bcd60e51b81526004016107b590614a97565b808260050154101561133a5760405162461bcd60e51b815260206004820152600a60248201526953656e64206d6f72652160b01b60448201526064016107b5565b6000600883015460ff166001811115611355576113556144d2565b146113a25760405162461bcd60e51b815260206004820152601a60248201527f54686973204e4654206973206e6f742061742061756374696f6e00000000000060448201526064016107b5565b600282015460048301546000913391839182916001600160a01b039081169116141561152457600e546040516323b872dd60e01b81526001600160a01b03909116906323b872dd906113fc90339030908c90600401614963565b600060405180830381600087803b15801561141657600080fd5b505af115801561142a573d6000803e3d6000fd5b505050506114378761406e565b61144190886149a9565b905088600114156114bf57600e54600387015460405163a9059cbb60e01b81526001600160a01b039283169263a9059cbb926114849291169085906004016149c0565b600060405180830381600087803b15801561149e57600080fd5b505af11580156114b2573d6000803e3d6000fd5b5050505060019350611706565b6114c881612865565b60006114d2612ebc565b6114dc9083614987565b60038801546040519192506001600160a01b03169082156108fc029083906000818181858888f19350505050158015611519573d6000803e3d6000fd5b506001945050611706565b6000611534888860070154614087565b905061154081896149a9565b925061154b8361406e565b61155590896149a9565b600e546040516323b872dd60e01b81529193506001600160a01b0316906323b872dd9061158a90339030908d90600401614963565b600060405180830381600087803b1580156115a457600080fd5b505af11580156115b8573d6000803e3d6000fd5b5050600e5460028a015460405163a9059cbb60e01b81526001600160a01b03928316945063a9059cbb93506115f5929091169085906004016149c0565b600060405180830381600087803b15801561160f57600080fd5b505af1158015611623573d6000803e3d6000fd5b5050505089600114156116a357600e54600388015460405163a9059cbb60e01b81526001600160a01b039283169263a9059cbb926116689291169086906004016149c0565b600060405180830381600087803b15801561168257600080fd5b505af1158015611696573d6000803e3d6000fd5b5050505060019450611704565b6116ac82612865565b60006116b6612ebc565b6116c09084614987565b60038901546040519192506001600160a01b03169082156108fc029083906000818181858888f193505050501580156116fd573d6000803e3d6000fd5b5060019550505b505b83156117f75760018601546040516323b872dd60e01b81526001600160a01b038c16916323b872dd91611740913091889190600401614963565b600060405180830381600087803b15801561175a57600080fd5b505af115801561176e573d6000803e3d6000fd5b505050506004860180546001600160a01b0319166001600160a01b03851617905560068601805460ff19169055600280546001019055600186015460038701546040517f16f1dbd97e6bf646d429ed186cce832f1f7fd9907814293b83181e9970ab7bd2926117ee928e926001600160a01b0390911690889088906149d9565b60405180910390a15b5050505050506118076001600055565b50505050565b611815614014565b6001600160a01b03166000908152600960205260409020805460ff19169055565b336000908152600a602052604090205460609060ff16156118695760405162461bcd60e51b81526004016107b5906148ac565b3360009081526009602052604090205460ff16156118995760405162461bcd60e51b81526004016107b590614a0c565b60006118a460035490565b90506000805b82811015611914576000818152600560205260409020600301546001600160a01b0386811691161480156118ef575060008181526005602052604090206006015460ff165b1561190257816118fe81614948565b9250505b8061190c81614948565b9150506118aa565b5060008167ffffffffffffffff81111561193057611930614361565b60405190808252806020026020018201604052801561196957816020015b61195661426c565b81526020019060019003908161194e5790505b5090506000805b84811015611ae5576000818152600560205260409020600301546001600160a01b0388811691161480156119b5575060008181526005602052604090206006015460ff165b15611ad35760008181526005602081815260409283902083516101408101855281546001600160a01b039081168252600180840154948301949094526002830154811695820195909552600382015485166060820152600482015490941660808501529182015460a0840152600682015460ff908116151560c0850152600783015460e08501526008830154610100850192911690811115611a5957611a596144d2565b6001811115611a6a57611a6a6144d2565b81526020016008820160019054906101000a900460ff166002811115611a9257611a926144d2565b6002811115611aa357611aa36144d2565b81525050838381518110611ab957611ab961491c565b60200260200101819052508180611acf90614948565b9250505b80611add81614948565b915050611970565b509093505050505b919050565b3360009081526009602052604081205460ff1680611b1f5750336000908152600a602052604090205460ff165b15611b2a5750600190565b50600090565b3360009081526009602052604090205460ff1615611b605760405162461bcd60e51b81526004016107b590614a0c565b336000908152600a602052604090205460ff1615611b905760405162461bcd60e51b81526004016107b5906148ac565b611b986140a6565b600081815260056020908152604080832060048101546001600160a01b0316845260099092529091205460ff1615611be25760405162461bcd60e51b81526004016107b590614a41565b60048101546001600160a01b03166000908152600a602052604090205460ff1615611c1f5760405162461bcd60e51b81526004016107b590614a97565b8060050154341015611c825760405162461bcd60e51b815260206004820152602660248201527f4e6f7420656e6f75676820657468657220746f20636f7665722061736b696e6760448201526520707269636560d01b60648201526084016107b5565b6000600882015460ff166001811115611c9d57611c9d6144d2565b14611cea5760405162461bcd60e51b815260206004820152601a60248201527f54686973204e4654206973206e6f742061742061756374696f6e00000000000060448201526064016107b5565b600281015460048201546000913391839182916001600160a01b0390811691161415611e0357611d193461406e565b611d2390346149a9565b905086611d705760038501546040516001600160a01b039091169082156108fc029083906000818181858888f19350505050158015611d66573d6000803e3d6000fd5b5060019350611f52565b611d7981612097565b6000611d83612ebc565b611d8d9083614af4565b600e54600388015460405163a9059cbb60e01b81529293506001600160a01b039182169263a9059cbb92611dc792169085906004016149c0565b600060405180830381600087803b158015611de157600080fd5b505af1158015611df5573d6000803e3d6000fd5b505050506001945050611f52565b60003490506000611e18828860070154614087565b9050611e238261406e565b611e2d82846149a9565b611e3791906149a9565b60028801546040519194506001600160a01b03169082156108fc029083906000818181858888f19350505050158015611e74573d6000803e3d6000fd5b5088611ec05760038701546040516001600160a01b039091169084156108fc029085906000818181858888f19350505050158015611eb6573d6000803e3d6000fd5b5060019550611f4f565b611ec983612097565b6000611ed3612ebc565b611edd9085614af4565b600e5460038a015460405163a9059cbb60e01b81529293506001600160a01b039182169263a9059cbb92611f1792169085906004016149c0565b600060405180830381600087803b158015611f3157600080fd5b505af1158015611f45573d6000803e3d6000fd5b5050505060019650505b50505b83156120435760018501546040516323b872dd60e01b81526001600160a01b038a16916323b872dd91611f8c913091889190600401614963565b600060405180830381600087803b158015611fa657600080fd5b505af1158015611fba573d6000803e3d6000fd5b505050506004850180546001600160a01b0319166001600160a01b03851617905560068501805460ff19169055600280546001019055600185015460038601546040517f16f1dbd97e6bf646d429ed186cce832f1f7fd9907814293b83181e9970ab7bd29261203a928c926001600160a01b0390911690889088906149d9565b60405180910390a15b50505050506120526001600055565b505050565b61205f614014565b6001600160a01b03166000908152600a60205260409020805460ff19166001179055565b61208b614014565b6120956000614100565b565b6040805160028082526060820183526000926020830190803683375050600d54604080516315ab88c960e31b815290519394506001600160a01b039091169263ad5c464892506004808301926020929190829003018186803b1580156120fc57600080fd5b505afa158015612110573d6000803e3d6000fd5b505050506040513d601f19601f820116820180604052508101906121349190614b13565b816000815181106121475761214761491c565b6001600160a01b039283166020918202929092010152600c548251911690829060019081106121785761217861491c565b6001600160a01b039290921660209283029190910182015260408051600280825260608201835260009391929091830190803683375050600d5460405163d06ca61f60e01b81529293506001600160a01b03169163d06ca61f91506121e39086908690600401614b30565b60006040518083038186803b1580156121fb57600080fd5b505afa15801561220f573d6000803e3d6000fd5b505050506040513d6000823e601f3d908101601f191682016040526122379190810190614b51565b600d5481519192506001600160a01b031690637ff36ab5903490849060019081106122645761226461491c565b60200260200101518530426040518663ffffffff1660e01b815260040161228e9493929190614bd7565b6000604051808303818588803b1580156122a757600080fd5b505af11580156122bb573d6000803e3d6000fd5b50505050506040513d6000823e601f3d908101601f191682016040526118079190810190614b51565b3360009081526009602052604090205460ff16156123145760405162461bcd60e51b81526004016107b590614a0c565b336000908152600a602052604090205460ff16156123445760405162461bcd60e51b81526004016107b5906148ac565b61234c6140a6565b6000851161239c5760405162461bcd60e51b815260206004820152601c60248201527f5072696365206d757374206265206174206c656173742031207765690000000060448201526064016107b5565b6040516323b872dd60e01b81526001600160a01b038816906323b872dd906123cc90339030908b90600401614963565b600060405180830381600087803b1580156123e657600080fd5b505af11580156123fa573d6000803e3d6000fd5b50505060008781526005602081905260409091206003810180546001600160a01b031990811633179091556004820180549091163017905590810187905560068101805460ff19166001908117909155909150859081111561245e5761245e6144d2565b60088201805460ff19166001838181111561247b5761247b6144d2565b0217905550816002811115612492576124926144d2565b60088201805461ff0019166101008360028111156124b2576124b26144d2565b0217905550600185141561260a57604051806101200160405280888152602001336001600160a01b031681526020018781526020018581526020018481526020016000815260200160006001600160a01b0316815260200183600281111561251c5761251c6144d2565b600281111561252d5761252d6144d2565b815260006020918201819052898152600680835260409182902084518155928401516001840180546001600160a01b039283166001600160a01b03199182161790915592850151600280860191909155606086015160038601556080860151600486015560a0860151600586015560c08601519285018054939092169383168417825560e08601519391926001600160a81b03191690911790600160a01b9084908111156125dd576125dd6144d2565b0217905550610100919091015160069091018054911515600160a81b0260ff60a81b199092169190911790555b6126146002614152565b7fa0c6c0d02d86fdacecbaa5fdf5894bab204e31a778250474108540733a9b8d19888833308a60405161264b9594939291906149d9565b60405180910390a15061265e6001600055565b50505050505050565b6001600160a01b0381166126b35760405162461bcd60e51b8152602060048201526013602482015272496e76616c69642066616e206164647265737360681b60448201526064016107b5565b3360009081526007602090815260408083206001600160a01b038516845290915290205460ff1661271d5760405162461bcd60e51b815260206004820152601460248201527320b2323932b9b99034b9903737ba1030903330b760611b60448201526064016107b5565b336000908152600860205260408120905b815481101561283557826001600160a01b03168282815481106127535761275361491c565b6000918252602090912001546001600160a01b03161415612823578154829061277e906001906149a9565b8154811061278e5761278e61491c565b9060005260206000200160009054906101000a90046001600160a01b03168282815481106127be576127be61491c565b9060005260206000200160006101000a8154816001600160a01b0302191690836001600160a01b03160217905550818054806127fc576127fc614c0c565b600082815260209020810160001990810180546001600160a01b0319169055019055612835565b8061282d81614948565b91505061272e565b50503360009081526007602090815260408083206001600160a01b0394909416835292905220805460ff19169055565b61288d60405180604001604052806006815260200165746573743d3160d01b815250826141a9565b6040805160028082526060820183526000926020830190803683375050600c5482519293506001600160a01b0316918391506000906128ce576128ce61491c565b6001600160a01b03928316602091820292909201810191909152600d54604080516315ab88c960e31b81529051919093169263ad5c4648926004808301939192829003018186803b15801561292257600080fd5b505afa158015612936573d6000803e3d6000fd5b505050506040513d601f19601f8201168201806040525081019061295a9190614b13565b8160018151811061296d5761296d61491c565b6001600160a01b039283166020918202929092010152600e546040516323b872dd60e01b81529116906323b872dd906129ae90339030908790600401614963565b600060405180830381600087803b1580156129c857600080fd5b505af11580156129dc573d6000803e3d6000fd5b5050600e54600b5460405163095ea7b360e01b81526001600160a01b03928316945063095ea7b39350612a17929091169086906004016149c0565b600060405180830381600087803b158015612a3157600080fd5b505af1158015612a45573d6000803e3d6000fd5b50505050612a6f60405180604001604052806005815260200164746573743360d81b8152506141ee565b6040805160028082526060820183526000926020830190803683375050600d5460405163d06ca61f60e01b81529293506001600160a01b03169163d06ca61f9150612ac09086908690600401614b30565b60006040518083038186803b158015612ad857600080fd5b505afa158015612aec573d6000803e3d6000fd5b505050506040513d6000823e601f3d908101601f19168201604052612b149190810190614b51565b9050612b5860405180604001604052806006815260200165185b5bdd5b9d60d21b81525082600181518110612b4b57612b4b61491c565b60200260200101516141a9565b600d5481516001600160a01b0390911690634a25d94a9083906001908110612b8257612b8261491c565b6020026020010151858530426040518663ffffffff1660e01b8152600401612bae959493929190614c22565b600060405180830381600087803b158015612bc857600080fd5b505af1158015612bdc573d6000803e3d6000fd5b505050506040513d6000823e601f3d908101601f19168201604052612c049190810190614b51565b50612052604051806040016040528060058152602001641d195cdd0d60da1b8152506141ee565b336000908152600a602052604090205460609060ff1615612c5e5760405162461bcd60e51b81526004016107b5906148ac565b6000612c6960035490565b90506000612c7660025490565b612c8090836149a9565b9050612cac604051806040016040528060088152602001671b999d10dbdd5b9d60c21b815250836141a9565b612cdd6040518060400160405280600f81526020016e1d5b9cdbdb1913999d1cd0dbdd5b9d608a1b815250826141a9565b60008167ffffffffffffffff811115612cf857612cf8614361565b604051908082528060200260200182016040528015612d3157816020015b612d1e61426c565b815260200190600190039081612d165790505b5090506000612d626040518060400160405280600b81526020016a5f6964546f4e46545b695d60a81b8152506141ee565b60005b84811015612eb25760008181526005602052604090206006015460ff1615612ea05760008181526005602081815260409283902083516101408101855281546001600160a01b039081168252600180840154948301949094526002830154811695820195909552600382015485166060820152600482015490941660808501529182015460a0840152600682015460ff908116151560c0850152600783015460e08501526008830154610100850192911690811115612e2657612e266144d2565b6001811115612e3757612e376144d2565b81526020016008820160019054906101000a900460ff166002811115612e5f57612e5f6144d2565b6002811115612e7057612e706144d2565b81525050838381518110612e8657612e8661491c565b60200260200101819052508180612e9c90614948565b9250505b80612eaa81614948565b915050612d65565b5090935050505090565b60008073ee9f2375b4bdf6387aa8265dd4fb8f16512a1d4690506000816001600160a01b031663feaf968c6040518163ffffffff1660e01b815260040160a06040518083038186803b158015612f1157600080fd5b505afa158015612f25573d6000803e3d6000fd5b505050506040513d601f19601f82011682018060405250810190612f499190614c78565b50505091505060008113612f945760405162461bcd60e51b8152602060048201526012602482015271496e76616c6964205553445420707269636560701b60448201526064016107b5565b92915050565b60008181526006602052604081206003015442118015612fca575060008281526006602052604090206004015442105b15612fd757506001919050565b506000919050565b612fe76140a6565b3360009081526009602052604090205460ff16156130175760405162461bcd60e51b81526004016107b590614a0c565b336000908152600a602052604090205460ff16156130475760405162461bcd60e51b81526004016107b5906148ac565b60005b87518110156136945761308a6040518060400160405280600981526020016874686973206973203160b81b815250898381518110612b4b57612b4b61491c565b6130b86040518060400160405280600c81526020016b5f6c697374696e675479706560a01b815250866141a9565b60408051808201909152601c81527f75696e74323536284c697374696e67547970652e41756374696f6e290000000060208201526130f79060016141a9565b6001851115613119576040516317142a4d60e01b815260040160405180910390fd5b6131526040518060400160405280600b81526020016a5f746f6b656e49645b695d60a81b815250898381518110612b4b57612b4b61491c565b886001600160a01b03166323b872dd33308b85815181106131755761317561491c565b60200260200101516040518463ffffffff1660e01b815260040161319b93929190614963565b600060405180830381600087803b1580156131b557600080fd5b505af11580156131c9573d6000803e3d6000fd5b505050506131f7604051806040016040528060098152602001683a3434b99034b9901960b91b8152506141ee565b613205600380546001019055565b61322f604051806040016040528060098152602001681d1a1a5cc81a5cc80d60ba1b8152506141ee565b6040518061014001604052808a6001600160a01b0316815260200189838151811061325c5761325c61491c565b60200260200101518152602001336001600160a01b03168152602001336001600160a01b03168152602001306001600160a01b031681526020018881526020016001151581526020018781526020018660018111156132bd576132bd6144d2565b60018111156132ce576132ce6144d2565b81526020018360028111156132e5576132e56144d2565b60028111156132f6576132f66144d2565b815250600560008a848151811061330f5761330f61491c565b6020908102919091018101518252818101929092526040908101600020835181546001600160a01b03199081166001600160a01b039283161783559385015160018084019190915592850151600283018054861691831691909117905560608501516003830180548616918316919091179055608085015160048301805490951691161790925560a0830151600583015560c083015160068301805460ff1990811692151592909217905560e0840151600784015561010084015160088401805491939092919091169083818111156133ea576133ea6144d2565b021790555061012082015160088201805461ff001916610100836002811115613415576134156144d2565b02179055509050506134476040518060400160405280600981526020016874686973206973203560b81b8152506141ee565b60018514156136005761347a604051806040016040528060098152602001683a3434b99034b9901b60b91b8152506141ee565b6040518061012001604052808983815181106134985761349861491c565b60200260200101518152602001336001600160a01b031681526020018881526020018581526020018481526020016000815260200160006001600160a01b031681526020018360028111156134ef576134ef6144d2565b6002811115613500576135006144d2565b815260200160001515815250600660008a84815181106135225761352261491c565b602090810291909101810151825281810192909252604090810160002083518155918301516001830180546001600160a01b03199081166001600160a01b039384161790915591840151600280850191909155606085015160038501556080850151600485015560a0850151600585015560c085015160068501805494851691909316908117835560e0860151936001600160a81b0319161790600160a01b9084908111156135d3576135d36144d2565b0217905550610100919091015160069091018054911515600160a81b0260ff60a81b199092169190911790555b61362a6040518060400160405280600981526020016874686973206973203760b81b8152506141ee565b7fa0c6c0d02d86fdacecbaa5fdf5894bab204e31a778250474108540733a9b8d198989838151811061365e5761365e61491c565b602002602001015133308b60405161367a9594939291906149d9565b60405180910390a18061368c81614948565b91505061304a565b5061369f6001600055565b5050505050505050565b600083815260066020819052604090912001548390600160a81b900460ff166136e45760405162461bcd60e51b81526004016107b590614cc8565b60008181526006602052604090206003015442118015613714575060008181526006602052604090206004015442105b6137305760405162461bcd60e51b81526004016107b590614cc8565b336000908152600a602052604090205460ff16156137605760405162461bcd60e51b81526004016107b5906148ac565b3360009081526009602052604090205460ff16156137905760405162461bcd60e51b81526004016107b590614a0c565b600061379a612ebc565b905060006137a88286614987565b60008781526006602052604090206002015490915081101561380c5760405162461bcd60e51b815260206004820152601c60248201527f4d696e696d756d206269642068617320746f206265206869676865720000000060448201526064016107b5565b60008681526006602052604090206005015485101561383d5760405162461bcd60e51b81526004016107b590614d11565b600160008781526005602052604090206008015460ff166001811115613865576138656144d2565b146138ae5760405162461bcd60e51b81526020600482015260196024820152782a3434b99027232a1034b99030ba1030ba1030bab1ba34b7b760391b60448201526064016107b5565b60008681526006602081905260409091209081015460058201546001600160a01b0390911690811561393f57600e5460405163a9059cbb60e01b81526001600160a01b039091169063a9059cbb9061390c90859085906004016149c0565b600060405180830381600087803b15801561392657600080fd5b505af115801561393a573d6000803e3d6000fd5b505050505b600583018490556006830180546001600160a01b0319163317905586600281111561396c5761396c6144d2565b60068401805460ff60a01b1916600160a01b836002811115613990576139906144d2565b02179055506139a142610258614d6e565b83600401541015613a005761012c8360040160008282546139c29190614d6e565b909155505060048301546040519081527f63929ab50521717a96992aeaa109afc8cfc926d99096bbeaf23ee4322db546e89060200160405180910390a15b505050505050505050565b60086020528160005260406000208181548110613a2757600080fd5b6000918252602090912001546001600160a01b03169150829050565b613a4b614014565b6001600160a01b038116613ab05760405162461bcd60e51b815260206004820152602660248201527f4f776e61626c653a206e6577206f776e657220697320746865207a65726f206160448201526564647265737360d01b60648201526084016107b5565b610a8c81614100565b600082815260066020819052604090912001548290600160a81b900460ff16613af45760405162461bcd60e51b81526004016107b590614cc8565b60008181526006602052604090206003015442118015613b24575060008181526006602052604090206004015442105b613b405760405162461bcd60e51b81526004016107b590614cc8565b336000908152600a602052604090205460ff1615613b705760405162461bcd60e51b81526004016107b5906148ac565b3360009081526009602052604090205460ff1615613ba05760405162461bcd60e51b81526004016107b590614a0c565b600083815260066020526040902060020154341015613c015760405162461bcd60e51b815260206004820152601c60248201527f4d696e696d756d206269642068617320746f206265206869676865720000000060448201526064016107b5565b600083815260066020526040902060050154341015613c325760405162461bcd60e51b81526004016107b590614d11565b600160008481526005602052604090206008015460ff166001811115613c5a57613c5a6144d2565b14613ca35760405162461bcd60e51b81526020600482015260196024820152782a3434b99027232a1034b99030ba1030ba1030bab1ba34b7b760391b60448201526064016107b5565b60008381526006602081905260409091209081015460058201546001600160a01b03909116908115613d07576040516001600160a01b0383169082156108fc029083906000818181858888f19350505050158015613d05573d6000803e3d6000fd5b505b3460058401556006830180546001600160a01b03191633179055846002811115613d3357613d336144d2565b60068401805460ff60a01b1916600160a01b836002811115613d5757613d576144d2565b0217905550613d6842610258614d6e565b83600401541015613dc75761012c836004016000828254613d899190614d6e565b909155505060048301546040519081527f63929ab50521717a96992aeaa109afc8cfc926d99096bbeaf23ee4322db546e89060200160405180910390a15b505050505050565b336000908152600a602052604090205460609060ff1615613e025760405162461bcd60e51b81526004016107b5906148ac565b6000613e0d60035490565b90506000805b82811015613e60576000818152600560205260409020600401546001600160a01b0386811691161415613e4e5781613e4a81614948565b9250505b80613e5881614948565b915050613e13565b5060008167ffffffffffffffff811115613e7c57613e7c614361565b604051908082528060200260200182016040528015613eb557816020015b613ea261426c565b815260200190600190039081613e9a5790505b5090506000805b84811015611ae5576000818152600560205260409020600401546001600160a01b03888116911614156140025760008181526005602081815260409283902083516101408101855281546001600160a01b039081168252600180840154948301949094526002830154811695820195909552600382015485166060820152600482015490941660808501529182015460a0840152600682015460ff908116151560c0850152600783015460e08501526008830154610100850192911690811115613f8857613f886144d2565b6001811115613f9957613f996144d2565b81526020016008820160019054906101000a900460ff166002811115613fc157613fc16144d2565b6002811115613fd257613fd26144d2565b81525050838381518110613fe857613fe861491c565b60200260200101819052508180613ffe90614948565b9250505b8061400c81614948565b915050613ebc565b6001546001600160a01b031633146120955760405162461bcd60e51b815260206004820181905260248201527f4f776e61626c653a2063616c6c6572206973206e6f7420746865206f776e657260448201526064016107b5565b6000606461407d836003614af4565b612f949190614987565b600060646140958385614af4565b61409f9190614987565b9392505050565b600260005414156140f95760405162461bcd60e51b815260206004820152601f60248201527f5265656e7472616e637947756172643a207265656e7472616e742063616c6c0060448201526064016107b5565b6002600055565b600180546001600160a01b038381166001600160a01b0319831681179093556040519116919082907f8be0079c531659141344cd1fd0a4f28419497f9722a3daafe3b4186f6b6457e090600090a35050565b8054806141a15760405162461bcd60e51b815260206004820152601b60248201527f436f756e7465723a2064656372656d656e74206f766572666c6f77000000000060448201526064016107b5565b600019019055565b6109ea82826040516024016141bf929190614dd3565b60408051601f198184030181529190526020810180516001600160e01b0316632d839cb360e21b17905261422d565b610a8c816040516024016142029190614df5565b60408051601f198184030181529190526020810180516001600160e01b031663104c13eb60e21b1790525b80516a636f6e736f6c652e6c6f67602083016000808483855afa5050505050565b5080546000825590600052602060002090810190610a8c91906142bf565b6040805161014081018252600080825260208201819052918101829052606081018290526080810182905260a0810182905260c0810182905260e081018290529061010082019081526020016000905290565b5b808211156142d457600081556001016142c0565b5090565b600081518084526020808501945080840160005b838110156143115781516001600160a01b0316875295820195908201906001016142ec565b509495945050505050565b60208152600061409f60208301846142d8565b6001600160a01b0381168114610a8c57600080fd5b60006020828403121561435657600080fd5b813561409f8161432f565b634e487b7160e01b600052604160045260246000fd5b604051601f8201601f1916810167ffffffffffffffff811182821017156143a0576143a0614361565b604052919050565b600067ffffffffffffffff8211156143c2576143c2614361565b5060051b60200190565b600060208083850312156143df57600080fd5b823567ffffffffffffffff8111156143f657600080fd5b8301601f8101851361440757600080fd5b803561441a614415826143a8565b614377565b81815260059190911b8201830190838101908783111561443957600080fd5b928401925b828410156144605783356144518161432f565b8252928401929084019061443e565b979650505050505050565b6000806040838503121561447e57600080fd5b82356144898161432f565b946020939093013593505050565b600080600080608085870312156144ad57600080fd5b84356144b88161432f565b966020860135965060408601359560600135945092505050565b634e487b7160e01b600052602160045260246000fd5b600281106144f8576144f86144d2565b9052565b600381106144f8576144f86144d2565b602080825282518282018190526000919060409081850190868401855b828110156145cc57815180516001600160a01b0390811686528782015188870152868201518116878701526060808301518216908701526080808301519091169086015260a0808201519086015260c08082015115159086015260e08082015190860152610100808201516145a0828801826144e8565b505061012090810151906145b6868201836144fc565b5050610140939093019290850190600101614529565b5091979650505050505050565b6000806000606084860312156145ee57600080fd5b83356145f98161432f565b95602085013595506040909401359392505050565b60006020828403121561462057600080fd5b5035919050565b600080600080600080600060e0888a03121561464257600080fd5b873561464d8161432f565b9960208901359950604089013598606081013598506080810135975060a0810135965060c00135945092505050565b600080600080600080600080610100898b03121561469957600080fd5b88356146a48161432f565b975060208981013567ffffffffffffffff8111156146c157600080fd5b8a01601f81018c136146d257600080fd5b80356146e0614415826143a8565b81815260059190911b8201830190838101908e8311156146ff57600080fd5b928401925b8284101561471d57833582529284019290840190614704565b9b9e9b9d5050505060408a0135996060810135996080820135995060a0820135985060c0820135975060e09091013595509350505050565b8981526001600160a01b03898116602083015260408201899052606082018890526080820187905260a08201869052841660c0820152610120810161479d60e08301856144fc565b8215156101008301529a9950505050505050505050565b6000806000606084860312156147c957600080fd5b505081359360208301359350604090920135919050565b6001600160a01b038b81168252602082018b9052898116604083015288811660608301528716608082015260a0810186905284151560c082015260e0810184905261014081016148346101008301856144e8565b6148426101208301846144fc565b9b9a5050505050505050505050565b6000806040838503121561486457600080fd5b823561486f8161432f565b9150602083013561487f8161432f565b809150509250929050565b6000806040838503121561489d57600080fd5b50508035926020909101359150565b6020808252604a908201527f596f7520617265207065726d656e616e746c792064656c657465642066726f6d60408201527f207468697320706c6174666f726d20666f722076696f6c6174696e6720746865606082015269103837b634b1b4b2b99760b11b608082015260a00190565b634e487b7160e01b600052603260045260246000fd5b634e487b7160e01b600052601160045260246000fd5b600060001982141561495c5761495c614932565b5060010190565b6001600160a01b039384168152919092166020820152604081019190915260600190565b6000826149a457634e487b7160e01b600052601260045260246000fd5b500490565b6000828210156149bb576149bb614932565b500390565b6001600160a01b03929092168252602082015260400190565b6001600160a01b039586168152602081019490945291841660408401529092166060820152608081019190915260a00190565b6020808252818101527f596f75206172652062616e6e6564206f6e207468697320706c6174666f726d2e604082015260600190565b60208082526036908201527f546865206f776e6572206f662074686973206e667420697320626c61636b6c6960408201527539ba32b21037b7103a3434b990383630ba3337b9369760511b606082015260800190565b6020808252603d908201527f546865206f776e6572206f662074686973206e6674206973207065726d616e6160408201527f6e746c792062616e6e6564206f6e207468697320706c6174666f726d2e000000606082015260800190565b6000816000190483118215151615614b0e57614b0e614932565b500290565b600060208284031215614b2557600080fd5b815161409f8161432f565b828152604060208201526000614b4960408301846142d8565b949350505050565b60006020808385031215614b6457600080fd5b825167ffffffffffffffff811115614b7b57600080fd5b8301601f81018513614b8c57600080fd5b8051614b9a614415826143a8565b81815260059190911b82018301908381019087831115614bb957600080fd5b928401925b8284101561446057835182529284019290840190614bbe565b848152608060208201526000614bf060808301866142d8565b6001600160a01b03949094166040830152506060015292915050565b634e487b7160e01b600052603160045260246000fd5b85815284602082015260a060408201526000614c4160a08301866142d8565b6001600160a01b0394909416606083015250608001529392505050565b805169ffffffffffffffffffff81168114611aed57600080fd5b600080600080600060a08688031215614c9057600080fd5b614c9986614c5e565b9450602086015193506040860151925060608601519150614cbc60808701614c5e565b90509295509295909350565b60208082526029908201527f54686973204e4654206973206e6f74206f6e2061756374696f6e206174207468604082015268329036b7b6b2b73a1760b91b606082015260800190565b6020808252603c908201527f596f75206861766520746f2062696420686967686572207468616e207468652060408201527f686967686573742062696420746f206d616b6520616e206f6666657200000000606082015260800190565b60008219821115614d8157614d81614932565b500190565b6000815180845260005b81811015614dac57602081850181015186830182015201614d90565b81811115614dbe576000602083870101525b50601f01601f19169290920160200192915050565b604081526000614de66040830185614d86565b90508260208301529392505050565b60208152600061409f6020830184614d8656fea26469706673582212204bca4b6988e0f9a1c2bfe28f27a9c6f0b9c3c79eaa8220a4ea8a15f9743475bb64736f6c63430008090033",
  "linkReferences": {},
  "deployedLinkReferences": {}
}