{
  "_format": "hh-sol-artifact-1",
  "contractName": "ArtiziaMarketplace",
  "sourceName": "contracts/ArtiziaMarketplace.sol",
  "abi": [
    {
      "inputs": [
        {
          "internalType": "address",
          "name": "_token",
          "type": "address"
        }
      ],
      "stateMutability": "nonpayable",
      "type": "constructor"
    },
    {
      "inputs": [],
      "name": "invalidListingType",
      "type": "error"
    },
    {
      "inputs": [],
      "name": "invalidPrice",
      "type": "error"
    },
    {
      "anonymous": false,
      "inputs": [
        {
          "indexed": false,
          "internalType": "address",
          "name": "nftContract",
          "type": "address"
        },
        {
          "indexed": false,
          "internalType": "uint256",
          "name": "tokenId",
          "type": "uint256"
        },
        {
          "indexed": false,
          "internalType": "address",
          "name": "seller",
          "type": "address"
        },
        {
          "indexed": false,
          "internalType": "address",
          "name": "owner",
          "type": "address"
        },
        {
          "indexed": false,
          "internalType": "uint256",
          "name": "price",
          "type": "uint256"
        },
        {
          "indexed": false,
          "internalType": "uint256",
          "name": "collectionId",
          "type": "uint256"
        }
      ],
      "name": "NFTListed",
      "type": "event"
    },
    {
      "anonymous": false,
      "inputs": [
        {
          "indexed": false,
          "internalType": "address",
          "name": "nftContract",
          "type": "address"
        },
        {
          "indexed": false,
          "internalType": "uint256",
          "name": "tokenId",
          "type": "uint256"
        },
        {
          "indexed": false,
          "internalType": "address",
          "name": "seller",
          "type": "address"
        },
        {
          "indexed": false,
          "internalType": "address",
          "name": "buyer",
          "type": "address"
        },
        {
          "indexed": false,
          "internalType": "uint256",
          "name": "price",
          "type": "uint256"
        }
      ],
      "name": "NFTSold",
      "type": "event"
    },
    {
      "anonymous": false,
      "inputs": [
        {
          "indexed": true,
          "internalType": "address",
          "name": "previousOwner",
          "type": "address"
        },
        {
          "indexed": true,
          "internalType": "address",
          "name": "newOwner",
          "type": "address"
        }
      ],
      "name": "OwnershipTransferred",
      "type": "event"
    },
    {
      "anonymous": false,
      "inputs": [
        {
          "indexed": false,
          "internalType": "address[]",
          "name": "fans",
          "type": "address[]"
        }
      ],
      "name": "addedFans",
      "type": "event"
    },
    {
      "anonymous": false,
      "inputs": [
        {
          "indexed": false,
          "internalType": "uint256",
          "name": "tokenId",
          "type": "uint256"
        },
        {
          "indexed": false,
          "internalType": "address",
          "name": "seller",
          "type": "address"
        },
        {
          "indexed": false,
          "internalType": "uint256",
          "name": "newTime",
          "type": "uint256"
        }
      ],
      "name": "auctionEndTimeIncreased",
      "type": "event"
    },
    {
      "anonymous": false,
      "inputs": [
        {
          "indexed": false,
          "internalType": "uint256",
          "name": "tokenId",
          "type": "uint256"
        },
        {
          "indexed": false,
          "internalType": "address",
          "name": "seller",
          "type": "address"
        },
        {
          "indexed": false,
          "internalType": "address",
          "name": "highestBidder",
          "type": "address"
        },
        {
          "indexed": false,
          "internalType": "uint256",
          "name": "highestBid",
          "type": "uint256"
        }
      ],
      "name": "receivedABid",
      "type": "event"
    },
    {
      "stateMutability": "payable",
      "type": "fallback"
    },
    {
      "inputs": [],
      "name": "UNISWAP_ROUTER_ADDRESS",
      "outputs": [
        {
          "internalType": "address",
          "name": "",
          "type": "address"
        }
      ],
      "stateMutability": "view",
      "type": "function"
    },
    {
      "inputs": [],
      "name": "USDT_ADDRESS",
      "outputs": [
        {
          "internalType": "address",
          "name": "",
          "type": "address"
        }
      ],
      "stateMutability": "view",
      "type": "function"
    },
    {
      "inputs": [
        {
          "internalType": "uint256",
          "name": "",
          "type": "uint256"
        }
      ],
      "name": "_idToAuction",
      "outputs": [
        {
          "internalType": "uint256",
          "name": "tokenId",
          "type": "uint256"
        },
        {
          "internalType": "address payable",
          "name": "seller",
          "type": "address"
        },
        {
          "internalType": "uint256",
          "name": "basePrice",
          "type": "uint256"
        },
        {
          "internalType": "uint256",
          "name": "startTime",
          "type": "uint256"
        },
        {
          "internalType": "uint256",
          "name": "endTime",
          "type": "uint256"
        },
        {
          "internalType": "uint256",
          "name": "highestBid",
          "type": "uint256"
        },
        {
          "internalType": "address payable",
          "name": "highestBidder",
          "type": "address"
        },
        {
          "internalType": "enum ArtiziaMarketplace.PaymentMethod",
          "name": "highestBidCurrency",
          "type": "uint8"
        }
      ],
      "stateMutability": "view",
      "type": "function"
    },
    {
      "inputs": [
        {
          "internalType": "uint256",
          "name": "",
          "type": "uint256"
        }
      ],
      "name": "_idToNFT",
      "outputs": [
        {
          "internalType": "address",
          "name": "nftContract",
          "type": "address"
        },
        {
          "internalType": "uint256",
          "name": "tokenId",
          "type": "uint256"
        },
        {
          "internalType": "address payable",
          "name": "firstOwner",
          "type": "address"
        },
        {
          "internalType": "address payable",
          "name": "seller",
          "type": "address"
        },
        {
          "internalType": "address payable",
          "name": "owner",
          "type": "address"
        },
        {
          "internalType": "uint256",
          "name": "price",
          "type": "uint256"
        },
        {
          "internalType": "bool",
          "name": "listed",
          "type": "bool"
        },
        {
          "internalType": "uint256",
          "name": "royaltyPrice",
          "type": "uint256"
        },
        {
          "internalType": "enum ArtiziaMarketplace.ListingType",
          "name": "listingType",
          "type": "uint8"
        },
        {
          "internalType": "enum ArtiziaMarketplace.PaymentMethod",
          "name": "paymentMethod",
          "type": "uint8"
        },
        {
          "internalType": "bool",
          "name": "approve",
          "type": "bool"
        },
        {
          "internalType": "uint256",
          "name": "collectionId",
          "type": "uint256"
        }
      ],
      "stateMutability": "view",
      "type": "function"
    },
    {
      "inputs": [
        {
          "internalType": "uint256",
          "name": "",
          "type": "uint256"
        }
      ],
      "name": "_idToNFT2",
      "outputs": [
        {
          "internalType": "uint256",
          "name": "tokenId",
          "type": "uint256"
        },
        {
          "internalType": "bool",
          "name": "onlyFans",
          "type": "bool"
        },
        {
          "internalType": "uint256",
          "name": "fanDiscountPercent",
          "type": "uint256"
        }
      ],
      "stateMutability": "view",
      "type": "function"
    },
    {
      "inputs": [],
      "name": "_nftCount",
      "outputs": [
        {
          "internalType": "uint256",
          "name": "_value",
          "type": "uint256"
        }
      ],
      "stateMutability": "view",
      "type": "function"
    },
    {
      "inputs": [],
      "name": "_nftsSold",
      "outputs": [
        {
          "internalType": "uint256",
          "name": "_value",
          "type": "uint256"
        }
      ],
      "stateMutability": "view",
      "type": "function"
    },
    {
      "inputs": [
        {
          "internalType": "address[]",
          "name": "fans",
          "type": "address[]"
        }
      ],
      "name": "addFans",
      "outputs": [],
      "stateMutability": "nonpayable",
      "type": "function"
    },
    {
      "inputs": [
        {
          "internalType": "uint256[]",
          "name": "_tokenId",
          "type": "uint256[]"
        },
        {
          "internalType": "bool",
          "name": "_decision",
          "type": "bool"
        }
      ],
      "name": "approveNfts",
      "outputs": [
        {
          "internalType": "bool",
          "name": "",
          "type": "bool"
        }
      ],
      "stateMutability": "nonpayable",
      "type": "function"
    },
    {
      "inputs": [
        {
          "internalType": "address",
          "name": "_user",
          "type": "address"
        }
      ],
      "name": "banUser",
      "outputs": [],
      "stateMutability": "nonpayable",
      "type": "function"
    },
    {
      "inputs": [
        {
          "internalType": "address",
          "name": "",
          "type": "address"
        }
      ],
      "name": "bannedUsers",
      "outputs": [
        {
          "internalType": "bool",
          "name": "",
          "type": "bool"
        }
      ],
      "stateMutability": "view",
      "type": "function"
    },
    {
      "inputs": [
        {
          "internalType": "uint256",
          "name": "_tokenId",
          "type": "uint256"
        },
        {
          "internalType": "uint256",
          "name": "_bidCurrency",
          "type": "uint256"
        }
      ],
      "name": "bidInETH",
      "outputs": [],
      "stateMutability": "payable",
      "type": "function"
    },
    {
      "inputs": [
        {
          "internalType": "uint256",
          "name": "_tokenId",
          "type": "uint256"
        },
        {
          "internalType": "uint256",
          "name": "_amount",
          "type": "uint256"
        },
        {
          "internalType": "uint256",
          "name": "_bidCurrency",
          "type": "uint256"
        }
      ],
      "name": "bidInUSDT",
      "outputs": [],
      "stateMutability": "payable",
      "type": "function"
    },
    {
      "inputs": [
        {
          "internalType": "address",
          "name": "_nftContract",
          "type": "address"
        },
        {
          "internalType": "uint256",
          "name": "_paymentMethod",
          "type": "uint256"
        },
        {
          "internalType": "uint256",
          "name": "_tokenId",
          "type": "uint256"
        },
        {
          "internalType": "uint256",
          "name": "_sellerPercent",
          "type": "uint256"
        },
        {
          "internalType": "uint256",
          "name": "_buyerPercent",
          "type": "uint256"
        }
      ],
      "name": "buyWithETH",
      "outputs": [],
      "stateMutability": "payable",
      "type": "function"
    },
    {
      "inputs": [
        {
          "internalType": "address",
          "name": "_nftContract",
          "type": "address"
        },
        {
          "internalType": "uint256",
          "name": "_paymentMethod",
          "type": "uint256"
        },
        {
          "internalType": "uint256",
          "name": "_tokenId",
          "type": "uint256"
        },
        {
          "internalType": "uint256",
          "name": "_amount",
          "type": "uint256"
        },
        {
          "internalType": "uint256",
          "name": "_sellerPercent",
          "type": "uint256"
        },
        {
          "internalType": "uint256",
          "name": "_buyerPercent",
          "type": "uint256"
        }
      ],
      "name": "buyWithUSDT",
      "outputs": [],
      "stateMutability": "payable",
      "type": "function"
    },
    {
      "inputs": [
        {
          "internalType": "uint256",
          "name": "_tokenId",
          "type": "uint256"
        },
        {
          "internalType": "uint256",
          "name": "_newDiscountPercent",
          "type": "uint256"
        }
      ],
      "name": "changeFanDiscountPercent",
      "outputs": [],
      "stateMutability": "nonpayable",
      "type": "function"
    },
    {
      "inputs": [],
      "name": "checkBannedOrDeletedUser",
      "outputs": [
        {
          "internalType": "bool",
          "name": "",
          "type": "bool"
        }
      ],
      "stateMutability": "view",
      "type": "function"
    },
    {
      "inputs": [
        {
          "internalType": "uint256",
          "name": "_tokenId",
          "type": "uint256"
        }
      ],
      "name": "checkFan",
      "outputs": [
        {
          "internalType": "bool",
          "name": "",
          "type": "bool"
        }
      ],
      "stateMutability": "view",
      "type": "function"
    },
    {
      "inputs": [
        {
          "internalType": "address",
          "name": "_nftContract",
          "type": "address"
        },
        {
          "internalType": "uint256",
          "name": "_tokenId",
          "type": "uint256"
        },
        {
          "internalType": "uint256",
          "name": "_sellerPercent",
          "type": "uint256"
        },
        {
          "internalType": "uint256",
          "name": "_buyerPercent",
          "type": "uint256"
        }
      ],
      "name": "closeAuction",
      "outputs": [],
      "stateMutability": "payable",
      "type": "function"
    },
    {
      "inputs": [
        {
          "internalType": "uint256",
          "name": "",
          "type": "uint256"
        },
        {
          "internalType": "uint256",
          "name": "",
          "type": "uint256"
        }
      ],
      "name": "collection",
      "outputs": [
        {
          "internalType": "uint256",
          "name": "",
          "type": "uint256"
        }
      ],
      "stateMutability": "view",
      "type": "function"
    },
    {
      "inputs": [
        {
          "internalType": "address",
          "name": "_user",
          "type": "address"
        }
      ],
      "name": "deleteUser",
      "outputs": [],
      "stateMutability": "nonpayable",
      "type": "function"
    },
    {
      "inputs": [
        {
          "internalType": "address",
          "name": "",
          "type": "address"
        }
      ],
      "name": "deletedUsers",
      "outputs": [
        {
          "internalType": "bool",
          "name": "",
          "type": "bool"
        }
      ],
      "stateMutability": "view",
      "type": "function"
    },
    {
      "inputs": [
        {
          "internalType": "address",
          "name": "",
          "type": "address"
        },
        {
          "internalType": "uint256",
          "name": "",
          "type": "uint256"
        }
      ],
      "name": "fanLists",
      "outputs": [
        {
          "internalType": "address",
          "name": "",
          "type": "address"
        }
      ],
      "stateMutability": "view",
      "type": "function"
    },
    {
      "inputs": [
        {
          "internalType": "uint256",
          "name": "_collectionId",
          "type": "uint256"
        }
      ],
      "name": "getCollectionNfts",
      "outputs": [
        {
          "components": [
            {
              "internalType": "address",
              "name": "nftContract",
              "type": "address"
            },
            {
              "internalType": "uint256",
              "name": "tokenId",
              "type": "uint256"
            },
            {
              "internalType": "address payable",
              "name": "firstOwner",
              "type": "address"
            },
            {
              "internalType": "address payable",
              "name": "seller",
              "type": "address"
            },
            {
              "internalType": "address payable",
              "name": "owner",
              "type": "address"
            },
            {
              "internalType": "uint256",
              "name": "price",
              "type": "uint256"
            },
            {
              "internalType": "bool",
              "name": "listed",
              "type": "bool"
            },
            {
              "internalType": "uint256",
              "name": "royaltyPrice",
              "type": "uint256"
            },
            {
              "internalType": "enum ArtiziaMarketplace.ListingType",
              "name": "listingType",
              "type": "uint8"
            },
            {
              "internalType": "enum ArtiziaMarketplace.PaymentMethod",
              "name": "paymentMethod",
              "type": "uint8"
            },
            {
              "internalType": "bool",
              "name": "approve",
              "type": "bool"
            },
            {
              "internalType": "uint256",
              "name": "collectionId",
              "type": "uint256"
            }
          ],
          "internalType": "struct ArtiziaMarketplace.NFT[]",
          "name": "",
          "type": "tuple[]"
        }
      ],
      "stateMutability": "view",
      "type": "function"
    },
    {
      "inputs": [
        {
          "internalType": "address",
          "name": "user",
          "type": "address"
        }
      ],
      "name": "getFans",
      "outputs": [
        {
          "internalType": "address[]",
          "name": "",
          "type": "address[]"
        }
      ],
      "stateMutability": "view",
      "type": "function"
    },
    {
      "inputs": [],
      "name": "getLatestUSDTPrice",
      "outputs": [
        {
          "internalType": "uint256",
          "name": "",
          "type": "uint256"
        }
      ],
      "stateMutability": "view",
      "type": "function"
    },
    {
      "inputs": [],
      "name": "getListedNfts",
      "outputs": [
        {
          "components": [
            {
              "internalType": "address",
              "name": "nftContract",
              "type": "address"
            },
            {
              "internalType": "uint256",
              "name": "tokenId",
              "type": "uint256"
            },
            {
              "internalType": "address payable",
              "name": "firstOwner",
              "type": "address"
            },
            {
              "internalType": "address payable",
              "name": "seller",
              "type": "address"
            },
            {
              "internalType": "address payable",
              "name": "owner",
              "type": "address"
            },
            {
              "internalType": "uint256",
              "name": "price",
              "type": "uint256"
            },
            {
              "internalType": "bool",
              "name": "listed",
              "type": "bool"
            },
            {
              "internalType": "uint256",
              "name": "royaltyPrice",
              "type": "uint256"
            },
            {
              "internalType": "enum ArtiziaMarketplace.ListingType",
              "name": "listingType",
              "type": "uint8"
            },
            {
              "internalType": "enum ArtiziaMarketplace.PaymentMethod",
              "name": "paymentMethod",
              "type": "uint8"
            },
            {
              "internalType": "bool",
              "name": "approve",
              "type": "bool"
            },
            {
              "internalType": "uint256",
              "name": "collectionId",
              "type": "uint256"
            }
          ],
          "internalType": "struct ArtiziaMarketplace.NFT[]",
          "name": "",
          "type": "tuple[]"
        }
      ],
      "stateMutability": "view",
      "type": "function"
    },
    {
      "inputs": [
        {
          "internalType": "address",
          "name": "_user",
          "type": "address"
        }
      ],
      "name": "getMyListedNfts",
      "outputs": [
        {
          "components": [
            {
              "internalType": "address",
              "name": "nftContract",
              "type": "address"
            },
            {
              "internalType": "uint256",
              "name": "tokenId",
              "type": "uint256"
            },
            {
              "internalType": "address payable",
              "name": "firstOwner",
              "type": "address"
            },
            {
              "internalType": "address payable",
              "name": "seller",
              "type": "address"
            },
            {
              "internalType": "address payable",
              "name": "owner",
              "type": "address"
            },
            {
              "internalType": "uint256",
              "name": "price",
              "type": "uint256"
            },
            {
              "internalType": "bool",
              "name": "listed",
              "type": "bool"
            },
            {
              "internalType": "uint256",
              "name": "royaltyPrice",
              "type": "uint256"
            },
            {
              "internalType": "enum ArtiziaMarketplace.ListingType",
              "name": "listingType",
              "type": "uint8"
            },
            {
              "internalType": "enum ArtiziaMarketplace.PaymentMethod",
              "name": "paymentMethod",
              "type": "uint8"
            },
            {
              "internalType": "bool",
              "name": "approve",
              "type": "bool"
            },
            {
              "internalType": "uint256",
              "name": "collectionId",
              "type": "uint256"
            }
          ],
          "internalType": "struct ArtiziaMarketplace.NFT[]",
          "name": "",
          "type": "tuple[]"
        }
      ],
      "stateMutability": "view",
      "type": "function"
    },
    {
      "inputs": [
        {
          "internalType": "address",
          "name": "_user",
          "type": "address"
        }
      ],
      "name": "getMyNfts",
      "outputs": [
        {
          "components": [
            {
              "internalType": "address",
              "name": "nftContract",
              "type": "address"
            },
            {
              "internalType": "uint256",
              "name": "tokenId",
              "type": "uint256"
            },
            {
              "internalType": "address payable",
              "name": "firstOwner",
              "type": "address"
            },
            {
              "internalType": "address payable",
              "name": "seller",
              "type": "address"
            },
            {
              "internalType": "address payable",
              "name": "owner",
              "type": "address"
            },
            {
              "internalType": "uint256",
              "name": "price",
              "type": "uint256"
            },
            {
              "internalType": "bool",
              "name": "listed",
              "type": "bool"
            },
            {
              "internalType": "uint256",
              "name": "royaltyPrice",
              "type": "uint256"
            },
            {
              "internalType": "enum ArtiziaMarketplace.ListingType",
              "name": "listingType",
              "type": "uint8"
            },
            {
              "internalType": "enum ArtiziaMarketplace.PaymentMethod",
              "name": "paymentMethod",
              "type": "uint8"
            },
            {
              "internalType": "bool",
              "name": "approve",
              "type": "bool"
            },
            {
              "internalType": "uint256",
              "name": "collectionId",
              "type": "uint256"
            }
          ],
          "internalType": "struct ArtiziaMarketplace.NFT[]",
          "name": "",
          "type": "tuple[]"
        }
      ],
      "stateMutability": "view",
      "type": "function"
    },
    {
      "inputs": [
        {
          "internalType": "uint256",
          "name": "_tokenId",
          "type": "uint256"
        }
      ],
      "name": "getNftApprovalStatus",
      "outputs": [
        {
          "internalType": "bool",
          "name": "",
          "type": "bool"
        }
      ],
      "stateMutability": "view",
      "type": "function"
    },
    {
      "inputs": [
        {
          "internalType": "uint256",
          "name": "_tokenId",
          "type": "uint256"
        }
      ],
      "name": "getStatusOfAuction",
      "outputs": [
        {
          "internalType": "bool",
          "name": "",
          "type": "bool"
        }
      ],
      "stateMutability": "view",
      "type": "function"
    },
    {
      "inputs": [
        {
          "internalType": "address",
          "name": "",
          "type": "address"
        },
        {
          "internalType": "address",
          "name": "",
          "type": "address"
        }
      ],
      "name": "isFan",
      "outputs": [
        {
          "internalType": "bool",
          "name": "",
          "type": "bool"
        }
      ],
      "stateMutability": "view",
      "type": "function"
    },
    {
      "inputs": [
        {
          "internalType": "address",
          "name": "_nftContract",
          "type": "address"
        },
        {
          "internalType": "uint256[]",
          "name": "_tokenId",
          "type": "uint256[]"
        },
        {
          "internalType": "uint256[]",
          "name": "_price",
          "type": "uint256[]"
        },
        {
          "internalType": "uint256",
          "name": "_royaltyPrice",
          "type": "uint256"
        },
        {
          "internalType": "uint256",
          "name": "_listingType",
          "type": "uint256"
        },
        {
          "internalType": "uint256[]",
          "name": "_startTime",
          "type": "uint256[]"
        },
        {
          "internalType": "uint256[]",
          "name": "_endTime",
          "type": "uint256[]"
        },
        {
          "internalType": "uint256",
          "name": "_collectionId",
          "type": "uint256"
        },
        {
          "internalType": "uint256",
          "name": "_paymentMethod",
          "type": "uint256"
        }
      ],
      "name": "listNft",
      "outputs": [],
      "stateMutability": "payable",
      "type": "function"
    },
    {
      "inputs": [],
      "name": "owner",
      "outputs": [
        {
          "internalType": "address",
          "name": "",
          "type": "address"
        }
      ],
      "stateMutability": "view",
      "type": "function"
    },
    {
      "inputs": [
        {
          "internalType": "address[]",
          "name": "addresses",
          "type": "address[]"
        }
      ],
      "name": "removeFans",
      "outputs": [],
      "stateMutability": "nonpayable",
      "type": "function"
    },
    {
      "inputs": [],
      "name": "renounceOwnership",
      "outputs": [],
      "stateMutability": "nonpayable",
      "type": "function"
    },
    {
      "inputs": [
        {
          "internalType": "address",
          "name": "_nftContract",
          "type": "address"
        },
        {
          "internalType": "uint256",
          "name": "_tokenId",
          "type": "uint256"
        },
        {
          "internalType": "uint256",
          "name": "_price",
          "type": "uint256"
        },
        {
          "internalType": "uint256",
          "name": "_listingType",
          "type": "uint256"
        },
        {
          "internalType": "uint256",
          "name": "_startTime",
          "type": "uint256"
        },
        {
          "internalType": "uint256",
          "name": "_endTime",
          "type": "uint256"
        },
        {
          "internalType": "address",
          "name": "_user",
          "type": "address"
        }
      ],
      "name": "resellNft",
      "outputs": [],
      "stateMutability": "nonpayable",
      "type": "function"
    },
    {
      "inputs": [
        {
          "internalType": "uint256",
          "name": "usdtAmountOut",
          "type": "uint256"
        }
      ],
      "name": "swapETHForUSDT",
      "outputs": [
        {
          "internalType": "uint256",
          "name": "",
          "type": "uint256"
        }
      ],
      "stateMutability": "payable",
      "type": "function"
    },
    {
      "inputs": [
        {
          "internalType": "uint256",
          "name": "usdtAmountIn",
          "type": "uint256"
        }
      ],
      "name": "swapUSDTForETH",
      "outputs": [
        {
          "internalType": "uint256",
          "name": "",
          "type": "uint256"
        }
      ],
      "stateMutability": "nonpayable",
      "type": "function"
    },
    {
      "inputs": [
        {
          "internalType": "uint256[]",
          "name": "tokenIds",
          "type": "uint256[]"
        }
      ],
      "name": "toggleOnlyFans",
      "outputs": [],
      "stateMutability": "nonpayable",
      "type": "function"
    },
    {
      "inputs": [
        {
          "internalType": "address",
          "name": "newOwner",
          "type": "address"
        }
      ],
      "name": "transferOwnership",
      "outputs": [],
      "stateMutability": "nonpayable",
      "type": "function"
    },
    {
      "inputs": [
        {
          "internalType": "address",
          "name": "_user",
          "type": "address"
        }
      ],
      "name": "unbanUser",
      "outputs": [],
      "stateMutability": "nonpayable",
      "type": "function"
    },
    {
      "stateMutability": "payable",
      "type": "receive"
    }
  ],
  "bytecode": "0x6080604052600d80546001600160a01b0319908116737a250d5630b4cf539739df2c5dacb4c659f2488d17909155600e805490911673dac17f958d2ee523a2206206994597c13d831ec71790553480156200005957600080fd5b5060405162006121380380620061218339810160408190526200007c9162000120565b60016000556200008c33620000ce565b60048054336001600160a01b031991821617909155600d54600f80546001600160a01b0392831690841617905560108054909216921691909117905562000152565b600180546001600160a01b038381166001600160a01b0319831681179093556040519116919082907f8be0079c531659141344cd1fd0a4f28419497f9722a3daafe3b4186f6b6457e090600090a35050565b6000602082840312156200013357600080fd5b81516001600160a01b03811681146200014b57600080fd5b9392505050565b615fbf80620001626000396000f3fe60806040526004361061023d5760003560e01c806398dd36bf1161012d578063c1892058116100b0578063ed5a1c0f11610077578063ed5a1c0f14610834578063f1ff9d0d1461086f578063f2fde38b1461088f578063f3ed87e4146108af578063f41dfb18146108c2578063f6c1b77a146108d557005b8063c189205814610784578063c36ac2d2146107a4578063d6cbb202146107c4578063d6fc3dbd146107db578063ecb4ad0c146107fb57005b8063af6b06f4116100f4578063af6b06f4146105fb578063b4fa04121461061b578063b8b3455d146106a0578063b9e07df1146106b3578063bbffa07b1461076457005b806398dd36bf146104ee5780639a6e94be146105035780639c7440581461055d5780639ea36e881461057d578063a8ab8c03146105ce57005b80635c60f226116101c057806379b369431161018757806379b36943146104205780638090551e146104585780638988d0781461046b5780638cd410f41461049b5780638d6cb3fb146104bb5780638da5cb5b146104d057005b80635c60f2261461037b5780635ca11fa31461039b5780636f9e8876146103bb578063715018a6146103db57806377ec6a47146103f057005b806348a51f531161020457806348a51f53146102d65780634afbcdae146102e95780634d12b695146103095780635274cff6146103295780635674c2e61461035657005b806310d86b1f146102465780632a448f6c146102665780633000df5d1461027957806331824a491461028c57806331a7a70f146102b657005b3661024457005b005b34801561025257600080fd5b5061024461026136600461503d565b6108f5565b61024461027436600461505a565b610921565b610244610287366004615172565b610eec565b34801561029857600080fd5b506002546102a39081565b6040519081526020015b60405180910390f35b3480156102c257600080fd5b506102446102d1366004615256565b6117db565b6102446102e43660046152ef565b611a16565b3480156102f557600080fd5b506102a361030436600461533b565b612090565b34801561031557600080fd5b5061024461032436600461503d565b6120c1565b34801561033557600080fd5b5061034961034436600461503d565b6120ea565b6040516102ad9190615397565b34801561036257600080fd5b5061036b6123c6565b60405190151581526020016102ad565b34801561038757600080fd5b5061024461039636600461503d565b612404565b3480156103a757600080fd5b506102446103b636600461533b565b612430565b3480156103c757600080fd5b506102446103d636600461547a565b6124ca565b3480156103e757600080fd5b506102446128c2565b3480156103fc57600080fd5b5061036b61040b36600461503d565b600b6020526000908152604090205460ff1681565b34801561042c57600080fd5b50600d54610440906001600160a01b031681565b6040516001600160a01b0390911681526020016102ad565b6102a36104663660046154e3565b6128d6565b34801561047757600080fd5b5061036b61048636600461503d565b600a6020526000908152604090205460ff1681565b3480156104a757600080fd5b506102a36104b63660046154e3565b612b1f565b3480156104c757600080fd5b50610349612e5b565b3480156104dc57600080fd5b506001546001600160a01b0316610440565b3480156104fa57600080fd5b506102a361310c565b34801561050f57600080fd5b5061054261051e3660046154e3565b600660205260009081526040902080546001820154600290920154909160ff169083565b604080519384529115156020840152908201526060016102ad565b34801561056957600080fd5b5061036b6105783660046154e3565b6131db565b34801561058957600080fd5b5061036b6105983660046154e3565b6000908152600560209081526040808320600301546001600160a01b031683526007825280832033845290915290205460ff1690565b3480156105da57600080fd5b506105ee6105e936600461503d565b6132a4565b6040516102ad9190615540565b34801561060757600080fd5b50610244610616366004615256565b61334b565b34801561062757600080fd5b5061068c6106363660046154e3565b600960205260009081526040902080546001820154600283015460038401546004850154600586015460069096015494956001600160a01b0394851695939492939192909190811690600160a01b900460ff1688565b6040516102ad989796959493929190615553565b6102446106ae3660046155a8565b6134dc565b3480156106bf57600080fd5b5061074c6106ce3660046154e3565b600560208190526000918252604090912080546001820154600283015460038401546004850154958501546006860154600787015460088801546009909801546001600160a01b03978816999698958816979485169690941694929360ff92831693919282811692610100810482169262010000909104909116908c565b6040516102ad9c9b9a999897969594939291906155d4565b34801561077057600080fd5b5061044061077f366004615652565b613a44565b34801561079057600080fd5b50600e54610440906001600160a01b031681565b3480156107b057600080fd5b506103496107bf3660046154e3565b613a7c565b3480156107d057600080fd5b506003546102a39081565b3480156107e757600080fd5b5061036b6107f636600461567e565b613d10565b34801561080757600080fd5b5061036b6108163660046154e3565b60009081526005602052604090206008015462010000900460ff1690565b34801561084057600080fd5b5061036b61084f3660046156d4565b600760209081526000928352604080842090915290825290205460ff1681565b34801561087b57600080fd5b5061024461088a366004615702565b613d89565b34801561089b57600080fd5b506102446108aa36600461503d565b613e87565b6102446108bd36600461573e565b613f00565b6102446108d036600461533b565b614631565b3480156108e157600080fd5b506103496108f036600461503d565b614aa9565b6108fd614d0c565b6001600160a01b03166000908152600a60205260409020805460ff19166001179055565b336000908152600a602052604090205460ff161561095a5760405162461bcd60e51b815260040161095190615779565b60405180910390fd5b336000908152600b602052604090205460ff161561098a5760405162461bcd60e51b8152600401610951906157ae565b610992614d66565b60008381526005602052604090206003810154336001600160a01b03909116036109ce5760405162461bcd60e51b81526004016109519061581e565b60048101546001600160a01b03166000908152600a602052604090205460ff1615610a0b5760405162461bcd60e51b815260040161095190615863565b60048101546001600160a01b03166000908152600b602052604090205460ff1615610a485760405162461bcd60e51b8152600401610951906158b9565b6000600882015460ff166001811115610a6357610a6361535d565b14610a805760405162461bcd60e51b815260040161095190615916565b600681015460ff161515600114610aa95760405162461bcd60e51b81526004016109519061594d565b6000848152600560209081526040808320600301546001600160a01b0316835260078252808320338085529252822054829060ff1615610b3157600087815260066020526040902060020154610b00903490614dbf565b610b0a903461599a565b905080341015610b2c5760405162461bcd60e51b8152600401610951906159ad565b610b58565b8360050154341015610b555760405162461bcd60e51b8152600401610951906159ad565b50345b600284015460038501546001600160a01b03918216911603610c7f57610b7f818787614dde565b610b89908261599a565b905087600003610bd95760038401546040516001600160a01b039091169082156108fc029083906000818181858888f19350505050158015610bcf573d6000803e3d6000fd5b5060019250610de6565b610be2816128d6565b506000610bed61310c565b610bf790836159f3565b90506000610c0882620f42406159f3565b601054600388015460405163a9059cbb60e01b81529293506001600160a01b039182169263a9059cbb92610c429216908590600401615a0a565b600060405180830381600087803b158015610c5c57600080fd5b505af1158015610c70573d6000803e3d6000fd5b50505050600194505050610de6565b60008190506000610c94828760070154614dbf565b9050610ca1838989614dde565b610cab828461599a565b610cb5919061599a565b60028701546040519194506001600160a01b03169082156108fc029083906000818181858888f19350505050158015610cf2573d6000803e3d6000fd5b5089600003610d415760038601546040516001600160a01b039091169084156108fc029085906000818181858888f19350505050158015610d37573d6000803e3d6000fd5b5060019450610de3565b610d4a836128d6565b506000610d5561310c565b610d5f9085615a23565b90506000610d7082620f42406159f3565b60105460038a015460405163a9059cbb60e01b81529293506001600160a01b039182169263a9059cbb92610daa9216908590600401615a0a565b600060405180830381600087803b158015610dc457600080fd5b505af1158015610dd8573d6000803e3d6000fd5b505050506001965050505b50505b8215610ed75760018401546040516323b872dd60e01b81526001600160a01b038b16916323b872dd91610e20913091879190600401615a45565b600060405180830381600087803b158015610e3a57600080fd5b505af1158015610e4e573d6000803e3d6000fd5b5050505060018401546003850154604051600080516020615f6a83398151915292610e8a928d926001600160a01b039091169087903490615a69565b60405180910390a16004840180546001600160a01b0384166001600160a01b031991821617909155600385018054909116905560068401805460ff19169055610ed7600280546001019055565b50505050610ee56001600055565b5050505050565b610ef4614d66565b336000908152600a602052604090205460ff1615610f245760405162461bcd60e51b815260040161095190615779565b336000908152600b602052604090205460ff1615610f545760405162461bcd60e51b8152600401610951906157ae565b60005b88518110156117c557610fa46040518060400160405280600981526020016874686973206973203160b81b8152508a8381518110610f9757610f97615a9c565b6020026020010151614e24565b610fd26040518060400160405280600c81526020016b5f6c697374696e675479706560a01b81525087614e24565b60408051808201909152601c81527f75696e74323536284c697374696e67547970652e41756374696f6e29000000006020820152611011906001614e24565b600088828151811061102557611025615a9c565b6020026020010151101561104c57604051635a93095360e11b815260040160405180910390fd5b600186111561106e576040516317142a4d60e01b815260040160405180910390fd5b6110a76040518060400160405280600b81526020016a5f746f6b656e49645b695d60a81b8152508a8381518110610f9757610f97615a9c565b896001600160a01b03166323b872dd33308c85815181106110ca576110ca615a9c565b60200260200101516040518463ffffffff1660e01b81526004016110f093929190615a45565b600060405180830381600087803b15801561110a57600080fd5b505af115801561111e573d6000803e3d6000fd5b5050505061114c604051806040016040528060098152602001683a3434b99034b9901960b91b815250614e69565b61115a600380546001019055565b611184604051806040016040528060098152602001681d1a1a5cc81a5cc80d60ba1b815250614e69565b6000838152600c6020526040902089518a90839081106111a6576111a6615a9c565b602002602001015190806001815401808255809150506001900390600052602060002001600090919091909150556040518061018001604052808b6001600160a01b031681526020018a838151811061120157611201615a9c565b60200260200101518152602001336001600160a01b03168152602001336001600160a01b03168152602001306001600160a01b0316815260200189838151811061124d5761124d615a9c565b6020026020010151815260200160011515815260200188815260200187600181111561127b5761127b61535d565b600181111561128c5761128c61535d565b81526020018360028111156112a3576112a361535d565b60028111156112b4576112b461535d565b815260200160001515815260200184815250600560008b84815181106112dc576112dc615a9c565b6020908102919091018101518252818101929092526040908101600020835181546001600160a01b03199081166001600160a01b039283161783559385015160018084019190915592850151600283018054861691831691909117905560608501516003830180548616918316919091179055608085015160048301805490951691161790925560a0830151600583015560c083015160068301805460ff1990811692151592909217905560e0840151600784015561010084015160088401805491939092919091169083818111156113b7576113b761535d565b021790555061012082015160088201805461ff0019166101008360028111156113e2576113e261535d565b0217905550610140820151600882018054911515620100000262ff00001990921691909117905561016090910151600991820155604080518082019091529081526874686973206973203560b81b602082015261143e90614e69565b60405180606001604052808a838151811061145b5761145b615a9c565b602002602001015181526020016000151581526020016000815250600660008b848151811061148c5761148c615a9c565b602090810291909101810151825281810192909252604090810160002083518155918301516001808401805460ff1916921515929092179091559201516002909101558603611716576114ff604051806040016040528060098152602001683a3434b99034b9901b60b91b815250614e69565b61153a6040518060400160405280600d81526020016c5f737461727454696d655b695d60981b815250868381518110610f9757610f97615a9c565b6115736040518060400160405280600b81526020016a5f656e6454696d655b695d60a81b815250858381518110610f9757610f97615a9c565b6040518061010001604052808a838151811061159157611591615a9c565b60200260200101518152602001336001600160a01b031681526020018983815181106115bf576115bf615a9c565b602002602001015181526020018683815181106115de576115de615a9c565b602002602001015181526020018583815181106115fd576115fd615a9c565b602002602001015181526020016000815260200160006001600160a01b031681526020018360028111156116335761163361535d565b60028111156116445761164461535d565b815250600960008b848151811061165d5761165d615a9c565b602090810291909101810151825281810192909252604090810160002083518155918301516001830180546001600160a01b03199081166001600160a01b039384161790915591840151600280850191909155606085015160038501556080850151600485015560a0850151600585015560c085015160068501805494851691909316908117835560e0860151936001600160a81b0319161790600160a01b90849081111561170e5761170e61535d565b021790555050505b6117406040518060400160405280600981526020016874686973206973203760b81b815250614e69565b7fc832d0dcd7b856cbe96d21951bfd27a151474492114ad271531ad34f7cfd64538a8a838151811061177457611774615a9c565b602002602001015133308c868151811061179057611790615a9c565b6020026020010151886040516117ab96959493929190615ab2565b60405180910390a1806117bd81615aec565b915050610f57565b506117d06001600055565b505050505050505050565b600081516001600160401b038111156117f6576117f661509e565b60405190808252806020026020018201604052801561181f578160200160208202803683370190505b50905060005b82518110156119da57600083828151811061184257611842615a9c565b6020026020010151905060006001600160a01b0316816001600160a01b03160361189f5761189a60405180604001604052806013815260200172496e76616c69642066616e206164647265737360681b815250614e69565b6119c7565b3360009081526007602090815260408083206001600160a01b038516845290915290205460ff16156119045761189a6040518060400160405280601881526020017720b2323932b9b99034b99030b63932b0b23c9030903330b760411b815250614e69565b3360008181526008602090815260408083208054600180820183559185528385200180546001600160a01b0319166001600160a01b0388169081179091559484526007835281842094845293825291829020805460ff19169093179092558051808201909152601181527011985b881859191959081d1bc81b1a5cdd607a1b9181019190915261199390614e69565b808383815181106119a6576119a6615a9c565b60200260200101906001600160a01b031690816001600160a01b0316815250505b50806119d281615aec565b915050611825565b507fa99d709f8a9c899ba566c9b2515b1715239783ff40126e24d86e081505a7f50e81604051611a0a9190615540565b60405180910390a15050565b336000908152600a602052604090205460ff1615611a465760405162461bcd60e51b815260040161095190615779565b336000908152600b602052604090205460ff1615611a765760405162461bcd60e51b8152600401610951906157ae565b611a7e614d66565b60008481526005602052604090206003810154336001600160a01b0390911603611aba5760405162461bcd60e51b81526004016109519061581e565b6000611ac461310c565b90506000611ad78664e8d4a510006159f3565b9050611ae382826159f3565b9050611af7670de0b6b3a764000082615a23565b60048401546001600160a01b03166000908152600a602052604090205490915060ff1615611b375760405162461bcd60e51b815260040161095190615863565b60048301546001600160a01b03166000908152600b602052604090205460ff1615611b745760405162461bcd60e51b8152600401610951906158b9565b6000600884015460ff166001811115611b8f57611b8f61535d565b14611bac5760405162461bcd60e51b815260040161095190615916565b600683015460ff161515600114611bd55760405162461bcd60e51b81526004016109519061594d565b6000878152600560209081526040808320600301546001600160a01b031683526007825280832033845290915281205460ff1615611c5b57600088815260066020526040902060020154611c2a908390614dbf565b611c34908361599a565b905080821015611c565760405162461bcd60e51b815260040161095190615b05565b611c82565b8360050154821015611c7f5760405162461bcd60e51b815260040161095190615b05565b50805b6010546040516323b872dd60e01b8152600091339183916001600160a01b0316906323b872dd90611cbb90859030908f90600401615a45565b600060405180830381600087803b158015611cd557600080fd5b505af1158015611ce9573d6000803e3d6000fd5b50505050600287015460038801546001600160a01b03918216911603611dee57611d148a8a8a614dde565b611d1e908b61599a565b93508b600103611d9b57601054600388015460405163a9059cbb60e01b81526001600160a01b039283169263a9059cbb92611d60929116908890600401615a0a565b600060405180830381600087803b158015611d7a57600080fd5b505af1158015611d8e573d6000803e3d6000fd5b5050505060019250611f7e565b6000611da685612b1f565b60038901546040519192506001600160a01b03169082156108fc029083906000818181858888f19350505050158015611de3573d6000803e3d6000fd5b506001935050611f7e565b6000611dfe8b8960070154614dbf565b9050611e0a818c61599a565b9150611e17828b8b614dde565b611e21908c61599a565b60105460028a015460405163a9059cbb60e01b81529297506001600160a01b039182169263a9059cbb92611e5b9216908590600401615a0a565b600060405180830381600087803b158015611e7557600080fd5b505af1158015611e89573d6000803e3d6000fd5b505050508c600103611f1a576000611ea486620f42406159f3565b60105460038b015460405163a9059cbb60e01b81529293506001600160a01b039182169263a9059cbb92611ede9216908590600401615a0a565b600060405180830381600087803b158015611ef857600080fd5b505af1158015611f0c573d6000803e3d6000fd5b505050506001945050611f7c565b611f2385612b1f565b506000611f2e61310c565b611f3890876159f3565b60038a01546040519192506001600160a01b03169082156108fc029083906000818181858888f19350505050158015611f75573d6000803e3d6000fd5b5060019450505b505b82156120775760018701546040516323b872dd60e01b81526001600160a01b038f16916323b872dd91611fb8913091879190600401615a45565b600060405180830381600087803b158015611fd257600080fd5b505af1158015611fe6573d6000803e3d6000fd5b50505050600080516020615f6a8339815191528d88600101548960030160009054906101000a90046001600160a01b0316858960405161202a959493929190615a69565b60405180910390a16004870180546001600160a01b0384166001600160a01b031991821617909155600388018054909116905560068701805460ff19169055612077600280546001019055565b505050505050506120886001600055565b505050505050565b600c60205281600052604060002081815481106120ac57600080fd5b90600052602060002001600091509150505481565b6120c9614d0c565b6001600160a01b03166000908152600a60205260409020805460ff19169055565b336000908152600b602052604090205460609060ff161561211d5760405162461bcd60e51b8152600401610951906157ae565b336000908152600a602052604090205460ff161561214d5760405162461bcd60e51b815260040161095190615779565b600061215860035490565b90506000805b828110156121c8576000818152600560205260409020600301546001600160a01b0386811691161480156121a3575060008181526005602052604090206006015460ff165b156121b657816121b281615aec565b9250505b806121c081615aec565b91505061215e565b506000816001600160401b038111156121e3576121e361509e565b60405190808252806020026020018201604052801561221c57816020015b612209614fbb565b8152602001906001900390816122015790505b5090506000805b848110156123b9576000818152600560205260409020600301546001600160a01b038881169116148015612268575060008181526005602052604090206006015460ff165b156123a75760008181526005602081815260409283902083516101808101855281546001600160a01b039081168252600180840154948301949094526002830154811695820195909552600382015485166060820152600482015490941660808501529182015460a0840152600682015460ff908116151560c0850152600783015460e0850152600883015461010085019291169081111561230c5761230c61535d565b600181111561231d5761231d61535d565b81526020016008820160019054906101000a900460ff1660028111156123455761234561535d565b60028111156123565761235661535d565b8152600882015462010000900460ff1615156020820152600990910154604090910152835184908490811061238d5761238d615a9c565b602002602001018190525081806123a390615aec565b9250505b806123b181615aec565b915050612223565b509093505050505b919050565b336000908152600a602052604081205460ff16806123f35750336000908152600b602052604090205460ff165b156123fe5750600190565b50600090565b61240c614d0c565b6001600160a01b03166000908152600b60205260409020805460ff19166001179055565b6000828152600560205260409020600301546001600160a01b031633146124b55760405162461bcd60e51b815260206004820152603360248201527f4f6e6c7920746865206f776e6572206f6620616e206e66742063616e20736574604482015272103234b9b1b7bab73a32b210383934b1b2b99760691b6064820152608401610951565b60009182526006602052604090912060020155565b336000908152600a602052604090205460ff16156124fa5760405162461bcd60e51b815260040161095190615779565b336000908152600b602052604090205460ff161561252a5760405162461bcd60e51b8152600401610951906157ae565b612532614d66565b60008681526005602052604090208561258d5760405162461bcd60e51b815260206004820152601c60248201527f5072696365206d757374206265206174206c65617374203120776569000000006044820152606401610951565b60408051808201909152600981526837333a1737bbb732b960b91b602082015260048201546125c591906001600160a01b0316614eac565b6125ec604051806040016040528060058152602001642fbab9b2b960d91b81525083614eac565b60048101546001600160a01b0383811691161461265e5760405162461bcd60e51b815260206004820152602a60248201527f4f6e6c7920746865206f776e6572206f6620616e206e66742063616e206c69736044820152693a103a34329037333a1760b11b6064820152608401610951565b6040516323b872dd60e01b81526001600160a01b038916906323b872dd9061268e90859030908c90600401615a45565b600060405180830381600087803b1580156126a857600080fd5b505af11580156126bc573d6000803e3d6000fd5b5050506003820180546001600160a01b0385166001600160a01b03199182161790915560048301805490911630179055506005810186905560068101805460ff1916600190811790915585908111156127175761271761535d565b60088201805460ff1916600183818111156127345761273461535d565b02179055506001850361285f57604051806101000160405280888152602001836001600160a01b031681526020018781526020018581526020018481526020016000815260200160006001600160a01b031681526020018260080160019054906101000a900460ff1660028111156127ae576127ae61535d565b905260008881526009602090815260409182902083518155908301516001820180546001600160a01b03199081166001600160a01b039384161790915592840151600280840191909155606085015160038401556080850151600484015560a0850151600584015560c085015160068401805495861691909316908117835560e086015193946001600160a81b0319161790600160a01b9084908111156128575761285761535d565b021790555050505b6128696002614ef1565b7fc832d0dcd7b856cbe96d21951bfd27a151474492114ad271531ad34f7cfd6453888884308a86600901546040516128a696959493929190615ab2565b60405180910390a1506128b96001600055565b50505050505050565b6128ca614d0c565b6128d46000614f48565b565b604080516002808252606082018352600092839291906020830190803683375050600f54604080516315ab88c960e31b815290519394506001600160a01b039091169263ad5c4648925060048083019260209291908290030181865afa158015612944573d6000803e3d6000fd5b505050506040513d601f19601f820116820180604052508101906129689190615b4c565b8160008151811061297b5761297b615a9c565b6001600160a01b039283166020918202929092010152600e548251911690829060019081106129ac576129ac615a9c565b6001600160a01b039290921660209283029190910182015260408051600280825260608201835260009391929091830190803683375050600f5460405163d06ca61f60e01b81529293506001600160a01b03169163d06ca61f9150612a179087908690600401615b69565b600060405180830381865afa158015612a34573d6000803e3d6000fd5b505050506040513d6000823e601f3d908101601f19168201604052612a5c9190810190615b82565b600f5481519192506001600160a01b031690637ff36ab590349084906001908110612a8957612a89615a9c565b60200260200101518530426040518663ffffffff1660e01b8152600401612ab39493929190615c07565b60006040518083038185885af1158015612ad1573d6000803e3d6000fd5b50505050506040513d6000823e601f3d908101601f19168201604052612afa9190810190615b82565b5080600181518110612b0e57612b0e615a9c565b602002602001015192505050919050565b6000612b4960405180604001604052806006815260200165746573743d3160d01b81525083614e24565b6040805160028082526060820183526000926020830190803683375050600e5482519293506001600160a01b031691839150600090612b8a57612b8a615a9c565b6001600160a01b03928316602091820292909201810191909152600f54604080516315ab88c960e31b81529051919093169263ad5c46489260048083019391928290030181865afa158015612be3573d6000803e3d6000fd5b505050506040513d601f19601f82011682018060405250810190612c079190615b4c565b81600181518110612c1a57612c1a615a9c565b6001600160a01b039283166020918202929092010152601054600d5460405163095ea7b360e01b81529183169263095ea7b392612c5f92909116908790600401615a0a565b600060405180830381600087803b158015612c7957600080fd5b505af1158015612c8d573d6000803e3d6000fd5b50505050612cb760405180604001604052806005815260200164746573743360d81b815250614e69565b6040805160028082526060820183526000926020830190803683375050600f5460405163d06ca61f60e01b81529293506001600160a01b03169163d06ca61f9150612d089087908690600401615b69565b600060405180830381865afa158015612d25573d6000803e3d6000fd5b505050506040513d6000823e601f3d908101601f19168201604052612d4d9190810190615b82565b9050612d8460405180604001604052806006815260200165185b5bdd5b9d60d21b81525082600181518110610f9757610f97615a9c565b600f5481516001600160a01b0390911690634a25d94a9083906001908110612dae57612dae615a9c565b6020026020010151868530426040518663ffffffff1660e01b8152600401612dda959493929190615c3c565b6000604051808303816000875af1158015612df9573d6000803e3d6000fd5b505050506040513d6000823e601f3d908101601f19168201604052612e219190810190615b82565b50612e48604051806040016040528060058152602001641d195cdd0d60da1b815250614e69565b80600181518110612b0e57612b0e615a9c565b336000908152600b602052604090205460609060ff1615612e8e5760405162461bcd60e51b8152600401610951906157ae565b6000612e9960035490565b90506000612ea660025490565b612eb0908361599a565b9050612edc604051806040016040528060088152602001671b999d10dbdd5b9d60c21b81525083614e24565b612f0d6040518060400160405280600f81526020016e1d5b9cdbdb1913999d1cd0dbdd5b9d608a1b81525082614e24565b6000816001600160401b03811115612f2757612f2761509e565b604051908082528060200260200182016040528015612f6057816020015b612f4d614fbb565b815260200190600190039081612f455790505b5090506000612f916040518060400160405280600b81526020016a5f6964546f4e46545b695d60a81b815250614e69565b60005b848110156131025760008181526005602052604090206006015460ff16156130f05760008181526005602081815260409283902083516101808101855281546001600160a01b039081168252600180840154948301949094526002830154811695820195909552600382015485166060820152600482015490941660808501529182015460a0840152600682015460ff908116151560c0850152600783015460e085015260088301546101008501929116908111156130555761305561535d565b60018111156130665761306661535d565b81526020016008820160019054906101000a900460ff16600281111561308e5761308e61535d565b600281111561309f5761309f61535d565b8152600882015462010000900460ff161515602082015260099091015460409091015283518490849081106130d6576130d6615a9c565b602002602001018190525081806130ec90615aec565b9250505b806130fa81615aec565b915050612f94565b5090935050505090565b60008073ee9f2375b4bdf6387aa8265dd4fb8f16512a1d4690506000816001600160a01b031663feaf968c6040518163ffffffff1660e01b815260040160a060405180830381865afa158015613166573d6000803e3d6000fd5b505050506040513d601f19601f8201168201806040525081019061318a9190615c92565b505050915050600081136131d55760405162461bcd60e51b8152602060048201526012602482015271496e76616c6964205553445420707269636560701b6044820152606401610951565b92915050565b6000818152600960205260408120600301544211801561320b575060008281526009602052604090206004015442105b1561329c576132536040518060400160405280600b81526020016a029ba30b93a2a34b6b29d160ad1b8152506009600085815260200190815260200160002060030154614e24565b61329460405180604001604052806009815260200168032b7322a34b6b29d160bd1b8152506009600085815260200190815260200160002060040154614e24565b506001919050565b506000919050565b336000908152600b602052604090205460609060ff16156132d75760405162461bcd60e51b8152600401610951906157ae565b6001600160a01b0382166000908152600860209081526040918290208054835181840281018401909452808452909183018282801561333f57602002820191906000526020600020905b81546001600160a01b03168152600190910190602001808311613321575b50505050509050919050565b60005b81518110156134d857600082828151811061336b5761336b615a9c565b6020908102919091018101516001600160a01b0381166000908152600890925260408220909250905b815481101561349a57336001600160a01b03168282815481106133b9576133b9615a9c565b6000918252602090912001546001600160a01b03160361348857815482906133e39060019061599a565b815481106133f3576133f3615a9c565b9060005260206000200160009054906101000a90046001600160a01b031682828154811061342357613423615a9c565b9060005260206000200160006101000a8154816001600160a01b0302191690836001600160a01b031602179055508180548061346157613461615ce2565b600082815260209020810160001990810180546001600160a01b031916905501905561349a565b8061349281615aec565b915050613394565b50506001600160a01b031660009081526007602090815260408083203384529091529020805460ff19169055806134d081615aec565b91505061334e565b5050565b60008381526009602052604090206003015483904211801561350e575060008181526009602052604090206004015442105b61352a5760405162461bcd60e51b815260040161095190615cf8565b336000908152600b602052604090205460ff161561355a5760405162461bcd60e51b8152600401610951906157ae565b336000908152600a602052604090205460ff161561358a5760405162461bcd60e51b815260040161095190615779565b600061359461310c565b6000868152600660205260408120600101549192509060ff1615613601576000868152600560209081526040808320600301546001600160a01b031683526007825280832033845290915290205460ff166136015760405162461bcd60e51b815260040161095190615d41565b60006136128664e8d4a510006159f3565b905061361e83826159f3565b9050613632670de0b6b3a764000082615a23565b9050613667604051806040016040528060118152602001705f616d6f756e74496e455448496e57656960781b81525082614e24565b6000878152600960205260409020600601546001600160a01b03166136b7576000878152600960205260409020600201548110156136b75760405162461bcd60e51b815260040161095190615d78565b6000878152600960205260409020600501548110156136e85760405162461bcd60e51b815260040161095190615daf565b600160008881526005602052604090206008015460ff1660018111156137105761371061535d565b1461372d5760405162461bcd60e51b815260040161095190615e0c565b60008781526005602052604090206006015460ff1615156001146137635760405162461bcd60e51b81526004016109519061594d565b6010546040516323b872dd60e01b81526001600160a01b03909116906323b872dd9061379790339030908b90600401615a45565b600060405180830381600087803b1580156137b157600080fd5b505af11580156137c5573d6000803e3d6000fd5b5050506000888152600960205260409020600681015460058201549192506001600160a01b03169081156139075760016006840154600160a01b900460ff1660028111156138155761381561535d565b036138a857600061382461310c565b61382e9083615a23565b905061383d81620f42406159f3565b60105460405163a9059cbb60e01b81529192506001600160a01b03169063a9059cbb906138709086908590600401615a0a565b600060405180830381600087803b15801561388a57600080fd5b505af115801561389e573d6000803e3d6000fd5b5050505050613907565b60006006840154600160a01b900460ff1660028111156138ca576138ca61535d565b03613907576040516001600160a01b0383169082156108fc029083906000818181858888f19350505050158015613905573d6000803e3d6000fd5b505b600583018490556006830180546001600160a01b031916331790558760028111156139345761393461535d565b60068401805460ff60a01b1916600160a01b8360028111156139585761395861535d565b021790555061396942610258615e3f565b836004015410156139de5761012c83600401600082825461398a9190615e3f565b9091555050600183015460048401546040517f8e1cb85d0855921b3c958b068fa707efb7db88099af764dd47f37eef82c3334d926139d5928e926001600160a01b0390921691615e52565b60405180910390a15b600183810154600685015460058601546040519398507f4307392e6f0e441e74a4982d9fa9ddc49b3cd9d3902a9d3ecab0ad3c60a0acd193613a30938f936001600160a01b0391821693911691615e71565b60405180910390a150505050505050505050565b60086020528160005260406000208181548110613a6057600080fd5b6000918252602090912001546001600160a01b03169150829050565b60606000613a8960035490565b90506000613a9660025490565b613aa0908361599a565b9050613acc604051806040016040528060088152602001671b999d10dbdd5b9d60c21b81525083614e24565b613afd6040518060400160405280600f81526020016e1d5b9cdbdb1913999d1cd0dbdd5b9d608a1b81525082614e24565b6000816001600160401b03811115613b1757613b1761509e565b604051908082528060200260200182016040528015613b5057816020015b613b3d614fbb565b815260200190600190039081613b355790505b5090506000613b836040518060400160405280600d81526020016c17d8dbdb1b1958dd1a5bdb9259609a1b815250614e69565b60005b848110156123b95760008181526005602052604090206006015460ff168015613bbf575060008181526005602052604090206009015487145b15613cfe5760008181526005602081815260409283902083516101808101855281546001600160a01b039081168252600180840154948301949094526002830154811695820195909552600382015485166060820152600482015490941660808501529182015460a0840152600682015460ff908116151560c0850152600783015460e08501526008830154610100850192911690811115613c6357613c6361535d565b6001811115613c7457613c7461535d565b81526020016008820160019054906101000a900460ff166002811115613c9c57613c9c61535d565b6002811115613cad57613cad61535d565b8152600882015462010000900460ff16151560208201526009909101546040909101528351849084908110613ce457613ce4615a9c565b60200260200101819052508180613cfa90615aec565b9250505b80613d0881615aec565b915050613b86565b6000613d1a614d0c565b6000805b8451811015613d7e57848181518110613d3957613d39615a9c565b602090810291909101810151600081815260059092526040909120600801805462ff000019166201000087151502179055915080613d7681615aec565b915050613d1e565b506001949350505050565b60005b81518110156134d8576000828281518110613da957613da9615a9c565b602090810291909101810151600081815260059092526040909120600301549091506001600160a01b03163314613e0057613dfb6040518060600160405280602e8152602001615f3c602e9139614e69565b613e74565b6000818152600560205260409020600301546001600160a01b0316613e5257613dfb6040518060400160405280601281526020017113919508191bd95cc81b9bdd08195e1a5cdd60721b815250614e69565b6000818152600660205260409020600101805460ff19811660ff909116151790555b5080613e7f81615aec565b915050613d8c565b613e8f614d0c565b6001600160a01b038116613ef45760405162461bcd60e51b815260206004820152602660248201527f4f776e61626c653a206e6577206f776e657220697320746865207a65726f206160448201526564647265737360d01b6064820152608401610951565b613efd81614f48565b50565b6000838152600960205260409020600401544211613f605760405162461bcd60e51b815260206004820152601a60248201527f41756374696f6e20686173206e6f7420656e646564207965742e0000000000006044820152606401610951565b6000838152600960205260409020600601546001600160a01b031615614033576000838152600960205260409020600601546001600160a01b0316331480613fc157506000838152600960205260409020600101546001600160a01b031633145b61402e5760405162461bcd60e51b815260206004820152603860248201527f4f6e6c792074686520686967686573742062696464657220616e6420746865206044820152771cd95b1b195c8818d85b8818db185a5b481d1a194813919560421b6064820152608401610951565b6140b1565b6000838152600960205260409020600101546001600160a01b031633146140b15760405162461bcd60e51b815260206004820152602c60248201527f4f6e6c79207468652073656c6c65722063616e20636c6f73652074686520756e60448201526b39b7b6321030bab1ba34b7b760a11b6064820152608401610951565b6000838152600560209081526040808320600990925282206006810154919290916001600160a01b031661417a576003830154600480850180546001600160a01b0319166001600160a01b0393841617905560068501805460ff19169055600184810154908601546040516323b872dd60e01b81528b8516946323b872dd9461413f94309492169201615a45565b600060405180830381600087803b15801561415957600080fd5b505af115801561416d573d6000803e3d6000fd5b50505050600190506145db565b60058201546000908190816008870154610100900460ff1660028111156141a3576141a361535d565b036143205760016006860154600160a01b900460ff1660028111156141ca576141ca61535d565b036141ff5760006141d961310c565b6141e39083615a23565b90506141f281620f42406159f3565b506141fc81612b1f565b50505b600286015460048701546001600160a01b0391821691160361427357614226818989614dde565b614230908261599a565b60038701546040519193506001600160a01b03169083156108fc029084906000818181858888f1935050505015801561426d573d6000803e3d6000fd5b50614525565b61428585600501548760070154614dbf565b9250614292818989614dde565b61429c848361599a565b6142a6919061599a565b60028701546040519193506001600160a01b03169084156108fc029085906000818181858888f193505050501580156142e3573d6000803e3d6000fd5b5060038601546040516001600160a01b039091169083156108fc029084906000818181858888f1935050505015801561426d573d6000803e3d6000fd5b60016008870154610100900460ff1660028111156143405761434061535d565b036145255760006006860154600160a01b900460ff1660028111156143675761436761535d565b0361437857614375816128d6565b90505b600286015460048701546001600160a01b0391821691160361441a5761439f818989614dde565b6143a9908261599a565b601054600388015460405163a9059cbb60e01b81529294506001600160a01b039182169263a9059cbb926143e39216908690600401615a0a565b600060405180830381600087803b1580156143fd57600080fd5b505af1158015614411573d6000803e3d6000fd5b50505050614525565b61442c85600501548760070154614dbf565b9250614439818989614dde565b614443848361599a565b61444d919061599a565b601054600388015460405163a9059cbb60e01b81529294506001600160a01b039182169263a9059cbb926144879216908690600401615a0a565b600060405180830381600087803b1580156144a157600080fd5b505af11580156144b5573d6000803e3d6000fd5b5050601054600289015460405163a9059cbb60e01b81526001600160a01b03928316945063a9059cbb93506144f292909116908790600401615a0a565b600060405180830381600087803b15801561450c57600080fd5b505af1158015614520573d6000803e3d6000fd5b505050505b8361459857600685015460018701546040516323b872dd60e01b81526001600160a01b038d8116936323b872dd9361456593309390921691600401615a45565b600060405180830381600087803b15801561457f57600080fd5b505af1158015614593573d6000803e3d6000fd5b505050505b6006808601546004880180546001600160a01b0319166001600160a01b039092169190911790558601805460ff191690556145d7600280546001019055565b5050505b6001830154600384015460068401546005850154604051600080516020615f6a83398151915294614620948d9491936001600160a01b03918216939290911691615a69565b60405180910390a150505050505050565b600082815260096020526040902060030154829042118015614663575060008181526009602052604090206004015442105b61467f5760405162461bcd60e51b815260040161095190615cf8565b336000908152600b602052604090205460ff16156146af5760405162461bcd60e51b8152600401610951906157ae565b336000908152600a602052604090205460ff16156146df5760405162461bcd60e51b815260040161095190615779565b60008381526006602052604081206001015460ff1615614748576000848152600560209081526040808320600301546001600160a01b031683526007825280832033845290915290205460ff166147485760405162461bcd60e51b815260040161095190615d41565b6000848152600960205260409020600601546001600160a01b0316614798576000848152600960205260409020600201543410156147985760405162461bcd60e51b815260040161095190615d78565b60008481526009602052604090206005015434116147c85760405162461bcd60e51b815260040161095190615daf565b600160008581526005602052604090206008015460ff1660018111156147f0576147f061535d565b1461480d5760405162461bcd60e51b815260040161095190615e0c565b60008481526005602052604090206006015460ff1615156001146148435760405162461bcd60e51b81526004016109519061594d565b6000848152600960205260409020600681015460058201546001600160a01b039091169081156149815760016006840154600160a01b900460ff16600281111561488f5761488f61535d565b0361492257600061489e61310c565b6148a89083615a23565b90506148b781620f42406159f3565b60105460405163a9059cbb60e01b81529192506001600160a01b03169063a9059cbb906148ea9086908590600401615a0a565b600060405180830381600087803b15801561490457600080fd5b505af1158015614918573d6000803e3d6000fd5b5050505050614981565b60006006840154600160a01b900460ff1660028111156149445761494461535d565b03614981576040516001600160a01b0383169082156108fc029083906000818181858888f1935050505015801561497f573d6000803e3d6000fd5b505b3460058401556006830180546001600160a01b031916331790558560028111156149ad576149ad61535d565b60068401805460ff60a01b1916600160a01b8360028111156149d1576149d161535d565b02179055506149e242610258615e3f565b83600401541015614a575761012c836004016000828254614a039190615e3f565b9091555050600183015460048401546040517f8e1cb85d0855921b3c958b068fa707efb7db88099af764dd47f37eef82c3334d92614a4e928b926001600160a01b0390921691615e52565b60405180910390a15b600183810154600685015460058601546040519397507f4307392e6f0e441e74a4982d9fa9ddc49b3cd9d3902a9d3ecab0ad3c60a0acd193614620938c936001600160a01b0391821693911691615e71565b336000908152600b602052604090205460609060ff1615614adc5760405162461bcd60e51b8152600401610951906157ae565b6000614ae760035490565b90506000805b82811015614b39576000818152600560205260409020600401546001600160a01b03808716911603614b275781614b2381615aec565b9250505b80614b3181615aec565b915050614aed565b506000816001600160401b03811115614b5457614b5461509e565b604051908082528060200260200182016040528015614b8d57816020015b614b7a614fbb565b815260200190600190039081614b725790505b5090506000805b848110156123b9576000818152600560205260409020600401546001600160a01b03808916911603614cfa5760008181526005602081815260409283902083516101808101855281546001600160a01b039081168252600180840154948301949094526002830154811695820195909552600382015485166060820152600482015490941660808501529182015460a0840152600682015460ff908116151560c0850152600783015460e08501526008830154610100850192911690811115614c5f57614c5f61535d565b6001811115614c7057614c7061535d565b81526020016008820160019054906101000a900460ff166002811115614c9857614c9861535d565b6002811115614ca957614ca961535d565b8152600882015462010000900460ff16151560208201526009909101546040909101528351849084908110614ce057614ce0615a9c565b60200260200101819052508180614cf690615aec565b9250505b80614d0481615aec565b915050614b94565b6001546001600160a01b031633146128d45760405162461bcd60e51b815260206004820181905260248201527f4f776e61626c653a2063616c6c6572206973206e6f7420746865206f776e65726044820152606401610951565b600260005403614db85760405162461bcd60e51b815260206004820152601f60248201527f5265656e7472616e637947756172643a207265656e7472616e742063616c6c006044820152606401610951565b6002600055565b60006064614dcd83856159f3565b614dd79190615a23565b9392505050565b6000806103e8614dee85876159f3565b614df89190615a23565b90506103e8614e0784876159f3565b614e119190615a23565b614e1b9082615e3f565b95945050505050565b6134d88282604051602401614e3a929190615edc565b60408051601f198184030181529190526020810180516001600160e01b0316632d839cb360e21b179052614f9a565b613efd81604051602401614e7d9190615efe565b60408051601f198184030181529190526020810180516001600160e01b031663104c13eb60e21b179052614f9a565b6134d88282604051602401614ec2929190615f11565b60408051601f198184030181529190526020810180516001600160e01b031663319af33360e01b179052614f9a565b805480614f405760405162461bcd60e51b815260206004820152601b60248201527f436f756e7465723a2064656372656d656e74206f766572666c6f7700000000006044820152606401610951565b600019019055565b600180546001600160a01b038381166001600160a01b0319831681179093556040519116919082907f8be0079c531659141344cd1fd0a4f28419497f9722a3daafe3b4186f6b6457e090600090a35050565b60006a636f6e736f6c652e6c6f679050600080835160208501845afa505050565b6040805161018081018252600080825260208201819052918101829052606081018290526080810182905260a0810182905260c0810182905260e081018290529061010082019081526020016000815260006020820181905260409091015290565b6001600160a01b0381168114613efd57600080fd5b80356123c18161501d565b60006020828403121561504f57600080fd5b8135614dd78161501d565b600080600080600060a0868803121561507257600080fd5b853561507d8161501d565b97602087013597506040870135966060810135965060800135945092505050565b634e487b7160e01b600052604160045260246000fd5b604051601f8201601f191681016001600160401b03811182821017156150dc576150dc61509e565b604052919050565b60006001600160401b038211156150fd576150fd61509e565b5060051b60200190565b600082601f83011261511857600080fd5b8135602061512d615128836150e4565b6150b4565b82815260059290921b8401810191818101908684111561514c57600080fd5b8286015b848110156151675780358352918301918301615150565b509695505050505050565b60008060008060008060008060006101208a8c03121561519157600080fd5b61519a8a615032565b985060208a01356001600160401b03808211156151b657600080fd5b6151c28d838e01615107565b995060408c01359150808211156151d857600080fd5b6151e48d838e01615107565b985060608c0135975060808c0135965060a08c013591508082111561520857600080fd5b6152148d838e01615107565b955060c08c013591508082111561522a57600080fd5b506152378c828d01615107565b93505060e08a013591506101008a013590509295985092959850929598565b6000602080838503121561526957600080fd5b82356001600160401b0381111561527f57600080fd5b8301601f8101851361529057600080fd5b803561529e615128826150e4565b81815260059190911b820183019083810190878311156152bd57600080fd5b928401925b828410156152e45783356152d58161501d565b825292840192908401906152c2565b979650505050505050565b60008060008060008060c0878903121561530857600080fd5b86356153138161501d565b9860208801359850604088013597606081013597506080810135965060a00135945092505050565b6000806040838503121561534e57600080fd5b50508035926020909101359150565b634e487b7160e01b600052602160045260246000fd5b600281106153835761538361535d565b9052565b600381106153835761538361535d565b602080825282518282018190526000919060409081850190868401855b8281101561546d57815180516001600160a01b0390811686528782015188870152868201518116878701526060808301518216908701526080808301519091169086015260a0808201519086015260c08082015115159086015260e080820151908601526101008082015161542b82880182615373565b50506101208082015161544082880182615387565b505061014081810151151590860152610160908101519085015261018090930192908501906001016153b4565b5091979650505050505050565b600080600080600080600060e0888a03121561549557600080fd5b87356154a08161501d565b96506020880135955060408801359450606088013593506080880135925060a0880135915060c08801356154d38161501d565b8091505092959891949750929550565b6000602082840312156154f557600080fd5b5035919050565b600081518084526020808501945080840160005b838110156155355781516001600160a01b031687529582019590820190600101615510565b509495945050505050565b602081526000614dd760208301846154fc565b8881526001600160a01b03888116602083015260408201889052606082018790526080820186905260a08201859052831660c0820152610100810161559b60e0830184615387565b9998505050505050505050565b6000806000606084860312156155bd57600080fd5b505081359360208301359350604090920135919050565b6001600160a01b038d81168252602082018d90528b811660408301528a811660608301528916608082015260a0810188905286151560c082015260e081018690526101808101615628610100830187615373565b615636610120830186615387565b92151561014082015261016001529a9950505050505050505050565b6000806040838503121561566557600080fd5b82356156708161501d565b946020939093013593505050565b6000806040838503121561569157600080fd5b82356001600160401b038111156156a757600080fd5b6156b385828601615107565b925050602083013580151581146156c957600080fd5b809150509250929050565b600080604083850312156156e757600080fd5b82356156f28161501d565b915060208301356156c98161501d565b60006020828403121561571457600080fd5b81356001600160401b0381111561572a57600080fd5b61573684828501615107565b949350505050565b6000806000806080858703121561575457600080fd5b843561575f8161501d565b966020860135965060408601359560600135945092505050565b6020808252818101527f596f75206172652062616e6e6564206f6e207468697320706c6174666f726d2e604082015260600190565b6020808252604a908201527f596f7520617265207065726d656e616e746c792064656c657465642066726f6d60408201527f207468697320706c6174666f726d20666f722076696f6c6174696e6720746865606082015269103837b634b1b4b2b99760b11b608082015260a00190565b60208082526025908201527f416e206f776e65722063616e6e6f7420707572636861736520697473206f776e6040820152641027232a1760d91b606082015260800190565b60208082526036908201527f546865206f776e6572206f662074686973206e667420697320626c61636b6c6960408201527539ba32b21037b7103a3434b990383630ba3337b9369760511b606082015260800190565b6020808252603d908201527f546865206f776e6572206f662074686973206e6674206973207065726d616e6160408201527f6e746c792062616e6e6564206f6e207468697320706c6174666f726d2e000000606082015260800190565b6020808252601a908201527f54686973204e4654206973206e6f742061742061756374696f6e000000000000604082015260600190565b6020808252601d908201527f4e6674206973206e6f74206c697374656420746f207075726368617365000000604082015260600190565b634e487b7160e01b600052601160045260246000fd5b818103818111156131d5576131d5615984565b60208082526026908201527f4e6f7420656e6f75676820657468657220746f20636f7665722061736b696e6760408201526520707269636560d01b606082015260800190565b80820281158282048414176131d5576131d5615984565b6001600160a01b03929092168252602082015260400190565b600082615a4057634e487b7160e01b600052601260045260246000fd5b500490565b6001600160a01b039384168152919092166020820152604081019190915260600190565b6001600160a01b039586168152602081019490945291841660408401529092166060820152608081019190915260a00190565b634e487b7160e01b600052603260045260246000fd5b6001600160a01b0396871681526020810195909552928516604085015293166060830152608082019290925260a081019190915260c00190565b600060018201615afe57615afe615984565b5060010190565b60208082526027908201527f4e6f7420656e6f75676820616d6f756e7420746f20636f7665722061736b696e6040820152666720707269636560c81b606082015260800190565b600060208284031215615b5e57600080fd5b8151614dd78161501d565b82815260406020820152600061573660408301846154fc565b60006020808385031215615b9557600080fd5b82516001600160401b03811115615bab57600080fd5b8301601f81018513615bbc57600080fd5b8051615bca615128826150e4565b81815260059190911b82018301908381019087831115615be957600080fd5b928401925b828410156152e457835182529284019290840190615bee565b848152608060208201526000615c2060808301866154fc565b6001600160a01b03949094166040830152506060015292915050565b85815284602082015260a060408201526000615c5b60a08301866154fc565b6001600160a01b0394909416606083015250608001529392505050565b805169ffffffffffffffffffff811681146123c157600080fd5b600080600080600060a08688031215615caa57600080fd5b615cb386615c78565b9450602086015193506040860151925060608601519150615cd660808701615c78565b90509295509295909350565b634e487b7160e01b600052603160045260246000fd5b60208082526029908201527f54686973204e4654206973206e6f74206f6e2061756374696f6e206174207468604082015268329036b7b6b2b73a1760b91b606082015260800190565b6020808252601b908201527f596f7520617265206e6f7420696e207468652066616e206c6973740000000000604082015260600190565b6020808252601c908201527f4d696e696d756d206269642068617320746f2062652068696768657200000000604082015260600190565b6020808252603c908201527f596f75206861766520746f2062696420686967686572207468616e207468652060408201527f686967686573742062696420746f206d616b6520616e206f6666657200000000606082015260800190565b6020808252601990820152782a3434b99027232a1034b99030ba1030ba1030bab1ba34b7b760391b604082015260600190565b808201808211156131d5576131d5615984565b9283526001600160a01b03919091166020830152604082015260600190565b9384526001600160a01b03928316602085015291166040830152606082015260800190565b6000815180845260005b81811015615ebc57602081850181015186830182015201615ea0565b506000602082860101526020601f19601f83011685010191505092915050565b604081526000615eef6040830185615e96565b90508260208301529392505050565b602081526000614dd76020830184615e96565b604081526000615f246040830185615e96565b905060018060a01b0383166020830152939250505056fe4f6e6c7920746865206f776e6572206f6620616e206e66742063616e20736574207468652066616e206c6973742e16f1dbd97e6bf646d429ed186cce832f1f7fd9907814293b83181e9970ab7bd2a2646970667358221220eb265c06e9ddd23d5b889121b82c6ed88d6f4e3250cf1279efac39933ebdd36864736f6c63430008130033",
  "linkReferences": {},
  "deployedLinkReferences": {}
}