{
  "_format": "hh-sol-artifact-1",
  "contractName": "ArtiziaMarketplace",
  "sourceName": "contracts/ArtiziaMarketplace.sol",
  "abi": [
    {
      "inputs": [
        {
          "internalType": "address",
          "name": "_token",
          "type": "address"
        }
      ],
      "stateMutability": "nonpayable",
      "type": "constructor"
    },
    {
      "inputs": [],
      "name": "invalidListingType",
      "type": "error"
    },
    {
      "inputs": [],
      "name": "invalidPrice",
      "type": "error"
    },
    {
      "anonymous": false,
      "inputs": [
        {
          "indexed": false,
          "internalType": "address",
          "name": "nftContract",
          "type": "address"
        },
        {
          "indexed": false,
          "internalType": "uint256",
          "name": "tokenId",
          "type": "uint256"
        },
        {
          "indexed": false,
          "internalType": "address",
          "name": "seller",
          "type": "address"
        },
        {
          "indexed": false,
          "internalType": "address",
          "name": "owner",
          "type": "address"
        },
        {
          "indexed": false,
          "internalType": "uint256",
          "name": "price",
          "type": "uint256"
        },
        {
          "indexed": false,
          "internalType": "uint256",
          "name": "collectionId",
          "type": "uint256"
        },
        {
          "indexed": false,
          "internalType": "uint256",
          "name": "listingType",
          "type": "uint256"
        }
      ],
      "name": "NFTListed",
      "type": "event"
    },
    {
      "anonymous": false,
      "inputs": [
        {
          "indexed": false,
          "internalType": "uint256",
          "name": "tokenId",
          "type": "uint256"
        },
        {
          "indexed": false,
          "internalType": "address",
          "name": "seller",
          "type": "address"
        },
        {
          "indexed": false,
          "internalType": "address",
          "name": "buyer",
          "type": "address"
        },
        {
          "indexed": false,
          "internalType": "uint256",
          "name": "price",
          "type": "uint256"
        }
      ],
      "name": "NFTSold",
      "type": "event"
    },
    {
      "anonymous": false,
      "inputs": [
        {
          "indexed": true,
          "internalType": "address",
          "name": "previousOwner",
          "type": "address"
        },
        {
          "indexed": true,
          "internalType": "address",
          "name": "newOwner",
          "type": "address"
        }
      ],
      "name": "OwnershipTransferred",
      "type": "event"
    },
    {
      "anonymous": false,
      "inputs": [
        {
          "indexed": false,
          "internalType": "address[]",
          "name": "fans",
          "type": "address[]"
        }
      ],
      "name": "addedFans",
      "type": "event"
    },
    {
      "anonymous": false,
      "inputs": [
        {
          "indexed": false,
          "internalType": "uint256",
          "name": "tokenId",
          "type": "uint256"
        },
        {
          "indexed": false,
          "internalType": "bool",
          "name": "decision",
          "type": "bool"
        }
      ],
      "name": "approvalUpdate",
      "type": "event"
    },
    {
      "anonymous": false,
      "inputs": [
        {
          "indexed": false,
          "internalType": "uint256",
          "name": "tokenId",
          "type": "uint256"
        },
        {
          "indexed": false,
          "internalType": "address",
          "name": "seller",
          "type": "address"
        },
        {
          "indexed": false,
          "internalType": "uint256",
          "name": "newTime",
          "type": "uint256"
        }
      ],
      "name": "auctionEndTimeIncreased",
      "type": "event"
    },
    {
      "anonymous": false,
      "inputs": [
        {
          "indexed": false,
          "internalType": "uint256",
          "name": "tokenId",
          "type": "uint256"
        },
        {
          "indexed": false,
          "internalType": "address",
          "name": "seller",
          "type": "address"
        },
        {
          "indexed": false,
          "internalType": "address",
          "name": "highestBidder",
          "type": "address"
        },
        {
          "indexed": false,
          "internalType": "uint256",
          "name": "highestBid",
          "type": "uint256"
        }
      ],
      "name": "receivedABid",
      "type": "event"
    },
    {
      "anonymous": false,
      "inputs": [
        {
          "indexed": false,
          "internalType": "address",
          "name": "fan",
          "type": "address"
        }
      ],
      "name": "removeFan",
      "type": "event"
    },
    {
      "stateMutability": "payable",
      "type": "fallback"
    },
    {
      "inputs": [],
      "name": "UNISWAP_ROUTER_ADDRESS",
      "outputs": [
        {
          "internalType": "address",
          "name": "",
          "type": "address"
        }
      ],
      "stateMutability": "view",
      "type": "function"
    },
    {
      "inputs": [],
      "name": "USDT_ADDRESS",
      "outputs": [
        {
          "internalType": "address",
          "name": "",
          "type": "address"
        }
      ],
      "stateMutability": "view",
      "type": "function"
    },
    {
      "inputs": [
        {
          "internalType": "uint256",
          "name": "",
          "type": "uint256"
        }
      ],
      "name": "_idToAuction",
      "outputs": [
        {
          "internalType": "uint256",
          "name": "tokenId",
          "type": "uint256"
        },
        {
          "internalType": "address payable",
          "name": "seller",
          "type": "address"
        },
        {
          "internalType": "uint256",
          "name": "basePrice",
          "type": "uint256"
        },
        {
          "internalType": "uint256",
          "name": "startTime",
          "type": "uint256"
        },
        {
          "internalType": "uint256",
          "name": "endTime",
          "type": "uint256"
        },
        {
          "internalType": "uint256",
          "name": "highestBid",
          "type": "uint256"
        },
        {
          "internalType": "address payable",
          "name": "highestBidder",
          "type": "address"
        },
        {
          "internalType": "enum ArtiziaMarketplace.PaymentMethod",
          "name": "highestBidCurrency",
          "type": "uint8"
        }
      ],
      "stateMutability": "view",
      "type": "function"
    },
    {
      "inputs": [
        {
          "internalType": "uint256",
          "name": "",
          "type": "uint256"
        }
      ],
      "name": "_idToNFT",
      "outputs": [
        {
          "internalType": "address",
          "name": "nftContract",
          "type": "address"
        },
        {
          "internalType": "uint256",
          "name": "tokenId",
          "type": "uint256"
        },
        {
          "internalType": "address payable",
          "name": "firstOwner",
          "type": "address"
        },
        {
          "internalType": "address payable",
          "name": "seller",
          "type": "address"
        },
        {
          "internalType": "address payable",
          "name": "owner",
          "type": "address"
        },
        {
          "internalType": "uint256",
          "name": "price",
          "type": "uint256"
        },
        {
          "internalType": "bool",
          "name": "listed",
          "type": "bool"
        },
        {
          "internalType": "uint256",
          "name": "royaltyPrice",
          "type": "uint256"
        },
        {
          "internalType": "enum ArtiziaMarketplace.ListingType",
          "name": "listingType",
          "type": "uint8"
        },
        {
          "internalType": "enum ArtiziaMarketplace.PaymentMethod",
          "name": "paymentMethod",
          "type": "uint8"
        },
        {
          "internalType": "bool",
          "name": "approve",
          "type": "bool"
        },
        {
          "internalType": "uint256",
          "name": "collectionId",
          "type": "uint256"
        }
      ],
      "stateMutability": "view",
      "type": "function"
    },
    {
      "inputs": [
        {
          "internalType": "uint256",
          "name": "",
          "type": "uint256"
        }
      ],
      "name": "_idToNFT2",
      "outputs": [
        {
          "internalType": "uint256",
          "name": "tokenId",
          "type": "uint256"
        },
        {
          "internalType": "bool",
          "name": "onlyFans",
          "type": "bool"
        },
        {
          "internalType": "uint256",
          "name": "fanDiscountPercent",
          "type": "uint256"
        }
      ],
      "stateMutability": "view",
      "type": "function"
    },
    {
      "inputs": [],
      "name": "_nftCount",
      "outputs": [
        {
          "internalType": "uint256",
          "name": "_value",
          "type": "uint256"
        }
      ],
      "stateMutability": "view",
      "type": "function"
    },
    {
      "inputs": [],
      "name": "_nftsSold",
      "outputs": [
        {
          "internalType": "uint256",
          "name": "_value",
          "type": "uint256"
        }
      ],
      "stateMutability": "view",
      "type": "function"
    },
    {
      "inputs": [
        {
          "internalType": "address[]",
          "name": "fans",
          "type": "address[]"
        }
      ],
      "name": "addFans",
      "outputs": [],
      "stateMutability": "nonpayable",
      "type": "function"
    },
    {
      "inputs": [
        {
          "internalType": "uint256[]",
          "name": "_tokenId",
          "type": "uint256[]"
        },
        {
          "internalType": "bool",
          "name": "_decision",
          "type": "bool"
        }
      ],
      "name": "approveNfts",
      "outputs": [
        {
          "internalType": "bool",
          "name": "",
          "type": "bool"
        }
      ],
      "stateMutability": "nonpayable",
      "type": "function"
    },
    {
      "inputs": [
        {
          "internalType": "address",
          "name": "_user",
          "type": "address"
        }
      ],
      "name": "banUser",
      "outputs": [],
      "stateMutability": "nonpayable",
      "type": "function"
    },
    {
      "inputs": [
        {
          "internalType": "address",
          "name": "",
          "type": "address"
        },
        {
          "internalType": "uint256",
          "name": "",
          "type": "uint256"
        }
      ],
      "name": "bannedNfts",
      "outputs": [
        {
          "internalType": "uint256",
          "name": "",
          "type": "uint256"
        }
      ],
      "stateMutability": "view",
      "type": "function"
    },
    {
      "inputs": [
        {
          "internalType": "address",
          "name": "",
          "type": "address"
        }
      ],
      "name": "bannedUsers",
      "outputs": [
        {
          "internalType": "bool",
          "name": "",
          "type": "bool"
        }
      ],
      "stateMutability": "view",
      "type": "function"
    },
    {
      "inputs": [
        {
          "internalType": "uint256",
          "name": "_tokenId",
          "type": "uint256"
        },
        {
          "internalType": "uint256",
          "name": "_bidCurrency",
          "type": "uint256"
        }
      ],
      "name": "bidInETH",
      "outputs": [],
      "stateMutability": "payable",
      "type": "function"
    },
    {
      "inputs": [
        {
          "internalType": "uint256",
          "name": "_tokenId",
          "type": "uint256"
        },
        {
          "internalType": "uint256",
          "name": "_amount",
          "type": "uint256"
        },
        {
          "internalType": "uint256",
          "name": "_bidCurrency",
          "type": "uint256"
        },
        {
          "internalType": "uint256",
          "name": "_amountInETHInWei",
          "type": "uint256"
        }
      ],
      "name": "bidInUSDT",
      "outputs": [],
      "stateMutability": "payable",
      "type": "function"
    },
    {
      "inputs": [
        {
          "internalType": "address",
          "name": "_nftContract",
          "type": "address"
        },
        {
          "internalType": "uint256",
          "name": "_paymentMethod",
          "type": "uint256"
        },
        {
          "internalType": "uint256",
          "name": "_tokenId",
          "type": "uint256"
        },
        {
          "internalType": "uint8",
          "name": "_sellerPlan",
          "type": "uint8"
        },
        {
          "internalType": "uint8",
          "name": "_buyerPlan",
          "type": "uint8"
        }
      ],
      "name": "buyWithETH",
      "outputs": [],
      "stateMutability": "payable",
      "type": "function"
    },
    {
      "inputs": [
        {
          "internalType": "address",
          "name": "_nftContract",
          "type": "address"
        },
        {
          "internalType": "uint256",
          "name": "_paymentMethod",
          "type": "uint256"
        },
        {
          "internalType": "uint256",
          "name": "_tokenId",
          "type": "uint256"
        },
        {
          "internalType": "uint8",
          "name": "_sellerPlan",
          "type": "uint8"
        },
        {
          "internalType": "uint8",
          "name": "_buyerPlan",
          "type": "uint8"
        },
        {
          "internalType": "uint256",
          "name": "_amount",
          "type": "uint256"
        },
        {
          "internalType": "uint256",
          "name": "_amountInETHInWei",
          "type": "uint256"
        }
      ],
      "name": "buyWithUSDT",
      "outputs": [],
      "stateMutability": "payable",
      "type": "function"
    },
    {
      "inputs": [
        {
          "internalType": "uint256",
          "name": "_tokenId",
          "type": "uint256"
        },
        {
          "internalType": "uint256",
          "name": "_newDiscountPercent",
          "type": "uint256"
        }
      ],
      "name": "changeFanDiscountPercent",
      "outputs": [],
      "stateMutability": "nonpayable",
      "type": "function"
    },
    {
      "inputs": [
        {
          "internalType": "uint256",
          "name": "_tokenId",
          "type": "uint256"
        }
      ],
      "name": "checkFan",
      "outputs": [
        {
          "internalType": "bool",
          "name": "",
          "type": "bool"
        }
      ],
      "stateMutability": "view",
      "type": "function"
    },
    {
      "inputs": [
        {
          "internalType": "address",
          "name": "_nftContract",
          "type": "address"
        },
        {
          "internalType": "uint256",
          "name": "_tokenId",
          "type": "uint256"
        },
        {
          "internalType": "uint8",
          "name": "_sellerPlan",
          "type": "uint8"
        },
        {
          "internalType": "uint8",
          "name": "_buyerPlan",
          "type": "uint8"
        }
      ],
      "name": "closeAuction",
      "outputs": [],
      "stateMutability": "payable",
      "type": "function"
    },
    {
      "inputs": [
        {
          "internalType": "uint256",
          "name": "",
          "type": "uint256"
        },
        {
          "internalType": "uint256",
          "name": "",
          "type": "uint256"
        }
      ],
      "name": "collection",
      "outputs": [
        {
          "internalType": "uint256",
          "name": "",
          "type": "uint256"
        }
      ],
      "stateMutability": "view",
      "type": "function"
    },
    {
      "inputs": [
        {
          "internalType": "address",
          "name": "",
          "type": "address"
        },
        {
          "internalType": "uint256",
          "name": "",
          "type": "uint256"
        }
      ],
      "name": "fanLists",
      "outputs": [
        {
          "internalType": "address",
          "name": "",
          "type": "address"
        }
      ],
      "stateMutability": "view",
      "type": "function"
    },
    {
      "inputs": [
        {
          "internalType": "uint256",
          "name": "_collectionId",
          "type": "uint256"
        }
      ],
      "name": "getCollectionNfts",
      "outputs": [
        {
          "components": [
            {
              "internalType": "address",
              "name": "nftContract",
              "type": "address"
            },
            {
              "internalType": "uint256",
              "name": "tokenId",
              "type": "uint256"
            },
            {
              "internalType": "address payable",
              "name": "firstOwner",
              "type": "address"
            },
            {
              "internalType": "address payable",
              "name": "seller",
              "type": "address"
            },
            {
              "internalType": "address payable",
              "name": "owner",
              "type": "address"
            },
            {
              "internalType": "uint256",
              "name": "price",
              "type": "uint256"
            },
            {
              "internalType": "bool",
              "name": "listed",
              "type": "bool"
            },
            {
              "internalType": "uint256",
              "name": "royaltyPrice",
              "type": "uint256"
            },
            {
              "internalType": "enum ArtiziaMarketplace.ListingType",
              "name": "listingType",
              "type": "uint8"
            },
            {
              "internalType": "enum ArtiziaMarketplace.PaymentMethod",
              "name": "paymentMethod",
              "type": "uint8"
            },
            {
              "internalType": "bool",
              "name": "approve",
              "type": "bool"
            },
            {
              "internalType": "uint256",
              "name": "collectionId",
              "type": "uint256"
            }
          ],
          "internalType": "struct ArtiziaMarketplace.NFT[]",
          "name": "",
          "type": "tuple[]"
        }
      ],
      "stateMutability": "view",
      "type": "function"
    },
    {
      "inputs": [
        {
          "internalType": "address",
          "name": "user",
          "type": "address"
        }
      ],
      "name": "getFans",
      "outputs": [
        {
          "internalType": "address[]",
          "name": "",
          "type": "address[]"
        }
      ],
      "stateMutability": "view",
      "type": "function"
    },
    {
      "inputs": [],
      "name": "getLatestUSDTPrice",
      "outputs": [
        {
          "internalType": "uint256",
          "name": "",
          "type": "uint256"
        }
      ],
      "stateMutability": "view",
      "type": "function"
    },
    {
      "inputs": [],
      "name": "getListedNfts",
      "outputs": [
        {
          "components": [
            {
              "internalType": "address",
              "name": "nftContract",
              "type": "address"
            },
            {
              "internalType": "uint256",
              "name": "tokenId",
              "type": "uint256"
            },
            {
              "internalType": "address payable",
              "name": "firstOwner",
              "type": "address"
            },
            {
              "internalType": "address payable",
              "name": "seller",
              "type": "address"
            },
            {
              "internalType": "address payable",
              "name": "owner",
              "type": "address"
            },
            {
              "internalType": "uint256",
              "name": "price",
              "type": "uint256"
            },
            {
              "internalType": "bool",
              "name": "listed",
              "type": "bool"
            },
            {
              "internalType": "uint256",
              "name": "royaltyPrice",
              "type": "uint256"
            },
            {
              "internalType": "enum ArtiziaMarketplace.ListingType",
              "name": "listingType",
              "type": "uint8"
            },
            {
              "internalType": "enum ArtiziaMarketplace.PaymentMethod",
              "name": "paymentMethod",
              "type": "uint8"
            },
            {
              "internalType": "bool",
              "name": "approve",
              "type": "bool"
            },
            {
              "internalType": "uint256",
              "name": "collectionId",
              "type": "uint256"
            }
          ],
          "internalType": "struct ArtiziaMarketplace.NFT[]",
          "name": "",
          "type": "tuple[]"
        }
      ],
      "stateMutability": "view",
      "type": "function"
    },
    {
      "inputs": [
        {
          "internalType": "address",
          "name": "_user",
          "type": "address"
        }
      ],
      "name": "getMyListedNfts",
      "outputs": [
        {
          "components": [
            {
              "internalType": "address",
              "name": "nftContract",
              "type": "address"
            },
            {
              "internalType": "uint256",
              "name": "tokenId",
              "type": "uint256"
            },
            {
              "internalType": "address payable",
              "name": "firstOwner",
              "type": "address"
            },
            {
              "internalType": "address payable",
              "name": "seller",
              "type": "address"
            },
            {
              "internalType": "address payable",
              "name": "owner",
              "type": "address"
            },
            {
              "internalType": "uint256",
              "name": "price",
              "type": "uint256"
            },
            {
              "internalType": "bool",
              "name": "listed",
              "type": "bool"
            },
            {
              "internalType": "uint256",
              "name": "royaltyPrice",
              "type": "uint256"
            },
            {
              "internalType": "enum ArtiziaMarketplace.ListingType",
              "name": "listingType",
              "type": "uint8"
            },
            {
              "internalType": "enum ArtiziaMarketplace.PaymentMethod",
              "name": "paymentMethod",
              "type": "uint8"
            },
            {
              "internalType": "bool",
              "name": "approve",
              "type": "bool"
            },
            {
              "internalType": "uint256",
              "name": "collectionId",
              "type": "uint256"
            }
          ],
          "internalType": "struct ArtiziaMarketplace.NFT[]",
          "name": "",
          "type": "tuple[]"
        }
      ],
      "stateMutability": "view",
      "type": "function"
    },
    {
      "inputs": [
        {
          "internalType": "address",
          "name": "_user",
          "type": "address"
        }
      ],
      "name": "getMyNfts",
      "outputs": [
        {
          "components": [
            {
              "internalType": "address",
              "name": "nftContract",
              "type": "address"
            },
            {
              "internalType": "uint256",
              "name": "tokenId",
              "type": "uint256"
            },
            {
              "internalType": "address payable",
              "name": "firstOwner",
              "type": "address"
            },
            {
              "internalType": "address payable",
              "name": "seller",
              "type": "address"
            },
            {
              "internalType": "address payable",
              "name": "owner",
              "type": "address"
            },
            {
              "internalType": "uint256",
              "name": "price",
              "type": "uint256"
            },
            {
              "internalType": "bool",
              "name": "listed",
              "type": "bool"
            },
            {
              "internalType": "uint256",
              "name": "royaltyPrice",
              "type": "uint256"
            },
            {
              "internalType": "enum ArtiziaMarketplace.ListingType",
              "name": "listingType",
              "type": "uint8"
            },
            {
              "internalType": "enum ArtiziaMarketplace.PaymentMethod",
              "name": "paymentMethod",
              "type": "uint8"
            },
            {
              "internalType": "bool",
              "name": "approve",
              "type": "bool"
            },
            {
              "internalType": "uint256",
              "name": "collectionId",
              "type": "uint256"
            }
          ],
          "internalType": "struct ArtiziaMarketplace.NFT[]",
          "name": "",
          "type": "tuple[]"
        }
      ],
      "stateMutability": "view",
      "type": "function"
    },
    {
      "inputs": [
        {
          "internalType": "uint256",
          "name": "_tokenId",
          "type": "uint256"
        }
      ],
      "name": "getStatusOfAuction",
      "outputs": [
        {
          "internalType": "bool",
          "name": "",
          "type": "bool"
        }
      ],
      "stateMutability": "view",
      "type": "function"
    },
    {
      "inputs": [
        {
          "internalType": "uint8",
          "name": "level",
          "type": "uint8"
        }
      ],
      "name": "getSubscriptionFee",
      "outputs": [
        {
          "internalType": "uint256",
          "name": "",
          "type": "uint256"
        }
      ],
      "stateMutability": "view",
      "type": "function"
    },
    {
      "inputs": [
        {
          "internalType": "address",
          "name": "_user",
          "type": "address"
        }
      ],
      "name": "getUsersNfts",
      "outputs": [
        {
          "components": [
            {
              "internalType": "address",
              "name": "nftContract",
              "type": "address"
            },
            {
              "internalType": "uint256",
              "name": "tokenId",
              "type": "uint256"
            },
            {
              "internalType": "address payable",
              "name": "firstOwner",
              "type": "address"
            },
            {
              "internalType": "address payable",
              "name": "seller",
              "type": "address"
            },
            {
              "internalType": "address payable",
              "name": "owner",
              "type": "address"
            },
            {
              "internalType": "uint256",
              "name": "price",
              "type": "uint256"
            },
            {
              "internalType": "bool",
              "name": "listed",
              "type": "bool"
            },
            {
              "internalType": "uint256",
              "name": "royaltyPrice",
              "type": "uint256"
            },
            {
              "internalType": "enum ArtiziaMarketplace.ListingType",
              "name": "listingType",
              "type": "uint8"
            },
            {
              "internalType": "enum ArtiziaMarketplace.PaymentMethod",
              "name": "paymentMethod",
              "type": "uint8"
            },
            {
              "internalType": "bool",
              "name": "approve",
              "type": "bool"
            },
            {
              "internalType": "uint256",
              "name": "collectionId",
              "type": "uint256"
            }
          ],
          "internalType": "struct ArtiziaMarketplace.NFT[]",
          "name": "",
          "type": "tuple[]"
        }
      ],
      "stateMutability": "view",
      "type": "function"
    },
    {
      "inputs": [
        {
          "internalType": "address",
          "name": "",
          "type": "address"
        },
        {
          "internalType": "address",
          "name": "",
          "type": "address"
        }
      ],
      "name": "isFan",
      "outputs": [
        {
          "internalType": "bool",
          "name": "",
          "type": "bool"
        }
      ],
      "stateMutability": "view",
      "type": "function"
    },
    {
      "inputs": [
        {
          "internalType": "address",
          "name": "_nftContract",
          "type": "address"
        },
        {
          "internalType": "uint256[]",
          "name": "_tokenId",
          "type": "uint256[]"
        },
        {
          "internalType": "uint256[]",
          "name": "_price",
          "type": "uint256[]"
        },
        {
          "internalType": "uint256[]",
          "name": "_royaltyPrice",
          "type": "uint256[]"
        },
        {
          "internalType": "uint256",
          "name": "_listingType",
          "type": "uint256"
        },
        {
          "internalType": "uint256[]",
          "name": "_startTime",
          "type": "uint256[]"
        },
        {
          "internalType": "uint256[]",
          "name": "_endTime",
          "type": "uint256[]"
        },
        {
          "internalType": "uint256",
          "name": "_collectionId",
          "type": "uint256"
        },
        {
          "internalType": "uint256",
          "name": "_paymentMethod",
          "type": "uint256"
        }
      ],
      "name": "listNft",
      "outputs": [],
      "stateMutability": "payable",
      "type": "function"
    },
    {
      "inputs": [],
      "name": "owner",
      "outputs": [
        {
          "internalType": "address",
          "name": "",
          "type": "address"
        }
      ],
      "stateMutability": "view",
      "type": "function"
    },
    {
      "inputs": [
        {
          "internalType": "address",
          "name": "addressToRemove",
          "type": "address"
        }
      ],
      "name": "removeFans",
      "outputs": [],
      "stateMutability": "nonpayable",
      "type": "function"
    },
    {
      "inputs": [],
      "name": "renounceOwnership",
      "outputs": [],
      "stateMutability": "nonpayable",
      "type": "function"
    },
    {
      "inputs": [
        {
          "internalType": "address",
          "name": "_nftContract",
          "type": "address"
        },
        {
          "internalType": "uint256",
          "name": "_tokenId",
          "type": "uint256"
        },
        {
          "internalType": "uint256",
          "name": "_price",
          "type": "uint256"
        },
        {
          "internalType": "uint256",
          "name": "_listingType",
          "type": "uint256"
        },
        {
          "internalType": "uint256",
          "name": "_startTime",
          "type": "uint256"
        },
        {
          "internalType": "uint256",
          "name": "_endTime",
          "type": "uint256"
        }
      ],
      "name": "resellNft",
      "outputs": [],
      "stateMutability": "nonpayable",
      "type": "function"
    },
    {
      "inputs": [
        {
          "internalType": "enum ArtiziaMarketplace.SubscriptionLevel",
          "name": "",
          "type": "uint8"
        }
      ],
      "name": "subscriptionFees",
      "outputs": [
        {
          "internalType": "uint256",
          "name": "",
          "type": "uint256"
        }
      ],
      "stateMutability": "view",
      "type": "function"
    },
    {
      "inputs": [
        {
          "internalType": "uint256",
          "name": "usdtAmountOut",
          "type": "uint256"
        }
      ],
      "name": "swapETHForUSDT",
      "outputs": [
        {
          "internalType": "uint256",
          "name": "",
          "type": "uint256"
        }
      ],
      "stateMutability": "payable",
      "type": "function"
    },
    {
      "inputs": [
        {
          "internalType": "uint256",
          "name": "usdtAmountIn",
          "type": "uint256"
        }
      ],
      "name": "swapUSDTForETH",
      "outputs": [
        {
          "internalType": "uint256",
          "name": "",
          "type": "uint256"
        }
      ],
      "stateMutability": "nonpayable",
      "type": "function"
    },
    {
      "inputs": [
        {
          "internalType": "address",
          "name": "newOwner",
          "type": "address"
        }
      ],
      "name": "transferOwnership",
      "outputs": [],
      "stateMutability": "nonpayable",
      "type": "function"
    },
    {
      "inputs": [
        {
          "internalType": "address",
          "name": "_user",
          "type": "address"
        }
      ],
      "name": "unbanUser",
      "outputs": [],
      "stateMutability": "nonpayable",
      "type": "function"
    },
    {
      "stateMutability": "payable",
      "type": "receive"
    }
  ],
  "bytecode": "0x6080604052600e80546001600160a01b0319908116737a250d5630b4cf539739df2c5dacb4c659f2488d17909155600f805490911673dac17f958d2ee523a2206206994597c13d831ec71790553480156200005957600080fd5b50604051620061a1380380620061a18339810160408190526200007c9162000213565b60016000556200008c3362000113565b600480546001600160a01b03199081163317909155600e546010805483166001600160a01b039283161790556011805491841691909216179055620000d46000609662000165565b620000e26001609662000165565b620000f06002609662000165565b620000fe6003606462000165565b6200010c6004600062000165565b506200025b565b600180546001600160a01b038381166001600160a01b0319831681179093556040519116919082907f8be0079c531659141344cd1fd0a4f28419497f9722a3daafe3b4186f6b6457e090600090a35050565b6200016f620001b2565b80600d600084600481111562000189576200018962000245565b60048111156200019d576200019d62000245565b81526020810191909152604001600020555050565b6001546001600160a01b03163314620002115760405162461bcd60e51b815260206004820181905260248201527f4f776e61626c653a2063616c6c6572206973206e6f7420746865206f776e6572604482015260640160405180910390fd5b565b6000602082840312156200022657600080fd5b81516001600160a01b03811681146200023e57600080fd5b9392505050565b634e487b7160e01b600052602160045260246000fd5b615f36806200026b6000396000f3fe6080604052600436106102325760003560e01c806398dd36bf1161012d578063bbffa07b116100b0578063d6fc3dbd11610077578063d6fc3dbd146107eb578063e4fb2ab21461080b578063ed5a1c0f1461082b578063f2fde38b14610866578063f41dfb1814610886578063f6c1b77a1461089957005b8063bbffa07b14610754578063c189205814610774578063c36ac2d214610794578063d12824f1146107b4578063d6cbb202146107d457005b8063ace5e90e116100f4578063ace5e90e146105be578063aeb46a1b146105de578063b32ac0c61461060b578063b4fa04121461061e578063b9e07df1146106a357005b806398dd36bf146104b15780639a6e94be146104c65780639c744058146105205780639ea36e8814610540578063a8ab8c031461059157005b80635274cff6116101b55780638090551e1161017c5780638090551e1461040b5780638988d0781461041e5780638cd410f41461045e5780638d6cb3fb1461047e5780638da5cb5b1461049357005b80635274cff6146103515780635ca11fa31461037e578063715018a61461039e578063719b2188146103b357806379b36943146103d357005b80634348478b116101f95780634348478b146102cb5780634afbcdae146102de5780634d12b695146102fe5780634d3fb8171461031e5780635021b42b1461033e57005b806310d86b1f1461023b57806330221fc51461025b57806331824a491461026e57806331a7a70f146102985780633fa9df4b146102b857005b3661023957005b005b34801561024757600080fd5b5061023961025636600461504a565b6108b9565b610239610269366004615078565b61097f565b34801561027a57600080fd5b506002546102859081565b6040519081526020015b60405180910390f35b3480156102a457600080fd5b506102396102b336600461513a565b610f4d565b6102396102c636600461523e565b611188565b6102396102d936600461533d565b611834565b3480156102ea57600080fd5b506102856102f936600461536f565b611d36565b34801561030a57600080fd5b5061023961031936600461504a565b611d67565b34801561032a57600080fd5b50610285610339366004615391565b611d90565b61023961034c3660046153ac565b611e06565b34801561035d57600080fd5b5061037161036c36600461504a565b612664565b60405161028f9190615452565b34801561038a57600080fd5b5061023961039936600461536f565b612954565b3480156103aa57600080fd5b506102396129ee565b3480156103bf57600080fd5b506102396103ce36600461504a565b612a02565b3480156103df57600080fd5b50600e546103f3906001600160a01b031681565b6040516001600160a01b03909116815260200161028f565b610285610419366004615535565b612b58565b34801561042a57600080fd5b5061044e61043936600461504a565b600b6020526000908152604090205460ff1681565b604051901515815260200161028f565b34801561046a57600080fd5b50610285610479366004615535565b612da1565b34801561048a57600080fd5b50610371613039565b34801561049f57600080fd5b506001546001600160a01b03166103f3565b3480156104bd57600080fd5b50610285613254565b3480156104d257600080fd5b506105056104e1366004615535565b600660205260009081526040902080546001820154600290920154909160ff169083565b6040805193845291151560208401529082015260600161028f565b34801561052c57600080fd5b5061044e61053b366004615535565b613323565b34801561054c57600080fd5b5061044e61055b366004615535565b6000908152600560209081526040808320600301546001600160a01b031683526007825280832033845290915290205460ff1690565b34801561059d57600080fd5b506105b16105ac36600461504a565b613368565b60405161028f9190615592565b3480156105ca57600080fd5b506102396105d93660046155a5565b61340f565b3480156105ea57600080fd5b506102856105f93660046155f1565b600d6020526000908152604090205481565b610239610619366004615612565b613765565b34801561062a57600080fd5b5061068f610639366004615535565b600a60205260009081526040902080546001820154600283015460038401546004850154600586015460069096015494956001600160a01b0394851695939492939192909190811690600160a01b900460ff1688565b60405161028f989796959493929190615661565b3480156106af57600080fd5b5061073c6106be366004615535565b600560208190526000918252604090912080546001820154600283015460038401546004850154958501546006860154600787015460088801546009909801546001600160a01b03978816999698958816979485169690941694929360ff92831693919282811692610100810482169262010000909104909116908c565b60405161028f9c9b9a999897969594939291906156b6565b34801561076057600080fd5b506103f361076f366004615734565b613ebf565b34801561078057600080fd5b50600f546103f3906001600160a01b031681565b3480156107a057600080fd5b506103716107af366004615535565b613ef7565b3480156107c057600080fd5b506103716107cf36600461504a565b614124565b3480156107e057600080fd5b506003546102859081565b3480156107f757600080fd5b5061044e610806366004615760565b614387565b34801561081757600080fd5b50610285610826366004615734565b6145ca565b34801561083757600080fd5b5061044e6108463660046157b6565b600760209081526000928352604080842090915290825290205460ff1681565b34801561087257600080fd5b5061023961088136600461504a565b6145e6565b61023961089436600461536f565b61465f565b3480156108a557600080fd5b506103716108b436600461504a565b614af7565b6108c1614d5a565b6001600160a01b0381166000908152600b60205260408120805460ff191660011790556108ed60035490565b905060005b8181101561097a576000818152600560205260409020600301546001600160a01b038085169116036109685760008181526005602052604090206004810180546001600160a01b03199081163017909155600382018054909116905560068101805460ff19169055600801805462ff0000191690555b80610972816157fa565b9150506108f2565b505050565b600083815260056020526040902060080154839062010000900460ff1615156001146109c65760405162461bcd60e51b81526004016109bd90615813565b60405180910390fd5b336000908152600b602052604090205460ff16156109f65760405162461bcd60e51b81526004016109bd9061586b565b6109fe614db4565b600084815260056020526040812090610a1685611d90565b90506000610a2385611d90565b6003840154909150336001600160a01b0390911603610a545760405162461bcd60e51b81526004016109bd906158a0565b60038301546001600160a01b03166000908152600b602052604090205460ff1615610a915760405162461bcd60e51b81526004016109bd906158e5565b6000600884015460ff166001811115610aac57610aac615418565b14610ac95760405162461bcd60e51b81526004016109bd9061593b565b600683015460ff161515600114610af25760405162461bcd60e51b81526004016109bd90615972565b6000878152600560209081526040808320600301546001600160a01b0316835260078252808320338085529252822054829060ff1615610b7a5760008a815260066020526040902060020154610b49903490614e0d565b610b5390346159a9565b905080341015610b755760405162461bcd60e51b81526004016109bd906159bc565b610ba1565b8560050154341015610b9e5760405162461bcd60e51b81526004016109bd906159bc565b50345b600286015460038701546001600160a01b03918216911603610cc857610bc8818686614e2c565b610bd290826159a9565b90508a600003610c225760038601546040516001600160a01b039091169082156108fc029083906000818181858888f19350505050158015610c18573d6000803e3d6000fd5b5060019250610e2f565b610c2b81612b58565b506000610c36613254565b610c409083615a02565b90506000610c5182620f4240615a02565b60115460038a015460405163a9059cbb60e01b81529293506001600160a01b039182169263a9059cbb92610c8b9216908590600401615a19565b600060405180830381600087803b158015610ca557600080fd5b505af1158015610cb9573d6000803e3d6000fd5b50505050600194505050610e2f565b60008190506000610cdd828960070154614e0d565b9050610cea838888614e2c565b610cf482846159a9565b610cfe91906159a9565b60028901546040519194506001600160a01b03169082156108fc029083906000818181858888f19350505050158015610d3b573d6000803e3d6000fd5b508c600003610d8a5760038801546040516001600160a01b039091169084156108fc029085906000818181858888f19350505050158015610d80573d6000803e3d6000fd5b5060019450610e2c565b610d9383612b58565b506000610d9e613254565b610da89085615a32565b90506000610db982620f4240615a02565b60115460038c015460405163a9059cbb60e01b81529293506001600160a01b039182169263a9059cbb92610df39216908590600401615a19565b600060405180830381600087803b158015610e0d57600080fd5b505af1158015610e21573d6000803e3d6000fd5b505050506001965050505b50505b8215610f355760018601546040516323b872dd60e01b81526001600160a01b038e16916323b872dd91610e69913091879190600401615a54565b600060405180830381600087803b158015610e8357600080fd5b505af1158015610e97573d6000803e3d6000fd5b50505060018701546003880154604051600080516020615ee18339815191529350610ed092916001600160a01b03169086903490615a78565b60405180910390a16004860180546001600160a01b0384166001600160a01b031991821617909155600387018054909116905560068601805460ff19169055610f1d600280546001019055565b60018601546000908152600660205260408120600201555b505050505050610f456001600055565b505050505050565b600081516001600160401b03811115610f6857610f686150d1565b604051908082528060200260200182016040528015610f91578160200160208202803683370190505b50905060005b825181101561114c576000838281518110610fb457610fb4615a9d565b6020026020010151905060006001600160a01b0316816001600160a01b0316036110115761100c60405180604001604052806013815260200172496e76616c69642066616e206164647265737360681b815250614e72565b611139565b3360009081526007602090815260408083206001600160a01b038516845290915290205460ff16156110765761100c6040518060400160405280601881526020017720b2323932b9b99034b99030b63932b0b23c9030903330b760411b815250614e72565b3360008181526008602090815260408083208054600180820183559185528385200180546001600160a01b0319166001600160a01b0388169081179091559484526007835281842094845293825291829020805460ff19169093179092558051808201909152601181527011985b881859191959081d1bc81b1a5cdd607a1b9181019190915261110590614e72565b8083838151811061111857611118615a9d565b60200260200101906001600160a01b031690816001600160a01b0316815250505b5080611144816157fa565b915050610f97565b507fa99d709f8a9c899ba566c9b2515b1715239783ff40126e24d86e081505a7f50e8160405161117c9190615592565b60405180910390a15050565b611190614db4565b336000908152600b602052604090205460ff16156111c05760405162461bcd60e51b81526004016109bd9061586b565b60005b885181101561181e5760008882815181106111e0576111e0615a9d565b6020026020010151101561120757604051635a93095360e11b815260040160405180910390fd5b6001861115611229576040516317142a4d60e01b815260040160405180910390fd5b896001600160a01b03166323b872dd33308c858151811061124c5761124c615a9d565b60200260200101516040518463ffffffff1660e01b815260040161127293929190615a54565b600060405180830381600087803b15801561128c57600080fd5b505af11580156112a0573d6000803e3d6000fd5b505050506112b2600380546001019055565b6000838152600c6020526040902089518a90839081106112d4576112d4615a9d565b602002602001015190806001815401808255809150506001900390600052602060002001600090919091909150556040518061018001604052808b6001600160a01b031681526020018a838151811061132f5761132f615a9d565b60200260200101518152602001336001600160a01b03168152602001336001600160a01b03168152602001306001600160a01b0316815260200189838151811061137b5761137b615a9d565b602002602001015181526020016001151581526020018883815181106113a3576113a3615a9d565b602002602001015181526020018760018111156113c2576113c2615418565b60018111156113d3576113d3615418565b81526020018360028111156113ea576113ea615418565b60028111156113fb576113fb615418565b815260200160011515815260200184815250600560008b848151811061142357611423615a9d565b6020908102919091018101518252818101929092526040908101600020835181546001600160a01b03199081166001600160a01b039283161783559385015160018084019190915592850151600283018054861691831691909117905560608501516003830180548616918316919091179055608085015160048301805490951691161790925560a0830151600583015560c083015160068301805460ff1990811692151592909217905560e0840151600784015561010084015160088401805491939092919091169083818111156114fe576114fe615418565b021790555061012082015160088201805461ff00191661010083600281111561152957611529615418565b02179055506101408201518160080160026101000a81548160ff021916908315150217905550610160820151816009015590505060405180606001604052808a838151811061157a5761157a615a9d565b602002602001015181526020016000151581526020016000815250600660008b84815181106115ab576115ab615a9d565b602090810291909101810151825281810192909252604090810160002083518155918301516001808401805460ff1916921515929092179091559201516002909101558603611797576040518061010001604052808a838151811061161257611612615a9d565b60200260200101518152602001336001600160a01b0316815260200189838151811061164057611640615a9d565b6020026020010151815260200186838151811061165f5761165f615a9d565b6020026020010151815260200185838151811061167e5761167e615a9d565b602002602001015181526020016000815260200160006001600160a01b031681526020018360028111156116b4576116b4615418565b60028111156116c5576116c5615418565b815250600a60008b84815181106116de576116de615a9d565b602090810291909101810151825281810192909252604090810160002083518155918301516001830180546001600160a01b03199081166001600160a01b039384161790915591840151600280850191909155606085015160038501556080850151600485015560a0850151600585015560c085015160068501805494851691909316908117835560e0860151936001600160a81b0319161790600160a01b90849081111561178f5761178f615418565b021790555050505b7f380acab0ee1d651da065961944240ee750b6935ba0edefa78afb1c8e076762868a8a83815181106117cb576117cb615a9d565b602002602001015133308c86815181106117e7576117e7615a9d565b6020026020010151888c6040516118049796959493929190615ab3565b60405180910390a180611816816157fa565b9150506111c3565b506118296001600055565b505050505050505050565b6000848152600a602052604090206003015484904211801561186657506000818152600a602052604090206004015442105b6118825760405162461bcd60e51b81526004016109bd90615af7565b600085815260056020526040902060080154859062010000900460ff1615156001146118c05760405162461bcd60e51b81526004016109bd90615813565b336000908152600b602052604090205460ff16156118f05760405162461bcd60e51b81526004016109bd9061586b565b60008681526006602052604081206001015460ff1615611959576000878152600560209081526040808320600301546001600160a01b031683526007825280832033845290915290205460ff166119595760405162461bcd60e51b81526004016109bd90615b40565b6000878152600a60205260409020600601546001600160a01b03166119a9576000878152600a60205260409020600201548410156119a95760405162461bcd60e51b81526004016109bd90615b77565b6000878152600a60205260409020600501548410156119da5760405162461bcd60e51b81526004016109bd90615bae565b600160008881526005602052604090206008015460ff166001811115611a0257611a02615418565b14611a1f5760405162461bcd60e51b81526004016109bd90615c0b565b60008781526005602052604090206006015460ff161515600114611a555760405162461bcd60e51b81526004016109bd90615972565b6011546040516323b872dd60e01b81526001600160a01b03909116906323b872dd90611a8990339030908b90600401615a54565b600060405180830381600087803b158015611aa357600080fd5b505af1158015611ab7573d6000803e3d6000fd5b5050506000888152600a60205260409020600681015460058201549192506001600160a01b0316908115611bf95760016006840154600160a01b900460ff166002811115611b0757611b07615418565b03611b9a576000611b16613254565b611b209083615a32565b9050611b2f81620f4240615a02565b60115460405163a9059cbb60e01b81529192506001600160a01b03169063a9059cbb90611b629086908590600401615a19565b600060405180830381600087803b158015611b7c57600080fd5b505af1158015611b90573d6000803e3d6000fd5b5050505050611bf9565b60006006840154600160a01b900460ff166002811115611bbc57611bbc615418565b03611bf9576040516001600160a01b0383169082156108fc029083906000818181858888f19350505050158015611bf7573d6000803e3d6000fd5b505b600583018790556006830180546001600160a01b03191633179055876002811115611c2657611c26615418565b60068401805460ff60a01b1916600160a01b836002811115611c4a57611c4a615418565b0217905550611c5b42610258615c3e565b83600401541015611cd05761012c836004016000828254611c7c9190615c3e565b9091555050600183015460048401546040517f8e1cb85d0855921b3c958b068fa707efb7db88099af764dd47f37eef82c3334d92611cc7928e926001600160a01b0390921691615c51565b60405180910390a15b600183810154600685015460058601546040519397507f4307392e6f0e441e74a4982d9fa9ddc49b3cd9d3902a9d3ecab0ad3c60a0acd193611d22938f936001600160a01b0391821693911691615a78565b60405180910390a150505050505050505050565b600c6020528160005260406000208181548110611d5257600080fd5b90600052602060002001600091509150505481565b611d6f614d5a565b6001600160a01b03166000908152600b60205260409020805460ff19169055565b60008160ff16600303611dcb57600d600060045b6004811115611db557611db5615418565b8152602001908152602001600020549050919050565b8160ff16600203611de157600d60006003611da4565b8160ff16600103611df757600d60006002611da4565b600d600080611da4565b919050565b600085815260056020526040902060080154859062010000900460ff161515600114611e445760405162461bcd60e51b81526004016109bd90615813565b336000908152600b602052604090205460ff1615611e745760405162461bcd60e51b81526004016109bd9061586b565b611e7c614db4565b6000600560008881526020019081526020016000209050611ec36040518060400160405280600e81526020016d15195cdd080c0817d85b5bdd5b9d60921b81525085614eb5565b6003810154336001600160a01b0390911603611ef15760405162461bcd60e51b81526004016109bd906158a0565b6000611efc87611d90565b90506000611f0987611d90565b9050611f4560405180604001604052806018815260200177546573742030205f616d6f756e74496e455448496e57656960401b81525086614eb5565b60038301546001600160a01b03166000908152600b602052604090205460ff1615611f825760405162461bcd60e51b81526004016109bd906158e5565b6000600884015460ff166001811115611f9d57611f9d615418565b14611fba5760405162461bcd60e51b81526004016109bd9061593b565b6000898152600560209081526040808320600301546001600160a01b031683526007825280832033845290915281205460ff166120555783600501548610156120555760405162461bcd60e51b815260206004820152602760248201527f4e6f7420656e6f75676820616d6f756e7420746f20636f7665722061736b696e6044820152666720707269636560c81b60648201526084016109bd565b6011546040516323b872dd60e01b8152600091339183916001600160a01b0316906323b872dd9061208e90859030908f90600401615a54565b600060405180830381600087803b1580156120a857600080fd5b505af11580156120bc573d6000803e3d6000fd5b50505050600287015460038801546001600160a01b0391821691160361221e576121176040518060400160405280601981526020017815195cdd080c88199a5c9cdd13dddb995c8817d85b5bdd5b9d603a1b8152508b614eb5565b6121228a8787614e2c565b61212c908b6159a9565b93506121506040518060600160405280602b8152602001615eb6602b913985614eb5565b8d6001036121cb57601154600388015460405163a9059cbb60e01b81526001600160a01b039283169263a9059cbb92612190929116908890600401615a19565b600060405180830381600087803b1580156121aa57600080fd5b505af11580156121be573d6000803e3d6000fd5b5050505060019250612518565b60006121d685612da1565b60038901546040519192506001600160a01b03169082156108fc029083906000818181858888f19350505050158015612213573d6000803e3d6000fd5b506001935050612518565b600061222e8b8960070154614e0d565b905061226f6040518060400160405280601a81526020017f54657374203420726573656c6c205f726f79616c74794665652000000000000081525082614eb5565b612279818c6159a9565b915061229d604051806060016040528060228152602001615e946022913983614eb5565b6122a8828888614e2c565b6122b290836159a9565b94506122f36040518060400160405280601e81526020017f54657374203620726573656c6c205f616d6f756e74546f42655061696420000081525086614eb5565b601154600289015460405163a9059cbb60e01b81526001600160a01b039283169263a9059cbb9261232b929116908590600401615a19565b600060405180830381600087803b15801561234557600080fd5b505af1158015612359573d6000803e3d6000fd5b5050505061239b6040518060400160405280601e81526020017f54657374203720726573656c6c205f616d6f756e74546f426550616964200000815250614e72565b8e60010361243d576123ca6040518060400160405280600681526020016554657374203760d01b815250614e72565b601154600389015460405163a9059cbb60e01b81526001600160a01b039283169263a9059cbb92612402929116908990600401615a19565b600060405180830381600087803b15801561241c57600080fd5b505af1158015612430573d6000803e3d6000fd5b50505050600193506124ee565b61244685612da1565b5061246e604051806040016040528060068152602001650a8cae6e840760d31b815250614e72565b6000612478613254565b6124829087615a02565b90506124ab6040518060400160405280600681526020016554657374203960d01b815250614e72565b60038901546040516001600160a01b039091169082156108fc029083906000818181858888f193505050501580156124e7573d6000803e3d6000fd5b5060019450505b612516604051806040016040528060078152602001660546573742031360cc1b815250614e72565b505b8215612649578e6001600160a01b03166323b872dd30848a600101546040518463ffffffff1660e01b815260040161255293929190615a54565b600060405180830381600087803b15801561256c57600080fd5b505af1158015612580573d6000803e3d6000fd5b505050506125ac604051806040016040528060078152602001665465737420313160c81b815250614e72565b60018701546003880154604051600080516020615ee1833981519152926125e49290916001600160a01b039091169086908e90615a78565b60405180910390a16004870180546001600160a01b0384166001600160a01b031991821617909155600388018054909116905560068701805460ff19169055612631600280546001019055565b60018701546000908152600660205260408120600201555b5050505050505061265a6001600055565b5050505050505050565b336000908152600b602052604090205460609060ff16156126975760405162461bcd60e51b81526004016109bd9061586b565b60006126a260035490565b90506000805b82811015612735576000818152600560205260409020600301546001600160a01b0386811691161480156126ed575060008181526005602052604090206006015460ff165b8015612710575060008181526005602052604090206008015462010000900460ff165b15612723578161271f816157fa565b9250505b8061272d816157fa565b9150506126a8565b506000816001600160401b03811115612750576127506150d1565b60405190808252806020026020018201604052801561278957816020015b612776614fc8565b81526020019060019003908161276e5790505b5090506000805b84811015612949576000818152600560205260409020600301546001600160a01b0388811691161480156127d5575060008181526005602052604090206006015460ff165b80156127f8575060008181526005602052604090206008015462010000900460ff165b156129375760008181526005602081815260409283902083516101808101855281546001600160a01b039081168252600180840154948301949094526002830154811695820195909552600382015485166060820152600482015490941660808501529182015460a0840152600682015460ff908116151560c0850152600783015460e0850152600883015461010085019291169081111561289c5761289c615418565b60018111156128ad576128ad615418565b81526020016008820160019054906101000a900460ff1660028111156128d5576128d5615418565b60028111156128e6576128e6615418565b8152600882015462010000900460ff1615156020820152600990910154604090910152835184908490811061291d5761291d615a9d565b60200260200101819052508180612933906157fa565b9250505b80612941816157fa565b915050612790565b509095945050505050565b6000828152600560205260409020600301546001600160a01b031633146129d95760405162461bcd60e51b815260206004820152603360248201527f4f6e6c7920746865206f776e6572206f6620616e206e66742063616e20736574604482015272103234b9b1b7bab73a32b210383934b1b2b99760691b60648201526084016109bd565b60009182526006602052604090912060020155565b6129f6614d5a565b612a006000614efe565b565b336000908152600860205260408120905b815481101561097a57826001600160a01b0316828281548110612a3857612a38615a9d565b6000918252602090912001546001600160a01b031603612b465781548290612a62906001906159a9565b81548110612a7257612a72615a9d565b9060005260206000200160009054906101000a90046001600160a01b0316828281548110612aa257612aa2615a9d565b9060005260206000200160006101000a8154816001600160a01b0302191690836001600160a01b0316021790555081805480612ae057612ae0615c70565b6000828152602090819020600019908301810180546001600160a01b03191690559091019091556040516001600160a01b03851681527f89ec8e1c730740239f81b0dfce48eedca9d700bbc36fe56311fe9175c16f64ad910160405180910390a1505050565b80612b50816157fa565b915050612a13565b604080516002808252606082018352600092839291906020830190803683375050601054604080516315ab88c960e31b815290519394506001600160a01b039091169263ad5c4648925060048083019260209291908290030181865afa158015612bc6573d6000803e3d6000fd5b505050506040513d601f19601f82011682018060405250810190612bea9190615c86565b81600081518110612bfd57612bfd615a9d565b6001600160a01b039283166020918202929092010152600f54825191169082906001908110612c2e57612c2e615a9d565b6001600160a01b03929092166020928302919091018201526040805160028082526060820183526000939192909183019080368337505060105460405163d06ca61f60e01b81529293506001600160a01b03169163d06ca61f9150612c999087908690600401615ca3565b600060405180830381865afa158015612cb6573d6000803e3d6000fd5b505050506040513d6000823e601f3d908101601f19168201604052612cde9190810190615cc4565b60105481519192506001600160a01b031690637ff36ab590349084906001908110612d0b57612d0b615a9d565b60200260200101518530426040518663ffffffff1660e01b8152600401612d359493929190615d49565b60006040518083038185885af1158015612d53573d6000803e3d6000fd5b50505050506040513d6000823e601f3d908101601f19168201604052612d7c9190810190615cc4565b5080600181518110612d9057612d90615a9d565b602002602001015192505050919050565b604080516002808252606082018352600092839291906020830190803683375050600f5482519293506001600160a01b031691839150600090612de657612de6615a9d565b6001600160a01b03928316602091820292909201810191909152601054604080516315ab88c960e31b81529051919093169263ad5c46489260048083019391928290030181865afa158015612e3f573d6000803e3d6000fd5b505050506040513d601f19601f82011682018060405250810190612e639190615c86565b81600181518110612e7657612e76615a9d565b6001600160a01b039283166020918202929092010152601154600e5460405163095ea7b360e01b81529183169263095ea7b392612ebb92909116908790600401615a19565b600060405180830381600087803b158015612ed557600080fd5b505af1158015612ee9573d6000803e3d6000fd5b506000925060029150612ef99050565b604051908082528060200260200182016040528015612f22578160200160208202803683370190505b5060105460405163d06ca61f60e01b81529192506001600160a01b03169063d06ca61f90612f569087908690600401615ca3565b600060405180830381865afa158015612f73573d6000803e3d6000fd5b505050506040513d6000823e601f3d908101601f19168201604052612f9b9190810190615cc4565b60105481519192506001600160a01b031690634a25d94a9083906001908110612fc657612fc6615a9d565b6020026020010151868530426040518663ffffffff1660e01b8152600401612ff2959493929190615d7e565b6000604051808303816000875af1158015613011573d6000803e3d6000fd5b505050506040513d6000823e601f3d908101601f19168201604052612d7c9190810190615cc4565b6060600061304660035490565b9050600061305360025490565b61305d90836159a9565b90506000816001600160401b03811115613079576130796150d1565b6040519080825280602002602001820160405280156130b257816020015b61309f614fc8565b8152602001906001900390816130975790505b5090506000805b8481101561324a5760008181526005602052604090206006015460ff1680156130f9575060008181526005602052604090206008015462010000900460ff165b156132385760008181526005602081815260409283902083516101808101855281546001600160a01b039081168252600180840154948301949094526002830154811695820195909552600382015485166060820152600482015490941660808501529182015460a0840152600682015460ff908116151560c0850152600783015460e0850152600883015461010085019291169081111561319d5761319d615418565b60018111156131ae576131ae615418565b81526020016008820160019054906101000a900460ff1660028111156131d6576131d6615418565b60028111156131e7576131e7615418565b8152600882015462010000900460ff1615156020820152600990910154604090910152835184908490811061321e5761321e615a9d565b60200260200101819052508180613234906157fa565b9250505b80613242816157fa565b9150506130b9565b5090949350505050565b60008073ee9f2375b4bdf6387aa8265dd4fb8f16512a1d4690506000816001600160a01b031663feaf968c6040518163ffffffff1660e01b815260040160a060405180830381865afa1580156132ae573d6000803e3d6000fd5b505050506040513d601f19601f820116820180604052508101906132d29190615dd4565b5050509150506000811361331d5760405162461bcd60e51b8152602060048201526012602482015271496e76616c6964205553445420707269636560701b60448201526064016109bd565b92915050565b6000818152600a60205260408120600301544211801561335357506000828152600a602052604090206004015442105b1561336057506001919050565b506000919050565b336000908152600b602052604090205460609060ff161561339b5760405162461bcd60e51b81526004016109bd9061586b565b6001600160a01b0382166000908152600860209081526040918290208054835181840281018401909452808452909183018282801561340357602002820191906000526020600020905b81546001600160a01b031681526001909101906020018083116133e5575b50505050509050919050565b336000908152600b602052604090205460ff161561343f5760405162461bcd60e51b81526004016109bd9061586b565b613447614db4565b6000858152600560205260409020846134a25760405162461bcd60e51b815260206004820152601c60248201527f5072696365206d757374206265206174206c656173742031207765690000000060448201526064016109bd565b60048101546001600160a01b031633146135115760405162461bcd60e51b815260206004820152602a60248201527f4f6e6c7920746865206f776e6572206f6620616e206e66742063616e206c69736044820152693a103a34329037333a1760b11b60648201526084016109bd565b6040516323b872dd60e01b81526001600160a01b038816906323b872dd9061354190339030908b90600401615a54565b600060405180830381600087803b15801561355b57600080fd5b505af115801561356f573d6000803e3d6000fd5b5050506003820180546001600160a01b0319908116331790915560048301805490911630179055506005810185905560068101805460ff1916600190811790915584908111156135c1576135c1615418565b60088201805460ff1916600183818111156135de576135de615418565b02179055506001840361370957604051806101000160405280878152602001336001600160a01b031681526020018681526020018481526020018381526020016000815260200160006001600160a01b031681526020018260080160019054906101000a900460ff16600281111561365857613658615418565b90526000878152600a602090815260409182902083518155908301516001820180546001600160a01b03199081166001600160a01b039384161790915592840151600280840191909155606085015160038401556080850151600484015560a0850151600584015560c085015160068401805495861691909316908117835560e086015193946001600160a81b0319161790600160a01b90849081111561370157613701615418565b021790555050505b6137136002614f50565b7f380acab0ee1d651da065961944240ee750b6935ba0edefa78afb1c8e07676286878733308986600901548a6040516137529796959493929190615ab3565b60405180910390a150610f456001600055565b6000838152600a602052604090206004015442116137c55760405162461bcd60e51b815260206004820152601a60248201527f41756374696f6e20686173206e6f7420656e646564207965742e00000000000060448201526064016109bd565b60006137d083611d90565b905060006137dd83611d90565b6000868152600a60205260409020600601549091506001600160a01b0316156138b3576000858152600a60205260409020600601546001600160a01b031633148061384157506000858152600a60205260409020600101546001600160a01b031633145b6138ae5760405162461bcd60e51b815260206004820152603860248201527f4f6e6c792074686520686967686573742062696464657220616e6420746865206044820152771cd95b1b195c8818d85b8818db185a5b481d1a194813919560421b60648201526084016109bd565b613931565b6000858152600a60205260409020600101546001600160a01b031633146139315760405162461bcd60e51b815260206004820152602c60248201527f4f6e6c79207468652073656c6c65722063616e20636c6f73652074686520756e60448201526b39b7b6321030bab1ba34b7b760a11b60648201526084016109bd565b6000858152600560209081526040808320600a90925282206006810154919290916001600160a01b03166139fa576003830154600480850180546001600160a01b0319166001600160a01b0393841617905560068501805460ff19169055600184810154908601546040516323b872dd60e01b81528d8516946323b872dd946139bf94309492169201615a54565b600060405180830381600087803b1580156139d957600080fd5b505af11580156139ed573d6000803e3d6000fd5b5050505060019050613e6b565b60058201546000908190816008870154610100900460ff166002811115613a2357613a23615418565b03613ba05760016006860154600160a01b900460ff166002811115613a4a57613a4a615418565b03613a7f576000613a59613254565b613a639083615a32565b9050613a7281620f4240615a02565b50613a7c81612da1565b50505b600286015460038701546001600160a01b03918216911603613af357613aa6818989614e2c565b613ab090826159a9565b60038701546040519193506001600160a01b03169083156108fc029084906000818181858888f19350505050158015613aed573d6000803e3d6000fd5b50613da5565b613b0585600501548760070154614e0d565b9250613b12818989614e2c565b613b1c84836159a9565b613b2691906159a9565b60028701546040519193506001600160a01b03169084156108fc029085906000818181858888f19350505050158015613b63573d6000803e3d6000fd5b5060038601546040516001600160a01b039091169083156108fc029084906000818181858888f19350505050158015613aed573d6000803e3d6000fd5b60016008870154610100900460ff166002811115613bc057613bc0615418565b03613da55760006006860154600160a01b900460ff166002811115613be757613be7615418565b03613bf857613bf581612b58565b90505b600286015460038701546001600160a01b03918216911603613c9a57613c1f818989614e2c565b613c2990826159a9565b601154600388015460405163a9059cbb60e01b81529294506001600160a01b039182169263a9059cbb92613c639216908690600401615a19565b600060405180830381600087803b158015613c7d57600080fd5b505af1158015613c91573d6000803e3d6000fd5b50505050613da5565b613cac85600501548760070154614e0d565b9250613cb9818989614e2c565b613cc384836159a9565b613ccd91906159a9565b601154600388015460405163a9059cbb60e01b81529294506001600160a01b039182169263a9059cbb92613d079216908690600401615a19565b600060405180830381600087803b158015613d2157600080fd5b505af1158015613d35573d6000803e3d6000fd5b5050601154600289015460405163a9059cbb60e01b81526001600160a01b03928316945063a9059cbb9350613d7292909116908790600401615a19565b600060405180830381600087803b158015613d8c57600080fd5b505af1158015613da0573d6000803e3d6000fd5b505050505b83613e28578b6001600160a01b03166323b872dd308760060160009054906101000a90046001600160a01b031689600101546040518463ffffffff1660e01b8152600401613df593929190615a54565b600060405180830381600087803b158015613e0f57600080fd5b505af1158015613e23573d6000803e3d6000fd5b505050505b6006808601546004880180546001600160a01b0319166001600160a01b039092169190911790558601805460ff19169055613e67600280546001019055565b5050505b6001830154600384015460068401546005850154604051600080516020615ee183398151915294613eac9490936001600160a01b0391821693911691615a78565b60405180910390a1505050505050505050565b60086020528160005260406000208181548110613edb57600080fd5b6000918252602090912001546001600160a01b03169150829050565b60606000613f0460035490565b90506000613f1160025490565b613f1b90836159a9565b90506000816001600160401b03811115613f3757613f376150d1565b604051908082528060200260200182016040528015613f7057816020015b613f5d614fc8565b815260200190600190039081613f555790505b5090506000805b848110156129495760008181526005602052604090206006015460ff168015613fb0575060008181526005602052604090206009015487145b8015613fd3575060008181526005602052604090206008015462010000900460ff165b156141125760008181526005602081815260409283902083516101808101855281546001600160a01b039081168252600180840154948301949094526002830154811695820195909552600382015485166060820152600482015490941660808501529182015460a0840152600682015460ff908116151560c0850152600783015460e0850152600883015461010085019291169081111561407757614077615418565b600181111561408857614088615418565b81526020016008820160019054906101000a900460ff1660028111156140b0576140b0615418565b60028111156140c1576140c1615418565b8152600882015462010000900460ff161515602082015260099091015460409091015283518490849081106140f8576140f8615a9d565b6020026020010181905250818061410e906157fa565b9250505b8061411c816157fa565b915050613f77565b336000908152600b602052604090205460609060ff16156141575760405162461bcd60e51b81526004016109bd9061586b565b600061416260035490565b90506000805b828110156141b4576000818152600560205260409020600301546001600160a01b038087169116036141a2578161419e816157fa565b9250505b806141ac816157fa565b915050614168565b506000816001600160401b038111156141cf576141cf6150d1565b60405190808252806020026020018201604052801561420857816020015b6141f5614fc8565b8152602001906001900390816141ed5790505b5090506000805b84811015612949576000818152600560205260409020600301546001600160a01b038089169116036143755760008181526005602081815260409283902083516101808101855281546001600160a01b039081168252600180840154948301949094526002830154811695820195909552600382015485166060820152600482015490941660808501529182015460a0840152600682015460ff908116151560c0850152600783015460e085015260088301546101008501929116908111156142da576142da615418565b60018111156142eb576142eb615418565b81526020016008820160019054906101000a900460ff16600281111561431357614313615418565b600281111561432457614324615418565b8152600882015462010000900460ff1615156020820152600990910154604090910152835184908490811061435b5761435b615a9d565b60200260200101819052508180614371906157fa565b9250505b8061437f816157fa565b91505061420f565b6000614391614d5a565b6000805b84518110156145c1578481815181106143b0576143b0615a9d565b602090810291909101810151600081815260059092526040909120600801805462ff0000191662010000871580159182029290921790925591935061441a5750600160008381526005602052604090206008015460ff16600181111561441857614418615418565b145b15614575576000828152600a6020526040902060068101546001600160a01b03161561457357600681015460058201546001600160a01b039091169081156145705760016006840154600160a01b900460ff16600281111561447e5761447e615418565b0361451157600061448d613254565b6144979083615a32565b90506144a681620f4240615a02565b60115460405163a9059cbb60e01b81529192506001600160a01b03169063a9059cbb906144d99086908590600401615a19565b600060405180830381600087803b1580156144f357600080fd5b505af1158015614507573d6000803e3d6000fd5b5050505050614570565b60006006840154600160a01b900460ff16600281111561453357614533615418565b03614570576040516001600160a01b0383169082156108fc029083906000818181858888f1935050505015801561456e573d6000803e3d6000fd5b505b50505b505b6040805183815285151560208201527f6ffa1c2dfe558962660d78387d612607ef3f19ee482f7d51a12634d131e8db6e910160405180910390a1806145b9816157fa565b915050614395565b50919392505050565b60096020528160005260406000208181548110611d5257600080fd5b6145ee614d5a565b6001600160a01b0381166146535760405162461bcd60e51b815260206004820152602660248201527f4f776e61626c653a206e6577206f776e657220697320746865207a65726f206160448201526564647265737360d01b60648201526084016109bd565b61465c81614efe565b50565b6000828152600a602052604090206003015482904211801561469157506000818152600a602052604090206004015442105b6146ad5760405162461bcd60e51b81526004016109bd90615af7565b600083815260056020526040902060080154839062010000900460ff1615156001146146eb5760405162461bcd60e51b81526004016109bd90615813565b336000908152600b602052604090205460ff161561471b5760405162461bcd60e51b81526004016109bd9061586b565b60008481526006602052604081206001015460ff1615614784576000858152600560209081526040808320600301546001600160a01b031683526007825280832033845290915290205460ff166147845760405162461bcd60e51b81526004016109bd90615b40565b6000858152600a60205260409020600601546001600160a01b03166147d4576000858152600a60205260409020600201543410156147d45760405162461bcd60e51b81526004016109bd90615b77565b6000858152600a602052604090206005015434116148045760405162461bcd60e51b81526004016109bd90615bae565b600160008681526005602052604090206008015460ff16600181111561482c5761482c615418565b146148495760405162461bcd60e51b81526004016109bd90615c0b565b60008581526005602052604090206006015460ff16151560011461487f5760405162461bcd60e51b81526004016109bd90615972565b6000858152600a60205260409020600681015460058201546001600160a01b039091169081156149bd5760016006840154600160a01b900460ff1660028111156148cb576148cb615418565b0361495e5760006148da613254565b6148e49083615a32565b90506148f381620f4240615a02565b60115460405163a9059cbb60e01b81529192506001600160a01b03169063a9059cbb906149269086908590600401615a19565b600060405180830381600087803b15801561494057600080fd5b505af1158015614954573d6000803e3d6000fd5b50505050506149bd565b60006006840154600160a01b900460ff16600281111561498057614980615418565b036149bd576040516001600160a01b0383169082156108fc029083906000818181858888f193505050501580156149bb573d6000803e3d6000fd5b505b3460058401556006830180546001600160a01b031916331790558660028111156149e9576149e9615418565b60068401805460ff60a01b1916600160a01b836002811115614a0d57614a0d615418565b0217905550614a1e42610258615c3e565b83600401541015614a935761012c836004016000828254614a3f9190615c3e565b9091555050600183015460048401546040517f8e1cb85d0855921b3c958b068fa707efb7db88099af764dd47f37eef82c3334d92614a8a928c926001600160a01b0390921691615c51565b60405180910390a15b600183810154600685015460058601546040519397507f4307392e6f0e441e74a4982d9fa9ddc49b3cd9d3902a9d3ecab0ad3c60a0acd193614ae5938d936001600160a01b0391821693911691615a78565b60405180910390a15050505050505050565b336000908152600b602052604090205460609060ff1615614b2a5760405162461bcd60e51b81526004016109bd9061586b565b6000614b3560035490565b90506000805b82811015614b87576000818152600560205260409020600401546001600160a01b03808716911603614b755781614b71816157fa565b9250505b80614b7f816157fa565b915050614b3b565b506000816001600160401b03811115614ba257614ba26150d1565b604051908082528060200260200182016040528015614bdb57816020015b614bc8614fc8565b815260200190600190039081614bc05790505b5090506000805b84811015612949576000818152600560205260409020600401546001600160a01b03808916911603614d485760008181526005602081815260409283902083516101808101855281546001600160a01b039081168252600180840154948301949094526002830154811695820195909552600382015485166060820152600482015490941660808501529182015460a0840152600682015460ff908116151560c0850152600783015460e08501526008830154610100850192911690811115614cad57614cad615418565b6001811115614cbe57614cbe615418565b81526020016008820160019054906101000a900460ff166002811115614ce657614ce6615418565b6002811115614cf757614cf7615418565b8152600882015462010000900460ff16151560208201526009909101546040909101528351849084908110614d2e57614d2e615a9d565b60200260200101819052508180614d44906157fa565b9250505b80614d52816157fa565b915050614be2565b6001546001600160a01b03163314612a005760405162461bcd60e51b815260206004820181905260248201527f4f776e61626c653a2063616c6c6572206973206e6f7420746865206f776e657260448201526064016109bd565b600260005403614e065760405162461bcd60e51b815260206004820152601f60248201527f5265656e7472616e637947756172643a207265656e7472616e742063616c6c0060448201526064016109bd565b6002600055565b60006064614e1b8385615a02565b614e259190615a32565b9392505050565b600080612710614e3c8587615a02565b614e469190615a32565b9050612710614e558487615a02565b614e5f9190615a32565b614e699082615c3e565b95945050505050565b61465c81604051602401614e869190615e5e565b60408051601f198184030181529190526020810180516001600160e01b031663104c13eb60e21b179052614fa7565b614efa8282604051602401614ecb929190615e71565b60408051601f198184030181529190526020810180516001600160e01b0316632d839cb360e21b179052614fa7565b5050565b600180546001600160a01b038381166001600160a01b0319831681179093556040519116919082907f8be0079c531659141344cd1fd0a4f28419497f9722a3daafe3b4186f6b6457e090600090a35050565b805480614f9f5760405162461bcd60e51b815260206004820152601b60248201527f436f756e7465723a2064656372656d656e74206f766572666c6f77000000000060448201526064016109bd565b600019019055565b60006a636f6e736f6c652e6c6f679050600080835160208501845afa505050565b6040805161018081018252600080825260208201819052918101829052606081018290526080810182905260a0810182905260c0810182905260e081018290529061010082019081526020016000815260006020820181905260409091015290565b6001600160a01b038116811461465c57600080fd5b8035611e018161502a565b60006020828403121561505c57600080fd5b8135614e258161502a565b803560ff81168114611e0157600080fd5b600080600080600060a0868803121561509057600080fd5b853561509b8161502a565b945060208601359350604086013592506150b760608701615067565b91506150c560808701615067565b90509295509295909350565b634e487b7160e01b600052604160045260246000fd5b604051601f8201601f191681016001600160401b038111828210171561510f5761510f6150d1565b604052919050565b60006001600160401b03821115615130576151306150d1565b5060051b60200190565b6000602080838503121561514d57600080fd5b82356001600160401b0381111561516357600080fd5b8301601f8101851361517457600080fd5b803561518761518282615117565b6150e7565b81815260059190911b820183019083810190878311156151a657600080fd5b928401925b828410156151cd5783356151be8161502a565b825292840192908401906151ab565b979650505050505050565b600082601f8301126151e957600080fd5b813560206151f961518283615117565b82815260059290921b8401810191818101908684111561521857600080fd5b8286015b84811015615233578035835291830191830161521c565b509695505050505050565b60008060008060008060008060006101208a8c03121561525d57600080fd5b6152668a61503f565b985060208a01356001600160401b038082111561528257600080fd5b61528e8d838e016151d8565b995060408c01359150808211156152a457600080fd5b6152b08d838e016151d8565b985060608c01359150808211156152c657600080fd5b6152d28d838e016151d8565b975060808c0135965060a08c01359150808211156152ef57600080fd5b6152fb8d838e016151d8565b955060c08c013591508082111561531157600080fd5b5061531e8c828d016151d8565b93505060e08a013591506101008a013590509295985092959850929598565b6000806000806080858703121561535357600080fd5b5050823594602084013594506040840135936060013592509050565b6000806040838503121561538257600080fd5b50508035926020909101359150565b6000602082840312156153a357600080fd5b614e2582615067565b600080600080600080600060e0888a0312156153c757600080fd5b87356153d28161502a565b965060208801359550604088013594506153ee60608901615067565b93506153fc60808901615067565b925060a0880135915060c0880135905092959891949750929550565b634e487b7160e01b600052602160045260246000fd5b6002811061543e5761543e615418565b9052565b6003811061543e5761543e615418565b602080825282518282018190526000919060409081850190868401855b8281101561552857815180516001600160a01b0390811686528782015188870152868201518116878701526060808301518216908701526080808301519091169086015260a0808201519086015260c08082015115159086015260e08082015190860152610100808201516154e68288018261542e565b5050610120808201516154fb82880182615442565b5050610140818101511515908601526101609081015190850152610180909301929085019060010161546f565b5091979650505050505050565b60006020828403121561554757600080fd5b5035919050565b600081518084526020808501945080840160005b838110156155875781516001600160a01b031687529582019590820190600101615562565b509495945050505050565b602081526000614e25602083018461554e565b60008060008060008060c087890312156155be57600080fd5b86356155c98161502a565b9860208801359850604088013597606081013597506080810135965060a00135945092505050565b60006020828403121561560357600080fd5b813560058110614e2557600080fd5b6000806000806080858703121561562857600080fd5b84356156338161502a565b93506020850135925061564860408601615067565b915061565660608601615067565b905092959194509250565b8881526001600160a01b03888116602083015260408201889052606082018790526080820186905260a08201859052831660c082015261010081016156a960e0830184615442565b9998505050505050505050565b6001600160a01b038d81168252602082018d90528b811660408301528a811660608301528916608082015260a0810188905286151560c082015260e08101869052610180810161570a61010083018761542e565b615718610120830186615442565b92151561014082015261016001529a9950505050505050505050565b6000806040838503121561574757600080fd5b82356157528161502a565b946020939093013593505050565b6000806040838503121561577357600080fd5b82356001600160401b0381111561578957600080fd5b615795858286016151d8565b925050602083013580151581146157ab57600080fd5b809150509250929050565b600080604083850312156157c957600080fd5b82356157d48161502a565b915060208301356157ab8161502a565b634e487b7160e01b600052601160045260246000fd5b60006001820161580c5761580c6157e4565b5060010190565b60208082526038908201527f54686973204e4654206973206e6f7420617070726f766564207965742066726f6040820152776d207468652061646d696e20666f7220707572636861736560401b606082015260800190565b6020808252818101527f596f75206172652062616e6e6564206f6e207468697320706c6174666f726d2e604082015260600190565b60208082526025908201527f416e206f776e65722063616e6e6f7420707572636861736520697473206f776e6040820152641027232a1760d91b606082015260800190565b60208082526036908201527f546865206f776e6572206f662074686973206e667420697320626c61636b6c6960408201527539ba32b21037b7103a3434b990383630ba3337b9369760511b606082015260800190565b6020808252601a908201527f54686973204e4654206973206e6f742061742061756374696f6e000000000000604082015260600190565b6020808252601d908201527f4e6674206973206e6f74206c697374656420746f207075726368617365000000604082015260600190565b8181038181111561331d5761331d6157e4565b60208082526026908201527f4e6f7420656e6f75676820657468657220746f20636f7665722061736b696e6760408201526520707269636560d01b606082015260800190565b808202811582820484141761331d5761331d6157e4565b6001600160a01b03929092168252602082015260400190565b600082615a4f57634e487b7160e01b600052601260045260246000fd5b500490565b6001600160a01b039384168152919092166020820152604081019190915260600190565b9384526001600160a01b03928316602085015291166040830152606082015260800190565b634e487b7160e01b600052603260045260246000fd5b6001600160a01b03978816815260208101969096529386166040860152919094166060840152608083019390935260a082019290925260c081019190915260e00190565b60208082526029908201527f54686973204e4654206973206e6f74206f6e2061756374696f6e206174207468604082015268329036b7b6b2b73a1760b91b606082015260800190565b6020808252601b908201527f596f7520617265206e6f7420696e207468652066616e206c6973740000000000604082015260600190565b6020808252601c908201527f4d696e696d756d206269642068617320746f2062652068696768657200000000604082015260600190565b6020808252603c908201527f596f75206861766520746f2062696420686967686572207468616e207468652060408201527f686967686573742062696420746f206d616b6520616e206f6666657200000000606082015260800190565b6020808252601990820152782a3434b99027232a1034b99030ba1030ba1030bab1ba34b7b760391b604082015260600190565b8082018082111561331d5761331d6157e4565b9283526001600160a01b03919091166020830152604082015260600190565b634e487b7160e01b600052603160045260246000fd5b600060208284031215615c9857600080fd5b8151614e258161502a565b828152604060208201526000615cbc604083018461554e565b949350505050565b60006020808385031215615cd757600080fd5b82516001600160401b03811115615ced57600080fd5b8301601f81018513615cfe57600080fd5b8051615d0c61518282615117565b81815260059190911b82018301908381019087831115615d2b57600080fd5b928401925b828410156151cd57835182529284019290840190615d30565b848152608060208201526000615d62608083018661554e565b6001600160a01b03949094166040830152506060015292915050565b85815284602082015260a060408201526000615d9d60a083018661554e565b6001600160a01b0394909416606083015250608001529392505050565b805169ffffffffffffffffffff81168114611e0157600080fd5b600080600080600060a08688031215615dec57600080fd5b615df586615dba565b94506020860151935060408601519250606086015191506150c560808701615dba565b6000815180845260005b81811015615e3e57602081850181015186830182015201615e22565b506000602082860101526020601f19601f83011685010191505092915050565b602081526000614e256020830184615e18565b604081526000615e846040830185615e18565b9050826020830152939250505056fe54657374203520726573656c6c205f616d6f756e744166746572526f79616c7479205465737420332066697273744f776e6572205f616d6f756e74546f426550616964206166746572206665658562eb94748e30bb0071e932744ce902b460c683474fcb3bfd567ffa16b1afb2a264697066735822122068460c236114d148c3a2e53f9b50f1b7587fd33df3586a96c457ec3704bd632964736f6c63430008130033",
  "linkReferences": {},
  "deployedLinkReferences": {}
}