{
  "_format": "hh-sol-artifact-1",
  "contractName": "ArtiziaMarketplace",
  "sourceName": "contracts/ArtiziaMarketplace.sol",
  "abi": [
    {
      "inputs": [
        {
          "internalType": "address",
          "name": "_token",
          "type": "address"
        }
      ],
      "stateMutability": "nonpayable",
      "type": "constructor"
    },
    {
      "inputs": [],
      "name": "invalidListingType",
      "type": "error"
    },
    {
      "inputs": [],
      "name": "invalidPrice",
      "type": "error"
    },
    {
      "anonymous": false,
      "inputs": [
        {
          "indexed": false,
          "internalType": "address",
          "name": "nftContract",
          "type": "address"
        },
        {
          "indexed": false,
          "internalType": "uint256",
          "name": "tokenId",
          "type": "uint256"
        },
        {
          "indexed": false,
          "internalType": "address",
          "name": "seller",
          "type": "address"
        },
        {
          "indexed": false,
          "internalType": "address",
          "name": "owner",
          "type": "address"
        },
        {
          "indexed": false,
          "internalType": "uint256",
          "name": "price",
          "type": "uint256"
        }
      ],
      "name": "NFTListed",
      "type": "event"
    },
    {
      "anonymous": false,
      "inputs": [
        {
          "indexed": false,
          "internalType": "address",
          "name": "nftContract",
          "type": "address"
        },
        {
          "indexed": false,
          "internalType": "uint256",
          "name": "tokenId",
          "type": "uint256"
        },
        {
          "indexed": false,
          "internalType": "address",
          "name": "seller",
          "type": "address"
        },
        {
          "indexed": false,
          "internalType": "address",
          "name": "buyer",
          "type": "address"
        },
        {
          "indexed": false,
          "internalType": "uint256",
          "name": "price",
          "type": "uint256"
        }
      ],
      "name": "NFTSold",
      "type": "event"
    },
    {
      "anonymous": false,
      "inputs": [
        {
          "indexed": true,
          "internalType": "address",
          "name": "previousOwner",
          "type": "address"
        },
        {
          "indexed": true,
          "internalType": "address",
          "name": "newOwner",
          "type": "address"
        }
      ],
      "name": "OwnershipTransferred",
      "type": "event"
    },
    {
      "anonymous": false,
      "inputs": [
        {
          "indexed": false,
          "internalType": "address[]",
          "name": "fans",
          "type": "address[]"
        }
      ],
      "name": "addedFans",
      "type": "event"
    },
    {
      "anonymous": false,
      "inputs": [
        {
          "indexed": false,
          "internalType": "uint256",
          "name": "tokenId",
          "type": "uint256"
        },
        {
          "indexed": false,
          "internalType": "address",
          "name": "seller",
          "type": "address"
        },
        {
          "indexed": false,
          "internalType": "uint256",
          "name": "newTime",
          "type": "uint256"
        }
      ],
      "name": "auctionEndTimeIncreased",
      "type": "event"
    },
    {
      "anonymous": false,
      "inputs": [
        {
          "indexed": false,
          "internalType": "uint256",
          "name": "tokenId",
          "type": "uint256"
        },
        {
          "indexed": false,
          "internalType": "address",
          "name": "seller",
          "type": "address"
        },
        {
          "indexed": false,
          "internalType": "address",
          "name": "highestBidder",
          "type": "address"
        },
        {
          "indexed": false,
          "internalType": "uint256",
          "name": "highestBid",
          "type": "uint256"
        }
      ],
      "name": "receivedABid",
      "type": "event"
    },
    {
      "stateMutability": "payable",
      "type": "fallback"
    },
    {
      "inputs": [],
      "name": "UNISWAP_ROUTER_ADDRESS",
      "outputs": [
        {
          "internalType": "address",
          "name": "",
          "type": "address"
        }
      ],
      "stateMutability": "view",
      "type": "function"
    },
    {
      "inputs": [],
      "name": "USDT_ADDRESS",
      "outputs": [
        {
          "internalType": "address",
          "name": "",
          "type": "address"
        }
      ],
      "stateMutability": "view",
      "type": "function"
    },
    {
      "inputs": [
        {
          "internalType": "uint256",
          "name": "",
          "type": "uint256"
        }
      ],
      "name": "_idToAuction",
      "outputs": [
        {
          "internalType": "uint256",
          "name": "tokenId",
          "type": "uint256"
        },
        {
          "internalType": "address payable",
          "name": "seller",
          "type": "address"
        },
        {
          "internalType": "uint256",
          "name": "basePrice",
          "type": "uint256"
        },
        {
          "internalType": "uint256",
          "name": "startTime",
          "type": "uint256"
        },
        {
          "internalType": "uint256",
          "name": "endTime",
          "type": "uint256"
        },
        {
          "internalType": "uint256",
          "name": "highestBid",
          "type": "uint256"
        },
        {
          "internalType": "address payable",
          "name": "highestBidder",
          "type": "address"
        },
        {
          "internalType": "enum ArtiziaMarketplace.PaymentMethod",
          "name": "highestBidCurrency",
          "type": "uint8"
        }
      ],
      "stateMutability": "view",
      "type": "function"
    },
    {
      "inputs": [
        {
          "internalType": "uint256",
          "name": "",
          "type": "uint256"
        }
      ],
      "name": "_idToNFT",
      "outputs": [
        {
          "internalType": "address",
          "name": "nftContract",
          "type": "address"
        },
        {
          "internalType": "uint256",
          "name": "tokenId",
          "type": "uint256"
        },
        {
          "internalType": "address payable",
          "name": "firstOwner",
          "type": "address"
        },
        {
          "internalType": "address payable",
          "name": "seller",
          "type": "address"
        },
        {
          "internalType": "address payable",
          "name": "owner",
          "type": "address"
        },
        {
          "internalType": "uint256",
          "name": "price",
          "type": "uint256"
        },
        {
          "internalType": "bool",
          "name": "listed",
          "type": "bool"
        },
        {
          "internalType": "uint256",
          "name": "royaltyPrice",
          "type": "uint256"
        },
        {
          "internalType": "enum ArtiziaMarketplace.ListingType",
          "name": "listingType",
          "type": "uint8"
        },
        {
          "internalType": "enum ArtiziaMarketplace.PaymentMethod",
          "name": "paymentMethod",
          "type": "uint8"
        },
        {
          "internalType": "bool",
          "name": "approve",
          "type": "bool"
        },
        {
          "internalType": "uint256",
          "name": "collectionId",
          "type": "uint256"
        }
      ],
      "stateMutability": "view",
      "type": "function"
    },
    {
      "inputs": [
        {
          "internalType": "uint256",
          "name": "",
          "type": "uint256"
        }
      ],
      "name": "_idToNFT2",
      "outputs": [
        {
          "internalType": "uint256",
          "name": "tokenId",
          "type": "uint256"
        },
        {
          "internalType": "bool",
          "name": "onlyFans",
          "type": "bool"
        },
        {
          "internalType": "uint256",
          "name": "fanDiscountPercent",
          "type": "uint256"
        }
      ],
      "stateMutability": "view",
      "type": "function"
    },
    {
      "inputs": [],
      "name": "_nftCount",
      "outputs": [
        {
          "internalType": "uint256",
          "name": "_value",
          "type": "uint256"
        }
      ],
      "stateMutability": "view",
      "type": "function"
    },
    {
      "inputs": [],
      "name": "_nftsSold",
      "outputs": [
        {
          "internalType": "uint256",
          "name": "_value",
          "type": "uint256"
        }
      ],
      "stateMutability": "view",
      "type": "function"
    },
    {
      "inputs": [
        {
          "internalType": "address[]",
          "name": "fans",
          "type": "address[]"
        }
      ],
      "name": "addFans",
      "outputs": [],
      "stateMutability": "nonpayable",
      "type": "function"
    },
    {
      "inputs": [
        {
          "internalType": "uint256[]",
          "name": "_tokenId",
          "type": "uint256[]"
        },
        {
          "internalType": "bool",
          "name": "_decision",
          "type": "bool"
        }
      ],
      "name": "approveNfts",
      "outputs": [
        {
          "internalType": "bool",
          "name": "",
          "type": "bool"
        }
      ],
      "stateMutability": "nonpayable",
      "type": "function"
    },
    {
      "inputs": [
        {
          "internalType": "address",
          "name": "_user",
          "type": "address"
        }
      ],
      "name": "banUser",
      "outputs": [],
      "stateMutability": "nonpayable",
      "type": "function"
    },
    {
      "inputs": [
        {
          "internalType": "address",
          "name": "",
          "type": "address"
        }
      ],
      "name": "bannedUsers",
      "outputs": [
        {
          "internalType": "bool",
          "name": "",
          "type": "bool"
        }
      ],
      "stateMutability": "view",
      "type": "function"
    },
    {
      "inputs": [
        {
          "internalType": "uint256",
          "name": "_tokenId",
          "type": "uint256"
        },
        {
          "internalType": "uint256",
          "name": "_bidCurrency",
          "type": "uint256"
        }
      ],
      "name": "bidInETH",
      "outputs": [],
      "stateMutability": "payable",
      "type": "function"
    },
    {
      "inputs": [
        {
          "internalType": "uint256",
          "name": "_tokenId",
          "type": "uint256"
        },
        {
          "internalType": "uint256",
          "name": "_amount",
          "type": "uint256"
        },
        {
          "internalType": "uint256",
          "name": "_bidCurrency",
          "type": "uint256"
        }
      ],
      "name": "bidInUSDT",
      "outputs": [],
      "stateMutability": "payable",
      "type": "function"
    },
    {
      "inputs": [
        {
          "internalType": "address",
          "name": "_nftContract",
          "type": "address"
        },
        {
          "internalType": "uint256",
          "name": "_paymentMethod",
          "type": "uint256"
        },
        {
          "internalType": "uint256",
          "name": "_tokenId",
          "type": "uint256"
        },
        {
          "internalType": "uint256",
          "name": "_sellerPercent",
          "type": "uint256"
        },
        {
          "internalType": "uint256",
          "name": "_buyerPercent",
          "type": "uint256"
        }
      ],
      "name": "buyWithETH",
      "outputs": [],
      "stateMutability": "payable",
      "type": "function"
    },
    {
      "inputs": [
        {
          "internalType": "address",
          "name": "_nftContract",
          "type": "address"
        },
        {
          "internalType": "uint256",
          "name": "_paymentMethod",
          "type": "uint256"
        },
        {
          "internalType": "uint256",
          "name": "_tokenId",
          "type": "uint256"
        },
        {
          "internalType": "uint256",
          "name": "_amount",
          "type": "uint256"
        },
        {
          "internalType": "uint256",
          "name": "_sellerPercent",
          "type": "uint256"
        },
        {
          "internalType": "uint256",
          "name": "_buyerPercent",
          "type": "uint256"
        }
      ],
      "name": "buyWithUSDT",
      "outputs": [],
      "stateMutability": "payable",
      "type": "function"
    },
    {
      "inputs": [
        {
          "internalType": "uint256",
          "name": "_tokenId",
          "type": "uint256"
        },
        {
          "internalType": "uint256",
          "name": "_newDiscountPercent",
          "type": "uint256"
        }
      ],
      "name": "changeFanDiscountPercent",
      "outputs": [],
      "stateMutability": "nonpayable",
      "type": "function"
    },
    {
      "inputs": [],
      "name": "checkBannedOrDeletedUser",
      "outputs": [
        {
          "internalType": "bool",
          "name": "",
          "type": "bool"
        }
      ],
      "stateMutability": "view",
      "type": "function"
    },
    {
      "inputs": [
        {
          "internalType": "address",
          "name": "_nftContract",
          "type": "address"
        },
        {
          "internalType": "uint256",
          "name": "_tokenId",
          "type": "uint256"
        },
        {
          "internalType": "uint256",
          "name": "_sellerPercent",
          "type": "uint256"
        },
        {
          "internalType": "uint256",
          "name": "_buyerPercent",
          "type": "uint256"
        }
      ],
      "name": "closeAuction",
      "outputs": [],
      "stateMutability": "payable",
      "type": "function"
    },
    {
      "inputs": [
        {
          "internalType": "uint256",
          "name": "",
          "type": "uint256"
        },
        {
          "internalType": "uint256",
          "name": "",
          "type": "uint256"
        }
      ],
      "name": "collection",
      "outputs": [
        {
          "internalType": "uint256",
          "name": "",
          "type": "uint256"
        }
      ],
      "stateMutability": "view",
      "type": "function"
    },
    {
      "inputs": [
        {
          "internalType": "address",
          "name": "_user",
          "type": "address"
        }
      ],
      "name": "deleteUser",
      "outputs": [],
      "stateMutability": "nonpayable",
      "type": "function"
    },
    {
      "inputs": [
        {
          "internalType": "address",
          "name": "",
          "type": "address"
        }
      ],
      "name": "deletedUsers",
      "outputs": [
        {
          "internalType": "bool",
          "name": "",
          "type": "bool"
        }
      ],
      "stateMutability": "view",
      "type": "function"
    },
    {
      "inputs": [
        {
          "internalType": "address",
          "name": "",
          "type": "address"
        },
        {
          "internalType": "uint256",
          "name": "",
          "type": "uint256"
        }
      ],
      "name": "fanLists",
      "outputs": [
        {
          "internalType": "address",
          "name": "",
          "type": "address"
        }
      ],
      "stateMutability": "view",
      "type": "function"
    },
    {
      "inputs": [
        {
          "internalType": "uint256",
          "name": "_collectionId",
          "type": "uint256"
        }
      ],
      "name": "getCollectionNfts",
      "outputs": [
        {
          "components": [
            {
              "internalType": "address",
              "name": "nftContract",
              "type": "address"
            },
            {
              "internalType": "uint256",
              "name": "tokenId",
              "type": "uint256"
            },
            {
              "internalType": "address payable",
              "name": "firstOwner",
              "type": "address"
            },
            {
              "internalType": "address payable",
              "name": "seller",
              "type": "address"
            },
            {
              "internalType": "address payable",
              "name": "owner",
              "type": "address"
            },
            {
              "internalType": "uint256",
              "name": "price",
              "type": "uint256"
            },
            {
              "internalType": "bool",
              "name": "listed",
              "type": "bool"
            },
            {
              "internalType": "uint256",
              "name": "royaltyPrice",
              "type": "uint256"
            },
            {
              "internalType": "enum ArtiziaMarketplace.ListingType",
              "name": "listingType",
              "type": "uint8"
            },
            {
              "internalType": "enum ArtiziaMarketplace.PaymentMethod",
              "name": "paymentMethod",
              "type": "uint8"
            },
            {
              "internalType": "bool",
              "name": "approve",
              "type": "bool"
            },
            {
              "internalType": "uint256",
              "name": "collectionId",
              "type": "uint256"
            }
          ],
          "internalType": "struct ArtiziaMarketplace.NFT[]",
          "name": "",
          "type": "tuple[]"
        }
      ],
      "stateMutability": "view",
      "type": "function"
    },
    {
      "inputs": [],
      "name": "getContractBalance",
      "outputs": [
        {
          "internalType": "uint256",
          "name": "",
          "type": "uint256"
        }
      ],
      "stateMutability": "view",
      "type": "function"
    },
    {
      "inputs": [],
      "name": "getFans",
      "outputs": [
        {
          "internalType": "address[]",
          "name": "",
          "type": "address[]"
        }
      ],
      "stateMutability": "view",
      "type": "function"
    },
    {
      "inputs": [
        {
          "internalType": "uint256",
          "name": "_tokenId",
          "type": "uint256"
        }
      ],
      "name": "getHighestBid",
      "outputs": [
        {
          "internalType": "uint256",
          "name": "",
          "type": "uint256"
        }
      ],
      "stateMutability": "view",
      "type": "function"
    },
    {
      "inputs": [],
      "name": "getLatestUSDTPrice",
      "outputs": [
        {
          "internalType": "uint256",
          "name": "",
          "type": "uint256"
        }
      ],
      "stateMutability": "view",
      "type": "function"
    },
    {
      "inputs": [],
      "name": "getListedNfts",
      "outputs": [
        {
          "components": [
            {
              "internalType": "address",
              "name": "nftContract",
              "type": "address"
            },
            {
              "internalType": "uint256",
              "name": "tokenId",
              "type": "uint256"
            },
            {
              "internalType": "address payable",
              "name": "firstOwner",
              "type": "address"
            },
            {
              "internalType": "address payable",
              "name": "seller",
              "type": "address"
            },
            {
              "internalType": "address payable",
              "name": "owner",
              "type": "address"
            },
            {
              "internalType": "uint256",
              "name": "price",
              "type": "uint256"
            },
            {
              "internalType": "bool",
              "name": "listed",
              "type": "bool"
            },
            {
              "internalType": "uint256",
              "name": "royaltyPrice",
              "type": "uint256"
            },
            {
              "internalType": "enum ArtiziaMarketplace.ListingType",
              "name": "listingType",
              "type": "uint8"
            },
            {
              "internalType": "enum ArtiziaMarketplace.PaymentMethod",
              "name": "paymentMethod",
              "type": "uint8"
            },
            {
              "internalType": "bool",
              "name": "approve",
              "type": "bool"
            },
            {
              "internalType": "uint256",
              "name": "collectionId",
              "type": "uint256"
            }
          ],
          "internalType": "struct ArtiziaMarketplace.NFT[]",
          "name": "",
          "type": "tuple[]"
        }
      ],
      "stateMutability": "view",
      "type": "function"
    },
    {
      "inputs": [
        {
          "internalType": "address",
          "name": "_user",
          "type": "address"
        }
      ],
      "name": "getMyListedNfts",
      "outputs": [
        {
          "components": [
            {
              "internalType": "address",
              "name": "nftContract",
              "type": "address"
            },
            {
              "internalType": "uint256",
              "name": "tokenId",
              "type": "uint256"
            },
            {
              "internalType": "address payable",
              "name": "firstOwner",
              "type": "address"
            },
            {
              "internalType": "address payable",
              "name": "seller",
              "type": "address"
            },
            {
              "internalType": "address payable",
              "name": "owner",
              "type": "address"
            },
            {
              "internalType": "uint256",
              "name": "price",
              "type": "uint256"
            },
            {
              "internalType": "bool",
              "name": "listed",
              "type": "bool"
            },
            {
              "internalType": "uint256",
              "name": "royaltyPrice",
              "type": "uint256"
            },
            {
              "internalType": "enum ArtiziaMarketplace.ListingType",
              "name": "listingType",
              "type": "uint8"
            },
            {
              "internalType": "enum ArtiziaMarketplace.PaymentMethod",
              "name": "paymentMethod",
              "type": "uint8"
            },
            {
              "internalType": "bool",
              "name": "approve",
              "type": "bool"
            },
            {
              "internalType": "uint256",
              "name": "collectionId",
              "type": "uint256"
            }
          ],
          "internalType": "struct ArtiziaMarketplace.NFT[]",
          "name": "",
          "type": "tuple[]"
        }
      ],
      "stateMutability": "view",
      "type": "function"
    },
    {
      "inputs": [
        {
          "internalType": "address",
          "name": "_user",
          "type": "address"
        }
      ],
      "name": "getMyNfts",
      "outputs": [
        {
          "components": [
            {
              "internalType": "address",
              "name": "nftContract",
              "type": "address"
            },
            {
              "internalType": "uint256",
              "name": "tokenId",
              "type": "uint256"
            },
            {
              "internalType": "address payable",
              "name": "firstOwner",
              "type": "address"
            },
            {
              "internalType": "address payable",
              "name": "seller",
              "type": "address"
            },
            {
              "internalType": "address payable",
              "name": "owner",
              "type": "address"
            },
            {
              "internalType": "uint256",
              "name": "price",
              "type": "uint256"
            },
            {
              "internalType": "bool",
              "name": "listed",
              "type": "bool"
            },
            {
              "internalType": "uint256",
              "name": "royaltyPrice",
              "type": "uint256"
            },
            {
              "internalType": "enum ArtiziaMarketplace.ListingType",
              "name": "listingType",
              "type": "uint8"
            },
            {
              "internalType": "enum ArtiziaMarketplace.PaymentMethod",
              "name": "paymentMethod",
              "type": "uint8"
            },
            {
              "internalType": "bool",
              "name": "approve",
              "type": "bool"
            },
            {
              "internalType": "uint256",
              "name": "collectionId",
              "type": "uint256"
            }
          ],
          "internalType": "struct ArtiziaMarketplace.NFT[]",
          "name": "",
          "type": "tuple[]"
        }
      ],
      "stateMutability": "view",
      "type": "function"
    },
    {
      "inputs": [
        {
          "internalType": "uint256",
          "name": "_tokenId",
          "type": "uint256"
        }
      ],
      "name": "getNftApprovalStatus",
      "outputs": [
        {
          "internalType": "bool",
          "name": "",
          "type": "bool"
        }
      ],
      "stateMutability": "view",
      "type": "function"
    },
    {
      "inputs": [
        {
          "internalType": "uint256",
          "name": "_tokenId",
          "type": "uint256"
        }
      ],
      "name": "getStatusOfAuction",
      "outputs": [
        {
          "internalType": "bool",
          "name": "",
          "type": "bool"
        }
      ],
      "stateMutability": "view",
      "type": "function"
    },
    {
      "inputs": [
        {
          "internalType": "address",
          "name": "",
          "type": "address"
        },
        {
          "internalType": "address",
          "name": "",
          "type": "address"
        }
      ],
      "name": "isFan",
      "outputs": [
        {
          "internalType": "bool",
          "name": "",
          "type": "bool"
        }
      ],
      "stateMutability": "view",
      "type": "function"
    },
    {
      "inputs": [
        {
          "internalType": "address",
          "name": "_nftContract",
          "type": "address"
        },
        {
          "internalType": "uint256[]",
          "name": "_tokenId",
          "type": "uint256[]"
        },
        {
          "internalType": "uint256[]",
          "name": "_price",
          "type": "uint256[]"
        },
        {
          "internalType": "uint256",
          "name": "_royaltyPrice",
          "type": "uint256"
        },
        {
          "internalType": "uint256",
          "name": "_listingType",
          "type": "uint256"
        },
        {
          "internalType": "uint256[]",
          "name": "_startTime",
          "type": "uint256[]"
        },
        {
          "internalType": "uint256[]",
          "name": "_endTime",
          "type": "uint256[]"
        },
        {
          "internalType": "uint256",
          "name": "_collectionId",
          "type": "uint256"
        },
        {
          "internalType": "uint256",
          "name": "_paymentMethod",
          "type": "uint256"
        }
      ],
      "name": "listNft",
      "outputs": [],
      "stateMutability": "payable",
      "type": "function"
    },
    {
      "inputs": [],
      "name": "owner",
      "outputs": [
        {
          "internalType": "address",
          "name": "",
          "type": "address"
        }
      ],
      "stateMutability": "view",
      "type": "function"
    },
    {
      "inputs": [],
      "name": "removeAllFans",
      "outputs": [],
      "stateMutability": "nonpayable",
      "type": "function"
    },
    {
      "inputs": [
        {
          "internalType": "address[]",
          "name": "addresses",
          "type": "address[]"
        }
      ],
      "name": "removeFans",
      "outputs": [],
      "stateMutability": "nonpayable",
      "type": "function"
    },
    {
      "inputs": [],
      "name": "renounceOwnership",
      "outputs": [],
      "stateMutability": "nonpayable",
      "type": "function"
    },
    {
      "inputs": [
        {
          "internalType": "address",
          "name": "_nftContract",
          "type": "address"
        },
        {
          "internalType": "uint256",
          "name": "_tokenId",
          "type": "uint256"
        },
        {
          "internalType": "uint256",
          "name": "_price",
          "type": "uint256"
        },
        {
          "internalType": "uint256",
          "name": "_listingType",
          "type": "uint256"
        },
        {
          "internalType": "uint256",
          "name": "_startTime",
          "type": "uint256"
        },
        {
          "internalType": "uint256",
          "name": "_endTime",
          "type": "uint256"
        },
        {
          "internalType": "address",
          "name": "_user",
          "type": "address"
        }
      ],
      "name": "resellNft",
      "outputs": [],
      "stateMutability": "nonpayable",
      "type": "function"
    },
    {
      "inputs": [
        {
          "internalType": "uint256",
          "name": "usdtAmountOut",
          "type": "uint256"
        }
      ],
      "name": "swapETHForUSDT",
      "outputs": [
        {
          "internalType": "uint256",
          "name": "",
          "type": "uint256"
        }
      ],
      "stateMutability": "payable",
      "type": "function"
    },
    {
      "inputs": [
        {
          "internalType": "uint256",
          "name": "usdtAmountIn",
          "type": "uint256"
        }
      ],
      "name": "swapUSDTForETH",
      "outputs": [
        {
          "internalType": "uint256",
          "name": "",
          "type": "uint256"
        }
      ],
      "stateMutability": "nonpayable",
      "type": "function"
    },
    {
      "inputs": [
        {
          "internalType": "uint256[]",
          "name": "tokenIds",
          "type": "uint256[]"
        }
      ],
      "name": "toggleOnlyFans",
      "outputs": [],
      "stateMutability": "nonpayable",
      "type": "function"
    },
    {
      "inputs": [
        {
          "internalType": "address",
          "name": "newOwner",
          "type": "address"
        }
      ],
      "name": "transferOwnership",
      "outputs": [],
      "stateMutability": "nonpayable",
      "type": "function"
    },
    {
      "inputs": [
        {
          "internalType": "address",
          "name": "_user",
          "type": "address"
        }
      ],
      "name": "unbanUser",
      "outputs": [],
      "stateMutability": "nonpayable",
      "type": "function"
    },
    {
      "stateMutability": "payable",
      "type": "receive"
    }
  ],
  "bytecode": "0x6080604052600d80546001600160a01b0319908116737a250d5630b4cf539739df2c5dacb4c659f2488d17909155600e805490911673dac17f958d2ee523a2206206994597c13d831ec71790553480156200005957600080fd5b5060405162005e4a38038062005e4a8339810160408190526200007c9162000120565b60016000556200008c33620000ce565b60048054336001600160a01b031991821617909155600d54600f80546001600160a01b0392831690841617905560108054909216921691909117905562000152565b600180546001600160a01b038381166001600160a01b0319831681179093556040519116919082907f8be0079c531659141344cd1fd0a4f28419497f9722a3daafe3b4186f6b6457e090600090a35050565b6000602082840312156200013357600080fd5b81516001600160a01b03811681146200014b57600080fd5b9392505050565b615ce880620001626000396000f3fe6080604052600436106102535760003560e01c80638d6cb3fb11610138578063c1892058116100b0578063ed5a1c0f11610077578063ed5a1c0f1461084a578063f1ff9d0d14610885578063f2fde38b146108a5578063f3ed87e4146108c5578063f41dfb18146108d8578063f6c1b77a146108eb57005b8063c18920581461079a578063c36ac2d2146107ba578063d6cbb202146107da578063d6fc3dbd146107f1578063ecb4ad0c1461081157005b80639c744058116100ff5780639c744058146105f1578063af6b06f414610611578063b4fa041214610631578063b8b3455d146106b6578063b9e07df1146106c9578063bbffa07b1461077a57005b80638d6cb3fb1461051f5780638da5cb5b146105345780638f2886441461055257806398dd36bf146105825780639a6e94be1461059757005b80635674c2e6116101cb578063715018a611610192578063715018a61461043f57806377ec6a471461045457806379b36943146104845780638090551e146104bc5780638988d078146104cf5780638cd410f4146104ff57005b80635674c2e6146103a75780635c60f226146103cc5780635ca11fa3146103ec5780636f9e88761461040c5780636f9fb98a1461042c57005b806331a7a70f1161021a57806331a7a70f146102f25780633b295cb01461031257806348a51f53146103275780634afbcdae1461033a5780634d12b6951461035a5780635274cff61461037a57005b80630760943e1461025c57806310d86b1f146102875780632a448f6c146102a75780633000df5d146102ba57806331824a49146102cd57005b3661025a57005b005b34801561026857600080fd5b5061027161090b565b60405161027e9190614e50565b60405180910390f35b34801561029357600080fd5b5061025a6102a2366004614e83565b6109b0565b61025a6102b5366004614ea0565b6109dc565b61025a6102c8366004614fb8565b610fa2565b3480156102d957600080fd5b506002546102e49081565b60405190815260200161027e565b3480156102fe57600080fd5b5061025a61030d36600461509c565b61181b565b34801561031e57600080fd5b5061025a611a56565b61025a610335366004615135565b611af7565b34801561034657600080fd5b506102e4610355366004615181565b6120da565b34801561036657600080fd5b5061025a610375366004614e83565b61210b565b34801561038657600080fd5b5061039a610395366004614e83565b612134565b60405161027e91906151dd565b3480156103b357600080fd5b506103bc612410565b604051901515815260200161027e565b3480156103d857600080fd5b5061025a6103e7366004614e83565b61244e565b3480156103f857600080fd5b5061025a610407366004615181565b61247a565b34801561041857600080fd5b5061025a6104273660046152c0565b612514565b34801561043857600080fd5b50476102e4565b34801561044b57600080fd5b5061025a612906565b34801561046057600080fd5b506103bc61046f366004614e83565b600b6020526000908152604090205460ff1681565b34801561049057600080fd5b50600d546104a4906001600160a01b031681565b6040516001600160a01b03909116815260200161027e565b6102e46104ca366004615329565b61291a565b3480156104db57600080fd5b506103bc6104ea366004614e83565b600a6020526000908152604090205460ff1681565b34801561050b57600080fd5b506102e461051a366004615329565b612b63565b34801561052b57600080fd5b5061039a612e9f565b34801561054057600080fd5b506001546001600160a01b03166104a4565b34801561055e57600080fd5b506102e461056d366004615329565b60009081526009602052604090206005015490565b34801561058e57600080fd5b506102e4613150565b3480156105a357600080fd5b506105d66105b2366004615329565b600660205260009081526040902080546001820154600290920154909160ff169083565b6040805193845291151560208401529082015260600161027e565b3480156105fd57600080fd5b506103bc61060c366004615329565b61321f565b34801561061d57600080fd5b5061025a61062c36600461509c565b613264565b34801561063d57600080fd5b506106a261064c366004615329565b600960205260009081526040902080546001820154600283015460038401546004850154600586015460069096015494956001600160a01b0394851695939492939192909190811690600160a01b900460ff1688565b60405161027e989796959493929190615342565b61025a6106c4366004615397565b6133f5565b3480156106d557600080fd5b506107626106e4366004615329565b600560208190526000918252604090912080546001820154600283015460038401546004850154958501546006860154600787015460088801546009909801546001600160a01b03978816999698958816979485169690941694929360ff92831693919282811692610100810482169262010000909104909116908c565b60405161027e9c9b9a999897969594939291906153c3565b34801561078657600080fd5b506104a4610795366004615441565b613959565b3480156107a657600080fd5b50600e546104a4906001600160a01b031681565b3480156107c657600080fd5b5061039a6107d5366004615329565b613991565b3480156107e657600080fd5b506003546102e49081565b3480156107fd57600080fd5b506103bc61080c36600461546d565b613c25565b34801561081d57600080fd5b506103bc61082c366004615329565b60009081526005602052604090206008015462010000900460ff1690565b34801561085657600080fd5b506103bc6108653660046154c3565b600760209081526000928352604080842090915290825290205460ff1681565b34801561089157600080fd5b5061025a6108a03660046154f1565b613c9e565b3480156108b157600080fd5b5061025a6108c0366004614e83565b613d9c565b61025a6108d336600461552d565b613e12565b61025a6108e6366004615181565b6143db565b3480156108f757600080fd5b5061039a610906366004614e83565b614861565b336000908152600b602052604090205460609060ff16156109475760405162461bcd60e51b815260040161093e90615568565b60405180910390fd5b33600090815260086020908152604091829020805483518184028101840190945280845290918301828280156109a657602002820191906000526020600020905b81546001600160a01b03168152600190910190602001808311610988575b5050505050905090565b6109b8614ac4565b6001600160a01b03166000908152600a60205260409020805460ff19166001179055565b336000908152600a602052604090205460ff1615610a0c5760405162461bcd60e51b815260040161093e906155d8565b336000908152600b602052604090205460ff1615610a3c5760405162461bcd60e51b815260040161093e90615568565b610a44614b1e565b600083815260056020908152604080832060048101546001600160a01b03168452600a9092529091205460ff1615610a8e5760405162461bcd60e51b815260040161093e9061560d565b60048101546001600160a01b03166000908152600b602052604090205460ff1615610acb5760405162461bcd60e51b815260040161093e90615663565b6000600882015460ff166001811115610ae657610ae66151a3565b14610b035760405162461bcd60e51b815260040161093e906156c0565b600681015460ff161515600114610b2c5760405162461bcd60e51b815260040161093e906156f7565b6000848152600660205260408120600101543390829060ff1615610be7576000878152600560209081526040808320600301546001600160a01b031683526007825280832033845290915290205460ff16610b995760405162461bcd60e51b815260040161093e9061572e565b600087815260066020526040902060020154610bb6903490614b77565b610bc0903461577b565b905080341015610be25760405162461bcd60e51b815260040161093e9061578e565b610c0e565b8360050154341015610c0b5760405162461bcd60e51b815260040161093e9061578e565b50345b600284015460038501546001600160a01b03918216911603610d3557610c35818787614b96565b610c3f908261577b565b905087600003610c8f5760038401546040516001600160a01b039091169082156108fc029083906000818181858888f19350505050158015610c85573d6000803e3d6000fd5b5060019250610e9c565b610c988161291a565b506000610ca3613150565b610cad90836157d4565b90506000610cbe82620f42406157d4565b601054600388015460405163a9059cbb60e01b81529293506001600160a01b039182169263a9059cbb92610cf892169085906004016157eb565b600060405180830381600087803b158015610d1257600080fd5b505af1158015610d26573d6000803e3d6000fd5b50505050600194505050610e9c565b60008190506000610d4a828760070154614b77565b9050610d57838989614b96565b610d61828461577b565b610d6b919061577b565b60028701546040519194506001600160a01b03169082156108fc029083906000818181858888f19350505050158015610da8573d6000803e3d6000fd5b5089600003610df75760038601546040516001600160a01b039091169084156108fc029085906000818181858888f19350505050158015610ded573d6000803e3d6000fd5b5060019450610e99565b610e008361291a565b506000610e0b613150565b610e159085615804565b90506000610e2682620f42406157d4565b60105460038a015460405163a9059cbb60e01b81529293506001600160a01b039182169263a9059cbb92610e6092169085906004016157eb565b600060405180830381600087803b158015610e7a57600080fd5b505af1158015610e8e573d6000803e3d6000fd5b505050506001965050505b50505b8215610f8d5760018401546040516323b872dd60e01b81526001600160a01b038b16916323b872dd91610ed6913091879190600401615826565b600060405180830381600087803b158015610ef057600080fd5b505af1158015610f04573d6000803e3d6000fd5b5050505060018401546003850154604051600080516020615c9383398151915292610f40928d926001600160a01b03909116908790349061584a565b60405180910390a16004840180546001600160a01b0384166001600160a01b031991821617909155600385018054909116905560068401805460ff19169055610f8d600280546001019055565b50505050610f9b6001600055565b5050505050565b610faa614b1e565b336000908152600a602052604090205460ff1615610fda5760405162461bcd60e51b815260040161093e906155d8565b336000908152600b602052604090205460ff161561100a5760405162461bcd60e51b815260040161093e90615568565b60005b88518110156118055761105a6040518060400160405280600981526020016874686973206973203160b81b8152508a838151811061104d5761104d61587d565b6020026020010151614bdc565b6110886040518060400160405280600c81526020016b5f6c697374696e675479706560a01b81525087614bdc565b60408051808201909152601c81527f75696e74323536284c697374696e67547970652e41756374696f6e290000000060208201526110c7906001614bdc565b60008882815181106110db576110db61587d565b6020026020010151101561110257604051635a93095360e11b815260040160405180910390fd5b6001861115611124576040516317142a4d60e01b815260040160405180910390fd5b61115d6040518060400160405280600b81526020016a5f746f6b656e49645b695d60a81b8152508a838151811061104d5761104d61587d565b896001600160a01b03166323b872dd33308c85815181106111805761118061587d565b60200260200101516040518463ffffffff1660e01b81526004016111a693929190615826565b600060405180830381600087803b1580156111c057600080fd5b505af11580156111d4573d6000803e3d6000fd5b50505050611202604051806040016040528060098152602001683a3434b99034b9901960b91b815250614c21565b611210600380546001019055565b61123a604051806040016040528060098152602001681d1a1a5cc81a5cc80d60ba1b815250614c21565b6000838152600c6020526040902089518a908390811061125c5761125c61587d565b602002602001015190806001815401808255809150506001900390600052602060002001600090919091909150556040518061018001604052808b6001600160a01b031681526020018a83815181106112b7576112b761587d565b60200260200101518152602001336001600160a01b03168152602001336001600160a01b03168152602001306001600160a01b031681526020018983815181106113035761130361587d565b60200260200101518152602001600115158152602001888152602001876001811115611331576113316151a3565b6001811115611342576113426151a3565b8152602001836002811115611359576113596151a3565b600281111561136a5761136a6151a3565b815260200160001515815260200184815250600560008b84815181106113925761139261587d565b6020908102919091018101518252818101929092526040908101600020835181546001600160a01b03199081166001600160a01b039283161783559385015160018084019190915592850151600283018054861691831691909117905560608501516003830180548616918316919091179055608085015160048301805490951691161790925560a0830151600583015560c083015160068301805460ff1990811692151592909217905560e08401516007840155610100840151600884018054919390929190911690838181111561146d5761146d6151a3565b021790555061012082015160088201805461ff001916610100836002811115611498576114986151a3565b0217905550610140820151600882018054911515620100000262ff00001990921691909117905561016090910151600991820155604080518082019091529081526874686973206973203560b81b60208201526114f490614c21565b60405180606001604052808a83815181106115115761151161587d565b602002602001015181526020016000151581526020016000815250600660008b84815181106115425761154261587d565b602090810291909101810151825281810192909252604090810160002083518155918301516001808401805460ff1916921515929092179091559201516002909101558603611758576115b5604051806040016040528060098152602001683a3434b99034b9901b60b91b815250614c21565b6040518061010001604052808a83815181106115d3576115d361587d565b60200260200101518152602001336001600160a01b031681526020018983815181106116015761160161587d565b602002602001015181526020018683815181106116205761162061587d565b6020026020010151815260200185838151811061163f5761163f61587d565b602002602001015181526020016000815260200160006001600160a01b03168152602001836002811115611675576116756151a3565b6002811115611686576116866151a3565b815250600960008b848151811061169f5761169f61587d565b602090810291909101810151825281810192909252604090810160002083518155918301516001830180546001600160a01b03199081166001600160a01b039384161790915591840151600280850191909155606085015160038501556080850151600485015560a0850151600585015560c085015160068501805494851691909316908117835560e0860151936001600160a81b0319161790600160a01b908490811115611750576117506151a3565b021790555050505b6117826040518060400160405280600981526020016874686973206973203760b81b815250614c21565b7fa0c6c0d02d86fdacecbaa5fdf5894bab204e31a778250474108540733a9b8d198a8a83815181106117b6576117b661587d565b602002602001015133308c86815181106117d2576117d261587d565b60200260200101516040516117eb95949392919061584a565b60405180910390a1806117fd81615893565b91505061100d565b506118106001600055565b505050505050505050565b600081516001600160401b0381111561183657611836614ee4565b60405190808252806020026020018201604052801561185f578160200160208202803683370190505b50905060005b8251811015611a1a5760008382815181106118825761188261587d565b6020026020010151905060006001600160a01b0316816001600160a01b0316036118df576118da60405180604001604052806013815260200172496e76616c69642066616e206164647265737360681b815250614c21565b611a07565b3360009081526007602090815260408083206001600160a01b038516845290915290205460ff1615611944576118da6040518060400160405280601881526020017720b2323932b9b99034b99030b63932b0b23c9030903330b760411b815250614c21565b3360008181526008602090815260408083208054600180820183559185528385200180546001600160a01b0319166001600160a01b0388169081179091559484526007835281842094845293825291829020805460ff19169093179092558051808201909152601181527011985b881859191959081d1bc81b1a5cdd607a1b918101919091526119d390614c21565b808383815181106119e6576119e661587d565b60200260200101906001600160a01b031690816001600160a01b0316815250505b5080611a1281615893565b915050611865565b507fa99d709f8a9c899ba566c9b2515b1715239783ff40126e24d86e081505a7f50e81604051611a4a9190614e50565b60405180910390a15050565b336000908152600860205260408120905b8154811015611adb5733600090815260076020526040812083548290859085908110611a9557611a9561587d565b6000918252602080832091909101546001600160a01b031683528201929092526040019020805460ff191691151591909117905580611ad381615893565b915050611a67565b50336000908152600860205260408120611af491614d73565b50565b336000908152600a602052604090205460ff1615611b275760405162461bcd60e51b815260040161093e906155d8565b336000908152600b602052604090205460ff1615611b575760405162461bcd60e51b815260040161093e90615568565b611b5f614b1e565b600084815260056020526040812090611b76613150565b90506000611b898664e8d4a510006157d4565b9050611b9582826157d4565b9050611ba9670de0b6b3a764000082615804565b60048401546001600160a01b03166000908152600a602052604090205490915060ff1615611be95760405162461bcd60e51b815260040161093e9061560d565b60048301546001600160a01b03166000908152600b602052604090205460ff1615611c265760405162461bcd60e51b815260040161093e90615663565b6000600884015460ff166001811115611c4157611c416151a3565b14611c5e5760405162461bcd60e51b815260040161093e906156c0565b600683015460ff161515600114611c875760405162461bcd60e51b815260040161093e906156f7565b8260050154811015611cc85760405162461bcd60e51b815260206004820152600a60248201526953656e64206d6f72652160b01b604482015260640161093e565b6010546040516323b872dd60e01b81526000918291339183916001600160a01b03909116906323b872dd90611d0590859030908f90600401615826565b600060405180830381600087803b158015611d1f57600080fd5b505af1158015611d33573d6000803e3d6000fd5b50505050600287015460038801546001600160a01b03918216911603611e3857611d5e8a8a8a614b96565b611d68908b61577b565b93508b600103611de557601054600388015460405163a9059cbb60e01b81526001600160a01b039283169263a9059cbb92611daa9291169088906004016157eb565b600060405180830381600087803b158015611dc457600080fd5b505af1158015611dd8573d6000803e3d6000fd5b5050505060019250611fc8565b6000611df085612b63565b60038901546040519192506001600160a01b03169082156108fc029083906000818181858888f19350505050158015611e2d573d6000803e3d6000fd5b506001935050611fc8565b6000611e488b8960070154614b77565b9050611e54818c61577b565b9150611e61828b8b614b96565b611e6b908c61577b565b60105460028a015460405163a9059cbb60e01b81529297506001600160a01b039182169263a9059cbb92611ea592169085906004016157eb565b600060405180830381600087803b158015611ebf57600080fd5b505af1158015611ed3573d6000803e3d6000fd5b505050508c600103611f64576000611eee86620f42406157d4565b60105460038b015460405163a9059cbb60e01b81529293506001600160a01b039182169263a9059cbb92611f2892169085906004016157eb565b600060405180830381600087803b158015611f4257600080fd5b505af1158015611f56573d6000803e3d6000fd5b505050506001945050611fc6565b611f6d85612b63565b506000611f78613150565b611f8290876157d4565b60038a01546040519192506001600160a01b03169082156108fc029083906000818181858888f19350505050158015611fbf573d6000803e3d6000fd5b5060019450505b505b82156120c15760018701546040516323b872dd60e01b81526001600160a01b038f16916323b872dd91612002913091879190600401615826565b600060405180830381600087803b15801561201c57600080fd5b505af1158015612030573d6000803e3d6000fd5b50505050600080516020615c938339815191528d88600101548960030160009054906101000a90046001600160a01b0316858960405161207495949392919061584a565b60405180910390a16004870180546001600160a01b0384166001600160a01b031991821617909155600388018054909116905560068701805460ff191690556120c1600280546001019055565b505050505050506120d26001600055565b505050505050565b600c60205281600052604060002081815481106120f657600080fd5b90600052602060002001600091509150505481565b612113614ac4565b6001600160a01b03166000908152600a60205260409020805460ff19169055565b336000908152600b602052604090205460609060ff16156121675760405162461bcd60e51b815260040161093e90615568565b336000908152600a602052604090205460ff16156121975760405162461bcd60e51b815260040161093e906155d8565b60006121a260035490565b90506000805b82811015612212576000818152600560205260409020600301546001600160a01b0386811691161480156121ed575060008181526005602052604090206006015460ff165b1561220057816121fc81615893565b9250505b8061220a81615893565b9150506121a8565b506000816001600160401b0381111561222d5761222d614ee4565b60405190808252806020026020018201604052801561226657816020015b612253614d91565b81526020019060019003908161224b5790505b5090506000805b84811015612403576000818152600560205260409020600301546001600160a01b0388811691161480156122b2575060008181526005602052604090206006015460ff165b156123f15760008181526005602081815260409283902083516101808101855281546001600160a01b039081168252600180840154948301949094526002830154811695820195909552600382015485166060820152600482015490941660808501529182015460a0840152600682015460ff908116151560c0850152600783015460e08501526008830154610100850192911690811115612356576123566151a3565b6001811115612367576123676151a3565b81526020016008820160019054906101000a900460ff16600281111561238f5761238f6151a3565b60028111156123a0576123a06151a3565b8152600882015462010000900460ff161515602082015260099091015460409091015283518490849081106123d7576123d761587d565b602002602001018190525081806123ed90615893565b9250505b806123fb81615893565b91505061226d565b509093505050505b919050565b336000908152600a602052604081205460ff168061243d5750336000908152600b602052604090205460ff165b156124485750600190565b50600090565b612456614ac4565b6001600160a01b03166000908152600b60205260409020805460ff19166001179055565b6000828152600560205260409020600301546001600160a01b031633146124ff5760405162461bcd60e51b815260206004820152603360248201527f4f6e6c7920746865206f776e6572206f6620616e206e66742063616e20736574604482015272103234b9b1b7bab73a32b210383934b1b2b99760691b606482015260840161093e565b60009182526006602052604090912060020155565b336000908152600a602052604090205460ff16156125445760405162461bcd60e51b815260040161093e906155d8565b336000908152600b602052604090205460ff16156125745760405162461bcd60e51b815260040161093e90615568565b61257c614b1e565b6000868152600560205260409020856125d75760405162461bcd60e51b815260206004820152601c60248201527f5072696365206d757374206265206174206c6561737420312077656900000000604482015260640161093e565b60408051808201909152600981526837333a1737bbb732b960b91b6020820152600482015461260f91906001600160a01b0316614c64565b612636604051806040016040528060058152602001642fbab9b2b960d91b81525083614c64565b60048101546001600160a01b038381169116146126a85760405162461bcd60e51b815260206004820152602a60248201527f4f6e6c7920746865206f776e6572206f6620616e206e66742063616e206c69736044820152693a103a34329037333a1760b11b606482015260840161093e565b6040516323b872dd60e01b81526001600160a01b038916906323b872dd906126d890859030908c90600401615826565b600060405180830381600087803b1580156126f257600080fd5b505af1158015612706573d6000803e3d6000fd5b5050506003820180546001600160a01b0385166001600160a01b03199182161790915560048301805490911630179055506005810186905560068101805460ff191660019081179091558590811115612761576127616151a3565b60088201805460ff19166001838181111561277e5761277e6151a3565b0217905550600185036128a957604051806101000160405280888152602001836001600160a01b031681526020018781526020018581526020018481526020016000815260200160006001600160a01b031681526020018260080160019054906101000a900460ff1660028111156127f8576127f86151a3565b905260008881526009602090815260409182902083518155908301516001820180546001600160a01b03199081166001600160a01b039384161790915592840151600280840191909155606085015160038401556080850151600484015560a0850151600584015560c085015160068401805495861691909316908117835560e086015193946001600160a81b0319161790600160a01b9084908111156128a1576128a16151a3565b021790555050505b6128b36002614ca9565b7fa0c6c0d02d86fdacecbaa5fdf5894bab204e31a778250474108540733a9b8d19888884308a6040516128ea95949392919061584a565b60405180910390a1506128fd6001600055565b50505050505050565b61290e614ac4565b6129186000614d00565b565b604080516002808252606082018352600092839291906020830190803683375050600f54604080516315ab88c960e31b815290519394506001600160a01b039091169263ad5c4648925060048083019260209291908290030181865afa158015612988573d6000803e3d6000fd5b505050506040513d601f19601f820116820180604052508101906129ac91906158ac565b816000815181106129bf576129bf61587d565b6001600160a01b039283166020918202929092010152600e548251911690829060019081106129f0576129f061587d565b6001600160a01b039290921660209283029190910182015260408051600280825260608201835260009391929091830190803683375050600f5460405163d06ca61f60e01b81529293506001600160a01b03169163d06ca61f9150612a5b90879086906004016158c9565b600060405180830381865afa158015612a78573d6000803e3d6000fd5b505050506040513d6000823e601f3d908101601f19168201604052612aa091908101906158e2565b600f5481519192506001600160a01b031690637ff36ab590349084906001908110612acd57612acd61587d565b60200260200101518530426040518663ffffffff1660e01b8152600401612af79493929190615967565b60006040518083038185885af1158015612b15573d6000803e3d6000fd5b50505050506040513d6000823e601f3d908101601f19168201604052612b3e91908101906158e2565b5080600181518110612b5257612b5261587d565b602002602001015192505050919050565b6000612b8d60405180604001604052806006815260200165746573743d3160d01b81525083614bdc565b6040805160028082526060820183526000926020830190803683375050600e5482519293506001600160a01b031691839150600090612bce57612bce61587d565b6001600160a01b03928316602091820292909201810191909152600f54604080516315ab88c960e31b81529051919093169263ad5c46489260048083019391928290030181865afa158015612c27573d6000803e3d6000fd5b505050506040513d601f19601f82011682018060405250810190612c4b91906158ac565b81600181518110612c5e57612c5e61587d565b6001600160a01b039283166020918202929092010152601054600d5460405163095ea7b360e01b81529183169263095ea7b392612ca3929091169087906004016157eb565b600060405180830381600087803b158015612cbd57600080fd5b505af1158015612cd1573d6000803e3d6000fd5b50505050612cfb60405180604001604052806005815260200164746573743360d81b815250614c21565b6040805160028082526060820183526000926020830190803683375050600f5460405163d06ca61f60e01b81529293506001600160a01b03169163d06ca61f9150612d4c90879086906004016158c9565b600060405180830381865afa158015612d69573d6000803e3d6000fd5b505050506040513d6000823e601f3d908101601f19168201604052612d9191908101906158e2565b9050612dc860405180604001604052806006815260200165185b5bdd5b9d60d21b8152508260018151811061104d5761104d61587d565b600f5481516001600160a01b0390911690634a25d94a9083906001908110612df257612df261587d565b6020026020010151868530426040518663ffffffff1660e01b8152600401612e1e95949392919061599c565b6000604051808303816000875af1158015612e3d573d6000803e3d6000fd5b505050506040513d6000823e601f3d908101601f19168201604052612e6591908101906158e2565b50612e8c604051806040016040528060058152602001641d195cdd0d60da1b815250614c21565b80600181518110612b5257612b5261587d565b336000908152600b602052604090205460609060ff1615612ed25760405162461bcd60e51b815260040161093e90615568565b6000612edd60035490565b90506000612eea60025490565b612ef4908361577b565b9050612f20604051806040016040528060088152602001671b999d10dbdd5b9d60c21b81525083614bdc565b612f516040518060400160405280600f81526020016e1d5b9cdbdb1913999d1cd0dbdd5b9d608a1b81525082614bdc565b6000816001600160401b03811115612f6b57612f6b614ee4565b604051908082528060200260200182016040528015612fa457816020015b612f91614d91565b815260200190600190039081612f895790505b5090506000612fd56040518060400160405280600b81526020016a5f6964546f4e46545b695d60a81b815250614c21565b60005b848110156131465760008181526005602052604090206006015460ff16156131345760008181526005602081815260409283902083516101808101855281546001600160a01b039081168252600180840154948301949094526002830154811695820195909552600382015485166060820152600482015490941660808501529182015460a0840152600682015460ff908116151560c0850152600783015460e08501526008830154610100850192911690811115613099576130996151a3565b60018111156130aa576130aa6151a3565b81526020016008820160019054906101000a900460ff1660028111156130d2576130d26151a3565b60028111156130e3576130e36151a3565b8152600882015462010000900460ff1615156020820152600990910154604090910152835184908490811061311a5761311a61587d565b6020026020010181905250818061313090615893565b9250505b8061313e81615893565b915050612fd8565b5090935050505090565b60008073ee9f2375b4bdf6387aa8265dd4fb8f16512a1d4690506000816001600160a01b031663feaf968c6040518163ffffffff1660e01b815260040160a060405180830381865afa1580156131aa573d6000803e3d6000fd5b505050506040513d601f19601f820116820180604052508101906131ce91906159f2565b505050915050600081136132195760405162461bcd60e51b8152602060048201526012602482015271496e76616c6964205553445420707269636560701b604482015260640161093e565b92915050565b6000818152600960205260408120600301544211801561324f575060008281526009602052604090206004015442105b1561325c57506001919050565b506000919050565b60005b81518110156133f15760008282815181106132845761328461587d565b6020908102919091018101516001600160a01b0381166000908152600890925260408220909250905b81548110156133b357336001600160a01b03168282815481106132d2576132d261587d565b6000918252602090912001546001600160a01b0316036133a157815482906132fc9060019061577b565b8154811061330c5761330c61587d565b9060005260206000200160009054906101000a90046001600160a01b031682828154811061333c5761333c61587d565b9060005260206000200160006101000a8154816001600160a01b0302191690836001600160a01b031602179055508180548061337a5761337a615a42565b600082815260209020810160001990810180546001600160a01b03191690550190556133b3565b806133ab81615893565b9150506132ad565b50506001600160a01b031660009081526007602090815260408083203384529091529020805460ff19169055806133e981615893565b915050613267565b5050565b600083815260096020526040902060030154839042118015613427575060008181526009602052604090206004015442105b6134435760405162461bcd60e51b815260040161093e90615a58565b336000908152600b602052604090205460ff16156134735760405162461bcd60e51b815260040161093e90615568565b336000908152600a602052604090205460ff16156134a35760405162461bcd60e51b815260040161093e906155d8565b60006134ad613150565b60008681526006602052604090206001015490915060ff1615613519576000858152600560209081526040808320600301546001600160a01b031683526007825280832033845290915290205460ff166135195760405162461bcd60e51b815260040161093e9061572e565b600061352a8564e8d4a510006157d4565b905061353682826157d4565b905061354a670de0b6b3a764000082615804565b905061357f604051806040016040528060118152602001705f616d6f756e74496e455448496e57656960781b81525082614bdc565b6000868152600960205260409020600601546001600160a01b03166135cf576000868152600960205260409020600201548110156135cf5760405162461bcd60e51b815260040161093e90615aa1565b6000868152600960205260409020600501548110156136005760405162461bcd60e51b815260040161093e90615ad8565b600160008781526005602052604090206008015460ff166001811115613628576136286151a3565b146136455760405162461bcd60e51b815260040161093e90615b35565b60008681526005602052604090206006015460ff16151560011461367b5760405162461bcd60e51b815260040161093e906156f7565b6010546040516323b872dd60e01b81526001600160a01b03909116906323b872dd906136af90339030908a90600401615826565b600060405180830381600087803b1580156136c957600080fd5b505af11580156136dd573d6000803e3d6000fd5b5050506000878152600960205260409020600681015460058201549192506001600160a01b031690811561381f5760016006840154600160a01b900460ff16600281111561372d5761372d6151a3565b036137c057600061373c613150565b6137469083615804565b905061375581620f42406157d4565b60105460405163a9059cbb60e01b81529192506001600160a01b03169063a9059cbb9061378890869085906004016157eb565b600060405180830381600087803b1580156137a257600080fd5b505af11580156137b6573d6000803e3d6000fd5b505050505061381f565b60006006840154600160a01b900460ff1660028111156137e2576137e26151a3565b0361381f576040516001600160a01b0383169082156108fc029083906000818181858888f1935050505015801561381d573d6000803e3d6000fd5b505b600583018490556006830180546001600160a01b0319163317905586600281111561384c5761384c6151a3565b60068401805460ff60a01b1916600160a01b836002811115613870576138706151a3565b021790555061388142610258615b68565b836004015410156138f65761012c8360040160008282546138a29190615b68565b9091555050600183015460048401546040517f8e1cb85d0855921b3c958b068fa707efb7db88099af764dd47f37eef82c3334d926138ed928d926001600160a01b0390921691615b7b565b60405180910390a15b6001830154600684015460058501546040517f4307392e6f0e441e74a4982d9fa9ddc49b3cd9d3902a9d3ecab0ad3c60a0acd193613946938e936001600160a01b03928316939290911691615b9a565b60405180910390a1505050505050505050565b6008602052816000526040600020818154811061397557600080fd5b6000918252602090912001546001600160a01b03169150829050565b6060600061399e60035490565b905060006139ab60025490565b6139b5908361577b565b90506139e1604051806040016040528060088152602001671b999d10dbdd5b9d60c21b81525083614bdc565b613a126040518060400160405280600f81526020016e1d5b9cdbdb1913999d1cd0dbdd5b9d608a1b81525082614bdc565b6000816001600160401b03811115613a2c57613a2c614ee4565b604051908082528060200260200182016040528015613a6557816020015b613a52614d91565b815260200190600190039081613a4a5790505b5090506000613a986040518060400160405280600d81526020016c17d8dbdb1b1958dd1a5bdb9259609a1b815250614c21565b60005b848110156124035760008181526005602052604090206006015460ff168015613ad4575060008181526005602052604090206009015487145b15613c135760008181526005602081815260409283902083516101808101855281546001600160a01b039081168252600180840154948301949094526002830154811695820195909552600382015485166060820152600482015490941660808501529182015460a0840152600682015460ff908116151560c0850152600783015460e08501526008830154610100850192911690811115613b7857613b786151a3565b6001811115613b8957613b896151a3565b81526020016008820160019054906101000a900460ff166002811115613bb157613bb16151a3565b6002811115613bc257613bc26151a3565b8152600882015462010000900460ff16151560208201526009909101546040909101528351849084908110613bf957613bf961587d565b60200260200101819052508180613c0f90615893565b9250505b80613c1d81615893565b915050613a9b565b6000613c2f614ac4565b6000805b8451811015613c9357848181518110613c4e57613c4e61587d565b602090810291909101810151600081815260059092526040909120600801805462ff000019166201000087151502179055915080613c8b81615893565b915050613c33565b506001949350505050565b60005b81518110156133f1576000828281518110613cbe57613cbe61587d565b602090810291909101810151600081815260059092526040909120600301549091506001600160a01b03163314613d1557613d106040518060600160405280602e8152602001615c65602e9139614c21565b613d89565b6000818152600560205260409020600301546001600160a01b0316613d6757613d106040518060400160405280601281526020017113919508191bd95cc81b9bdd08195e1a5cdd60721b815250614c21565b6000818152600660205260409020600101805460ff19811660ff909116151790555b5080613d9481615893565b915050613ca1565b613da4614ac4565b6001600160a01b038116613e095760405162461bcd60e51b815260206004820152602660248201527f4f776e61626c653a206e6577206f776e657220697320746865207a65726f206160448201526564647265737360d01b606482015260840161093e565b611af481614d00565b6000838152600960205260409020600401544211613e6e5760405162461bcd60e51b8152602060048201526019602482015278105d58dd1a5bdb881a185cc81b9bdd08195b991959081e595d603a1b604482015260640161093e565b6000838152600560209081526040808320600990925290912060068101546001600160a01b0316613f3957600181810154908301546040516323b872dd60e01b81526001600160a01b03898116936323b872dd93613ed493309390921691600401615826565b600060405180830381600087803b158015613eee57600080fd5b505af1158015613f02573d6000803e3d6000fd5b50505060038301546004840180546001600160a01b0319166001600160a01b039092169190911790555060068201805460ff191690555b60058101546000908190816008860154610100900460ff166002811115613f6257613f626151a3565b036140df5760016006850154600160a01b900460ff166002811115613f8957613f896151a3565b03613fbe576000613f98613150565b613fa29083615804565b9050613fb181620f42406157d4565b50613fbb81612b63565b50505b600285015460048601546001600160a01b0391821691160361403257613fe5818888614b96565b613fef908261577b565b60038601546040519193506001600160a01b03169083156108fc029084906000818181858888f1935050505015801561402c573d6000803e3d6000fd5b506142e4565b61404484600501548660070154614b77565b9250614051818888614b96565b61405b848361577b565b614065919061577b565b60028601546040519193506001600160a01b03169084156108fc029085906000818181858888f193505050501580156140a2573d6000803e3d6000fd5b5060038501546040516001600160a01b039091169083156108fc029084906000818181858888f1935050505015801561402c573d6000803e3d6000fd5b60016008860154610100900460ff1660028111156140ff576140ff6151a3565b036142e45760006006850154600160a01b900460ff166002811115614126576141266151a3565b03614137576141348161291a565b90505b600285015460048601546001600160a01b039182169116036141d95761415e818888614b96565b614168908261577b565b601054600387015460405163a9059cbb60e01b81529294506001600160a01b039182169263a9059cbb926141a292169086906004016157eb565b600060405180830381600087803b1580156141bc57600080fd5b505af11580156141d0573d6000803e3d6000fd5b505050506142e4565b6141eb84600501548660070154614b77565b92506141f8818888614b96565b614202848361577b565b61420c919061577b565b601054600387015460405163a9059cbb60e01b81529294506001600160a01b039182169263a9059cbb9261424692169086906004016157eb565b600060405180830381600087803b15801561426057600080fd5b505af1158015614274573d6000803e3d6000fd5b5050601054600288015460405163a9059cbb60e01b81526001600160a01b03928316945063a9059cbb93506142b1929091169087906004016157eb565b600060405180830381600087803b1580156142cb57600080fd5b505af11580156142df573d6000803e3d6000fd5b505050505b600684015460018601546040516323b872dd60e01b81526001600160a01b038c8116936323b872dd9361431f93309390921691600401615826565b600060405180830381600087803b15801561433957600080fd5b505af115801561434d573d6000803e3d6000fd5b5050506001860154600387015460068701546005880154604051600080516020615c938339815191529550614394948f9490936001600160a01b039182169391169161584a565b60405180910390a16006808501546004870180546001600160a01b0319166001600160a01b039092169190911790558501805460ff19169055611810600280546001019055565b60008281526009602052604090206003015482904211801561440d575060008181526009602052604090206004015442105b6144295760405162461bcd60e51b815260040161093e90615a58565b336000908152600b602052604090205460ff16156144595760405162461bcd60e51b815260040161093e90615568565b336000908152600a602052604090205460ff16156144895760405162461bcd60e51b815260040161093e906155d8565b60008381526006602052604090206001015460ff16156144f2576000838152600560209081526040808320600301546001600160a01b031683526007825280832033845290915290205460ff166144f25760405162461bcd60e51b815260040161093e9061572e565b6000838152600960205260409020600601546001600160a01b0316614542576000838152600960205260409020600201543410156145425760405162461bcd60e51b815260040161093e90615aa1565b60008381526009602052604090206005015434116145725760405162461bcd60e51b815260040161093e90615ad8565b600160008481526005602052604090206008015460ff16600181111561459a5761459a6151a3565b146145b75760405162461bcd60e51b815260040161093e90615b35565b60008381526005602052604090206006015460ff1615156001146145ed5760405162461bcd60e51b815260040161093e906156f7565b6000838152600960205260409020600681015460058201546001600160a01b0390911690811561472b5760016006840154600160a01b900460ff166002811115614639576146396151a3565b036146cc576000614648613150565b6146529083615804565b905061466181620f42406157d4565b60105460405163a9059cbb60e01b81529192506001600160a01b03169063a9059cbb9061469490869085906004016157eb565b600060405180830381600087803b1580156146ae57600080fd5b505af11580156146c2573d6000803e3d6000fd5b505050505061472b565b60006006840154600160a01b900460ff1660028111156146ee576146ee6151a3565b0361472b576040516001600160a01b0383169082156108fc029083906000818181858888f19350505050158015614729573d6000803e3d6000fd5b505b3460058401556006830180546001600160a01b03191633179055846002811115614757576147576151a3565b60068401805460ff60a01b1916600160a01b83600281111561477b5761477b6151a3565b021790555061478c42610258615b68565b836004015410156148015761012c8360040160008282546147ad9190615b68565b9091555050600183015460048401546040517f8e1cb85d0855921b3c958b068fa707efb7db88099af764dd47f37eef82c3334d926147f8928a926001600160a01b0390921691615b7b565b60405180910390a15b6001830154600684015460058501546040517f4307392e6f0e441e74a4982d9fa9ddc49b3cd9d3902a9d3ecab0ad3c60a0acd193614851938b936001600160a01b03928316939290911691615b9a565b60405180910390a1505050505050565b336000908152600b602052604090205460609060ff16156148945760405162461bcd60e51b815260040161093e90615568565b600061489f60035490565b90506000805b828110156148f1576000818152600560205260409020600401546001600160a01b038087169116036148df57816148db81615893565b9250505b806148e981615893565b9150506148a5565b506000816001600160401b0381111561490c5761490c614ee4565b60405190808252806020026020018201604052801561494557816020015b614932614d91565b81526020019060019003908161492a5790505b5090506000805b84811015612403576000818152600560205260409020600401546001600160a01b03808916911603614ab25760008181526005602081815260409283902083516101808101855281546001600160a01b039081168252600180840154948301949094526002830154811695820195909552600382015485166060820152600482015490941660808501529182015460a0840152600682015460ff908116151560c0850152600783015460e08501526008830154610100850192911690811115614a1757614a176151a3565b6001811115614a2857614a286151a3565b81526020016008820160019054906101000a900460ff166002811115614a5057614a506151a3565b6002811115614a6157614a616151a3565b8152600882015462010000900460ff16151560208201526009909101546040909101528351849084908110614a9857614a9861587d565b60200260200101819052508180614aae90615893565b9250505b80614abc81615893565b91505061494c565b6001546001600160a01b031633146129185760405162461bcd60e51b815260206004820181905260248201527f4f776e61626c653a2063616c6c6572206973206e6f7420746865206f776e6572604482015260640161093e565b600260005403614b705760405162461bcd60e51b815260206004820152601f60248201527f5265656e7472616e637947756172643a207265656e7472616e742063616c6c00604482015260640161093e565b6002600055565b60006064614b8583856157d4565b614b8f9190615804565b9392505050565b6000806103e8614ba685876157d4565b614bb09190615804565b90506103e8614bbf84876157d4565b614bc99190615804565b614bd39082615b68565b95945050505050565b6133f18282604051602401614bf2929190615c05565b60408051601f198184030181529190526020810180516001600160e01b0316632d839cb360e21b179052614d52565b611af481604051602401614c359190615c27565b60408051601f198184030181529190526020810180516001600160e01b031663104c13eb60e21b179052614d52565b6133f18282604051602401614c7a929190615c3a565b60408051601f198184030181529190526020810180516001600160e01b031663319af33360e01b179052614d52565b805480614cf85760405162461bcd60e51b815260206004820152601b60248201527f436f756e7465723a2064656372656d656e74206f766572666c6f770000000000604482015260640161093e565b600019019055565b600180546001600160a01b038381166001600160a01b0319831681179093556040519116919082907f8be0079c531659141344cd1fd0a4f28419497f9722a3daafe3b4186f6b6457e090600090a35050565b80516a636f6e736f6c652e6c6f67602083016000808483855afa5050505050565b5080546000825590600052602060002090810190611af49190614df3565b6040805161018081018252600080825260208201819052918101829052606081018290526080810182905260a0810182905260c0810182905260e081018290529061010082019081526020016000815260006020820181905260409091015290565b5b80821115614e085760008155600101614df4565b5090565b600081518084526020808501945080840160005b83811015614e455781516001600160a01b031687529582019590820190600101614e20565b509495945050505050565b602081526000614b8f6020830184614e0c565b6001600160a01b0381168114611af457600080fd5b803561240b81614e63565b600060208284031215614e9557600080fd5b8135614b8f81614e63565b600080600080600060a08688031215614eb857600080fd5b8535614ec381614e63565b97602087013597506040870135966060810135965060800135945092505050565b634e487b7160e01b600052604160045260246000fd5b604051601f8201601f191681016001600160401b0381118282101715614f2257614f22614ee4565b604052919050565b60006001600160401b03821115614f4357614f43614ee4565b5060051b60200190565b600082601f830112614f5e57600080fd5b81356020614f73614f6e83614f2a565b614efa565b82815260059290921b84018101918181019086841115614f9257600080fd5b8286015b84811015614fad5780358352918301918301614f96565b509695505050505050565b60008060008060008060008060006101208a8c031215614fd757600080fd5b614fe08a614e78565b985060208a01356001600160401b0380821115614ffc57600080fd5b6150088d838e01614f4d565b995060408c013591508082111561501e57600080fd5b61502a8d838e01614f4d565b985060608c0135975060808c0135965060a08c013591508082111561504e57600080fd5b61505a8d838e01614f4d565b955060c08c013591508082111561507057600080fd5b5061507d8c828d01614f4d565b93505060e08a013591506101008a013590509295985092959850929598565b600060208083850312156150af57600080fd5b82356001600160401b038111156150c557600080fd5b8301601f810185136150d657600080fd5b80356150e4614f6e82614f2a565b81815260059190911b8201830190838101908783111561510357600080fd5b928401925b8284101561512a57833561511b81614e63565b82529284019290840190615108565b979650505050505050565b60008060008060008060c0878903121561514e57600080fd5b863561515981614e63565b9860208801359850604088013597606081013597506080810135965060a00135945092505050565b6000806040838503121561519457600080fd5b50508035926020909101359150565b634e487b7160e01b600052602160045260246000fd5b600281106151c9576151c96151a3565b9052565b600381106151c9576151c96151a3565b602080825282518282018190526000919060409081850190868401855b828110156152b357815180516001600160a01b0390811686528782015188870152868201518116878701526060808301518216908701526080808301519091169086015260a0808201519086015260c08082015115159086015260e0808201519086015261010080820151615271828801826151b9565b505061012080820151615286828801826151cd565b505061014081810151151590860152610160908101519085015261018090930192908501906001016151fa565b5091979650505050505050565b600080600080600080600060e0888a0312156152db57600080fd5b87356152e681614e63565b96506020880135955060408801359450606088013593506080880135925060a0880135915060c088013561531981614e63565b8091505092959891949750929550565b60006020828403121561533b57600080fd5b5035919050565b8881526001600160a01b03888116602083015260408201889052606082018790526080820186905260a08201859052831660c0820152610100810161538a60e08301846151cd565b9998505050505050505050565b6000806000606084860312156153ac57600080fd5b505081359360208301359350604090920135919050565b6001600160a01b038d81168252602082018d90528b811660408301528a811660608301528916608082015260a0810188905286151560c082015260e0810186905261018081016154176101008301876151b9565b6154256101208301866151cd565b92151561014082015261016001529a9950505050505050505050565b6000806040838503121561545457600080fd5b823561545f81614e63565b946020939093013593505050565b6000806040838503121561548057600080fd5b82356001600160401b0381111561549657600080fd5b6154a285828601614f4d565b925050602083013580151581146154b857600080fd5b809150509250929050565b600080604083850312156154d657600080fd5b82356154e181614e63565b915060208301356154b881614e63565b60006020828403121561550357600080fd5b81356001600160401b0381111561551957600080fd5b61552584828501614f4d565b949350505050565b6000806000806080858703121561554357600080fd5b843561554e81614e63565b966020860135965060408601359560600135945092505050565b6020808252604a908201527f596f7520617265207065726d656e616e746c792064656c657465642066726f6d60408201527f207468697320706c6174666f726d20666f722076696f6c6174696e6720746865606082015269103837b634b1b4b2b99760b11b608082015260a00190565b6020808252818101527f596f75206172652062616e6e6564206f6e207468697320706c6174666f726d2e604082015260600190565b60208082526036908201527f546865206f776e6572206f662074686973206e667420697320626c61636b6c6960408201527539ba32b21037b7103a3434b990383630ba3337b9369760511b606082015260800190565b6020808252603d908201527f546865206f776e6572206f662074686973206e6674206973207065726d616e6160408201527f6e746c792062616e6e6564206f6e207468697320706c6174666f726d2e000000606082015260800190565b6020808252601a908201527f54686973204e4654206973206e6f742061742061756374696f6e000000000000604082015260600190565b6020808252601d908201527f4e6674206973206e6f74206c697374656420746f207075726368617365000000604082015260600190565b6020808252601b908201527f596f7520617265206e6f7420696e207468652066616e206c6973740000000000604082015260600190565b634e487b7160e01b600052601160045260246000fd5b8181038181111561321957613219615765565b60208082526026908201527f4e6f7420656e6f75676820657468657220746f20636f7665722061736b696e6760408201526520707269636560d01b606082015260800190565b808202811582820484141761321957613219615765565b6001600160a01b03929092168252602082015260400190565b60008261582157634e487b7160e01b600052601260045260246000fd5b500490565b6001600160a01b039384168152919092166020820152604081019190915260600190565b6001600160a01b039586168152602081019490945291841660408401529092166060820152608081019190915260a00190565b634e487b7160e01b600052603260045260246000fd5b6000600182016158a5576158a5615765565b5060010190565b6000602082840312156158be57600080fd5b8151614b8f81614e63565b8281526040602082015260006155256040830184614e0c565b600060208083850312156158f557600080fd5b82516001600160401b0381111561590b57600080fd5b8301601f8101851361591c57600080fd5b805161592a614f6e82614f2a565b81815260059190911b8201830190838101908783111561594957600080fd5b928401925b8284101561512a5783518252928401929084019061594e565b8481526080602082015260006159806080830186614e0c565b6001600160a01b03949094166040830152506060015292915050565b85815284602082015260a0604082015260006159bb60a0830186614e0c565b6001600160a01b0394909416606083015250608001529392505050565b805169ffffffffffffffffffff8116811461240b57600080fd5b600080600080600060a08688031215615a0a57600080fd5b615a13866159d8565b9450602086015193506040860151925060608601519150615a36608087016159d8565b90509295509295909350565b634e487b7160e01b600052603160045260246000fd5b60208082526029908201527f54686973204e4654206973206e6f74206f6e2061756374696f6e206174207468604082015268329036b7b6b2b73a1760b91b606082015260800190565b6020808252601c908201527f4d696e696d756d206269642068617320746f2062652068696768657200000000604082015260600190565b6020808252603c908201527f596f75206861766520746f2062696420686967686572207468616e207468652060408201527f686967686573742062696420746f206d616b6520616e206f6666657200000000606082015260800190565b6020808252601990820152782a3434b99027232a1034b99030ba1030ba1030bab1ba34b7b760391b604082015260600190565b8082018082111561321957613219615765565b9283526001600160a01b03919091166020830152604082015260600190565b9384526001600160a01b03928316602085015291166040830152606082015260800190565b6000815180845260005b81811015615be557602081850181015186830182015201615bc9565b506000602082860101526020601f19601f83011685010191505092915050565b604081526000615c186040830185615bbf565b90508260208301529392505050565b602081526000614b8f6020830184615bbf565b604081526000615c4d6040830185615bbf565b905060018060a01b0383166020830152939250505056fe4f6e6c7920746865206f776e6572206f6620616e206e66742063616e20736574207468652066616e206c6973742e16f1dbd97e6bf646d429ed186cce832f1f7fd9907814293b83181e9970ab7bd2a2646970667358221220c3598ec7b278c383cbad92c1183930d3388d3e4d8ad26d3e8b971d6c52545ee564736f6c63430008130033",
  "linkReferences": {},
  "deployedLinkReferences": {}
}