{
  "_format": "hh-sol-artifact-1",
  "contractName": "ArtiziaNFT",
  "sourceName": "contracts/ArtiziaNFT.sol",
  "abi": [
    {
      "inputs": [
        {
          "internalType": "address",
          "name": "_artiziaMarketplaceContract",
          "type": "address"
        }
      ],
      "stateMutability": "nonpayable",
      "type": "constructor"
    },
    {
      "anonymous": false,
      "inputs": [
        {
          "indexed": true,
          "internalType": "address",
          "name": "owner",
          "type": "address"
        },
        {
          "indexed": true,
          "internalType": "address",
          "name": "approved",
          "type": "address"
        },
        {
          "indexed": true,
          "internalType": "uint256",
          "name": "tokenId",
          "type": "uint256"
        }
      ],
      "name": "Approval",
      "type": "event"
    },
    {
      "anonymous": false,
      "inputs": [
        {
          "indexed": true,
          "internalType": "address",
          "name": "owner",
          "type": "address"
        },
        {
          "indexed": true,
          "internalType": "address",
          "name": "operator",
          "type": "address"
        },
        {
          "indexed": false,
          "internalType": "bool",
          "name": "approved",
          "type": "bool"
        }
      ],
      "name": "ApprovalForAll",
      "type": "event"
    },
    {
      "anonymous": false,
      "inputs": [
        {
          "indexed": false,
          "internalType": "uint256",
          "name": "_fromTokenId",
          "type": "uint256"
        },
        {
          "indexed": false,
          "internalType": "uint256",
          "name": "_toTokenId",
          "type": "uint256"
        }
      ],
      "name": "BatchMetadataUpdate",
      "type": "event"
    },
    {
      "anonymous": false,
      "inputs": [
        {
          "indexed": false,
          "internalType": "uint256",
          "name": "_tokenId",
          "type": "uint256"
        }
      ],
      "name": "MetadataUpdate",
      "type": "event"
    },
    {
      "anonymous": false,
      "inputs": [
        {
          "indexed": false,
          "internalType": "uint256[]",
          "name": "",
          "type": "uint256[]"
        }
      ],
      "name": "NFTMinted",
      "type": "event"
    },
    {
      "anonymous": false,
      "inputs": [
        {
          "indexed": true,
          "internalType": "address",
          "name": "from",
          "type": "address"
        },
        {
          "indexed": true,
          "internalType": "address",
          "name": "to",
          "type": "address"
        },
        {
          "indexed": true,
          "internalType": "uint256",
          "name": "tokenId",
          "type": "uint256"
        }
      ],
      "name": "Transfer",
      "type": "event"
    },
    {
      "inputs": [],
      "name": "_tokenIds",
      "outputs": [
        {
          "internalType": "uint256",
          "name": "",
          "type": "uint256"
        }
      ],
      "stateMutability": "view",
      "type": "function"
    },
    {
      "inputs": [
        {
          "internalType": "address",
          "name": "to",
          "type": "address"
        },
        {
          "internalType": "uint256",
          "name": "tokenId",
          "type": "uint256"
        }
      ],
      "name": "approve",
      "outputs": [],
      "stateMutability": "nonpayable",
      "type": "function"
    },
    {
      "inputs": [
        {
          "internalType": "address",
          "name": "owner",
          "type": "address"
        }
      ],
      "name": "balanceOf",
      "outputs": [
        {
          "internalType": "uint256",
          "name": "",
          "type": "uint256"
        }
      ],
      "stateMutability": "view",
      "type": "function"
    },
    {
      "inputs": [
        {
          "internalType": "uint256",
          "name": "tokenId",
          "type": "uint256"
        }
      ],
      "name": "getApproved",
      "outputs": [
        {
          "internalType": "address",
          "name": "",
          "type": "address"
        }
      ],
      "stateMutability": "view",
      "type": "function"
    },
    {
      "inputs": [],
      "name": "getMintedTokensList",
      "outputs": [
        {
          "internalType": "uint256[]",
          "name": "",
          "type": "uint256[]"
        }
      ],
      "stateMutability": "view",
      "type": "function"
    },
    {
      "inputs": [
        {
          "internalType": "address",
          "name": "_contractAddress",
          "type": "address"
        }
      ],
      "name": "getNFTsOnAcount",
      "outputs": [
        {
          "internalType": "uint256[]",
          "name": "",
          "type": "uint256[]"
        }
      ],
      "stateMutability": "view",
      "type": "function"
    },
    {
      "inputs": [
        {
          "internalType": "address",
          "name": "owner",
          "type": "address"
        },
        {
          "internalType": "address",
          "name": "operator",
          "type": "address"
        }
      ],
      "name": "isApprovedForAll",
      "outputs": [
        {
          "internalType": "bool",
          "name": "",
          "type": "bool"
        }
      ],
      "stateMutability": "view",
      "type": "function"
    },
    {
      "inputs": [
        {
          "internalType": "string[]",
          "name": "_tokenURIs",
          "type": "string[]"
        }
      ],
      "name": "mint",
      "outputs": [],
      "stateMutability": "nonpayable",
      "type": "function"
    },
    {
      "inputs": [
        {
          "internalType": "address",
          "name": "",
          "type": "address"
        },
        {
          "internalType": "uint256",
          "name": "",
          "type": "uint256"
        }
      ],
      "name": "mintedTokens",
      "outputs": [
        {
          "internalType": "uint256",
          "name": "",
          "type": "uint256"
        }
      ],
      "stateMutability": "view",
      "type": "function"
    },
    {
      "inputs": [
        {
          "internalType": "uint256",
          "name": "",
          "type": "uint256"
        }
      ],
      "name": "mintedTokensList",
      "outputs": [
        {
          "internalType": "uint256",
          "name": "",
          "type": "uint256"
        }
      ],
      "stateMutability": "view",
      "type": "function"
    },
    {
      "inputs": [],
      "name": "name",
      "outputs": [
        {
          "internalType": "string",
          "name": "",
          "type": "string"
        }
      ],
      "stateMutability": "view",
      "type": "function"
    },
    {
      "inputs": [
        {
          "internalType": "uint256",
          "name": "tokenId",
          "type": "uint256"
        }
      ],
      "name": "ownerOf",
      "outputs": [
        {
          "internalType": "address",
          "name": "",
          "type": "address"
        }
      ],
      "stateMutability": "view",
      "type": "function"
    },
    {
      "inputs": [
        {
          "internalType": "address",
          "name": "from",
          "type": "address"
        },
        {
          "internalType": "address",
          "name": "to",
          "type": "address"
        },
        {
          "internalType": "uint256",
          "name": "tokenId",
          "type": "uint256"
        }
      ],
      "name": "safeTransferFrom",
      "outputs": [],
      "stateMutability": "nonpayable",
      "type": "function"
    },
    {
      "inputs": [
        {
          "internalType": "address",
          "name": "from",
          "type": "address"
        },
        {
          "internalType": "address",
          "name": "to",
          "type": "address"
        },
        {
          "internalType": "uint256",
          "name": "tokenId",
          "type": "uint256"
        },
        {
          "internalType": "bytes",
          "name": "data",
          "type": "bytes"
        }
      ],
      "name": "safeTransferFrom",
      "outputs": [],
      "stateMutability": "nonpayable",
      "type": "function"
    },
    {
      "inputs": [
        {
          "internalType": "address",
          "name": "operator",
          "type": "address"
        },
        {
          "internalType": "bool",
          "name": "approved",
          "type": "bool"
        }
      ],
      "name": "setApprovalForAll",
      "outputs": [],
      "stateMutability": "nonpayable",
      "type": "function"
    },
    {
      "inputs": [
        {
          "internalType": "bytes4",
          "name": "interfaceId",
          "type": "bytes4"
        }
      ],
      "name": "supportsInterface",
      "outputs": [
        {
          "internalType": "bool",
          "name": "",
          "type": "bool"
        }
      ],
      "stateMutability": "view",
      "type": "function"
    },
    {
      "inputs": [],
      "name": "symbol",
      "outputs": [
        {
          "internalType": "string",
          "name": "",
          "type": "string"
        }
      ],
      "stateMutability": "view",
      "type": "function"
    },
    {
      "inputs": [
        {
          "internalType": "uint256",
          "name": "tokenId",
          "type": "uint256"
        }
      ],
      "name": "tokenURI",
      "outputs": [
        {
          "internalType": "string",
          "name": "",
          "type": "string"
        }
      ],
      "stateMutability": "view",
      "type": "function"
    },
    {
      "inputs": [
        {
          "internalType": "address",
          "name": "from",
          "type": "address"
        },
        {
          "internalType": "address",
          "name": "to",
          "type": "address"
        },
        {
          "internalType": "uint256",
          "name": "tokenId",
          "type": "uint256"
        }
      ],
      "name": "transferFrom",
      "outputs": [],
      "stateMutability": "nonpayable",
      "type": "function"
    }
  ],
  "bytecode": "0x6080346200035657601f601f196001600160401b036200211938819003848101841686018381118782101762000340578692829160405283396020958691810103126200035657516001600160a01b03811693908490036200035657620000656200035b565b926007845266417274697a696160c81b86850152620000836200035b565b90600482526320a92a2d60e11b8783015284519084821162000340576000918254966001978881811c9116801562000335575b8b8210146200032157908187849311620002ce575b508a908783116001146200026b5785926200025f575b5050600019600383901b1c191690871b1782555b82519485116200024b5785548681811c9116801562000240575b898210146200022c57848111620001e4575b50879385116001146200017f575083949596509262000173575b5050600019600383901b1c191690821b1790555b600880546001600160a01b031916919091179055604051611d9d90816200037c8239f35b0151905038806200013b565b8493929193169685845280842093905b888210620001cc5750508385969710620001b2575b505050811b0190556200014f565b015160001960f88460031b161c19169055388080620001a4565b8087859682949686015181550195019301906200018f565b8683528883208580880160051c8201928b891062000222575b0160051c019087905b8281106200021657505062000121565b84815501879062000206565b92508192620001fd565b634e487b7160e01b83526022600452602483fd5b90607f16906200010f565b634e487b7160e01b82526041600452602482fd5b015190503880620000e1565b90848a9416918680528c8720928d88905b828210620002b657505084116200029c575b505050811b018255620000f5565b015160001960f88460031b161c191690553880806200028e565b8385015186558d979095019493840193018e6200027c565b9091508480528a85208780850160051c8201928d861062000317575b918b91869594930160051c01915b82811062000308575050620000cb565b8781558594508b9101620002f8565b92508192620002ea565b634e487b7160e01b85526022600452602485fd5b90607f1690620000b6565b634e487b7160e01b600052604160045260246000fd5b600080fd5b60408051919082016001600160401b03811183821017620003405760405256fe608080604052600436101561001357600080fd5b60003560e01c90816301ffc9a7146112015750806306fdde031461115e578063081812fc14611140578063095ea7b314610f535780630d98153614610ef057806323b872dd14610ecc578063348b2f4714610e4757806342842e0e14610e145780635768f271146107335780636352211e146106f757806370a082311461062657806374aecbb21461059f57806374c92fd11461054e57806395d89b4114610451578063a22cb4651461033b578063aa46a4001461031d578063b88d4fde14610295578063c87b56dd146101595763e985e9c5146100f057600080fd5b3461015457604060031936011261015457610109611361565b610111611384565b9073ffffffffffffffffffffffffffffffffffffffff809116600052600560205260406000209116600052602052602060ff604060002054166040519015158152f35b600080fd5b3461015457602080600319360112610154576004356101a361019e82600052600260205273ffffffffffffffffffffffffffffffffffffffff60406000205416151590565b611522565b600052600681526040600020906040519182600082546101c2816115b9565b93848452600191868382169182600014610254575050600114610215575b50506101ee92500383611458565b60006040516101fc8161143c565b52610211604051928284938452830190611303565b0390f35b85925060005281600020906000915b85831061023c5750506101ee935082010185806101e0565b80548389018501528794508693909201918101610224565b915093506101ee9592507fffffffffffffffffffffffffffffffffffffffffffffffffffffffffffffff0091501682840152151560051b82010185806101e0565b34610154576080600319360112610154576102ae611361565b6102b6611384565b906064359060443567ffffffffffffffff831161015457366023840112156101545761031b936102f36103169436906024816004013591016114eb565b92610306610301843361177a565b611663565b610311838383611880565b611be4565b6116ee565b005b34610154576000600319360112610154576020600754604051908152f35b3461015457604060031936011261015457610354611361565b602435908115158092036101545773ffffffffffffffffffffffffffffffffffffffff16908133146103f35733600052600560205260406000208260005260205260406000207fffffffffffffffffffffffffffffffffffffffffffffffffffffffffffffff0081541660ff83161790556040519081527f17307eab39ab6107e8899845ad3d59bd9653f200f220920489ca2b5937696c3160203392a3005b60646040517f08c379a000000000000000000000000000000000000000000000000000000000815260206004820152601960248201527f4552433732313a20617070726f766520746f2063616c6c6572000000000000006044820152fd5b346101545760006003193601126101545760405160006001805490610475826115b9565b8085529181811690811561050957506001146104b0575b6102118461049c81860382611458565b604051918291602083526020830190611303565b600081815292507fb10e2d527612073b26eecdfd717e6a320cf44b4afac2b0732d9fcbe2b7fa0cf65b8284106104f157505050810160200161049c8261048c565b805460208587018101919091529093019281016104d9565b7fffffffffffffffffffffffffffffffffffffffffffffffffffffffffffffff001660208087019190915292151560051b8501909201925061049c915083905061048c565b3461015457602060031936011261015457600435600a5481101561015457602090600a6000527fc65a7bb8d6351c1cf70c95a316cc6a92839c986682d98bc35f958f4883f9d2a80154604051908152f35b346101545760006003193601126101545760405180600a5491828152602080910192600a6000527fc65a7bb8d6351c1cf70c95a316cc6a92839c986682d98bc35f958f4883f9d2a8916000905b82821061060f576102118561060381890382611458565b60405191829182611401565b8354865294850194600193840193909101906105ec565b346101545760206003193601126101545773ffffffffffffffffffffffffffffffffffffffff610654611361565b1680156106735760005260036020526020604060002054604051908152f35b60846040517f08c379a000000000000000000000000000000000000000000000000000000000815260206004820152602960248201527f4552433732313a2061646472657373207a65726f206973206e6f74206120766160448201527f6c6964206f776e657200000000000000000000000000000000000000000000006064820152fd5b34610154576020600319360112610154576020610715600435611587565b73ffffffffffffffffffffffffffffffffffffffff60405191168152f35b346101545760206003193601126101545760043567ffffffffffffffff8111610154573660238201121561015457806004013561076f81611499565b9161077d6040519384611458565b8183526024602084019260051b820101903682116101545760248101925b828410610dd3578480517fffffffffffffffffffffffffffffffffffffffffffffffffffffffffffffffe06107e86107d283611499565b926107e06040519485611458565b808452611499565b0136602083013760005b8251811015610d9e576007906108088254611c92565b8092556040516108178161143c565b600081523315610d40576103166109089161085e61085886600052600260205273ffffffffffffffffffffffffffffffffffffffff60406000205416151590565b15611d02565b61088e61085886600052600260205273ffffffffffffffffffffffffffffffffffffffff60406000205416151590565b3360005260036020526040600020600181540190558460005260026020526040600020337fffffffffffffffffffffffff0000000000000000000000000000000000000000825416179055843360007fddf252ad1be2c89b69c2b068fc378daa952ba7f163c4a11628f55a4df523b3ef8180a48433611a04565b6109128185611cee565b5161094083600052600260205273ffffffffffffffffffffffffffffffffffffffff60406000205416151590565b15610cbc5782600052600660205260406000209080519067ffffffffffffffff8211610b3d57819061097284546115b9565b601f8111610c6c575b50602090601f8311600114610ba657600092610b9b575b50507fffffffffffffffffffffffffffffffffffffffffffffffffffffffffffffffff8260011b9260031b1c19161790555b7ff8e1a15aba9398e019f0b49df1a4fde98ee17ae345cb5f6b5e2c27f5033e8ce76020604051848152a173ffffffffffffffffffffffffffffffffffffffff600854168033146103f357336000526005602052604060002081600052602052604060002060017fffffffffffffffffffffffffffffffffffffffffffffffffffffffffffffff00825416179055604051600181527f17307eab39ab6107e8899845ad3d59bd9653f200f220920489ca2b5937696c3160203392a381610a898285611cee565b52600a918254680100000000000000009384821015610b3d5760018201809155811015610b6c5781907fc65a7bb8d6351c1cf70c95a316cc6a92839c986682d98bc35f958f4883f9d2a801553360005260096020526040600020805493841015610b3d5783610b00916001610b38960181556113a7565b7fffffffffffffffffffffffffffffffffffffffffffffffffffffffffffffffff829392549160031b92831b921b1916179055611c92565b6107f2565b7f4e487b7100000000000000000000000000000000000000000000000000000000600052604160045260246000fd5b7f4e487b7100000000000000000000000000000000000000000000000000000000600052603260045260246000fd5b015190508780610992565b9250836000526020600020906000935b7fffffffffffffffffffffffffffffffffffffffffffffffffffffffffffffffe084168510610c515760019450837fffffffffffffffffffffffffffffffffffffffffffffffffffffffffffffffe0811610610c1a575b505050811b0190556109c4565b01517fffffffffffffffffffffffffffffffffffffffffffffffffffffffffffffffff60f88460031b161c19169055878080610c0d565b81810151835560209485019460019093019290910190610bb6565b909150836000526020600020601f840160051c810160208510610cb5575b90849392915b601f830160051c82018110610ca657505061097b565b60008155859450600101610c90565b5080610c8a565b60846040517f08c379a000000000000000000000000000000000000000000000000000000000815260206004820152602e60248201527f45524337323155524953746f726167653a2055524920736574206f66206e6f6e60448201527f6578697374656e7420746f6b656e0000000000000000000000000000000000006064820152fd5b60646040517f08c379a000000000000000000000000000000000000000000000000000000000815260206004820152602060248201527f4552433732313a206d696e7420746f20746865207a65726f20616464726573736044820152fd5b6040517f758666154f91d6dd1ff8bd2f2e7f207b25297952ffc083ed6fc3a4deac42b03a9080610dce8582611401565b0390a1005b833567ffffffffffffffff81116101545782013660438201121561015457602091610e09839236906044602482013591016114eb565b81520193019261079b565b346101545761031b610316610e28366113bf565b9060405192610e368461143c565b60008452610306610301843361177a565b34610154576020806003193601126101545773ffffffffffffffffffffffffffffffffffffffff610e76611361565b1660005260098152604060002090604051908181845491828152019360005281600020916000905b828210610eb5576102118561060381890382611458565b835486529485019460019384019390910190610e9e565b346101545761031b610edd366113bf565b91610eeb610301843361177a565b611880565b3461015457604060031936011261015457610f09611361565b73ffffffffffffffffffffffffffffffffffffffff602435911660005260096020526040600020805482101561015457602091610f45916113a7565b90546040519160031b1c8152f35b3461015457604060031936011261015457610f6c611361565b6024359073ffffffffffffffffffffffffffffffffffffffff8080610f9085611587565b169216918083146110bc57803314908115611097575b5015611013578260005260046020526040600020827fffffffffffffffffffffffff0000000000000000000000000000000000000000825416179055610feb83611587565b167f8c5be1e5ebec7d5bd14f71427d1e84f3dd0314c0f7b2291e5b200ac8c7c3b925600080a4005b60846040517f08c379a000000000000000000000000000000000000000000000000000000000815260206004820152603d60248201527f4552433732313a20617070726f76652063616c6c6572206973206e6f7420746f60448201527f6b656e206f776e6572206f7220617070726f76656420666f7220616c6c0000006064820152fd5b9050600052600560205260406000203360005260205260ff6040600020541684610fa6565b60846040517f08c379a000000000000000000000000000000000000000000000000000000000815260206004820152602160248201527f4552433732313a20617070726f76616c20746f2063757272656e74206f776e6560448201527f72000000000000000000000000000000000000000000000000000000000000006064820152fd5b3461015457602060031936011261015457602061071560043561160c565b34610154576000600319360112610154576040516000805461117f816115b9565b8084529060019081811690811561050957506001146111a8576102118461049c81860382611458565b600080805292507f290decd9548b62a8d60345a988386fc84ba6bc95484008f6362f93160ef3e5635b8284106111e957505050810160200161049c8261048c565b805460208587018101919091529093019281016111d1565b3461015457602060031936011261015457600435907fffffffff00000000000000000000000000000000000000000000000000000000821680920361015457817f490649060000000000000000000000000000000000000000000000000000000060209314908115611275575b5015158152f35b7f80ac58cd000000000000000000000000000000000000000000000000000000008114915081156112d9575b81156112af575b508361126e565b7f01ffc9a700000000000000000000000000000000000000000000000000000000915014836112a8565b7f5b5e139f00000000000000000000000000000000000000000000000000000000811491506112a1565b919082519283825260005b84811061134d5750507fffffffffffffffffffffffffffffffffffffffffffffffffffffffffffffffe0601f8460006020809697860101520116010190565b60208183018101518483018201520161130e565b6004359073ffffffffffffffffffffffffffffffffffffffff8216820361015457565b6024359073ffffffffffffffffffffffffffffffffffffffff8216820361015457565b8054821015610b6c5760005260206000200190600090565b60031960609101126101545773ffffffffffffffffffffffffffffffffffffffff90600435828116810361015457916024359081168103610154579060443590565b6020908160408183019282815285518094520193019160005b828110611428575050505090565b83518552938101939281019260010161141a565b6020810190811067ffffffffffffffff821117610b3d57604052565b90601f7fffffffffffffffffffffffffffffffffffffffffffffffffffffffffffffffe0910116810190811067ffffffffffffffff821117610b3d57604052565b67ffffffffffffffff8111610b3d5760051b60200190565b67ffffffffffffffff8111610b3d57601f017fffffffffffffffffffffffffffffffffffffffffffffffffffffffffffffffe01660200190565b9291926114f7826114b1565b916115056040519384611458565b829481845281830111610154578281602093846000960137010152565b1561152957565b60646040517f08c379a000000000000000000000000000000000000000000000000000000000815260206004820152601860248201527f4552433732313a20696e76616c696420746f6b656e20494400000000000000006044820152fd5b600052600260205273ffffffffffffffffffffffffffffffffffffffff604060002054166115b6811515611522565b90565b90600182811c92168015611602575b60208310146115d357565b7f4e487b7100000000000000000000000000000000000000000000000000000000600052602260045260246000fd5b91607f16916115c8565b61163c61019e82600052600260205273ffffffffffffffffffffffffffffffffffffffff60406000205416151590565b600052600460205273ffffffffffffffffffffffffffffffffffffffff6040600020541690565b1561166a57565b60846040517f08c379a000000000000000000000000000000000000000000000000000000000815260206004820152602d60248201527f4552433732313a2063616c6c6572206973206e6f7420746f6b656e206f776e6560448201527f72206f7220617070726f766564000000000000000000000000000000000000006064820152fd5b156116f557565b6040517f08c379a000000000000000000000000000000000000000000000000000000000815260206004820152603260248201527f4552433732313a207472616e7366657220746f206e6f6e20455243373231526560448201527f63656976657220696d706c656d656e74657200000000000000000000000000006064820152608490fd5b9073ffffffffffffffffffffffffffffffffffffffff808061179b84611587565b169316918383149384156117ce575b5083156117b8575b50505090565b6117c49192935061160c565b16143880806117b2565b909350600052600560205260406000208260005260205260ff6040600020541692386117aa565b156117fc57565b60846040517f08c379a000000000000000000000000000000000000000000000000000000000815260206004820152602560248201527f4552433732313a207472616e736665722066726f6d20696e636f72726563742060448201527f6f776e65720000000000000000000000000000000000000000000000000000006064820152fd5b906118b59161188e84611587565b9173ffffffffffffffffffffffffffffffffffffffff9384938480941694859116146117f5565b1691821561198157816118d2916118cb86611587565b16146117f5565b7fddf252ad1be2c89b69c2b068fc378daa952ba7f163c4a11628f55a4df523b3ef60008481526004602052604081207fffffffffffffffffffffffff0000000000000000000000000000000000000000908181541690558382526003602052604082207fffffffffffffffffffffffffffffffffffffffffffffffffffffffffffffffff81540190558482526040822060018154019055858252600260205284604083209182541617905580a4565b60846040517f08c379a0000000000000000000000000000000000000000000000000000000008152602060048201526024808201527f4552433732313a207472616e7366657220746f20746865207a65726f2061646460448201527f72657373000000000000000000000000000000000000000000000000000000006064820152fd5b91929091803b15611bdb57611a7f9360405190817f150b7a020000000000000000000000000000000000000000000000000000000093848252336004830152600096876024840152604483015260806064830152818773ffffffffffffffffffffffffffffffffffffffff8260209b8c976084830190611303565b0393165af1849181611b7f575b50611b56575050503d600014611b4e573d611aa6816114b1565b90611ab46040519283611458565b81528091833d92013e5b80519182611b4b576040517f08c379a000000000000000000000000000000000000000000000000000000000815260206004820152603260248201527f4552433732313a207472616e7366657220746f206e6f6e20455243373231526560448201527f63656976657220696d706c656d656e74657200000000000000000000000000006064820152608490fd5b01fd5b506060611abe565b7fffffffff00000000000000000000000000000000000000000000000000000000161492509050565b9091508581813d8311611bd4575b611b978183611458565b81010312611bd057517fffffffff0000000000000000000000000000000000000000000000000000000081168103611bd0579038611a8c565b8480fd5b503d611b8d565b50915050600190565b92939190803b15611c8857611c5d9460405180927f150b7a02000000000000000000000000000000000000000000000000000000009485835233600484015273ffffffffffffffffffffffffffffffffffffffff809816602484015260448301526080606483015281806020998a956084830190611303565b03916000988991165af1849181611b7f5750611b56575050503d600014611b4e573d611aa6816114b1565b5050915050600190565b7fffffffffffffffffffffffffffffffffffffffffffffffffffffffffffffffff8114611cbf5760010190565b7f4e487b7100000000000000000000000000000000000000000000000000000000600052601160045260246000fd5b8051821015610b6c5760209160051b010190565b15611d0957565b60646040517f08c379a000000000000000000000000000000000000000000000000000000000815260206004820152601c60248201527f4552433732313a20746f6b656e20616c7265616479206d696e746564000000006044820152fdfea264697066735822122099943ab8f003829e0c4f35ee4d8d6ac69ec426fd4f5eff609fa4be8535ee7fa564736f6c63430008140033",
  "linkReferences": {},
  "deployedLinkReferences": {}
}