{
  "_format": "hh-sol-artifact-1",
  "contractName": "ArtiziaMarketplace",
  "sourceName": "contracts/ArtiziaMarketplace.sol",
  "abi": [
    {
      "inputs": [
        {
          "internalType": "address",
          "name": "_token",
          "type": "address"
        }
      ],
      "stateMutability": "nonpayable",
      "type": "constructor"
    },
    {
      "inputs": [],
      "name": "invalidListingType",
      "type": "error"
    },
    {
      "inputs": [],
      "name": "invalidPrice",
      "type": "error"
    },
    {
      "anonymous": false,
      "inputs": [
        {
          "indexed": false,
          "internalType": "address",
          "name": "nftContract",
          "type": "address"
        },
        {
          "indexed": false,
          "internalType": "uint256",
          "name": "tokenId",
          "type": "uint256"
        },
        {
          "indexed": false,
          "internalType": "address",
          "name": "seller",
          "type": "address"
        },
        {
          "indexed": false,
          "internalType": "address",
          "name": "owner",
          "type": "address"
        },
        {
          "indexed": false,
          "internalType": "uint256",
          "name": "price",
          "type": "uint256"
        },
        {
          "indexed": false,
          "internalType": "uint256",
          "name": "collectionId",
          "type": "uint256"
        },
        {
          "indexed": false,
          "internalType": "uint256",
          "name": "listingType",
          "type": "uint256"
        }
      ],
      "name": "NFTListed",
      "type": "event"
    },
    {
      "anonymous": false,
      "inputs": [
        {
          "indexed": false,
          "internalType": "uint256",
          "name": "tokenId",
          "type": "uint256"
        },
        {
          "indexed": false,
          "internalType": "address",
          "name": "seller",
          "type": "address"
        },
        {
          "indexed": false,
          "internalType": "address",
          "name": "buyer",
          "type": "address"
        },
        {
          "indexed": false,
          "internalType": "uint256",
          "name": "price",
          "type": "uint256"
        }
      ],
      "name": "NFTSold",
      "type": "event"
    },
    {
      "anonymous": false,
      "inputs": [
        {
          "indexed": true,
          "internalType": "address",
          "name": "previousOwner",
          "type": "address"
        },
        {
          "indexed": true,
          "internalType": "address",
          "name": "newOwner",
          "type": "address"
        }
      ],
      "name": "OwnershipTransferred",
      "type": "event"
    },
    {
      "anonymous": false,
      "inputs": [
        {
          "indexed": false,
          "internalType": "address[]",
          "name": "fans",
          "type": "address[]"
        }
      ],
      "name": "addedFans",
      "type": "event"
    },
    {
      "anonymous": false,
      "inputs": [
        {
          "indexed": false,
          "internalType": "uint256",
          "name": "tokenId",
          "type": "uint256"
        },
        {
          "indexed": false,
          "internalType": "bool",
          "name": "decision",
          "type": "bool"
        }
      ],
      "name": "approvalUpdate",
      "type": "event"
    },
    {
      "anonymous": false,
      "inputs": [
        {
          "indexed": false,
          "internalType": "uint256",
          "name": "tokenId",
          "type": "uint256"
        },
        {
          "indexed": false,
          "internalType": "address",
          "name": "seller",
          "type": "address"
        },
        {
          "indexed": false,
          "internalType": "uint256",
          "name": "newTime",
          "type": "uint256"
        }
      ],
      "name": "auctionEndTimeIncreased",
      "type": "event"
    },
    {
      "anonymous": false,
      "inputs": [
        {
          "indexed": false,
          "internalType": "uint256",
          "name": "tokenId",
          "type": "uint256"
        },
        {
          "indexed": false,
          "internalType": "address",
          "name": "seller",
          "type": "address"
        },
        {
          "indexed": false,
          "internalType": "address",
          "name": "highestBidder",
          "type": "address"
        },
        {
          "indexed": false,
          "internalType": "uint256",
          "name": "highestBid",
          "type": "uint256"
        }
      ],
      "name": "receivedABid",
      "type": "event"
    },
    {
      "anonymous": false,
      "inputs": [
        {
          "indexed": false,
          "internalType": "address",
          "name": "fan",
          "type": "address"
        }
      ],
      "name": "removeFan",
      "type": "event"
    },
    {
      "stateMutability": "payable",
      "type": "fallback"
    },
    {
      "inputs": [],
      "name": "UNISWAP_ROUTER_ADDRESS",
      "outputs": [
        {
          "internalType": "address",
          "name": "",
          "type": "address"
        }
      ],
      "stateMutability": "view",
      "type": "function"
    },
    {
      "inputs": [],
      "name": "USDT_ADDRESS",
      "outputs": [
        {
          "internalType": "address",
          "name": "",
          "type": "address"
        }
      ],
      "stateMutability": "view",
      "type": "function"
    },
    {
      "inputs": [
        {
          "internalType": "uint256",
          "name": "",
          "type": "uint256"
        }
      ],
      "name": "_idToAuction",
      "outputs": [
        {
          "internalType": "uint256",
          "name": "tokenId",
          "type": "uint256"
        },
        {
          "internalType": "address payable",
          "name": "seller",
          "type": "address"
        },
        {
          "internalType": "uint256",
          "name": "basePrice",
          "type": "uint256"
        },
        {
          "internalType": "uint256",
          "name": "startTime",
          "type": "uint256"
        },
        {
          "internalType": "uint256",
          "name": "endTime",
          "type": "uint256"
        },
        {
          "internalType": "uint256",
          "name": "highestBid",
          "type": "uint256"
        },
        {
          "internalType": "address payable",
          "name": "highestBidder",
          "type": "address"
        },
        {
          "internalType": "enum ArtiziaMarketplace.PaymentMethod",
          "name": "highestBidCurrency",
          "type": "uint8"
        }
      ],
      "stateMutability": "view",
      "type": "function"
    },
    {
      "inputs": [
        {
          "internalType": "uint256",
          "name": "",
          "type": "uint256"
        }
      ],
      "name": "_idToNFT",
      "outputs": [
        {
          "internalType": "address",
          "name": "nftContract",
          "type": "address"
        },
        {
          "internalType": "uint256",
          "name": "tokenId",
          "type": "uint256"
        },
        {
          "internalType": "address payable",
          "name": "firstOwner",
          "type": "address"
        },
        {
          "internalType": "address payable",
          "name": "seller",
          "type": "address"
        },
        {
          "internalType": "address payable",
          "name": "owner",
          "type": "address"
        },
        {
          "internalType": "uint256",
          "name": "price",
          "type": "uint256"
        },
        {
          "internalType": "bool",
          "name": "listed",
          "type": "bool"
        },
        {
          "internalType": "uint256",
          "name": "royaltyPrice",
          "type": "uint256"
        },
        {
          "internalType": "enum ArtiziaMarketplace.ListingType",
          "name": "listingType",
          "type": "uint8"
        },
        {
          "internalType": "enum ArtiziaMarketplace.PaymentMethod",
          "name": "paymentMethod",
          "type": "uint8"
        },
        {
          "internalType": "bool",
          "name": "approve",
          "type": "bool"
        },
        {
          "internalType": "uint256",
          "name": "collectionId",
          "type": "uint256"
        }
      ],
      "stateMutability": "view",
      "type": "function"
    },
    {
      "inputs": [
        {
          "internalType": "uint256",
          "name": "",
          "type": "uint256"
        }
      ],
      "name": "_idToNFT2",
      "outputs": [
        {
          "internalType": "uint256",
          "name": "tokenId",
          "type": "uint256"
        },
        {
          "internalType": "bool",
          "name": "onlyFans",
          "type": "bool"
        },
        {
          "internalType": "uint256",
          "name": "fanDiscountPercent",
          "type": "uint256"
        }
      ],
      "stateMutability": "view",
      "type": "function"
    },
    {
      "inputs": [],
      "name": "_nftCount",
      "outputs": [
        {
          "internalType": "uint256",
          "name": "_value",
          "type": "uint256"
        }
      ],
      "stateMutability": "view",
      "type": "function"
    },
    {
      "inputs": [],
      "name": "_nftsSold",
      "outputs": [
        {
          "internalType": "uint256",
          "name": "_value",
          "type": "uint256"
        }
      ],
      "stateMutability": "view",
      "type": "function"
    },
    {
      "inputs": [
        {
          "internalType": "address[]",
          "name": "fans",
          "type": "address[]"
        }
      ],
      "name": "addFans",
      "outputs": [],
      "stateMutability": "nonpayable",
      "type": "function"
    },
    {
      "inputs": [
        {
          "internalType": "uint256[]",
          "name": "_tokenId",
          "type": "uint256[]"
        },
        {
          "internalType": "bool",
          "name": "_decision",
          "type": "bool"
        }
      ],
      "name": "approveNfts",
      "outputs": [
        {
          "internalType": "bool",
          "name": "",
          "type": "bool"
        }
      ],
      "stateMutability": "nonpayable",
      "type": "function"
    },
    {
      "inputs": [
        {
          "internalType": "address",
          "name": "_user",
          "type": "address"
        }
      ],
      "name": "banUser",
      "outputs": [],
      "stateMutability": "nonpayable",
      "type": "function"
    },
    {
      "inputs": [
        {
          "internalType": "address",
          "name": "",
          "type": "address"
        },
        {
          "internalType": "uint256",
          "name": "",
          "type": "uint256"
        }
      ],
      "name": "bannedNfts",
      "outputs": [
        {
          "internalType": "uint256",
          "name": "",
          "type": "uint256"
        }
      ],
      "stateMutability": "view",
      "type": "function"
    },
    {
      "inputs": [
        {
          "internalType": "address",
          "name": "",
          "type": "address"
        }
      ],
      "name": "bannedUsers",
      "outputs": [
        {
          "internalType": "bool",
          "name": "",
          "type": "bool"
        }
      ],
      "stateMutability": "view",
      "type": "function"
    },
    {
      "inputs": [
        {
          "internalType": "uint256",
          "name": "_tokenId",
          "type": "uint256"
        },
        {
          "internalType": "uint256",
          "name": "_bidCurrency",
          "type": "uint256"
        }
      ],
      "name": "bidInETH",
      "outputs": [],
      "stateMutability": "payable",
      "type": "function"
    },
    {
      "inputs": [
        {
          "internalType": "uint256",
          "name": "_tokenId",
          "type": "uint256"
        },
        {
          "internalType": "uint256",
          "name": "_amount",
          "type": "uint256"
        },
        {
          "internalType": "uint256",
          "name": "_bidCurrency",
          "type": "uint256"
        }
      ],
      "name": "bidInUSDT",
      "outputs": [],
      "stateMutability": "payable",
      "type": "function"
    },
    {
      "inputs": [
        {
          "internalType": "address",
          "name": "_nftContract",
          "type": "address"
        },
        {
          "internalType": "uint256",
          "name": "_paymentMethod",
          "type": "uint256"
        },
        {
          "internalType": "uint256",
          "name": "_tokenId",
          "type": "uint256"
        },
        {
          "internalType": "uint8",
          "name": "_sellerPlan",
          "type": "uint8"
        },
        {
          "internalType": "uint8",
          "name": "_buyerPlan",
          "type": "uint8"
        }
      ],
      "name": "buyWithETH",
      "outputs": [],
      "stateMutability": "payable",
      "type": "function"
    },
    {
      "inputs": [
        {
          "internalType": "address",
          "name": "_nftContract",
          "type": "address"
        },
        {
          "internalType": "uint256",
          "name": "_paymentMethod",
          "type": "uint256"
        },
        {
          "internalType": "uint256",
          "name": "_tokenId",
          "type": "uint256"
        },
        {
          "internalType": "uint8",
          "name": "_sellerPlan",
          "type": "uint8"
        },
        {
          "internalType": "uint8",
          "name": "_buyerPlan",
          "type": "uint8"
        },
        {
          "internalType": "uint256",
          "name": "_amount",
          "type": "uint256"
        }
      ],
      "name": "buyWithUSDT",
      "outputs": [],
      "stateMutability": "payable",
      "type": "function"
    },
    {
      "inputs": [
        {
          "internalType": "uint256",
          "name": "_tokenId",
          "type": "uint256"
        },
        {
          "internalType": "uint256",
          "name": "_newDiscountPercent",
          "type": "uint256"
        }
      ],
      "name": "changeFanDiscountPercent",
      "outputs": [],
      "stateMutability": "nonpayable",
      "type": "function"
    },
    {
      "inputs": [],
      "name": "checkBannedOrDeletedUser",
      "outputs": [
        {
          "internalType": "bool",
          "name": "",
          "type": "bool"
        }
      ],
      "stateMutability": "view",
      "type": "function"
    },
    {
      "inputs": [
        {
          "internalType": "uint256",
          "name": "_tokenId",
          "type": "uint256"
        }
      ],
      "name": "checkFan",
      "outputs": [
        {
          "internalType": "bool",
          "name": "",
          "type": "bool"
        }
      ],
      "stateMutability": "view",
      "type": "function"
    },
    {
      "inputs": [
        {
          "internalType": "address",
          "name": "_nftContract",
          "type": "address"
        },
        {
          "internalType": "uint256",
          "name": "_tokenId",
          "type": "uint256"
        },
        {
          "internalType": "uint8",
          "name": "_sellerPlan",
          "type": "uint8"
        },
        {
          "internalType": "uint8",
          "name": "_buyerPlan",
          "type": "uint8"
        }
      ],
      "name": "closeAuction",
      "outputs": [],
      "stateMutability": "payable",
      "type": "function"
    },
    {
      "inputs": [
        {
          "internalType": "uint256",
          "name": "",
          "type": "uint256"
        },
        {
          "internalType": "uint256",
          "name": "",
          "type": "uint256"
        }
      ],
      "name": "collection",
      "outputs": [
        {
          "internalType": "uint256",
          "name": "",
          "type": "uint256"
        }
      ],
      "stateMutability": "view",
      "type": "function"
    },
    {
      "inputs": [
        {
          "internalType": "address",
          "name": "_user",
          "type": "address"
        }
      ],
      "name": "deleteUser",
      "outputs": [],
      "stateMutability": "nonpayable",
      "type": "function"
    },
    {
      "inputs": [
        {
          "internalType": "address",
          "name": "",
          "type": "address"
        }
      ],
      "name": "deletedUsers",
      "outputs": [
        {
          "internalType": "bool",
          "name": "",
          "type": "bool"
        }
      ],
      "stateMutability": "view",
      "type": "function"
    },
    {
      "inputs": [
        {
          "internalType": "address",
          "name": "",
          "type": "address"
        },
        {
          "internalType": "uint256",
          "name": "",
          "type": "uint256"
        }
      ],
      "name": "fanLists",
      "outputs": [
        {
          "internalType": "address",
          "name": "",
          "type": "address"
        }
      ],
      "stateMutability": "view",
      "type": "function"
    },
    {
      "inputs": [
        {
          "internalType": "uint256",
          "name": "_collectionId",
          "type": "uint256"
        }
      ],
      "name": "getCollectionNfts",
      "outputs": [
        {
          "components": [
            {
              "internalType": "address",
              "name": "nftContract",
              "type": "address"
            },
            {
              "internalType": "uint256",
              "name": "tokenId",
              "type": "uint256"
            },
            {
              "internalType": "address payable",
              "name": "firstOwner",
              "type": "address"
            },
            {
              "internalType": "address payable",
              "name": "seller",
              "type": "address"
            },
            {
              "internalType": "address payable",
              "name": "owner",
              "type": "address"
            },
            {
              "internalType": "uint256",
              "name": "price",
              "type": "uint256"
            },
            {
              "internalType": "bool",
              "name": "listed",
              "type": "bool"
            },
            {
              "internalType": "uint256",
              "name": "royaltyPrice",
              "type": "uint256"
            },
            {
              "internalType": "enum ArtiziaMarketplace.ListingType",
              "name": "listingType",
              "type": "uint8"
            },
            {
              "internalType": "enum ArtiziaMarketplace.PaymentMethod",
              "name": "paymentMethod",
              "type": "uint8"
            },
            {
              "internalType": "bool",
              "name": "approve",
              "type": "bool"
            },
            {
              "internalType": "uint256",
              "name": "collectionId",
              "type": "uint256"
            }
          ],
          "internalType": "struct ArtiziaMarketplace.NFT[]",
          "name": "",
          "type": "tuple[]"
        }
      ],
      "stateMutability": "view",
      "type": "function"
    },
    {
      "inputs": [
        {
          "internalType": "address",
          "name": "user",
          "type": "address"
        }
      ],
      "name": "getFans",
      "outputs": [
        {
          "internalType": "address[]",
          "name": "",
          "type": "address[]"
        }
      ],
      "stateMutability": "view",
      "type": "function"
    },
    {
      "inputs": [],
      "name": "getLatestUSDTPrice",
      "outputs": [
        {
          "internalType": "uint256",
          "name": "",
          "type": "uint256"
        }
      ],
      "stateMutability": "view",
      "type": "function"
    },
    {
      "inputs": [],
      "name": "getListedNfts",
      "outputs": [
        {
          "components": [
            {
              "internalType": "address",
              "name": "nftContract",
              "type": "address"
            },
            {
              "internalType": "uint256",
              "name": "tokenId",
              "type": "uint256"
            },
            {
              "internalType": "address payable",
              "name": "firstOwner",
              "type": "address"
            },
            {
              "internalType": "address payable",
              "name": "seller",
              "type": "address"
            },
            {
              "internalType": "address payable",
              "name": "owner",
              "type": "address"
            },
            {
              "internalType": "uint256",
              "name": "price",
              "type": "uint256"
            },
            {
              "internalType": "bool",
              "name": "listed",
              "type": "bool"
            },
            {
              "internalType": "uint256",
              "name": "royaltyPrice",
              "type": "uint256"
            },
            {
              "internalType": "enum ArtiziaMarketplace.ListingType",
              "name": "listingType",
              "type": "uint8"
            },
            {
              "internalType": "enum ArtiziaMarketplace.PaymentMethod",
              "name": "paymentMethod",
              "type": "uint8"
            },
            {
              "internalType": "bool",
              "name": "approve",
              "type": "bool"
            },
            {
              "internalType": "uint256",
              "name": "collectionId",
              "type": "uint256"
            }
          ],
          "internalType": "struct ArtiziaMarketplace.NFT[]",
          "name": "",
          "type": "tuple[]"
        }
      ],
      "stateMutability": "view",
      "type": "function"
    },
    {
      "inputs": [
        {
          "internalType": "address",
          "name": "_user",
          "type": "address"
        }
      ],
      "name": "getMyListedNfts",
      "outputs": [
        {
          "components": [
            {
              "internalType": "address",
              "name": "nftContract",
              "type": "address"
            },
            {
              "internalType": "uint256",
              "name": "tokenId",
              "type": "uint256"
            },
            {
              "internalType": "address payable",
              "name": "firstOwner",
              "type": "address"
            },
            {
              "internalType": "address payable",
              "name": "seller",
              "type": "address"
            },
            {
              "internalType": "address payable",
              "name": "owner",
              "type": "address"
            },
            {
              "internalType": "uint256",
              "name": "price",
              "type": "uint256"
            },
            {
              "internalType": "bool",
              "name": "listed",
              "type": "bool"
            },
            {
              "internalType": "uint256",
              "name": "royaltyPrice",
              "type": "uint256"
            },
            {
              "internalType": "enum ArtiziaMarketplace.ListingType",
              "name": "listingType",
              "type": "uint8"
            },
            {
              "internalType": "enum ArtiziaMarketplace.PaymentMethod",
              "name": "paymentMethod",
              "type": "uint8"
            },
            {
              "internalType": "bool",
              "name": "approve",
              "type": "bool"
            },
            {
              "internalType": "uint256",
              "name": "collectionId",
              "type": "uint256"
            }
          ],
          "internalType": "struct ArtiziaMarketplace.NFT[]",
          "name": "",
          "type": "tuple[]"
        }
      ],
      "stateMutability": "view",
      "type": "function"
    },
    {
      "inputs": [
        {
          "internalType": "address",
          "name": "_user",
          "type": "address"
        }
      ],
      "name": "getMyNfts",
      "outputs": [
        {
          "components": [
            {
              "internalType": "address",
              "name": "nftContract",
              "type": "address"
            },
            {
              "internalType": "uint256",
              "name": "tokenId",
              "type": "uint256"
            },
            {
              "internalType": "address payable",
              "name": "firstOwner",
              "type": "address"
            },
            {
              "internalType": "address payable",
              "name": "seller",
              "type": "address"
            },
            {
              "internalType": "address payable",
              "name": "owner",
              "type": "address"
            },
            {
              "internalType": "uint256",
              "name": "price",
              "type": "uint256"
            },
            {
              "internalType": "bool",
              "name": "listed",
              "type": "bool"
            },
            {
              "internalType": "uint256",
              "name": "royaltyPrice",
              "type": "uint256"
            },
            {
              "internalType": "enum ArtiziaMarketplace.ListingType",
              "name": "listingType",
              "type": "uint8"
            },
            {
              "internalType": "enum ArtiziaMarketplace.PaymentMethod",
              "name": "paymentMethod",
              "type": "uint8"
            },
            {
              "internalType": "bool",
              "name": "approve",
              "type": "bool"
            },
            {
              "internalType": "uint256",
              "name": "collectionId",
              "type": "uint256"
            }
          ],
          "internalType": "struct ArtiziaMarketplace.NFT[]",
          "name": "",
          "type": "tuple[]"
        }
      ],
      "stateMutability": "view",
      "type": "function"
    },
    {
      "inputs": [
        {
          "internalType": "uint256",
          "name": "_tokenId",
          "type": "uint256"
        }
      ],
      "name": "getStatusOfAuction",
      "outputs": [
        {
          "internalType": "bool",
          "name": "",
          "type": "bool"
        }
      ],
      "stateMutability": "view",
      "type": "function"
    },
    {
      "inputs": [
        {
          "internalType": "uint8",
          "name": "level",
          "type": "uint8"
        }
      ],
      "name": "getSubscriptionFee",
      "outputs": [
        {
          "internalType": "uint256",
          "name": "",
          "type": "uint256"
        }
      ],
      "stateMutability": "view",
      "type": "function"
    },
    {
      "inputs": [
        {
          "internalType": "address",
          "name": "_user",
          "type": "address"
        }
      ],
      "name": "getUsersNfts",
      "outputs": [
        {
          "components": [
            {
              "internalType": "address",
              "name": "nftContract",
              "type": "address"
            },
            {
              "internalType": "uint256",
              "name": "tokenId",
              "type": "uint256"
            },
            {
              "internalType": "address payable",
              "name": "firstOwner",
              "type": "address"
            },
            {
              "internalType": "address payable",
              "name": "seller",
              "type": "address"
            },
            {
              "internalType": "address payable",
              "name": "owner",
              "type": "address"
            },
            {
              "internalType": "uint256",
              "name": "price",
              "type": "uint256"
            },
            {
              "internalType": "bool",
              "name": "listed",
              "type": "bool"
            },
            {
              "internalType": "uint256",
              "name": "royaltyPrice",
              "type": "uint256"
            },
            {
              "internalType": "enum ArtiziaMarketplace.ListingType",
              "name": "listingType",
              "type": "uint8"
            },
            {
              "internalType": "enum ArtiziaMarketplace.PaymentMethod",
              "name": "paymentMethod",
              "type": "uint8"
            },
            {
              "internalType": "bool",
              "name": "approve",
              "type": "bool"
            },
            {
              "internalType": "uint256",
              "name": "collectionId",
              "type": "uint256"
            }
          ],
          "internalType": "struct ArtiziaMarketplace.NFT[]",
          "name": "",
          "type": "tuple[]"
        }
      ],
      "stateMutability": "view",
      "type": "function"
    },
    {
      "inputs": [
        {
          "internalType": "address",
          "name": "",
          "type": "address"
        },
        {
          "internalType": "address",
          "name": "",
          "type": "address"
        }
      ],
      "name": "isFan",
      "outputs": [
        {
          "internalType": "bool",
          "name": "",
          "type": "bool"
        }
      ],
      "stateMutability": "view",
      "type": "function"
    },
    {
      "inputs": [
        {
          "internalType": "address",
          "name": "_nftContract",
          "type": "address"
        },
        {
          "internalType": "uint256[]",
          "name": "_tokenId",
          "type": "uint256[]"
        },
        {
          "internalType": "uint256[]",
          "name": "_price",
          "type": "uint256[]"
        },
        {
          "internalType": "uint256",
          "name": "_royaltyPrice",
          "type": "uint256"
        },
        {
          "internalType": "uint256",
          "name": "_listingType",
          "type": "uint256"
        },
        {
          "internalType": "uint256[]",
          "name": "_startTime",
          "type": "uint256[]"
        },
        {
          "internalType": "uint256[]",
          "name": "_endTime",
          "type": "uint256[]"
        },
        {
          "internalType": "uint256",
          "name": "_collectionId",
          "type": "uint256"
        },
        {
          "internalType": "uint256",
          "name": "_paymentMethod",
          "type": "uint256"
        }
      ],
      "name": "listNft",
      "outputs": [],
      "stateMutability": "payable",
      "type": "function"
    },
    {
      "inputs": [],
      "name": "owner",
      "outputs": [
        {
          "internalType": "address",
          "name": "",
          "type": "address"
        }
      ],
      "stateMutability": "view",
      "type": "function"
    },
    {
      "inputs": [
        {
          "internalType": "address",
          "name": "addressToRemove",
          "type": "address"
        }
      ],
      "name": "removeFans",
      "outputs": [],
      "stateMutability": "nonpayable",
      "type": "function"
    },
    {
      "inputs": [],
      "name": "renounceOwnership",
      "outputs": [],
      "stateMutability": "nonpayable",
      "type": "function"
    },
    {
      "inputs": [
        {
          "internalType": "address",
          "name": "_nftContract",
          "type": "address"
        },
        {
          "internalType": "uint256",
          "name": "_tokenId",
          "type": "uint256"
        },
        {
          "internalType": "uint256",
          "name": "_price",
          "type": "uint256"
        },
        {
          "internalType": "uint256",
          "name": "_listingType",
          "type": "uint256"
        },
        {
          "internalType": "uint256",
          "name": "_startTime",
          "type": "uint256"
        },
        {
          "internalType": "uint256",
          "name": "_endTime",
          "type": "uint256"
        }
      ],
      "name": "resellNft",
      "outputs": [],
      "stateMutability": "nonpayable",
      "type": "function"
    },
    {
      "inputs": [
        {
          "internalType": "enum ArtiziaMarketplace.SubscriptionLevel",
          "name": "",
          "type": "uint8"
        }
      ],
      "name": "subscriptionFees",
      "outputs": [
        {
          "internalType": "uint256",
          "name": "",
          "type": "uint256"
        }
      ],
      "stateMutability": "view",
      "type": "function"
    },
    {
      "inputs": [
        {
          "internalType": "uint256",
          "name": "usdtAmountOut",
          "type": "uint256"
        }
      ],
      "name": "swapETHForUSDT",
      "outputs": [
        {
          "internalType": "uint256",
          "name": "",
          "type": "uint256"
        }
      ],
      "stateMutability": "payable",
      "type": "function"
    },
    {
      "inputs": [
        {
          "internalType": "uint256",
          "name": "usdtAmountIn",
          "type": "uint256"
        }
      ],
      "name": "swapUSDTForETH",
      "outputs": [
        {
          "internalType": "uint256",
          "name": "",
          "type": "uint256"
        }
      ],
      "stateMutability": "nonpayable",
      "type": "function"
    },
    {
      "inputs": [
        {
          "internalType": "address",
          "name": "newOwner",
          "type": "address"
        }
      ],
      "name": "transferOwnership",
      "outputs": [],
      "stateMutability": "nonpayable",
      "type": "function"
    },
    {
      "inputs": [
        {
          "internalType": "address",
          "name": "_user",
          "type": "address"
        }
      ],
      "name": "unbanUser",
      "outputs": [],
      "stateMutability": "nonpayable",
      "type": "function"
    },
    {
      "stateMutability": "payable",
      "type": "receive"
    }
  ],
  "bytecode": "0x6080604052600f80546001600160a01b0319908116737a250d5630b4cf539739df2c5dacb4c659f2488d179091556010805490911673dac17f958d2ee523a2206206994597c13d831ec71790553480156200005957600080fd5b5060405162006167380380620061678339810160408190526200007c9162000213565b60016000556200008c3362000113565b600480546001600160a01b03199081163317909155600f546011805483166001600160a01b039283161790556012805491841691909216179055620000d46000609662000165565b620000e26001609662000165565b620000f06002609662000165565b620000fe6003606462000165565b6200010c6004600062000165565b506200025b565b600180546001600160a01b038381166001600160a01b0319831681179093556040519116919082907f8be0079c531659141344cd1fd0a4f28419497f9722a3daafe3b4186f6b6457e090600090a35050565b6200016f620001b2565b80600e600084600481111562000189576200018962000245565b60048111156200019d576200019d62000245565b81526020810191909152604001600020555050565b6001546001600160a01b03163314620002115760405162461bcd60e51b815260206004820181905260248201527f4f776e61626c653a2063616c6c6572206973206e6f7420746865206f776e6572604482015260640160405180910390fd5b565b6000602082840312156200022657600080fd5b81516001600160a01b03811681146200023e57600080fd5b9392505050565b634e487b7160e01b600052602160045260246000fd5b615efc806200026b6000396000f3fe6080604052600436106102535760003560e01c806398dd36bf11610138578063bbffa07b116100b0578063d6fc3dbd11610077578063d6fc3dbd14610871578063e4fb2ab214610891578063ed5a1c0f146108b1578063f2fde38b146108ec578063f41dfb181461090c578063f6c1b77a1461091f57005b8063bbffa07b146107da578063c1892058146107fa578063c36ac2d21461081a578063d12824f11461083a578063d6cbb2021461085a57005b8063ace5e90e116100ff578063ace5e90e14610631578063aeb46a1b14610651578063b32ac0c61461067e578063b4fa041214610691578063b8b3455d14610716578063b9e07df11461072957005b806398dd36bf146105245780639a6e94be146105395780639c744058146105935780639ea36e88146105b3578063a8ab8c031461060457005b80635ca11fa3116101cb57806379b369431161019257806379b36943146104565780638090551e1461048e5780638988d078146104a15780638cd410f4146104d15780638d6cb3fb146104f15780638da5cb5b1461050657005b80635ca11fa3146103be578063715018a6146103de578063719b2188146103f357806373c118811461041357806377ec6a471461042657005b80634afbcdae1161021a5780634afbcdae146102ec5780634d12b6951461030c5780634d3fb8171461032c5780635274cff61461034c5780635674c2e6146103795780635c60f2261461039e57005b806310d86b1f1461025c5780633000df5d1461027c57806330221fc51461028f57806331824a49146102a257806331a7a70f146102cc57005b3661025a57005b005b34801561026857600080fd5b5061025a610277366004614fa2565b61093f565b61025a61028a366004615093565b610a05565b61025a61029d366004615188565b6110d1565b3480156102ae57600080fd5b506002546102b99081565b6040519081526020015b60405180910390f35b3480156102d857600080fd5b5061025a6102e73660046151e1565b6116eb565b3480156102f857600080fd5b506102b961030736600461527a565b611926565b34801561031857600080fd5b5061025a610327366004614fa2565b611957565b34801561033857600080fd5b506102b961034736600461529c565b611980565b34801561035857600080fd5b5061036c610367366004614fa2565b6119f6565b6040516102c391906152f1565b34801561038557600080fd5b5061038e611d16565b60405190151581526020016102c3565b3480156103aa57600080fd5b5061025a6103b9366004614fa2565b611d54565b3480156103ca57600080fd5b5061025a6103d936600461527a565b611d80565b3480156103ea57600080fd5b5061025a611e1a565b3480156103ff57600080fd5b5061025a61040e366004614fa2565b611e2e565b61025a6104213660046153d4565b611f84565b34801561043257600080fd5b5061038e610441366004614fa2565b600c6020526000908152604090205460ff1681565b34801561046257600080fd5b50600f54610476906001600160a01b031681565b6040516001600160a01b0390911681526020016102c3565b6102b961049c366004615435565b612639565b3480156104ad57600080fd5b5061038e6104bc366004614fa2565b600b6020526000908152604090205460ff1681565b3480156104dd57600080fd5b506102b96104ec366004615435565b612882565b3480156104fd57600080fd5b5061036c612b1a565b34801561051257600080fd5b506001546001600160a01b0316610476565b34801561053057600080fd5b506102b9612d66565b34801561054557600080fd5b50610578610554366004615435565b600660205260009081526040902080546001820154600290920154909160ff169083565b604080519384529115156020840152908201526060016102c3565b34801561059f57600080fd5b5061038e6105ae366004615435565b612e35565b3480156105bf57600080fd5b5061038e6105ce366004615435565b6000908152600560209081526040808320600301546001600160a01b031683526007825280832033845290915290205460ff1690565b34801561061057600080fd5b5061062461061f366004614fa2565b612e7a565b6040516102c39190615492565b34801561063d57600080fd5b5061025a61064c3660046154a5565b612f21565b34801561065d57600080fd5b506102b961066c3660046154f1565b600e6020526000908152604090205481565b61025a61068c366004615512565b6132a7565b34801561069d57600080fd5b506107026106ac366004615435565b600a60205260009081526040902080546001820154600283015460038401546004850154600586015460069096015494956001600160a01b0394851695939492939192909190811690600160a01b900460ff1688565b6040516102c3989796959493929190615561565b61025a6107243660046155b6565b613a01565b34801561073557600080fd5b506107c2610744366004615435565b600560208190526000918252604090912080546001820154600283015460038401546004850154958501546006860154600787015460088801546009909801546001600160a01b03978816999698958816979485169690941694929360ff92831693919282811692610100810482169262010000909104909116908c565b6040516102c39c9b9a999897969594939291906155e2565b3480156107e657600080fd5b506104766107f5366004615660565b613f8f565b34801561080657600080fd5b50601054610476906001600160a01b031681565b34801561082657600080fd5b5061036c610835366004615435565b613fc7565b34801561084657600080fd5b5061036c610855366004614fa2565b6141f4565b34801561086657600080fd5b506003546102b99081565b34801561087d57600080fd5b5061038e61088c36600461568c565b614487565b34801561089d57600080fd5b506102b96108ac366004615660565b61453b565b3480156108bd57600080fd5b5061038e6108cc3660046156e2565b600760209081526000928352604080842090915290825290205460ff1681565b3480156108f857600080fd5b5061025a610907366004614fa2565b614557565b61025a61091a36600461527a565b6145d0565b34801561092b57600080fd5b5061036c61093a366004614fa2565b614a98565b610947614cfb565b6001600160a01b0381166000908152600b60205260408120805460ff1916600117905561097360035490565b905060005b81811015610a00576000818152600560205260409020600301546001600160a01b038085169116036109ee5760008181526005602052604090206004810180546001600160a01b03199081163017909155600382018054909116905560068101805460ff19169055600801805462ff0000191690555b806109f881615726565b915050610978565b505050565b610a0d614d55565b336000908152600b602052604090205460ff1615610a465760405162461bcd60e51b8152600401610a3d9061573f565b60405180910390fd5b336000908152600c602052604090205460ff1615610a765760405162461bcd60e51b8152600401610a3d90615774565b60005b88518110156110bb576000888281518110610a9657610a966157e4565b60200260200101511015610abd57604051635a93095360e11b815260040160405180910390fd5b6001861115610adf576040516317142a4d60e01b815260040160405180910390fd5b896001600160a01b03166323b872dd33308c8581518110610b0257610b026157e4565b60200260200101516040518463ffffffff1660e01b8152600401610b28939291906157fa565b600060405180830381600087803b158015610b4257600080fd5b505af1158015610b56573d6000803e3d6000fd5b50505050610b68600380546001019055565b6000838152600d6020526040902089518a9083908110610b8a57610b8a6157e4565b602002602001015190806001815401808255809150506001900390600052602060002001600090919091909150556040518061018001604052808b6001600160a01b031681526020018a8381518110610be557610be56157e4565b60200260200101518152602001336001600160a01b03168152602001336001600160a01b03168152602001306001600160a01b03168152602001898381518110610c3157610c316157e4565b60200260200101518152602001600115158152602001888152602001876001811115610c5f57610c5f6152b7565b6001811115610c7057610c706152b7565b8152602001836002811115610c8757610c876152b7565b6002811115610c9857610c986152b7565b815260200160001515815260200184815250600560008b8481518110610cc057610cc06157e4565b6020908102919091018101518252818101929092526040908101600020835181546001600160a01b03199081166001600160a01b039283161783559385015160018084019190915592850151600283018054861691831691909117905560608501516003830180548616918316919091179055608085015160048301805490951691161790925560a0830151600583015560c083015160068301805460ff1990811692151592909217905560e084015160078401556101008401516008840180549193909291909116908381811115610d9b57610d9b6152b7565b021790555061012082015160088201805461ff001916610100836002811115610dc657610dc66152b7565b02179055506101408201518160080160026101000a81548160ff021916908315150217905550610160820151816009015590505060405180606001604052808a8381518110610e1757610e176157e4565b602002602001015181526020016000151581526020016000815250600660008b8481518110610e4857610e486157e4565b602090810291909101810151825281810192909252604090810160002083518155918301516001808401805460ff1916921515929092179091559201516002909101558603611034576040518061010001604052808a8381518110610eaf57610eaf6157e4565b60200260200101518152602001336001600160a01b03168152602001898381518110610edd57610edd6157e4565b60200260200101518152602001868381518110610efc57610efc6157e4565b60200260200101518152602001858381518110610f1b57610f1b6157e4565b602002602001015181526020016000815260200160006001600160a01b03168152602001836002811115610f5157610f516152b7565b6002811115610f6257610f626152b7565b815250600a60008b8481518110610f7b57610f7b6157e4565b602090810291909101810151825281810192909252604090810160002083518155918301516001830180546001600160a01b03199081166001600160a01b039384161790915591840151600280850191909155606085015160038501556080850151600485015560a0850151600585015560c085015160068501805494851691909316908117835560e0860151936001600160a81b0319161790600160a01b90849081111561102c5761102c6152b7565b021790555050505b7f380acab0ee1d651da065961944240ee750b6935ba0edefa78afb1c8e076762868a8a8381518110611068576110686157e4565b602002602001015133308c8681518110611084576110846157e4565b6020026020010151888c6040516110a1979695949392919061581e565b60405180910390a1806110b381615726565b915050610a79565b506110c66001600055565b505050505050505050565b600083815260056020526040902060080154839062010000900460ff16151560011461110f5760405162461bcd60e51b8152600401610a3d90615862565b336000908152600b602052604090205460ff161561113f5760405162461bcd60e51b8152600401610a3d9061573f565b336000908152600c602052604090205460ff161561116f5760405162461bcd60e51b8152600401610a3d90615774565b611177614d55565b60008481526005602052604081209061118f85611980565b9050600061119c85611980565b6003840154909150336001600160a01b03909116036111cd5760405162461bcd60e51b8152600401610a3d906158ba565b60038301546001600160a01b03166000908152600b602052604090205460ff161561120a5760405162461bcd60e51b8152600401610a3d906158ff565b60038301546001600160a01b03166000908152600c602052604090205460ff16156112475760405162461bcd60e51b8152600401610a3d90615955565b6000600884015460ff166001811115611262576112626152b7565b1461127f5760405162461bcd60e51b8152600401610a3d906159b2565b600683015460ff1615156001146112a85760405162461bcd60e51b8152600401610a3d906159e9565b6000878152600560209081526040808320600301546001600160a01b0316835260078252808320338085529252822054829060ff16156113305760008a8152600660205260409020600201546112ff903490614dae565b6113099034615a20565b90508034101561132b5760405162461bcd60e51b8152600401610a3d90615a33565b611357565b85600501543410156113545760405162461bcd60e51b8152600401610a3d90615a33565b50345b600286015460038701546001600160a01b0391821691160361147e5761137e818686614dcd565b6113889082615a20565b90508a6000036113d85760038601546040516001600160a01b039091169082156108fc029083906000818181858888f193505050501580156113ce573d6000803e3d6000fd5b50600192506115e5565b6113e181612639565b5060006113ec612d66565b6113f69083615a79565b9050600061140782620f4240615a79565b60125460038a015460405163a9059cbb60e01b81529293506001600160a01b039182169263a9059cbb926114419216908590600401615a90565b600060405180830381600087803b15801561145b57600080fd5b505af115801561146f573d6000803e3d6000fd5b505050506001945050506115e5565b60008190506000611493828960070154614dae565b90506114a0838888614dcd565b6114aa8284615a20565b6114b49190615a20565b60028901546040519194506001600160a01b03169082156108fc029083906000818181858888f193505050501580156114f1573d6000803e3d6000fd5b508c6000036115405760038801546040516001600160a01b039091169084156108fc029085906000818181858888f19350505050158015611536573d6000803e3d6000fd5b50600194506115e2565b61154983612639565b506000611554612d66565b61155e9085615aa9565b9050600061156f82620f4240615a79565b60125460038c015460405163a9059cbb60e01b81529293506001600160a01b039182169263a9059cbb926115a99216908590600401615a90565b600060405180830381600087803b1580156115c357600080fd5b505af11580156115d7573d6000803e3d6000fd5b505050506001965050505b50505b82156116d35760018601546040516323b872dd60e01b81526001600160a01b038e16916323b872dd9161161f9130918791906004016157fa565b600060405180830381600087803b15801561163957600080fd5b505af115801561164d573d6000803e3d6000fd5b50505060018701546003880154604051600080516020615ea7833981519152935061168692916001600160a01b03169086903490615acb565b60405180910390a16004860180546001600160a01b0384166001600160a01b031991821617909155600387018054909116905560068601805460ff191690556116d3600280546001019055565b5050505050506116e36001600055565b505050505050565b600081516001600160401b0381111561170657611706614fbf565b60405190808252806020026020018201604052801561172f578160200160208202803683370190505b50905060005b82518110156118ea576000838281518110611752576117526157e4565b6020026020010151905060006001600160a01b0316816001600160a01b0316036117af576117aa60405180604001604052806013815260200172496e76616c69642066616e206164647265737360681b815250614e13565b6118d7565b3360009081526007602090815260408083206001600160a01b038516845290915290205460ff1615611814576117aa6040518060400160405280601881526020017720b2323932b9b99034b99030b63932b0b23c9030903330b760411b815250614e13565b3360008181526008602090815260408083208054600180820183559185528385200180546001600160a01b0319166001600160a01b0388169081179091559484526007835281842094845293825291829020805460ff19169093179092558051808201909152601181527011985b881859191959081d1bc81b1a5cdd607a1b918101919091526118a390614e13565b808383815181106118b6576118b66157e4565b60200260200101906001600160a01b031690816001600160a01b0316815250505b50806118e281615726565b915050611735565b507fa99d709f8a9c899ba566c9b2515b1715239783ff40126e24d86e081505a7f50e8160405161191a9190615492565b60405180910390a15050565b600d602052816000526040600020818154811061194257600080fd5b90600052602060002001600091509150505481565b61195f614cfb565b6001600160a01b03166000908152600b60205260409020805460ff19169055565b60008160ff166003036119bb57600e600060045b60048111156119a5576119a56152b7565b8152602001908152602001600020549050919050565b8160ff166002036119d157600e60006003611994565b8160ff166001036119e757600e60006002611994565b600e600080611994565b919050565b336000908152600c602052604090205460609060ff1615611a295760405162461bcd60e51b8152600401610a3d90615774565b336000908152600b602052604090205460ff1615611a595760405162461bcd60e51b8152600401610a3d9061573f565b6000611a6460035490565b90506000805b82811015611af7576000818152600560205260409020600301546001600160a01b038681169116148015611aaf575060008181526005602052604090206006015460ff165b8015611ad2575060008181526005602052604090206008015462010000900460ff165b15611ae55781611ae181615726565b9250505b80611aef81615726565b915050611a6a565b506000816001600160401b03811115611b1257611b12614fbf565b604051908082528060200260200182016040528015611b4b57816020015b611b38614f20565b815260200190600190039081611b305790505b5090506000805b84811015611d0b576000818152600560205260409020600301546001600160a01b038881169116148015611b97575060008181526005602052604090206006015460ff165b8015611bba575060008181526005602052604090206008015462010000900460ff165b15611cf95760008181526005602081815260409283902083516101808101855281546001600160a01b039081168252600180840154948301949094526002830154811695820195909552600382015485166060820152600482015490941660808501529182015460a0840152600682015460ff908116151560c0850152600783015460e08501526008830154610100850192911690811115611c5e57611c5e6152b7565b6001811115611c6f57611c6f6152b7565b81526020016008820160019054906101000a900460ff166002811115611c9757611c976152b7565b6002811115611ca857611ca86152b7565b8152600882015462010000900460ff16151560208201526009909101546040909101528351849084908110611cdf57611cdf6157e4565b60200260200101819052508180611cf590615726565b9250505b80611d0381615726565b915050611b52565b509095945050505050565b336000908152600b602052604081205460ff1680611d435750336000908152600c602052604090205460ff165b15611d4e5750600190565b50600090565b611d5c614cfb565b6001600160a01b03166000908152600c60205260409020805460ff19166001179055565b6000828152600560205260409020600301546001600160a01b03163314611e055760405162461bcd60e51b815260206004820152603360248201527f4f6e6c7920746865206f776e6572206f6620616e206e66742063616e20736574604482015272103234b9b1b7bab73a32b210383934b1b2b99760691b6064820152608401610a3d565b60009182526006602052604090912060020155565b611e22614cfb565b611e2c6000614e56565b565b336000908152600860205260408120905b8154811015610a0057826001600160a01b0316828281548110611e6457611e646157e4565b6000918252602090912001546001600160a01b031603611f725781548290611e8e90600190615a20565b81548110611e9e57611e9e6157e4565b9060005260206000200160009054906101000a90046001600160a01b0316828281548110611ece57611ece6157e4565b9060005260206000200160006101000a8154816001600160a01b0302191690836001600160a01b0316021790555081805480611f0c57611f0c615af0565b6000828152602090819020600019908301810180546001600160a01b03191690559091019091556040516001600160a01b03851681527f89ec8e1c730740239f81b0dfce48eedca9d700bbc36fe56311fe9175c16f64ad910160405180910390a1505050565b80611f7c81615726565b915050611e3f565b600084815260056020526040902060080154849062010000900460ff161515600114611fc25760405162461bcd60e51b8152600401610a3d90615862565b336000908152600b602052604090205460ff1615611ff25760405162461bcd60e51b8152600401610a3d9061573f565b336000908152600c602052604090205460ff16156120225760405162461bcd60e51b8152600401610a3d90615774565b61202a614d55565b60008581526005602052604090206003810154336001600160a01b03909116036120665760405162461bcd60e51b8152600401610a3d906158ba565b6000612070612d66565b9050600061207d87611980565b9050600061208a87611980565b9050600061209d8764e8d4a51000615a79565b90506120a98482615a79565b90506120bd670de0b6b3a764000082615aa9565b60038601546001600160a01b03166000908152600b602052604090205490915060ff16156120fd5760405162461bcd60e51b8152600401610a3d906158ff565b60038501546001600160a01b03166000908152600c602052604090205460ff161561213a5760405162461bcd60e51b8152600401610a3d90615955565b6000600886015460ff166001811115612155576121556152b7565b146121725760405162461bcd60e51b8152600401610a3d906159b2565b60008a8152600560209081526040808320600301546001600160a01b031683526007825280832033845290915281205460ff16156121f85760008b8152600660205260409020600201546121c7908390614dae565b6121d19083615a20565b9050808210156121f35760405162461bcd60e51b8152600401610a3d90615b06565b61221f565b856005015482101561221c5760405162461bcd60e51b8152600401610a3d90615b06565b50805b6000803390506000601260009054906101000a90046001600160a01b03166001600160a01b03166323b872dd33308e6040518463ffffffff1660e01b815260040161226c939291906157fa565b600060405180830381600087803b15801561228657600080fd5b505af115801561229a573d6000803e3d6000fd5b50505050600289015460038a01546001600160a01b0391821691160361239f576122c58b8888614dcd565b6122cf908c615a20565b93508e60010361234c5760125460038a015460405163a9059cbb60e01b81526001600160a01b039283169263a9059cbb92612311929116908890600401615a90565b600060405180830381600087803b15801561232b57600080fd5b505af115801561233f573d6000803e3d6000fd5b505050506001925061252f565b600061235785612882565b60038b01546040519192506001600160a01b03169082156108fc029083906000818181858888f19350505050158015612394573d6000803e3d6000fd5b50600193505061252f565b60006123af8c8b60070154614dae565b90506123bb818d615a20565b91506123c8828989614dcd565b6123d2908d615a20565b60125460028c015460405163a9059cbb60e01b81529297506001600160a01b039182169263a9059cbb9261240c9216908590600401615a90565b600060405180830381600087803b15801561242657600080fd5b505af115801561243a573d6000803e3d6000fd5b505050508f6001036124cb57600061245586620f4240615a79565b60125460038d015460405163a9059cbb60e01b81529293506001600160a01b039182169263a9059cbb9261248f9216908590600401615a90565b600060405180830381600087803b1580156124a957600080fd5b505af11580156124bd573d6000803e3d6000fd5b50505050600194505061252d565b6124d485612882565b5060006124df612d66565b6124e99087615a79565b60038c01546040519192506001600160a01b03169082156108fc029083906000818181858888f19350505050158015612526573d6000803e3d6000fd5b5060019450505b505b821561261d578f6001600160a01b03166323b872dd30848c600101546040518463ffffffff1660e01b8152600401612569939291906157fa565b600060405180830381600087803b15801561258357600080fd5b505af1158015612597573d6000803e3d6000fd5b50505060018a015460038b0154604051600080516020615ea783398151915293506125d092916001600160a01b03169086908a90615acb565b60405180910390a16004890180546001600160a01b0384166001600160a01b03199182161790915560038a018054909116905560068901805460ff1916905561261d600280546001019055565b5050505050505050506126306001600055565b50505050505050565b604080516002808252606082018352600092839291906020830190803683375050601154604080516315ab88c960e31b815290519394506001600160a01b039091169263ad5c4648925060048083019260209291908290030181865afa1580156126a7573d6000803e3d6000fd5b505050506040513d601f19601f820116820180604052508101906126cb9190615b4d565b816000815181106126de576126de6157e4565b6001600160a01b03928316602091820292909201015260105482519116908290600190811061270f5761270f6157e4565b6001600160a01b03929092166020928302919091018201526040805160028082526060820183526000939192909183019080368337505060115460405163d06ca61f60e01b81529293506001600160a01b03169163d06ca61f915061277a9087908690600401615b6a565b600060405180830381865afa158015612797573d6000803e3d6000fd5b505050506040513d6000823e601f3d908101601f191682016040526127bf9190810190615b8b565b60115481519192506001600160a01b031690637ff36ab5903490849060019081106127ec576127ec6157e4565b60200260200101518530426040518663ffffffff1660e01b81526004016128169493929190615c10565b60006040518083038185885af1158015612834573d6000803e3d6000fd5b50505050506040513d6000823e601f3d908101601f1916820160405261285d9190810190615b8b565b5080600181518110612871576128716157e4565b602002602001015192505050919050565b60408051600280825260608201835260009283929190602083019080368337505060105482519293506001600160a01b0316918391506000906128c7576128c76157e4565b6001600160a01b03928316602091820292909201810191909152601154604080516315ab88c960e31b81529051919093169263ad5c46489260048083019391928290030181865afa158015612920573d6000803e3d6000fd5b505050506040513d601f19601f820116820180604052508101906129449190615b4d565b81600181518110612957576129576157e4565b6001600160a01b039283166020918202929092010152601254600f5460405163095ea7b360e01b81529183169263095ea7b39261299c92909116908790600401615a90565b600060405180830381600087803b1580156129b657600080fd5b505af11580156129ca573d6000803e3d6000fd5b5060009250600291506129da9050565b604051908082528060200260200182016040528015612a03578160200160208202803683370190505b5060115460405163d06ca61f60e01b81529192506001600160a01b03169063d06ca61f90612a379087908690600401615b6a565b600060405180830381865afa158015612a54573d6000803e3d6000fd5b505050506040513d6000823e601f3d908101601f19168201604052612a7c9190810190615b8b565b60115481519192506001600160a01b031690634a25d94a9083906001908110612aa757612aa76157e4565b6020026020010151868530426040518663ffffffff1660e01b8152600401612ad3959493929190615c45565b6000604051808303816000875af1158015612af2573d6000803e3d6000fd5b505050506040513d6000823e601f3d908101601f1916820160405261285d9190810190615b8b565b336000908152600c602052604090205460609060ff1615612b4d5760405162461bcd60e51b8152600401610a3d90615774565b6000612b5860035490565b90506000612b6560025490565b612b6f9083615a20565b90506000816001600160401b03811115612b8b57612b8b614fbf565b604051908082528060200260200182016040528015612bc457816020015b612bb1614f20565b815260200190600190039081612ba95790505b5090506000805b84811015612d5c5760008181526005602052604090206006015460ff168015612c0b575060008181526005602052604090206008015462010000900460ff165b15612d4a5760008181526005602081815260409283902083516101808101855281546001600160a01b039081168252600180840154948301949094526002830154811695820195909552600382015485166060820152600482015490941660808501529182015460a0840152600682015460ff908116151560c0850152600783015460e08501526008830154610100850192911690811115612caf57612caf6152b7565b6001811115612cc057612cc06152b7565b81526020016008820160019054906101000a900460ff166002811115612ce857612ce86152b7565b6002811115612cf957612cf96152b7565b8152600882015462010000900460ff16151560208201526009909101546040909101528351849084908110612d3057612d306157e4565b60200260200101819052508180612d4690615726565b9250505b80612d5481615726565b915050612bcb565b5090935050505090565b60008073ee9f2375b4bdf6387aa8265dd4fb8f16512a1d4690506000816001600160a01b031663feaf968c6040518163ffffffff1660e01b815260040160a060405180830381865afa158015612dc0573d6000803e3d6000fd5b505050506040513d601f19601f82011682018060405250810190612de49190615c9b565b50505091505060008113612e2f5760405162461bcd60e51b8152602060048201526012602482015271496e76616c6964205553445420707269636560701b6044820152606401610a3d565b92915050565b6000818152600a602052604081206003015442118015612e6557506000828152600a602052604090206004015442105b15612e7257506001919050565b506000919050565b336000908152600c602052604090205460609060ff1615612ead5760405162461bcd60e51b8152600401610a3d90615774565b6001600160a01b03821660009081526008602090815260409182902080548351818402810184019094528084529091830182828015612f1557602002820191906000526020600020905b81546001600160a01b03168152600190910190602001808311612ef7575b50505050509050919050565b336000908152600b602052604090205460ff1615612f515760405162461bcd60e51b8152600401610a3d9061573f565b336000908152600c602052604090205460ff1615612f815760405162461bcd60e51b8152600401610a3d90615774565b612f89614d55565b600085815260056020526040902084612fe45760405162461bcd60e51b815260206004820152601c60248201527f5072696365206d757374206265206174206c65617374203120776569000000006044820152606401610a3d565b60048101546001600160a01b031633146130535760405162461bcd60e51b815260206004820152602a60248201527f4f6e6c7920746865206f776e6572206f6620616e206e66742063616e206c69736044820152693a103a34329037333a1760b11b6064820152608401610a3d565b6040516323b872dd60e01b81526001600160a01b038816906323b872dd9061308390339030908b906004016157fa565b600060405180830381600087803b15801561309d57600080fd5b505af11580156130b1573d6000803e3d6000fd5b5050506003820180546001600160a01b0319908116331790915560048301805490911630179055506005810185905560068101805460ff191660019081179091558490811115613103576131036152b7565b60088201805460ff191660018381811115613120576131206152b7565b02179055506001840361324b57604051806101000160405280878152602001336001600160a01b031681526020018681526020018481526020018381526020016000815260200160006001600160a01b031681526020018260080160019054906101000a900460ff16600281111561319a5761319a6152b7565b90526000878152600a602090815260409182902083518155908301516001820180546001600160a01b03199081166001600160a01b039384161790915592840151600280840191909155606085015160038401556080850151600484015560a0850151600584015560c085015160068401805495861691909316908117835560e086015193946001600160a81b0319161790600160a01b908490811115613243576132436152b7565b021790555050505b6132556002614ea8565b7f380acab0ee1d651da065961944240ee750b6935ba0edefa78afb1c8e07676286878733308986600901548a604051613294979695949392919061581e565b60405180910390a1506116e36001600055565b6000838152600a602052604090206004015442116133075760405162461bcd60e51b815260206004820152601a60248201527f41756374696f6e20686173206e6f7420656e646564207965742e0000000000006044820152606401610a3d565b600061331283611980565b9050600061331f83611980565b6000868152600a60205260409020600601549091506001600160a01b0316156133f5576000858152600a60205260409020600601546001600160a01b031633148061338357506000858152600a60205260409020600101546001600160a01b031633145b6133f05760405162461bcd60e51b815260206004820152603860248201527f4f6e6c792074686520686967686573742062696464657220616e6420746865206044820152771cd95b1b195c8818d85b8818db185a5b481d1a194813919560421b6064820152608401610a3d565b613473565b6000858152600a60205260409020600101546001600160a01b031633146134735760405162461bcd60e51b815260206004820152602c60248201527f4f6e6c79207468652073656c6c65722063616e20636c6f73652074686520756e60448201526b39b7b6321030bab1ba34b7b760a11b6064820152608401610a3d565b6000858152600560209081526040808320600a90925282206006810154919290916001600160a01b031661353c576003830154600480850180546001600160a01b0319166001600160a01b0393841617905560068501805460ff19169055600184810154908601546040516323b872dd60e01b81528d8516946323b872dd94613501943094921692016157fa565b600060405180830381600087803b15801561351b57600080fd5b505af115801561352f573d6000803e3d6000fd5b50505050600190506139ad565b60058201546000908190816008870154610100900460ff166002811115613565576135656152b7565b036136e25760016006860154600160a01b900460ff16600281111561358c5761358c6152b7565b036135c157600061359b612d66565b6135a59083615aa9565b90506135b481620f4240615a79565b506135be81612882565b50505b600286015460038701546001600160a01b03918216911603613635576135e8818989614dcd565b6135f29082615a20565b60038701546040519193506001600160a01b03169083156108fc029084906000818181858888f1935050505015801561362f573d6000803e3d6000fd5b506138e7565b61364785600501548760070154614dae565b9250613654818989614dcd565b61365e8483615a20565b6136689190615a20565b60028701546040519193506001600160a01b03169084156108fc029085906000818181858888f193505050501580156136a5573d6000803e3d6000fd5b5060038601546040516001600160a01b039091169083156108fc029084906000818181858888f1935050505015801561362f573d6000803e3d6000fd5b60016008870154610100900460ff166002811115613702576137026152b7565b036138e75760006006860154600160a01b900460ff166002811115613729576137296152b7565b0361373a5761373781612639565b90505b600286015460038701546001600160a01b039182169116036137dc57613761818989614dcd565b61376b9082615a20565b601254600388015460405163a9059cbb60e01b81529294506001600160a01b039182169263a9059cbb926137a59216908690600401615a90565b600060405180830381600087803b1580156137bf57600080fd5b505af11580156137d3573d6000803e3d6000fd5b505050506138e7565b6137ee85600501548760070154614dae565b92506137fb818989614dcd565b6138058483615a20565b61380f9190615a20565b601254600388015460405163a9059cbb60e01b81529294506001600160a01b039182169263a9059cbb926138499216908690600401615a90565b600060405180830381600087803b15801561386357600080fd5b505af1158015613877573d6000803e3d6000fd5b5050601254600289015460405163a9059cbb60e01b81526001600160a01b03928316945063a9059cbb93506138b492909116908790600401615a90565b600060405180830381600087803b1580156138ce57600080fd5b505af11580156138e2573d6000803e3d6000fd5b505050505b8361396a578b6001600160a01b03166323b872dd308760060160009054906101000a90046001600160a01b031689600101546040518463ffffffff1660e01b8152600401613937939291906157fa565b600060405180830381600087803b15801561395157600080fd5b505af1158015613965573d6000803e3d6000fd5b505050505b6006808601546004880180546001600160a01b0319166001600160a01b039092169190911790558601805460ff191690556139a9600280546001019055565b5050505b6001830154600384015460068401546005850154604051600080516020615ea7833981519152946139ee9490936001600160a01b0391821693911691615acb565b60405180910390a1505050505050505050565b6000838152600a6020526040902060030154839042118015613a3357506000818152600a602052604090206004015442105b613a4f5760405162461bcd60e51b8152600401610a3d90615cdf565b600084815260056020526040902060080154849062010000900460ff161515600114613a8d5760405162461bcd60e51b8152600401610a3d90615862565b336000908152600c602052604090205460ff1615613abd5760405162461bcd60e51b8152600401610a3d90615774565b336000908152600b602052604090205460ff1615613aed5760405162461bcd60e51b8152600401610a3d9061573f565b6000613af7612d66565b6000878152600660205260408120600101549192509060ff1615613b64576000878152600560209081526040808320600301546001600160a01b031683526007825280832033845290915290205460ff16613b645760405162461bcd60e51b8152600401610a3d90615d28565b6000613b758764e8d4a51000615a79565b9050613b818382615a79565b9050613b95670de0b6b3a764000082615aa9565b6000898152600a60205260409020600601549091506001600160a01b0316613be8576000888152600a6020526040902060020154811015613be85760405162461bcd60e51b8152600401610a3d90615d5f565b6000888152600a6020526040902060050154811015613c195760405162461bcd60e51b8152600401610a3d90615d96565b600160008981526005602052604090206008015460ff166001811115613c4157613c416152b7565b14613c5e5760405162461bcd60e51b8152600401610a3d90615df3565b60008881526005602052604090206006015460ff161515600114613c945760405162461bcd60e51b8152600401610a3d906159e9565b6012546040516323b872dd60e01b81526001600160a01b03909116906323b872dd90613cc890339030908c906004016157fa565b600060405180830381600087803b158015613ce257600080fd5b505af1158015613cf6573d6000803e3d6000fd5b5050506000898152600a60205260409020600681015460058201549192506001600160a01b0316908115613e385760016006840154600160a01b900460ff166002811115613d4657613d466152b7565b03613dd9576000613d55612d66565b613d5f9083615aa9565b9050613d6e81620f4240615a79565b60125460405163a9059cbb60e01b81529192506001600160a01b03169063a9059cbb90613da19086908590600401615a90565b600060405180830381600087803b158015613dbb57600080fd5b505af1158015613dcf573d6000803e3d6000fd5b5050505050613e38565b60006006840154600160a01b900460ff166002811115613dfb57613dfb6152b7565b03613e38576040516001600160a01b0383169082156108fc029083906000818181858888f19350505050158015613e36573d6000803e3d6000fd5b505b600583018490556006830180546001600160a01b03191633179055886002811115613e6557613e656152b7565b60068401805460ff60a01b1916600160a01b836002811115613e8957613e896152b7565b0217905550613e9a42610258615e26565b83600401541015613f0f5761012c836004016000828254613ebb9190615e26565b9091555050600183015460048401546040517f8e1cb85d0855921b3c958b068fa707efb7db88099af764dd47f37eef82c3334d92613f06928f926001600160a01b0390921691615e39565b60405180910390a15b600194507f4307392e6f0e441e74a4982d9fa9ddc49b3cd9d3902a9d3ecab0ad3c60a0acd18b8460010160009054906101000a90046001600160a01b03168560060160009054906101000a90046001600160a01b03168660050154604051613f7a9493929190615acb565b60405180910390a15050505050505050505050565b60086020528160005260406000208181548110613fab57600080fd5b6000918252602090912001546001600160a01b03169150829050565b60606000613fd460035490565b90506000613fe160025490565b613feb9083615a20565b90506000816001600160401b0381111561400757614007614fbf565b60405190808252806020026020018201604052801561404057816020015b61402d614f20565b8152602001906001900390816140255790505b5090506000805b84811015611d0b5760008181526005602052604090206006015460ff168015614080575060008181526005602052604090206009015487145b80156140a3575060008181526005602052604090206008015462010000900460ff165b156141e25760008181526005602081815260409283902083516101808101855281546001600160a01b039081168252600180840154948301949094526002830154811695820195909552600382015485166060820152600482015490941660808501529182015460a0840152600682015460ff908116151560c0850152600783015460e08501526008830154610100850192911690811115614147576141476152b7565b6001811115614158576141586152b7565b81526020016008820160019054906101000a900460ff166002811115614180576141806152b7565b6002811115614191576141916152b7565b8152600882015462010000900460ff161515602082015260099091015460409091015283518490849081106141c8576141c86157e4565b602002602001018190525081806141de90615726565b9250505b806141ec81615726565b915050614047565b336000908152600c602052604090205460609060ff16156142275760405162461bcd60e51b8152600401610a3d90615774565b336000908152600b602052604090205460ff16156142575760405162461bcd60e51b8152600401610a3d9061573f565b600061426260035490565b90506000805b828110156142b4576000818152600560205260409020600301546001600160a01b038087169116036142a2578161429e81615726565b9250505b806142ac81615726565b915050614268565b506000816001600160401b038111156142cf576142cf614fbf565b60405190808252806020026020018201604052801561430857816020015b6142f5614f20565b8152602001906001900390816142ed5790505b5090506000805b84811015611d0b576000818152600560205260409020600301546001600160a01b038089169116036144755760008181526005602081815260409283902083516101808101855281546001600160a01b039081168252600180840154948301949094526002830154811695820195909552600382015485166060820152600482015490941660808501529182015460a0840152600682015460ff908116151560c0850152600783015460e085015260088301546101008501929116908111156143da576143da6152b7565b60018111156143eb576143eb6152b7565b81526020016008820160019054906101000a900460ff166002811115614413576144136152b7565b6002811115614424576144246152b7565b8152600882015462010000900460ff1615156020820152600990910154604090910152835184908490811061445b5761445b6157e4565b6020026020010181905250818061447190615726565b9250505b8061447f81615726565b91505061430f565b6000614491614cfb565b6000805b8451811015614530578481815181106144b0576144b06157e4565b602090810291909101810151600081815260058352604090819020600801805462ff0000191662010000891515908102919091179091558151838152938401529093507f6ffa1c2dfe558962660d78387d612607ef3f19ee482f7d51a12634d131e8db6e910160405180910390a18061452881615726565b915050614495565b506001949350505050565b6009602052816000526040600020818154811061194257600080fd5b61455f614cfb565b6001600160a01b0381166145c45760405162461bcd60e51b815260206004820152602660248201527f4f776e61626c653a206e6577206f776e657220697320746865207a65726f206160448201526564647265737360d01b6064820152608401610a3d565b6145cd81614e56565b50565b6000828152600a602052604090206003015482904211801561460257506000818152600a602052604090206004015442105b61461e5760405162461bcd60e51b8152600401610a3d90615cdf565b600083815260056020526040902060080154839062010000900460ff16151560011461465c5760405162461bcd60e51b8152600401610a3d90615862565b336000908152600c602052604090205460ff161561468c5760405162461bcd60e51b8152600401610a3d90615774565b336000908152600b602052604090205460ff16156146bc5760405162461bcd60e51b8152600401610a3d9061573f565b60008481526006602052604081206001015460ff1615614725576000858152600560209081526040808320600301546001600160a01b031683526007825280832033845290915290205460ff166147255760405162461bcd60e51b8152600401610a3d90615d28565b6000858152600a60205260409020600601546001600160a01b0316614775576000858152600a60205260409020600201543410156147755760405162461bcd60e51b8152600401610a3d90615d5f565b6000858152600a602052604090206005015434116147a55760405162461bcd60e51b8152600401610a3d90615d96565b600160008681526005602052604090206008015460ff1660018111156147cd576147cd6152b7565b146147ea5760405162461bcd60e51b8152600401610a3d90615df3565b60008581526005602052604090206006015460ff1615156001146148205760405162461bcd60e51b8152600401610a3d906159e9565b6000858152600a60205260409020600681015460058201546001600160a01b0390911690811561495e5760016006840154600160a01b900460ff16600281111561486c5761486c6152b7565b036148ff57600061487b612d66565b6148859083615aa9565b905061489481620f4240615a79565b60125460405163a9059cbb60e01b81529192506001600160a01b03169063a9059cbb906148c79086908590600401615a90565b600060405180830381600087803b1580156148e157600080fd5b505af11580156148f5573d6000803e3d6000fd5b505050505061495e565b60006006840154600160a01b900460ff166002811115614921576149216152b7565b0361495e576040516001600160a01b0383169082156108fc029083906000818181858888f1935050505015801561495c573d6000803e3d6000fd5b505b3460058401556006830180546001600160a01b0319163317905586600281111561498a5761498a6152b7565b60068401805460ff60a01b1916600160a01b8360028111156149ae576149ae6152b7565b02179055506149bf42610258615e26565b83600401541015614a345761012c8360040160008282546149e09190615e26565b9091555050600183015460048401546040517f8e1cb85d0855921b3c958b068fa707efb7db88099af764dd47f37eef82c3334d92614a2b928c926001600160a01b0390921691615e39565b60405180910390a15b600183810154600685015460058601546040519397507f4307392e6f0e441e74a4982d9fa9ddc49b3cd9d3902a9d3ecab0ad3c60a0acd193614a86938d936001600160a01b0391821693911691615acb565b60405180910390a15050505050505050565b336000908152600c602052604090205460609060ff1615614acb5760405162461bcd60e51b8152600401610a3d90615774565b6000614ad660035490565b90506000805b82811015614b28576000818152600560205260409020600401546001600160a01b03808716911603614b165781614b1281615726565b9250505b80614b2081615726565b915050614adc565b506000816001600160401b03811115614b4357614b43614fbf565b604051908082528060200260200182016040528015614b7c57816020015b614b69614f20565b815260200190600190039081614b615790505b5090506000805b84811015611d0b576000818152600560205260409020600401546001600160a01b03808916911603614ce95760008181526005602081815260409283902083516101808101855281546001600160a01b039081168252600180840154948301949094526002830154811695820195909552600382015485166060820152600482015490941660808501529182015460a0840152600682015460ff908116151560c0850152600783015460e08501526008830154610100850192911690811115614c4e57614c4e6152b7565b6001811115614c5f57614c5f6152b7565b81526020016008820160019054906101000a900460ff166002811115614c8757614c876152b7565b6002811115614c9857614c986152b7565b8152600882015462010000900460ff16151560208201526009909101546040909101528351849084908110614ccf57614ccf6157e4565b60200260200101819052508180614ce590615726565b9250505b80614cf381615726565b915050614b83565b6001546001600160a01b03163314611e2c5760405162461bcd60e51b815260206004820181905260248201527f4f776e61626c653a2063616c6c6572206973206e6f7420746865206f776e65726044820152606401610a3d565b600260005403614da75760405162461bcd60e51b815260206004820152601f60248201527f5265656e7472616e637947756172643a207265656e7472616e742063616c6c006044820152606401610a3d565b6002600055565b60006064614dbc8385615a79565b614dc69190615aa9565b9392505050565b6000806103e8614ddd8587615a79565b614de79190615aa9565b90506103e8614df68487615a79565b614e009190615aa9565b614e0a9082615e26565b95945050505050565b6145cd81604051602401614e279190615e58565b60408051601f198184030181529190526020810180516001600160e01b031663104c13eb60e21b179052614eff565b600180546001600160a01b038381166001600160a01b0319831681179093556040519116919082907f8be0079c531659141344cd1fd0a4f28419497f9722a3daafe3b4186f6b6457e090600090a35050565b805480614ef75760405162461bcd60e51b815260206004820152601b60248201527f436f756e7465723a2064656372656d656e74206f766572666c6f7700000000006044820152606401610a3d565b600019019055565b60006a636f6e736f6c652e6c6f679050600080835160208501845afa505050565b6040805161018081018252600080825260208201819052918101829052606081018290526080810182905260a0810182905260c0810182905260e081018290529061010082019081526020016000815260006020820181905260409091015290565b6001600160a01b03811681146145cd57600080fd5b80356119f181614f82565b600060208284031215614fb457600080fd5b8135614dc681614f82565b634e487b7160e01b600052604160045260246000fd5b604051601f8201601f191681016001600160401b0381118282101715614ffd57614ffd614fbf565b604052919050565b60006001600160401b0382111561501e5761501e614fbf565b5060051b60200190565b600082601f83011261503957600080fd5b8135602061504e61504983615005565b614fd5565b82815260059290921b8401810191818101908684111561506d57600080fd5b8286015b848110156150885780358352918301918301615071565b509695505050505050565b60008060008060008060008060006101208a8c0312156150b257600080fd5b6150bb8a614f97565b985060208a01356001600160401b03808211156150d757600080fd5b6150e38d838e01615028565b995060408c01359150808211156150f957600080fd5b6151058d838e01615028565b985060608c0135975060808c0135965060a08c013591508082111561512957600080fd5b6151358d838e01615028565b955060c08c013591508082111561514b57600080fd5b506151588c828d01615028565b93505060e08a013591506101008a013590509295985092959850929598565b803560ff811681146119f157600080fd5b600080600080600060a086880312156151a057600080fd5b85356151ab81614f82565b945060208601359350604086013592506151c760608701615177565b91506151d560808701615177565b90509295509295909350565b600060208083850312156151f457600080fd5b82356001600160401b0381111561520a57600080fd5b8301601f8101851361521b57600080fd5b803561522961504982615005565b81815260059190911b8201830190838101908783111561524857600080fd5b928401925b8284101561526f57833561526081614f82565b8252928401929084019061524d565b979650505050505050565b6000806040838503121561528d57600080fd5b50508035926020909101359150565b6000602082840312156152ae57600080fd5b614dc682615177565b634e487b7160e01b600052602160045260246000fd5b600281106152dd576152dd6152b7565b9052565b600381106152dd576152dd6152b7565b602080825282518282018190526000919060409081850190868401855b828110156153c757815180516001600160a01b0390811686528782015188870152868201518116878701526060808301518216908701526080808301519091169086015260a0808201519086015260c08082015115159086015260e0808201519086015261010080820151615385828801826152cd565b50506101208082015161539a828801826152e1565b5050610140818101511515908601526101609081015190850152610180909301929085019060010161530e565b5091979650505050505050565b60008060008060008060c087890312156153ed57600080fd5b86356153f881614f82565b9550602087013594506040870135935061541460608801615177565b925061542260808801615177565b915060a087013590509295509295509295565b60006020828403121561544757600080fd5b5035919050565b600081518084526020808501945080840160005b838110156154875781516001600160a01b031687529582019590820190600101615462565b509495945050505050565b602081526000614dc6602083018461544e565b60008060008060008060c087890312156154be57600080fd5b86356154c981614f82565b9860208801359850604088013597606081013597506080810135965060a00135945092505050565b60006020828403121561550357600080fd5b813560058110614dc657600080fd5b6000806000806080858703121561552857600080fd5b843561553381614f82565b93506020850135925061554860408601615177565b915061555660608601615177565b905092959194509250565b8881526001600160a01b03888116602083015260408201889052606082018790526080820186905260a08201859052831660c082015261010081016155a960e08301846152e1565b9998505050505050505050565b6000806000606084860312156155cb57600080fd5b505081359360208301359350604090920135919050565b6001600160a01b038d81168252602082018d90528b811660408301528a811660608301528916608082015260a0810188905286151560c082015260e0810186905261018081016156366101008301876152cd565b6156446101208301866152e1565b92151561014082015261016001529a9950505050505050505050565b6000806040838503121561567357600080fd5b823561567e81614f82565b946020939093013593505050565b6000806040838503121561569f57600080fd5b82356001600160401b038111156156b557600080fd5b6156c185828601615028565b925050602083013580151581146156d757600080fd5b809150509250929050565b600080604083850312156156f557600080fd5b823561570081614f82565b915060208301356156d781614f82565b634e487b7160e01b600052601160045260246000fd5b60006001820161573857615738615710565b5060010190565b6020808252818101527f596f75206172652062616e6e6564206f6e207468697320706c6174666f726d2e604082015260600190565b6020808252604a908201527f596f7520617265207065726d656e616e746c792064656c657465642066726f6d60408201527f207468697320706c6174666f726d20666f722076696f6c6174696e6720746865606082015269103837b634b1b4b2b99760b11b608082015260a00190565b634e487b7160e01b600052603260045260246000fd5b6001600160a01b039384168152919092166020820152604081019190915260600190565b6001600160a01b03978816815260208101969096529386166040860152919094166060840152608083019390935260a082019290925260c081019190915260e00190565b60208082526038908201527f54686973204e4654206973206e6f7420617070726f766564207965742066726f6040820152776d207468652061646d696e20666f7220707572636861736560401b606082015260800190565b60208082526025908201527f416e206f776e65722063616e6e6f7420707572636861736520697473206f776e6040820152641027232a1760d91b606082015260800190565b60208082526036908201527f546865206f776e6572206f662074686973206e667420697320626c61636b6c6960408201527539ba32b21037b7103a3434b990383630ba3337b9369760511b606082015260800190565b6020808252603d908201527f546865206f776e6572206f662074686973206e6674206973207065726d616e6160408201527f6e746c792062616e6e6564206f6e207468697320706c6174666f726d2e000000606082015260800190565b6020808252601a908201527f54686973204e4654206973206e6f742061742061756374696f6e000000000000604082015260600190565b6020808252601d908201527f4e6674206973206e6f74206c697374656420746f207075726368617365000000604082015260600190565b81810381811115612e2f57612e2f615710565b60208082526026908201527f4e6f7420656e6f75676820657468657220746f20636f7665722061736b696e6760408201526520707269636560d01b606082015260800190565b8082028115828204841417612e2f57612e2f615710565b6001600160a01b03929092168252602082015260400190565b600082615ac657634e487b7160e01b600052601260045260246000fd5b500490565b9384526001600160a01b03928316602085015291166040830152606082015260800190565b634e487b7160e01b600052603160045260246000fd5b60208082526027908201527f4e6f7420656e6f75676820616d6f756e7420746f20636f7665722061736b696e6040820152666720707269636560c81b606082015260800190565b600060208284031215615b5f57600080fd5b8151614dc681614f82565b828152604060208201526000615b83604083018461544e565b949350505050565b60006020808385031215615b9e57600080fd5b82516001600160401b03811115615bb457600080fd5b8301601f81018513615bc557600080fd5b8051615bd361504982615005565b81815260059190911b82018301908381019087831115615bf257600080fd5b928401925b8284101561526f57835182529284019290840190615bf7565b848152608060208201526000615c29608083018661544e565b6001600160a01b03949094166040830152506060015292915050565b85815284602082015260a060408201526000615c6460a083018661544e565b6001600160a01b0394909416606083015250608001529392505050565b805169ffffffffffffffffffff811681146119f157600080fd5b600080600080600060a08688031215615cb357600080fd5b615cbc86615c81565b94506020860151935060408601519250606086015191506151d560808701615c81565b60208082526029908201527f54686973204e4654206973206e6f74206f6e2061756374696f6e206174207468604082015268329036b7b6b2b73a1760b91b606082015260800190565b6020808252601b908201527f596f7520617265206e6f7420696e207468652066616e206c6973740000000000604082015260600190565b6020808252601c908201527f4d696e696d756d206269642068617320746f2062652068696768657200000000604082015260600190565b6020808252603c908201527f596f75206861766520746f2062696420686967686572207468616e207468652060408201527f686967686573742062696420746f206d616b6520616e206f6666657200000000606082015260800190565b6020808252601990820152782a3434b99027232a1034b99030ba1030ba1030bab1ba34b7b760391b604082015260600190565b80820180821115612e2f57612e2f615710565b9283526001600160a01b03919091166020830152604082015260600190565b600060208083528351808285015260005b81811015615e8557858101830151858201604001528201615e69565b506000604082860101526040601f19601f830116850101925050509291505056fe8562eb94748e30bb0071e932744ce902b460c683474fcb3bfd567ffa16b1afb2a26469706673582212202776b638aaf3389d481573db93091fa0baf2863509128c8e4b8a272b7885c4d764736f6c63430008130033",
  "linkReferences": {},
  "deployedLinkReferences": {}
}