{
  "_format": "hh-sol-artifact-1",
  "contractName": "ArtiziaMarketplace",
  "sourceName": "contracts/ArtiziaMarketplace.sol",
  "abi": [
    {
      "inputs": [
        {
          "internalType": "address",
          "name": "_token",
          "type": "address"
        }
      ],
      "stateMutability": "nonpayable",
      "type": "constructor"
    },
    {
      "inputs": [],
      "name": "invalidListingType",
      "type": "error"
    },
    {
      "inputs": [],
      "name": "invalidPrice",
      "type": "error"
    },
    {
      "anonymous": false,
      "inputs": [
        {
          "indexed": false,
          "internalType": "address",
          "name": "nftContract",
          "type": "address"
        },
        {
          "indexed": false,
          "internalType": "uint256",
          "name": "tokenId",
          "type": "uint256"
        },
        {
          "indexed": false,
          "internalType": "address",
          "name": "seller",
          "type": "address"
        },
        {
          "indexed": false,
          "internalType": "address",
          "name": "owner",
          "type": "address"
        },
        {
          "indexed": false,
          "internalType": "uint256",
          "name": "price",
          "type": "uint256"
        },
        {
          "indexed": false,
          "internalType": "uint256",
          "name": "collectionId",
          "type": "uint256"
        },
        {
          "indexed": false,
          "internalType": "uint256",
          "name": "listingType",
          "type": "uint256"
        }
      ],
      "name": "NFTListed",
      "type": "event"
    },
    {
      "anonymous": false,
      "inputs": [
        {
          "indexed": false,
          "internalType": "uint256",
          "name": "tokenId",
          "type": "uint256"
        },
        {
          "indexed": false,
          "internalType": "address",
          "name": "seller",
          "type": "address"
        },
        {
          "indexed": false,
          "internalType": "address",
          "name": "buyer",
          "type": "address"
        },
        {
          "indexed": false,
          "internalType": "uint256",
          "name": "price",
          "type": "uint256"
        }
      ],
      "name": "NFTSold",
      "type": "event"
    },
    {
      "anonymous": false,
      "inputs": [
        {
          "indexed": true,
          "internalType": "address",
          "name": "previousOwner",
          "type": "address"
        },
        {
          "indexed": true,
          "internalType": "address",
          "name": "newOwner",
          "type": "address"
        }
      ],
      "name": "OwnershipTransferred",
      "type": "event"
    },
    {
      "anonymous": false,
      "inputs": [
        {
          "indexed": false,
          "internalType": "address[]",
          "name": "fans",
          "type": "address[]"
        }
      ],
      "name": "addedFans",
      "type": "event"
    },
    {
      "anonymous": false,
      "inputs": [
        {
          "indexed": false,
          "internalType": "uint256",
          "name": "tokenId",
          "type": "uint256"
        },
        {
          "indexed": false,
          "internalType": "bool",
          "name": "decision",
          "type": "bool"
        }
      ],
      "name": "approvalUpdate",
      "type": "event"
    },
    {
      "anonymous": false,
      "inputs": [
        {
          "indexed": false,
          "internalType": "uint256",
          "name": "tokenId",
          "type": "uint256"
        },
        {
          "indexed": false,
          "internalType": "address",
          "name": "seller",
          "type": "address"
        },
        {
          "indexed": false,
          "internalType": "uint256",
          "name": "newTime",
          "type": "uint256"
        }
      ],
      "name": "auctionEndTimeIncreased",
      "type": "event"
    },
    {
      "anonymous": false,
      "inputs": [
        {
          "indexed": false,
          "internalType": "uint256",
          "name": "tokenId",
          "type": "uint256"
        },
        {
          "indexed": false,
          "internalType": "address",
          "name": "seller",
          "type": "address"
        },
        {
          "indexed": false,
          "internalType": "address",
          "name": "highestBidder",
          "type": "address"
        },
        {
          "indexed": false,
          "internalType": "uint256",
          "name": "highestBid",
          "type": "uint256"
        }
      ],
      "name": "receivedABid",
      "type": "event"
    },
    {
      "anonymous": false,
      "inputs": [
        {
          "indexed": false,
          "internalType": "address",
          "name": "fan",
          "type": "address"
        }
      ],
      "name": "removeFan",
      "type": "event"
    },
    {
      "stateMutability": "payable",
      "type": "fallback"
    },
    {
      "inputs": [],
      "name": "UNISWAP_ROUTER_ADDRESS",
      "outputs": [
        {
          "internalType": "address",
          "name": "",
          "type": "address"
        }
      ],
      "stateMutability": "view",
      "type": "function"
    },
    {
      "inputs": [],
      "name": "USDT_ADDRESS",
      "outputs": [
        {
          "internalType": "address",
          "name": "",
          "type": "address"
        }
      ],
      "stateMutability": "view",
      "type": "function"
    },
    {
      "inputs": [
        {
          "internalType": "uint256",
          "name": "",
          "type": "uint256"
        }
      ],
      "name": "_idToAuction",
      "outputs": [
        {
          "internalType": "uint256",
          "name": "tokenId",
          "type": "uint256"
        },
        {
          "internalType": "address payable",
          "name": "seller",
          "type": "address"
        },
        {
          "internalType": "uint256",
          "name": "basePrice",
          "type": "uint256"
        },
        {
          "internalType": "uint256",
          "name": "startTime",
          "type": "uint256"
        },
        {
          "internalType": "uint256",
          "name": "endTime",
          "type": "uint256"
        },
        {
          "internalType": "uint256",
          "name": "highestBid",
          "type": "uint256"
        },
        {
          "internalType": "address payable",
          "name": "highestBidder",
          "type": "address"
        },
        {
          "internalType": "enum ArtiziaMarketplace.PaymentMethod",
          "name": "highestBidCurrency",
          "type": "uint8"
        }
      ],
      "stateMutability": "view",
      "type": "function"
    },
    {
      "inputs": [
        {
          "internalType": "uint256",
          "name": "",
          "type": "uint256"
        }
      ],
      "name": "_idToNFT",
      "outputs": [
        {
          "internalType": "address",
          "name": "nftContract",
          "type": "address"
        },
        {
          "internalType": "uint256",
          "name": "tokenId",
          "type": "uint256"
        },
        {
          "internalType": "address payable",
          "name": "firstOwner",
          "type": "address"
        },
        {
          "internalType": "address payable",
          "name": "seller",
          "type": "address"
        },
        {
          "internalType": "address payable",
          "name": "owner",
          "type": "address"
        },
        {
          "internalType": "uint256",
          "name": "price",
          "type": "uint256"
        },
        {
          "internalType": "bool",
          "name": "listed",
          "type": "bool"
        },
        {
          "internalType": "uint256",
          "name": "royaltyPrice",
          "type": "uint256"
        },
        {
          "internalType": "enum ArtiziaMarketplace.ListingType",
          "name": "listingType",
          "type": "uint8"
        },
        {
          "internalType": "enum ArtiziaMarketplace.PaymentMethod",
          "name": "paymentMethod",
          "type": "uint8"
        },
        {
          "internalType": "bool",
          "name": "approve",
          "type": "bool"
        },
        {
          "internalType": "uint256",
          "name": "collectionId",
          "type": "uint256"
        }
      ],
      "stateMutability": "view",
      "type": "function"
    },
    {
      "inputs": [
        {
          "internalType": "uint256",
          "name": "",
          "type": "uint256"
        }
      ],
      "name": "_idToNFT2",
      "outputs": [
        {
          "internalType": "uint256",
          "name": "tokenId",
          "type": "uint256"
        },
        {
          "internalType": "bool",
          "name": "onlyFans",
          "type": "bool"
        },
        {
          "internalType": "uint256",
          "name": "fanDiscountPercent",
          "type": "uint256"
        }
      ],
      "stateMutability": "view",
      "type": "function"
    },
    {
      "inputs": [],
      "name": "_nftCount",
      "outputs": [
        {
          "internalType": "uint256",
          "name": "_value",
          "type": "uint256"
        }
      ],
      "stateMutability": "view",
      "type": "function"
    },
    {
      "inputs": [],
      "name": "_nftsSold",
      "outputs": [
        {
          "internalType": "uint256",
          "name": "_value",
          "type": "uint256"
        }
      ],
      "stateMutability": "view",
      "type": "function"
    },
    {
      "inputs": [
        {
          "internalType": "address[]",
          "name": "fans",
          "type": "address[]"
        }
      ],
      "name": "addFans",
      "outputs": [],
      "stateMutability": "nonpayable",
      "type": "function"
    },
    {
      "inputs": [
        {
          "internalType": "uint256[]",
          "name": "_tokenId",
          "type": "uint256[]"
        },
        {
          "internalType": "bool",
          "name": "_decision",
          "type": "bool"
        }
      ],
      "name": "approveNfts",
      "outputs": [
        {
          "internalType": "bool",
          "name": "",
          "type": "bool"
        }
      ],
      "stateMutability": "nonpayable",
      "type": "function"
    },
    {
      "inputs": [
        {
          "internalType": "address",
          "name": "_user",
          "type": "address"
        }
      ],
      "name": "banUser",
      "outputs": [],
      "stateMutability": "nonpayable",
      "type": "function"
    },
    {
      "inputs": [
        {
          "internalType": "address",
          "name": "",
          "type": "address"
        },
        {
          "internalType": "uint256",
          "name": "",
          "type": "uint256"
        }
      ],
      "name": "bannedNfts",
      "outputs": [
        {
          "internalType": "uint256",
          "name": "",
          "type": "uint256"
        }
      ],
      "stateMutability": "view",
      "type": "function"
    },
    {
      "inputs": [
        {
          "internalType": "address",
          "name": "",
          "type": "address"
        }
      ],
      "name": "bannedUsers",
      "outputs": [
        {
          "internalType": "bool",
          "name": "",
          "type": "bool"
        }
      ],
      "stateMutability": "view",
      "type": "function"
    },
    {
      "inputs": [
        {
          "internalType": "uint256",
          "name": "_tokenId",
          "type": "uint256"
        },
        {
          "internalType": "uint256",
          "name": "_bidCurrency",
          "type": "uint256"
        }
      ],
      "name": "bidInETH",
      "outputs": [],
      "stateMutability": "payable",
      "type": "function"
    },
    {
      "inputs": [
        {
          "internalType": "uint256",
          "name": "_tokenId",
          "type": "uint256"
        },
        {
          "internalType": "uint256",
          "name": "_amount",
          "type": "uint256"
        },
        {
          "internalType": "uint256",
          "name": "_bidCurrency",
          "type": "uint256"
        },
        {
          "internalType": "uint256",
          "name": "_amountInETHInWei",
          "type": "uint256"
        }
      ],
      "name": "bidInUSDT",
      "outputs": [],
      "stateMutability": "payable",
      "type": "function"
    },
    {
      "inputs": [
        {
          "internalType": "address",
          "name": "_nftContract",
          "type": "address"
        },
        {
          "internalType": "uint256",
          "name": "_paymentMethod",
          "type": "uint256"
        },
        {
          "internalType": "uint256",
          "name": "_tokenId",
          "type": "uint256"
        },
        {
          "internalType": "uint8",
          "name": "_sellerPlan",
          "type": "uint8"
        },
        {
          "internalType": "uint8",
          "name": "_buyerPlan",
          "type": "uint8"
        }
      ],
      "name": "buyWithETH",
      "outputs": [],
      "stateMutability": "payable",
      "type": "function"
    },
    {
      "inputs": [
        {
          "internalType": "address",
          "name": "_nftContract",
          "type": "address"
        },
        {
          "internalType": "uint256",
          "name": "_paymentMethod",
          "type": "uint256"
        },
        {
          "internalType": "uint256",
          "name": "_tokenId",
          "type": "uint256"
        },
        {
          "internalType": "uint8",
          "name": "_sellerPlan",
          "type": "uint8"
        },
        {
          "internalType": "uint8",
          "name": "_buyerPlan",
          "type": "uint8"
        },
        {
          "internalType": "uint256",
          "name": "_amountSent",
          "type": "uint256"
        }
      ],
      "name": "buyWithFIAT",
      "outputs": [],
      "stateMutability": "payable",
      "type": "function"
    },
    {
      "inputs": [
        {
          "internalType": "address",
          "name": "_nftContract",
          "type": "address"
        },
        {
          "internalType": "uint256",
          "name": "_paymentMethod",
          "type": "uint256"
        },
        {
          "internalType": "uint256",
          "name": "_tokenId",
          "type": "uint256"
        },
        {
          "internalType": "uint8",
          "name": "_sellerPlan",
          "type": "uint8"
        },
        {
          "internalType": "uint8",
          "name": "_buyerPlan",
          "type": "uint8"
        },
        {
          "internalType": "uint256",
          "name": "_amount",
          "type": "uint256"
        },
        {
          "internalType": "uint256",
          "name": "_amountInETHInWei",
          "type": "uint256"
        }
      ],
      "name": "buyWithUSDT",
      "outputs": [],
      "stateMutability": "payable",
      "type": "function"
    },
    {
      "inputs": [
        {
          "internalType": "uint256",
          "name": "_tokenId",
          "type": "uint256"
        },
        {
          "internalType": "uint256",
          "name": "_newDiscountPercent",
          "type": "uint256"
        }
      ],
      "name": "changeFanDiscountPercent",
      "outputs": [],
      "stateMutability": "nonpayable",
      "type": "function"
    },
    {
      "inputs": [
        {
          "internalType": "uint256",
          "name": "_tokenId",
          "type": "uint256"
        }
      ],
      "name": "checkFan",
      "outputs": [
        {
          "internalType": "bool",
          "name": "",
          "type": "bool"
        }
      ],
      "stateMutability": "view",
      "type": "function"
    },
    {
      "inputs": [
        {
          "internalType": "address",
          "name": "_nftContract",
          "type": "address"
        },
        {
          "internalType": "uint256",
          "name": "_tokenId",
          "type": "uint256"
        },
        {
          "internalType": "uint8",
          "name": "_sellerPlan",
          "type": "uint8"
        },
        {
          "internalType": "uint8",
          "name": "_buyerPlan",
          "type": "uint8"
        }
      ],
      "name": "closeAuction",
      "outputs": [],
      "stateMutability": "payable",
      "type": "function"
    },
    {
      "inputs": [
        {
          "internalType": "uint256",
          "name": "",
          "type": "uint256"
        },
        {
          "internalType": "uint256",
          "name": "",
          "type": "uint256"
        }
      ],
      "name": "collection",
      "outputs": [
        {
          "internalType": "uint256",
          "name": "",
          "type": "uint256"
        }
      ],
      "stateMutability": "view",
      "type": "function"
    },
    {
      "inputs": [
        {
          "internalType": "address",
          "name": "",
          "type": "address"
        },
        {
          "internalType": "uint256",
          "name": "",
          "type": "uint256"
        }
      ],
      "name": "fanLists",
      "outputs": [
        {
          "internalType": "address",
          "name": "",
          "type": "address"
        }
      ],
      "stateMutability": "view",
      "type": "function"
    },
    {
      "inputs": [
        {
          "internalType": "address",
          "name": "user",
          "type": "address"
        }
      ],
      "name": "getFans",
      "outputs": [
        {
          "internalType": "address[]",
          "name": "",
          "type": "address[]"
        }
      ],
      "stateMutability": "view",
      "type": "function"
    },
    {
      "inputs": [],
      "name": "getLatestUSDTPrice",
      "outputs": [
        {
          "internalType": "uint256",
          "name": "",
          "type": "uint256"
        }
      ],
      "stateMutability": "view",
      "type": "function"
    },
    {
      "inputs": [],
      "name": "getListedNfts",
      "outputs": [
        {
          "components": [
            {
              "internalType": "address",
              "name": "nftContract",
              "type": "address"
            },
            {
              "internalType": "uint256",
              "name": "tokenId",
              "type": "uint256"
            },
            {
              "internalType": "address payable",
              "name": "firstOwner",
              "type": "address"
            },
            {
              "internalType": "address payable",
              "name": "seller",
              "type": "address"
            },
            {
              "internalType": "address payable",
              "name": "owner",
              "type": "address"
            },
            {
              "internalType": "uint256",
              "name": "price",
              "type": "uint256"
            },
            {
              "internalType": "bool",
              "name": "listed",
              "type": "bool"
            },
            {
              "internalType": "uint256",
              "name": "royaltyPrice",
              "type": "uint256"
            },
            {
              "internalType": "enum ArtiziaMarketplace.ListingType",
              "name": "listingType",
              "type": "uint8"
            },
            {
              "internalType": "enum ArtiziaMarketplace.PaymentMethod",
              "name": "paymentMethod",
              "type": "uint8"
            },
            {
              "internalType": "bool",
              "name": "approve",
              "type": "bool"
            },
            {
              "internalType": "uint256",
              "name": "collectionId",
              "type": "uint256"
            }
          ],
          "internalType": "struct ArtiziaMarketplace.NFT[]",
          "name": "",
          "type": "tuple[]"
        }
      ],
      "stateMutability": "view",
      "type": "function"
    },
    {
      "inputs": [
        {
          "internalType": "address",
          "name": "_user",
          "type": "address"
        }
      ],
      "name": "getMyNfts",
      "outputs": [
        {
          "components": [
            {
              "internalType": "address",
              "name": "nftContract",
              "type": "address"
            },
            {
              "internalType": "uint256",
              "name": "tokenId",
              "type": "uint256"
            },
            {
              "internalType": "address payable",
              "name": "firstOwner",
              "type": "address"
            },
            {
              "internalType": "address payable",
              "name": "seller",
              "type": "address"
            },
            {
              "internalType": "address payable",
              "name": "owner",
              "type": "address"
            },
            {
              "internalType": "uint256",
              "name": "price",
              "type": "uint256"
            },
            {
              "internalType": "bool",
              "name": "listed",
              "type": "bool"
            },
            {
              "internalType": "uint256",
              "name": "royaltyPrice",
              "type": "uint256"
            },
            {
              "internalType": "enum ArtiziaMarketplace.ListingType",
              "name": "listingType",
              "type": "uint8"
            },
            {
              "internalType": "enum ArtiziaMarketplace.PaymentMethod",
              "name": "paymentMethod",
              "type": "uint8"
            },
            {
              "internalType": "bool",
              "name": "approve",
              "type": "bool"
            },
            {
              "internalType": "uint256",
              "name": "collectionId",
              "type": "uint256"
            }
          ],
          "internalType": "struct ArtiziaMarketplace.NFT[]",
          "name": "",
          "type": "tuple[]"
        }
      ],
      "stateMutability": "view",
      "type": "function"
    },
    {
      "inputs": [
        {
          "internalType": "uint256",
          "name": "_tokenId",
          "type": "uint256"
        }
      ],
      "name": "getStatusOfAuction",
      "outputs": [
        {
          "internalType": "bool",
          "name": "",
          "type": "bool"
        }
      ],
      "stateMutability": "view",
      "type": "function"
    },
    {
      "inputs": [
        {
          "internalType": "uint8",
          "name": "level",
          "type": "uint8"
        }
      ],
      "name": "getSubscriptionFee",
      "outputs": [
        {
          "internalType": "uint256",
          "name": "",
          "type": "uint256"
        }
      ],
      "stateMutability": "view",
      "type": "function"
    },
    {
      "inputs": [
        {
          "internalType": "address",
          "name": "",
          "type": "address"
        },
        {
          "internalType": "address",
          "name": "",
          "type": "address"
        }
      ],
      "name": "isFan",
      "outputs": [
        {
          "internalType": "bool",
          "name": "",
          "type": "bool"
        }
      ],
      "stateMutability": "view",
      "type": "function"
    },
    {
      "inputs": [
        {
          "internalType": "address",
          "name": "_nftContract",
          "type": "address"
        },
        {
          "internalType": "uint256[]",
          "name": "_tokenId",
          "type": "uint256[]"
        },
        {
          "internalType": "uint256[]",
          "name": "_price",
          "type": "uint256[]"
        },
        {
          "internalType": "uint256[]",
          "name": "_royaltyPrice",
          "type": "uint256[]"
        },
        {
          "internalType": "uint256",
          "name": "_listingType",
          "type": "uint256"
        },
        {
          "internalType": "uint256[]",
          "name": "_startTime",
          "type": "uint256[]"
        },
        {
          "internalType": "uint256[]",
          "name": "_endTime",
          "type": "uint256[]"
        },
        {
          "internalType": "uint256",
          "name": "_collectionId",
          "type": "uint256"
        },
        {
          "internalType": "uint256",
          "name": "_paymentMethod",
          "type": "uint256"
        }
      ],
      "name": "listNft",
      "outputs": [],
      "stateMutability": "payable",
      "type": "function"
    },
    {
      "inputs": [],
      "name": "owner",
      "outputs": [
        {
          "internalType": "address",
          "name": "",
          "type": "address"
        }
      ],
      "stateMutability": "view",
      "type": "function"
    },
    {
      "inputs": [
        {
          "internalType": "address",
          "name": "addressToRemove",
          "type": "address"
        }
      ],
      "name": "removeFans",
      "outputs": [],
      "stateMutability": "nonpayable",
      "type": "function"
    },
    {
      "inputs": [],
      "name": "renounceOwnership",
      "outputs": [],
      "stateMutability": "nonpayable",
      "type": "function"
    },
    {
      "inputs": [
        {
          "internalType": "address",
          "name": "_nftContract",
          "type": "address"
        },
        {
          "internalType": "uint256",
          "name": "_tokenId",
          "type": "uint256"
        },
        {
          "internalType": "uint256",
          "name": "_price",
          "type": "uint256"
        },
        {
          "internalType": "uint256",
          "name": "_listingType",
          "type": "uint256"
        },
        {
          "internalType": "uint256",
          "name": "_startTime",
          "type": "uint256"
        },
        {
          "internalType": "uint256",
          "name": "_endTime",
          "type": "uint256"
        }
      ],
      "name": "resellNft",
      "outputs": [],
      "stateMutability": "nonpayable",
      "type": "function"
    },
    {
      "inputs": [
        {
          "internalType": "enum ArtiziaMarketplace.SubscriptionLevel",
          "name": "",
          "type": "uint8"
        }
      ],
      "name": "subscriptionFees",
      "outputs": [
        {
          "internalType": "uint256",
          "name": "",
          "type": "uint256"
        }
      ],
      "stateMutability": "view",
      "type": "function"
    },
    {
      "inputs": [
        {
          "internalType": "uint256",
          "name": "usdtAmountOut",
          "type": "uint256"
        },
        {
          "internalType": "uint256",
          "name": "meth",
          "type": "uint256"
        }
      ],
      "name": "swapETHForUSDT",
      "outputs": [],
      "stateMutability": "payable",
      "type": "function"
    },
    {
      "inputs": [
        {
          "internalType": "uint256",
          "name": "usdtAmountIn",
          "type": "uint256"
        }
      ],
      "name": "swapUSDTForETH",
      "outputs": [
        {
          "internalType": "uint256",
          "name": "",
          "type": "uint256"
        }
      ],
      "stateMutability": "nonpayable",
      "type": "function"
    },
    {
      "inputs": [
        {
          "internalType": "address",
          "name": "newOwner",
          "type": "address"
        }
      ],
      "name": "transferOwnership",
      "outputs": [],
      "stateMutability": "nonpayable",
      "type": "function"
    },
    {
      "inputs": [
        {
          "internalType": "address",
          "name": "_user",
          "type": "address"
        }
      ],
      "name": "unbanUser",
      "outputs": [],
      "stateMutability": "nonpayable",
      "type": "function"
    },
    {
      "stateMutability": "payable",
      "type": "receive"
    }
  ],
  "bytecode": "0x6080604052600e80546001600160a01b0319908116737a250d5630b4cf539739df2c5dacb4c659f2488d17909155600f805490911673dac17f958d2ee523a2206206994597c13d831ec71790553480156200005957600080fd5b5060405162005d8238038062005d828339810160408190526200007c9162000213565b60016000556200008c3362000113565b600480546001600160a01b03199081163317909155600e546010805483166001600160a01b039283161790556011805491841691909216179055620000d46000609662000165565b620000e26001609662000165565b620000f06002609662000165565b620000fe6003606462000165565b6200010c6004600062000165565b506200025b565b600180546001600160a01b038381166001600160a01b0319831681179093556040519116919082907f8be0079c531659141344cd1fd0a4f28419497f9722a3daafe3b4186f6b6457e090600090a35050565b6200016f620001b2565b80600d600084600481111562000189576200018962000245565b60048111156200019d576200019d62000245565b81526020810191909152604001600020555050565b6001546001600160a01b03163314620002115760405162461bcd60e51b815260206004820181905260248201527f4f776e61626c653a2063616c6c6572206973206e6f7420746865206f776e6572604482015260640160405180910390fd5b565b6000602082840312156200022657600080fd5b81516001600160a01b03811681146200023e57600080fd5b9392505050565b634e487b7160e01b600052602160045260246000fd5b615b17806200026b6000396000f3fe6080604052600436106101e85760003560e01c80639a6e94be11610108578063b9e07df111610098578063b9e07df114610641578063bbffa07b146106f2578063c189205814610712578063d6cbb20214610732578063d6fc3dbd14610749578063e4fb2ab214610769578063ed5a1c0f14610789578063f2fde38b146107c4578063f41dfb18146107e4578063f6c1b77a146107f757005b80639a6e94be1461043e5780639c744058146104985780639ea36e88146104b8578063a8ab8c0314610509578063ace5e90e14610536578063aeb46a1b14610556578063b32ac0c614610583578063b3ff233e14610596578063b4fa0412146105a9578063b8820d821461062e57005b80635021b42b116101835780635021b42b146102f45780635ca11fa314610307578063715018a614610327578063719b21881461033c57806379b369431461035c5780638988d078146103895780638cd410f4146103c95780638d6cb3fb146103e95780638da5cb5b1461040b57806398dd36bf1461042957005b806310d86b1f146101f157806330221fc51461021157806331824a491461022457806331a7a70f1461024e5780633fa9df4b1461026e5780634348478b146102815780634afbcdae146102945780634d12b695146102b45780634d3fb817146102d457005b366101ef57005b005b3480156101fd57600080fd5b506101ef61020c366004614c99565b610817565b6101ef61021f366004614cc7565b6108dd565b34801561023057600080fd5b5060025461023b9081565b6040519081526020015b60405180910390f35b34801561025a57600080fd5b506101ef610269366004614d89565b610ed6565b6101ef61027c366004614e8d565b61106f565b6101ef61028f366004614f8c565b61171b565b3480156102a057600080fd5b5061023b6102af366004614fbe565b611bb4565b3480156102c057600080fd5b506101ef6102cf366004614c99565b611be5565b3480156102e057600080fd5b5061023b6102ef366004614fe0565b611c0e565b6101ef610302366004614ffb565b611c84565b34801561031357600080fd5b506101ef610322366004614fbe565b612348565b34801561033357600080fd5b506101ef6123e2565b34801561034857600080fd5b506101ef610357366004614c99565b6123f6565b34801561036857600080fd5b50600e5461037c906001600160a01b031681565b6040516102459190615074565b34801561039557600080fd5b506103b96103a4366004614c99565b600b6020526000908152604090205460ff1681565b6040519015158152602001610245565b3480156103d557600080fd5b5061023b6103e4366004615088565b612545565b3480156103f557600080fd5b506103fe612802565b60405161024591906150db565b34801561041757600080fd5b506001546001600160a01b031661037c565b34801561043557600080fd5b5061023b612a1d565b34801561044a57600080fd5b5061047d610459366004615088565b600660205260009081526040902080546001820154600290920154909160ff169083565b60408051938452911515602084015290820152606001610245565b3480156104a457600080fd5b506103b96104b3366004615088565b612aec565b3480156104c457600080fd5b506103b96104d3366004615088565b6000908152600560209081526040808320600301546001600160a01b031683526007825280832033845290915290205460ff1690565b34801561051557600080fd5b50610529610524366004614c99565b612b31565b6040516102459190615214565b34801561054257600080fd5b506101ef610551366004615227565b612bd8565b34801561056257600080fd5b5061023b610571366004615273565b600d6020526000908152604090205481565b6101ef610591366004615294565b612f2e565b6101ef6105a43660046152e3565b6137c4565b3480156105b557600080fd5b5061061a6105c4366004615088565b600a60205260009081526040902080546001820154600283015460038401546004850154600586015460069096015494956001600160a01b0394851695939492939192909190811690600160a01b900460ff1688565b604051610245989796959493929190615344565b6101ef61063c366004614fbe565b613db5565b34801561064d57600080fd5b506106da61065c366004615088565b600560208190526000918252604090912080546001820154600283015460038401546004850154958501546006860154600787015460088801546009909801546001600160a01b03978816999698958816979485169690941694929360ff92831693919282811692610100810482169262010000909104909116908c565b6040516102459c9b9a99989796959493929190615399565b3480156106fe57600080fd5b5061037c61070d366004615417565b6140ab565b34801561071e57600080fd5b50600f5461037c906001600160a01b031681565b34801561073e57600080fd5b5060035461023b9081565b34801561075557600080fd5b506103b9610764366004615443565b6140e3565b34801561077557600080fd5b5061023b610784366004615417565b614326565b34801561079557600080fd5b506103b96107a4366004615499565b600760209081526000928352604080842090915290825290205460ff1681565b3480156107d057600080fd5b506101ef6107df366004614c99565b614342565b6101ef6107f2366004614fbe565b6143bb565b34801561080357600080fd5b506103fe610812366004614c99565b6147ea565b61081f614a58565b6001600160a01b0381166000908152600b60205260408120805460ff1916600117905561084b60035490565b905060005b818110156108d8576000818152600560205260409020600301546001600160a01b038085169116036108c65760008181526005602052604090206004810180546001600160a01b03199081163017909155600382018054909116905560068101805460ff19169055600801805462ff0000191690555b806108d0816154dd565b915050610850565b505050565b600083815260056020526040902060080154839062010000900460ff1615156001146109245760405162461bcd60e51b815260040161091b906154f6565b60405180910390fd5b336000908152600b602052604090205460ff16156109545760405162461bcd60e51b815260040161091b9061554e565b61095c614ab2565b60008481526005602052604081209061097485611c0e565b9050600061098185611c0e565b6003840154909150336001600160a01b03909116036109b25760405162461bcd60e51b815260040161091b90615583565b60038301546001600160a01b03166000908152600b602052604090205460ff16156109ef5760405162461bcd60e51b815260040161091b906155c8565b6000600884015460ff166001811115610a0a57610a0a6150a1565b14610a275760405162461bcd60e51b815260040161091b9061561e565b600683015460ff161515600114610a505760405162461bcd60e51b815260040161091b90615652565b6000878152600560209081526040808320600301546001600160a01b0316835260078252808320338085529252822054349060ff16610aad578560050154341015610aad5760405162461bcd60e51b815260040161091b90615689565b600286015460038701546001600160a01b03918216911603610c12576000610ad6828787614b0b565b9050610ae281836156cf565b6004546040519193506001600160a01b03169082156108fc029083906000818181858888f19350505050158015610b1d573d6000803e3d6000fd5b508b600003610b6c5760038701546040516001600160a01b039091169083156108fc029084906000818181858888f19350505050158015610b62573d6000803e3d6000fd5b5060019350610c0c565b6000610b76612a1d565b610b8090846156e2565b9050610b8f81620f4240615704565b9050610b9c816000613db5565b601154600389015460405163a9059cbb60e01b81526001600160a01b039283169263a9059cbb92610bd492911690859060040161571b565b600060405180830381600087803b158015610bee57600080fd5b505af1158015610c02573d6000803e3d6000fd5b5050505060019450505b50610db8565b60008190506000610c27828960070154614b51565b90506000610c36848989614b0b565b905080610c4383856156cf565b610c4d91906156cf565b6004546040519195506001600160a01b03169082156108fc029083906000818181858888f19350505050158015610c88573d6000803e3d6000fd5b5060028901546040516001600160a01b039091169083156108fc029084906000818181858888f19350505050158015610cc5573d6000803e3d6000fd5b508d600003610d145760038901546040516001600160a01b039091169085156108fc029086906000818181858888f19350505050158015610d0a573d6000803e3d6000fd5b5060019550610db4565b6000610d1e612a1d565b610d2890866156e2565b9050610d3781620f4240615704565b9050610d44816000613db5565b60115460038b015460405163a9059cbb60e01b81526001600160a01b039283169263a9059cbb92610d7c92911690859060040161571b565b600060405180830381600087803b158015610d9657600080fd5b505af1158015610daa573d6000803e3d6000fd5b5050505060019650505b5050505b8215610ebe5760018601546040516323b872dd60e01b81526001600160a01b038e16916323b872dd91610df2913091879190600401615734565b600060405180830381600087803b158015610e0c57600080fd5b505af1158015610e20573d6000803e3d6000fd5b50505060018701546003880154604051600080516020615ac28339815191529350610e5992916001600160a01b03169086903490615758565b60405180910390a16004860180546001600160a01b0384166001600160a01b031991821617909155600387018054909116905560068601805460ff19169055610ea6600280546001019055565b60018601546000908152600660205260408120600201555b505050505050610ece6001600055565b505050505050565b600081516001600160401b03811115610ef157610ef1614d20565b604051908082528060200260200182016040528015610f1a578160200160208202803683370190505b50905060005b8251811015611033576000838281518110610f3d57610f3d61577d565b6020026020010151905060006001600160a01b0316816001600160a01b03160315611020573360009081526007602090815260408083206001600160a01b038516845290915290205460ff16611020573360008181526008602090815260408083208054600180820183559185528385200180546001600160a01b0319166001600160a01b03881690811790915594845260078352818420948452939091529020805460ff1916909117905582518190849084908110610fff57610fff61577d565b60200260200101906001600160a01b031690816001600160a01b0316815250505b508061102b816154dd565b915050610f20565b507fa99d709f8a9c899ba566c9b2515b1715239783ff40126e24d86e081505a7f50e816040516110639190615214565b60405180910390a15050565b611077614ab2565b336000908152600b602052604090205460ff16156110a75760405162461bcd60e51b815260040161091b9061554e565b60005b88518110156117055760008882815181106110c7576110c761577d565b602002602001015110156110ee57604051635a93095360e11b815260040160405180910390fd5b6001861115611110576040516317142a4d60e01b815260040160405180910390fd5b896001600160a01b03166323b872dd33308c85815181106111335761113361577d565b60200260200101516040518463ffffffff1660e01b815260040161115993929190615734565b600060405180830381600087803b15801561117357600080fd5b505af1158015611187573d6000803e3d6000fd5b50505050611199600380546001019055565b6000838152600c6020526040902089518a90839081106111bb576111bb61577d565b602002602001015190806001815401808255809150506001900390600052602060002001600090919091909150556040518061018001604052808b6001600160a01b031681526020018a83815181106112165761121661577d565b60200260200101518152602001336001600160a01b03168152602001336001600160a01b03168152602001306001600160a01b031681526020018983815181106112625761126261577d565b6020026020010151815260200160011515815260200188838151811061128a5761128a61577d565b602002602001015181526020018760018111156112a9576112a96150a1565b60018111156112ba576112ba6150a1565b81526020018360028111156112d1576112d16150a1565b60028111156112e2576112e26150a1565b815260200160011515815260200184815250600560008b848151811061130a5761130a61577d565b6020908102919091018101518252818101929092526040908101600020835181546001600160a01b03199081166001600160a01b039283161783559385015160018084019190915592850151600283018054861691831691909117905560608501516003830180548616918316919091179055608085015160048301805490951691161790925560a0830151600583015560c083015160068301805460ff1990811692151592909217905560e0840151600784015561010084015160088401805491939092919091169083818111156113e5576113e56150a1565b021790555061012082015160088201805461ff001916610100836002811115611410576114106150a1565b02179055506101408201518160080160026101000a81548160ff021916908315150217905550610160820151816009015590505060405180606001604052808a83815181106114615761146161577d565b602002602001015181526020016000151581526020016000815250600660008b84815181106114925761149261577d565b602090810291909101810151825281810192909252604090810160002083518155918301516001808401805460ff191692151592909217909155920151600290910155860361167e576040518061010001604052808a83815181106114f9576114f961577d565b60200260200101518152602001336001600160a01b031681526020018983815181106115275761152761577d565b602002602001015181526020018683815181106115465761154661577d565b602002602001015181526020018583815181106115655761156561577d565b602002602001015181526020016000815260200160006001600160a01b0316815260200183600281111561159b5761159b6150a1565b60028111156115ac576115ac6150a1565b815250600a60008b84815181106115c5576115c561577d565b602090810291909101810151825281810192909252604090810160002083518155918301516001830180546001600160a01b03199081166001600160a01b039384161790915591840151600280850191909155606085015160038501556080850151600485015560a0850151600585015560c085015160068501805494851691909316908117835560e0860151936001600160a81b0319161790600160a01b908490811115611676576116766150a1565b021790555050505b7f380acab0ee1d651da065961944240ee750b6935ba0edefa78afb1c8e076762868a8a83815181106116b2576116b261577d565b602002602001015133308c86815181106116ce576116ce61577d565b6020026020010151888c6040516116eb9796959493929190615793565b60405180910390a1806116fd816154dd565b9150506110aa565b506117106001600055565b505050505050505050565b6000848152600a602052604090206003015484904211801561174d57506000818152600a602052604090206004015442105b6117695760405162461bcd60e51b815260040161091b906157d7565b600085815260056020526040902060080154859062010000900460ff1615156001146117a75760405162461bcd60e51b815260040161091b906154f6565b336000908152600b602052604090205460ff16156117d75760405162461bcd60e51b815260040161091b9061554e565b6000868152600a60205260408120600601546001600160a01b0316611827576000878152600a60205260409020600201548410156118275760405162461bcd60e51b815260040161091b90615820565b6000878152600a60205260409020600501548410156118585760405162461bcd60e51b815260040161091b90615857565b600160008881526005602052604090206008015460ff166001811115611880576118806150a1565b1461189d5760405162461bcd60e51b815260040161091b906158b4565b60008781526005602052604090206006015460ff1615156001146118d35760405162461bcd60e51b815260040161091b90615652565b6011546040516323b872dd60e01b81526001600160a01b03909116906323b872dd9061190790339030908b90600401615734565b600060405180830381600087803b15801561192157600080fd5b505af1158015611935573d6000803e3d6000fd5b5050506000888152600a60205260409020600681015460058201549192506001600160a01b0316908115611a775760016006840154600160a01b900460ff166002811115611985576119856150a1565b03611a18576000611994612a1d565b61199e90836156e2565b90506119ad81620f4240615704565b60115460405163a9059cbb60e01b81529192506001600160a01b03169063a9059cbb906119e0908690859060040161571b565b600060405180830381600087803b1580156119fa57600080fd5b505af1158015611a0e573d6000803e3d6000fd5b5050505050611a77565b60006006840154600160a01b900460ff166002811115611a3a57611a3a6150a1565b03611a77576040516001600160a01b0383169082156108fc029083906000818181858888f19350505050158015611a75573d6000803e3d6000fd5b505b600583018790556006830180546001600160a01b03191633179055876002811115611aa457611aa46150a1565b60068401805460ff60a01b1916600160a01b836002811115611ac857611ac86150a1565b0217905550611ad9426102586158e7565b83600401541015611b4e5761012c836004016000828254611afa91906158e7565b9091555050600183015460048401546040517f8e1cb85d0855921b3c958b068fa707efb7db88099af764dd47f37eef82c3334d92611b45928e926001600160a01b03909216916158fa565b60405180910390a15b600183810154600685015460058601546040519397507f4307392e6f0e441e74a4982d9fa9ddc49b3cd9d3902a9d3ecab0ad3c60a0acd193611ba0938f936001600160a01b0391821693911691615758565b60405180910390a150505050505050505050565b600c6020528160005260406000208181548110611bd057600080fd5b90600052602060002001600091509150505481565b611bed614a58565b6001600160a01b03166000908152600b60205260409020805460ff19169055565b60008160ff16600303611c4957600d600060045b6004811115611c3357611c336150a1565b8152602001908152602001600020549050919050565b8160ff16600203611c5f57600d60006003611c22565b8160ff16600103611c7557600d60006002611c22565b600d600080611c22565b919050565b600085815260056020526040902060080154859062010000900460ff161515600114611cc25760405162461bcd60e51b815260040161091b906154f6565b336000908152600b602052604090205460ff1615611cf25760405162461bcd60e51b815260040161091b9061554e565b611cfa614ab2565b60008681526005602052604090206003810154336001600160a01b0390911603611d365760405162461bcd60e51b815260040161091b90615583565b6000611d4187611c0e565b90506000611d4e87611c0e565b60038401546001600160a01b03166000908152600b602052604090205490915060ff1615611d8e5760405162461bcd60e51b815260040161091b906155c8565b6000600884015460ff166001811115611da957611da96150a1565b14611dc65760405162461bcd60e51b815260040161091b9061561e565b6000898152600560209081526040808320600301546001600160a01b031683526007825280832033845290915281205460ff16611e61578360050154861015611e615760405162461bcd60e51b815260206004820152602760248201527f4e6f7420656e6f75676820616d6f756e7420746f20636f7665722061736b696e6044820152666720707269636560c81b606482015260840161091b565b6011546040516323b872dd60e01b8152600091339183916001600160a01b0316906323b872dd90611e9a90859030908f90600401615734565b600060405180830381600087803b158015611eb457600080fd5b505af1158015611ec8573d6000803e3d6000fd5b50505050600287015460038801546001600160a01b0391821691160361203b576000611ef58b8888614b0b565b9050611f01818c6156cf565b6011546004805460405163a9059cbb60e01b81529398506001600160a01b039283169363a9059cbb93611f399392169186910161571b565b600060405180830381600087803b158015611f5357600080fd5b505af1158015611f67573d6000803e3d6000fd5b505050508e600103611fe657601154600389015460405163a9059cbb60e01b81526001600160a01b039283169263a9059cbb92611fab92911690899060040161571b565b600060405180830381600087803b158015611fc557600080fd5b505af1158015611fd9573d6000803e3d6000fd5b5050505060019350612035565b6000611ff186612545565b60038a01546040519192506001600160a01b03169082156108fc029083906000818181858888f1935050505015801561202e573d6000803e3d6000fd5b5060019450505b50612227565b600061204b8b8960070154614b51565b9050612057818c6156cf565b91506000612066838989614b0b565b905061207281846156cf565b6011546004805460405163a9059cbb60e01b81529399506001600160a01b039283169363a9059cbb936120aa9392169186910161571b565b600060405180830381600087803b1580156120c457600080fd5b505af11580156120d8573d6000803e3d6000fd5b505060115460028c015460405163a9059cbb60e01b81526001600160a01b03928316945063a9059cbb93506121159290911690869060040161571b565b600060405180830381600087803b15801561212f57600080fd5b505af1158015612143573d6000803e3d6000fd5b505050508f6001036121c25760115460038a015460405163a9059cbb60e01b81526001600160a01b039283169263a9059cbb92612187929116908a9060040161571b565b600060405180830381600087803b1580156121a157600080fd5b505af11580156121b5573d6000803e3d6000fd5b5050505060019450612224565b6121cb86612545565b5060006121d6612a1d565b6121e09088615704565b60038b01546040519192506001600160a01b03169082156108fc029083906000818181858888f1935050505015801561221d573d6000803e3d6000fd5b5060019550505b50505b821561232d578e6001600160a01b03166323b872dd30848a600101546040518463ffffffff1660e01b815260040161226193929190615734565b600060405180830381600087803b15801561227b57600080fd5b505af115801561228f573d6000803e3d6000fd5b50505060018801546003890154604051600080516020615ac283398151915293506122c892916001600160a01b03169086908e90615758565b60405180910390a16004870180546001600160a01b0384166001600160a01b031991821617909155600388018054909116905560068701805460ff19169055612315600280546001019055565b60018701546000908152600660205260408120600201555b5050505050505061233e6001600055565b5050505050505050565b6000828152600560205260409020600301546001600160a01b031633146123cd5760405162461bcd60e51b815260206004820152603360248201527f4f6e6c7920746865206f776e6572206f6620616e206e66742063616e20736574604482015272103234b9b1b7bab73a32b210383934b1b2b99760691b606482015260840161091b565b60009182526006602052604090912060020155565b6123ea614a58565b6123f46000614b70565b565b336000908152600860205260408120905b81548110156108d857826001600160a01b031682828154811061242c5761242c61577d565b6000918252602090912001546001600160a01b0316036125335781548290612456906001906156cf565b815481106124665761246661577d565b9060005260206000200160009054906101000a90046001600160a01b03168282815481106124965761249661577d565b9060005260206000200160006101000a8154816001600160a01b0302191690836001600160a01b03160217905550818054806124d4576124d4615919565b600082815260209020810160001990810180546001600160a01b03191690550190556040517f89ec8e1c730740239f81b0dfce48eedca9d700bbc36fe56311fe9175c16f64ad90612526908590615074565b60405180910390a1505050565b8061253d816154dd565b915050612407565b604080516002808252606082018352600092839291906020830190803683375050600f5482519293506001600160a01b03169183915060009061258a5761258a61577d565b6001600160a01b03928316602091820292909201810191909152601054604080516315ab88c960e31b81529051919093169263ad5c46489260048083019391928290030181865afa1580156125e3573d6000803e3d6000fd5b505050506040513d601f19601f82011682018060405250810190612607919061592f565b8160018151811061261a5761261a61577d565b6001600160a01b039283166020918202929092010152601154600e5460405163095ea7b360e01b81529183169263095ea7b39261265f9290911690879060040161571b565b600060405180830381600087803b15801561267957600080fd5b505af115801561268d573d6000803e3d6000fd5b50600092506002915061269d9050565b6040519080825280602002602001820160405280156126c6578160200160208202803683370190505b5060105460405163d06ca61f60e01b81529192506001600160a01b03169063d06ca61f906126fa908790869060040161594c565b600060405180830381865afa158015612717573d6000803e3d6000fd5b505050506040513d6000823e601f3d908101601f1916820160405261273f919081019061596d565b60105481519192506001600160a01b031690634a25d94a908390600190811061276a5761276a61577d565b6020026020010151868530426040518663ffffffff1660e01b81526004016127969594939291906159f2565b6000604051808303816000875af11580156127b5573d6000803e3d6000fd5b505050506040513d6000823e601f3d908101601f191682016040526127dd919081019061596d565b50806001815181106127f1576127f161577d565b602002602001015192505050919050565b6060600061280f60035490565b9050600061281c60025490565b61282690836156cf565b90506000816001600160401b0381111561284257612842614d20565b60405190808252806020026020018201604052801561287b57816020015b612868614c17565b8152602001906001900390816128605790505b5090506000805b84811015612a135760008181526005602052604090206006015460ff1680156128c2575060008181526005602052604090206008015462010000900460ff165b15612a015760008181526005602081815260409283902083516101808101855281546001600160a01b039081168252600180840154948301949094526002830154811695820195909552600382015485166060820152600482015490941660808501529182015460a0840152600682015460ff908116151560c0850152600783015460e08501526008830154610100850192911690811115612966576129666150a1565b6001811115612977576129776150a1565b81526020016008820160019054906101000a900460ff16600281111561299f5761299f6150a1565b60028111156129b0576129b06150a1565b8152600882015462010000900460ff161515602082015260099091015460409091015283518490849081106129e7576129e761577d565b602002602001018190525081806129fd906154dd565b9250505b80612a0b816154dd565b915050612882565b5090949350505050565b60008073ee9f2375b4bdf6387aa8265dd4fb8f16512a1d4690506000816001600160a01b031663feaf968c6040518163ffffffff1660e01b815260040160a060405180830381865afa158015612a77573d6000803e3d6000fd5b505050506040513d601f19601f82011682018060405250810190612a9b9190615a48565b50505091505060008113612ae65760405162461bcd60e51b8152602060048201526012602482015271496e76616c6964205553445420707269636560701b604482015260640161091b565b92915050565b6000818152600a602052604081206003015442118015612b1c57506000828152600a602052604090206004015442105b15612b2957506001919050565b506000919050565b336000908152600b602052604090205460609060ff1615612b645760405162461bcd60e51b815260040161091b9061554e565b6001600160a01b03821660009081526008602090815260409182902080548351818402810184019094528084529091830182828015612bcc57602002820191906000526020600020905b81546001600160a01b03168152600190910190602001808311612bae575b50505050509050919050565b336000908152600b602052604090205460ff1615612c085760405162461bcd60e51b815260040161091b9061554e565b612c10614ab2565b600085815260056020526040902084612c6b5760405162461bcd60e51b815260206004820152601c60248201527f5072696365206d757374206265206174206c6561737420312077656900000000604482015260640161091b565b60048101546001600160a01b03163314612cda5760405162461bcd60e51b815260206004820152602a60248201527f4f6e6c7920746865206f776e6572206f6620616e206e66742063616e206c69736044820152693a103a34329037333a1760b11b606482015260840161091b565b6040516323b872dd60e01b81526001600160a01b038816906323b872dd90612d0a90339030908b90600401615734565b600060405180830381600087803b158015612d2457600080fd5b505af1158015612d38573d6000803e3d6000fd5b5050506003820180546001600160a01b0319908116331790915560048301805490911630179055506005810185905560068101805460ff191660019081179091558490811115612d8a57612d8a6150a1565b60088201805460ff191660018381811115612da757612da76150a1565b021790555060018403612ed257604051806101000160405280878152602001336001600160a01b031681526020018681526020018481526020018381526020016000815260200160006001600160a01b031681526020018260080160019054906101000a900460ff166002811115612e2157612e216150a1565b90526000878152600a602090815260409182902083518155908301516001820180546001600160a01b03199081166001600160a01b039384161790915592840151600280840191909155606085015160038401556080850151600484015560a0850151600584015560c085015160068401805495861691909316908117835560e086015193946001600160a81b0319161790600160a01b908490811115612eca57612eca6150a1565b021790555050505b612edc6002614bc2565b7f380acab0ee1d651da065961944240ee750b6935ba0edefa78afb1c8e07676286878733308986600901548a604051612f1b9796959493929190615793565b60405180910390a150610ece6001600055565b6000612f3983611c0e565b90506000612f4683611c0e565b6000868152600560209081526040808320600a9092528220600681015493945090929091906001600160a01b0316613091576000888152600a60205260409020600101546001600160a01b03163314612ff65760405162461bcd60e51b815260206004820152602c60248201527f4f6e6c79207468652073656c6c65722063616e20636c6f73652074686520756e60448201526b39b7b6321030bab1ba34b7b760a11b606482015260840161091b565b6003830154600480850180546001600160a01b0319166001600160a01b0393841617905560068501805460ff19169055600184810154908601546040516323b872dd60e01b81528d8516946323b872dd9461305694309492169201615734565b600060405180830381600087803b15801561307057600080fd5b505af1158015613084573d6000803e3d6000fd5b5050505060019050613770565b6000888152600a60205260409020600601546001600160a01b03163314806130d257506000888152600a60205260409020600101546001600160a01b031633145b61313f5760405162461bcd60e51b815260206004820152603860248201527f4f6e6c792074686520686967686573742062696464657220616e6420746865206044820152771cd95b1b195c8818d85b8818db185a5b481d1a194813919560421b606482015260840161091b565b6000888152600a6020526040902060040154421161319c5760405162461bcd60e51b815260206004820152601a60248201527920bab1ba34b7b7103430b9903737ba1032b73232b2103cb2ba1760311b604482015260640161091b565b600582015460009080826131ae612a1d565b6131b890846156e2565b90506131c781620f4240615704565b905060006008880154610100900460ff1660028111156131e9576131e96150a1565b036133a95760016006870154600160a01b900460ff166002811115613210576132106150a1565b0361324957600061321f612a1d565b61322990856156e2565b905061323881620f4240615704565b905061324381612545565b50839250505b600287015460038801546001600160a01b039182169116036132fd576000613272838b8b614b0b565b905061327e81846156cf565b6004546040519194506001600160a01b03169082156108fc029083906000818181858888f193505050501580156132b9573d6000803e3d6000fd5b5060038801546040516001600160a01b039091169084156108fc029085906000818181858888f193505050501580156132f6573d6000803e3d6000fd5b505061368d565b61330b828860070154614b51565b9350600061331a838b8b614b0b565b90508061332786856156cf565b61333191906156cf565b6004546040519194506001600160a01b03169082156108fc029083906000818181858888f1935050505015801561336c573d6000803e3d6000fd5b5060028801546040516001600160a01b039091169086156108fc029087906000818181858888f193505050501580156132b9573d6000803e3d6000fd5b60016008880154610100900460ff1660028111156133c9576133c96150a1565b0361368d5790508060006006870154600160a01b900460ff1660028111156133f3576133f36150a1565b0361340757613403816001613db5565b8091505b600287015460038801546001600160a01b03918216911603613517576000613430838b8b614b0b565b905061343c81846156cf565b6011546004805460405163a9059cbb60e01b81529396506001600160a01b039283169363a9059cbb936134749392169186910161571b565b600060405180830381600087803b15801561348e57600080fd5b505af11580156134a2573d6000803e3d6000fd5b505060115460038b015460405163a9059cbb60e01b81526001600160a01b03928316945063a9059cbb93506134df9290911690879060040161571b565b600060405180830381600087803b1580156134f957600080fd5b505af115801561350d573d6000803e3d6000fd5b505050505061368d565b613525828860070154614b51565b93506000613534838b8b614b0b565b90508061354186856156cf565b61354b91906156cf565b6011546004805460405163a9059cbb60e01b81529396506001600160a01b039283169363a9059cbb936135839392169186910161571b565b600060405180830381600087803b15801561359d57600080fd5b505af11580156135b1573d6000803e3d6000fd5b505060115460038b015460405163a9059cbb60e01b81526001600160a01b03928316945063a9059cbb93506135ee9290911690879060040161571b565b600060405180830381600087803b15801561360857600080fd5b505af115801561361c573d6000803e3d6000fd5b505060115460028b015460405163a9059cbb60e01b81526001600160a01b03928316945063a9059cbb93506136599290911690899060040161571b565b600060405180830381600087803b15801561367357600080fd5b505af1158015613687573d6000803e3d6000fd5b50505050505b84613710578c6001600160a01b03166323b872dd308860060160009054906101000a90046001600160a01b03168a600101546040518463ffffffff1660e01b81526004016136dd93929190615734565b600060405180830381600087803b1580156136f757600080fd5b505af115801561370b573d6000803e3d6000fd5b505050505b6006868101546004890180546001600160a01b039092166001600160a01b031992831617905560038901805490911690558701805460ff191690556002805460010190555050506001840154600090815260066020526040812060020155505b6001830154600384015460068401546005850154604051600080516020615ac2833981519152946137b19490936001600160a01b0391821693911691615758565b60405180910390a1505050505050505050565b600084815260056020526040902060080154849062010000900460ff1615156001146138025760405162461bcd60e51b815260040161091b906154f6565b336000908152600b602052604090205460ff16156138325760405162461bcd60e51b815260040161091b9061554e565b61383a614ab2565b60008581526005602052604081209061385286611c0e565b9050600061385f86611c0e565b6003840154909150336001600160a01b03909116036138905760405162461bcd60e51b815260040161091b90615583565b60038301546001600160a01b03166000908152600b602052604090205460ff16156138cd5760405162461bcd60e51b815260040161091b906155c8565b6000600884015460ff1660018111156138e8576138e86150a1565b146139055760405162461bcd60e51b815260040161091b9061561e565b600683015460ff16151560011461392e5760405162461bcd60e51b815260040161091b90615652565b6000888152600560209081526040808320600301546001600160a01b0316835260078252808320338085529252822054879060ff1661398b57856005015488101561398b5760405162461bcd60e51b815260040161091b90615689565b600286015460038701546001600160a01b03918216911603613af05760006139b4828787614b0b565b90506139c081836156cf565b6004546040519193506001600160a01b03169082156108fc029083906000818181858888f193505050501580156139fb573d6000803e3d6000fd5b508c600003613a4a5760038701546040516001600160a01b039091169083156108fc029084906000818181858888f19350505050158015613a40573d6000803e3d6000fd5b5060019350613aea565b6000613a54612a1d565b613a5e90846156e2565b9050613a6d81620f4240615704565b9050613a7a816000613db5565b601154600389015460405163a9059cbb60e01b81526001600160a01b039283169263a9059cbb92613ab292911690859060040161571b565b600060405180830381600087803b158015613acc57600080fd5b505af1158015613ae0573d6000803e3d6000fd5b5050505060019450505b50613c96565b60008190506000613b05828960070154614b51565b90506000613b14848989614b0b565b905080613b2183856156cf565b613b2b91906156cf565b6004546040519195506001600160a01b03169082156108fc029083906000818181858888f19350505050158015613b66573d6000803e3d6000fd5b5060028901546040516001600160a01b039091169083156108fc029084906000818181858888f19350505050158015613ba3573d6000803e3d6000fd5b508e600003613bf25760038901546040516001600160a01b039091169085156108fc029086906000818181858888f19350505050158015613be8573d6000803e3d6000fd5b5060019550613c92565b6000613bfc612a1d565b613c0690866156e2565b9050613c1581620f4240615704565b9050613c22816000613db5565b60115460038b015460405163a9059cbb60e01b81526001600160a01b039283169263a9059cbb92613c5a92911690859060040161571b565b600060405180830381600087803b158015613c7457600080fd5b505af1158015613c88573d6000803e3d6000fd5b5050505060019650505b5050505b8215613d9c5760018601546040516323b872dd60e01b81526001600160a01b038f16916323b872dd91613cd0913091879190600401615734565b600060405180830381600087803b158015613cea57600080fd5b505af1158015613cfe573d6000803e3d6000fd5b50505060018701546003880154604051600080516020615ac28339815191529350613d3792916001600160a01b03169086908d90615758565b60405180910390a16004860180546001600160a01b0384166001600160a01b031991821617909155600387018054909116905560068601805460ff19169055613d84600280546001019055565b60018601546000908152600660205260408120600201555b505050505050613dac6001600055565b50505050505050565b6040805160028082526060820183526000926020830190803683375050601054604080516315ab88c960e31b815290519394506001600160a01b039091169263ad5c4648925060048083019260209291908290030181865afa158015613e1f573d6000803e3d6000fd5b505050506040513d601f19601f82011682018060405250810190613e43919061592f565b81600081518110613e5657613e5661577d565b6001600160a01b039283166020918202929092010152600f54825191169082906001908110613e8757613e8761577d565b6001600160a01b03929092166020928302919091018201526040805160028082526060820183526000939192909183019080368337505060105460405163d06ca61f60e01b81529293506001600160a01b03169163d06ca61f9150613ef2908790869060040161594c565b600060405180830381865afa158015613f0f573d6000803e3d6000fd5b505050506040513d6000823e601f3d908101601f19168201604052613f37919081019061596d565b905082600003613fe45760105481516001600160a01b0390911690637ff36ab590349084906001908110613f6d57613f6d61577d565b60200260200101518530426040518663ffffffff1660e01b8152600401613f979493929190615a8c565b60006040518083038185885af1158015613fb5573d6000803e3d6000fd5b50505050506040513d6000823e601f3d908101601f19168201604052613fde919081019061596d565b506140a5565b6000613fee612a1d565b613ff89086615704565b9050614007620f4240826156e2565b60105483519192506001600160a01b031690637ff36ab5908390859060019081106140345761403461577d565b60200260200101518630426040518663ffffffff1660e01b815260040161405e9493929190615a8c565b60006040518083038185885af115801561407c573d6000803e3d6000fd5b50505050506040513d6000823e601f3d908101601f19168201604052610ece919081019061596d565b50505050565b600860205281600052604060002081815481106140c757600080fd5b6000918252602090912001546001600160a01b03169150829050565b60006140ed614a58565b6000805b845181101561431d5784818151811061410c5761410c61577d565b602090810291909101810151600081815260059092526040909120600801805462ff000019166201000087158015918202929092179092559193506141765750600160008381526005602052604090206008015460ff166001811115614174576141746150a1565b145b156142d1576000828152600a6020526040902060068101546001600160a01b0316156142cf57600681015460058201546001600160a01b039091169081156142cc5760016006840154600160a01b900460ff1660028111156141da576141da6150a1565b0361426d5760006141e9612a1d565b6141f390836156e2565b905061420281620f4240615704565b60115460405163a9059cbb60e01b81529192506001600160a01b03169063a9059cbb90614235908690859060040161571b565b600060405180830381600087803b15801561424f57600080fd5b505af1158015614263573d6000803e3d6000fd5b50505050506142cc565b60006006840154600160a01b900460ff16600281111561428f5761428f6150a1565b036142cc576040516001600160a01b0383169082156108fc029083906000818181858888f193505050501580156142ca573d6000803e3d6000fd5b505b50505b505b6040805183815285151560208201527f6ffa1c2dfe558962660d78387d612607ef3f19ee482f7d51a12634d131e8db6e910160405180910390a180614315816154dd565b9150506140f1565b50919392505050565b60096020528160005260406000208181548110611bd057600080fd5b61434a614a58565b6001600160a01b0381166143af5760405162461bcd60e51b815260206004820152602660248201527f4f776e61626c653a206e6577206f776e657220697320746865207a65726f206160448201526564647265737360d01b606482015260840161091b565b6143b881614b70565b50565b6000828152600a60205260409020600301548290421180156143ed57506000818152600a602052604090206004015442105b6144095760405162461bcd60e51b815260040161091b906157d7565b600083815260056020526040902060080154839062010000900460ff1615156001146144475760405162461bcd60e51b815260040161091b906154f6565b336000908152600b602052604090205460ff16156144775760405162461bcd60e51b815260040161091b9061554e565b6000848152600a60205260408120600601546001600160a01b03166144c7576000858152600a60205260409020600201543410156144c75760405162461bcd60e51b815260040161091b90615820565b6000858152600a602052604090206005015434116144f75760405162461bcd60e51b815260040161091b90615857565b600160008681526005602052604090206008015460ff16600181111561451f5761451f6150a1565b1461453c5760405162461bcd60e51b815260040161091b906158b4565b60008581526005602052604090206006015460ff1615156001146145725760405162461bcd60e51b815260040161091b90615652565b6000858152600a60205260409020600681015460058201546001600160a01b039091169081156146b05760016006840154600160a01b900460ff1660028111156145be576145be6150a1565b036146515760006145cd612a1d565b6145d790836156e2565b90506145e681620f4240615704565b60115460405163a9059cbb60e01b81529192506001600160a01b03169063a9059cbb90614619908690859060040161571b565b600060405180830381600087803b15801561463357600080fd5b505af1158015614647573d6000803e3d6000fd5b50505050506146b0565b60006006840154600160a01b900460ff166002811115614673576146736150a1565b036146b0576040516001600160a01b0383169082156108fc029083906000818181858888f193505050501580156146ae573d6000803e3d6000fd5b505b3460058401556006830180546001600160a01b031916331790558660028111156146dc576146dc6150a1565b60068401805460ff60a01b1916600160a01b836002811115614700576147006150a1565b0217905550614711426102586158e7565b836004015410156147865761012c83600401600082825461473291906158e7565b9091555050600183015460048401546040517f8e1cb85d0855921b3c958b068fa707efb7db88099af764dd47f37eef82c3334d9261477d928c926001600160a01b03909216916158fa565b60405180910390a15b600183810154600685015460058601546040519397507f4307392e6f0e441e74a4982d9fa9ddc49b3cd9d3902a9d3ecab0ad3c60a0acd1936147d8938d936001600160a01b0391821693911691615758565b60405180910390a15050505050505050565b336000908152600b602052604090205460609060ff161561481d5760405162461bcd60e51b815260040161091b9061554e565b600061482860035490565b90506000805b8281101561487a576000818152600560205260409020600401546001600160a01b038087169116036148685781614864816154dd565b9250505b80614872816154dd565b91505061482e565b506000816001600160401b0381111561489557614895614d20565b6040519080825280602002602001820160405280156148ce57816020015b6148bb614c17565b8152602001906001900390816148b35790505b5090506000805b84811015614a4d576000818152600560205260409020600401546001600160a01b03808916911603614a3b5760008181526005602081815260409283902083516101808101855281546001600160a01b039081168252600180840154948301949094526002830154811695820195909552600382015485166060820152600482015490941660808501529182015460a0840152600682015460ff908116151560c0850152600783015460e085015260088301546101008501929116908111156149a0576149a06150a1565b60018111156149b1576149b16150a1565b81526020016008820160019054906101000a900460ff1660028111156149d9576149d96150a1565b60028111156149ea576149ea6150a1565b8152600882015462010000900460ff16151560208201526009909101546040909101528351849084908110614a2157614a2161577d565b60200260200101819052508180614a37906154dd565b9250505b80614a45816154dd565b9150506148d5565b509095945050505050565b6001546001600160a01b031633146123f45760405162461bcd60e51b815260206004820181905260248201527f4f776e61626c653a2063616c6c6572206973206e6f7420746865206f776e6572604482015260640161091b565b600260005403614b045760405162461bcd60e51b815260206004820152601f60248201527f5265656e7472616e637947756172643a207265656e7472616e742063616c6c00604482015260640161091b565b6002600055565b600080612710614b1b8587615704565b614b2591906156e2565b9050612710614b348487615704565b614b3e91906156e2565b614b4890826158e7565b95945050505050565b60006064614b5f8385615704565b614b6991906156e2565b9392505050565b600180546001600160a01b038381166001600160a01b0319831681179093556040519116919082907f8be0079c531659141344cd1fd0a4f28419497f9722a3daafe3b4186f6b6457e090600090a35050565b805480614c0f5760405162461bcd60e51b815260206004820152601b60248201527a436f756e7465723a2064656372656d656e74206f766572666c6f7760281b604482015260640161091b565b600019019055565b6040805161018081018252600080825260208201819052918101829052606081018290526080810182905260a0810182905260c0810182905260e081018290529061010082019081526020016000815260006020820181905260409091015290565b6001600160a01b03811681146143b857600080fd5b8035611c7f81614c79565b600060208284031215614cab57600080fd5b8135614b6981614c79565b803560ff81168114611c7f57600080fd5b600080600080600060a08688031215614cdf57600080fd5b8535614cea81614c79565b94506020860135935060408601359250614d0660608701614cb6565b9150614d1460808701614cb6565b90509295509295909350565b634e487b7160e01b600052604160045260246000fd5b604051601f8201601f191681016001600160401b0381118282101715614d5e57614d5e614d20565b604052919050565b60006001600160401b03821115614d7f57614d7f614d20565b5060051b60200190565b60006020808385031215614d9c57600080fd5b82356001600160401b03811115614db257600080fd5b8301601f81018513614dc357600080fd5b8035614dd6614dd182614d66565b614d36565b81815260059190911b82018301908381019087831115614df557600080fd5b928401925b82841015614e1c578335614e0d81614c79565b82529284019290840190614dfa565b979650505050505050565b600082601f830112614e3857600080fd5b81356020614e48614dd183614d66565b82815260059290921b84018101918181019086841115614e6757600080fd5b8286015b84811015614e825780358352918301918301614e6b565b509695505050505050565b60008060008060008060008060006101208a8c031215614eac57600080fd5b614eb58a614c8e565b985060208a01356001600160401b0380821115614ed157600080fd5b614edd8d838e01614e27565b995060408c0135915080821115614ef357600080fd5b614eff8d838e01614e27565b985060608c0135915080821115614f1557600080fd5b614f218d838e01614e27565b975060808c0135965060a08c0135915080821115614f3e57600080fd5b614f4a8d838e01614e27565b955060c08c0135915080821115614f6057600080fd5b50614f6d8c828d01614e27565b93505060e08a013591506101008a013590509295985092959850929598565b60008060008060808587031215614fa257600080fd5b5050823594602084013594506040840135936060013592509050565b60008060408385031215614fd157600080fd5b50508035926020909101359150565b600060208284031215614ff257600080fd5b614b6982614cb6565b600080600080600080600060e0888a03121561501657600080fd5b873561502181614c79565b9650602088013595506040880135945061503d60608901614cb6565b935061504b60808901614cb6565b925060a0880135915060c0880135905092959891949750929550565b6001600160a01b03169052565b6001600160a01b0391909116815260200190565b60006020828403121561509a57600080fd5b5035919050565b634e487b7160e01b600052602160045260246000fd5b600281106150c7576150c76150a1565b9052565b600381106150c7576150c76150a1565b602080825282518282018190526000919060409081850190868401855b828110156151c357815161510d858251615067565b86810151878601528581015161512587870182615067565b5060608082015161513882880182615067565b505060808082015161514c82880182615067565b505060a0818101519086015260c08082015115159086015260e0808201519086015261010080820151615181828801826150b7565b505061012080820151615196828801826150cb565b505061014081810151151590860152610160908101519085015261018090930192908501906001016150f8565b5091979650505050505050565b600081518084526020808501945080840160005b838110156152095781516001600160a01b0316875295820195908201906001016151e4565b509495945050505050565b602081526000614b6960208301846151d0565b60008060008060008060c0878903121561524057600080fd5b863561524b81614c79565b9860208801359850604088013597606081013597506080810135965060a00135945092505050565b60006020828403121561528557600080fd5b813560058110614b6957600080fd5b600080600080608085870312156152aa57600080fd5b84356152b581614c79565b9350602085013592506152ca60408601614cb6565b91506152d860608601614cb6565b905092959194509250565b60008060008060008060c087890312156152fc57600080fd5b863561530781614c79565b9550602087013594506040870135935061532360608801614cb6565b925061533160808801614cb6565b915060a087013590509295509295509295565b8881526001600160a01b03888116602083015260408201889052606082018790526080820186905260a08201859052831660c0820152610100810161538c60e08301846150cb565b9998505050505050505050565b6001600160a01b038d81168252602082018d90528b811660408301528a811660608301528916608082015260a0810188905286151560c082015260e0810186905261018081016153ed6101008301876150b7565b6153fb6101208301866150cb565b92151561014082015261016001529a9950505050505050505050565b6000806040838503121561542a57600080fd5b823561543581614c79565b946020939093013593505050565b6000806040838503121561545657600080fd5b82356001600160401b0381111561546c57600080fd5b61547885828601614e27565b9250506020830135801515811461548e57600080fd5b809150509250929050565b600080604083850312156154ac57600080fd5b82356154b781614c79565b9150602083013561548e81614c79565b634e487b7160e01b600052601160045260246000fd5b6000600182016154ef576154ef6154c7565b5060010190565b60208082526038908201527f54686973204e4654206973206e6f7420617070726f766564207965742066726f6040820152776d207468652061646d696e20666f7220707572636861736560401b606082015260800190565b6020808252818101527f596f75206172652062616e6e6564206f6e207468697320706c6174666f726d2e604082015260600190565b60208082526025908201527f416e206f776e65722063616e6e6f7420707572636861736520697473206f776e6040820152641027232a1760d91b606082015260800190565b60208082526036908201527f546865206f776e6572206f662074686973206e667420697320626c61636b6c6960408201527539ba32b21037b7103a3434b990383630ba3337b9369760511b606082015260800190565b6020808252601a90820152792a3434b99027232a1034b9903737ba1030ba1030bab1ba34b7b760311b604082015260600190565b6020808252601d908201527f4e6674206973206e6f74206c697374656420746f207075726368617365000000604082015260600190565b60208082526026908201527f4e6f7420656e6f75676820657468657220746f20636f7665722061736b696e6760408201526520707269636560d01b606082015260800190565b81810381811115612ae657612ae66154c7565b6000826156ff57634e487b7160e01b600052601260045260246000fd5b500490565b8082028115828204841417612ae657612ae66154c7565b6001600160a01b03929092168252602082015260400190565b6001600160a01b039384168152919092166020820152604081019190915260600190565b9384526001600160a01b03928316602085015291166040830152606082015260800190565b634e487b7160e01b600052603260045260246000fd5b6001600160a01b03978816815260208101969096529386166040860152919094166060840152608083019390935260a082019290925260c081019190915260e00190565b60208082526029908201527f54686973204e4654206973206e6f74206f6e2061756374696f6e206174207468604082015268329036b7b6b2b73a1760b91b606082015260800190565b6020808252601c908201527f4d696e696d756d206269642068617320746f2062652068696768657200000000604082015260600190565b6020808252603c908201527f596f75206861766520746f2062696420686967686572207468616e207468652060408201527f686967686573742062696420746f206d616b6520616e206f6666657200000000606082015260800190565b6020808252601990820152782a3434b99027232a1034b99030ba1030ba1030bab1ba34b7b760391b604082015260600190565b80820180821115612ae657612ae66154c7565b9283526001600160a01b03919091166020830152604082015260600190565b634e487b7160e01b600052603160045260246000fd5b60006020828403121561594157600080fd5b8151614b6981614c79565b82815260406020820152600061596560408301846151d0565b949350505050565b6000602080838503121561598057600080fd5b82516001600160401b0381111561599657600080fd5b8301601f810185136159a757600080fd5b80516159b5614dd182614d66565b81815260059190911b820183019083810190878311156159d457600080fd5b928401925b82841015614e1c578351825292840192908401906159d9565b85815284602082015260a060408201526000615a1160a08301866151d0565b6001600160a01b0394909416606083015250608001529392505050565b805169ffffffffffffffffffff81168114611c7f57600080fd5b600080600080600060a08688031215615a6057600080fd5b615a6986615a2e565b9450602086015193506040860151925060608601519150614d1460808701615a2e565b848152608060208201526000615aa560808301866151d0565b6001600160a01b0394909416604083015250606001529291505056fe8562eb94748e30bb0071e932744ce902b460c683474fcb3bfd567ffa16b1afb2a26469706673582212209ff48eecab00289f49e3c32d7a0276b7952cc7941ab3fbc586413999cfdafdc464736f6c63430008130033",
  "linkReferences": {},
  "deployedLinkReferences": {}
}