{
  "_format": "hh-sol-artifact-1",
  "contractName": "ArtiziaMarketplace",
  "sourceName": "contracts/ArtiziaMarketplace.sol",
  "abi": [
    {
      "inputs": [
        {
          "internalType": "address",
          "name": "_token",
          "type": "address"
        }
      ],
      "stateMutability": "nonpayable",
      "type": "constructor"
    },
    {
      "inputs": [],
      "name": "invalidListingType",
      "type": "error"
    },
    {
      "inputs": [],
      "name": "invalidPrice",
      "type": "error"
    },
    {
      "anonymous": false,
      "inputs": [
        {
          "indexed": false,
          "internalType": "address",
          "name": "nftContract",
          "type": "address"
        },
        {
          "indexed": false,
          "internalType": "uint256",
          "name": "tokenId",
          "type": "uint256"
        },
        {
          "indexed": false,
          "internalType": "address",
          "name": "seller",
          "type": "address"
        },
        {
          "indexed": false,
          "internalType": "address",
          "name": "owner",
          "type": "address"
        },
        {
          "indexed": false,
          "internalType": "uint256",
          "name": "price",
          "type": "uint256"
        },
        {
          "indexed": false,
          "internalType": "uint256",
          "name": "collectionId",
          "type": "uint256"
        }
      ],
      "name": "NFTListed",
      "type": "event"
    },
    {
      "anonymous": false,
      "inputs": [
        {
          "indexed": false,
          "internalType": "address",
          "name": "nftContract",
          "type": "address"
        },
        {
          "indexed": false,
          "internalType": "uint256",
          "name": "tokenId",
          "type": "uint256"
        },
        {
          "indexed": false,
          "internalType": "address",
          "name": "seller",
          "type": "address"
        },
        {
          "indexed": false,
          "internalType": "address",
          "name": "buyer",
          "type": "address"
        },
        {
          "indexed": false,
          "internalType": "uint256",
          "name": "price",
          "type": "uint256"
        }
      ],
      "name": "NFTSold",
      "type": "event"
    },
    {
      "anonymous": false,
      "inputs": [
        {
          "indexed": true,
          "internalType": "address",
          "name": "previousOwner",
          "type": "address"
        },
        {
          "indexed": true,
          "internalType": "address",
          "name": "newOwner",
          "type": "address"
        }
      ],
      "name": "OwnershipTransferred",
      "type": "event"
    },
    {
      "anonymous": false,
      "inputs": [
        {
          "indexed": false,
          "internalType": "address[]",
          "name": "fans",
          "type": "address[]"
        }
      ],
      "name": "addedFans",
      "type": "event"
    },
    {
      "anonymous": false,
      "inputs": [
        {
          "indexed": false,
          "internalType": "uint256",
          "name": "tokenId",
          "type": "uint256"
        },
        {
          "indexed": false,
          "internalType": "address",
          "name": "seller",
          "type": "address"
        },
        {
          "indexed": false,
          "internalType": "uint256",
          "name": "newTime",
          "type": "uint256"
        }
      ],
      "name": "auctionEndTimeIncreased",
      "type": "event"
    },
    {
      "anonymous": false,
      "inputs": [
        {
          "indexed": false,
          "internalType": "uint256",
          "name": "tokenId",
          "type": "uint256"
        },
        {
          "indexed": false,
          "internalType": "address",
          "name": "seller",
          "type": "address"
        },
        {
          "indexed": false,
          "internalType": "address",
          "name": "highestBidder",
          "type": "address"
        },
        {
          "indexed": false,
          "internalType": "uint256",
          "name": "highestBid",
          "type": "uint256"
        }
      ],
      "name": "receivedABid",
      "type": "event"
    },
    {
      "stateMutability": "payable",
      "type": "fallback"
    },
    {
      "inputs": [],
      "name": "UNISWAP_ROUTER_ADDRESS",
      "outputs": [
        {
          "internalType": "address",
          "name": "",
          "type": "address"
        }
      ],
      "stateMutability": "view",
      "type": "function"
    },
    {
      "inputs": [],
      "name": "USDT_ADDRESS",
      "outputs": [
        {
          "internalType": "address",
          "name": "",
          "type": "address"
        }
      ],
      "stateMutability": "view",
      "type": "function"
    },
    {
      "inputs": [
        {
          "internalType": "uint256",
          "name": "",
          "type": "uint256"
        }
      ],
      "name": "_idToAuction",
      "outputs": [
        {
          "internalType": "uint256",
          "name": "tokenId",
          "type": "uint256"
        },
        {
          "internalType": "address payable",
          "name": "seller",
          "type": "address"
        },
        {
          "internalType": "uint256",
          "name": "basePrice",
          "type": "uint256"
        },
        {
          "internalType": "uint256",
          "name": "startTime",
          "type": "uint256"
        },
        {
          "internalType": "uint256",
          "name": "endTime",
          "type": "uint256"
        },
        {
          "internalType": "uint256",
          "name": "highestBid",
          "type": "uint256"
        },
        {
          "internalType": "address payable",
          "name": "highestBidder",
          "type": "address"
        },
        {
          "internalType": "enum ArtiziaMarketplace.PaymentMethod",
          "name": "highestBidCurrency",
          "type": "uint8"
        }
      ],
      "stateMutability": "view",
      "type": "function"
    },
    {
      "inputs": [
        {
          "internalType": "uint256",
          "name": "",
          "type": "uint256"
        }
      ],
      "name": "_idToNFT",
      "outputs": [
        {
          "internalType": "address",
          "name": "nftContract",
          "type": "address"
        },
        {
          "internalType": "uint256",
          "name": "tokenId",
          "type": "uint256"
        },
        {
          "internalType": "address payable",
          "name": "firstOwner",
          "type": "address"
        },
        {
          "internalType": "address payable",
          "name": "seller",
          "type": "address"
        },
        {
          "internalType": "address payable",
          "name": "owner",
          "type": "address"
        },
        {
          "internalType": "uint256",
          "name": "price",
          "type": "uint256"
        },
        {
          "internalType": "bool",
          "name": "listed",
          "type": "bool"
        },
        {
          "internalType": "uint256",
          "name": "royaltyPrice",
          "type": "uint256"
        },
        {
          "internalType": "enum ArtiziaMarketplace.ListingType",
          "name": "listingType",
          "type": "uint8"
        },
        {
          "internalType": "enum ArtiziaMarketplace.PaymentMethod",
          "name": "paymentMethod",
          "type": "uint8"
        },
        {
          "internalType": "bool",
          "name": "approve",
          "type": "bool"
        },
        {
          "internalType": "uint256",
          "name": "collectionId",
          "type": "uint256"
        }
      ],
      "stateMutability": "view",
      "type": "function"
    },
    {
      "inputs": [
        {
          "internalType": "uint256",
          "name": "",
          "type": "uint256"
        }
      ],
      "name": "_idToNFT2",
      "outputs": [
        {
          "internalType": "uint256",
          "name": "tokenId",
          "type": "uint256"
        },
        {
          "internalType": "bool",
          "name": "onlyFans",
          "type": "bool"
        },
        {
          "internalType": "uint256",
          "name": "fanDiscountPercent",
          "type": "uint256"
        }
      ],
      "stateMutability": "view",
      "type": "function"
    },
    {
      "inputs": [],
      "name": "_nftCount",
      "outputs": [
        {
          "internalType": "uint256",
          "name": "_value",
          "type": "uint256"
        }
      ],
      "stateMutability": "view",
      "type": "function"
    },
    {
      "inputs": [],
      "name": "_nftsSold",
      "outputs": [
        {
          "internalType": "uint256",
          "name": "_value",
          "type": "uint256"
        }
      ],
      "stateMutability": "view",
      "type": "function"
    },
    {
      "inputs": [
        {
          "internalType": "address[]",
          "name": "fans",
          "type": "address[]"
        }
      ],
      "name": "addFans",
      "outputs": [],
      "stateMutability": "nonpayable",
      "type": "function"
    },
    {
      "inputs": [
        {
          "internalType": "uint256[]",
          "name": "_tokenId",
          "type": "uint256[]"
        },
        {
          "internalType": "bool",
          "name": "_decision",
          "type": "bool"
        }
      ],
      "name": "approveNfts",
      "outputs": [
        {
          "internalType": "bool",
          "name": "",
          "type": "bool"
        }
      ],
      "stateMutability": "nonpayable",
      "type": "function"
    },
    {
      "inputs": [
        {
          "internalType": "address",
          "name": "_user",
          "type": "address"
        }
      ],
      "name": "banUser",
      "outputs": [],
      "stateMutability": "nonpayable",
      "type": "function"
    },
    {
      "inputs": [
        {
          "internalType": "address",
          "name": "",
          "type": "address"
        }
      ],
      "name": "bannedUsers",
      "outputs": [
        {
          "internalType": "bool",
          "name": "",
          "type": "bool"
        }
      ],
      "stateMutability": "view",
      "type": "function"
    },
    {
      "inputs": [
        {
          "internalType": "uint256",
          "name": "_tokenId",
          "type": "uint256"
        },
        {
          "internalType": "uint256",
          "name": "_bidCurrency",
          "type": "uint256"
        }
      ],
      "name": "bidInETH",
      "outputs": [],
      "stateMutability": "payable",
      "type": "function"
    },
    {
      "inputs": [
        {
          "internalType": "uint256",
          "name": "_tokenId",
          "type": "uint256"
        },
        {
          "internalType": "uint256",
          "name": "_amount",
          "type": "uint256"
        },
        {
          "internalType": "uint256",
          "name": "_bidCurrency",
          "type": "uint256"
        }
      ],
      "name": "bidInUSDT",
      "outputs": [],
      "stateMutability": "payable",
      "type": "function"
    },
    {
      "inputs": [
        {
          "internalType": "address",
          "name": "_nftContract",
          "type": "address"
        },
        {
          "internalType": "uint256",
          "name": "_paymentMethod",
          "type": "uint256"
        },
        {
          "internalType": "uint256",
          "name": "_tokenId",
          "type": "uint256"
        },
        {
          "internalType": "uint256",
          "name": "_sellerPercent",
          "type": "uint256"
        },
        {
          "internalType": "uint256",
          "name": "_buyerPercent",
          "type": "uint256"
        }
      ],
      "name": "buyWithETH",
      "outputs": [],
      "stateMutability": "payable",
      "type": "function"
    },
    {
      "inputs": [
        {
          "internalType": "address",
          "name": "_nftContract",
          "type": "address"
        },
        {
          "internalType": "uint256",
          "name": "_paymentMethod",
          "type": "uint256"
        },
        {
          "internalType": "uint256",
          "name": "_tokenId",
          "type": "uint256"
        },
        {
          "internalType": "uint256",
          "name": "_amount",
          "type": "uint256"
        },
        {
          "internalType": "uint256",
          "name": "_sellerPercent",
          "type": "uint256"
        },
        {
          "internalType": "uint256",
          "name": "_buyerPercent",
          "type": "uint256"
        }
      ],
      "name": "buyWithUSDT",
      "outputs": [],
      "stateMutability": "payable",
      "type": "function"
    },
    {
      "inputs": [
        {
          "internalType": "uint256",
          "name": "_tokenId",
          "type": "uint256"
        },
        {
          "internalType": "uint256",
          "name": "_newDiscountPercent",
          "type": "uint256"
        }
      ],
      "name": "changeFanDiscountPercent",
      "outputs": [],
      "stateMutability": "nonpayable",
      "type": "function"
    },
    {
      "inputs": [],
      "name": "checkBannedOrDeletedUser",
      "outputs": [
        {
          "internalType": "bool",
          "name": "",
          "type": "bool"
        }
      ],
      "stateMutability": "view",
      "type": "function"
    },
    {
      "inputs": [
        {
          "internalType": "address",
          "name": "_nftContract",
          "type": "address"
        },
        {
          "internalType": "uint256",
          "name": "_tokenId",
          "type": "uint256"
        },
        {
          "internalType": "uint256",
          "name": "_sellerPercent",
          "type": "uint256"
        },
        {
          "internalType": "uint256",
          "name": "_buyerPercent",
          "type": "uint256"
        }
      ],
      "name": "closeAuction",
      "outputs": [],
      "stateMutability": "payable",
      "type": "function"
    },
    {
      "inputs": [
        {
          "internalType": "uint256",
          "name": "",
          "type": "uint256"
        },
        {
          "internalType": "uint256",
          "name": "",
          "type": "uint256"
        }
      ],
      "name": "collection",
      "outputs": [
        {
          "internalType": "uint256",
          "name": "",
          "type": "uint256"
        }
      ],
      "stateMutability": "view",
      "type": "function"
    },
    {
      "inputs": [
        {
          "internalType": "address",
          "name": "_user",
          "type": "address"
        }
      ],
      "name": "deleteUser",
      "outputs": [],
      "stateMutability": "nonpayable",
      "type": "function"
    },
    {
      "inputs": [
        {
          "internalType": "address",
          "name": "",
          "type": "address"
        }
      ],
      "name": "deletedUsers",
      "outputs": [
        {
          "internalType": "bool",
          "name": "",
          "type": "bool"
        }
      ],
      "stateMutability": "view",
      "type": "function"
    },
    {
      "inputs": [
        {
          "internalType": "address",
          "name": "",
          "type": "address"
        },
        {
          "internalType": "uint256",
          "name": "",
          "type": "uint256"
        }
      ],
      "name": "fanLists",
      "outputs": [
        {
          "internalType": "address",
          "name": "",
          "type": "address"
        }
      ],
      "stateMutability": "view",
      "type": "function"
    },
    {
      "inputs": [
        {
          "internalType": "uint256",
          "name": "_collectionId",
          "type": "uint256"
        }
      ],
      "name": "getCollectionNfts",
      "outputs": [
        {
          "components": [
            {
              "internalType": "address",
              "name": "nftContract",
              "type": "address"
            },
            {
              "internalType": "uint256",
              "name": "tokenId",
              "type": "uint256"
            },
            {
              "internalType": "address payable",
              "name": "firstOwner",
              "type": "address"
            },
            {
              "internalType": "address payable",
              "name": "seller",
              "type": "address"
            },
            {
              "internalType": "address payable",
              "name": "owner",
              "type": "address"
            },
            {
              "internalType": "uint256",
              "name": "price",
              "type": "uint256"
            },
            {
              "internalType": "bool",
              "name": "listed",
              "type": "bool"
            },
            {
              "internalType": "uint256",
              "name": "royaltyPrice",
              "type": "uint256"
            },
            {
              "internalType": "enum ArtiziaMarketplace.ListingType",
              "name": "listingType",
              "type": "uint8"
            },
            {
              "internalType": "enum ArtiziaMarketplace.PaymentMethod",
              "name": "paymentMethod",
              "type": "uint8"
            },
            {
              "internalType": "bool",
              "name": "approve",
              "type": "bool"
            },
            {
              "internalType": "uint256",
              "name": "collectionId",
              "type": "uint256"
            }
          ],
          "internalType": "struct ArtiziaMarketplace.NFT[]",
          "name": "",
          "type": "tuple[]"
        }
      ],
      "stateMutability": "view",
      "type": "function"
    },
    {
      "inputs": [],
      "name": "getContractBalance",
      "outputs": [
        {
          "internalType": "uint256",
          "name": "",
          "type": "uint256"
        }
      ],
      "stateMutability": "view",
      "type": "function"
    },
    {
      "inputs": [],
      "name": "getFans",
      "outputs": [
        {
          "internalType": "address[]",
          "name": "",
          "type": "address[]"
        }
      ],
      "stateMutability": "view",
      "type": "function"
    },
    {
      "inputs": [
        {
          "internalType": "uint256",
          "name": "_tokenId",
          "type": "uint256"
        }
      ],
      "name": "getHighestBid",
      "outputs": [
        {
          "internalType": "uint256",
          "name": "",
          "type": "uint256"
        }
      ],
      "stateMutability": "view",
      "type": "function"
    },
    {
      "inputs": [],
      "name": "getLatestUSDTPrice",
      "outputs": [
        {
          "internalType": "uint256",
          "name": "",
          "type": "uint256"
        }
      ],
      "stateMutability": "view",
      "type": "function"
    },
    {
      "inputs": [],
      "name": "getListedNfts",
      "outputs": [
        {
          "components": [
            {
              "internalType": "address",
              "name": "nftContract",
              "type": "address"
            },
            {
              "internalType": "uint256",
              "name": "tokenId",
              "type": "uint256"
            },
            {
              "internalType": "address payable",
              "name": "firstOwner",
              "type": "address"
            },
            {
              "internalType": "address payable",
              "name": "seller",
              "type": "address"
            },
            {
              "internalType": "address payable",
              "name": "owner",
              "type": "address"
            },
            {
              "internalType": "uint256",
              "name": "price",
              "type": "uint256"
            },
            {
              "internalType": "bool",
              "name": "listed",
              "type": "bool"
            },
            {
              "internalType": "uint256",
              "name": "royaltyPrice",
              "type": "uint256"
            },
            {
              "internalType": "enum ArtiziaMarketplace.ListingType",
              "name": "listingType",
              "type": "uint8"
            },
            {
              "internalType": "enum ArtiziaMarketplace.PaymentMethod",
              "name": "paymentMethod",
              "type": "uint8"
            },
            {
              "internalType": "bool",
              "name": "approve",
              "type": "bool"
            },
            {
              "internalType": "uint256",
              "name": "collectionId",
              "type": "uint256"
            }
          ],
          "internalType": "struct ArtiziaMarketplace.NFT[]",
          "name": "",
          "type": "tuple[]"
        }
      ],
      "stateMutability": "view",
      "type": "function"
    },
    {
      "inputs": [
        {
          "internalType": "address",
          "name": "_user",
          "type": "address"
        }
      ],
      "name": "getMyListedNfts",
      "outputs": [
        {
          "components": [
            {
              "internalType": "address",
              "name": "nftContract",
              "type": "address"
            },
            {
              "internalType": "uint256",
              "name": "tokenId",
              "type": "uint256"
            },
            {
              "internalType": "address payable",
              "name": "firstOwner",
              "type": "address"
            },
            {
              "internalType": "address payable",
              "name": "seller",
              "type": "address"
            },
            {
              "internalType": "address payable",
              "name": "owner",
              "type": "address"
            },
            {
              "internalType": "uint256",
              "name": "price",
              "type": "uint256"
            },
            {
              "internalType": "bool",
              "name": "listed",
              "type": "bool"
            },
            {
              "internalType": "uint256",
              "name": "royaltyPrice",
              "type": "uint256"
            },
            {
              "internalType": "enum ArtiziaMarketplace.ListingType",
              "name": "listingType",
              "type": "uint8"
            },
            {
              "internalType": "enum ArtiziaMarketplace.PaymentMethod",
              "name": "paymentMethod",
              "type": "uint8"
            },
            {
              "internalType": "bool",
              "name": "approve",
              "type": "bool"
            },
            {
              "internalType": "uint256",
              "name": "collectionId",
              "type": "uint256"
            }
          ],
          "internalType": "struct ArtiziaMarketplace.NFT[]",
          "name": "",
          "type": "tuple[]"
        }
      ],
      "stateMutability": "view",
      "type": "function"
    },
    {
      "inputs": [
        {
          "internalType": "address",
          "name": "_user",
          "type": "address"
        }
      ],
      "name": "getMyNfts",
      "outputs": [
        {
          "components": [
            {
              "internalType": "address",
              "name": "nftContract",
              "type": "address"
            },
            {
              "internalType": "uint256",
              "name": "tokenId",
              "type": "uint256"
            },
            {
              "internalType": "address payable",
              "name": "firstOwner",
              "type": "address"
            },
            {
              "internalType": "address payable",
              "name": "seller",
              "type": "address"
            },
            {
              "internalType": "address payable",
              "name": "owner",
              "type": "address"
            },
            {
              "internalType": "uint256",
              "name": "price",
              "type": "uint256"
            },
            {
              "internalType": "bool",
              "name": "listed",
              "type": "bool"
            },
            {
              "internalType": "uint256",
              "name": "royaltyPrice",
              "type": "uint256"
            },
            {
              "internalType": "enum ArtiziaMarketplace.ListingType",
              "name": "listingType",
              "type": "uint8"
            },
            {
              "internalType": "enum ArtiziaMarketplace.PaymentMethod",
              "name": "paymentMethod",
              "type": "uint8"
            },
            {
              "internalType": "bool",
              "name": "approve",
              "type": "bool"
            },
            {
              "internalType": "uint256",
              "name": "collectionId",
              "type": "uint256"
            }
          ],
          "internalType": "struct ArtiziaMarketplace.NFT[]",
          "name": "",
          "type": "tuple[]"
        }
      ],
      "stateMutability": "view",
      "type": "function"
    },
    {
      "inputs": [
        {
          "internalType": "uint256",
          "name": "_tokenId",
          "type": "uint256"
        }
      ],
      "name": "getNftApprovalStatus",
      "outputs": [
        {
          "internalType": "bool",
          "name": "",
          "type": "bool"
        }
      ],
      "stateMutability": "view",
      "type": "function"
    },
    {
      "inputs": [
        {
          "internalType": "uint256",
          "name": "_tokenId",
          "type": "uint256"
        }
      ],
      "name": "getStatusOfAuction",
      "outputs": [
        {
          "internalType": "bool",
          "name": "",
          "type": "bool"
        }
      ],
      "stateMutability": "view",
      "type": "function"
    },
    {
      "inputs": [
        {
          "internalType": "address",
          "name": "",
          "type": "address"
        },
        {
          "internalType": "address",
          "name": "",
          "type": "address"
        }
      ],
      "name": "isFan",
      "outputs": [
        {
          "internalType": "bool",
          "name": "",
          "type": "bool"
        }
      ],
      "stateMutability": "view",
      "type": "function"
    },
    {
      "inputs": [
        {
          "internalType": "address",
          "name": "_nftContract",
          "type": "address"
        },
        {
          "internalType": "uint256[]",
          "name": "_tokenId",
          "type": "uint256[]"
        },
        {
          "internalType": "uint256[]",
          "name": "_price",
          "type": "uint256[]"
        },
        {
          "internalType": "uint256",
          "name": "_royaltyPrice",
          "type": "uint256"
        },
        {
          "internalType": "uint256",
          "name": "_listingType",
          "type": "uint256"
        },
        {
          "internalType": "uint256[]",
          "name": "_startTime",
          "type": "uint256[]"
        },
        {
          "internalType": "uint256[]",
          "name": "_endTime",
          "type": "uint256[]"
        },
        {
          "internalType": "uint256",
          "name": "_collectionId",
          "type": "uint256"
        },
        {
          "internalType": "uint256",
          "name": "_paymentMethod",
          "type": "uint256"
        }
      ],
      "name": "listNft",
      "outputs": [],
      "stateMutability": "payable",
      "type": "function"
    },
    {
      "inputs": [],
      "name": "owner",
      "outputs": [
        {
          "internalType": "address",
          "name": "",
          "type": "address"
        }
      ],
      "stateMutability": "view",
      "type": "function"
    },
    {
      "inputs": [],
      "name": "removeAllFans",
      "outputs": [],
      "stateMutability": "nonpayable",
      "type": "function"
    },
    {
      "inputs": [
        {
          "internalType": "address[]",
          "name": "addresses",
          "type": "address[]"
        }
      ],
      "name": "removeFans",
      "outputs": [],
      "stateMutability": "nonpayable",
      "type": "function"
    },
    {
      "inputs": [],
      "name": "renounceOwnership",
      "outputs": [],
      "stateMutability": "nonpayable",
      "type": "function"
    },
    {
      "inputs": [
        {
          "internalType": "address",
          "name": "_nftContract",
          "type": "address"
        },
        {
          "internalType": "uint256",
          "name": "_tokenId",
          "type": "uint256"
        },
        {
          "internalType": "uint256",
          "name": "_price",
          "type": "uint256"
        },
        {
          "internalType": "uint256",
          "name": "_listingType",
          "type": "uint256"
        },
        {
          "internalType": "uint256",
          "name": "_startTime",
          "type": "uint256"
        },
        {
          "internalType": "uint256",
          "name": "_endTime",
          "type": "uint256"
        },
        {
          "internalType": "address",
          "name": "_user",
          "type": "address"
        }
      ],
      "name": "resellNft",
      "outputs": [],
      "stateMutability": "nonpayable",
      "type": "function"
    },
    {
      "inputs": [
        {
          "internalType": "uint256",
          "name": "usdtAmountOut",
          "type": "uint256"
        }
      ],
      "name": "swapETHForUSDT",
      "outputs": [
        {
          "internalType": "uint256",
          "name": "",
          "type": "uint256"
        }
      ],
      "stateMutability": "payable",
      "type": "function"
    },
    {
      "inputs": [
        {
          "internalType": "uint256",
          "name": "usdtAmountIn",
          "type": "uint256"
        }
      ],
      "name": "swapUSDTForETH",
      "outputs": [
        {
          "internalType": "uint256",
          "name": "",
          "type": "uint256"
        }
      ],
      "stateMutability": "nonpayable",
      "type": "function"
    },
    {
      "inputs": [
        {
          "internalType": "uint256[]",
          "name": "tokenIds",
          "type": "uint256[]"
        }
      ],
      "name": "toggleOnlyFans",
      "outputs": [],
      "stateMutability": "nonpayable",
      "type": "function"
    },
    {
      "inputs": [
        {
          "internalType": "address",
          "name": "newOwner",
          "type": "address"
        }
      ],
      "name": "transferOwnership",
      "outputs": [],
      "stateMutability": "nonpayable",
      "type": "function"
    },
    {
      "inputs": [
        {
          "internalType": "address",
          "name": "_user",
          "type": "address"
        }
      ],
      "name": "unbanUser",
      "outputs": [],
      "stateMutability": "nonpayable",
      "type": "function"
    },
    {
      "stateMutability": "payable",
      "type": "receive"
    }
  ],
  "bytecode": "0x6080604052600d80546001600160a01b0319908116737a250d5630b4cf539739df2c5dacb4c659f2488d17909155600e805490911673dac17f958d2ee523a2206206994597c13d831ec71790553480156200005957600080fd5b5060405162005f1338038062005f138339810160408190526200007c9162000120565b60016000556200008c33620000ce565b60048054336001600160a01b031991821617909155600d54600f80546001600160a01b0392831690841617905560108054909216921691909117905562000152565b600180546001600160a01b038381166001600160a01b0319831681179093556040519116919082907f8be0079c531659141344cd1fd0a4f28419497f9722a3daafe3b4186f6b6457e090600090a35050565b6000602082840312156200013357600080fd5b81516001600160a01b03811681146200014b57600080fd5b9392505050565b615db180620001626000396000f3fe6080604052600436106102535760003560e01c80638d6cb3fb11610138578063c1892058116100b0578063ed5a1c0f11610077578063ed5a1c0f1461084a578063f1ff9d0d14610885578063f2fde38b146108a5578063f3ed87e4146108c5578063f41dfb18146108d8578063f6c1b77a146108eb57005b8063c18920581461079a578063c36ac2d2146107ba578063d6cbb202146107da578063d6fc3dbd146107f1578063ecb4ad0c1461081157005b80639c744058116100ff5780639c744058146105f1578063af6b06f414610611578063b4fa041214610631578063b8b3455d146106b6578063b9e07df1146106c9578063bbffa07b1461077a57005b80638d6cb3fb1461051f5780638da5cb5b146105345780638f2886441461055257806398dd36bf146105825780639a6e94be1461059757005b80635674c2e6116101cb578063715018a611610192578063715018a61461043f57806377ec6a471461045457806379b36943146104845780638090551e146104bc5780638988d078146104cf5780638cd410f4146104ff57005b80635674c2e6146103a75780635c60f226146103cc5780635ca11fa3146103ec5780636f9e88761461040c5780636f9fb98a1461042c57005b806331a7a70f1161021a57806331a7a70f146102f25780633b295cb01461031257806348a51f53146103275780634afbcdae1461033a5780634d12b6951461035a5780635274cff61461037a57005b80630760943e1461025c57806310d86b1f146102875780632a448f6c146102a75780633000df5d146102ba57806331824a49146102cd57005b3661025a57005b005b34801561026857600080fd5b5061027161090b565b60405161027e9190614edf565b60405180910390f35b34801561029357600080fd5b5061025a6102a2366004614f12565b6109b0565b61025a6102b5366004614f2f565b6109dc565b61025a6102c8366004615047565b610fa2565b3480156102d957600080fd5b506002546102e49081565b60405190815260200161027e565b3480156102fe57600080fd5b5061025a61030d36600461512b565b611891565b34801561031e57600080fd5b5061025a611acc565b61025a6103353660046151c4565b611b6d565b34801561034657600080fd5b506102e4610355366004615210565b612150565b34801561036657600080fd5b5061025a610375366004614f12565b612181565b34801561038657600080fd5b5061039a610395366004614f12565b6121aa565b60405161027e919061526c565b3480156103b357600080fd5b506103bc612486565b604051901515815260200161027e565b3480156103d857600080fd5b5061025a6103e7366004614f12565b6124c4565b3480156103f857600080fd5b5061025a610407366004615210565b6124f0565b34801561041857600080fd5b5061025a61042736600461534f565b61258a565b34801561043857600080fd5b50476102e4565b34801561044b57600080fd5b5061025a612982565b34801561046057600080fd5b506103bc61046f366004614f12565b600b6020526000908152604090205460ff1681565b34801561049057600080fd5b50600d546104a4906001600160a01b031681565b6040516001600160a01b03909116815260200161027e565b6102e46104ca3660046153b8565b612996565b3480156104db57600080fd5b506103bc6104ea366004614f12565b600a6020526000908152604090205460ff1681565b34801561050b57600080fd5b506102e461051a3660046153b8565b612bdf565b34801561052b57600080fd5b5061039a612f1b565b34801561054057600080fd5b506001546001600160a01b03166104a4565b34801561055e57600080fd5b506102e461056d3660046153b8565b60009081526009602052604090206005015490565b34801561058e57600080fd5b506102e46131cc565b3480156105a357600080fd5b506105d66105b23660046153b8565b600660205260009081526040902080546001820154600290920154909160ff169083565b6040805193845291151560208401529082015260600161027e565b3480156105fd57600080fd5b506103bc61060c3660046153b8565b61329b565b34801561061d57600080fd5b5061025a61062c36600461512b565b6132e0565b34801561063d57600080fd5b506106a261064c3660046153b8565b600960205260009081526040902080546001820154600283015460038401546004850154600586015460069096015494956001600160a01b0394851695939492939192909190811690600160a01b900460ff1688565b60405161027e9897969594939291906153d1565b61025a6106c4366004615426565b613471565b3480156106d557600080fd5b506107626106e43660046153b8565b600560208190526000918252604090912080546001820154600283015460038401546004850154958501546006860154600787015460088801546009909801546001600160a01b03978816999698958816979485169690941694929360ff92831693919282811692610100810482169262010000909104909116908c565b60405161027e9c9b9a99989796959493929190615452565b34801561078657600080fd5b506104a46107953660046154d0565b6139d5565b3480156107a657600080fd5b50600e546104a4906001600160a01b031681565b3480156107c657600080fd5b5061039a6107d53660046153b8565b613a0d565b3480156107e657600080fd5b506003546102e49081565b3480156107fd57600080fd5b506103bc61080c3660046154fc565b613ca1565b34801561081d57600080fd5b506103bc61082c3660046153b8565b60009081526005602052604090206008015462010000900460ff1690565b34801561085657600080fd5b506103bc610865366004615552565b600760209081526000928352604080842090915290825290205460ff1681565b34801561089157600080fd5b5061025a6108a0366004615580565b613d1a565b3480156108b157600080fd5b5061025a6108c0366004614f12565b613e18565b61025a6108d33660046155bc565b613e8e565b61025a6108e6366004615210565b61446a565b3480156108f757600080fd5b5061039a610906366004614f12565b6148f0565b336000908152600b602052604090205460609060ff16156109475760405162461bcd60e51b815260040161093e906155f7565b60405180910390fd5b33600090815260086020908152604091829020805483518184028101840190945280845290918301828280156109a657602002820191906000526020600020905b81546001600160a01b03168152600190910190602001808311610988575b5050505050905090565b6109b8614b53565b6001600160a01b03166000908152600a60205260409020805460ff19166001179055565b336000908152600a602052604090205460ff1615610a0c5760405162461bcd60e51b815260040161093e90615667565b336000908152600b602052604090205460ff1615610a3c5760405162461bcd60e51b815260040161093e906155f7565b610a44614bad565b600083815260056020908152604080832060048101546001600160a01b03168452600a9092529091205460ff1615610a8e5760405162461bcd60e51b815260040161093e9061569c565b60048101546001600160a01b03166000908152600b602052604090205460ff1615610acb5760405162461bcd60e51b815260040161093e906156f2565b6000600882015460ff166001811115610ae657610ae6615232565b14610b035760405162461bcd60e51b815260040161093e9061574f565b600681015460ff161515600114610b2c5760405162461bcd60e51b815260040161093e90615786565b6000848152600660205260408120600101543390829060ff1615610be7576000878152600560209081526040808320600301546001600160a01b031683526007825280832033845290915290205460ff16610b995760405162461bcd60e51b815260040161093e906157bd565b600087815260066020526040902060020154610bb6903490614c06565b610bc0903461580a565b905080341015610be25760405162461bcd60e51b815260040161093e9061581d565b610c0e565b8360050154341015610c0b5760405162461bcd60e51b815260040161093e9061581d565b50345b600284015460038501546001600160a01b03918216911603610d3557610c35818787614c25565b610c3f908261580a565b905087600003610c8f5760038401546040516001600160a01b039091169082156108fc029083906000818181858888f19350505050158015610c85573d6000803e3d6000fd5b5060019250610e9c565b610c9881612996565b506000610ca36131cc565b610cad9083615863565b90506000610cbe82620f4240615863565b601054600388015460405163a9059cbb60e01b81529293506001600160a01b039182169263a9059cbb92610cf8921690859060040161587a565b600060405180830381600087803b158015610d1257600080fd5b505af1158015610d26573d6000803e3d6000fd5b50505050600194505050610e9c565b60008190506000610d4a828760070154614c06565b9050610d57838989614c25565b610d61828461580a565b610d6b919061580a565b60028701546040519194506001600160a01b03169082156108fc029083906000818181858888f19350505050158015610da8573d6000803e3d6000fd5b5089600003610df75760038601546040516001600160a01b039091169084156108fc029085906000818181858888f19350505050158015610ded573d6000803e3d6000fd5b5060019450610e99565b610e0083612996565b506000610e0b6131cc565b610e159085615893565b90506000610e2682620f4240615863565b60105460038a015460405163a9059cbb60e01b81529293506001600160a01b039182169263a9059cbb92610e60921690859060040161587a565b600060405180830381600087803b158015610e7a57600080fd5b505af1158015610e8e573d6000803e3d6000fd5b505050506001965050505b50505b8215610f8d5760018401546040516323b872dd60e01b81526001600160a01b038b16916323b872dd91610ed69130918791906004016158b5565b600060405180830381600087803b158015610ef057600080fd5b505af1158015610f04573d6000803e3d6000fd5b5050505060018401546003850154604051600080516020615d5c83398151915292610f40928d926001600160a01b0390911690879034906158d9565b60405180910390a16004840180546001600160a01b0384166001600160a01b031991821617909155600385018054909116905560068401805460ff19169055610f8d600280546001019055565b50505050610f9b6001600055565b5050505050565b610faa614bad565b336000908152600a602052604090205460ff1615610fda5760405162461bcd60e51b815260040161093e90615667565b336000908152600b602052604090205460ff161561100a5760405162461bcd60e51b815260040161093e906155f7565b60005b885181101561187b5761105a6040518060400160405280600981526020016874686973206973203160b81b8152508a838151811061104d5761104d61590c565b6020026020010151614c6b565b6110886040518060400160405280600c81526020016b5f6c697374696e675479706560a01b81525087614c6b565b60408051808201909152601c81527f75696e74323536284c697374696e67547970652e41756374696f6e290000000060208201526110c7906001614c6b565b60008882815181106110db576110db61590c565b6020026020010151101561110257604051635a93095360e11b815260040160405180910390fd5b6001861115611124576040516317142a4d60e01b815260040160405180910390fd5b61115d6040518060400160405280600b81526020016a5f746f6b656e49645b695d60a81b8152508a838151811061104d5761104d61590c565b896001600160a01b03166323b872dd33308c85815181106111805761118061590c565b60200260200101516040518463ffffffff1660e01b81526004016111a6939291906158b5565b600060405180830381600087803b1580156111c057600080fd5b505af11580156111d4573d6000803e3d6000fd5b50505050611202604051806040016040528060098152602001683a3434b99034b9901960b91b815250614cb0565b611210600380546001019055565b61123a604051806040016040528060098152602001681d1a1a5cc81a5cc80d60ba1b815250614cb0565b6000838152600c6020526040902089518a908390811061125c5761125c61590c565b602002602001015190806001815401808255809150506001900390600052602060002001600090919091909150556040518061018001604052808b6001600160a01b031681526020018a83815181106112b7576112b761590c565b60200260200101518152602001336001600160a01b03168152602001336001600160a01b03168152602001306001600160a01b031681526020018983815181106113035761130361590c565b6020026020010151815260200160011515815260200188815260200187600181111561133157611331615232565b600181111561134257611342615232565b815260200183600281111561135957611359615232565b600281111561136a5761136a615232565b815260200160001515815260200184815250600560008b84815181106113925761139261590c565b6020908102919091018101518252818101929092526040908101600020835181546001600160a01b03199081166001600160a01b039283161783559385015160018084019190915592850151600283018054861691831691909117905560608501516003830180548616918316919091179055608085015160048301805490951691161790925560a0830151600583015560c083015160068301805460ff1990811692151592909217905560e08401516007840155610100840151600884018054919390929190911690838181111561146d5761146d615232565b021790555061012082015160088201805461ff00191661010083600281111561149857611498615232565b0217905550610140820151600882018054911515620100000262ff00001990921691909117905561016090910151600991820155604080518082019091529081526874686973206973203560b81b60208201526114f490614cb0565b60405180606001604052808a83815181106115115761151161590c565b602002602001015181526020016000151581526020016000815250600660008b84815181106115425761154261590c565b602090810291909101810151825281810192909252604090810160002083518155918301516001808401805460ff19169215159290921790915592015160029091015586036117cc576115b5604051806040016040528060098152602001683a3434b99034b9901b60b91b815250614cb0565b6115f06040518060400160405280600d81526020016c5f737461727454696d655b695d60981b81525086838151811061104d5761104d61590c565b6116296040518060400160405280600b81526020016a5f656e6454696d655b695d60a81b81525085838151811061104d5761104d61590c565b6040518061010001604052808a83815181106116475761164761590c565b60200260200101518152602001336001600160a01b031681526020018983815181106116755761167561590c565b602002602001015181526020018683815181106116945761169461590c565b602002602001015181526020018583815181106116b3576116b361590c565b602002602001015181526020016000815260200160006001600160a01b031681526020018360028111156116e9576116e9615232565b60028111156116fa576116fa615232565b815250600960008b84815181106117135761171361590c565b602090810291909101810151825281810192909252604090810160002083518155918301516001830180546001600160a01b03199081166001600160a01b039384161790915591840151600280850191909155606085015160038501556080850151600485015560a0850151600585015560c085015160068501805494851691909316908117835560e0860151936001600160a81b0319161790600160a01b9084908111156117c4576117c4615232565b021790555050505b6117f66040518060400160405280600981526020016874686973206973203760b81b815250614cb0565b7fc832d0dcd7b856cbe96d21951bfd27a151474492114ad271531ad34f7cfd64538a8a838151811061182a5761182a61590c565b602002602001015133308c86815181106118465761184661590c565b60200260200101518860405161186196959493929190615922565b60405180910390a1806118738161595c565b91505061100d565b506118866001600055565b505050505050505050565b600081516001600160401b038111156118ac576118ac614f73565b6040519080825280602002602001820160405280156118d5578160200160208202803683370190505b50905060005b8251811015611a905760008382815181106118f8576118f861590c565b6020026020010151905060006001600160a01b0316816001600160a01b0316036119555761195060405180604001604052806013815260200172496e76616c69642066616e206164647265737360681b815250614cb0565b611a7d565b3360009081526007602090815260408083206001600160a01b038516845290915290205460ff16156119ba576119506040518060400160405280601881526020017720b2323932b9b99034b99030b63932b0b23c9030903330b760411b815250614cb0565b3360008181526008602090815260408083208054600180820183559185528385200180546001600160a01b0319166001600160a01b0388169081179091559484526007835281842094845293825291829020805460ff19169093179092558051808201909152601181527011985b881859191959081d1bc81b1a5cdd607a1b91810191909152611a4990614cb0565b80838381518110611a5c57611a5c61590c565b60200260200101906001600160a01b031690816001600160a01b0316815250505b5080611a888161595c565b9150506118db565b507fa99d709f8a9c899ba566c9b2515b1715239783ff40126e24d86e081505a7f50e81604051611ac09190614edf565b60405180910390a15050565b336000908152600860205260408120905b8154811015611b515733600090815260076020526040812083548290859085908110611b0b57611b0b61590c565b6000918252602080832091909101546001600160a01b031683528201929092526040019020805460ff191691151591909117905580611b498161595c565b915050611add565b50336000908152600860205260408120611b6a91614e02565b50565b336000908152600a602052604090205460ff1615611b9d5760405162461bcd60e51b815260040161093e90615667565b336000908152600b602052604090205460ff1615611bcd5760405162461bcd60e51b815260040161093e906155f7565b611bd5614bad565b600084815260056020526040812090611bec6131cc565b90506000611bff8664e8d4a51000615863565b9050611c0b8282615863565b9050611c1f670de0b6b3a764000082615893565b60048401546001600160a01b03166000908152600a602052604090205490915060ff1615611c5f5760405162461bcd60e51b815260040161093e9061569c565b60048301546001600160a01b03166000908152600b602052604090205460ff1615611c9c5760405162461bcd60e51b815260040161093e906156f2565b6000600884015460ff166001811115611cb757611cb7615232565b14611cd45760405162461bcd60e51b815260040161093e9061574f565b600683015460ff161515600114611cfd5760405162461bcd60e51b815260040161093e90615786565b8260050154811015611d3e5760405162461bcd60e51b815260206004820152600a60248201526953656e64206d6f72652160b01b604482015260640161093e565b6010546040516323b872dd60e01b81526000918291339183916001600160a01b03909116906323b872dd90611d7b90859030908f906004016158b5565b600060405180830381600087803b158015611d9557600080fd5b505af1158015611da9573d6000803e3d6000fd5b50505050600287015460038801546001600160a01b03918216911603611eae57611dd48a8a8a614c25565b611dde908b61580a565b93508b600103611e5b57601054600388015460405163a9059cbb60e01b81526001600160a01b039283169263a9059cbb92611e2092911690889060040161587a565b600060405180830381600087803b158015611e3a57600080fd5b505af1158015611e4e573d6000803e3d6000fd5b505050506001925061203e565b6000611e6685612bdf565b60038901546040519192506001600160a01b03169082156108fc029083906000818181858888f19350505050158015611ea3573d6000803e3d6000fd5b50600193505061203e565b6000611ebe8b8960070154614c06565b9050611eca818c61580a565b9150611ed7828b8b614c25565b611ee1908c61580a565b60105460028a015460405163a9059cbb60e01b81529297506001600160a01b039182169263a9059cbb92611f1b921690859060040161587a565b600060405180830381600087803b158015611f3557600080fd5b505af1158015611f49573d6000803e3d6000fd5b505050508c600103611fda576000611f6486620f4240615863565b60105460038b015460405163a9059cbb60e01b81529293506001600160a01b039182169263a9059cbb92611f9e921690859060040161587a565b600060405180830381600087803b158015611fb857600080fd5b505af1158015611fcc573d6000803e3d6000fd5b50505050600194505061203c565b611fe385612bdf565b506000611fee6131cc565b611ff89087615863565b60038a01546040519192506001600160a01b03169082156108fc029083906000818181858888f19350505050158015612035573d6000803e3d6000fd5b5060019450505b505b82156121375760018701546040516323b872dd60e01b81526001600160a01b038f16916323b872dd916120789130918791906004016158b5565b600060405180830381600087803b15801561209257600080fd5b505af11580156120a6573d6000803e3d6000fd5b50505050600080516020615d5c8339815191528d88600101548960030160009054906101000a90046001600160a01b031685896040516120ea9594939291906158d9565b60405180910390a16004870180546001600160a01b0384166001600160a01b031991821617909155600388018054909116905560068701805460ff19169055612137600280546001019055565b505050505050506121486001600055565b505050505050565b600c602052816000526040600020818154811061216c57600080fd5b90600052602060002001600091509150505481565b612189614b53565b6001600160a01b03166000908152600a60205260409020805460ff19169055565b336000908152600b602052604090205460609060ff16156121dd5760405162461bcd60e51b815260040161093e906155f7565b336000908152600a602052604090205460ff161561220d5760405162461bcd60e51b815260040161093e90615667565b600061221860035490565b90506000805b82811015612288576000818152600560205260409020600301546001600160a01b038681169116148015612263575060008181526005602052604090206006015460ff165b1561227657816122728161595c565b9250505b806122808161595c565b91505061221e565b506000816001600160401b038111156122a3576122a3614f73565b6040519080825280602002602001820160405280156122dc57816020015b6122c9614e20565b8152602001906001900390816122c15790505b5090506000805b84811015612479576000818152600560205260409020600301546001600160a01b038881169116148015612328575060008181526005602052604090206006015460ff165b156124675760008181526005602081815260409283902083516101808101855281546001600160a01b039081168252600180840154948301949094526002830154811695820195909552600382015485166060820152600482015490941660808501529182015460a0840152600682015460ff908116151560c0850152600783015460e085015260088301546101008501929116908111156123cc576123cc615232565b60018111156123dd576123dd615232565b81526020016008820160019054906101000a900460ff16600281111561240557612405615232565b600281111561241657612416615232565b8152600882015462010000900460ff1615156020820152600990910154604090910152835184908490811061244d5761244d61590c565b602002602001018190525081806124639061595c565b9250505b806124718161595c565b9150506122e3565b509093505050505b919050565b336000908152600a602052604081205460ff16806124b35750336000908152600b602052604090205460ff165b156124be5750600190565b50600090565b6124cc614b53565b6001600160a01b03166000908152600b60205260409020805460ff19166001179055565b6000828152600560205260409020600301546001600160a01b031633146125755760405162461bcd60e51b815260206004820152603360248201527f4f6e6c7920746865206f776e6572206f6620616e206e66742063616e20736574604482015272103234b9b1b7bab73a32b210383934b1b2b99760691b606482015260840161093e565b60009182526006602052604090912060020155565b336000908152600a602052604090205460ff16156125ba5760405162461bcd60e51b815260040161093e90615667565b336000908152600b602052604090205460ff16156125ea5760405162461bcd60e51b815260040161093e906155f7565b6125f2614bad565b60008681526005602052604090208561264d5760405162461bcd60e51b815260206004820152601c60248201527f5072696365206d757374206265206174206c6561737420312077656900000000604482015260640161093e565b60408051808201909152600981526837333a1737bbb732b960b91b6020820152600482015461268591906001600160a01b0316614cf3565b6126ac604051806040016040528060058152602001642fbab9b2b960d91b81525083614cf3565b60048101546001600160a01b0383811691161461271e5760405162461bcd60e51b815260206004820152602a60248201527f4f6e6c7920746865206f776e6572206f6620616e206e66742063616e206c69736044820152693a103a34329037333a1760b11b606482015260840161093e565b6040516323b872dd60e01b81526001600160a01b038916906323b872dd9061274e90859030908c906004016158b5565b600060405180830381600087803b15801561276857600080fd5b505af115801561277c573d6000803e3d6000fd5b5050506003820180546001600160a01b0385166001600160a01b03199182161790915560048301805490911630179055506005810186905560068101805460ff1916600190811790915585908111156127d7576127d7615232565b60088201805460ff1916600183818111156127f4576127f4615232565b02179055506001850361291f57604051806101000160405280888152602001836001600160a01b031681526020018781526020018581526020018481526020016000815260200160006001600160a01b031681526020018260080160019054906101000a900460ff16600281111561286e5761286e615232565b905260008881526009602090815260409182902083518155908301516001820180546001600160a01b03199081166001600160a01b039384161790915592840151600280840191909155606085015160038401556080850151600484015560a0850151600584015560c085015160068401805495861691909316908117835560e086015193946001600160a81b0319161790600160a01b90849081111561291757612917615232565b021790555050505b6129296002614d38565b7fc832d0dcd7b856cbe96d21951bfd27a151474492114ad271531ad34f7cfd6453888884308a866009015460405161296696959493929190615922565b60405180910390a1506129796001600055565b50505050505050565b61298a614b53565b6129946000614d8f565b565b604080516002808252606082018352600092839291906020830190803683375050600f54604080516315ab88c960e31b815290519394506001600160a01b039091169263ad5c4648925060048083019260209291908290030181865afa158015612a04573d6000803e3d6000fd5b505050506040513d601f19601f82011682018060405250810190612a289190615975565b81600081518110612a3b57612a3b61590c565b6001600160a01b039283166020918202929092010152600e54825191169082906001908110612a6c57612a6c61590c565b6001600160a01b039290921660209283029190910182015260408051600280825260608201835260009391929091830190803683375050600f5460405163d06ca61f60e01b81529293506001600160a01b03169163d06ca61f9150612ad79087908690600401615992565b600060405180830381865afa158015612af4573d6000803e3d6000fd5b505050506040513d6000823e601f3d908101601f19168201604052612b1c91908101906159ab565b600f5481519192506001600160a01b031690637ff36ab590349084906001908110612b4957612b4961590c565b60200260200101518530426040518663ffffffff1660e01b8152600401612b739493929190615a30565b60006040518083038185885af1158015612b91573d6000803e3d6000fd5b50505050506040513d6000823e601f3d908101601f19168201604052612bba91908101906159ab565b5080600181518110612bce57612bce61590c565b602002602001015192505050919050565b6000612c0960405180604001604052806006815260200165746573743d3160d01b81525083614c6b565b6040805160028082526060820183526000926020830190803683375050600e5482519293506001600160a01b031691839150600090612c4a57612c4a61590c565b6001600160a01b03928316602091820292909201810191909152600f54604080516315ab88c960e31b81529051919093169263ad5c46489260048083019391928290030181865afa158015612ca3573d6000803e3d6000fd5b505050506040513d601f19601f82011682018060405250810190612cc79190615975565b81600181518110612cda57612cda61590c565b6001600160a01b039283166020918202929092010152601054600d5460405163095ea7b360e01b81529183169263095ea7b392612d1f9290911690879060040161587a565b600060405180830381600087803b158015612d3957600080fd5b505af1158015612d4d573d6000803e3d6000fd5b50505050612d7760405180604001604052806005815260200164746573743360d81b815250614cb0565b6040805160028082526060820183526000926020830190803683375050600f5460405163d06ca61f60e01b81529293506001600160a01b03169163d06ca61f9150612dc89087908690600401615992565b600060405180830381865afa158015612de5573d6000803e3d6000fd5b505050506040513d6000823e601f3d908101601f19168201604052612e0d91908101906159ab565b9050612e4460405180604001604052806006815260200165185b5bdd5b9d60d21b8152508260018151811061104d5761104d61590c565b600f5481516001600160a01b0390911690634a25d94a9083906001908110612e6e57612e6e61590c565b6020026020010151868530426040518663ffffffff1660e01b8152600401612e9a959493929190615a65565b6000604051808303816000875af1158015612eb9573d6000803e3d6000fd5b505050506040513d6000823e601f3d908101601f19168201604052612ee191908101906159ab565b50612f08604051806040016040528060058152602001641d195cdd0d60da1b815250614cb0565b80600181518110612bce57612bce61590c565b336000908152600b602052604090205460609060ff1615612f4e5760405162461bcd60e51b815260040161093e906155f7565b6000612f5960035490565b90506000612f6660025490565b612f70908361580a565b9050612f9c604051806040016040528060088152602001671b999d10dbdd5b9d60c21b81525083614c6b565b612fcd6040518060400160405280600f81526020016e1d5b9cdbdb1913999d1cd0dbdd5b9d608a1b81525082614c6b565b6000816001600160401b03811115612fe757612fe7614f73565b60405190808252806020026020018201604052801561302057816020015b61300d614e20565b8152602001906001900390816130055790505b50905060006130516040518060400160405280600b81526020016a5f6964546f4e46545b695d60a81b815250614cb0565b60005b848110156131c25760008181526005602052604090206006015460ff16156131b05760008181526005602081815260409283902083516101808101855281546001600160a01b039081168252600180840154948301949094526002830154811695820195909552600382015485166060820152600482015490941660808501529182015460a0840152600682015460ff908116151560c0850152600783015460e0850152600883015461010085019291169081111561311557613115615232565b600181111561312657613126615232565b81526020016008820160019054906101000a900460ff16600281111561314e5761314e615232565b600281111561315f5761315f615232565b8152600882015462010000900460ff161515602082015260099091015460409091015283518490849081106131965761319661590c565b602002602001018190525081806131ac9061595c565b9250505b806131ba8161595c565b915050613054565b5090935050505090565b60008073ee9f2375b4bdf6387aa8265dd4fb8f16512a1d4690506000816001600160a01b031663feaf968c6040518163ffffffff1660e01b815260040160a060405180830381865afa158015613226573d6000803e3d6000fd5b505050506040513d601f19601f8201168201806040525081019061324a9190615abb565b505050915050600081136132955760405162461bcd60e51b8152602060048201526012602482015271496e76616c6964205553445420707269636560701b604482015260640161093e565b92915050565b600081815260096020526040812060030154421180156132cb575060008281526009602052604090206004015442105b156132d857506001919050565b506000919050565b60005b815181101561346d5760008282815181106133005761330061590c565b6020908102919091018101516001600160a01b0381166000908152600890925260408220909250905b815481101561342f57336001600160a01b031682828154811061334e5761334e61590c565b6000918252602090912001546001600160a01b03160361341d57815482906133789060019061580a565b815481106133885761338861590c565b9060005260206000200160009054906101000a90046001600160a01b03168282815481106133b8576133b861590c565b9060005260206000200160006101000a8154816001600160a01b0302191690836001600160a01b03160217905550818054806133f6576133f6615b0b565b600082815260209020810160001990810180546001600160a01b031916905501905561342f565b806134278161595c565b915050613329565b50506001600160a01b031660009081526007602090815260408083203384529091529020805460ff19169055806134658161595c565b9150506132e3565b5050565b6000838152600960205260409020600301548390421180156134a3575060008181526009602052604090206004015442105b6134bf5760405162461bcd60e51b815260040161093e90615b21565b336000908152600b602052604090205460ff16156134ef5760405162461bcd60e51b815260040161093e906155f7565b336000908152600a602052604090205460ff161561351f5760405162461bcd60e51b815260040161093e90615667565b60006135296131cc565b60008681526006602052604090206001015490915060ff1615613595576000858152600560209081526040808320600301546001600160a01b031683526007825280832033845290915290205460ff166135955760405162461bcd60e51b815260040161093e906157bd565b60006135a68564e8d4a51000615863565b90506135b28282615863565b90506135c6670de0b6b3a764000082615893565b90506135fb604051806040016040528060118152602001705f616d6f756e74496e455448496e57656960781b81525082614c6b565b6000868152600960205260409020600601546001600160a01b031661364b5760008681526009602052604090206002015481101561364b5760405162461bcd60e51b815260040161093e90615b6a565b60008681526009602052604090206005015481101561367c5760405162461bcd60e51b815260040161093e90615ba1565b600160008781526005602052604090206008015460ff1660018111156136a4576136a4615232565b146136c15760405162461bcd60e51b815260040161093e90615bfe565b60008681526005602052604090206006015460ff1615156001146136f75760405162461bcd60e51b815260040161093e90615786565b6010546040516323b872dd60e01b81526001600160a01b03909116906323b872dd9061372b90339030908a906004016158b5565b600060405180830381600087803b15801561374557600080fd5b505af1158015613759573d6000803e3d6000fd5b5050506000878152600960205260409020600681015460058201549192506001600160a01b031690811561389b5760016006840154600160a01b900460ff1660028111156137a9576137a9615232565b0361383c5760006137b86131cc565b6137c29083615893565b90506137d181620f4240615863565b60105460405163a9059cbb60e01b81529192506001600160a01b03169063a9059cbb90613804908690859060040161587a565b600060405180830381600087803b15801561381e57600080fd5b505af1158015613832573d6000803e3d6000fd5b505050505061389b565b60006006840154600160a01b900460ff16600281111561385e5761385e615232565b0361389b576040516001600160a01b0383169082156108fc029083906000818181858888f19350505050158015613899573d6000803e3d6000fd5b505b600583018490556006830180546001600160a01b031916331790558660028111156138c8576138c8615232565b60068401805460ff60a01b1916600160a01b8360028111156138ec576138ec615232565b02179055506138fd42610258615c31565b836004015410156139725761012c83600401600082825461391e9190615c31565b9091555050600183015460048401546040517f8e1cb85d0855921b3c958b068fa707efb7db88099af764dd47f37eef82c3334d92613969928d926001600160a01b0390921691615c44565b60405180910390a15b6001830154600684015460058501546040517f4307392e6f0e441e74a4982d9fa9ddc49b3cd9d3902a9d3ecab0ad3c60a0acd1936139c2938e936001600160a01b03928316939290911691615c63565b60405180910390a1505050505050505050565b600860205281600052604060002081815481106139f157600080fd5b6000918252602090912001546001600160a01b03169150829050565b60606000613a1a60035490565b90506000613a2760025490565b613a31908361580a565b9050613a5d604051806040016040528060088152602001671b999d10dbdd5b9d60c21b81525083614c6b565b613a8e6040518060400160405280600f81526020016e1d5b9cdbdb1913999d1cd0dbdd5b9d608a1b81525082614c6b565b6000816001600160401b03811115613aa857613aa8614f73565b604051908082528060200260200182016040528015613ae157816020015b613ace614e20565b815260200190600190039081613ac65790505b5090506000613b146040518060400160405280600d81526020016c17d8dbdb1b1958dd1a5bdb9259609a1b815250614cb0565b60005b848110156124795760008181526005602052604090206006015460ff168015613b50575060008181526005602052604090206009015487145b15613c8f5760008181526005602081815260409283902083516101808101855281546001600160a01b039081168252600180840154948301949094526002830154811695820195909552600382015485166060820152600482015490941660808501529182015460a0840152600682015460ff908116151560c0850152600783015460e08501526008830154610100850192911690811115613bf457613bf4615232565b6001811115613c0557613c05615232565b81526020016008820160019054906101000a900460ff166002811115613c2d57613c2d615232565b6002811115613c3e57613c3e615232565b8152600882015462010000900460ff16151560208201526009909101546040909101528351849084908110613c7557613c7561590c565b60200260200101819052508180613c8b9061595c565b9250505b80613c998161595c565b915050613b17565b6000613cab614b53565b6000805b8451811015613d0f57848181518110613cca57613cca61590c565b602090810291909101810151600081815260059092526040909120600801805462ff000019166201000087151502179055915080613d078161595c565b915050613caf565b506001949350505050565b60005b815181101561346d576000828281518110613d3a57613d3a61590c565b602090810291909101810151600081815260059092526040909120600301549091506001600160a01b03163314613d9157613d8c6040518060600160405280602e8152602001615d2e602e9139614cb0565b613e05565b6000818152600560205260409020600301546001600160a01b0316613de357613d8c6040518060400160405280601281526020017113919508191bd95cc81b9bdd08195e1a5cdd60721b815250614cb0565b6000818152600660205260409020600101805460ff19811660ff909116151790555b5080613e108161595c565b915050613d1d565b613e20614b53565b6001600160a01b038116613e855760405162461bcd60e51b815260206004820152602660248201527f4f776e61626c653a206e6577206f776e657220697320746865207a65726f206160448201526564647265737360d01b606482015260840161093e565b611b6a81614d8f565b6000838152600960205260409020600401544211613eea5760405162461bcd60e51b8152602060048201526019602482015278105d58dd1a5bdb881a185cc81b9bdd08195b991959081e595d603a1b604482015260640161093e565b6000838152600560209081526040808320600990925282206006810154919290916001600160a01b0316613fb3576003830154600480850180546001600160a01b0319166001600160a01b0393841617905560068501805460ff19169055600184810154908601546040516323b872dd60e01b81528b8516946323b872dd94613f78943094921692016158b5565b600060405180830381600087803b158015613f9257600080fd5b505af1158015613fa6573d6000803e3d6000fd5b5050505060019050614414565b60058201546000908190816008870154610100900460ff166002811115613fdc57613fdc615232565b036141595760016006860154600160a01b900460ff16600281111561400357614003615232565b036140385760006140126131cc565b61401c9083615893565b905061402b81620f4240615863565b5061403581612bdf565b50505b600286015460048701546001600160a01b039182169116036140ac5761405f818989614c25565b614069908261580a565b60038701546040519193506001600160a01b03169083156108fc029084906000818181858888f193505050501580156140a6573d6000803e3d6000fd5b5061435e565b6140be85600501548760070154614c06565b92506140cb818989614c25565b6140d5848361580a565b6140df919061580a565b60028701546040519193506001600160a01b03169084156108fc029085906000818181858888f1935050505015801561411c573d6000803e3d6000fd5b5060038601546040516001600160a01b039091169083156108fc029084906000818181858888f193505050501580156140a6573d6000803e3d6000fd5b60016008870154610100900460ff16600281111561417957614179615232565b0361435e5760006006860154600160a01b900460ff1660028111156141a0576141a0615232565b036141b1576141ae81612996565b90505b600286015460048701546001600160a01b03918216911603614253576141d8818989614c25565b6141e2908261580a565b601054600388015460405163a9059cbb60e01b81529294506001600160a01b039182169263a9059cbb9261421c921690869060040161587a565b600060405180830381600087803b15801561423657600080fd5b505af115801561424a573d6000803e3d6000fd5b5050505061435e565b61426585600501548760070154614c06565b9250614272818989614c25565b61427c848361580a565b614286919061580a565b601054600388015460405163a9059cbb60e01b81529294506001600160a01b039182169263a9059cbb926142c0921690869060040161587a565b600060405180830381600087803b1580156142da57600080fd5b505af11580156142ee573d6000803e3d6000fd5b5050601054600289015460405163a9059cbb60e01b81526001600160a01b03928316945063a9059cbb935061432b9290911690879060040161587a565b600060405180830381600087803b15801561434557600080fd5b505af1158015614359573d6000803e3d6000fd5b505050505b836143d157600685015460018701546040516323b872dd60e01b81526001600160a01b038d8116936323b872dd9361439e933093909216916004016158b5565b600060405180830381600087803b1580156143b857600080fd5b505af11580156143cc573d6000803e3d6000fd5b505050505b6006808601546004880180546001600160a01b0319166001600160a01b039092169190911790558601805460ff19169055614410600280546001019055565b5050505b6001830154600384015460068401546005850154604051600080516020615d5c83398151915294614459948d9491936001600160a01b039182169392909116916158d9565b60405180910390a150505050505050565b60008281526009602052604090206003015482904211801561449c575060008181526009602052604090206004015442105b6144b85760405162461bcd60e51b815260040161093e90615b21565b336000908152600b602052604090205460ff16156144e85760405162461bcd60e51b815260040161093e906155f7565b336000908152600a602052604090205460ff16156145185760405162461bcd60e51b815260040161093e90615667565b60008381526006602052604090206001015460ff1615614581576000838152600560209081526040808320600301546001600160a01b031683526007825280832033845290915290205460ff166145815760405162461bcd60e51b815260040161093e906157bd565b6000838152600960205260409020600601546001600160a01b03166145d1576000838152600960205260409020600201543410156145d15760405162461bcd60e51b815260040161093e90615b6a565b60008381526009602052604090206005015434116146015760405162461bcd60e51b815260040161093e90615ba1565b600160008481526005602052604090206008015460ff16600181111561462957614629615232565b146146465760405162461bcd60e51b815260040161093e90615bfe565b60008381526005602052604090206006015460ff16151560011461467c5760405162461bcd60e51b815260040161093e90615786565b6000838152600960205260409020600681015460058201546001600160a01b039091169081156147ba5760016006840154600160a01b900460ff1660028111156146c8576146c8615232565b0361475b5760006146d76131cc565b6146e19083615893565b90506146f081620f4240615863565b60105460405163a9059cbb60e01b81529192506001600160a01b03169063a9059cbb90614723908690859060040161587a565b600060405180830381600087803b15801561473d57600080fd5b505af1158015614751573d6000803e3d6000fd5b50505050506147ba565b60006006840154600160a01b900460ff16600281111561477d5761477d615232565b036147ba576040516001600160a01b0383169082156108fc029083906000818181858888f193505050501580156147b8573d6000803e3d6000fd5b505b3460058401556006830180546001600160a01b031916331790558460028111156147e6576147e6615232565b60068401805460ff60a01b1916600160a01b83600281111561480a5761480a615232565b021790555061481b42610258615c31565b836004015410156148905761012c83600401600082825461483c9190615c31565b9091555050600183015460048401546040517f8e1cb85d0855921b3c958b068fa707efb7db88099af764dd47f37eef82c3334d92614887928a926001600160a01b0390921691615c44565b60405180910390a15b6001830154600684015460058501546040517f4307392e6f0e441e74a4982d9fa9ddc49b3cd9d3902a9d3ecab0ad3c60a0acd1936148e0938b936001600160a01b03928316939290911691615c63565b60405180910390a1505050505050565b336000908152600b602052604090205460609060ff16156149235760405162461bcd60e51b815260040161093e906155f7565b600061492e60035490565b90506000805b82811015614980576000818152600560205260409020600401546001600160a01b0380871691160361496e578161496a8161595c565b9250505b806149788161595c565b915050614934565b506000816001600160401b0381111561499b5761499b614f73565b6040519080825280602002602001820160405280156149d457816020015b6149c1614e20565b8152602001906001900390816149b95790505b5090506000805b84811015612479576000818152600560205260409020600401546001600160a01b03808916911603614b415760008181526005602081815260409283902083516101808101855281546001600160a01b039081168252600180840154948301949094526002830154811695820195909552600382015485166060820152600482015490941660808501529182015460a0840152600682015460ff908116151560c0850152600783015460e08501526008830154610100850192911690811115614aa657614aa6615232565b6001811115614ab757614ab7615232565b81526020016008820160019054906101000a900460ff166002811115614adf57614adf615232565b6002811115614af057614af0615232565b8152600882015462010000900460ff16151560208201526009909101546040909101528351849084908110614b2757614b2761590c565b60200260200101819052508180614b3d9061595c565b9250505b80614b4b8161595c565b9150506149db565b6001546001600160a01b031633146129945760405162461bcd60e51b815260206004820181905260248201527f4f776e61626c653a2063616c6c6572206973206e6f7420746865206f776e6572604482015260640161093e565b600260005403614bff5760405162461bcd60e51b815260206004820152601f60248201527f5265656e7472616e637947756172643a207265656e7472616e742063616c6c00604482015260640161093e565b6002600055565b60006064614c148385615863565b614c1e9190615893565b9392505050565b6000806103e8614c358587615863565b614c3f9190615893565b90506103e8614c4e8487615863565b614c589190615893565b614c629082615c31565b95945050505050565b61346d8282604051602401614c81929190615cce565b60408051601f198184030181529190526020810180516001600160e01b0316632d839cb360e21b179052614de1565b611b6a81604051602401614cc49190615cf0565b60408051601f198184030181529190526020810180516001600160e01b031663104c13eb60e21b179052614de1565b61346d8282604051602401614d09929190615d03565b60408051601f198184030181529190526020810180516001600160e01b031663319af33360e01b179052614de1565b805480614d875760405162461bcd60e51b815260206004820152601b60248201527f436f756e7465723a2064656372656d656e74206f766572666c6f770000000000604482015260640161093e565b600019019055565b600180546001600160a01b038381166001600160a01b0319831681179093556040519116919082907f8be0079c531659141344cd1fd0a4f28419497f9722a3daafe3b4186f6b6457e090600090a35050565b60006a636f6e736f6c652e6c6f679050600080835160208501845afa505050565b5080546000825590600052602060002090810190611b6a9190614e82565b6040805161018081018252600080825260208201819052918101829052606081018290526080810182905260a0810182905260c0810182905260e081018290529061010082019081526020016000815260006020820181905260409091015290565b5b80821115614e975760008155600101614e83565b5090565b600081518084526020808501945080840160005b83811015614ed45781516001600160a01b031687529582019590820190600101614eaf565b509495945050505050565b602081526000614c1e6020830184614e9b565b6001600160a01b0381168114611b6a57600080fd5b803561248181614ef2565b600060208284031215614f2457600080fd5b8135614c1e81614ef2565b600080600080600060a08688031215614f4757600080fd5b8535614f5281614ef2565b97602087013597506040870135966060810135965060800135945092505050565b634e487b7160e01b600052604160045260246000fd5b604051601f8201601f191681016001600160401b0381118282101715614fb157614fb1614f73565b604052919050565b60006001600160401b03821115614fd257614fd2614f73565b5060051b60200190565b600082601f830112614fed57600080fd5b81356020615002614ffd83614fb9565b614f89565b82815260059290921b8401810191818101908684111561502157600080fd5b8286015b8481101561503c5780358352918301918301615025565b509695505050505050565b60008060008060008060008060006101208a8c03121561506657600080fd5b61506f8a614f07565b985060208a01356001600160401b038082111561508b57600080fd5b6150978d838e01614fdc565b995060408c01359150808211156150ad57600080fd5b6150b98d838e01614fdc565b985060608c0135975060808c0135965060a08c01359150808211156150dd57600080fd5b6150e98d838e01614fdc565b955060c08c01359150808211156150ff57600080fd5b5061510c8c828d01614fdc565b93505060e08a013591506101008a013590509295985092959850929598565b6000602080838503121561513e57600080fd5b82356001600160401b0381111561515457600080fd5b8301601f8101851361516557600080fd5b8035615173614ffd82614fb9565b81815260059190911b8201830190838101908783111561519257600080fd5b928401925b828410156151b95783356151aa81614ef2565b82529284019290840190615197565b979650505050505050565b60008060008060008060c087890312156151dd57600080fd5b86356151e881614ef2565b9860208801359850604088013597606081013597506080810135965060a00135945092505050565b6000806040838503121561522357600080fd5b50508035926020909101359150565b634e487b7160e01b600052602160045260246000fd5b6002811061525857615258615232565b9052565b6003811061525857615258615232565b602080825282518282018190526000919060409081850190868401855b8281101561534257815180516001600160a01b0390811686528782015188870152868201518116878701526060808301518216908701526080808301519091169086015260a0808201519086015260c08082015115159086015260e080820151908601526101008082015161530082880182615248565b5050610120808201516153158288018261525c565b50506101408181015115159086015261016090810151908501526101809093019290850190600101615289565b5091979650505050505050565b600080600080600080600060e0888a03121561536a57600080fd5b873561537581614ef2565b96506020880135955060408801359450606088013593506080880135925060a0880135915060c08801356153a881614ef2565b8091505092959891949750929550565b6000602082840312156153ca57600080fd5b5035919050565b8881526001600160a01b03888116602083015260408201889052606082018790526080820186905260a08201859052831660c0820152610100810161541960e083018461525c565b9998505050505050505050565b60008060006060848603121561543b57600080fd5b505081359360208301359350604090920135919050565b6001600160a01b038d81168252602082018d90528b811660408301528a811660608301528916608082015260a0810188905286151560c082015260e0810186905261018081016154a6610100830187615248565b6154b461012083018661525c565b92151561014082015261016001529a9950505050505050505050565b600080604083850312156154e357600080fd5b82356154ee81614ef2565b946020939093013593505050565b6000806040838503121561550f57600080fd5b82356001600160401b0381111561552557600080fd5b61553185828601614fdc565b9250506020830135801515811461554757600080fd5b809150509250929050565b6000806040838503121561556557600080fd5b823561557081614ef2565b9150602083013561554781614ef2565b60006020828403121561559257600080fd5b81356001600160401b038111156155a857600080fd5b6155b484828501614fdc565b949350505050565b600080600080608085870312156155d257600080fd5b84356155dd81614ef2565b966020860135965060408601359560600135945092505050565b6020808252604a908201527f596f7520617265207065726d656e616e746c792064656c657465642066726f6d60408201527f207468697320706c6174666f726d20666f722076696f6c6174696e6720746865606082015269103837b634b1b4b2b99760b11b608082015260a00190565b6020808252818101527f596f75206172652062616e6e6564206f6e207468697320706c6174666f726d2e604082015260600190565b60208082526036908201527f546865206f776e6572206f662074686973206e667420697320626c61636b6c6960408201527539ba32b21037b7103a3434b990383630ba3337b9369760511b606082015260800190565b6020808252603d908201527f546865206f776e6572206f662074686973206e6674206973207065726d616e6160408201527f6e746c792062616e6e6564206f6e207468697320706c6174666f726d2e000000606082015260800190565b6020808252601a908201527f54686973204e4654206973206e6f742061742061756374696f6e000000000000604082015260600190565b6020808252601d908201527f4e6674206973206e6f74206c697374656420746f207075726368617365000000604082015260600190565b6020808252601b908201527f596f7520617265206e6f7420696e207468652066616e206c6973740000000000604082015260600190565b634e487b7160e01b600052601160045260246000fd5b81810381811115613295576132956157f4565b60208082526026908201527f4e6f7420656e6f75676820657468657220746f20636f7665722061736b696e6760408201526520707269636560d01b606082015260800190565b8082028115828204841417613295576132956157f4565b6001600160a01b03929092168252602082015260400190565b6000826158b057634e487b7160e01b600052601260045260246000fd5b500490565b6001600160a01b039384168152919092166020820152604081019190915260600190565b6001600160a01b039586168152602081019490945291841660408401529092166060820152608081019190915260a00190565b634e487b7160e01b600052603260045260246000fd5b6001600160a01b0396871681526020810195909552928516604085015293166060830152608082019290925260a081019190915260c00190565b60006001820161596e5761596e6157f4565b5060010190565b60006020828403121561598757600080fd5b8151614c1e81614ef2565b8281526040602082015260006155b46040830184614e9b565b600060208083850312156159be57600080fd5b82516001600160401b038111156159d457600080fd5b8301601f810185136159e557600080fd5b80516159f3614ffd82614fb9565b81815260059190911b82018301908381019087831115615a1257600080fd5b928401925b828410156151b957835182529284019290840190615a17565b848152608060208201526000615a496080830186614e9b565b6001600160a01b03949094166040830152506060015292915050565b85815284602082015260a060408201526000615a8460a0830186614e9b565b6001600160a01b0394909416606083015250608001529392505050565b805169ffffffffffffffffffff8116811461248157600080fd5b600080600080600060a08688031215615ad357600080fd5b615adc86615aa1565b9450602086015193506040860151925060608601519150615aff60808701615aa1565b90509295509295909350565b634e487b7160e01b600052603160045260246000fd5b60208082526029908201527f54686973204e4654206973206e6f74206f6e2061756374696f6e206174207468604082015268329036b7b6b2b73a1760b91b606082015260800190565b6020808252601c908201527f4d696e696d756d206269642068617320746f2062652068696768657200000000604082015260600190565b6020808252603c908201527f596f75206861766520746f2062696420686967686572207468616e207468652060408201527f686967686573742062696420746f206d616b6520616e206f6666657200000000606082015260800190565b6020808252601990820152782a3434b99027232a1034b99030ba1030ba1030bab1ba34b7b760391b604082015260600190565b80820180821115613295576132956157f4565b9283526001600160a01b03919091166020830152604082015260600190565b9384526001600160a01b03928316602085015291166040830152606082015260800190565b6000815180845260005b81811015615cae57602081850181015186830182015201615c92565b506000602082860101526020601f19601f83011685010191505092915050565b604081526000615ce16040830185615c88565b90508260208301529392505050565b602081526000614c1e6020830184615c88565b604081526000615d166040830185615c88565b905060018060a01b0383166020830152939250505056fe4f6e6c7920746865206f776e6572206f6620616e206e66742063616e20736574207468652066616e206c6973742e16f1dbd97e6bf646d429ed186cce832f1f7fd9907814293b83181e9970ab7bd2a2646970667358221220a7a96381e6c9cced136e8c96abbfd2ba637d8166e46873e92c6df1166b3650e564736f6c63430008130033",
  "linkReferences": {},
  "deployedLinkReferences": {}
}