{
  "_format": "hh-sol-artifact-1",
  "contractName": "ArtiziaMarketplace",
  "sourceName": "contracts/ArtiziaMarketplace.sol",
  "abi": [
    {
      "inputs": [
        {
          "internalType": "address",
          "name": "_token",
          "type": "address"
        }
      ],
      "stateMutability": "nonpayable",
      "type": "constructor"
    },
    {
      "inputs": [],
      "name": "invalidListingType",
      "type": "error"
    },
    {
      "inputs": [],
      "name": "invalidPrice",
      "type": "error"
    },
    {
      "anonymous": false,
      "inputs": [
        {
          "indexed": false,
          "internalType": "address",
          "name": "nftContract",
          "type": "address"
        },
        {
          "indexed": false,
          "internalType": "uint256",
          "name": "tokenId",
          "type": "uint256"
        },
        {
          "indexed": false,
          "internalType": "address",
          "name": "seller",
          "type": "address"
        },
        {
          "indexed": false,
          "internalType": "address",
          "name": "owner",
          "type": "address"
        },
        {
          "indexed": false,
          "internalType": "uint256",
          "name": "price",
          "type": "uint256"
        },
        {
          "indexed": false,
          "internalType": "uint256",
          "name": "collectionId",
          "type": "uint256"
        },
        {
          "indexed": false,
          "internalType": "uint256",
          "name": "listingType",
          "type": "uint256"
        }
      ],
      "name": "NFTListed",
      "type": "event"
    },
    {
      "anonymous": false,
      "inputs": [
        {
          "indexed": false,
          "internalType": "address",
          "name": "nftContract",
          "type": "address"
        },
        {
          "indexed": false,
          "internalType": "uint256",
          "name": "tokenId",
          "type": "uint256"
        },
        {
          "indexed": false,
          "internalType": "address",
          "name": "seller",
          "type": "address"
        },
        {
          "indexed": false,
          "internalType": "address",
          "name": "buyer",
          "type": "address"
        },
        {
          "indexed": false,
          "internalType": "uint256",
          "name": "price",
          "type": "uint256"
        }
      ],
      "name": "NFTSold",
      "type": "event"
    },
    {
      "anonymous": false,
      "inputs": [
        {
          "indexed": true,
          "internalType": "address",
          "name": "previousOwner",
          "type": "address"
        },
        {
          "indexed": true,
          "internalType": "address",
          "name": "newOwner",
          "type": "address"
        }
      ],
      "name": "OwnershipTransferred",
      "type": "event"
    },
    {
      "anonymous": false,
      "inputs": [
        {
          "indexed": false,
          "internalType": "address[]",
          "name": "fans",
          "type": "address[]"
        }
      ],
      "name": "addedFans",
      "type": "event"
    },
    {
      "anonymous": false,
      "inputs": [
        {
          "indexed": false,
          "internalType": "uint256",
          "name": "tokenId",
          "type": "uint256"
        },
        {
          "indexed": false,
          "internalType": "address",
          "name": "seller",
          "type": "address"
        },
        {
          "indexed": false,
          "internalType": "uint256",
          "name": "newTime",
          "type": "uint256"
        }
      ],
      "name": "auctionEndTimeIncreased",
      "type": "event"
    },
    {
      "anonymous": false,
      "inputs": [
        {
          "indexed": false,
          "internalType": "uint256",
          "name": "tokenId",
          "type": "uint256"
        },
        {
          "indexed": false,
          "internalType": "address",
          "name": "seller",
          "type": "address"
        },
        {
          "indexed": false,
          "internalType": "address",
          "name": "highestBidder",
          "type": "address"
        },
        {
          "indexed": false,
          "internalType": "uint256",
          "name": "highestBid",
          "type": "uint256"
        }
      ],
      "name": "receivedABid",
      "type": "event"
    },
    {
      "anonymous": false,
      "inputs": [
        {
          "indexed": false,
          "internalType": "address",
          "name": "fan",
          "type": "address"
        }
      ],
      "name": "removeFan",
      "type": "event"
    },
    {
      "stateMutability": "payable",
      "type": "fallback"
    },
    {
      "inputs": [],
      "name": "UNISWAP_ROUTER_ADDRESS",
      "outputs": [
        {
          "internalType": "address",
          "name": "",
          "type": "address"
        }
      ],
      "stateMutability": "view",
      "type": "function"
    },
    {
      "inputs": [],
      "name": "USDT_ADDRESS",
      "outputs": [
        {
          "internalType": "address",
          "name": "",
          "type": "address"
        }
      ],
      "stateMutability": "view",
      "type": "function"
    },
    {
      "inputs": [
        {
          "internalType": "uint256",
          "name": "",
          "type": "uint256"
        }
      ],
      "name": "_idToAuction",
      "outputs": [
        {
          "internalType": "uint256",
          "name": "tokenId",
          "type": "uint256"
        },
        {
          "internalType": "address payable",
          "name": "seller",
          "type": "address"
        },
        {
          "internalType": "uint256",
          "name": "basePrice",
          "type": "uint256"
        },
        {
          "internalType": "uint256",
          "name": "startTime",
          "type": "uint256"
        },
        {
          "internalType": "uint256",
          "name": "endTime",
          "type": "uint256"
        },
        {
          "internalType": "uint256",
          "name": "highestBid",
          "type": "uint256"
        },
        {
          "internalType": "address payable",
          "name": "highestBidder",
          "type": "address"
        },
        {
          "internalType": "enum ArtiziaMarketplace.PaymentMethod",
          "name": "highestBidCurrency",
          "type": "uint8"
        }
      ],
      "stateMutability": "view",
      "type": "function"
    },
    {
      "inputs": [
        {
          "internalType": "uint256",
          "name": "",
          "type": "uint256"
        }
      ],
      "name": "_idToNFT",
      "outputs": [
        {
          "internalType": "address",
          "name": "nftContract",
          "type": "address"
        },
        {
          "internalType": "uint256",
          "name": "tokenId",
          "type": "uint256"
        },
        {
          "internalType": "address payable",
          "name": "firstOwner",
          "type": "address"
        },
        {
          "internalType": "address payable",
          "name": "seller",
          "type": "address"
        },
        {
          "internalType": "address payable",
          "name": "owner",
          "type": "address"
        },
        {
          "internalType": "uint256",
          "name": "price",
          "type": "uint256"
        },
        {
          "internalType": "bool",
          "name": "listed",
          "type": "bool"
        },
        {
          "internalType": "uint256",
          "name": "royaltyPrice",
          "type": "uint256"
        },
        {
          "internalType": "enum ArtiziaMarketplace.ListingType",
          "name": "listingType",
          "type": "uint8"
        },
        {
          "internalType": "enum ArtiziaMarketplace.PaymentMethod",
          "name": "paymentMethod",
          "type": "uint8"
        },
        {
          "internalType": "bool",
          "name": "approve",
          "type": "bool"
        },
        {
          "internalType": "uint256",
          "name": "collectionId",
          "type": "uint256"
        }
      ],
      "stateMutability": "view",
      "type": "function"
    },
    {
      "inputs": [
        {
          "internalType": "uint256",
          "name": "",
          "type": "uint256"
        }
      ],
      "name": "_idToNFT2",
      "outputs": [
        {
          "internalType": "uint256",
          "name": "tokenId",
          "type": "uint256"
        },
        {
          "internalType": "bool",
          "name": "onlyFans",
          "type": "bool"
        },
        {
          "internalType": "uint256",
          "name": "fanDiscountPercent",
          "type": "uint256"
        }
      ],
      "stateMutability": "view",
      "type": "function"
    },
    {
      "inputs": [],
      "name": "_nftCount",
      "outputs": [
        {
          "internalType": "uint256",
          "name": "_value",
          "type": "uint256"
        }
      ],
      "stateMutability": "view",
      "type": "function"
    },
    {
      "inputs": [],
      "name": "_nftsSold",
      "outputs": [
        {
          "internalType": "uint256",
          "name": "_value",
          "type": "uint256"
        }
      ],
      "stateMutability": "view",
      "type": "function"
    },
    {
      "inputs": [
        {
          "internalType": "address[]",
          "name": "fans",
          "type": "address[]"
        }
      ],
      "name": "addFans",
      "outputs": [],
      "stateMutability": "nonpayable",
      "type": "function"
    },
    {
      "inputs": [
        {
          "internalType": "uint256[]",
          "name": "_tokenId",
          "type": "uint256[]"
        },
        {
          "internalType": "bool",
          "name": "_decision",
          "type": "bool"
        }
      ],
      "name": "approveNfts",
      "outputs": [
        {
          "internalType": "bool",
          "name": "",
          "type": "bool"
        }
      ],
      "stateMutability": "nonpayable",
      "type": "function"
    },
    {
      "inputs": [
        {
          "internalType": "address",
          "name": "_user",
          "type": "address"
        }
      ],
      "name": "banUser",
      "outputs": [],
      "stateMutability": "nonpayable",
      "type": "function"
    },
    {
      "inputs": [
        {
          "internalType": "address",
          "name": "",
          "type": "address"
        }
      ],
      "name": "bannedUsers",
      "outputs": [
        {
          "internalType": "bool",
          "name": "",
          "type": "bool"
        }
      ],
      "stateMutability": "view",
      "type": "function"
    },
    {
      "inputs": [
        {
          "internalType": "uint256",
          "name": "_tokenId",
          "type": "uint256"
        },
        {
          "internalType": "uint256",
          "name": "_bidCurrency",
          "type": "uint256"
        }
      ],
      "name": "bidInETH",
      "outputs": [],
      "stateMutability": "payable",
      "type": "function"
    },
    {
      "inputs": [
        {
          "internalType": "uint256",
          "name": "_tokenId",
          "type": "uint256"
        },
        {
          "internalType": "uint256",
          "name": "_amount",
          "type": "uint256"
        },
        {
          "internalType": "uint256",
          "name": "_bidCurrency",
          "type": "uint256"
        }
      ],
      "name": "bidInUSDT",
      "outputs": [],
      "stateMutability": "payable",
      "type": "function"
    },
    {
      "inputs": [
        {
          "internalType": "address",
          "name": "_nftContract",
          "type": "address"
        },
        {
          "internalType": "uint256",
          "name": "_paymentMethod",
          "type": "uint256"
        },
        {
          "internalType": "uint256",
          "name": "_tokenId",
          "type": "uint256"
        },
        {
          "internalType": "uint256",
          "name": "_sellerPercent",
          "type": "uint256"
        },
        {
          "internalType": "uint256",
          "name": "_buyerPercent",
          "type": "uint256"
        }
      ],
      "name": "buyWithETH",
      "outputs": [],
      "stateMutability": "payable",
      "type": "function"
    },
    {
      "inputs": [
        {
          "internalType": "address",
          "name": "_nftContract",
          "type": "address"
        },
        {
          "internalType": "uint256",
          "name": "_paymentMethod",
          "type": "uint256"
        },
        {
          "internalType": "uint256",
          "name": "_tokenId",
          "type": "uint256"
        },
        {
          "internalType": "uint256",
          "name": "_amount",
          "type": "uint256"
        },
        {
          "internalType": "uint256",
          "name": "_sellerPercent",
          "type": "uint256"
        },
        {
          "internalType": "uint256",
          "name": "_buyerPercent",
          "type": "uint256"
        }
      ],
      "name": "buyWithUSDT",
      "outputs": [],
      "stateMutability": "payable",
      "type": "function"
    },
    {
      "inputs": [
        {
          "internalType": "uint256",
          "name": "_tokenId",
          "type": "uint256"
        },
        {
          "internalType": "uint256",
          "name": "_newDiscountPercent",
          "type": "uint256"
        }
      ],
      "name": "changeFanDiscountPercent",
      "outputs": [],
      "stateMutability": "nonpayable",
      "type": "function"
    },
    {
      "inputs": [],
      "name": "checkBannedOrDeletedUser",
      "outputs": [
        {
          "internalType": "bool",
          "name": "",
          "type": "bool"
        }
      ],
      "stateMutability": "view",
      "type": "function"
    },
    {
      "inputs": [
        {
          "internalType": "uint256",
          "name": "_tokenId",
          "type": "uint256"
        }
      ],
      "name": "checkFan",
      "outputs": [
        {
          "internalType": "bool",
          "name": "",
          "type": "bool"
        }
      ],
      "stateMutability": "view",
      "type": "function"
    },
    {
      "inputs": [
        {
          "internalType": "address",
          "name": "_nftContract",
          "type": "address"
        },
        {
          "internalType": "uint256",
          "name": "_tokenId",
          "type": "uint256"
        },
        {
          "internalType": "uint256",
          "name": "_sellerPercent",
          "type": "uint256"
        },
        {
          "internalType": "uint256",
          "name": "_buyerPercent",
          "type": "uint256"
        }
      ],
      "name": "closeAuction",
      "outputs": [],
      "stateMutability": "payable",
      "type": "function"
    },
    {
      "inputs": [
        {
          "internalType": "uint256",
          "name": "",
          "type": "uint256"
        },
        {
          "internalType": "uint256",
          "name": "",
          "type": "uint256"
        }
      ],
      "name": "collection",
      "outputs": [
        {
          "internalType": "uint256",
          "name": "",
          "type": "uint256"
        }
      ],
      "stateMutability": "view",
      "type": "function"
    },
    {
      "inputs": [
        {
          "internalType": "address",
          "name": "_user",
          "type": "address"
        }
      ],
      "name": "deleteUser",
      "outputs": [],
      "stateMutability": "nonpayable",
      "type": "function"
    },
    {
      "inputs": [
        {
          "internalType": "address",
          "name": "",
          "type": "address"
        }
      ],
      "name": "deletedUsers",
      "outputs": [
        {
          "internalType": "bool",
          "name": "",
          "type": "bool"
        }
      ],
      "stateMutability": "view",
      "type": "function"
    },
    {
      "inputs": [
        {
          "internalType": "address",
          "name": "",
          "type": "address"
        },
        {
          "internalType": "uint256",
          "name": "",
          "type": "uint256"
        }
      ],
      "name": "fanLists",
      "outputs": [
        {
          "internalType": "address",
          "name": "",
          "type": "address"
        }
      ],
      "stateMutability": "view",
      "type": "function"
    },
    {
      "inputs": [
        {
          "internalType": "uint256",
          "name": "_collectionId",
          "type": "uint256"
        }
      ],
      "name": "getCollectionNfts",
      "outputs": [
        {
          "components": [
            {
              "internalType": "address",
              "name": "nftContract",
              "type": "address"
            },
            {
              "internalType": "uint256",
              "name": "tokenId",
              "type": "uint256"
            },
            {
              "internalType": "address payable",
              "name": "firstOwner",
              "type": "address"
            },
            {
              "internalType": "address payable",
              "name": "seller",
              "type": "address"
            },
            {
              "internalType": "address payable",
              "name": "owner",
              "type": "address"
            },
            {
              "internalType": "uint256",
              "name": "price",
              "type": "uint256"
            },
            {
              "internalType": "bool",
              "name": "listed",
              "type": "bool"
            },
            {
              "internalType": "uint256",
              "name": "royaltyPrice",
              "type": "uint256"
            },
            {
              "internalType": "enum ArtiziaMarketplace.ListingType",
              "name": "listingType",
              "type": "uint8"
            },
            {
              "internalType": "enum ArtiziaMarketplace.PaymentMethod",
              "name": "paymentMethod",
              "type": "uint8"
            },
            {
              "internalType": "bool",
              "name": "approve",
              "type": "bool"
            },
            {
              "internalType": "uint256",
              "name": "collectionId",
              "type": "uint256"
            }
          ],
          "internalType": "struct ArtiziaMarketplace.NFT[]",
          "name": "",
          "type": "tuple[]"
        }
      ],
      "stateMutability": "view",
      "type": "function"
    },
    {
      "inputs": [],
      "name": "getCurrentTimestamp",
      "outputs": [
        {
          "internalType": "uint256",
          "name": "",
          "type": "uint256"
        }
      ],
      "stateMutability": "view",
      "type": "function"
    },
    {
      "inputs": [
        {
          "internalType": "address",
          "name": "user",
          "type": "address"
        }
      ],
      "name": "getFans",
      "outputs": [
        {
          "internalType": "address[]",
          "name": "",
          "type": "address[]"
        }
      ],
      "stateMutability": "view",
      "type": "function"
    },
    {
      "inputs": [],
      "name": "getLatestUSDTPrice",
      "outputs": [
        {
          "internalType": "uint256",
          "name": "",
          "type": "uint256"
        }
      ],
      "stateMutability": "view",
      "type": "function"
    },
    {
      "inputs": [],
      "name": "getListedNfts",
      "outputs": [
        {
          "components": [
            {
              "internalType": "address",
              "name": "nftContract",
              "type": "address"
            },
            {
              "internalType": "uint256",
              "name": "tokenId",
              "type": "uint256"
            },
            {
              "internalType": "address payable",
              "name": "firstOwner",
              "type": "address"
            },
            {
              "internalType": "address payable",
              "name": "seller",
              "type": "address"
            },
            {
              "internalType": "address payable",
              "name": "owner",
              "type": "address"
            },
            {
              "internalType": "uint256",
              "name": "price",
              "type": "uint256"
            },
            {
              "internalType": "bool",
              "name": "listed",
              "type": "bool"
            },
            {
              "internalType": "uint256",
              "name": "royaltyPrice",
              "type": "uint256"
            },
            {
              "internalType": "enum ArtiziaMarketplace.ListingType",
              "name": "listingType",
              "type": "uint8"
            },
            {
              "internalType": "enum ArtiziaMarketplace.PaymentMethod",
              "name": "paymentMethod",
              "type": "uint8"
            },
            {
              "internalType": "bool",
              "name": "approve",
              "type": "bool"
            },
            {
              "internalType": "uint256",
              "name": "collectionId",
              "type": "uint256"
            }
          ],
          "internalType": "struct ArtiziaMarketplace.NFT[]",
          "name": "",
          "type": "tuple[]"
        }
      ],
      "stateMutability": "view",
      "type": "function"
    },
    {
      "inputs": [
        {
          "internalType": "address",
          "name": "_user",
          "type": "address"
        }
      ],
      "name": "getMyListedNfts",
      "outputs": [
        {
          "components": [
            {
              "internalType": "address",
              "name": "nftContract",
              "type": "address"
            },
            {
              "internalType": "uint256",
              "name": "tokenId",
              "type": "uint256"
            },
            {
              "internalType": "address payable",
              "name": "firstOwner",
              "type": "address"
            },
            {
              "internalType": "address payable",
              "name": "seller",
              "type": "address"
            },
            {
              "internalType": "address payable",
              "name": "owner",
              "type": "address"
            },
            {
              "internalType": "uint256",
              "name": "price",
              "type": "uint256"
            },
            {
              "internalType": "bool",
              "name": "listed",
              "type": "bool"
            },
            {
              "internalType": "uint256",
              "name": "royaltyPrice",
              "type": "uint256"
            },
            {
              "internalType": "enum ArtiziaMarketplace.ListingType",
              "name": "listingType",
              "type": "uint8"
            },
            {
              "internalType": "enum ArtiziaMarketplace.PaymentMethod",
              "name": "paymentMethod",
              "type": "uint8"
            },
            {
              "internalType": "bool",
              "name": "approve",
              "type": "bool"
            },
            {
              "internalType": "uint256",
              "name": "collectionId",
              "type": "uint256"
            }
          ],
          "internalType": "struct ArtiziaMarketplace.NFT[]",
          "name": "",
          "type": "tuple[]"
        }
      ],
      "stateMutability": "view",
      "type": "function"
    },
    {
      "inputs": [
        {
          "internalType": "address",
          "name": "_user",
          "type": "address"
        }
      ],
      "name": "getMyNfts",
      "outputs": [
        {
          "components": [
            {
              "internalType": "address",
              "name": "nftContract",
              "type": "address"
            },
            {
              "internalType": "uint256",
              "name": "tokenId",
              "type": "uint256"
            },
            {
              "internalType": "address payable",
              "name": "firstOwner",
              "type": "address"
            },
            {
              "internalType": "address payable",
              "name": "seller",
              "type": "address"
            },
            {
              "internalType": "address payable",
              "name": "owner",
              "type": "address"
            },
            {
              "internalType": "uint256",
              "name": "price",
              "type": "uint256"
            },
            {
              "internalType": "bool",
              "name": "listed",
              "type": "bool"
            },
            {
              "internalType": "uint256",
              "name": "royaltyPrice",
              "type": "uint256"
            },
            {
              "internalType": "enum ArtiziaMarketplace.ListingType",
              "name": "listingType",
              "type": "uint8"
            },
            {
              "internalType": "enum ArtiziaMarketplace.PaymentMethod",
              "name": "paymentMethod",
              "type": "uint8"
            },
            {
              "internalType": "bool",
              "name": "approve",
              "type": "bool"
            },
            {
              "internalType": "uint256",
              "name": "collectionId",
              "type": "uint256"
            }
          ],
          "internalType": "struct ArtiziaMarketplace.NFT[]",
          "name": "",
          "type": "tuple[]"
        }
      ],
      "stateMutability": "view",
      "type": "function"
    },
    {
      "inputs": [
        {
          "internalType": "uint256",
          "name": "_tokenId",
          "type": "uint256"
        }
      ],
      "name": "getNftApprovalStatus",
      "outputs": [
        {
          "internalType": "bool",
          "name": "",
          "type": "bool"
        }
      ],
      "stateMutability": "view",
      "type": "function"
    },
    {
      "inputs": [
        {
          "internalType": "uint256",
          "name": "_tokenId",
          "type": "uint256"
        }
      ],
      "name": "getStatusOfAuction",
      "outputs": [
        {
          "internalType": "bool",
          "name": "",
          "type": "bool"
        }
      ],
      "stateMutability": "view",
      "type": "function"
    },
    {
      "inputs": [
        {
          "internalType": "address",
          "name": "",
          "type": "address"
        },
        {
          "internalType": "address",
          "name": "",
          "type": "address"
        }
      ],
      "name": "isFan",
      "outputs": [
        {
          "internalType": "bool",
          "name": "",
          "type": "bool"
        }
      ],
      "stateMutability": "view",
      "type": "function"
    },
    {
      "inputs": [
        {
          "internalType": "address",
          "name": "_nftContract",
          "type": "address"
        },
        {
          "internalType": "uint256[]",
          "name": "_tokenId",
          "type": "uint256[]"
        },
        {
          "internalType": "uint256[]",
          "name": "_price",
          "type": "uint256[]"
        },
        {
          "internalType": "uint256",
          "name": "_royaltyPrice",
          "type": "uint256"
        },
        {
          "internalType": "uint256",
          "name": "_listingType",
          "type": "uint256"
        },
        {
          "internalType": "uint256[]",
          "name": "_startTime",
          "type": "uint256[]"
        },
        {
          "internalType": "uint256[]",
          "name": "_endTime",
          "type": "uint256[]"
        },
        {
          "internalType": "uint256",
          "name": "_collectionId",
          "type": "uint256"
        },
        {
          "internalType": "uint256",
          "name": "_paymentMethod",
          "type": "uint256"
        }
      ],
      "name": "listNft",
      "outputs": [],
      "stateMutability": "payable",
      "type": "function"
    },
    {
      "inputs": [],
      "name": "owner",
      "outputs": [
        {
          "internalType": "address",
          "name": "",
          "type": "address"
        }
      ],
      "stateMutability": "view",
      "type": "function"
    },
    {
      "inputs": [
        {
          "internalType": "address",
          "name": "addressToRemove",
          "type": "address"
        }
      ],
      "name": "removeFans",
      "outputs": [],
      "stateMutability": "nonpayable",
      "type": "function"
    },
    {
      "inputs": [],
      "name": "renounceOwnership",
      "outputs": [],
      "stateMutability": "nonpayable",
      "type": "function"
    },
    {
      "inputs": [
        {
          "internalType": "address",
          "name": "_nftContract",
          "type": "address"
        },
        {
          "internalType": "uint256",
          "name": "_tokenId",
          "type": "uint256"
        },
        {
          "internalType": "uint256",
          "name": "_price",
          "type": "uint256"
        },
        {
          "internalType": "uint256",
          "name": "_listingType",
          "type": "uint256"
        },
        {
          "internalType": "uint256",
          "name": "_startTime",
          "type": "uint256"
        },
        {
          "internalType": "uint256",
          "name": "_endTime",
          "type": "uint256"
        },
        {
          "internalType": "address",
          "name": "_user",
          "type": "address"
        }
      ],
      "name": "resellNft",
      "outputs": [],
      "stateMutability": "nonpayable",
      "type": "function"
    },
    {
      "inputs": [
        {
          "internalType": "uint256",
          "name": "usdtAmountOut",
          "type": "uint256"
        }
      ],
      "name": "swapETHForUSDT",
      "outputs": [
        {
          "internalType": "uint256",
          "name": "",
          "type": "uint256"
        }
      ],
      "stateMutability": "payable",
      "type": "function"
    },
    {
      "inputs": [
        {
          "internalType": "uint256",
          "name": "usdtAmountIn",
          "type": "uint256"
        }
      ],
      "name": "swapUSDTForETH",
      "outputs": [
        {
          "internalType": "uint256",
          "name": "",
          "type": "uint256"
        }
      ],
      "stateMutability": "nonpayable",
      "type": "function"
    },
    {
      "inputs": [
        {
          "internalType": "uint256[]",
          "name": "tokenIds",
          "type": "uint256[]"
        }
      ],
      "name": "toggleOnlyFans",
      "outputs": [],
      "stateMutability": "nonpayable",
      "type": "function"
    },
    {
      "inputs": [
        {
          "internalType": "address",
          "name": "newOwner",
          "type": "address"
        }
      ],
      "name": "transferOwnership",
      "outputs": [],
      "stateMutability": "nonpayable",
      "type": "function"
    },
    {
      "inputs": [
        {
          "internalType": "address",
          "name": "_user",
          "type": "address"
        }
      ],
      "name": "unbanUser",
      "outputs": [],
      "stateMutability": "nonpayable",
      "type": "function"
    },
    {
      "stateMutability": "payable",
      "type": "receive"
    }
  ],
  "bytecode": "0x6080604052600d80546001600160a01b0319908116737a250d5630b4cf539739df2c5dacb4c659f2488d17909155600e805490911673dac17f958d2ee523a2206206994597c13d831ec71790553480156200005957600080fd5b5060405162005b4138038062005b418339810160408190526200007c9162000120565b60016000556200008c33620000ce565b60048054336001600160a01b031991821617909155600d54600f80546001600160a01b0392831690841617905560108054909216921691909117905562000152565b600180546001600160a01b038381166001600160a01b0319831681179093556040519116919082907f8be0079c531659141344cd1fd0a4f28419497f9722a3daafe3b4186f6b6457e090600090a35050565b6000602082840312156200013357600080fd5b81516001600160a01b03811681146200014b57600080fd5b9392505050565b6159df80620001626000396000f3fe6080604052600436106102485760003560e01c80638d6cb3fb11610138578063c1892058116100b0578063ed5a1c0f11610077578063ed5a1c0f14610852578063f1ff9d0d1461088d578063f2fde38b146108ad578063f3ed87e4146108cd578063f41dfb18146108e0578063f6c1b77a146108f357005b8063c1892058146107a2578063c36ac2d2146107c2578063d6cbb202146107e2578063d6fc3dbd146107f9578063ecb4ad0c1461081957005b80639ea36e88116100ff5780639ea36e88146105bb578063a8ab8c031461060c578063b4fa041214610639578063b8b3455d146106be578063b9e07df1146106d1578063bbffa07b1461078257005b80638d6cb3fb146104f95780638da5cb5b1461050e57806398dd36bf1461052c5780639a6e94be146105415780639c7440581461059b57005b80635c60f226116101cb578063719b218811610192578063719b21881461040e57806377ec6a471461042e57806379b369431461045e5780638090551e146104965780638988d078146104a95780638cd410f4146104d957005b80635c60f226146103865780635ca11fa3146103a65780636c9230db146103c65780636f9e8876146103d9578063715018a6146103f957005b806348a51f531161020f57806348a51f53146102e15780634afbcdae146102f45780634d12b695146103145780635274cff6146103345780635674c2e61461036157005b806310d86b1f146102515780632a448f6c146102715780633000df5d1461028457806331824a491461029757806331a7a70f146102c157005b3661024f57005b005b34801561025d57600080fd5b5061024f61026c366004614aaa565b610913565b61024f61027f366004614ac7565b61093f565b61024f610292366004614bdf565b610f0a565b3480156102a357600080fd5b506002546102ae9081565b6040519081526020015b60405180910390f35b3480156102cd57600080fd5b5061024f6102dc366004614cc3565b6115cd565b61024f6102ef366004614d5c565b611808565b34801561030057600080fd5b506102ae61030f366004614da8565b611e82565b34801561032057600080fd5b5061024f61032f366004614aaa565b611eb3565b34801561034057600080fd5b5061035461034f366004614aaa565b611edc565b6040516102b89190614e04565b34801561036d57600080fd5b506103766121b8565b60405190151581526020016102b8565b34801561039257600080fd5b5061024f6103a1366004614aaa565b6121f6565b3480156103b257600080fd5b5061024f6103c1366004614da8565b612222565b3480156103d257600080fd5b50426102ae565b3480156103e557600080fd5b5061024f6103f4366004614ee7565b6122bc565b34801561040557600080fd5b5061024f612657565b34801561041a57600080fd5b5061024f610429366004614aaa565b61266b565b34801561043a57600080fd5b50610376610449366004614aaa565b600b6020526000908152604090205460ff1681565b34801561046a57600080fd5b50600d5461047e906001600160a01b031681565b6040516001600160a01b0390911681526020016102b8565b6102ae6104a4366004614f50565b6127c6565b3480156104b557600080fd5b506103766104c4366004614aaa565b600a6020526000908152604090205460ff1681565b3480156104e557600080fd5b506102ae6104f4366004614f50565b612a0f565b34801561050557600080fd5b50610354612ca7565b34801561051a57600080fd5b506001546001600160a01b031661047e565b34801561053857600080fd5b506102ae612ed0565b34801561054d57600080fd5b5061058061055c366004614f50565b600660205260009081526040902080546001820154600290920154909160ff169083565b604080519384529115156020840152908201526060016102b8565b3480156105a757600080fd5b506103766105b6366004614f50565b612f9f565b3480156105c757600080fd5b506103766105d6366004614f50565b6000908152600560209081526040808320600301546001600160a01b031683526007825280832033845290915290205460ff1690565b34801561061857600080fd5b5061062c610627366004614aaa565b612fe4565b6040516102b89190614fad565b34801561064557600080fd5b506106aa610654366004614f50565b600960205260009081526040902080546001820154600283015460038401546004850154600586015460069096015494956001600160a01b0394851695939492939192909190811690600160a01b900460ff1688565b6040516102b8989796959493929190614fc0565b61024f6106cc366004615015565b61308b565b3480156106dd57600080fd5b5061076a6106ec366004614f50565b600560208190526000918252604090912080546001820154600283015460038401546004850154958501546006860154600787015460088801546009909801546001600160a01b03978816999698958816979485169690941694929360ff92831693919282811692610100810482169262010000909104909116908c565b6040516102b89c9b9a99989796959493929190615041565b34801561078e57600080fd5b5061047e61079d3660046150bf565b6135c1565b3480156107ae57600080fd5b50600e5461047e906001600160a01b031681565b3480156107ce57600080fd5b506103546107dd366004614f50565b6135f9565b3480156107ee57600080fd5b506003546102ae9081565b34801561080557600080fd5b506103766108143660046150eb565b613803565b34801561082557600080fd5b50610376610834366004614f50565b60009081526005602052604090206008015462010000900460ff1690565b34801561085e57600080fd5b5061037661086d366004615141565b600760209081526000928352604080842090915290825290205460ff1681565b34801561089957600080fd5b5061024f6108a836600461516f565b61387c565b3480156108b957600080fd5b5061024f6108c8366004614aaa565b61397e565b61024f6108db3660046151ab565b6139f7565b61024f6108ee366004614da8565b614128565b3480156108ff57600080fd5b5061035461090e366004614aaa565b6145a0565b61091b614803565b6001600160a01b03166000908152600a60205260409020805460ff19166001179055565b336000908152600a602052604090205460ff16156109785760405162461bcd60e51b815260040161096f906151e6565b60405180910390fd5b336000908152600b602052604090205460ff16156109a85760405162461bcd60e51b815260040161096f9061521b565b6109b061485d565b60008381526005602052604090206003810154336001600160a01b03909116036109ec5760405162461bcd60e51b815260040161096f9061528b565b60048101546001600160a01b03166000908152600a602052604090205460ff1615610a295760405162461bcd60e51b815260040161096f906152d0565b60048101546001600160a01b03166000908152600b602052604090205460ff1615610a665760405162461bcd60e51b815260040161096f90615326565b6000600882015460ff166001811115610a8157610a81614dca565b14610a9e5760405162461bcd60e51b815260040161096f90615383565b600681015460ff161515600114610ac75760405162461bcd60e51b815260040161096f906153ba565b6000848152600560209081526040808320600301546001600160a01b0316835260078252808320338085529252822054829060ff1615610b4f57600087815260066020526040902060020154610b1e9034906148b6565b610b289034615407565b905080341015610b4a5760405162461bcd60e51b815260040161096f9061541a565b610b76565b8360050154341015610b735760405162461bcd60e51b815260040161096f9061541a565b50345b600284015460038501546001600160a01b03918216911603610c9d57610b9d8187876148d5565b610ba79082615407565b905087600003610bf75760038401546040516001600160a01b039091169082156108fc029083906000818181858888f19350505050158015610bed573d6000803e3d6000fd5b5060019250610e04565b610c00816127c6565b506000610c0b612ed0565b610c159083615460565b90506000610c2682620f4240615460565b601054600388015460405163a9059cbb60e01b81529293506001600160a01b039182169263a9059cbb92610c609216908590600401615477565b600060405180830381600087803b158015610c7a57600080fd5b505af1158015610c8e573d6000803e3d6000fd5b50505050600194505050610e04565b60008190506000610cb28287600701546148b6565b9050610cbf8389896148d5565b610cc98284615407565b610cd39190615407565b60028701546040519194506001600160a01b03169082156108fc029083906000818181858888f19350505050158015610d10573d6000803e3d6000fd5b5089600003610d5f5760038601546040516001600160a01b039091169084156108fc029085906000818181858888f19350505050158015610d55573d6000803e3d6000fd5b5060019450610e01565b610d68836127c6565b506000610d73612ed0565b610d7d9085615490565b90506000610d8e82620f4240615460565b60105460038a015460405163a9059cbb60e01b81529293506001600160a01b039182169263a9059cbb92610dc89216908590600401615477565b600060405180830381600087803b158015610de257600080fd5b505af1158015610df6573d6000803e3d6000fd5b505050506001965050505b50505b8215610ef55760018401546040516323b872dd60e01b81526001600160a01b038b16916323b872dd91610e3e9130918791906004016154b2565b600060405180830381600087803b158015610e5857600080fd5b505af1158015610e6c573d6000803e3d6000fd5b505050506001840154600385015460405160008051602061598a83398151915292610ea8928d926001600160a01b0390911690879034906154d6565b60405180910390a16004840180546001600160a01b0384166001600160a01b031991821617909155600385018054909116905560068401805460ff19169055610ef5600280546001019055565b50505050610f036001600055565b5050505050565b610f1261485d565b336000908152600a602052604090205460ff1615610f425760405162461bcd60e51b815260040161096f906151e6565b336000908152600b602052604090205460ff1615610f725760405162461bcd60e51b815260040161096f9061521b565b60005b88518110156115b7576000888281518110610f9257610f92615509565b60200260200101511015610fb957604051635a93095360e11b815260040160405180910390fd5b6001861115610fdb576040516317142a4d60e01b815260040160405180910390fd5b896001600160a01b03166323b872dd33308c8581518110610ffe57610ffe615509565b60200260200101516040518463ffffffff1660e01b8152600401611024939291906154b2565b600060405180830381600087803b15801561103e57600080fd5b505af1158015611052573d6000803e3d6000fd5b50505050611064600380546001019055565b6000838152600c6020526040902089518a908390811061108657611086615509565b602002602001015190806001815401808255809150506001900390600052602060002001600090919091909150556040518061018001604052808b6001600160a01b031681526020018a83815181106110e1576110e1615509565b60200260200101518152602001336001600160a01b03168152602001336001600160a01b03168152602001306001600160a01b0316815260200189838151811061112d5761112d615509565b6020026020010151815260200160011515815260200188815260200187600181111561115b5761115b614dca565b600181111561116c5761116c614dca565b815260200183600281111561118357611183614dca565b600281111561119457611194614dca565b815260200160001515815260200184815250600560008b84815181106111bc576111bc615509565b6020908102919091018101518252818101929092526040908101600020835181546001600160a01b03199081166001600160a01b039283161783559385015160018084019190915592850151600283018054861691831691909117905560608501516003830180548616918316919091179055608085015160048301805490951691161790925560a0830151600583015560c083015160068301805460ff1990811692151592909217905560e08401516007840155610100840151600884018054919390929190911690838181111561129757611297614dca565b021790555061012082015160088201805461ff0019166101008360028111156112c2576112c2614dca565b02179055506101408201518160080160026101000a81548160ff021916908315150217905550610160820151816009015590505060405180606001604052808a838151811061131357611313615509565b602002602001015181526020016000151581526020016000815250600660008b848151811061134457611344615509565b602090810291909101810151825281810192909252604090810160002083518155918301516001808401805460ff1916921515929092179091559201516002909101558603611530576040518061010001604052808a83815181106113ab576113ab615509565b60200260200101518152602001336001600160a01b031681526020018983815181106113d9576113d9615509565b602002602001015181526020018683815181106113f8576113f8615509565b6020026020010151815260200185838151811061141757611417615509565b602002602001015181526020016000815260200160006001600160a01b0316815260200183600281111561144d5761144d614dca565b600281111561145e5761145e614dca565b815250600960008b848151811061147757611477615509565b602090810291909101810151825281810192909252604090810160002083518155918301516001830180546001600160a01b03199081166001600160a01b039384161790915591840151600280850191909155606085015160038501556080850151600485015560a0850151600585015560c085015160068501805494851691909316908117835560e0860151936001600160a81b0319161790600160a01b90849081111561152857611528614dca565b021790555050505b7f380acab0ee1d651da065961944240ee750b6935ba0edefa78afb1c8e076762868a8a838151811061156457611564615509565b602002602001015133308c868151811061158057611580615509565b6020026020010151888c60405161159d979695949392919061551f565b60405180910390a1806115af81615563565b915050610f75565b506115c26001600055565b505050505050505050565b600081516001600160401b038111156115e8576115e8614b0b565b604051908082528060200260200182016040528015611611578160200160208202803683370190505b50905060005b82518110156117cc57600083828151811061163457611634615509565b6020026020010151905060006001600160a01b0316816001600160a01b0316036116915761168c60405180604001604052806013815260200172496e76616c69642066616e206164647265737360681b81525061491b565b6117b9565b3360009081526007602090815260408083206001600160a01b038516845290915290205460ff16156116f65761168c6040518060400160405280601881526020017720b2323932b9b99034b99030b63932b0b23c9030903330b760411b81525061491b565b3360008181526008602090815260408083208054600180820183559185528385200180546001600160a01b0319166001600160a01b0388169081179091559484526007835281842094845293825291829020805460ff19169093179092558051808201909152601181527011985b881859191959081d1bc81b1a5cdd607a1b918101919091526117859061491b565b8083838151811061179857611798615509565b60200260200101906001600160a01b031690816001600160a01b0316815250505b50806117c481615563565b915050611617565b507fa99d709f8a9c899ba566c9b2515b1715239783ff40126e24d86e081505a7f50e816040516117fc9190614fad565b60405180910390a15050565b336000908152600a602052604090205460ff16156118385760405162461bcd60e51b815260040161096f906151e6565b336000908152600b602052604090205460ff16156118685760405162461bcd60e51b815260040161096f9061521b565b61187061485d565b60008481526005602052604090206003810154336001600160a01b03909116036118ac5760405162461bcd60e51b815260040161096f9061528b565b60006118b6612ed0565b905060006118c98664e8d4a51000615460565b90506118d58282615460565b90506118e9670de0b6b3a764000082615490565b60048401546001600160a01b03166000908152600a602052604090205490915060ff16156119295760405162461bcd60e51b815260040161096f906152d0565b60048301546001600160a01b03166000908152600b602052604090205460ff16156119665760405162461bcd60e51b815260040161096f90615326565b6000600884015460ff16600181111561198157611981614dca565b1461199e5760405162461bcd60e51b815260040161096f90615383565b600683015460ff1615156001146119c75760405162461bcd60e51b815260040161096f906153ba565b6000878152600560209081526040808320600301546001600160a01b031683526007825280832033845290915281205460ff1615611a4d57600088815260066020526040902060020154611a1c9083906148b6565b611a269083615407565b905080821015611a485760405162461bcd60e51b815260040161096f9061557c565b611a74565b8360050154821015611a715760405162461bcd60e51b815260040161096f9061557c565b50805b6010546040516323b872dd60e01b8152600091339183916001600160a01b0316906323b872dd90611aad90859030908f906004016154b2565b600060405180830381600087803b158015611ac757600080fd5b505af1158015611adb573d6000803e3d6000fd5b50505050600287015460038801546001600160a01b03918216911603611be057611b068a8a8a6148d5565b611b10908b615407565b93508b600103611b8d57601054600388015460405163a9059cbb60e01b81526001600160a01b039283169263a9059cbb92611b52929116908890600401615477565b600060405180830381600087803b158015611b6c57600080fd5b505af1158015611b80573d6000803e3d6000fd5b5050505060019250611d70565b6000611b9885612a0f565b60038901546040519192506001600160a01b03169082156108fc029083906000818181858888f19350505050158015611bd5573d6000803e3d6000fd5b506001935050611d70565b6000611bf08b89600701546148b6565b9050611bfc818c615407565b9150611c09828b8b6148d5565b611c13908c615407565b60105460028a015460405163a9059cbb60e01b81529297506001600160a01b039182169263a9059cbb92611c4d9216908590600401615477565b600060405180830381600087803b158015611c6757600080fd5b505af1158015611c7b573d6000803e3d6000fd5b505050508c600103611d0c576000611c9686620f4240615460565b60105460038b015460405163a9059cbb60e01b81529293506001600160a01b039182169263a9059cbb92611cd09216908590600401615477565b600060405180830381600087803b158015611cea57600080fd5b505af1158015611cfe573d6000803e3d6000fd5b505050506001945050611d6e565b611d1585612a0f565b506000611d20612ed0565b611d2a9087615460565b60038a01546040519192506001600160a01b03169082156108fc029083906000818181858888f19350505050158015611d67573d6000803e3d6000fd5b5060019450505b505b8215611e695760018701546040516323b872dd60e01b81526001600160a01b038f16916323b872dd91611daa9130918791906004016154b2565b600060405180830381600087803b158015611dc457600080fd5b505af1158015611dd8573d6000803e3d6000fd5b5050505060008051602061598a8339815191528d88600101548960030160009054906101000a90046001600160a01b03168589604051611e1c9594939291906154d6565b60405180910390a16004870180546001600160a01b0384166001600160a01b031991821617909155600388018054909116905560068701805460ff19169055611e69600280546001019055565b50505050505050611e7a6001600055565b505050505050565b600c6020528160005260406000208181548110611e9e57600080fd5b90600052602060002001600091509150505481565b611ebb614803565b6001600160a01b03166000908152600a60205260409020805460ff19169055565b336000908152600b602052604090205460609060ff1615611f0f5760405162461bcd60e51b815260040161096f9061521b565b336000908152600a602052604090205460ff1615611f3f5760405162461bcd60e51b815260040161096f906151e6565b6000611f4a60035490565b90506000805b82811015611fba576000818152600560205260409020600301546001600160a01b038681169116148015611f95575060008181526005602052604090206006015460ff165b15611fa85781611fa481615563565b9250505b80611fb281615563565b915050611f50565b506000816001600160401b03811115611fd557611fd5614b0b565b60405190808252806020026020018201604052801561200e57816020015b611ffb614a28565b815260200190600190039081611ff35790505b5090506000805b848110156121ab576000818152600560205260409020600301546001600160a01b03888116911614801561205a575060008181526005602052604090206006015460ff165b156121995760008181526005602081815260409283902083516101808101855281546001600160a01b039081168252600180840154948301949094526002830154811695820195909552600382015485166060820152600482015490941660808501529182015460a0840152600682015460ff908116151560c0850152600783015460e085015260088301546101008501929116908111156120fe576120fe614dca565b600181111561210f5761210f614dca565b81526020016008820160019054906101000a900460ff16600281111561213757612137614dca565b600281111561214857612148614dca565b8152600882015462010000900460ff1615156020820152600990910154604090910152835184908490811061217f5761217f615509565b6020026020010181905250818061219590615563565b9250505b806121a381615563565b915050612015565b509093505050505b919050565b336000908152600a602052604081205460ff16806121e55750336000908152600b602052604090205460ff165b156121f05750600190565b50600090565b6121fe614803565b6001600160a01b03166000908152600b60205260409020805460ff19166001179055565b6000828152600560205260409020600301546001600160a01b031633146122a75760405162461bcd60e51b815260206004820152603360248201527f4f6e6c7920746865206f776e6572206f6620616e206e66742063616e20736574604482015272103234b9b1b7bab73a32b210383934b1b2b99760691b606482015260840161096f565b60009182526006602052604090912060020155565b336000908152600a602052604090205460ff16156122ec5760405162461bcd60e51b815260040161096f906151e6565b336000908152600b602052604090205460ff161561231c5760405162461bcd60e51b815260040161096f9061521b565b61232461485d565b60008681526005602052604090208561237f5760405162461bcd60e51b815260206004820152601c60248201527f5072696365206d757374206265206174206c6561737420312077656900000000604482015260640161096f565b60048101546001600160a01b038381169116146123f15760405162461bcd60e51b815260206004820152602a60248201527f4f6e6c7920746865206f776e6572206f6620616e206e66742063616e206c69736044820152693a103a34329037333a1760b11b606482015260840161096f565b6040516323b872dd60e01b81526001600160a01b038916906323b872dd9061242190859030908c906004016154b2565b600060405180830381600087803b15801561243b57600080fd5b505af115801561244f573d6000803e3d6000fd5b5050506003820180546001600160a01b0385166001600160a01b03199182161790915560048301805490911630179055506005810186905560068101805460ff1916600190811790915585908111156124aa576124aa614dca565b60088201805460ff1916600183818111156124c7576124c7614dca565b0217905550600185036125f257604051806101000160405280888152602001836001600160a01b031681526020018781526020018581526020018481526020016000815260200160006001600160a01b031681526020018260080160019054906101000a900460ff16600281111561254157612541614dca565b905260008881526009602090815260409182902083518155908301516001820180546001600160a01b03199081166001600160a01b039384161790915592840151600280840191909155606085015160038401556080850151600484015560a0850151600584015560c085015160068401805495861691909316908117835560e086015193946001600160a81b0319161790600160a01b9084908111156125ea576125ea614dca565b021790555050505b6125fc600261495e565b7f380acab0ee1d651da065961944240ee750b6935ba0edefa78afb1c8e07676286888884308a86600901548b60405161263b979695949392919061551f565b60405180910390a15061264e6001600055565b50505050505050565b61265f614803565b61266960006149b5565b565b336000908152600860205260408120905b81548110156127c157826001600160a01b03168282815481106126a1576126a1615509565b6000918252602090912001546001600160a01b0316036127af57815482906126cb90600190615407565b815481106126db576126db615509565b9060005260206000200160009054906101000a90046001600160a01b031682828154811061270b5761270b615509565b9060005260206000200160006101000a8154816001600160a01b0302191690836001600160a01b0316021790555081805480612749576127496155c3565b6000828152602090819020600019908301810180546001600160a01b03191690559091019091556040516001600160a01b03851681527f89ec8e1c730740239f81b0dfce48eedca9d700bbc36fe56311fe9175c16f64ad910160405180910390a1505050565b806127b981615563565b91505061267c565b505050565b604080516002808252606082018352600092839291906020830190803683375050600f54604080516315ab88c960e31b815290519394506001600160a01b039091169263ad5c4648925060048083019260209291908290030181865afa158015612834573d6000803e3d6000fd5b505050506040513d601f19601f8201168201806040525081019061285891906155d9565b8160008151811061286b5761286b615509565b6001600160a01b039283166020918202929092010152600e5482519116908290600190811061289c5761289c615509565b6001600160a01b039290921660209283029190910182015260408051600280825260608201835260009391929091830190803683375050600f5460405163d06ca61f60e01b81529293506001600160a01b03169163d06ca61f915061290790879086906004016155f6565b600060405180830381865afa158015612924573d6000803e3d6000fd5b505050506040513d6000823e601f3d908101601f1916820160405261294c919081019061560f565b600f5481519192506001600160a01b031690637ff36ab59034908490600190811061297957612979615509565b60200260200101518530426040518663ffffffff1660e01b81526004016129a39493929190615694565b60006040518083038185885af11580156129c1573d6000803e3d6000fd5b50505050506040513d6000823e601f3d908101601f191682016040526129ea919081019061560f565b50806001815181106129fe576129fe615509565b602002602001015192505050919050565b604080516002808252606082018352600092839291906020830190803683375050600e5482519293506001600160a01b031691839150600090612a5457612a54615509565b6001600160a01b03928316602091820292909201810191909152600f54604080516315ab88c960e31b81529051919093169263ad5c46489260048083019391928290030181865afa158015612aad573d6000803e3d6000fd5b505050506040513d601f19601f82011682018060405250810190612ad191906155d9565b81600181518110612ae457612ae4615509565b6001600160a01b039283166020918202929092010152601054600d5460405163095ea7b360e01b81529183169263095ea7b392612b2992909116908790600401615477565b600060405180830381600087803b158015612b4357600080fd5b505af1158015612b57573d6000803e3d6000fd5b506000925060029150612b679050565b604051908082528060200260200182016040528015612b90578160200160208202803683370190505b50600f5460405163d06ca61f60e01b81529192506001600160a01b03169063d06ca61f90612bc490879086906004016155f6565b600060405180830381865afa158015612be1573d6000803e3d6000fd5b505050506040513d6000823e601f3d908101601f19168201604052612c09919081019061560f565b600f5481519192506001600160a01b031690634a25d94a9083906001908110612c3457612c34615509565b6020026020010151868530426040518663ffffffff1660e01b8152600401612c609594939291906156c9565b6000604051808303816000875af1158015612c7f573d6000803e3d6000fd5b505050506040513d6000823e601f3d908101601f191682016040526129ea919081019061560f565b336000908152600b602052604090205460609060ff1615612cda5760405162461bcd60e51b815260040161096f9061521b565b6000612ce560035490565b90506000612cf260025490565b612cfc9083615407565b90506000816001600160401b03811115612d1857612d18614b0b565b604051908082528060200260200182016040528015612d5157816020015b612d3e614a28565b815260200190600190039081612d365790505b5090506000805b84811015612ec65760008181526005602052604090206006015460ff1615612eb45760008181526005602081815260409283902083516101808101855281546001600160a01b039081168252600180840154948301949094526002830154811695820195909552600382015485166060820152600482015490941660808501529182015460a0840152600682015460ff908116151560c0850152600783015460e08501526008830154610100850192911690811115612e1957612e19614dca565b6001811115612e2a57612e2a614dca565b81526020016008820160019054906101000a900460ff166002811115612e5257612e52614dca565b6002811115612e6357612e63614dca565b8152600882015462010000900460ff16151560208201526009909101546040909101528351849084908110612e9a57612e9a615509565b60200260200101819052508180612eb090615563565b9250505b80612ebe81615563565b915050612d58565b5090935050505090565b60008073ee9f2375b4bdf6387aa8265dd4fb8f16512a1d4690506000816001600160a01b031663feaf968c6040518163ffffffff1660e01b815260040160a060405180830381865afa158015612f2a573d6000803e3d6000fd5b505050506040513d601f19601f82011682018060405250810190612f4e919061571f565b50505091505060008113612f995760405162461bcd60e51b8152602060048201526012602482015271496e76616c6964205553445420707269636560701b604482015260640161096f565b92915050565b60008181526009602052604081206003015442118015612fcf575060008281526009602052604090206004015442105b15612fdc57506001919050565b506000919050565b336000908152600b602052604090205460609060ff16156130175760405162461bcd60e51b815260040161096f9061521b565b6001600160a01b0382166000908152600860209081526040918290208054835181840281018401909452808452909183018282801561307f57602002820191906000526020600020905b81546001600160a01b03168152600190910190602001808311613061575b50505050509050919050565b6000838152600960205260409020600301548390421180156130bd575060008181526009602052604090206004015442105b6130d95760405162461bcd60e51b815260040161096f9061576f565b336000908152600b602052604090205460ff16156131095760405162461bcd60e51b815260040161096f9061521b565b336000908152600a602052604090205460ff16156131395760405162461bcd60e51b815260040161096f906151e6565b6000613143612ed0565b6000868152600660205260408120600101549192509060ff16156131b0576000868152600560209081526040808320600301546001600160a01b031683526007825280832033845290915290205460ff166131b05760405162461bcd60e51b815260040161096f906157b8565b60006131c18664e8d4a51000615460565b90506131cd8382615460565b90506131e1670de0b6b3a764000082615490565b6000888152600960205260409020600601549091506001600160a01b0316613234576000878152600960205260409020600201548110156132345760405162461bcd60e51b815260040161096f906157ef565b6000878152600960205260409020600501548110156132655760405162461bcd60e51b815260040161096f90615826565b600160008881526005602052604090206008015460ff16600181111561328d5761328d614dca565b146132aa5760405162461bcd60e51b815260040161096f90615883565b60008781526005602052604090206006015460ff1615156001146132e05760405162461bcd60e51b815260040161096f906153ba565b6010546040516323b872dd60e01b81526001600160a01b03909116906323b872dd9061331490339030908b906004016154b2565b600060405180830381600087803b15801561332e57600080fd5b505af1158015613342573d6000803e3d6000fd5b5050506000888152600960205260409020600681015460058201549192506001600160a01b03169081156134845760016006840154600160a01b900460ff16600281111561339257613392614dca565b036134255760006133a1612ed0565b6133ab9083615490565b90506133ba81620f4240615460565b60105460405163a9059cbb60e01b81529192506001600160a01b03169063a9059cbb906133ed9086908590600401615477565b600060405180830381600087803b15801561340757600080fd5b505af115801561341b573d6000803e3d6000fd5b5050505050613484565b60006006840154600160a01b900460ff16600281111561344757613447614dca565b03613484576040516001600160a01b0383169082156108fc029083906000818181858888f19350505050158015613482573d6000803e3d6000fd5b505b600583018490556006830180546001600160a01b031916331790558760028111156134b1576134b1614dca565b60068401805460ff60a01b1916600160a01b8360028111156134d5576134d5614dca565b02179055506134e6426102586158b6565b8360040154101561355b5761012c83600401600082825461350791906158b6565b9091555050600183015460048401546040517f8e1cb85d0855921b3c958b068fa707efb7db88099af764dd47f37eef82c3334d92613552928e926001600160a01b03909216916158c9565b60405180910390a15b600183810154600685015460058601546040519398507f4307392e6f0e441e74a4982d9fa9ddc49b3cd9d3902a9d3ecab0ad3c60a0acd1936135ad938f936001600160a01b03918216939116916158e8565b60405180910390a150505050505050505050565b600860205281600052604060002081815481106135dd57600080fd5b6000918252602090912001546001600160a01b03169150829050565b6060600061360660035490565b9050600061361360025490565b61361d9083615407565b90506000816001600160401b0381111561363957613639614b0b565b60405190808252806020026020018201604052801561367257816020015b61365f614a28565b8152602001906001900390816136575790505b5090506000805b848110156121ab5760008181526005602052604090206006015460ff1680156136b2575060008181526005602052604090206009015487145b156137f15760008181526005602081815260409283902083516101808101855281546001600160a01b039081168252600180840154948301949094526002830154811695820195909552600382015485166060820152600482015490941660808501529182015460a0840152600682015460ff908116151560c0850152600783015460e0850152600883015461010085019291169081111561375657613756614dca565b600181111561376757613767614dca565b81526020016008820160019054906101000a900460ff16600281111561378f5761378f614dca565b60028111156137a0576137a0614dca565b8152600882015462010000900460ff161515602082015260099091015460409091015283518490849081106137d7576137d7615509565b602002602001018190525081806137ed90615563565b9250505b806137fb81615563565b915050613679565b600061380d614803565b6000805b84518110156138715784818151811061382c5761382c615509565b602090810291909101810151600081815260059092526040909120600801805462ff00001916620100008715150217905591508061386981615563565b915050613811565b506001949350505050565b60005b815181101561397a57600082828151811061389c5761389c615509565b602090810291909101810151600081815260059092526040909120600301549091506001600160a01b031633146138f3576138ee6040518060600160405280602e815260200161595c602e913961491b565b613967565b6000818152600560205260409020600301546001600160a01b0316613945576138ee6040518060400160405280601281526020017113919508191bd95cc81b9bdd08195e1a5cdd60721b81525061491b565b6000818152600660205260409020600101805460ff19811660ff909116151790555b508061397281615563565b91505061387f565b5050565b613986614803565b6001600160a01b0381166139eb5760405162461bcd60e51b815260206004820152602660248201527f4f776e61626c653a206e6577206f776e657220697320746865207a65726f206160448201526564647265737360d01b606482015260840161096f565b6139f4816149b5565b50565b6000838152600960205260409020600401544211613a575760405162461bcd60e51b815260206004820152601a60248201527f41756374696f6e20686173206e6f7420656e646564207965742e000000000000604482015260640161096f565b6000838152600960205260409020600601546001600160a01b031615613b2a576000838152600960205260409020600601546001600160a01b0316331480613ab857506000838152600960205260409020600101546001600160a01b031633145b613b255760405162461bcd60e51b815260206004820152603860248201527f4f6e6c792074686520686967686573742062696464657220616e6420746865206044820152771cd95b1b195c8818d85b8818db185a5b481d1a194813919560421b606482015260840161096f565b613ba8565b6000838152600960205260409020600101546001600160a01b03163314613ba85760405162461bcd60e51b815260206004820152602c60248201527f4f6e6c79207468652073656c6c65722063616e20636c6f73652074686520756e60448201526b39b7b6321030bab1ba34b7b760a11b606482015260840161096f565b6000838152600560209081526040808320600990925282206006810154919290916001600160a01b0316613c71576003830154600480850180546001600160a01b0319166001600160a01b0393841617905560068501805460ff19169055600184810154908601546040516323b872dd60e01b81528b8516946323b872dd94613c36943094921692016154b2565b600060405180830381600087803b158015613c5057600080fd5b505af1158015613c64573d6000803e3d6000fd5b50505050600190506140d2565b60058201546000908190816008870154610100900460ff166002811115613c9a57613c9a614dca565b03613e175760016006860154600160a01b900460ff166002811115613cc157613cc1614dca565b03613cf6576000613cd0612ed0565b613cda9083615490565b9050613ce981620f4240615460565b50613cf381612a0f565b50505b600286015460048701546001600160a01b03918216911603613d6a57613d1d8189896148d5565b613d279082615407565b60038701546040519193506001600160a01b03169083156108fc029084906000818181858888f19350505050158015613d64573d6000803e3d6000fd5b5061401c565b613d7c856005015487600701546148b6565b9250613d898189896148d5565b613d938483615407565b613d9d9190615407565b60028701546040519193506001600160a01b03169084156108fc029085906000818181858888f19350505050158015613dda573d6000803e3d6000fd5b5060038601546040516001600160a01b039091169083156108fc029084906000818181858888f19350505050158015613d64573d6000803e3d6000fd5b60016008870154610100900460ff166002811115613e3757613e37614dca565b0361401c5760006006860154600160a01b900460ff166002811115613e5e57613e5e614dca565b03613e6f57613e6c816127c6565b90505b600286015460048701546001600160a01b03918216911603613f1157613e968189896148d5565b613ea09082615407565b601054600388015460405163a9059cbb60e01b81529294506001600160a01b039182169263a9059cbb92613eda9216908690600401615477565b600060405180830381600087803b158015613ef457600080fd5b505af1158015613f08573d6000803e3d6000fd5b5050505061401c565b613f23856005015487600701546148b6565b9250613f308189896148d5565b613f3a8483615407565b613f449190615407565b601054600388015460405163a9059cbb60e01b81529294506001600160a01b039182169263a9059cbb92613f7e9216908690600401615477565b600060405180830381600087803b158015613f9857600080fd5b505af1158015613fac573d6000803e3d6000fd5b5050601054600289015460405163a9059cbb60e01b81526001600160a01b03928316945063a9059cbb9350613fe992909116908790600401615477565b600060405180830381600087803b15801561400357600080fd5b505af1158015614017573d6000803e3d6000fd5b505050505b8361408f57600685015460018701546040516323b872dd60e01b81526001600160a01b038d8116936323b872dd9361405c933093909216916004016154b2565b600060405180830381600087803b15801561407657600080fd5b505af115801561408a573d6000803e3d6000fd5b505050505b6006808601546004880180546001600160a01b0319166001600160a01b039092169190911790558601805460ff191690556140ce600280546001019055565b5050505b600183015460038401546006840154600585015460405160008051602061598a83398151915294614117948d9491936001600160a01b039182169392909116916154d6565b60405180910390a150505050505050565b60008281526009602052604090206003015482904211801561415a575060008181526009602052604090206004015442105b6141765760405162461bcd60e51b815260040161096f9061576f565b336000908152600b602052604090205460ff16156141a65760405162461bcd60e51b815260040161096f9061521b565b336000908152600a602052604090205460ff16156141d65760405162461bcd60e51b815260040161096f906151e6565b60008381526006602052604081206001015460ff161561423f576000848152600560209081526040808320600301546001600160a01b031683526007825280832033845290915290205460ff1661423f5760405162461bcd60e51b815260040161096f906157b8565b6000848152600960205260409020600601546001600160a01b031661428f5760008481526009602052604090206002015434101561428f5760405162461bcd60e51b815260040161096f906157ef565b60008481526009602052604090206005015434116142bf5760405162461bcd60e51b815260040161096f90615826565b600160008581526005602052604090206008015460ff1660018111156142e7576142e7614dca565b146143045760405162461bcd60e51b815260040161096f90615883565b60008481526005602052604090206006015460ff16151560011461433a5760405162461bcd60e51b815260040161096f906153ba565b6000848152600960205260409020600681015460058201546001600160a01b039091169081156144785760016006840154600160a01b900460ff16600281111561438657614386614dca565b03614419576000614395612ed0565b61439f9083615490565b90506143ae81620f4240615460565b60105460405163a9059cbb60e01b81529192506001600160a01b03169063a9059cbb906143e19086908590600401615477565b600060405180830381600087803b1580156143fb57600080fd5b505af115801561440f573d6000803e3d6000fd5b5050505050614478565b60006006840154600160a01b900460ff16600281111561443b5761443b614dca565b03614478576040516001600160a01b0383169082156108fc029083906000818181858888f19350505050158015614476573d6000803e3d6000fd5b505b3460058401556006830180546001600160a01b031916331790558560028111156144a4576144a4614dca565b60068401805460ff60a01b1916600160a01b8360028111156144c8576144c8614dca565b02179055506144d9426102586158b6565b8360040154101561454e5761012c8360040160008282546144fa91906158b6565b9091555050600183015460048401546040517f8e1cb85d0855921b3c958b068fa707efb7db88099af764dd47f37eef82c3334d92614545928b926001600160a01b03909216916158c9565b60405180910390a15b600183810154600685015460058601546040519397507f4307392e6f0e441e74a4982d9fa9ddc49b3cd9d3902a9d3ecab0ad3c60a0acd193614117938c936001600160a01b03918216939116916158e8565b336000908152600b602052604090205460609060ff16156145d35760405162461bcd60e51b815260040161096f9061521b565b60006145de60035490565b90506000805b82811015614630576000818152600560205260409020600401546001600160a01b0380871691160361461e578161461a81615563565b9250505b8061462881615563565b9150506145e4565b506000816001600160401b0381111561464b5761464b614b0b565b60405190808252806020026020018201604052801561468457816020015b614671614a28565b8152602001906001900390816146695790505b5090506000805b848110156121ab576000818152600560205260409020600401546001600160a01b038089169116036147f15760008181526005602081815260409283902083516101808101855281546001600160a01b039081168252600180840154948301949094526002830154811695820195909552600382015485166060820152600482015490941660808501529182015460a0840152600682015460ff908116151560c0850152600783015460e0850152600883015461010085019291169081111561475657614756614dca565b600181111561476757614767614dca565b81526020016008820160019054906101000a900460ff16600281111561478f5761478f614dca565b60028111156147a0576147a0614dca565b8152600882015462010000900460ff161515602082015260099091015460409091015283518490849081106147d7576147d7615509565b602002602001018190525081806147ed90615563565b9250505b806147fb81615563565b91505061468b565b6001546001600160a01b031633146126695760405162461bcd60e51b815260206004820181905260248201527f4f776e61626c653a2063616c6c6572206973206e6f7420746865206f776e6572604482015260640161096f565b6002600054036148af5760405162461bcd60e51b815260206004820152601f60248201527f5265656e7472616e637947756172643a207265656e7472616e742063616c6c00604482015260640161096f565b6002600055565b600060646148c48385615460565b6148ce9190615490565b9392505050565b6000806103e86148e58587615460565b6148ef9190615490565b90506103e86148fe8487615460565b6149089190615490565b61491290826158b6565b95945050505050565b6139f48160405160240161492f919061590d565b60408051601f198184030181529190526020810180516001600160e01b031663104c13eb60e21b179052614a07565b8054806149ad5760405162461bcd60e51b815260206004820152601b60248201527f436f756e7465723a2064656372656d656e74206f766572666c6f770000000000604482015260640161096f565b600019019055565b600180546001600160a01b038381166001600160a01b0319831681179093556040519116919082907f8be0079c531659141344cd1fd0a4f28419497f9722a3daafe3b4186f6b6457e090600090a35050565b60006a636f6e736f6c652e6c6f679050600080835160208501845afa505050565b6040805161018081018252600080825260208201819052918101829052606081018290526080810182905260a0810182905260c0810182905260e081018290529061010082019081526020016000815260006020820181905260409091015290565b6001600160a01b03811681146139f457600080fd5b80356121b381614a8a565b600060208284031215614abc57600080fd5b81356148ce81614a8a565b600080600080600060a08688031215614adf57600080fd5b8535614aea81614a8a565b97602087013597506040870135966060810135965060800135945092505050565b634e487b7160e01b600052604160045260246000fd5b604051601f8201601f191681016001600160401b0381118282101715614b4957614b49614b0b565b604052919050565b60006001600160401b03821115614b6a57614b6a614b0b565b5060051b60200190565b600082601f830112614b8557600080fd5b81356020614b9a614b9583614b51565b614b21565b82815260059290921b84018101918181019086841115614bb957600080fd5b8286015b84811015614bd45780358352918301918301614bbd565b509695505050505050565b60008060008060008060008060006101208a8c031215614bfe57600080fd5b614c078a614a9f565b985060208a01356001600160401b0380821115614c2357600080fd5b614c2f8d838e01614b74565b995060408c0135915080821115614c4557600080fd5b614c518d838e01614b74565b985060608c0135975060808c0135965060a08c0135915080821115614c7557600080fd5b614c818d838e01614b74565b955060c08c0135915080821115614c9757600080fd5b50614ca48c828d01614b74565b93505060e08a013591506101008a013590509295985092959850929598565b60006020808385031215614cd657600080fd5b82356001600160401b03811115614cec57600080fd5b8301601f81018513614cfd57600080fd5b8035614d0b614b9582614b51565b81815260059190911b82018301908381019087831115614d2a57600080fd5b928401925b82841015614d51578335614d4281614a8a565b82529284019290840190614d2f565b979650505050505050565b60008060008060008060c08789031215614d7557600080fd5b8635614d8081614a8a565b9860208801359850604088013597606081013597506080810135965060a00135945092505050565b60008060408385031215614dbb57600080fd5b50508035926020909101359150565b634e487b7160e01b600052602160045260246000fd5b60028110614df057614df0614dca565b9052565b60038110614df057614df0614dca565b602080825282518282018190526000919060409081850190868401855b82811015614eda57815180516001600160a01b0390811686528782015188870152868201518116878701526060808301518216908701526080808301519091169086015260a0808201519086015260c08082015115159086015260e0808201519086015261010080820151614e9882880182614de0565b505061012080820151614ead82880182614df4565b50506101408181015115159086015261016090810151908501526101809093019290850190600101614e21565b5091979650505050505050565b600080600080600080600060e0888a031215614f0257600080fd5b8735614f0d81614a8a565b96506020880135955060408801359450606088013593506080880135925060a0880135915060c0880135614f4081614a8a565b8091505092959891949750929550565b600060208284031215614f6257600080fd5b5035919050565b600081518084526020808501945080840160005b83811015614fa25781516001600160a01b031687529582019590820190600101614f7d565b509495945050505050565b6020815260006148ce6020830184614f69565b8881526001600160a01b03888116602083015260408201889052606082018790526080820186905260a08201859052831660c0820152610100810161500860e0830184614df4565b9998505050505050505050565b60008060006060848603121561502a57600080fd5b505081359360208301359350604090920135919050565b6001600160a01b038d81168252602082018d90528b811660408301528a811660608301528916608082015260a0810188905286151560c082015260e081018690526101808101615095610100830187614de0565b6150a3610120830186614df4565b92151561014082015261016001529a9950505050505050505050565b600080604083850312156150d257600080fd5b82356150dd81614a8a565b946020939093013593505050565b600080604083850312156150fe57600080fd5b82356001600160401b0381111561511457600080fd5b61512085828601614b74565b9250506020830135801515811461513657600080fd5b809150509250929050565b6000806040838503121561515457600080fd5b823561515f81614a8a565b9150602083013561513681614a8a565b60006020828403121561518157600080fd5b81356001600160401b0381111561519757600080fd5b6151a384828501614b74565b949350505050565b600080600080608085870312156151c157600080fd5b84356151cc81614a8a565b966020860135965060408601359560600135945092505050565b6020808252818101527f596f75206172652062616e6e6564206f6e207468697320706c6174666f726d2e604082015260600190565b6020808252604a908201527f596f7520617265207065726d656e616e746c792064656c657465642066726f6d60408201527f207468697320706c6174666f726d20666f722076696f6c6174696e6720746865606082015269103837b634b1b4b2b99760b11b608082015260a00190565b60208082526025908201527f416e206f776e65722063616e6e6f7420707572636861736520697473206f776e6040820152641027232a1760d91b606082015260800190565b60208082526036908201527f546865206f776e6572206f662074686973206e667420697320626c61636b6c6960408201527539ba32b21037b7103a3434b990383630ba3337b9369760511b606082015260800190565b6020808252603d908201527f546865206f776e6572206f662074686973206e6674206973207065726d616e6160408201527f6e746c792062616e6e6564206f6e207468697320706c6174666f726d2e000000606082015260800190565b6020808252601a908201527f54686973204e4654206973206e6f742061742061756374696f6e000000000000604082015260600190565b6020808252601d908201527f4e6674206973206e6f74206c697374656420746f207075726368617365000000604082015260600190565b634e487b7160e01b600052601160045260246000fd5b81810381811115612f9957612f996153f1565b60208082526026908201527f4e6f7420656e6f75676820657468657220746f20636f7665722061736b696e6760408201526520707269636560d01b606082015260800190565b8082028115828204841417612f9957612f996153f1565b6001600160a01b03929092168252602082015260400190565b6000826154ad57634e487b7160e01b600052601260045260246000fd5b500490565b6001600160a01b039384168152919092166020820152604081019190915260600190565b6001600160a01b039586168152602081019490945291841660408401529092166060820152608081019190915260a00190565b634e487b7160e01b600052603260045260246000fd5b6001600160a01b03978816815260208101969096529386166040860152919094166060840152608083019390935260a082019290925260c081019190915260e00190565b600060018201615575576155756153f1565b5060010190565b60208082526027908201527f4e6f7420656e6f75676820616d6f756e7420746f20636f7665722061736b696e6040820152666720707269636560c81b606082015260800190565b634e487b7160e01b600052603160045260246000fd5b6000602082840312156155eb57600080fd5b81516148ce81614a8a565b8281526040602082015260006151a36040830184614f69565b6000602080838503121561562257600080fd5b82516001600160401b0381111561563857600080fd5b8301601f8101851361564957600080fd5b8051615657614b9582614b51565b81815260059190911b8201830190838101908783111561567657600080fd5b928401925b82841015614d515783518252928401929084019061567b565b8481526080602082015260006156ad6080830186614f69565b6001600160a01b03949094166040830152506060015292915050565b85815284602082015260a0604082015260006156e860a0830186614f69565b6001600160a01b0394909416606083015250608001529392505050565b805169ffffffffffffffffffff811681146121b357600080fd5b600080600080600060a0868803121561573757600080fd5b61574086615705565b945060208601519350604086015192506060860151915061576360808701615705565b90509295509295909350565b60208082526029908201527f54686973204e4654206973206e6f74206f6e2061756374696f6e206174207468604082015268329036b7b6b2b73a1760b91b606082015260800190565b6020808252601b908201527f596f7520617265206e6f7420696e207468652066616e206c6973740000000000604082015260600190565b6020808252601c908201527f4d696e696d756d206269642068617320746f2062652068696768657200000000604082015260600190565b6020808252603c908201527f596f75206861766520746f2062696420686967686572207468616e207468652060408201527f686967686573742062696420746f206d616b6520616e206f6666657200000000606082015260800190565b6020808252601990820152782a3434b99027232a1034b99030ba1030ba1030bab1ba34b7b760391b604082015260600190565b80820180821115612f9957612f996153f1565b9283526001600160a01b03919091166020830152604082015260600190565b9384526001600160a01b03928316602085015291166040830152606082015260800190565b600060208083528351808285015260005b8181101561593a5785810183015185820160400152820161591e565b506000604082860101526040601f19601f830116850101925050509291505056fe4f6e6c7920746865206f776e6572206f6620616e206e66742063616e20736574207468652066616e206c6973742e16f1dbd97e6bf646d429ed186cce832f1f7fd9907814293b83181e9970ab7bd2a264697066735822122076cad51ddd504caca57f99efc1c0a01324f495a7f7db750464b93794b05ea69364736f6c63430008130033",
  "linkReferences": {},
  "deployedLinkReferences": {}
}