{
  "_format": "hh-sol-artifact-1",
  "contractName": "ArtiziaMarketplace",
  "sourceName": "contracts/ArtiziaMarketplace.sol",
  "abi": [
    {
      "inputs": [
        {
          "internalType": "address",
          "name": "_token",
          "type": "address"
        }
      ],
      "stateMutability": "nonpayable",
      "type": "constructor"
    },
    {
      "inputs": [],
      "name": "invalidListingType",
      "type": "error"
    },
    {
      "inputs": [],
      "name": "invalidPrice",
      "type": "error"
    },
    {
      "anonymous": false,
      "inputs": [
        {
          "indexed": false,
          "internalType": "address",
          "name": "nftContract",
          "type": "address"
        },
        {
          "indexed": false,
          "internalType": "uint256",
          "name": "tokenId",
          "type": "uint256"
        },
        {
          "indexed": false,
          "internalType": "address",
          "name": "seller",
          "type": "address"
        },
        {
          "indexed": false,
          "internalType": "address",
          "name": "owner",
          "type": "address"
        },
        {
          "indexed": false,
          "internalType": "uint256",
          "name": "price",
          "type": "uint256"
        },
        {
          "indexed": false,
          "internalType": "uint256",
          "name": "collectionId",
          "type": "uint256"
        },
        {
          "indexed": false,
          "internalType": "uint256",
          "name": "listingType",
          "type": "uint256"
        }
      ],
      "name": "NFTListed",
      "type": "event"
    },
    {
      "anonymous": false,
      "inputs": [
        {
          "indexed": false,
          "internalType": "uint256",
          "name": "tokenId",
          "type": "uint256"
        },
        {
          "indexed": false,
          "internalType": "address",
          "name": "seller",
          "type": "address"
        },
        {
          "indexed": false,
          "internalType": "address",
          "name": "buyer",
          "type": "address"
        },
        {
          "indexed": false,
          "internalType": "uint256",
          "name": "price",
          "type": "uint256"
        }
      ],
      "name": "NFTSold",
      "type": "event"
    },
    {
      "anonymous": false,
      "inputs": [
        {
          "indexed": true,
          "internalType": "address",
          "name": "previousOwner",
          "type": "address"
        },
        {
          "indexed": true,
          "internalType": "address",
          "name": "newOwner",
          "type": "address"
        }
      ],
      "name": "OwnershipTransferred",
      "type": "event"
    },
    {
      "anonymous": false,
      "inputs": [
        {
          "indexed": false,
          "internalType": "uint256",
          "name": "tokenId",
          "type": "uint256"
        },
        {
          "indexed": false,
          "internalType": "bool",
          "name": "decision",
          "type": "bool"
        }
      ],
      "name": "approvalUpdate",
      "type": "event"
    },
    {
      "anonymous": false,
      "inputs": [
        {
          "indexed": false,
          "internalType": "uint256",
          "name": "tokenId",
          "type": "uint256"
        },
        {
          "indexed": false,
          "internalType": "address",
          "name": "seller",
          "type": "address"
        },
        {
          "indexed": false,
          "internalType": "uint256",
          "name": "newTime",
          "type": "uint256"
        }
      ],
      "name": "auctionEndTimeIncreased",
      "type": "event"
    },
    {
      "anonymous": false,
      "inputs": [
        {
          "indexed": false,
          "internalType": "uint256",
          "name": "tokenId",
          "type": "uint256"
        },
        {
          "indexed": false,
          "internalType": "address",
          "name": "seller",
          "type": "address"
        },
        {
          "indexed": false,
          "internalType": "address",
          "name": "highestBidder",
          "type": "address"
        },
        {
          "indexed": false,
          "internalType": "uint256",
          "name": "highestBid",
          "type": "uint256"
        }
      ],
      "name": "receivedABid",
      "type": "event"
    },
    {
      "stateMutability": "payable",
      "type": "fallback"
    },
    {
      "inputs": [],
      "name": "UNISWAP_ROUTER_ADDRESS",
      "outputs": [
        {
          "internalType": "address",
          "name": "",
          "type": "address"
        }
      ],
      "stateMutability": "view",
      "type": "function"
    },
    {
      "inputs": [],
      "name": "USDT_ADDRESS",
      "outputs": [
        {
          "internalType": "address",
          "name": "",
          "type": "address"
        }
      ],
      "stateMutability": "view",
      "type": "function"
    },
    {
      "inputs": [
        {
          "internalType": "uint256",
          "name": "",
          "type": "uint256"
        }
      ],
      "name": "_idToAuction",
      "outputs": [
        {
          "internalType": "uint256",
          "name": "tokenId",
          "type": "uint256"
        },
        {
          "internalType": "address payable",
          "name": "seller",
          "type": "address"
        },
        {
          "internalType": "uint256",
          "name": "basePrice",
          "type": "uint256"
        },
        {
          "internalType": "uint256",
          "name": "startTime",
          "type": "uint256"
        },
        {
          "internalType": "uint256",
          "name": "endTime",
          "type": "uint256"
        },
        {
          "internalType": "uint256",
          "name": "highestBid",
          "type": "uint256"
        },
        {
          "internalType": "address payable",
          "name": "highestBidder",
          "type": "address"
        },
        {
          "internalType": "enum ArtiziaMarketplace.PaymentMethod",
          "name": "highestBidCurrency",
          "type": "uint8"
        }
      ],
      "stateMutability": "view",
      "type": "function"
    },
    {
      "inputs": [
        {
          "internalType": "uint256",
          "name": "",
          "type": "uint256"
        }
      ],
      "name": "_idToNFT",
      "outputs": [
        {
          "internalType": "address",
          "name": "nftContract",
          "type": "address"
        },
        {
          "internalType": "uint256",
          "name": "tokenId",
          "type": "uint256"
        },
        {
          "internalType": "address payable",
          "name": "firstOwner",
          "type": "address"
        },
        {
          "internalType": "address payable",
          "name": "seller",
          "type": "address"
        },
        {
          "internalType": "address payable",
          "name": "owner",
          "type": "address"
        },
        {
          "internalType": "uint256",
          "name": "price",
          "type": "uint256"
        },
        {
          "internalType": "bool",
          "name": "listed",
          "type": "bool"
        },
        {
          "internalType": "uint256",
          "name": "royaltyPrice",
          "type": "uint256"
        },
        {
          "internalType": "enum ArtiziaMarketplace.ListingType",
          "name": "listingType",
          "type": "uint8"
        },
        {
          "internalType": "enum ArtiziaMarketplace.PaymentMethod",
          "name": "paymentMethod",
          "type": "uint8"
        },
        {
          "internalType": "bool",
          "name": "approve",
          "type": "bool"
        },
        {
          "internalType": "uint256",
          "name": "collectionId",
          "type": "uint256"
        }
      ],
      "stateMutability": "view",
      "type": "function"
    },
    {
      "inputs": [],
      "name": "_nftCount",
      "outputs": [
        {
          "internalType": "uint256",
          "name": "_value",
          "type": "uint256"
        }
      ],
      "stateMutability": "view",
      "type": "function"
    },
    {
      "inputs": [],
      "name": "_nftsSold",
      "outputs": [
        {
          "internalType": "uint256",
          "name": "_value",
          "type": "uint256"
        }
      ],
      "stateMutability": "view",
      "type": "function"
    },
    {
      "inputs": [
        {
          "internalType": "uint256[]",
          "name": "_tokenId",
          "type": "uint256[]"
        },
        {
          "internalType": "bool",
          "name": "_decision",
          "type": "bool"
        }
      ],
      "name": "approveNfts",
      "outputs": [
        {
          "internalType": "bool",
          "name": "",
          "type": "bool"
        }
      ],
      "stateMutability": "nonpayable",
      "type": "function"
    },
    {
      "inputs": [
        {
          "internalType": "address",
          "name": "_user",
          "type": "address"
        }
      ],
      "name": "banUser",
      "outputs": [],
      "stateMutability": "nonpayable",
      "type": "function"
    },
    {
      "inputs": [
        {
          "internalType": "address",
          "name": "",
          "type": "address"
        }
      ],
      "name": "bannedUsers",
      "outputs": [
        {
          "internalType": "bool",
          "name": "",
          "type": "bool"
        }
      ],
      "stateMutability": "view",
      "type": "function"
    },
    {
      "inputs": [
        {
          "internalType": "uint256",
          "name": "_tokenId",
          "type": "uint256"
        },
        {
          "internalType": "uint256",
          "name": "_bidCurrency",
          "type": "uint256"
        }
      ],
      "name": "bidInETH",
      "outputs": [],
      "stateMutability": "payable",
      "type": "function"
    },
    {
      "inputs": [
        {
          "internalType": "uint256",
          "name": "_tokenId",
          "type": "uint256"
        },
        {
          "internalType": "uint256",
          "name": "_amount",
          "type": "uint256"
        },
        {
          "internalType": "uint256",
          "name": "_bidCurrency",
          "type": "uint256"
        },
        {
          "internalType": "uint256",
          "name": "_amountInETHInWei",
          "type": "uint256"
        }
      ],
      "name": "bidInUSDT",
      "outputs": [],
      "stateMutability": "payable",
      "type": "function"
    },
    {
      "inputs": [
        {
          "internalType": "address",
          "name": "_nftContract",
          "type": "address"
        },
        {
          "internalType": "uint256",
          "name": "_paymentMethod",
          "type": "uint256"
        },
        {
          "internalType": "uint256",
          "name": "_tokenId",
          "type": "uint256"
        },
        {
          "internalType": "uint8",
          "name": "_sellerPlan",
          "type": "uint8"
        },
        {
          "internalType": "uint8",
          "name": "_buyerPlan",
          "type": "uint8"
        }
      ],
      "name": "buyWithETH",
      "outputs": [],
      "stateMutability": "payable",
      "type": "function"
    },
    {
      "inputs": [
        {
          "internalType": "address",
          "name": "_nftContract",
          "type": "address"
        },
        {
          "internalType": "uint256",
          "name": "_paymentMethod",
          "type": "uint256"
        },
        {
          "internalType": "uint256",
          "name": "_tokenId",
          "type": "uint256"
        },
        {
          "internalType": "uint8",
          "name": "_sellerPlan",
          "type": "uint8"
        },
        {
          "internalType": "uint8",
          "name": "_buyerPlan",
          "type": "uint8"
        },
        {
          "internalType": "uint256",
          "name": "_amountSent",
          "type": "uint256"
        }
      ],
      "name": "buyWithFIAT",
      "outputs": [],
      "stateMutability": "payable",
      "type": "function"
    },
    {
      "inputs": [
        {
          "internalType": "address",
          "name": "_nftContract",
          "type": "address"
        },
        {
          "internalType": "uint256",
          "name": "_paymentMethod",
          "type": "uint256"
        },
        {
          "internalType": "uint256",
          "name": "_tokenId",
          "type": "uint256"
        },
        {
          "internalType": "uint8",
          "name": "_sellerPlan",
          "type": "uint8"
        },
        {
          "internalType": "uint8",
          "name": "_buyerPlan",
          "type": "uint8"
        },
        {
          "internalType": "uint256",
          "name": "_amount",
          "type": "uint256"
        },
        {
          "internalType": "uint256",
          "name": "_amountInETHInWei",
          "type": "uint256"
        }
      ],
      "name": "buyWithUSDT",
      "outputs": [],
      "stateMutability": "payable",
      "type": "function"
    },
    {
      "inputs": [
        {
          "internalType": "address",
          "name": "_nftContract",
          "type": "address"
        },
        {
          "internalType": "uint256",
          "name": "_tokenId",
          "type": "uint256"
        },
        {
          "internalType": "uint8",
          "name": "_sellerPlan",
          "type": "uint8"
        },
        {
          "internalType": "uint8",
          "name": "_buyerPlan",
          "type": "uint8"
        }
      ],
      "name": "closeAuction",
      "outputs": [],
      "stateMutability": "payable",
      "type": "function"
    },
    {
      "inputs": [
        {
          "internalType": "uint256",
          "name": "",
          "type": "uint256"
        },
        {
          "internalType": "uint256",
          "name": "",
          "type": "uint256"
        }
      ],
      "name": "collection",
      "outputs": [
        {
          "internalType": "uint256",
          "name": "",
          "type": "uint256"
        }
      ],
      "stateMutability": "view",
      "type": "function"
    },
    {
      "inputs": [
        {
          "internalType": "uint256",
          "name": "_collectionId",
          "type": "uint256"
        }
      ],
      "name": "getCollectionNfts",
      "outputs": [
        {
          "components": [
            {
              "internalType": "address",
              "name": "nftContract",
              "type": "address"
            },
            {
              "internalType": "uint256",
              "name": "tokenId",
              "type": "uint256"
            },
            {
              "internalType": "address payable",
              "name": "firstOwner",
              "type": "address"
            },
            {
              "internalType": "address payable",
              "name": "seller",
              "type": "address"
            },
            {
              "internalType": "address payable",
              "name": "owner",
              "type": "address"
            },
            {
              "internalType": "uint256",
              "name": "price",
              "type": "uint256"
            },
            {
              "internalType": "bool",
              "name": "listed",
              "type": "bool"
            },
            {
              "internalType": "uint256",
              "name": "royaltyPrice",
              "type": "uint256"
            },
            {
              "internalType": "enum ArtiziaMarketplace.ListingType",
              "name": "listingType",
              "type": "uint8"
            },
            {
              "internalType": "enum ArtiziaMarketplace.PaymentMethod",
              "name": "paymentMethod",
              "type": "uint8"
            },
            {
              "internalType": "bool",
              "name": "approve",
              "type": "bool"
            },
            {
              "internalType": "uint256",
              "name": "collectionId",
              "type": "uint256"
            }
          ],
          "internalType": "struct ArtiziaMarketplace.NFT[]",
          "name": "",
          "type": "tuple[]"
        }
      ],
      "stateMutability": "view",
      "type": "function"
    },
    {
      "inputs": [],
      "name": "getLatestUSDTPrice",
      "outputs": [
        {
          "internalType": "uint256",
          "name": "",
          "type": "uint256"
        }
      ],
      "stateMutability": "view",
      "type": "function"
    },
    {
      "inputs": [],
      "name": "getListedNfts",
      "outputs": [
        {
          "components": [
            {
              "internalType": "address",
              "name": "nftContract",
              "type": "address"
            },
            {
              "internalType": "uint256",
              "name": "tokenId",
              "type": "uint256"
            },
            {
              "internalType": "address payable",
              "name": "firstOwner",
              "type": "address"
            },
            {
              "internalType": "address payable",
              "name": "seller",
              "type": "address"
            },
            {
              "internalType": "address payable",
              "name": "owner",
              "type": "address"
            },
            {
              "internalType": "uint256",
              "name": "price",
              "type": "uint256"
            },
            {
              "internalType": "bool",
              "name": "listed",
              "type": "bool"
            },
            {
              "internalType": "uint256",
              "name": "royaltyPrice",
              "type": "uint256"
            },
            {
              "internalType": "enum ArtiziaMarketplace.ListingType",
              "name": "listingType",
              "type": "uint8"
            },
            {
              "internalType": "enum ArtiziaMarketplace.PaymentMethod",
              "name": "paymentMethod",
              "type": "uint8"
            },
            {
              "internalType": "bool",
              "name": "approve",
              "type": "bool"
            },
            {
              "internalType": "uint256",
              "name": "collectionId",
              "type": "uint256"
            }
          ],
          "internalType": "struct ArtiziaMarketplace.NFT[]",
          "name": "",
          "type": "tuple[]"
        }
      ],
      "stateMutability": "view",
      "type": "function"
    },
    {
      "inputs": [
        {
          "internalType": "address",
          "name": "_user",
          "type": "address"
        }
      ],
      "name": "getMyListedNfts",
      "outputs": [
        {
          "components": [
            {
              "internalType": "address",
              "name": "nftContract",
              "type": "address"
            },
            {
              "internalType": "uint256",
              "name": "tokenId",
              "type": "uint256"
            },
            {
              "internalType": "address payable",
              "name": "firstOwner",
              "type": "address"
            },
            {
              "internalType": "address payable",
              "name": "seller",
              "type": "address"
            },
            {
              "internalType": "address payable",
              "name": "owner",
              "type": "address"
            },
            {
              "internalType": "uint256",
              "name": "price",
              "type": "uint256"
            },
            {
              "internalType": "bool",
              "name": "listed",
              "type": "bool"
            },
            {
              "internalType": "uint256",
              "name": "royaltyPrice",
              "type": "uint256"
            },
            {
              "internalType": "enum ArtiziaMarketplace.ListingType",
              "name": "listingType",
              "type": "uint8"
            },
            {
              "internalType": "enum ArtiziaMarketplace.PaymentMethod",
              "name": "paymentMethod",
              "type": "uint8"
            },
            {
              "internalType": "bool",
              "name": "approve",
              "type": "bool"
            },
            {
              "internalType": "uint256",
              "name": "collectionId",
              "type": "uint256"
            }
          ],
          "internalType": "struct ArtiziaMarketplace.NFT[]",
          "name": "",
          "type": "tuple[]"
        }
      ],
      "stateMutability": "view",
      "type": "function"
    },
    {
      "inputs": [
        {
          "internalType": "address",
          "name": "_user",
          "type": "address"
        }
      ],
      "name": "getMyNfts",
      "outputs": [
        {
          "components": [
            {
              "internalType": "address",
              "name": "nftContract",
              "type": "address"
            },
            {
              "internalType": "uint256",
              "name": "tokenId",
              "type": "uint256"
            },
            {
              "internalType": "address payable",
              "name": "firstOwner",
              "type": "address"
            },
            {
              "internalType": "address payable",
              "name": "seller",
              "type": "address"
            },
            {
              "internalType": "address payable",
              "name": "owner",
              "type": "address"
            },
            {
              "internalType": "uint256",
              "name": "price",
              "type": "uint256"
            },
            {
              "internalType": "bool",
              "name": "listed",
              "type": "bool"
            },
            {
              "internalType": "uint256",
              "name": "royaltyPrice",
              "type": "uint256"
            },
            {
              "internalType": "enum ArtiziaMarketplace.ListingType",
              "name": "listingType",
              "type": "uint8"
            },
            {
              "internalType": "enum ArtiziaMarketplace.PaymentMethod",
              "name": "paymentMethod",
              "type": "uint8"
            },
            {
              "internalType": "bool",
              "name": "approve",
              "type": "bool"
            },
            {
              "internalType": "uint256",
              "name": "collectionId",
              "type": "uint256"
            }
          ],
          "internalType": "struct ArtiziaMarketplace.NFT[]",
          "name": "",
          "type": "tuple[]"
        }
      ],
      "stateMutability": "view",
      "type": "function"
    },
    {
      "inputs": [
        {
          "internalType": "uint256",
          "name": "_tokenId",
          "type": "uint256"
        }
      ],
      "name": "getStatusOfAuction",
      "outputs": [
        {
          "internalType": "bool",
          "name": "",
          "type": "bool"
        }
      ],
      "stateMutability": "view",
      "type": "function"
    },
    {
      "inputs": [
        {
          "internalType": "uint8",
          "name": "level",
          "type": "uint8"
        }
      ],
      "name": "getSubscriptionFee",
      "outputs": [
        {
          "internalType": "uint256",
          "name": "",
          "type": "uint256"
        }
      ],
      "stateMutability": "view",
      "type": "function"
    },
    {
      "inputs": [
        {
          "internalType": "address",
          "name": "_user",
          "type": "address"
        }
      ],
      "name": "getUsersNfts",
      "outputs": [
        {
          "components": [
            {
              "internalType": "address",
              "name": "nftContract",
              "type": "address"
            },
            {
              "internalType": "uint256",
              "name": "tokenId",
              "type": "uint256"
            },
            {
              "internalType": "address payable",
              "name": "firstOwner",
              "type": "address"
            },
            {
              "internalType": "address payable",
              "name": "seller",
              "type": "address"
            },
            {
              "internalType": "address payable",
              "name": "owner",
              "type": "address"
            },
            {
              "internalType": "uint256",
              "name": "price",
              "type": "uint256"
            },
            {
              "internalType": "bool",
              "name": "listed",
              "type": "bool"
            },
            {
              "internalType": "uint256",
              "name": "royaltyPrice",
              "type": "uint256"
            },
            {
              "internalType": "enum ArtiziaMarketplace.ListingType",
              "name": "listingType",
              "type": "uint8"
            },
            {
              "internalType": "enum ArtiziaMarketplace.PaymentMethod",
              "name": "paymentMethod",
              "type": "uint8"
            },
            {
              "internalType": "bool",
              "name": "approve",
              "type": "bool"
            },
            {
              "internalType": "uint256",
              "name": "collectionId",
              "type": "uint256"
            }
          ],
          "internalType": "struct ArtiziaMarketplace.NFT[]",
          "name": "",
          "type": "tuple[]"
        }
      ],
      "stateMutability": "view",
      "type": "function"
    },
    {
      "inputs": [
        {
          "internalType": "address",
          "name": "_nftContract",
          "type": "address"
        },
        {
          "internalType": "uint256[]",
          "name": "_tokenId",
          "type": "uint256[]"
        },
        {
          "internalType": "uint256[]",
          "name": "_price",
          "type": "uint256[]"
        },
        {
          "internalType": "uint256[]",
          "name": "_royaltyPrice",
          "type": "uint256[]"
        },
        {
          "internalType": "uint256",
          "name": "_listingType",
          "type": "uint256"
        },
        {
          "internalType": "uint256[]",
          "name": "_startTime",
          "type": "uint256[]"
        },
        {
          "internalType": "uint256[]",
          "name": "_endTime",
          "type": "uint256[]"
        },
        {
          "internalType": "uint256",
          "name": "_collectionId",
          "type": "uint256"
        },
        {
          "internalType": "uint256",
          "name": "_paymentMethod",
          "type": "uint256"
        }
      ],
      "name": "listNft",
      "outputs": [],
      "stateMutability": "payable",
      "type": "function"
    },
    {
      "inputs": [],
      "name": "owner",
      "outputs": [
        {
          "internalType": "address",
          "name": "",
          "type": "address"
        }
      ],
      "stateMutability": "view",
      "type": "function"
    },
    {
      "inputs": [],
      "name": "renounceOwnership",
      "outputs": [],
      "stateMutability": "nonpayable",
      "type": "function"
    },
    {
      "inputs": [
        {
          "internalType": "address",
          "name": "_nftContract",
          "type": "address"
        },
        {
          "internalType": "uint256",
          "name": "_tokenId",
          "type": "uint256"
        },
        {
          "internalType": "uint256",
          "name": "_price",
          "type": "uint256"
        },
        {
          "internalType": "uint256",
          "name": "_listingType",
          "type": "uint256"
        },
        {
          "internalType": "uint256",
          "name": "_startTime",
          "type": "uint256"
        },
        {
          "internalType": "uint256",
          "name": "_endTime",
          "type": "uint256"
        }
      ],
      "name": "resellNft",
      "outputs": [],
      "stateMutability": "nonpayable",
      "type": "function"
    },
    {
      "inputs": [
        {
          "internalType": "enum ArtiziaMarketplace.SubscriptionLevel",
          "name": "",
          "type": "uint8"
        }
      ],
      "name": "subscriptionFees",
      "outputs": [
        {
          "internalType": "uint256",
          "name": "",
          "type": "uint256"
        }
      ],
      "stateMutability": "view",
      "type": "function"
    },
    {
      "inputs": [
        {
          "internalType": "uint256",
          "name": "usdtAmountOut",
          "type": "uint256"
        },
        {
          "internalType": "uint256",
          "name": "meth",
          "type": "uint256"
        }
      ],
      "name": "swapETHForUSDT",
      "outputs": [],
      "stateMutability": "payable",
      "type": "function"
    },
    {
      "inputs": [
        {
          "internalType": "uint256",
          "name": "usdtAmountIn",
          "type": "uint256"
        }
      ],
      "name": "swapUSDTForETH",
      "outputs": [
        {
          "internalType": "uint256",
          "name": "",
          "type": "uint256"
        }
      ],
      "stateMutability": "nonpayable",
      "type": "function"
    },
    {
      "inputs": [
        {
          "internalType": "address",
          "name": "newOwner",
          "type": "address"
        }
      ],
      "name": "transferOwnership",
      "outputs": [],
      "stateMutability": "nonpayable",
      "type": "function"
    },
    {
      "inputs": [
        {
          "internalType": "address",
          "name": "_user",
          "type": "address"
        }
      ],
      "name": "unbanUser",
      "outputs": [],
      "stateMutability": "nonpayable",
      "type": "function"
    },
    {
      "stateMutability": "payable",
      "type": "receive"
    }
  ],
  "bytecode": "0x6080604052600a80546001600160a01b0319908116737a250d5630b4cf539739df2c5dacb4c659f2488d17909155600b805490911673dac17f958d2ee523a2206206994597c13d831ec71790553480156200005957600080fd5b5060405162005990380380620059908339810160408190526200007c9162000213565b60016000556200008c3362000113565b600480546001600160a01b03199081163317909155600a54600c805483166001600160a01b03928316179055600d805491841691909216179055620000d46000609662000165565b620000e26001609662000165565b620000f06002609662000165565b620000fe6003606462000165565b6200010c6004600062000165565b506200025b565b600180546001600160a01b038381166001600160a01b0319831681179093556040519116919082907f8be0079c531659141344cd1fd0a4f28419497f9722a3daafe3b4186f6b6457e090600090a35050565b6200016f620001b2565b806009600084600481111562000189576200018962000245565b60048111156200019d576200019d62000245565b81526020810191909152604001600020555050565b6001546001600160a01b03163314620002115760405162461bcd60e51b815260206004820181905260248201527f4f776e61626c653a2063616c6c6572206973206e6f7420746865206f776e6572604482015260640160405180910390fd5b565b6000602082840312156200022657600080fd5b81516001600160a01b03811681146200023e57600080fd5b9392505050565b634e487b7160e01b600052602160045260246000fd5b615725806200026b6000396000f3fe6080604052600436106101a65760003560e01c806398dd36bf116100e7578063b9e07df11161008d578063b9e07df1146104f8578063c1892058146105a9578063c36ac2d2146105c9578063d12824f1146105e9578063d6cbb20214610609578063d6fc3dbd14610620578063f2fde38b14610640578063f41dfb1814610660578063f6c1b77a1461067357005b806398dd36bf146103b25780639c744058146103cc578063ace5e90e146103ec578063aeb46a1b1461040c578063b32ac0c614610439578063b3ff233e1461044c578063b4fa04121461045f578063b8820d82146104e557005b80635021b42b1161014c5780635021b42b146102925780635274cff6146102a5578063715018a6146102d257806379b36943146102e75780638988d0781461031f5780638cd410f41461035f5780638d6cb3fb1461037f5780638da5cb5b1461039457005b806310d86b1f146101af57806330221fc5146101cf57806331824a49146101e25780633fa9df4b1461020c5780634348478b1461021f5780634afbcdae146102325780634d12b695146102525780634d3fb8171461027257005b366101ad57005b005b3480156101bb57600080fd5b506101ad6101ca366004614a2c565b610693565b6101ad6101dd366004614a5a565b610759565b3480156101ee57600080fd5b506002546101f99081565b6040519081526020015b60405180910390f35b6101ad61021a366004614b87565b610cc4565b6101ad61022d366004614c86565b6112e1565b34801561023e57600080fd5b506101f961024d366004614cb8565b61177b565b34801561025e57600080fd5b506101ad61026d366004614a2c565b6117ac565b34801561027e57600080fd5b506101f961028d366004614cda565b6117d5565b6101ad6102a0366004614cf5565b61184b565b3480156102b157600080fd5b506102c56102c0366004614a2c565b611de5565b6040516102039190614d9b565b3480156102de57600080fd5b506101ad6120d5565b3480156102f357600080fd5b50600a54610307906001600160a01b031681565b6040516001600160a01b039091168152602001610203565b34801561032b57600080fd5b5061034f61033a366004614a2c565b60076020526000908152604090205460ff1681565b6040519015158152602001610203565b34801561036b57600080fd5b506101f961037a366004614e7e565b6120e9565b34801561038b57600080fd5b506102c56123a6565b3480156103a057600080fd5b506001546001600160a01b0316610307565b3480156103be57600080fd5b5066023af175d119756101f9565b3480156103d857600080fd5b5061034f6103e7366004614e7e565b6125c1565b3480156103f857600080fd5b506101ad610407366004614e97565b612606565b34801561041857600080fd5b506101f9610427366004614ee3565b60096020526000908152604090205481565b6101ad610447366004614f04565b6129c5565b6101ad61045a366004614f53565b613126565b34801561046b57600080fd5b506104d161047a366004614e7e565b6006602081905260009182526040909120805460018201546002830154600384015460048501546005860154959096015493956001600160a01b03938416959294919390929190811690600160a01b900460ff1688565b604051610203989796959493929190614fb4565b6101ad6104f3366004614cb8565b6136a7565b34801561050457600080fd5b50610591610513366004614e7e565b600560208190526000918252604090912080546001820154600283015460038401546004850154958501546006860154600787015460088801546009909801546001600160a01b03978816999698958816979485169690941694929360ff92831693919282811692610100810482169262010000909104909116908c565b6040516102039c9b9a99989796959493929190615009565b3480156105b557600080fd5b50600b54610307906001600160a01b031681565b3480156105d557600080fd5b506102c56105e4366004614e7e565b61399c565b3480156105f557600080fd5b506102c5610604366004614a2c565b613bc9565b34801561061557600080fd5b506003546101f99081565b34801561062c57600080fd5b5061034f61063b366004615087565b613e2c565b34801561064c57600080fd5b506101ad61065b366004614a2c565b614073565b6101ad61066e366004614cb8565b6140ec565b34801561067f57600080fd5b506102c561068e366004614a2c565b61451c565b61069b61477f565b6001600160a01b0381166000908152600760205260408120805460ff191660011790556106c760035490565b905060005b81811015610754576000818152600560205260409020600301546001600160a01b038085169116036107425760008181526005602052604090206004810180546001600160a01b03199081163017909155600382018054909116905560068101805460ff19169055600801805462ff0000191690555b8061074c816150f3565b9150506106cc565b505050565b600083815260056020526040902060080154839062010000900460ff1615156001146107a05760405162461bcd60e51b81526004016107979061510c565b60405180910390fd5b3360009081526007602052604090205460ff16156107d05760405162461bcd60e51b815260040161079790615164565b6107d86147d9565b6000848152600560205260408120906107f0856117d5565b905060006107fd856117d5565b6003840154909150336001600160a01b039091160361082e5760405162461bcd60e51b815260040161079790615199565b60038301546001600160a01b031660009081526007602052604090205460ff161561086b5760405162461bcd60e51b8152600401610797906151de565b6000600884015460ff16600181111561088657610886614d61565b146108a35760405162461bcd60e51b815260040161079790615234565b82600501543410156109065760405162461bcd60e51b815260206004820152602660248201527f4e6f7420656e6f75676820657468657220746f20636f7665722061736b696e6760448201526520707269636560d01b6064820152608401610797565b600683015460ff16151560011461092f5760405162461bcd60e51b81526004016107979061526b565b60028301546003840154600091339134916001600160a01b03908116911603610a5a5761095d818686614832565b61096790826152a2565b90508a6000036109b75760038601546040516001600160a01b039091169082156108fc029083906000818181858888f193505050501580156109ad573d6000803e3d6000fd5b5060019250610bbe565b60006109ca66023af175d11975836152b5565b90506109d981620f42406152d7565b90506109e68160006136a7565b600d54600388015460405163a9059cbb60e01b81526001600160a01b039283169263a9059cbb92610a1e9291169085906004016152ee565b600060405180830381600087803b158015610a3857600080fd5b505af1158015610a4c573d6000803e3d6000fd5b505050506001935050610bbe565b60008190506000610a6f828960070154614878565b9050610a7c838888614832565b610a8682846152a2565b610a9091906152a2565b60028901546040519194506001600160a01b03169082156108fc029083906000818181858888f19350505050158015610acd573d6000803e3d6000fd5b508c600003610b1c5760038801546040516001600160a01b039091169084156108fc029085906000818181858888f19350505050158015610b12573d6000803e3d6000fd5b5060019450610bbb565b6000610b2f66023af175d11975856152b5565b9050610b3e81620f42406152d7565b9050610b4b8160006136a7565b600d5460038a015460405163a9059cbb60e01b81526001600160a01b039283169263a9059cbb92610b839291169085906004016152ee565b600060405180830381600087803b158015610b9d57600080fd5b505af1158015610bb1573d6000803e3d6000fd5b5050505060019550505b50505b8215610cac5760018601546040516323b872dd60e01b81526001600160a01b038e16916323b872dd91610bf8913091879190600401615307565b600060405180830381600087803b158015610c1257600080fd5b505af1158015610c26573d6000803e3d6000fd5b505050600187015460038801546040516000805160206156d08339815191529350610c5f92916001600160a01b0316908690349061532b565b60405180910390a16004860180546001600160a01b0384166001600160a01b031991821617909155600387018054909116905560068601805460ff19169055610cac600280546001019055565b505050505050610cbc6001600055565b505050505050565b610ccc6147d9565b3360009081526007602052604090205460ff1615610cfc5760405162461bcd60e51b815260040161079790615164565b60005b88518110156112cb576000888281518110610d1c57610d1c615350565b60200260200101511015610d4357604051635a93095360e11b815260040160405180910390fd5b6001861115610d65576040516317142a4d60e01b815260040160405180910390fd5b896001600160a01b03166323b872dd33308c8581518110610d8857610d88615350565b60200260200101516040518463ffffffff1660e01b8152600401610dae93929190615307565b600060405180830381600087803b158015610dc857600080fd5b505af1158015610ddc573d6000803e3d6000fd5b50505050610dee600380546001019055565b600083815260086020526040902089518a9083908110610e1057610e10615350565b602002602001015190806001815401808255809150506001900390600052602060002001600090919091909150556040518061018001604052808b6001600160a01b031681526020018a8381518110610e6b57610e6b615350565b60200260200101518152602001336001600160a01b03168152602001336001600160a01b03168152602001306001600160a01b03168152602001898381518110610eb757610eb7615350565b60200260200101518152602001600115158152602001888381518110610edf57610edf615350565b60200260200101518152602001876001811115610efe57610efe614d61565b6001811115610f0f57610f0f614d61565b8152602001836002811115610f2657610f26614d61565b6002811115610f3757610f37614d61565b815260200160011515815260200184815250600560008b8481518110610f5f57610f5f615350565b6020908102919091018101518252818101929092526040908101600020835181546001600160a01b03199081166001600160a01b039283161783559385015160018084019190915592850151600283018054861691831691909117905560608501516003830180548616918316919091179055608085015160048301805490951691161790925560a0830151600583015560c083015160068301805460ff1990811692151592909217905560e08401516007840155610100840151600884018054919390929190911690838181111561103a5761103a614d61565b021790555061012082015160088201805461ff00191661010083600281111561106557611065614d61565b0217905550610140820151600882018054911515620100000262ff0000199092169190911790556101609091015160099091015560018603611244576040518061010001604052808a83815181106110bf576110bf615350565b60200260200101518152602001336001600160a01b031681526020018983815181106110ed576110ed615350565b6020026020010151815260200186838151811061110c5761110c615350565b6020026020010151815260200185838151811061112b5761112b615350565b602002602001015181526020016000815260200160006001600160a01b0316815260200183600281111561116157611161614d61565b600281111561117257611172614d61565b815250600660008b848151811061118b5761118b615350565b602090810291909101810151825281810192909252604090810160002083518155918301516001830180546001600160a01b03199081166001600160a01b039384161790915591840151600280850191909155606085015160038501556080850151600485015560a0850151600585015560c085015160068501805494851691909316908117835560e0860151936001600160a81b0319161790600160a01b90849081111561123c5761123c614d61565b021790555050505b7f380acab0ee1d651da065961944240ee750b6935ba0edefa78afb1c8e076762868a8a838151811061127857611278615350565b602002602001015133308c868151811061129457611294615350565b6020026020010151888c6040516112b19796959493929190615366565b60405180910390a1806112c3816150f3565b915050610cff565b506112d66001600055565b505050505050505050565b600084815260066020526040902060030154849042118015611313575060008181526006602052604090206004015442105b61132f5760405162461bcd60e51b8152600401610797906153aa565b600085815260056020526040902060080154859062010000900460ff16151560011461136d5760405162461bcd60e51b81526004016107979061510c565b3360009081526007602052604090205460ff161561139d5760405162461bcd60e51b815260040161079790615164565b6000868152600660208190526040822001546001600160a01b03166113ed576000878152600660205260409020600201548410156113ed5760405162461bcd60e51b8152600401610797906153f3565b60008781526006602052604090206005015484101561141e5760405162461bcd60e51b81526004016107979061542a565b600160008881526005602052604090206008015460ff16600181111561144657611446614d61565b146114635760405162461bcd60e51b815260040161079790615487565b60008781526005602052604090206006015460ff1615156001146114995760405162461bcd60e51b81526004016107979061526b565b600d546040516323b872dd60e01b81526001600160a01b03909116906323b872dd906114cd90339030908b90600401615307565b600060405180830381600087803b1580156114e757600080fd5b505af11580156114fb573d6000803e3d6000fd5b50505060008881526006602081905260409091209081015460058201549192506001600160a01b031690811561163e5760016006840154600160a01b900460ff16600281111561154d5761154d614d61565b036115df57600061156566023af175d11975836152b5565b905061157481620f42406152d7565b600d5460405163a9059cbb60e01b81529192506001600160a01b03169063a9059cbb906115a790869085906004016152ee565b600060405180830381600087803b1580156115c157600080fd5b505af11580156115d5573d6000803e3d6000fd5b505050505061163e565b60006006840154600160a01b900460ff16600281111561160157611601614d61565b0361163e576040516001600160a01b0383169082156108fc029083906000818181858888f1935050505015801561163c573d6000803e3d6000fd5b505b600583018790556006830180546001600160a01b0319163317905587600281111561166b5761166b614d61565b60068401805460ff60a01b1916600160a01b83600281111561168f5761168f614d61565b02179055506116a0426102586154ba565b836004015410156117155761012c8360040160008282546116c191906154ba565b9091555050600183015460048401546040517f8e1cb85d0855921b3c958b068fa707efb7db88099af764dd47f37eef82c3334d9261170c928e926001600160a01b03909216916154cd565b60405180910390a15b600183810154600685015460058601546040519397507f4307392e6f0e441e74a4982d9fa9ddc49b3cd9d3902a9d3ecab0ad3c60a0acd193611767938f936001600160a01b039182169391169161532b565b60405180910390a150505050505050505050565b6008602052816000526040600020818154811061179757600080fd5b90600052602060002001600091509150505481565b6117b461477f565b6001600160a01b03166000908152600760205260409020805460ff19169055565b60008160ff16600303611810576009600060045b60048111156117fa576117fa614d61565b8152602001908152602001600020549050919050565b8160ff16600203611826576009600060036117e9565b8160ff1660010361183c576009600060026117e9565b60096000806117e9565b919050565b600085815260056020526040902060080154859062010000900460ff1615156001146118895760405162461bcd60e51b81526004016107979061510c565b3360009081526007602052604090205460ff16156118b95760405162461bcd60e51b815260040161079790615164565b6118c16147d9565b60008681526005602052604090206003810154336001600160a01b03909116036118fd5760405162461bcd60e51b815260040161079790615199565b60038101546001600160a01b031660009081526007602052604090205460ff161561193a5760405162461bcd60e51b8152600401610797906151de565b6000600882015460ff16600181111561195557611955614d61565b146119725760405162461bcd60e51b815260040161079790615234565b80600501548310156119d65760405162461bcd60e51b815260206004820152602760248201527f4e6f7420656e6f75676820616d6f756e7420746f20636f7665722061736b696e6044820152666720707269636560c81b6064820152608401610797565b60006119e1876117d5565b905060006119ee876117d5565b600d546040516323b872dd60e01b81529192506000918291339183916001600160a01b0316906323b872dd90611a2c90859030908f90600401615307565b600060405180830381600087803b158015611a4657600080fd5b505af1158015611a5a573d6000803e3d6000fd5b50505050600287015460038801546001600160a01b03918216911603611b5f57611a858a8787614832565b611a8f908b6152a2565b93508d600103611b0c57600d54600388015460405163a9059cbb60e01b81526001600160a01b039283169263a9059cbb92611ad19291169088906004016152ee565b600060405180830381600087803b158015611aeb57600080fd5b505af1158015611aff573d6000803e3d6000fd5b5050505060019250611cdc565b6000611b17856120e9565b60038901546040519192506001600160a01b03169082156108fc029083906000818181858888f19350505050158015611b54573d6000803e3d6000fd5b506001935050611cdc565b6000611b6f8b8960070154614878565b9050611b7b818c6152a2565b9150611b88828888614832565b611b9290836152a2565b600d5460028a015460405163a9059cbb60e01b81529297506001600160a01b039182169263a9059cbb92611bcc92169085906004016152ee565b600060405180830381600087803b158015611be657600080fd5b505af1158015611bfa573d6000803e3d6000fd5b505050508e600103611c7957600d54600389015460405163a9059cbb60e01b81526001600160a01b039283169263a9059cbb92611c3e9291169089906004016152ee565b600060405180830381600087803b158015611c5857600080fd5b505af1158015611c6c573d6000803e3d6000fd5b5050505060019350611cda565b611c82856120e9565b506000611c9666023af175d11975876152d7565b60038a01546040519192506001600160a01b03169082156108fc029083906000818181858888f19350505050158015611cd3573d6000803e3d6000fd5b5060019450505b505b8215611dca578e6001600160a01b03166323b872dd30848a600101546040518463ffffffff1660e01b8152600401611d1693929190615307565b600060405180830381600087803b158015611d3057600080fd5b505af1158015611d44573d6000803e3d6000fd5b505050600188015460038901546040516000805160206156d08339815191529350611d7d92916001600160a01b03169086908e9061532b565b60405180910390a16004870180546001600160a01b0384166001600160a01b031991821617909155600388018054909116905560068701805460ff19169055611dca600280546001019055565b50505050505050611ddb6001600055565b5050505050505050565b3360009081526007602052604090205460609060ff1615611e185760405162461bcd60e51b815260040161079790615164565b6000611e2360035490565b90506000805b82811015611eb6576000818152600560205260409020600301546001600160a01b038681169116148015611e6e575060008181526005602052604090206006015460ff165b8015611e91575060008181526005602052604090206008015462010000900460ff165b15611ea45781611ea0816150f3565b9250505b80611eae816150f3565b915050611e29565b506000816001600160401b03811115611ed157611ed1614ab3565b604051908082528060200260200182016040528015611f0a57816020015b611ef76149aa565b815260200190600190039081611eef5790505b5090506000805b848110156120ca576000818152600560205260409020600301546001600160a01b038881169116148015611f56575060008181526005602052604090206006015460ff165b8015611f79575060008181526005602052604090206008015462010000900460ff165b156120b85760008181526005602081815260409283902083516101808101855281546001600160a01b039081168252600180840154948301949094526002830154811695820195909552600382015485166060820152600482015490941660808501529182015460a0840152600682015460ff908116151560c0850152600783015460e0850152600883015461010085019291169081111561201d5761201d614d61565b600181111561202e5761202e614d61565b81526020016008820160019054906101000a900460ff16600281111561205657612056614d61565b600281111561206757612067614d61565b8152600882015462010000900460ff1615156020820152600990910154604090910152835184908490811061209e5761209e615350565b602002602001018190525081806120b4906150f3565b9250505b806120c2816150f3565b915050611f11565b509095945050505050565b6120dd61477f565b6120e76000614897565b565b604080516002808252606082018352600092839291906020830190803683375050600b5482519293506001600160a01b03169183915060009061212e5761212e615350565b6001600160a01b03928316602091820292909201810191909152600c54604080516315ab88c960e31b81529051919093169263ad5c46489260048083019391928290030181865afa158015612187573d6000803e3d6000fd5b505050506040513d601f19601f820116820180604052508101906121ab91906154ec565b816001815181106121be576121be615350565b6001600160a01b039283166020918202929092010152600d54600a5460405163095ea7b360e01b81529183169263095ea7b392612203929091169087906004016152ee565b600060405180830381600087803b15801561221d57600080fd5b505af1158015612231573d6000803e3d6000fd5b5060009250600291506122419050565b60405190808252806020026020018201604052801561226a578160200160208202803683370190505b50600c5460405163d06ca61f60e01b81529192506001600160a01b03169063d06ca61f9061229e908790869060040161554d565b600060405180830381865afa1580156122bb573d6000803e3d6000fd5b505050506040513d6000823e601f3d908101601f191682016040526122e3919081019061556e565b600c5481519192506001600160a01b031690634a25d94a908390600190811061230e5761230e615350565b6020026020010151868530426040518663ffffffff1660e01b815260040161233a9594939291906155fe565b6000604051808303816000875af1158015612359573d6000803e3d6000fd5b505050506040513d6000823e601f3d908101601f19168201604052612381919081019061556e565b508060018151811061239557612395615350565b602002602001015192505050919050565b606060006123b360035490565b905060006123c060025490565b6123ca90836152a2565b90506000816001600160401b038111156123e6576123e6614ab3565b60405190808252806020026020018201604052801561241f57816020015b61240c6149aa565b8152602001906001900390816124045790505b5090506000805b848110156125b75760008181526005602052604090206006015460ff168015612466575060008181526005602052604090206008015462010000900460ff165b156125a55760008181526005602081815260409283902083516101808101855281546001600160a01b039081168252600180840154948301949094526002830154811695820195909552600382015485166060820152600482015490941660808501529182015460a0840152600682015460ff908116151560c0850152600783015460e0850152600883015461010085019291169081111561250a5761250a614d61565b600181111561251b5761251b614d61565b81526020016008820160019054906101000a900460ff16600281111561254357612543614d61565b600281111561255457612554614d61565b8152600882015462010000900460ff1615156020820152600990910154604090910152835184908490811061258b5761258b615350565b602002602001018190525081806125a1906150f3565b9250505b806125af816150f3565b915050612426565b5090949350505050565b600081815260066020526040812060030154421180156125f1575060008281526006602052604090206004015442105b156125fe57506001919050565b506000919050565b3360009081526007602052604090205460ff16156126365760405162461bcd60e51b815260040161079790615164565b61263e6147d9565b6000858152600560205260409020846126995760405162461bcd60e51b815260206004820152601c60248201527f5072696365206d757374206265206174206c65617374203120776569000000006044820152606401610797565b60408051808201909152600981526837333a1737bbb732b960b91b602082015260048201546126d191906001600160a01b03166148e9565b6126fd6040518060400160405280600a81526020016936b9b39739b2b73232b960b11b815250336148e9565b60048101546001600160a01b0316331461276c5760405162461bcd60e51b815260206004820152602a60248201527f4f6e6c7920746865206f776e6572206f6620616e206e66742063616e206c69736044820152693a103a34329037333a1760b11b6064820152608401610797565b6040516323b872dd60e01b81526001600160a01b038816906323b872dd9061279c90339030908b90600401615307565b600060405180830381600087803b1580156127b657600080fd5b505af11580156127ca573d6000803e3d6000fd5b5050506003820180546001600160a01b0319908116331790915560048301805490911630179055506005810185905560068101805460ff19166001908117909155849081111561281c5761281c614d61565b60088201805460ff19166001838181111561283957612839614d61565b02179055506001840361296957604051806101000160405280878152602001336001600160a01b031681526020018681526020018481526020018381526020016000815260200160006001600160a01b031681526020018260080160019054906101000a900460ff1660028111156128b3576128b3614d61565b905260008781526006602081815260409283902084518155908401516001820180546001600160a01b03199081166001600160a01b039384161790915593850151600280840191909155606086015160038401556080860151600484015560a0860151600584015560c0860151938301805495861694909216938417825560e08601519294929391926001600160a81b03191690911790600160a01b90849081111561296157612961614d61565b021790555050505b6129736002614932565b7f380acab0ee1d651da065961944240ee750b6935ba0edefa78afb1c8e07676286878733308986600901548a6040516129b29796959493929190615366565b60405180910390a150610cbc6001600055565b60006129d0836117d5565b905060006129dd836117d5565b600086815260056020908152604080832060069283905290832091820154939450929091906001600160a01b0316612b28576000888152600660205260409020600101546001600160a01b03163314612a8d5760405162461bcd60e51b815260206004820152602c60248201527f4f6e6c79207468652073656c6c65722063616e20636c6f73652074686520756e60448201526b39b7b6321030bab1ba34b7b760a11b6064820152608401610797565b6003830154600480850180546001600160a01b0319166001600160a01b0393841617905560068501805460ff19169055600184810154908601546040516323b872dd60e01b81528d8516946323b872dd94612aed94309492169201615307565b600060405180830381600087803b158015612b0757600080fd5b505af1158015612b1b573d6000803e3d6000fd5b50505050600190506130d2565b600088815260066020819052604090912001546001600160a01b0316331480612b6a57506000888152600660205260409020600101546001600160a01b031633145b612bd75760405162461bcd60e51b815260206004820152603860248201527f4f6e6c792074686520686967686573742062696464657220616e6420746865206044820152771cd95b1b195c8818d85b8818db185a5b481d1a194813919560421b6064820152608401610797565b6000888152600660205260409020600401544211612c375760405162461bcd60e51b815260206004820152601a60248201527f41756374696f6e20686173206e6f7420656e646564207965742e0000000000006044820152606401610797565b60058201546000908082612c5266023af175d11975836152b5565b9050612c6181620f42406152d7565b905060006008880154610100900460ff166002811115612c8357612c83614d61565b03612dff5760016006870154600160a01b900460ff166002811115612caa57612caa614d61565b03612ce2576000612cc266023af175d11975856152b5565b9050612cd181620f42406152d7565b9050612cdc816120e9565b50839250505b600287015460038801546001600160a01b03918216911603612d5657612d09828a8a614832565b612d1390836152a2565b60038801546040519193506001600160a01b03169083156108fc029084906000818181858888f19350505050158015612d50573d6000803e3d6000fd5b50613006565b612d64828860070154614878565b9350612d71828a8a614832565b612d7b85846152a2565b612d8591906152a2565b60028801546040519193506001600160a01b03169085156108fc029086906000818181858888f19350505050158015612dc2573d6000803e3d6000fd5b5060038701546040516001600160a01b039091169083156108fc029084906000818181858888f19350505050158015612d50573d6000803e3d6000fd5b60016008880154610100900460ff166002811115612e1f57612e1f614d61565b036130065790508060006006870154600160a01b900460ff166002811115612e4957612e49614d61565b03612e5d57612e598160016136a7565b8091505b600287015460038801546001600160a01b03918216911603612eff57612e84828a8a614832565b612e8e90836152a2565b600d54600389015460405163a9059cbb60e01b81529294506001600160a01b039182169263a9059cbb92612ec892169086906004016152ee565b600060405180830381600087803b158015612ee257600080fd5b505af1158015612ef6573d6000803e3d6000fd5b50505050613006565b612f0d828860070154614878565b9350612f1a828a8a614832565b612f2485846152a2565b612f2e91906152a2565b600d54600389015460405163a9059cbb60e01b81529294506001600160a01b039182169263a9059cbb92612f6892169086906004016152ee565b600060405180830381600087803b158015612f8257600080fd5b505af1158015612f96573d6000803e3d6000fd5b5050600d5460028a015460405163a9059cbb60e01b81526001600160a01b03928316945063a9059cbb9350612fd3929091169088906004016152ee565b600060405180830381600087803b158015612fed57600080fd5b505af1158015613001573d6000803e3d6000fd5b505050505b84613089578c6001600160a01b03166323b872dd308860060160009054906101000a90046001600160a01b03168a600101546040518463ffffffff1660e01b815260040161305693929190615307565b600060405180830381600087803b15801561307057600080fd5b505af1158015613084573d6000803e3d6000fd5b505050505b6006868101546004890180546001600160a01b039092166001600160a01b031992831617905560038901805490911690558701805460ff19169055600280546001019055505050505b60018301546003840154600684015460058501546040516000805160206156d0833981519152946131139490936001600160a01b039182169391169161532b565b60405180910390a1505050505050505050565b600084815260056020526040902060080154849062010000900460ff1615156001146131645760405162461bcd60e51b81526004016107979061510c565b3360009081526007602052604090205460ff16156131945760405162461bcd60e51b815260040161079790615164565b61319c6147d9565b6000858152600560205260408120906131b4866117d5565b905060006131c1866117d5565b6003840154909150336001600160a01b03909116036131f25760405162461bcd60e51b815260040161079790615199565b60038301546001600160a01b031660009081526007602052604090205460ff161561322f5760405162461bcd60e51b8152600401610797906151de565b6000600884015460ff16600181111561324a5761324a614d61565b146132675760405162461bcd60e51b815260040161079790615234565b600683015460ff1615156001146132905760405162461bcd60e51b81526004016107979061526b565b60028301546003840154600091339188916001600160a01b039081169116036133fb5760006132c0828787614832565b90506132cc81836152a2565b6004546040519193506001600160a01b03169082156108fc029083906000818181858888f19350505050158015613307573d6000803e3d6000fd5b508c6000036133565760038701546040516001600160a01b039091169083156108fc029084906000818181858888f1935050505015801561334c573d6000803e3d6000fd5b50600193506133f5565b600061336966023af175d11975846152b5565b905061337881620f42406152d7565b90506133858160006136a7565b600d54600389015460405163a9059cbb60e01b81526001600160a01b039283169263a9059cbb926133bd9291169085906004016152ee565b600060405180830381600087803b1580156133d757600080fd5b505af11580156133eb573d6000803e3d6000fd5b5050505060019450505b506135a0565b60008190506000613410828960070154614878565b9050600061341f848989614832565b90508061342c83856152a2565b61343691906152a2565b6004546040519195506001600160a01b03169082156108fc029083906000818181858888f19350505050158015613471573d6000803e3d6000fd5b5060028901546040516001600160a01b039091169083156108fc029084906000818181858888f193505050501580156134ae573d6000803e3d6000fd5b508e6000036134fd5760038901546040516001600160a01b039091169085156108fc029086906000818181858888f193505050501580156134f3573d6000803e3d6000fd5b506001955061359c565b600061351066023af175d11975866152b5565b905061351f81620f42406152d7565b905061352c8160006136a7565b600d5460038b015460405163a9059cbb60e01b81526001600160a01b039283169263a9059cbb926135649291169085906004016152ee565b600060405180830381600087803b15801561357e57600080fd5b505af1158015613592573d6000803e3d6000fd5b5050505060019650505b5050505b821561368e5760018601546040516323b872dd60e01b81526001600160a01b038f16916323b872dd916135da913091879190600401615307565b600060405180830381600087803b1580156135f457600080fd5b505af1158015613608573d6000803e3d6000fd5b505050600187015460038801546040516000805160206156d0833981519152935061364192916001600160a01b03169086908d9061532b565b60405180910390a16004860180546001600160a01b0384166001600160a01b031991821617909155600387018054909116905560068601805460ff1916905561368e600280546001019055565b50505050505061369e6001600055565b50505050505050565b6040805160028082526060820183526000926020830190803683375050600c54604080516315ab88c960e31b815290519394506001600160a01b039091169263ad5c4648925060048083019260209291908290030181865afa158015613711573d6000803e3d6000fd5b505050506040513d601f19601f8201168201806040525081019061373591906154ec565b8160008151811061374857613748615350565b6001600160a01b039283166020918202929092010152600b5482519116908290600190811061377957613779615350565b6001600160a01b039290921660209283029190910182015260408051600280825260608201835260009391929091830190803683375050600c5460405163d06ca61f60e01b81529293506001600160a01b03169163d06ca61f91506137e4908790869060040161554d565b600060405180830381865afa158015613801573d6000803e3d6000fd5b505050506040513d6000823e601f3d908101601f19168201604052613829919081019061556e565b9050826000036138d657600c5481516001600160a01b0390911690637ff36ab59034908490600190811061385f5761385f615350565b60200260200101518530426040518663ffffffff1660e01b8152600401613889949392919061563a565b60006040518083038185885af11580156138a7573d6000803e3d6000fd5b50505050506040513d6000823e601f3d908101601f191682016040526138d0919081019061556e565b50613996565b60006138e966023af175d11975866152d7565b90506138f8620f4240826152b5565b600c5483519192506001600160a01b031690637ff36ab59083908590600190811061392557613925615350565b60200260200101518630426040518663ffffffff1660e01b815260040161394f949392919061563a565b60006040518083038185885af115801561396d573d6000803e3d6000fd5b50505050506040513d6000823e601f3d908101601f19168201604052610cbc919081019061556e565b50505050565b606060006139a960035490565b905060006139b660025490565b6139c090836152a2565b90506000816001600160401b038111156139dc576139dc614ab3565b604051908082528060200260200182016040528015613a1557816020015b613a026149aa565b8152602001906001900390816139fa5790505b5090506000805b848110156120ca5760008181526005602052604090206006015460ff168015613a55575060008181526005602052604090206009015487145b8015613a78575060008181526005602052604090206008015462010000900460ff165b15613bb75760008181526005602081815260409283902083516101808101855281546001600160a01b039081168252600180840154948301949094526002830154811695820195909552600382015485166060820152600482015490941660808501529182015460a0840152600682015460ff908116151560c0850152600783015460e08501526008830154610100850192911690811115613b1c57613b1c614d61565b6001811115613b2d57613b2d614d61565b81526020016008820160019054906101000a900460ff166002811115613b5557613b55614d61565b6002811115613b6657613b66614d61565b8152600882015462010000900460ff16151560208201526009909101546040909101528351849084908110613b9d57613b9d615350565b60200260200101819052508180613bb3906150f3565b9250505b80613bc1816150f3565b915050613a1c565b3360009081526007602052604090205460609060ff1615613bfc5760405162461bcd60e51b815260040161079790615164565b6000613c0760035490565b90506000805b82811015613c59576000818152600560205260409020600301546001600160a01b03808716911603613c475781613c43816150f3565b9250505b80613c51816150f3565b915050613c0d565b506000816001600160401b03811115613c7457613c74614ab3565b604051908082528060200260200182016040528015613cad57816020015b613c9a6149aa565b815260200190600190039081613c925790505b5090506000805b848110156120ca576000818152600560205260409020600301546001600160a01b03808916911603613e1a5760008181526005602081815260409283902083516101808101855281546001600160a01b039081168252600180840154948301949094526002830154811695820195909552600382015485166060820152600482015490941660808501529182015460a0840152600682015460ff908116151560c0850152600783015460e08501526008830154610100850192911690811115613d7f57613d7f614d61565b6001811115613d9057613d90614d61565b81526020016008820160019054906101000a900460ff166002811115613db857613db8614d61565b6002811115613dc957613dc9614d61565b8152600882015462010000900460ff16151560208201526009909101546040909101528351849084908110613e0057613e00615350565b60200260200101819052508180613e16906150f3565b9250505b80613e24816150f3565b915050613cb4565b6000613e3661477f565b6000805b845181101561406757848181518110613e5557613e55615350565b602090810291909101810151600081815260059092526040909120600801805462ff00001916620100008715801591820292909217909255919350613ebf5750600160008381526005602052604090206008015460ff166001811115613ebd57613ebd614d61565b145b1561401b576000828152600660208190526040909120908101546001600160a01b03161561401957600681015460058201546001600160a01b039091169081156140165760016006840154600160a01b900460ff166002811115613f2557613f25614d61565b03613fb7576000613f3d66023af175d11975836152b5565b9050613f4c81620f42406152d7565b600d5460405163a9059cbb60e01b81529192506001600160a01b03169063a9059cbb90613f7f90869085906004016152ee565b600060405180830381600087803b158015613f9957600080fd5b505af1158015613fad573d6000803e3d6000fd5b5050505050614016565b60006006840154600160a01b900460ff166002811115613fd957613fd9614d61565b03614016576040516001600160a01b0383169082156108fc029083906000818181858888f19350505050158015614014573d6000803e3d6000fd5b505b50505b505b6040805183815285151560208201527f6ffa1c2dfe558962660d78387d612607ef3f19ee482f7d51a12634d131e8db6e910160405180910390a18061405f816150f3565b915050613e3a565b50829150505b92915050565b61407b61477f565b6001600160a01b0381166140e05760405162461bcd60e51b815260206004820152602660248201527f4f776e61626c653a206e6577206f776e657220697320746865207a65726f206160448201526564647265737360d01b6064820152608401610797565b6140e981614897565b50565b60008281526006602052604090206003015482904211801561411e575060008181526006602052604090206004015442105b61413a5760405162461bcd60e51b8152600401610797906153aa565b600083815260056020526040902060080154839062010000900460ff1615156001146141785760405162461bcd60e51b81526004016107979061510c565b3360009081526007602052604090205460ff16156141a85760405162461bcd60e51b815260040161079790615164565b6000848152600660208190526040822001546001600160a01b03166141f8576000858152600660205260409020600201543410156141f85760405162461bcd60e51b8152600401610797906153f3565b60008581526006602052604090206005015434116142285760405162461bcd60e51b81526004016107979061542a565b600160008681526005602052604090206008015460ff16600181111561425057614250614d61565b1461426d5760405162461bcd60e51b815260040161079790615487565b60008581526005602052604090206006015460ff1615156001146142a35760405162461bcd60e51b81526004016107979061526b565b60008581526006602081905260409091209081015460058201546001600160a01b039091169081156143e25760016006840154600160a01b900460ff1660028111156142f1576142f1614d61565b0361438357600061430966023af175d11975836152b5565b905061431881620f42406152d7565b600d5460405163a9059cbb60e01b81529192506001600160a01b03169063a9059cbb9061434b90869085906004016152ee565b600060405180830381600087803b15801561436557600080fd5b505af1158015614379573d6000803e3d6000fd5b50505050506143e2565b60006006840154600160a01b900460ff1660028111156143a5576143a5614d61565b036143e2576040516001600160a01b0383169082156108fc029083906000818181858888f193505050501580156143e0573d6000803e3d6000fd5b505b3460058401556006830180546001600160a01b0319163317905586600281111561440e5761440e614d61565b60068401805460ff60a01b1916600160a01b83600281111561443257614432614d61565b0217905550614443426102586154ba565b836004015410156144b85761012c83600401600082825461446491906154ba565b9091555050600183015460048401546040517f8e1cb85d0855921b3c958b068fa707efb7db88099af764dd47f37eef82c3334d926144af928c926001600160a01b03909216916154cd565b60405180910390a15b600183810154600685015460058601546040519397507f4307392e6f0e441e74a4982d9fa9ddc49b3cd9d3902a9d3ecab0ad3c60a0acd19361450a938d936001600160a01b039182169391169161532b565b60405180910390a15050505050505050565b3360009081526007602052604090205460609060ff161561454f5760405162461bcd60e51b815260040161079790615164565b600061455a60035490565b90506000805b828110156145ac576000818152600560205260409020600401546001600160a01b0380871691160361459a5781614596816150f3565b9250505b806145a4816150f3565b915050614560565b506000816001600160401b038111156145c7576145c7614ab3565b60405190808252806020026020018201604052801561460057816020015b6145ed6149aa565b8152602001906001900390816145e55790505b5090506000805b848110156120ca576000818152600560205260409020600401546001600160a01b0380891691160361476d5760008181526005602081815260409283902083516101808101855281546001600160a01b039081168252600180840154948301949094526002830154811695820195909552600382015485166060820152600482015490941660808501529182015460a0840152600682015460ff908116151560c0850152600783015460e085015260088301546101008501929116908111156146d2576146d2614d61565b60018111156146e3576146e3614d61565b81526020016008820160019054906101000a900460ff16600281111561470b5761470b614d61565b600281111561471c5761471c614d61565b8152600882015462010000900460ff1615156020820152600990910154604090910152835184908490811061475357614753615350565b60200260200101819052508180614769906150f3565b9250505b80614777816150f3565b915050614607565b6001546001600160a01b031633146120e75760405162461bcd60e51b815260206004820181905260248201527f4f776e61626c653a2063616c6c6572206973206e6f7420746865206f776e65726044820152606401610797565b60026000540361482b5760405162461bcd60e51b815260206004820152601f60248201527f5265656e7472616e637947756172643a207265656e7472616e742063616c6c006044820152606401610797565b6002600055565b60008061271061484285876152d7565b61484c91906152b5565b905061271061485b84876152d7565b61486591906152b5565b61486f90826154ba565b95945050505050565b6000606461488683856152d7565b61489091906152b5565b9392505050565b600180546001600160a01b038381166001600160a01b0319831681179093556040519116919082907f8be0079c531659141344cd1fd0a4f28419497f9722a3daafe3b4186f6b6457e090600090a35050565b61492e82826040516024016148ff92919061566f565b60408051601f198184030181529190526020810180516001600160e01b031663319af33360e01b179052614989565b5050565b8054806149815760405162461bcd60e51b815260206004820152601b60248201527f436f756e7465723a2064656372656d656e74206f766572666c6f7700000000006044820152606401610797565b600019019055565b60006a636f6e736f6c652e6c6f679050600080835160208501845afa505050565b6040805161018081018252600080825260208201819052918101829052606081018290526080810182905260a0810182905260c0810182905260e081018290529061010082019081526020016000815260006020820181905260409091015290565b6001600160a01b03811681146140e957600080fd5b803561184681614a0c565b600060208284031215614a3e57600080fd5b813561489081614a0c565b803560ff8116811461184657600080fd5b600080600080600060a08688031215614a7257600080fd5b8535614a7d81614a0c565b94506020860135935060408601359250614a9960608701614a49565b9150614aa760808701614a49565b90509295509295909350565b634e487b7160e01b600052604160045260246000fd5b604051601f8201601f191681016001600160401b0381118282101715614af157614af1614ab3565b604052919050565b60006001600160401b03821115614b1257614b12614ab3565b5060051b60200190565b600082601f830112614b2d57600080fd5b81356020614b42614b3d83614af9565b614ac9565b82815260059290921b84018101918181019086841115614b6157600080fd5b8286015b84811015614b7c5780358352918301918301614b65565b509695505050505050565b60008060008060008060008060006101208a8c031215614ba657600080fd5b614baf8a614a21565b985060208a01356001600160401b0380821115614bcb57600080fd5b614bd78d838e01614b1c565b995060408c0135915080821115614bed57600080fd5b614bf98d838e01614b1c565b985060608c0135915080821115614c0f57600080fd5b614c1b8d838e01614b1c565b975060808c0135965060a08c0135915080821115614c3857600080fd5b614c448d838e01614b1c565b955060c08c0135915080821115614c5a57600080fd5b50614c678c828d01614b1c565b93505060e08a013591506101008a013590509295985092959850929598565b60008060008060808587031215614c9c57600080fd5b5050823594602084013594506040840135936060013592509050565b60008060408385031215614ccb57600080fd5b50508035926020909101359150565b600060208284031215614cec57600080fd5b61489082614a49565b600080600080600080600060e0888a031215614d1057600080fd5b8735614d1b81614a0c565b96506020880135955060408801359450614d3760608901614a49565b9350614d4560808901614a49565b925060a0880135915060c0880135905092959891949750929550565b634e487b7160e01b600052602160045260246000fd5b60028110614d8757614d87614d61565b9052565b60038110614d8757614d87614d61565b602080825282518282018190526000919060409081850190868401855b82811015614e7157815180516001600160a01b0390811686528782015188870152868201518116878701526060808301518216908701526080808301519091169086015260a0808201519086015260c08082015115159086015260e0808201519086015261010080820151614e2f82880182614d77565b505061012080820151614e4482880182614d8b565b50506101408181015115159086015261016090810151908501526101809093019290850190600101614db8565b5091979650505050505050565b600060208284031215614e9057600080fd5b5035919050565b60008060008060008060c08789031215614eb057600080fd5b8635614ebb81614a0c565b9860208801359850604088013597606081013597506080810135965060a00135945092505050565b600060208284031215614ef557600080fd5b81356005811061489057600080fd5b60008060008060808587031215614f1a57600080fd5b8435614f2581614a0c565b935060208501359250614f3a60408601614a49565b9150614f4860608601614a49565b905092959194509250565b60008060008060008060c08789031215614f6c57600080fd5b8635614f7781614a0c565b95506020870135945060408701359350614f9360608801614a49565b9250614fa160808801614a49565b915060a087013590509295509295509295565b8881526001600160a01b03888116602083015260408201889052606082018790526080820186905260a08201859052831660c08201526101008101614ffc60e0830184614d8b565b9998505050505050505050565b6001600160a01b038d81168252602082018d90528b811660408301528a811660608301528916608082015260a0810188905286151560c082015260e08101869052610180810161505d610100830187614d77565b61506b610120830186614d8b565b92151561014082015261016001529a9950505050505050505050565b6000806040838503121561509a57600080fd5b82356001600160401b038111156150b057600080fd5b6150bc85828601614b1c565b925050602083013580151581146150d257600080fd5b809150509250929050565b634e487b7160e01b600052601160045260246000fd5b600060018201615105576151056150dd565b5060010190565b60208082526038908201527f54686973204e4654206973206e6f7420617070726f766564207965742066726f6040820152776d207468652061646d696e20666f7220707572636861736560401b606082015260800190565b6020808252818101527f596f75206172652062616e6e6564206f6e207468697320706c6174666f726d2e604082015260600190565b60208082526025908201527f416e206f776e65722063616e6e6f7420707572636861736520697473206f776e6040820152641027232a1760d91b606082015260800190565b60208082526036908201527f546865206f776e6572206f662074686973206e667420697320626c61636b6c6960408201527539ba32b21037b7103a3434b990383630ba3337b9369760511b606082015260800190565b6020808252601a908201527f54686973204e4654206973206e6f742061742061756374696f6e000000000000604082015260600190565b6020808252601d908201527f4e6674206973206e6f74206c697374656420746f207075726368617365000000604082015260600190565b8181038181111561406d5761406d6150dd565b6000826152d257634e487b7160e01b600052601260045260246000fd5b500490565b808202811582820484141761406d5761406d6150dd565b6001600160a01b03929092168252602082015260400190565b6001600160a01b039384168152919092166020820152604081019190915260600190565b9384526001600160a01b03928316602085015291166040830152606082015260800190565b634e487b7160e01b600052603260045260246000fd5b6001600160a01b03978816815260208101969096529386166040860152919094166060840152608083019390935260a082019290925260c081019190915260e00190565b60208082526029908201527f54686973204e4654206973206e6f74206f6e2061756374696f6e206174207468604082015268329036b7b6b2b73a1760b91b606082015260800190565b6020808252601c908201527f4d696e696d756d206269642068617320746f2062652068696768657200000000604082015260600190565b6020808252603c908201527f596f75206861766520746f2062696420686967686572207468616e207468652060408201527f686967686573742062696420746f206d616b6520616e206f6666657200000000606082015260800190565b6020808252601990820152782a3434b99027232a1034b99030ba1030ba1030bab1ba34b7b760391b604082015260600190565b8082018082111561406d5761406d6150dd565b9283526001600160a01b03919091166020830152604082015260600190565b6000602082840312156154fe57600080fd5b815161489081614a0c565b600081518084526020808501945080840160005b838110156155425781516001600160a01b03168752958201959082019060010161551d565b509495945050505050565b8281526040602082015260006155666040830184615509565b949350505050565b6000602080838503121561558157600080fd5b82516001600160401b0381111561559757600080fd5b8301601f810185136155a857600080fd5b80516155b6614b3d82614af9565b81815260059190911b820183019083810190878311156155d557600080fd5b928401925b828410156155f3578351825292840192908401906155da565b979650505050505050565b85815284602082015260a06040820152600061561d60a0830186615509565b6001600160a01b0394909416606083015250608001529392505050565b8481526080602082015260006156536080830186615509565b6001600160a01b03949094166040830152506060015292915050565b604081526000835180604084015260005b8181101561569d5760208187018101516060868401015201615680565b50600060608285018101919091526001600160a01b03949094166020840152601f01601f19169091019091019291505056fe8562eb94748e30bb0071e932744ce902b460c683474fcb3bfd567ffa16b1afb2a2646970667358221220eb2121b17682b4a06b780a2d7168d445c71c42a24fb34f4ab920f148b117e0c764736f6c63430008130033",
  "linkReferences": {},
  "deployedLinkReferences": {}
}