{
  "_format": "hh-sol-artifact-1",
  "contractName": "ArtiziaMarketplace",
  "sourceName": "contracts/ArtiziaMarketplace.sol",
  "abi": [
    {
      "inputs": [
        {
          "internalType": "address",
          "name": "_token",
          "type": "address"
        }
      ],
      "stateMutability": "nonpayable",
      "type": "constructor"
    },
    {
      "inputs": [],
      "name": "invalidListingType",
      "type": "error"
    },
    {
      "inputs": [],
      "name": "invalidPrice",
      "type": "error"
    },
    {
      "anonymous": false,
      "inputs": [
        {
          "indexed": false,
          "internalType": "address",
          "name": "nftContract",
          "type": "address"
        },
        {
          "indexed": false,
          "internalType": "uint256",
          "name": "tokenId",
          "type": "uint256"
        },
        {
          "indexed": false,
          "internalType": "address",
          "name": "seller",
          "type": "address"
        },
        {
          "indexed": false,
          "internalType": "address",
          "name": "owner",
          "type": "address"
        },
        {
          "indexed": false,
          "internalType": "uint256",
          "name": "price",
          "type": "uint256"
        },
        {
          "indexed": false,
          "internalType": "uint256",
          "name": "collectionId",
          "type": "uint256"
        },
        {
          "indexed": false,
          "internalType": "uint256",
          "name": "listingType",
          "type": "uint256"
        }
      ],
      "name": "NFTListed",
      "type": "event"
    },
    {
      "anonymous": false,
      "inputs": [
        {
          "indexed": false,
          "internalType": "address",
          "name": "nftContract",
          "type": "address"
        },
        {
          "indexed": false,
          "internalType": "uint256",
          "name": "tokenId",
          "type": "uint256"
        },
        {
          "indexed": false,
          "internalType": "address",
          "name": "seller",
          "type": "address"
        },
        {
          "indexed": false,
          "internalType": "address",
          "name": "buyer",
          "type": "address"
        },
        {
          "indexed": false,
          "internalType": "uint256",
          "name": "price",
          "type": "uint256"
        }
      ],
      "name": "NFTSold",
      "type": "event"
    },
    {
      "anonymous": false,
      "inputs": [
        {
          "indexed": true,
          "internalType": "address",
          "name": "previousOwner",
          "type": "address"
        },
        {
          "indexed": true,
          "internalType": "address",
          "name": "newOwner",
          "type": "address"
        }
      ],
      "name": "OwnershipTransferred",
      "type": "event"
    },
    {
      "anonymous": false,
      "inputs": [
        {
          "indexed": false,
          "internalType": "address[]",
          "name": "fans",
          "type": "address[]"
        }
      ],
      "name": "addedFans",
      "type": "event"
    },
    {
      "anonymous": false,
      "inputs": [
        {
          "indexed": false,
          "internalType": "uint256",
          "name": "tokenId",
          "type": "uint256"
        },
        {
          "indexed": false,
          "internalType": "bool",
          "name": "decision",
          "type": "bool"
        }
      ],
      "name": "approvalUpdate",
      "type": "event"
    },
    {
      "anonymous": false,
      "inputs": [
        {
          "indexed": false,
          "internalType": "uint256",
          "name": "tokenId",
          "type": "uint256"
        },
        {
          "indexed": false,
          "internalType": "address",
          "name": "seller",
          "type": "address"
        },
        {
          "indexed": false,
          "internalType": "uint256",
          "name": "newTime",
          "type": "uint256"
        }
      ],
      "name": "auctionEndTimeIncreased",
      "type": "event"
    },
    {
      "anonymous": false,
      "inputs": [
        {
          "indexed": false,
          "internalType": "uint256",
          "name": "tokenId",
          "type": "uint256"
        },
        {
          "indexed": false,
          "internalType": "address",
          "name": "seller",
          "type": "address"
        },
        {
          "indexed": false,
          "internalType": "address",
          "name": "highestBidder",
          "type": "address"
        },
        {
          "indexed": false,
          "internalType": "uint256",
          "name": "highestBid",
          "type": "uint256"
        }
      ],
      "name": "receivedABid",
      "type": "event"
    },
    {
      "anonymous": false,
      "inputs": [
        {
          "indexed": false,
          "internalType": "address",
          "name": "fan",
          "type": "address"
        }
      ],
      "name": "removeFan",
      "type": "event"
    },
    {
      "stateMutability": "payable",
      "type": "fallback"
    },
    {
      "inputs": [],
      "name": "UNISWAP_ROUTER_ADDRESS",
      "outputs": [
        {
          "internalType": "address",
          "name": "",
          "type": "address"
        }
      ],
      "stateMutability": "view",
      "type": "function"
    },
    {
      "inputs": [],
      "name": "USDT_ADDRESS",
      "outputs": [
        {
          "internalType": "address",
          "name": "",
          "type": "address"
        }
      ],
      "stateMutability": "view",
      "type": "function"
    },
    {
      "inputs": [
        {
          "internalType": "uint256",
          "name": "",
          "type": "uint256"
        }
      ],
      "name": "_idToAuction",
      "outputs": [
        {
          "internalType": "uint256",
          "name": "tokenId",
          "type": "uint256"
        },
        {
          "internalType": "address payable",
          "name": "seller",
          "type": "address"
        },
        {
          "internalType": "uint256",
          "name": "basePrice",
          "type": "uint256"
        },
        {
          "internalType": "uint256",
          "name": "startTime",
          "type": "uint256"
        },
        {
          "internalType": "uint256",
          "name": "endTime",
          "type": "uint256"
        },
        {
          "internalType": "uint256",
          "name": "highestBid",
          "type": "uint256"
        },
        {
          "internalType": "address payable",
          "name": "highestBidder",
          "type": "address"
        },
        {
          "internalType": "enum ArtiziaMarketplace.PaymentMethod",
          "name": "highestBidCurrency",
          "type": "uint8"
        }
      ],
      "stateMutability": "view",
      "type": "function"
    },
    {
      "inputs": [
        {
          "internalType": "uint256",
          "name": "",
          "type": "uint256"
        }
      ],
      "name": "_idToNFT",
      "outputs": [
        {
          "internalType": "address",
          "name": "nftContract",
          "type": "address"
        },
        {
          "internalType": "uint256",
          "name": "tokenId",
          "type": "uint256"
        },
        {
          "internalType": "address payable",
          "name": "firstOwner",
          "type": "address"
        },
        {
          "internalType": "address payable",
          "name": "seller",
          "type": "address"
        },
        {
          "internalType": "address payable",
          "name": "owner",
          "type": "address"
        },
        {
          "internalType": "uint256",
          "name": "price",
          "type": "uint256"
        },
        {
          "internalType": "bool",
          "name": "listed",
          "type": "bool"
        },
        {
          "internalType": "uint256",
          "name": "royaltyPrice",
          "type": "uint256"
        },
        {
          "internalType": "enum ArtiziaMarketplace.ListingType",
          "name": "listingType",
          "type": "uint8"
        },
        {
          "internalType": "enum ArtiziaMarketplace.PaymentMethod",
          "name": "paymentMethod",
          "type": "uint8"
        },
        {
          "internalType": "bool",
          "name": "approve",
          "type": "bool"
        },
        {
          "internalType": "uint256",
          "name": "collectionId",
          "type": "uint256"
        }
      ],
      "stateMutability": "view",
      "type": "function"
    },
    {
      "inputs": [
        {
          "internalType": "uint256",
          "name": "",
          "type": "uint256"
        }
      ],
      "name": "_idToNFT2",
      "outputs": [
        {
          "internalType": "uint256",
          "name": "tokenId",
          "type": "uint256"
        },
        {
          "internalType": "bool",
          "name": "onlyFans",
          "type": "bool"
        },
        {
          "internalType": "uint256",
          "name": "fanDiscountPercent",
          "type": "uint256"
        }
      ],
      "stateMutability": "view",
      "type": "function"
    },
    {
      "inputs": [],
      "name": "_nftCount",
      "outputs": [
        {
          "internalType": "uint256",
          "name": "_value",
          "type": "uint256"
        }
      ],
      "stateMutability": "view",
      "type": "function"
    },
    {
      "inputs": [],
      "name": "_nftsSold",
      "outputs": [
        {
          "internalType": "uint256",
          "name": "_value",
          "type": "uint256"
        }
      ],
      "stateMutability": "view",
      "type": "function"
    },
    {
      "inputs": [
        {
          "internalType": "address[]",
          "name": "fans",
          "type": "address[]"
        }
      ],
      "name": "addFans",
      "outputs": [],
      "stateMutability": "nonpayable",
      "type": "function"
    },
    {
      "inputs": [
        {
          "internalType": "uint256[]",
          "name": "_tokenId",
          "type": "uint256[]"
        },
        {
          "internalType": "bool",
          "name": "_decision",
          "type": "bool"
        }
      ],
      "name": "approveNfts",
      "outputs": [
        {
          "internalType": "bool",
          "name": "",
          "type": "bool"
        }
      ],
      "stateMutability": "nonpayable",
      "type": "function"
    },
    {
      "inputs": [
        {
          "internalType": "address",
          "name": "_user",
          "type": "address"
        }
      ],
      "name": "banUser",
      "outputs": [],
      "stateMutability": "nonpayable",
      "type": "function"
    },
    {
      "inputs": [
        {
          "internalType": "address",
          "name": "",
          "type": "address"
        }
      ],
      "name": "bannedUsers",
      "outputs": [
        {
          "internalType": "bool",
          "name": "",
          "type": "bool"
        }
      ],
      "stateMutability": "view",
      "type": "function"
    },
    {
      "inputs": [
        {
          "internalType": "uint256",
          "name": "_tokenId",
          "type": "uint256"
        },
        {
          "internalType": "uint256",
          "name": "_bidCurrency",
          "type": "uint256"
        }
      ],
      "name": "bidInETH",
      "outputs": [],
      "stateMutability": "payable",
      "type": "function"
    },
    {
      "inputs": [
        {
          "internalType": "uint256",
          "name": "_tokenId",
          "type": "uint256"
        },
        {
          "internalType": "uint256",
          "name": "_amount",
          "type": "uint256"
        },
        {
          "internalType": "uint256",
          "name": "_bidCurrency",
          "type": "uint256"
        }
      ],
      "name": "bidInUSDT",
      "outputs": [],
      "stateMutability": "payable",
      "type": "function"
    },
    {
      "inputs": [
        {
          "internalType": "address",
          "name": "_nftContract",
          "type": "address"
        },
        {
          "internalType": "uint256",
          "name": "_paymentMethod",
          "type": "uint256"
        },
        {
          "internalType": "uint256",
          "name": "_tokenId",
          "type": "uint256"
        },
        {
          "internalType": "uint256",
          "name": "_sellerPercent",
          "type": "uint256"
        },
        {
          "internalType": "uint256",
          "name": "_buyerPercent",
          "type": "uint256"
        }
      ],
      "name": "buyWithETH",
      "outputs": [],
      "stateMutability": "payable",
      "type": "function"
    },
    {
      "inputs": [
        {
          "internalType": "address",
          "name": "_nftContract",
          "type": "address"
        },
        {
          "internalType": "uint256",
          "name": "_paymentMethod",
          "type": "uint256"
        },
        {
          "internalType": "uint256",
          "name": "_tokenId",
          "type": "uint256"
        },
        {
          "internalType": "uint256",
          "name": "_amount",
          "type": "uint256"
        },
        {
          "internalType": "uint256",
          "name": "_sellerPercent",
          "type": "uint256"
        },
        {
          "internalType": "uint256",
          "name": "_buyerPercent",
          "type": "uint256"
        }
      ],
      "name": "buyWithUSDT",
      "outputs": [],
      "stateMutability": "payable",
      "type": "function"
    },
    {
      "inputs": [
        {
          "internalType": "uint256",
          "name": "_tokenId",
          "type": "uint256"
        },
        {
          "internalType": "uint256",
          "name": "_newDiscountPercent",
          "type": "uint256"
        }
      ],
      "name": "changeFanDiscountPercent",
      "outputs": [],
      "stateMutability": "nonpayable",
      "type": "function"
    },
    {
      "inputs": [],
      "name": "checkBannedOrDeletedUser",
      "outputs": [
        {
          "internalType": "bool",
          "name": "",
          "type": "bool"
        }
      ],
      "stateMutability": "view",
      "type": "function"
    },
    {
      "inputs": [
        {
          "internalType": "uint256",
          "name": "_tokenId",
          "type": "uint256"
        }
      ],
      "name": "checkFan",
      "outputs": [
        {
          "internalType": "bool",
          "name": "",
          "type": "bool"
        }
      ],
      "stateMutability": "view",
      "type": "function"
    },
    {
      "inputs": [
        {
          "internalType": "address",
          "name": "_nftContract",
          "type": "address"
        },
        {
          "internalType": "uint256",
          "name": "_tokenId",
          "type": "uint256"
        },
        {
          "internalType": "uint256",
          "name": "_sellerPercent",
          "type": "uint256"
        },
        {
          "internalType": "uint256",
          "name": "_buyerPercent",
          "type": "uint256"
        }
      ],
      "name": "closeAuction",
      "outputs": [],
      "stateMutability": "payable",
      "type": "function"
    },
    {
      "inputs": [
        {
          "internalType": "uint256",
          "name": "",
          "type": "uint256"
        },
        {
          "internalType": "uint256",
          "name": "",
          "type": "uint256"
        }
      ],
      "name": "collection",
      "outputs": [
        {
          "internalType": "uint256",
          "name": "",
          "type": "uint256"
        }
      ],
      "stateMutability": "view",
      "type": "function"
    },
    {
      "inputs": [
        {
          "internalType": "address",
          "name": "_user",
          "type": "address"
        }
      ],
      "name": "deleteUser",
      "outputs": [],
      "stateMutability": "nonpayable",
      "type": "function"
    },
    {
      "inputs": [
        {
          "internalType": "address",
          "name": "",
          "type": "address"
        }
      ],
      "name": "deletedUsers",
      "outputs": [
        {
          "internalType": "bool",
          "name": "",
          "type": "bool"
        }
      ],
      "stateMutability": "view",
      "type": "function"
    },
    {
      "inputs": [
        {
          "internalType": "address",
          "name": "",
          "type": "address"
        },
        {
          "internalType": "uint256",
          "name": "",
          "type": "uint256"
        }
      ],
      "name": "fanLists",
      "outputs": [
        {
          "internalType": "address",
          "name": "",
          "type": "address"
        }
      ],
      "stateMutability": "view",
      "type": "function"
    },
    {
      "inputs": [
        {
          "internalType": "uint256",
          "name": "_collectionId",
          "type": "uint256"
        }
      ],
      "name": "getCollectionNfts",
      "outputs": [
        {
          "components": [
            {
              "internalType": "address",
              "name": "nftContract",
              "type": "address"
            },
            {
              "internalType": "uint256",
              "name": "tokenId",
              "type": "uint256"
            },
            {
              "internalType": "address payable",
              "name": "firstOwner",
              "type": "address"
            },
            {
              "internalType": "address payable",
              "name": "seller",
              "type": "address"
            },
            {
              "internalType": "address payable",
              "name": "owner",
              "type": "address"
            },
            {
              "internalType": "uint256",
              "name": "price",
              "type": "uint256"
            },
            {
              "internalType": "bool",
              "name": "listed",
              "type": "bool"
            },
            {
              "internalType": "uint256",
              "name": "royaltyPrice",
              "type": "uint256"
            },
            {
              "internalType": "enum ArtiziaMarketplace.ListingType",
              "name": "listingType",
              "type": "uint8"
            },
            {
              "internalType": "enum ArtiziaMarketplace.PaymentMethod",
              "name": "paymentMethod",
              "type": "uint8"
            },
            {
              "internalType": "bool",
              "name": "approve",
              "type": "bool"
            },
            {
              "internalType": "uint256",
              "name": "collectionId",
              "type": "uint256"
            }
          ],
          "internalType": "struct ArtiziaMarketplace.NFT[]",
          "name": "",
          "type": "tuple[]"
        }
      ],
      "stateMutability": "view",
      "type": "function"
    },
    {
      "inputs": [],
      "name": "getCurrentTimestamp",
      "outputs": [
        {
          "internalType": "uint256",
          "name": "",
          "type": "uint256"
        }
      ],
      "stateMutability": "view",
      "type": "function"
    },
    {
      "inputs": [
        {
          "internalType": "address",
          "name": "user",
          "type": "address"
        }
      ],
      "name": "getFans",
      "outputs": [
        {
          "internalType": "address[]",
          "name": "",
          "type": "address[]"
        }
      ],
      "stateMutability": "view",
      "type": "function"
    },
    {
      "inputs": [],
      "name": "getLatestUSDTPrice",
      "outputs": [
        {
          "internalType": "uint256",
          "name": "",
          "type": "uint256"
        }
      ],
      "stateMutability": "view",
      "type": "function"
    },
    {
      "inputs": [],
      "name": "getListedNfts",
      "outputs": [
        {
          "components": [
            {
              "internalType": "address",
              "name": "nftContract",
              "type": "address"
            },
            {
              "internalType": "uint256",
              "name": "tokenId",
              "type": "uint256"
            },
            {
              "internalType": "address payable",
              "name": "firstOwner",
              "type": "address"
            },
            {
              "internalType": "address payable",
              "name": "seller",
              "type": "address"
            },
            {
              "internalType": "address payable",
              "name": "owner",
              "type": "address"
            },
            {
              "internalType": "uint256",
              "name": "price",
              "type": "uint256"
            },
            {
              "internalType": "bool",
              "name": "listed",
              "type": "bool"
            },
            {
              "internalType": "uint256",
              "name": "royaltyPrice",
              "type": "uint256"
            },
            {
              "internalType": "enum ArtiziaMarketplace.ListingType",
              "name": "listingType",
              "type": "uint8"
            },
            {
              "internalType": "enum ArtiziaMarketplace.PaymentMethod",
              "name": "paymentMethod",
              "type": "uint8"
            },
            {
              "internalType": "bool",
              "name": "approve",
              "type": "bool"
            },
            {
              "internalType": "uint256",
              "name": "collectionId",
              "type": "uint256"
            }
          ],
          "internalType": "struct ArtiziaMarketplace.NFT[]",
          "name": "",
          "type": "tuple[]"
        }
      ],
      "stateMutability": "view",
      "type": "function"
    },
    {
      "inputs": [
        {
          "internalType": "address",
          "name": "_user",
          "type": "address"
        }
      ],
      "name": "getMyListedNfts",
      "outputs": [
        {
          "components": [
            {
              "internalType": "address",
              "name": "nftContract",
              "type": "address"
            },
            {
              "internalType": "uint256",
              "name": "tokenId",
              "type": "uint256"
            },
            {
              "internalType": "address payable",
              "name": "firstOwner",
              "type": "address"
            },
            {
              "internalType": "address payable",
              "name": "seller",
              "type": "address"
            },
            {
              "internalType": "address payable",
              "name": "owner",
              "type": "address"
            },
            {
              "internalType": "uint256",
              "name": "price",
              "type": "uint256"
            },
            {
              "internalType": "bool",
              "name": "listed",
              "type": "bool"
            },
            {
              "internalType": "uint256",
              "name": "royaltyPrice",
              "type": "uint256"
            },
            {
              "internalType": "enum ArtiziaMarketplace.ListingType",
              "name": "listingType",
              "type": "uint8"
            },
            {
              "internalType": "enum ArtiziaMarketplace.PaymentMethod",
              "name": "paymentMethod",
              "type": "uint8"
            },
            {
              "internalType": "bool",
              "name": "approve",
              "type": "bool"
            },
            {
              "internalType": "uint256",
              "name": "collectionId",
              "type": "uint256"
            }
          ],
          "internalType": "struct ArtiziaMarketplace.NFT[]",
          "name": "",
          "type": "tuple[]"
        }
      ],
      "stateMutability": "view",
      "type": "function"
    },
    {
      "inputs": [
        {
          "internalType": "address",
          "name": "_user",
          "type": "address"
        }
      ],
      "name": "getMyNfts",
      "outputs": [
        {
          "components": [
            {
              "internalType": "address",
              "name": "nftContract",
              "type": "address"
            },
            {
              "internalType": "uint256",
              "name": "tokenId",
              "type": "uint256"
            },
            {
              "internalType": "address payable",
              "name": "firstOwner",
              "type": "address"
            },
            {
              "internalType": "address payable",
              "name": "seller",
              "type": "address"
            },
            {
              "internalType": "address payable",
              "name": "owner",
              "type": "address"
            },
            {
              "internalType": "uint256",
              "name": "price",
              "type": "uint256"
            },
            {
              "internalType": "bool",
              "name": "listed",
              "type": "bool"
            },
            {
              "internalType": "uint256",
              "name": "royaltyPrice",
              "type": "uint256"
            },
            {
              "internalType": "enum ArtiziaMarketplace.ListingType",
              "name": "listingType",
              "type": "uint8"
            },
            {
              "internalType": "enum ArtiziaMarketplace.PaymentMethod",
              "name": "paymentMethod",
              "type": "uint8"
            },
            {
              "internalType": "bool",
              "name": "approve",
              "type": "bool"
            },
            {
              "internalType": "uint256",
              "name": "collectionId",
              "type": "uint256"
            }
          ],
          "internalType": "struct ArtiziaMarketplace.NFT[]",
          "name": "",
          "type": "tuple[]"
        }
      ],
      "stateMutability": "view",
      "type": "function"
    },
    {
      "inputs": [
        {
          "internalType": "uint256",
          "name": "_tokenId",
          "type": "uint256"
        }
      ],
      "name": "getNftApprovalStatus",
      "outputs": [
        {
          "internalType": "bool",
          "name": "",
          "type": "bool"
        }
      ],
      "stateMutability": "view",
      "type": "function"
    },
    {
      "inputs": [
        {
          "internalType": "uint256",
          "name": "_tokenId",
          "type": "uint256"
        }
      ],
      "name": "getStatusOfAuction",
      "outputs": [
        {
          "internalType": "bool",
          "name": "",
          "type": "bool"
        }
      ],
      "stateMutability": "view",
      "type": "function"
    },
    {
      "inputs": [
        {
          "internalType": "address",
          "name": "_user",
          "type": "address"
        }
      ],
      "name": "getUsersNfts",
      "outputs": [
        {
          "components": [
            {
              "internalType": "address",
              "name": "nftContract",
              "type": "address"
            },
            {
              "internalType": "uint256",
              "name": "tokenId",
              "type": "uint256"
            },
            {
              "internalType": "address payable",
              "name": "firstOwner",
              "type": "address"
            },
            {
              "internalType": "address payable",
              "name": "seller",
              "type": "address"
            },
            {
              "internalType": "address payable",
              "name": "owner",
              "type": "address"
            },
            {
              "internalType": "uint256",
              "name": "price",
              "type": "uint256"
            },
            {
              "internalType": "bool",
              "name": "listed",
              "type": "bool"
            },
            {
              "internalType": "uint256",
              "name": "royaltyPrice",
              "type": "uint256"
            },
            {
              "internalType": "enum ArtiziaMarketplace.ListingType",
              "name": "listingType",
              "type": "uint8"
            },
            {
              "internalType": "enum ArtiziaMarketplace.PaymentMethod",
              "name": "paymentMethod",
              "type": "uint8"
            },
            {
              "internalType": "bool",
              "name": "approve",
              "type": "bool"
            },
            {
              "internalType": "uint256",
              "name": "collectionId",
              "type": "uint256"
            }
          ],
          "internalType": "struct ArtiziaMarketplace.NFT[]",
          "name": "",
          "type": "tuple[]"
        }
      ],
      "stateMutability": "view",
      "type": "function"
    },
    {
      "inputs": [
        {
          "internalType": "address",
          "name": "",
          "type": "address"
        },
        {
          "internalType": "address",
          "name": "",
          "type": "address"
        }
      ],
      "name": "isFan",
      "outputs": [
        {
          "internalType": "bool",
          "name": "",
          "type": "bool"
        }
      ],
      "stateMutability": "view",
      "type": "function"
    },
    {
      "inputs": [
        {
          "internalType": "address",
          "name": "_nftContract",
          "type": "address"
        },
        {
          "internalType": "uint256[]",
          "name": "_tokenId",
          "type": "uint256[]"
        },
        {
          "internalType": "uint256[]",
          "name": "_price",
          "type": "uint256[]"
        },
        {
          "internalType": "uint256",
          "name": "_royaltyPrice",
          "type": "uint256"
        },
        {
          "internalType": "uint256",
          "name": "_listingType",
          "type": "uint256"
        },
        {
          "internalType": "uint256[]",
          "name": "_startTime",
          "type": "uint256[]"
        },
        {
          "internalType": "uint256[]",
          "name": "_endTime",
          "type": "uint256[]"
        },
        {
          "internalType": "uint256",
          "name": "_collectionId",
          "type": "uint256"
        },
        {
          "internalType": "uint256",
          "name": "_paymentMethod",
          "type": "uint256"
        }
      ],
      "name": "listNft",
      "outputs": [],
      "stateMutability": "payable",
      "type": "function"
    },
    {
      "inputs": [],
      "name": "owner",
      "outputs": [
        {
          "internalType": "address",
          "name": "",
          "type": "address"
        }
      ],
      "stateMutability": "view",
      "type": "function"
    },
    {
      "inputs": [
        {
          "internalType": "address",
          "name": "addressToRemove",
          "type": "address"
        }
      ],
      "name": "removeFans",
      "outputs": [],
      "stateMutability": "nonpayable",
      "type": "function"
    },
    {
      "inputs": [],
      "name": "renounceOwnership",
      "outputs": [],
      "stateMutability": "nonpayable",
      "type": "function"
    },
    {
      "inputs": [
        {
          "internalType": "address",
          "name": "_nftContract",
          "type": "address"
        },
        {
          "internalType": "uint256",
          "name": "_tokenId",
          "type": "uint256"
        },
        {
          "internalType": "uint256",
          "name": "_price",
          "type": "uint256"
        },
        {
          "internalType": "uint256",
          "name": "_listingType",
          "type": "uint256"
        },
        {
          "internalType": "uint256",
          "name": "_startTime",
          "type": "uint256"
        },
        {
          "internalType": "uint256",
          "name": "_endTime",
          "type": "uint256"
        },
        {
          "internalType": "address",
          "name": "_user",
          "type": "address"
        }
      ],
      "name": "resellNft",
      "outputs": [],
      "stateMutability": "nonpayable",
      "type": "function"
    },
    {
      "inputs": [
        {
          "internalType": "uint256",
          "name": "usdtAmountOut",
          "type": "uint256"
        }
      ],
      "name": "swapETHForUSDT",
      "outputs": [
        {
          "internalType": "uint256",
          "name": "",
          "type": "uint256"
        }
      ],
      "stateMutability": "payable",
      "type": "function"
    },
    {
      "inputs": [
        {
          "internalType": "uint256",
          "name": "usdtAmountIn",
          "type": "uint256"
        }
      ],
      "name": "swapUSDTForETH",
      "outputs": [
        {
          "internalType": "uint256",
          "name": "",
          "type": "uint256"
        }
      ],
      "stateMutability": "nonpayable",
      "type": "function"
    },
    {
      "inputs": [
        {
          "internalType": "uint256[]",
          "name": "tokenIds",
          "type": "uint256[]"
        }
      ],
      "name": "toggleOnlyFans",
      "outputs": [],
      "stateMutability": "nonpayable",
      "type": "function"
    },
    {
      "inputs": [
        {
          "internalType": "address",
          "name": "newOwner",
          "type": "address"
        }
      ],
      "name": "transferOwnership",
      "outputs": [],
      "stateMutability": "nonpayable",
      "type": "function"
    },
    {
      "inputs": [
        {
          "internalType": "address",
          "name": "_user",
          "type": "address"
        }
      ],
      "name": "unbanUser",
      "outputs": [],
      "stateMutability": "nonpayable",
      "type": "function"
    },
    {
      "stateMutability": "payable",
      "type": "receive"
    }
  ],
  "bytecode": "0x6080604052600d80546001600160a01b0319908116737a250d5630b4cf539739df2c5dacb4c659f2488d17909155600e805490911673dac17f958d2ee523a2206206994597c13d831ec71790553480156200005957600080fd5b506040516200604f3803806200604f8339810160408190526200007c9162000120565b60016000556200008c33620000ce565b60048054336001600160a01b031991821617909155600d54600f80546001600160a01b0392831690841617905560108054909216921691909117905562000152565b600180546001600160a01b038381166001600160a01b0319831681179093556040519116919082907f8be0079c531659141344cd1fd0a4f28419497f9722a3daafe3b4186f6b6457e090600090a35050565b6000602082840312156200013357600080fd5b81516001600160a01b03811681146200014b57600080fd5b9392505050565b615eed80620001626000396000f3fe6080604052600436106102535760003560e01c80638da5cb5b11610138578063c36ac2d2116100b0578063ed5a1c0f11610077578063ed5a1c0f1461087d578063f1ff9d0d146108b8578063f2fde38b146108d8578063f3ed87e4146108f8578063f41dfb181461090b578063f6c1b77a1461091e57005b8063c36ac2d2146107cd578063d12824f1146107ed578063d6cbb2021461080d578063d6fc3dbd14610824578063ecb4ad0c1461084457005b8063a8ab8c03116100ff578063a8ab8c0314610617578063b4fa041214610644578063b8b3455d146106c9578063b9e07df1146106dc578063bbffa07b1461078d578063c1892058146107ad57005b80638da5cb5b1461051957806398dd36bf146105375780639a6e94be1461054c5780639c744058146105a65780639ea36e88146105c657005b80635ca11fa3116101cb57806377ec6a471161019257806377ec6a471461043957806379b36943146104695780638090551e146104a15780638988d078146104b45780638cd410f4146104e45780638d6cb3fb1461050457005b80635ca11fa3146103b15780636c9230db146103d15780636f9e8876146103e4578063715018a614610404578063719b21881461041957005b806348a51f531161021a57806348a51f53146102ec5780634afbcdae146102ff5780634d12b6951461031f5780635274cff61461033f5780635674c2e61461036c5780635c60f2261461039157005b806310d86b1f1461025c5780632a448f6c1461027c5780633000df5d1461028f57806331824a49146102a257806331a7a70f146102cc57005b3661025a57005b005b34801561026857600080fd5b5061025a610277366004614f60565b61093e565b61025a61028a366004614f7d565b61096a565b61025a61029d366004615095565b610f74565b3480156102ae57600080fd5b506002546102b99081565b6040519081526020015b60405180910390f35b3480156102d857600080fd5b5061025a6102e7366004615179565b611637565b61025a6102fa366004615212565b611872565b34801561030b57600080fd5b506102b961031a36600461525e565b611f3f565b34801561032b57600080fd5b5061025a61033a366004614f60565b611f70565b34801561034b57600080fd5b5061035f61035a366004614f60565b611f99565b6040516102c391906152ba565b34801561037857600080fd5b506103816122bb565b60405190151581526020016102c3565b34801561039d57600080fd5b5061025a6103ac366004614f60565b6122f9565b3480156103bd57600080fd5b5061025a6103cc36600461525e565b612325565b3480156103dd57600080fd5b50426102b9565b3480156103f057600080fd5b5061025a6103ff36600461539d565b6123bf565b34801561041057600080fd5b5061025a612751565b34801561042557600080fd5b5061025a610434366004614f60565b612765565b34801561044557600080fd5b50610381610454366004614f60565b600b6020526000908152604090205460ff1681565b34801561047557600080fd5b50600d54610489906001600160a01b031681565b6040516001600160a01b0390911681526020016102c3565b6102b96104af366004615406565b6128c0565b3480156104c057600080fd5b506103816104cf366004614f60565b600a6020526000908152604090205460ff1681565b3480156104f057600080fd5b506102b96104ff366004615406565b612b09565b34801561051057600080fd5b5061035f612da1565b34801561052557600080fd5b506001546001600160a01b0316610489565b34801561054357600080fd5b506102b9612fed565b34801561055857600080fd5b5061058b610567366004615406565b600660205260009081526040902080546001820154600290920154909160ff169083565b604080519384529115156020840152908201526060016102c3565b3480156105b257600080fd5b506103816105c1366004615406565b6130bc565b3480156105d257600080fd5b506103816105e1366004615406565b6000908152600560209081526040808320600301546001600160a01b031683526007825280832033845290915290205460ff1690565b34801561062357600080fd5b50610637610632366004614f60565b613101565b6040516102c39190615463565b34801561065057600080fd5b506106b561065f366004615406565b600960205260009081526040902080546001820154600283015460038401546004850154600586015460069096015494956001600160a01b0394851695939492939192909190811690600160a01b900460ff1688565b6040516102c3989796959493929190615476565b61025a6106d73660046154cb565b6131a8565b3480156106e857600080fd5b506107756106f7366004615406565b600560208190526000918252604090912080546001820154600283015460038401546004850154958501546006860154600787015460088801546009909801546001600160a01b03978816999698958816979485169690941694929360ff92831693919282811692610100810482169262010000909104909116908c565b6040516102c39c9b9a999897969594939291906154f7565b34801561079957600080fd5b506104896107a8366004615575565b613736565b3480156107b957600080fd5b50600e54610489906001600160a01b031681565b3480156107d957600080fd5b5061035f6107e8366004615406565b61376e565b3480156107f957600080fd5b5061035f610808366004614f60565b61399b565b34801561081957600080fd5b506003546102b99081565b34801561083057600080fd5b5061038161083f3660046155a1565b613c2e565b34801561085057600080fd5b5061038161085f366004615406565b60009081526005602052604090206008015462010000900460ff1690565b34801561088957600080fd5b506103816108983660046155f7565b600760209081526000928352604080842090915290825290205460ff1681565b3480156108c457600080fd5b5061025a6108d3366004615625565b613ce2565b3480156108e457600080fd5b5061025a6108f3366004614f60565b613de4565b61025a610906366004615661565b613e5d565b61025a61091936600461525e565b61458e565b34801561092a57600080fd5b5061035f610939366004614f60565b614a56565b610946614cb9565b6001600160a01b03166000908152600a60205260409020805460ff19166001179055565b600083815260056020526040902060080154839062010000900460ff1615156001146109b15760405162461bcd60e51b81526004016109a89061569c565b60405180910390fd5b336000908152600a602052604090205460ff16156109e15760405162461bcd60e51b81526004016109a8906156f4565b336000908152600b602052604090205460ff1615610a115760405162461bcd60e51b81526004016109a890615729565b610a19614d13565b60008481526005602052604090206003810154336001600160a01b0390911603610a555760405162461bcd60e51b81526004016109a890615799565b60048101546001600160a01b03166000908152600a602052604090205460ff1615610a925760405162461bcd60e51b81526004016109a8906157de565b60048101546001600160a01b03166000908152600b602052604090205460ff1615610acf5760405162461bcd60e51b81526004016109a890615834565b6000600882015460ff166001811115610aea57610aea615280565b14610b075760405162461bcd60e51b81526004016109a890615891565b600681015460ff161515600114610b305760405162461bcd60e51b81526004016109a8906158c8565b6000858152600560209081526040808320600301546001600160a01b0316835260078252808320338085529252822054829060ff1615610bb857600088815260066020526040902060020154610b87903490614d6c565b610b919034615915565b905080341015610bb35760405162461bcd60e51b81526004016109a890615928565b610bdf565b8360050154341015610bdc5760405162461bcd60e51b81526004016109a890615928565b50345b600284015460038501546001600160a01b03918216911603610d0657610c06818888614d8b565b610c109082615915565b905088600003610c605760038401546040516001600160a01b039091169082156108fc029083906000818181858888f19350505050158015610c56573d6000803e3d6000fd5b5060019250610e6d565b610c69816128c0565b506000610c74612fed565b610c7e908361596e565b90506000610c8f82620f424061596e565b601054600388015460405163a9059cbb60e01b81529293506001600160a01b039182169263a9059cbb92610cc99216908590600401615985565b600060405180830381600087803b158015610ce357600080fd5b505af1158015610cf7573d6000803e3d6000fd5b50505050600194505050610e6d565b60008190506000610d1b828760070154614d6c565b9050610d28838a8a614d8b565b610d328284615915565b610d3c9190615915565b60028701546040519194506001600160a01b03169082156108fc029083906000818181858888f19350505050158015610d79573d6000803e3d6000fd5b508a600003610dc85760038601546040516001600160a01b039091169084156108fc029085906000818181858888f19350505050158015610dbe573d6000803e3d6000fd5b5060019450610e6a565b610dd1836128c0565b506000610ddc612fed565b610de6908561599e565b90506000610df782620f424061596e565b60105460038a015460405163a9059cbb60e01b81529293506001600160a01b039182169263a9059cbb92610e319216908590600401615985565b600060405180830381600087803b158015610e4b57600080fd5b505af1158015610e5f573d6000803e3d6000fd5b505050506001965050505b50505b8215610f5e5760018401546040516323b872dd60e01b81526001600160a01b038c16916323b872dd91610ea79130918791906004016159c0565b600060405180830381600087803b158015610ec157600080fd5b505af1158015610ed5573d6000803e3d6000fd5b5050505060018401546003850154604051600080516020615e9883398151915292610f11928e926001600160a01b0390911690879034906159e4565b60405180910390a16004840180546001600160a01b0384166001600160a01b031991821617909155600385018054909116905560068401805460ff19169055610f5e600280546001019055565b50505050610f6c6001600055565b505050505050565b610f7c614d13565b336000908152600a602052604090205460ff1615610fac5760405162461bcd60e51b81526004016109a8906156f4565b336000908152600b602052604090205460ff1615610fdc5760405162461bcd60e51b81526004016109a890615729565b60005b8851811015611621576000888281518110610ffc57610ffc615a17565b6020026020010151101561102357604051635a93095360e11b815260040160405180910390fd5b6001861115611045576040516317142a4d60e01b815260040160405180910390fd5b896001600160a01b03166323b872dd33308c858151811061106857611068615a17565b60200260200101516040518463ffffffff1660e01b815260040161108e939291906159c0565b600060405180830381600087803b1580156110a857600080fd5b505af11580156110bc573d6000803e3d6000fd5b505050506110ce600380546001019055565b6000838152600c6020526040902089518a90839081106110f0576110f0615a17565b602002602001015190806001815401808255809150506001900390600052602060002001600090919091909150556040518061018001604052808b6001600160a01b031681526020018a838151811061114b5761114b615a17565b60200260200101518152602001336001600160a01b03168152602001336001600160a01b03168152602001306001600160a01b0316815260200189838151811061119757611197615a17565b602002602001015181526020016001151581526020018881526020018760018111156111c5576111c5615280565b60018111156111d6576111d6615280565b81526020018360028111156111ed576111ed615280565b60028111156111fe576111fe615280565b815260200160001515815260200184815250600560008b848151811061122657611226615a17565b6020908102919091018101518252818101929092526040908101600020835181546001600160a01b03199081166001600160a01b039283161783559385015160018084019190915592850151600283018054861691831691909117905560608501516003830180548616918316919091179055608085015160048301805490951691161790925560a0830151600583015560c083015160068301805460ff1990811692151592909217905560e08401516007840155610100840151600884018054919390929190911690838181111561130157611301615280565b021790555061012082015160088201805461ff00191661010083600281111561132c5761132c615280565b02179055506101408201518160080160026101000a81548160ff021916908315150217905550610160820151816009015590505060405180606001604052808a838151811061137d5761137d615a17565b602002602001015181526020016000151581526020016000815250600660008b84815181106113ae576113ae615a17565b602090810291909101810151825281810192909252604090810160002083518155918301516001808401805460ff191692151592909217909155920151600290910155860361159a576040518061010001604052808a838151811061141557611415615a17565b60200260200101518152602001336001600160a01b0316815260200189838151811061144357611443615a17565b6020026020010151815260200186838151811061146257611462615a17565b6020026020010151815260200185838151811061148157611481615a17565b602002602001015181526020016000815260200160006001600160a01b031681526020018360028111156114b7576114b7615280565b60028111156114c8576114c8615280565b815250600960008b84815181106114e1576114e1615a17565b602090810291909101810151825281810192909252604090810160002083518155918301516001830180546001600160a01b03199081166001600160a01b039384161790915591840151600280850191909155606085015160038501556080850151600485015560a0850151600585015560c085015160068501805494851691909316908117835560e0860151936001600160a81b0319161790600160a01b90849081111561159257611592615280565b021790555050505b7f380acab0ee1d651da065961944240ee750b6935ba0edefa78afb1c8e076762868a8a83815181106115ce576115ce615a17565b602002602001015133308c86815181106115ea576115ea615a17565b6020026020010151888c6040516116079796959493929190615a2d565b60405180910390a18061161981615a71565b915050610fdf565b5061162c6001600055565b505050505050505050565b600081516001600160401b0381111561165257611652614fc1565b60405190808252806020026020018201604052801561167b578160200160208202803683370190505b50905060005b825181101561183657600083828151811061169e5761169e615a17565b6020026020010151905060006001600160a01b0316816001600160a01b0316036116fb576116f660405180604001604052806013815260200172496e76616c69642066616e206164647265737360681b815250614dd1565b611823565b3360009081526007602090815260408083206001600160a01b038516845290915290205460ff1615611760576116f66040518060400160405280601881526020017720b2323932b9b99034b99030b63932b0b23c9030903330b760411b815250614dd1565b3360008181526008602090815260408083208054600180820183559185528385200180546001600160a01b0319166001600160a01b0388169081179091559484526007835281842094845293825291829020805460ff19169093179092558051808201909152601181527011985b881859191959081d1bc81b1a5cdd607a1b918101919091526117ef90614dd1565b8083838151811061180257611802615a17565b60200260200101906001600160a01b031690816001600160a01b0316815250505b508061182e81615a71565b915050611681565b507fa99d709f8a9c899ba566c9b2515b1715239783ff40126e24d86e081505a7f50e816040516118669190615463565b60405180910390a15050565b600084815260056020526040902060080154849062010000900460ff1615156001146118b05760405162461bcd60e51b81526004016109a89061569c565b336000908152600a602052604090205460ff16156118e05760405162461bcd60e51b81526004016109a8906156f4565b336000908152600b602052604090205460ff16156119105760405162461bcd60e51b81526004016109a890615729565b611918614d13565b60008581526005602052604090206003810154336001600160a01b03909116036119545760405162461bcd60e51b81526004016109a890615799565b600061195e612fed565b905060006119718764e8d4a5100061596e565b905061197d828261596e565b9050611991670de0b6b3a76400008261599e565b60048401546001600160a01b03166000908152600a602052604090205490915060ff16156119d15760405162461bcd60e51b81526004016109a8906157de565b60048301546001600160a01b03166000908152600b602052604090205460ff1615611a0e5760405162461bcd60e51b81526004016109a890615834565b6000600884015460ff166001811115611a2957611a29615280565b14611a465760405162461bcd60e51b81526004016109a890615891565b600683015460ff161515600114611a6f5760405162461bcd60e51b81526004016109a8906158c8565b6000888152600560209081526040808320600301546001600160a01b031683526007825280832033845290915281205460ff1615611af557600089815260066020526040902060020154611ac4908390614d6c565b611ace9083615915565b905080821015611af05760405162461bcd60e51b81526004016109a890615a8a565b611b1c565b8360050154821015611b195760405162461bcd60e51b81526004016109a890615a8a565b50805b6000803390506000601060009054906101000a90046001600160a01b03166001600160a01b03166323b872dd33308e6040518463ffffffff1660e01b8152600401611b69939291906159c0565b600060405180830381600087803b158015611b8357600080fd5b505af1158015611b97573d6000803e3d6000fd5b50505050600287015460038801546001600160a01b03918216911603611c9c57611bc28b8b8b614d8b565b611bcc908c615915565b93508c600103611c4957601054600388015460405163a9059cbb60e01b81526001600160a01b039283169263a9059cbb92611c0e929116908890600401615985565b600060405180830381600087803b158015611c2857600080fd5b505af1158015611c3c573d6000803e3d6000fd5b5050505060019250611e2c565b6000611c5485612b09565b60038901546040519192506001600160a01b03169082156108fc029083906000818181858888f19350505050158015611c91573d6000803e3d6000fd5b506001935050611e2c565b6000611cac8c8960070154614d6c565b9050611cb8818d615915565b9150611cc5828c8c614d8b565b611ccf908d615915565b60105460028a015460405163a9059cbb60e01b81529297506001600160a01b039182169263a9059cbb92611d099216908590600401615985565b600060405180830381600087803b158015611d2357600080fd5b505af1158015611d37573d6000803e3d6000fd5b505050508d600103611dc8576000611d5286620f424061596e565b60105460038b015460405163a9059cbb60e01b81529293506001600160a01b039182169263a9059cbb92611d8c9216908590600401615985565b600060405180830381600087803b158015611da657600080fd5b505af1158015611dba573d6000803e3d6000fd5b505050506001945050611e2a565b611dd185612b09565b506000611ddc612fed565b611de6908761596e565b60038a01546040519192506001600160a01b03169082156108fc029083906000818181858888f19350505050158015611e23573d6000803e3d6000fd5b5060019450505b505b8215611f25578d6001600160a01b03166323b872dd30848a600101546040518463ffffffff1660e01b8152600401611e66939291906159c0565b600060405180830381600087803b158015611e8057600080fd5b505af1158015611e94573d6000803e3d6000fd5b50505050600080516020615e988339815191528e88600101548960030160009054906101000a90046001600160a01b03168589604051611ed89594939291906159e4565b60405180910390a16004870180546001600160a01b0384166001600160a01b031991821617909155600388018054909116905560068701805460ff19169055611f25600280546001019055565b50505050505050611f366001600055565b50505050505050565b600c6020528160005260406000208181548110611f5b57600080fd5b90600052602060002001600091509150505481565b611f78614cb9565b6001600160a01b03166000908152600a60205260409020805460ff19169055565b336000908152600b602052604090205460609060ff1615611fcc5760405162461bcd60e51b81526004016109a890615729565b336000908152600a602052604090205460ff1615611ffc5760405162461bcd60e51b81526004016109a8906156f4565b600061200760035490565b90506000805b8281101561209a576000818152600560205260409020600301546001600160a01b038681169116148015612052575060008181526005602052604090206006015460ff165b8015612075575060008181526005602052604090206008015462010000900460ff165b15612088578161208481615a71565b9250505b8061209281615a71565b91505061200d565b506000816001600160401b038111156120b5576120b5614fc1565b6040519080825280602002602001820160405280156120ee57816020015b6120db614ede565b8152602001906001900390816120d35790505b5090506000805b848110156122ae576000818152600560205260409020600301546001600160a01b03888116911614801561213a575060008181526005602052604090206006015460ff165b801561215d575060008181526005602052604090206008015462010000900460ff165b1561229c5760008181526005602081815260409283902083516101808101855281546001600160a01b039081168252600180840154948301949094526002830154811695820195909552600382015485166060820152600482015490941660808501529182015460a0840152600682015460ff908116151560c0850152600783015460e0850152600883015461010085019291169081111561220157612201615280565b600181111561221257612212615280565b81526020016008820160019054906101000a900460ff16600281111561223a5761223a615280565b600281111561224b5761224b615280565b8152600882015462010000900460ff1615156020820152600990910154604090910152835184908490811061228257612282615a17565b6020026020010181905250818061229890615a71565b9250505b806122a681615a71565b9150506120f5565b509093505050505b919050565b336000908152600a602052604081205460ff16806122e85750336000908152600b602052604090205460ff165b156122f35750600190565b50600090565b612301614cb9565b6001600160a01b03166000908152600b60205260409020805460ff19166001179055565b6000828152600560205260409020600301546001600160a01b031633146123aa5760405162461bcd60e51b815260206004820152603360248201527f4f6e6c7920746865206f776e6572206f6620616e206e66742063616e20736574604482015272103234b9b1b7bab73a32b210383934b1b2b99760691b60648201526084016109a8565b60009182526006602052604090912060020155565b336000908152600a602052604090205460ff16156123ef5760405162461bcd60e51b81526004016109a8906156f4565b336000908152600b602052604090205460ff161561241f5760405162461bcd60e51b81526004016109a890615729565b612427614d13565b6000868152600560205260409020856124825760405162461bcd60e51b815260206004820152601c60248201527f5072696365206d757374206265206174206c656173742031207765690000000060448201526064016109a8565b60048101546001600160a01b038381169116146124f45760405162461bcd60e51b815260206004820152602a60248201527f4f6e6c7920746865206f776e6572206f6620616e206e66742063616e206c69736044820152693a103a34329037333a1760b11b60648201526084016109a8565b6040516323b872dd60e01b81526001600160a01b038916906323b872dd9061252490859030908c906004016159c0565b600060405180830381600087803b15801561253e57600080fd5b505af1158015612552573d6000803e3d6000fd5b5050506003820180546001600160a01b0385166001600160a01b03199182161790915560048301805490911630179055506005810186905560068101805460ff1916600190811790915585908111156125ad576125ad615280565b60088201805460ff1916600183818111156125ca576125ca615280565b0217905550600185036126f557604051806101000160405280888152602001836001600160a01b031681526020018781526020018581526020018481526020016000815260200160006001600160a01b031681526020018260080160019054906101000a900460ff16600281111561264457612644615280565b905260008881526009602090815260409182902083518155908301516001820180546001600160a01b03199081166001600160a01b039384161790915592840151600280840191909155606085015160038401556080850151600484015560a0850151600584015560c085015160068401805495861691909316908117835560e086015193946001600160a81b0319161790600160a01b9084908111156126ed576126ed615280565b021790555050505b6126ff6002614e14565b7f380acab0ee1d651da065961944240ee750b6935ba0edefa78afb1c8e07676286888884308a86600901548b60405161273e9796959493929190615a2d565b60405180910390a150611f366001600055565b612759614cb9565b6127636000614e6b565b565b336000908152600860205260408120905b81548110156128bb57826001600160a01b031682828154811061279b5761279b615a17565b6000918252602090912001546001600160a01b0316036128a957815482906127c590600190615915565b815481106127d5576127d5615a17565b9060005260206000200160009054906101000a90046001600160a01b031682828154811061280557612805615a17565b9060005260206000200160006101000a8154816001600160a01b0302191690836001600160a01b031602179055508180548061284357612843615ad1565b6000828152602090819020600019908301810180546001600160a01b03191690559091019091556040516001600160a01b03851681527f89ec8e1c730740239f81b0dfce48eedca9d700bbc36fe56311fe9175c16f64ad910160405180910390a1505050565b806128b381615a71565b915050612776565b505050565b604080516002808252606082018352600092839291906020830190803683375050600f54604080516315ab88c960e31b815290519394506001600160a01b039091169263ad5c4648925060048083019260209291908290030181865afa15801561292e573d6000803e3d6000fd5b505050506040513d601f19601f820116820180604052508101906129529190615ae7565b8160008151811061296557612965615a17565b6001600160a01b039283166020918202929092010152600e5482519116908290600190811061299657612996615a17565b6001600160a01b039290921660209283029190910182015260408051600280825260608201835260009391929091830190803683375050600f5460405163d06ca61f60e01b81529293506001600160a01b03169163d06ca61f9150612a019087908690600401615b04565b600060405180830381865afa158015612a1e573d6000803e3d6000fd5b505050506040513d6000823e601f3d908101601f19168201604052612a469190810190615b1d565b600f5481519192506001600160a01b031690637ff36ab590349084906001908110612a7357612a73615a17565b60200260200101518530426040518663ffffffff1660e01b8152600401612a9d9493929190615ba2565b60006040518083038185885af1158015612abb573d6000803e3d6000fd5b50505050506040513d6000823e601f3d908101601f19168201604052612ae49190810190615b1d565b5080600181518110612af857612af8615a17565b602002602001015192505050919050565b604080516002808252606082018352600092839291906020830190803683375050600e5482519293506001600160a01b031691839150600090612b4e57612b4e615a17565b6001600160a01b03928316602091820292909201810191909152600f54604080516315ab88c960e31b81529051919093169263ad5c46489260048083019391928290030181865afa158015612ba7573d6000803e3d6000fd5b505050506040513d601f19601f82011682018060405250810190612bcb9190615ae7565b81600181518110612bde57612bde615a17565b6001600160a01b039283166020918202929092010152601054600d5460405163095ea7b360e01b81529183169263095ea7b392612c2392909116908790600401615985565b600060405180830381600087803b158015612c3d57600080fd5b505af1158015612c51573d6000803e3d6000fd5b506000925060029150612c619050565b604051908082528060200260200182016040528015612c8a578160200160208202803683370190505b50600f5460405163d06ca61f60e01b81529192506001600160a01b03169063d06ca61f90612cbe9087908690600401615b04565b600060405180830381865afa158015612cdb573d6000803e3d6000fd5b505050506040513d6000823e601f3d908101601f19168201604052612d039190810190615b1d565b600f5481519192506001600160a01b031690634a25d94a9083906001908110612d2e57612d2e615a17565b6020026020010151868530426040518663ffffffff1660e01b8152600401612d5a959493929190615bd7565b6000604051808303816000875af1158015612d79573d6000803e3d6000fd5b505050506040513d6000823e601f3d908101601f19168201604052612ae49190810190615b1d565b336000908152600b602052604090205460609060ff1615612dd45760405162461bcd60e51b81526004016109a890615729565b6000612ddf60035490565b90506000612dec60025490565b612df69083615915565b90506000816001600160401b03811115612e1257612e12614fc1565b604051908082528060200260200182016040528015612e4b57816020015b612e38614ede565b815260200190600190039081612e305790505b5090506000805b84811015612fe35760008181526005602052604090206006015460ff168015612e92575060008181526005602052604090206008015462010000900460ff165b15612fd15760008181526005602081815260409283902083516101808101855281546001600160a01b039081168252600180840154948301949094526002830154811695820195909552600382015485166060820152600482015490941660808501529182015460a0840152600682015460ff908116151560c0850152600783015460e08501526008830154610100850192911690811115612f3657612f36615280565b6001811115612f4757612f47615280565b81526020016008820160019054906101000a900460ff166002811115612f6f57612f6f615280565b6002811115612f8057612f80615280565b8152600882015462010000900460ff16151560208201526009909101546040909101528351849084908110612fb757612fb7615a17565b60200260200101819052508180612fcd90615a71565b9250505b80612fdb81615a71565b915050612e52565b5090935050505090565b60008073ee9f2375b4bdf6387aa8265dd4fb8f16512a1d4690506000816001600160a01b031663feaf968c6040518163ffffffff1660e01b815260040160a060405180830381865afa158015613047573d6000803e3d6000fd5b505050506040513d601f19601f8201168201806040525081019061306b9190615c2d565b505050915050600081136130b65760405162461bcd60e51b8152602060048201526012602482015271496e76616c6964205553445420707269636560701b60448201526064016109a8565b92915050565b600081815260096020526040812060030154421180156130ec575060008281526009602052604090206004015442105b156130f957506001919050565b506000919050565b336000908152600b602052604090205460609060ff16156131345760405162461bcd60e51b81526004016109a890615729565b6001600160a01b0382166000908152600860209081526040918290208054835181840281018401909452808452909183018282801561319c57602002820191906000526020600020905b81546001600160a01b0316815260019091019060200180831161317e575b50505050509050919050565b6000838152600960205260409020600301548390421180156131da575060008181526009602052604090206004015442105b6131f65760405162461bcd60e51b81526004016109a890615c7d565b600084815260056020526040902060080154849062010000900460ff1615156001146132345760405162461bcd60e51b81526004016109a89061569c565b336000908152600b602052604090205460ff16156132645760405162461bcd60e51b81526004016109a890615729565b336000908152600a602052604090205460ff16156132945760405162461bcd60e51b81526004016109a8906156f4565b600061329e612fed565b6000878152600660205260408120600101549192509060ff161561330b576000878152600560209081526040808320600301546001600160a01b031683526007825280832033845290915290205460ff1661330b5760405162461bcd60e51b81526004016109a890615cc6565b600061331c8764e8d4a5100061596e565b9050613328838261596e565b905061333c670de0b6b3a76400008261599e565b6000898152600960205260409020600601549091506001600160a01b031661338f5760008881526009602052604090206002015481101561338f5760405162461bcd60e51b81526004016109a890615cfd565b6000888152600960205260409020600501548110156133c05760405162461bcd60e51b81526004016109a890615d34565b600160008981526005602052604090206008015460ff1660018111156133e8576133e8615280565b146134055760405162461bcd60e51b81526004016109a890615d91565b60008881526005602052604090206006015460ff16151560011461343b5760405162461bcd60e51b81526004016109a8906158c8565b6010546040516323b872dd60e01b81526001600160a01b03909116906323b872dd9061346f90339030908c906004016159c0565b600060405180830381600087803b15801561348957600080fd5b505af115801561349d573d6000803e3d6000fd5b5050506000898152600960205260409020600681015460058201549192506001600160a01b03169081156135df5760016006840154600160a01b900460ff1660028111156134ed576134ed615280565b036135805760006134fc612fed565b613506908361599e565b905061351581620f424061596e565b60105460405163a9059cbb60e01b81529192506001600160a01b03169063a9059cbb906135489086908590600401615985565b600060405180830381600087803b15801561356257600080fd5b505af1158015613576573d6000803e3d6000fd5b50505050506135df565b60006006840154600160a01b900460ff1660028111156135a2576135a2615280565b036135df576040516001600160a01b0383169082156108fc029083906000818181858888f193505050501580156135dd573d6000803e3d6000fd5b505b600583018490556006830180546001600160a01b0319163317905588600281111561360c5761360c615280565b60068401805460ff60a01b1916600160a01b83600281111561363057613630615280565b021790555061364142610258615dc4565b836004015410156136b65761012c8360040160008282546136629190615dc4565b9091555050600183015460048401546040517f8e1cb85d0855921b3c958b068fa707efb7db88099af764dd47f37eef82c3334d926136ad928f926001600160a01b0390921691615dd7565b60405180910390a15b600194507f4307392e6f0e441e74a4982d9fa9ddc49b3cd9d3902a9d3ecab0ad3c60a0acd18b8460010160009054906101000a90046001600160a01b03168560060160009054906101000a90046001600160a01b031686600501546040516137219493929190615df6565b60405180910390a15050505050505050505050565b6008602052816000526040600020818154811061375257600080fd5b6000918252602090912001546001600160a01b03169150829050565b6060600061377b60035490565b9050600061378860025490565b6137929083615915565b90506000816001600160401b038111156137ae576137ae614fc1565b6040519080825280602002602001820160405280156137e757816020015b6137d4614ede565b8152602001906001900390816137cc5790505b5090506000805b848110156122ae5760008181526005602052604090206006015460ff168015613827575060008181526005602052604090206009015487145b801561384a575060008181526005602052604090206008015462010000900460ff165b156139895760008181526005602081815260409283902083516101808101855281546001600160a01b039081168252600180840154948301949094526002830154811695820195909552600382015485166060820152600482015490941660808501529182015460a0840152600682015460ff908116151560c0850152600783015460e085015260088301546101008501929116908111156138ee576138ee615280565b60018111156138ff576138ff615280565b81526020016008820160019054906101000a900460ff16600281111561392757613927615280565b600281111561393857613938615280565b8152600882015462010000900460ff1615156020820152600990910154604090910152835184908490811061396f5761396f615a17565b6020026020010181905250818061398590615a71565b9250505b8061399381615a71565b9150506137ee565b336000908152600b602052604090205460609060ff16156139ce5760405162461bcd60e51b81526004016109a890615729565b336000908152600a602052604090205460ff16156139fe5760405162461bcd60e51b81526004016109a8906156f4565b6000613a0960035490565b90506000805b82811015613a5b576000818152600560205260409020600301546001600160a01b03808716911603613a495781613a4581615a71565b9250505b80613a5381615a71565b915050613a0f565b506000816001600160401b03811115613a7657613a76614fc1565b604051908082528060200260200182016040528015613aaf57816020015b613a9c614ede565b815260200190600190039081613a945790505b5090506000805b848110156122ae576000818152600560205260409020600301546001600160a01b03808916911603613c1c5760008181526005602081815260409283902083516101808101855281546001600160a01b039081168252600180840154948301949094526002830154811695820195909552600382015485166060820152600482015490941660808501529182015460a0840152600682015460ff908116151560c0850152600783015460e08501526008830154610100850192911690811115613b8157613b81615280565b6001811115613b9257613b92615280565b81526020016008820160019054906101000a900460ff166002811115613bba57613bba615280565b6002811115613bcb57613bcb615280565b8152600882015462010000900460ff16151560208201526009909101546040909101528351849084908110613c0257613c02615a17565b60200260200101819052508180613c1890615a71565b9250505b80613c2681615a71565b915050613ab6565b6000613c38614cb9565b6000805b8451811015613cd757848181518110613c5757613c57615a17565b602090810291909101810151600081815260058352604090819020600801805462ff0000191662010000891515908102919091179091558151838152938401529093507f6ffa1c2dfe558962660d78387d612607ef3f19ee482f7d51a12634d131e8db6e910160405180910390a180613ccf81615a71565b915050613c3c565b506001949350505050565b60005b8151811015613de0576000828281518110613d0257613d02615a17565b602090810291909101810151600081815260059092526040909120600301549091506001600160a01b03163314613d5957613d546040518060600160405280602e8152602001615e6a602e9139614dd1565b613dcd565b6000818152600560205260409020600301546001600160a01b0316613dab57613d546040518060400160405280601281526020017113919508191bd95cc81b9bdd08195e1a5cdd60721b815250614dd1565b6000818152600660205260409020600101805460ff19811660ff909116151790555b5080613dd881615a71565b915050613ce5565b5050565b613dec614cb9565b6001600160a01b038116613e515760405162461bcd60e51b815260206004820152602660248201527f4f776e61626c653a206e6577206f776e657220697320746865207a65726f206160448201526564647265737360d01b60648201526084016109a8565b613e5a81614e6b565b50565b6000838152600960205260409020600401544211613ebd5760405162461bcd60e51b815260206004820152601a60248201527f41756374696f6e20686173206e6f7420656e646564207965742e00000000000060448201526064016109a8565b6000838152600960205260409020600601546001600160a01b031615613f90576000838152600960205260409020600601546001600160a01b0316331480613f1e57506000838152600960205260409020600101546001600160a01b031633145b613f8b5760405162461bcd60e51b815260206004820152603860248201527f4f6e6c792074686520686967686573742062696464657220616e6420746865206044820152771cd95b1b195c8818d85b8818db185a5b481d1a194813919560421b60648201526084016109a8565b61400e565b6000838152600960205260409020600101546001600160a01b0316331461400e5760405162461bcd60e51b815260206004820152602c60248201527f4f6e6c79207468652073656c6c65722063616e20636c6f73652074686520756e60448201526b39b7b6321030bab1ba34b7b760a11b60648201526084016109a8565b6000838152600560209081526040808320600990925282206006810154919290916001600160a01b03166140d7576003830154600480850180546001600160a01b0319166001600160a01b0393841617905560068501805460ff19169055600184810154908601546040516323b872dd60e01b81528b8516946323b872dd9461409c943094921692016159c0565b600060405180830381600087803b1580156140b657600080fd5b505af11580156140ca573d6000803e3d6000fd5b5050505060019050614538565b60058201546000908190816008870154610100900460ff16600281111561410057614100615280565b0361427d5760016006860154600160a01b900460ff16600281111561412757614127615280565b0361415c576000614136612fed565b614140908361599e565b905061414f81620f424061596e565b5061415981612b09565b50505b600286015460048701546001600160a01b039182169116036141d057614183818989614d8b565b61418d9082615915565b60038701546040519193506001600160a01b03169083156108fc029084906000818181858888f193505050501580156141ca573d6000803e3d6000fd5b50614482565b6141e285600501548760070154614d6c565b92506141ef818989614d8b565b6141f98483615915565b6142039190615915565b60028701546040519193506001600160a01b03169084156108fc029085906000818181858888f19350505050158015614240573d6000803e3d6000fd5b5060038601546040516001600160a01b039091169083156108fc029084906000818181858888f193505050501580156141ca573d6000803e3d6000fd5b60016008870154610100900460ff16600281111561429d5761429d615280565b036144825760006006860154600160a01b900460ff1660028111156142c4576142c4615280565b036142d5576142d2816128c0565b90505b600286015460048701546001600160a01b03918216911603614377576142fc818989614d8b565b6143069082615915565b601054600388015460405163a9059cbb60e01b81529294506001600160a01b039182169263a9059cbb926143409216908690600401615985565b600060405180830381600087803b15801561435a57600080fd5b505af115801561436e573d6000803e3d6000fd5b50505050614482565b61438985600501548760070154614d6c565b9250614396818989614d8b565b6143a08483615915565b6143aa9190615915565b601054600388015460405163a9059cbb60e01b81529294506001600160a01b039182169263a9059cbb926143e49216908690600401615985565b600060405180830381600087803b1580156143fe57600080fd5b505af1158015614412573d6000803e3d6000fd5b5050601054600289015460405163a9059cbb60e01b81526001600160a01b03928316945063a9059cbb935061444f92909116908790600401615985565b600060405180830381600087803b15801561446957600080fd5b505af115801561447d573d6000803e3d6000fd5b505050505b836144f557600685015460018701546040516323b872dd60e01b81526001600160a01b038d8116936323b872dd936144c2933093909216916004016159c0565b600060405180830381600087803b1580156144dc57600080fd5b505af11580156144f0573d6000803e3d6000fd5b505050505b6006808601546004880180546001600160a01b0319166001600160a01b039092169190911790558601805460ff19169055614534600280546001019055565b5050505b6001830154600384015460068401546005850154604051600080516020615e988339815191529461457d948d9491936001600160a01b039182169392909116916159e4565b60405180910390a150505050505050565b6000828152600960205260409020600301548290421180156145c0575060008181526009602052604090206004015442105b6145dc5760405162461bcd60e51b81526004016109a890615c7d565b600083815260056020526040902060080154839062010000900460ff16151560011461461a5760405162461bcd60e51b81526004016109a89061569c565b336000908152600b602052604090205460ff161561464a5760405162461bcd60e51b81526004016109a890615729565b336000908152600a602052604090205460ff161561467a5760405162461bcd60e51b81526004016109a8906156f4565b60008481526006602052604081206001015460ff16156146e3576000858152600560209081526040808320600301546001600160a01b031683526007825280832033845290915290205460ff166146e35760405162461bcd60e51b81526004016109a890615cc6565b6000858152600960205260409020600601546001600160a01b0316614733576000858152600960205260409020600201543410156147335760405162461bcd60e51b81526004016109a890615cfd565b60008581526009602052604090206005015434116147635760405162461bcd60e51b81526004016109a890615d34565b600160008681526005602052604090206008015460ff16600181111561478b5761478b615280565b146147a85760405162461bcd60e51b81526004016109a890615d91565b60008581526005602052604090206006015460ff1615156001146147de5760405162461bcd60e51b81526004016109a8906158c8565b6000858152600960205260409020600681015460058201546001600160a01b0390911690811561491c5760016006840154600160a01b900460ff16600281111561482a5761482a615280565b036148bd576000614839612fed565b614843908361599e565b905061485281620f424061596e565b60105460405163a9059cbb60e01b81529192506001600160a01b03169063a9059cbb906148859086908590600401615985565b600060405180830381600087803b15801561489f57600080fd5b505af11580156148b3573d6000803e3d6000fd5b505050505061491c565b60006006840154600160a01b900460ff1660028111156148df576148df615280565b0361491c576040516001600160a01b0383169082156108fc029083906000818181858888f1935050505015801561491a573d6000803e3d6000fd5b505b3460058401556006830180546001600160a01b0319163317905586600281111561494857614948615280565b60068401805460ff60a01b1916600160a01b83600281111561496c5761496c615280565b021790555061497d42610258615dc4565b836004015410156149f25761012c83600401600082825461499e9190615dc4565b9091555050600183015460048401546040517f8e1cb85d0855921b3c958b068fa707efb7db88099af764dd47f37eef82c3334d926149e9928c926001600160a01b0390921691615dd7565b60405180910390a15b600183810154600685015460058601546040519397507f4307392e6f0e441e74a4982d9fa9ddc49b3cd9d3902a9d3ecab0ad3c60a0acd193614a44938d936001600160a01b0391821693911691615df6565b60405180910390a15050505050505050565b336000908152600b602052604090205460609060ff1615614a895760405162461bcd60e51b81526004016109a890615729565b6000614a9460035490565b90506000805b82811015614ae6576000818152600560205260409020600401546001600160a01b03808716911603614ad45781614ad081615a71565b9250505b80614ade81615a71565b915050614a9a565b506000816001600160401b03811115614b0157614b01614fc1565b604051908082528060200260200182016040528015614b3a57816020015b614b27614ede565b815260200190600190039081614b1f5790505b5090506000805b848110156122ae576000818152600560205260409020600401546001600160a01b03808916911603614ca75760008181526005602081815260409283902083516101808101855281546001600160a01b039081168252600180840154948301949094526002830154811695820195909552600382015485166060820152600482015490941660808501529182015460a0840152600682015460ff908116151560c0850152600783015460e08501526008830154610100850192911690811115614c0c57614c0c615280565b6001811115614c1d57614c1d615280565b81526020016008820160019054906101000a900460ff166002811115614c4557614c45615280565b6002811115614c5657614c56615280565b8152600882015462010000900460ff16151560208201526009909101546040909101528351849084908110614c8d57614c8d615a17565b60200260200101819052508180614ca390615a71565b9250505b80614cb181615a71565b915050614b41565b6001546001600160a01b031633146127635760405162461bcd60e51b815260206004820181905260248201527f4f776e61626c653a2063616c6c6572206973206e6f7420746865206f776e657260448201526064016109a8565b600260005403614d655760405162461bcd60e51b815260206004820152601f60248201527f5265656e7472616e637947756172643a207265656e7472616e742063616c6c0060448201526064016109a8565b6002600055565b60006064614d7a838561596e565b614d84919061599e565b9392505050565b6000806103e8614d9b858761596e565b614da5919061599e565b90506103e8614db4848761596e565b614dbe919061599e565b614dc89082615dc4565b95945050505050565b613e5a81604051602401614de59190615e1b565b60408051601f198184030181529190526020810180516001600160e01b031663104c13eb60e21b179052614ebd565b805480614e635760405162461bcd60e51b815260206004820152601b60248201527f436f756e7465723a2064656372656d656e74206f766572666c6f77000000000060448201526064016109a8565b600019019055565b600180546001600160a01b038381166001600160a01b0319831681179093556040519116919082907f8be0079c531659141344cd1fd0a4f28419497f9722a3daafe3b4186f6b6457e090600090a35050565b60006a636f6e736f6c652e6c6f679050600080835160208501845afa505050565b6040805161018081018252600080825260208201819052918101829052606081018290526080810182905260a0810182905260c0810182905260e081018290529061010082019081526020016000815260006020820181905260409091015290565b6001600160a01b0381168114613e5a57600080fd5b80356122b681614f40565b600060208284031215614f7257600080fd5b8135614d8481614f40565b600080600080600060a08688031215614f9557600080fd5b8535614fa081614f40565b97602087013597506040870135966060810135965060800135945092505050565b634e487b7160e01b600052604160045260246000fd5b604051601f8201601f191681016001600160401b0381118282101715614fff57614fff614fc1565b604052919050565b60006001600160401b0382111561502057615020614fc1565b5060051b60200190565b600082601f83011261503b57600080fd5b8135602061505061504b83615007565b614fd7565b82815260059290921b8401810191818101908684111561506f57600080fd5b8286015b8481101561508a5780358352918301918301615073565b509695505050505050565b60008060008060008060008060006101208a8c0312156150b457600080fd5b6150bd8a614f55565b985060208a01356001600160401b03808211156150d957600080fd5b6150e58d838e0161502a565b995060408c01359150808211156150fb57600080fd5b6151078d838e0161502a565b985060608c0135975060808c0135965060a08c013591508082111561512b57600080fd5b6151378d838e0161502a565b955060c08c013591508082111561514d57600080fd5b5061515a8c828d0161502a565b93505060e08a013591506101008a013590509295985092959850929598565b6000602080838503121561518c57600080fd5b82356001600160401b038111156151a257600080fd5b8301601f810185136151b357600080fd5b80356151c161504b82615007565b81815260059190911b820183019083810190878311156151e057600080fd5b928401925b828410156152075783356151f881614f40565b825292840192908401906151e5565b979650505050505050565b60008060008060008060c0878903121561522b57600080fd5b863561523681614f40565b9860208801359850604088013597606081013597506080810135965060a00135945092505050565b6000806040838503121561527157600080fd5b50508035926020909101359150565b634e487b7160e01b600052602160045260246000fd5b600281106152a6576152a6615280565b9052565b600381106152a6576152a6615280565b602080825282518282018190526000919060409081850190868401855b8281101561539057815180516001600160a01b0390811686528782015188870152868201518116878701526060808301518216908701526080808301519091169086015260a0808201519086015260c08082015115159086015260e080820151908601526101008082015161534e82880182615296565b505061012080820151615363828801826152aa565b505061014081810151151590860152610160908101519085015261018090930192908501906001016152d7565b5091979650505050505050565b600080600080600080600060e0888a0312156153b857600080fd5b87356153c381614f40565b96506020880135955060408801359450606088013593506080880135925060a0880135915060c08801356153f681614f40565b8091505092959891949750929550565b60006020828403121561541857600080fd5b5035919050565b600081518084526020808501945080840160005b838110156154585781516001600160a01b031687529582019590820190600101615433565b509495945050505050565b602081526000614d84602083018461541f565b8881526001600160a01b03888116602083015260408201889052606082018790526080820186905260a08201859052831660c082015261010081016154be60e08301846152aa565b9998505050505050505050565b6000806000606084860312156154e057600080fd5b505081359360208301359350604090920135919050565b6001600160a01b038d81168252602082018d90528b811660408301528a811660608301528916608082015260a0810188905286151560c082015260e08101869052610180810161554b610100830187615296565b6155596101208301866152aa565b92151561014082015261016001529a9950505050505050505050565b6000806040838503121561558857600080fd5b823561559381614f40565b946020939093013593505050565b600080604083850312156155b457600080fd5b82356001600160401b038111156155ca57600080fd5b6155d68582860161502a565b925050602083013580151581146155ec57600080fd5b809150509250929050565b6000806040838503121561560a57600080fd5b823561561581614f40565b915060208301356155ec81614f40565b60006020828403121561563757600080fd5b81356001600160401b0381111561564d57600080fd5b6156598482850161502a565b949350505050565b6000806000806080858703121561567757600080fd5b843561568281614f40565b966020860135965060408601359560600135945092505050565b60208082526038908201527f54686973204e4654206973206e6f7420617070726f766564207965742066726f6040820152776d207468652061646d696e20666f7220707572636861736560401b606082015260800190565b6020808252818101527f596f75206172652062616e6e6564206f6e207468697320706c6174666f726d2e604082015260600190565b6020808252604a908201527f596f7520617265207065726d656e616e746c792064656c657465642066726f6d60408201527f207468697320706c6174666f726d20666f722076696f6c6174696e6720746865606082015269103837b634b1b4b2b99760b11b608082015260a00190565b60208082526025908201527f416e206f776e65722063616e6e6f7420707572636861736520697473206f776e6040820152641027232a1760d91b606082015260800190565b60208082526036908201527f546865206f776e6572206f662074686973206e667420697320626c61636b6c6960408201527539ba32b21037b7103a3434b990383630ba3337b9369760511b606082015260800190565b6020808252603d908201527f546865206f776e6572206f662074686973206e6674206973207065726d616e6160408201527f6e746c792062616e6e6564206f6e207468697320706c6174666f726d2e000000606082015260800190565b6020808252601a908201527f54686973204e4654206973206e6f742061742061756374696f6e000000000000604082015260600190565b6020808252601d908201527f4e6674206973206e6f74206c697374656420746f207075726368617365000000604082015260600190565b634e487b7160e01b600052601160045260246000fd5b818103818111156130b6576130b66158ff565b60208082526026908201527f4e6f7420656e6f75676820657468657220746f20636f7665722061736b696e6760408201526520707269636560d01b606082015260800190565b80820281158282048414176130b6576130b66158ff565b6001600160a01b03929092168252602082015260400190565b6000826159bb57634e487b7160e01b600052601260045260246000fd5b500490565b6001600160a01b039384168152919092166020820152604081019190915260600190565b6001600160a01b039586168152602081019490945291841660408401529092166060820152608081019190915260a00190565b634e487b7160e01b600052603260045260246000fd5b6001600160a01b03978816815260208101969096529386166040860152919094166060840152608083019390935260a082019290925260c081019190915260e00190565b600060018201615a8357615a836158ff565b5060010190565b60208082526027908201527f4e6f7420656e6f75676820616d6f756e7420746f20636f7665722061736b696e6040820152666720707269636560c81b606082015260800190565b634e487b7160e01b600052603160045260246000fd5b600060208284031215615af957600080fd5b8151614d8481614f40565b828152604060208201526000615659604083018461541f565b60006020808385031215615b3057600080fd5b82516001600160401b03811115615b4657600080fd5b8301601f81018513615b5757600080fd5b8051615b6561504b82615007565b81815260059190911b82018301908381019087831115615b8457600080fd5b928401925b8284101561520757835182529284019290840190615b89565b848152608060208201526000615bbb608083018661541f565b6001600160a01b03949094166040830152506060015292915050565b85815284602082015260a060408201526000615bf660a083018661541f565b6001600160a01b0394909416606083015250608001529392505050565b805169ffffffffffffffffffff811681146122b657600080fd5b600080600080600060a08688031215615c4557600080fd5b615c4e86615c13565b9450602086015193506040860151925060608601519150615c7160808701615c13565b90509295509295909350565b60208082526029908201527f54686973204e4654206973206e6f74206f6e2061756374696f6e206174207468604082015268329036b7b6b2b73a1760b91b606082015260800190565b6020808252601b908201527f596f7520617265206e6f7420696e207468652066616e206c6973740000000000604082015260600190565b6020808252601c908201527f4d696e696d756d206269642068617320746f2062652068696768657200000000604082015260600190565b6020808252603c908201527f596f75206861766520746f2062696420686967686572207468616e207468652060408201527f686967686573742062696420746f206d616b6520616e206f6666657200000000606082015260800190565b6020808252601990820152782a3434b99027232a1034b99030ba1030ba1030bab1ba34b7b760391b604082015260600190565b808201808211156130b6576130b66158ff565b9283526001600160a01b03919091166020830152604082015260600190565b9384526001600160a01b03928316602085015291166040830152606082015260800190565b600060208083528351808285015260005b81811015615e4857858101830151858201604001528201615e2c565b506000604082860101526040601f19601f830116850101925050509291505056fe4f6e6c7920746865206f776e6572206f6620616e206e66742063616e20736574207468652066616e206c6973742e16f1dbd97e6bf646d429ed186cce832f1f7fd9907814293b83181e9970ab7bd2a2646970667358221220a1a23d135a1d7889cd4c728fb11df852384fff2898712e40cfe17a40fef5268464736f6c63430008130033",
  "linkReferences": {},
  "deployedLinkReferences": {}
}