{
  "_format": "hh-sol-artifact-1",
  "contractName": "ArtiziaMarketplace",
  "sourceName": "contracts/ArtiziaMarketplace.sol",
  "abi": [
    {
      "inputs": [
        {
          "internalType": "address",
          "name": "_token",
          "type": "address"
        }
      ],
      "stateMutability": "nonpayable",
      "type": "constructor"
    },
    {
      "inputs": [],
      "name": "invalidListingType",
      "type": "error"
    },
    {
      "inputs": [],
      "name": "invalidPrice",
      "type": "error"
    },
    {
      "anonymous": false,
      "inputs": [
        {
          "indexed": false,
          "internalType": "address",
          "name": "nftContract",
          "type": "address"
        },
        {
          "indexed": false,
          "internalType": "uint256",
          "name": "tokenId",
          "type": "uint256"
        },
        {
          "indexed": false,
          "internalType": "address",
          "name": "seller",
          "type": "address"
        },
        {
          "indexed": false,
          "internalType": "address",
          "name": "owner",
          "type": "address"
        },
        {
          "indexed": false,
          "internalType": "uint256",
          "name": "price",
          "type": "uint256"
        },
        {
          "indexed": false,
          "internalType": "uint256",
          "name": "collectionId",
          "type": "uint256"
        },
        {
          "indexed": false,
          "internalType": "uint256",
          "name": "listingType",
          "type": "uint256"
        }
      ],
      "name": "NFTListed",
      "type": "event"
    },
    {
      "anonymous": false,
      "inputs": [
        {
          "indexed": false,
          "internalType": "uint256",
          "name": "tokenId",
          "type": "uint256"
        },
        {
          "indexed": false,
          "internalType": "address",
          "name": "seller",
          "type": "address"
        },
        {
          "indexed": false,
          "internalType": "address",
          "name": "buyer",
          "type": "address"
        },
        {
          "indexed": false,
          "internalType": "uint256",
          "name": "price",
          "type": "uint256"
        }
      ],
      "name": "NFTSold",
      "type": "event"
    },
    {
      "anonymous": false,
      "inputs": [
        {
          "indexed": true,
          "internalType": "address",
          "name": "previousOwner",
          "type": "address"
        },
        {
          "indexed": true,
          "internalType": "address",
          "name": "newOwner",
          "type": "address"
        }
      ],
      "name": "OwnershipTransferred",
      "type": "event"
    },
    {
      "anonymous": false,
      "inputs": [
        {
          "indexed": false,
          "internalType": "uint256",
          "name": "tokenId",
          "type": "uint256"
        },
        {
          "indexed": false,
          "internalType": "bool",
          "name": "decision",
          "type": "bool"
        }
      ],
      "name": "approvalUpdate",
      "type": "event"
    },
    {
      "anonymous": false,
      "inputs": [
        {
          "indexed": false,
          "internalType": "uint256",
          "name": "tokenId",
          "type": "uint256"
        },
        {
          "indexed": false,
          "internalType": "address",
          "name": "seller",
          "type": "address"
        },
        {
          "indexed": false,
          "internalType": "uint256",
          "name": "newTime",
          "type": "uint256"
        }
      ],
      "name": "auctionEndTimeIncreased",
      "type": "event"
    },
    {
      "anonymous": false,
      "inputs": [
        {
          "indexed": false,
          "internalType": "uint256",
          "name": "tokenId",
          "type": "uint256"
        },
        {
          "indexed": false,
          "internalType": "address",
          "name": "seller",
          "type": "address"
        },
        {
          "indexed": false,
          "internalType": "address",
          "name": "highestBidder",
          "type": "address"
        },
        {
          "indexed": false,
          "internalType": "uint256",
          "name": "highestBid",
          "type": "uint256"
        }
      ],
      "name": "receivedABid",
      "type": "event"
    },
    {
      "stateMutability": "payable",
      "type": "fallback"
    },
    {
      "inputs": [],
      "name": "UNISWAP_ROUTER_ADDRESS",
      "outputs": [
        {
          "internalType": "address",
          "name": "",
          "type": "address"
        }
      ],
      "stateMutability": "view",
      "type": "function"
    },
    {
      "inputs": [],
      "name": "USDT_ADDRESS",
      "outputs": [
        {
          "internalType": "address",
          "name": "",
          "type": "address"
        }
      ],
      "stateMutability": "view",
      "type": "function"
    },
    {
      "inputs": [
        {
          "internalType": "uint256",
          "name": "",
          "type": "uint256"
        }
      ],
      "name": "_idToAuction",
      "outputs": [
        {
          "internalType": "uint256",
          "name": "tokenId",
          "type": "uint256"
        },
        {
          "internalType": "address payable",
          "name": "seller",
          "type": "address"
        },
        {
          "internalType": "uint256",
          "name": "basePrice",
          "type": "uint256"
        },
        {
          "internalType": "uint256",
          "name": "startTime",
          "type": "uint256"
        },
        {
          "internalType": "uint256",
          "name": "endTime",
          "type": "uint256"
        },
        {
          "internalType": "uint256",
          "name": "highestBid",
          "type": "uint256"
        },
        {
          "internalType": "address payable",
          "name": "highestBidder",
          "type": "address"
        },
        {
          "internalType": "enum ArtiziaMarketplace.PaymentMethod",
          "name": "highestBidCurrency",
          "type": "uint8"
        }
      ],
      "stateMutability": "view",
      "type": "function"
    },
    {
      "inputs": [
        {
          "internalType": "uint256",
          "name": "",
          "type": "uint256"
        }
      ],
      "name": "_idToNFT",
      "outputs": [
        {
          "internalType": "address",
          "name": "nftContract",
          "type": "address"
        },
        {
          "internalType": "uint256",
          "name": "tokenId",
          "type": "uint256"
        },
        {
          "internalType": "address payable",
          "name": "firstOwner",
          "type": "address"
        },
        {
          "internalType": "address payable",
          "name": "seller",
          "type": "address"
        },
        {
          "internalType": "address payable",
          "name": "owner",
          "type": "address"
        },
        {
          "internalType": "uint256",
          "name": "price",
          "type": "uint256"
        },
        {
          "internalType": "bool",
          "name": "listed",
          "type": "bool"
        },
        {
          "internalType": "uint256",
          "name": "royaltyPrice",
          "type": "uint256"
        },
        {
          "internalType": "enum ArtiziaMarketplace.ListingType",
          "name": "listingType",
          "type": "uint8"
        },
        {
          "internalType": "enum ArtiziaMarketplace.PaymentMethod",
          "name": "paymentMethod",
          "type": "uint8"
        },
        {
          "internalType": "bool",
          "name": "approve",
          "type": "bool"
        },
        {
          "internalType": "uint256",
          "name": "collectionId",
          "type": "uint256"
        }
      ],
      "stateMutability": "view",
      "type": "function"
    },
    {
      "inputs": [],
      "name": "_nftCount",
      "outputs": [
        {
          "internalType": "uint256",
          "name": "_value",
          "type": "uint256"
        }
      ],
      "stateMutability": "view",
      "type": "function"
    },
    {
      "inputs": [],
      "name": "_nftsSold",
      "outputs": [
        {
          "internalType": "uint256",
          "name": "_value",
          "type": "uint256"
        }
      ],
      "stateMutability": "view",
      "type": "function"
    },
    {
      "inputs": [
        {
          "internalType": "uint256[]",
          "name": "_tokenId",
          "type": "uint256[]"
        },
        {
          "internalType": "bool",
          "name": "_decision",
          "type": "bool"
        }
      ],
      "name": "approveNfts",
      "outputs": [
        {
          "internalType": "bool",
          "name": "",
          "type": "bool"
        }
      ],
      "stateMutability": "nonpayable",
      "type": "function"
    },
    {
      "inputs": [
        {
          "internalType": "address",
          "name": "_user",
          "type": "address"
        }
      ],
      "name": "banUser",
      "outputs": [],
      "stateMutability": "nonpayable",
      "type": "function"
    },
    {
      "inputs": [
        {
          "internalType": "address",
          "name": "",
          "type": "address"
        }
      ],
      "name": "bannedUsers",
      "outputs": [
        {
          "internalType": "bool",
          "name": "",
          "type": "bool"
        }
      ],
      "stateMutability": "view",
      "type": "function"
    },
    {
      "inputs": [
        {
          "internalType": "uint256",
          "name": "_tokenId",
          "type": "uint256"
        },
        {
          "internalType": "uint256",
          "name": "_bidCurrency",
          "type": "uint256"
        }
      ],
      "name": "bidInETH",
      "outputs": [],
      "stateMutability": "payable",
      "type": "function"
    },
    {
      "inputs": [
        {
          "internalType": "uint256",
          "name": "_tokenId",
          "type": "uint256"
        },
        {
          "internalType": "uint256",
          "name": "_amount",
          "type": "uint256"
        },
        {
          "internalType": "uint256",
          "name": "_bidCurrency",
          "type": "uint256"
        },
        {
          "internalType": "uint256",
          "name": "_amountInETHInWei",
          "type": "uint256"
        }
      ],
      "name": "bidInUSDT",
      "outputs": [],
      "stateMutability": "payable",
      "type": "function"
    },
    {
      "inputs": [
        {
          "internalType": "address",
          "name": "_nftContract",
          "type": "address"
        },
        {
          "internalType": "uint256",
          "name": "_paymentMethod",
          "type": "uint256"
        },
        {
          "internalType": "uint256",
          "name": "_tokenId",
          "type": "uint256"
        },
        {
          "internalType": "uint8",
          "name": "_sellerPlan",
          "type": "uint8"
        },
        {
          "internalType": "uint8",
          "name": "_buyerPlan",
          "type": "uint8"
        }
      ],
      "name": "buyWithETH",
      "outputs": [],
      "stateMutability": "payable",
      "type": "function"
    },
    {
      "inputs": [
        {
          "internalType": "address",
          "name": "_nftContract",
          "type": "address"
        },
        {
          "internalType": "uint256",
          "name": "_paymentMethod",
          "type": "uint256"
        },
        {
          "internalType": "uint256",
          "name": "_tokenId",
          "type": "uint256"
        },
        {
          "internalType": "uint8",
          "name": "_sellerPlan",
          "type": "uint8"
        },
        {
          "internalType": "uint8",
          "name": "_buyerPlan",
          "type": "uint8"
        },
        {
          "internalType": "uint256",
          "name": "_amountSent",
          "type": "uint256"
        }
      ],
      "name": "buyWithFIAT",
      "outputs": [],
      "stateMutability": "payable",
      "type": "function"
    },
    {
      "inputs": [
        {
          "internalType": "address",
          "name": "_nftContract",
          "type": "address"
        },
        {
          "internalType": "uint256",
          "name": "_paymentMethod",
          "type": "uint256"
        },
        {
          "internalType": "uint256",
          "name": "_tokenId",
          "type": "uint256"
        },
        {
          "internalType": "uint8",
          "name": "_sellerPlan",
          "type": "uint8"
        },
        {
          "internalType": "uint8",
          "name": "_buyerPlan",
          "type": "uint8"
        },
        {
          "internalType": "uint256",
          "name": "_amount",
          "type": "uint256"
        },
        {
          "internalType": "uint256",
          "name": "_amountInETHInWei",
          "type": "uint256"
        }
      ],
      "name": "buyWithUSDT",
      "outputs": [],
      "stateMutability": "payable",
      "type": "function"
    },
    {
      "inputs": [
        {
          "internalType": "address",
          "name": "_nftContract",
          "type": "address"
        },
        {
          "internalType": "uint256",
          "name": "_tokenId",
          "type": "uint256"
        },
        {
          "internalType": "uint8",
          "name": "_sellerPlan",
          "type": "uint8"
        },
        {
          "internalType": "uint8",
          "name": "_buyerPlan",
          "type": "uint8"
        }
      ],
      "name": "closeAuction",
      "outputs": [],
      "stateMutability": "payable",
      "type": "function"
    },
    {
      "inputs": [
        {
          "internalType": "uint256",
          "name": "",
          "type": "uint256"
        },
        {
          "internalType": "uint256",
          "name": "",
          "type": "uint256"
        }
      ],
      "name": "collection",
      "outputs": [
        {
          "internalType": "uint256",
          "name": "",
          "type": "uint256"
        }
      ],
      "stateMutability": "view",
      "type": "function"
    },
    {
      "inputs": [
        {
          "internalType": "uint256",
          "name": "_collectionId",
          "type": "uint256"
        }
      ],
      "name": "getCollectionNfts",
      "outputs": [
        {
          "components": [
            {
              "internalType": "address",
              "name": "nftContract",
              "type": "address"
            },
            {
              "internalType": "uint256",
              "name": "tokenId",
              "type": "uint256"
            },
            {
              "internalType": "address payable",
              "name": "firstOwner",
              "type": "address"
            },
            {
              "internalType": "address payable",
              "name": "seller",
              "type": "address"
            },
            {
              "internalType": "address payable",
              "name": "owner",
              "type": "address"
            },
            {
              "internalType": "uint256",
              "name": "price",
              "type": "uint256"
            },
            {
              "internalType": "bool",
              "name": "listed",
              "type": "bool"
            },
            {
              "internalType": "uint256",
              "name": "royaltyPrice",
              "type": "uint256"
            },
            {
              "internalType": "enum ArtiziaMarketplace.ListingType",
              "name": "listingType",
              "type": "uint8"
            },
            {
              "internalType": "enum ArtiziaMarketplace.PaymentMethod",
              "name": "paymentMethod",
              "type": "uint8"
            },
            {
              "internalType": "bool",
              "name": "approve",
              "type": "bool"
            },
            {
              "internalType": "uint256",
              "name": "collectionId",
              "type": "uint256"
            }
          ],
          "internalType": "struct ArtiziaMarketplace.NFT[]",
          "name": "",
          "type": "tuple[]"
        }
      ],
      "stateMutability": "view",
      "type": "function"
    },
    {
      "inputs": [],
      "name": "getLatestUSDTPrice",
      "outputs": [
        {
          "internalType": "uint256",
          "name": "",
          "type": "uint256"
        }
      ],
      "stateMutability": "view",
      "type": "function"
    },
    {
      "inputs": [],
      "name": "getListedNfts",
      "outputs": [
        {
          "components": [
            {
              "internalType": "address",
              "name": "nftContract",
              "type": "address"
            },
            {
              "internalType": "uint256",
              "name": "tokenId",
              "type": "uint256"
            },
            {
              "internalType": "address payable",
              "name": "firstOwner",
              "type": "address"
            },
            {
              "internalType": "address payable",
              "name": "seller",
              "type": "address"
            },
            {
              "internalType": "address payable",
              "name": "owner",
              "type": "address"
            },
            {
              "internalType": "uint256",
              "name": "price",
              "type": "uint256"
            },
            {
              "internalType": "bool",
              "name": "listed",
              "type": "bool"
            },
            {
              "internalType": "uint256",
              "name": "royaltyPrice",
              "type": "uint256"
            },
            {
              "internalType": "enum ArtiziaMarketplace.ListingType",
              "name": "listingType",
              "type": "uint8"
            },
            {
              "internalType": "enum ArtiziaMarketplace.PaymentMethod",
              "name": "paymentMethod",
              "type": "uint8"
            },
            {
              "internalType": "bool",
              "name": "approve",
              "type": "bool"
            },
            {
              "internalType": "uint256",
              "name": "collectionId",
              "type": "uint256"
            }
          ],
          "internalType": "struct ArtiziaMarketplace.NFT[]",
          "name": "",
          "type": "tuple[]"
        }
      ],
      "stateMutability": "view",
      "type": "function"
    },
    {
      "inputs": [
        {
          "internalType": "address",
          "name": "_user",
          "type": "address"
        }
      ],
      "name": "getMyListedNfts",
      "outputs": [
        {
          "components": [
            {
              "internalType": "address",
              "name": "nftContract",
              "type": "address"
            },
            {
              "internalType": "uint256",
              "name": "tokenId",
              "type": "uint256"
            },
            {
              "internalType": "address payable",
              "name": "firstOwner",
              "type": "address"
            },
            {
              "internalType": "address payable",
              "name": "seller",
              "type": "address"
            },
            {
              "internalType": "address payable",
              "name": "owner",
              "type": "address"
            },
            {
              "internalType": "uint256",
              "name": "price",
              "type": "uint256"
            },
            {
              "internalType": "bool",
              "name": "listed",
              "type": "bool"
            },
            {
              "internalType": "uint256",
              "name": "royaltyPrice",
              "type": "uint256"
            },
            {
              "internalType": "enum ArtiziaMarketplace.ListingType",
              "name": "listingType",
              "type": "uint8"
            },
            {
              "internalType": "enum ArtiziaMarketplace.PaymentMethod",
              "name": "paymentMethod",
              "type": "uint8"
            },
            {
              "internalType": "bool",
              "name": "approve",
              "type": "bool"
            },
            {
              "internalType": "uint256",
              "name": "collectionId",
              "type": "uint256"
            }
          ],
          "internalType": "struct ArtiziaMarketplace.NFT[]",
          "name": "",
          "type": "tuple[]"
        }
      ],
      "stateMutability": "view",
      "type": "function"
    },
    {
      "inputs": [
        {
          "internalType": "address",
          "name": "_user",
          "type": "address"
        }
      ],
      "name": "getMyNfts",
      "outputs": [
        {
          "components": [
            {
              "internalType": "address",
              "name": "nftContract",
              "type": "address"
            },
            {
              "internalType": "uint256",
              "name": "tokenId",
              "type": "uint256"
            },
            {
              "internalType": "address payable",
              "name": "firstOwner",
              "type": "address"
            },
            {
              "internalType": "address payable",
              "name": "seller",
              "type": "address"
            },
            {
              "internalType": "address payable",
              "name": "owner",
              "type": "address"
            },
            {
              "internalType": "uint256",
              "name": "price",
              "type": "uint256"
            },
            {
              "internalType": "bool",
              "name": "listed",
              "type": "bool"
            },
            {
              "internalType": "uint256",
              "name": "royaltyPrice",
              "type": "uint256"
            },
            {
              "internalType": "enum ArtiziaMarketplace.ListingType",
              "name": "listingType",
              "type": "uint8"
            },
            {
              "internalType": "enum ArtiziaMarketplace.PaymentMethod",
              "name": "paymentMethod",
              "type": "uint8"
            },
            {
              "internalType": "bool",
              "name": "approve",
              "type": "bool"
            },
            {
              "internalType": "uint256",
              "name": "collectionId",
              "type": "uint256"
            }
          ],
          "internalType": "struct ArtiziaMarketplace.NFT[]",
          "name": "",
          "type": "tuple[]"
        }
      ],
      "stateMutability": "view",
      "type": "function"
    },
    {
      "inputs": [
        {
          "internalType": "uint256",
          "name": "_tokenId",
          "type": "uint256"
        }
      ],
      "name": "getStatusOfAuction",
      "outputs": [
        {
          "internalType": "bool",
          "name": "",
          "type": "bool"
        }
      ],
      "stateMutability": "view",
      "type": "function"
    },
    {
      "inputs": [
        {
          "internalType": "uint8",
          "name": "level",
          "type": "uint8"
        }
      ],
      "name": "getSubscriptionFee",
      "outputs": [
        {
          "internalType": "uint256",
          "name": "",
          "type": "uint256"
        }
      ],
      "stateMutability": "view",
      "type": "function"
    },
    {
      "inputs": [
        {
          "internalType": "address",
          "name": "_user",
          "type": "address"
        }
      ],
      "name": "getUsersNfts",
      "outputs": [
        {
          "components": [
            {
              "internalType": "address",
              "name": "nftContract",
              "type": "address"
            },
            {
              "internalType": "uint256",
              "name": "tokenId",
              "type": "uint256"
            },
            {
              "internalType": "address payable",
              "name": "firstOwner",
              "type": "address"
            },
            {
              "internalType": "address payable",
              "name": "seller",
              "type": "address"
            },
            {
              "internalType": "address payable",
              "name": "owner",
              "type": "address"
            },
            {
              "internalType": "uint256",
              "name": "price",
              "type": "uint256"
            },
            {
              "internalType": "bool",
              "name": "listed",
              "type": "bool"
            },
            {
              "internalType": "uint256",
              "name": "royaltyPrice",
              "type": "uint256"
            },
            {
              "internalType": "enum ArtiziaMarketplace.ListingType",
              "name": "listingType",
              "type": "uint8"
            },
            {
              "internalType": "enum ArtiziaMarketplace.PaymentMethod",
              "name": "paymentMethod",
              "type": "uint8"
            },
            {
              "internalType": "bool",
              "name": "approve",
              "type": "bool"
            },
            {
              "internalType": "uint256",
              "name": "collectionId",
              "type": "uint256"
            }
          ],
          "internalType": "struct ArtiziaMarketplace.NFT[]",
          "name": "",
          "type": "tuple[]"
        }
      ],
      "stateMutability": "view",
      "type": "function"
    },
    {
      "inputs": [
        {
          "internalType": "address",
          "name": "_nftContract",
          "type": "address"
        },
        {
          "internalType": "uint256[]",
          "name": "_tokenId",
          "type": "uint256[]"
        },
        {
          "internalType": "uint256[]",
          "name": "_price",
          "type": "uint256[]"
        },
        {
          "internalType": "uint256[]",
          "name": "_royaltyPrice",
          "type": "uint256[]"
        },
        {
          "internalType": "uint256",
          "name": "_listingType",
          "type": "uint256"
        },
        {
          "internalType": "uint256[]",
          "name": "_startTime",
          "type": "uint256[]"
        },
        {
          "internalType": "uint256[]",
          "name": "_endTime",
          "type": "uint256[]"
        },
        {
          "internalType": "uint256",
          "name": "_collectionId",
          "type": "uint256"
        },
        {
          "internalType": "uint256",
          "name": "_paymentMethod",
          "type": "uint256"
        }
      ],
      "name": "listNft",
      "outputs": [],
      "stateMutability": "payable",
      "type": "function"
    },
    {
      "inputs": [],
      "name": "owner",
      "outputs": [
        {
          "internalType": "address",
          "name": "",
          "type": "address"
        }
      ],
      "stateMutability": "view",
      "type": "function"
    },
    {
      "inputs": [],
      "name": "renounceOwnership",
      "outputs": [],
      "stateMutability": "nonpayable",
      "type": "function"
    },
    {
      "inputs": [
        {
          "internalType": "address",
          "name": "_nftContract",
          "type": "address"
        },
        {
          "internalType": "uint256",
          "name": "_tokenId",
          "type": "uint256"
        },
        {
          "internalType": "uint256",
          "name": "_price",
          "type": "uint256"
        },
        {
          "internalType": "uint256",
          "name": "_listingType",
          "type": "uint256"
        },
        {
          "internalType": "uint256",
          "name": "_startTime",
          "type": "uint256"
        },
        {
          "internalType": "uint256",
          "name": "_endTime",
          "type": "uint256"
        }
      ],
      "name": "resellNft",
      "outputs": [],
      "stateMutability": "nonpayable",
      "type": "function"
    },
    {
      "inputs": [
        {
          "internalType": "enum ArtiziaMarketplace.SubscriptionLevel",
          "name": "",
          "type": "uint8"
        }
      ],
      "name": "subscriptionFees",
      "outputs": [
        {
          "internalType": "uint256",
          "name": "",
          "type": "uint256"
        }
      ],
      "stateMutability": "view",
      "type": "function"
    },
    {
      "inputs": [
        {
          "internalType": "uint256",
          "name": "usdtAmountOut",
          "type": "uint256"
        },
        {
          "internalType": "uint256",
          "name": "meth",
          "type": "uint256"
        }
      ],
      "name": "swapETHForUSDT",
      "outputs": [],
      "stateMutability": "payable",
      "type": "function"
    },
    {
      "inputs": [
        {
          "internalType": "uint256",
          "name": "usdtAmountIn",
          "type": "uint256"
        }
      ],
      "name": "swapUSDTForETH",
      "outputs": [
        {
          "internalType": "uint256",
          "name": "",
          "type": "uint256"
        }
      ],
      "stateMutability": "nonpayable",
      "type": "function"
    },
    {
      "inputs": [
        {
          "internalType": "address",
          "name": "newOwner",
          "type": "address"
        }
      ],
      "name": "transferOwnership",
      "outputs": [],
      "stateMutability": "nonpayable",
      "type": "function"
    },
    {
      "inputs": [
        {
          "internalType": "address",
          "name": "_user",
          "type": "address"
        }
      ],
      "name": "unbanUser",
      "outputs": [],
      "stateMutability": "nonpayable",
      "type": "function"
    },
    {
      "stateMutability": "payable",
      "type": "receive"
    }
  ],
  "bytecode": "0x6080604052600a80546001600160a01b0319908116737a250d5630b4cf539739df2c5dacb4c659f2488d17909155600b805490911673dac17f958d2ee523a2206206994597c13d831ec71790553480156200005957600080fd5b5060405162005ac038038062005ac08339810160408190526200007c9162000213565b60016000556200008c3362000113565b600480546001600160a01b03199081163317909155600a54600c805483166001600160a01b03928316179055600d805491841691909216179055620000d46000609662000165565b620000e26001609662000165565b620000f06002609662000165565b620000fe6003606462000165565b6200010c6004600062000165565b506200025b565b600180546001600160a01b038381166001600160a01b0319831681179093556040519116919082907f8be0079c531659141344cd1fd0a4f28419497f9722a3daafe3b4186f6b6457e090600090a35050565b6200016f620001b2565b806009600084600481111562000189576200018962000245565b60048111156200019d576200019d62000245565b81526020810191909152604001600020555050565b6001546001600160a01b03163314620002115760405162461bcd60e51b815260206004820181905260248201527f4f776e61626c653a2063616c6c6572206973206e6f7420746865206f776e6572604482015260640160405180910390fd5b565b6000602082840312156200022657600080fd5b81516001600160a01b03811681146200023e57600080fd5b9392505050565b634e487b7160e01b600052602160045260246000fd5b615855806200026b6000396000f3fe6080604052600436106101a65760003560e01c806398dd36bf116100e7578063b9e07df11161008d578063b9e07df1146104f3578063c1892058146105a4578063c36ac2d2146105c4578063d12824f1146105e4578063d6cbb20214610604578063d6fc3dbd1461061b578063f2fde38b1461063b578063f41dfb181461065b578063f6c1b77a1461066e57005b806398dd36bf146103b25780639c744058146103c7578063ace5e90e146103e7578063aeb46a1b14610407578063b32ac0c614610434578063b3ff233e14610447578063b4fa04121461045a578063b8820d82146104e057005b80635021b42b1161014c5780635021b42b146102925780635274cff6146102a5578063715018a6146102d257806379b36943146102e75780638988d0781461031f5780638cd410f41461035f5780638d6cb3fb1461037f5780638da5cb5b1461039457005b806310d86b1f146101af57806330221fc5146101cf57806331824a49146101e25780633fa9df4b1461020c5780634348478b1461021f5780634afbcdae146102325780634d12b695146102525780634d3fb8171461027257005b366101ad57005b005b3480156101bb57600080fd5b506101ad6101ca366004614afe565b61068e565b6101ad6101dd366004614b2c565b610754565b3480156101ee57600080fd5b506002546101f99081565b6040519081526020015b60405180910390f35b6101ad61021a366004614c59565b610cc1565b6101ad61022d366004614d58565b6112de565b34801561023e57600080fd5b506101f961024d366004614d8a565b611779565b34801561025e57600080fd5b506101ad61026d366004614afe565b6117aa565b34801561027e57600080fd5b506101f961028d366004614dac565b6117d3565b6101ad6102a0366004614dc7565b611849565b3480156102b157600080fd5b506102c56102c0366004614afe565b611de4565b6040516102039190614e6d565b3480156102de57600080fd5b506101ad6120d4565b3480156102f357600080fd5b50600a54610307906001600160a01b031681565b6040516001600160a01b039091168152602001610203565b34801561032b57600080fd5b5061034f61033a366004614afe565b60076020526000908152604090205460ff1681565b6040519015158152602001610203565b34801561036b57600080fd5b506101f961037a366004614f50565b6120e8565b34801561038b57600080fd5b506102c56123a5565b3480156103a057600080fd5b506001546001600160a01b0316610307565b3480156103be57600080fd5b506101f96125c0565b3480156103d357600080fd5b5061034f6103e2366004614f50565b61268f565b3480156103f357600080fd5b506101ad610402366004614f69565b6126d4565b34801561041357600080fd5b506101f9610422366004614fb5565b60096020526000908152604090205481565b6101ad610442366004614fd6565b612a93565b6101ad610455366004615025565b6131f6565b34801561046657600080fd5b506104cc610475366004614f50565b6006602081905260009182526040909120805460018201546002830154600384015460048501546005860154959096015493956001600160a01b03938416959294919390929190811690600160a01b900460ff1688565b604051610203989796959493929190615086565b6101ad6104ee366004614d8a565b613779565b3480156104ff57600080fd5b5061058c61050e366004614f50565b600560208190526000918252604090912080546001820154600283015460038401546004850154958501546006860154600787015460088801546009909801546001600160a01b03978816999698958816979485169690941694929360ff92831693919282811692610100810482169262010000909104909116908c565b6040516102039c9b9a999897969594939291906150db565b3480156105b057600080fd5b50600b54610307906001600160a01b031681565b3480156105d057600080fd5b506102c56105df366004614f50565b613a6f565b3480156105f057600080fd5b506102c56105ff366004614afe565b613c9c565b34801561061057600080fd5b506003546101f99081565b34801561062757600080fd5b5061034f610636366004615159565b613eff565b34801561064757600080fd5b506101ad610656366004614afe565b614144565b6101ad610669366004614d8a565b6141bd565b34801561067a57600080fd5b506102c5610689366004614afe565b6145ee565b610696614851565b6001600160a01b0381166000908152600760205260408120805460ff191660011790556106c260035490565b905060005b8181101561074f576000818152600560205260409020600301546001600160a01b0380851691160361073d5760008181526005602052604090206004810180546001600160a01b03199081163017909155600382018054909116905560068101805460ff19169055600801805462ff0000191690555b80610747816151c5565b9150506106c7565b505050565b600083815260056020526040902060080154839062010000900460ff16151560011461079b5760405162461bcd60e51b8152600401610792906151de565b60405180910390fd5b3360009081526007602052604090205460ff16156107cb5760405162461bcd60e51b815260040161079290615236565b6107d36148ab565b6000848152600560205260408120906107eb856117d3565b905060006107f8856117d3565b6003840154909150336001600160a01b03909116036108295760405162461bcd60e51b81526004016107929061526b565b60038301546001600160a01b031660009081526007602052604090205460ff16156108665760405162461bcd60e51b8152600401610792906152b0565b6000600884015460ff16600181111561088157610881614e33565b1461089e5760405162461bcd60e51b815260040161079290615306565b82600501543410156109015760405162461bcd60e51b815260206004820152602660248201527f4e6f7420656e6f75676820657468657220746f20636f7665722061736b696e6760448201526520707269636560d01b6064820152608401610792565b600683015460ff16151560011461092a5760405162461bcd60e51b81526004016107929061533d565b60028301546003840154600091339134916001600160a01b03908116911603610a5657610958818686614904565b6109629082615374565b90508a6000036109b25760038601546040516001600160a01b039091169082156108fc029083906000818181858888f193505050501580156109a8573d6000803e3d6000fd5b5060019250610bbb565b60006109bc6125c0565b6109c69083615387565b90506109d581620f42406153a9565b90506109e2816000613779565b600d54600388015460405163a9059cbb60e01b81526001600160a01b039283169263a9059cbb92610a1a9291169085906004016153c0565b600060405180830381600087803b158015610a3457600080fd5b505af1158015610a48573d6000803e3d6000fd5b505050506001935050610bbb565b60008190506000610a6b82896007015461494a565b9050610a78838888614904565b610a828284615374565b610a8c9190615374565b60028901546040519194506001600160a01b03169082156108fc029083906000818181858888f19350505050158015610ac9573d6000803e3d6000fd5b508c600003610b185760038801546040516001600160a01b039091169084156108fc029085906000818181858888f19350505050158015610b0e573d6000803e3d6000fd5b5060019450610bb8565b6000610b226125c0565b610b2c9085615387565b9050610b3b81620f42406153a9565b9050610b48816000613779565b600d5460038a015460405163a9059cbb60e01b81526001600160a01b039283169263a9059cbb92610b809291169085906004016153c0565b600060405180830381600087803b158015610b9a57600080fd5b505af1158015610bae573d6000803e3d6000fd5b5050505060019550505b50505b8215610ca95760018601546040516323b872dd60e01b81526001600160a01b038e16916323b872dd91610bf59130918791906004016153d9565b600060405180830381600087803b158015610c0f57600080fd5b505af1158015610c23573d6000803e3d6000fd5b505050600187015460038801546040516000805160206158008339815191529350610c5c92916001600160a01b031690869034906153fd565b60405180910390a16004860180546001600160a01b0384166001600160a01b031991821617909155600387018054909116905560068601805460ff19169055610ca9600280546001019055565b505050505050610cb96001600055565b505050505050565b610cc96148ab565b3360009081526007602052604090205460ff1615610cf95760405162461bcd60e51b815260040161079290615236565b60005b88518110156112c8576000888281518110610d1957610d19615422565b60200260200101511015610d4057604051635a93095360e11b815260040160405180910390fd5b6001861115610d62576040516317142a4d60e01b815260040160405180910390fd5b896001600160a01b03166323b872dd33308c8581518110610d8557610d85615422565b60200260200101516040518463ffffffff1660e01b8152600401610dab939291906153d9565b600060405180830381600087803b158015610dc557600080fd5b505af1158015610dd9573d6000803e3d6000fd5b50505050610deb600380546001019055565b600083815260086020526040902089518a9083908110610e0d57610e0d615422565b602002602001015190806001815401808255809150506001900390600052602060002001600090919091909150556040518061018001604052808b6001600160a01b031681526020018a8381518110610e6857610e68615422565b60200260200101518152602001336001600160a01b03168152602001336001600160a01b03168152602001306001600160a01b03168152602001898381518110610eb457610eb4615422565b60200260200101518152602001600115158152602001888381518110610edc57610edc615422565b60200260200101518152602001876001811115610efb57610efb614e33565b6001811115610f0c57610f0c614e33565b8152602001836002811115610f2357610f23614e33565b6002811115610f3457610f34614e33565b815260200160011515815260200184815250600560008b8481518110610f5c57610f5c615422565b6020908102919091018101518252818101929092526040908101600020835181546001600160a01b03199081166001600160a01b039283161783559385015160018084019190915592850151600283018054861691831691909117905560608501516003830180548616918316919091179055608085015160048301805490951691161790925560a0830151600583015560c083015160068301805460ff1990811692151592909217905560e08401516007840155610100840151600884018054919390929190911690838181111561103757611037614e33565b021790555061012082015160088201805461ff00191661010083600281111561106257611062614e33565b0217905550610140820151600882018054911515620100000262ff0000199092169190911790556101609091015160099091015560018603611241576040518061010001604052808a83815181106110bc576110bc615422565b60200260200101518152602001336001600160a01b031681526020018983815181106110ea576110ea615422565b6020026020010151815260200186838151811061110957611109615422565b6020026020010151815260200185838151811061112857611128615422565b602002602001015181526020016000815260200160006001600160a01b0316815260200183600281111561115e5761115e614e33565b600281111561116f5761116f614e33565b815250600660008b848151811061118857611188615422565b602090810291909101810151825281810192909252604090810160002083518155918301516001830180546001600160a01b03199081166001600160a01b039384161790915591840151600280850191909155606085015160038501556080850151600485015560a0850151600585015560c085015160068501805494851691909316908117835560e0860151936001600160a81b0319161790600160a01b90849081111561123957611239614e33565b021790555050505b7f380acab0ee1d651da065961944240ee750b6935ba0edefa78afb1c8e076762868a8a838151811061127557611275615422565b602002602001015133308c868151811061129157611291615422565b6020026020010151888c6040516112ae9796959493929190615438565b60405180910390a1806112c0816151c5565b915050610cfc565b506112d36001600055565b505050505050505050565b600084815260066020526040902060030154849042118015611310575060008181526006602052604090206004015442105b61132c5760405162461bcd60e51b81526004016107929061547c565b600085815260056020526040902060080154859062010000900460ff16151560011461136a5760405162461bcd60e51b8152600401610792906151de565b3360009081526007602052604090205460ff161561139a5760405162461bcd60e51b815260040161079290615236565b6000868152600660208190526040822001546001600160a01b03166113ea576000878152600660205260409020600201548410156113ea5760405162461bcd60e51b8152600401610792906154c5565b60008781526006602052604090206005015484101561141b5760405162461bcd60e51b8152600401610792906154fc565b600160008881526005602052604090206008015460ff16600181111561144357611443614e33565b146114605760405162461bcd60e51b815260040161079290615559565b60008781526005602052604090206006015460ff1615156001146114965760405162461bcd60e51b81526004016107929061533d565b600d546040516323b872dd60e01b81526001600160a01b03909116906323b872dd906114ca90339030908b906004016153d9565b600060405180830381600087803b1580156114e457600080fd5b505af11580156114f8573d6000803e3d6000fd5b50505060008881526006602081905260409091209081015460058201549192506001600160a01b031690811561163c5760016006840154600160a01b900460ff16600281111561154a5761154a614e33565b036115dd5760006115596125c0565b6115639083615387565b905061157281620f42406153a9565b600d5460405163a9059cbb60e01b81529192506001600160a01b03169063a9059cbb906115a590869085906004016153c0565b600060405180830381600087803b1580156115bf57600080fd5b505af11580156115d3573d6000803e3d6000fd5b505050505061163c565b60006006840154600160a01b900460ff1660028111156115ff576115ff614e33565b0361163c576040516001600160a01b0383169082156108fc029083906000818181858888f1935050505015801561163a573d6000803e3d6000fd5b505b600583018790556006830180546001600160a01b0319163317905587600281111561166957611669614e33565b60068401805460ff60a01b1916600160a01b83600281111561168d5761168d614e33565b021790555061169e4261025861558c565b836004015410156117135761012c8360040160008282546116bf919061558c565b9091555050600183015460048401546040517f8e1cb85d0855921b3c958b068fa707efb7db88099af764dd47f37eef82c3334d9261170a928e926001600160a01b039092169161559f565b60405180910390a15b600183810154600685015460058601546040519397507f4307392e6f0e441e74a4982d9fa9ddc49b3cd9d3902a9d3ecab0ad3c60a0acd193611765938f936001600160a01b03918216939116916153fd565b60405180910390a150505050505050505050565b6008602052816000526040600020818154811061179557600080fd5b90600052602060002001600091509150505481565b6117b2614851565b6001600160a01b03166000908152600760205260409020805460ff19169055565b60008160ff1660030361180e576009600060045b60048111156117f8576117f8614e33565b8152602001908152602001600020549050919050565b8160ff16600203611824576009600060036117e7565b8160ff1660010361183a576009600060026117e7565b60096000806117e7565b919050565b600085815260056020526040902060080154859062010000900460ff1615156001146118875760405162461bcd60e51b8152600401610792906151de565b3360009081526007602052604090205460ff16156118b75760405162461bcd60e51b815260040161079290615236565b6118bf6148ab565b60008681526005602052604090206003810154336001600160a01b03909116036118fb5760405162461bcd60e51b81526004016107929061526b565b60038101546001600160a01b031660009081526007602052604090205460ff16156119385760405162461bcd60e51b8152600401610792906152b0565b6000600882015460ff16600181111561195357611953614e33565b146119705760405162461bcd60e51b815260040161079290615306565b80600501548310156119d45760405162461bcd60e51b815260206004820152602760248201527f4e6f7420656e6f75676820616d6f756e7420746f20636f7665722061736b696e6044820152666720707269636560c81b6064820152608401610792565b60006119df876117d3565b905060006119ec876117d3565b600d546040516323b872dd60e01b81529192506000918291339183916001600160a01b0316906323b872dd90611a2a90859030908f906004016153d9565b600060405180830381600087803b158015611a4457600080fd5b505af1158015611a58573d6000803e3d6000fd5b50505050600287015460038801546001600160a01b03918216911603611b5d57611a838a8787614904565b611a8d908b615374565b93508d600103611b0a57600d54600388015460405163a9059cbb60e01b81526001600160a01b039283169263a9059cbb92611acf9291169088906004016153c0565b600060405180830381600087803b158015611ae957600080fd5b505af1158015611afd573d6000803e3d6000fd5b5050505060019250611cdb565b6000611b15856120e8565b60038901546040519192506001600160a01b03169082156108fc029083906000818181858888f19350505050158015611b52573d6000803e3d6000fd5b506001935050611cdb565b6000611b6d8b896007015461494a565b9050611b79818c615374565b9150611b86828888614904565b611b909083615374565b600d5460028a015460405163a9059cbb60e01b81529297506001600160a01b039182169263a9059cbb92611bca92169085906004016153c0565b600060405180830381600087803b158015611be457600080fd5b505af1158015611bf8573d6000803e3d6000fd5b505050508e600103611c7757600d54600389015460405163a9059cbb60e01b81526001600160a01b039283169263a9059cbb92611c3c9291169089906004016153c0565b600060405180830381600087803b158015611c5657600080fd5b505af1158015611c6a573d6000803e3d6000fd5b5050505060019350611cd9565b611c80856120e8565b506000611c8b6125c0565b611c9590876153a9565b60038a01546040519192506001600160a01b03169082156108fc029083906000818181858888f19350505050158015611cd2573d6000803e3d6000fd5b5060019450505b505b8215611dc9578e6001600160a01b03166323b872dd30848a600101546040518463ffffffff1660e01b8152600401611d15939291906153d9565b600060405180830381600087803b158015611d2f57600080fd5b505af1158015611d43573d6000803e3d6000fd5b505050600188015460038901546040516000805160206158008339815191529350611d7c92916001600160a01b03169086908e906153fd565b60405180910390a16004870180546001600160a01b0384166001600160a01b031991821617909155600388018054909116905560068701805460ff19169055611dc9600280546001019055565b50505050505050611dda6001600055565b5050505050505050565b3360009081526007602052604090205460609060ff1615611e175760405162461bcd60e51b815260040161079290615236565b6000611e2260035490565b90506000805b82811015611eb5576000818152600560205260409020600301546001600160a01b038681169116148015611e6d575060008181526005602052604090206006015460ff165b8015611e90575060008181526005602052604090206008015462010000900460ff165b15611ea35781611e9f816151c5565b9250505b80611ead816151c5565b915050611e28565b506000816001600160401b03811115611ed057611ed0614b85565b604051908082528060200260200182016040528015611f0957816020015b611ef6614a7c565b815260200190600190039081611eee5790505b5090506000805b848110156120c9576000818152600560205260409020600301546001600160a01b038881169116148015611f55575060008181526005602052604090206006015460ff165b8015611f78575060008181526005602052604090206008015462010000900460ff165b156120b75760008181526005602081815260409283902083516101808101855281546001600160a01b039081168252600180840154948301949094526002830154811695820195909552600382015485166060820152600482015490941660808501529182015460a0840152600682015460ff908116151560c0850152600783015460e0850152600883015461010085019291169081111561201c5761201c614e33565b600181111561202d5761202d614e33565b81526020016008820160019054906101000a900460ff16600281111561205557612055614e33565b600281111561206657612066614e33565b8152600882015462010000900460ff1615156020820152600990910154604090910152835184908490811061209d5761209d615422565b602002602001018190525081806120b3906151c5565b9250505b806120c1816151c5565b915050611f10565b509095945050505050565b6120dc614851565b6120e66000614969565b565b604080516002808252606082018352600092839291906020830190803683375050600b5482519293506001600160a01b03169183915060009061212d5761212d615422565b6001600160a01b03928316602091820292909201810191909152600c54604080516315ab88c960e31b81529051919093169263ad5c46489260048083019391928290030181865afa158015612186573d6000803e3d6000fd5b505050506040513d601f19601f820116820180604052508101906121aa91906155be565b816001815181106121bd576121bd615422565b6001600160a01b039283166020918202929092010152600d54600a5460405163095ea7b360e01b81529183169263095ea7b392612202929091169087906004016153c0565b600060405180830381600087803b15801561221c57600080fd5b505af1158015612230573d6000803e3d6000fd5b5060009250600291506122409050565b604051908082528060200260200182016040528015612269578160200160208202803683370190505b50600c5460405163d06ca61f60e01b81529192506001600160a01b03169063d06ca61f9061229d908790869060040161561f565b600060405180830381865afa1580156122ba573d6000803e3d6000fd5b505050506040513d6000823e601f3d908101601f191682016040526122e29190810190615640565b600c5481519192506001600160a01b031690634a25d94a908390600190811061230d5761230d615422565b6020026020010151868530426040518663ffffffff1660e01b81526004016123399594939291906156d0565b6000604051808303816000875af1158015612358573d6000803e3d6000fd5b505050506040513d6000823e601f3d908101601f191682016040526123809190810190615640565b508060018151811061239457612394615422565b602002602001015192505050919050565b606060006123b260035490565b905060006123bf60025490565b6123c99083615374565b90506000816001600160401b038111156123e5576123e5614b85565b60405190808252806020026020018201604052801561241e57816020015b61240b614a7c565b8152602001906001900390816124035790505b5090506000805b848110156125b65760008181526005602052604090206006015460ff168015612465575060008181526005602052604090206008015462010000900460ff165b156125a45760008181526005602081815260409283902083516101808101855281546001600160a01b039081168252600180840154948301949094526002830154811695820195909552600382015485166060820152600482015490941660808501529182015460a0840152600682015460ff908116151560c0850152600783015460e0850152600883015461010085019291169081111561250957612509614e33565b600181111561251a5761251a614e33565b81526020016008820160019054906101000a900460ff16600281111561254257612542614e33565b600281111561255357612553614e33565b8152600882015462010000900460ff1615156020820152600990910154604090910152835184908490811061258a5761258a615422565b602002602001018190525081806125a0906151c5565b9250505b806125ae816151c5565b915050612425565b5090949350505050565b60008073ee9f2375b4bdf6387aa8265dd4fb8f16512a1d4690506000816001600160a01b031663feaf968c6040518163ffffffff1660e01b815260040160a060405180830381865afa15801561261a573d6000803e3d6000fd5b505050506040513d601f19601f8201168201806040525081019061263e9190615726565b505050915050600081136126895760405162461bcd60e51b8152602060048201526012602482015271496e76616c6964205553445420707269636560701b6044820152606401610792565b92915050565b600081815260066020526040812060030154421180156126bf575060008281526006602052604090206004015442105b156126cc57506001919050565b506000919050565b3360009081526007602052604090205460ff16156127045760405162461bcd60e51b815260040161079290615236565b61270c6148ab565b6000858152600560205260409020846127675760405162461bcd60e51b815260206004820152601c60248201527f5072696365206d757374206265206174206c65617374203120776569000000006044820152606401610792565b60408051808201909152600981526837333a1737bbb732b960b91b6020820152600482015461279f91906001600160a01b03166149bb565b6127cb6040518060400160405280600a81526020016936b9b39739b2b73232b960b11b815250336149bb565b60048101546001600160a01b0316331461283a5760405162461bcd60e51b815260206004820152602a60248201527f4f6e6c7920746865206f776e6572206f6620616e206e66742063616e206c69736044820152693a103a34329037333a1760b11b6064820152608401610792565b6040516323b872dd60e01b81526001600160a01b038816906323b872dd9061286a90339030908b906004016153d9565b600060405180830381600087803b15801561288457600080fd5b505af1158015612898573d6000803e3d6000fd5b5050506003820180546001600160a01b0319908116331790915560048301805490911630179055506005810185905560068101805460ff1916600190811790915584908111156128ea576128ea614e33565b60088201805460ff19166001838181111561290757612907614e33565b021790555060018403612a3757604051806101000160405280878152602001336001600160a01b031681526020018681526020018481526020018381526020016000815260200160006001600160a01b031681526020018260080160019054906101000a900460ff16600281111561298157612981614e33565b905260008781526006602081815260409283902084518155908401516001820180546001600160a01b03199081166001600160a01b039384161790915593850151600280840191909155606086015160038401556080860151600484015560a0860151600584015560c0860151938301805495861694909216938417825560e08601519294929391926001600160a81b03191690911790600160a01b908490811115612a2f57612a2f614e33565b021790555050505b612a416002614a04565b7f380acab0ee1d651da065961944240ee750b6935ba0edefa78afb1c8e07676286878733308986600901548a604051612a809796959493929190615438565b60405180910390a150610cb96001600055565b6000612a9e836117d3565b90506000612aab836117d3565b600086815260056020908152604080832060069283905290832091820154939450929091906001600160a01b0316612bf6576000888152600660205260409020600101546001600160a01b03163314612b5b5760405162461bcd60e51b815260206004820152602c60248201527f4f6e6c79207468652073656c6c65722063616e20636c6f73652074686520756e60448201526b39b7b6321030bab1ba34b7b760a11b6064820152608401610792565b6003830154600480850180546001600160a01b0319166001600160a01b0393841617905560068501805460ff19169055600184810154908601546040516323b872dd60e01b81528d8516946323b872dd94612bbb943094921692016153d9565b600060405180830381600087803b158015612bd557600080fd5b505af1158015612be9573d6000803e3d6000fd5b50505050600190506131a2565b600088815260066020819052604090912001546001600160a01b0316331480612c3857506000888152600660205260409020600101546001600160a01b031633145b612ca55760405162461bcd60e51b815260206004820152603860248201527f4f6e6c792074686520686967686573742062696464657220616e6420746865206044820152771cd95b1b195c8818d85b8818db185a5b481d1a194813919560421b6064820152608401610792565b6000888152600660205260409020600401544211612d055760405162461bcd60e51b815260206004820152601a60248201527f41756374696f6e20686173206e6f7420656e646564207965742e0000000000006044820152606401610792565b60058201546000908082612d176125c0565b612d219084615387565b9050612d3081620f42406153a9565b905060006008880154610100900460ff166002811115612d5257612d52614e33565b03612ecf5760016006870154600160a01b900460ff166002811115612d7957612d79614e33565b03612db2576000612d886125c0565b612d929085615387565b9050612da181620f42406153a9565b9050612dac816120e8565b50839250505b600287015460038801546001600160a01b03918216911603612e2657612dd9828a8a614904565b612de39083615374565b60038801546040519193506001600160a01b03169083156108fc029084906000818181858888f19350505050158015612e20573d6000803e3d6000fd5b506130d6565b612e3482886007015461494a565b9350612e41828a8a614904565b612e4b8584615374565b612e559190615374565b60028801546040519193506001600160a01b03169085156108fc029086906000818181858888f19350505050158015612e92573d6000803e3d6000fd5b5060038701546040516001600160a01b039091169083156108fc029084906000818181858888f19350505050158015612e20573d6000803e3d6000fd5b60016008880154610100900460ff166002811115612eef57612eef614e33565b036130d65790508060006006870154600160a01b900460ff166002811115612f1957612f19614e33565b03612f2d57612f29816001613779565b8091505b600287015460038801546001600160a01b03918216911603612fcf57612f54828a8a614904565b612f5e9083615374565b600d54600389015460405163a9059cbb60e01b81529294506001600160a01b039182169263a9059cbb92612f9892169086906004016153c0565b600060405180830381600087803b158015612fb257600080fd5b505af1158015612fc6573d6000803e3d6000fd5b505050506130d6565b612fdd82886007015461494a565b9350612fea828a8a614904565b612ff48584615374565b612ffe9190615374565b600d54600389015460405163a9059cbb60e01b81529294506001600160a01b039182169263a9059cbb9261303892169086906004016153c0565b600060405180830381600087803b15801561305257600080fd5b505af1158015613066573d6000803e3d6000fd5b5050600d5460028a015460405163a9059cbb60e01b81526001600160a01b03928316945063a9059cbb93506130a3929091169088906004016153c0565b600060405180830381600087803b1580156130bd57600080fd5b505af11580156130d1573d6000803e3d6000fd5b505050505b84613159578c6001600160a01b03166323b872dd308860060160009054906101000a90046001600160a01b03168a600101546040518463ffffffff1660e01b8152600401613126939291906153d9565b600060405180830381600087803b15801561314057600080fd5b505af1158015613154573d6000803e3d6000fd5b505050505b6006868101546004890180546001600160a01b039092166001600160a01b031992831617905560038901805490911690558701805460ff19169055600280546001019055505050505b6001830154600384015460068401546005850154604051600080516020615800833981519152946131e39490936001600160a01b03918216939116916153fd565b60405180910390a1505050505050505050565b600084815260056020526040902060080154849062010000900460ff1615156001146132345760405162461bcd60e51b8152600401610792906151de565b3360009081526007602052604090205460ff16156132645760405162461bcd60e51b815260040161079290615236565b61326c6148ab565b600085815260056020526040812090613284866117d3565b90506000613291866117d3565b6003840154909150336001600160a01b03909116036132c25760405162461bcd60e51b81526004016107929061526b565b60038301546001600160a01b031660009081526007602052604090205460ff16156132ff5760405162461bcd60e51b8152600401610792906152b0565b6000600884015460ff16600181111561331a5761331a614e33565b146133375760405162461bcd60e51b815260040161079290615306565b600683015460ff1615156001146133605760405162461bcd60e51b81526004016107929061533d565b60028301546003840154600091339188916001600160a01b039081169116036134cc576000613390828787614904565b905061339c8183615374565b6004546040519193506001600160a01b03169082156108fc029083906000818181858888f193505050501580156133d7573d6000803e3d6000fd5b508c6000036134265760038701546040516001600160a01b039091169083156108fc029084906000818181858888f1935050505015801561341c573d6000803e3d6000fd5b50600193506134c6565b60006134306125c0565b61343a9084615387565b905061344981620f42406153a9565b9050613456816000613779565b600d54600389015460405163a9059cbb60e01b81526001600160a01b039283169263a9059cbb9261348e9291169085906004016153c0565b600060405180830381600087803b1580156134a857600080fd5b505af11580156134bc573d6000803e3d6000fd5b5050505060019450505b50613672565b600081905060006134e182896007015461494a565b905060006134f0848989614904565b9050806134fd8385615374565b6135079190615374565b6004546040519195506001600160a01b03169082156108fc029083906000818181858888f19350505050158015613542573d6000803e3d6000fd5b5060028901546040516001600160a01b039091169083156108fc029084906000818181858888f1935050505015801561357f573d6000803e3d6000fd5b508e6000036135ce5760038901546040516001600160a01b039091169085156108fc029086906000818181858888f193505050501580156135c4573d6000803e3d6000fd5b506001955061366e565b60006135d86125c0565b6135e29086615387565b90506135f181620f42406153a9565b90506135fe816000613779565b600d5460038b015460405163a9059cbb60e01b81526001600160a01b039283169263a9059cbb926136369291169085906004016153c0565b600060405180830381600087803b15801561365057600080fd5b505af1158015613664573d6000803e3d6000fd5b5050505060019650505b5050505b82156137605760018601546040516323b872dd60e01b81526001600160a01b038f16916323b872dd916136ac9130918791906004016153d9565b600060405180830381600087803b1580156136c657600080fd5b505af11580156136da573d6000803e3d6000fd5b50505060018701546003880154604051600080516020615800833981519152935061371392916001600160a01b03169086908d906153fd565b60405180910390a16004860180546001600160a01b0384166001600160a01b031991821617909155600387018054909116905560068601805460ff19169055613760600280546001019055565b5050505050506137706001600055565b50505050505050565b6040805160028082526060820183526000926020830190803683375050600c54604080516315ab88c960e31b815290519394506001600160a01b039091169263ad5c4648925060048083019260209291908290030181865afa1580156137e3573d6000803e3d6000fd5b505050506040513d601f19601f8201168201806040525081019061380791906155be565b8160008151811061381a5761381a615422565b6001600160a01b039283166020918202929092010152600b5482519116908290600190811061384b5761384b615422565b6001600160a01b039290921660209283029190910182015260408051600280825260608201835260009391929091830190803683375050600c5460405163d06ca61f60e01b81529293506001600160a01b03169163d06ca61f91506138b6908790869060040161561f565b600060405180830381865afa1580156138d3573d6000803e3d6000fd5b505050506040513d6000823e601f3d908101601f191682016040526138fb9190810190615640565b9050826000036139a857600c5481516001600160a01b0390911690637ff36ab59034908490600190811061393157613931615422565b60200260200101518530426040518663ffffffff1660e01b815260040161395b949392919061576a565b60006040518083038185885af1158015613979573d6000803e3d6000fd5b50505050506040513d6000823e601f3d908101601f191682016040526139a29190810190615640565b50613a69565b60006139b26125c0565b6139bc90866153a9565b90506139cb620f424082615387565b600c5483519192506001600160a01b031690637ff36ab5908390859060019081106139f8576139f8615422565b60200260200101518630426040518663ffffffff1660e01b8152600401613a22949392919061576a565b60006040518083038185885af1158015613a40573d6000803e3d6000fd5b50505050506040513d6000823e601f3d908101601f19168201604052610cb99190810190615640565b50505050565b60606000613a7c60035490565b90506000613a8960025490565b613a939083615374565b90506000816001600160401b03811115613aaf57613aaf614b85565b604051908082528060200260200182016040528015613ae857816020015b613ad5614a7c565b815260200190600190039081613acd5790505b5090506000805b848110156120c95760008181526005602052604090206006015460ff168015613b28575060008181526005602052604090206009015487145b8015613b4b575060008181526005602052604090206008015462010000900460ff165b15613c8a5760008181526005602081815260409283902083516101808101855281546001600160a01b039081168252600180840154948301949094526002830154811695820195909552600382015485166060820152600482015490941660808501529182015460a0840152600682015460ff908116151560c0850152600783015460e08501526008830154610100850192911690811115613bef57613bef614e33565b6001811115613c0057613c00614e33565b81526020016008820160019054906101000a900460ff166002811115613c2857613c28614e33565b6002811115613c3957613c39614e33565b8152600882015462010000900460ff16151560208201526009909101546040909101528351849084908110613c7057613c70615422565b60200260200101819052508180613c86906151c5565b9250505b80613c94816151c5565b915050613aef565b3360009081526007602052604090205460609060ff1615613ccf5760405162461bcd60e51b815260040161079290615236565b6000613cda60035490565b90506000805b82811015613d2c576000818152600560205260409020600301546001600160a01b03808716911603613d1a5781613d16816151c5565b9250505b80613d24816151c5565b915050613ce0565b506000816001600160401b03811115613d4757613d47614b85565b604051908082528060200260200182016040528015613d8057816020015b613d6d614a7c565b815260200190600190039081613d655790505b5090506000805b848110156120c9576000818152600560205260409020600301546001600160a01b03808916911603613eed5760008181526005602081815260409283902083516101808101855281546001600160a01b039081168252600180840154948301949094526002830154811695820195909552600382015485166060820152600482015490941660808501529182015460a0840152600682015460ff908116151560c0850152600783015460e08501526008830154610100850192911690811115613e5257613e52614e33565b6001811115613e6357613e63614e33565b81526020016008820160019054906101000a900460ff166002811115613e8b57613e8b614e33565b6002811115613e9c57613e9c614e33565b8152600882015462010000900460ff16151560208201526009909101546040909101528351849084908110613ed357613ed3615422565b60200260200101819052508180613ee9906151c5565b9250505b80613ef7816151c5565b915050613d87565b6000613f09614851565b6000805b845181101561413b57848181518110613f2857613f28615422565b602090810291909101810151600081815260059092526040909120600801805462ff00001916620100008715801591820292909217909255919350613f925750600160008381526005602052604090206008015460ff166001811115613f9057613f90614e33565b145b156140ef576000828152600660208190526040909120908101546001600160a01b0316156140ed57600681015460058201546001600160a01b039091169081156140ea5760016006840154600160a01b900460ff166002811115613ff857613ff8614e33565b0361408b5760006140076125c0565b6140119083615387565b905061402081620f42406153a9565b600d5460405163a9059cbb60e01b81529192506001600160a01b03169063a9059cbb9061405390869085906004016153c0565b600060405180830381600087803b15801561406d57600080fd5b505af1158015614081573d6000803e3d6000fd5b50505050506140ea565b60006006840154600160a01b900460ff1660028111156140ad576140ad614e33565b036140ea576040516001600160a01b0383169082156108fc029083906000818181858888f193505050501580156140e8573d6000803e3d6000fd5b505b50505b505b6040805183815285151560208201527f6ffa1c2dfe558962660d78387d612607ef3f19ee482f7d51a12634d131e8db6e910160405180910390a180614133816151c5565b915050613f0d565b50919392505050565b61414c614851565b6001600160a01b0381166141b15760405162461bcd60e51b815260206004820152602660248201527f4f776e61626c653a206e6577206f776e657220697320746865207a65726f206160448201526564647265737360d01b6064820152608401610792565b6141ba81614969565b50565b6000828152600660205260409020600301548290421180156141ef575060008181526006602052604090206004015442105b61420b5760405162461bcd60e51b81526004016107929061547c565b600083815260056020526040902060080154839062010000900460ff1615156001146142495760405162461bcd60e51b8152600401610792906151de565b3360009081526007602052604090205460ff16156142795760405162461bcd60e51b815260040161079290615236565b6000848152600660208190526040822001546001600160a01b03166142c9576000858152600660205260409020600201543410156142c95760405162461bcd60e51b8152600401610792906154c5565b60008581526006602052604090206005015434116142f95760405162461bcd60e51b8152600401610792906154fc565b600160008681526005602052604090206008015460ff16600181111561432157614321614e33565b1461433e5760405162461bcd60e51b815260040161079290615559565b60008581526005602052604090206006015460ff1615156001146143745760405162461bcd60e51b81526004016107929061533d565b60008581526006602081905260409091209081015460058201546001600160a01b039091169081156144b45760016006840154600160a01b900460ff1660028111156143c2576143c2614e33565b036144555760006143d16125c0565b6143db9083615387565b90506143ea81620f42406153a9565b600d5460405163a9059cbb60e01b81529192506001600160a01b03169063a9059cbb9061441d90869085906004016153c0565b600060405180830381600087803b15801561443757600080fd5b505af115801561444b573d6000803e3d6000fd5b50505050506144b4565b60006006840154600160a01b900460ff16600281111561447757614477614e33565b036144b4576040516001600160a01b0383169082156108fc029083906000818181858888f193505050501580156144b2573d6000803e3d6000fd5b505b3460058401556006830180546001600160a01b031916331790558660028111156144e0576144e0614e33565b60068401805460ff60a01b1916600160a01b83600281111561450457614504614e33565b02179055506145154261025861558c565b8360040154101561458a5761012c836004016000828254614536919061558c565b9091555050600183015460048401546040517f8e1cb85d0855921b3c958b068fa707efb7db88099af764dd47f37eef82c3334d92614581928c926001600160a01b039092169161559f565b60405180910390a15b600183810154600685015460058601546040519397507f4307392e6f0e441e74a4982d9fa9ddc49b3cd9d3902a9d3ecab0ad3c60a0acd1936145dc938d936001600160a01b03918216939116916153fd565b60405180910390a15050505050505050565b3360009081526007602052604090205460609060ff16156146215760405162461bcd60e51b815260040161079290615236565b600061462c60035490565b90506000805b8281101561467e576000818152600560205260409020600401546001600160a01b0380871691160361466c5781614668816151c5565b9250505b80614676816151c5565b915050614632565b506000816001600160401b0381111561469957614699614b85565b6040519080825280602002602001820160405280156146d257816020015b6146bf614a7c565b8152602001906001900390816146b75790505b5090506000805b848110156120c9576000818152600560205260409020600401546001600160a01b0380891691160361483f5760008181526005602081815260409283902083516101808101855281546001600160a01b039081168252600180840154948301949094526002830154811695820195909552600382015485166060820152600482015490941660808501529182015460a0840152600682015460ff908116151560c0850152600783015460e085015260088301546101008501929116908111156147a4576147a4614e33565b60018111156147b5576147b5614e33565b81526020016008820160019054906101000a900460ff1660028111156147dd576147dd614e33565b60028111156147ee576147ee614e33565b8152600882015462010000900460ff1615156020820152600990910154604090910152835184908490811061482557614825615422565b6020026020010181905250818061483b906151c5565b9250505b80614849816151c5565b9150506146d9565b6001546001600160a01b031633146120e65760405162461bcd60e51b815260206004820181905260248201527f4f776e61626c653a2063616c6c6572206973206e6f7420746865206f776e65726044820152606401610792565b6002600054036148fd5760405162461bcd60e51b815260206004820152601f60248201527f5265656e7472616e637947756172643a207265656e7472616e742063616c6c006044820152606401610792565b6002600055565b60008061271061491485876153a9565b61491e9190615387565b905061271061492d84876153a9565b6149379190615387565b614941908261558c565b95945050505050565b6000606461495883856153a9565b6149629190615387565b9392505050565b600180546001600160a01b038381166001600160a01b0319831681179093556040519116919082907f8be0079c531659141344cd1fd0a4f28419497f9722a3daafe3b4186f6b6457e090600090a35050565b614a0082826040516024016149d192919061579f565b60408051601f198184030181529190526020810180516001600160e01b031663319af33360e01b179052614a5b565b5050565b805480614a535760405162461bcd60e51b815260206004820152601b60248201527f436f756e7465723a2064656372656d656e74206f766572666c6f7700000000006044820152606401610792565b600019019055565b60006a636f6e736f6c652e6c6f679050600080835160208501845afa505050565b6040805161018081018252600080825260208201819052918101829052606081018290526080810182905260a0810182905260c0810182905260e081018290529061010082019081526020016000815260006020820181905260409091015290565b6001600160a01b03811681146141ba57600080fd5b803561184481614ade565b600060208284031215614b1057600080fd5b813561496281614ade565b803560ff8116811461184457600080fd5b600080600080600060a08688031215614b4457600080fd5b8535614b4f81614ade565b94506020860135935060408601359250614b6b60608701614b1b565b9150614b7960808701614b1b565b90509295509295909350565b634e487b7160e01b600052604160045260246000fd5b604051601f8201601f191681016001600160401b0381118282101715614bc357614bc3614b85565b604052919050565b60006001600160401b03821115614be457614be4614b85565b5060051b60200190565b600082601f830112614bff57600080fd5b81356020614c14614c0f83614bcb565b614b9b565b82815260059290921b84018101918181019086841115614c3357600080fd5b8286015b84811015614c4e5780358352918301918301614c37565b509695505050505050565b60008060008060008060008060006101208a8c031215614c7857600080fd5b614c818a614af3565b985060208a01356001600160401b0380821115614c9d57600080fd5b614ca98d838e01614bee565b995060408c0135915080821115614cbf57600080fd5b614ccb8d838e01614bee565b985060608c0135915080821115614ce157600080fd5b614ced8d838e01614bee565b975060808c0135965060a08c0135915080821115614d0a57600080fd5b614d168d838e01614bee565b955060c08c0135915080821115614d2c57600080fd5b50614d398c828d01614bee565b93505060e08a013591506101008a013590509295985092959850929598565b60008060008060808587031215614d6e57600080fd5b5050823594602084013594506040840135936060013592509050565b60008060408385031215614d9d57600080fd5b50508035926020909101359150565b600060208284031215614dbe57600080fd5b61496282614b1b565b600080600080600080600060e0888a031215614de257600080fd5b8735614ded81614ade565b96506020880135955060408801359450614e0960608901614b1b565b9350614e1760808901614b1b565b925060a0880135915060c0880135905092959891949750929550565b634e487b7160e01b600052602160045260246000fd5b60028110614e5957614e59614e33565b9052565b60038110614e5957614e59614e33565b602080825282518282018190526000919060409081850190868401855b82811015614f4357815180516001600160a01b0390811686528782015188870152868201518116878701526060808301518216908701526080808301519091169086015260a0808201519086015260c08082015115159086015260e0808201519086015261010080820151614f0182880182614e49565b505061012080820151614f1682880182614e5d565b50506101408181015115159086015261016090810151908501526101809093019290850190600101614e8a565b5091979650505050505050565b600060208284031215614f6257600080fd5b5035919050565b60008060008060008060c08789031215614f8257600080fd5b8635614f8d81614ade565b9860208801359850604088013597606081013597506080810135965060a00135945092505050565b600060208284031215614fc757600080fd5b81356005811061496257600080fd5b60008060008060808587031215614fec57600080fd5b8435614ff781614ade565b93506020850135925061500c60408601614b1b565b915061501a60608601614b1b565b905092959194509250565b60008060008060008060c0878903121561503e57600080fd5b863561504981614ade565b9550602087013594506040870135935061506560608801614b1b565b925061507360808801614b1b565b915060a087013590509295509295509295565b8881526001600160a01b03888116602083015260408201889052606082018790526080820186905260a08201859052831660c082015261010081016150ce60e0830184614e5d565b9998505050505050505050565b6001600160a01b038d81168252602082018d90528b811660408301528a811660608301528916608082015260a0810188905286151560c082015260e08101869052610180810161512f610100830187614e49565b61513d610120830186614e5d565b92151561014082015261016001529a9950505050505050505050565b6000806040838503121561516c57600080fd5b82356001600160401b0381111561518257600080fd5b61518e85828601614bee565b925050602083013580151581146151a457600080fd5b809150509250929050565b634e487b7160e01b600052601160045260246000fd5b6000600182016151d7576151d76151af565b5060010190565b60208082526038908201527f54686973204e4654206973206e6f7420617070726f766564207965742066726f6040820152776d207468652061646d696e20666f7220707572636861736560401b606082015260800190565b6020808252818101527f596f75206172652062616e6e6564206f6e207468697320706c6174666f726d2e604082015260600190565b60208082526025908201527f416e206f776e65722063616e6e6f7420707572636861736520697473206f776e6040820152641027232a1760d91b606082015260800190565b60208082526036908201527f546865206f776e6572206f662074686973206e667420697320626c61636b6c6960408201527539ba32b21037b7103a3434b990383630ba3337b9369760511b606082015260800190565b6020808252601a908201527f54686973204e4654206973206e6f742061742061756374696f6e000000000000604082015260600190565b6020808252601d908201527f4e6674206973206e6f74206c697374656420746f207075726368617365000000604082015260600190565b81810381811115612689576126896151af565b6000826153a457634e487b7160e01b600052601260045260246000fd5b500490565b8082028115828204841417612689576126896151af565b6001600160a01b03929092168252602082015260400190565b6001600160a01b039384168152919092166020820152604081019190915260600190565b9384526001600160a01b03928316602085015291166040830152606082015260800190565b634e487b7160e01b600052603260045260246000fd5b6001600160a01b03978816815260208101969096529386166040860152919094166060840152608083019390935260a082019290925260c081019190915260e00190565b60208082526029908201527f54686973204e4654206973206e6f74206f6e2061756374696f6e206174207468604082015268329036b7b6b2b73a1760b91b606082015260800190565b6020808252601c908201527f4d696e696d756d206269642068617320746f2062652068696768657200000000604082015260600190565b6020808252603c908201527f596f75206861766520746f2062696420686967686572207468616e207468652060408201527f686967686573742062696420746f206d616b6520616e206f6666657200000000606082015260800190565b6020808252601990820152782a3434b99027232a1034b99030ba1030ba1030bab1ba34b7b760391b604082015260600190565b80820180821115612689576126896151af565b9283526001600160a01b03919091166020830152604082015260600190565b6000602082840312156155d057600080fd5b815161496281614ade565b600081518084526020808501945080840160005b838110156156145781516001600160a01b0316875295820195908201906001016155ef565b509495945050505050565b82815260406020820152600061563860408301846155db565b949350505050565b6000602080838503121561565357600080fd5b82516001600160401b0381111561566957600080fd5b8301601f8101851361567a57600080fd5b8051615688614c0f82614bcb565b81815260059190911b820183019083810190878311156156a757600080fd5b928401925b828410156156c5578351825292840192908401906156ac565b979650505050505050565b85815284602082015260a0604082015260006156ef60a08301866155db565b6001600160a01b0394909416606083015250608001529392505050565b805169ffffffffffffffffffff8116811461184457600080fd5b600080600080600060a0868803121561573e57600080fd5b6157478661570c565b9450602086015193506040860151925060608601519150614b796080870161570c565b84815260806020820152600061578360808301866155db565b6001600160a01b03949094166040830152506060015292915050565b604081526000835180604084015260005b818110156157cd57602081870181015160608684010152016157b0565b50600060608285018101919091526001600160a01b03949094166020840152601f01601f19169091019091019291505056fe8562eb94748e30bb0071e932744ce902b460c683474fcb3bfd567ffa16b1afb2a264697066735822122029fffd8a066ee92a06065abd99371cc37cc6e81844da396014b49e48555e755b64736f6c63430008130033",
  "linkReferences": {},
  "deployedLinkReferences": {}
}