{
  "_format": "hh-sol-artifact-1",
  "contractName": "ArtiziaMarketplace",
  "sourceName": "contracts/ArtiziaMarketplace.sol",
  "abi": [
    {
      "inputs": [
        {
          "internalType": "address",
          "name": "_token",
          "type": "address"
        }
      ],
      "stateMutability": "nonpayable",
      "type": "constructor"
    },
    {
      "inputs": [],
      "name": "invalidListingType",
      "type": "error"
    },
    {
      "inputs": [],
      "name": "invalidPrice",
      "type": "error"
    },
    {
      "anonymous": false,
      "inputs": [
        {
          "indexed": false,
          "internalType": "address",
          "name": "nftContract",
          "type": "address"
        },
        {
          "indexed": false,
          "internalType": "uint256",
          "name": "tokenId",
          "type": "uint256"
        },
        {
          "indexed": false,
          "internalType": "address",
          "name": "seller",
          "type": "address"
        },
        {
          "indexed": false,
          "internalType": "address",
          "name": "owner",
          "type": "address"
        },
        {
          "indexed": false,
          "internalType": "uint256",
          "name": "price",
          "type": "uint256"
        }
      ],
      "name": "NFTListed",
      "type": "event"
    },
    {
      "anonymous": false,
      "inputs": [
        {
          "indexed": false,
          "internalType": "address",
          "name": "nftContract",
          "type": "address"
        },
        {
          "indexed": false,
          "internalType": "uint256",
          "name": "tokenId",
          "type": "uint256"
        },
        {
          "indexed": false,
          "internalType": "address",
          "name": "seller",
          "type": "address"
        },
        {
          "indexed": false,
          "internalType": "address",
          "name": "owner",
          "type": "address"
        },
        {
          "indexed": false,
          "internalType": "uint256",
          "name": "price",
          "type": "uint256"
        }
      ],
      "name": "NFTSold",
      "type": "event"
    },
    {
      "anonymous": false,
      "inputs": [
        {
          "indexed": true,
          "internalType": "address",
          "name": "previousOwner",
          "type": "address"
        },
        {
          "indexed": true,
          "internalType": "address",
          "name": "newOwner",
          "type": "address"
        }
      ],
      "name": "OwnershipTransferred",
      "type": "event"
    },
    {
      "anonymous": false,
      "inputs": [
        {
          "indexed": false,
          "internalType": "uint256",
          "name": "newTime",
          "type": "uint256"
        }
      ],
      "name": "auctionEndTimeIncreased",
      "type": "event"
    },
    {
      "anonymous": false,
      "inputs": [
        {
          "indexed": false,
          "internalType": "uint256",
          "name": "tokenId",
          "type": "uint256"
        },
        {
          "indexed": false,
          "internalType": "address",
          "name": "seller",
          "type": "address"
        },
        {
          "indexed": false,
          "internalType": "address",
          "name": "highestBidder",
          "type": "address"
        },
        {
          "indexed": false,
          "internalType": "uint256",
          "name": "highestBid",
          "type": "uint256"
        }
      ],
      "name": "getsOutbid",
      "type": "event"
    },
    {
      "anonymous": false,
      "inputs": [
        {
          "indexed": false,
          "internalType": "uint256",
          "name": "tokenId",
          "type": "uint256"
        },
        {
          "indexed": false,
          "internalType": "address",
          "name": "seller",
          "type": "address"
        },
        {
          "indexed": false,
          "internalType": "address",
          "name": "highestBidder",
          "type": "address"
        },
        {
          "indexed": false,
          "internalType": "uint256",
          "name": "highestBid",
          "type": "uint256"
        }
      ],
      "name": "receivedABid",
      "type": "event"
    },
    {
      "stateMutability": "payable",
      "type": "fallback"
    },
    {
      "inputs": [],
      "name": "UNISWAP_ROUTER_ADDRESS",
      "outputs": [
        {
          "internalType": "address",
          "name": "",
          "type": "address"
        }
      ],
      "stateMutability": "view",
      "type": "function"
    },
    {
      "inputs": [],
      "name": "USDT_ADDRESS",
      "outputs": [
        {
          "internalType": "address",
          "name": "",
          "type": "address"
        }
      ],
      "stateMutability": "view",
      "type": "function"
    },
    {
      "inputs": [
        {
          "internalType": "uint256",
          "name": "",
          "type": "uint256"
        }
      ],
      "name": "_idToAuction",
      "outputs": [
        {
          "internalType": "uint256",
          "name": "tokenId",
          "type": "uint256"
        },
        {
          "internalType": "address payable",
          "name": "seller",
          "type": "address"
        },
        {
          "internalType": "uint256",
          "name": "basePrice",
          "type": "uint256"
        },
        {
          "internalType": "uint256",
          "name": "startTime",
          "type": "uint256"
        },
        {
          "internalType": "uint256",
          "name": "endTime",
          "type": "uint256"
        },
        {
          "internalType": "uint256",
          "name": "highestBid",
          "type": "uint256"
        },
        {
          "internalType": "address payable",
          "name": "highestBidder",
          "type": "address"
        },
        {
          "internalType": "enum ArtiziaMarketplace.PaymentMethod",
          "name": "highestBidCurrency",
          "type": "uint8"
        }
      ],
      "stateMutability": "view",
      "type": "function"
    },
    {
      "inputs": [
        {
          "internalType": "uint256",
          "name": "",
          "type": "uint256"
        }
      ],
      "name": "_idToNFT",
      "outputs": [
        {
          "internalType": "address",
          "name": "nftContract",
          "type": "address"
        },
        {
          "internalType": "uint256",
          "name": "tokenId",
          "type": "uint256"
        },
        {
          "internalType": "address payable",
          "name": "firstOwner",
          "type": "address"
        },
        {
          "internalType": "address payable",
          "name": "seller",
          "type": "address"
        },
        {
          "internalType": "address payable",
          "name": "owner",
          "type": "address"
        },
        {
          "internalType": "uint256",
          "name": "price",
          "type": "uint256"
        },
        {
          "internalType": "bool",
          "name": "listed",
          "type": "bool"
        },
        {
          "internalType": "uint256",
          "name": "royaltyPrice",
          "type": "uint256"
        },
        {
          "internalType": "enum ArtiziaMarketplace.ListingType",
          "name": "listingType",
          "type": "uint8"
        },
        {
          "internalType": "enum ArtiziaMarketplace.PaymentMethod",
          "name": "paymentMethod",
          "type": "uint8"
        },
        {
          "internalType": "bool",
          "name": "approve",
          "type": "bool"
        }
      ],
      "stateMutability": "view",
      "type": "function"
    },
    {
      "inputs": [],
      "name": "_nftCount",
      "outputs": [
        {
          "internalType": "uint256",
          "name": "_value",
          "type": "uint256"
        }
      ],
      "stateMutability": "view",
      "type": "function"
    },
    {
      "inputs": [],
      "name": "_nftsSold",
      "outputs": [
        {
          "internalType": "uint256",
          "name": "_value",
          "type": "uint256"
        }
      ],
      "stateMutability": "view",
      "type": "function"
    },
    {
      "inputs": [
        {
          "internalType": "address[]",
          "name": "fans",
          "type": "address[]"
        }
      ],
      "name": "addFans",
      "outputs": [],
      "stateMutability": "nonpayable",
      "type": "function"
    },
    {
      "inputs": [
        {
          "internalType": "uint256[]",
          "name": "_tokenId",
          "type": "uint256[]"
        },
        {
          "internalType": "bool",
          "name": "_decision",
          "type": "bool"
        }
      ],
      "name": "approveNfts",
      "outputs": [
        {
          "internalType": "bool",
          "name": "",
          "type": "bool"
        }
      ],
      "stateMutability": "nonpayable",
      "type": "function"
    },
    {
      "inputs": [
        {
          "internalType": "address",
          "name": "_user",
          "type": "address"
        }
      ],
      "name": "banUser",
      "outputs": [],
      "stateMutability": "nonpayable",
      "type": "function"
    },
    {
      "inputs": [
        {
          "internalType": "address",
          "name": "",
          "type": "address"
        }
      ],
      "name": "bannedUsers",
      "outputs": [
        {
          "internalType": "bool",
          "name": "",
          "type": "bool"
        }
      ],
      "stateMutability": "view",
      "type": "function"
    },
    {
      "inputs": [
        {
          "internalType": "uint256",
          "name": "_tokenId",
          "type": "uint256"
        },
        {
          "internalType": "uint256",
          "name": "_bidCurrency",
          "type": "uint256"
        }
      ],
      "name": "bidInETH",
      "outputs": [],
      "stateMutability": "payable",
      "type": "function"
    },
    {
      "inputs": [
        {
          "internalType": "uint256",
          "name": "_tokenId",
          "type": "uint256"
        },
        {
          "internalType": "uint256",
          "name": "_amount",
          "type": "uint256"
        },
        {
          "internalType": "uint256",
          "name": "_bidCurrency",
          "type": "uint256"
        }
      ],
      "name": "bidInUSDT",
      "outputs": [],
      "stateMutability": "payable",
      "type": "function"
    },
    {
      "inputs": [
        {
          "internalType": "address",
          "name": "_nftContract",
          "type": "address"
        },
        {
          "internalType": "uint256",
          "name": "_paymentMethod",
          "type": "uint256"
        },
        {
          "internalType": "uint256",
          "name": "_tokenId",
          "type": "uint256"
        }
      ],
      "name": "buyWithETH",
      "outputs": [],
      "stateMutability": "payable",
      "type": "function"
    },
    {
      "inputs": [
        {
          "internalType": "address",
          "name": "_nftContract",
          "type": "address"
        },
        {
          "internalType": "uint256",
          "name": "_paymentMethod",
          "type": "uint256"
        },
        {
          "internalType": "uint256",
          "name": "_tokenId",
          "type": "uint256"
        },
        {
          "internalType": "uint256",
          "name": "_amount",
          "type": "uint256"
        }
      ],
      "name": "buyWithUSDT",
      "outputs": [],
      "stateMutability": "payable",
      "type": "function"
    },
    {
      "inputs": [],
      "name": "checkBannedOrDeletedUser",
      "outputs": [
        {
          "internalType": "bool",
          "name": "",
          "type": "bool"
        }
      ],
      "stateMutability": "view",
      "type": "function"
    },
    {
      "inputs": [
        {
          "internalType": "address",
          "name": "_nftContract",
          "type": "address"
        },
        {
          "internalType": "uint256",
          "name": "_tokenId",
          "type": "uint256"
        }
      ],
      "name": "closeAuction",
      "outputs": [],
      "stateMutability": "payable",
      "type": "function"
    },
    {
      "inputs": [
        {
          "internalType": "address",
          "name": "_user",
          "type": "address"
        }
      ],
      "name": "deleteUser",
      "outputs": [],
      "stateMutability": "nonpayable",
      "type": "function"
    },
    {
      "inputs": [
        {
          "internalType": "address",
          "name": "",
          "type": "address"
        }
      ],
      "name": "deletedUsers",
      "outputs": [
        {
          "internalType": "bool",
          "name": "",
          "type": "bool"
        }
      ],
      "stateMutability": "view",
      "type": "function"
    },
    {
      "inputs": [
        {
          "internalType": "address",
          "name": "",
          "type": "address"
        },
        {
          "internalType": "uint256",
          "name": "",
          "type": "uint256"
        }
      ],
      "name": "fanLists",
      "outputs": [
        {
          "internalType": "address",
          "name": "",
          "type": "address"
        }
      ],
      "stateMutability": "view",
      "type": "function"
    },
    {
      "inputs": [],
      "name": "getContractBalance",
      "outputs": [
        {
          "internalType": "uint256",
          "name": "",
          "type": "uint256"
        }
      ],
      "stateMutability": "view",
      "type": "function"
    },
    {
      "inputs": [],
      "name": "getFans",
      "outputs": [
        {
          "internalType": "address[]",
          "name": "",
          "type": "address[]"
        }
      ],
      "stateMutability": "view",
      "type": "function"
    },
    {
      "inputs": [
        {
          "internalType": "uint256",
          "name": "_tokenId",
          "type": "uint256"
        }
      ],
      "name": "getHighestBid",
      "outputs": [
        {
          "internalType": "uint256",
          "name": "",
          "type": "uint256"
        }
      ],
      "stateMutability": "view",
      "type": "function"
    },
    {
      "inputs": [],
      "name": "getLatestUSDTPrice",
      "outputs": [
        {
          "internalType": "uint256",
          "name": "",
          "type": "uint256"
        }
      ],
      "stateMutability": "view",
      "type": "function"
    },
    {
      "inputs": [],
      "name": "getListedNfts",
      "outputs": [
        {
          "components": [
            {
              "internalType": "address",
              "name": "nftContract",
              "type": "address"
            },
            {
              "internalType": "uint256",
              "name": "tokenId",
              "type": "uint256"
            },
            {
              "internalType": "address payable",
              "name": "firstOwner",
              "type": "address"
            },
            {
              "internalType": "address payable",
              "name": "seller",
              "type": "address"
            },
            {
              "internalType": "address payable",
              "name": "owner",
              "type": "address"
            },
            {
              "internalType": "uint256",
              "name": "price",
              "type": "uint256"
            },
            {
              "internalType": "bool",
              "name": "listed",
              "type": "bool"
            },
            {
              "internalType": "uint256",
              "name": "royaltyPrice",
              "type": "uint256"
            },
            {
              "internalType": "enum ArtiziaMarketplace.ListingType",
              "name": "listingType",
              "type": "uint8"
            },
            {
              "internalType": "enum ArtiziaMarketplace.PaymentMethod",
              "name": "paymentMethod",
              "type": "uint8"
            },
            {
              "internalType": "bool",
              "name": "approve",
              "type": "bool"
            }
          ],
          "internalType": "struct ArtiziaMarketplace.NFT[]",
          "name": "",
          "type": "tuple[]"
        }
      ],
      "stateMutability": "view",
      "type": "function"
    },
    {
      "inputs": [
        {
          "internalType": "address",
          "name": "_user",
          "type": "address"
        }
      ],
      "name": "getMyListedNfts",
      "outputs": [
        {
          "components": [
            {
              "internalType": "address",
              "name": "nftContract",
              "type": "address"
            },
            {
              "internalType": "uint256",
              "name": "tokenId",
              "type": "uint256"
            },
            {
              "internalType": "address payable",
              "name": "firstOwner",
              "type": "address"
            },
            {
              "internalType": "address payable",
              "name": "seller",
              "type": "address"
            },
            {
              "internalType": "address payable",
              "name": "owner",
              "type": "address"
            },
            {
              "internalType": "uint256",
              "name": "price",
              "type": "uint256"
            },
            {
              "internalType": "bool",
              "name": "listed",
              "type": "bool"
            },
            {
              "internalType": "uint256",
              "name": "royaltyPrice",
              "type": "uint256"
            },
            {
              "internalType": "enum ArtiziaMarketplace.ListingType",
              "name": "listingType",
              "type": "uint8"
            },
            {
              "internalType": "enum ArtiziaMarketplace.PaymentMethod",
              "name": "paymentMethod",
              "type": "uint8"
            },
            {
              "internalType": "bool",
              "name": "approve",
              "type": "bool"
            }
          ],
          "internalType": "struct ArtiziaMarketplace.NFT[]",
          "name": "",
          "type": "tuple[]"
        }
      ],
      "stateMutability": "view",
      "type": "function"
    },
    {
      "inputs": [
        {
          "internalType": "address",
          "name": "_user",
          "type": "address"
        }
      ],
      "name": "getMyNfts",
      "outputs": [
        {
          "components": [
            {
              "internalType": "address",
              "name": "nftContract",
              "type": "address"
            },
            {
              "internalType": "uint256",
              "name": "tokenId",
              "type": "uint256"
            },
            {
              "internalType": "address payable",
              "name": "firstOwner",
              "type": "address"
            },
            {
              "internalType": "address payable",
              "name": "seller",
              "type": "address"
            },
            {
              "internalType": "address payable",
              "name": "owner",
              "type": "address"
            },
            {
              "internalType": "uint256",
              "name": "price",
              "type": "uint256"
            },
            {
              "internalType": "bool",
              "name": "listed",
              "type": "bool"
            },
            {
              "internalType": "uint256",
              "name": "royaltyPrice",
              "type": "uint256"
            },
            {
              "internalType": "enum ArtiziaMarketplace.ListingType",
              "name": "listingType",
              "type": "uint8"
            },
            {
              "internalType": "enum ArtiziaMarketplace.PaymentMethod",
              "name": "paymentMethod",
              "type": "uint8"
            },
            {
              "internalType": "bool",
              "name": "approve",
              "type": "bool"
            }
          ],
          "internalType": "struct ArtiziaMarketplace.NFT[]",
          "name": "",
          "type": "tuple[]"
        }
      ],
      "stateMutability": "view",
      "type": "function"
    },
    {
      "inputs": [
        {
          "internalType": "uint256",
          "name": "_tokenId",
          "type": "uint256"
        }
      ],
      "name": "getNftApprovalStatus",
      "outputs": [
        {
          "internalType": "bool",
          "name": "",
          "type": "bool"
        }
      ],
      "stateMutability": "view",
      "type": "function"
    },
    {
      "inputs": [
        {
          "internalType": "uint256",
          "name": "_tokenId",
          "type": "uint256"
        }
      ],
      "name": "getStatusOfAuction",
      "outputs": [
        {
          "internalType": "bool",
          "name": "",
          "type": "bool"
        }
      ],
      "stateMutability": "view",
      "type": "function"
    },
    {
      "inputs": [
        {
          "internalType": "address",
          "name": "",
          "type": "address"
        },
        {
          "internalType": "address",
          "name": "",
          "type": "address"
        }
      ],
      "name": "isFan",
      "outputs": [
        {
          "internalType": "bool",
          "name": "",
          "type": "bool"
        }
      ],
      "stateMutability": "view",
      "type": "function"
    },
    {
      "inputs": [
        {
          "internalType": "address",
          "name": "_nftContract",
          "type": "address"
        },
        {
          "internalType": "uint256[]",
          "name": "_tokenId",
          "type": "uint256[]"
        },
        {
          "internalType": "uint256",
          "name": "_price",
          "type": "uint256"
        },
        {
          "internalType": "uint256",
          "name": "_royaltyPrice",
          "type": "uint256"
        },
        {
          "internalType": "uint256",
          "name": "_listingType",
          "type": "uint256"
        },
        {
          "internalType": "uint256",
          "name": "_startTime",
          "type": "uint256"
        },
        {
          "internalType": "uint256",
          "name": "_endTime",
          "type": "uint256"
        },
        {
          "internalType": "uint256",
          "name": "_paymentMethod",
          "type": "uint256"
        }
      ],
      "name": "listNft",
      "outputs": [],
      "stateMutability": "payable",
      "type": "function"
    },
    {
      "inputs": [],
      "name": "owner",
      "outputs": [
        {
          "internalType": "address",
          "name": "",
          "type": "address"
        }
      ],
      "stateMutability": "view",
      "type": "function"
    },
    {
      "inputs": [],
      "name": "removeAllFans",
      "outputs": [],
      "stateMutability": "nonpayable",
      "type": "function"
    },
    {
      "inputs": [
        {
          "internalType": "address",
          "name": "fan",
          "type": "address"
        }
      ],
      "name": "removeFan",
      "outputs": [],
      "stateMutability": "nonpayable",
      "type": "function"
    },
    {
      "inputs": [],
      "name": "renounceOwnership",
      "outputs": [],
      "stateMutability": "nonpayable",
      "type": "function"
    },
    {
      "inputs": [
        {
          "internalType": "address",
          "name": "_nftContract",
          "type": "address"
        },
        {
          "internalType": "uint256",
          "name": "_tokenId",
          "type": "uint256"
        },
        {
          "internalType": "uint256",
          "name": "_price",
          "type": "uint256"
        },
        {
          "internalType": "uint256",
          "name": "_listingType",
          "type": "uint256"
        },
        {
          "internalType": "uint256",
          "name": "_startTime",
          "type": "uint256"
        },
        {
          "internalType": "uint256",
          "name": "_endTime",
          "type": "uint256"
        },
        {
          "internalType": "uint256",
          "name": "_paymentMethod",
          "type": "uint256"
        }
      ],
      "name": "resellNft",
      "outputs": [],
      "stateMutability": "nonpayable",
      "type": "function"
    },
    {
      "inputs": [
        {
          "internalType": "uint256",
          "name": "usdtAmountOut",
          "type": "uint256"
        }
      ],
      "name": "swapETHForUSDT",
      "outputs": [],
      "stateMutability": "payable",
      "type": "function"
    },
    {
      "inputs": [
        {
          "internalType": "uint256",
          "name": "usdtAmountIn",
          "type": "uint256"
        }
      ],
      "name": "swapUSDTForETH",
      "outputs": [
        {
          "internalType": "uint256",
          "name": "",
          "type": "uint256"
        }
      ],
      "stateMutability": "nonpayable",
      "type": "function"
    },
    {
      "inputs": [
        {
          "internalType": "address",
          "name": "newOwner",
          "type": "address"
        }
      ],
      "name": "transferOwnership",
      "outputs": [],
      "stateMutability": "nonpayable",
      "type": "function"
    },
    {
      "inputs": [
        {
          "internalType": "address",
          "name": "_user",
          "type": "address"
        }
      ],
      "name": "unbanUser",
      "outputs": [],
      "stateMutability": "nonpayable",
      "type": "function"
    },
    {
      "stateMutability": "payable",
      "type": "receive"
    }
  ],
  "bytecode": "0x6080604052600b80546001600160a01b0319908116737a250d5630b4cf539739df2c5dacb4c659f2488d17909155600c805490911673dac17f958d2ee523a2206206994597c13d831ec71790553480156200005957600080fd5b506040516200574d3803806200574d8339810160408190526200007c9162000120565b60016000556200008c33620000ce565b60048054336001600160a01b031991821617909155600b54600d80546001600160a01b03928316908416179055600e8054909216921691909117905562000152565b600180546001600160a01b038381166001600160a01b0319831681179093556040519116919082907f8be0079c531659141344cd1fd0a4f28419497f9722a3daafe3b4186f6b6457e090600090a35050565b6000602082840312156200013357600080fd5b81516001600160a01b03811681146200014b57600080fd5b9392505050565b6155eb80620001626000396000f3fe60806040526004361061021c5760003560e01c806389ec8e1c11610122578063b9e07df1116100a5578063ecb4ad0c1161006c578063ecb4ad0c1461072a578063ed5a1c0f14610763578063f2fde38b1461079e578063f41dfb18146107be578063f6c1b77a146107d157005b8063b9e07df11461060c578063bbffa07b146106b3578063c1892058146106d3578063d6cbb202146106f3578063d6fc3dbd1461070a57005b806398dd36bf116100e957806398dd36bf1461052b5780639c74405814610540578063b48deb6014610560578063b4fa041214610573578063b8b3455d146105f957005b806389ec8e1c146104885780638cd410f4146104a85780638d6cb3fb146104c85780638da5cb5b146104dd5780638f288644146104fb57005b80635674c2e6116101aa57806377ec6a471161017157806377ec6a47146103bd57806379b36943146103ed5780638090551e146104255780638110c579146104385780638988d0781461045857005b80635674c2e61461033d578063572e2afe146103625780635c60f226146103755780636f9fb98a14610395578063715018a6146103a857005b80633b295cb0116101ee5780633b295cb0146102b5578063438364a1146102ca5780634c070fe7146102dd5780634d12b695146102f05780635274cff61461031057005b80630760943e1461022557806310d86b1f1461025057806331824a491461027057806331a7a70f1461029557005b3661022357005b005b34801561023157600080fd5b5061023a6107f1565b6040516102479190614a29565b60405180910390f35b34801561025c57600080fd5b5061022361026b366004614a51565b610896565b34801561027c57600080fd5b506002546102879081565b604051908152602001610247565b3480156102a157600080fd5b506102236102b0366004614ad9565b6108c2565b3480156102c157600080fd5b50610223610a5d565b6102236102d8366004614b78565b610afe565b6102236102eb366004614ba4565b611191565b3480156102fc57600080fd5b5061022361030b366004614a51565b6119c6565b34801561031c57600080fd5b5061033061032b366004614a51565b6119ef565b6040516102479190614c19565b34801561034957600080fd5b50610352611cc3565b6040519015158152602001610247565b610223610370366004614cf1565b611d01565b34801561038157600080fd5b50610223610390366004614a51565b612288565b3480156103a157600080fd5b5047610287565b3480156103b457600080fd5b506102236122b4565b3480156103c957600080fd5b506103526103d8366004614a51565b600a6020526000908152604090205460ff1681565b3480156103f957600080fd5b50600b5461040d906001600160a01b031681565b6040516001600160a01b039091168152602001610247565b610223610433366004614d26565b6122c8565b34801561044457600080fd5b50610223610453366004614d3f565b612515565b34801561046457600080fd5b50610352610473366004614a51565b60096020526000908152604090205460ff1681565b34801561049457600080fd5b506102236104a3366004614a51565b6128d9565b3480156104b457600080fd5b506102876104c3366004614d26565b612ad7565b3480156104d457600080fd5b50610330612ec3565b3480156104e957600080fd5b506001546001600160a01b031661040d565b34801561050757600080fd5b50610287610516366004614d26565b60009081526006602052604090206005015490565b34801561053757600080fd5b5061028761316c565b34801561054c57600080fd5b5061035261055b366004614d26565b61324a565b61022361056e366004614dfa565b61328f565b34801561057f57600080fd5b506105e561058e366004614d26565b6006602081905260009182526040909120805460018201546002830154600384015460048501546005860154959096015493956001600160a01b03938416959294919390929190811690600160a01b900460ff1688565b604051610247989796959493929190614e7f565b610223610607366004614ed4565b613955565b34801561061857600080fd5b5061069c610627366004614d26565b60056020819052600091825260409091208054600182015460028301546003840154600485015495850154600686015460078701546008909701546001600160a01b03968716989597948716969384169590931693919260ff918216929181811691610100810482169162010000909104168b565b6040516102479b9a99989796959493929190614f00565b3480156106bf57600080fd5b5061040d6106ce366004614b78565b613f27565b3480156106df57600080fd5b50600c5461040d906001600160a01b031681565b3480156106ff57600080fd5b506003546102879081565b34801561071657600080fd5b50610352610725366004614f7b565b613f5f565b34801561073657600080fd5b50610352610745366004614d26565b60009081526005602052604090206008015462010000900460ff1690565b34801561076f57600080fd5b5061035261077e366004614fd2565b600760209081526000928352604080842090915290825290205460ff1681565b3480156107aa57600080fd5b506102236107b9366004614a51565b613fd8565b6102236107cc366004615000565b61404e565b3480156107dd57600080fd5b506103306107ec366004614a51565b6144bc565b336000908152600a602052604090205460609060ff161561082d5760405162461bcd60e51b815260040161082490615022565b60405180910390fd5b336000908152600860209081526040918290208054835181840281018401909452808452909183018282801561088c57602002820191906000526020600020905b81546001600160a01b0316815260019091019060200180831161086e575b5050505050905090565b61089e614719565b6001600160a01b03166000908152600960205260409020805460ff19166001179055565b336000908152600a602052604090205460ff16156108f25760405162461bcd60e51b815260040161082490615022565b60005b8151811015610a5957600082828151811061091257610912615092565b6020026020010151905060006001600160a01b0316816001600160a01b031614156109755760405162461bcd60e51b8152602060048201526013602482015272496e76616c69642066616e206164647265737360681b6044820152606401610824565b3360009081526007602090815260408083206001600160a01b038516845290915290205460ff16156109e95760405162461bcd60e51b815260206004820152601860248201527f4164647265737320697320616c726561647920612066616e00000000000000006044820152606401610824565b3360008181526008602090815260408083208054600180820183559185528385200180546001600160a01b0319166001600160a01b039790971696871790559383526007825280832094835293905291909120805460ff1916909117905580610a51816150be565b9150506108f5565b5050565b336000908152600860205260408120905b8154811015610ae25733600090815260076020526040812083548290859085908110610a9c57610a9c615092565b6000918252602080832091909101546001600160a01b031683528201929092526040019020805460ff191691151591909117905580610ada816150be565b915050610a6e565b50336000908152600860205260408120610afb91614953565b50565b6000818152600660205260409020600401544211610b5e5760405162461bcd60e51b815260206004820152601960248201527f41756374696f6e20686173206e6f7420656e64656420796574000000000000006044820152606401610824565b60008181526005602090815260408083206006928390529220908101546001600160a01b0316610cbe57600181810154908301546040516323b872dd60e01b81526001600160a01b03878116936323b872dd93610bc3933093909216916004016150d9565b600060405180830381600087803b158015610bdd57600080fd5b505af1158015610bf1573d6000803e3d6000fd5b50505060038301546004840180546001600160a01b0319166001600160a01b039283161790556006808501805460ff19169055600086815260208290526040902001541615159050610cbe5760405162461bcd60e51b815260206004820152604a60248201527f4e6f7468696e6720746f20636c61696d2e20596f75206861766520676f74203060448201527f2062696473206f6e20796f75722061756374696f6e2e2052657475726e696e67606482015269103cb7bab91027232a1760b11b608482015260a401610824565b6006808301805460ff191690556005820154908201546004840180546001600160a01b0319166001600160a01b0390921691909117905560009081908190816008870154610100900460ff166002811115610d1b57610d1b614bdf565b1415610e895760016006860154600160a01b900460ff166002811115610d4357610d43614bdf565b1415610d6b576000610d5361316c565b610d5d90836150fd565b9050610d6881612ad7565b50505b600286015460048701546001600160a01b0390811691161415610dde57610d9181614773565b610d9b908261511c565b60038701546040519193506001600160a01b03169083156108fc029084906000818181858888f19350505050158015610dd8573d6000803e3d6000fd5b506110b1565b610df08560050154876007015461478c565b9350610dfb81614773565b610e05858361511c565b610e0f919061511c565b60028701546040519193506001600160a01b03169085156108fc029086906000818181858888f19350505050158015610e4c573d6000803e3d6000fd5b5060038601546040516001600160a01b039091169083156108fc029084906000818181858888f19350505050158015610dd8573d6000803e3d6000fd5b60016008870154610100900460ff166002811115610ea957610ea9614bdf565b14156110b15760006006860154600160a01b900460ff166002811115610ed157610ed1614bdf565b1415610f07576000610ee161316c565b610eeb9083615133565b9050610ef6826122c8565b610f0381620f42406150fd565b9150505b600286015460048701546001600160a01b0390811691161415610fa857610f2d81614773565b610f37908261511c565b600e54600388015460405163a9059cbb60e01b81529294506001600160a01b039182169263a9059cbb92610f719216908690600401615155565b600060405180830381600087803b158015610f8b57600080fd5b505af1158015610f9f573d6000803e3d6000fd5b505050506110b1565b610fba8560050154876007015461478c565b9350610fc581614773565b610fcf858361511c565b610fd9919061511c565b600e54600388015460405163a9059cbb60e01b81529294506001600160a01b039182169263a9059cbb926110139216908690600401615155565b600060405180830381600087803b15801561102d57600080fd5b505af1158015611041573d6000803e3d6000fd5b5050600e54600289015460405163a9059cbb60e01b81526001600160a01b03928316945063a9059cbb935061107e92909116908890600401615155565b600060405180830381600087803b15801561109857600080fd5b505af11580156110ac573d6000803e3d6000fd5b505050505b600685015460018701546040516323b872dd60e01b81526001600160a01b038b8116936323b872dd936110ec933093909216916004016150d9565b600060405180830381600087803b15801561110657600080fd5b505af115801561111a573d6000803e3d6000fd5b5050505061112c600280546001019055565b6001860154600387015460068701546040517f16f1dbd97e6bf646d429ed186cce832f1f7fd9907814293b83181e9970ab7bd29361117f938d9391926001600160a01b039182169290911690899061516e565b60405180910390a15050505050505050565b3360009081526009602052604090205460ff16156111c15760405162461bcd60e51b8152600401610824906151a1565b336000908152600a602052604090205460ff16156111f15760405162461bcd60e51b815260040161082490615022565b6111f96147ab565b60008281526005602052604081209061121061316c565b61121a90846150fd565b60048301546001600160a01b031660009081526009602052604090205490915060ff161561125a5760405162461bcd60e51b8152600401610824906151d6565b60048201546001600160a01b03166000908152600a602052604090205460ff16156112975760405162461bcd60e51b81526004016108249061522c565b81600501548110156112d85760405162461bcd60e51b815260206004820152600a60248201526953656e64206d6f72652160b01b6044820152606401610824565b6000600883015460ff1660018111156112f3576112f3614bdf565b146113405760405162461bcd60e51b815260206004820152601a60248201527f54686973204e4654206973206e6f742061742061756374696f6e0000000000006044820152606401610824565b600682015460ff1615156001146113695760405162461bcd60e51b815260040161082490615289565b60008033905061139660405180604001604052806006815260200165436865636b3160d01b815250614805565b600e546040516323b872dd60e01b815260009182916001600160a01b03909116906323b872dd906113cf90339030908c906004016150d9565b600060405180830381600087803b1580156113e957600080fd5b505af11580156113fd573d6000803e3d6000fd5b50505050600286015460038701546001600160a01b03918216911614156115a75761144560405180604001604052806006815260200165436865636b3360d01b815250614805565b61144e87614773565b611458908861511c565b9050886001141561151a5761148a6040518060400160405280600681526020016510da1958dacd60d21b815250614805565b60006114978260016150fd565b6114a490620f42406150fd565b600e54600389015460405163a9059cbb60e01b81529293506001600160a01b039182169263a9059cbb926114de9216908690600401615155565b600060405180830381600087803b1580156114f857600080fd5b505af115801561150c573d6000803e3d6000fd5b505050506001945050611835565b61154160405180604001604052806006815260200165436865636b3560d01b815250614805565b61154a81612ad7565b50600061155561316c565b61155f90836150fd565b60038801546040519192506001600160a01b03169082156108fc029083906000818181858888f1935050505015801561159c573d6000803e3d6000fd5b506001945050611835565b6115ce6040518060400160405280600681526020016521b432b1b59b60d11b815250614805565b60006115de88886007015461478c565b90506115ea818961511c565b92506115f583614773565b6115ff908961511c565b9150600061161082620f42406150fd565b600e5460028a015460405163a9059cbb60e01b81529293506001600160a01b039182169263a9059cbb9261164a9216908690600401615155565b600060405180830381600087803b15801561166457600080fd5b505af1158015611678573d6000803e3d6000fd5b505050506116a360405180604001604052806006815260200165436865636b3760d01b815250614805565b8a6001141561177f576116d360405180604001604052806006815260200165086d0cac6d6760d31b815250614805565b60006116e284620f42406150fd565b600e5460038b015460405163a9059cbb60e01b81529293506001600160a01b039182169263a9059cbb9261171c9216908590600401615155565b600060405180830381600087803b15801561173657600080fd5b505af115801561174a573d6000803e3d6000fd5b505050506001965061177960405180604001604052806006815260200165436865636b3960d01b815250614805565b50611832565b61178883612ad7565b50600061179361316c565b61179d90856150fd565b90506117c760405180604001604052806007815260200166436865636b313160c81b815250614805565b60038901546040516001600160a01b039091169082156108fc029083906000818181858888f19350505050158015611803573d6000803e3d6000fd5b5061182c6040518060400160405280600781526020016621b432b1b5989960c91b815250614805565b60019650505b50505b83156119b05761186360405180604001604052806007815260200166436865636b313360c81b815250614805565b60018601546040516323b872dd60e01b81526001600160a01b038c16916323b872dd916118979130918891906004016150d9565b600060405180830381600087803b1580156118b157600080fd5b505af11580156118c5573d6000803e3d6000fd5b505050506118f16040518060400160405280600781526020016610da1958dacc4d60ca1b815250614805565b6004860180546001600160a01b0385166001600160a01b031991821617909155600387018054909116905560068601805460ff19169055611936600280546001019055565b600186015460038701546040517f16f1dbd97e6bf646d429ed186cce832f1f7fd9907814293b83181e9970ab7bd292611980928e926001600160a01b03909116908890889061516e565b60405180910390a16119b060405180604001604052806007815260200166436865636b313560c81b815250614805565b5050505050506119c06001600055565b50505050565b6119ce614719565b6001600160a01b03166000908152600960205260409020805460ff19169055565b336000908152600a602052604090205460609060ff1615611a225760405162461bcd60e51b815260040161082490615022565b3360009081526009602052604090205460ff1615611a525760405162461bcd60e51b8152600401610824906151a1565b6000611a5d60035490565b90506000805b82811015611acd576000818152600560205260409020600301546001600160a01b038681169116148015611aa8575060008181526005602052604090206006015460ff165b15611abb5781611ab7816150be565b9250505b80611ac5816150be565b915050611a63565b5060008167ffffffffffffffff811115611ae957611ae9614a6e565b604051908082528060200260200182016040528015611b2257816020015b611b0f614971565b815260200190600190039081611b075790505b5090506000805b84811015611cb6576000818152600560205260409020600301546001600160a01b038881169116148015611b6e575060008181526005602052604090206006015460ff165b15611ca45760008181526005602081815260409283902083516101608101855281546001600160a01b039081168252600180840154948301949094526002830154811695820195909552600382015485166060820152600482015490941660808501529182015460a0840152600682015460ff908116151560c0850152600783015460e08501526008830154610100850192911690811115611c1257611c12614bdf565b6001811115611c2357611c23614bdf565b81526020016008820160019054906101000a900460ff166002811115611c4b57611c4b614bdf565b6002811115611c5c57611c5c614bdf565b81526008919091015462010000900460ff1615156020909101528351849084908110611c8a57611c8a615092565b60200260200101819052508180611ca0906150be565b9250505b80611cae816150be565b915050611b29565b509093505050505b919050565b3360009081526009602052604081205460ff1680611cf05750336000908152600a602052604090205460ff165b15611cfb5750600190565b50600090565b3360009081526009602052604090205460ff1615611d315760405162461bcd60e51b8152600401610824906151a1565b336000908152600a602052604090205460ff1615611d615760405162461bcd60e51b815260040161082490615022565b611d696147ab565b600081815260056020908152604080832060048101546001600160a01b0316845260099092529091205460ff1615611db35760405162461bcd60e51b8152600401610824906151d6565b60048101546001600160a01b03166000908152600a602052604090205460ff1615611df05760405162461bcd60e51b81526004016108249061522c565b8060050154341015611e535760405162461bcd60e51b815260206004820152602660248201527f4e6f7420656e6f75676820657468657220746f20636f7665722061736b696e6760448201526520707269636560d01b6064820152608401610824565b6000600882015460ff166001811115611e6e57611e6e614bdf565b14611ebb5760405162461bcd60e51b815260206004820152601a60248201527f54686973204e4654206973206e6f742061742061756374696f6e0000000000006044820152606401610824565b600681015460ff161515600114611ee45760405162461bcd60e51b815260040161082490615289565b600281015460038201546000913391839182916001600160a01b039081169116141561200f57611f1334614773565b611f1d903461511c565b905086611f6a5760038501546040516001600160a01b039091169082156108fc029083906000818181858888f19350505050158015611f60573d6000803e3d6000fd5b5060019350612170565b611f73816122c8565b6000611f7d61316c565b611f8790836150fd565b90506000611f9882620f42406150fd565b600e54600389015460405163a9059cbb60e01b81529293506001600160a01b039182169263a9059cbb92611fd29216908590600401615155565b600060405180830381600087803b158015611fec57600080fd5b505af1158015612000573d6000803e3d6000fd5b50505050600195505050612170565b6000349050600061202482886007015461478c565b905061202f82614773565b612039828461511c565b612043919061511c565b60028801546040519194506001600160a01b03169082156108fc029083906000818181858888f19350505050158015612080573d6000803e3d6000fd5b50886120cc5760038701546040516001600160a01b039091169084156108fc029085906000818181858888f193505050501580156120c2573d6000803e3d6000fd5b506001955061216d565b6120d5836122c8565b60006120df61316c565b6120e99085615133565b905060006120fa82620f42406150fd565b600e5460038b015460405163a9059cbb60e01b81529293506001600160a01b039182169263a9059cbb926121349216908590600401615155565b600060405180830381600087803b15801561214e57600080fd5b505af1158015612162573d6000803e3d6000fd5b505050506001975050505b50505b83156122745760018501546040516323b872dd60e01b81526001600160a01b038a16916323b872dd916121aa9130918891906004016150d9565b600060405180830381600087803b1580156121c457600080fd5b505af11580156121d8573d6000803e3d6000fd5b5050506004860180546001600160a01b0386166001600160a01b03199182161790915560038701805490911690555060068501805460ff19169055612221600280546001019055565b600185015460038601546040517f16f1dbd97e6bf646d429ed186cce832f1f7fd9907814293b83181e9970ab7bd29261226b928c926001600160a01b03909116908890889061516e565b60405180910390a15b50505050506122836001600055565b505050565b612290614719565b6001600160a01b03166000908152600a60205260409020805460ff19166001179055565b6122bc614719565b6122c66000614848565b565b6040805160028082526060820183526000926020830190803683375050600d54604080516315ab88c960e31b815290519394506001600160a01b039091169263ad5c464892506004808301926020929190829003018186803b15801561232d57600080fd5b505afa158015612341573d6000803e3d6000fd5b505050506040513d601f19601f8201168201806040525081019061236591906152c0565b8160008151811061237857612378615092565b6001600160a01b039283166020918202929092010152600c548251911690829060019081106123a9576123a9615092565b6001600160a01b039290921660209283029190910182015260408051600280825260608201835260009391929091830190803683375050600d5460405163d06ca61f60e01b81529293506001600160a01b03169163d06ca61f915061241490869086906004016152dd565b60006040518083038186803b15801561242c57600080fd5b505afa158015612440573d6000803e3d6000fd5b505050506040513d6000823e601f3d908101601f1916820160405261246891908101906152fe565b600d5481519192506001600160a01b031690637ff36ab59034908490600190811061249557612495615092565b60200260200101518530426040518663ffffffff1660e01b81526004016124bf9493929190615384565b6000604051808303818588803b1580156124d857600080fd5b505af11580156124ec573d6000803e3d6000fd5b50505050506040513d6000823e601f3d908101601f191682016040526119c091908101906152fe565b3360009081526009602052604090205460ff16156125455760405162461bcd60e51b8152600401610824906151a1565b336000908152600a602052604090205460ff16156125755760405162461bcd60e51b815260040161082490615022565b61257d6147ab565b6000868152600560205260409020856125d85760405162461bcd60e51b815260206004820152601c60248201527f5072696365206d757374206265206174206c65617374203120776569000000006044820152606401610824565b60048101546001600160a01b031633146126475760405162461bcd60e51b815260206004820152602a60248201527f4f6e6c7920746865206f776e6572206f6620616e206e66742063616e206c69736044820152693a103a34329037333a1760b11b6064820152608401610824565b6040516323b872dd60e01b81526001600160a01b038916906323b872dd9061267790339030908c906004016150d9565b600060405180830381600087803b15801561269157600080fd5b505af11580156126a5573d6000803e3d6000fd5b5050506003820180546001600160a01b0319908116331790915560048301805490911630179055506005810186905560068101805460ff1916600190811790915585908111156126f7576126f7614bdf565b60088201805460ff19166001838181111561271457612714614bdf565b021790555081600281111561272b5761272b614bdf565b60088201805461ff00191661010083600281111561274b5761274b614bdf565b0217905550600185141561287c57604051806101000160405280888152602001336001600160a01b031681526020018781526020018581526020018481526020016000815260200160006001600160a01b031681526020018360028111156127b5576127b5614bdf565b60028111156127c6576127c6614bdf565b905260008881526006602081815260409283902084518155908401516001820180546001600160a01b03199081166001600160a01b039384161790915593850151600280840191909155606086015160038401556080860151600484015560a0860151600584015560c0860151938301805495861694909216938417825560e08601519294929391926001600160a81b03191690911790600160a01b90849081111561287457612874614bdf565b021790555050505b612886600261489a565b7fa0c6c0d02d86fdacecbaa5fdf5894bab204e31a778250474108540733a9b8d19888833308a6040516128bd95949392919061516e565b60405180910390a1506128d06001600055565b50505050505050565b6001600160a01b0381166129255760405162461bcd60e51b8152602060048201526013602482015272496e76616c69642066616e206164647265737360681b6044820152606401610824565b3360009081526007602090815260408083206001600160a01b038516845290915290205460ff1661298f5760405162461bcd60e51b815260206004820152601460248201527320b2323932b9b99034b9903737ba1030903330b760611b6044820152606401610824565b336000908152600860205260408120905b8154811015612aa757826001600160a01b03168282815481106129c5576129c5615092565b6000918252602090912001546001600160a01b03161415612a9557815482906129f09060019061511c565b81548110612a0057612a00615092565b9060005260206000200160009054906101000a90046001600160a01b0316828281548110612a3057612a30615092565b9060005260206000200160006101000a8154816001600160a01b0302191690836001600160a01b0316021790555081805480612a6e57612a6e6153b9565b600082815260209020810160001990810180546001600160a01b0319169055019055612aa7565b80612a9f816150be565b9150506129a0565b50503360009081526007602090815260408083206001600160a01b0394909416835292905220805460ff19169055565b6000612b0160405180604001604052806006815260200165746573743d3160d01b815250836148f1565b6040805160028082526060820183526000926020830190803683375050600c5482519293506001600160a01b031691839150600090612b4257612b42615092565b6001600160a01b03928316602091820292909201810191909152600d54604080516315ab88c960e31b81529051919093169263ad5c4648926004808301939192829003018186803b158015612b9657600080fd5b505afa158015612baa573d6000803e3d6000fd5b505050506040513d601f19601f82011682018060405250810190612bce91906152c0565b81600181518110612be157612be1615092565b6001600160a01b039283166020918202929092010152600e546040516323b872dd60e01b81529116906323b872dd90612c22903390309088906004016150d9565b600060405180830381600087803b158015612c3c57600080fd5b505af1158015612c50573d6000803e3d6000fd5b5050600e54600b5460405163095ea7b360e01b81526001600160a01b03928316945063095ea7b39350612c8b92909116908790600401615155565b600060405180830381600087803b158015612ca557600080fd5b505af1158015612cb9573d6000803e3d6000fd5b50505050612ce360405180604001604052806005815260200164746573743360d81b815250614805565b6040805160028082526060820183526000926020830190803683375050600d5460405163d06ca61f60e01b81529293506001600160a01b03169163d06ca61f9150612d3490879086906004016152dd565b60006040518083038186803b158015612d4c57600080fd5b505afa158015612d60573d6000803e3d6000fd5b505050506040513d6000823e601f3d908101601f19168201604052612d8891908101906152fe565b9050612dcc60405180604001604052806006815260200165185b5bdd5b9d60d21b81525082600181518110612dbf57612dbf615092565b60200260200101516148f1565b600d5481516001600160a01b0390911690634a25d94a9083906001908110612df657612df6615092565b6020026020010151868530426040518663ffffffff1660e01b8152600401612e229594939291906153cf565b600060405180830381600087803b158015612e3c57600080fd5b505af1158015612e50573d6000803e3d6000fd5b505050506040513d6000823e601f3d908101601f19168201604052612e7891908101906152fe565b50612e9f604051806040016040528060058152602001641d195cdd0d60da1b815250614805565b80600181518110612eb257612eb2615092565b602002602001015192505050919050565b336000908152600a602052604090205460609060ff1615612ef65760405162461bcd60e51b815260040161082490615022565b6000612f0160035490565b90506000612f0e60025490565b612f18908361511c565b9050612f44604051806040016040528060088152602001671b999d10dbdd5b9d60c21b815250836148f1565b612f756040518060400160405280600f81526020016e1d5b9cdbdb1913999d1cd0dbdd5b9d608a1b815250826148f1565b60008167ffffffffffffffff811115612f9057612f90614a6e565b604051908082528060200260200182016040528015612fc957816020015b612fb6614971565b815260200190600190039081612fae5790505b5090506000612ffa6040518060400160405280600b81526020016a5f6964546f4e46545b695d60a81b815250614805565b60005b848110156131625760008181526005602052604090206006015460ff16156131505760008181526005602081815260409283902083516101608101855281546001600160a01b039081168252600180840154948301949094526002830154811695820195909552600382015485166060820152600482015490941660808501529182015460a0840152600682015460ff908116151560c0850152600783015460e085015260088301546101008501929116908111156130be576130be614bdf565b60018111156130cf576130cf614bdf565b81526020016008820160019054906101000a900460ff1660028111156130f7576130f7614bdf565b600281111561310857613108614bdf565b81526008919091015462010000900460ff161515602090910152835184908490811061313657613136615092565b6020026020010181905250818061314c906150be565b9250505b8061315a816150be565b915050612ffd565b5090935050505090565b60008073ee9f2375b4bdf6387aa8265dd4fb8f16512a1d4690506000816001600160a01b031663feaf968c6040518163ffffffff1660e01b815260040160a06040518083038186803b1580156131c157600080fd5b505afa1580156131d5573d6000803e3d6000fd5b505050506040513d601f19601f820116820180604052508101906131f99190615425565b505050915050600081136132445760405162461bcd60e51b8152602060048201526012602482015271496e76616c6964205553445420707269636560701b6044820152606401610824565b92915050565b6000818152600660205260408120600301544211801561327a575060008281526006602052604090206004015442105b1561328757506001919050565b506000919050565b6132976147ab565b3360009081526009602052604090205460ff16156132c75760405162461bcd60e51b8152600401610824906151a1565b336000908152600a602052604090205460ff16156132f75760405162461bcd60e51b815260040161082490615022565b60005b87518110156139405761333a6040518060400160405280600981526020016874686973206973203160b81b815250898381518110612dbf57612dbf615092565b6133686040518060400160405280600c81526020016b5f6c697374696e675479706560a01b815250866148f1565b60408051808201909152601c81527f75696e74323536284c697374696e67547970652e41756374696f6e290000000060208201526133a79060016148f1565b60018511156133c9576040516317142a4d60e01b815260040160405180910390fd5b6134026040518060400160405280600b81526020016a5f746f6b656e49645b695d60a81b815250898381518110612dbf57612dbf615092565b886001600160a01b03166323b872dd33308b858151811061342557613425615092565b60200260200101516040518463ffffffff1660e01b815260040161344b939291906150d9565b600060405180830381600087803b15801561346557600080fd5b505af1158015613479573d6000803e3d6000fd5b505050506134a7604051806040016040528060098152602001683a3434b99034b9901960b91b815250614805565b6134b5600380546001019055565b6134df604051806040016040528060098152602001681d1a1a5cc81a5cc80d60ba1b815250614805565b6040518061016001604052808a6001600160a01b0316815260200189838151811061350c5761350c615092565b60200260200101518152602001336001600160a01b03168152602001336001600160a01b03168152602001306001600160a01b0316815260200188815260200160011515815260200187815260200186600181111561356d5761356d614bdf565b600181111561357e5761357e614bdf565b815260200183600281111561359557613595614bdf565b60028111156135a6576135a6614bdf565b815260200160001515815250600560008a84815181106135c8576135c8615092565b6020908102919091018101518252818101929092526040908101600020835181546001600160a01b03199081166001600160a01b039283161783559385015160018084019190915592850151600283018054861691831691909117905560608501516003830180548616918316919091179055608085015160048301805490951691161790925560a0830151600583015560c083015160068301805460ff1990811692151592909217905560e0840151600784015561010084015160088401805491939092919091169083818111156136a3576136a3614bdf565b021790555061012082015160088201805461ff0019166101008360028111156136ce576136ce614bdf565b0217905550610140919091015160089091018054911515620100000262ff00001990921691909117905560408051808201909152600981526874686973206973203560b81b602082015261372190614805565b60018514156138ac57613754604051806040016040528060098152602001683a3434b99034b9901b60b91b815250614805565b60405180610100016040528089838151811061377257613772615092565b60200260200101518152602001336001600160a01b031681526020018881526020018581526020018481526020016000815260200160006001600160a01b031681526020018360028111156137c9576137c9614bdf565b60028111156137da576137da614bdf565b815250600660008a84815181106137f3576137f3615092565b602090810291909101810151825281810192909252604090810160002083518155918301516001830180546001600160a01b03199081166001600160a01b039384161790915591840151600280850191909155606085015160038501556080850151600485015560a0850151600585015560c085015160068501805494851691909316908117835560e0860151936001600160a81b0319161790600160a01b9084908111156138a4576138a4614bdf565b021790555050505b6138d66040518060400160405280600981526020016874686973206973203760b81b815250614805565b7fa0c6c0d02d86fdacecbaa5fdf5894bab204e31a778250474108540733a9b8d198989838151811061390a5761390a615092565b602002602001015133308b60405161392695949392919061516e565b60405180910390a180613938816150be565b9150506132fa565b5061394b6001600055565b5050505050505050565b600083815260066020526040902060030154839042118015613987575060008181526006602052604090206004015442105b6139a35760405162461bcd60e51b815260040161082490615475565b336000908152600a602052604090205460ff16156139d35760405162461bcd60e51b815260040161082490615022565b3360009081526009602052604090205460ff1615613a035760405162461bcd60e51b8152600401610824906151a1565b6000613a0d61316c565b90506000613a1b82866150fd565b9050613a4460405180604001604052806006815260200165436865636b3160d01b815250614805565b600086815260066020819052604090912001546001600160a01b0316613ac557600086815260066020526040902060020154811015613ac55760405162461bcd60e51b815260206004820152601c60248201527f4d696e696d756d206269642068617320746f20626520686967686572000000006044820152606401610824565b613aec6040518060400160405280600681526020016521b432b1b59960d11b815250614805565b600086815260066020526040902060050154811015613b1d5760405162461bcd60e51b8152600401610824906154be565b613b4460405180604001604052806006815260200165436865636b3360d01b815250614805565b600160008781526005602052604090206008015460ff166001811115613b6c57613b6c614bdf565b14613bb55760405162461bcd60e51b81526020600482015260196024820152782a3434b99027232a1034b99030ba1030ba1030bab1ba34b7b760391b6044820152606401610824565b60008681526005602052604090206006015460ff161515600114613beb5760405162461bcd60e51b815260040161082490615289565b613c126040518060400160405280600681526020016510da1958dacd60d21b815250614805565b600086815260066020818152604092839020808301546005820154855180870190965293855265436865636b3560d01b92850192909252926001600160a01b039091169190613c6090614805565b60068301546001600160a01b031615613d895760016006840154600160a01b900460ff166002811115613c9557613c95614bdf565b1415613d29576000613ca561316c565b613caf9083615133565b9050613cbe81620f42406150fd565b600e5460405163a9059cbb60e01b81529192506001600160a01b03169063a9059cbb90613cf19086908590600401615155565b600060405180830381600087803b158015613d0b57600080fd5b505af1158015613d1f573d6000803e3d6000fd5b5050505050613d89565b60006006840154600160a01b900460ff166002811115613d4b57613d4b614bdf565b1415613d89576040516001600160a01b0383169082156108fc029083906000818181858888f19350505050158015613d87573d6000803e3d6000fd5b505b600583018490556006830180546001600160a01b03191633179055866002811115613db657613db6614bdf565b60068401805460ff60a01b1916600160a01b836002811115613dda57613dda614bdf565b0217905550613e0660405180604001604052806006815260200165436865636b3760d01b815250614805565b613e124261025861551b565b83600401541015613ebe57613e4460405180604001604052806006815260200165086d0cac6d6760d31b815250614805565b61012c836004016000828254613e5a919061551b565b909155505060048301546040519081527f63929ab50521717a96992aeaa109afc8cfc926d99096bbeaf23ee4322db546e89060200160405180910390a1613ebe60405180604001604052806006815260200165436865636b3960d01b815250614805565b600183015460068401546005850154604080518d81526001600160a01b03948516602082015293909216838301526060830152517f4307392e6f0e441e74a4982d9fa9ddc49b3cd9d3902a9d3ecab0ad3c60a0acd19181900360800190a1505050505050505050565b60086020528160005260406000208181548110613f4357600080fd5b6000918252602090912001546001600160a01b03169150829050565b6000613f69614719565b6000805b8451811015613fcd57848181518110613f8857613f88615092565b602090810291909101810151600081815260059092526040909120600801805462ff000019166201000087151502179055915080613fc5816150be565b915050613f6d565b506001949350505050565b613fe0614719565b6001600160a01b0381166140455760405162461bcd60e51b815260206004820152602660248201527f4f776e61626c653a206e6577206f776e657220697320746865207a65726f206160448201526564647265737360d01b6064820152608401610824565b610afb81614848565b600082815260066020526040902060030154829042118015614080575060008181526006602052604090206004015442105b61409c5760405162461bcd60e51b815260040161082490615475565b336000908152600a602052604090205460ff16156140cc5760405162461bcd60e51b815260040161082490615022565b3360009081526009602052604090205460ff16156140fc5760405162461bcd60e51b8152600401610824906151a1565b600083815260066020819052604090912001546001600160a01b031661417d5760008381526006602052604090206002015434101561417d5760405162461bcd60e51b815260206004820152601c60248201527f4d696e696d756d206269642068617320746f20626520686967686572000000006044820152606401610824565b60008381526006602052604090206005015434116141ad5760405162461bcd60e51b8152600401610824906154be565b600160008481526005602052604090206008015460ff1660018111156141d5576141d5614bdf565b1461421e5760405162461bcd60e51b81526020600482015260196024820152782a3434b99027232a1034b99030ba1030ba1030bab1ba34b7b760391b6044820152606401610824565b60008381526005602052604090206006015460ff1615156001146142545760405162461bcd60e51b815260040161082490615289565b60008381526006602081905260409091209081015460058201546001600160a01b039091169081156143965760016006840154600160a01b900460ff1660028111156142a2576142a2614bdf565b14156143365760006142b261316c565b6142bc9083615133565b90506142cb81620f42406150fd565b600e5460405163a9059cbb60e01b81529192506001600160a01b03169063a9059cbb906142fe9086908590600401615155565b600060405180830381600087803b15801561431857600080fd5b505af115801561432c573d6000803e3d6000fd5b5050505050614396565b60006006840154600160a01b900460ff16600281111561435857614358614bdf565b1415614396576040516001600160a01b0383169082156108fc029083906000818181858888f19350505050158015614394573d6000803e3d6000fd5b505b3460058401556006830180546001600160a01b031916331790558460028111156143c2576143c2614bdf565b60068401805460ff60a01b1916600160a01b8360028111156143e6576143e6614bdf565b02179055506143f74261025861551b565b836004015410156144565761012c836004016000828254614418919061551b565b909155505060048301546040519081527f63929ab50521717a96992aeaa109afc8cfc926d99096bbeaf23ee4322db546e89060200160405180910390a15b600183015460068401546005850154604080518a81526001600160a01b03948516602082015293909216838301526060830152517f4307392e6f0e441e74a4982d9fa9ddc49b3cd9d3902a9d3ecab0ad3c60a0acd19181900360800190a1505050505050565b336000908152600a602052604090205460609060ff16156144ef5760405162461bcd60e51b815260040161082490615022565b60006144fa60035490565b90506000805b8281101561454d576000818152600560205260409020600401546001600160a01b038681169116141561453b5781614537816150be565b9250505b80614545816150be565b915050614500565b5060008167ffffffffffffffff81111561456957614569614a6e565b6040519080825280602002602001820160405280156145a257816020015b61458f614971565b8152602001906001900390816145875790505b5090506000805b84811015611cb6576000818152600560205260409020600401546001600160a01b03888116911614156147075760008181526005602081815260409283902083516101608101855281546001600160a01b039081168252600180840154948301949094526002830154811695820195909552600382015485166060820152600482015490941660808501529182015460a0840152600682015460ff908116151560c0850152600783015460e0850152600883015461010085019291169081111561467557614675614bdf565b600181111561468657614686614bdf565b81526020016008820160019054906101000a900460ff1660028111156146ae576146ae614bdf565b60028111156146bf576146bf614bdf565b81526008919091015462010000900460ff16151560209091015283518490849081106146ed576146ed615092565b60200260200101819052508180614703906150be565b9250505b80614711816150be565b9150506145a9565b6001546001600160a01b031633146122c65760405162461bcd60e51b815260206004820181905260248201527f4f776e61626c653a2063616c6c6572206973206e6f7420746865206f776e65726044820152606401610824565b600060646147828360066150fd565b6132449190615133565b6000606461479a83856150fd565b6147a49190615133565b9392505050565b600260005414156147fe5760405162461bcd60e51b815260206004820152601f60248201527f5265656e7472616e637947756172643a207265656e7472616e742063616c6c006044820152606401610824565b6002600055565b610afb816040516024016148199190615580565b60408051601f198184030181529190526020810180516001600160e01b031663104c13eb60e21b179052614932565b600180546001600160a01b038381166001600160a01b0319831681179093556040519116919082907f8be0079c531659141344cd1fd0a4f28419497f9722a3daafe3b4186f6b6457e090600090a35050565b8054806148e95760405162461bcd60e51b815260206004820152601b60248201527f436f756e7465723a2064656372656d656e74206f766572666c6f7700000000006044820152606401610824565b600019019055565b610a598282604051602401614907929190615593565b60408051601f198184030181529190526020810180516001600160e01b0316632d839cb360e21b1790525b80516a636f6e736f6c652e6c6f67602083016000808483855afa5050505050565b5080546000825590600052602060002090810190610afb91906149cc565b6040805161016081018252600080825260208201819052918101829052606081018290526080810182905260a0810182905260c0810182905260e0810182905290610100820190815260200160008152600060209091015290565b5b808211156149e157600081556001016149cd565b5090565b600081518084526020808501945080840160005b83811015614a1e5781516001600160a01b0316875295820195908201906001016149f9565b509495945050505050565b6020815260006147a460208301846149e5565b6001600160a01b0381168114610afb57600080fd5b600060208284031215614a6357600080fd5b81356147a481614a3c565b634e487b7160e01b600052604160045260246000fd5b604051601f8201601f1916810167ffffffffffffffff81118282101715614aad57614aad614a6e565b604052919050565b600067ffffffffffffffff821115614acf57614acf614a6e565b5060051b60200190565b60006020808385031215614aec57600080fd5b823567ffffffffffffffff811115614b0357600080fd5b8301601f81018513614b1457600080fd5b8035614b27614b2282614ab5565b614a84565b81815260059190911b82018301908381019087831115614b4657600080fd5b928401925b82841015614b6d578335614b5e81614a3c565b82529284019290840190614b4b565b979650505050505050565b60008060408385031215614b8b57600080fd5b8235614b9681614a3c565b946020939093013593505050565b60008060008060808587031215614bba57600080fd5b8435614bc581614a3c565b966020860135965060408601359560600135945092505050565b634e487b7160e01b600052602160045260246000fd5b60028110614c0557614c05614bdf565b9052565b60038110614c0557614c05614bdf565b602080825282518282018190526000919060409081850190868401855b82811015614ce457815180516001600160a01b0390811686528782015188870152868201518116878701526060808301518216908701526080808301519091169086015260a0808201519086015260c08082015115159086015260e0808201519086015261010080820151614cad82880182614bf5565b505061012080820151614cc282880182614c09565b5050610140908101511515908501526101609093019290850190600101614c36565b5091979650505050505050565b600080600060608486031215614d0657600080fd5b8335614d1181614a3c565b95602085013595506040909401359392505050565b600060208284031215614d3857600080fd5b5035919050565b600080600080600080600060e0888a031215614d5a57600080fd5b8735614d6581614a3c565b9960208901359950604089013598606081013598506080810135975060a0810135965060c00135945092505050565b600082601f830112614da557600080fd5b81356020614db5614b2283614ab5565b82815260059290921b84018101918181019086841115614dd457600080fd5b8286015b84811015614def5780358352918301918301614dd8565b509695505050505050565b600080600080600080600080610100898b031215614e1757600080fd5b8835614e2281614a3c565b9750602089013567ffffffffffffffff811115614e3e57600080fd5b614e4a8b828c01614d94565b989b989a505050506040870135966060810135966080820135965060a0820135955060c0820135945060e09091013592509050565b8881526001600160a01b03888116602083015260408201889052606082018790526080820186905260a08201859052831660c08201526101008101614ec760e0830184614c09565b9998505050505050505050565b600080600060608486031215614ee957600080fd5b505081359360208301359350604090920135919050565b6001600160a01b038c81168252602082018c90528a8116604083015289811660608301528816608082015260a0810187905285151560c082015260e081018590526101608101614f54610100830186614bf5565b614f62610120830185614c09565b8215156101408301529c9b505050505050505050505050565b60008060408385031215614f8e57600080fd5b823567ffffffffffffffff811115614fa557600080fd5b614fb185828601614d94565b92505060208301358015158114614fc757600080fd5b809150509250929050565b60008060408385031215614fe557600080fd5b8235614ff081614a3c565b91506020830135614fc781614a3c565b6000806040838503121561501357600080fd5b50508035926020909101359150565b6020808252604a908201527f596f7520617265207065726d656e616e746c792064656c657465642066726f6d60408201527f207468697320706c6174666f726d20666f722076696f6c6174696e6720746865606082015269103837b634b1b4b2b99760b11b608082015260a00190565b634e487b7160e01b600052603260045260246000fd5b634e487b7160e01b600052601160045260246000fd5b60006000198214156150d2576150d26150a8565b5060010190565b6001600160a01b039384168152919092166020820152604081019190915260600190565b6000816000190483118215151615615117576151176150a8565b500290565b60008282101561512e5761512e6150a8565b500390565b60008261515057634e487b7160e01b600052601260045260246000fd5b500490565b6001600160a01b03929092168252602082015260400190565b6001600160a01b039586168152602081019490945291841660408401529092166060820152608081019190915260a00190565b6020808252818101527f596f75206172652062616e6e6564206f6e207468697320706c6174666f726d2e604082015260600190565b60208082526036908201527f546865206f776e6572206f662074686973206e667420697320626c61636b6c6960408201527539ba32b21037b7103a3434b990383630ba3337b9369760511b606082015260800190565b6020808252603d908201527f546865206f776e6572206f662074686973206e6674206973207065726d616e6160408201527f6e746c792062616e6e6564206f6e207468697320706c6174666f726d2e000000606082015260800190565b6020808252601d908201527f4e6674206973206e6f74206c697374656420746f207075726368617365000000604082015260600190565b6000602082840312156152d257600080fd5b81516147a481614a3c565b8281526040602082015260006152f660408301846149e5565b949350505050565b6000602080838503121561531157600080fd5b825167ffffffffffffffff81111561532857600080fd5b8301601f8101851361533957600080fd5b8051615347614b2282614ab5565b81815260059190911b8201830190838101908783111561536657600080fd5b928401925b82841015614b6d5783518252928401929084019061536b565b84815260806020820152600061539d60808301866149e5565b6001600160a01b03949094166040830152506060015292915050565b634e487b7160e01b600052603160045260246000fd5b85815284602082015260a0604082015260006153ee60a08301866149e5565b6001600160a01b0394909416606083015250608001529392505050565b805169ffffffffffffffffffff81168114611cbe57600080fd5b600080600080600060a0868803121561543d57600080fd5b6154468661540b565b94506020860151935060408601519250606086015191506154696080870161540b565b90509295509295909350565b60208082526029908201527f54686973204e4654206973206e6f74206f6e2061756374696f6e206174207468604082015268329036b7b6b2b73a1760b91b606082015260800190565b6020808252603c908201527f596f75206861766520746f2062696420686967686572207468616e207468652060408201527f686967686573742062696420746f206d616b6520616e206f6666657200000000606082015260800190565b6000821982111561552e5761552e6150a8565b500190565b6000815180845260005b818110156155595760208185018101518683018201520161553d565b8181111561556b576000602083870101525b50601f01601f19169290920160200192915050565b6020815260006147a46020830184615533565b6040815260006155a66040830185615533565b9050826020830152939250505056fea264697066735822122022523f2dde2d78e5606782f4f1c878afaeed78c938ce501967466078ba733ad564736f6c63430008090033",
  "linkReferences": {},
  "deployedLinkReferences": {}
}