{
  "_format": "hh-sol-artifact-1",
  "contractName": "ArtiziaMarketplace",
  "sourceName": "contracts/ArtiziaMarketplace.sol",
  "abi": [
    {
      "inputs": [
        {
          "internalType": "address",
          "name": "_token",
          "type": "address"
        }
      ],
      "stateMutability": "nonpayable",
      "type": "constructor"
    },
    {
      "inputs": [],
      "name": "invalidListingType",
      "type": "error"
    },
    {
      "inputs": [],
      "name": "invalidPrice",
      "type": "error"
    },
    {
      "anonymous": false,
      "inputs": [
        {
          "indexed": false,
          "internalType": "address",
          "name": "nftContract",
          "type": "address"
        },
        {
          "indexed": false,
          "internalType": "uint256",
          "name": "tokenId",
          "type": "uint256"
        },
        {
          "indexed": false,
          "internalType": "address",
          "name": "seller",
          "type": "address"
        },
        {
          "indexed": false,
          "internalType": "address",
          "name": "owner",
          "type": "address"
        },
        {
          "indexed": false,
          "internalType": "uint256",
          "name": "price",
          "type": "uint256"
        },
        {
          "indexed": false,
          "internalType": "uint256",
          "name": "collectionId",
          "type": "uint256"
        },
        {
          "indexed": false,
          "internalType": "uint256",
          "name": "listingType",
          "type": "uint256"
        }
      ],
      "name": "NFTListed",
      "type": "event"
    },
    {
      "anonymous": false,
      "inputs": [
        {
          "indexed": false,
          "internalType": "address",
          "name": "nftContract",
          "type": "address"
        },
        {
          "indexed": false,
          "internalType": "uint256",
          "name": "tokenId",
          "type": "uint256"
        },
        {
          "indexed": false,
          "internalType": "address",
          "name": "seller",
          "type": "address"
        },
        {
          "indexed": false,
          "internalType": "address",
          "name": "buyer",
          "type": "address"
        },
        {
          "indexed": false,
          "internalType": "uint256",
          "name": "price",
          "type": "uint256"
        }
      ],
      "name": "NFTSold",
      "type": "event"
    },
    {
      "anonymous": false,
      "inputs": [
        {
          "indexed": true,
          "internalType": "address",
          "name": "previousOwner",
          "type": "address"
        },
        {
          "indexed": true,
          "internalType": "address",
          "name": "newOwner",
          "type": "address"
        }
      ],
      "name": "OwnershipTransferred",
      "type": "event"
    },
    {
      "anonymous": false,
      "inputs": [
        {
          "indexed": false,
          "internalType": "address[]",
          "name": "fans",
          "type": "address[]"
        }
      ],
      "name": "addedFans",
      "type": "event"
    },
    {
      "anonymous": false,
      "inputs": [
        {
          "indexed": false,
          "internalType": "uint256",
          "name": "tokenId",
          "type": "uint256"
        },
        {
          "indexed": false,
          "internalType": "address",
          "name": "seller",
          "type": "address"
        },
        {
          "indexed": false,
          "internalType": "uint256",
          "name": "newTime",
          "type": "uint256"
        }
      ],
      "name": "auctionEndTimeIncreased",
      "type": "event"
    },
    {
      "anonymous": false,
      "inputs": [
        {
          "indexed": false,
          "internalType": "uint256",
          "name": "tokenId",
          "type": "uint256"
        },
        {
          "indexed": false,
          "internalType": "address",
          "name": "seller",
          "type": "address"
        },
        {
          "indexed": false,
          "internalType": "address",
          "name": "highestBidder",
          "type": "address"
        },
        {
          "indexed": false,
          "internalType": "uint256",
          "name": "highestBid",
          "type": "uint256"
        }
      ],
      "name": "receivedABid",
      "type": "event"
    },
    {
      "stateMutability": "payable",
      "type": "fallback"
    },
    {
      "inputs": [],
      "name": "UNISWAP_ROUTER_ADDRESS",
      "outputs": [
        {
          "internalType": "address",
          "name": "",
          "type": "address"
        }
      ],
      "stateMutability": "view",
      "type": "function"
    },
    {
      "inputs": [],
      "name": "USDT_ADDRESS",
      "outputs": [
        {
          "internalType": "address",
          "name": "",
          "type": "address"
        }
      ],
      "stateMutability": "view",
      "type": "function"
    },
    {
      "inputs": [
        {
          "internalType": "uint256",
          "name": "",
          "type": "uint256"
        }
      ],
      "name": "_idToAuction",
      "outputs": [
        {
          "internalType": "uint256",
          "name": "tokenId",
          "type": "uint256"
        },
        {
          "internalType": "address payable",
          "name": "seller",
          "type": "address"
        },
        {
          "internalType": "uint256",
          "name": "basePrice",
          "type": "uint256"
        },
        {
          "internalType": "uint256",
          "name": "startTime",
          "type": "uint256"
        },
        {
          "internalType": "uint256",
          "name": "endTime",
          "type": "uint256"
        },
        {
          "internalType": "uint256",
          "name": "highestBid",
          "type": "uint256"
        },
        {
          "internalType": "address payable",
          "name": "highestBidder",
          "type": "address"
        },
        {
          "internalType": "enum ArtiziaMarketplace.PaymentMethod",
          "name": "highestBidCurrency",
          "type": "uint8"
        }
      ],
      "stateMutability": "view",
      "type": "function"
    },
    {
      "inputs": [
        {
          "internalType": "uint256",
          "name": "",
          "type": "uint256"
        }
      ],
      "name": "_idToNFT",
      "outputs": [
        {
          "internalType": "address",
          "name": "nftContract",
          "type": "address"
        },
        {
          "internalType": "uint256",
          "name": "tokenId",
          "type": "uint256"
        },
        {
          "internalType": "address payable",
          "name": "firstOwner",
          "type": "address"
        },
        {
          "internalType": "address payable",
          "name": "seller",
          "type": "address"
        },
        {
          "internalType": "address payable",
          "name": "owner",
          "type": "address"
        },
        {
          "internalType": "uint256",
          "name": "price",
          "type": "uint256"
        },
        {
          "internalType": "bool",
          "name": "listed",
          "type": "bool"
        },
        {
          "internalType": "uint256",
          "name": "royaltyPrice",
          "type": "uint256"
        },
        {
          "internalType": "enum ArtiziaMarketplace.ListingType",
          "name": "listingType",
          "type": "uint8"
        },
        {
          "internalType": "enum ArtiziaMarketplace.PaymentMethod",
          "name": "paymentMethod",
          "type": "uint8"
        },
        {
          "internalType": "bool",
          "name": "approve",
          "type": "bool"
        },
        {
          "internalType": "uint256",
          "name": "collectionId",
          "type": "uint256"
        }
      ],
      "stateMutability": "view",
      "type": "function"
    },
    {
      "inputs": [
        {
          "internalType": "uint256",
          "name": "",
          "type": "uint256"
        }
      ],
      "name": "_idToNFT2",
      "outputs": [
        {
          "internalType": "uint256",
          "name": "tokenId",
          "type": "uint256"
        },
        {
          "internalType": "bool",
          "name": "onlyFans",
          "type": "bool"
        },
        {
          "internalType": "uint256",
          "name": "fanDiscountPercent",
          "type": "uint256"
        }
      ],
      "stateMutability": "view",
      "type": "function"
    },
    {
      "inputs": [],
      "name": "_nftCount",
      "outputs": [
        {
          "internalType": "uint256",
          "name": "_value",
          "type": "uint256"
        }
      ],
      "stateMutability": "view",
      "type": "function"
    },
    {
      "inputs": [],
      "name": "_nftsSold",
      "outputs": [
        {
          "internalType": "uint256",
          "name": "_value",
          "type": "uint256"
        }
      ],
      "stateMutability": "view",
      "type": "function"
    },
    {
      "inputs": [
        {
          "internalType": "address[]",
          "name": "fans",
          "type": "address[]"
        }
      ],
      "name": "addFans",
      "outputs": [],
      "stateMutability": "nonpayable",
      "type": "function"
    },
    {
      "inputs": [
        {
          "internalType": "uint256[]",
          "name": "_tokenId",
          "type": "uint256[]"
        },
        {
          "internalType": "bool",
          "name": "_decision",
          "type": "bool"
        }
      ],
      "name": "approveNfts",
      "outputs": [
        {
          "internalType": "bool",
          "name": "",
          "type": "bool"
        }
      ],
      "stateMutability": "nonpayable",
      "type": "function"
    },
    {
      "inputs": [
        {
          "internalType": "address",
          "name": "_user",
          "type": "address"
        }
      ],
      "name": "banUser",
      "outputs": [],
      "stateMutability": "nonpayable",
      "type": "function"
    },
    {
      "inputs": [
        {
          "internalType": "address",
          "name": "",
          "type": "address"
        }
      ],
      "name": "bannedUsers",
      "outputs": [
        {
          "internalType": "bool",
          "name": "",
          "type": "bool"
        }
      ],
      "stateMutability": "view",
      "type": "function"
    },
    {
      "inputs": [
        {
          "internalType": "uint256",
          "name": "_tokenId",
          "type": "uint256"
        },
        {
          "internalType": "uint256",
          "name": "_bidCurrency",
          "type": "uint256"
        }
      ],
      "name": "bidInETH",
      "outputs": [],
      "stateMutability": "payable",
      "type": "function"
    },
    {
      "inputs": [
        {
          "internalType": "uint256",
          "name": "_tokenId",
          "type": "uint256"
        },
        {
          "internalType": "uint256",
          "name": "_amount",
          "type": "uint256"
        },
        {
          "internalType": "uint256",
          "name": "_bidCurrency",
          "type": "uint256"
        }
      ],
      "name": "bidInUSDT",
      "outputs": [],
      "stateMutability": "payable",
      "type": "function"
    },
    {
      "inputs": [
        {
          "internalType": "address",
          "name": "_nftContract",
          "type": "address"
        },
        {
          "internalType": "uint256",
          "name": "_paymentMethod",
          "type": "uint256"
        },
        {
          "internalType": "uint256",
          "name": "_tokenId",
          "type": "uint256"
        },
        {
          "internalType": "uint256",
          "name": "_sellerPercent",
          "type": "uint256"
        },
        {
          "internalType": "uint256",
          "name": "_buyerPercent",
          "type": "uint256"
        }
      ],
      "name": "buyWithETH",
      "outputs": [],
      "stateMutability": "payable",
      "type": "function"
    },
    {
      "inputs": [
        {
          "internalType": "address",
          "name": "_nftContract",
          "type": "address"
        },
        {
          "internalType": "uint256",
          "name": "_paymentMethod",
          "type": "uint256"
        },
        {
          "internalType": "uint256",
          "name": "_tokenId",
          "type": "uint256"
        },
        {
          "internalType": "uint256",
          "name": "_amount",
          "type": "uint256"
        },
        {
          "internalType": "uint256",
          "name": "_sellerPercent",
          "type": "uint256"
        },
        {
          "internalType": "uint256",
          "name": "_buyerPercent",
          "type": "uint256"
        }
      ],
      "name": "buyWithUSDT",
      "outputs": [],
      "stateMutability": "payable",
      "type": "function"
    },
    {
      "inputs": [
        {
          "internalType": "uint256",
          "name": "_tokenId",
          "type": "uint256"
        },
        {
          "internalType": "uint256",
          "name": "_newDiscountPercent",
          "type": "uint256"
        }
      ],
      "name": "changeFanDiscountPercent",
      "outputs": [],
      "stateMutability": "nonpayable",
      "type": "function"
    },
    {
      "inputs": [],
      "name": "checkBannedOrDeletedUser",
      "outputs": [
        {
          "internalType": "bool",
          "name": "",
          "type": "bool"
        }
      ],
      "stateMutability": "view",
      "type": "function"
    },
    {
      "inputs": [
        {
          "internalType": "uint256",
          "name": "_tokenId",
          "type": "uint256"
        }
      ],
      "name": "checkFan",
      "outputs": [
        {
          "internalType": "bool",
          "name": "",
          "type": "bool"
        }
      ],
      "stateMutability": "view",
      "type": "function"
    },
    {
      "inputs": [
        {
          "internalType": "address",
          "name": "_nftContract",
          "type": "address"
        },
        {
          "internalType": "uint256",
          "name": "_tokenId",
          "type": "uint256"
        },
        {
          "internalType": "uint256",
          "name": "_sellerPercent",
          "type": "uint256"
        },
        {
          "internalType": "uint256",
          "name": "_buyerPercent",
          "type": "uint256"
        }
      ],
      "name": "closeAuction",
      "outputs": [],
      "stateMutability": "payable",
      "type": "function"
    },
    {
      "inputs": [
        {
          "internalType": "uint256",
          "name": "",
          "type": "uint256"
        },
        {
          "internalType": "uint256",
          "name": "",
          "type": "uint256"
        }
      ],
      "name": "collection",
      "outputs": [
        {
          "internalType": "uint256",
          "name": "",
          "type": "uint256"
        }
      ],
      "stateMutability": "view",
      "type": "function"
    },
    {
      "inputs": [
        {
          "internalType": "address",
          "name": "_user",
          "type": "address"
        }
      ],
      "name": "deleteUser",
      "outputs": [],
      "stateMutability": "nonpayable",
      "type": "function"
    },
    {
      "inputs": [
        {
          "internalType": "address",
          "name": "",
          "type": "address"
        }
      ],
      "name": "deletedUsers",
      "outputs": [
        {
          "internalType": "bool",
          "name": "",
          "type": "bool"
        }
      ],
      "stateMutability": "view",
      "type": "function"
    },
    {
      "inputs": [
        {
          "internalType": "address",
          "name": "",
          "type": "address"
        },
        {
          "internalType": "uint256",
          "name": "",
          "type": "uint256"
        }
      ],
      "name": "fanLists",
      "outputs": [
        {
          "internalType": "address",
          "name": "",
          "type": "address"
        }
      ],
      "stateMutability": "view",
      "type": "function"
    },
    {
      "inputs": [
        {
          "internalType": "uint256",
          "name": "_collectionId",
          "type": "uint256"
        }
      ],
      "name": "getCollectionNfts",
      "outputs": [
        {
          "components": [
            {
              "internalType": "address",
              "name": "nftContract",
              "type": "address"
            },
            {
              "internalType": "uint256",
              "name": "tokenId",
              "type": "uint256"
            },
            {
              "internalType": "address payable",
              "name": "firstOwner",
              "type": "address"
            },
            {
              "internalType": "address payable",
              "name": "seller",
              "type": "address"
            },
            {
              "internalType": "address payable",
              "name": "owner",
              "type": "address"
            },
            {
              "internalType": "uint256",
              "name": "price",
              "type": "uint256"
            },
            {
              "internalType": "bool",
              "name": "listed",
              "type": "bool"
            },
            {
              "internalType": "uint256",
              "name": "royaltyPrice",
              "type": "uint256"
            },
            {
              "internalType": "enum ArtiziaMarketplace.ListingType",
              "name": "listingType",
              "type": "uint8"
            },
            {
              "internalType": "enum ArtiziaMarketplace.PaymentMethod",
              "name": "paymentMethod",
              "type": "uint8"
            },
            {
              "internalType": "bool",
              "name": "approve",
              "type": "bool"
            },
            {
              "internalType": "uint256",
              "name": "collectionId",
              "type": "uint256"
            }
          ],
          "internalType": "struct ArtiziaMarketplace.NFT[]",
          "name": "",
          "type": "tuple[]"
        }
      ],
      "stateMutability": "view",
      "type": "function"
    },
    {
      "inputs": [],
      "name": "getCurrentTimestamp",
      "outputs": [
        {
          "internalType": "uint256",
          "name": "",
          "type": "uint256"
        }
      ],
      "stateMutability": "view",
      "type": "function"
    },
    {
      "inputs": [
        {
          "internalType": "address",
          "name": "user",
          "type": "address"
        }
      ],
      "name": "getFans",
      "outputs": [
        {
          "internalType": "address[]",
          "name": "",
          "type": "address[]"
        }
      ],
      "stateMutability": "view",
      "type": "function"
    },
    {
      "inputs": [],
      "name": "getLatestUSDTPrice",
      "outputs": [
        {
          "internalType": "uint256",
          "name": "",
          "type": "uint256"
        }
      ],
      "stateMutability": "view",
      "type": "function"
    },
    {
      "inputs": [],
      "name": "getListedNfts",
      "outputs": [
        {
          "components": [
            {
              "internalType": "address",
              "name": "nftContract",
              "type": "address"
            },
            {
              "internalType": "uint256",
              "name": "tokenId",
              "type": "uint256"
            },
            {
              "internalType": "address payable",
              "name": "firstOwner",
              "type": "address"
            },
            {
              "internalType": "address payable",
              "name": "seller",
              "type": "address"
            },
            {
              "internalType": "address payable",
              "name": "owner",
              "type": "address"
            },
            {
              "internalType": "uint256",
              "name": "price",
              "type": "uint256"
            },
            {
              "internalType": "bool",
              "name": "listed",
              "type": "bool"
            },
            {
              "internalType": "uint256",
              "name": "royaltyPrice",
              "type": "uint256"
            },
            {
              "internalType": "enum ArtiziaMarketplace.ListingType",
              "name": "listingType",
              "type": "uint8"
            },
            {
              "internalType": "enum ArtiziaMarketplace.PaymentMethod",
              "name": "paymentMethod",
              "type": "uint8"
            },
            {
              "internalType": "bool",
              "name": "approve",
              "type": "bool"
            },
            {
              "internalType": "uint256",
              "name": "collectionId",
              "type": "uint256"
            }
          ],
          "internalType": "struct ArtiziaMarketplace.NFT[]",
          "name": "",
          "type": "tuple[]"
        }
      ],
      "stateMutability": "view",
      "type": "function"
    },
    {
      "inputs": [
        {
          "internalType": "address",
          "name": "_user",
          "type": "address"
        }
      ],
      "name": "getMyListedNfts",
      "outputs": [
        {
          "components": [
            {
              "internalType": "address",
              "name": "nftContract",
              "type": "address"
            },
            {
              "internalType": "uint256",
              "name": "tokenId",
              "type": "uint256"
            },
            {
              "internalType": "address payable",
              "name": "firstOwner",
              "type": "address"
            },
            {
              "internalType": "address payable",
              "name": "seller",
              "type": "address"
            },
            {
              "internalType": "address payable",
              "name": "owner",
              "type": "address"
            },
            {
              "internalType": "uint256",
              "name": "price",
              "type": "uint256"
            },
            {
              "internalType": "bool",
              "name": "listed",
              "type": "bool"
            },
            {
              "internalType": "uint256",
              "name": "royaltyPrice",
              "type": "uint256"
            },
            {
              "internalType": "enum ArtiziaMarketplace.ListingType",
              "name": "listingType",
              "type": "uint8"
            },
            {
              "internalType": "enum ArtiziaMarketplace.PaymentMethod",
              "name": "paymentMethod",
              "type": "uint8"
            },
            {
              "internalType": "bool",
              "name": "approve",
              "type": "bool"
            },
            {
              "internalType": "uint256",
              "name": "collectionId",
              "type": "uint256"
            }
          ],
          "internalType": "struct ArtiziaMarketplace.NFT[]",
          "name": "",
          "type": "tuple[]"
        }
      ],
      "stateMutability": "view",
      "type": "function"
    },
    {
      "inputs": [
        {
          "internalType": "address",
          "name": "_user",
          "type": "address"
        }
      ],
      "name": "getMyNfts",
      "outputs": [
        {
          "components": [
            {
              "internalType": "address",
              "name": "nftContract",
              "type": "address"
            },
            {
              "internalType": "uint256",
              "name": "tokenId",
              "type": "uint256"
            },
            {
              "internalType": "address payable",
              "name": "firstOwner",
              "type": "address"
            },
            {
              "internalType": "address payable",
              "name": "seller",
              "type": "address"
            },
            {
              "internalType": "address payable",
              "name": "owner",
              "type": "address"
            },
            {
              "internalType": "uint256",
              "name": "price",
              "type": "uint256"
            },
            {
              "internalType": "bool",
              "name": "listed",
              "type": "bool"
            },
            {
              "internalType": "uint256",
              "name": "royaltyPrice",
              "type": "uint256"
            },
            {
              "internalType": "enum ArtiziaMarketplace.ListingType",
              "name": "listingType",
              "type": "uint8"
            },
            {
              "internalType": "enum ArtiziaMarketplace.PaymentMethod",
              "name": "paymentMethod",
              "type": "uint8"
            },
            {
              "internalType": "bool",
              "name": "approve",
              "type": "bool"
            },
            {
              "internalType": "uint256",
              "name": "collectionId",
              "type": "uint256"
            }
          ],
          "internalType": "struct ArtiziaMarketplace.NFT[]",
          "name": "",
          "type": "tuple[]"
        }
      ],
      "stateMutability": "view",
      "type": "function"
    },
    {
      "inputs": [
        {
          "internalType": "uint256",
          "name": "_tokenId",
          "type": "uint256"
        }
      ],
      "name": "getNftApprovalStatus",
      "outputs": [
        {
          "internalType": "bool",
          "name": "",
          "type": "bool"
        }
      ],
      "stateMutability": "view",
      "type": "function"
    },
    {
      "inputs": [
        {
          "internalType": "uint256",
          "name": "_tokenId",
          "type": "uint256"
        }
      ],
      "name": "getStatusOfAuction",
      "outputs": [
        {
          "internalType": "bool",
          "name": "",
          "type": "bool"
        }
      ],
      "stateMutability": "view",
      "type": "function"
    },
    {
      "inputs": [
        {
          "internalType": "address",
          "name": "",
          "type": "address"
        },
        {
          "internalType": "address",
          "name": "",
          "type": "address"
        }
      ],
      "name": "isFan",
      "outputs": [
        {
          "internalType": "bool",
          "name": "",
          "type": "bool"
        }
      ],
      "stateMutability": "view",
      "type": "function"
    },
    {
      "inputs": [
        {
          "internalType": "address",
          "name": "_nftContract",
          "type": "address"
        },
        {
          "internalType": "uint256[]",
          "name": "_tokenId",
          "type": "uint256[]"
        },
        {
          "internalType": "uint256[]",
          "name": "_price",
          "type": "uint256[]"
        },
        {
          "internalType": "uint256",
          "name": "_royaltyPrice",
          "type": "uint256"
        },
        {
          "internalType": "uint256",
          "name": "_listingType",
          "type": "uint256"
        },
        {
          "internalType": "uint256[]",
          "name": "_startTime",
          "type": "uint256[]"
        },
        {
          "internalType": "uint256[]",
          "name": "_endTime",
          "type": "uint256[]"
        },
        {
          "internalType": "uint256",
          "name": "_collectionId",
          "type": "uint256"
        },
        {
          "internalType": "uint256",
          "name": "_paymentMethod",
          "type": "uint256"
        }
      ],
      "name": "listNft",
      "outputs": [],
      "stateMutability": "payable",
      "type": "function"
    },
    {
      "inputs": [],
      "name": "owner",
      "outputs": [
        {
          "internalType": "address",
          "name": "",
          "type": "address"
        }
      ],
      "stateMutability": "view",
      "type": "function"
    },
    {
      "inputs": [
        {
          "internalType": "address[]",
          "name": "addresses",
          "type": "address[]"
        }
      ],
      "name": "removeFans",
      "outputs": [],
      "stateMutability": "nonpayable",
      "type": "function"
    },
    {
      "inputs": [],
      "name": "renounceOwnership",
      "outputs": [],
      "stateMutability": "nonpayable",
      "type": "function"
    },
    {
      "inputs": [
        {
          "internalType": "address",
          "name": "_nftContract",
          "type": "address"
        },
        {
          "internalType": "uint256",
          "name": "_tokenId",
          "type": "uint256"
        },
        {
          "internalType": "uint256",
          "name": "_price",
          "type": "uint256"
        },
        {
          "internalType": "uint256",
          "name": "_listingType",
          "type": "uint256"
        },
        {
          "internalType": "uint256",
          "name": "_startTime",
          "type": "uint256"
        },
        {
          "internalType": "uint256",
          "name": "_endTime",
          "type": "uint256"
        },
        {
          "internalType": "address",
          "name": "_user",
          "type": "address"
        }
      ],
      "name": "resellNft",
      "outputs": [],
      "stateMutability": "nonpayable",
      "type": "function"
    },
    {
      "inputs": [
        {
          "internalType": "uint256",
          "name": "usdtAmountOut",
          "type": "uint256"
        }
      ],
      "name": "swapETHForUSDT",
      "outputs": [
        {
          "internalType": "uint256",
          "name": "",
          "type": "uint256"
        }
      ],
      "stateMutability": "payable",
      "type": "function"
    },
    {
      "inputs": [
        {
          "internalType": "uint256",
          "name": "usdtAmountIn",
          "type": "uint256"
        }
      ],
      "name": "swapUSDTForETH",
      "outputs": [
        {
          "internalType": "uint256",
          "name": "",
          "type": "uint256"
        }
      ],
      "stateMutability": "nonpayable",
      "type": "function"
    },
    {
      "inputs": [
        {
          "internalType": "uint256[]",
          "name": "tokenIds",
          "type": "uint256[]"
        }
      ],
      "name": "toggleOnlyFans",
      "outputs": [],
      "stateMutability": "nonpayable",
      "type": "function"
    },
    {
      "inputs": [
        {
          "internalType": "address",
          "name": "newOwner",
          "type": "address"
        }
      ],
      "name": "transferOwnership",
      "outputs": [],
      "stateMutability": "nonpayable",
      "type": "function"
    },
    {
      "inputs": [
        {
          "internalType": "address",
          "name": "_user",
          "type": "address"
        }
      ],
      "name": "unbanUser",
      "outputs": [],
      "stateMutability": "nonpayable",
      "type": "function"
    },
    {
      "stateMutability": "payable",
      "type": "receive"
    }
  ],
  "bytecode": "0x6080604052600d80546001600160a01b0319908116737a250d5630b4cf539739df2c5dacb4c659f2488d17909155600e805490911673dac17f958d2ee523a2206206994597c13d831ec71790553480156200005957600080fd5b506040516200614d3803806200614d8339810160408190526200007c9162000120565b60016000556200008c33620000ce565b60048054336001600160a01b031991821617909155600d54600f80546001600160a01b0392831690841617905560108054909216921691909117905562000152565b600180546001600160a01b038381166001600160a01b0319831681179093556040519116919082907f8be0079c531659141344cd1fd0a4f28419497f9722a3daafe3b4186f6b6457e090600090a35050565b6000602082840312156200013357600080fd5b81516001600160a01b03811681146200014b57600080fd5b9392505050565b615feb80620001626000396000f3fe6080604052600436106102485760003560e01c80638da5cb5b11610138578063c1892058116100b0578063ed5a1c0f11610077578063ed5a1c0f14610852578063f1ff9d0d1461088d578063f2fde38b146108ad578063f3ed87e4146108cd578063f41dfb18146108e0578063f6c1b77a146108f357005b8063c1892058146107a2578063c36ac2d2146107c2578063d6cbb202146107e2578063d6fc3dbd146107f9578063ecb4ad0c1461081957005b8063a8ab8c03116100ff578063a8ab8c03146105ec578063af6b06f414610619578063b4fa041214610639578063b8b3455d146106be578063b9e07df1146106d1578063bbffa07b1461078257005b80638da5cb5b146104ee57806398dd36bf1461050c5780639a6e94be146105215780639c7440581461057b5780639ea36e881461059b57005b80635c60f226116101cb57806377ec6a471161019257806377ec6a471461040e57806379b369431461043e5780638090551e146104765780638988d078146104895780638cd410f4146104b95780638d6cb3fb146104d957005b80635c60f226146103865780635ca11fa3146103a65780636c9230db146103c65780636f9e8876146103d9578063715018a6146103f957005b806348a51f531161020f57806348a51f53146102e15780634afbcdae146102f45780634d12b695146103145780635274cff6146103345780635674c2e61461036157005b806310d86b1f146102515780632a448f6c146102715780633000df5d1461028457806331824a491461029757806331a7a70f146102c157005b3661024f57005b005b34801561025d57600080fd5b5061024f61026c36600461505f565b610913565b61024f61027f36600461507c565b61093f565b61024f610292366004615194565b610f0a565b3480156102a357600080fd5b506002546102ae9081565b6040519081526020015b60405180910390f35b3480156102cd57600080fd5b5061024f6102dc366004615278565b6117fb565b61024f6102ef366004615311565b611a36565b34801561030057600080fd5b506102ae61030f36600461535d565b6120b0565b34801561032057600080fd5b5061024f61032f36600461505f565b6120e1565b34801561034057600080fd5b5061035461034f36600461505f565b61210a565b6040516102b891906153b9565b34801561036d57600080fd5b506103766123e6565b60405190151581526020016102b8565b34801561039257600080fd5b5061024f6103a136600461505f565b612424565b3480156103b257600080fd5b5061024f6103c136600461535d565b612450565b3480156103d257600080fd5b50426102ae565b3480156103e557600080fd5b5061024f6103f436600461549c565b6124ea565b34801561040557600080fd5b5061024f6128e4565b34801561041a57600080fd5b5061037661042936600461505f565b600b6020526000908152604090205460ff1681565b34801561044a57600080fd5b50600d5461045e906001600160a01b031681565b6040516001600160a01b0390911681526020016102b8565b6102ae610484366004615505565b6128f8565b34801561049557600080fd5b506103766104a436600461505f565b600a6020526000908152604090205460ff1681565b3480156104c557600080fd5b506102ae6104d4366004615505565b612b41565b3480156104e557600080fd5b50610354612e7d565b3480156104fa57600080fd5b506001546001600160a01b031661045e565b34801561051857600080fd5b506102ae61312e565b34801561052d57600080fd5b5061056061053c366004615505565b600660205260009081526040902080546001820154600290920154909160ff169083565b604080519384529115156020840152908201526060016102b8565b34801561058757600080fd5b50610376610596366004615505565b6131fd565b3480156105a757600080fd5b506103766105b6366004615505565b6000908152600560209081526040808320600301546001600160a01b031683526007825280832033845290915290205460ff1690565b3480156105f857600080fd5b5061060c61060736600461505f565b6132c6565b6040516102b89190615562565b34801561062557600080fd5b5061024f610634366004615278565b61336d565b34801561064557600080fd5b506106aa610654366004615505565b600960205260009081526040902080546001820154600283015460038401546004850154600586015460069096015494956001600160a01b0394851695939492939192909190811690600160a01b900460ff1688565b6040516102b8989796959493929190615575565b61024f6106cc3660046155ca565b6134fe565b3480156106dd57600080fd5b5061076a6106ec366004615505565b600560208190526000918252604090912080546001820154600283015460038401546004850154958501546006860154600787015460088801546009909801546001600160a01b03978816999698958816979485169690941694929360ff92831693919282811692610100810482169262010000909104909116908c565b6040516102b89c9b9a999897969594939291906155f6565b34801561078e57600080fd5b5061045e61079d366004615674565b613a66565b3480156107ae57600080fd5b50600e5461045e906001600160a01b031681565b3480156107ce57600080fd5b506103546107dd366004615505565b613a9e565b3480156107ee57600080fd5b506003546102ae9081565b34801561080557600080fd5b506103766108143660046156a0565b613d32565b34801561082557600080fd5b50610376610834366004615505565b60009081526005602052604090206008015462010000900460ff1690565b34801561085e57600080fd5b5061037661086d3660046156f6565b600760209081526000928352604080842090915290825290205460ff1681565b34801561089957600080fd5b5061024f6108a8366004615724565b613dab565b3480156108b957600080fd5b5061024f6108c836600461505f565b613ea9565b61024f6108db366004615760565b613f22565b61024f6108ee36600461535d565b614653565b3480156108ff57600080fd5b5061035461090e36600461505f565b614acb565b61091b614d2e565b6001600160a01b03166000908152600a60205260409020805460ff19166001179055565b336000908152600a602052604090205460ff16156109785760405162461bcd60e51b815260040161096f9061579b565b60405180910390fd5b336000908152600b602052604090205460ff16156109a85760405162461bcd60e51b815260040161096f906157d0565b6109b0614d88565b60008381526005602052604090206003810154336001600160a01b03909116036109ec5760405162461bcd60e51b815260040161096f90615840565b60048101546001600160a01b03166000908152600a602052604090205460ff1615610a295760405162461bcd60e51b815260040161096f90615885565b60048101546001600160a01b03166000908152600b602052604090205460ff1615610a665760405162461bcd60e51b815260040161096f906158db565b6000600882015460ff166001811115610a8157610a8161537f565b14610a9e5760405162461bcd60e51b815260040161096f90615938565b600681015460ff161515600114610ac75760405162461bcd60e51b815260040161096f9061596f565b6000848152600560209081526040808320600301546001600160a01b0316835260078252808320338085529252822054829060ff1615610b4f57600087815260066020526040902060020154610b1e903490614de1565b610b2890346159bc565b905080341015610b4a5760405162461bcd60e51b815260040161096f906159cf565b610b76565b8360050154341015610b735760405162461bcd60e51b815260040161096f906159cf565b50345b600284015460038501546001600160a01b03918216911603610c9d57610b9d818787614e00565b610ba790826159bc565b905087600003610bf75760038401546040516001600160a01b039091169082156108fc029083906000818181858888f19350505050158015610bed573d6000803e3d6000fd5b5060019250610e04565b610c00816128f8565b506000610c0b61312e565b610c159083615a15565b90506000610c2682620f4240615a15565b601054600388015460405163a9059cbb60e01b81529293506001600160a01b039182169263a9059cbb92610c609216908590600401615a2c565b600060405180830381600087803b158015610c7a57600080fd5b505af1158015610c8e573d6000803e3d6000fd5b50505050600194505050610e04565b60008190506000610cb2828760070154614de1565b9050610cbf838989614e00565b610cc982846159bc565b610cd391906159bc565b60028701546040519194506001600160a01b03169082156108fc029083906000818181858888f19350505050158015610d10573d6000803e3d6000fd5b5089600003610d5f5760038601546040516001600160a01b039091169084156108fc029085906000818181858888f19350505050158015610d55573d6000803e3d6000fd5b5060019450610e01565b610d68836128f8565b506000610d7361312e565b610d7d9085615a45565b90506000610d8e82620f4240615a15565b60105460038a015460405163a9059cbb60e01b81529293506001600160a01b039182169263a9059cbb92610dc89216908590600401615a2c565b600060405180830381600087803b158015610de257600080fd5b505af1158015610df6573d6000803e3d6000fd5b505050506001965050505b50505b8215610ef55760018401546040516323b872dd60e01b81526001600160a01b038b16916323b872dd91610e3e913091879190600401615a67565b600060405180830381600087803b158015610e5857600080fd5b505af1158015610e6c573d6000803e3d6000fd5b5050505060018401546003850154604051600080516020615f9683398151915292610ea8928d926001600160a01b039091169087903490615a8b565b60405180910390a16004840180546001600160a01b0384166001600160a01b031991821617909155600385018054909116905560068401805460ff19169055610ef5600280546001019055565b50505050610f036001600055565b5050505050565b610f12614d88565b336000908152600a602052604090205460ff1615610f425760405162461bcd60e51b815260040161096f9061579b565b336000908152600b602052604090205460ff1615610f725760405162461bcd60e51b815260040161096f906157d0565b60005b88518110156117e557610fc26040518060400160405280600981526020016874686973206973203160b81b8152508a8381518110610fb557610fb5615abe565b6020026020010151614e46565b610ff06040518060400160405280600c81526020016b5f6c697374696e675479706560a01b81525087614e46565b60408051808201909152601c81527f75696e74323536284c697374696e67547970652e41756374696f6e2900000000602082015261102f906001614e46565b600088828151811061104357611043615abe565b6020026020010151101561106a57604051635a93095360e11b815260040160405180910390fd5b600186111561108c576040516317142a4d60e01b815260040160405180910390fd5b6110c56040518060400160405280600b81526020016a5f746f6b656e49645b695d60a81b8152508a8381518110610fb557610fb5615abe565b896001600160a01b03166323b872dd33308c85815181106110e8576110e8615abe565b60200260200101516040518463ffffffff1660e01b815260040161110e93929190615a67565b600060405180830381600087803b15801561112857600080fd5b505af115801561113c573d6000803e3d6000fd5b5050505061116a604051806040016040528060098152602001683a3434b99034b9901960b91b815250614e8b565b611178600380546001019055565b6111a2604051806040016040528060098152602001681d1a1a5cc81a5cc80d60ba1b815250614e8b565b6000838152600c6020526040902089518a90839081106111c4576111c4615abe565b602002602001015190806001815401808255809150506001900390600052602060002001600090919091909150556040518061018001604052808b6001600160a01b031681526020018a838151811061121f5761121f615abe565b60200260200101518152602001336001600160a01b03168152602001336001600160a01b03168152602001306001600160a01b0316815260200189838151811061126b5761126b615abe565b602002602001015181526020016001151581526020018881526020018760018111156112995761129961537f565b60018111156112aa576112aa61537f565b81526020018360028111156112c1576112c161537f565b60028111156112d2576112d261537f565b815260200160001515815260200184815250600560008b84815181106112fa576112fa615abe565b6020908102919091018101518252818101929092526040908101600020835181546001600160a01b03199081166001600160a01b039283161783559385015160018084019190915592850151600283018054861691831691909117905560608501516003830180548616918316919091179055608085015160048301805490951691161790925560a0830151600583015560c083015160068301805460ff1990811692151592909217905560e0840151600784015561010084015160088401805491939092919091169083818111156113d5576113d561537f565b021790555061012082015160088201805461ff0019166101008360028111156114005761140061537f565b0217905550610140820151600882018054911515620100000262ff00001990921691909117905561016090910151600991820155604080518082019091529081526874686973206973203560b81b602082015261145c90614e8b565b60405180606001604052808a838151811061147957611479615abe565b602002602001015181526020016000151581526020016000815250600660008b84815181106114aa576114aa615abe565b602090810291909101810151825281810192909252604090810160002083518155918301516001808401805460ff19169215159290921790915592015160029091015586036117345761151d604051806040016040528060098152602001683a3434b99034b9901b60b91b815250614e8b565b6115586040518060400160405280600d81526020016c5f737461727454696d655b695d60981b815250868381518110610fb557610fb5615abe565b6115916040518060400160405280600b81526020016a5f656e6454696d655b695d60a81b815250858381518110610fb557610fb5615abe565b6040518061010001604052808a83815181106115af576115af615abe565b60200260200101518152602001336001600160a01b031681526020018983815181106115dd576115dd615abe565b602002602001015181526020018683815181106115fc576115fc615abe565b6020026020010151815260200185838151811061161b5761161b615abe565b602002602001015181526020016000815260200160006001600160a01b031681526020018360028111156116515761165161537f565b60028111156116625761166261537f565b815250600960008b848151811061167b5761167b615abe565b602090810291909101810151825281810192909252604090810160002083518155918301516001830180546001600160a01b03199081166001600160a01b039384161790915591840151600280850191909155606085015160038501556080850151600485015560a0850151600585015560c085015160068501805494851691909316908117835560e0860151936001600160a81b0319161790600160a01b90849081111561172c5761172c61537f565b021790555050505b61175e6040518060400160405280600981526020016874686973206973203760b81b815250614e8b565b7f380acab0ee1d651da065961944240ee750b6935ba0edefa78afb1c8e076762868a8a838151811061179257611792615abe565b602002602001015133308c86815181106117ae576117ae615abe565b6020026020010151888c6040516117cb9796959493929190615ad4565b60405180910390a1806117dd81615b18565b915050610f75565b506117f06001600055565b505050505050505050565b600081516001600160401b03811115611816576118166150c0565b60405190808252806020026020018201604052801561183f578160200160208202803683370190505b50905060005b82518110156119fa57600083828151811061186257611862615abe565b6020026020010151905060006001600160a01b0316816001600160a01b0316036118bf576118ba60405180604001604052806013815260200172496e76616c69642066616e206164647265737360681b815250614e8b565b6119e7565b3360009081526007602090815260408083206001600160a01b038516845290915290205460ff1615611924576118ba6040518060400160405280601881526020017720b2323932b9b99034b99030b63932b0b23c9030903330b760411b815250614e8b565b3360008181526008602090815260408083208054600180820183559185528385200180546001600160a01b0319166001600160a01b0388169081179091559484526007835281842094845293825291829020805460ff19169093179092558051808201909152601181527011985b881859191959081d1bc81b1a5cdd607a1b918101919091526119b390614e8b565b808383815181106119c6576119c6615abe565b60200260200101906001600160a01b031690816001600160a01b0316815250505b50806119f281615b18565b915050611845565b507fa99d709f8a9c899ba566c9b2515b1715239783ff40126e24d86e081505a7f50e81604051611a2a9190615562565b60405180910390a15050565b336000908152600a602052604090205460ff1615611a665760405162461bcd60e51b815260040161096f9061579b565b336000908152600b602052604090205460ff1615611a965760405162461bcd60e51b815260040161096f906157d0565b611a9e614d88565b60008481526005602052604090206003810154336001600160a01b0390911603611ada5760405162461bcd60e51b815260040161096f90615840565b6000611ae461312e565b90506000611af78664e8d4a51000615a15565b9050611b038282615a15565b9050611b17670de0b6b3a764000082615a45565b60048401546001600160a01b03166000908152600a602052604090205490915060ff1615611b575760405162461bcd60e51b815260040161096f90615885565b60048301546001600160a01b03166000908152600b602052604090205460ff1615611b945760405162461bcd60e51b815260040161096f906158db565b6000600884015460ff166001811115611baf57611baf61537f565b14611bcc5760405162461bcd60e51b815260040161096f90615938565b600683015460ff161515600114611bf55760405162461bcd60e51b815260040161096f9061596f565b6000878152600560209081526040808320600301546001600160a01b031683526007825280832033845290915281205460ff1615611c7b57600088815260066020526040902060020154611c4a908390614de1565b611c5490836159bc565b905080821015611c765760405162461bcd60e51b815260040161096f90615b31565b611ca2565b8360050154821015611c9f5760405162461bcd60e51b815260040161096f90615b31565b50805b6010546040516323b872dd60e01b8152600091339183916001600160a01b0316906323b872dd90611cdb90859030908f90600401615a67565b600060405180830381600087803b158015611cf557600080fd5b505af1158015611d09573d6000803e3d6000fd5b50505050600287015460038801546001600160a01b03918216911603611e0e57611d348a8a8a614e00565b611d3e908b6159bc565b93508b600103611dbb57601054600388015460405163a9059cbb60e01b81526001600160a01b039283169263a9059cbb92611d80929116908890600401615a2c565b600060405180830381600087803b158015611d9a57600080fd5b505af1158015611dae573d6000803e3d6000fd5b5050505060019250611f9e565b6000611dc685612b41565b60038901546040519192506001600160a01b03169082156108fc029083906000818181858888f19350505050158015611e03573d6000803e3d6000fd5b506001935050611f9e565b6000611e1e8b8960070154614de1565b9050611e2a818c6159bc565b9150611e37828b8b614e00565b611e41908c6159bc565b60105460028a015460405163a9059cbb60e01b81529297506001600160a01b039182169263a9059cbb92611e7b9216908590600401615a2c565b600060405180830381600087803b158015611e9557600080fd5b505af1158015611ea9573d6000803e3d6000fd5b505050508c600103611f3a576000611ec486620f4240615a15565b60105460038b015460405163a9059cbb60e01b81529293506001600160a01b039182169263a9059cbb92611efe9216908590600401615a2c565b600060405180830381600087803b158015611f1857600080fd5b505af1158015611f2c573d6000803e3d6000fd5b505050506001945050611f9c565b611f4385612b41565b506000611f4e61312e565b611f589087615a15565b60038a01546040519192506001600160a01b03169082156108fc029083906000818181858888f19350505050158015611f95573d6000803e3d6000fd5b5060019450505b505b82156120975760018701546040516323b872dd60e01b81526001600160a01b038f16916323b872dd91611fd8913091879190600401615a67565b600060405180830381600087803b158015611ff257600080fd5b505af1158015612006573d6000803e3d6000fd5b50505050600080516020615f968339815191528d88600101548960030160009054906101000a90046001600160a01b0316858960405161204a959493929190615a8b565b60405180910390a16004870180546001600160a01b0384166001600160a01b031991821617909155600388018054909116905560068701805460ff19169055612097600280546001019055565b505050505050506120a86001600055565b505050505050565b600c60205281600052604060002081815481106120cc57600080fd5b90600052602060002001600091509150505481565b6120e9614d2e565b6001600160a01b03166000908152600a60205260409020805460ff19169055565b336000908152600b602052604090205460609060ff161561213d5760405162461bcd60e51b815260040161096f906157d0565b336000908152600a602052604090205460ff161561216d5760405162461bcd60e51b815260040161096f9061579b565b600061217860035490565b90506000805b828110156121e8576000818152600560205260409020600301546001600160a01b0386811691161480156121c3575060008181526005602052604090206006015460ff165b156121d657816121d281615b18565b9250505b806121e081615b18565b91505061217e565b506000816001600160401b03811115612203576122036150c0565b60405190808252806020026020018201604052801561223c57816020015b612229614fdd565b8152602001906001900390816122215790505b5090506000805b848110156123d9576000818152600560205260409020600301546001600160a01b038881169116148015612288575060008181526005602052604090206006015460ff165b156123c75760008181526005602081815260409283902083516101808101855281546001600160a01b039081168252600180840154948301949094526002830154811695820195909552600382015485166060820152600482015490941660808501529182015460a0840152600682015460ff908116151560c0850152600783015460e0850152600883015461010085019291169081111561232c5761232c61537f565b600181111561233d5761233d61537f565b81526020016008820160019054906101000a900460ff1660028111156123655761236561537f565b60028111156123765761237661537f565b8152600882015462010000900460ff161515602082015260099091015460409091015283518490849081106123ad576123ad615abe565b602002602001018190525081806123c390615b18565b9250505b806123d181615b18565b915050612243565b509093505050505b919050565b336000908152600a602052604081205460ff16806124135750336000908152600b602052604090205460ff165b1561241e5750600190565b50600090565b61242c614d2e565b6001600160a01b03166000908152600b60205260409020805460ff19166001179055565b6000828152600560205260409020600301546001600160a01b031633146124d55760405162461bcd60e51b815260206004820152603360248201527f4f6e6c7920746865206f776e6572206f6620616e206e66742063616e20736574604482015272103234b9b1b7bab73a32b210383934b1b2b99760691b606482015260840161096f565b60009182526006602052604090912060020155565b336000908152600a602052604090205460ff161561251a5760405162461bcd60e51b815260040161096f9061579b565b336000908152600b602052604090205460ff161561254a5760405162461bcd60e51b815260040161096f906157d0565b612552614d88565b6000868152600560205260409020856125ad5760405162461bcd60e51b815260206004820152601c60248201527f5072696365206d757374206265206174206c6561737420312077656900000000604482015260640161096f565b60408051808201909152600981526837333a1737bbb732b960b91b602082015260048201546125e591906001600160a01b0316614ece565b61260c604051806040016040528060058152602001642fbab9b2b960d91b81525083614ece565b60048101546001600160a01b0383811691161461267e5760405162461bcd60e51b815260206004820152602a60248201527f4f6e6c7920746865206f776e6572206f6620616e206e66742063616e206c69736044820152693a103a34329037333a1760b11b606482015260840161096f565b6040516323b872dd60e01b81526001600160a01b038916906323b872dd906126ae90859030908c90600401615a67565b600060405180830381600087803b1580156126c857600080fd5b505af11580156126dc573d6000803e3d6000fd5b5050506003820180546001600160a01b0385166001600160a01b03199182161790915560048301805490911630179055506005810186905560068101805460ff1916600190811790915585908111156127375761273761537f565b60088201805460ff1916600183818111156127545761275461537f565b02179055506001850361287f57604051806101000160405280888152602001836001600160a01b031681526020018781526020018581526020018481526020016000815260200160006001600160a01b031681526020018260080160019054906101000a900460ff1660028111156127ce576127ce61537f565b905260008881526009602090815260409182902083518155908301516001820180546001600160a01b03199081166001600160a01b039384161790915592840151600280840191909155606085015160038401556080850151600484015560a0850151600584015560c085015160068401805495861691909316908117835560e086015193946001600160a81b0319161790600160a01b9084908111156128775761287761537f565b021790555050505b6128896002614f13565b7f380acab0ee1d651da065961944240ee750b6935ba0edefa78afb1c8e07676286888884308a86600901548b6040516128c89796959493929190615ad4565b60405180910390a1506128db6001600055565b50505050505050565b6128ec614d2e565b6128f66000614f6a565b565b604080516002808252606082018352600092839291906020830190803683375050600f54604080516315ab88c960e31b815290519394506001600160a01b039091169263ad5c4648925060048083019260209291908290030181865afa158015612966573d6000803e3d6000fd5b505050506040513d601f19601f8201168201806040525081019061298a9190615b78565b8160008151811061299d5761299d615abe565b6001600160a01b039283166020918202929092010152600e548251911690829060019081106129ce576129ce615abe565b6001600160a01b039290921660209283029190910182015260408051600280825260608201835260009391929091830190803683375050600f5460405163d06ca61f60e01b81529293506001600160a01b03169163d06ca61f9150612a399087908690600401615b95565b600060405180830381865afa158015612a56573d6000803e3d6000fd5b505050506040513d6000823e601f3d908101601f19168201604052612a7e9190810190615bae565b600f5481519192506001600160a01b031690637ff36ab590349084906001908110612aab57612aab615abe565b60200260200101518530426040518663ffffffff1660e01b8152600401612ad59493929190615c33565b60006040518083038185885af1158015612af3573d6000803e3d6000fd5b50505050506040513d6000823e601f3d908101601f19168201604052612b1c9190810190615bae565b5080600181518110612b3057612b30615abe565b602002602001015192505050919050565b6000612b6b60405180604001604052806006815260200165746573743d3160d01b81525083614e46565b6040805160028082526060820183526000926020830190803683375050600e5482519293506001600160a01b031691839150600090612bac57612bac615abe565b6001600160a01b03928316602091820292909201810191909152600f54604080516315ab88c960e31b81529051919093169263ad5c46489260048083019391928290030181865afa158015612c05573d6000803e3d6000fd5b505050506040513d601f19601f82011682018060405250810190612c299190615b78565b81600181518110612c3c57612c3c615abe565b6001600160a01b039283166020918202929092010152601054600d5460405163095ea7b360e01b81529183169263095ea7b392612c8192909116908790600401615a2c565b600060405180830381600087803b158015612c9b57600080fd5b505af1158015612caf573d6000803e3d6000fd5b50505050612cd960405180604001604052806005815260200164746573743360d81b815250614e8b565b6040805160028082526060820183526000926020830190803683375050600f5460405163d06ca61f60e01b81529293506001600160a01b03169163d06ca61f9150612d2a9087908690600401615b95565b600060405180830381865afa158015612d47573d6000803e3d6000fd5b505050506040513d6000823e601f3d908101601f19168201604052612d6f9190810190615bae565b9050612da660405180604001604052806006815260200165185b5bdd5b9d60d21b81525082600181518110610fb557610fb5615abe565b600f5481516001600160a01b0390911690634a25d94a9083906001908110612dd057612dd0615abe565b6020026020010151868530426040518663ffffffff1660e01b8152600401612dfc959493929190615c68565b6000604051808303816000875af1158015612e1b573d6000803e3d6000fd5b505050506040513d6000823e601f3d908101601f19168201604052612e439190810190615bae565b50612e6a604051806040016040528060058152602001641d195cdd0d60da1b815250614e8b565b80600181518110612b3057612b30615abe565b336000908152600b602052604090205460609060ff1615612eb05760405162461bcd60e51b815260040161096f906157d0565b6000612ebb60035490565b90506000612ec860025490565b612ed290836159bc565b9050612efe604051806040016040528060088152602001671b999d10dbdd5b9d60c21b81525083614e46565b612f2f6040518060400160405280600f81526020016e1d5b9cdbdb1913999d1cd0dbdd5b9d608a1b81525082614e46565b6000816001600160401b03811115612f4957612f496150c0565b604051908082528060200260200182016040528015612f8257816020015b612f6f614fdd565b815260200190600190039081612f675790505b5090506000612fb36040518060400160405280600b81526020016a5f6964546f4e46545b695d60a81b815250614e8b565b60005b848110156131245760008181526005602052604090206006015460ff16156131125760008181526005602081815260409283902083516101808101855281546001600160a01b039081168252600180840154948301949094526002830154811695820195909552600382015485166060820152600482015490941660808501529182015460a0840152600682015460ff908116151560c0850152600783015460e085015260088301546101008501929116908111156130775761307761537f565b60018111156130885761308861537f565b81526020016008820160019054906101000a900460ff1660028111156130b0576130b061537f565b60028111156130c1576130c161537f565b8152600882015462010000900460ff161515602082015260099091015460409091015283518490849081106130f8576130f8615abe565b6020026020010181905250818061310e90615b18565b9250505b8061311c81615b18565b915050612fb6565b5090935050505090565b60008073ee9f2375b4bdf6387aa8265dd4fb8f16512a1d4690506000816001600160a01b031663feaf968c6040518163ffffffff1660e01b815260040160a060405180830381865afa158015613188573d6000803e3d6000fd5b505050506040513d601f19601f820116820180604052508101906131ac9190615cbe565b505050915050600081136131f75760405162461bcd60e51b8152602060048201526012602482015271496e76616c6964205553445420707269636560701b604482015260640161096f565b92915050565b6000818152600960205260408120600301544211801561322d575060008281526009602052604090206004015442105b156132be576132756040518060400160405280600b81526020016a029ba30b93a2a34b6b29d160ad1b8152506009600085815260200190815260200160002060030154614e46565b6132b660405180604001604052806009815260200168032b7322a34b6b29d160bd1b8152506009600085815260200190815260200160002060040154614e46565b506001919050565b506000919050565b336000908152600b602052604090205460609060ff16156132f95760405162461bcd60e51b815260040161096f906157d0565b6001600160a01b0382166000908152600860209081526040918290208054835181840281018401909452808452909183018282801561336157602002820191906000526020600020905b81546001600160a01b03168152600190910190602001808311613343575b50505050509050919050565b60005b81518110156134fa57600082828151811061338d5761338d615abe565b6020908102919091018101516001600160a01b0381166000908152600890925260408220909250905b81548110156134bc57336001600160a01b03168282815481106133db576133db615abe565b6000918252602090912001546001600160a01b0316036134aa5781548290613405906001906159bc565b8154811061341557613415615abe565b9060005260206000200160009054906101000a90046001600160a01b031682828154811061344557613445615abe565b9060005260206000200160006101000a8154816001600160a01b0302191690836001600160a01b031602179055508180548061348357613483615d0e565b600082815260209020810160001990810180546001600160a01b03191690550190556134bc565b806134b481615b18565b9150506133b6565b50506001600160a01b031660009081526007602090815260408083203384529091529020805460ff19169055806134f281615b18565b915050613370565b5050565b600083815260096020526040902060030154839042118015613530575060008181526009602052604090206004015442105b61354c5760405162461bcd60e51b815260040161096f90615d24565b336000908152600b602052604090205460ff161561357c5760405162461bcd60e51b815260040161096f906157d0565b336000908152600a602052604090205460ff16156135ac5760405162461bcd60e51b815260040161096f9061579b565b60006135b661312e565b6000868152600660205260408120600101549192509060ff1615613623576000868152600560209081526040808320600301546001600160a01b031683526007825280832033845290915290205460ff166136235760405162461bcd60e51b815260040161096f90615d6d565b60006136348664e8d4a51000615a15565b90506136408382615a15565b9050613654670de0b6b3a764000082615a45565b9050613689604051806040016040528060118152602001705f616d6f756e74496e455448496e57656960781b81525082614e46565b6000878152600960205260409020600601546001600160a01b03166136d9576000878152600960205260409020600201548110156136d95760405162461bcd60e51b815260040161096f90615da4565b60008781526009602052604090206005015481101561370a5760405162461bcd60e51b815260040161096f90615ddb565b600160008881526005602052604090206008015460ff1660018111156137325761373261537f565b1461374f5760405162461bcd60e51b815260040161096f90615e38565b60008781526005602052604090206006015460ff1615156001146137855760405162461bcd60e51b815260040161096f9061596f565b6010546040516323b872dd60e01b81526001600160a01b03909116906323b872dd906137b990339030908b90600401615a67565b600060405180830381600087803b1580156137d357600080fd5b505af11580156137e7573d6000803e3d6000fd5b5050506000888152600960205260409020600681015460058201549192506001600160a01b03169081156139295760016006840154600160a01b900460ff1660028111156138375761383761537f565b036138ca57600061384661312e565b6138509083615a45565b905061385f81620f4240615a15565b60105460405163a9059cbb60e01b81529192506001600160a01b03169063a9059cbb906138929086908590600401615a2c565b600060405180830381600087803b1580156138ac57600080fd5b505af11580156138c0573d6000803e3d6000fd5b5050505050613929565b60006006840154600160a01b900460ff1660028111156138ec576138ec61537f565b03613929576040516001600160a01b0383169082156108fc029083906000818181858888f19350505050158015613927573d6000803e3d6000fd5b505b600583018490556006830180546001600160a01b031916331790558760028111156139565761395661537f565b60068401805460ff60a01b1916600160a01b83600281111561397a5761397a61537f565b021790555061398b42610258615e6b565b83600401541015613a005761012c8360040160008282546139ac9190615e6b565b9091555050600183015460048401546040517f8e1cb85d0855921b3c958b068fa707efb7db88099af764dd47f37eef82c3334d926139f7928e926001600160a01b0390921691615e7e565b60405180910390a15b600183810154600685015460058601546040519398507f4307392e6f0e441e74a4982d9fa9ddc49b3cd9d3902a9d3ecab0ad3c60a0acd193613a52938f936001600160a01b0391821693911691615e9d565b60405180910390a150505050505050505050565b60086020528160005260406000208181548110613a8257600080fd5b6000918252602090912001546001600160a01b03169150829050565b60606000613aab60035490565b90506000613ab860025490565b613ac290836159bc565b9050613aee604051806040016040528060088152602001671b999d10dbdd5b9d60c21b81525083614e46565b613b1f6040518060400160405280600f81526020016e1d5b9cdbdb1913999d1cd0dbdd5b9d608a1b81525082614e46565b6000816001600160401b03811115613b3957613b396150c0565b604051908082528060200260200182016040528015613b7257816020015b613b5f614fdd565b815260200190600190039081613b575790505b5090506000613ba56040518060400160405280600d81526020016c17d8dbdb1b1958dd1a5bdb9259609a1b815250614e8b565b60005b848110156123d95760008181526005602052604090206006015460ff168015613be1575060008181526005602052604090206009015487145b15613d205760008181526005602081815260409283902083516101808101855281546001600160a01b039081168252600180840154948301949094526002830154811695820195909552600382015485166060820152600482015490941660808501529182015460a0840152600682015460ff908116151560c0850152600783015460e08501526008830154610100850192911690811115613c8557613c8561537f565b6001811115613c9657613c9661537f565b81526020016008820160019054906101000a900460ff166002811115613cbe57613cbe61537f565b6002811115613ccf57613ccf61537f565b8152600882015462010000900460ff16151560208201526009909101546040909101528351849084908110613d0657613d06615abe565b60200260200101819052508180613d1c90615b18565b9250505b80613d2a81615b18565b915050613ba8565b6000613d3c614d2e565b6000805b8451811015613da057848181518110613d5b57613d5b615abe565b602090810291909101810151600081815260059092526040909120600801805462ff000019166201000087151502179055915080613d9881615b18565b915050613d40565b506001949350505050565b60005b81518110156134fa576000828281518110613dcb57613dcb615abe565b602090810291909101810151600081815260059092526040909120600301549091506001600160a01b03163314613e2257613e1d6040518060600160405280602e8152602001615f68602e9139614e8b565b613e96565b6000818152600560205260409020600301546001600160a01b0316613e7457613e1d6040518060400160405280601281526020017113919508191bd95cc81b9bdd08195e1a5cdd60721b815250614e8b565b6000818152600660205260409020600101805460ff19811660ff909116151790555b5080613ea181615b18565b915050613dae565b613eb1614d2e565b6001600160a01b038116613f165760405162461bcd60e51b815260206004820152602660248201527f4f776e61626c653a206e6577206f776e657220697320746865207a65726f206160448201526564647265737360d01b606482015260840161096f565b613f1f81614f6a565b50565b6000838152600960205260409020600401544211613f825760405162461bcd60e51b815260206004820152601a60248201527f41756374696f6e20686173206e6f7420656e646564207965742e000000000000604482015260640161096f565b6000838152600960205260409020600601546001600160a01b031615614055576000838152600960205260409020600601546001600160a01b0316331480613fe357506000838152600960205260409020600101546001600160a01b031633145b6140505760405162461bcd60e51b815260206004820152603860248201527f4f6e6c792074686520686967686573742062696464657220616e6420746865206044820152771cd95b1b195c8818d85b8818db185a5b481d1a194813919560421b606482015260840161096f565b6140d3565b6000838152600960205260409020600101546001600160a01b031633146140d35760405162461bcd60e51b815260206004820152602c60248201527f4f6e6c79207468652073656c6c65722063616e20636c6f73652074686520756e60448201526b39b7b6321030bab1ba34b7b760a11b606482015260840161096f565b6000838152600560209081526040808320600990925282206006810154919290916001600160a01b031661419c576003830154600480850180546001600160a01b0319166001600160a01b0393841617905560068501805460ff19169055600184810154908601546040516323b872dd60e01b81528b8516946323b872dd9461416194309492169201615a67565b600060405180830381600087803b15801561417b57600080fd5b505af115801561418f573d6000803e3d6000fd5b50505050600190506145fd565b60058201546000908190816008870154610100900460ff1660028111156141c5576141c561537f565b036143425760016006860154600160a01b900460ff1660028111156141ec576141ec61537f565b036142215760006141fb61312e565b6142059083615a45565b905061421481620f4240615a15565b5061421e81612b41565b50505b600286015460048701546001600160a01b0391821691160361429557614248818989614e00565b61425290826159bc565b60038701546040519193506001600160a01b03169083156108fc029084906000818181858888f1935050505015801561428f573d6000803e3d6000fd5b50614547565b6142a785600501548760070154614de1565b92506142b4818989614e00565b6142be84836159bc565b6142c891906159bc565b60028701546040519193506001600160a01b03169084156108fc029085906000818181858888f19350505050158015614305573d6000803e3d6000fd5b5060038601546040516001600160a01b039091169083156108fc029084906000818181858888f1935050505015801561428f573d6000803e3d6000fd5b60016008870154610100900460ff1660028111156143625761436261537f565b036145475760006006860154600160a01b900460ff1660028111156143895761438961537f565b0361439a57614397816128f8565b90505b600286015460048701546001600160a01b0391821691160361443c576143c1818989614e00565b6143cb90826159bc565b601054600388015460405163a9059cbb60e01b81529294506001600160a01b039182169263a9059cbb926144059216908690600401615a2c565b600060405180830381600087803b15801561441f57600080fd5b505af1158015614433573d6000803e3d6000fd5b50505050614547565b61444e85600501548760070154614de1565b925061445b818989614e00565b61446584836159bc565b61446f91906159bc565b601054600388015460405163a9059cbb60e01b81529294506001600160a01b039182169263a9059cbb926144a99216908690600401615a2c565b600060405180830381600087803b1580156144c357600080fd5b505af11580156144d7573d6000803e3d6000fd5b5050601054600289015460405163a9059cbb60e01b81526001600160a01b03928316945063a9059cbb935061451492909116908790600401615a2c565b600060405180830381600087803b15801561452e57600080fd5b505af1158015614542573d6000803e3d6000fd5b505050505b836145ba57600685015460018701546040516323b872dd60e01b81526001600160a01b038d8116936323b872dd9361458793309390921691600401615a67565b600060405180830381600087803b1580156145a157600080fd5b505af11580156145b5573d6000803e3d6000fd5b505050505b6006808601546004880180546001600160a01b0319166001600160a01b039092169190911790558601805460ff191690556145f9600280546001019055565b5050505b6001830154600384015460068401546005850154604051600080516020615f9683398151915294614642948d9491936001600160a01b03918216939290911691615a8b565b60405180910390a150505050505050565b600082815260096020526040902060030154829042118015614685575060008181526009602052604090206004015442105b6146a15760405162461bcd60e51b815260040161096f90615d24565b336000908152600b602052604090205460ff16156146d15760405162461bcd60e51b815260040161096f906157d0565b336000908152600a602052604090205460ff16156147015760405162461bcd60e51b815260040161096f9061579b565b60008381526006602052604081206001015460ff161561476a576000848152600560209081526040808320600301546001600160a01b031683526007825280832033845290915290205460ff1661476a5760405162461bcd60e51b815260040161096f90615d6d565b6000848152600960205260409020600601546001600160a01b03166147ba576000848152600960205260409020600201543410156147ba5760405162461bcd60e51b815260040161096f90615da4565b60008481526009602052604090206005015434116147ea5760405162461bcd60e51b815260040161096f90615ddb565b600160008581526005602052604090206008015460ff1660018111156148125761481261537f565b1461482f5760405162461bcd60e51b815260040161096f90615e38565b60008481526005602052604090206006015460ff1615156001146148655760405162461bcd60e51b815260040161096f9061596f565b6000848152600960205260409020600681015460058201546001600160a01b039091169081156149a35760016006840154600160a01b900460ff1660028111156148b1576148b161537f565b036149445760006148c061312e565b6148ca9083615a45565b90506148d981620f4240615a15565b60105460405163a9059cbb60e01b81529192506001600160a01b03169063a9059cbb9061490c9086908590600401615a2c565b600060405180830381600087803b15801561492657600080fd5b505af115801561493a573d6000803e3d6000fd5b50505050506149a3565b60006006840154600160a01b900460ff1660028111156149665761496661537f565b036149a3576040516001600160a01b0383169082156108fc029083906000818181858888f193505050501580156149a1573d6000803e3d6000fd5b505b3460058401556006830180546001600160a01b031916331790558560028111156149cf576149cf61537f565b60068401805460ff60a01b1916600160a01b8360028111156149f3576149f361537f565b0217905550614a0442610258615e6b565b83600401541015614a795761012c836004016000828254614a259190615e6b565b9091555050600183015460048401546040517f8e1cb85d0855921b3c958b068fa707efb7db88099af764dd47f37eef82c3334d92614a70928b926001600160a01b0390921691615e7e565b60405180910390a15b600183810154600685015460058601546040519397507f4307392e6f0e441e74a4982d9fa9ddc49b3cd9d3902a9d3ecab0ad3c60a0acd193614642938c936001600160a01b0391821693911691615e9d565b336000908152600b602052604090205460609060ff1615614afe5760405162461bcd60e51b815260040161096f906157d0565b6000614b0960035490565b90506000805b82811015614b5b576000818152600560205260409020600401546001600160a01b03808716911603614b495781614b4581615b18565b9250505b80614b5381615b18565b915050614b0f565b506000816001600160401b03811115614b7657614b766150c0565b604051908082528060200260200182016040528015614baf57816020015b614b9c614fdd565b815260200190600190039081614b945790505b5090506000805b848110156123d9576000818152600560205260409020600401546001600160a01b03808916911603614d1c5760008181526005602081815260409283902083516101808101855281546001600160a01b039081168252600180840154948301949094526002830154811695820195909552600382015485166060820152600482015490941660808501529182015460a0840152600682015460ff908116151560c0850152600783015460e08501526008830154610100850192911690811115614c8157614c8161537f565b6001811115614c9257614c9261537f565b81526020016008820160019054906101000a900460ff166002811115614cba57614cba61537f565b6002811115614ccb57614ccb61537f565b8152600882015462010000900460ff16151560208201526009909101546040909101528351849084908110614d0257614d02615abe565b60200260200101819052508180614d1890615b18565b9250505b80614d2681615b18565b915050614bb6565b6001546001600160a01b031633146128f65760405162461bcd60e51b815260206004820181905260248201527f4f776e61626c653a2063616c6c6572206973206e6f7420746865206f776e6572604482015260640161096f565b600260005403614dda5760405162461bcd60e51b815260206004820152601f60248201527f5265656e7472616e637947756172643a207265656e7472616e742063616c6c00604482015260640161096f565b6002600055565b60006064614def8385615a15565b614df99190615a45565b9392505050565b6000806103e8614e108587615a15565b614e1a9190615a45565b90506103e8614e298487615a15565b614e339190615a45565b614e3d9082615e6b565b95945050505050565b6134fa8282604051602401614e5c929190615f08565b60408051601f198184030181529190526020810180516001600160e01b0316632d839cb360e21b179052614fbc565b613f1f81604051602401614e9f9190615f2a565b60408051601f198184030181529190526020810180516001600160e01b031663104c13eb60e21b179052614fbc565b6134fa8282604051602401614ee4929190615f3d565b60408051601f198184030181529190526020810180516001600160e01b031663319af33360e01b179052614fbc565b805480614f625760405162461bcd60e51b815260206004820152601b60248201527f436f756e7465723a2064656372656d656e74206f766572666c6f770000000000604482015260640161096f565b600019019055565b600180546001600160a01b038381166001600160a01b0319831681179093556040519116919082907f8be0079c531659141344cd1fd0a4f28419497f9722a3daafe3b4186f6b6457e090600090a35050565b60006a636f6e736f6c652e6c6f679050600080835160208501845afa505050565b6040805161018081018252600080825260208201819052918101829052606081018290526080810182905260a0810182905260c0810182905260e081018290529061010082019081526020016000815260006020820181905260409091015290565b6001600160a01b0381168114613f1f57600080fd5b80356123e18161503f565b60006020828403121561507157600080fd5b8135614df98161503f565b600080600080600060a0868803121561509457600080fd5b853561509f8161503f565b97602087013597506040870135966060810135965060800135945092505050565b634e487b7160e01b600052604160045260246000fd5b604051601f8201601f191681016001600160401b03811182821017156150fe576150fe6150c0565b604052919050565b60006001600160401b0382111561511f5761511f6150c0565b5060051b60200190565b600082601f83011261513a57600080fd5b8135602061514f61514a83615106565b6150d6565b82815260059290921b8401810191818101908684111561516e57600080fd5b8286015b848110156151895780358352918301918301615172565b509695505050505050565b60008060008060008060008060006101208a8c0312156151b357600080fd5b6151bc8a615054565b985060208a01356001600160401b03808211156151d857600080fd5b6151e48d838e01615129565b995060408c01359150808211156151fa57600080fd5b6152068d838e01615129565b985060608c0135975060808c0135965060a08c013591508082111561522a57600080fd5b6152368d838e01615129565b955060c08c013591508082111561524c57600080fd5b506152598c828d01615129565b93505060e08a013591506101008a013590509295985092959850929598565b6000602080838503121561528b57600080fd5b82356001600160401b038111156152a157600080fd5b8301601f810185136152b257600080fd5b80356152c061514a82615106565b81815260059190911b820183019083810190878311156152df57600080fd5b928401925b828410156153065783356152f78161503f565b825292840192908401906152e4565b979650505050505050565b60008060008060008060c0878903121561532a57600080fd5b86356153358161503f565b9860208801359850604088013597606081013597506080810135965060a00135945092505050565b6000806040838503121561537057600080fd5b50508035926020909101359150565b634e487b7160e01b600052602160045260246000fd5b600281106153a5576153a561537f565b9052565b600381106153a5576153a561537f565b602080825282518282018190526000919060409081850190868401855b8281101561548f57815180516001600160a01b0390811686528782015188870152868201518116878701526060808301518216908701526080808301519091169086015260a0808201519086015260c08082015115159086015260e080820151908601526101008082015161544d82880182615395565b505061012080820151615462828801826153a9565b505061014081810151151590860152610160908101519085015261018090930192908501906001016153d6565b5091979650505050505050565b600080600080600080600060e0888a0312156154b757600080fd5b87356154c28161503f565b96506020880135955060408801359450606088013593506080880135925060a0880135915060c08801356154f58161503f565b8091505092959891949750929550565b60006020828403121561551757600080fd5b5035919050565b600081518084526020808501945080840160005b838110156155575781516001600160a01b031687529582019590820190600101615532565b509495945050505050565b602081526000614df9602083018461551e565b8881526001600160a01b03888116602083015260408201889052606082018790526080820186905260a08201859052831660c082015261010081016155bd60e08301846153a9565b9998505050505050505050565b6000806000606084860312156155df57600080fd5b505081359360208301359350604090920135919050565b6001600160a01b038d81168252602082018d90528b811660408301528a811660608301528916608082015260a0810188905286151560c082015260e08101869052610180810161564a610100830187615395565b6156586101208301866153a9565b92151561014082015261016001529a9950505050505050505050565b6000806040838503121561568757600080fd5b82356156928161503f565b946020939093013593505050565b600080604083850312156156b357600080fd5b82356001600160401b038111156156c957600080fd5b6156d585828601615129565b925050602083013580151581146156eb57600080fd5b809150509250929050565b6000806040838503121561570957600080fd5b82356157148161503f565b915060208301356156eb8161503f565b60006020828403121561573657600080fd5b81356001600160401b0381111561574c57600080fd5b61575884828501615129565b949350505050565b6000806000806080858703121561577657600080fd5b84356157818161503f565b966020860135965060408601359560600135945092505050565b6020808252818101527f596f75206172652062616e6e6564206f6e207468697320706c6174666f726d2e604082015260600190565b6020808252604a908201527f596f7520617265207065726d656e616e746c792064656c657465642066726f6d60408201527f207468697320706c6174666f726d20666f722076696f6c6174696e6720746865606082015269103837b634b1b4b2b99760b11b608082015260a00190565b60208082526025908201527f416e206f776e65722063616e6e6f7420707572636861736520697473206f776e6040820152641027232a1760d91b606082015260800190565b60208082526036908201527f546865206f776e6572206f662074686973206e667420697320626c61636b6c6960408201527539ba32b21037b7103a3434b990383630ba3337b9369760511b606082015260800190565b6020808252603d908201527f546865206f776e6572206f662074686973206e6674206973207065726d616e6160408201527f6e746c792062616e6e6564206f6e207468697320706c6174666f726d2e000000606082015260800190565b6020808252601a908201527f54686973204e4654206973206e6f742061742061756374696f6e000000000000604082015260600190565b6020808252601d908201527f4e6674206973206e6f74206c697374656420746f207075726368617365000000604082015260600190565b634e487b7160e01b600052601160045260246000fd5b818103818111156131f7576131f76159a6565b60208082526026908201527f4e6f7420656e6f75676820657468657220746f20636f7665722061736b696e6760408201526520707269636560d01b606082015260800190565b80820281158282048414176131f7576131f76159a6565b6001600160a01b03929092168252602082015260400190565b600082615a6257634e487b7160e01b600052601260045260246000fd5b500490565b6001600160a01b039384168152919092166020820152604081019190915260600190565b6001600160a01b039586168152602081019490945291841660408401529092166060820152608081019190915260a00190565b634e487b7160e01b600052603260045260246000fd5b6001600160a01b03978816815260208101969096529386166040860152919094166060840152608083019390935260a082019290925260c081019190915260e00190565b600060018201615b2a57615b2a6159a6565b5060010190565b60208082526027908201527f4e6f7420656e6f75676820616d6f756e7420746f20636f7665722061736b696e6040820152666720707269636560c81b606082015260800190565b600060208284031215615b8a57600080fd5b8151614df98161503f565b828152604060208201526000615758604083018461551e565b60006020808385031215615bc157600080fd5b82516001600160401b03811115615bd757600080fd5b8301601f81018513615be857600080fd5b8051615bf661514a82615106565b81815260059190911b82018301908381019087831115615c1557600080fd5b928401925b8284101561530657835182529284019290840190615c1a565b848152608060208201526000615c4c608083018661551e565b6001600160a01b03949094166040830152506060015292915050565b85815284602082015260a060408201526000615c8760a083018661551e565b6001600160a01b0394909416606083015250608001529392505050565b805169ffffffffffffffffffff811681146123e157600080fd5b600080600080600060a08688031215615cd657600080fd5b615cdf86615ca4565b9450602086015193506040860151925060608601519150615d0260808701615ca4565b90509295509295909350565b634e487b7160e01b600052603160045260246000fd5b60208082526029908201527f54686973204e4654206973206e6f74206f6e2061756374696f6e206174207468604082015268329036b7b6b2b73a1760b91b606082015260800190565b6020808252601b908201527f596f7520617265206e6f7420696e207468652066616e206c6973740000000000604082015260600190565b6020808252601c908201527f4d696e696d756d206269642068617320746f2062652068696768657200000000604082015260600190565b6020808252603c908201527f596f75206861766520746f2062696420686967686572207468616e207468652060408201527f686967686573742062696420746f206d616b6520616e206f6666657200000000606082015260800190565b6020808252601990820152782a3434b99027232a1034b99030ba1030ba1030bab1ba34b7b760391b604082015260600190565b808201808211156131f7576131f76159a6565b9283526001600160a01b03919091166020830152604082015260600190565b9384526001600160a01b03928316602085015291166040830152606082015260800190565b6000815180845260005b81811015615ee857602081850181015186830182015201615ecc565b506000602082860101526020601f19601f83011685010191505092915050565b604081526000615f1b6040830185615ec2565b90508260208301529392505050565b602081526000614df96020830184615ec2565b604081526000615f506040830185615ec2565b905060018060a01b0383166020830152939250505056fe4f6e6c7920746865206f776e6572206f6620616e206e66742063616e20736574207468652066616e206c6973742e16f1dbd97e6bf646d429ed186cce832f1f7fd9907814293b83181e9970ab7bd2a2646970667358221220abd01c9c96e5dbcf31ea581352cbb6ae45ecaf1f02ca00425da64e28efcd4c0b64736f6c63430008130033",
  "linkReferences": {},
  "deployedLinkReferences": {}
}