{
  "_format": "hh-sol-artifact-1",
  "contractName": "ArtiziaMarketplace",
  "sourceName": "contracts/ArtiziaMarketplace.sol",
  "abi": [
    {
      "inputs": [],
      "stateMutability": "nonpayable",
      "type": "constructor"
    },
    {
      "inputs": [],
      "name": "invalidListingType",
      "type": "error"
    },
    {
      "inputs": [],
      "name": "invalidPrice",
      "type": "error"
    },
    {
      "anonymous": false,
      "inputs": [
        {
          "indexed": false,
          "internalType": "address",
          "name": "nftContract",
          "type": "address"
        },
        {
          "indexed": false,
          "internalType": "uint256",
          "name": "tokenId",
          "type": "uint256"
        },
        {
          "indexed": false,
          "internalType": "address",
          "name": "seller",
          "type": "address"
        },
        {
          "indexed": false,
          "internalType": "address",
          "name": "owner",
          "type": "address"
        },
        {
          "indexed": false,
          "internalType": "address",
          "name": "firstOwner",
          "type": "address"
        },
        {
          "indexed": false,
          "internalType": "uint256",
          "name": "price",
          "type": "uint256"
        },
        {
          "indexed": false,
          "internalType": "uint256",
          "name": "last_bid",
          "type": "uint256"
        },
        {
          "indexed": false,
          "internalType": "uint256",
          "name": "collectionId",
          "type": "uint256"
        },
        {
          "indexed": false,
          "internalType": "uint256",
          "name": "listingType",
          "type": "uint256"
        },
        {
          "indexed": false,
          "internalType": "uint256",
          "name": "start_time",
          "type": "uint256"
        },
        {
          "indexed": false,
          "internalType": "uint256",
          "name": "end_time",
          "type": "uint256"
        },
        {
          "indexed": false,
          "internalType": "uint256",
          "name": "sellerId",
          "type": "uint256"
        }
      ],
      "name": "NFTListed",
      "type": "event"
    },
    {
      "anonymous": false,
      "inputs": [
        {
          "indexed": false,
          "internalType": "address",
          "name": "nftContract",
          "type": "address"
        },
        {
          "indexed": false,
          "internalType": "uint256",
          "name": "tokenId",
          "type": "uint256"
        },
        {
          "indexed": false,
          "internalType": "uint256",
          "name": "price",
          "type": "uint256"
        },
        {
          "indexed": false,
          "internalType": "address",
          "name": "seller",
          "type": "address"
        },
        {
          "indexed": false,
          "internalType": "address",
          "name": "buyer",
          "type": "address"
        },
        {
          "indexed": false,
          "internalType": "uint256",
          "name": "sellerId",
          "type": "uint256"
        },
        {
          "indexed": false,
          "internalType": "uint256",
          "name": "buyerId",
          "type": "uint256"
        }
      ],
      "name": "NFTSold",
      "type": "event"
    },
    {
      "anonymous": false,
      "inputs": [
        {
          "indexed": true,
          "internalType": "address",
          "name": "previousOwner",
          "type": "address"
        },
        {
          "indexed": true,
          "internalType": "address",
          "name": "newOwner",
          "type": "address"
        }
      ],
      "name": "OwnershipTransferred",
      "type": "event"
    },
    {
      "anonymous": false,
      "inputs": [
        {
          "indexed": false,
          "internalType": "uint256",
          "name": "tokenId",
          "type": "uint256"
        },
        {
          "indexed": false,
          "internalType": "bool",
          "name": "decision",
          "type": "bool"
        }
      ],
      "name": "approvalUpdate",
      "type": "event"
    },
    {
      "anonymous": false,
      "inputs": [
        {
          "indexed": false,
          "internalType": "uint256",
          "name": "tokenId",
          "type": "uint256"
        },
        {
          "indexed": false,
          "internalType": "address",
          "name": "seller",
          "type": "address"
        },
        {
          "indexed": false,
          "internalType": "uint256",
          "name": "newTime",
          "type": "uint256"
        }
      ],
      "name": "auctionEndTimeIncreased",
      "type": "event"
    },
    {
      "anonymous": false,
      "inputs": [
        {
          "indexed": false,
          "internalType": "address",
          "name": "nftContract",
          "type": "address"
        },
        {
          "indexed": false,
          "internalType": "uint256",
          "name": "tokenId",
          "type": "uint256"
        },
        {
          "indexed": false,
          "internalType": "address",
          "name": "owner",
          "type": "address"
        },
        {
          "indexed": false,
          "internalType": "uint256",
          "name": "sellerId",
          "type": "uint256"
        }
      ],
      "name": "cancelList",
      "type": "event"
    },
    {
      "anonymous": false,
      "inputs": [
        {
          "indexed": false,
          "internalType": "uint256",
          "name": "tokenId",
          "type": "uint256"
        },
        {
          "indexed": false,
          "internalType": "address",
          "name": "seller",
          "type": "address"
        },
        {
          "indexed": false,
          "internalType": "address",
          "name": "highestBidder",
          "type": "address"
        },
        {
          "indexed": false,
          "internalType": "uint256",
          "name": "highestBidIntoETH",
          "type": "uint256"
        },
        {
          "indexed": false,
          "internalType": "uint256",
          "name": "highestBidIntoUSDT",
          "type": "uint256"
        }
      ],
      "name": "receivedABid",
      "type": "event"
    },
    {
      "stateMutability": "payable",
      "type": "fallback"
    },
    {
      "inputs": [],
      "name": "UNISWAP_ROUTER_ADDRESS",
      "outputs": [
        {
          "internalType": "address",
          "name": "",
          "type": "address"
        }
      ],
      "stateMutability": "view",
      "type": "function"
    },
    {
      "inputs": [],
      "name": "USDT_ADDRESS",
      "outputs": [
        {
          "internalType": "address",
          "name": "",
          "type": "address"
        }
      ],
      "stateMutability": "view",
      "type": "function"
    },
    {
      "inputs": [
        {
          "internalType": "uint256",
          "name": "",
          "type": "uint256"
        }
      ],
      "name": "_idToAuction",
      "outputs": [
        {
          "internalType": "uint256",
          "name": "tokenId",
          "type": "uint256"
        },
        {
          "internalType": "address payable",
          "name": "seller",
          "type": "address"
        },
        {
          "internalType": "uint256",
          "name": "basePrice",
          "type": "uint256"
        },
        {
          "internalType": "uint256",
          "name": "startTime",
          "type": "uint256"
        },
        {
          "internalType": "uint256",
          "name": "endTime",
          "type": "uint256"
        },
        {
          "internalType": "uint256",
          "name": "highestBidIntoETH",
          "type": "uint256"
        },
        {
          "internalType": "uint256",
          "name": "highestBidIntoUSDT",
          "type": "uint256"
        },
        {
          "internalType": "address payable",
          "name": "highestBidder",
          "type": "address"
        },
        {
          "internalType": "enum ArtiziaMarketplace.PaymentMethod",
          "name": "highestBidCurrency",
          "type": "uint8"
        },
        {
          "internalType": "uint8",
          "name": "buyerPlane",
          "type": "uint8"
        },
        {
          "internalType": "bool",
          "name": "royalty",
          "type": "bool"
        }
      ],
      "stateMutability": "view",
      "type": "function"
    },
    {
      "inputs": [
        {
          "internalType": "uint256",
          "name": "",
          "type": "uint256"
        }
      ],
      "name": "_idToNFT",
      "outputs": [
        {
          "internalType": "address",
          "name": "nftContract",
          "type": "address"
        },
        {
          "internalType": "uint256",
          "name": "tokenId",
          "type": "uint256"
        },
        {
          "internalType": "address payable",
          "name": "firstOwner",
          "type": "address"
        },
        {
          "internalType": "address payable",
          "name": "seller",
          "type": "address"
        },
        {
          "internalType": "address payable",
          "name": "owner",
          "type": "address"
        },
        {
          "internalType": "uint256",
          "name": "price",
          "type": "uint256"
        },
        {
          "internalType": "bool",
          "name": "listed",
          "type": "bool"
        },
        {
          "internalType": "uint256",
          "name": "royaltyPrice",
          "type": "uint256"
        },
        {
          "internalType": "enum ArtiziaMarketplace.ListingType",
          "name": "listingType",
          "type": "uint8"
        },
        {
          "internalType": "enum ArtiziaMarketplace.PaymentMethod",
          "name": "paymentMethod",
          "type": "uint8"
        },
        {
          "internalType": "bool",
          "name": "approve",
          "type": "bool"
        },
        {
          "internalType": "uint256",
          "name": "collectionId",
          "type": "uint256"
        },
        {
          "internalType": "bool",
          "name": "royalty",
          "type": "bool"
        }
      ],
      "stateMutability": "view",
      "type": "function"
    },
    {
      "inputs": [],
      "name": "_nftCount",
      "outputs": [
        {
          "internalType": "uint256",
          "name": "",
          "type": "uint256"
        }
      ],
      "stateMutability": "view",
      "type": "function"
    },
    {
      "inputs": [],
      "name": "_nftsSold",
      "outputs": [
        {
          "internalType": "uint256",
          "name": "",
          "type": "uint256"
        }
      ],
      "stateMutability": "view",
      "type": "function"
    },
    {
      "inputs": [
        {
          "internalType": "uint256[]",
          "name": "_tokenId",
          "type": "uint256[]"
        },
        {
          "internalType": "bool",
          "name": "_decision",
          "type": "bool"
        }
      ],
      "name": "approveNfts",
      "outputs": [
        {
          "internalType": "bool",
          "name": "",
          "type": "bool"
        }
      ],
      "stateMutability": "nonpayable",
      "type": "function"
    },
    {
      "inputs": [
        {
          "internalType": "address",
          "name": "_user",
          "type": "address"
        },
        {
          "internalType": "bool",
          "name": "_status",
          "type": "bool"
        }
      ],
      "name": "banUser",
      "outputs": [],
      "stateMutability": "nonpayable",
      "type": "function"
    },
    {
      "inputs": [
        {
          "internalType": "address",
          "name": "",
          "type": "address"
        }
      ],
      "name": "bannedUsers",
      "outputs": [
        {
          "internalType": "bool",
          "name": "",
          "type": "bool"
        }
      ],
      "stateMutability": "view",
      "type": "function"
    },
    {
      "inputs": [
        {
          "internalType": "uint256",
          "name": "_tokenId",
          "type": "uint256"
        },
        {
          "internalType": "uint8",
          "name": "_buyerPlan",
          "type": "uint8"
        }
      ],
      "name": "bidInETH",
      "outputs": [],
      "stateMutability": "payable",
      "type": "function"
    },
    {
      "inputs": [
        {
          "internalType": "uint256",
          "name": "_tokenId",
          "type": "uint256"
        },
        {
          "internalType": "uint256",
          "name": "_amount",
          "type": "uint256"
        },
        {
          "internalType": "uint8",
          "name": "_buyerPlan",
          "type": "uint8"
        }
      ],
      "name": "bidInUSDT",
      "outputs": [],
      "stateMutability": "payable",
      "type": "function"
    },
    {
      "inputs": [
        {
          "internalType": "address",
          "name": "_nftContract",
          "type": "address"
        },
        {
          "internalType": "uint256",
          "name": "_tokenId",
          "type": "uint256"
        },
        {
          "internalType": "uint8",
          "name": "_sellerPlan",
          "type": "uint8"
        },
        {
          "internalType": "uint8",
          "name": "_buyerPlan",
          "type": "uint8"
        },
        {
          "internalType": "uint256",
          "name": "sellerId",
          "type": "uint256"
        },
        {
          "internalType": "uint256",
          "name": "buyerId",
          "type": "uint256"
        }
      ],
      "name": "buyWithETH",
      "outputs": [],
      "stateMutability": "payable",
      "type": "function"
    },
    {
      "inputs": [
        {
          "internalType": "address",
          "name": "_nftContract",
          "type": "address"
        },
        {
          "internalType": "uint256",
          "name": "_tokenId",
          "type": "uint256"
        },
        {
          "internalType": "uint8",
          "name": "_sellerPlan",
          "type": "uint8"
        },
        {
          "internalType": "address",
          "name": "_buyerAddress",
          "type": "address"
        },
        {
          "internalType": "uint8",
          "name": "_buyerPlan",
          "type": "uint8"
        },
        {
          "internalType": "uint256",
          "name": "sellerId",
          "type": "uint256"
        },
        {
          "internalType": "uint256",
          "name": "buyerId",
          "type": "uint256"
        }
      ],
      "name": "buyWithFIAT",
      "outputs": [],
      "stateMutability": "payable",
      "type": "function"
    },
    {
      "inputs": [
        {
          "internalType": "address",
          "name": "_nftContract",
          "type": "address"
        },
        {
          "internalType": "uint256",
          "name": "_tokenId",
          "type": "uint256"
        },
        {
          "internalType": "uint256",
          "name": "_amount",
          "type": "uint256"
        },
        {
          "internalType": "uint8",
          "name": "_sellerPlan",
          "type": "uint8"
        },
        {
          "internalType": "uint8",
          "name": "_buyerPlan",
          "type": "uint8"
        },
        {
          "internalType": "uint256",
          "name": "sellerId",
          "type": "uint256"
        },
        {
          "internalType": "uint256",
          "name": "buyerId",
          "type": "uint256"
        }
      ],
      "name": "buyWithUSDT",
      "outputs": [],
      "stateMutability": "payable",
      "type": "function"
    },
    {
      "inputs": [
        {
          "internalType": "address",
          "name": "_nftContract",
          "type": "address"
        },
        {
          "internalType": "uint256",
          "name": "_tokenId",
          "type": "uint256"
        },
        {
          "internalType": "uint256",
          "name": "_sellerId",
          "type": "uint256"
        }
      ],
      "name": "cancelListing",
      "outputs": [],
      "stateMutability": "payable",
      "type": "function"
    },
    {
      "inputs": [
        {
          "internalType": "address",
          "name": "_nftContract",
          "type": "address"
        },
        {
          "internalType": "uint256",
          "name": "_tokenId",
          "type": "uint256"
        },
        {
          "internalType": "uint8",
          "name": "_sellerPlan",
          "type": "uint8"
        },
        {
          "internalType": "uint256",
          "name": "sellerId",
          "type": "uint256"
        },
        {
          "internalType": "uint256",
          "name": "buyerId",
          "type": "uint256"
        }
      ],
      "name": "closeAuction",
      "outputs": [],
      "stateMutability": "payable",
      "type": "function"
    },
    {
      "inputs": [
        {
          "internalType": "uint256",
          "name": "",
          "type": "uint256"
        },
        {
          "internalType": "uint256",
          "name": "",
          "type": "uint256"
        }
      ],
      "name": "collection",
      "outputs": [
        {
          "internalType": "uint256",
          "name": "",
          "type": "uint256"
        }
      ],
      "stateMutability": "view",
      "type": "function"
    },
    {
      "inputs": [
        {
          "internalType": "uint256",
          "name": "_collectionId",
          "type": "uint256"
        }
      ],
      "name": "getCollectionNfts",
      "outputs": [
        {
          "components": [
            {
              "internalType": "address",
              "name": "nftContract",
              "type": "address"
            },
            {
              "internalType": "uint256",
              "name": "tokenId",
              "type": "uint256"
            },
            {
              "internalType": "address payable",
              "name": "firstOwner",
              "type": "address"
            },
            {
              "internalType": "address payable",
              "name": "seller",
              "type": "address"
            },
            {
              "internalType": "address payable",
              "name": "owner",
              "type": "address"
            },
            {
              "internalType": "uint256",
              "name": "price",
              "type": "uint256"
            },
            {
              "internalType": "bool",
              "name": "listed",
              "type": "bool"
            },
            {
              "internalType": "uint256",
              "name": "royaltyPrice",
              "type": "uint256"
            },
            {
              "internalType": "enum ArtiziaMarketplace.ListingType",
              "name": "listingType",
              "type": "uint8"
            },
            {
              "internalType": "enum ArtiziaMarketplace.PaymentMethod",
              "name": "paymentMethod",
              "type": "uint8"
            },
            {
              "internalType": "bool",
              "name": "approve",
              "type": "bool"
            },
            {
              "internalType": "uint256",
              "name": "collectionId",
              "type": "uint256"
            },
            {
              "internalType": "bool",
              "name": "royalty",
              "type": "bool"
            }
          ],
          "internalType": "struct ArtiziaMarketplace.NFT[]",
          "name": "",
          "type": "tuple[]"
        }
      ],
      "stateMutability": "view",
      "type": "function"
    },
    {
      "inputs": [
        {
          "internalType": "uint256",
          "name": "EthAmountIn",
          "type": "uint256"
        }
      ],
      "name": "getETHIntoUSDT",
      "outputs": [
        {
          "internalType": "uint256",
          "name": "",
          "type": "uint256"
        }
      ],
      "stateMutability": "view",
      "type": "function"
    },
    {
      "inputs": [
        {
          "internalType": "uint256",
          "name": "EthAmountOut",
          "type": "uint256"
        }
      ],
      "name": "getETHOutUSDTInOutPut",
      "outputs": [
        {
          "internalType": "uint256",
          "name": "",
          "type": "uint256"
        }
      ],
      "stateMutability": "view",
      "type": "function"
    },
    {
      "inputs": [],
      "name": "getListedNfts",
      "outputs": [
        {
          "components": [
            {
              "internalType": "address",
              "name": "nftContract",
              "type": "address"
            },
            {
              "internalType": "uint256",
              "name": "tokenId",
              "type": "uint256"
            },
            {
              "internalType": "address payable",
              "name": "firstOwner",
              "type": "address"
            },
            {
              "internalType": "address payable",
              "name": "seller",
              "type": "address"
            },
            {
              "internalType": "address payable",
              "name": "owner",
              "type": "address"
            },
            {
              "internalType": "uint256",
              "name": "price",
              "type": "uint256"
            },
            {
              "internalType": "bool",
              "name": "listed",
              "type": "bool"
            },
            {
              "internalType": "uint256",
              "name": "royaltyPrice",
              "type": "uint256"
            },
            {
              "internalType": "enum ArtiziaMarketplace.ListingType",
              "name": "listingType",
              "type": "uint8"
            },
            {
              "internalType": "enum ArtiziaMarketplace.PaymentMethod",
              "name": "paymentMethod",
              "type": "uint8"
            },
            {
              "internalType": "bool",
              "name": "approve",
              "type": "bool"
            },
            {
              "internalType": "uint256",
              "name": "collectionId",
              "type": "uint256"
            },
            {
              "internalType": "bool",
              "name": "royalty",
              "type": "bool"
            }
          ],
          "internalType": "struct ArtiziaMarketplace.NFT[]",
          "name": "",
          "type": "tuple[]"
        }
      ],
      "stateMutability": "view",
      "type": "function"
    },
    {
      "inputs": [
        {
          "internalType": "address",
          "name": "_user",
          "type": "address"
        }
      ],
      "name": "getMyListedNfts",
      "outputs": [
        {
          "components": [
            {
              "internalType": "address",
              "name": "nftContract",
              "type": "address"
            },
            {
              "internalType": "uint256",
              "name": "tokenId",
              "type": "uint256"
            },
            {
              "internalType": "address payable",
              "name": "firstOwner",
              "type": "address"
            },
            {
              "internalType": "address payable",
              "name": "seller",
              "type": "address"
            },
            {
              "internalType": "address payable",
              "name": "owner",
              "type": "address"
            },
            {
              "internalType": "uint256",
              "name": "price",
              "type": "uint256"
            },
            {
              "internalType": "bool",
              "name": "listed",
              "type": "bool"
            },
            {
              "internalType": "uint256",
              "name": "royaltyPrice",
              "type": "uint256"
            },
            {
              "internalType": "enum ArtiziaMarketplace.ListingType",
              "name": "listingType",
              "type": "uint8"
            },
            {
              "internalType": "enum ArtiziaMarketplace.PaymentMethod",
              "name": "paymentMethod",
              "type": "uint8"
            },
            {
              "internalType": "bool",
              "name": "approve",
              "type": "bool"
            },
            {
              "internalType": "uint256",
              "name": "collectionId",
              "type": "uint256"
            },
            {
              "internalType": "bool",
              "name": "royalty",
              "type": "bool"
            }
          ],
          "internalType": "struct ArtiziaMarketplace.NFT[]",
          "name": "",
          "type": "tuple[]"
        }
      ],
      "stateMutability": "view",
      "type": "function"
    },
    {
      "inputs": [
        {
          "internalType": "address",
          "name": "_user",
          "type": "address"
        }
      ],
      "name": "getMyNfts",
      "outputs": [
        {
          "components": [
            {
              "internalType": "address",
              "name": "nftContract",
              "type": "address"
            },
            {
              "internalType": "uint256",
              "name": "tokenId",
              "type": "uint256"
            },
            {
              "internalType": "address payable",
              "name": "firstOwner",
              "type": "address"
            },
            {
              "internalType": "address payable",
              "name": "seller",
              "type": "address"
            },
            {
              "internalType": "address payable",
              "name": "owner",
              "type": "address"
            },
            {
              "internalType": "uint256",
              "name": "price",
              "type": "uint256"
            },
            {
              "internalType": "bool",
              "name": "listed",
              "type": "bool"
            },
            {
              "internalType": "uint256",
              "name": "royaltyPrice",
              "type": "uint256"
            },
            {
              "internalType": "enum ArtiziaMarketplace.ListingType",
              "name": "listingType",
              "type": "uint8"
            },
            {
              "internalType": "enum ArtiziaMarketplace.PaymentMethod",
              "name": "paymentMethod",
              "type": "uint8"
            },
            {
              "internalType": "bool",
              "name": "approve",
              "type": "bool"
            },
            {
              "internalType": "uint256",
              "name": "collectionId",
              "type": "uint256"
            },
            {
              "internalType": "bool",
              "name": "royalty",
              "type": "bool"
            }
          ],
          "internalType": "struct ArtiziaMarketplace.NFT[]",
          "name": "",
          "type": "tuple[]"
        }
      ],
      "stateMutability": "view",
      "type": "function"
    },
    {
      "inputs": [
        {
          "internalType": "uint256",
          "name": "_tokenId",
          "type": "uint256"
        }
      ],
      "name": "getStatusOfAuction",
      "outputs": [
        {
          "internalType": "bool",
          "name": "",
          "type": "bool"
        }
      ],
      "stateMutability": "view",
      "type": "function"
    },
    {
      "inputs": [
        {
          "internalType": "uint8",
          "name": "level",
          "type": "uint8"
        }
      ],
      "name": "getSubscriptionFee",
      "outputs": [
        {
          "internalType": "uint256",
          "name": "",
          "type": "uint256"
        }
      ],
      "stateMutability": "view",
      "type": "function"
    },
    {
      "inputs": [
        {
          "internalType": "uint256",
          "name": "usdtAmountIn",
          "type": "uint256"
        }
      ],
      "name": "getUSDTIntoETH",
      "outputs": [
        {
          "internalType": "uint256",
          "name": "",
          "type": "uint256"
        }
      ],
      "stateMutability": "view",
      "type": "function"
    },
    {
      "inputs": [
        {
          "internalType": "uint256",
          "name": "USDTAmountOut",
          "type": "uint256"
        }
      ],
      "name": "getUSDTOutETHInOutPut",
      "outputs": [
        {
          "internalType": "uint256",
          "name": "",
          "type": "uint256"
        }
      ],
      "stateMutability": "view",
      "type": "function"
    },
    {
      "inputs": [
        {
          "internalType": "address",
          "name": "_user",
          "type": "address"
        }
      ],
      "name": "getUsersNfts",
      "outputs": [
        {
          "components": [
            {
              "internalType": "address",
              "name": "nftContract",
              "type": "address"
            },
            {
              "internalType": "uint256",
              "name": "tokenId",
              "type": "uint256"
            },
            {
              "internalType": "address payable",
              "name": "firstOwner",
              "type": "address"
            },
            {
              "internalType": "address payable",
              "name": "seller",
              "type": "address"
            },
            {
              "internalType": "address payable",
              "name": "owner",
              "type": "address"
            },
            {
              "internalType": "uint256",
              "name": "price",
              "type": "uint256"
            },
            {
              "internalType": "bool",
              "name": "listed",
              "type": "bool"
            },
            {
              "internalType": "uint256",
              "name": "royaltyPrice",
              "type": "uint256"
            },
            {
              "internalType": "enum ArtiziaMarketplace.ListingType",
              "name": "listingType",
              "type": "uint8"
            },
            {
              "internalType": "enum ArtiziaMarketplace.PaymentMethod",
              "name": "paymentMethod",
              "type": "uint8"
            },
            {
              "internalType": "bool",
              "name": "approve",
              "type": "bool"
            },
            {
              "internalType": "uint256",
              "name": "collectionId",
              "type": "uint256"
            },
            {
              "internalType": "bool",
              "name": "royalty",
              "type": "bool"
            }
          ],
          "internalType": "struct ArtiziaMarketplace.NFT[]",
          "name": "",
          "type": "tuple[]"
        }
      ],
      "stateMutability": "view",
      "type": "function"
    },
    {
      "inputs": [
        {
          "internalType": "address",
          "name": "_nftContract",
          "type": "address"
        },
        {
          "internalType": "uint256[]",
          "name": "_tokenId",
          "type": "uint256[]"
        },
        {
          "internalType": "uint256[]",
          "name": "_price",
          "type": "uint256[]"
        },
        {
          "internalType": "uint256[]",
          "name": "_royaltyPrice",
          "type": "uint256[]"
        },
        {
          "internalType": "uint256",
          "name": "_listingType",
          "type": "uint256"
        },
        {
          "internalType": "uint256[]",
          "name": "_startTime",
          "type": "uint256[]"
        },
        {
          "internalType": "uint256[]",
          "name": "_endTime",
          "type": "uint256[]"
        },
        {
          "internalType": "uint256",
          "name": "_collectionId",
          "type": "uint256"
        },
        {
          "internalType": "uint256",
          "name": "_paymentMethod",
          "type": "uint256"
        },
        {
          "internalType": "uint256",
          "name": "_sellerId",
          "type": "uint256"
        }
      ],
      "name": "listNft",
      "outputs": [],
      "stateMutability": "payable",
      "type": "function"
    },
    {
      "inputs": [],
      "name": "owner",
      "outputs": [
        {
          "internalType": "address",
          "name": "",
          "type": "address"
        }
      ],
      "stateMutability": "view",
      "type": "function"
    },
    {
      "inputs": [],
      "name": "renounceOwnership",
      "outputs": [],
      "stateMutability": "nonpayable",
      "type": "function"
    },
    {
      "inputs": [
        {
          "internalType": "address",
          "name": "_nftContract",
          "type": "address"
        },
        {
          "internalType": "uint256",
          "name": "_tokenId",
          "type": "uint256"
        },
        {
          "internalType": "uint256",
          "name": "_price",
          "type": "uint256"
        },
        {
          "internalType": "uint256",
          "name": "_listingType",
          "type": "uint256"
        },
        {
          "internalType": "uint256",
          "name": "_startTime",
          "type": "uint256"
        },
        {
          "internalType": "uint256",
          "name": "_endTime",
          "type": "uint256"
        },
        {
          "internalType": "uint256",
          "name": "_sellerId",
          "type": "uint256"
        }
      ],
      "name": "resellNft",
      "outputs": [],
      "stateMutability": "nonpayable",
      "type": "function"
    },
    {
      "inputs": [
        {
          "internalType": "enum ArtiziaMarketplace.SubscriptionLevel",
          "name": "",
          "type": "uint8"
        }
      ],
      "name": "subscriptionFees",
      "outputs": [
        {
          "internalType": "uint256",
          "name": "",
          "type": "uint256"
        }
      ],
      "stateMutability": "view",
      "type": "function"
    },
    {
      "inputs": [
        {
          "internalType": "uint256",
          "name": "usdtAmountOut",
          "type": "uint256"
        },
        {
          "internalType": "uint256",
          "name": "meth",
          "type": "uint256"
        }
      ],
      "name": "swapETHForUSDT",
      "outputs": [
        {
          "internalType": "uint256",
          "name": "",
          "type": "uint256"
        }
      ],
      "stateMutability": "payable",
      "type": "function"
    },
    {
      "inputs": [
        {
          "internalType": "uint256",
          "name": "usdtAmountIn",
          "type": "uint256"
        }
      ],
      "name": "swapUSDTForETH",
      "outputs": [
        {
          "internalType": "uint256",
          "name": "",
          "type": "uint256"
        }
      ],
      "stateMutability": "nonpayable",
      "type": "function"
    },
    {
      "inputs": [
        {
          "internalType": "address",
          "name": "newOwner",
          "type": "address"
        }
      ],
      "name": "transferOwnership",
      "outputs": [],
      "stateMutability": "nonpayable",
      "type": "function"
    },
    {
      "inputs": [
        {
          "internalType": "uint256",
          "name": "_amount",
          "type": "uint256"
        }
      ],
      "name": "withdrawTokens",
      "outputs": [],
      "stateMutability": "nonpayable",
      "type": "function"
    },
    {
      "stateMutability": "payable",
      "type": "receive"
    }
  ],
  "bytecode": "0x608060409080825234620001ad576001600081815581546001600160a01b0319808216339081178555929493926001600160a01b039283167f8be0079c531659141344cd1fd0a4f28419497f9722a3daafe3b4186f6b6457e08780a38260025582600355737a250d5630b4cf539739df2c5dacb4c659f2488d908181600954161760095573dac17f958d2ee523a2206206994597c13d831ec7918282600a541617600a5581600b541617600b55600c541617600c55600484526020926008845284868120553382845416036200017e575060038452600883526064858520553381835416036200014d57600284526008835260968585205533915416036200011c5781600884928260969552522055516156d79081620001b38239f35b60649083519062461bcd60e51b825280600483015260248201526000805160206200588a8339815191526044820152fd5b60648386519062461bcd60e51b825280600483015260248201526000805160206200588a8339815191526044820152fd5b6064908462461bcd60e51b825280600483015260248201526000805160206200588a8339815191526044820152fd5b600080fdfe60806040526004361015610018575b361561001657005b005b6000803560e01c806302a18c8014613e0b5780632381c58d14613dec578063315a095d14613d4857806331824a4914613d2a5780634afbcdae14613cea5780634b3320e014613b545780634d3fb81714613b2a5780635021b42b1461351e5780635274cff6146133bc5780635f96218b1461339d578063715018a61461332957806379b36943146133025780638110c57914612dfb5780638988d07814612dbe5780638cd410f414612d9f5780638d6cb3fb14612c4c5780638da5cb5b14612c255780638ee223f914612bce5780639c74405814612ba5578063aeb46a1b14612b6d578063b4fa041214612abc578063b8820d8214612aa0578063b9e07df1146129c2578063c18920581461299b578063c36ac2d21461282e578063c3e11ced1461276b578063d12824f1146125f9578063d6cbb202146125db578063d6fc3dbd14612319578063e599423114611f17578063e7fc941214611ae4578063e89fe4b7146112f7578063f2fde38b14611205578063f6c1b77a14611044578063f711a4e9146107c8578063fbe8d30f1461033e5763fe25db09146101bb575061000e565b3461033b57602080600319360112610337576040516101d9816143a6565b6002815260403683830137826001600160a01b039182600b5416604051937fad5c46480000000000000000000000000000000000000000000000000000000085528585600481855afa801561032c576102aa9585916102ff575b508161023e856145a8565b91169052600a541661024f836145b5565b526040805161025d816143a6565b60028152863691013760405180809581947f1f00ca740000000000000000000000000000000000000000000000000000000083526004356004840152604060248401526044830190614672565b03915afa9081156102f457836102c89394926102d1575b50506145a8565b51604051908152f35b6102ed92503d8091833e6102e581836143c2565b8101906145f8565b38806102c1565b6040513d85823e3d90fd5b61031f9150873d8911610325575b61031781836143c2565b8101906145d9565b38610233565b503d61030d565b6040513d86823e3d90fd5b5080fd5b80fd5b5060e060031936011261033b57610353614205565b60243561035e614191565b90606435906001600160a01b03938483168093036107c35761037e6141b1565b93828752600460205260019560ff936103a68886600860408d20015460101c16151514614f81565b33895260066020526103be8560408b20541615614e1e565b6103c6614f2c565b885260046020526103e36103dd60408a20936144d1565b966144d1565b90600383019681885416956103fa33881415614fcc565b868b5260066020526104128160408d20541615615088565b60088501918183541660028110156107af5761042e90156150f9565b60068601946104438c8488541615151461503d565b8c6005880180549161271092610471610469858304926104638885615392565b90615144565b34101561515e565b8a87600a8201541615600014610703575050506104a39261049d6104a995936104639354049384615392565b92615392565b34615151565b915460081c1660038110156106ef578a91829161065e57818091858c5416828215610655575bf11561064a57875b6104e3575b8888815580f35b8316918888820193845490803b15610646576040517f23b872dd0000000000000000000000000000000000000000000000000000000081523060048201526001600160a01b038a166024820152604481019290925282908290606490829084905af1801561063b5761061b575b5050907f36622ac3c55df2afe092b02595624d4572c4cc04125857ad1b41a57b58e7cdf396600461060c959493017fffffffffffffffffffffffff0000000000000000000000000000000000000000908882825416179055815416905560ff1981541690556105c0600254614e69565b60025554604080516001600160a01b039384168152602081019290925234908201529281166060840152909216608082015260a43560a082015260c43560c082015290819060e0820190565b0390a1388080808080806104dc565b610629909594939295614342565b610637579091928838610550565b8880fd5b6040513d84823e3d90fd5b8280fd5b6040513d8a823e3d90fd5b506108fc6104cf565b6106689150614b27565b82600c541690838a541690823b156106eb576040517fa9059cbb0000000000000000000000000000000000000000000000000000000081526001600160a01b0392909216600483015260248201529082908290604490829084905af1801561063b576106d7575b5050876104d7565b6106e090614342565b6106375788386106cf565b8380fd5b60248b634e487b7160e01b81526021600452fd5b82958395508394506107419261046361073b9261049d61072c60076107349f9d97015485615392565b9d8e34615151565b9584615392565b90615151565b968860028c0154168282156107a6575bf11561079b575460081c1660038110156106ef578a91829161079157818091858c5416828215610788575bf11561064a57876104d7565b506108fc61077c565b610668915061494b565b6040513d8d823e3d90fd5b506108fc610751565b60248d634e487b7160e01b81526021600452fd5b600080fd5b5060a060031936011261033b576107dd614205565b6107e5614191565b9060248035845260046020526040842092600560205261080860408620916144d1565b92600782019283549460ff91610822838860a81c166144d1565b9260038901926001600160a01b039485855416998681168015600014610a1457505050505082600186015416908133036109aa575088908385169060018a0154823b156106eb576040517f23b872dd0000000000000000000000000000000000000000000000000000000081523060048201526001600160a01b0392909216602483015260448201529082908290606490829084905af1801561063b5761098a575b50509060056001888361098497969560067f36622ac3c55df2afe092b02595624d4572c4cc04125857ad1b41a57b58e7cdf39c0160ff198154169055541660048201907fffffffffffffffffffffffff00000000000000000000000000000000000000008254161790555b0154930154945416604051958695608435946064359488939060c09591989796939860e08601996001600160a01b03948580941688526020880152604087015216606085015216608083015260a08201520152565b0390a180f35b610998909594939295614342565b6109a65790919287386108c4565b8780fd5b608490602c6040519162461bcd60e51b8352602060048401528201527f4f6e6c79207468652073656c6c65722063616e20636c6f73652074686520756e60448201527f736f6c642061756374696f6e00000000000000000000000000000000000000006064820152fd5b94909192939433148015611035575b15610fcb576004890154421115610f8757908b9160058a01549186600860068d015495015460081c166003811015610f735780610cd4575050858b5460a01c16906003821015610cc2575092878e96938e96936001899714600014610c765750610a8c906146af565b93600a8701541615600014610bf157508394509161073b610abb92610463869561049d61271086049384615392565b86865416828215610be8575bf115610bdd575b878284168387541660018a0154823b156106eb576040517f23b872dd0000000000000000000000000000000000000000000000000000000081523060048201526001600160a01b0392909216602483015260448201529082908290606490829084905af1801561063b57610bc1575b505090600560017f36622ac3c55df2afe092b02595624d4572c4cc04125857ad1b41a57b58e7cdf39861098496959484895416600483017fffffffffffffffffffffffff0000000000000000000000000000000000000000918282541617905581541690556006810160ff198154169055610bb9600254614e69565b60025561092f565b610bcf909594939295614342565b6109a6579091928738610b3d565b6040513d89823e3d90fd5b506108fc610ac7565b9284936002610c25869561073b879661046360078d01549161049d610734610c1e6127108c049586615392565b809b615151565b97015416828215610c6d575bf115610c60578180809286865416828215610c57575bf1610ace576040513d89823e3d90fd5b506108fc610c47565b50604051903d90823e3d90fd5b506108fc610c31565b949050600a8701541615600014610bf157508394509161073b610ca792610463869561049d61271086049384615392565b86865416828215610c5757f1610ace576040513d89823e3d90fd5b8e634e487b7160e01b81526021600452fd5b94969594929392600114610cef575b50505050505050610ace565b60a01c8516906003821015610cc25750918c918e9695949315600014610ee95750610d199061494b565b92600a8201541615600014610dcd575061073b90610463610d439461049d61271086049384615392565b83600c5416908484541690823b156106eb576040517fa9059cbb0000000000000000000000000000000000000000000000000000000081526001600160a01b0392909216600483015260248201529082908290604490829084905af1801561063b57610db9575b50505b38808080808080610ce3565b610dc290614342565b6109a6578738610daa565b610dfa9293610463600761073b9301549161049d610734610df36127108a049586615392565b8099615151565b9084600c5416908560028c01541691803b15610ed1576040517fa9059cbb000000000000000000000000000000000000000000000000000000008082526001600160a01b03949094166004820152602481019290925284908290604490829084905af190811561032c578491610ed5575b505084600c5416918585541692803b15610ed1576040519283526001600160a01b03909316600483015260248201529082908290818381604481015b03925af1801561063b57610ebd575b5050610dad565b610ec690614342565b6109a6578738610eb6565b8480fd5b610ede90614342565b610646578238610e6b565b939050600a8201541615600014610dcd575061073b90610463610f159461049d61271086049384615392565b83600c5416908484541690823b156106eb576040517fa9059cbb0000000000000000000000000000000000000000000000000000000081526001600160a01b0390921660048301526024820152908290829081838160448101610ea7565b50508d634e487b7160e01b81526021600452fd5b606490601a6040519162461bcd60e51b8352602060048401528201527f41756374696f6e20686173206e6f7420656e646564207965742e0000000000006044820152fd5b60849060386040519162461bcd60e51b8352602060048401528201527f4f6e6c792074686520686967686573742062696464657220616e64207468652060448201527f73656c6c65722063616e20636c61696d20746865204e465400000000000000006064820152fd5b508660018a0154163314610a23565b503461033b576020806003193601126103375761105f614205565b9133815260069081835260ff9161107c8360408420541615614e1e565b600392835494839184926001600160a01b03809916935b8881106111ca57506110a49061559a565b9785805b8981106110c157604051806110bd8d8261424b565b0390f35b808252600485528a60408320846004820154168b8982146110ef575b505050506110ea90614e69565b6110a8565b9a6111be938989600a6110ea989f968f83906111b8988e899b604051986111158a61436c565b828754168a526001870154908a01528160028701541660408a01528501541660608801526080870152600583015460a087015282015416151560c0850152600781015460e08501528260086111868282850154809361117a8383166101008c01614eac565b1c166101208801614eb8565b60101c161515610140850152600981015461016085015201541615156101808201526111b283836145c5565b526145c5565b50614e69565b9790508a38808b6110dd565b80875260048452848a600460408a20015416146111f0575b6111eb90614e69565b611093565b906111fd6111eb91614e69565b9190506111e2565b503461033b57602060031936011261033b5761121f614205565b611227614479565b6001600160a01b0380911690811561128d57600154827fffffffffffffffffffffffff0000000000000000000000000000000000000000821617600155167f8be0079c531659141344cd1fd0a4f28419497f9722a3daafe3b4186f6b6457e0600080a380f35b608460405162461bcd60e51b815260206004820152602660248201527f4f776e61626c653a206e6577206f776e657220697320746865207a65726f206160448201527f64647265737300000000000000000000000000000000000000000000000000006064820152fd5b5061014060031936011261033b5761130d614205565b67ffffffffffffffff91906024358381116106465761133090369060040161441b565b926044358181116106eb5761134990369060040161441b565b90606435818111610ed15761136290369060040161441b565b9360a4358281116103375761137b90369060040161441b565b9160c4359081116103375761139490369060040161441b565b9061139d614f2c565b33815260066020526113b660ff60408320541615614e1e565b805b8751811015611adc576113cb81866145c5565b516113fa5760046040517fb52612a6000000000000000000000000000000000000000000000000000000008152fd5b6001608435111561142f5760046040517f17142a4d000000000000000000000000000000000000000000000000000000008152fd5b61143981896145c5565b516001600160a01b0387163b15610646576040517f23b872dd00000000000000000000000000000000000000000000000000000000815233600482015230602482015260448101919091528281606481836001600160a01b038c165af180156102f457908391611ac8575b50506114b1600354614e69565b60035560e43582526007602052604082206114cc828a6145c5565b519080549068010000000000000000821015611ab457906114f2916001820181556141d7565b7fffffffffffffffffffffffffffffffffffffffffffffffffffffffffffffffff829392549160031b92831b921b191617905561152f81896145c5565b5161153a82876145c5565b51611545838a6145c5565b519060026084351015611aa0576003610104351015611aa0576040519261156b8461436c565b6001600160a01b038a168452602084015233604084015233606084015230608084015260a0830152600160c083015260e08201526115af6084356101008301614eac565b6115c0610104356101208301614eb8565b600161014082015260e435610160820152826101808201526115e2828a6145c5565b518352600460205260408320906001600160a01b038151167fffffffffffffffffffffffff000000000000000000000000000000000000000083541617825560208101516001830155600282016001600160a01b036040830151167fffffffffffffffffffffffff0000000000000000000000000000000000000000825416179055600382016001600160a01b036060830151167fffffffffffffffffffffffff0000000000000000000000000000000000000000825416179055600482016001600160a01b036080830151167fffffffffffffffffffffffff000000000000000000000000000000000000000082541617905560a0810151600583015561170060c08201511515600684019060ff60ff1983541691151516179055565b60e081015160078301556101008101516002811015611aa0576117269060088401614ec4565b6101208101516003811015611aa057600880840180546101408501517fffffffffffffffffffffffffffffffffffffffffffffffffffffffffff0000ff9091169390921b61ff00169290921790151560101b62ff0000161790556117af9190600a906101809061016081015160098501550151151591019060ff60ff1983541691151516179055565b60016084351461188d575b807fd5dd28770f2bb488e0cca8abb5f987ce9ac792ecbdc7f395c525ab07c90867ba876117ea611888948c6145c5565b516118806117f8858b6145c5565b51611803868b6145c5565b5161180e878b6145c5565b51604080516001600160a01b039097168752602087019590955233948601859052306060870152608086019490945260a0850191909152600060c085015260e43560e0850152608435610100850152610120840152610140830191909152610124356101608301528190610180820190565b0390a1614e69565b6113b8565b61189781896145c5565b516118a282876145c5565b516118ad83876145c5565b516118b884876145c5565b5191604051936118c785614389565b84523360208501526040840152606083015260808201528260a08201528260c08201528260e0820152611901610104356101008301614eb8565b60966101208201528261014082015261191a828a6145c5565b5183526005602052604083209080518255600182016001600160a01b036020830151167fffffffffffffffffffffffff000000000000000000000000000000000000000082541617905560408101516002830155606081015160038301556080810151600483015560a0810151600583015560c081015160068301556001600160a01b0360e0820151167fffffffffffffffffffffffff00000000000000000000000000000000000000006007840154161760078301556101008101516003811015611aa05761014083926119f760079384611888989701614edd565b611a4d60ff61012083015116848601907fffffffffffffffffffff00ffffffffffffffffffffffffffffffffffffffffff75ff00000000000000000000000000000000000000000083549260a81b169116179055565b015115157fffffffffffffffffff00ffffffffffffffffffffffffffffffffffffffffffff76ff00000000000000000000000000000000000000000000838501549260b01b1691161791015590506117ba565b602485634e487b7160e01b81526021600452fd5b602485634e487b7160e01b81526041600452fd5b611ad190614342565b6103375781386114a4565b506001815580f35b50604060031936011261033b5760ff9060243560043583821682036107c3578083526005602052611b2660408420600381015442119081611f09575b506151cf565b8083526004602052600193611b4a8582600860408820015460101c16151514614f81565b3384526006602052611b628160408620541615614e1e565b8184526005602052604084209460046020526040852090611b82856144d1565b9660028101549561271096611b998a898304615392565b611bab600585019b8c549a8b04615392565b916001600160a01b0396611bc788600383015416331415615240565b8860088201541660028110156107af57611c1793611c1e9593611c048a8d6006611c1197611bf984611c09991461528b565b01541615151461503d565b615144565b3410156152d6565b89615144565b3411615321565b600782019687549085821690600685019788549383611e05575b5050505050611cbc90348a55611c4d346154e6565b865587547fffffffffffffffffffff0000ffffffffffffffffffffffffffffffffffffffff33167fffffffffffffffffffff000000000000000000000000000000000000000000009091161760a89190911b75ff00000000000000000000000000000000000000000016178755565b600481018054906102584201804211611df1578210611d42575b50500154935495549154604080519485526001600160a01b039583168616602086015296909116939093169482019490945260608101939093526080830152907fd2bac7185d7afc210e088ad31a00e9c773a7ad5c90bbf00d874a34af391b46b3908060a08101610984565b61012c8201809211611ddd579284927f8e1cb85d0855921b3c958b068fa707efb7db88099af764dd47f37eef82c3334d837fd2bac7185d7afc210e088ad31a00e9c773a7ad5c90bbf00d874a34af391b46b39b9c9794610984999755848484015416611dce6040519283928d846001600160a01b03604092959493606083019683521660208201520152565b0390a192949998509294611cd6565b602489634e487b7160e01b81526011600452fd5b60248a634e487b7160e01b81526011600452fd5b60a01c166003811015611ef5578b9190878103611eba5750505085600c541690813b15611eb6576040517fa9059cbb0000000000000000000000000000000000000000000000000000000081526001600160a01b03919091166004820152602481019290925289908290604490829084905af18015611eab57908991611e97575b5050611cbc905b9038808080611c38565b611ea090614342565b6109a6578738611e86565b6040513d8b823e3d90fd5b8a80fd5b909291935015611ed1575b505050611cbc90611e8d565b8280928192828215611eec575bf115610bdd57873880611ec5565b506108fc611ede565b60248c634e487b7160e01b81526021600452fd5b600491500154421038611b20565b5060c060031936011261033b57611f2c614205565b602435611f37614191565b91611f406141a1565b91808552600460205260019360ff91611f688684600860408b20015460101c16151514614f81565b3387526006602052611f808360408920541615614e1e565b611f88614f2c565b86526004602052611fa5611f9f60408820926144d1565b946144d1565b60038201946001600160a01b03908187541694611fc433871415614fcc565b858a526006602052611fdc8160408c20541615615088565b6008850191818354166002811015611ef557611ff890156150f9565b600686019461200d8b8488541615151461503d565b600587018054908d6127109261202d610469858304926104638885615392565b8a87600a8201541615600014612282575050506104a39261049d61205995936104639354049384615392565b915460081c16600381101561226e57899182916121e157818091858b54168282156121d8575bf115610bdd57865b612093575b8787815580f35b8416918787820193845490803b15610646576040517f23b872dd000000000000000000000000000000000000000000000000000000008152306004820152336024820152604481019290925282908290606490829084905af1801561063b576121be575b5050907f36622ac3c55df2afe092b02595624d4572c4cc04125857ad1b41a57b58e7cdf39560046121b09493017fffffffffffffffffffffffff0000000000000000000000000000000000000000903382825416179055815416905560ff198154169055612166600254614e69565b60025554604080516001600160a01b0395861681526020810192909252349082015292909116606083015233608083015260843560a083015260a43560c0830152819060e0820190565b0390a138808080808061208c565b6121cb9094939294614342565b6109a657909187386120f7565b506108fc61207f565b6121eb9150614b27565b82600c5416908389541690823b156106eb576040517fa9059cbb0000000000000000000000000000000000000000000000000000000081526001600160a01b0392909216600483015260248201529082908290604490829084905af1801561063b5761225a575b505086612087565b61226390614342565b6109a6578738612252565b60248a634e487b7160e01b81526021600452fd5b82958395508394506122ab9261046361073b9261049d61072c60076107349f9d97015485615392565b968860028c015416828215612310575bf115612305575460081c16600381101561226e57899182916122fb57818091858b54168282156122f2575bf115610bdd5786612087565b506108fc6122e6565b6121eb915061494b565b6040513d8c823e3d90fd5b506108fc6122bb565b503461033b57604060031936011261033b5760043567ffffffffffffffff81116103375761234b90369060040161441b565b612353614333565b61235b614479565b82908015938415925b84518110156125d05761237781866145c5565b518083528460206004815288600860408720016123c58882907fffffffffffffffffffffffffffffffffffffffffffffffffffffffffff00ffff62ff0000835492151560101b169116179055565b816125b3575b5061240e575b61240993927f6ffa1c2dfe558962660d78387d612607ef3f19ee482f7d51a12634d131e8db6e926040928351928352820152a1614e69565b612364565b828552600580825260408620906007820154916001600160a01b0390818416928361243e575b50505050506123d1565b8192939495965060069060ff9201549201549460a01c16600381101561259f578a918991600181036125365750505050600c541690813b15612532576040517fa9059cbb0000000000000000000000000000000000000000000000000000000081526001600160a01b03919091166004820152602481019290925285908290604490829084905af1801561252757879291869161250e575b505061240993927f6ffa1c2dfe558962660d78387d612607ef3f19ee482f7d51a12634d131e8db6e926040925b928295968295612434565b61251a91929350614342565b6106eb57859084386124d6565b6040513d87823e3d90fd5b8680fd5b919492969550925015612576575b50505061240993927f6ffa1c2dfe558962660d78387d612607ef3f19ee482f7d51a12634d131e8db6e92604092612503565b8293945082918291828215612596575bf1156102f4578590843880612544565b506108fc612586565b602489634e487b7160e01b81526021600452fd5b549192505060ff166002811015611aa057906001879214386123cb565b602084604051908152f35b503461033b578060031936011261033b576020600354604051908152f35b503461033b5760208060031936011261033757612614614205565b9133815260069081835260ff6126308160408420541615614e1e565b600392835494839284936001600160a01b03809916945b88811061273157506126589061559a565b9785805b89811061267157604051806110bd8d8261424b565b808252600485528a60408320848b8201541689811461269c575b50505061269790614e69565b61265c565b8a612726938989600a612697989f96828f6111b8988e604051976126bf8961436c565b818654168952600186015490890152600285015416604088015260608701528d6004840154166080870152600583015460a087015282015416151560c0850152600781015460e08501528260086111868282850154809361117a8383166101008c01614eac565b9790508a388061268b565b80875260048452858a8960408a2001541614612756575b61275190614e69565b612647565b9061276361275191614e69565b919050612748565b503461033b576020806003193601126103375760405161278a816143a6565b6002815260403683830137826001600160a01b039182600a54166127ad826145a8565b5282600b5416604051937fad5c46480000000000000000000000000000000000000000000000000000000085528585600481855afa90811561032c576102aa95859261280f575b506127fe846145b5565b911690526040805161025d816143a6565b612827919250873d89116103255761031781836143c2565b90386127f4565b503461033b576020806003193601126103375760043590600392835492600261286061285b825487615151565b61559a565b9583805b87811061287957604051806110bd8b8261424b565b808252600487526040822060ff806006830154169182809361298e575b8061297e575b6128b2575b5050506128ad90614e69565b612864565b916128ad939891600a61297594604051936128cc8561436c565b8d6001600160a01b0390818454168752600184015490870152808c840154166040870152808b8401541660608701526004830154166080860152600582015460a0860152151560c0850152600781015460e085015282600861293e8282850154809361117a8383166101008c01614eac565b60101c1615156101408501526009810154610160850152015416151561018082015261296a828d6145c5565b526111b8818c6145c5565b959038806128a1565b5081600882015460101c1661289c565b5087600982015414612896565b503461033b578060031936011261033b5760206001600160a01b03600a5416604051908152f35b503461033b57602060031936011261033b5760406101a09160043581526004602052206001600160a01b03808254169160ff600182015492806002840154169080600385015416906004850154166005850154846006870154169160078701549360088801549587600a60098b01549a015416996040519b8c5260208c015260408b015260608a0152608089015260a0880152151560c087015260e0860152612a71610100860183831661421b565b612a846101208601838360081c1661423e565b60101c1615156101408401526101608301521515610180820152f35b6020612ab4612aae366141c1565b90614cbd565b604051908152f35b503461033b57602060031936011261033b57604061016091600435815260056020522060ff8154916001600160a01b038060018301541691600281015460038201546004830154906005840154926007600686015495015496604051998a5260208a015260408901526060880152608087015260a086015260c0850152811660e0840152612b536101008401838360a01c1661423e565b818160a81c1661012084015260b01c161515610140820152f35b503461033b57602060031936011261033b5760043590600582101561033b575060005260086020526020604060002054604051908152f35b503461033b57602060031936011261033b576020612bc4600435615668565b6040519015158152f35b503461033b57604060031936011261033b57612c22612beb614205565b6001600160a01b03612bfb614333565b91612c04614479565b1683526006602052604083209060ff60ff1983541691151516179055565b80f35b503461033b578060031936011261033b5760206001600160a01b0360015416604051908152f35b503461033b578060031936011261033b5760038054906002612c7261285b825485615151565b938091815b858110612c8c57604051806110bd898261424b565b8083526020600481526040842060ff9081600682015416808091612d8f575b612cc2575b50505050612cbd90614e69565b612c77565b91600a612d859492612cbd96999460405194612cdd8661436c565b6001600160a01b0390818454168752600184015490870152808a840154166040870152808d8401541660608701526004830154166080860152600582015460a0860152151560c0850152600781015460e0850152826008612d4e8282850154809361117a8383166101008c01614eac565b60101c16151561014085015260098101546101608501520154161515610180820152612d7a828b6145c5565b526111b8818a6145c5565b9390388080612cb0565b5082600883015460101c16612cab565b503461033b57602060031936011261033b576020612ab46004356146af565b503461033b57602060031936011261033b5760ff60406020926001600160a01b03612de7614205565b168152600684522054166040519015158152f35b503461033b5760e060031936011261033b57612e15614205565b906044356064359260843560a435903385526006602052612e3d60ff60408720541615614e1e565b612e45614f2c565b602495863586526004602052604086209480156132be5760048601336001600160a01b0382541603613254576001600160a01b038616803b15610637576040517f23b872dd0000000000000000000000000000000000000000000000000000000081523360048201523060248201528a3560448201529089908290606490829084905af18015611eab57908991613240575b505060038701337fffffffffffffffffffffffff0000000000000000000000000000000000000000825416179055307fffffffffffffffffffffffff00000000000000000000000000000000000000008254161790558060058701556006860160ff1990600182825416179055600283101561322d576008870190612f5c8483614ec4565b6001600a8901918254161790556001831461304f575b50600254801561303c577fffffffffffffffffffffffffffffffffffffffffffffffffffffffffffffffff016002908155860154600990960154604080516001600160a01b039788168152993560208b015233908a01523060608a015294909516608088015260a0870194909452600060c087015260e086019290925261010085019290925261012084015261014083015260c435610160830152907fd5dd28770f2bb488e0cca8abb5f987ce9ac792ecbdc7f395c525ab07c90867ba9061018090a16001815580f35b8888634e487b7160e01b81526011600452fd5b60ff905460081c1661309f6040519161306783614389565b8a3583523360208401528360408401528560608401528660808401528960a08401528960c08401528960e08401526101008301614eb8565b6096610120820152600161014082015288358852600560205260076040892082518155600181016001600160a01b036020850151167fffffffffffffffffffffffff000000000000000000000000000000000000000082541617905560408301516002820155606083015160038201556080830151600482015560a0830151600582015560c0830151600682015501906001600160a01b0360e0820151167fffffffffffffffffffffffff000000000000000000000000000000000000000083541617825561010081015190600382101561321a576131816101409284614edd565b61012081015183547fffffffffffffffffffff00ffffffffffffffffffffffffffffffffffffffffff1660a89190911b75ff00000000000000000000000000000000000000000016178355015181547fffffffffffffffffff00ffffffffffffffffffffffffffffffffffffffffffff1690151560b01b76ff000000000000000000000000000000000000000000001617905538612f72565b8a8a634e487b7160e01b81526021600452fd5b8888634e487b7160e01b81526021600452fd5b61324990614342565b6109a6578738612ed7565b608489602a6040519162461bcd60e51b8352602060048401528201527f4f6e6c7920746865206f776e6572206f6620616e206e66742063616e206c697360448201527f7420746865206e66742e000000000000000000000000000000000000000000006064820152fd5b606488601c6040519162461bcd60e51b8352602060048401528201527f5072696365206d757374206265206174206c65617374203120776569000000006044820152fd5b503461033b578060031936011261033b5760206001600160a01b0360095416604051908152f35b503461033b578060031936011261033b57613342614479565b60006001600160a01b036001547fffffffffffffffffffffffff00000000000000000000000000000000000000008116600155167f8be0079c531659141344cd1fd0a4f28419497f9722a3daafe3b4186f6b6457e08280a380f35b503461033b57602060031936011261033b576020612ab46004356153a5565b503461033b57602080600319360112610337576133d7614205565b9133815260069081835260ff6133f38160408420541615614e1e565b600392835494839284936001600160a01b03809916945b8881106134b5575061341b9061559a565b9785805b89811061343457604051806110bd8d8261424b565b808252600485528a60408320848b82015416898114806134a9575b80613499575b61346b575b50505061346690614e69565b61341f565b8a61348e938989600a613466989f96828f6111b8988e604051976126bf8961436c565b9790508a388061345a565b5086600883015460101c16613455565b5086898301541661344f565b808752600484526040872083878c8b84015416149182613511575b82613500575b50506134eb575b6134e690614e69565b61340a565b906134f86134e691614e69565b9190506134dd565b6008015460101c16905083386134d6565b87810154821692506134d0565b5060e060031936011261033b57613533614205565b6024359061353f6141a1565b906135486141b1565b838552600460205260019361356d8560ff600860408a20015460101c16151514614f81565b338652600660205261358660ff60408820541615614e1e565b61358e614f2c565b855260046020526135ab6135a560408720946144d1565b916144d1565b6001600160a01b03600385015416916135c633841415614fcc565b6135da8660ff60068801541615151461503d565b82875260066020526135f360ff60408920541615615088565b60ff6008860154166002811015613a845761360e90156150f9565b6005850154613635613624846127108404615392565b61362f6044356153a5565b92615144565b11613ac057866001600160a01b03600c5416803b15610337576040517f23b872dd00000000000000000000000000000000000000000000000000000000815233600482015230602482015260448035908201529082908290606490829084905af1801561063b57613aac575b5050600a85015460ff16613930576136cb906104636136d39361049d612710604435049384615392565b604435615151565b60ff600885015460081c16600381101561391c579086868193146000146138e657506001600160a01b03600c5416906001600160a01b0360038701541690823b156106eb576040517fa9059cbb0000000000000000000000000000000000000000000000000000000081526001600160a01b0392909216600483015260248201529082908290604490829084905af1801561063b576138d2575b5050835b61377e575b505050815580f35b6001600160a01b038216928585820194855490803b15610646576040517f23b872dd000000000000000000000000000000000000000000000000000000008152306004820152336024820152604481019290925282908290606490829084905af1801561063b576138ba575b50507f36622ac3c55df2afe092b02595624d4572c4cc04125857ad1b41a57b58e7cdf3938160046138af93017fffffffffffffffffffffffff00000000000000000000000000000000000000009033828254161790556003820154166003820155600660ff198183015416910155613863600254614e69565b60025554604080516001600160a01b03958616815260208101929092526044359082015292909116606083015233608083015260a43560a083015260c43560c0830152819060e0820190565b0390a1388080613776565b6138c390614342565b6138ce5785386137ea565b8580fd5b6138db90614342565b610ed157843861376d565b806138f181936146af565b6001600160a01b03600389015416828215613913575bf11561032c5783613771565b506108fc613907565b602487634e487b7160e01b81526021600452fd5b6139609061073b6007870154610463613950612710604435049283615392565b9561049d61073488604435615151565b90866001600160a01b03600c5416916001600160a01b0360028801541692803b15610646576040517fa9059cbb000000000000000000000000000000000000000000000000000000008082526001600160a01b03959095166004820152602481019290925282908290604490829084905af1801561063b57613a98575b505060ff600886015460081c166003811015613a845790878781949314600014613a7657506001600160a01b03600c5416916001600160a01b0360038801541692803b15610ed1576040519283526001600160a01b0393909316600483015260248201529082908290604490829084905af1801561063b57613a62575b505083613771565b613a6b90614342565b610ed1578438613a5a565b80928192506138f1906146af565b602488634e487b7160e01b81526021600452fd5b613aa190614342565b6125325786386139dd565b613ab590614342565b6125325786386136a1565b608460405162461bcd60e51b815260206004820152602760248201527f4e6f7420656e6f75676820616d6f756e7420746f20636f7665722061736b696e60448201527f67207072696365000000000000000000000000000000000000000000000000006064820152fd5b503461033b57602060031936011261033b5760043560ff811681036107c357612ab46020916144d1565b50606060031936011261033b57613b69614205565b60243590613b75614f2c565b3383526006602052613b8e60ff60408520541615614e1e565b8183526004602052604083209060038201918254906001600160a01b03938483163303613ca65760069260048301907fffffffffffffffffffffffff00000000000000000000000000000000000000009133838254161790551690550160ff1981541690551690813b15610646576040517f23b872dd000000000000000000000000000000000000000000000000000000008152306004820152336024820152604481018290528390818160648183885af1801561063b57613c92575b507f9894bb06983a241f784ad8cc4a606cf1b279c281ba0c7dc78e53b678d1492ee56080848460405191825260208201523360408201526044356060820152a16001815580f35b613c9b90614342565b610646578238613c4b565b606460405162461bcd60e51b815260206004820152601d60248201527f4f6e6c792053656c6c65722063616e2063616e63656c4c697374696e670000006044820152fd5b503461033b57613cf9366141c1565b9190815260076020526040812090815483101561033b576020613d1c84846141d7565b90546040519160031b1c8152f35b503461033b578060031936011261033b576020600254604051908152f35b503461033b57602060031936011261033b57613d62614479565b806001600160a01b0380600c5416906001541690803b15613de8576040517fa9059cbb0000000000000000000000000000000000000000000000000000000081526001600160a01b039290921660048084019190915235602483015282908290604490829084905af1801561063b57613dd85750f35b613de190614342565b61033b5780f35b5050fd5b503461033b57602060031936011261033b576020612ab46004356154e6565b50606060031936011261033b5760043590602435613e27614191565b928083526005602052613e4a60408420600381015442119081611f0957506151cf565b808352600460205260019384604085206008015460101c60ff16151514613e7090614f81565b3384526006602052604084205460ff1615613e8a90614e1e565b8184526005602052604084209460046020526040852090613eaa836144d1565b96600281015493612710938985870490613ec391615392565b94600584019a8b5491820490613ed891615392565b613ee18a6153a5565b976001600160a01b039788600386015416331415613efe90615240565b613f0791615144565b881015613f13906152d6565b613f1c91615144565b8611613f2790615321565b600881015460ff16600281101561226e5760ff6006613f4c93611bf98880951461528b565b83600c5416803b15610637576040517f23b872dd000000000000000000000000000000000000000000000000000000008152336004820152306024820152604481018990529089908290606490829084905af18015611eab5761417e575b506007820196875495858716968b549760068601988954928261407a575b505050908b5550855586547fffffffffffffffffffff00ffffffffffffffffffffffffffffffffffffffffff7fffffffffffffffffffffff000000000000000000000000000000000000000000909116337fffffffffffffffffffffff00ffffffffffffffffffffffffffffffffffffffff161774010000000000000000000000000000000000000000171660a89190911b75ff00000000000000000000000000000000000000000016178655611cbc565b60a01c60ff16600381101561416a578d919089810361412d5750505087600c541690813b15614129576040517fa9059cbb0000000000000000000000000000000000000000000000000000000081526001600160a01b0391909116600482015260248101929092528b908290604490829084905af1801561079b57908b91614111575b505090611cbc92915b909192388080613fc8565b61411a90614342565b6141255789386140fd565b8980fd5b8c80fd5b909291935015614146575b50505090611cbc9291614106565b8280928192828215614161575bf115611eab57893880614138565b506108fc614153565b60248e634e487b7160e01b81526021600452fd5b61418a90989198614342565b9638613faa565b6044359060ff821682036107c357565b6064359060ff821682036107c357565b6084359060ff821682036107c357565b60031960409101126107c3576004359060243590565b80548210156141ef5760005260206000200190600090565b634e487b7160e01b600052603260045260246000fd5b600435906001600160a01b03821682036107c357565b9060028210156142285752565b634e487b7160e01b600052602160045260246000fd5b9060038210156142285752565b60208082019080835283518092528060408094019401926000905b83821061427557505050505090565b9091929394836101a060019288516001600160a01b0380825116835284820151858401528087830151168784015260608181840151169084015260809081830151169083015260a0808201519083015260c08082015115159083015260e080820151908301526142ee610100808301519084019061421b565b614301610120808301519084019061423e565b610140818101511515908301526101608082015190830152610180908101511515908201520196019493920190614266565b6024359081151582036107c357565b67ffffffffffffffff811161435657604052565b634e487b7160e01b600052604160045260246000fd5b6101a0810190811067ffffffffffffffff82111761435657604052565b610160810190811067ffffffffffffffff82111761435657604052565b6060810190811067ffffffffffffffff82111761435657604052565b90601f7fffffffffffffffffffffffffffffffffffffffffffffffffffffffffffffffe0910116810190811067ffffffffffffffff82111761435657604052565b67ffffffffffffffff81116143565760051b60200190565b81601f820112156107c35780359161443283614403565b9261444060405194856143c2565b808452602092838086019260051b8201019283116107c3578301905b82821061446a575050505090565b8135815290830190830161445c565b6001600160a01b0360015416330361448d57565b606460405162461bcd60e51b815260206004820152602060248201527f4f776e61626c653a2063616c6c6572206973206e6f7420746865206f776e65726044820152fd5b60ff166003810361450c5750600460005260086020527f9321edea6e3be4df59a344b401fab4f888b556fda1f954244cff9204bad624b85490565b600281036145445750600360005260086020527f625b35f5e76f098dd7c3a05b10e2e5e78a4a01228d60c3b143426cdf36d264555490565b60010361457a57600260005260086020527f6add646517a5b0f6793cd5891b7937d28a5b2981a5d88ebc7cd776088fea90415490565b6000805260086020527f5eff886ea0ce6ca488a3d6e336d6c0f75f46d19b42c06ce5ee98e42c96d256c75490565b8051156141ef5760200190565b8051600110156141ef5760400190565b80518210156141ef5760209160051b010190565b908160209103126107c357516001600160a01b03811681036107c35790565b60209081818403126107c35780519067ffffffffffffffff82116107c357019180601f840112156107c357825161462e81614403565b9361463c60405195866143c2565b818552838086019260051b8201019283116107c3578301905b828210614663575050505090565b81518152908301908301614655565b90815180825260208080930193019160005b828110614692575050505090565b83516001600160a01b031685529381019392810192600101614684565b9060009160409283516146c1816143a6565b60028152843660208301376001600160a01b0380600a54166146e2836145a8565b526004602082600b54168851928380927fad5c46480000000000000000000000000000000000000000000000000000000082525afa9081156148de5784916148fb575b5081614730846145b5565b9116905280600c54168160095416813b15610ed15787517f095ea7b30000000000000000000000000000000000000000000000000000000081526001600160a01b03919091166004820152602481018690529084908290604490829084905af180156148de576148e8575b508580516147a8816143a6565b60028152602036910137600b54168551937fd06ca61f0000000000000000000000000000000000000000000000000000000085528060048601528660248601528385806147f86044820187614672565b0381855afa9485156148de5784956148b8575b50918391614865938361481d886145b5565b518a51968795869485937f4a25d94a0000000000000000000000000000000000000000000000000000000085526004850152602484015260a0604484015260a4830190614672565b30606483015242608483015203925af19485156148ad575061488e9394614892575b50506145b5565b5190565b6148a5913d8091833e6102e581836143c2565b503880614887565b51913d9150823e3d90fd5b61486593919550916148d485933d8086833e6102e581836143c2565b959193509161480b565b87513d86823e3d90fd5b6148f490939193614342565b913861479b565b614913915060203d81116103255761031781836143c2565b38614725565b906149406060936001600160a01b0392979695978452608060208501526080840190614672565b951660408201520152565b90604091825161495a816143a6565b60028152833660208301376001600160a01b0380600b54169085517fad5c4648000000000000000000000000000000000000000000000000000000008152602081600481865afa908115614b1c57600091614afe575b50816149bb856145a8565b91169052600a54166149cc836145b5565b528480516149d9816143a6565b600281526020369101378451927fd06ca61f000000000000000000000000000000000000000000000000000000008452600484015284602484015260008380614a256044820186614672565b0381845afa928315614af357600093614acf575b50614a8e91600091614a4a856145a8565b51614a54866145b5565b519088518096819582947f7ff36ab50000000000000000000000000000000000000000000000000000000084524291309160048601614919565b03925af18015614ac45761488e939450614aa9575b506145b5565b614abd903d806000833e6102e581836143c2565b5038614aa3565b84513d6000823e3d90fd5b91614aea614a8e93600093953d8091833e6102e581836143c2565b93915091614a39565b85513d6000823e3d90fd5b614b16915060203d81116103255761031781836143c2565b386149b0565b87513d6000823e3d90fd5b906040918251614b36816143a6565b60028152833660208301376001600160a01b0380600b54169085517fad5c4648000000000000000000000000000000000000000000000000000000008152602081600481865afa908115614b1c57600091614c9f575b5081614b97856145a8565b91169052600a5416614ba8836145b5565b52848051614bb5816143a6565b600281526020369101378451927fd06ca61f000000000000000000000000000000000000000000000000000000008452600484015284602484015260008380614c016044820186614672565b0381845afa928315614af357600093614c7b575b50614c5f91600091614c26856145b5565b5187518095819482937f7ff36ab50000000000000000000000000000000000000000000000000000000084524291309160048601614919565b039134905af18015614ac45761488e939450614aa957506145b5565b91614c96614c5f93600093953d8091833e6102e581836143c2565b93915091614c15565b614cb7915060203d81116103255761031781836143c2565b38614b8c565b60408051909392614ccd826143a6565b60028252843660208401376001600160a01b039081600b54169086517fad5c4648000000000000000000000000000000000000000000000000000000008152602081600481865afa908115614e1357600091614df5575b5083614d2f866145a8565b9116905282600a5416614d41856145b5565b52868051614d4e816143a6565b600281526020369101378651947fd06ca61f000000000000000000000000000000000000000000000000000000008652600486015286602486015260008580614d9a6044820188614672565b0381855afa948515614b1c57600095614dda575b50614dc85750614c5f91600091600b5416614c26856145b5565b6000915091614a8e92614a4a856145a8565b614dee91953d8091833e6102e581836143c2565b9338614dae565b614e0d915060203d81116103255761031781836143c2565b38614d24565b88513d6000823e3d90fd5b15614e2557565b606460405162461bcd60e51b815260206004820152602060248201527f596f75206172652062616e6e6564206f6e207468697320706c6174666f726d2e6044820152fd5b7fffffffffffffffffffffffffffffffffffffffffffffffffffffffffffffffff8114614e965760010190565b634e487b7160e01b600052601160045260246000fd5b60028210156142285752565b60038210156142285752565b9060028110156142285760ff60ff198354169116179055565b906003811015614228577fffffffffffffffffffffff00ffffffffffffffffffffffffffffffffffffffff74ff000000000000000000000000000000000000000083549260a01b169116179055565b600260005414614f3d576002600055565b606460405162461bcd60e51b815260206004820152601f60248201527f5265656e7472616e637947756172643a207265656e7472616e742063616c6c006044820152fd5b15614f8857565b606460405162461bcd60e51b815260206004820152601460248201527f61646d696e20426c6f636b2054686973204e46540000000000000000000000006044820152fd5b15614fd357565b608460405162461bcd60e51b815260206004820152602560248201527f416e206f776e65722063616e6e6f7420707572636861736520697473206f776e60448201527f204e46542e0000000000000000000000000000000000000000000000000000006064820152fd5b1561504457565b606460405162461bcd60e51b815260206004820152601d60248201527f4e6674206973206e6f74206c697374656420746f2070757263686173650000006044820152fd5b1561508f57565b608460405162461bcd60e51b815260206004820152603660248201527f546865206f776e6572206f662074686973206e667420697320626c61636b6c6960448201527f73746564206f6e207468697320706c6174666f726d2e000000000000000000006064820152fd5b1561510057565b606460405162461bcd60e51b815260206004820152601a60248201527f54686973204e4654206973206e6f742061742061756374696f6e0000000000006044820152fd5b91908201809211614e9657565b91908203918211614e9657565b1561516557565b608460405162461bcd60e51b815260206004820152602660248201527f4e6f7420656e6f75676820657468657220746f20636f7665722061736b696e6760448201527f20707269636500000000000000000000000000000000000000000000000000006064820152fd5b156151d657565b608460405162461bcd60e51b815260206004820152602960248201527f54686973204e4654206973206e6f74206f6e2061756374696f6e20617420746860448201527f65206d6f6d656e742e00000000000000000000000000000000000000000000006064820152fd5b1561524757565b606460405162461bcd60e51b815260206004820152601b60248201527f73656c6c65722063616e27742062696420696e2061756374696f6e00000000006044820152fd5b1561529257565b606460405162461bcd60e51b815260206004820152601960248201527f54686973204e46542069732061742061742061756374696f6e000000000000006044820152fd5b156152dd57565b606460405162461bcd60e51b815260206004820152601c60248201527f4d696e696d756d206269642068617320746f20626520686967686572000000006044820152fd5b1561532857565b608460405162461bcd60e51b815260206004820152603c60248201527f596f75206861766520746f2062696420686967686572207468616e207468652060448201527f686967686573742062696420746f206d616b6520616e206f66666572000000006064820152fd5b81810292918115918404141715614e9657565b906040918251906153b5826143a6565b60028252833660208401376001600160a01b039182600a54166153d7826145a8565b5282600b54168551927fad5c4648000000000000000000000000000000000000000000000000000000008452602084600481855afa8015614b1c576154849560009586926154c6575b5061542a856145b5565b9116905286805161543a816143a6565b6002815260203691013786518095819482937fd06ca61f00000000000000000000000000000000000000000000000000000000845260048401528960248401526044830190614672565b03915afa9081156154bb5761488e9293506000916154a257506145b5565b6154b5913d8091833e6102e581836143c2565b38614aa3565b83513d6000823e3d90fd5b6154df91925060203d81116103255761031781836143c2565b9038615420565b906040918251906154f6826143a6565b60028252833660208401376001600160a01b039182600b54168551927fad5c4648000000000000000000000000000000000000000000000000000000008452602084600481855afa948515614b1c5761548495600095869161557c575b508161555e866145a8565b91169052600a541661556f846145b5565b5286805161543a816143a6565b615594915060203d81116103255761031781836143c2565b38615553565b906155a482614403565b6040906155b3825191826143c2565b8381527fffffffffffffffffffffffffffffffffffffffffffffffffffffffffffffffe06155e18295614403565b019160005b8381106155f35750505050565b60209082516156018161436c565b60008152826000818301526000858301526000606083015260006080830152600060a0830152600060c0830152600060e0830152600061010083015260006101208301526000610140830152600061016083015260006101808301528286010152016155e6565b60005260056020526040600020600381015442119081615693575b501561568e57600190565b600090565b60049150015442103861568356fea2646970667358221220992688477f9c58cc37c525b2d6e25b056b9469a473dc1665ebc579c1f684ff7b64736f6c634300081400334f776e61626c653a2063616c6c6572206973206e6f7420746865206f776e6572",
  "linkReferences": {},
  "deployedLinkReferences": {}
}