{
  "_format": "hh-sol-artifact-1",
  "contractName": "ArtiziaMarketplace",
  "sourceName": "contracts/ArtiziaMarketplace.sol",
  "abi": [
    {
      "inputs": [],
      "stateMutability": "nonpayable",
      "type": "constructor"
    },
    {
      "inputs": [],
      "name": "invalidListingType",
      "type": "error"
    },
    {
      "inputs": [],
      "name": "invalidPrice",
      "type": "error"
    },
    {
      "anonymous": false,
      "inputs": [
        {
          "indexed": false,
          "internalType": "address",
          "name": "nftContract",
          "type": "address"
        },
        {
          "indexed": false,
          "internalType": "uint256",
          "name": "tokenId",
          "type": "uint256"
        },
        {
          "indexed": false,
          "internalType": "address",
          "name": "seller",
          "type": "address"
        },
        {
          "indexed": false,
          "internalType": "address",
          "name": "owner",
          "type": "address"
        },
        {
          "indexed": false,
          "internalType": "address",
          "name": "firstOwner",
          "type": "address"
        },
        {
          "indexed": false,
          "internalType": "uint256",
          "name": "price",
          "type": "uint256"
        },
        {
          "indexed": false,
          "internalType": "uint256",
          "name": "last_bid",
          "type": "uint256"
        },
        {
          "indexed": false,
          "internalType": "uint256",
          "name": "collectionId",
          "type": "uint256"
        },
        {
          "indexed": false,
          "internalType": "uint256",
          "name": "listingType",
          "type": "uint256"
        },
        {
          "indexed": false,
          "internalType": "uint256",
          "name": "start_time",
          "type": "uint256"
        },
        {
          "indexed": false,
          "internalType": "uint256",
          "name": "end_time",
          "type": "uint256"
        },
        {
          "indexed": false,
          "internalType": "uint256",
          "name": "sellerId",
          "type": "uint256"
        },
        {
          "indexed": false,
          "internalType": "uint256",
          "name": "royaltyPrice",
          "type": "uint256"
        }
      ],
      "name": "NFTListed",
      "type": "event"
    },
    {
      "anonymous": false,
      "inputs": [
        {
          "indexed": false,
          "internalType": "address",
          "name": "nftContract",
          "type": "address"
        },
        {
          "indexed": false,
          "internalType": "uint256",
          "name": "tokenId",
          "type": "uint256"
        },
        {
          "indexed": false,
          "internalType": "uint256",
          "name": "price",
          "type": "uint256"
        },
        {
          "indexed": false,
          "internalType": "address",
          "name": "seller",
          "type": "address"
        },
        {
          "indexed": false,
          "internalType": "address",
          "name": "buyer",
          "type": "address"
        },
        {
          "indexed": false,
          "internalType": "uint256",
          "name": "sellerId",
          "type": "uint256"
        },
        {
          "indexed": false,
          "internalType": "uint256",
          "name": "buyerId",
          "type": "uint256"
        }
      ],
      "name": "NFTSold",
      "type": "event"
    },
    {
      "anonymous": false,
      "inputs": [
        {
          "indexed": true,
          "internalType": "address",
          "name": "previousOwner",
          "type": "address"
        },
        {
          "indexed": true,
          "internalType": "address",
          "name": "newOwner",
          "type": "address"
        }
      ],
      "name": "OwnershipTransferred",
      "type": "event"
    },
    {
      "anonymous": false,
      "inputs": [
        {
          "indexed": false,
          "internalType": "uint256",
          "name": "tokenId",
          "type": "uint256"
        },
        {
          "indexed": false,
          "internalType": "bool",
          "name": "decision",
          "type": "bool"
        }
      ],
      "name": "approvalUpdate",
      "type": "event"
    },
    {
      "anonymous": false,
      "inputs": [
        {
          "indexed": false,
          "internalType": "uint256",
          "name": "tokenId",
          "type": "uint256"
        },
        {
          "indexed": false,
          "internalType": "address",
          "name": "seller",
          "type": "address"
        },
        {
          "indexed": false,
          "internalType": "uint256",
          "name": "newTime",
          "type": "uint256"
        }
      ],
      "name": "auctionEndTimeIncreased",
      "type": "event"
    },
    {
      "anonymous": false,
      "inputs": [
        {
          "indexed": false,
          "internalType": "address",
          "name": "nftContract",
          "type": "address"
        },
        {
          "indexed": false,
          "internalType": "uint256",
          "name": "tokenId",
          "type": "uint256"
        },
        {
          "indexed": false,
          "internalType": "address",
          "name": "owner",
          "type": "address"
        },
        {
          "indexed": false,
          "internalType": "uint256",
          "name": "sellerId",
          "type": "uint256"
        }
      ],
      "name": "cancelList",
      "type": "event"
    },
    {
      "anonymous": false,
      "inputs": [
        {
          "indexed": false,
          "internalType": "uint256",
          "name": "tokenId",
          "type": "uint256"
        },
        {
          "indexed": false,
          "internalType": "address",
          "name": "seller",
          "type": "address"
        },
        {
          "indexed": false,
          "internalType": "address",
          "name": "highestBidder",
          "type": "address"
        },
        {
          "indexed": false,
          "internalType": "uint256",
          "name": "highestBidIntoETH",
          "type": "uint256"
        },
        {
          "indexed": false,
          "internalType": "uint256",
          "name": "highestBidIntoUSDT",
          "type": "uint256"
        }
      ],
      "name": "receivedABid",
      "type": "event"
    },
    {
      "stateMutability": "payable",
      "type": "fallback"
    },
    {
      "inputs": [],
      "name": "UNISWAP_ROUTER_ADDRESS",
      "outputs": [
        {
          "internalType": "address",
          "name": "",
          "type": "address"
        }
      ],
      "stateMutability": "view",
      "type": "function"
    },
    {
      "inputs": [],
      "name": "USDT_ADDRESS",
      "outputs": [
        {
          "internalType": "address",
          "name": "",
          "type": "address"
        }
      ],
      "stateMutability": "view",
      "type": "function"
    },
    {
      "inputs": [
        {
          "internalType": "uint256",
          "name": "",
          "type": "uint256"
        }
      ],
      "name": "_idToAuction",
      "outputs": [
        {
          "internalType": "uint256",
          "name": "tokenId",
          "type": "uint256"
        },
        {
          "internalType": "address payable",
          "name": "seller",
          "type": "address"
        },
        {
          "internalType": "uint256",
          "name": "basePrice",
          "type": "uint256"
        },
        {
          "internalType": "uint256",
          "name": "startTime",
          "type": "uint256"
        },
        {
          "internalType": "uint256",
          "name": "endTime",
          "type": "uint256"
        },
        {
          "internalType": "uint256",
          "name": "highestBidIntoETH",
          "type": "uint256"
        },
        {
          "internalType": "uint256",
          "name": "highestBidIntoUSDT",
          "type": "uint256"
        },
        {
          "internalType": "address payable",
          "name": "highestBidder",
          "type": "address"
        },
        {
          "internalType": "enum ArtiziaMarketplace.PaymentMethod",
          "name": "highestBidCurrency",
          "type": "uint8"
        },
        {
          "internalType": "uint8",
          "name": "buyerPlane",
          "type": "uint8"
        },
        {
          "internalType": "bool",
          "name": "royalty",
          "type": "bool"
        }
      ],
      "stateMutability": "view",
      "type": "function"
    },
    {
      "inputs": [
        {
          "internalType": "uint256",
          "name": "",
          "type": "uint256"
        }
      ],
      "name": "_idToNFT",
      "outputs": [
        {
          "internalType": "address",
          "name": "nftContract",
          "type": "address"
        },
        {
          "internalType": "uint256",
          "name": "tokenId",
          "type": "uint256"
        },
        {
          "internalType": "address payable",
          "name": "firstOwner",
          "type": "address"
        },
        {
          "internalType": "address payable",
          "name": "seller",
          "type": "address"
        },
        {
          "internalType": "address payable",
          "name": "owner",
          "type": "address"
        },
        {
          "internalType": "uint256",
          "name": "price",
          "type": "uint256"
        },
        {
          "internalType": "bool",
          "name": "listed",
          "type": "bool"
        },
        {
          "internalType": "uint256",
          "name": "royaltyPrice",
          "type": "uint256"
        },
        {
          "internalType": "enum ArtiziaMarketplace.ListingType",
          "name": "listingType",
          "type": "uint8"
        },
        {
          "internalType": "enum ArtiziaMarketplace.PaymentMethod",
          "name": "paymentMethod",
          "type": "uint8"
        },
        {
          "internalType": "bool",
          "name": "approve",
          "type": "bool"
        },
        {
          "internalType": "uint256",
          "name": "collectionId",
          "type": "uint256"
        },
        {
          "internalType": "bool",
          "name": "royalty",
          "type": "bool"
        }
      ],
      "stateMutability": "view",
      "type": "function"
    },
    {
      "inputs": [],
      "name": "_nftCount",
      "outputs": [
        {
          "internalType": "uint256",
          "name": "",
          "type": "uint256"
        }
      ],
      "stateMutability": "view",
      "type": "function"
    },
    {
      "inputs": [],
      "name": "_nftsSold",
      "outputs": [
        {
          "internalType": "uint256",
          "name": "",
          "type": "uint256"
        }
      ],
      "stateMutability": "view",
      "type": "function"
    },
    {
      "inputs": [
        {
          "internalType": "uint256[]",
          "name": "_tokenId",
          "type": "uint256[]"
        },
        {
          "internalType": "bool",
          "name": "_decision",
          "type": "bool"
        }
      ],
      "name": "approveNfts",
      "outputs": [
        {
          "internalType": "bool",
          "name": "",
          "type": "bool"
        }
      ],
      "stateMutability": "nonpayable",
      "type": "function"
    },
    {
      "inputs": [
        {
          "internalType": "address",
          "name": "_user",
          "type": "address"
        },
        {
          "internalType": "bool",
          "name": "_status",
          "type": "bool"
        }
      ],
      "name": "banUser",
      "outputs": [],
      "stateMutability": "nonpayable",
      "type": "function"
    },
    {
      "inputs": [
        {
          "internalType": "address",
          "name": "",
          "type": "address"
        }
      ],
      "name": "bannedUsers",
      "outputs": [
        {
          "internalType": "bool",
          "name": "",
          "type": "bool"
        }
      ],
      "stateMutability": "view",
      "type": "function"
    },
    {
      "inputs": [
        {
          "internalType": "uint256",
          "name": "_tokenId",
          "type": "uint256"
        },
        {
          "internalType": "uint8",
          "name": "_buyerPlan",
          "type": "uint8"
        }
      ],
      "name": "bidInETH",
      "outputs": [],
      "stateMutability": "payable",
      "type": "function"
    },
    {
      "inputs": [
        {
          "internalType": "uint256",
          "name": "_tokenId",
          "type": "uint256"
        },
        {
          "internalType": "uint256",
          "name": "_amount",
          "type": "uint256"
        },
        {
          "internalType": "uint8",
          "name": "_buyerPlan",
          "type": "uint8"
        }
      ],
      "name": "bidInUSDT",
      "outputs": [],
      "stateMutability": "payable",
      "type": "function"
    },
    {
      "inputs": [
        {
          "internalType": "address",
          "name": "_nftContract",
          "type": "address"
        },
        {
          "internalType": "uint256",
          "name": "_tokenId",
          "type": "uint256"
        },
        {
          "internalType": "uint8",
          "name": "_sellerPlan",
          "type": "uint8"
        },
        {
          "internalType": "uint8",
          "name": "_buyerPlan",
          "type": "uint8"
        },
        {
          "internalType": "uint256",
          "name": "sellerId",
          "type": "uint256"
        },
        {
          "internalType": "uint256",
          "name": "buyerId",
          "type": "uint256"
        }
      ],
      "name": "buyWithETH",
      "outputs": [],
      "stateMutability": "payable",
      "type": "function"
    },
    {
      "inputs": [
        {
          "internalType": "address",
          "name": "_nftContract",
          "type": "address"
        },
        {
          "internalType": "uint256",
          "name": "_tokenId",
          "type": "uint256"
        },
        {
          "internalType": "uint8",
          "name": "_sellerPlan",
          "type": "uint8"
        },
        {
          "internalType": "address",
          "name": "_buyerAddress",
          "type": "address"
        },
        {
          "internalType": "uint8",
          "name": "_buyerPlan",
          "type": "uint8"
        },
        {
          "internalType": "uint256",
          "name": "sellerId",
          "type": "uint256"
        },
        {
          "internalType": "uint256",
          "name": "buyerId",
          "type": "uint256"
        }
      ],
      "name": "buyWithFIAT",
      "outputs": [],
      "stateMutability": "payable",
      "type": "function"
    },
    {
      "inputs": [
        {
          "internalType": "address",
          "name": "_nftContract",
          "type": "address"
        },
        {
          "internalType": "uint256",
          "name": "_tokenId",
          "type": "uint256"
        },
        {
          "internalType": "uint256",
          "name": "_amount",
          "type": "uint256"
        },
        {
          "internalType": "uint8",
          "name": "_sellerPlan",
          "type": "uint8"
        },
        {
          "internalType": "uint8",
          "name": "_buyerPlan",
          "type": "uint8"
        },
        {
          "internalType": "uint256",
          "name": "sellerId",
          "type": "uint256"
        },
        {
          "internalType": "uint256",
          "name": "buyerId",
          "type": "uint256"
        }
      ],
      "name": "buyWithUSDT",
      "outputs": [],
      "stateMutability": "payable",
      "type": "function"
    },
    {
      "inputs": [
        {
          "internalType": "address",
          "name": "_nftContract",
          "type": "address"
        },
        {
          "internalType": "uint256",
          "name": "_tokenId",
          "type": "uint256"
        },
        {
          "internalType": "uint256",
          "name": "_sellerId",
          "type": "uint256"
        }
      ],
      "name": "cancelListing",
      "outputs": [],
      "stateMutability": "payable",
      "type": "function"
    },
    {
      "inputs": [
        {
          "internalType": "address",
          "name": "_nftContract",
          "type": "address"
        },
        {
          "internalType": "uint256",
          "name": "_tokenId",
          "type": "uint256"
        },
        {
          "internalType": "uint8",
          "name": "_sellerPlan",
          "type": "uint8"
        },
        {
          "internalType": "uint256",
          "name": "sellerId",
          "type": "uint256"
        },
        {
          "internalType": "uint256",
          "name": "buyerId",
          "type": "uint256"
        }
      ],
      "name": "closeAuction",
      "outputs": [],
      "stateMutability": "payable",
      "type": "function"
    },
    {
      "inputs": [
        {
          "internalType": "uint256",
          "name": "",
          "type": "uint256"
        },
        {
          "internalType": "uint256",
          "name": "",
          "type": "uint256"
        }
      ],
      "name": "collection",
      "outputs": [
        {
          "internalType": "uint256",
          "name": "",
          "type": "uint256"
        }
      ],
      "stateMutability": "view",
      "type": "function"
    },
    {
      "inputs": [
        {
          "internalType": "uint256",
          "name": "_collectionId",
          "type": "uint256"
        }
      ],
      "name": "getCollectionNfts",
      "outputs": [
        {
          "components": [
            {
              "internalType": "address",
              "name": "nftContract",
              "type": "address"
            },
            {
              "internalType": "uint256",
              "name": "tokenId",
              "type": "uint256"
            },
            {
              "internalType": "address payable",
              "name": "firstOwner",
              "type": "address"
            },
            {
              "internalType": "address payable",
              "name": "seller",
              "type": "address"
            },
            {
              "internalType": "address payable",
              "name": "owner",
              "type": "address"
            },
            {
              "internalType": "uint256",
              "name": "price",
              "type": "uint256"
            },
            {
              "internalType": "bool",
              "name": "listed",
              "type": "bool"
            },
            {
              "internalType": "uint256",
              "name": "royaltyPrice",
              "type": "uint256"
            },
            {
              "internalType": "enum ArtiziaMarketplace.ListingType",
              "name": "listingType",
              "type": "uint8"
            },
            {
              "internalType": "enum ArtiziaMarketplace.PaymentMethod",
              "name": "paymentMethod",
              "type": "uint8"
            },
            {
              "internalType": "bool",
              "name": "approve",
              "type": "bool"
            },
            {
              "internalType": "uint256",
              "name": "collectionId",
              "type": "uint256"
            },
            {
              "internalType": "bool",
              "name": "royalty",
              "type": "bool"
            }
          ],
          "internalType": "struct ArtiziaMarketplace.NFT[]",
          "name": "",
          "type": "tuple[]"
        }
      ],
      "stateMutability": "view",
      "type": "function"
    },
    {
      "inputs": [
        {
          "internalType": "uint256",
          "name": "EthAmountIn",
          "type": "uint256"
        }
      ],
      "name": "getETHIntoUSDT",
      "outputs": [
        {
          "internalType": "uint256",
          "name": "",
          "type": "uint256"
        }
      ],
      "stateMutability": "view",
      "type": "function"
    },
    {
      "inputs": [
        {
          "internalType": "uint256",
          "name": "EthAmountOut",
          "type": "uint256"
        }
      ],
      "name": "getETHOutUSDTInOutPut",
      "outputs": [
        {
          "internalType": "uint256",
          "name": "",
          "type": "uint256"
        }
      ],
      "stateMutability": "view",
      "type": "function"
    },
    {
      "inputs": [],
      "name": "getListedNfts",
      "outputs": [
        {
          "components": [
            {
              "internalType": "address",
              "name": "nftContract",
              "type": "address"
            },
            {
              "internalType": "uint256",
              "name": "tokenId",
              "type": "uint256"
            },
            {
              "internalType": "address payable",
              "name": "firstOwner",
              "type": "address"
            },
            {
              "internalType": "address payable",
              "name": "seller",
              "type": "address"
            },
            {
              "internalType": "address payable",
              "name": "owner",
              "type": "address"
            },
            {
              "internalType": "uint256",
              "name": "price",
              "type": "uint256"
            },
            {
              "internalType": "bool",
              "name": "listed",
              "type": "bool"
            },
            {
              "internalType": "uint256",
              "name": "royaltyPrice",
              "type": "uint256"
            },
            {
              "internalType": "enum ArtiziaMarketplace.ListingType",
              "name": "listingType",
              "type": "uint8"
            },
            {
              "internalType": "enum ArtiziaMarketplace.PaymentMethod",
              "name": "paymentMethod",
              "type": "uint8"
            },
            {
              "internalType": "bool",
              "name": "approve",
              "type": "bool"
            },
            {
              "internalType": "uint256",
              "name": "collectionId",
              "type": "uint256"
            },
            {
              "internalType": "bool",
              "name": "royalty",
              "type": "bool"
            }
          ],
          "internalType": "struct ArtiziaMarketplace.NFT[]",
          "name": "",
          "type": "tuple[]"
        }
      ],
      "stateMutability": "view",
      "type": "function"
    },
    {
      "inputs": [
        {
          "internalType": "address",
          "name": "_user",
          "type": "address"
        }
      ],
      "name": "getMyListedNfts",
      "outputs": [
        {
          "components": [
            {
              "internalType": "address",
              "name": "nftContract",
              "type": "address"
            },
            {
              "internalType": "uint256",
              "name": "tokenId",
              "type": "uint256"
            },
            {
              "internalType": "address payable",
              "name": "firstOwner",
              "type": "address"
            },
            {
              "internalType": "address payable",
              "name": "seller",
              "type": "address"
            },
            {
              "internalType": "address payable",
              "name": "owner",
              "type": "address"
            },
            {
              "internalType": "uint256",
              "name": "price",
              "type": "uint256"
            },
            {
              "internalType": "bool",
              "name": "listed",
              "type": "bool"
            },
            {
              "internalType": "uint256",
              "name": "royaltyPrice",
              "type": "uint256"
            },
            {
              "internalType": "enum ArtiziaMarketplace.ListingType",
              "name": "listingType",
              "type": "uint8"
            },
            {
              "internalType": "enum ArtiziaMarketplace.PaymentMethod",
              "name": "paymentMethod",
              "type": "uint8"
            },
            {
              "internalType": "bool",
              "name": "approve",
              "type": "bool"
            },
            {
              "internalType": "uint256",
              "name": "collectionId",
              "type": "uint256"
            },
            {
              "internalType": "bool",
              "name": "royalty",
              "type": "bool"
            }
          ],
          "internalType": "struct ArtiziaMarketplace.NFT[]",
          "name": "",
          "type": "tuple[]"
        }
      ],
      "stateMutability": "view",
      "type": "function"
    },
    {
      "inputs": [
        {
          "internalType": "address",
          "name": "_user",
          "type": "address"
        }
      ],
      "name": "getMyNfts",
      "outputs": [
        {
          "components": [
            {
              "internalType": "address",
              "name": "nftContract",
              "type": "address"
            },
            {
              "internalType": "uint256",
              "name": "tokenId",
              "type": "uint256"
            },
            {
              "internalType": "address payable",
              "name": "firstOwner",
              "type": "address"
            },
            {
              "internalType": "address payable",
              "name": "seller",
              "type": "address"
            },
            {
              "internalType": "address payable",
              "name": "owner",
              "type": "address"
            },
            {
              "internalType": "uint256",
              "name": "price",
              "type": "uint256"
            },
            {
              "internalType": "bool",
              "name": "listed",
              "type": "bool"
            },
            {
              "internalType": "uint256",
              "name": "royaltyPrice",
              "type": "uint256"
            },
            {
              "internalType": "enum ArtiziaMarketplace.ListingType",
              "name": "listingType",
              "type": "uint8"
            },
            {
              "internalType": "enum ArtiziaMarketplace.PaymentMethod",
              "name": "paymentMethod",
              "type": "uint8"
            },
            {
              "internalType": "bool",
              "name": "approve",
              "type": "bool"
            },
            {
              "internalType": "uint256",
              "name": "collectionId",
              "type": "uint256"
            },
            {
              "internalType": "bool",
              "name": "royalty",
              "type": "bool"
            }
          ],
          "internalType": "struct ArtiziaMarketplace.NFT[]",
          "name": "",
          "type": "tuple[]"
        }
      ],
      "stateMutability": "view",
      "type": "function"
    },
    {
      "inputs": [
        {
          "internalType": "uint256",
          "name": "_tokenId",
          "type": "uint256"
        }
      ],
      "name": "getStatusOfAuction",
      "outputs": [
        {
          "internalType": "bool",
          "name": "",
          "type": "bool"
        }
      ],
      "stateMutability": "view",
      "type": "function"
    },
    {
      "inputs": [
        {
          "internalType": "uint8",
          "name": "level",
          "type": "uint8"
        }
      ],
      "name": "getSubscriptionFee",
      "outputs": [
        {
          "internalType": "uint256",
          "name": "",
          "type": "uint256"
        }
      ],
      "stateMutability": "view",
      "type": "function"
    },
    {
      "inputs": [
        {
          "internalType": "uint256",
          "name": "usdtAmountIn",
          "type": "uint256"
        }
      ],
      "name": "getUSDTIntoETH",
      "outputs": [
        {
          "internalType": "uint256",
          "name": "",
          "type": "uint256"
        }
      ],
      "stateMutability": "view",
      "type": "function"
    },
    {
      "inputs": [
        {
          "internalType": "uint256",
          "name": "USDTAmountOut",
          "type": "uint256"
        }
      ],
      "name": "getUSDTOutETHInOutPut",
      "outputs": [
        {
          "internalType": "uint256",
          "name": "",
          "type": "uint256"
        }
      ],
      "stateMutability": "view",
      "type": "function"
    },
    {
      "inputs": [
        {
          "internalType": "address",
          "name": "_user",
          "type": "address"
        }
      ],
      "name": "getUsersNfts",
      "outputs": [
        {
          "components": [
            {
              "internalType": "address",
              "name": "nftContract",
              "type": "address"
            },
            {
              "internalType": "uint256",
              "name": "tokenId",
              "type": "uint256"
            },
            {
              "internalType": "address payable",
              "name": "firstOwner",
              "type": "address"
            },
            {
              "internalType": "address payable",
              "name": "seller",
              "type": "address"
            },
            {
              "internalType": "address payable",
              "name": "owner",
              "type": "address"
            },
            {
              "internalType": "uint256",
              "name": "price",
              "type": "uint256"
            },
            {
              "internalType": "bool",
              "name": "listed",
              "type": "bool"
            },
            {
              "internalType": "uint256",
              "name": "royaltyPrice",
              "type": "uint256"
            },
            {
              "internalType": "enum ArtiziaMarketplace.ListingType",
              "name": "listingType",
              "type": "uint8"
            },
            {
              "internalType": "enum ArtiziaMarketplace.PaymentMethod",
              "name": "paymentMethod",
              "type": "uint8"
            },
            {
              "internalType": "bool",
              "name": "approve",
              "type": "bool"
            },
            {
              "internalType": "uint256",
              "name": "collectionId",
              "type": "uint256"
            },
            {
              "internalType": "bool",
              "name": "royalty",
              "type": "bool"
            }
          ],
          "internalType": "struct ArtiziaMarketplace.NFT[]",
          "name": "",
          "type": "tuple[]"
        }
      ],
      "stateMutability": "view",
      "type": "function"
    },
    {
      "inputs": [
        {
          "internalType": "address",
          "name": "_nftContract",
          "type": "address"
        },
        {
          "internalType": "uint256[]",
          "name": "_tokenId",
          "type": "uint256[]"
        },
        {
          "internalType": "uint256[]",
          "name": "_price",
          "type": "uint256[]"
        },
        {
          "internalType": "uint256[]",
          "name": "_royaltyPrice",
          "type": "uint256[]"
        },
        {
          "internalType": "uint256",
          "name": "_listingType",
          "type": "uint256"
        },
        {
          "internalType": "uint256[]",
          "name": "_startTime",
          "type": "uint256[]"
        },
        {
          "internalType": "uint256[]",
          "name": "_endTime",
          "type": "uint256[]"
        },
        {
          "internalType": "uint256",
          "name": "_collectionId",
          "type": "uint256"
        },
        {
          "internalType": "uint256",
          "name": "_paymentMethod",
          "type": "uint256"
        },
        {
          "internalType": "uint256",
          "name": "_sellerId",
          "type": "uint256"
        }
      ],
      "name": "listNft",
      "outputs": [],
      "stateMutability": "payable",
      "type": "function"
    },
    {
      "inputs": [],
      "name": "owner",
      "outputs": [
        {
          "internalType": "address",
          "name": "",
          "type": "address"
        }
      ],
      "stateMutability": "view",
      "type": "function"
    },
    {
      "inputs": [],
      "name": "renounceOwnership",
      "outputs": [],
      "stateMutability": "nonpayable",
      "type": "function"
    },
    {
      "inputs": [
        {
          "internalType": "address",
          "name": "_nftContract",
          "type": "address"
        },
        {
          "internalType": "uint256",
          "name": "_tokenId",
          "type": "uint256"
        },
        {
          "internalType": "uint256",
          "name": "_price",
          "type": "uint256"
        },
        {
          "internalType": "uint256",
          "name": "_listingType",
          "type": "uint256"
        },
        {
          "internalType": "uint256",
          "name": "_startTime",
          "type": "uint256"
        },
        {
          "internalType": "uint256",
          "name": "_endTime",
          "type": "uint256"
        },
        {
          "internalType": "uint256",
          "name": "_sellerId",
          "type": "uint256"
        }
      ],
      "name": "resellNft",
      "outputs": [],
      "stateMutability": "nonpayable",
      "type": "function"
    },
    {
      "inputs": [
        {
          "internalType": "enum ArtiziaMarketplace.SubscriptionLevel",
          "name": "",
          "type": "uint8"
        }
      ],
      "name": "subscriptionFees",
      "outputs": [
        {
          "internalType": "uint256",
          "name": "",
          "type": "uint256"
        }
      ],
      "stateMutability": "view",
      "type": "function"
    },
    {
      "inputs": [
        {
          "internalType": "uint256",
          "name": "usdtAmountOut",
          "type": "uint256"
        },
        {
          "internalType": "uint256",
          "name": "meth",
          "type": "uint256"
        }
      ],
      "name": "swapETHForUSDT",
      "outputs": [
        {
          "internalType": "uint256",
          "name": "",
          "type": "uint256"
        }
      ],
      "stateMutability": "payable",
      "type": "function"
    },
    {
      "inputs": [
        {
          "internalType": "uint256",
          "name": "usdtAmountIn",
          "type": "uint256"
        }
      ],
      "name": "swapUSDTForETH",
      "outputs": [
        {
          "internalType": "uint256",
          "name": "",
          "type": "uint256"
        }
      ],
      "stateMutability": "nonpayable",
      "type": "function"
    },
    {
      "inputs": [
        {
          "internalType": "address",
          "name": "newOwner",
          "type": "address"
        }
      ],
      "name": "transferOwnership",
      "outputs": [],
      "stateMutability": "nonpayable",
      "type": "function"
    },
    {
      "inputs": [
        {
          "internalType": "uint256",
          "name": "_amount",
          "type": "uint256"
        }
      ],
      "name": "withdrawTokens",
      "outputs": [],
      "stateMutability": "nonpayable",
      "type": "function"
    },
    {
      "stateMutability": "payable",
      "type": "receive"
    }
  ],
  "bytecode": "0x608060409080825234620001ad576001600081815581546001600160a01b0319808216339081178555929493926001600160a01b039283167f8be0079c531659141344cd1fd0a4f28419497f9722a3daafe3b4186f6b6457e08780a38260025582600355737a250d5630b4cf539739df2c5dacb4c659f2488d908181600954161760095573dac17f958d2ee523a2206206994597c13d831ec7918282600a541617600a5581600b541617600b55600c541617600c55600484526020926008845284868120553382845416036200017e575060038452600883526064858520553381835416036200014d57600284526008835260968585205533915416036200011c57816008849282609695525220555161572a9081620001b38239f35b60649083519062461bcd60e51b82528060048301526024820152600080516020620058dd8339815191526044820152fd5b60648386519062461bcd60e51b82528060048301526024820152600080516020620058dd8339815191526044820152fd5b6064908462461bcd60e51b82528060048301526024820152600080516020620058dd8339815191526044820152fd5b600080fdfe60806040526004361015610018575b361561001657005b005b6000803560e01c806302a18c8014613e5e5780632381c58d14613e3f578063315a095d14613d9b57806331824a4914613d7d5780634afbcdae14613d3d5780634b3320e014613ba75780634d3fb81714613b7d5780635021b42b146135755780635274cff6146134135780635f96218b146133f4578063715018a61461338057806379b36943146133595780638110c57914612e395780638988d07814612dfc5780638cd410f414612ddd5780638d6cb3fb14612c8a5780638da5cb5b14612c635780638ee223f914612c0c5780639c74405814612be3578063aeb46a1b14612bab578063b4fa041214612afa578063b8820d8214612ade578063b9e07df114612a00578063c1892058146129d9578063c36ac2d21461286c578063c3e11ced146127a9578063d12824f114612637578063d6cbb20214612619578063d6fc3dbd14612347578063e599423114611f59578063e7fc941214611b26578063e89fe4b714611320578063f2fde38b1461122e578063f6c1b77a1461106d578063f711a4e9146107c8578063fbe8d30f1461033e5763fe25db09146101bb575061000e565b3461033b57602080600319360112610337576040516101d9816143f9565b6002815260403683830137826001600160a01b039182600b5416604051937fad5c46480000000000000000000000000000000000000000000000000000000085528585600481855afa801561032c576102aa9585916102ff575b508161023e856145fb565b91169052600a541661024f83614608565b526040805161025d816143f9565b60028152863691013760405180809581947f1f00ca7400000000000000000000000000000000000000000000000000000000835260043560048401526040602484015260448301906146c5565b03915afa9081156102f457836102c89394926102d1575b50506145fb565b51604051908152f35b6102ed92503d8091833e6102e58183614415565b81019061464b565b38806102c1565b6040513d85823e3d90fd5b61031f9150873d8911610325575b6103178183614415565b81019061462c565b38610233565b503d61030d565b6040513d86823e3d90fd5b5080fd5b80fd5b5060e060031936011261033b57610353614258565b60243561035e6141e4565b90606435906001600160a01b03938483168093036107c35761037e614204565b93828752600460205260019560ff936103a68886600860408d20015460101c16151514614fd4565b33895260066020526103be8560408b20541615614e71565b6103c6614f7f565b885260046020526103e36103dd60408a2093614524565b96614524565b90600383019681885416956103fa3388141561501f565b868b5260066020526104128160408d205416156150db565b60088501918183541660028110156107af5761042e901561514c565b60068601946104438c84885416151514615090565b8c60058801805491612710926104716104698583049261046388856153e5565b90615197565b3410156151b1565b8a87600a8201541615600014610703575050506104a39261049d6104a9959361046393540493846153e5565b926153e5565b346151a4565b915460081c1660038110156106ef578a91829161065e57818091858c5416828215610655575bf11561064a57875b6104e3575b8888815580f35b8316918888820193845490803b15610646576040517f23b872dd0000000000000000000000000000000000000000000000000000000081523060048201526001600160a01b038a166024820152604481019290925282908290606490829084905af1801561063b5761061b575b5050907f36622ac3c55df2afe092b02595624d4572c4cc04125857ad1b41a57b58e7cdf396600461060c959493017fffffffffffffffffffffffff0000000000000000000000000000000000000000908882825416179055815416905560ff1981541690556105c0600254614ebc565b60025554604080516001600160a01b039384168152602081019290925234908201529281166060840152909216608082015260a43560a082015260c43560c082015290819060e0820190565b0390a1388080808080806104dc565b610629909594939295614395565b610637579091928838610550565b8880fd5b6040513d84823e3d90fd5b8280fd5b6040513d8a823e3d90fd5b506108fc6104cf565b6106689150614b7a565b82600c541690838a541690823b156106eb576040517fa9059cbb0000000000000000000000000000000000000000000000000000000081526001600160a01b0392909216600483015260248201529082908290604490829084905af1801561063b576106d7575b5050876104d7565b6106e090614395565b6106375788386106cf565b8380fd5b60248b634e487b7160e01b81526021600452fd5b82958395508394506107419261046361073b9261049d61072c60076107349f9d970154856153e5565b9d8e346151a4565b95846153e5565b906151a4565b968860028c0154168282156107a6575bf11561079b575460081c1660038110156106ef578a91829161079157818091858c5416828215610788575bf11561064a57876104d7565b506108fc61077c565b610668915061499e565b6040513d8d823e3d90fd5b506108fc610751565b60248d634e487b7160e01b81526021600452fd5b600080fd5b5060a060031936011261033b576107dd614258565b6107e56141e4565b60248035845260206004815260408520600582526108066040872094614524565b946007850194855460ff9661081f888360a81c16614524565b9760038601996001600160a01b03998a8c5416948b811680156000146109e75750505050505050600186910154169384330361097e5750841693866001830194855490873b15610646576040517f23b872dd0000000000000000000000000000000000000000000000000000000081523060048201526001600160a01b0391909116602482015260448101919091528181606481838b5af1801561063b5761095c575b505090600560e0959493927f36622ac3c55df2afe092b02595624d4572c4cc04125857ad1b41a57b58e7cdf3976006840160ff19815416905554169360048301857fffffffffffffffffffffffff000000000000000000000000000000000000000082541617905554910154916040519485528401526040830152806060830152608082015260643560a082015260843560c0820152a180f35b61096b90969594939296614395565b61097a579091929386386108c2565b8680fd5b83602c6084926040519262461bcd60e51b845260048401528201527f4f6e6c79207468652073656c6c65722063616e20636c6f73652074686520756e60448201527f736f6c642061756374696f6e00000000000000000000000000000000000000006064820152fd5b9b9798969193959b9a999092949a3314801561105e575b15610ff5576004820154421115610fb25750600581019860068a549201549286600889015460081c166003811015610f9e5780610d02575050858b5460a01c16906003821015610cf057508d9594928694926001899314600014610ca55750610a6690614702565b94600a8201541615600014610c2057508361073b849593610463610a949461049d61271089980493846153e5565b868c5416828215610c17575bf115610c0c575b8183169088838754169260018301938454823b156106eb576040517f23b872dd0000000000000000000000000000000000000000000000000000000081523060048201526001600160a01b0392909216602483015260448201529082908290606490829084905af1801561063b57610bee575b505090600683927f36622ac3c55df2afe092b02595624d4572c4cc04125857ad1b41a57b58e7cdf399610be8979695895416600483017fffffffffffffffffffffffff0000000000000000000000000000000000000000918282541617905581541690550160ff198154169055610b92600254614ebc565b600255549254945416604051958695608435946064359488939060c09591989796939860e08601996001600160a01b03948580941688526020880152604087015216606085015216608083015260a08201520152565b0390a180f35b610bfd90969594939296614395565b61063757909192938838610b1a565b6040513d89823e3d90fd5b506108fc610aa0565b610c50849361073b87610463879661049d610734610c4961271060078c9b0154960495866153e5565b809d6151a4565b9488600289015416828215610c9c575bf115610c8f5781808092868c5416828215610c86575bf1610aa7576040513d89823e3d90fd5b506108fc610c76565b50604051903d90823e3d90fd5b506108fc610c60565b959050600a8201541615600014610c2057508361073b849593610463610cd59461049d61271089980493846153e5565b868c5416828215610c8657f1610aa7576040513d89823e3d90fd5b8e634e487b7160e01b81526021600452fd5b94969594929392600114610d1d575b50505050505050610aa7565b60a01c8516906003821015610cf057508d959493929190610f155750610d429061499e565b91600a8601541615600014610df95761073b90610463610d6b9461049d612710860493846153e5565b83600c541690848a541690823b156106eb576040517fa9059cbb0000000000000000000000000000000000000000000000000000000081526001600160a01b0392909216600483015260248201529082908290604490829084905af1801561063b57610de1575b50505b38808080808080610d11565b610dea90614395565b610df5578738610dd2565b8780fd5b61073b610e26929361046360078801549161049d610734610e1f6127108a0495866153e5565b80996151a4565b9084600c5416908560028601541691803b15610efd576040517fa9059cbb000000000000000000000000000000000000000000000000000000008082526001600160a01b03949094166004820152602481019290925284908290604490829084905af190811561032c578491610f01575b505084600c541691858b541692803b15610efd576040519283526001600160a01b03909316600483015260248201529082908290818381604481015b03925af1801561063b57610ee9575b5050610dd5565b610ef290614395565b610df5578738610ee2565b8480fd5b610f0a90614395565b610646578238610e97565b929050600a8601541615600014610df95761073b90610463610f409461049d612710860493846153e5565b83600c541690848a541690823b156106eb576040517fa9059cbb0000000000000000000000000000000000000000000000000000000081526001600160a01b0390921660048301526024820152908290829081838160448101610ed3565b50508d634e487b7160e01b81526021600452fd5b606490601a8b6040519262461bcd60e51b845260048401528201527f41756374696f6e20686173206e6f7420656e646564207965742e0000000000006044820152fd5b60849060388b6040519262461bcd60e51b845260048401528201527f4f6e6c792074686520686967686573742062696464657220616e64207468652060448201527f73656c6c65722063616e20636c61696d20746865204e465400000000000000006064820152fd5b508760018301541633146109fe565b503461033b5760208060031936011261033757611088614258565b9133815260069081835260ff916110a58360408420541615614e71565b600392835494839184926001600160a01b03809916935b8881106111f357506110cd906155ed565b9785805b8981106110ea57604051806110e68d8261429e565b0390f35b808252600485528a60408320846004820154168b898214611118575b5050505061111390614ebc565b6110d1565b9a6111e7938989600a611113989f968f83906111e1988e899b6040519861113e8a6143bf565b828754168a526001870154908a01528160028701541660408a01528501541660608801526080870152600583015460a087015282015416151560c0850152600781015460e08501528260086111af828285015480936111a38383166101008c01614eff565b1c166101208801614f0b565b60101c161515610140850152600981015461016085015201541615156101808201526111db8383614618565b52614618565b50614ebc565b9790508a38808b611106565b80875260048452848a600460408a2001541614611219575b61121490614ebc565b6110bc565b9061122661121491614ebc565b91905061120b565b503461033b57602060031936011261033b57611248614258565b6112506144cc565b6001600160a01b038091169081156112b657600154827fffffffffffffffffffffffff0000000000000000000000000000000000000000821617600155167f8be0079c531659141344cd1fd0a4f28419497f9722a3daafe3b4186f6b6457e0600080a380f35b608460405162461bcd60e51b815260206004820152602660248201527f4f776e61626c653a206e6577206f776e657220697320746865207a65726f206160448201527f64647265737300000000000000000000000000000000000000000000000000006064820152fd5b5061014060031936011261033b57611336614258565b67ffffffffffffffff91906024358381116106465761135990369060040161446e565b926044358181116106eb5761137290369060040161446e565b90606435818111610efd5761138b90369060040161446e565b9060a435818111611b22576113a490369060040161446e565b9060c435908111611b22576113bd90369060040161446e565b916113c6614f7f565b33865260066020526113df60ff60408820541615614e71565b855b8751811015611b1a576113f48186614618565b516114235760046040517fb52612a6000000000000000000000000000000000000000000000000000000008152fd5b600160843511156114585760046040517f17142a4d000000000000000000000000000000000000000000000000000000008152fd5b6114628189614618565b516001600160a01b0387163b15610df5576040517f23b872dd00000000000000000000000000000000000000000000000000000000815233600482015230602482015260448101919091528781606481836001600160a01b038c165af1801561064a57908891611b06575b50506114da600354614ebc565b60035560e43587526007602052604087206114f5828a614618565b519080549068010000000000000000821015611af2579061151b9160018201815561422a565b7fffffffffffffffffffffffffffffffffffffffffffffffffffffffffffffffff829392549160031b92831b921b19161790556115588189614618565b516115638287614618565b5161156e8385614618565b519060026084351015611ade576003610104351015611ade5760405192611594846143bf565b6001600160a01b038a168452602084015233604084015233606084015230608084015260a0830152600160c083015260e08201526115d86084356101008301614eff565b6115e9610104356101208301614f0b565b600161014082015260e4356101608201528761018082015261160b828a614618565b518852600460205260408820906001600160a01b038151167fffffffffffffffffffffffff000000000000000000000000000000000000000083541617825560208101516001830155600282016001600160a01b036040830151167fffffffffffffffffffffffff0000000000000000000000000000000000000000825416179055600382016001600160a01b036060830151167fffffffffffffffffffffffff0000000000000000000000000000000000000000825416179055600482016001600160a01b036080830151167fffffffffffffffffffffffff000000000000000000000000000000000000000082541617905560a0810151600583015561172960c08201511515600684019060ff60ff1983541691151516179055565b60e081015160078301556101008101516002811015611ade5761174f9060088401614f17565b6101208101516003811015611ade57600880840180546101408501517fffffffffffffffffffffffffffffffffffffffffffffffffffffffffff0000ff9091169390921b61ff00169290921790151560101b62ff0000161790556117d89190600a906101809061016081015160098501550151151591019060ff60ff1983541691151516179055565b6001608435146118cb575b807feac6f2088d50f70fa313f09cee29a023e04fb6a48ac1a2c4b7d27b7bdb40c136876118136118c6948c614618565b516118be611821858b614618565b5161182c868a614618565b5190611838878c614618565b51611843888b614618565b51604080516001600160a01b039098168852602088019690965233958701869052306060880152608087019590955260a0860191909152600060c086015260e43560e08601526084356101008601526101208501919091526101408401526101243561016084015261018083019190915281906101a0820190565b0390a1614ebc565b6113e1565b6118d58189614618565b516118e08287614618565b516118eb8386614618565b516118f68488614618565b519160405193611905856143dc565b84523360208501526040840152606083015260808201528760a08201528760c08201528760e082015261193f610104356101008301614f0b565b609661012082015287610140820152611958828a614618565b5188526005602052604088209080518255600182016001600160a01b036020830151167fffffffffffffffffffffffff000000000000000000000000000000000000000082541617905560408101516002830155606081015160038301556080810151600483015560a0810151600583015560c081015160068301556001600160a01b0360e0820151167fffffffffffffffffffffffff00000000000000000000000000000000000000006007840154161760078301556101008101516003811015611ade576101408392611a35600793846118c6989701614f30565b611a8b60ff61012083015116848601907fffffffffffffffffffff00ffffffffffffffffffffffffffffffffffffffffff75ff00000000000000000000000000000000000000000083549260a81b169116179055565b015115157fffffffffffffffffff00ffffffffffffffffffffffffffffffffffffffffffff76ff00000000000000000000000000000000000000000000838501549260b01b1691161791015590506117e3565b60248a634e487b7160e01b81526021600452fd5b60248a634e487b7160e01b81526041600452fd5b611b0f90614395565b61097a5786386114cd565b866001815580f35b8580fd5b50604060031936011261033b5760ff9060243560043583821682036107c3578083526005602052611b6860408420600381015442119081611f4b575b50615222565b8083526004602052600193611b8c8582600860408820015460101c16151514614fd4565b3384526006602052611ba48160408620541615614e71565b8184526005602052604084209460046020526040852090611bc485614524565b9660028101549561271096611bdb8a8983046153e5565b611bed600585019b8c549a8b046153e5565b916001600160a01b0396611c0988600383015416331415615293565b8860088201541660028110156107af57611c5993611c609593611c468a8d6006611c5397611c3b84611c4b99146152de565b015416151514615090565b615197565b341015615329565b89615197565b3411615374565b600782019687549085821690600685019788549383611e47575b5050505050611cfe90348a55611c8f34615539565b865587547fffffffffffffffffffff0000ffffffffffffffffffffffffffffffffffffffff33167fffffffffffffffffffff000000000000000000000000000000000000000000009091161760a89190911b75ff00000000000000000000000000000000000000000016178755565b600481018054906102584201804211611e33578210611d84575b50500154935495549154604080519485526001600160a01b039583168616602086015296909116939093169482019490945260608101939093526080830152907fd2bac7185d7afc210e088ad31a00e9c773a7ad5c90bbf00d874a34af391b46b3908060a08101610be8565b61012c8201809211611e1f579284927f8e1cb85d0855921b3c958b068fa707efb7db88099af764dd47f37eef82c3334d837fd2bac7185d7afc210e088ad31a00e9c773a7ad5c90bbf00d874a34af391b46b39b9c9794610be8999755848484015416611e106040519283928d846001600160a01b03604092959493606083019683521660208201520152565b0390a192949998509294611d18565b602489634e487b7160e01b81526011600452fd5b60248a634e487b7160e01b81526011600452fd5b60a01c166003811015611f37578b9190878103611efc5750505085600c541690813b15611ef8576040517fa9059cbb0000000000000000000000000000000000000000000000000000000081526001600160a01b03919091166004820152602481019290925289908290604490829084905af18015611eed57908991611ed9575b5050611cfe905b9038808080611c7a565b611ee290614395565b610df5578738611ec8565b6040513d8b823e3d90fd5b8a80fd5b909291935015611f13575b505050611cfe90611ecf565b8280928192828215611f2e575bf115610c0c57873880611f07565b506108fc611f20565b60248c634e487b7160e01b81526021600452fd5b600491500154421038611b62565b5060c060031936011261033b57611f6e614258565b602435611f796141e4565b91611f826141f4565b91808552600460205260019360ff91611faa8684600860408b20015460101c16151514614fd4565b3387526006602052611fc28360408920541615614e71565b611fca614f7f565b86526004602052611fe7611fe16040882092614524565b94614524565b60038201946001600160a01b039081875416946120063387141561501f565b858a52600660205261201e8160408c205416156150db565b6008850191818354166002811015611f375761203a901561514c565b600686019461204f8b84885416151514615090565b600587018054908d6127109261206f6104698583049261046388856153e5565b8a87600a82015416156000146122b0575050506104a39261049d61209b959361046393540493846153e5565b915460081c166003811015611ade578991829161222357818091858b541682821561221a575bf115610c0c57865b6120d5575b8787815580f35b8416918787820193845490803b15610646576040517f23b872dd000000000000000000000000000000000000000000000000000000008152306004820152336024820152604481019290925282908290606490829084905af1801561063b57612200575b5050907f36622ac3c55df2afe092b02595624d4572c4cc04125857ad1b41a57b58e7cdf39560046121f29493017fffffffffffffffffffffffff0000000000000000000000000000000000000000903382825416179055815416905560ff1981541690556121a8600254614ebc565b60025554604080516001600160a01b0395861681526020810192909252349082015292909116606083015233608083015260843560a083015260a43560c0830152819060e0820190565b0390a13880808080806120ce565b61220d9094939294614395565b610df55790918738612139565b506108fc6120c1565b61222d9150614b7a565b82600c5416908389541690823b156106eb576040517fa9059cbb0000000000000000000000000000000000000000000000000000000081526001600160a01b0392909216600483015260248201529082908290604490829084905af1801561063b5761229c575b5050866120c9565b6122a590614395565b610df5578738612294565b82958395508394506122d99261046361073b9261049d61072c60076107349f9d970154856153e5565b968860028c01541682821561233e575bf115612333575460081c166003811015611ade578991829161232957818091858b5416828215612320575bf115610c0c57866120c9565b506108fc612314565b61222d915061499e565b6040513d8c823e3d90fd5b506108fc6122e9565b503461033b57604060031936011261033b5760043567ffffffffffffffff81116103375761237990369060040161446e565b612381614386565b6123896144cc565b82908015938415925b845181101561260e576123a58186614618565b518083528460206004815288600860408720016123f38882907fffffffffffffffffffffffffffffffffffffffffffffffffffffffffff00ffff62ff0000835492151560101b169116179055565b816125dd575b5061243c575b61243793927f6ffa1c2dfe558962660d78387d612607ef3f19ee482f7d51a12634d131e8db6e926040928351928352820152a1614ebc565b612392565b828552600580825260408620906007820154916001600160a01b0390818416928361246c575b50505050506123ff565b8192939495965060069060ff9201549201549460a01c1660038110156125c9578a918991600181036125605750505050600c541690813b1561097a576040517fa9059cbb0000000000000000000000000000000000000000000000000000000081526001600160a01b03919091166004820152602481019290925285908290604490829084905af1801561255557879291869161253c575b505061243793927f6ffa1c2dfe558962660d78387d612607ef3f19ee482f7d51a12634d131e8db6e926040925b928295968295612462565b61254891929350614395565b6106eb5785908438612504565b6040513d87823e3d90fd5b9194929695509250156125a0575b50505061243793927f6ffa1c2dfe558962660d78387d612607ef3f19ee482f7d51a12634d131e8db6e92604092612531565b82939450829182918282156125c0575bf1156102f457859084388061256e565b506108fc6125b0565b602489634e487b7160e01b81526021600452fd5b549192505060ff1660028110156125fa57906001879214386123f9565b602485634e487b7160e01b81526021600452fd5b602084604051908152f35b503461033b578060031936011261033b576020600354604051908152f35b503461033b5760208060031936011261033757612652614258565b9133815260069081835260ff61266e8160408420541615614e71565b600392835494839284936001600160a01b03809916945b88811061276f5750612696906155ed565b9785805b8981106126af57604051806110e68d8261429e565b808252600485528a60408320848b820154168981146126da575b5050506126d590614ebc565b61269a565b8a612764938989600a6126d5989f96828f6111e1988e604051976126fd896143bf565b818654168952600186015490890152600285015416604088015260608701528d6004840154166080870152600583015460a087015282015416151560c0850152600781015460e08501528260086111af828285015480936111a38383166101008c01614eff565b9790508a38806126c9565b80875260048452858a8960408a2001541614612794575b61278f90614ebc565b612685565b906127a161278f91614ebc565b919050612786565b503461033b57602080600319360112610337576040516127c8816143f9565b6002815260403683830137826001600160a01b039182600a54166127eb826145fb565b5282600b5416604051937fad5c46480000000000000000000000000000000000000000000000000000000085528585600481855afa90811561032c576102aa95859261284d575b5061283c84614608565b911690526040805161025d816143f9565b612865919250873d8911610325576103178183614415565b9038612832565b503461033b576020806003193601126103375760043590600392835492600261289e6128998254876151a4565b6155ed565b9583805b8781106128b757604051806110e68b8261429e565b808252600487526040822060ff80600683015416918280936129cc575b806129bc575b6128f0575b5050506128eb90614ebc565b6128a2565b916128eb939891600a6129b3946040519361290a856143bf565b8d6001600160a01b0390818454168752600184015490870152808c840154166040870152808b8401541660608701526004830154166080860152600582015460a0860152151560c0850152600781015460e085015282600861297c828285015480936111a38383166101008c01614eff565b60101c161515610140850152600981015461016085015201541615156101808201526129a8828d614618565b526111e1818c614618565b959038806128df565b5081600882015460101c166128da565b50876009820154146128d4565b503461033b578060031936011261033b5760206001600160a01b03600a5416604051908152f35b503461033b57602060031936011261033b5760406101a09160043581526004602052206001600160a01b03808254169160ff600182015492806002840154169080600385015416906004850154166005850154846006870154169160078701549360088801549587600a60098b01549a015416996040519b8c5260208c015260408b015260608a0152608089015260a0880152151560c087015260e0860152612aaf610100860183831661426e565b612ac26101208601838360081c16614291565b60101c1615156101408401526101608301521515610180820152f35b6020612af2612aec36614214565b90614d10565b604051908152f35b503461033b57602060031936011261033b57604061016091600435815260056020522060ff8154916001600160a01b038060018301541691600281015460038201546004830154906005840154926007600686015495015496604051998a5260208a015260408901526060880152608087015260a086015260c0850152811660e0840152612b916101008401838360a01c16614291565b818160a81c1661012084015260b01c161515610140820152f35b503461033b57602060031936011261033b5760043590600582101561033b575060005260086020526020604060002054604051908152f35b503461033b57602060031936011261033b576020612c026004356156bb565b6040519015158152f35b503461033b57604060031936011261033b57612c60612c29614258565b6001600160a01b03612c39614386565b91612c426144cc565b1683526006602052604083209060ff60ff1983541691151516179055565b80f35b503461033b578060031936011261033b5760206001600160a01b0360015416604051908152f35b503461033b578060031936011261033b5760038054906002612cb06128998254856151a4565b938091815b858110612cca57604051806110e6898261429e565b8083526020600481526040842060ff9081600682015416808091612dcd575b612d00575b50505050612cfb90614ebc565b612cb5565b91600a612dc39492612cfb96999460405194612d1b866143bf565b6001600160a01b0390818454168752600184015490870152808a840154166040870152808d8401541660608701526004830154166080860152600582015460a0860152151560c0850152600781015460e0850152826008612d8c828285015480936111a38383166101008c01614eff565b60101c16151561014085015260098101546101608501520154161515610180820152612db8828b614618565b526111e1818a614618565b9390388080612cee565b5082600883015460101c16612ce9565b503461033b57602060031936011261033b576020612af2600435614702565b503461033b57602060031936011261033b5760ff60406020926001600160a01b03612e25614258565b168152600684522054166040519015158152f35b503461033b5760e060031936011261033b57612e53614258565b903381526006602052612e6d60ff60408320541615614e71565b612e75614f7f565b60249182358252600460205260408220906044359081156133155760048301336001600160a01b03825416036132ab576001600160a01b038216803b15611b22576040517f23b872dd000000000000000000000000000000000000000000000000000000008152336004820152306024820152873560448201529086908290606490829084905af180156132a05790869161328c575b505060038401337fffffffffffffffffffffffff0000000000000000000000000000000000000000825416179055307fffffffffffffffffffffffff0000000000000000000000000000000000000000825416179055816005840155600683019060ff1991600183825416179055606435916002831015613279576008850190612f958483614f17565b6001600a87019182541617905560018314613097575b506002548015613084577fffffffffffffffffffffffffffffffffffffffffffffffffffffffffffffffff0160029081558401546009850154600790950154604080516001600160a01b039485168152983560208a015233908901523060608901529116608087015260a0860192909252600060c086015260e085019290925261010084019190915260843561012084015260a43561014084015260c435610160840152610180830152907feac6f2088d50f70fa313f09cee29a023e04fb6a48ac1a2c4b7d27b7bdb40c136906101a090a16001815580f35b8686634e487b7160e01b81526011600452fd5b60ff905460081c166130eb604051916130af836143dc565b88358352336020840152856040840152608435606084015260a43560808401528760a08401528760c08401528760e08401526101008301614f0b565b6096610120820152600161014082015286358652600560205260076040872082518155600181016001600160a01b036020850151167fffffffffffffffffffffffff000000000000000000000000000000000000000082541617905560408301516002820155606083015160038201556080830151600482015560a0830151600582015560c0830151600682015501906001600160a01b0360e0820151167fffffffffffffffffffffffff0000000000000000000000000000000000000000835416178255610100810151906003821015613266576131cd6101409284614f30565b61012081015183547fffffffffffffffffffff00ffffffffffffffffffffffffffffffffffffffffff1660a89190911b75ff00000000000000000000000000000000000000000016178355015181547fffffffffffffffffff00ffffffffffffffffffffffffffffffffffffffffffff1690151560b01b76ff000000000000000000000000000000000000000000001617905538612fab565b8888634e487b7160e01b81526021600452fd5b8686634e487b7160e01b81526021600452fd5b61329590614395565b610efd578438612f0b565b6040513d88823e3d90fd5b608486602a6040519162461bcd60e51b8352602060048401528201527f4f6e6c7920746865206f776e6572206f6620616e206e66742063616e206c697360448201527f7420746865206e66742e000000000000000000000000000000000000000000006064820152fd5b606485601c6040519162461bcd60e51b8352602060048401528201527f5072696365206d757374206265206174206c65617374203120776569000000006044820152fd5b503461033b578060031936011261033b5760206001600160a01b0360095416604051908152f35b503461033b578060031936011261033b576133996144cc565b60006001600160a01b036001547fffffffffffffffffffffffff00000000000000000000000000000000000000008116600155167f8be0079c531659141344cd1fd0a4f28419497f9722a3daafe3b4186f6b6457e08280a380f35b503461033b57602060031936011261033b576020612af26004356153f8565b503461033b576020806003193601126103375761342e614258565b9133815260069081835260ff61344a8160408420541615614e71565b600392835494839284936001600160a01b03809916945b88811061350c5750613472906155ed565b9785805b89811061348b57604051806110e68d8261429e565b808252600485528a60408320848b8201541689811480613500575b806134f0575b6134c2575b5050506134bd90614ebc565b613476565b8a6134e5938989600a6134bd989f96828f6111e1988e604051976126fd896143bf565b9790508a38806134b1565b5086600883015460101c166134ac565b508689830154166134a6565b808752600484526040872083878c8b84015416149182613568575b82613557575b5050613542575b61353d90614ebc565b613461565b9061354f61353d91614ebc565b919050613534565b6008015460101c169050833861352d565b8781015482169250613527565b5060e060031936011261033b5761358a614258565b602435906135966141f4565b9061359f614204565b83855260046020526001936135c48560ff600860408a20015460101c16151514614fd4565b33865260066020526135dd60ff60408820541615614e71565b6135e5614f7f565b855260046020526136026135fc6040872094614524565b91614524565b6001600160a01b036003850154169161361d3384141561501f565b6136318660ff600688015416151514615090565b828752600660205261364a60ff604089205416156150db565b60ff6008860154166002811015613ad757613665901561514c565b600585015461368c61367b8461271084046153e5565b6136866044356153f8565b92615197565b11613b1357866001600160a01b03600c5416803b15610337576040517f23b872dd00000000000000000000000000000000000000000000000000000000815233600482015230602482015260448035908201529082908290606490829084905af1801561063b57613aff575b5050600a85015460ff16613983576137229061046361372a9361049d6127106044350493846153e5565b6044356151a4565b60ff600885015460081c16600381101561396f5790868681931460001461393957506001600160a01b03600c5416906001600160a01b0360038701541690823b156106eb576040517fa9059cbb0000000000000000000000000000000000000000000000000000000081526001600160a01b0392909216600483015260248201529082908290604490829084905af1801561063b57613925575b5050835b6137d5575b505050815580f35b6001600160a01b038216928585820194855490803b15610646576040517f23b872dd000000000000000000000000000000000000000000000000000000008152306004820152336024820152604481019290925282908290606490829084905af1801561063b57613911575b50507f36622ac3c55df2afe092b02595624d4572c4cc04125857ad1b41a57b58e7cdf39381600461390693017fffffffffffffffffffffffff00000000000000000000000000000000000000009033828254161790556003820154166003820155600660ff1981830154169101556138ba600254614ebc565b60025554604080516001600160a01b03958616815260208101929092526044359082015292909116606083015233608083015260a43560a083015260c43560c0830152819060e0820190565b0390a13880806137cd565b61391a90614395565b611b22578538613841565b61392e90614395565b610efd5784386137c4565b806139448193614702565b6001600160a01b03600389015416828215613966575bf11561032c57836137c8565b506108fc61395a565b602487634e487b7160e01b81526021600452fd5b6139b39061073b60078701546104636139a36127106044350492836153e5565b9561049d610734886044356151a4565b90866001600160a01b03600c5416916001600160a01b0360028801541692803b15610646576040517fa9059cbb000000000000000000000000000000000000000000000000000000008082526001600160a01b03959095166004820152602481019290925282908290604490829084905af1801561063b57613aeb575b505060ff600886015460081c166003811015613ad75790878781949314600014613ac957506001600160a01b03600c5416916001600160a01b0360038801541692803b15610efd576040519283526001600160a01b0393909316600483015260248201529082908290604490829084905af1801561063b57613ab5575b5050836137c8565b613abe90614395565b610efd578438613aad565b809281925061394490614702565b602488634e487b7160e01b81526021600452fd5b613af490614395565b61097a578638613a30565b613b0890614395565b61097a5786386136f8565b608460405162461bcd60e51b815260206004820152602760248201527f4e6f7420656e6f75676820616d6f756e7420746f20636f7665722061736b696e60448201527f67207072696365000000000000000000000000000000000000000000000000006064820152fd5b503461033b57602060031936011261033b5760043560ff811681036107c357612af2602091614524565b50606060031936011261033b57613bbc614258565b60243590613bc8614f7f565b3383526006602052613be160ff60408520541615614e71565b8183526004602052604083209060038201918254906001600160a01b03938483163303613cf95760069260048301907fffffffffffffffffffffffff00000000000000000000000000000000000000009133838254161790551690550160ff1981541690551690813b15610646576040517f23b872dd000000000000000000000000000000000000000000000000000000008152306004820152336024820152604481018290528390818160648183885af1801561063b57613ce5575b507f9894bb06983a241f784ad8cc4a606cf1b279c281ba0c7dc78e53b678d1492ee56080848460405191825260208201523360408201526044356060820152a16001815580f35b613cee90614395565b610646578238613c9e565b606460405162461bcd60e51b815260206004820152601d60248201527f4f6e6c792053656c6c65722063616e2063616e63656c4c697374696e670000006044820152fd5b503461033b57613d4c36614214565b9190815260076020526040812090815483101561033b576020613d6f848461422a565b90546040519160031b1c8152f35b503461033b578060031936011261033b576020600254604051908152f35b503461033b57602060031936011261033b57613db56144cc565b806001600160a01b0380600c5416906001541690803b15613e3b576040517fa9059cbb0000000000000000000000000000000000000000000000000000000081526001600160a01b039290921660048084019190915235602483015282908290604490829084905af1801561063b57613e2b5750f35b613e3490614395565b61033b5780f35b5050fd5b503461033b57602060031936011261033b576020612af2600435615539565b50606060031936011261033b5760043590602435613e7a6141e4565b928083526005602052613e9d60408420600381015442119081611f4b5750615222565b808352600460205260019384604085206008015460101c60ff16151514613ec390614fd4565b3384526006602052604084205460ff1615613edd90614e71565b8184526005602052604084209460046020526040852090613efd83614524565b96600281015493612710938985870490613f16916153e5565b94600584019a8b5491820490613f2b916153e5565b613f348a6153f8565b976001600160a01b039788600386015416331415613f5190615293565b613f5a91615197565b881015613f6690615329565b613f6f91615197565b8611613f7a90615374565b600881015460ff166002811015611ade5760ff6006613f9f93611c3b888095146152de565b83600c5416803b15610637576040517f23b872dd000000000000000000000000000000000000000000000000000000008152336004820152306024820152604481018990529089908290606490829084905af18015611eed576141d1575b506007820196875495858716968b54976006860198895492826140cd575b505050908b5550855586547fffffffffffffffffffff00ffffffffffffffffffffffffffffffffffffffffff7fffffffffffffffffffffff000000000000000000000000000000000000000000909116337fffffffffffffffffffffff00ffffffffffffffffffffffffffffffffffffffff161774010000000000000000000000000000000000000000171660a89190911b75ff00000000000000000000000000000000000000000016178655611cfe565b60a01c60ff1660038110156141bd578d91908981036141805750505087600c541690813b1561417c576040517fa9059cbb0000000000000000000000000000000000000000000000000000000081526001600160a01b0391909116600482015260248101929092528b908290604490829084905af1801561079b57908b91614164575b505090611cfe92915b90919238808061401b565b61416d90614395565b614178578938614150565b8980fd5b8c80fd5b909291935015614199575b50505090611cfe9291614159565b82809281928282156141b4575bf115611eed5789388061418b565b506108fc6141a6565b60248e634e487b7160e01b81526021600452fd5b6141dd90989198614395565b9638613ffd565b6044359060ff821682036107c357565b6064359060ff821682036107c357565b6084359060ff821682036107c357565b60031960409101126107c3576004359060243590565b80548210156142425760005260206000200190600090565b634e487b7160e01b600052603260045260246000fd5b600435906001600160a01b03821682036107c357565b90600282101561427b5752565b634e487b7160e01b600052602160045260246000fd5b90600382101561427b5752565b60208082019080835283518092528060408094019401926000905b8382106142c857505050505090565b9091929394836101a060019288516001600160a01b0380825116835284820151858401528087830151168784015260608181840151169084015260809081830151169083015260a0808201519083015260c08082015115159083015260e08082015190830152614341610100808301519084019061426e565b6143546101208083015190840190614291565b6101408181015115159083015261016080820151908301526101809081015115159082015201960194939201906142b9565b6024359081151582036107c357565b67ffffffffffffffff81116143a957604052565b634e487b7160e01b600052604160045260246000fd5b6101a0810190811067ffffffffffffffff8211176143a957604052565b610160810190811067ffffffffffffffff8211176143a957604052565b6060810190811067ffffffffffffffff8211176143a957604052565b90601f7fffffffffffffffffffffffffffffffffffffffffffffffffffffffffffffffe0910116810190811067ffffffffffffffff8211176143a957604052565b67ffffffffffffffff81116143a95760051b60200190565b81601f820112156107c35780359161448583614456565b926144936040519485614415565b808452602092838086019260051b8201019283116107c3578301905b8282106144bd575050505090565b813581529083019083016144af565b6001600160a01b036001541633036144e057565b606460405162461bcd60e51b815260206004820152602060248201527f4f776e61626c653a2063616c6c6572206973206e6f7420746865206f776e65726044820152fd5b60ff166003810361455f5750600460005260086020527f9321edea6e3be4df59a344b401fab4f888b556fda1f954244cff9204bad624b85490565b600281036145975750600360005260086020527f625b35f5e76f098dd7c3a05b10e2e5e78a4a01228d60c3b143426cdf36d264555490565b6001036145cd57600260005260086020527f6add646517a5b0f6793cd5891b7937d28a5b2981a5d88ebc7cd776088fea90415490565b6000805260086020527f5eff886ea0ce6ca488a3d6e336d6c0f75f46d19b42c06ce5ee98e42c96d256c75490565b8051156142425760200190565b8051600110156142425760400190565b80518210156142425760209160051b010190565b908160209103126107c357516001600160a01b03811681036107c35790565b60209081818403126107c35780519067ffffffffffffffff82116107c357019180601f840112156107c357825161468181614456565b9361468f6040519586614415565b818552838086019260051b8201019283116107c3578301905b8282106146b6575050505090565b815181529083019083016146a8565b90815180825260208080930193019160005b8281106146e5575050505090565b83516001600160a01b0316855293810193928101926001016146d7565b906000916040928351614714816143f9565b60028152843660208301376001600160a01b0380600a5416614735836145fb565b526004602082600b54168851928380927fad5c46480000000000000000000000000000000000000000000000000000000082525afa90811561493157849161494e575b508161478384614608565b9116905280600c54168160095416813b15610efd5787517f095ea7b30000000000000000000000000000000000000000000000000000000081526001600160a01b03919091166004820152602481018690529084908290604490829084905af180156149315761493b575b508580516147fb816143f9565b60028152602036910137600b54168551937fd06ca61f00000000000000000000000000000000000000000000000000000000855280600486015286602486015283858061484b60448201876146c5565b0381855afa94851561493157849561490b575b509183916148b8938361487088614608565b518a51968795869485937f4a25d94a0000000000000000000000000000000000000000000000000000000085526004850152602484015260a0604484015260a48301906146c5565b30606483015242608483015203925af194851561490057506148e193946148e5575b5050614608565b5190565b6148f8913d8091833e6102e58183614415565b5038806148da565b51913d9150823e3d90fd5b6148b8939195509161492785933d8086833e6102e58183614415565b959193509161485e565b87513d86823e3d90fd5b61494790939193614395565b91386147ee565b614966915060203d8111610325576103178183614415565b38614778565b906149936060936001600160a01b03929796959784526080602085015260808401906146c5565b951660408201520152565b9060409182516149ad816143f9565b60028152833660208301376001600160a01b0380600b54169085517fad5c4648000000000000000000000000000000000000000000000000000000008152602081600481865afa908115614b6f57600091614b51575b5081614a0e856145fb565b91169052600a5416614a1f83614608565b52848051614a2c816143f9565b600281526020369101378451927fd06ca61f000000000000000000000000000000000000000000000000000000008452600484015284602484015260008380614a7860448201866146c5565b0381845afa928315614b4657600093614b22575b50614ae191600091614a9d856145fb565b51614aa786614608565b519088518096819582947f7ff36ab5000000000000000000000000000000000000000000000000000000008452429130916004860161496c565b03925af18015614b17576148e1939450614afc575b50614608565b614b10903d806000833e6102e58183614415565b5038614af6565b84513d6000823e3d90fd5b91614b3d614ae193600093953d8091833e6102e58183614415565b93915091614a8c565b85513d6000823e3d90fd5b614b69915060203d8111610325576103178183614415565b38614a03565b87513d6000823e3d90fd5b906040918251614b89816143f9565b60028152833660208301376001600160a01b0380600b54169085517fad5c4648000000000000000000000000000000000000000000000000000000008152602081600481865afa908115614b6f57600091614cf2575b5081614bea856145fb565b91169052600a5416614bfb83614608565b52848051614c08816143f9565b600281526020369101378451927fd06ca61f000000000000000000000000000000000000000000000000000000008452600484015284602484015260008380614c5460448201866146c5565b0381845afa928315614b4657600093614cce575b50614cb291600091614c7985614608565b5187518095819482937f7ff36ab5000000000000000000000000000000000000000000000000000000008452429130916004860161496c565b039134905af18015614b17576148e1939450614afc5750614608565b91614ce9614cb293600093953d8091833e6102e58183614415565b93915091614c68565b614d0a915060203d8111610325576103178183614415565b38614bdf565b60408051909392614d20826143f9565b60028252843660208401376001600160a01b039081600b54169086517fad5c4648000000000000000000000000000000000000000000000000000000008152602081600481865afa908115614e6657600091614e48575b5083614d82866145fb565b9116905282600a5416614d9485614608565b52868051614da1816143f9565b600281526020369101378651947fd06ca61f000000000000000000000000000000000000000000000000000000008652600486015286602486015260008580614ded60448201886146c5565b0381855afa948515614b6f57600095614e2d575b50614e1b5750614cb291600091600b5416614c7985614608565b6000915091614ae192614a9d856145fb565b614e4191953d8091833e6102e58183614415565b9338614e01565b614e60915060203d8111610325576103178183614415565b38614d77565b88513d6000823e3d90fd5b15614e7857565b606460405162461bcd60e51b815260206004820152602060248201527f596f75206172652062616e6e6564206f6e207468697320706c6174666f726d2e6044820152fd5b7fffffffffffffffffffffffffffffffffffffffffffffffffffffffffffffffff8114614ee95760010190565b634e487b7160e01b600052601160045260246000fd5b600282101561427b5752565b600382101561427b5752565b90600281101561427b5760ff60ff198354169116179055565b90600381101561427b577fffffffffffffffffffffff00ffffffffffffffffffffffffffffffffffffffff74ff000000000000000000000000000000000000000083549260a01b169116179055565b600260005414614f90576002600055565b606460405162461bcd60e51b815260206004820152601f60248201527f5265656e7472616e637947756172643a207265656e7472616e742063616c6c006044820152fd5b15614fdb57565b606460405162461bcd60e51b815260206004820152601460248201527f61646d696e20426c6f636b2054686973204e46540000000000000000000000006044820152fd5b1561502657565b608460405162461bcd60e51b815260206004820152602560248201527f416e206f776e65722063616e6e6f7420707572636861736520697473206f776e60448201527f204e46542e0000000000000000000000000000000000000000000000000000006064820152fd5b1561509757565b606460405162461bcd60e51b815260206004820152601d60248201527f4e6674206973206e6f74206c697374656420746f2070757263686173650000006044820152fd5b156150e257565b608460405162461bcd60e51b815260206004820152603660248201527f546865206f776e6572206f662074686973206e667420697320626c61636b6c6960448201527f73746564206f6e207468697320706c6174666f726d2e000000000000000000006064820152fd5b1561515357565b606460405162461bcd60e51b815260206004820152601a60248201527f54686973204e4654206973206e6f742061742061756374696f6e0000000000006044820152fd5b91908201809211614ee957565b91908203918211614ee957565b156151b857565b608460405162461bcd60e51b815260206004820152602660248201527f4e6f7420656e6f75676820657468657220746f20636f7665722061736b696e6760448201527f20707269636500000000000000000000000000000000000000000000000000006064820152fd5b1561522957565b608460405162461bcd60e51b815260206004820152602960248201527f54686973204e4654206973206e6f74206f6e2061756374696f6e20617420746860448201527f65206d6f6d656e742e00000000000000000000000000000000000000000000006064820152fd5b1561529a57565b606460405162461bcd60e51b815260206004820152601b60248201527f73656c6c65722063616e27742062696420696e2061756374696f6e00000000006044820152fd5b156152e557565b606460405162461bcd60e51b815260206004820152601960248201527f54686973204e46542069732061742061742061756374696f6e000000000000006044820152fd5b1561533057565b606460405162461bcd60e51b815260206004820152601c60248201527f4d696e696d756d206269642068617320746f20626520686967686572000000006044820152fd5b1561537b57565b608460405162461bcd60e51b815260206004820152603c60248201527f596f75206861766520746f2062696420686967686572207468616e207468652060448201527f686967686573742062696420746f206d616b6520616e206f66666572000000006064820152fd5b81810292918115918404141715614ee957565b90604091825190615408826143f9565b60028252833660208401376001600160a01b039182600a541661542a826145fb565b5282600b54168551927fad5c4648000000000000000000000000000000000000000000000000000000008452602084600481855afa8015614b6f576154d7956000958692615519575b5061547d85614608565b9116905286805161548d816143f9565b6002815260203691013786518095819482937fd06ca61f000000000000000000000000000000000000000000000000000000008452600484015289602484015260448301906146c5565b03915afa90811561550e576148e19293506000916154f55750614608565b615508913d8091833e6102e58183614415565b38614af6565b83513d6000823e3d90fd5b61553291925060203d8111610325576103178183614415565b9038615473565b90604091825190615549826143f9565b60028252833660208401376001600160a01b039182600b54168551927fad5c4648000000000000000000000000000000000000000000000000000000008452602084600481855afa948515614b6f576154d79560009586916155cf575b50816155b1866145fb565b91169052600a54166155c284614608565b5286805161548d816143f9565b6155e7915060203d8111610325576103178183614415565b386155a6565b906155f782614456565b60409061560682519182614415565b8381527fffffffffffffffffffffffffffffffffffffffffffffffffffffffffffffffe06156348295614456565b019160005b8381106156465750505050565b6020908251615654816143bf565b60008152826000818301526000858301526000606083015260006080830152600060a0830152600060c0830152600060e083015260006101008301526000610120830152600061014083015260006101608301526000610180830152828601015201615639565b600052600560205260406000206003810154421190816156e6575b50156156e157600190565b600090565b6004915001544210386156d656fea26469706673582212203051707bcdb69b52185397b9bb0546d6b20911971ee94ba7443e969757bc057c64736f6c634300081400334f776e61626c653a2063616c6c6572206973206e6f7420746865206f776e6572",
  "linkReferences": {},
  "deployedLinkReferences": {}
}