{
  "_format": "hh-sol-artifact-1",
  "contractName": "ArtiziaMarketplace",
  "sourceName": "contracts/ArtiziaMarketplace.sol",
  "abi": [
    {
      "inputs": [
        {
          "internalType": "address",
          "name": "_token",
          "type": "address"
        }
      ],
      "stateMutability": "nonpayable",
      "type": "constructor"
    },
    {
      "inputs": [],
      "name": "invalidListingType",
      "type": "error"
    },
    {
      "inputs": [],
      "name": "invalidPrice",
      "type": "error"
    },
    {
      "anonymous": false,
      "inputs": [
        {
          "indexed": false,
          "internalType": "address",
          "name": "nftContract",
          "type": "address"
        },
        {
          "indexed": false,
          "internalType": "uint256",
          "name": "tokenId",
          "type": "uint256"
        },
        {
          "indexed": false,
          "internalType": "address",
          "name": "seller",
          "type": "address"
        },
        {
          "indexed": false,
          "internalType": "address",
          "name": "owner",
          "type": "address"
        },
        {
          "indexed": false,
          "internalType": "uint256",
          "name": "price",
          "type": "uint256"
        },
        {
          "indexed": false,
          "internalType": "uint256",
          "name": "collectionId",
          "type": "uint256"
        },
        {
          "indexed": false,
          "internalType": "uint256",
          "name": "listingType",
          "type": "uint256"
        }
      ],
      "name": "NFTListed",
      "type": "event"
    },
    {
      "anonymous": false,
      "inputs": [
        {
          "indexed": false,
          "internalType": "uint256",
          "name": "tokenId",
          "type": "uint256"
        },
        {
          "indexed": false,
          "internalType": "address",
          "name": "seller",
          "type": "address"
        },
        {
          "indexed": false,
          "internalType": "address",
          "name": "buyer",
          "type": "address"
        },
        {
          "indexed": false,
          "internalType": "uint256",
          "name": "price",
          "type": "uint256"
        }
      ],
      "name": "NFTSold",
      "type": "event"
    },
    {
      "anonymous": false,
      "inputs": [
        {
          "indexed": true,
          "internalType": "address",
          "name": "previousOwner",
          "type": "address"
        },
        {
          "indexed": true,
          "internalType": "address",
          "name": "newOwner",
          "type": "address"
        }
      ],
      "name": "OwnershipTransferred",
      "type": "event"
    },
    {
      "anonymous": false,
      "inputs": [
        {
          "indexed": false,
          "internalType": "address[]",
          "name": "fans",
          "type": "address[]"
        }
      ],
      "name": "addedFans",
      "type": "event"
    },
    {
      "anonymous": false,
      "inputs": [
        {
          "indexed": false,
          "internalType": "uint256",
          "name": "tokenId",
          "type": "uint256"
        },
        {
          "indexed": false,
          "internalType": "bool",
          "name": "decision",
          "type": "bool"
        }
      ],
      "name": "approvalUpdate",
      "type": "event"
    },
    {
      "anonymous": false,
      "inputs": [
        {
          "indexed": false,
          "internalType": "uint256",
          "name": "tokenId",
          "type": "uint256"
        },
        {
          "indexed": false,
          "internalType": "address",
          "name": "seller",
          "type": "address"
        },
        {
          "indexed": false,
          "internalType": "uint256",
          "name": "newTime",
          "type": "uint256"
        }
      ],
      "name": "auctionEndTimeIncreased",
      "type": "event"
    },
    {
      "anonymous": false,
      "inputs": [
        {
          "indexed": false,
          "internalType": "uint256",
          "name": "tokenId",
          "type": "uint256"
        },
        {
          "indexed": false,
          "internalType": "address",
          "name": "seller",
          "type": "address"
        },
        {
          "indexed": false,
          "internalType": "address",
          "name": "highestBidder",
          "type": "address"
        },
        {
          "indexed": false,
          "internalType": "uint256",
          "name": "highestBid",
          "type": "uint256"
        }
      ],
      "name": "receivedABid",
      "type": "event"
    },
    {
      "anonymous": false,
      "inputs": [
        {
          "indexed": false,
          "internalType": "address",
          "name": "fan",
          "type": "address"
        }
      ],
      "name": "removeFan",
      "type": "event"
    },
    {
      "stateMutability": "payable",
      "type": "fallback"
    },
    {
      "inputs": [],
      "name": "UNISWAP_ROUTER_ADDRESS",
      "outputs": [
        {
          "internalType": "address",
          "name": "",
          "type": "address"
        }
      ],
      "stateMutability": "view",
      "type": "function"
    },
    {
      "inputs": [],
      "name": "USDT_ADDRESS",
      "outputs": [
        {
          "internalType": "address",
          "name": "",
          "type": "address"
        }
      ],
      "stateMutability": "view",
      "type": "function"
    },
    {
      "inputs": [
        {
          "internalType": "uint256",
          "name": "",
          "type": "uint256"
        }
      ],
      "name": "_idToAuction",
      "outputs": [
        {
          "internalType": "uint256",
          "name": "tokenId",
          "type": "uint256"
        },
        {
          "internalType": "address payable",
          "name": "seller",
          "type": "address"
        },
        {
          "internalType": "uint256",
          "name": "basePrice",
          "type": "uint256"
        },
        {
          "internalType": "uint256",
          "name": "startTime",
          "type": "uint256"
        },
        {
          "internalType": "uint256",
          "name": "endTime",
          "type": "uint256"
        },
        {
          "internalType": "uint256",
          "name": "highestBid",
          "type": "uint256"
        },
        {
          "internalType": "address payable",
          "name": "highestBidder",
          "type": "address"
        },
        {
          "internalType": "enum ArtiziaMarketplace.PaymentMethod",
          "name": "highestBidCurrency",
          "type": "uint8"
        }
      ],
      "stateMutability": "view",
      "type": "function"
    },
    {
      "inputs": [
        {
          "internalType": "uint256",
          "name": "",
          "type": "uint256"
        }
      ],
      "name": "_idToNFT",
      "outputs": [
        {
          "internalType": "address",
          "name": "nftContract",
          "type": "address"
        },
        {
          "internalType": "uint256",
          "name": "tokenId",
          "type": "uint256"
        },
        {
          "internalType": "address payable",
          "name": "firstOwner",
          "type": "address"
        },
        {
          "internalType": "address payable",
          "name": "seller",
          "type": "address"
        },
        {
          "internalType": "address payable",
          "name": "owner",
          "type": "address"
        },
        {
          "internalType": "uint256",
          "name": "price",
          "type": "uint256"
        },
        {
          "internalType": "bool",
          "name": "listed",
          "type": "bool"
        },
        {
          "internalType": "uint256",
          "name": "royaltyPrice",
          "type": "uint256"
        },
        {
          "internalType": "enum ArtiziaMarketplace.ListingType",
          "name": "listingType",
          "type": "uint8"
        },
        {
          "internalType": "enum ArtiziaMarketplace.PaymentMethod",
          "name": "paymentMethod",
          "type": "uint8"
        },
        {
          "internalType": "bool",
          "name": "approve",
          "type": "bool"
        },
        {
          "internalType": "uint256",
          "name": "collectionId",
          "type": "uint256"
        }
      ],
      "stateMutability": "view",
      "type": "function"
    },
    {
      "inputs": [
        {
          "internalType": "uint256",
          "name": "",
          "type": "uint256"
        }
      ],
      "name": "_idToNFT2",
      "outputs": [
        {
          "internalType": "uint256",
          "name": "tokenId",
          "type": "uint256"
        },
        {
          "internalType": "bool",
          "name": "onlyFans",
          "type": "bool"
        },
        {
          "internalType": "uint256",
          "name": "fanDiscountPercent",
          "type": "uint256"
        }
      ],
      "stateMutability": "view",
      "type": "function"
    },
    {
      "inputs": [],
      "name": "_nftCount",
      "outputs": [
        {
          "internalType": "uint256",
          "name": "_value",
          "type": "uint256"
        }
      ],
      "stateMutability": "view",
      "type": "function"
    },
    {
      "inputs": [],
      "name": "_nftsSold",
      "outputs": [
        {
          "internalType": "uint256",
          "name": "_value",
          "type": "uint256"
        }
      ],
      "stateMutability": "view",
      "type": "function"
    },
    {
      "inputs": [
        {
          "internalType": "address[]",
          "name": "fans",
          "type": "address[]"
        }
      ],
      "name": "addFans",
      "outputs": [],
      "stateMutability": "nonpayable",
      "type": "function"
    },
    {
      "inputs": [
        {
          "internalType": "uint256[]",
          "name": "_tokenId",
          "type": "uint256[]"
        },
        {
          "internalType": "bool",
          "name": "_decision",
          "type": "bool"
        }
      ],
      "name": "approveNfts",
      "outputs": [
        {
          "internalType": "bool",
          "name": "",
          "type": "bool"
        }
      ],
      "stateMutability": "nonpayable",
      "type": "function"
    },
    {
      "inputs": [
        {
          "internalType": "address",
          "name": "_user",
          "type": "address"
        }
      ],
      "name": "banUser",
      "outputs": [],
      "stateMutability": "nonpayable",
      "type": "function"
    },
    {
      "inputs": [
        {
          "internalType": "address",
          "name": "",
          "type": "address"
        },
        {
          "internalType": "uint256",
          "name": "",
          "type": "uint256"
        }
      ],
      "name": "bannedNfts",
      "outputs": [
        {
          "internalType": "uint256",
          "name": "",
          "type": "uint256"
        }
      ],
      "stateMutability": "view",
      "type": "function"
    },
    {
      "inputs": [
        {
          "internalType": "address",
          "name": "",
          "type": "address"
        }
      ],
      "name": "bannedUsers",
      "outputs": [
        {
          "internalType": "bool",
          "name": "",
          "type": "bool"
        }
      ],
      "stateMutability": "view",
      "type": "function"
    },
    {
      "inputs": [
        {
          "internalType": "uint256",
          "name": "_tokenId",
          "type": "uint256"
        },
        {
          "internalType": "uint256",
          "name": "_bidCurrency",
          "type": "uint256"
        }
      ],
      "name": "bidInETH",
      "outputs": [],
      "stateMutability": "payable",
      "type": "function"
    },
    {
      "inputs": [
        {
          "internalType": "uint256",
          "name": "_tokenId",
          "type": "uint256"
        },
        {
          "internalType": "uint256",
          "name": "_amount",
          "type": "uint256"
        },
        {
          "internalType": "uint256",
          "name": "_bidCurrency",
          "type": "uint256"
        }
      ],
      "name": "bidInUSDT",
      "outputs": [],
      "stateMutability": "payable",
      "type": "function"
    },
    {
      "inputs": [
        {
          "internalType": "address",
          "name": "_nftContract",
          "type": "address"
        },
        {
          "internalType": "uint256",
          "name": "_paymentMethod",
          "type": "uint256"
        },
        {
          "internalType": "uint256",
          "name": "_tokenId",
          "type": "uint256"
        },
        {
          "internalType": "uint8",
          "name": "_sellerPlan",
          "type": "uint8"
        },
        {
          "internalType": "uint8",
          "name": "_buyerPlan",
          "type": "uint8"
        }
      ],
      "name": "buyWithETH",
      "outputs": [],
      "stateMutability": "payable",
      "type": "function"
    },
    {
      "inputs": [
        {
          "internalType": "address",
          "name": "_nftContract",
          "type": "address"
        },
        {
          "internalType": "uint256",
          "name": "_paymentMethod",
          "type": "uint256"
        },
        {
          "internalType": "uint256",
          "name": "_tokenId",
          "type": "uint256"
        },
        {
          "internalType": "uint8",
          "name": "_sellerPlan",
          "type": "uint8"
        },
        {
          "internalType": "uint8",
          "name": "_buyerPlan",
          "type": "uint8"
        },
        {
          "internalType": "uint256",
          "name": "_amount",
          "type": "uint256"
        }
      ],
      "name": "buyWithUSDT",
      "outputs": [],
      "stateMutability": "payable",
      "type": "function"
    },
    {
      "inputs": [
        {
          "internalType": "uint256",
          "name": "_tokenId",
          "type": "uint256"
        },
        {
          "internalType": "uint256",
          "name": "_newDiscountPercent",
          "type": "uint256"
        }
      ],
      "name": "changeFanDiscountPercent",
      "outputs": [],
      "stateMutability": "nonpayable",
      "type": "function"
    },
    {
      "inputs": [],
      "name": "checkBannedOrDeletedUser",
      "outputs": [
        {
          "internalType": "bool",
          "name": "",
          "type": "bool"
        }
      ],
      "stateMutability": "view",
      "type": "function"
    },
    {
      "inputs": [
        {
          "internalType": "uint256",
          "name": "_tokenId",
          "type": "uint256"
        }
      ],
      "name": "checkFan",
      "outputs": [
        {
          "internalType": "bool",
          "name": "",
          "type": "bool"
        }
      ],
      "stateMutability": "view",
      "type": "function"
    },
    {
      "inputs": [
        {
          "internalType": "address",
          "name": "_nftContract",
          "type": "address"
        },
        {
          "internalType": "uint256",
          "name": "_tokenId",
          "type": "uint256"
        },
        {
          "internalType": "uint8",
          "name": "_sellerPlan",
          "type": "uint8"
        },
        {
          "internalType": "uint8",
          "name": "_buyerPlan",
          "type": "uint8"
        }
      ],
      "name": "closeAuction",
      "outputs": [],
      "stateMutability": "payable",
      "type": "function"
    },
    {
      "inputs": [
        {
          "internalType": "uint256",
          "name": "",
          "type": "uint256"
        },
        {
          "internalType": "uint256",
          "name": "",
          "type": "uint256"
        }
      ],
      "name": "collection",
      "outputs": [
        {
          "internalType": "uint256",
          "name": "",
          "type": "uint256"
        }
      ],
      "stateMutability": "view",
      "type": "function"
    },
    {
      "inputs": [
        {
          "internalType": "address",
          "name": "_user",
          "type": "address"
        }
      ],
      "name": "deleteUser",
      "outputs": [],
      "stateMutability": "nonpayable",
      "type": "function"
    },
    {
      "inputs": [
        {
          "internalType": "address",
          "name": "",
          "type": "address"
        }
      ],
      "name": "deletedUsers",
      "outputs": [
        {
          "internalType": "bool",
          "name": "",
          "type": "bool"
        }
      ],
      "stateMutability": "view",
      "type": "function"
    },
    {
      "inputs": [
        {
          "internalType": "address",
          "name": "",
          "type": "address"
        },
        {
          "internalType": "uint256",
          "name": "",
          "type": "uint256"
        }
      ],
      "name": "fanLists",
      "outputs": [
        {
          "internalType": "address",
          "name": "",
          "type": "address"
        }
      ],
      "stateMutability": "view",
      "type": "function"
    },
    {
      "inputs": [
        {
          "internalType": "uint256",
          "name": "_collectionId",
          "type": "uint256"
        }
      ],
      "name": "getCollectionNfts",
      "outputs": [
        {
          "components": [
            {
              "internalType": "address",
              "name": "nftContract",
              "type": "address"
            },
            {
              "internalType": "uint256",
              "name": "tokenId",
              "type": "uint256"
            },
            {
              "internalType": "address payable",
              "name": "firstOwner",
              "type": "address"
            },
            {
              "internalType": "address payable",
              "name": "seller",
              "type": "address"
            },
            {
              "internalType": "address payable",
              "name": "owner",
              "type": "address"
            },
            {
              "internalType": "uint256",
              "name": "price",
              "type": "uint256"
            },
            {
              "internalType": "bool",
              "name": "listed",
              "type": "bool"
            },
            {
              "internalType": "uint256",
              "name": "royaltyPrice",
              "type": "uint256"
            },
            {
              "internalType": "enum ArtiziaMarketplace.ListingType",
              "name": "listingType",
              "type": "uint8"
            },
            {
              "internalType": "enum ArtiziaMarketplace.PaymentMethod",
              "name": "paymentMethod",
              "type": "uint8"
            },
            {
              "internalType": "bool",
              "name": "approve",
              "type": "bool"
            },
            {
              "internalType": "uint256",
              "name": "collectionId",
              "type": "uint256"
            }
          ],
          "internalType": "struct ArtiziaMarketplace.NFT[]",
          "name": "",
          "type": "tuple[]"
        }
      ],
      "stateMutability": "view",
      "type": "function"
    },
    {
      "inputs": [],
      "name": "getCurrentTimestamp",
      "outputs": [
        {
          "internalType": "uint256",
          "name": "",
          "type": "uint256"
        }
      ],
      "stateMutability": "view",
      "type": "function"
    },
    {
      "inputs": [
        {
          "internalType": "address",
          "name": "user",
          "type": "address"
        }
      ],
      "name": "getFans",
      "outputs": [
        {
          "internalType": "address[]",
          "name": "",
          "type": "address[]"
        }
      ],
      "stateMutability": "view",
      "type": "function"
    },
    {
      "inputs": [],
      "name": "getLatestUSDTPrice",
      "outputs": [
        {
          "internalType": "uint256",
          "name": "",
          "type": "uint256"
        }
      ],
      "stateMutability": "view",
      "type": "function"
    },
    {
      "inputs": [],
      "name": "getListedNfts",
      "outputs": [
        {
          "components": [
            {
              "internalType": "address",
              "name": "nftContract",
              "type": "address"
            },
            {
              "internalType": "uint256",
              "name": "tokenId",
              "type": "uint256"
            },
            {
              "internalType": "address payable",
              "name": "firstOwner",
              "type": "address"
            },
            {
              "internalType": "address payable",
              "name": "seller",
              "type": "address"
            },
            {
              "internalType": "address payable",
              "name": "owner",
              "type": "address"
            },
            {
              "internalType": "uint256",
              "name": "price",
              "type": "uint256"
            },
            {
              "internalType": "bool",
              "name": "listed",
              "type": "bool"
            },
            {
              "internalType": "uint256",
              "name": "royaltyPrice",
              "type": "uint256"
            },
            {
              "internalType": "enum ArtiziaMarketplace.ListingType",
              "name": "listingType",
              "type": "uint8"
            },
            {
              "internalType": "enum ArtiziaMarketplace.PaymentMethod",
              "name": "paymentMethod",
              "type": "uint8"
            },
            {
              "internalType": "bool",
              "name": "approve",
              "type": "bool"
            },
            {
              "internalType": "uint256",
              "name": "collectionId",
              "type": "uint256"
            }
          ],
          "internalType": "struct ArtiziaMarketplace.NFT[]",
          "name": "",
          "type": "tuple[]"
        }
      ],
      "stateMutability": "view",
      "type": "function"
    },
    {
      "inputs": [
        {
          "internalType": "address",
          "name": "_user",
          "type": "address"
        }
      ],
      "name": "getMyListedNfts",
      "outputs": [
        {
          "components": [
            {
              "internalType": "address",
              "name": "nftContract",
              "type": "address"
            },
            {
              "internalType": "uint256",
              "name": "tokenId",
              "type": "uint256"
            },
            {
              "internalType": "address payable",
              "name": "firstOwner",
              "type": "address"
            },
            {
              "internalType": "address payable",
              "name": "seller",
              "type": "address"
            },
            {
              "internalType": "address payable",
              "name": "owner",
              "type": "address"
            },
            {
              "internalType": "uint256",
              "name": "price",
              "type": "uint256"
            },
            {
              "internalType": "bool",
              "name": "listed",
              "type": "bool"
            },
            {
              "internalType": "uint256",
              "name": "royaltyPrice",
              "type": "uint256"
            },
            {
              "internalType": "enum ArtiziaMarketplace.ListingType",
              "name": "listingType",
              "type": "uint8"
            },
            {
              "internalType": "enum ArtiziaMarketplace.PaymentMethod",
              "name": "paymentMethod",
              "type": "uint8"
            },
            {
              "internalType": "bool",
              "name": "approve",
              "type": "bool"
            },
            {
              "internalType": "uint256",
              "name": "collectionId",
              "type": "uint256"
            }
          ],
          "internalType": "struct ArtiziaMarketplace.NFT[]",
          "name": "",
          "type": "tuple[]"
        }
      ],
      "stateMutability": "view",
      "type": "function"
    },
    {
      "inputs": [
        {
          "internalType": "address",
          "name": "_user",
          "type": "address"
        }
      ],
      "name": "getMyNfts",
      "outputs": [
        {
          "components": [
            {
              "internalType": "address",
              "name": "nftContract",
              "type": "address"
            },
            {
              "internalType": "uint256",
              "name": "tokenId",
              "type": "uint256"
            },
            {
              "internalType": "address payable",
              "name": "firstOwner",
              "type": "address"
            },
            {
              "internalType": "address payable",
              "name": "seller",
              "type": "address"
            },
            {
              "internalType": "address payable",
              "name": "owner",
              "type": "address"
            },
            {
              "internalType": "uint256",
              "name": "price",
              "type": "uint256"
            },
            {
              "internalType": "bool",
              "name": "listed",
              "type": "bool"
            },
            {
              "internalType": "uint256",
              "name": "royaltyPrice",
              "type": "uint256"
            },
            {
              "internalType": "enum ArtiziaMarketplace.ListingType",
              "name": "listingType",
              "type": "uint8"
            },
            {
              "internalType": "enum ArtiziaMarketplace.PaymentMethod",
              "name": "paymentMethod",
              "type": "uint8"
            },
            {
              "internalType": "bool",
              "name": "approve",
              "type": "bool"
            },
            {
              "internalType": "uint256",
              "name": "collectionId",
              "type": "uint256"
            }
          ],
          "internalType": "struct ArtiziaMarketplace.NFT[]",
          "name": "",
          "type": "tuple[]"
        }
      ],
      "stateMutability": "view",
      "type": "function"
    },
    {
      "inputs": [
        {
          "internalType": "uint256",
          "name": "_tokenId",
          "type": "uint256"
        }
      ],
      "name": "getStatusOfAuction",
      "outputs": [
        {
          "internalType": "bool",
          "name": "",
          "type": "bool"
        }
      ],
      "stateMutability": "view",
      "type": "function"
    },
    {
      "inputs": [
        {
          "internalType": "uint8",
          "name": "level",
          "type": "uint8"
        }
      ],
      "name": "getSubscriptionFee",
      "outputs": [
        {
          "internalType": "uint256",
          "name": "",
          "type": "uint256"
        }
      ],
      "stateMutability": "view",
      "type": "function"
    },
    {
      "inputs": [
        {
          "internalType": "address",
          "name": "_user",
          "type": "address"
        }
      ],
      "name": "getUsersNfts",
      "outputs": [
        {
          "components": [
            {
              "internalType": "address",
              "name": "nftContract",
              "type": "address"
            },
            {
              "internalType": "uint256",
              "name": "tokenId",
              "type": "uint256"
            },
            {
              "internalType": "address payable",
              "name": "firstOwner",
              "type": "address"
            },
            {
              "internalType": "address payable",
              "name": "seller",
              "type": "address"
            },
            {
              "internalType": "address payable",
              "name": "owner",
              "type": "address"
            },
            {
              "internalType": "uint256",
              "name": "price",
              "type": "uint256"
            },
            {
              "internalType": "bool",
              "name": "listed",
              "type": "bool"
            },
            {
              "internalType": "uint256",
              "name": "royaltyPrice",
              "type": "uint256"
            },
            {
              "internalType": "enum ArtiziaMarketplace.ListingType",
              "name": "listingType",
              "type": "uint8"
            },
            {
              "internalType": "enum ArtiziaMarketplace.PaymentMethod",
              "name": "paymentMethod",
              "type": "uint8"
            },
            {
              "internalType": "bool",
              "name": "approve",
              "type": "bool"
            },
            {
              "internalType": "uint256",
              "name": "collectionId",
              "type": "uint256"
            }
          ],
          "internalType": "struct ArtiziaMarketplace.NFT[]",
          "name": "",
          "type": "tuple[]"
        }
      ],
      "stateMutability": "view",
      "type": "function"
    },
    {
      "inputs": [
        {
          "internalType": "address",
          "name": "",
          "type": "address"
        },
        {
          "internalType": "address",
          "name": "",
          "type": "address"
        }
      ],
      "name": "isFan",
      "outputs": [
        {
          "internalType": "bool",
          "name": "",
          "type": "bool"
        }
      ],
      "stateMutability": "view",
      "type": "function"
    },
    {
      "inputs": [
        {
          "internalType": "address",
          "name": "_nftContract",
          "type": "address"
        },
        {
          "internalType": "uint256[]",
          "name": "_tokenId",
          "type": "uint256[]"
        },
        {
          "internalType": "uint256[]",
          "name": "_price",
          "type": "uint256[]"
        },
        {
          "internalType": "uint256",
          "name": "_royaltyPrice",
          "type": "uint256"
        },
        {
          "internalType": "uint256",
          "name": "_listingType",
          "type": "uint256"
        },
        {
          "internalType": "uint256[]",
          "name": "_startTime",
          "type": "uint256[]"
        },
        {
          "internalType": "uint256[]",
          "name": "_endTime",
          "type": "uint256[]"
        },
        {
          "internalType": "uint256",
          "name": "_collectionId",
          "type": "uint256"
        },
        {
          "internalType": "uint256",
          "name": "_paymentMethod",
          "type": "uint256"
        }
      ],
      "name": "listNft",
      "outputs": [],
      "stateMutability": "payable",
      "type": "function"
    },
    {
      "inputs": [],
      "name": "owner",
      "outputs": [
        {
          "internalType": "address",
          "name": "",
          "type": "address"
        }
      ],
      "stateMutability": "view",
      "type": "function"
    },
    {
      "inputs": [
        {
          "internalType": "address",
          "name": "addressToRemove",
          "type": "address"
        }
      ],
      "name": "removeFans",
      "outputs": [],
      "stateMutability": "nonpayable",
      "type": "function"
    },
    {
      "inputs": [],
      "name": "renounceOwnership",
      "outputs": [],
      "stateMutability": "nonpayable",
      "type": "function"
    },
    {
      "inputs": [
        {
          "internalType": "address",
          "name": "_nftContract",
          "type": "address"
        },
        {
          "internalType": "uint256",
          "name": "_tokenId",
          "type": "uint256"
        },
        {
          "internalType": "uint256",
          "name": "_price",
          "type": "uint256"
        },
        {
          "internalType": "uint256",
          "name": "_listingType",
          "type": "uint256"
        },
        {
          "internalType": "uint256",
          "name": "_startTime",
          "type": "uint256"
        },
        {
          "internalType": "uint256",
          "name": "_endTime",
          "type": "uint256"
        },
        {
          "internalType": "address",
          "name": "_user",
          "type": "address"
        }
      ],
      "name": "resellNft",
      "outputs": [],
      "stateMutability": "nonpayable",
      "type": "function"
    },
    {
      "inputs": [
        {
          "internalType": "enum ArtiziaMarketplace.SubscriptionLevel",
          "name": "",
          "type": "uint8"
        }
      ],
      "name": "subscriptionFees",
      "outputs": [
        {
          "internalType": "uint256",
          "name": "",
          "type": "uint256"
        }
      ],
      "stateMutability": "view",
      "type": "function"
    },
    {
      "inputs": [
        {
          "internalType": "uint256",
          "name": "usdtAmountOut",
          "type": "uint256"
        }
      ],
      "name": "swapETHForUSDT",
      "outputs": [
        {
          "internalType": "uint256",
          "name": "",
          "type": "uint256"
        }
      ],
      "stateMutability": "payable",
      "type": "function"
    },
    {
      "inputs": [
        {
          "internalType": "uint256",
          "name": "usdtAmountIn",
          "type": "uint256"
        }
      ],
      "name": "swapUSDTForETH",
      "outputs": [
        {
          "internalType": "uint256",
          "name": "",
          "type": "uint256"
        }
      ],
      "stateMutability": "nonpayable",
      "type": "function"
    },
    {
      "inputs": [
        {
          "internalType": "address",
          "name": "newOwner",
          "type": "address"
        }
      ],
      "name": "transferOwnership",
      "outputs": [],
      "stateMutability": "nonpayable",
      "type": "function"
    },
    {
      "inputs": [
        {
          "internalType": "address",
          "name": "_user",
          "type": "address"
        }
      ],
      "name": "unbanUser",
      "outputs": [],
      "stateMutability": "nonpayable",
      "type": "function"
    },
    {
      "stateMutability": "payable",
      "type": "receive"
    }
  ],
  "bytecode": "0x6080604052600f80546001600160a01b0319908116737a250d5630b4cf539739df2c5dacb4c659f2488d179091556010805490911673dac17f958d2ee523a2206206994597c13d831ec71790553480156200005957600080fd5b50604051620061c9380380620061c98339810160408190526200007c9162000205565b60016000556200008c3362000105565b600480546001600160a01b03199081163317909155600f546011805483166001600160a01b039283161790556012805491841691909216179055620000d46000609662000157565b620000e26001609662000157565b620000f06002606462000157565b620000fe6003600062000157565b506200024d565b600180546001600160a01b038381166001600160a01b0319831681179093556040519116919082907f8be0079c531659141344cd1fd0a4f28419497f9722a3daafe3b4186f6b6457e090600090a35050565b62000161620001a4565b80600e60008460038111156200017b576200017b62000237565b60038111156200018f576200018f62000237565b81526020810191909152604001600020555050565b6001546001600160a01b03163314620002035760405162461bcd60e51b815260206004820181905260248201527f4f776e61626c653a2063616c6c6572206973206e6f7420746865206f776e6572604482015260640160405180910390fd5b565b6000602082840312156200021857600080fd5b81516001600160a01b03811681146200023057600080fd5b9392505050565b634e487b7160e01b600052602160045260246000fd5b615f6c806200025d6000396000f3fe60806040526004361061025e5760003560e01c80638d6cb3fb11610143578063b9e07df1116100bb578063d6fc3dbd11610077578063d6fc3dbd1461088f578063e4fb2ab2146108af578063ed5a1c0f146108cf578063f2fde38b1461090a578063f41dfb181461092a578063f6c1b77a1461093d57005b8063b9e07df114610747578063bbffa07b146107f8578063c189205814610818578063c36ac2d214610838578063d12824f114610858578063d6cbb2021461087857005b80639ea36e881161010a5780639ea36e88146105f1578063a8ab8c0314610642578063aeb46a1b1461066f578063b32ac0c61461069c578063b4fa0412146106af578063b8b3455d1461073457005b80638d6cb3fb1461052f5780638da5cb5b1461054457806398dd36bf146105625780639a6e94be146105775780639c744058146105d157005b80635ca11fa3116101d657806373c118811161019d57806373c118811461045157806377ec6a471461046457806379b36943146104945780638090551e146104cc5780638988d078146104df5780638cd410f41461050f57005b80635ca11fa3146103c95780636c9230db146103e95780636f9e8876146103fc578063715018a61461041c578063719b21881461043157005b80634afbcdae116102255780634afbcdae146102f75780634d12b695146103175780634d3fb817146103375780635274cff6146103575780635674c2e6146103845780635c60f226146103a957005b806310d86b1f146102675780633000df5d1461028757806330221fc51461029a57806331824a49146102ad57806331a7a70f146102d757005b3661026557005b005b34801561027357600080fd5b50610265610282366004614ff5565b61095d565b6102656102953660046150e6565b610a23565b6102656102a83660046151db565b6110ef565b3480156102b957600080fd5b506002546102c49081565b6040519081526020015b60405180910390f35b3480156102e357600080fd5b506102656102f2366004615234565b611709565b34801561030357600080fd5b506102c46103123660046152cd565b611944565b34801561032357600080fd5b50610265610332366004614ff5565b611975565b34801561034357600080fd5b506102c46103523660046152ef565b61199e565b34801561036357600080fd5b50610377610372366004614ff5565b611a14565b6040516102ce9190615344565b34801561039057600080fd5b50610399611d34565b60405190151581526020016102ce565b3480156103b557600080fd5b506102656103c4366004614ff5565b611d72565b3480156103d557600080fd5b506102656103e43660046152cd565b611d9e565b3480156103f557600080fd5b50426102c4565b34801561040857600080fd5b50610265610417366004615427565b611e38565b34801561042857600080fd5b506102656121d3565b34801561043d57600080fd5b5061026561044c366004614ff5565b6121e7565b61026561045f366004615490565b61233d565b34801561047057600080fd5b5061039961047f366004614ff5565b600c6020526000908152604090205460ff1681565b3480156104a057600080fd5b50600f546104b4906001600160a01b031681565b6040516001600160a01b0390911681526020016102ce565b6102c46104da3660046154f1565b612a12565b3480156104eb57600080fd5b506103996104fa366004614ff5565b600b6020526000908152604090205460ff1681565b34801561051b57600080fd5b506102c461052a3660046154f1565b612c5b565b34801561053b57600080fd5b50610377612ef3565b34801561055057600080fd5b506001546001600160a01b03166104b4565b34801561056e57600080fd5b506102c461313f565b34801561058357600080fd5b506105b66105923660046154f1565b600660205260009081526040902080546001820154600290920154909160ff169083565b604080519384529115156020840152908201526060016102ce565b3480156105dd57600080fd5b506103996105ec3660046154f1565b61320e565b3480156105fd57600080fd5b5061039961060c3660046154f1565b6000908152600560209081526040808320600301546001600160a01b031683526007825280832033845290915290205460ff1690565b34801561064e57600080fd5b5061066261065d366004614ff5565b613253565b6040516102ce919061554e565b34801561067b57600080fd5b506102c461068a366004615561565b600e6020526000908152604090205481565b6102656106aa366004615582565b6132fa565b3480156106bb57600080fd5b506107206106ca3660046154f1565b600a60205260009081526040902080546001820154600283015460038401546004850154600586015460069096015494956001600160a01b0394851695939492939192909190811690600160a01b900460ff1688565b6040516102ce9897969594939291906155d1565b610265610742366004615626565b613a54565b34801561075357600080fd5b506107e06107623660046154f1565b600560208190526000918252604090912080546001820154600283015460038401546004850154958501546006860154600787015460088801546009909801546001600160a01b03978816999698958816979485169690941694929360ff92831693919282811692610100810482169262010000909104909116908c565b6040516102ce9c9b9a99989796959493929190615652565b34801561080457600080fd5b506104b46108133660046156d0565b613fe2565b34801561082457600080fd5b506010546104b4906001600160a01b031681565b34801561084457600080fd5b506103776108533660046154f1565b61401a565b34801561086457600080fd5b50610377610873366004614ff5565b614247565b34801561088457600080fd5b506003546102c49081565b34801561089b57600080fd5b506103996108aa3660046156fc565b6144da565b3480156108bb57600080fd5b506102c46108ca3660046156d0565b61458e565b3480156108db57600080fd5b506103996108ea366004615752565b600760209081526000928352604080842090915290825290205460ff1681565b34801561091657600080fd5b50610265610925366004614ff5565b6145aa565b6102656109383660046152cd565b614623565b34801561094957600080fd5b50610377610958366004614ff5565b614aeb565b610965614d4e565b6001600160a01b0381166000908152600b60205260408120805460ff1916600117905561099160035490565b905060005b81811015610a1e576000818152600560205260409020600301546001600160a01b03808516911603610a0c5760008181526005602052604090206004810180546001600160a01b03199081163017909155600382018054909116905560068101805460ff19169055600801805462ff0000191690555b80610a1681615796565b915050610996565b505050565b610a2b614da8565b336000908152600b602052604090205460ff1615610a645760405162461bcd60e51b8152600401610a5b906157af565b60405180910390fd5b336000908152600c602052604090205460ff1615610a945760405162461bcd60e51b8152600401610a5b906157e4565b60005b88518110156110d9576000888281518110610ab457610ab4615854565b60200260200101511015610adb57604051635a93095360e11b815260040160405180910390fd5b6001861115610afd576040516317142a4d60e01b815260040160405180910390fd5b896001600160a01b03166323b872dd33308c8581518110610b2057610b20615854565b60200260200101516040518463ffffffff1660e01b8152600401610b469392919061586a565b600060405180830381600087803b158015610b6057600080fd5b505af1158015610b74573d6000803e3d6000fd5b50505050610b86600380546001019055565b6000838152600d6020526040902089518a9083908110610ba857610ba8615854565b602002602001015190806001815401808255809150506001900390600052602060002001600090919091909150556040518061018001604052808b6001600160a01b031681526020018a8381518110610c0357610c03615854565b60200260200101518152602001336001600160a01b03168152602001336001600160a01b03168152602001306001600160a01b03168152602001898381518110610c4f57610c4f615854565b60200260200101518152602001600115158152602001888152602001876001811115610c7d57610c7d61530a565b6001811115610c8e57610c8e61530a565b8152602001836002811115610ca557610ca561530a565b6002811115610cb657610cb661530a565b815260200160001515815260200184815250600560008b8481518110610cde57610cde615854565b6020908102919091018101518252818101929092526040908101600020835181546001600160a01b03199081166001600160a01b039283161783559385015160018084019190915592850151600283018054861691831691909117905560608501516003830180548616918316919091179055608085015160048301805490951691161790925560a0830151600583015560c083015160068301805460ff1990811692151592909217905560e084015160078401556101008401516008840180549193909291909116908381811115610db957610db961530a565b021790555061012082015160088201805461ff001916610100836002811115610de457610de461530a565b02179055506101408201518160080160026101000a81548160ff021916908315150217905550610160820151816009015590505060405180606001604052808a8381518110610e3557610e35615854565b602002602001015181526020016000151581526020016000815250600660008b8481518110610e6657610e66615854565b602090810291909101810151825281810192909252604090810160002083518155918301516001808401805460ff1916921515929092179091559201516002909101558603611052576040518061010001604052808a8381518110610ecd57610ecd615854565b60200260200101518152602001336001600160a01b03168152602001898381518110610efb57610efb615854565b60200260200101518152602001868381518110610f1a57610f1a615854565b60200260200101518152602001858381518110610f3957610f39615854565b602002602001015181526020016000815260200160006001600160a01b03168152602001836002811115610f6f57610f6f61530a565b6002811115610f8057610f8061530a565b815250600a60008b8481518110610f9957610f99615854565b602090810291909101810151825281810192909252604090810160002083518155918301516001830180546001600160a01b03199081166001600160a01b039384161790915591840151600280850191909155606085015160038501556080850151600485015560a0850151600585015560c085015160068501805494851691909316908117835560e0860151936001600160a81b0319161790600160a01b90849081111561104a5761104a61530a565b021790555050505b7f380acab0ee1d651da065961944240ee750b6935ba0edefa78afb1c8e076762868a8a838151811061108657611086615854565b602002602001015133308c86815181106110a2576110a2615854565b6020026020010151888c6040516110bf979695949392919061588e565b60405180910390a1806110d181615796565b915050610a97565b506110e46001600055565b505050505050505050565b600083815260056020526040902060080154839062010000900460ff16151560011461112d5760405162461bcd60e51b8152600401610a5b906158d2565b336000908152600b602052604090205460ff161561115d5760405162461bcd60e51b8152600401610a5b906157af565b336000908152600c602052604090205460ff161561118d5760405162461bcd60e51b8152600401610a5b906157e4565b611195614da8565b6000848152600560205260408120906111ad8561199e565b905060006111ba8561199e565b6003840154909150336001600160a01b03909116036111eb5760405162461bcd60e51b8152600401610a5b9061592a565b60038301546001600160a01b03166000908152600b602052604090205460ff16156112285760405162461bcd60e51b8152600401610a5b9061596f565b60038301546001600160a01b03166000908152600c602052604090205460ff16156112655760405162461bcd60e51b8152600401610a5b906159c5565b6000600884015460ff1660018111156112805761128061530a565b1461129d5760405162461bcd60e51b8152600401610a5b90615a22565b600683015460ff1615156001146112c65760405162461bcd60e51b8152600401610a5b90615a59565b6000878152600560209081526040808320600301546001600160a01b0316835260078252808320338085529252822054829060ff161561134e5760008a81526006602052604090206002015461131d903490614e01565b6113279034615a90565b9050803410156113495760405162461bcd60e51b8152600401610a5b90615aa3565b611375565b85600501543410156113725760405162461bcd60e51b8152600401610a5b90615aa3565b50345b600286015460038701546001600160a01b0391821691160361149c5761139c818686614e20565b6113a69082615a90565b90508a6000036113f65760038601546040516001600160a01b039091169082156108fc029083906000818181858888f193505050501580156113ec573d6000803e3d6000fd5b5060019250611603565b6113ff81612a12565b50600061140a61313f565b6114149083615ae9565b9050600061142582620f4240615ae9565b60125460038a015460405163a9059cbb60e01b81529293506001600160a01b039182169263a9059cbb9261145f9216908590600401615b00565b600060405180830381600087803b15801561147957600080fd5b505af115801561148d573d6000803e3d6000fd5b50505050600194505050611603565b600081905060006114b1828960070154614e01565b90506114be838888614e20565b6114c88284615a90565b6114d29190615a90565b60028901546040519194506001600160a01b03169082156108fc029083906000818181858888f1935050505015801561150f573d6000803e3d6000fd5b508c60000361155e5760038801546040516001600160a01b039091169084156108fc029085906000818181858888f19350505050158015611554573d6000803e3d6000fd5b5060019450611600565b61156783612a12565b50600061157261313f565b61157c9085615b19565b9050600061158d82620f4240615ae9565b60125460038c015460405163a9059cbb60e01b81529293506001600160a01b039182169263a9059cbb926115c79216908590600401615b00565b600060405180830381600087803b1580156115e157600080fd5b505af11580156115f5573d6000803e3d6000fd5b505050506001965050505b50505b82156116f15760018601546040516323b872dd60e01b81526001600160a01b038e16916323b872dd9161163d91309187919060040161586a565b600060405180830381600087803b15801561165757600080fd5b505af115801561166b573d6000803e3d6000fd5b50505060018701546003880154604051600080516020615f1783398151915293506116a492916001600160a01b03169086903490615b3b565b60405180910390a16004860180546001600160a01b0384166001600160a01b031991821617909155600387018054909116905560068601805460ff191690556116f1600280546001019055565b5050505050506117016001600055565b505050505050565b600081516001600160401b0381111561172457611724615012565b60405190808252806020026020018201604052801561174d578160200160208202803683370190505b50905060005b825181101561190857600083828151811061177057611770615854565b6020026020010151905060006001600160a01b0316816001600160a01b0316036117cd576117c860405180604001604052806013815260200172496e76616c69642066616e206164647265737360681b815250614e66565b6118f5565b3360009081526007602090815260408083206001600160a01b038516845290915290205460ff1615611832576117c86040518060400160405280601881526020017720b2323932b9b99034b99030b63932b0b23c9030903330b760411b815250614e66565b3360008181526008602090815260408083208054600180820183559185528385200180546001600160a01b0319166001600160a01b0388169081179091559484526007835281842094845293825291829020805460ff19169093179092558051808201909152601181527011985b881859191959081d1bc81b1a5cdd607a1b918101919091526118c190614e66565b808383815181106118d4576118d4615854565b60200260200101906001600160a01b031690816001600160a01b0316815250505b508061190081615796565b915050611753565b507fa99d709f8a9c899ba566c9b2515b1715239783ff40126e24d86e081505a7f50e81604051611938919061554e565b60405180910390a15050565b600d602052816000526040600020818154811061196057600080fd5b90600052602060002001600091509150505481565b61197d614d4e565b6001600160a01b03166000908152600b60205260409020805460ff19169055565b60008160ff166003036119d957600e600060035b60038111156119c3576119c361530a565b8152602001908152602001600020549050919050565b8160ff166002036119ef57600e600060026119b2565b8160ff16600103611a0557600e600060016119b2565b600e6000806119b2565b919050565b336000908152600c602052604090205460609060ff1615611a475760405162461bcd60e51b8152600401610a5b906157e4565b336000908152600b602052604090205460ff1615611a775760405162461bcd60e51b8152600401610a5b906157af565b6000611a8260035490565b90506000805b82811015611b15576000818152600560205260409020600301546001600160a01b038681169116148015611acd575060008181526005602052604090206006015460ff165b8015611af0575060008181526005602052604090206008015462010000900460ff165b15611b035781611aff81615796565b9250505b80611b0d81615796565b915050611a88565b506000816001600160401b03811115611b3057611b30615012565b604051908082528060200260200182016040528015611b6957816020015b611b56614f73565b815260200190600190039081611b4e5790505b5090506000805b84811015611d29576000818152600560205260409020600301546001600160a01b038881169116148015611bb5575060008181526005602052604090206006015460ff165b8015611bd8575060008181526005602052604090206008015462010000900460ff165b15611d175760008181526005602081815260409283902083516101808101855281546001600160a01b039081168252600180840154948301949094526002830154811695820195909552600382015485166060820152600482015490941660808501529182015460a0840152600682015460ff908116151560c0850152600783015460e08501526008830154610100850192911690811115611c7c57611c7c61530a565b6001811115611c8d57611c8d61530a565b81526020016008820160019054906101000a900460ff166002811115611cb557611cb561530a565b6002811115611cc657611cc661530a565b8152600882015462010000900460ff16151560208201526009909101546040909101528351849084908110611cfd57611cfd615854565b60200260200101819052508180611d1390615796565b9250505b80611d2181615796565b915050611b70565b509095945050505050565b336000908152600b602052604081205460ff1680611d615750336000908152600c602052604090205460ff165b15611d6c5750600190565b50600090565b611d7a614d4e565b6001600160a01b03166000908152600c60205260409020805460ff19166001179055565b6000828152600560205260409020600301546001600160a01b03163314611e235760405162461bcd60e51b815260206004820152603360248201527f4f6e6c7920746865206f776e6572206f6620616e206e66742063616e20736574604482015272103234b9b1b7bab73a32b210383934b1b2b99760691b6064820152608401610a5b565b60009182526006602052604090912060020155565b336000908152600b602052604090205460ff1615611e685760405162461bcd60e51b8152600401610a5b906157af565b336000908152600c602052604090205460ff1615611e985760405162461bcd60e51b8152600401610a5b906157e4565b611ea0614da8565b600086815260056020526040902085611efb5760405162461bcd60e51b815260206004820152601c60248201527f5072696365206d757374206265206174206c65617374203120776569000000006044820152606401610a5b565b60048101546001600160a01b03838116911614611f6d5760405162461bcd60e51b815260206004820152602a60248201527f4f6e6c7920746865206f776e6572206f6620616e206e66742063616e206c69736044820152693a103a34329037333a1760b11b6064820152608401610a5b565b6040516323b872dd60e01b81526001600160a01b038916906323b872dd90611f9d90859030908c9060040161586a565b600060405180830381600087803b158015611fb757600080fd5b505af1158015611fcb573d6000803e3d6000fd5b5050506003820180546001600160a01b0385166001600160a01b03199182161790915560048301805490911630179055506005810186905560068101805460ff1916600190811790915585908111156120265761202661530a565b60088201805460ff1916600183818111156120435761204361530a565b02179055506001850361216e57604051806101000160405280888152602001836001600160a01b031681526020018781526020018581526020018481526020016000815260200160006001600160a01b031681526020018260080160019054906101000a900460ff1660028111156120bd576120bd61530a565b90526000888152600a602090815260409182902083518155908301516001820180546001600160a01b03199081166001600160a01b039384161790915592840151600280840191909155606085015160038401556080850151600484015560a0850151600584015560c085015160068401805495861691909316908117835560e086015193946001600160a81b0319161790600160a01b9084908111156121665761216661530a565b021790555050505b6121786002614ea9565b7f380acab0ee1d651da065961944240ee750b6935ba0edefa78afb1c8e07676286888884308a86600901548b6040516121b7979695949392919061588e565b60405180910390a1506121ca6001600055565b50505050505050565b6121db614d4e565b6121e56000614f00565b565b336000908152600860205260408120905b8154811015610a1e57826001600160a01b031682828154811061221d5761221d615854565b6000918252602090912001546001600160a01b03160361232b578154829061224790600190615a90565b8154811061225757612257615854565b9060005260206000200160009054906101000a90046001600160a01b031682828154811061228757612287615854565b9060005260206000200160006101000a8154816001600160a01b0302191690836001600160a01b03160217905550818054806122c5576122c5615b60565b6000828152602090819020600019908301810180546001600160a01b03191690559091019091556040516001600160a01b03851681527f89ec8e1c730740239f81b0dfce48eedca9d700bbc36fe56311fe9175c16f64ad910160405180910390a1505050565b8061233581615796565b9150506121f8565b600084815260056020526040902060080154849062010000900460ff16151560011461237b5760405162461bcd60e51b8152600401610a5b906158d2565b336000908152600b602052604090205460ff16156123ab5760405162461bcd60e51b8152600401610a5b906157af565b336000908152600c602052604090205460ff16156123db5760405162461bcd60e51b8152600401610a5b906157e4565b6123e3614da8565b60008581526005602052604090206003810154336001600160a01b039091160361241f5760405162461bcd60e51b8152600401610a5b9061592a565b600061242961313f565b905060006124368761199e565b905060006124438761199e565b905060006124568764e8d4a51000615ae9565b90506124628482615ae9565b9050612476670de0b6b3a764000082615b19565b60038601546001600160a01b03166000908152600b602052604090205490915060ff16156124b65760405162461bcd60e51b8152600401610a5b9061596f565b60038501546001600160a01b03166000908152600c602052604090205460ff16156124f35760405162461bcd60e51b8152600401610a5b906159c5565b6000600886015460ff16600181111561250e5761250e61530a565b1461252b5760405162461bcd60e51b8152600401610a5b90615a22565b600685015460ff1615156001146125545760405162461bcd60e51b8152600401610a5b90615a59565b60008a8152600560209081526040808320600301546001600160a01b031683526007825280832033845290915281205460ff16156125da5760008b8152600660205260409020600201546125a9908390614e01565b6125b39083615a90565b9050808210156125d55760405162461bcd60e51b8152600401610a5b90615b76565b612601565b85600501548210156125fe5760405162461bcd60e51b8152600401610a5b90615b76565b50805b6000803390506000601260009054906101000a90046001600160a01b03166001600160a01b03166323b872dd33308e6040518463ffffffff1660e01b815260040161264e9392919061586a565b600060405180830381600087803b15801561266857600080fd5b505af115801561267c573d6000803e3d6000fd5b50505050600289015460038a01546001600160a01b03918216911603612781576126a78b8888614e20565b6126b1908c615a90565b93508e60010361272e5760125460038a015460405163a9059cbb60e01b81526001600160a01b039283169263a9059cbb926126f3929116908890600401615b00565b600060405180830381600087803b15801561270d57600080fd5b505af1158015612721573d6000803e3d6000fd5b5050505060019250612911565b600061273985612c5b565b60038b01546040519192506001600160a01b03169082156108fc029083906000818181858888f19350505050158015612776573d6000803e3d6000fd5b506001935050612911565b60006127918c8b60070154614e01565b905061279d818d615a90565b91506127aa828989614e20565b6127b4908d615a90565b60125460028c015460405163a9059cbb60e01b81529297506001600160a01b039182169263a9059cbb926127ee9216908590600401615b00565b600060405180830381600087803b15801561280857600080fd5b505af115801561281c573d6000803e3d6000fd5b505050508f6001036128ad57600061283786620f4240615ae9565b60125460038d015460405163a9059cbb60e01b81529293506001600160a01b039182169263a9059cbb926128719216908590600401615b00565b600060405180830381600087803b15801561288b57600080fd5b505af115801561289f573d6000803e3d6000fd5b50505050600194505061290f565b6128b685612c5b565b5060006128c161313f565b6128cb9087615ae9565b60038c01546040519192506001600160a01b03169082156108fc029083906000818181858888f19350505050158015612908573d6000803e3d6000fd5b5060019450505b505b82156129ff578f6001600160a01b03166323b872dd30848c600101546040518463ffffffff1660e01b815260040161294b9392919061586a565b600060405180830381600087803b15801561296557600080fd5b505af1158015612979573d6000803e3d6000fd5b50505060018a015460038b0154604051600080516020615f1783398151915293506129b292916001600160a01b03169086908a90615b3b565b60405180910390a16004890180546001600160a01b0384166001600160a01b03199182161790915560038a018054909116905560068901805460ff191690556129ff600280546001019055565b5050505050505050506121ca6001600055565b604080516002808252606082018352600092839291906020830190803683375050601154604080516315ab88c960e31b815290519394506001600160a01b039091169263ad5c4648925060048083019260209291908290030181865afa158015612a80573d6000803e3d6000fd5b505050506040513d601f19601f82011682018060405250810190612aa49190615bbd565b81600081518110612ab757612ab7615854565b6001600160a01b039283166020918202929092010152601054825191169082906001908110612ae857612ae8615854565b6001600160a01b03929092166020928302919091018201526040805160028082526060820183526000939192909183019080368337505060115460405163d06ca61f60e01b81529293506001600160a01b03169163d06ca61f9150612b539087908690600401615bda565b600060405180830381865afa158015612b70573d6000803e3d6000fd5b505050506040513d6000823e601f3d908101601f19168201604052612b989190810190615bfb565b60115481519192506001600160a01b031690637ff36ab590349084906001908110612bc557612bc5615854565b60200260200101518530426040518663ffffffff1660e01b8152600401612bef9493929190615c80565b60006040518083038185885af1158015612c0d573d6000803e3d6000fd5b50505050506040513d6000823e601f3d908101601f19168201604052612c369190810190615bfb565b5080600181518110612c4a57612c4a615854565b602002602001015192505050919050565b60408051600280825260608201835260009283929190602083019080368337505060105482519293506001600160a01b031691839150600090612ca057612ca0615854565b6001600160a01b03928316602091820292909201810191909152601154604080516315ab88c960e31b81529051919093169263ad5c46489260048083019391928290030181865afa158015612cf9573d6000803e3d6000fd5b505050506040513d601f19601f82011682018060405250810190612d1d9190615bbd565b81600181518110612d3057612d30615854565b6001600160a01b039283166020918202929092010152601254600f5460405163095ea7b360e01b81529183169263095ea7b392612d7592909116908790600401615b00565b600060405180830381600087803b158015612d8f57600080fd5b505af1158015612da3573d6000803e3d6000fd5b506000925060029150612db39050565b604051908082528060200260200182016040528015612ddc578160200160208202803683370190505b5060115460405163d06ca61f60e01b81529192506001600160a01b03169063d06ca61f90612e109087908690600401615bda565b600060405180830381865afa158015612e2d573d6000803e3d6000fd5b505050506040513d6000823e601f3d908101601f19168201604052612e559190810190615bfb565b60115481519192506001600160a01b031690634a25d94a9083906001908110612e8057612e80615854565b6020026020010151868530426040518663ffffffff1660e01b8152600401612eac959493929190615cb5565b6000604051808303816000875af1158015612ecb573d6000803e3d6000fd5b505050506040513d6000823e601f3d908101601f19168201604052612c369190810190615bfb565b336000908152600c602052604090205460609060ff1615612f265760405162461bcd60e51b8152600401610a5b906157e4565b6000612f3160035490565b90506000612f3e60025490565b612f489083615a90565b90506000816001600160401b03811115612f6457612f64615012565b604051908082528060200260200182016040528015612f9d57816020015b612f8a614f73565b815260200190600190039081612f825790505b5090506000805b848110156131355760008181526005602052604090206006015460ff168015612fe4575060008181526005602052604090206008015462010000900460ff165b156131235760008181526005602081815260409283902083516101808101855281546001600160a01b039081168252600180840154948301949094526002830154811695820195909552600382015485166060820152600482015490941660808501529182015460a0840152600682015460ff908116151560c0850152600783015460e085015260088301546101008501929116908111156130885761308861530a565b60018111156130995761309961530a565b81526020016008820160019054906101000a900460ff1660028111156130c1576130c161530a565b60028111156130d2576130d261530a565b8152600882015462010000900460ff1615156020820152600990910154604090910152835184908490811061310957613109615854565b6020026020010181905250818061311f90615796565b9250505b8061312d81615796565b915050612fa4565b5090935050505090565b60008073ee9f2375b4bdf6387aa8265dd4fb8f16512a1d4690506000816001600160a01b031663feaf968c6040518163ffffffff1660e01b815260040160a060405180830381865afa158015613199573d6000803e3d6000fd5b505050506040513d601f19601f820116820180604052508101906131bd9190615d0b565b505050915050600081136132085760405162461bcd60e51b8152602060048201526012602482015271496e76616c6964205553445420707269636560701b6044820152606401610a5b565b92915050565b6000818152600a60205260408120600301544211801561323e57506000828152600a602052604090206004015442105b1561324b57506001919050565b506000919050565b336000908152600c602052604090205460609060ff16156132865760405162461bcd60e51b8152600401610a5b906157e4565b6001600160a01b038216600090815260086020908152604091829020805483518184028101840190945280845290918301828280156132ee57602002820191906000526020600020905b81546001600160a01b031681526001909101906020018083116132d0575b50505050509050919050565b6000838152600a6020526040902060040154421161335a5760405162461bcd60e51b815260206004820152601a60248201527f41756374696f6e20686173206e6f7420656e646564207965742e0000000000006044820152606401610a5b565b60006133658361199e565b905060006133728361199e565b6000868152600a60205260409020600601549091506001600160a01b031615613448576000858152600a60205260409020600601546001600160a01b03163314806133d657506000858152600a60205260409020600101546001600160a01b031633145b6134435760405162461bcd60e51b815260206004820152603860248201527f4f6e6c792074686520686967686573742062696464657220616e6420746865206044820152771cd95b1b195c8818d85b8818db185a5b481d1a194813919560421b6064820152608401610a5b565b6134c6565b6000858152600a60205260409020600101546001600160a01b031633146134c65760405162461bcd60e51b815260206004820152602c60248201527f4f6e6c79207468652073656c6c65722063616e20636c6f73652074686520756e60448201526b39b7b6321030bab1ba34b7b760a11b6064820152608401610a5b565b6000858152600560209081526040808320600a90925282206006810154919290916001600160a01b031661358f576003830154600480850180546001600160a01b0319166001600160a01b0393841617905560068501805460ff19169055600184810154908601546040516323b872dd60e01b81528d8516946323b872dd946135549430949216920161586a565b600060405180830381600087803b15801561356e57600080fd5b505af1158015613582573d6000803e3d6000fd5b5050505060019050613a00565b60058201546000908190816008870154610100900460ff1660028111156135b8576135b861530a565b036137355760016006860154600160a01b900460ff1660028111156135df576135df61530a565b036136145760006135ee61313f565b6135f89083615b19565b905061360781620f4240615ae9565b5061361181612c5b565b50505b600286015460038701546001600160a01b039182169116036136885761363b818989614e20565b6136459082615a90565b60038701546040519193506001600160a01b03169083156108fc029084906000818181858888f19350505050158015613682573d6000803e3d6000fd5b5061393a565b61369a85600501548760070154614e01565b92506136a7818989614e20565b6136b18483615a90565b6136bb9190615a90565b60028701546040519193506001600160a01b03169084156108fc029085906000818181858888f193505050501580156136f8573d6000803e3d6000fd5b5060038601546040516001600160a01b039091169083156108fc029084906000818181858888f19350505050158015613682573d6000803e3d6000fd5b60016008870154610100900460ff1660028111156137555761375561530a565b0361393a5760006006860154600160a01b900460ff16600281111561377c5761377c61530a565b0361378d5761378a81612a12565b90505b600286015460038701546001600160a01b0391821691160361382f576137b4818989614e20565b6137be9082615a90565b601254600388015460405163a9059cbb60e01b81529294506001600160a01b039182169263a9059cbb926137f89216908690600401615b00565b600060405180830381600087803b15801561381257600080fd5b505af1158015613826573d6000803e3d6000fd5b5050505061393a565b61384185600501548760070154614e01565b925061384e818989614e20565b6138588483615a90565b6138629190615a90565b601254600388015460405163a9059cbb60e01b81529294506001600160a01b039182169263a9059cbb9261389c9216908690600401615b00565b600060405180830381600087803b1580156138b657600080fd5b505af11580156138ca573d6000803e3d6000fd5b5050601254600289015460405163a9059cbb60e01b81526001600160a01b03928316945063a9059cbb935061390792909116908790600401615b00565b600060405180830381600087803b15801561392157600080fd5b505af1158015613935573d6000803e3d6000fd5b505050505b836139bd578b6001600160a01b03166323b872dd308760060160009054906101000a90046001600160a01b031689600101546040518463ffffffff1660e01b815260040161398a9392919061586a565b600060405180830381600087803b1580156139a457600080fd5b505af11580156139b8573d6000803e3d6000fd5b505050505b6006808601546004880180546001600160a01b0319166001600160a01b039092169190911790558601805460ff191690556139fc600280546001019055565b5050505b6001830154600384015460068401546005850154604051600080516020615f1783398151915294613a419490936001600160a01b0391821693911691615b3b565b60405180910390a1505050505050505050565b6000838152600a6020526040902060030154839042118015613a8657506000818152600a602052604090206004015442105b613aa25760405162461bcd60e51b8152600401610a5b90615d4f565b600084815260056020526040902060080154849062010000900460ff161515600114613ae05760405162461bcd60e51b8152600401610a5b906158d2565b336000908152600c602052604090205460ff1615613b105760405162461bcd60e51b8152600401610a5b906157e4565b336000908152600b602052604090205460ff1615613b405760405162461bcd60e51b8152600401610a5b906157af565b6000613b4a61313f565b6000878152600660205260408120600101549192509060ff1615613bb7576000878152600560209081526040808320600301546001600160a01b031683526007825280832033845290915290205460ff16613bb75760405162461bcd60e51b8152600401610a5b90615d98565b6000613bc88764e8d4a51000615ae9565b9050613bd48382615ae9565b9050613be8670de0b6b3a764000082615b19565b6000898152600a60205260409020600601549091506001600160a01b0316613c3b576000888152600a6020526040902060020154811015613c3b5760405162461bcd60e51b8152600401610a5b90615dcf565b6000888152600a6020526040902060050154811015613c6c5760405162461bcd60e51b8152600401610a5b90615e06565b600160008981526005602052604090206008015460ff166001811115613c9457613c9461530a565b14613cb15760405162461bcd60e51b8152600401610a5b90615e63565b60008881526005602052604090206006015460ff161515600114613ce75760405162461bcd60e51b8152600401610a5b90615a59565b6012546040516323b872dd60e01b81526001600160a01b03909116906323b872dd90613d1b90339030908c9060040161586a565b600060405180830381600087803b158015613d3557600080fd5b505af1158015613d49573d6000803e3d6000fd5b5050506000898152600a60205260409020600681015460058201549192506001600160a01b0316908115613e8b5760016006840154600160a01b900460ff166002811115613d9957613d9961530a565b03613e2c576000613da861313f565b613db29083615b19565b9050613dc181620f4240615ae9565b60125460405163a9059cbb60e01b81529192506001600160a01b03169063a9059cbb90613df49086908590600401615b00565b600060405180830381600087803b158015613e0e57600080fd5b505af1158015613e22573d6000803e3d6000fd5b5050505050613e8b565b60006006840154600160a01b900460ff166002811115613e4e57613e4e61530a565b03613e8b576040516001600160a01b0383169082156108fc029083906000818181858888f19350505050158015613e89573d6000803e3d6000fd5b505b600583018490556006830180546001600160a01b03191633179055886002811115613eb857613eb861530a565b60068401805460ff60a01b1916600160a01b836002811115613edc57613edc61530a565b0217905550613eed42610258615e96565b83600401541015613f625761012c836004016000828254613f0e9190615e96565b9091555050600183015460048401546040517f8e1cb85d0855921b3c958b068fa707efb7db88099af764dd47f37eef82c3334d92613f59928f926001600160a01b0390921691615ea9565b60405180910390a15b600194507f4307392e6f0e441e74a4982d9fa9ddc49b3cd9d3902a9d3ecab0ad3c60a0acd18b8460010160009054906101000a90046001600160a01b03168560060160009054906101000a90046001600160a01b03168660050154604051613fcd9493929190615b3b565b60405180910390a15050505050505050505050565b60086020528160005260406000208181548110613ffe57600080fd5b6000918252602090912001546001600160a01b03169150829050565b6060600061402760035490565b9050600061403460025490565b61403e9083615a90565b90506000816001600160401b0381111561405a5761405a615012565b60405190808252806020026020018201604052801561409357816020015b614080614f73565b8152602001906001900390816140785790505b5090506000805b84811015611d295760008181526005602052604090206006015460ff1680156140d3575060008181526005602052604090206009015487145b80156140f6575060008181526005602052604090206008015462010000900460ff165b156142355760008181526005602081815260409283902083516101808101855281546001600160a01b039081168252600180840154948301949094526002830154811695820195909552600382015485166060820152600482015490941660808501529182015460a0840152600682015460ff908116151560c0850152600783015460e0850152600883015461010085019291169081111561419a5761419a61530a565b60018111156141ab576141ab61530a565b81526020016008820160019054906101000a900460ff1660028111156141d3576141d361530a565b60028111156141e4576141e461530a565b8152600882015462010000900460ff1615156020820152600990910154604090910152835184908490811061421b5761421b615854565b6020026020010181905250818061423190615796565b9250505b8061423f81615796565b91505061409a565b336000908152600c602052604090205460609060ff161561427a5760405162461bcd60e51b8152600401610a5b906157e4565b336000908152600b602052604090205460ff16156142aa5760405162461bcd60e51b8152600401610a5b906157af565b60006142b560035490565b90506000805b82811015614307576000818152600560205260409020600301546001600160a01b038087169116036142f557816142f181615796565b9250505b806142ff81615796565b9150506142bb565b506000816001600160401b0381111561432257614322615012565b60405190808252806020026020018201604052801561435b57816020015b614348614f73565b8152602001906001900390816143405790505b5090506000805b84811015611d29576000818152600560205260409020600301546001600160a01b038089169116036144c85760008181526005602081815260409283902083516101808101855281546001600160a01b039081168252600180840154948301949094526002830154811695820195909552600382015485166060820152600482015490941660808501529182015460a0840152600682015460ff908116151560c0850152600783015460e0850152600883015461010085019291169081111561442d5761442d61530a565b600181111561443e5761443e61530a565b81526020016008820160019054906101000a900460ff1660028111156144665761446661530a565b60028111156144775761447761530a565b8152600882015462010000900460ff161515602082015260099091015460409091015283518490849081106144ae576144ae615854565b602002602001018190525081806144c490615796565b9250505b806144d281615796565b915050614362565b60006144e4614d4e565b6000805b84518110156145835784818151811061450357614503615854565b602090810291909101810151600081815260058352604090819020600801805462ff0000191662010000891515908102919091179091558151838152938401529093507f6ffa1c2dfe558962660d78387d612607ef3f19ee482f7d51a12634d131e8db6e910160405180910390a18061457b81615796565b9150506144e8565b506001949350505050565b6009602052816000526040600020818154811061196057600080fd5b6145b2614d4e565b6001600160a01b0381166146175760405162461bcd60e51b815260206004820152602660248201527f4f776e61626c653a206e6577206f776e657220697320746865207a65726f206160448201526564647265737360d01b6064820152608401610a5b565b61462081614f00565b50565b6000828152600a602052604090206003015482904211801561465557506000818152600a602052604090206004015442105b6146715760405162461bcd60e51b8152600401610a5b90615d4f565b600083815260056020526040902060080154839062010000900460ff1615156001146146af5760405162461bcd60e51b8152600401610a5b906158d2565b336000908152600c602052604090205460ff16156146df5760405162461bcd60e51b8152600401610a5b906157e4565b336000908152600b602052604090205460ff161561470f5760405162461bcd60e51b8152600401610a5b906157af565b60008481526006602052604081206001015460ff1615614778576000858152600560209081526040808320600301546001600160a01b031683526007825280832033845290915290205460ff166147785760405162461bcd60e51b8152600401610a5b90615d98565b6000858152600a60205260409020600601546001600160a01b03166147c8576000858152600a60205260409020600201543410156147c85760405162461bcd60e51b8152600401610a5b90615dcf565b6000858152600a602052604090206005015434116147f85760405162461bcd60e51b8152600401610a5b90615e06565b600160008681526005602052604090206008015460ff1660018111156148205761482061530a565b1461483d5760405162461bcd60e51b8152600401610a5b90615e63565b60008581526005602052604090206006015460ff1615156001146148735760405162461bcd60e51b8152600401610a5b90615a59565b6000858152600a60205260409020600681015460058201546001600160a01b039091169081156149b15760016006840154600160a01b900460ff1660028111156148bf576148bf61530a565b036149525760006148ce61313f565b6148d89083615b19565b90506148e781620f4240615ae9565b60125460405163a9059cbb60e01b81529192506001600160a01b03169063a9059cbb9061491a9086908590600401615b00565b600060405180830381600087803b15801561493457600080fd5b505af1158015614948573d6000803e3d6000fd5b50505050506149b1565b60006006840154600160a01b900460ff1660028111156149745761497461530a565b036149b1576040516001600160a01b0383169082156108fc029083906000818181858888f193505050501580156149af573d6000803e3d6000fd5b505b3460058401556006830180546001600160a01b031916331790558660028111156149dd576149dd61530a565b60068401805460ff60a01b1916600160a01b836002811115614a0157614a0161530a565b0217905550614a1242610258615e96565b83600401541015614a875761012c836004016000828254614a339190615e96565b9091555050600183015460048401546040517f8e1cb85d0855921b3c958b068fa707efb7db88099af764dd47f37eef82c3334d92614a7e928c926001600160a01b0390921691615ea9565b60405180910390a15b600183810154600685015460058601546040519397507f4307392e6f0e441e74a4982d9fa9ddc49b3cd9d3902a9d3ecab0ad3c60a0acd193614ad9938d936001600160a01b0391821693911691615b3b565b60405180910390a15050505050505050565b336000908152600c602052604090205460609060ff1615614b1e5760405162461bcd60e51b8152600401610a5b906157e4565b6000614b2960035490565b90506000805b82811015614b7b576000818152600560205260409020600401546001600160a01b03808716911603614b695781614b6581615796565b9250505b80614b7381615796565b915050614b2f565b506000816001600160401b03811115614b9657614b96615012565b604051908082528060200260200182016040528015614bcf57816020015b614bbc614f73565b815260200190600190039081614bb45790505b5090506000805b84811015611d29576000818152600560205260409020600401546001600160a01b03808916911603614d3c5760008181526005602081815260409283902083516101808101855281546001600160a01b039081168252600180840154948301949094526002830154811695820195909552600382015485166060820152600482015490941660808501529182015460a0840152600682015460ff908116151560c0850152600783015460e08501526008830154610100850192911690811115614ca157614ca161530a565b6001811115614cb257614cb261530a565b81526020016008820160019054906101000a900460ff166002811115614cda57614cda61530a565b6002811115614ceb57614ceb61530a565b8152600882015462010000900460ff16151560208201526009909101546040909101528351849084908110614d2257614d22615854565b60200260200101819052508180614d3890615796565b9250505b80614d4681615796565b915050614bd6565b6001546001600160a01b031633146121e55760405162461bcd60e51b815260206004820181905260248201527f4f776e61626c653a2063616c6c6572206973206e6f7420746865206f776e65726044820152606401610a5b565b600260005403614dfa5760405162461bcd60e51b815260206004820152601f60248201527f5265656e7472616e637947756172643a207265656e7472616e742063616c6c006044820152606401610a5b565b6002600055565b60006064614e0f8385615ae9565b614e199190615b19565b9392505050565b6000806103e8614e308587615ae9565b614e3a9190615b19565b90506103e8614e498487615ae9565b614e539190615b19565b614e5d9082615e96565b95945050505050565b61462081604051602401614e7a9190615ec8565b60408051601f198184030181529190526020810180516001600160e01b031663104c13eb60e21b179052614f52565b805480614ef85760405162461bcd60e51b815260206004820152601b60248201527f436f756e7465723a2064656372656d656e74206f766572666c6f7700000000006044820152606401610a5b565b600019019055565b600180546001600160a01b038381166001600160a01b0319831681179093556040519116919082907f8be0079c531659141344cd1fd0a4f28419497f9722a3daafe3b4186f6b6457e090600090a35050565b60006a636f6e736f6c652e6c6f679050600080835160208501845afa505050565b6040805161018081018252600080825260208201819052918101829052606081018290526080810182905260a0810182905260c0810182905260e081018290529061010082019081526020016000815260006020820181905260409091015290565b6001600160a01b038116811461462057600080fd5b8035611a0f81614fd5565b60006020828403121561500757600080fd5b8135614e1981614fd5565b634e487b7160e01b600052604160045260246000fd5b604051601f8201601f191681016001600160401b038111828210171561505057615050615012565b604052919050565b60006001600160401b0382111561507157615071615012565b5060051b60200190565b600082601f83011261508c57600080fd5b813560206150a161509c83615058565b615028565b82815260059290921b840181019181810190868411156150c057600080fd5b8286015b848110156150db57803583529183019183016150c4565b509695505050505050565b60008060008060008060008060006101208a8c03121561510557600080fd5b61510e8a614fea565b985060208a01356001600160401b038082111561512a57600080fd5b6151368d838e0161507b565b995060408c013591508082111561514c57600080fd5b6151588d838e0161507b565b985060608c0135975060808c0135965060a08c013591508082111561517c57600080fd5b6151888d838e0161507b565b955060c08c013591508082111561519e57600080fd5b506151ab8c828d0161507b565b93505060e08a013591506101008a013590509295985092959850929598565b803560ff81168114611a0f57600080fd5b600080600080600060a086880312156151f357600080fd5b85356151fe81614fd5565b9450602086013593506040860135925061521a606087016151ca565b9150615228608087016151ca565b90509295509295909350565b6000602080838503121561524757600080fd5b82356001600160401b0381111561525d57600080fd5b8301601f8101851361526e57600080fd5b803561527c61509c82615058565b81815260059190911b8201830190838101908783111561529b57600080fd5b928401925b828410156152c25783356152b381614fd5565b825292840192908401906152a0565b979650505050505050565b600080604083850312156152e057600080fd5b50508035926020909101359150565b60006020828403121561530157600080fd5b614e19826151ca565b634e487b7160e01b600052602160045260246000fd5b600281106153305761533061530a565b9052565b600381106153305761533061530a565b602080825282518282018190526000919060409081850190868401855b8281101561541a57815180516001600160a01b0390811686528782015188870152868201518116878701526060808301518216908701526080808301519091169086015260a0808201519086015260c08082015115159086015260e08082015190860152610100808201516153d882880182615320565b5050610120808201516153ed82880182615334565b50506101408181015115159086015261016090810151908501526101809093019290850190600101615361565b5091979650505050505050565b600080600080600080600060e0888a03121561544257600080fd5b873561544d81614fd5565b96506020880135955060408801359450606088013593506080880135925060a0880135915060c088013561548081614fd5565b8091505092959891949750929550565b60008060008060008060c087890312156154a957600080fd5b86356154b481614fd5565b955060208701359450604087013593506154d0606088016151ca565b92506154de608088016151ca565b915060a087013590509295509295509295565b60006020828403121561550357600080fd5b5035919050565b600081518084526020808501945080840160005b838110156155435781516001600160a01b03168752958201959082019060010161551e565b509495945050505050565b602081526000614e19602083018461550a565b60006020828403121561557357600080fd5b813560048110614e1957600080fd5b6000806000806080858703121561559857600080fd5b84356155a381614fd5565b9350602085013592506155b8604086016151ca565b91506155c6606086016151ca565b905092959194509250565b8881526001600160a01b03888116602083015260408201889052606082018790526080820186905260a08201859052831660c0820152610100810161561960e0830184615334565b9998505050505050505050565b60008060006060848603121561563b57600080fd5b505081359360208301359350604090920135919050565b6001600160a01b038d81168252602082018d90528b811660408301528a811660608301528916608082015260a0810188905286151560c082015260e0810186905261018081016156a6610100830187615320565b6156b4610120830186615334565b92151561014082015261016001529a9950505050505050505050565b600080604083850312156156e357600080fd5b82356156ee81614fd5565b946020939093013593505050565b6000806040838503121561570f57600080fd5b82356001600160401b0381111561572557600080fd5b6157318582860161507b565b9250506020830135801515811461574757600080fd5b809150509250929050565b6000806040838503121561576557600080fd5b823561577081614fd5565b9150602083013561574781614fd5565b634e487b7160e01b600052601160045260246000fd5b6000600182016157a8576157a8615780565b5060010190565b6020808252818101527f596f75206172652062616e6e6564206f6e207468697320706c6174666f726d2e604082015260600190565b6020808252604a908201527f596f7520617265207065726d656e616e746c792064656c657465642066726f6d60408201527f207468697320706c6174666f726d20666f722076696f6c6174696e6720746865606082015269103837b634b1b4b2b99760b11b608082015260a00190565b634e487b7160e01b600052603260045260246000fd5b6001600160a01b039384168152919092166020820152604081019190915260600190565b6001600160a01b03978816815260208101969096529386166040860152919094166060840152608083019390935260a082019290925260c081019190915260e00190565b60208082526038908201527f54686973204e4654206973206e6f7420617070726f766564207965742066726f6040820152776d207468652061646d696e20666f7220707572636861736560401b606082015260800190565b60208082526025908201527f416e206f776e65722063616e6e6f7420707572636861736520697473206f776e6040820152641027232a1760d91b606082015260800190565b60208082526036908201527f546865206f776e6572206f662074686973206e667420697320626c61636b6c6960408201527539ba32b21037b7103a3434b990383630ba3337b9369760511b606082015260800190565b6020808252603d908201527f546865206f776e6572206f662074686973206e6674206973207065726d616e6160408201527f6e746c792062616e6e6564206f6e207468697320706c6174666f726d2e000000606082015260800190565b6020808252601a908201527f54686973204e4654206973206e6f742061742061756374696f6e000000000000604082015260600190565b6020808252601d908201527f4e6674206973206e6f74206c697374656420746f207075726368617365000000604082015260600190565b8181038181111561320857613208615780565b60208082526026908201527f4e6f7420656e6f75676820657468657220746f20636f7665722061736b696e6760408201526520707269636560d01b606082015260800190565b808202811582820484141761320857613208615780565b6001600160a01b03929092168252602082015260400190565b600082615b3657634e487b7160e01b600052601260045260246000fd5b500490565b9384526001600160a01b03928316602085015291166040830152606082015260800190565b634e487b7160e01b600052603160045260246000fd5b60208082526027908201527f4e6f7420656e6f75676820616d6f756e7420746f20636f7665722061736b696e6040820152666720707269636560c81b606082015260800190565b600060208284031215615bcf57600080fd5b8151614e1981614fd5565b828152604060208201526000615bf3604083018461550a565b949350505050565b60006020808385031215615c0e57600080fd5b82516001600160401b03811115615c2457600080fd5b8301601f81018513615c3557600080fd5b8051615c4361509c82615058565b81815260059190911b82018301908381019087831115615c6257600080fd5b928401925b828410156152c257835182529284019290840190615c67565b848152608060208201526000615c99608083018661550a565b6001600160a01b03949094166040830152506060015292915050565b85815284602082015260a060408201526000615cd460a083018661550a565b6001600160a01b0394909416606083015250608001529392505050565b805169ffffffffffffffffffff81168114611a0f57600080fd5b600080600080600060a08688031215615d2357600080fd5b615d2c86615cf1565b945060208601519350604086015192506060860151915061522860808701615cf1565b60208082526029908201527f54686973204e4654206973206e6f74206f6e2061756374696f6e206174207468604082015268329036b7b6b2b73a1760b91b606082015260800190565b6020808252601b908201527f596f7520617265206e6f7420696e207468652066616e206c6973740000000000604082015260600190565b6020808252601c908201527f4d696e696d756d206269642068617320746f2062652068696768657200000000604082015260600190565b6020808252603c908201527f596f75206861766520746f2062696420686967686572207468616e207468652060408201527f686967686573742062696420746f206d616b6520616e206f6666657200000000606082015260800190565b6020808252601990820152782a3434b99027232a1034b99030ba1030ba1030bab1ba34b7b760391b604082015260600190565b8082018082111561320857613208615780565b9283526001600160a01b03919091166020830152604082015260600190565b600060208083528351808285015260005b81811015615ef557858101830151858201604001528201615ed9565b506000604082860101526040601f19601f830116850101925050509291505056fe8562eb94748e30bb0071e932744ce902b460c683474fcb3bfd567ffa16b1afb2a26469706673582212209468888241485b3c668be87fb416f45a98e6d27e70f3b5c11bc48e01b1ae755964736f6c63430008130033",
  "linkReferences": {},
  "deployedLinkReferences": {}
}