{
  "_format": "hh-sol-artifact-1",
  "contractName": "ArtiziaMarketplace",
  "sourceName": "contracts/ArtiziaMarketplace.sol",
  "abi": [
    {
      "inputs": [
        {
          "internalType": "address",
          "name": "_token",
          "type": "address"
        }
      ],
      "stateMutability": "nonpayable",
      "type": "constructor"
    },
    {
      "inputs": [],
      "name": "invalidListingType",
      "type": "error"
    },
    {
      "inputs": [],
      "name": "invalidPrice",
      "type": "error"
    },
    {
      "anonymous": false,
      "inputs": [
        {
          "indexed": false,
          "internalType": "address",
          "name": "nftContract",
          "type": "address"
        },
        {
          "indexed": false,
          "internalType": "uint256",
          "name": "tokenId",
          "type": "uint256"
        },
        {
          "indexed": false,
          "internalType": "address",
          "name": "seller",
          "type": "address"
        },
        {
          "indexed": false,
          "internalType": "address",
          "name": "owner",
          "type": "address"
        },
        {
          "indexed": false,
          "internalType": "uint256",
          "name": "price",
          "type": "uint256"
        }
      ],
      "name": "NFTListed",
      "type": "event"
    },
    {
      "anonymous": false,
      "inputs": [
        {
          "indexed": false,
          "internalType": "address",
          "name": "nftContract",
          "type": "address"
        },
        {
          "indexed": false,
          "internalType": "uint256",
          "name": "tokenId",
          "type": "uint256"
        },
        {
          "indexed": false,
          "internalType": "address",
          "name": "seller",
          "type": "address"
        },
        {
          "indexed": false,
          "internalType": "address",
          "name": "owner",
          "type": "address"
        },
        {
          "indexed": false,
          "internalType": "uint256",
          "name": "price",
          "type": "uint256"
        }
      ],
      "name": "NFTSold",
      "type": "event"
    },
    {
      "anonymous": false,
      "inputs": [
        {
          "indexed": true,
          "internalType": "address",
          "name": "previousOwner",
          "type": "address"
        },
        {
          "indexed": true,
          "internalType": "address",
          "name": "newOwner",
          "type": "address"
        }
      ],
      "name": "OwnershipTransferred",
      "type": "event"
    },
    {
      "anonymous": false,
      "inputs": [
        {
          "indexed": false,
          "internalType": "uint256",
          "name": "newTime",
          "type": "uint256"
        }
      ],
      "name": "auctionEndTimeIncreased",
      "type": "event"
    },
    {
      "anonymous": false,
      "inputs": [
        {
          "indexed": false,
          "internalType": "uint256",
          "name": "tokenId",
          "type": "uint256"
        },
        {
          "indexed": false,
          "internalType": "address",
          "name": "seller",
          "type": "address"
        },
        {
          "indexed": false,
          "internalType": "address",
          "name": "highestBidder",
          "type": "address"
        },
        {
          "indexed": false,
          "internalType": "uint256",
          "name": "highestBid",
          "type": "uint256"
        }
      ],
      "name": "getsOutbid",
      "type": "event"
    },
    {
      "anonymous": false,
      "inputs": [
        {
          "indexed": false,
          "internalType": "uint256",
          "name": "tokenId",
          "type": "uint256"
        },
        {
          "indexed": false,
          "internalType": "address",
          "name": "seller",
          "type": "address"
        },
        {
          "indexed": false,
          "internalType": "address",
          "name": "highestBidder",
          "type": "address"
        },
        {
          "indexed": false,
          "internalType": "uint256",
          "name": "highestBid",
          "type": "uint256"
        }
      ],
      "name": "receivedABid",
      "type": "event"
    },
    {
      "stateMutability": "payable",
      "type": "fallback"
    },
    {
      "inputs": [],
      "name": "UNISWAP_ROUTER_ADDRESS",
      "outputs": [
        {
          "internalType": "address",
          "name": "",
          "type": "address"
        }
      ],
      "stateMutability": "view",
      "type": "function"
    },
    {
      "inputs": [],
      "name": "USDT_ADDRESS",
      "outputs": [
        {
          "internalType": "address",
          "name": "",
          "type": "address"
        }
      ],
      "stateMutability": "view",
      "type": "function"
    },
    {
      "inputs": [
        {
          "internalType": "uint256",
          "name": "",
          "type": "uint256"
        }
      ],
      "name": "_idToAuction",
      "outputs": [
        {
          "internalType": "uint256",
          "name": "tokenId",
          "type": "uint256"
        },
        {
          "internalType": "address payable",
          "name": "seller",
          "type": "address"
        },
        {
          "internalType": "uint256",
          "name": "basePrice",
          "type": "uint256"
        },
        {
          "internalType": "uint256",
          "name": "startTime",
          "type": "uint256"
        },
        {
          "internalType": "uint256",
          "name": "endTime",
          "type": "uint256"
        },
        {
          "internalType": "uint256",
          "name": "highestBid",
          "type": "uint256"
        },
        {
          "internalType": "address payable",
          "name": "highestBidder",
          "type": "address"
        },
        {
          "internalType": "enum ArtiziaMarketplace.PaymentMethod",
          "name": "highestBidCurrency",
          "type": "uint8"
        }
      ],
      "stateMutability": "view",
      "type": "function"
    },
    {
      "inputs": [
        {
          "internalType": "uint256",
          "name": "",
          "type": "uint256"
        }
      ],
      "name": "_idToNFT",
      "outputs": [
        {
          "internalType": "address",
          "name": "nftContract",
          "type": "address"
        },
        {
          "internalType": "uint256",
          "name": "tokenId",
          "type": "uint256"
        },
        {
          "internalType": "address payable",
          "name": "firstOwner",
          "type": "address"
        },
        {
          "internalType": "address payable",
          "name": "seller",
          "type": "address"
        },
        {
          "internalType": "address payable",
          "name": "owner",
          "type": "address"
        },
        {
          "internalType": "uint256",
          "name": "price",
          "type": "uint256"
        },
        {
          "internalType": "bool",
          "name": "listed",
          "type": "bool"
        },
        {
          "internalType": "uint256",
          "name": "royaltyPrice",
          "type": "uint256"
        },
        {
          "internalType": "enum ArtiziaMarketplace.ListingType",
          "name": "listingType",
          "type": "uint8"
        },
        {
          "internalType": "enum ArtiziaMarketplace.PaymentMethod",
          "name": "paymentMethod",
          "type": "uint8"
        },
        {
          "internalType": "bool",
          "name": "approve",
          "type": "bool"
        }
      ],
      "stateMutability": "view",
      "type": "function"
    },
    {
      "inputs": [],
      "name": "_nftCount",
      "outputs": [
        {
          "internalType": "uint256",
          "name": "_value",
          "type": "uint256"
        }
      ],
      "stateMutability": "view",
      "type": "function"
    },
    {
      "inputs": [],
      "name": "_nftsSold",
      "outputs": [
        {
          "internalType": "uint256",
          "name": "_value",
          "type": "uint256"
        }
      ],
      "stateMutability": "view",
      "type": "function"
    },
    {
      "inputs": [
        {
          "internalType": "address[]",
          "name": "fans",
          "type": "address[]"
        }
      ],
      "name": "addFans",
      "outputs": [],
      "stateMutability": "nonpayable",
      "type": "function"
    },
    {
      "inputs": [
        {
          "internalType": "uint256[]",
          "name": "_tokenId",
          "type": "uint256[]"
        },
        {
          "internalType": "bool",
          "name": "_decision",
          "type": "bool"
        }
      ],
      "name": "approveNfts",
      "outputs": [
        {
          "internalType": "bool",
          "name": "",
          "type": "bool"
        }
      ],
      "stateMutability": "nonpayable",
      "type": "function"
    },
    {
      "inputs": [
        {
          "internalType": "address",
          "name": "_user",
          "type": "address"
        }
      ],
      "name": "banUser",
      "outputs": [],
      "stateMutability": "nonpayable",
      "type": "function"
    },
    {
      "inputs": [
        {
          "internalType": "address",
          "name": "",
          "type": "address"
        }
      ],
      "name": "bannedUsers",
      "outputs": [
        {
          "internalType": "bool",
          "name": "",
          "type": "bool"
        }
      ],
      "stateMutability": "view",
      "type": "function"
    },
    {
      "inputs": [
        {
          "internalType": "uint256",
          "name": "_tokenId",
          "type": "uint256"
        },
        {
          "internalType": "uint256",
          "name": "_bidCurrency",
          "type": "uint256"
        }
      ],
      "name": "bidInETH",
      "outputs": [],
      "stateMutability": "payable",
      "type": "function"
    },
    {
      "inputs": [
        {
          "internalType": "uint256",
          "name": "_tokenId",
          "type": "uint256"
        },
        {
          "internalType": "uint256",
          "name": "_amount",
          "type": "uint256"
        },
        {
          "internalType": "uint256",
          "name": "_bidCurrency",
          "type": "uint256"
        }
      ],
      "name": "bidInUSDT",
      "outputs": [],
      "stateMutability": "payable",
      "type": "function"
    },
    {
      "inputs": [
        {
          "internalType": "address",
          "name": "_nftContract",
          "type": "address"
        },
        {
          "internalType": "uint256",
          "name": "_paymentMethod",
          "type": "uint256"
        },
        {
          "internalType": "uint256",
          "name": "_tokenId",
          "type": "uint256"
        }
      ],
      "name": "buyWithETH",
      "outputs": [],
      "stateMutability": "payable",
      "type": "function"
    },
    {
      "inputs": [
        {
          "internalType": "address",
          "name": "_nftContract",
          "type": "address"
        },
        {
          "internalType": "uint256",
          "name": "_paymentMethod",
          "type": "uint256"
        },
        {
          "internalType": "uint256",
          "name": "_tokenId",
          "type": "uint256"
        },
        {
          "internalType": "uint256",
          "name": "_amount",
          "type": "uint256"
        }
      ],
      "name": "buyWithUSDT",
      "outputs": [],
      "stateMutability": "payable",
      "type": "function"
    },
    {
      "inputs": [],
      "name": "checkBannedOrDeletedUser",
      "outputs": [
        {
          "internalType": "bool",
          "name": "",
          "type": "bool"
        }
      ],
      "stateMutability": "view",
      "type": "function"
    },
    {
      "inputs": [
        {
          "internalType": "address",
          "name": "_nftContract",
          "type": "address"
        },
        {
          "internalType": "uint256",
          "name": "_tokenId",
          "type": "uint256"
        }
      ],
      "name": "closeAuction",
      "outputs": [],
      "stateMutability": "payable",
      "type": "function"
    },
    {
      "inputs": [
        {
          "internalType": "address",
          "name": "_user",
          "type": "address"
        }
      ],
      "name": "deleteUser",
      "outputs": [],
      "stateMutability": "nonpayable",
      "type": "function"
    },
    {
      "inputs": [
        {
          "internalType": "address",
          "name": "",
          "type": "address"
        }
      ],
      "name": "deletedUsers",
      "outputs": [
        {
          "internalType": "bool",
          "name": "",
          "type": "bool"
        }
      ],
      "stateMutability": "view",
      "type": "function"
    },
    {
      "inputs": [
        {
          "internalType": "address",
          "name": "",
          "type": "address"
        },
        {
          "internalType": "uint256",
          "name": "",
          "type": "uint256"
        }
      ],
      "name": "fanLists",
      "outputs": [
        {
          "internalType": "address",
          "name": "",
          "type": "address"
        }
      ],
      "stateMutability": "view",
      "type": "function"
    },
    {
      "inputs": [],
      "name": "getContractBalance",
      "outputs": [
        {
          "internalType": "uint256",
          "name": "",
          "type": "uint256"
        }
      ],
      "stateMutability": "view",
      "type": "function"
    },
    {
      "inputs": [],
      "name": "getFans",
      "outputs": [
        {
          "internalType": "address[]",
          "name": "",
          "type": "address[]"
        }
      ],
      "stateMutability": "view",
      "type": "function"
    },
    {
      "inputs": [
        {
          "internalType": "uint256",
          "name": "_tokenId",
          "type": "uint256"
        }
      ],
      "name": "getHighestBid",
      "outputs": [
        {
          "internalType": "uint256",
          "name": "",
          "type": "uint256"
        }
      ],
      "stateMutability": "view",
      "type": "function"
    },
    {
      "inputs": [],
      "name": "getLatestUSDTPrice",
      "outputs": [
        {
          "internalType": "uint256",
          "name": "",
          "type": "uint256"
        }
      ],
      "stateMutability": "view",
      "type": "function"
    },
    {
      "inputs": [],
      "name": "getListedNfts",
      "outputs": [
        {
          "components": [
            {
              "internalType": "address",
              "name": "nftContract",
              "type": "address"
            },
            {
              "internalType": "uint256",
              "name": "tokenId",
              "type": "uint256"
            },
            {
              "internalType": "address payable",
              "name": "firstOwner",
              "type": "address"
            },
            {
              "internalType": "address payable",
              "name": "seller",
              "type": "address"
            },
            {
              "internalType": "address payable",
              "name": "owner",
              "type": "address"
            },
            {
              "internalType": "uint256",
              "name": "price",
              "type": "uint256"
            },
            {
              "internalType": "bool",
              "name": "listed",
              "type": "bool"
            },
            {
              "internalType": "uint256",
              "name": "royaltyPrice",
              "type": "uint256"
            },
            {
              "internalType": "enum ArtiziaMarketplace.ListingType",
              "name": "listingType",
              "type": "uint8"
            },
            {
              "internalType": "enum ArtiziaMarketplace.PaymentMethod",
              "name": "paymentMethod",
              "type": "uint8"
            },
            {
              "internalType": "bool",
              "name": "approve",
              "type": "bool"
            }
          ],
          "internalType": "struct ArtiziaMarketplace.NFT[]",
          "name": "",
          "type": "tuple[]"
        }
      ],
      "stateMutability": "view",
      "type": "function"
    },
    {
      "inputs": [
        {
          "internalType": "address",
          "name": "_user",
          "type": "address"
        }
      ],
      "name": "getMyListedNfts",
      "outputs": [
        {
          "components": [
            {
              "internalType": "address",
              "name": "nftContract",
              "type": "address"
            },
            {
              "internalType": "uint256",
              "name": "tokenId",
              "type": "uint256"
            },
            {
              "internalType": "address payable",
              "name": "firstOwner",
              "type": "address"
            },
            {
              "internalType": "address payable",
              "name": "seller",
              "type": "address"
            },
            {
              "internalType": "address payable",
              "name": "owner",
              "type": "address"
            },
            {
              "internalType": "uint256",
              "name": "price",
              "type": "uint256"
            },
            {
              "internalType": "bool",
              "name": "listed",
              "type": "bool"
            },
            {
              "internalType": "uint256",
              "name": "royaltyPrice",
              "type": "uint256"
            },
            {
              "internalType": "enum ArtiziaMarketplace.ListingType",
              "name": "listingType",
              "type": "uint8"
            },
            {
              "internalType": "enum ArtiziaMarketplace.PaymentMethod",
              "name": "paymentMethod",
              "type": "uint8"
            },
            {
              "internalType": "bool",
              "name": "approve",
              "type": "bool"
            }
          ],
          "internalType": "struct ArtiziaMarketplace.NFT[]",
          "name": "",
          "type": "tuple[]"
        }
      ],
      "stateMutability": "view",
      "type": "function"
    },
    {
      "inputs": [
        {
          "internalType": "address",
          "name": "_user",
          "type": "address"
        }
      ],
      "name": "getMyNfts",
      "outputs": [
        {
          "components": [
            {
              "internalType": "address",
              "name": "nftContract",
              "type": "address"
            },
            {
              "internalType": "uint256",
              "name": "tokenId",
              "type": "uint256"
            },
            {
              "internalType": "address payable",
              "name": "firstOwner",
              "type": "address"
            },
            {
              "internalType": "address payable",
              "name": "seller",
              "type": "address"
            },
            {
              "internalType": "address payable",
              "name": "owner",
              "type": "address"
            },
            {
              "internalType": "uint256",
              "name": "price",
              "type": "uint256"
            },
            {
              "internalType": "bool",
              "name": "listed",
              "type": "bool"
            },
            {
              "internalType": "uint256",
              "name": "royaltyPrice",
              "type": "uint256"
            },
            {
              "internalType": "enum ArtiziaMarketplace.ListingType",
              "name": "listingType",
              "type": "uint8"
            },
            {
              "internalType": "enum ArtiziaMarketplace.PaymentMethod",
              "name": "paymentMethod",
              "type": "uint8"
            },
            {
              "internalType": "bool",
              "name": "approve",
              "type": "bool"
            }
          ],
          "internalType": "struct ArtiziaMarketplace.NFT[]",
          "name": "",
          "type": "tuple[]"
        }
      ],
      "stateMutability": "view",
      "type": "function"
    },
    {
      "inputs": [
        {
          "internalType": "uint256",
          "name": "_tokenId",
          "type": "uint256"
        }
      ],
      "name": "getNftApprovalStatus",
      "outputs": [
        {
          "internalType": "bool",
          "name": "",
          "type": "bool"
        }
      ],
      "stateMutability": "view",
      "type": "function"
    },
    {
      "inputs": [
        {
          "internalType": "uint256",
          "name": "_tokenId",
          "type": "uint256"
        }
      ],
      "name": "getStatusOfAuction",
      "outputs": [
        {
          "internalType": "bool",
          "name": "",
          "type": "bool"
        }
      ],
      "stateMutability": "view",
      "type": "function"
    },
    {
      "inputs": [
        {
          "internalType": "address",
          "name": "",
          "type": "address"
        },
        {
          "internalType": "address",
          "name": "",
          "type": "address"
        }
      ],
      "name": "isFan",
      "outputs": [
        {
          "internalType": "bool",
          "name": "",
          "type": "bool"
        }
      ],
      "stateMutability": "view",
      "type": "function"
    },
    {
      "inputs": [
        {
          "internalType": "address",
          "name": "_nftContract",
          "type": "address"
        },
        {
          "internalType": "uint256[]",
          "name": "_tokenId",
          "type": "uint256[]"
        },
        {
          "internalType": "uint256",
          "name": "_price",
          "type": "uint256"
        },
        {
          "internalType": "uint256",
          "name": "_royaltyPrice",
          "type": "uint256"
        },
        {
          "internalType": "uint256",
          "name": "_listingType",
          "type": "uint256"
        },
        {
          "internalType": "uint256",
          "name": "_startTime",
          "type": "uint256"
        },
        {
          "internalType": "uint256",
          "name": "_endTime",
          "type": "uint256"
        },
        {
          "internalType": "uint256",
          "name": "_paymentMethod",
          "type": "uint256"
        }
      ],
      "name": "listNft",
      "outputs": [],
      "stateMutability": "payable",
      "type": "function"
    },
    {
      "inputs": [],
      "name": "owner",
      "outputs": [
        {
          "internalType": "address",
          "name": "",
          "type": "address"
        }
      ],
      "stateMutability": "view",
      "type": "function"
    },
    {
      "inputs": [],
      "name": "removeAllFans",
      "outputs": [],
      "stateMutability": "nonpayable",
      "type": "function"
    },
    {
      "inputs": [
        {
          "internalType": "address",
          "name": "fan",
          "type": "address"
        }
      ],
      "name": "removeFan",
      "outputs": [],
      "stateMutability": "nonpayable",
      "type": "function"
    },
    {
      "inputs": [],
      "name": "renounceOwnership",
      "outputs": [],
      "stateMutability": "nonpayable",
      "type": "function"
    },
    {
      "inputs": [
        {
          "internalType": "address",
          "name": "_nftContract",
          "type": "address"
        },
        {
          "internalType": "uint256",
          "name": "_tokenId",
          "type": "uint256"
        },
        {
          "internalType": "uint256",
          "name": "_price",
          "type": "uint256"
        },
        {
          "internalType": "uint256",
          "name": "_listingType",
          "type": "uint256"
        },
        {
          "internalType": "uint256",
          "name": "_startTime",
          "type": "uint256"
        },
        {
          "internalType": "uint256",
          "name": "_endTime",
          "type": "uint256"
        },
        {
          "internalType": "uint256",
          "name": "_paymentMethod",
          "type": "uint256"
        }
      ],
      "name": "resellNft",
      "outputs": [],
      "stateMutability": "nonpayable",
      "type": "function"
    },
    {
      "inputs": [
        {
          "internalType": "uint256",
          "name": "usdtAmountOut",
          "type": "uint256"
        }
      ],
      "name": "swapETHForUSDT",
      "outputs": [],
      "stateMutability": "payable",
      "type": "function"
    },
    {
      "inputs": [
        {
          "internalType": "uint256",
          "name": "usdtAmountIn",
          "type": "uint256"
        }
      ],
      "name": "swapUSDTForETH",
      "outputs": [
        {
          "internalType": "uint256",
          "name": "",
          "type": "uint256"
        }
      ],
      "stateMutability": "nonpayable",
      "type": "function"
    },
    {
      "inputs": [
        {
          "internalType": "address",
          "name": "newOwner",
          "type": "address"
        }
      ],
      "name": "transferOwnership",
      "outputs": [],
      "stateMutability": "nonpayable",
      "type": "function"
    },
    {
      "inputs": [
        {
          "internalType": "address",
          "name": "_user",
          "type": "address"
        }
      ],
      "name": "unbanUser",
      "outputs": [],
      "stateMutability": "nonpayable",
      "type": "function"
    },
    {
      "stateMutability": "payable",
      "type": "receive"
    }
  ],
  "bytecode": "0x6080604052600b80546001600160a01b0319908116737a250d5630b4cf539739df2c5dacb4c659f2488d17909155600c805490911673dac17f958d2ee523a2206206994597c13d831ec71790553480156200005957600080fd5b50604051620057e4380380620057e48339810160408190526200007c9162000120565b60016000556200008c33620000ce565b60048054336001600160a01b031991821617909155600b54600d80546001600160a01b03928316908416179055600e8054909216921691909117905562000152565b600180546001600160a01b038381166001600160a01b0319831681179093556040519116919082907f8be0079c531659141344cd1fd0a4f28419497f9722a3daafe3b4186f6b6457e090600090a35050565b6000602082840312156200013357600080fd5b81516001600160a01b03811681146200014b57600080fd5b9392505050565b61568280620001626000396000f3fe60806040526004361061021c5760003560e01c806389ec8e1c11610122578063b9e07df1116100a5578063ecb4ad0c1161006c578063ecb4ad0c1461072a578063ed5a1c0f14610763578063f2fde38b1461079e578063f41dfb18146107be578063f6c1b77a146107d157005b8063b9e07df11461060c578063bbffa07b146106b3578063c1892058146106d3578063d6cbb202146106f3578063d6fc3dbd1461070a57005b806398dd36bf116100e957806398dd36bf1461052b5780639c74405814610540578063b48deb6014610560578063b4fa041214610573578063b8b3455d146105f957005b806389ec8e1c146104885780638cd410f4146104a85780638d6cb3fb146104c85780638da5cb5b146104dd5780638f288644146104fb57005b80635674c2e6116101aa57806377ec6a471161017157806377ec6a47146103bd57806379b36943146103ed5780638090551e146104255780638110c579146104385780638988d0781461045857005b80635674c2e61461033d578063572e2afe146103625780635c60f226146103755780636f9fb98a14610395578063715018a6146103a857005b80633b295cb0116101ee5780633b295cb0146102b5578063438364a1146102ca5780634c070fe7146102dd5780634d12b695146102f05780635274cff61461031057005b80630760943e1461022557806310d86b1f1461025057806331824a491461027057806331a7a70f1461029557005b3661022357005b005b34801561023157600080fd5b5061023a6107f1565b6040516102479190614ac0565b60405180910390f35b34801561025c57600080fd5b5061022361026b366004614ae8565b610896565b34801561027c57600080fd5b506002546102879081565b604051908152602001610247565b3480156102a157600080fd5b506102236102b0366004614b70565b6108c2565b3480156102c157600080fd5b50610223610a5d565b6102236102d8366004614c0f565b610afe565b6102236102eb366004614c3b565b611249565b3480156102fc57600080fd5b5061022361030b366004614ae8565b611acb565b34801561031c57600080fd5b5061033061032b366004614ae8565b611af4565b6040516102479190614cb0565b34801561034957600080fd5b50610352611dc8565b6040519015158152602001610247565b610223610370366004614d88565b611e06565b34801561038157600080fd5b50610223610390366004614ae8565b612369565b3480156103a157600080fd5b5047610287565b3480156103b457600080fd5b50610223612395565b3480156103c957600080fd5b506103526103d8366004614ae8565b600a6020526000908152604090205460ff1681565b3480156103f957600080fd5b50600b5461040d906001600160a01b031681565b6040516001600160a01b039091168152602001610247565b610223610433366004614dbd565b6123a9565b34801561044457600080fd5b50610223610453366004614dd6565b6125f6565b34801561046457600080fd5b50610352610473366004614ae8565b60096020526000908152604090205460ff1681565b34801561049457600080fd5b506102236104a3366004614ae8565b6129ba565b3480156104b457600080fd5b506102876104c3366004614dbd565b612bb8565b3480156104d457600080fd5b50610330612fa4565b3480156104e957600080fd5b506001546001600160a01b031661040d565b34801561050757600080fd5b50610287610516366004614dbd565b60009081526006602052604090206005015490565b34801561053757600080fd5b5061028761324d565b34801561054c57600080fd5b5061035261055b366004614dbd565b61332b565b61022361056e366004614e91565b613370565b34801561057f57600080fd5b506105e561058e366004614dbd565b6006602081905260009182526040909120805460018201546002830154600384015460048501546005860154959096015493956001600160a01b03938416959294919390929190811690600160a01b900460ff1688565b604051610247989796959493929190614f16565b610223610607366004614f6b565b613a36565b34801561061857600080fd5b5061069c610627366004614dbd565b60056020819052600091825260409091208054600182015460028301546003840154600485015495850154600686015460078701546008909701546001600160a01b03968716989597948716969384169590931693919260ff918216929181811691610100810482169162010000909104168b565b6040516102479b9a99989796959493929190614f97565b3480156106bf57600080fd5b5061040d6106ce366004614c0f565b613fe3565b3480156106df57600080fd5b50600c5461040d906001600160a01b031681565b3480156106ff57600080fd5b506003546102879081565b34801561071657600080fd5b50610352610725366004615012565b61401b565b34801561073657600080fd5b50610352610745366004614dbd565b60009081526005602052604090206008015462010000900460ff1690565b34801561076f57600080fd5b5061035261077e366004615069565b600760209081526000928352604080842090915290825290205460ff1681565b3480156107aa57600080fd5b506102236107b9366004614ae8565b614094565b6102236107cc366004615097565b61410a565b3480156107dd57600080fd5b506103306107ec366004614ae8565b614553565b336000908152600a602052604090205460609060ff161561082d5760405162461bcd60e51b8152600401610824906150b9565b60405180910390fd5b336000908152600860209081526040918290208054835181840281018401909452808452909183018282801561088c57602002820191906000526020600020905b81546001600160a01b0316815260019091019060200180831161086e575b5050505050905090565b61089e6147b0565b6001600160a01b03166000908152600960205260409020805460ff19166001179055565b336000908152600a602052604090205460ff16156108f25760405162461bcd60e51b8152600401610824906150b9565b60005b8151811015610a5957600082828151811061091257610912615129565b6020026020010151905060006001600160a01b0316816001600160a01b031614156109755760405162461bcd60e51b8152602060048201526013602482015272496e76616c69642066616e206164647265737360681b6044820152606401610824565b3360009081526007602090815260408083206001600160a01b038516845290915290205460ff16156109e95760405162461bcd60e51b815260206004820152601860248201527f4164647265737320697320616c726561647920612066616e00000000000000006044820152606401610824565b3360008181526008602090815260408083208054600180820183559185528385200180546001600160a01b0319166001600160a01b039790971696871790559383526007825280832094835293905291909120805460ff1916909117905580610a5181615155565b9150506108f5565b5050565b336000908152600860205260408120905b8154811015610ae25733600090815260076020526040812083548290859085908110610a9c57610a9c615129565b6000918252602080832091909101546001600160a01b031683528201929092526040019020805460ff191691151591909117905580610ada81615155565b915050610a6e565b50336000908152600860205260408120610afb916149ea565b50565b6000818152600660205260409020600401544211610b5a5760405162461bcd60e51b8152602060048201526019602482015278105d58dd1a5bdb881a185cc81b9bdd08195b991959081e595d603a1b6044820152606401610824565b600081815260066020819052604090912001546001600160a01b0316610bbe5760405162461bcd60e51b8152602060048201526019602482015278105d58dd1a5bdb881a185cc81b9bdd08195b991959081e595d603a1b6044820152606401610824565b60008181526005602090815260408083206006928390529220908101546001600160a01b0316610d1e57600181810154908301546040516323b872dd60e01b81526001600160a01b03878116936323b872dd93610c2393309390921691600401615170565b600060405180830381600087803b158015610c3d57600080fd5b505af1158015610c51573d6000803e3d6000fd5b50505060038301546004840180546001600160a01b0319166001600160a01b039283161790556006808501805460ff19169055600086815260208290526040902001541615159050610d1e5760405162461bcd60e51b815260206004820152604a60248201527f4e6f7468696e6720746f20636c61696d2e20596f75206861766520676f74203060448201527f2062696473206f6e20796f75722061756374696f6e2e2052657475726e696e67606482015269103cb7bab91027232a1760b11b608482015260a401610824565b6006808301805460ff191690556005820154908201546004840180546001600160a01b0319166001600160a01b0390921691909117905560009081908190816008870154610100900460ff166002811115610d7b57610d7b614c76565b1415610ee95760016006860154600160a01b900460ff166002811115610da357610da3614c76565b1415610dcb576000610db361324d565b610dbd9083615194565b9050610dc881612bb8565b50505b600286015460048701546001600160a01b0390811691161415610e3e57610df18161480a565b610dfb90826151b6565b60038701546040519193506001600160a01b03169083156108fc029084906000818181858888f19350505050158015610e38573d6000803e3d6000fd5b50611169565b610e5085600501548760070154614823565b9350610e5b8161480a565b610e6585836151b6565b610e6f91906151b6565b60028701546040519193506001600160a01b03169085156108fc029086906000818181858888f19350505050158015610eac573d6000803e3d6000fd5b5060038601546040516001600160a01b039091169083156108fc029084906000818181858888f19350505050158015610e38573d6000803e3d6000fd5b60016008870154610100900460ff166002811115610f0957610f09614c76565b14156111695760006006860154600160a01b900460ff166002811115610f3157610f31614c76565b1415610f59576000610f4161324d565b610f4b9083615194565b9050610f56826123a9565b90505b600286015460048701546001600160a01b039081169116141561106057600e546040516323b872dd60e01b81526001600160a01b03909116906323b872dd90610faa90339030908690600401615170565b600060405180830381600087803b158015610fc457600080fd5b505af1158015610fd8573d6000803e3d6000fd5b50505050610fe58161480a565b610fef90826151b6565b600e54600388015460405163a9059cbb60e01b81529294506001600160a01b039182169263a9059cbb9261102992169086906004016151cd565b600060405180830381600087803b15801561104357600080fd5b505af1158015611057573d6000803e3d6000fd5b50505050611169565b61107285600501548760070154614823565b935061107d8161480a565b61108785836151b6565b61109191906151b6565b600e54600388015460405163a9059cbb60e01b81529294506001600160a01b039182169263a9059cbb926110cb92169086906004016151cd565b600060405180830381600087803b1580156110e557600080fd5b505af11580156110f9573d6000803e3d6000fd5b5050600e54600289015460405163a9059cbb60e01b81526001600160a01b03928316945063a9059cbb9350611136929091169088906004016151cd565b600060405180830381600087803b15801561115057600080fd5b505af1158015611164573d6000803e3d6000fd5b505050505b600685015460018701546040516323b872dd60e01b81526001600160a01b038b8116936323b872dd936111a493309390921691600401615170565b600060405180830381600087803b1580156111be57600080fd5b505af11580156111d2573d6000803e3d6000fd5b505050506111e4600280546001019055565b6001860154600387015460068701546040517f16f1dbd97e6bf646d429ed186cce832f1f7fd9907814293b83181e9970ab7bd293611237938d9391926001600160a01b03918216929091169089906151e6565b60405180910390a15050505050505050565b3360009081526009602052604090205460ff16156112795760405162461bcd60e51b815260040161082490615219565b336000908152600a602052604090205460ff16156112a95760405162461bcd60e51b8152600401610824906150b9565b6112b1614842565b6000828152600560205260408120906112c861324d565b6112d2908461524e565b60048301546001600160a01b031660009081526009602052604090205490915060ff16156113125760405162461bcd60e51b81526004016108249061526d565b60048201546001600160a01b03166000908152600a602052604090205460ff161561134f5760405162461bcd60e51b8152600401610824906152c3565b81600501548110156113905760405162461bcd60e51b815260206004820152600a60248201526953656e64206d6f72652160b01b6044820152606401610824565b6000600883015460ff1660018111156113ab576113ab614c76565b146113f85760405162461bcd60e51b815260206004820152601a60248201527f54686973204e4654206973206e6f742061742061756374696f6e0000000000006044820152606401610824565b600682015460ff1615156001146114215760405162461bcd60e51b815260040161082490615320565b60008033905061144e60405180604001604052806006815260200165436865636b3160d01b81525061489c565b6002840154600385015460009182916001600160a01b03908116911614156116425761149760405180604001604052806006815260200165436865636b3360d01b81525061489c565b600e546040516323b872dd60e01b81526001600160a01b03909116906323b872dd906114cb90339030908c90600401615170565b600060405180830381600087803b1580156114e557600080fd5b505af11580156114f9573d6000803e3d6000fd5b505050506115068761480a565b61151090886151b6565b905088600114156115b5576115426040518060400160405280600681526020016510da1958dacd60d21b81525061489c565b600e54600387015460405163a9059cbb60e01b81526001600160a01b039283169263a9059cbb9261157a9291169085906004016151cd565b600060405180830381600087803b15801561159457600080fd5b505af11580156115a8573d6000803e3d6000fd5b505050506001935061193a565b6115dc60405180604001604052806006815260200165436865636b3560d01b81525061489c565b6115e581612bb8565b5060006115f061324d565b6115fa908361524e565b60038801546040519192506001600160a01b03169082156108fc029083906000818181858888f19350505050158015611637573d6000803e3d6000fd5b50600194505061193a565b6116696040518060400160405280600681526020016521b432b1b59b60d11b81525061489c565b6000611679888860070154614823565b905061168581896151b6565b92506116908361480a565b61169a90896151b6565b600e546040516323b872dd60e01b81529193506001600160a01b0316906323b872dd906116cf90339030908d90600401615170565b600060405180830381600087803b1580156116e957600080fd5b505af11580156116fd573d6000803e3d6000fd5b5050600e5460028a015460405163a9059cbb60e01b81526001600160a01b03928316945063a9059cbb935061173a929091169085906004016151cd565b600060405180830381600087803b15801561175457600080fd5b505af1158015611768573d6000803e3d6000fd5b5050505061179360405180604001604052806006815260200165436865636b3760d01b81525061489c565b896001141561185d576117c360405180604001604052806006815260200165086d0cac6d6760d31b81525061489c565b600e54600388015460405163a9059cbb60e01b81526001600160a01b039283169263a9059cbb926117fb9291169086906004016151cd565b600060405180830381600087803b15801561181557600080fd5b505af1158015611829573d6000803e3d6000fd5b505050506001945061185860405180604001604052806006815260200165436865636b3960d01b81525061489c565b611938565b611885604051806040016040528060078152602001660436865636b31360cc1b81525061489c565b61188e82612bb8565b50600061189961324d565b6118a3908461524e565b90506118cd60405180604001604052806007815260200166436865636b313160c81b81525061489c565b60038801546040516001600160a01b039091169082156108fc029083906000818181858888f19350505050158015611909573d6000803e3d6000fd5b506119326040518060400160405280600781526020016621b432b1b5989960c91b81525061489c565b60019550505b505b8315611ab55761196860405180604001604052806007815260200166436865636b313360c81b81525061489c565b60018601546040516323b872dd60e01b81526001600160a01b038c16916323b872dd9161199c913091889190600401615170565b600060405180830381600087803b1580156119b657600080fd5b505af11580156119ca573d6000803e3d6000fd5b505050506119f66040518060400160405280600781526020016610da1958dacc4d60ca1b81525061489c565b6004860180546001600160a01b0385166001600160a01b031991821617909155600387018054909116905560068601805460ff19169055611a3b600280546001019055565b600186015460038701546040517f16f1dbd97e6bf646d429ed186cce832f1f7fd9907814293b83181e9970ab7bd292611a85928e926001600160a01b0390911690889088906151e6565b60405180910390a1611ab560405180604001604052806007815260200166436865636b313560c81b81525061489c565b505050505050611ac56001600055565b50505050565b611ad36147b0565b6001600160a01b03166000908152600960205260409020805460ff19169055565b336000908152600a602052604090205460609060ff1615611b275760405162461bcd60e51b8152600401610824906150b9565b3360009081526009602052604090205460ff1615611b575760405162461bcd60e51b815260040161082490615219565b6000611b6260035490565b90506000805b82811015611bd2576000818152600560205260409020600301546001600160a01b038681169116148015611bad575060008181526005602052604090206006015460ff165b15611bc05781611bbc81615155565b9250505b80611bca81615155565b915050611b68565b5060008167ffffffffffffffff811115611bee57611bee614b05565b604051908082528060200260200182016040528015611c2757816020015b611c14614a08565b815260200190600190039081611c0c5790505b5090506000805b84811015611dbb576000818152600560205260409020600301546001600160a01b038881169116148015611c73575060008181526005602052604090206006015460ff165b15611da95760008181526005602081815260409283902083516101608101855281546001600160a01b039081168252600180840154948301949094526002830154811695820195909552600382015485166060820152600482015490941660808501529182015460a0840152600682015460ff908116151560c0850152600783015460e08501526008830154610100850192911690811115611d1757611d17614c76565b6001811115611d2857611d28614c76565b81526020016008820160019054906101000a900460ff166002811115611d5057611d50614c76565b6002811115611d6157611d61614c76565b81526008919091015462010000900460ff1615156020909101528351849084908110611d8f57611d8f615129565b60200260200101819052508180611da590615155565b9250505b80611db381615155565b915050611c2e565b509093505050505b919050565b3360009081526009602052604081205460ff1680611df55750336000908152600a602052604090205460ff165b15611e005750600190565b50600090565b3360009081526009602052604090205460ff1615611e365760405162461bcd60e51b815260040161082490615219565b336000908152600a602052604090205460ff1615611e665760405162461bcd60e51b8152600401610824906150b9565b611e6e614842565b600081815260056020908152604080832060048101546001600160a01b0316845260099092529091205460ff1615611eb85760405162461bcd60e51b81526004016108249061526d565b60048101546001600160a01b03166000908152600a602052604090205460ff1615611ef55760405162461bcd60e51b8152600401610824906152c3565b8060050154341015611f585760405162461bcd60e51b815260206004820152602660248201527f4e6f7420656e6f75676820657468657220746f20636f7665722061736b696e6760448201526520707269636560d01b6064820152608401610824565b6000600882015460ff166001811115611f7357611f73614c76565b14611fc05760405162461bcd60e51b815260206004820152601a60248201527f54686973204e4654206973206e6f742061742061756374696f6e0000000000006044820152606401610824565b600681015460ff161515600114611fe95760405162461bcd60e51b815260040161082490615320565b600281015460038201546000913391839182916001600160a01b0390811691161415612102576120183461480a565b61202290346151b6565b90508661206f5760038501546040516001600160a01b039091169082156108fc029083906000818181858888f19350505050158015612065573d6000803e3d6000fd5b5060019350612251565b612078816123a9565b600061208261324d565b61208c908361524e565b600e54600388015460405163a9059cbb60e01b81529293506001600160a01b039182169263a9059cbb926120c692169085906004016151cd565b600060405180830381600087803b1580156120e057600080fd5b505af11580156120f4573d6000803e3d6000fd5b505050506001945050612251565b60003490506000612117828860070154614823565b90506121228261480a565b61212c82846151b6565b61213691906151b6565b60028801546040519194506001600160a01b03169082156108fc029083906000818181858888f19350505050158015612173573d6000803e3d6000fd5b50886121bf5760038701546040516001600160a01b039091169084156108fc029085906000818181858888f193505050501580156121b5573d6000803e3d6000fd5b506001955061224e565b6121c8836123a9565b60006121d261324d565b6121dc908561524e565b600e5460038a015460405163a9059cbb60e01b81529293506001600160a01b039182169263a9059cbb9261221692169085906004016151cd565b600060405180830381600087803b15801561223057600080fd5b505af1158015612244573d6000803e3d6000fd5b5050505060019650505b50505b83156123555760018501546040516323b872dd60e01b81526001600160a01b038a16916323b872dd9161228b913091889190600401615170565b600060405180830381600087803b1580156122a557600080fd5b505af11580156122b9573d6000803e3d6000fd5b5050506004860180546001600160a01b0386166001600160a01b03199182161790915560038701805490911690555060068501805460ff19169055612302600280546001019055565b600185015460038601546040517f16f1dbd97e6bf646d429ed186cce832f1f7fd9907814293b83181e9970ab7bd29261234c928c926001600160a01b0390911690889088906151e6565b60405180910390a15b50505050506123646001600055565b505050565b6123716147b0565b6001600160a01b03166000908152600a60205260409020805460ff19166001179055565b61239d6147b0565b6123a760006148df565b565b6040805160028082526060820183526000926020830190803683375050600d54604080516315ab88c960e31b815290519394506001600160a01b039091169263ad5c464892506004808301926020929190829003018186803b15801561240e57600080fd5b505afa158015612422573d6000803e3d6000fd5b505050506040513d601f19601f820116820180604052508101906124469190615357565b8160008151811061245957612459615129565b6001600160a01b039283166020918202929092010152600c5482519116908290600190811061248a5761248a615129565b6001600160a01b039290921660209283029190910182015260408051600280825260608201835260009391929091830190803683375050600d5460405163d06ca61f60e01b81529293506001600160a01b03169163d06ca61f91506124f59086908690600401615374565b60006040518083038186803b15801561250d57600080fd5b505afa158015612521573d6000803e3d6000fd5b505050506040513d6000823e601f3d908101601f191682016040526125499190810190615395565b600d5481519192506001600160a01b031690637ff36ab59034908490600190811061257657612576615129565b60200260200101518530426040518663ffffffff1660e01b81526004016125a0949392919061541b565b6000604051808303818588803b1580156125b957600080fd5b505af11580156125cd573d6000803e3d6000fd5b50505050506040513d6000823e601f3d908101601f19168201604052611ac59190810190615395565b3360009081526009602052604090205460ff16156126265760405162461bcd60e51b815260040161082490615219565b336000908152600a602052604090205460ff16156126565760405162461bcd60e51b8152600401610824906150b9565b61265e614842565b6000868152600560205260409020856126b95760405162461bcd60e51b815260206004820152601c60248201527f5072696365206d757374206265206174206c65617374203120776569000000006044820152606401610824565b60048101546001600160a01b031633146127285760405162461bcd60e51b815260206004820152602a60248201527f4f6e6c7920746865206f776e6572206f6620616e206e66742063616e206c69736044820152693a103a34329037333a1760b11b6064820152608401610824565b6040516323b872dd60e01b81526001600160a01b038916906323b872dd9061275890339030908c90600401615170565b600060405180830381600087803b15801561277257600080fd5b505af1158015612786573d6000803e3d6000fd5b5050506003820180546001600160a01b0319908116331790915560048301805490911630179055506005810186905560068101805460ff1916600190811790915585908111156127d8576127d8614c76565b60088201805460ff1916600183818111156127f5576127f5614c76565b021790555081600281111561280c5761280c614c76565b60088201805461ff00191661010083600281111561282c5761282c614c76565b0217905550600185141561295d57604051806101000160405280888152602001336001600160a01b031681526020018781526020018581526020018481526020016000815260200160006001600160a01b0316815260200183600281111561289657612896614c76565b60028111156128a7576128a7614c76565b905260008881526006602081815260409283902084518155908401516001820180546001600160a01b03199081166001600160a01b039384161790915593850151600280840191909155606086015160038401556080860151600484015560a0860151600584015560c0860151938301805495861694909216938417825560e08601519294929391926001600160a81b03191690911790600160a01b90849081111561295557612955614c76565b021790555050505b6129676002614931565b7fa0c6c0d02d86fdacecbaa5fdf5894bab204e31a778250474108540733a9b8d19888833308a60405161299e9594939291906151e6565b60405180910390a1506129b16001600055565b50505050505050565b6001600160a01b038116612a065760405162461bcd60e51b8152602060048201526013602482015272496e76616c69642066616e206164647265737360681b6044820152606401610824565b3360009081526007602090815260408083206001600160a01b038516845290915290205460ff16612a705760405162461bcd60e51b815260206004820152601460248201527320b2323932b9b99034b9903737ba1030903330b760611b6044820152606401610824565b336000908152600860205260408120905b8154811015612b8857826001600160a01b0316828281548110612aa657612aa6615129565b6000918252602090912001546001600160a01b03161415612b765781548290612ad1906001906151b6565b81548110612ae157612ae1615129565b9060005260206000200160009054906101000a90046001600160a01b0316828281548110612b1157612b11615129565b9060005260206000200160006101000a8154816001600160a01b0302191690836001600160a01b0316021790555081805480612b4f57612b4f615450565b600082815260209020810160001990810180546001600160a01b0319169055019055612b88565b80612b8081615155565b915050612a81565b50503360009081526007602090815260408083206001600160a01b0394909416835292905220805460ff19169055565b6000612be260405180604001604052806006815260200165746573743d3160d01b81525083614988565b6040805160028082526060820183526000926020830190803683375050600c5482519293506001600160a01b031691839150600090612c2357612c23615129565b6001600160a01b03928316602091820292909201810191909152600d54604080516315ab88c960e31b81529051919093169263ad5c4648926004808301939192829003018186803b158015612c7757600080fd5b505afa158015612c8b573d6000803e3d6000fd5b505050506040513d601f19601f82011682018060405250810190612caf9190615357565b81600181518110612cc257612cc2615129565b6001600160a01b039283166020918202929092010152600e546040516323b872dd60e01b81529116906323b872dd90612d0390339030908890600401615170565b600060405180830381600087803b158015612d1d57600080fd5b505af1158015612d31573d6000803e3d6000fd5b5050600e54600b5460405163095ea7b360e01b81526001600160a01b03928316945063095ea7b39350612d6c929091169087906004016151cd565b600060405180830381600087803b158015612d8657600080fd5b505af1158015612d9a573d6000803e3d6000fd5b50505050612dc460405180604001604052806005815260200164746573743360d81b81525061489c565b6040805160028082526060820183526000926020830190803683375050600d5460405163d06ca61f60e01b81529293506001600160a01b03169163d06ca61f9150612e159087908690600401615374565b60006040518083038186803b158015612e2d57600080fd5b505afa158015612e41573d6000803e3d6000fd5b505050506040513d6000823e601f3d908101601f19168201604052612e699190810190615395565b9050612ead60405180604001604052806006815260200165185b5bdd5b9d60d21b81525082600181518110612ea057612ea0615129565b6020026020010151614988565b600d5481516001600160a01b0390911690634a25d94a9083906001908110612ed757612ed7615129565b6020026020010151868530426040518663ffffffff1660e01b8152600401612f03959493929190615466565b600060405180830381600087803b158015612f1d57600080fd5b505af1158015612f31573d6000803e3d6000fd5b505050506040513d6000823e601f3d908101601f19168201604052612f599190810190615395565b50612f80604051806040016040528060058152602001641d195cdd0d60da1b81525061489c565b80600181518110612f9357612f93615129565b602002602001015192505050919050565b336000908152600a602052604090205460609060ff1615612fd75760405162461bcd60e51b8152600401610824906150b9565b6000612fe260035490565b90506000612fef60025490565b612ff990836151b6565b9050613025604051806040016040528060088152602001671b999d10dbdd5b9d60c21b81525083614988565b6130566040518060400160405280600f81526020016e1d5b9cdbdb1913999d1cd0dbdd5b9d608a1b81525082614988565b60008167ffffffffffffffff81111561307157613071614b05565b6040519080825280602002602001820160405280156130aa57816020015b613097614a08565b81526020019060019003908161308f5790505b50905060006130db6040518060400160405280600b81526020016a5f6964546f4e46545b695d60a81b81525061489c565b60005b848110156132435760008181526005602052604090206006015460ff16156132315760008181526005602081815260409283902083516101608101855281546001600160a01b039081168252600180840154948301949094526002830154811695820195909552600382015485166060820152600482015490941660808501529182015460a0840152600682015460ff908116151560c0850152600783015460e0850152600883015461010085019291169081111561319f5761319f614c76565b60018111156131b0576131b0614c76565b81526020016008820160019054906101000a900460ff1660028111156131d8576131d8614c76565b60028111156131e9576131e9614c76565b81526008919091015462010000900460ff161515602090910152835184908490811061321757613217615129565b6020026020010181905250818061322d90615155565b9250505b8061323b81615155565b9150506130de565b5090935050505090565b60008073ee9f2375b4bdf6387aa8265dd4fb8f16512a1d4690506000816001600160a01b031663feaf968c6040518163ffffffff1660e01b815260040160a06040518083038186803b1580156132a257600080fd5b505afa1580156132b6573d6000803e3d6000fd5b505050506040513d601f19601f820116820180604052508101906132da91906154bc565b505050915050600081136133255760405162461bcd60e51b8152602060048201526012602482015271496e76616c6964205553445420707269636560701b6044820152606401610824565b92915050565b6000818152600660205260408120600301544211801561335b575060008281526006602052604090206004015442105b1561336857506001919050565b506000919050565b613378614842565b3360009081526009602052604090205460ff16156133a85760405162461bcd60e51b815260040161082490615219565b336000908152600a602052604090205460ff16156133d85760405162461bcd60e51b8152600401610824906150b9565b60005b8751811015613a215761341b6040518060400160405280600981526020016874686973206973203160b81b815250898381518110612ea057612ea0615129565b6134496040518060400160405280600c81526020016b5f6c697374696e675479706560a01b81525086614988565b60408051808201909152601c81527f75696e74323536284c697374696e67547970652e41756374696f6e29000000006020820152613488906001614988565b60018511156134aa576040516317142a4d60e01b815260040160405180910390fd5b6134e36040518060400160405280600b81526020016a5f746f6b656e49645b695d60a81b815250898381518110612ea057612ea0615129565b886001600160a01b03166323b872dd33308b858151811061350657613506615129565b60200260200101516040518463ffffffff1660e01b815260040161352c93929190615170565b600060405180830381600087803b15801561354657600080fd5b505af115801561355a573d6000803e3d6000fd5b50505050613588604051806040016040528060098152602001683a3434b99034b9901960b91b81525061489c565b613596600380546001019055565b6135c0604051806040016040528060098152602001681d1a1a5cc81a5cc80d60ba1b81525061489c565b6040518061016001604052808a6001600160a01b031681526020018983815181106135ed576135ed615129565b60200260200101518152602001336001600160a01b03168152602001336001600160a01b03168152602001306001600160a01b0316815260200188815260200160011515815260200187815260200186600181111561364e5761364e614c76565b600181111561365f5761365f614c76565b815260200183600281111561367657613676614c76565b600281111561368757613687614c76565b815260200160001515815250600560008a84815181106136a9576136a9615129565b6020908102919091018101518252818101929092526040908101600020835181546001600160a01b03199081166001600160a01b039283161783559385015160018084019190915592850151600283018054861691831691909117905560608501516003830180548616918316919091179055608085015160048301805490951691161790925560a0830151600583015560c083015160068301805460ff1990811692151592909217905560e08401516007840155610100840151600884018054919390929190911690838181111561378457613784614c76565b021790555061012082015160088201805461ff0019166101008360028111156137af576137af614c76565b0217905550610140919091015160089091018054911515620100000262ff00001990921691909117905560408051808201909152600981526874686973206973203560b81b60208201526138029061489c565b600185141561398d57613835604051806040016040528060098152602001683a3434b99034b9901b60b91b81525061489c565b60405180610100016040528089838151811061385357613853615129565b60200260200101518152602001336001600160a01b031681526020018881526020018581526020018481526020016000815260200160006001600160a01b031681526020018360028111156138aa576138aa614c76565b60028111156138bb576138bb614c76565b815250600660008a84815181106138d4576138d4615129565b602090810291909101810151825281810192909252604090810160002083518155918301516001830180546001600160a01b03199081166001600160a01b039384161790915591840151600280850191909155606085015160038501556080850151600485015560a0850151600585015560c085015160068501805494851691909316908117835560e0860151936001600160a81b0319161790600160a01b90849081111561398557613985614c76565b021790555050505b6139b76040518060400160405280600981526020016874686973206973203760b81b81525061489c565b7fa0c6c0d02d86fdacecbaa5fdf5894bab204e31a778250474108540733a9b8d19898983815181106139eb576139eb615129565b602002602001015133308b604051613a079594939291906151e6565b60405180910390a180613a1981615155565b9150506133db565b50613a2c6001600055565b5050505050505050565b600083815260066020526040902060030154839042118015613a68575060008181526006602052604090206004015442105b613a845760405162461bcd60e51b81526004016108249061550c565b336000908152600a602052604090205460ff1615613ab45760405162461bcd60e51b8152600401610824906150b9565b3360009081526009602052604090205460ff1615613ae45760405162461bcd60e51b815260040161082490615219565b6000613aee61324d565b90506000613afc828661524e565b9050613b2560405180604001604052806006815260200165436865636b3160d01b81525061489c565b600086815260066020819052604090912001546001600160a01b0316613ba657600086815260066020526040902060020154811015613ba65760405162461bcd60e51b815260206004820152601c60248201527f4d696e696d756d206269642068617320746f20626520686967686572000000006044820152606401610824565b613bcd6040518060400160405280600681526020016521b432b1b59960d11b81525061489c565b600086815260066020526040902060050154811015613bfe5760405162461bcd60e51b815260040161082490615555565b613c2560405180604001604052806006815260200165436865636b3360d01b81525061489c565b600160008781526005602052604090206008015460ff166001811115613c4d57613c4d614c76565b14613c965760405162461bcd60e51b81526020600482015260196024820152782a3434b99027232a1034b99030ba1030ba1030bab1ba34b7b760391b6044820152606401610824565b60008681526005602052604090206006015460ff161515600114613ccc5760405162461bcd60e51b815260040161082490615320565b613cf36040518060400160405280600681526020016510da1958dacd60d21b81525061489c565b600086815260066020818152604092839020808301546005820154855180870190965293855265436865636b3560d01b92850192909252926001600160a01b039091169190613d419061489c565b60068301546001600160a01b031615613e455760016006840154600160a01b900460ff166002811115613d7657613d76614c76565b1415613de557600e5460405163a9059cbb60e01b81526001600160a01b039091169063a9059cbb90613dae90859085906004016151cd565b600060405180830381600087803b158015613dc857600080fd5b505af1158015613ddc573d6000803e3d6000fd5b50505050613e45565b60006006840154600160a01b900460ff166002811115613e0757613e07614c76565b1415613e45576040516001600160a01b0383169082156108fc029083906000818181858888f19350505050158015613e43573d6000803e3d6000fd5b505b600583018490556006830180546001600160a01b03191633179055866002811115613e7257613e72614c76565b60068401805460ff60a01b1916600160a01b836002811115613e9657613e96614c76565b0217905550613ec260405180604001604052806006815260200165436865636b3760d01b81525061489c565b613ece426102586155b2565b83600401541015613f7a57613f0060405180604001604052806006815260200165086d0cac6d6760d31b81525061489c565b61012c836004016000828254613f1691906155b2565b909155505060048301546040519081527f63929ab50521717a96992aeaa109afc8cfc926d99096bbeaf23ee4322db546e89060200160405180910390a1613f7a60405180604001604052806006815260200165436865636b3960d01b81525061489c565b600183015460068401546005850154604080518d81526001600160a01b03948516602082015293909216838301526060830152517f4307392e6f0e441e74a4982d9fa9ddc49b3cd9d3902a9d3ecab0ad3c60a0acd19181900360800190a1505050505050505050565b60086020528160005260406000208181548110613fff57600080fd5b6000918252602090912001546001600160a01b03169150829050565b60006140256147b0565b6000805b84518110156140895784818151811061404457614044615129565b602090810291909101810151600081815260059092526040909120600801805462ff00001916620100008715150217905591508061408181615155565b915050614029565b506001949350505050565b61409c6147b0565b6001600160a01b0381166141015760405162461bcd60e51b815260206004820152602660248201527f4f776e61626c653a206e6577206f776e657220697320746865207a65726f206160448201526564647265737360d01b6064820152608401610824565b610afb816148df565b60008281526006602052604090206003015482904211801561413c575060008181526006602052604090206004015442105b6141585760405162461bcd60e51b81526004016108249061550c565b336000908152600a602052604090205460ff16156141885760405162461bcd60e51b8152600401610824906150b9565b3360009081526009602052604090205460ff16156141b85760405162461bcd60e51b815260040161082490615219565b600083815260066020819052604090912001546001600160a01b0316614239576000838152600660205260409020600201543410156142395760405162461bcd60e51b815260206004820152601c60248201527f4d696e696d756d206269642068617320746f20626520686967686572000000006044820152606401610824565b60008381526006602052604090206005015434116142695760405162461bcd60e51b815260040161082490615555565b600160008481526005602052604090206008015460ff16600181111561429157614291614c76565b146142da5760405162461bcd60e51b81526020600482015260196024820152782a3434b99027232a1034b99030ba1030ba1030bab1ba34b7b760391b6044820152606401610824565b60008381526005602052604090206006015460ff1615156001146143105760405162461bcd60e51b815260040161082490615320565b60008381526006602081905260409091209081015460058201546001600160a01b0390911690811561442d5760016006840154600160a01b900460ff16600281111561435e5761435e614c76565b14156143cd57600e5460405163a9059cbb60e01b81526001600160a01b039091169063a9059cbb9061439690859085906004016151cd565b600060405180830381600087803b1580156143b057600080fd5b505af11580156143c4573d6000803e3d6000fd5b5050505061442d565b60006006840154600160a01b900460ff1660028111156143ef576143ef614c76565b141561442d576040516001600160a01b0383169082156108fc029083906000818181858888f1935050505015801561442b573d6000803e3d6000fd5b505b3460058401556006830180546001600160a01b0319163317905584600281111561445957614459614c76565b60068401805460ff60a01b1916600160a01b83600281111561447d5761447d614c76565b021790555061448e426102586155b2565b836004015410156144ed5761012c8360040160008282546144af91906155b2565b909155505060048301546040519081527f63929ab50521717a96992aeaa109afc8cfc926d99096bbeaf23ee4322db546e89060200160405180910390a15b600183015460068401546005850154604080518a81526001600160a01b03948516602082015293909216838301526060830152517f4307392e6f0e441e74a4982d9fa9ddc49b3cd9d3902a9d3ecab0ad3c60a0acd19181900360800190a1505050505050565b336000908152600a602052604090205460609060ff16156145865760405162461bcd60e51b8152600401610824906150b9565b600061459160035490565b90506000805b828110156145e4576000818152600560205260409020600401546001600160a01b03868116911614156145d257816145ce81615155565b9250505b806145dc81615155565b915050614597565b5060008167ffffffffffffffff81111561460057614600614b05565b60405190808252806020026020018201604052801561463957816020015b614626614a08565b81526020019060019003908161461e5790505b5090506000805b84811015611dbb576000818152600560205260409020600401546001600160a01b038881169116141561479e5760008181526005602081815260409283902083516101608101855281546001600160a01b039081168252600180840154948301949094526002830154811695820195909552600382015485166060820152600482015490941660808501529182015460a0840152600682015460ff908116151560c0850152600783015460e0850152600883015461010085019291169081111561470c5761470c614c76565b600181111561471d5761471d614c76565b81526020016008820160019054906101000a900460ff16600281111561474557614745614c76565b600281111561475657614756614c76565b81526008919091015462010000900460ff161515602090910152835184908490811061478457614784615129565b6020026020010181905250818061479a90615155565b9250505b806147a881615155565b915050614640565b6001546001600160a01b031633146123a75760405162461bcd60e51b815260206004820181905260248201527f4f776e61626c653a2063616c6c6572206973206e6f7420746865206f776e65726044820152606401610824565b6000606461481983600661524e565b6133259190615194565b60006064614831838561524e565b61483b9190615194565b9392505050565b600260005414156148955760405162461bcd60e51b815260206004820152601f60248201527f5265656e7472616e637947756172643a207265656e7472616e742063616c6c006044820152606401610824565b6002600055565b610afb816040516024016148b09190615617565b60408051601f198184030181529190526020810180516001600160e01b031663104c13eb60e21b1790526149c9565b600180546001600160a01b038381166001600160a01b0319831681179093556040519116919082907f8be0079c531659141344cd1fd0a4f28419497f9722a3daafe3b4186f6b6457e090600090a35050565b8054806149805760405162461bcd60e51b815260206004820152601b60248201527f436f756e7465723a2064656372656d656e74206f766572666c6f7700000000006044820152606401610824565b600019019055565b610a59828260405160240161499e92919061562a565b60408051601f198184030181529190526020810180516001600160e01b0316632d839cb360e21b1790525b80516a636f6e736f6c652e6c6f67602083016000808483855afa5050505050565b5080546000825590600052602060002090810190610afb9190614a63565b6040805161016081018252600080825260208201819052918101829052606081018290526080810182905260a0810182905260c0810182905260e0810182905290610100820190815260200160008152600060209091015290565b5b80821115614a785760008155600101614a64565b5090565b600081518084526020808501945080840160005b83811015614ab55781516001600160a01b031687529582019590820190600101614a90565b509495945050505050565b60208152600061483b6020830184614a7c565b6001600160a01b0381168114610afb57600080fd5b600060208284031215614afa57600080fd5b813561483b81614ad3565b634e487b7160e01b600052604160045260246000fd5b604051601f8201601f1916810167ffffffffffffffff81118282101715614b4457614b44614b05565b604052919050565b600067ffffffffffffffff821115614b6657614b66614b05565b5060051b60200190565b60006020808385031215614b8357600080fd5b823567ffffffffffffffff811115614b9a57600080fd5b8301601f81018513614bab57600080fd5b8035614bbe614bb982614b4c565b614b1b565b81815260059190911b82018301908381019087831115614bdd57600080fd5b928401925b82841015614c04578335614bf581614ad3565b82529284019290840190614be2565b979650505050505050565b60008060408385031215614c2257600080fd5b8235614c2d81614ad3565b946020939093013593505050565b60008060008060808587031215614c5157600080fd5b8435614c5c81614ad3565b966020860135965060408601359560600135945092505050565b634e487b7160e01b600052602160045260246000fd5b60028110614c9c57614c9c614c76565b9052565b60038110614c9c57614c9c614c76565b602080825282518282018190526000919060409081850190868401855b82811015614d7b57815180516001600160a01b0390811686528782015188870152868201518116878701526060808301518216908701526080808301519091169086015260a0808201519086015260c08082015115159086015260e0808201519086015261010080820151614d4482880182614c8c565b505061012080820151614d5982880182614ca0565b5050610140908101511515908501526101609093019290850190600101614ccd565b5091979650505050505050565b600080600060608486031215614d9d57600080fd5b8335614da881614ad3565b95602085013595506040909401359392505050565b600060208284031215614dcf57600080fd5b5035919050565b600080600080600080600060e0888a031215614df157600080fd5b8735614dfc81614ad3565b9960208901359950604089013598606081013598506080810135975060a0810135965060c00135945092505050565b600082601f830112614e3c57600080fd5b81356020614e4c614bb983614b4c565b82815260059290921b84018101918181019086841115614e6b57600080fd5b8286015b84811015614e865780358352918301918301614e6f565b509695505050505050565b600080600080600080600080610100898b031215614eae57600080fd5b8835614eb981614ad3565b9750602089013567ffffffffffffffff811115614ed557600080fd5b614ee18b828c01614e2b565b989b989a505050506040870135966060810135966080820135965060a0820135955060c0820135945060e09091013592509050565b8881526001600160a01b03888116602083015260408201889052606082018790526080820186905260a08201859052831660c08201526101008101614f5e60e0830184614ca0565b9998505050505050505050565b600080600060608486031215614f8057600080fd5b505081359360208301359350604090920135919050565b6001600160a01b038c81168252602082018c90528a8116604083015289811660608301528816608082015260a0810187905285151560c082015260e081018590526101608101614feb610100830186614c8c565b614ff9610120830185614ca0565b8215156101408301529c9b505050505050505050505050565b6000806040838503121561502557600080fd5b823567ffffffffffffffff81111561503c57600080fd5b61504885828601614e2b565b9250506020830135801515811461505e57600080fd5b809150509250929050565b6000806040838503121561507c57600080fd5b823561508781614ad3565b9150602083013561505e81614ad3565b600080604083850312156150aa57600080fd5b50508035926020909101359150565b6020808252604a908201527f596f7520617265207065726d656e616e746c792064656c657465642066726f6d60408201527f207468697320706c6174666f726d20666f722076696f6c6174696e6720746865606082015269103837b634b1b4b2b99760b11b608082015260a00190565b634e487b7160e01b600052603260045260246000fd5b634e487b7160e01b600052601160045260246000fd5b60006000198214156151695761516961513f565b5060010190565b6001600160a01b039384168152919092166020820152604081019190915260600190565b6000826151b157634e487b7160e01b600052601260045260246000fd5b500490565b6000828210156151c8576151c861513f565b500390565b6001600160a01b03929092168252602082015260400190565b6001600160a01b039586168152602081019490945291841660408401529092166060820152608081019190915260a00190565b6020808252818101527f596f75206172652062616e6e6564206f6e207468697320706c6174666f726d2e604082015260600190565b60008160001904831182151516156152685761526861513f565b500290565b60208082526036908201527f546865206f776e6572206f662074686973206e667420697320626c61636b6c6960408201527539ba32b21037b7103a3434b990383630ba3337b9369760511b606082015260800190565b6020808252603d908201527f546865206f776e6572206f662074686973206e6674206973207065726d616e6160408201527f6e746c792062616e6e6564206f6e207468697320706c6174666f726d2e000000606082015260800190565b6020808252601d908201527f4e6674206973206e6f74206c697374656420746f207075726368617365000000604082015260600190565b60006020828403121561536957600080fd5b815161483b81614ad3565b82815260406020820152600061538d6040830184614a7c565b949350505050565b600060208083850312156153a857600080fd5b825167ffffffffffffffff8111156153bf57600080fd5b8301601f810185136153d057600080fd5b80516153de614bb982614b4c565b81815260059190911b820183019083810190878311156153fd57600080fd5b928401925b82841015614c0457835182529284019290840190615402565b8481526080602082015260006154346080830186614a7c565b6001600160a01b03949094166040830152506060015292915050565b634e487b7160e01b600052603160045260246000fd5b85815284602082015260a06040820152600061548560a0830186614a7c565b6001600160a01b0394909416606083015250608001529392505050565b805169ffffffffffffffffffff81168114611dc357600080fd5b600080600080600060a086880312156154d457600080fd5b6154dd866154a2565b9450602086015193506040860151925060608601519150615500608087016154a2565b90509295509295909350565b60208082526029908201527f54686973204e4654206973206e6f74206f6e2061756374696f6e206174207468604082015268329036b7b6b2b73a1760b91b606082015260800190565b6020808252603c908201527f596f75206861766520746f2062696420686967686572207468616e207468652060408201527f686967686573742062696420746f206d616b6520616e206f6666657200000000606082015260800190565b600082198211156155c5576155c561513f565b500190565b6000815180845260005b818110156155f0576020818501810151868301820152016155d4565b81811115615602576000602083870101525b50601f01601f19169290920160200192915050565b60208152600061483b60208301846155ca565b60408152600061563d60408301856155ca565b9050826020830152939250505056fea264697066735822122067a91d7df502e44268e8ecb1fcda5d3c1af44595551a39b3869c4688d0f3d66e64736f6c63430008090033",
  "linkReferences": {},
  "deployedLinkReferences": {}
}