{
  "_format": "hh-sol-artifact-1",
  "contractName": "ArtiziaMarketplace",
  "sourceName": "contracts/ArtiziaMarketplace.sol",
  "abi": [
    {
      "inputs": [
        {
          "internalType": "address",
          "name": "_token",
          "type": "address"
        }
      ],
      "stateMutability": "nonpayable",
      "type": "constructor"
    },
    {
      "inputs": [],
      "name": "invalidListingType",
      "type": "error"
    },
    {
      "inputs": [],
      "name": "invalidPrice",
      "type": "error"
    },
    {
      "anonymous": false,
      "inputs": [
        {
          "indexed": false,
          "internalType": "address",
          "name": "nftContract",
          "type": "address"
        },
        {
          "indexed": false,
          "internalType": "uint256",
          "name": "tokenId",
          "type": "uint256"
        },
        {
          "indexed": false,
          "internalType": "address",
          "name": "seller",
          "type": "address"
        },
        {
          "indexed": false,
          "internalType": "address",
          "name": "owner",
          "type": "address"
        },
        {
          "indexed": false,
          "internalType": "uint256",
          "name": "price",
          "type": "uint256"
        },
        {
          "indexed": false,
          "internalType": "uint256",
          "name": "collectionId",
          "type": "uint256"
        },
        {
          "indexed": false,
          "internalType": "uint256",
          "name": "listingType",
          "type": "uint256"
        }
      ],
      "name": "NFTListed",
      "type": "event"
    },
    {
      "anonymous": false,
      "inputs": [
        {
          "indexed": false,
          "internalType": "uint256",
          "name": "tokenId",
          "type": "uint256"
        },
        {
          "indexed": false,
          "internalType": "address",
          "name": "seller",
          "type": "address"
        },
        {
          "indexed": false,
          "internalType": "address",
          "name": "buyer",
          "type": "address"
        },
        {
          "indexed": false,
          "internalType": "uint256",
          "name": "price",
          "type": "uint256"
        }
      ],
      "name": "NFTSold",
      "type": "event"
    },
    {
      "anonymous": false,
      "inputs": [
        {
          "indexed": true,
          "internalType": "address",
          "name": "previousOwner",
          "type": "address"
        },
        {
          "indexed": true,
          "internalType": "address",
          "name": "newOwner",
          "type": "address"
        }
      ],
      "name": "OwnershipTransferred",
      "type": "event"
    },
    {
      "anonymous": false,
      "inputs": [
        {
          "indexed": false,
          "internalType": "uint256",
          "name": "tokenId",
          "type": "uint256"
        },
        {
          "indexed": false,
          "internalType": "bool",
          "name": "decision",
          "type": "bool"
        }
      ],
      "name": "approvalUpdate",
      "type": "event"
    },
    {
      "anonymous": false,
      "inputs": [
        {
          "indexed": false,
          "internalType": "uint256",
          "name": "tokenId",
          "type": "uint256"
        },
        {
          "indexed": false,
          "internalType": "address",
          "name": "seller",
          "type": "address"
        },
        {
          "indexed": false,
          "internalType": "uint256",
          "name": "newTime",
          "type": "uint256"
        }
      ],
      "name": "auctionEndTimeIncreased",
      "type": "event"
    },
    {
      "anonymous": false,
      "inputs": [
        {
          "indexed": false,
          "internalType": "uint256",
          "name": "tokenId",
          "type": "uint256"
        },
        {
          "indexed": false,
          "internalType": "address",
          "name": "seller",
          "type": "address"
        },
        {
          "indexed": false,
          "internalType": "address",
          "name": "highestBidder",
          "type": "address"
        },
        {
          "indexed": false,
          "internalType": "uint256",
          "name": "highestBid",
          "type": "uint256"
        }
      ],
      "name": "receivedABid",
      "type": "event"
    },
    {
      "stateMutability": "payable",
      "type": "fallback"
    },
    {
      "inputs": [],
      "name": "UNISWAP_ROUTER_ADDRESS",
      "outputs": [
        {
          "internalType": "address",
          "name": "",
          "type": "address"
        }
      ],
      "stateMutability": "view",
      "type": "function"
    },
    {
      "inputs": [],
      "name": "USDT_ADDRESS",
      "outputs": [
        {
          "internalType": "address",
          "name": "",
          "type": "address"
        }
      ],
      "stateMutability": "view",
      "type": "function"
    },
    {
      "inputs": [
        {
          "internalType": "uint256",
          "name": "",
          "type": "uint256"
        }
      ],
      "name": "_idToAuction",
      "outputs": [
        {
          "internalType": "uint256",
          "name": "tokenId",
          "type": "uint256"
        },
        {
          "internalType": "address payable",
          "name": "seller",
          "type": "address"
        },
        {
          "internalType": "uint256",
          "name": "basePrice",
          "type": "uint256"
        },
        {
          "internalType": "uint256",
          "name": "startTime",
          "type": "uint256"
        },
        {
          "internalType": "uint256",
          "name": "endTime",
          "type": "uint256"
        },
        {
          "internalType": "uint256",
          "name": "highestBid",
          "type": "uint256"
        },
        {
          "internalType": "address payable",
          "name": "highestBidder",
          "type": "address"
        },
        {
          "internalType": "enum ArtiziaMarketplace.PaymentMethod",
          "name": "highestBidCurrency",
          "type": "uint8"
        }
      ],
      "stateMutability": "view",
      "type": "function"
    },
    {
      "inputs": [
        {
          "internalType": "uint256",
          "name": "",
          "type": "uint256"
        }
      ],
      "name": "_idToNFT",
      "outputs": [
        {
          "internalType": "address",
          "name": "nftContract",
          "type": "address"
        },
        {
          "internalType": "uint256",
          "name": "tokenId",
          "type": "uint256"
        },
        {
          "internalType": "address payable",
          "name": "firstOwner",
          "type": "address"
        },
        {
          "internalType": "address payable",
          "name": "seller",
          "type": "address"
        },
        {
          "internalType": "address payable",
          "name": "owner",
          "type": "address"
        },
        {
          "internalType": "uint256",
          "name": "price",
          "type": "uint256"
        },
        {
          "internalType": "bool",
          "name": "listed",
          "type": "bool"
        },
        {
          "internalType": "uint256",
          "name": "royaltyPrice",
          "type": "uint256"
        },
        {
          "internalType": "enum ArtiziaMarketplace.ListingType",
          "name": "listingType",
          "type": "uint8"
        },
        {
          "internalType": "enum ArtiziaMarketplace.PaymentMethod",
          "name": "paymentMethod",
          "type": "uint8"
        },
        {
          "internalType": "bool",
          "name": "approve",
          "type": "bool"
        },
        {
          "internalType": "uint256",
          "name": "collectionId",
          "type": "uint256"
        }
      ],
      "stateMutability": "view",
      "type": "function"
    },
    {
      "inputs": [],
      "name": "_nftCount",
      "outputs": [
        {
          "internalType": "uint256",
          "name": "_value",
          "type": "uint256"
        }
      ],
      "stateMutability": "view",
      "type": "function"
    },
    {
      "inputs": [],
      "name": "_nftsSold",
      "outputs": [
        {
          "internalType": "uint256",
          "name": "_value",
          "type": "uint256"
        }
      ],
      "stateMutability": "view",
      "type": "function"
    },
    {
      "inputs": [
        {
          "internalType": "uint256[]",
          "name": "_tokenId",
          "type": "uint256[]"
        },
        {
          "internalType": "bool",
          "name": "_decision",
          "type": "bool"
        }
      ],
      "name": "approveNfts",
      "outputs": [
        {
          "internalType": "bool",
          "name": "",
          "type": "bool"
        }
      ],
      "stateMutability": "nonpayable",
      "type": "function"
    },
    {
      "inputs": [
        {
          "internalType": "address",
          "name": "_user",
          "type": "address"
        }
      ],
      "name": "banUser",
      "outputs": [],
      "stateMutability": "nonpayable",
      "type": "function"
    },
    {
      "inputs": [
        {
          "internalType": "address",
          "name": "",
          "type": "address"
        },
        {
          "internalType": "uint256",
          "name": "",
          "type": "uint256"
        }
      ],
      "name": "bannedNfts",
      "outputs": [
        {
          "internalType": "uint256",
          "name": "",
          "type": "uint256"
        }
      ],
      "stateMutability": "view",
      "type": "function"
    },
    {
      "inputs": [
        {
          "internalType": "address",
          "name": "",
          "type": "address"
        }
      ],
      "name": "bannedUsers",
      "outputs": [
        {
          "internalType": "bool",
          "name": "",
          "type": "bool"
        }
      ],
      "stateMutability": "view",
      "type": "function"
    },
    {
      "inputs": [
        {
          "internalType": "uint256",
          "name": "_tokenId",
          "type": "uint256"
        },
        {
          "internalType": "uint256",
          "name": "_bidCurrency",
          "type": "uint256"
        }
      ],
      "name": "bidInETH",
      "outputs": [],
      "stateMutability": "payable",
      "type": "function"
    },
    {
      "inputs": [
        {
          "internalType": "uint256",
          "name": "_tokenId",
          "type": "uint256"
        },
        {
          "internalType": "uint256",
          "name": "_amount",
          "type": "uint256"
        },
        {
          "internalType": "uint256",
          "name": "_bidCurrency",
          "type": "uint256"
        },
        {
          "internalType": "uint256",
          "name": "_amountInETHInWei",
          "type": "uint256"
        }
      ],
      "name": "bidInUSDT",
      "outputs": [],
      "stateMutability": "payable",
      "type": "function"
    },
    {
      "inputs": [
        {
          "internalType": "address",
          "name": "_nftContract",
          "type": "address"
        },
        {
          "internalType": "uint256",
          "name": "_paymentMethod",
          "type": "uint256"
        },
        {
          "internalType": "uint256",
          "name": "_tokenId",
          "type": "uint256"
        },
        {
          "internalType": "uint8",
          "name": "_sellerPlan",
          "type": "uint8"
        },
        {
          "internalType": "uint8",
          "name": "_buyerPlan",
          "type": "uint8"
        }
      ],
      "name": "buyWithETH",
      "outputs": [],
      "stateMutability": "payable",
      "type": "function"
    },
    {
      "inputs": [
        {
          "internalType": "address",
          "name": "_nftContract",
          "type": "address"
        },
        {
          "internalType": "uint256",
          "name": "_paymentMethod",
          "type": "uint256"
        },
        {
          "internalType": "uint256",
          "name": "_tokenId",
          "type": "uint256"
        },
        {
          "internalType": "uint8",
          "name": "_sellerPlan",
          "type": "uint8"
        },
        {
          "internalType": "uint8",
          "name": "_buyerPlan",
          "type": "uint8"
        },
        {
          "internalType": "uint256",
          "name": "_amountSent",
          "type": "uint256"
        }
      ],
      "name": "buyWithFIAT",
      "outputs": [],
      "stateMutability": "payable",
      "type": "function"
    },
    {
      "inputs": [
        {
          "internalType": "address",
          "name": "_nftContract",
          "type": "address"
        },
        {
          "internalType": "uint256",
          "name": "_paymentMethod",
          "type": "uint256"
        },
        {
          "internalType": "uint256",
          "name": "_tokenId",
          "type": "uint256"
        },
        {
          "internalType": "uint8",
          "name": "_sellerPlan",
          "type": "uint8"
        },
        {
          "internalType": "uint8",
          "name": "_buyerPlan",
          "type": "uint8"
        },
        {
          "internalType": "uint256",
          "name": "_amount",
          "type": "uint256"
        },
        {
          "internalType": "uint256",
          "name": "_amountInETHInWei",
          "type": "uint256"
        }
      ],
      "name": "buyWithUSDT",
      "outputs": [],
      "stateMutability": "payable",
      "type": "function"
    },
    {
      "inputs": [
        {
          "internalType": "address",
          "name": "_nftContract",
          "type": "address"
        },
        {
          "internalType": "uint256",
          "name": "_tokenId",
          "type": "uint256"
        },
        {
          "internalType": "uint8",
          "name": "_sellerPlan",
          "type": "uint8"
        },
        {
          "internalType": "uint8",
          "name": "_buyerPlan",
          "type": "uint8"
        }
      ],
      "name": "closeAuction",
      "outputs": [],
      "stateMutability": "payable",
      "type": "function"
    },
    {
      "inputs": [
        {
          "internalType": "uint256",
          "name": "",
          "type": "uint256"
        },
        {
          "internalType": "uint256",
          "name": "",
          "type": "uint256"
        }
      ],
      "name": "collection",
      "outputs": [
        {
          "internalType": "uint256",
          "name": "",
          "type": "uint256"
        }
      ],
      "stateMutability": "view",
      "type": "function"
    },
    {
      "inputs": [
        {
          "internalType": "uint256",
          "name": "_collectionId",
          "type": "uint256"
        }
      ],
      "name": "getCollectionNfts",
      "outputs": [
        {
          "components": [
            {
              "internalType": "address",
              "name": "nftContract",
              "type": "address"
            },
            {
              "internalType": "uint256",
              "name": "tokenId",
              "type": "uint256"
            },
            {
              "internalType": "address payable",
              "name": "firstOwner",
              "type": "address"
            },
            {
              "internalType": "address payable",
              "name": "seller",
              "type": "address"
            },
            {
              "internalType": "address payable",
              "name": "owner",
              "type": "address"
            },
            {
              "internalType": "uint256",
              "name": "price",
              "type": "uint256"
            },
            {
              "internalType": "bool",
              "name": "listed",
              "type": "bool"
            },
            {
              "internalType": "uint256",
              "name": "royaltyPrice",
              "type": "uint256"
            },
            {
              "internalType": "enum ArtiziaMarketplace.ListingType",
              "name": "listingType",
              "type": "uint8"
            },
            {
              "internalType": "enum ArtiziaMarketplace.PaymentMethod",
              "name": "paymentMethod",
              "type": "uint8"
            },
            {
              "internalType": "bool",
              "name": "approve",
              "type": "bool"
            },
            {
              "internalType": "uint256",
              "name": "collectionId",
              "type": "uint256"
            }
          ],
          "internalType": "struct ArtiziaMarketplace.NFT[]",
          "name": "",
          "type": "tuple[]"
        }
      ],
      "stateMutability": "view",
      "type": "function"
    },
    {
      "inputs": [],
      "name": "getLatestUSDTPrice",
      "outputs": [
        {
          "internalType": "uint256",
          "name": "",
          "type": "uint256"
        }
      ],
      "stateMutability": "view",
      "type": "function"
    },
    {
      "inputs": [],
      "name": "getListedNfts",
      "outputs": [
        {
          "components": [
            {
              "internalType": "address",
              "name": "nftContract",
              "type": "address"
            },
            {
              "internalType": "uint256",
              "name": "tokenId",
              "type": "uint256"
            },
            {
              "internalType": "address payable",
              "name": "firstOwner",
              "type": "address"
            },
            {
              "internalType": "address payable",
              "name": "seller",
              "type": "address"
            },
            {
              "internalType": "address payable",
              "name": "owner",
              "type": "address"
            },
            {
              "internalType": "uint256",
              "name": "price",
              "type": "uint256"
            },
            {
              "internalType": "bool",
              "name": "listed",
              "type": "bool"
            },
            {
              "internalType": "uint256",
              "name": "royaltyPrice",
              "type": "uint256"
            },
            {
              "internalType": "enum ArtiziaMarketplace.ListingType",
              "name": "listingType",
              "type": "uint8"
            },
            {
              "internalType": "enum ArtiziaMarketplace.PaymentMethod",
              "name": "paymentMethod",
              "type": "uint8"
            },
            {
              "internalType": "bool",
              "name": "approve",
              "type": "bool"
            },
            {
              "internalType": "uint256",
              "name": "collectionId",
              "type": "uint256"
            }
          ],
          "internalType": "struct ArtiziaMarketplace.NFT[]",
          "name": "",
          "type": "tuple[]"
        }
      ],
      "stateMutability": "view",
      "type": "function"
    },
    {
      "inputs": [
        {
          "internalType": "address",
          "name": "_user",
          "type": "address"
        }
      ],
      "name": "getMyListedNfts",
      "outputs": [
        {
          "components": [
            {
              "internalType": "address",
              "name": "nftContract",
              "type": "address"
            },
            {
              "internalType": "uint256",
              "name": "tokenId",
              "type": "uint256"
            },
            {
              "internalType": "address payable",
              "name": "firstOwner",
              "type": "address"
            },
            {
              "internalType": "address payable",
              "name": "seller",
              "type": "address"
            },
            {
              "internalType": "address payable",
              "name": "owner",
              "type": "address"
            },
            {
              "internalType": "uint256",
              "name": "price",
              "type": "uint256"
            },
            {
              "internalType": "bool",
              "name": "listed",
              "type": "bool"
            },
            {
              "internalType": "uint256",
              "name": "royaltyPrice",
              "type": "uint256"
            },
            {
              "internalType": "enum ArtiziaMarketplace.ListingType",
              "name": "listingType",
              "type": "uint8"
            },
            {
              "internalType": "enum ArtiziaMarketplace.PaymentMethod",
              "name": "paymentMethod",
              "type": "uint8"
            },
            {
              "internalType": "bool",
              "name": "approve",
              "type": "bool"
            },
            {
              "internalType": "uint256",
              "name": "collectionId",
              "type": "uint256"
            }
          ],
          "internalType": "struct ArtiziaMarketplace.NFT[]",
          "name": "",
          "type": "tuple[]"
        }
      ],
      "stateMutability": "view",
      "type": "function"
    },
    {
      "inputs": [
        {
          "internalType": "address",
          "name": "_user",
          "type": "address"
        }
      ],
      "name": "getMyNfts",
      "outputs": [
        {
          "components": [
            {
              "internalType": "address",
              "name": "nftContract",
              "type": "address"
            },
            {
              "internalType": "uint256",
              "name": "tokenId",
              "type": "uint256"
            },
            {
              "internalType": "address payable",
              "name": "firstOwner",
              "type": "address"
            },
            {
              "internalType": "address payable",
              "name": "seller",
              "type": "address"
            },
            {
              "internalType": "address payable",
              "name": "owner",
              "type": "address"
            },
            {
              "internalType": "uint256",
              "name": "price",
              "type": "uint256"
            },
            {
              "internalType": "bool",
              "name": "listed",
              "type": "bool"
            },
            {
              "internalType": "uint256",
              "name": "royaltyPrice",
              "type": "uint256"
            },
            {
              "internalType": "enum ArtiziaMarketplace.ListingType",
              "name": "listingType",
              "type": "uint8"
            },
            {
              "internalType": "enum ArtiziaMarketplace.PaymentMethod",
              "name": "paymentMethod",
              "type": "uint8"
            },
            {
              "internalType": "bool",
              "name": "approve",
              "type": "bool"
            },
            {
              "internalType": "uint256",
              "name": "collectionId",
              "type": "uint256"
            }
          ],
          "internalType": "struct ArtiziaMarketplace.NFT[]",
          "name": "",
          "type": "tuple[]"
        }
      ],
      "stateMutability": "view",
      "type": "function"
    },
    {
      "inputs": [
        {
          "internalType": "uint256",
          "name": "_tokenId",
          "type": "uint256"
        }
      ],
      "name": "getStatusOfAuction",
      "outputs": [
        {
          "internalType": "bool",
          "name": "",
          "type": "bool"
        }
      ],
      "stateMutability": "view",
      "type": "function"
    },
    {
      "inputs": [
        {
          "internalType": "uint8",
          "name": "level",
          "type": "uint8"
        }
      ],
      "name": "getSubscriptionFee",
      "outputs": [
        {
          "internalType": "uint256",
          "name": "",
          "type": "uint256"
        }
      ],
      "stateMutability": "view",
      "type": "function"
    },
    {
      "inputs": [
        {
          "internalType": "address",
          "name": "_user",
          "type": "address"
        }
      ],
      "name": "getUsersNfts",
      "outputs": [
        {
          "components": [
            {
              "internalType": "address",
              "name": "nftContract",
              "type": "address"
            },
            {
              "internalType": "uint256",
              "name": "tokenId",
              "type": "uint256"
            },
            {
              "internalType": "address payable",
              "name": "firstOwner",
              "type": "address"
            },
            {
              "internalType": "address payable",
              "name": "seller",
              "type": "address"
            },
            {
              "internalType": "address payable",
              "name": "owner",
              "type": "address"
            },
            {
              "internalType": "uint256",
              "name": "price",
              "type": "uint256"
            },
            {
              "internalType": "bool",
              "name": "listed",
              "type": "bool"
            },
            {
              "internalType": "uint256",
              "name": "royaltyPrice",
              "type": "uint256"
            },
            {
              "internalType": "enum ArtiziaMarketplace.ListingType",
              "name": "listingType",
              "type": "uint8"
            },
            {
              "internalType": "enum ArtiziaMarketplace.PaymentMethod",
              "name": "paymentMethod",
              "type": "uint8"
            },
            {
              "internalType": "bool",
              "name": "approve",
              "type": "bool"
            },
            {
              "internalType": "uint256",
              "name": "collectionId",
              "type": "uint256"
            }
          ],
          "internalType": "struct ArtiziaMarketplace.NFT[]",
          "name": "",
          "type": "tuple[]"
        }
      ],
      "stateMutability": "view",
      "type": "function"
    },
    {
      "inputs": [
        {
          "internalType": "address",
          "name": "_nftContract",
          "type": "address"
        },
        {
          "internalType": "uint256[]",
          "name": "_tokenId",
          "type": "uint256[]"
        },
        {
          "internalType": "uint256[]",
          "name": "_price",
          "type": "uint256[]"
        },
        {
          "internalType": "uint256[]",
          "name": "_royaltyPrice",
          "type": "uint256[]"
        },
        {
          "internalType": "uint256",
          "name": "_listingType",
          "type": "uint256"
        },
        {
          "internalType": "uint256[]",
          "name": "_startTime",
          "type": "uint256[]"
        },
        {
          "internalType": "uint256[]",
          "name": "_endTime",
          "type": "uint256[]"
        },
        {
          "internalType": "uint256",
          "name": "_collectionId",
          "type": "uint256"
        },
        {
          "internalType": "uint256",
          "name": "_paymentMethod",
          "type": "uint256"
        }
      ],
      "name": "listNft",
      "outputs": [],
      "stateMutability": "payable",
      "type": "function"
    },
    {
      "inputs": [],
      "name": "owner",
      "outputs": [
        {
          "internalType": "address",
          "name": "",
          "type": "address"
        }
      ],
      "stateMutability": "view",
      "type": "function"
    },
    {
      "inputs": [],
      "name": "renounceOwnership",
      "outputs": [],
      "stateMutability": "nonpayable",
      "type": "function"
    },
    {
      "inputs": [
        {
          "internalType": "address",
          "name": "_nftContract",
          "type": "address"
        },
        {
          "internalType": "uint256",
          "name": "_tokenId",
          "type": "uint256"
        },
        {
          "internalType": "uint256",
          "name": "_price",
          "type": "uint256"
        },
        {
          "internalType": "uint256",
          "name": "_listingType",
          "type": "uint256"
        },
        {
          "internalType": "uint256",
          "name": "_startTime",
          "type": "uint256"
        },
        {
          "internalType": "uint256",
          "name": "_endTime",
          "type": "uint256"
        }
      ],
      "name": "resellNft",
      "outputs": [],
      "stateMutability": "nonpayable",
      "type": "function"
    },
    {
      "inputs": [
        {
          "internalType": "enum ArtiziaMarketplace.SubscriptionLevel",
          "name": "",
          "type": "uint8"
        }
      ],
      "name": "subscriptionFees",
      "outputs": [
        {
          "internalType": "uint256",
          "name": "",
          "type": "uint256"
        }
      ],
      "stateMutability": "view",
      "type": "function"
    },
    {
      "inputs": [
        {
          "internalType": "uint256",
          "name": "usdtAmountOut",
          "type": "uint256"
        },
        {
          "internalType": "uint256",
          "name": "meth",
          "type": "uint256"
        }
      ],
      "name": "swapETHForUSDT",
      "outputs": [],
      "stateMutability": "payable",
      "type": "function"
    },
    {
      "inputs": [
        {
          "internalType": "uint256",
          "name": "usdtAmountIn",
          "type": "uint256"
        }
      ],
      "name": "swapUSDTForETH",
      "outputs": [
        {
          "internalType": "uint256",
          "name": "",
          "type": "uint256"
        }
      ],
      "stateMutability": "nonpayable",
      "type": "function"
    },
    {
      "inputs": [
        {
          "internalType": "address",
          "name": "newOwner",
          "type": "address"
        }
      ],
      "name": "transferOwnership",
      "outputs": [],
      "stateMutability": "nonpayable",
      "type": "function"
    },
    {
      "inputs": [
        {
          "internalType": "address",
          "name": "_user",
          "type": "address"
        }
      ],
      "name": "unbanUser",
      "outputs": [],
      "stateMutability": "nonpayable",
      "type": "function"
    },
    {
      "stateMutability": "payable",
      "type": "receive"
    }
  ],
  "bytecode": "0x6080604052600b80546001600160a01b0319908116737a250d5630b4cf539739df2c5dacb4c659f2488d17909155600c805490911673dac17f958d2ee523a2206206994597c13d831ec71790553480156200005957600080fd5b5060405162005b2638038062005b268339810160408190526200007c9162000213565b60016000556200008c3362000113565b600480546001600160a01b03199081163317909155600b54600d805483166001600160a01b03928316179055600e805491841691909216179055620000d46000609662000165565b620000e26001609662000165565b620000f06002609662000165565b620000fe6003606462000165565b6200010c6004600062000165565b506200025b565b600180546001600160a01b038381166001600160a01b0319831681179093556040519116919082907f8be0079c531659141344cd1fd0a4f28419497f9722a3daafe3b4186f6b6457e090600090a35050565b6200016f620001b2565b80600a600084600481111562000189576200018962000245565b60048111156200019d576200019d62000245565b81526020810191909152604001600020555050565b6001546001600160a01b03163314620002115760405162461bcd60e51b815260206004820181905260248201527f4f776e61626c653a2063616c6c6572206973206e6f7420746865206f776e6572604482015260640160405180910390fd5b565b6000602082840312156200022657600080fd5b81516001600160a01b03811681146200023e57600080fd5b9392505050565b634e487b7160e01b600052602160045260246000fd5b6158bb806200026b6000396000f3fe6080604052600436106101b15760003560e01c80639c744058116100e7578063c18920581161008d578063c1892058146105ae578063c36ac2d2146105ce578063d12824f1146105ee578063d6cbb2021461060e578063d6fc3dbd14610625578063e4fb2ab214610645578063f2fde38b14610665578063f41dfb1814610685578063f6c1b77a1461069857005b80639c744058146103d2578063ace5e90e146103f2578063aeb46a1b14610412578063b32ac0c61461043f578063b3ff233e14610452578063b4fa041214610465578063b8820d82146104ea578063b9e07df1146104fd57005b80635021b42b116101575780635021b42b1461029d5780635274cff6146102b0578063715018a6146102dd57806379b36943146102f25780638988d0781461032a5780638cd410f41461036a5780638d6cb3fb1461038a5780638da5cb5b1461039f57806398dd36bf146103bd57005b806310d86b1f146101ba57806330221fc5146101da57806331824a49146101ed5780633fa9df4b146102175780634348478b1461022a5780634afbcdae1461023d5780634d12b6951461025d5780634d3fb8171461027d57005b366101b857005b005b3480156101c657600080fd5b506101b86101d5366004614b38565b6106b8565b6101b86101e8366004614b66565b61077e565b3480156101f957600080fd5b506002546102049081565b6040519081526020015b60405180910390f35b6101b8610225366004614c93565b610ceb565b6101b8610238366004614d92565b611308565b34801561024957600080fd5b50610204610258366004614dc4565b6117a1565b34801561026957600080fd5b506101b8610278366004614b38565b6117d2565b34801561028957600080fd5b50610204610298366004614de6565b6117fb565b6101b86102ab366004614e01565b611871565b3480156102bc57600080fd5b506102d06102cb366004614b38565b611e0c565b60405161020e9190614ea7565b3480156102e957600080fd5b506101b86120fc565b3480156102fe57600080fd5b50600b54610312906001600160a01b031681565b6040516001600160a01b03909116815260200161020e565b34801561033657600080fd5b5061035a610345366004614b38565b60086020526000908152604090205460ff1681565b604051901515815260200161020e565b34801561037657600080fd5b50610204610385366004614f8a565b612110565b34801561039657600080fd5b506102d06123cd565b3480156103ab57600080fd5b506001546001600160a01b0316610312565b3480156103c957600080fd5b506102046125e8565b3480156103de57600080fd5b5061035a6103ed366004614f8a565b6126b7565b3480156103fe57600080fd5b506101b861040d366004614fa3565b6126fc565b34801561041e57600080fd5b5061020461042d366004614fef565b600a6020526000908152604090205481565b6101b861044d366004615010565b612ab6565b6101b861046036600461505f565b613218565b34801561047157600080fd5b506104d6610480366004614f8a565b600760205260009081526040902080546001820154600283015460038401546004850154600586015460069096015494956001600160a01b0394851695939492939192909190811690600160a01b900460ff1688565b60405161020e9897969594939291906150c0565b6101b86104f8366004614dc4565b61379b565b34801561050957600080fd5b50610596610518366004614f8a565b600560208190526000918252604090912080546001820154600283015460038401546004850154958501546006860154600787015460088801546009909801546001600160a01b03978816999698958816979485169690941694929360ff92831693919282811692610100810482169262010000909104909116908c565b60405161020e9c9b9a99989796959493929190615115565b3480156105ba57600080fd5b50600c54610312906001600160a01b031681565b3480156105da57600080fd5b506102d06105e9366004614f8a565b613a91565b3480156105fa57600080fd5b506102d0610609366004614b38565b613cbe565b34801561061a57600080fd5b506003546102049081565b34801561063157600080fd5b5061035a610640366004615193565b613f21565b34801561065157600080fd5b506102046106603660046151e9565b614164565b34801561067157600080fd5b506101b8610680366004614b38565b614180565b6101b8610693366004614dc4565b6141f9565b3480156106a457600080fd5b506102d06106b3366004614b38565b614628565b6106c061488b565b6001600160a01b0381166000908152600860205260408120805460ff191660011790556106ec60035490565b905060005b81811015610779576000818152600560205260409020600301546001600160a01b038085169116036107675760008181526005602052604090206004810180546001600160a01b03199081163017909155600382018054909116905560068101805460ff19169055600801805462ff0000191690555b806107718161522b565b9150506106f1565b505050565b600083815260056020526040902060080154839062010000900460ff1615156001146107c55760405162461bcd60e51b81526004016107bc90615244565b60405180910390fd5b3360009081526008602052604090205460ff16156107f55760405162461bcd60e51b81526004016107bc9061529c565b6107fd6148e5565b600084815260056020526040812090610815856117fb565b90506000610822856117fb565b6003840154909150336001600160a01b03909116036108535760405162461bcd60e51b81526004016107bc906152d1565b60038301546001600160a01b031660009081526008602052604090205460ff16156108905760405162461bcd60e51b81526004016107bc90615316565b6000600884015460ff1660018111156108ab576108ab614e6d565b146108c85760405162461bcd60e51b81526004016107bc9061536c565b826005015434101561092b5760405162461bcd60e51b815260206004820152602660248201527f4e6f7420656e6f75676820657468657220746f20636f7665722061736b696e6760448201526520707269636560d01b60648201526084016107bc565b600683015460ff1615156001146109545760405162461bcd60e51b81526004016107bc906153a3565b60028301546003840154600091339134916001600160a01b03908116911603610a805761098281868661493e565b61098c90826153da565b90508a6000036109dc5760038601546040516001600160a01b039091169082156108fc029083906000818181858888f193505050501580156109d2573d6000803e3d6000fd5b5060019250610be5565b60006109e66125e8565b6109f090836153ed565b90506109ff81620f424061540f565b9050610a0c81600061379b565b600e54600388015460405163a9059cbb60e01b81526001600160a01b039283169263a9059cbb92610a44929116908590600401615426565b600060405180830381600087803b158015610a5e57600080fd5b505af1158015610a72573d6000803e3d6000fd5b505050506001935050610be5565b60008190506000610a95828960070154614984565b9050610aa283888861493e565b610aac82846153da565b610ab691906153da565b60028901546040519194506001600160a01b03169082156108fc029083906000818181858888f19350505050158015610af3573d6000803e3d6000fd5b508c600003610b425760038801546040516001600160a01b039091169084156108fc029085906000818181858888f19350505050158015610b38573d6000803e3d6000fd5b5060019450610be2565b6000610b4c6125e8565b610b5690856153ed565b9050610b6581620f424061540f565b9050610b7281600061379b565b600e5460038a015460405163a9059cbb60e01b81526001600160a01b039283169263a9059cbb92610baa929116908590600401615426565b600060405180830381600087803b158015610bc457600080fd5b505af1158015610bd8573d6000803e3d6000fd5b5050505060019550505b50505b8215610cd35760018601546040516323b872dd60e01b81526001600160a01b038e16916323b872dd91610c1f91309187919060040161543f565b600060405180830381600087803b158015610c3957600080fd5b505af1158015610c4d573d6000803e3d6000fd5b505050600187015460038801546040516000805160206158668339815191529350610c8692916001600160a01b03169086903490615463565b60405180910390a16004860180546001600160a01b0384166001600160a01b031991821617909155600387018054909116905560068601805460ff19169055610cd3600280546001019055565b505050505050610ce36001600055565b505050505050565b610cf36148e5565b3360009081526008602052604090205460ff1615610d235760405162461bcd60e51b81526004016107bc9061529c565b60005b88518110156112f2576000888281518110610d4357610d43615488565b60200260200101511015610d6a57604051635a93095360e11b815260040160405180910390fd5b6001861115610d8c576040516317142a4d60e01b815260040160405180910390fd5b896001600160a01b03166323b872dd33308c8581518110610daf57610daf615488565b60200260200101516040518463ffffffff1660e01b8152600401610dd59392919061543f565b600060405180830381600087803b158015610def57600080fd5b505af1158015610e03573d6000803e3d6000fd5b50505050610e15600380546001019055565b600083815260096020526040902089518a9083908110610e3757610e37615488565b602002602001015190806001815401808255809150506001900390600052602060002001600090919091909150556040518061018001604052808b6001600160a01b031681526020018a8381518110610e9257610e92615488565b60200260200101518152602001336001600160a01b03168152602001336001600160a01b03168152602001306001600160a01b03168152602001898381518110610ede57610ede615488565b60200260200101518152602001600115158152602001888381518110610f0657610f06615488565b60200260200101518152602001876001811115610f2557610f25614e6d565b6001811115610f3657610f36614e6d565b8152602001836002811115610f4d57610f4d614e6d565b6002811115610f5e57610f5e614e6d565b815260200160011515815260200184815250600560008b8481518110610f8657610f86615488565b6020908102919091018101518252818101929092526040908101600020835181546001600160a01b03199081166001600160a01b039283161783559385015160018084019190915592850151600283018054861691831691909117905560608501516003830180548616918316919091179055608085015160048301805490951691161790925560a0830151600583015560c083015160068301805460ff1990811692151592909217905560e08401516007840155610100840151600884018054919390929190911690838181111561106157611061614e6d565b021790555061012082015160088201805461ff00191661010083600281111561108c5761108c614e6d565b0217905550610140820151600882018054911515620100000262ff000019909216919091179055610160909101516009909101556001860361126b576040518061010001604052808a83815181106110e6576110e6615488565b60200260200101518152602001336001600160a01b0316815260200189838151811061111457611114615488565b6020026020010151815260200186838151811061113357611133615488565b6020026020010151815260200185838151811061115257611152615488565b602002602001015181526020016000815260200160006001600160a01b0316815260200183600281111561118857611188614e6d565b600281111561119957611199614e6d565b815250600760008b84815181106111b2576111b2615488565b602090810291909101810151825281810192909252604090810160002083518155918301516001830180546001600160a01b03199081166001600160a01b039384161790915591840151600280850191909155606085015160038501556080850151600485015560a0850151600585015560c085015160068501805494851691909316908117835560e0860151936001600160a81b0319161790600160a01b90849081111561126357611263614e6d565b021790555050505b7f380acab0ee1d651da065961944240ee750b6935ba0edefa78afb1c8e076762868a8a838151811061129f5761129f615488565b602002602001015133308c86815181106112bb576112bb615488565b6020026020010151888c6040516112d8979695949392919061549e565b60405180910390a1806112ea8161522b565b915050610d26565b506112fd6001600055565b505050505050505050565b60008481526007602052604090206003015484904211801561133a575060008181526007602052604090206004015442105b6113565760405162461bcd60e51b81526004016107bc906154e2565b600085815260056020526040902060080154859062010000900460ff1615156001146113945760405162461bcd60e51b81526004016107bc90615244565b3360009081526008602052604090205460ff16156113c45760405162461bcd60e51b81526004016107bc9061529c565b6000868152600760205260408120600601546001600160a01b0316611414576000878152600760205260409020600201548410156114145760405162461bcd60e51b81526004016107bc9061552b565b6000878152600760205260409020600501548410156114455760405162461bcd60e51b81526004016107bc90615562565b600160008881526005602052604090206008015460ff16600181111561146d5761146d614e6d565b1461148a5760405162461bcd60e51b81526004016107bc906155bf565b60008781526005602052604090206006015460ff1615156001146114c05760405162461bcd60e51b81526004016107bc906153a3565b600e546040516323b872dd60e01b81526001600160a01b03909116906323b872dd906114f490339030908b9060040161543f565b600060405180830381600087803b15801561150e57600080fd5b505af1158015611522573d6000803e3d6000fd5b5050506000888152600760205260409020600681015460058201549192506001600160a01b03169081156116645760016006840154600160a01b900460ff16600281111561157257611572614e6d565b036116055760006115816125e8565b61158b90836153ed565b905061159a81620f424061540f565b600e5460405163a9059cbb60e01b81529192506001600160a01b03169063a9059cbb906115cd9086908590600401615426565b600060405180830381600087803b1580156115e757600080fd5b505af11580156115fb573d6000803e3d6000fd5b5050505050611664565b60006006840154600160a01b900460ff16600281111561162757611627614e6d565b03611664576040516001600160a01b0383169082156108fc029083906000818181858888f19350505050158015611662573d6000803e3d6000fd5b505b600583018790556006830180546001600160a01b0319163317905587600281111561169157611691614e6d565b60068401805460ff60a01b1916600160a01b8360028111156116b5576116b5614e6d565b02179055506116c6426102586155f2565b8360040154101561173b5761012c8360040160008282546116e791906155f2565b9091555050600183015460048401546040517f8e1cb85d0855921b3c958b068fa707efb7db88099af764dd47f37eef82c3334d92611732928e926001600160a01b0390921691615605565b60405180910390a15b600183810154600685015460058601546040519397507f4307392e6f0e441e74a4982d9fa9ddc49b3cd9d3902a9d3ecab0ad3c60a0acd19361178d938f936001600160a01b0391821693911691615463565b60405180910390a150505050505050505050565b600960205281600052604060002081815481106117bd57600080fd5b90600052602060002001600091509150505481565b6117da61488b565b6001600160a01b03166000908152600860205260409020805460ff19169055565b60008160ff1660030361183657600a600060045b600481111561182057611820614e6d565b8152602001908152602001600020549050919050565b8160ff1660020361184c57600a6000600361180f565b8160ff1660010361186257600a6000600261180f565b600a60008061180f565b919050565b600085815260056020526040902060080154859062010000900460ff1615156001146118af5760405162461bcd60e51b81526004016107bc90615244565b3360009081526008602052604090205460ff16156118df5760405162461bcd60e51b81526004016107bc9061529c565b6118e76148e5565b60008681526005602052604090206003810154336001600160a01b03909116036119235760405162461bcd60e51b81526004016107bc906152d1565b60038101546001600160a01b031660009081526008602052604090205460ff16156119605760405162461bcd60e51b81526004016107bc90615316565b6000600882015460ff16600181111561197b5761197b614e6d565b146119985760405162461bcd60e51b81526004016107bc9061536c565b80600501548310156119fc5760405162461bcd60e51b815260206004820152602760248201527f4e6f7420656e6f75676820616d6f756e7420746f20636f7665722061736b696e6044820152666720707269636560c81b60648201526084016107bc565b6000611a07876117fb565b90506000611a14876117fb565b600e546040516323b872dd60e01b81529192506000918291339183916001600160a01b0316906323b872dd90611a5290859030908f9060040161543f565b600060405180830381600087803b158015611a6c57600080fd5b505af1158015611a80573d6000803e3d6000fd5b50505050600287015460038801546001600160a01b03918216911603611b8557611aab8a878761493e565b611ab5908b6153da565b93508d600103611b3257600e54600388015460405163a9059cbb60e01b81526001600160a01b039283169263a9059cbb92611af7929116908890600401615426565b600060405180830381600087803b158015611b1157600080fd5b505af1158015611b25573d6000803e3d6000fd5b5050505060019250611d03565b6000611b3d85612110565b60038901546040519192506001600160a01b03169082156108fc029083906000818181858888f19350505050158015611b7a573d6000803e3d6000fd5b506001935050611d03565b6000611b958b8960070154614984565b9050611ba1818c6153da565b9150611bae82888861493e565b611bb890836153da565b600e5460028a015460405163a9059cbb60e01b81529297506001600160a01b039182169263a9059cbb92611bf29216908590600401615426565b600060405180830381600087803b158015611c0c57600080fd5b505af1158015611c20573d6000803e3d6000fd5b505050508e600103611c9f57600e54600389015460405163a9059cbb60e01b81526001600160a01b039283169263a9059cbb92611c64929116908990600401615426565b600060405180830381600087803b158015611c7e57600080fd5b505af1158015611c92573d6000803e3d6000fd5b5050505060019350611d01565b611ca885612110565b506000611cb36125e8565b611cbd908761540f565b60038a01546040519192506001600160a01b03169082156108fc029083906000818181858888f19350505050158015611cfa573d6000803e3d6000fd5b5060019450505b505b8215611df1578e6001600160a01b03166323b872dd30848a600101546040518463ffffffff1660e01b8152600401611d3d9392919061543f565b600060405180830381600087803b158015611d5757600080fd5b505af1158015611d6b573d6000803e3d6000fd5b505050600188015460038901546040516000805160206158668339815191529350611da492916001600160a01b03169086908e90615463565b60405180910390a16004870180546001600160a01b0384166001600160a01b031991821617909155600388018054909116905560068701805460ff19169055611df1600280546001019055565b50505050505050611e026001600055565b5050505050505050565b3360009081526008602052604090205460609060ff1615611e3f5760405162461bcd60e51b81526004016107bc9061529c565b6000611e4a60035490565b90506000805b82811015611edd576000818152600560205260409020600301546001600160a01b038681169116148015611e95575060008181526005602052604090206006015460ff165b8015611eb8575060008181526005602052604090206008015462010000900460ff165b15611ecb5781611ec78161522b565b9250505b80611ed58161522b565b915050611e50565b506000816001600160401b03811115611ef857611ef8614bbf565b604051908082528060200260200182016040528015611f3157816020015b611f1e614ab6565b815260200190600190039081611f165790505b5090506000805b848110156120f1576000818152600560205260409020600301546001600160a01b038881169116148015611f7d575060008181526005602052604090206006015460ff165b8015611fa0575060008181526005602052604090206008015462010000900460ff165b156120df5760008181526005602081815260409283902083516101808101855281546001600160a01b039081168252600180840154948301949094526002830154811695820195909552600382015485166060820152600482015490941660808501529182015460a0840152600682015460ff908116151560c0850152600783015460e0850152600883015461010085019291169081111561204457612044614e6d565b600181111561205557612055614e6d565b81526020016008820160019054906101000a900460ff16600281111561207d5761207d614e6d565b600281111561208e5761208e614e6d565b8152600882015462010000900460ff161515602082015260099091015460409091015283518490849081106120c5576120c5615488565b602002602001018190525081806120db9061522b565b9250505b806120e98161522b565b915050611f38565b509095945050505050565b61210461488b565b61210e60006149a3565b565b604080516002808252606082018352600092839291906020830190803683375050600c5482519293506001600160a01b03169183915060009061215557612155615488565b6001600160a01b03928316602091820292909201810191909152600d54604080516315ab88c960e31b81529051919093169263ad5c46489260048083019391928290030181865afa1580156121ae573d6000803e3d6000fd5b505050506040513d601f19601f820116820180604052508101906121d29190615624565b816001815181106121e5576121e5615488565b6001600160a01b039283166020918202929092010152600e54600b5460405163095ea7b360e01b81529183169263095ea7b39261222a92909116908790600401615426565b600060405180830381600087803b15801561224457600080fd5b505af1158015612258573d6000803e3d6000fd5b5060009250600291506122689050565b604051908082528060200260200182016040528015612291578160200160208202803683370190505b50600d5460405163d06ca61f60e01b81529192506001600160a01b03169063d06ca61f906122c59087908690600401615685565b600060405180830381865afa1580156122e2573d6000803e3d6000fd5b505050506040513d6000823e601f3d908101601f1916820160405261230a91908101906156a6565b600d5481519192506001600160a01b031690634a25d94a908390600190811061233557612335615488565b6020026020010151868530426040518663ffffffff1660e01b8152600401612361959493929190615736565b6000604051808303816000875af1158015612380573d6000803e3d6000fd5b505050506040513d6000823e601f3d908101601f191682016040526123a891908101906156a6565b50806001815181106123bc576123bc615488565b602002602001015192505050919050565b606060006123da60035490565b905060006123e760025490565b6123f190836153da565b90506000816001600160401b0381111561240d5761240d614bbf565b60405190808252806020026020018201604052801561244657816020015b612433614ab6565b81526020019060019003908161242b5790505b5090506000805b848110156125de5760008181526005602052604090206006015460ff16801561248d575060008181526005602052604090206008015462010000900460ff165b156125cc5760008181526005602081815260409283902083516101808101855281546001600160a01b039081168252600180840154948301949094526002830154811695820195909552600382015485166060820152600482015490941660808501529182015460a0840152600682015460ff908116151560c0850152600783015460e0850152600883015461010085019291169081111561253157612531614e6d565b600181111561254257612542614e6d565b81526020016008820160019054906101000a900460ff16600281111561256a5761256a614e6d565b600281111561257b5761257b614e6d565b8152600882015462010000900460ff161515602082015260099091015460409091015283518490849081106125b2576125b2615488565b602002602001018190525081806125c89061522b565b9250505b806125d68161522b565b91505061244d565b5090949350505050565b60008073ee9f2375b4bdf6387aa8265dd4fb8f16512a1d4690506000816001600160a01b031663feaf968c6040518163ffffffff1660e01b815260040160a060405180830381865afa158015612642573d6000803e3d6000fd5b505050506040513d601f19601f82011682018060405250810190612666919061578c565b505050915050600081136126b15760405162461bcd60e51b8152602060048201526012602482015271496e76616c6964205553445420707269636560701b60448201526064016107bc565b92915050565b600081815260076020526040812060030154421180156126e7575060008281526007602052604090206004015442105b156126f457506001919050565b506000919050565b3360009081526008602052604090205460ff161561272c5760405162461bcd60e51b81526004016107bc9061529c565b6127346148e5565b60008581526005602052604090208461278f5760405162461bcd60e51b815260206004820152601c60248201527f5072696365206d757374206265206174206c656173742031207765690000000060448201526064016107bc565b60408051808201909152600981526837333a1737bbb732b960b91b602082015260048201546127c791906001600160a01b03166149f5565b6127f36040518060400160405280600a81526020016936b9b39739b2b73232b960b11b815250336149f5565b60048101546001600160a01b031633146128625760405162461bcd60e51b815260206004820152602a60248201527f4f6e6c7920746865206f776e6572206f6620616e206e66742063616e206c69736044820152693a103a34329037333a1760b11b60648201526084016107bc565b6040516323b872dd60e01b81526001600160a01b038816906323b872dd9061289290339030908b9060040161543f565b600060405180830381600087803b1580156128ac57600080fd5b505af11580156128c0573d6000803e3d6000fd5b5050506003820180546001600160a01b0319908116331790915560048301805490911630179055506005810185905560068101805460ff19166001908117909155849081111561291257612912614e6d565b60088201805460ff19166001838181111561292f5761292f614e6d565b021790555060018403612a5a57604051806101000160405280878152602001336001600160a01b031681526020018681526020018481526020018381526020016000815260200160006001600160a01b031681526020018260080160019054906101000a900460ff1660028111156129a9576129a9614e6d565b905260008781526007602090815260409182902083518155908301516001820180546001600160a01b03199081166001600160a01b039384161790915592840151600280840191909155606085015160038401556080850151600484015560a0850151600584015560c085015160068401805495861691909316908117835560e086015193946001600160a81b0319161790600160a01b908490811115612a5257612a52614e6d565b021790555050505b612a646002614a3e565b7f380acab0ee1d651da065961944240ee750b6935ba0edefa78afb1c8e07676286878733308986600901548a604051612aa3979695949392919061549e565b60405180910390a150610ce36001600055565b6000612ac1836117fb565b90506000612ace836117fb565b600086815260056020908152604080832060079092528220600681015493945090929091906001600160a01b0316612c19576000888152600760205260409020600101546001600160a01b03163314612b7e5760405162461bcd60e51b815260206004820152602c60248201527f4f6e6c79207468652073656c6c65722063616e20636c6f73652074686520756e60448201526b39b7b6321030bab1ba34b7b760a11b60648201526084016107bc565b6003830154600480850180546001600160a01b0319166001600160a01b0393841617905560068501805460ff19169055600184810154908601546040516323b872dd60e01b81528d8516946323b872dd94612bde9430949216920161543f565b600060405180830381600087803b158015612bf857600080fd5b505af1158015612c0c573d6000803e3d6000fd5b50505050600190506131c4565b6000888152600760205260409020600601546001600160a01b0316331480612c5a57506000888152600760205260409020600101546001600160a01b031633145b612cc75760405162461bcd60e51b815260206004820152603860248201527f4f6e6c792074686520686967686573742062696464657220616e6420746865206044820152771cd95b1b195c8818d85b8818db185a5b481d1a194813919560421b60648201526084016107bc565b6000888152600760205260409020600401544211612d275760405162461bcd60e51b815260206004820152601a60248201527f41756374696f6e20686173206e6f7420656e646564207965742e00000000000060448201526064016107bc565b60058201546000908082612d396125e8565b612d4390846153ed565b9050612d5281620f424061540f565b905060006008880154610100900460ff166002811115612d7457612d74614e6d565b03612ef15760016006870154600160a01b900460ff166002811115612d9b57612d9b614e6d565b03612dd4576000612daa6125e8565b612db490856153ed565b9050612dc381620f424061540f565b9050612dce81612110565b50839250505b600287015460038801546001600160a01b03918216911603612e4857612dfb828a8a61493e565b612e0590836153da565b60038801546040519193506001600160a01b03169083156108fc029084906000818181858888f19350505050158015612e42573d6000803e3d6000fd5b506130f8565b612e56828860070154614984565b9350612e63828a8a61493e565b612e6d85846153da565b612e7791906153da565b60028801546040519193506001600160a01b03169085156108fc029086906000818181858888f19350505050158015612eb4573d6000803e3d6000fd5b5060038701546040516001600160a01b039091169083156108fc029084906000818181858888f19350505050158015612e42573d6000803e3d6000fd5b60016008880154610100900460ff166002811115612f1157612f11614e6d565b036130f85790508060006006870154600160a01b900460ff166002811115612f3b57612f3b614e6d565b03612f4f57612f4b81600161379b565b8091505b600287015460038801546001600160a01b03918216911603612ff157612f76828a8a61493e565b612f8090836153da565b600e54600389015460405163a9059cbb60e01b81529294506001600160a01b039182169263a9059cbb92612fba9216908690600401615426565b600060405180830381600087803b158015612fd457600080fd5b505af1158015612fe8573d6000803e3d6000fd5b505050506130f8565b612fff828860070154614984565b935061300c828a8a61493e565b61301685846153da565b61302091906153da565b600e54600389015460405163a9059cbb60e01b81529294506001600160a01b039182169263a9059cbb9261305a9216908690600401615426565b600060405180830381600087803b15801561307457600080fd5b505af1158015613088573d6000803e3d6000fd5b5050600e5460028a015460405163a9059cbb60e01b81526001600160a01b03928316945063a9059cbb93506130c592909116908890600401615426565b600060405180830381600087803b1580156130df57600080fd5b505af11580156130f3573d6000803e3d6000fd5b505050505b8461317b578c6001600160a01b03166323b872dd308860060160009054906101000a90046001600160a01b03168a600101546040518463ffffffff1660e01b81526004016131489392919061543f565b600060405180830381600087803b15801561316257600080fd5b505af1158015613176573d6000803e3d6000fd5b505050505b6006868101546004890180546001600160a01b039092166001600160a01b031992831617905560038901805490911690558701805460ff19169055600280546001019055505050505b6001830154600384015460068401546005850154604051600080516020615866833981519152946132059490936001600160a01b0391821693911691615463565b60405180910390a1505050505050505050565b600084815260056020526040902060080154849062010000900460ff1615156001146132565760405162461bcd60e51b81526004016107bc90615244565b3360009081526008602052604090205460ff16156132865760405162461bcd60e51b81526004016107bc9061529c565b61328e6148e5565b6000858152600560205260408120906132a6866117fb565b905060006132b3866117fb565b6003840154909150336001600160a01b03909116036132e45760405162461bcd60e51b81526004016107bc906152d1565b60038301546001600160a01b031660009081526008602052604090205460ff16156133215760405162461bcd60e51b81526004016107bc90615316565b6000600884015460ff16600181111561333c5761333c614e6d565b146133595760405162461bcd60e51b81526004016107bc9061536c565b600683015460ff1615156001146133825760405162461bcd60e51b81526004016107bc906153a3565b60028301546003840154600091339188916001600160a01b039081169116036134ee5760006133b282878761493e565b90506133be81836153da565b6004546040519193506001600160a01b03169082156108fc029083906000818181858888f193505050501580156133f9573d6000803e3d6000fd5b508c6000036134485760038701546040516001600160a01b039091169083156108fc029084906000818181858888f1935050505015801561343e573d6000803e3d6000fd5b50600193506134e8565b60006134526125e8565b61345c90846153ed565b905061346b81620f424061540f565b905061347881600061379b565b600e54600389015460405163a9059cbb60e01b81526001600160a01b039283169263a9059cbb926134b0929116908590600401615426565b600060405180830381600087803b1580156134ca57600080fd5b505af11580156134de573d6000803e3d6000fd5b5050505060019450505b50613694565b60008190506000613503828960070154614984565b9050600061351284898961493e565b90508061351f83856153da565b61352991906153da565b6004546040519195506001600160a01b03169082156108fc029083906000818181858888f19350505050158015613564573d6000803e3d6000fd5b5060028901546040516001600160a01b039091169083156108fc029084906000818181858888f193505050501580156135a1573d6000803e3d6000fd5b508e6000036135f05760038901546040516001600160a01b039091169085156108fc029086906000818181858888f193505050501580156135e6573d6000803e3d6000fd5b5060019550613690565b60006135fa6125e8565b61360490866153ed565b905061361381620f424061540f565b905061362081600061379b565b600e5460038b015460405163a9059cbb60e01b81526001600160a01b039283169263a9059cbb92613658929116908590600401615426565b600060405180830381600087803b15801561367257600080fd5b505af1158015613686573d6000803e3d6000fd5b5050505060019650505b5050505b82156137825760018601546040516323b872dd60e01b81526001600160a01b038f16916323b872dd916136ce91309187919060040161543f565b600060405180830381600087803b1580156136e857600080fd5b505af11580156136fc573d6000803e3d6000fd5b50505060018701546003880154604051600080516020615866833981519152935061373592916001600160a01b03169086908d90615463565b60405180910390a16004860180546001600160a01b0384166001600160a01b031991821617909155600387018054909116905560068601805460ff19169055613782600280546001019055565b5050505050506137926001600055565b50505050505050565b6040805160028082526060820183526000926020830190803683375050600d54604080516315ab88c960e31b815290519394506001600160a01b039091169263ad5c4648925060048083019260209291908290030181865afa158015613805573d6000803e3d6000fd5b505050506040513d601f19601f820116820180604052508101906138299190615624565b8160008151811061383c5761383c615488565b6001600160a01b039283166020918202929092010152600c5482519116908290600190811061386d5761386d615488565b6001600160a01b039290921660209283029190910182015260408051600280825260608201835260009391929091830190803683375050600d5460405163d06ca61f60e01b81529293506001600160a01b03169163d06ca61f91506138d89087908690600401615685565b600060405180830381865afa1580156138f5573d6000803e3d6000fd5b505050506040513d6000823e601f3d908101601f1916820160405261391d91908101906156a6565b9050826000036139ca57600d5481516001600160a01b0390911690637ff36ab59034908490600190811061395357613953615488565b60200260200101518530426040518663ffffffff1660e01b815260040161397d94939291906157d0565b60006040518083038185885af115801561399b573d6000803e3d6000fd5b50505050506040513d6000823e601f3d908101601f191682016040526139c491908101906156a6565b50613a8b565b60006139d46125e8565b6139de908661540f565b90506139ed620f4240826153ed565b600d5483519192506001600160a01b031690637ff36ab590839085906001908110613a1a57613a1a615488565b60200260200101518630426040518663ffffffff1660e01b8152600401613a4494939291906157d0565b60006040518083038185885af1158015613a62573d6000803e3d6000fd5b50505050506040513d6000823e601f3d908101601f19168201604052610ce391908101906156a6565b50505050565b60606000613a9e60035490565b90506000613aab60025490565b613ab590836153da565b90506000816001600160401b03811115613ad157613ad1614bbf565b604051908082528060200260200182016040528015613b0a57816020015b613af7614ab6565b815260200190600190039081613aef5790505b5090506000805b848110156120f15760008181526005602052604090206006015460ff168015613b4a575060008181526005602052604090206009015487145b8015613b6d575060008181526005602052604090206008015462010000900460ff165b15613cac5760008181526005602081815260409283902083516101808101855281546001600160a01b039081168252600180840154948301949094526002830154811695820195909552600382015485166060820152600482015490941660808501529182015460a0840152600682015460ff908116151560c0850152600783015460e08501526008830154610100850192911690811115613c1157613c11614e6d565b6001811115613c2257613c22614e6d565b81526020016008820160019054906101000a900460ff166002811115613c4a57613c4a614e6d565b6002811115613c5b57613c5b614e6d565b8152600882015462010000900460ff16151560208201526009909101546040909101528351849084908110613c9257613c92615488565b60200260200101819052508180613ca89061522b565b9250505b80613cb68161522b565b915050613b11565b3360009081526008602052604090205460609060ff1615613cf15760405162461bcd60e51b81526004016107bc9061529c565b6000613cfc60035490565b90506000805b82811015613d4e576000818152600560205260409020600301546001600160a01b03808716911603613d3c5781613d388161522b565b9250505b80613d468161522b565b915050613d02565b506000816001600160401b03811115613d6957613d69614bbf565b604051908082528060200260200182016040528015613da257816020015b613d8f614ab6565b815260200190600190039081613d875790505b5090506000805b848110156120f1576000818152600560205260409020600301546001600160a01b03808916911603613f0f5760008181526005602081815260409283902083516101808101855281546001600160a01b039081168252600180840154948301949094526002830154811695820195909552600382015485166060820152600482015490941660808501529182015460a0840152600682015460ff908116151560c0850152600783015460e08501526008830154610100850192911690811115613e7457613e74614e6d565b6001811115613e8557613e85614e6d565b81526020016008820160019054906101000a900460ff166002811115613ead57613ead614e6d565b6002811115613ebe57613ebe614e6d565b8152600882015462010000900460ff16151560208201526009909101546040909101528351849084908110613ef557613ef5615488565b60200260200101819052508180613f0b9061522b565b9250505b80613f198161522b565b915050613da9565b6000613f2b61488b565b6000805b845181101561415b57848181518110613f4a57613f4a615488565b602090810291909101810151600081815260059092526040909120600801805462ff00001916620100008715801591820292909217909255919350613fb45750600160008381526005602052604090206008015460ff166001811115613fb257613fb2614e6d565b145b1561410f57600082815260076020526040902060068101546001600160a01b03161561410d57600681015460058201546001600160a01b0390911690811561410a5760016006840154600160a01b900460ff16600281111561401857614018614e6d565b036140ab5760006140276125e8565b61403190836153ed565b905061404081620f424061540f565b600e5460405163a9059cbb60e01b81529192506001600160a01b03169063a9059cbb906140739086908590600401615426565b600060405180830381600087803b15801561408d57600080fd5b505af11580156140a1573d6000803e3d6000fd5b505050505061410a565b60006006840154600160a01b900460ff1660028111156140cd576140cd614e6d565b0361410a576040516001600160a01b0383169082156108fc029083906000818181858888f19350505050158015614108573d6000803e3d6000fd5b505b50505b505b6040805183815285151560208201527f6ffa1c2dfe558962660d78387d612607ef3f19ee482f7d51a12634d131e8db6e910160405180910390a1806141538161522b565b915050613f2f565b50919392505050565b600660205281600052604060002081815481106117bd57600080fd5b61418861488b565b6001600160a01b0381166141ed5760405162461bcd60e51b815260206004820152602660248201527f4f776e61626c653a206e6577206f776e657220697320746865207a65726f206160448201526564647265737360d01b60648201526084016107bc565b6141f6816149a3565b50565b60008281526007602052604090206003015482904211801561422b575060008181526007602052604090206004015442105b6142475760405162461bcd60e51b81526004016107bc906154e2565b600083815260056020526040902060080154839062010000900460ff1615156001146142855760405162461bcd60e51b81526004016107bc90615244565b3360009081526008602052604090205460ff16156142b55760405162461bcd60e51b81526004016107bc9061529c565b6000848152600760205260408120600601546001600160a01b0316614305576000858152600760205260409020600201543410156143055760405162461bcd60e51b81526004016107bc9061552b565b60008581526007602052604090206005015434116143355760405162461bcd60e51b81526004016107bc90615562565b600160008681526005602052604090206008015460ff16600181111561435d5761435d614e6d565b1461437a5760405162461bcd60e51b81526004016107bc906155bf565b60008581526005602052604090206006015460ff1615156001146143b05760405162461bcd60e51b81526004016107bc906153a3565b6000858152600760205260409020600681015460058201546001600160a01b039091169081156144ee5760016006840154600160a01b900460ff1660028111156143fc576143fc614e6d565b0361448f57600061440b6125e8565b61441590836153ed565b905061442481620f424061540f565b600e5460405163a9059cbb60e01b81529192506001600160a01b03169063a9059cbb906144579086908590600401615426565b600060405180830381600087803b15801561447157600080fd5b505af1158015614485573d6000803e3d6000fd5b50505050506144ee565b60006006840154600160a01b900460ff1660028111156144b1576144b1614e6d565b036144ee576040516001600160a01b0383169082156108fc029083906000818181858888f193505050501580156144ec573d6000803e3d6000fd5b505b3460058401556006830180546001600160a01b0319163317905586600281111561451a5761451a614e6d565b60068401805460ff60a01b1916600160a01b83600281111561453e5761453e614e6d565b021790555061454f426102586155f2565b836004015410156145c45761012c83600401600082825461457091906155f2565b9091555050600183015460048401546040517f8e1cb85d0855921b3c958b068fa707efb7db88099af764dd47f37eef82c3334d926145bb928c926001600160a01b0390921691615605565b60405180910390a15b600183810154600685015460058601546040519397507f4307392e6f0e441e74a4982d9fa9ddc49b3cd9d3902a9d3ecab0ad3c60a0acd193614616938d936001600160a01b0391821693911691615463565b60405180910390a15050505050505050565b3360009081526008602052604090205460609060ff161561465b5760405162461bcd60e51b81526004016107bc9061529c565b600061466660035490565b90506000805b828110156146b8576000818152600560205260409020600401546001600160a01b038087169116036146a657816146a28161522b565b9250505b806146b08161522b565b91505061466c565b506000816001600160401b038111156146d3576146d3614bbf565b60405190808252806020026020018201604052801561470c57816020015b6146f9614ab6565b8152602001906001900390816146f15790505b5090506000805b848110156120f1576000818152600560205260409020600401546001600160a01b038089169116036148795760008181526005602081815260409283902083516101808101855281546001600160a01b039081168252600180840154948301949094526002830154811695820195909552600382015485166060820152600482015490941660808501529182015460a0840152600682015460ff908116151560c0850152600783015460e085015260088301546101008501929116908111156147de576147de614e6d565b60018111156147ef576147ef614e6d565b81526020016008820160019054906101000a900460ff16600281111561481757614817614e6d565b600281111561482857614828614e6d565b8152600882015462010000900460ff1615156020820152600990910154604090910152835184908490811061485f5761485f615488565b602002602001018190525081806148759061522b565b9250505b806148838161522b565b915050614713565b6001546001600160a01b0316331461210e5760405162461bcd60e51b815260206004820181905260248201527f4f776e61626c653a2063616c6c6572206973206e6f7420746865206f776e657260448201526064016107bc565b6002600054036149375760405162461bcd60e51b815260206004820152601f60248201527f5265656e7472616e637947756172643a207265656e7472616e742063616c6c0060448201526064016107bc565b6002600055565b60008061271061494e858761540f565b61495891906153ed565b9050612710614967848761540f565b61497191906153ed565b61497b90826155f2565b95945050505050565b60006064614992838561540f565b61499c91906153ed565b9392505050565b600180546001600160a01b038381166001600160a01b0319831681179093556040519116919082907f8be0079c531659141344cd1fd0a4f28419497f9722a3daafe3b4186f6b6457e090600090a35050565b614a3a8282604051602401614a0b929190615805565b60408051601f198184030181529190526020810180516001600160e01b031663319af33360e01b179052614a95565b5050565b805480614a8d5760405162461bcd60e51b815260206004820152601b60248201527f436f756e7465723a2064656372656d656e74206f766572666c6f77000000000060448201526064016107bc565b600019019055565b60006a636f6e736f6c652e6c6f679050600080835160208501845afa505050565b6040805161018081018252600080825260208201819052918101829052606081018290526080810182905260a0810182905260c0810182905260e081018290529061010082019081526020016000815260006020820181905260409091015290565b6001600160a01b03811681146141f657600080fd5b803561186c81614b18565b600060208284031215614b4a57600080fd5b813561499c81614b18565b803560ff8116811461186c57600080fd5b600080600080600060a08688031215614b7e57600080fd5b8535614b8981614b18565b94506020860135935060408601359250614ba560608701614b55565b9150614bb360808701614b55565b90509295509295909350565b634e487b7160e01b600052604160045260246000fd5b604051601f8201601f191681016001600160401b0381118282101715614bfd57614bfd614bbf565b604052919050565b60006001600160401b03821115614c1e57614c1e614bbf565b5060051b60200190565b600082601f830112614c3957600080fd5b81356020614c4e614c4983614c05565b614bd5565b82815260059290921b84018101918181019086841115614c6d57600080fd5b8286015b84811015614c885780358352918301918301614c71565b509695505050505050565b60008060008060008060008060006101208a8c031215614cb257600080fd5b614cbb8a614b2d565b985060208a01356001600160401b0380821115614cd757600080fd5b614ce38d838e01614c28565b995060408c0135915080821115614cf957600080fd5b614d058d838e01614c28565b985060608c0135915080821115614d1b57600080fd5b614d278d838e01614c28565b975060808c0135965060a08c0135915080821115614d4457600080fd5b614d508d838e01614c28565b955060c08c0135915080821115614d6657600080fd5b50614d738c828d01614c28565b93505060e08a013591506101008a013590509295985092959850929598565b60008060008060808587031215614da857600080fd5b5050823594602084013594506040840135936060013592509050565b60008060408385031215614dd757600080fd5b50508035926020909101359150565b600060208284031215614df857600080fd5b61499c82614b55565b600080600080600080600060e0888a031215614e1c57600080fd5b8735614e2781614b18565b96506020880135955060408801359450614e4360608901614b55565b9350614e5160808901614b55565b925060a0880135915060c0880135905092959891949750929550565b634e487b7160e01b600052602160045260246000fd5b60028110614e9357614e93614e6d565b9052565b60038110614e9357614e93614e6d565b602080825282518282018190526000919060409081850190868401855b82811015614f7d57815180516001600160a01b0390811686528782015188870152868201518116878701526060808301518216908701526080808301519091169086015260a0808201519086015260c08082015115159086015260e0808201519086015261010080820151614f3b82880182614e83565b505061012080820151614f5082880182614e97565b50506101408181015115159086015261016090810151908501526101809093019290850190600101614ec4565b5091979650505050505050565b600060208284031215614f9c57600080fd5b5035919050565b60008060008060008060c08789031215614fbc57600080fd5b8635614fc781614b18565b9860208801359850604088013597606081013597506080810135965060a00135945092505050565b60006020828403121561500157600080fd5b81356005811061499c57600080fd5b6000806000806080858703121561502657600080fd5b843561503181614b18565b93506020850135925061504660408601614b55565b915061505460608601614b55565b905092959194509250565b60008060008060008060c0878903121561507857600080fd5b863561508381614b18565b9550602087013594506040870135935061509f60608801614b55565b92506150ad60808801614b55565b915060a087013590509295509295509295565b8881526001600160a01b03888116602083015260408201889052606082018790526080820186905260a08201859052831660c0820152610100810161510860e0830184614e97565b9998505050505050505050565b6001600160a01b038d81168252602082018d90528b811660408301528a811660608301528916608082015260a0810188905286151560c082015260e081018690526101808101615169610100830187614e83565b615177610120830186614e97565b92151561014082015261016001529a9950505050505050505050565b600080604083850312156151a657600080fd5b82356001600160401b038111156151bc57600080fd5b6151c885828601614c28565b925050602083013580151581146151de57600080fd5b809150509250929050565b600080604083850312156151fc57600080fd5b823561520781614b18565b946020939093013593505050565b634e487b7160e01b600052601160045260246000fd5b60006001820161523d5761523d615215565b5060010190565b60208082526038908201527f54686973204e4654206973206e6f7420617070726f766564207965742066726f6040820152776d207468652061646d696e20666f7220707572636861736560401b606082015260800190565b6020808252818101527f596f75206172652062616e6e6564206f6e207468697320706c6174666f726d2e604082015260600190565b60208082526025908201527f416e206f776e65722063616e6e6f7420707572636861736520697473206f776e6040820152641027232a1760d91b606082015260800190565b60208082526036908201527f546865206f776e6572206f662074686973206e667420697320626c61636b6c6960408201527539ba32b21037b7103a3434b990383630ba3337b9369760511b606082015260800190565b6020808252601a908201527f54686973204e4654206973206e6f742061742061756374696f6e000000000000604082015260600190565b6020808252601d908201527f4e6674206973206e6f74206c697374656420746f207075726368617365000000604082015260600190565b818103818111156126b1576126b1615215565b60008261540a57634e487b7160e01b600052601260045260246000fd5b500490565b80820281158282048414176126b1576126b1615215565b6001600160a01b03929092168252602082015260400190565b6001600160a01b039384168152919092166020820152604081019190915260600190565b9384526001600160a01b03928316602085015291166040830152606082015260800190565b634e487b7160e01b600052603260045260246000fd5b6001600160a01b03978816815260208101969096529386166040860152919094166060840152608083019390935260a082019290925260c081019190915260e00190565b60208082526029908201527f54686973204e4654206973206e6f74206f6e2061756374696f6e206174207468604082015268329036b7b6b2b73a1760b91b606082015260800190565b6020808252601c908201527f4d696e696d756d206269642068617320746f2062652068696768657200000000604082015260600190565b6020808252603c908201527f596f75206861766520746f2062696420686967686572207468616e207468652060408201527f686967686573742062696420746f206d616b6520616e206f6666657200000000606082015260800190565b6020808252601990820152782a3434b99027232a1034b99030ba1030ba1030bab1ba34b7b760391b604082015260600190565b808201808211156126b1576126b1615215565b9283526001600160a01b03919091166020830152604082015260600190565b60006020828403121561563657600080fd5b815161499c81614b18565b600081518084526020808501945080840160005b8381101561567a5781516001600160a01b031687529582019590820190600101615655565b509495945050505050565b82815260406020820152600061569e6040830184615641565b949350505050565b600060208083850312156156b957600080fd5b82516001600160401b038111156156cf57600080fd5b8301601f810185136156e057600080fd5b80516156ee614c4982614c05565b81815260059190911b8201830190838101908783111561570d57600080fd5b928401925b8284101561572b57835182529284019290840190615712565b979650505050505050565b85815284602082015260a06040820152600061575560a0830186615641565b6001600160a01b0394909416606083015250608001529392505050565b805169ffffffffffffffffffff8116811461186c57600080fd5b600080600080600060a086880312156157a457600080fd5b6157ad86615772565b9450602086015193506040860151925060608601519150614bb360808701615772565b8481526080602082015260006157e96080830186615641565b6001600160a01b03949094166040830152506060015292915050565b604081526000835180604084015260005b818110156158335760208187018101516060868401015201615816565b50600060608285018101919091526001600160a01b03949094166020840152601f01601f19169091019091019291505056fe8562eb94748e30bb0071e932744ce902b460c683474fcb3bfd567ffa16b1afb2a264697066735822122099270902c4f47d7f9b0cc2dd5d44fed1d7e8c71cdfb82386ff3898cad969f9f164736f6c63430008130033",
  "linkReferences": {},
  "deployedLinkReferences": {}
}