{
  "_format": "hh-sol-artifact-1",
  "contractName": "ArtiziaNFT",
  "sourceName": "contracts/ArtiziaNFT.sol",
  "abi": [
    {
      "inputs": [
        {
          "internalType": "address",
          "name": "_artiziaMarketplaceContract",
          "type": "address"
        }
      ],
      "stateMutability": "nonpayable",
      "type": "constructor"
    },
    {
      "anonymous": false,
      "inputs": [
        {
          "indexed": true,
          "internalType": "address",
          "name": "owner",
          "type": "address"
        },
        {
          "indexed": true,
          "internalType": "address",
          "name": "approved",
          "type": "address"
        },
        {
          "indexed": true,
          "internalType": "uint256",
          "name": "tokenId",
          "type": "uint256"
        }
      ],
      "name": "Approval",
      "type": "event"
    },
    {
      "anonymous": false,
      "inputs": [
        {
          "indexed": true,
          "internalType": "address",
          "name": "owner",
          "type": "address"
        },
        {
          "indexed": true,
          "internalType": "address",
          "name": "operator",
          "type": "address"
        },
        {
          "indexed": false,
          "internalType": "bool",
          "name": "approved",
          "type": "bool"
        }
      ],
      "name": "ApprovalForAll",
      "type": "event"
    },
    {
      "anonymous": false,
      "inputs": [
        {
          "indexed": false,
          "internalType": "uint256",
          "name": "_fromTokenId",
          "type": "uint256"
        },
        {
          "indexed": false,
          "internalType": "uint256",
          "name": "_toTokenId",
          "type": "uint256"
        }
      ],
      "name": "BatchMetadataUpdate",
      "type": "event"
    },
    {
      "anonymous": false,
      "inputs": [
        {
          "indexed": false,
          "internalType": "uint256",
          "name": "_tokenId",
          "type": "uint256"
        }
      ],
      "name": "MetadataUpdate",
      "type": "event"
    },
    {
      "anonymous": false,
      "inputs": [
        {
          "indexed": false,
          "internalType": "uint256[]",
          "name": "",
          "type": "uint256[]"
        }
      ],
      "name": "NFTMinted",
      "type": "event"
    },
    {
      "anonymous": false,
      "inputs": [
        {
          "indexed": true,
          "internalType": "address",
          "name": "from",
          "type": "address"
        },
        {
          "indexed": true,
          "internalType": "address",
          "name": "to",
          "type": "address"
        },
        {
          "indexed": true,
          "internalType": "uint256",
          "name": "tokenId",
          "type": "uint256"
        }
      ],
      "name": "Transfer",
      "type": "event"
    },
    {
      "inputs": [
        {
          "internalType": "address",
          "name": "to",
          "type": "address"
        },
        {
          "internalType": "uint256",
          "name": "tokenId",
          "type": "uint256"
        }
      ],
      "name": "approve",
      "outputs": [],
      "stateMutability": "nonpayable",
      "type": "function"
    },
    {
      "inputs": [
        {
          "internalType": "address",
          "name": "owner",
          "type": "address"
        }
      ],
      "name": "balanceOf",
      "outputs": [
        {
          "internalType": "uint256",
          "name": "",
          "type": "uint256"
        }
      ],
      "stateMutability": "view",
      "type": "function"
    },
    {
      "inputs": [
        {
          "internalType": "uint256",
          "name": "tokenId",
          "type": "uint256"
        }
      ],
      "name": "getApproved",
      "outputs": [
        {
          "internalType": "address",
          "name": "",
          "type": "address"
        }
      ],
      "stateMutability": "view",
      "type": "function"
    },
    {
      "inputs": [],
      "name": "getMintedTokensList",
      "outputs": [
        {
          "internalType": "uint256[]",
          "name": "",
          "type": "uint256[]"
        }
      ],
      "stateMutability": "view",
      "type": "function"
    },
    {
      "inputs": [
        {
          "internalType": "address",
          "name": "owner",
          "type": "address"
        },
        {
          "internalType": "address",
          "name": "operator",
          "type": "address"
        }
      ],
      "name": "isApprovedForAll",
      "outputs": [
        {
          "internalType": "bool",
          "name": "",
          "type": "bool"
        }
      ],
      "stateMutability": "view",
      "type": "function"
    },
    {
      "inputs": [
        {
          "internalType": "string[]",
          "name": "_tokenURIs",
          "type": "string[]"
        }
      ],
      "name": "mint",
      "outputs": [],
      "stateMutability": "nonpayable",
      "type": "function"
    },
    {
      "inputs": [
        {
          "internalType": "uint256",
          "name": "",
          "type": "uint256"
        }
      ],
      "name": "mintedTokensList",
      "outputs": [
        {
          "internalType": "uint256",
          "name": "",
          "type": "uint256"
        }
      ],
      "stateMutability": "view",
      "type": "function"
    },
    {
      "inputs": [],
      "name": "name",
      "outputs": [
        {
          "internalType": "string",
          "name": "",
          "type": "string"
        }
      ],
      "stateMutability": "view",
      "type": "function"
    },
    {
      "inputs": [
        {
          "internalType": "uint256",
          "name": "tokenId",
          "type": "uint256"
        }
      ],
      "name": "ownerOf",
      "outputs": [
        {
          "internalType": "address",
          "name": "",
          "type": "address"
        }
      ],
      "stateMutability": "view",
      "type": "function"
    },
    {
      "inputs": [
        {
          "internalType": "address",
          "name": "from",
          "type": "address"
        },
        {
          "internalType": "address",
          "name": "to",
          "type": "address"
        },
        {
          "internalType": "uint256",
          "name": "tokenId",
          "type": "uint256"
        }
      ],
      "name": "safeTransferFrom",
      "outputs": [],
      "stateMutability": "nonpayable",
      "type": "function"
    },
    {
      "inputs": [
        {
          "internalType": "address",
          "name": "from",
          "type": "address"
        },
        {
          "internalType": "address",
          "name": "to",
          "type": "address"
        },
        {
          "internalType": "uint256",
          "name": "tokenId",
          "type": "uint256"
        },
        {
          "internalType": "bytes",
          "name": "data",
          "type": "bytes"
        }
      ],
      "name": "safeTransferFrom",
      "outputs": [],
      "stateMutability": "nonpayable",
      "type": "function"
    },
    {
      "inputs": [
        {
          "internalType": "address",
          "name": "operator",
          "type": "address"
        },
        {
          "internalType": "bool",
          "name": "approved",
          "type": "bool"
        }
      ],
      "name": "setApprovalForAll",
      "outputs": [],
      "stateMutability": "nonpayable",
      "type": "function"
    },
    {
      "inputs": [
        {
          "internalType": "bytes4",
          "name": "interfaceId",
          "type": "bytes4"
        }
      ],
      "name": "supportsInterface",
      "outputs": [
        {
          "internalType": "bool",
          "name": "",
          "type": "bool"
        }
      ],
      "stateMutability": "view",
      "type": "function"
    },
    {
      "inputs": [],
      "name": "symbol",
      "outputs": [
        {
          "internalType": "string",
          "name": "",
          "type": "string"
        }
      ],
      "stateMutability": "view",
      "type": "function"
    },
    {
      "inputs": [
        {
          "internalType": "uint256",
          "name": "tokenId",
          "type": "uint256"
        }
      ],
      "name": "tokenURI",
      "outputs": [
        {
          "internalType": "string",
          "name": "",
          "type": "string"
        }
      ],
      "stateMutability": "view",
      "type": "function"
    },
    {
      "inputs": [
        {
          "internalType": "address",
          "name": "from",
          "type": "address"
        },
        {
          "internalType": "address",
          "name": "to",
          "type": "address"
        },
        {
          "internalType": "uint256",
          "name": "tokenId",
          "type": "uint256"
        }
      ],
      "name": "transferFrom",
      "outputs": [],
      "stateMutability": "nonpayable",
      "type": "function"
    }
  ],
  "bytecode": "0x60806040523480156200001157600080fd5b5060405162001c1d38038062001c1d8339810160408190526200003491620000bb565b60405180604001604052806007815260200166417274697a696160c81b8152506040518060400160405280600481526020016320a92a2d60e11b815250816000908162000082919062000192565b50600162000091828262000192565b5050600880546001600160a01b0319166001600160a01b039390931692909217909155506200025e565b600060208284031215620000ce57600080fd5b81516001600160a01b0381168114620000e657600080fd5b9392505050565b634e487b7160e01b600052604160045260246000fd5b600181811c908216806200011857607f821691505b6020821081036200013957634e487b7160e01b600052602260045260246000fd5b50919050565b601f8211156200018d57600081815260208120601f850160051c81016020861015620001685750805b601f850160051c820191505b81811015620001895782815560010162000174565b5050505b505050565b81516001600160401b03811115620001ae57620001ae620000ed565b620001c681620001bf845462000103565b846200013f565b602080601f831160018114620001fe5760008415620001e55750858301515b600019600386901b1c1916600185901b17855562000189565b600085815260208120601f198616915b828110156200022f578886015182559484019460019091019084016200020e565b50858210156200024e5787850151600019600388901b60f8161c191681555b5050505050600190811b01905550565b6119af806200026e6000396000f3fe608060405234801561001057600080fd5b50600436106100e05760003560e01c806370a082311161008757806370a08231146101ae57806374aecbb2146101cf57806374c92fd1146101e457806395d89b41146101f7578063a22cb465146101ff578063b88d4fde14610212578063c87b56dd14610225578063e985e9c51461023857600080fd5b806301ffc9a7146100e557806306fdde031461010d578063081812fc14610122578063095ea7b31461014d57806323b872dd1461016257806342842e0e146101755780635768f271146101885780636352211e1461019b575b600080fd5b6100f86100f3366004611225565b61024b565b60405190151581526020015b60405180910390f35b610115610276565b6040516101049190611292565b6101356101303660046112a5565b610308565b6040516001600160a01b039091168152602001610104565b61016061015b3660046112da565b61032f565b005b610160610170366004611304565b610449565b610160610183366004611304565b61047a565b6101606101963660046113dd565b610495565b6101356101a93660046112a5565b610632565b6101c16101bc3660046114b4565b610667565b604051908152602001610104565b6101d76106ed565b60405161010491906114cf565b6101c16101f23660046112a5565b610744565b610115610765565b61016061020d366004611513565b610774565b61016061022036600461154f565b610783565b6101156102333660046112a5565b6107bb565b6100f86102463660046115ca565b6108cb565b60006001600160e01b03198216632483248360e11b14806102705750610270826108f9565b92915050565b606060008054610285906115fd565b80601f01602080910402602001604051908101604052809291908181526020018280546102b1906115fd565b80156102fe5780601f106102d3576101008083540402835291602001916102fe565b820191906000526020600020905b8154815290600101906020018083116102e157829003601f168201915b5050505050905090565b600061031382610949565b506000908152600460205260409020546001600160a01b031690565b600061033a82610632565b9050806001600160a01b0316836001600160a01b0316036103ac5760405162461bcd60e51b815260206004820152602160248201527f4552433732313a20617070726f76616c20746f2063757272656e74206f776e656044820152603960f91b60648201526084015b60405180910390fd5b336001600160a01b03821614806103c857506103c881336108cb565b61043a5760405162461bcd60e51b815260206004820152603d60248201527f4552433732313a20617070726f76652063616c6c6572206973206e6f7420746f60448201527f6b656e206f776e6572206f7220617070726f76656420666f7220616c6c00000060648201526084016103a3565b6104448383610971565b505050565b61045333826109df565b61046f5760405162461bcd60e51b81526004016103a390611637565b610444838383610a3d565b61044483838360405180602001604052806000815250610783565b600081516001600160401b038111156104b0576104b0611340565b6040519080825280602002602001820160405280156104d9578160200160208202803683370190505b50905060005b82518110156105f65760006104f360075490565b90506104ff3382610ba1565b6105228185848151811061051557610515611684565b6020026020010151610bbb565b600854610539906001600160a01b03166001610774565b8083838151811061054c5761054c611684565b6020908102919091010152600980546001810182556000919091527f6e1540171b6c0c960b71a7020d9f60077f6af931a8bbf590da0223dacf75c7af0181905561059a600780546001019055565b6105e36040518060400160405280600e81526020016d6d696e746564546f6b656e49647360901b8152508484815181106105d6576105d6611684565b6020026020010151610c70565b50806105ee8161169a565b9150506104df565b507f758666154f91d6dd1ff8bd2f2e7f207b25297952ffc083ed6fc3a4deac42b03a8160405161062691906114cf565b60405180910390a15050565b6000818152600260205260408120546001600160a01b0316806102705760405162461bcd60e51b81526004016103a3906116c1565b60006001600160a01b0382166106d15760405162461bcd60e51b815260206004820152602960248201527f4552433732313a2061646472657373207a65726f206973206e6f7420612076616044820152683634b21037bbb732b960b91b60648201526084016103a3565b506001600160a01b031660009081526003602052604090205490565b606060098054806020026020016040519081016040528092919081815260200182805480156102fe57602002820191906000526020600020905b815481526020019060010190808311610727575050505050905090565b6009818154811061075457600080fd5b600091825260209091200154905081565b606060018054610285906115fd565b61077f338383610cb5565b5050565b61078d33836109df565b6107a95760405162461bcd60e51b81526004016103a390611637565b6107b584848484610d7f565b50505050565b60606107c682610949565b600082815260066020526040812080546107df906115fd565b80601f016020809104026020016040519081016040528092919081815260200182805461080b906115fd565b80156108585780601f1061082d57610100808354040283529160200191610858565b820191906000526020600020905b81548152906001019060200180831161083b57829003601f168201915b50505050509050600061087660408051602081019091526000815290565b90508051600003610888575092915050565b8151156108ba5780826040516020016108a29291906116f3565b60405160208183030381529060405292505050919050565b6108c384610db2565b949350505050565b6001600160a01b03918216600090815260056020908152604080832093909416825291909152205460ff1690565b60006001600160e01b031982166380ac58cd60e01b148061092a57506001600160e01b03198216635b5e139f60e01b145b8061027057506301ffc9a760e01b6001600160e01b0319831614610270565b61095281610e26565b61096e5760405162461bcd60e51b81526004016103a3906116c1565b50565b600081815260046020526040902080546001600160a01b0319166001600160a01b03841690811790915581906109a682610632565b6001600160a01b03167f8c5be1e5ebec7d5bd14f71427d1e84f3dd0314c0f7b2291e5b200ac8c7c3b92560405160405180910390a45050565b6000806109eb83610632565b9050806001600160a01b0316846001600160a01b03161480610a125750610a1281856108cb565b806108c35750836001600160a01b0316610a2b84610308565b6001600160a01b031614949350505050565b826001600160a01b0316610a5082610632565b6001600160a01b031614610a765760405162461bcd60e51b81526004016103a390611722565b6001600160a01b038216610ad85760405162461bcd60e51b8152602060048201526024808201527f4552433732313a207472616e7366657220746f20746865207a65726f206164646044820152637265737360e01b60648201526084016103a3565b826001600160a01b0316610aeb82610632565b6001600160a01b031614610b115760405162461bcd60e51b81526004016103a390611722565b600081815260046020908152604080832080546001600160a01b03199081169091556001600160a01b0387811680865260038552838620805460001901905590871680865283862080546001019055868652600290945282852080549092168417909155905184937fddf252ad1be2c89b69c2b068fc378daa952ba7f163c4a11628f55a4df523b3ef91a4505050565b61077f828260405180602001604052806000815250610e43565b610bc482610e26565b610c275760405162461bcd60e51b815260206004820152602e60248201527f45524337323155524953746f726167653a2055524920736574206f66206e6f6e60448201526d32bc34b9ba32b73a103a37b5b2b760911b60648201526084016103a3565b6000828152600660205260409020610c3f82826117b5565b506040518281527ff8e1a15aba9398e019f0b49df1a4fde98ee17ae345cb5f6b5e2c27f5033e8ce790602001610626565b61077f8282604051602401610c86929190611874565b60408051601f198184030181529190526020810180516001600160e01b0316632d839cb360e21b179052610e76565b816001600160a01b0316836001600160a01b031603610d125760405162461bcd60e51b815260206004820152601960248201527822a9219b99189d1030b8383937bb32903a379031b0b63632b960391b60448201526064016103a3565b6001600160a01b03838116600081815260056020908152604080832094871680845294825291829020805460ff191686151590811790915591519182527f17307eab39ab6107e8899845ad3d59bd9653f200f220920489ca2b5937696c31910160405180910390a3505050565b610d8a848484610a3d565b610d9684848484610e97565b6107b55760405162461bcd60e51b81526004016103a390611896565b6060610dbd82610949565b6000610dd460408051602081019091526000815290565b90506000815111610df45760405180602001604052806000815250610e1f565b80610dfe84610f98565b604051602001610e0f9291906116f3565b6040516020818303038152906040525b9392505050565b6000908152600260205260409020546001600160a01b0316151590565b610e4d838361102a565b610e5a6000848484610e97565b6104445760405162461bcd60e51b81526004016103a390611896565b60006a636f6e736f6c652e6c6f679050600080835160208501845afa505050565b60006001600160a01b0384163b15610f8d57604051630a85bd0160e11b81526001600160a01b0385169063150b7a0290610edb9033908990889088906004016118e8565b6020604051808303816000875af1925050508015610f16575060408051601f3d908101601f19168201909252610f1391810190611925565b60015b610f73573d808015610f44576040519150601f19603f3d011682016040523d82523d6000602084013e610f49565b606091505b508051600003610f6b5760405162461bcd60e51b81526004016103a390611896565b805181602001fd5b6001600160e01b031916630a85bd0160e11b1490506108c3565b506001949350505050565b60606000610fa583611137565b60010190506000816001600160401b03811115610fc457610fc4611340565b6040519080825280601f01601f191660200182016040528015610fee576020820181803683370190505b5090508181016020015b600019016f181899199a1a9b1b9c1cb0b131b232b360811b600a86061a8153600a8504945084610ff857509392505050565b6001600160a01b0382166110805760405162461bcd60e51b815260206004820181905260248201527f4552433732313a206d696e7420746f20746865207a65726f206164647265737360448201526064016103a3565b61108981610e26565b156110a65760405162461bcd60e51b81526004016103a390611942565b6110af81610e26565b156110cc5760405162461bcd60e51b81526004016103a390611942565b6001600160a01b038216600081815260036020908152604080832080546001019055848352600290915280822080546001600160a01b0319168417905551839291907fddf252ad1be2c89b69c2b068fc378daa952ba7f163c4a11628f55a4df523b3ef908290a45050565b60008072184f03e93ff9f4daa797ed6e38ed64bf6a1f0160401b83106111765772184f03e93ff9f4daa797ed6e38ed64bf6a1f0160401b830492506040015b6d04ee2d6d415b85acef810000000083106111a2576d04ee2d6d415b85acef8100000000830492506020015b662386f26fc1000083106111c057662386f26fc10000830492506010015b6305f5e10083106111d8576305f5e100830492506008015b61271083106111ec57612710830492506004015b606483106111fe576064830492506002015b600a83106102705760010192915050565b6001600160e01b03198116811461096e57600080fd5b60006020828403121561123757600080fd5b8135610e1f8161120f565b60005b8381101561125d578181015183820152602001611245565b50506000910152565b6000815180845261127e816020860160208601611242565b601f01601f19169290920160200192915050565b602081526000610e1f6020830184611266565b6000602082840312156112b757600080fd5b5035919050565b80356001600160a01b03811681146112d557600080fd5b919050565b600080604083850312156112ed57600080fd5b6112f6836112be565b946020939093013593505050565b60008060006060848603121561131957600080fd5b611322846112be565b9250611330602085016112be565b9150604084013590509250925092565b634e487b7160e01b600052604160045260246000fd5b604051601f8201601f191681016001600160401b038111828210171561137e5761137e611340565b604052919050565b60006001600160401b0383111561139f5761139f611340565b6113b2601f8401601f1916602001611356565b90508281528383830111156113c657600080fd5b828260208301376000602084830101529392505050565b600060208083850312156113f057600080fd5b82356001600160401b038082111561140757600080fd5b818501915085601f83011261141b57600080fd5b81358181111561142d5761142d611340565b8060051b61143c858201611356565b918252838101850191858101908984111561145657600080fd5b86860192505b838310156114a7578235858111156114745760008081fd5b8601603f81018b136114865760008081fd5b6114978b8983013560408401611386565b835250918601919086019061145c565b9998505050505050505050565b6000602082840312156114c657600080fd5b610e1f826112be565b6020808252825182820181905260009190848201906040850190845b81811015611507578351835292840192918401916001016114eb565b50909695505050505050565b6000806040838503121561152657600080fd5b61152f836112be565b91506020830135801515811461154457600080fd5b809150509250929050565b6000806000806080858703121561156557600080fd5b61156e856112be565b935061157c602086016112be565b92506040850135915060608501356001600160401b0381111561159e57600080fd5b8501601f810187136115af57600080fd5b6115be87823560208401611386565b91505092959194509250565b600080604083850312156115dd57600080fd5b6115e6836112be565b91506115f4602084016112be565b90509250929050565b600181811c9082168061161157607f821691505b60208210810361163157634e487b7160e01b600052602260045260246000fd5b50919050565b6020808252602d908201527f4552433732313a2063616c6c6572206973206e6f7420746f6b656e206f776e6560408201526c1c881bdc88185c1c1c9bdd9959609a1b606082015260800190565b634e487b7160e01b600052603260045260246000fd5b6000600182016116ba57634e487b7160e01b600052601160045260246000fd5b5060010190565b602080825260189082015277115490cdcc8c4e881a5b9d985b1a59081d1bdad95b88125160421b604082015260600190565b60008351611705818460208801611242565b835190830190611719818360208801611242565b01949350505050565b60208082526025908201527f4552433732313a207472616e736665722066726f6d20696e636f72726563742060408201526437bbb732b960d91b606082015260800190565b601f82111561044457600081815260208120601f850160051c8101602086101561178e5750805b601f850160051c820191505b818110156117ad5782815560010161179a565b505050505050565b81516001600160401b038111156117ce576117ce611340565b6117e2816117dc84546115fd565b84611767565b602080601f83116001811461181757600084156117ff5750858301515b600019600386901b1c1916600185901b1785556117ad565b600085815260208120601f198616915b8281101561184657888601518255948401946001909101908401611827565b50858210156118645787850151600019600388901b60f8161c191681555b5050505050600190811b01905550565b6040815260006118876040830185611266565b90508260208301529392505050565b60208082526032908201527f4552433732313a207472616e7366657220746f206e6f6e20455243373231526560408201527131b2b4bb32b91034b6b83632b6b2b73a32b960711b606082015260800190565b6001600160a01b038581168252841660208201526040810183905260806060820181905260009061191b90830184611266565b9695505050505050565b60006020828403121561193757600080fd5b8151610e1f8161120f565b6020808252601c908201527f4552433732313a20746f6b656e20616c7265616479206d696e7465640000000060408201526060019056fea2646970667358221220ae587609e0862eb49d7bc8f847ec3da34a6b237328588f88652f3b907a6f289664736f6c63430008130033",
  "linkReferences": {},
  "deployedLinkReferences": {}
}