{
  "_format": "hh-sol-artifact-1",
  "contractName": "ArtiziaMarketplace",
  "sourceName": "contracts/ArtiziaMarketplace.sol",
  "abi": [
    {
      "inputs": [
        {
          "internalType": "address",
          "name": "_token",
          "type": "address"
        }
      ],
      "stateMutability": "nonpayable",
      "type": "constructor"
    },
    {
      "inputs": [],
      "name": "invalidListingType",
      "type": "error"
    },
    {
      "inputs": [],
      "name": "invalidPrice",
      "type": "error"
    },
    {
      "anonymous": false,
      "inputs": [
        {
          "indexed": false,
          "internalType": "address",
          "name": "nftContract",
          "type": "address"
        },
        {
          "indexed": false,
          "internalType": "uint256",
          "name": "tokenId",
          "type": "uint256"
        },
        {
          "indexed": false,
          "internalType": "address",
          "name": "seller",
          "type": "address"
        },
        {
          "indexed": false,
          "internalType": "address",
          "name": "owner",
          "type": "address"
        },
        {
          "indexed": false,
          "internalType": "uint256",
          "name": "price",
          "type": "uint256"
        }
      ],
      "name": "NFTListed",
      "type": "event"
    },
    {
      "anonymous": false,
      "inputs": [
        {
          "indexed": false,
          "internalType": "address",
          "name": "nftContract",
          "type": "address"
        },
        {
          "indexed": false,
          "internalType": "uint256",
          "name": "tokenId",
          "type": "uint256"
        },
        {
          "indexed": false,
          "internalType": "address",
          "name": "seller",
          "type": "address"
        },
        {
          "indexed": false,
          "internalType": "address",
          "name": "owner",
          "type": "address"
        },
        {
          "indexed": false,
          "internalType": "uint256",
          "name": "price",
          "type": "uint256"
        }
      ],
      "name": "NFTSold",
      "type": "event"
    },
    {
      "anonymous": false,
      "inputs": [
        {
          "indexed": true,
          "internalType": "address",
          "name": "previousOwner",
          "type": "address"
        },
        {
          "indexed": true,
          "internalType": "address",
          "name": "newOwner",
          "type": "address"
        }
      ],
      "name": "OwnershipTransferred",
      "type": "event"
    },
    {
      "anonymous": false,
      "inputs": [
        {
          "indexed": false,
          "internalType": "uint256",
          "name": "newTime",
          "type": "uint256"
        }
      ],
      "name": "auctionEndTimeIncreased",
      "type": "event"
    },
    {
      "stateMutability": "payable",
      "type": "fallback"
    },
    {
      "inputs": [],
      "name": "UNISWAP_ROUTER_ADDRESS",
      "outputs": [
        {
          "internalType": "address",
          "name": "",
          "type": "address"
        }
      ],
      "stateMutability": "view",
      "type": "function"
    },
    {
      "inputs": [],
      "name": "USDT_ADDRESS",
      "outputs": [
        {
          "internalType": "address",
          "name": "",
          "type": "address"
        }
      ],
      "stateMutability": "view",
      "type": "function"
    },
    {
      "inputs": [
        {
          "internalType": "uint256",
          "name": "",
          "type": "uint256"
        }
      ],
      "name": "_idToAuction",
      "outputs": [
        {
          "internalType": "uint256",
          "name": "tokenId",
          "type": "uint256"
        },
        {
          "internalType": "address payable",
          "name": "seller",
          "type": "address"
        },
        {
          "internalType": "uint256",
          "name": "basePrice",
          "type": "uint256"
        },
        {
          "internalType": "uint256",
          "name": "startTime",
          "type": "uint256"
        },
        {
          "internalType": "uint256",
          "name": "endTime",
          "type": "uint256"
        },
        {
          "internalType": "uint256",
          "name": "highestBid",
          "type": "uint256"
        },
        {
          "internalType": "address payable",
          "name": "highestBidder",
          "type": "address"
        },
        {
          "internalType": "enum ArtiziaMarketplace.PaymentMethod",
          "name": "highestBidCurrency",
          "type": "uint8"
        },
        {
          "internalType": "bool",
          "name": "isLive",
          "type": "bool"
        }
      ],
      "stateMutability": "view",
      "type": "function"
    },
    {
      "inputs": [
        {
          "internalType": "uint256",
          "name": "",
          "type": "uint256"
        }
      ],
      "name": "_idToNFT",
      "outputs": [
        {
          "internalType": "address",
          "name": "nftContract",
          "type": "address"
        },
        {
          "internalType": "uint256",
          "name": "tokenId",
          "type": "uint256"
        },
        {
          "internalType": "address payable",
          "name": "firstOwner",
          "type": "address"
        },
        {
          "internalType": "address payable",
          "name": "seller",
          "type": "address"
        },
        {
          "internalType": "address payable",
          "name": "owner",
          "type": "address"
        },
        {
          "internalType": "uint256",
          "name": "price",
          "type": "uint256"
        },
        {
          "internalType": "bool",
          "name": "listed",
          "type": "bool"
        },
        {
          "internalType": "uint256",
          "name": "royaltyPrice",
          "type": "uint256"
        },
        {
          "internalType": "enum ArtiziaMarketplace.ListingType",
          "name": "listingType",
          "type": "uint8"
        },
        {
          "internalType": "enum ArtiziaMarketplace.PaymentMethod",
          "name": "paymentMethod",
          "type": "uint8"
        }
      ],
      "stateMutability": "view",
      "type": "function"
    },
    {
      "inputs": [],
      "name": "_nftCount",
      "outputs": [
        {
          "internalType": "uint256",
          "name": "_value",
          "type": "uint256"
        }
      ],
      "stateMutability": "view",
      "type": "function"
    },
    {
      "inputs": [],
      "name": "_nftsSold",
      "outputs": [
        {
          "internalType": "uint256",
          "name": "_value",
          "type": "uint256"
        }
      ],
      "stateMutability": "view",
      "type": "function"
    },
    {
      "inputs": [
        {
          "internalType": "address[]",
          "name": "fans",
          "type": "address[]"
        }
      ],
      "name": "addFans",
      "outputs": [],
      "stateMutability": "nonpayable",
      "type": "function"
    },
    {
      "inputs": [
        {
          "internalType": "address",
          "name": "_user",
          "type": "address"
        }
      ],
      "name": "banUser",
      "outputs": [],
      "stateMutability": "nonpayable",
      "type": "function"
    },
    {
      "inputs": [
        {
          "internalType": "address",
          "name": "",
          "type": "address"
        }
      ],
      "name": "bannedUsers",
      "outputs": [
        {
          "internalType": "bool",
          "name": "",
          "type": "bool"
        }
      ],
      "stateMutability": "view",
      "type": "function"
    },
    {
      "inputs": [
        {
          "internalType": "uint256",
          "name": "_tokenId",
          "type": "uint256"
        },
        {
          "internalType": "uint256",
          "name": "_bidCurrency",
          "type": "uint256"
        }
      ],
      "name": "bidInETH",
      "outputs": [],
      "stateMutability": "payable",
      "type": "function"
    },
    {
      "inputs": [
        {
          "internalType": "uint256",
          "name": "_tokenId",
          "type": "uint256"
        },
        {
          "internalType": "uint256",
          "name": "_amount",
          "type": "uint256"
        },
        {
          "internalType": "uint256",
          "name": "_bidCurrency",
          "type": "uint256"
        }
      ],
      "name": "bidInUSDT",
      "outputs": [],
      "stateMutability": "payable",
      "type": "function"
    },
    {
      "inputs": [
        {
          "internalType": "address",
          "name": "_nftContract",
          "type": "address"
        },
        {
          "internalType": "uint256",
          "name": "_paymentMethod",
          "type": "uint256"
        },
        {
          "internalType": "uint256",
          "name": "_tokenId",
          "type": "uint256"
        }
      ],
      "name": "buyWithETH",
      "outputs": [],
      "stateMutability": "payable",
      "type": "function"
    },
    {
      "inputs": [
        {
          "internalType": "address",
          "name": "_nftContract",
          "type": "address"
        },
        {
          "internalType": "uint256",
          "name": "_paymentMethod",
          "type": "uint256"
        },
        {
          "internalType": "uint256",
          "name": "_tokenId",
          "type": "uint256"
        },
        {
          "internalType": "uint256",
          "name": "_amount",
          "type": "uint256"
        }
      ],
      "name": "buyWithUSDT",
      "outputs": [],
      "stateMutability": "payable",
      "type": "function"
    },
    {
      "inputs": [],
      "name": "checkBannedOrDeletedUser",
      "outputs": [
        {
          "internalType": "bool",
          "name": "",
          "type": "bool"
        }
      ],
      "stateMutability": "view",
      "type": "function"
    },
    {
      "inputs": [
        {
          "internalType": "address",
          "name": "_nftContract",
          "type": "address"
        },
        {
          "internalType": "uint256",
          "name": "_tokenId",
          "type": "uint256"
        }
      ],
      "name": "closeAuction",
      "outputs": [],
      "stateMutability": "payable",
      "type": "function"
    },
    {
      "inputs": [
        {
          "internalType": "address",
          "name": "_user",
          "type": "address"
        }
      ],
      "name": "deleteUser",
      "outputs": [],
      "stateMutability": "nonpayable",
      "type": "function"
    },
    {
      "inputs": [
        {
          "internalType": "address",
          "name": "",
          "type": "address"
        }
      ],
      "name": "deletedUsers",
      "outputs": [
        {
          "internalType": "bool",
          "name": "",
          "type": "bool"
        }
      ],
      "stateMutability": "view",
      "type": "function"
    },
    {
      "inputs": [
        {
          "internalType": "address",
          "name": "",
          "type": "address"
        },
        {
          "internalType": "uint256",
          "name": "",
          "type": "uint256"
        }
      ],
      "name": "fanLists",
      "outputs": [
        {
          "internalType": "address",
          "name": "",
          "type": "address"
        }
      ],
      "stateMutability": "view",
      "type": "function"
    },
    {
      "inputs": [],
      "name": "getContractBalance",
      "outputs": [
        {
          "internalType": "uint256",
          "name": "",
          "type": "uint256"
        }
      ],
      "stateMutability": "view",
      "type": "function"
    },
    {
      "inputs": [],
      "name": "getFans",
      "outputs": [
        {
          "internalType": "address[]",
          "name": "",
          "type": "address[]"
        }
      ],
      "stateMutability": "view",
      "type": "function"
    },
    {
      "inputs": [
        {
          "internalType": "uint256",
          "name": "_tokenId",
          "type": "uint256"
        }
      ],
      "name": "getHighestBid",
      "outputs": [
        {
          "internalType": "uint256",
          "name": "",
          "type": "uint256"
        }
      ],
      "stateMutability": "view",
      "type": "function"
    },
    {
      "inputs": [],
      "name": "getLatestUSDTPrice",
      "outputs": [
        {
          "internalType": "uint256",
          "name": "",
          "type": "uint256"
        }
      ],
      "stateMutability": "view",
      "type": "function"
    },
    {
      "inputs": [],
      "name": "getListedNfts",
      "outputs": [
        {
          "components": [
            {
              "internalType": "address",
              "name": "nftContract",
              "type": "address"
            },
            {
              "internalType": "uint256",
              "name": "tokenId",
              "type": "uint256"
            },
            {
              "internalType": "address payable",
              "name": "firstOwner",
              "type": "address"
            },
            {
              "internalType": "address payable",
              "name": "seller",
              "type": "address"
            },
            {
              "internalType": "address payable",
              "name": "owner",
              "type": "address"
            },
            {
              "internalType": "uint256",
              "name": "price",
              "type": "uint256"
            },
            {
              "internalType": "bool",
              "name": "listed",
              "type": "bool"
            },
            {
              "internalType": "uint256",
              "name": "royaltyPrice",
              "type": "uint256"
            },
            {
              "internalType": "enum ArtiziaMarketplace.ListingType",
              "name": "listingType",
              "type": "uint8"
            },
            {
              "internalType": "enum ArtiziaMarketplace.PaymentMethod",
              "name": "paymentMethod",
              "type": "uint8"
            }
          ],
          "internalType": "struct ArtiziaMarketplace.NFT[]",
          "name": "",
          "type": "tuple[]"
        }
      ],
      "stateMutability": "view",
      "type": "function"
    },
    {
      "inputs": [
        {
          "internalType": "address",
          "name": "_user",
          "type": "address"
        }
      ],
      "name": "getMyListedNfts",
      "outputs": [
        {
          "components": [
            {
              "internalType": "address",
              "name": "nftContract",
              "type": "address"
            },
            {
              "internalType": "uint256",
              "name": "tokenId",
              "type": "uint256"
            },
            {
              "internalType": "address payable",
              "name": "firstOwner",
              "type": "address"
            },
            {
              "internalType": "address payable",
              "name": "seller",
              "type": "address"
            },
            {
              "internalType": "address payable",
              "name": "owner",
              "type": "address"
            },
            {
              "internalType": "uint256",
              "name": "price",
              "type": "uint256"
            },
            {
              "internalType": "bool",
              "name": "listed",
              "type": "bool"
            },
            {
              "internalType": "uint256",
              "name": "royaltyPrice",
              "type": "uint256"
            },
            {
              "internalType": "enum ArtiziaMarketplace.ListingType",
              "name": "listingType",
              "type": "uint8"
            },
            {
              "internalType": "enum ArtiziaMarketplace.PaymentMethod",
              "name": "paymentMethod",
              "type": "uint8"
            }
          ],
          "internalType": "struct ArtiziaMarketplace.NFT[]",
          "name": "",
          "type": "tuple[]"
        }
      ],
      "stateMutability": "view",
      "type": "function"
    },
    {
      "inputs": [
        {
          "internalType": "address",
          "name": "_user",
          "type": "address"
        }
      ],
      "name": "getMyNfts",
      "outputs": [
        {
          "components": [
            {
              "internalType": "address",
              "name": "nftContract",
              "type": "address"
            },
            {
              "internalType": "uint256",
              "name": "tokenId",
              "type": "uint256"
            },
            {
              "internalType": "address payable",
              "name": "firstOwner",
              "type": "address"
            },
            {
              "internalType": "address payable",
              "name": "seller",
              "type": "address"
            },
            {
              "internalType": "address payable",
              "name": "owner",
              "type": "address"
            },
            {
              "internalType": "uint256",
              "name": "price",
              "type": "uint256"
            },
            {
              "internalType": "bool",
              "name": "listed",
              "type": "bool"
            },
            {
              "internalType": "uint256",
              "name": "royaltyPrice",
              "type": "uint256"
            },
            {
              "internalType": "enum ArtiziaMarketplace.ListingType",
              "name": "listingType",
              "type": "uint8"
            },
            {
              "internalType": "enum ArtiziaMarketplace.PaymentMethod",
              "name": "paymentMethod",
              "type": "uint8"
            }
          ],
          "internalType": "struct ArtiziaMarketplace.NFT[]",
          "name": "",
          "type": "tuple[]"
        }
      ],
      "stateMutability": "view",
      "type": "function"
    },
    {
      "inputs": [
        {
          "internalType": "uint256",
          "name": "_tokenId",
          "type": "uint256"
        }
      ],
      "name": "getStatusOfAuction",
      "outputs": [
        {
          "internalType": "bool",
          "name": "",
          "type": "bool"
        }
      ],
      "stateMutability": "view",
      "type": "function"
    },
    {
      "inputs": [
        {
          "internalType": "address",
          "name": "",
          "type": "address"
        },
        {
          "internalType": "address",
          "name": "",
          "type": "address"
        }
      ],
      "name": "isFan",
      "outputs": [
        {
          "internalType": "bool",
          "name": "",
          "type": "bool"
        }
      ],
      "stateMutability": "view",
      "type": "function"
    },
    {
      "inputs": [
        {
          "internalType": "address",
          "name": "_nftContract",
          "type": "address"
        },
        {
          "internalType": "uint256[]",
          "name": "_tokenId",
          "type": "uint256[]"
        },
        {
          "internalType": "uint256",
          "name": "_price",
          "type": "uint256"
        },
        {
          "internalType": "uint256",
          "name": "_royaltyPrice",
          "type": "uint256"
        },
        {
          "internalType": "uint256",
          "name": "_listingType",
          "type": "uint256"
        },
        {
          "internalType": "uint256",
          "name": "_startTime",
          "type": "uint256"
        },
        {
          "internalType": "uint256",
          "name": "_endTime",
          "type": "uint256"
        },
        {
          "internalType": "uint256",
          "name": "_paymentMethod",
          "type": "uint256"
        }
      ],
      "name": "listNft",
      "outputs": [],
      "stateMutability": "payable",
      "type": "function"
    },
    {
      "inputs": [],
      "name": "owner",
      "outputs": [
        {
          "internalType": "address",
          "name": "",
          "type": "address"
        }
      ],
      "stateMutability": "view",
      "type": "function"
    },
    {
      "inputs": [],
      "name": "removeAllFans",
      "outputs": [],
      "stateMutability": "nonpayable",
      "type": "function"
    },
    {
      "inputs": [
        {
          "internalType": "address",
          "name": "fan",
          "type": "address"
        }
      ],
      "name": "removeFan",
      "outputs": [],
      "stateMutability": "nonpayable",
      "type": "function"
    },
    {
      "inputs": [],
      "name": "renounceOwnership",
      "outputs": [],
      "stateMutability": "nonpayable",
      "type": "function"
    },
    {
      "inputs": [
        {
          "internalType": "address",
          "name": "_nftContract",
          "type": "address"
        },
        {
          "internalType": "uint256",
          "name": "_tokenId",
          "type": "uint256"
        },
        {
          "internalType": "uint256",
          "name": "_price",
          "type": "uint256"
        },
        {
          "internalType": "uint256",
          "name": "_listingType",
          "type": "uint256"
        },
        {
          "internalType": "uint256",
          "name": "_startTime",
          "type": "uint256"
        },
        {
          "internalType": "uint256",
          "name": "_endTime",
          "type": "uint256"
        },
        {
          "internalType": "uint256",
          "name": "_paymentMethod",
          "type": "uint256"
        }
      ],
      "name": "resellNft",
      "outputs": [],
      "stateMutability": "nonpayable",
      "type": "function"
    },
    {
      "inputs": [
        {
          "internalType": "uint256",
          "name": "usdtAmountOut",
          "type": "uint256"
        }
      ],
      "name": "swapETHForUSDT",
      "outputs": [],
      "stateMutability": "payable",
      "type": "function"
    },
    {
      "inputs": [
        {
          "internalType": "uint256",
          "name": "usdtAmountIn",
          "type": "uint256"
        }
      ],
      "name": "swapUSDTForETH",
      "outputs": [],
      "stateMutability": "nonpayable",
      "type": "function"
    },
    {
      "inputs": [
        {
          "internalType": "address",
          "name": "newOwner",
          "type": "address"
        }
      ],
      "name": "transferOwnership",
      "outputs": [],
      "stateMutability": "nonpayable",
      "type": "function"
    },
    {
      "inputs": [
        {
          "internalType": "address",
          "name": "_user",
          "type": "address"
        }
      ],
      "name": "unbanUser",
      "outputs": [],
      "stateMutability": "nonpayable",
      "type": "function"
    },
    {
      "stateMutability": "payable",
      "type": "receive"
    }
  ],
  "bytecode": "0x6080604052600b80546001600160a01b0319908116737a250d5630b4cf539739df2c5dacb4c659f2488d17909155600c805490911673dac17f958d2ee523a2206206994597c13d831ec71790553480156200005957600080fd5b5060405162004dee38038062004dee8339810160408190526200007c9162000120565b60016000556200008c33620000ce565b60048054336001600160a01b031991821617909155600b54600d80546001600160a01b03928316908416179055600e8054909216921691909117905562000152565b600180546001600160a01b038381166001600160a01b0319831681179093556040519116919082907f8be0079c531659141344cd1fd0a4f28419497f9722a3daafe3b4186f6b6457e090600090a35050565b6000602082840312156200013357600080fd5b81516001600160a01b03811681146200014b57600080fd5b9392505050565b614c8c80620001626000396000f3fe6080604052600436106102065760003560e01c80638988d07811610117578063b4fa0412116100a5578063d6cbb2021161006c578063d6cbb202146106dd578063ed5a1c0f146106f4578063f2fde38b1461072f578063f41dfb181461074f578063f6c1b77a1461076257005b8063b4fa04121461055d578063b8b3455d146105ee578063b9e07df114610601578063bbffa07b1461069d578063c1892058146106bd57005b80638da5cb5b116100e95780638da5cb5b146104c75780638f288644146104e557806398dd36bf146105155780639c7440581461052a578063b48deb601461054a57005b80638988d0781461044257806389ec8e1c146104725780638cd410f4146104925780638d6cb3fb146104b257005b80635674c2e611610194578063715018a611610166578063715018a61461039257806377ec6a47146103a757806379b36943146103d75780638090551e1461040f5780638110c5791461042257005b80635674c2e614610327578063572e2afe1461034c5780635c60f2261461035f5780636f9fb98a1461037f57005b80633b295cb0116101d85780633b295cb01461029f578063438364a1146102b45780634c070fe7146102c75780634d12b695146102da5780635274cff6146102fa57005b80630760943e1461020f57806310d86b1f1461023a57806331824a491461025a57806331a7a70f1461027f57005b3661020d57005b005b34801561021b57600080fd5b50610224610782565b604051610231919061416a565b60405180910390f35b34801561024657600080fd5b5061020d610255366004614192565b610827565b34801561026657600080fd5b506002546102719081565b604051908152602001610231565b34801561028b57600080fd5b5061020d61029a36600461421a565b610853565b3480156102ab57600080fd5b5061020d6109ee565b61020d6102c23660046142b9565b610a8f565b61020d6102d53660046142e5565b6111f3565b3480156102e657600080fd5b5061020d6102f5366004614192565b6117a5565b34801561030657600080fd5b5061031a610315366004614192565b6117ce565b604051610231919061435a565b34801561033357600080fd5b5061033c611a8a565b6040519015158152602001610231565b61020d61035a366004614427565b611ac8565b34801561036b57600080fd5b5061020d61037a366004614192565b611f87565b34801561038b57600080fd5b5047610271565b34801561039e57600080fd5b5061020d611fb3565b3480156103b357600080fd5b5061033c6103c2366004614192565b600a6020526000908152604090205460ff1681565b3480156103e357600080fd5b50600b546103f7906001600160a01b031681565b6040516001600160a01b039091168152602001610231565b61020d61041d36600461445c565b611fc7565b34801561042e57600080fd5b5061020d61043d366004614475565b612214565b34801561044e57600080fd5b5061033c61045d366004614192565b60096020526000908152604090205460ff1681565b34801561047e57600080fd5b5061020d61048d366004614192565b612597565b34801561049e57600080fd5b5061020d6104ad36600461445c565b612795565b3480156104be57600080fd5b5061031a612b5b565b3480156104d357600080fd5b506001546001600160a01b03166103f7565b3480156104f157600080fd5b5061027161050036600461445c565b60009081526006602052604090206005015490565b34801561052157600080fd5b50610271612dec565b34801561053657600080fd5b5061033c61054536600461445c565b612eca565b61020d6105583660046144ca565b612f0f565b34801561056957600080fd5b506105d961057836600461445c565b6006602081905260009182526040909120805460018201546002830154600384015460048501546005860154959096015493956001600160a01b0393841695929491939092919081169060ff600160a01b8204811691600160a81b90041689565b604051610231999897969594939291906145a3565b61020d6105fc366004614602565b6135d9565b34801561060d57600080fd5b5061068761061c36600461445c565b60056020819052600091825260409091208054600182015460028301546003840154600485015495850154600686015460078701546008909701546001600160a01b03968716989597948716969384169590931693919260ff9182169291818116916101009004168a565b6040516102319a9998979695949392919061462e565b3480156106a957600080fd5b506103f76106b83660046142b9565b6138ca565b3480156106c957600080fd5b50600c546103f7906001600160a01b031681565b3480156106e957600080fd5b506003546102719081565b34801561070057600080fd5b5061033c61070f36600461469f565b600760209081526000928352604080842090915290825290205460ff1681565b34801561073b57600080fd5b5061020d61074a366004614192565b613902565b61020d61075d3660046146d8565b613978565b34801561076e57600080fd5b5061031a61077d366004614192565b613c1d565b336000908152600a602052604090205460609060ff16156107be5760405162461bcd60e51b81526004016107b5906146fa565b60405180910390fd5b336000908152600860209081526040918290208054835181840281018401909452808452909183018282801561081d57602002820191906000526020600020905b81546001600160a01b031681526001909101906020018083116107ff575b5050505050905090565b61082f613e62565b6001600160a01b03166000908152600960205260409020805460ff19166001179055565b336000908152600a602052604090205460ff16156108835760405162461bcd60e51b81526004016107b5906146fa565b60005b81518110156109ea5760008282815181106108a3576108a361476a565b6020026020010151905060006001600160a01b0316816001600160a01b031614156109065760405162461bcd60e51b8152602060048201526013602482015272496e76616c69642066616e206164647265737360681b60448201526064016107b5565b3360009081526007602090815260408083206001600160a01b038516845290915290205460ff161561097a5760405162461bcd60e51b815260206004820152601860248201527f4164647265737320697320616c726561647920612066616e000000000000000060448201526064016107b5565b3360008181526008602090815260408083208054600180820183559185528385200180546001600160a01b0319166001600160a01b039790971696871790559383526007825280832094835293905291909120805460ff19169091179055806109e281614796565b915050610886565b5050565b336000908152600860205260408120905b8154811015610a735733600090815260076020526040812083548290859085908110610a2d57610a2d61476a565b6000918252602080832091909101546001600160a01b031683528201929092526040019020805460ff191691151591909117905580610a6b81614796565b9150506109ff565b50336000908152600860205260408120610a8c9161409c565b50565b6000818152600660205260409020600401544211610aeb5760405162461bcd60e51b8152602060048201526019602482015278105d58dd1a5bdb881a185cc81b9bdd08195b991959081e595d603a1b60448201526064016107b5565b600081815260066020819052604090912001546001600160a01b0316610b4f5760405162461bcd60e51b8152602060048201526019602482015278105d58dd1a5bdb881a185cc81b9bdd08195b991959081e595d603a1b60448201526064016107b5565b60008181526005602090815260408083206006928390529220908101546001600160a01b0316610cbd57600181810154908301546040516323b872dd60e01b81526001600160a01b03878116936323b872dd93610bb4933093909216916004016147b1565b600060405180830381600087803b158015610bce57600080fd5b505af1158015610be2573d6000803e3d6000fd5b50505060038301546004840180546001600160a01b0319166001600160a01b039283161790556006808401805460ff60a81b19169055808501805460ff19169055600086815260208290526040902001541615159050610cbd5760405162461bcd60e51b815260206004820152604a60248201527f4e6f7468696e6720746f20636c61696d2e20596f75206861766520676f74203060448201527f2062696473206f6e20796f75722061756374696f6e2e2052657475726e696e67606482015269103cb7bab91027232a1760b11b608482015260a4016107b5565b6006808201805460ff60a81b19168155908301805460ff19169055600582015490546004840180546001600160a01b0319166001600160a01b0390921691909117905560009081908190816008870154610100900460ff166002811115610d2657610d26614320565b1415610e935760016006860154600160a01b900460ff166002811115610d4e57610d4e614320565b1415610d75576000610d5e612dec565b610d6890836147d5565b9050610d7381612795565b505b600286015460048701546001600160a01b0390811691161415610de857610d9b81613ebc565b610da590826147f7565b60038701546040519193506001600160a01b03169083156108fc029084906000818181858888f19350505050158015610de2573d6000803e3d6000fd5b50611113565b610dfa85600501548760070154613ed5565b9350610e0581613ebc565b610e0f85836147f7565b610e1991906147f7565b60028701546040519193506001600160a01b03169085156108fc029086906000818181858888f19350505050158015610e56573d6000803e3d6000fd5b5060038601546040516001600160a01b039091169083156108fc029084906000818181858888f19350505050158015610de2573d6000803e3d6000fd5b60016008870154610100900460ff166002811115610eb357610eb3614320565b14156111135760006006860154600160a01b900460ff166002811115610edb57610edb614320565b1415610f03576000610eeb612dec565b610ef590836147d5565b9050610f0082611fc7565b90505b600286015460048701546001600160a01b039081169116141561100a57600e546040516323b872dd60e01b81526001600160a01b03909116906323b872dd90610f54903390309086906004016147b1565b600060405180830381600087803b158015610f6e57600080fd5b505af1158015610f82573d6000803e3d6000fd5b50505050610f8f81613ebc565b610f9990826147f7565b600e54600388015460405163a9059cbb60e01b81529294506001600160a01b039182169263a9059cbb92610fd3921690869060040161480e565b600060405180830381600087803b158015610fed57600080fd5b505af1158015611001573d6000803e3d6000fd5b50505050611113565b61101c85600501548760070154613ed5565b935061102781613ebc565b61103185836147f7565b61103b91906147f7565b600e54600388015460405163a9059cbb60e01b81529294506001600160a01b039182169263a9059cbb92611075921690869060040161480e565b600060405180830381600087803b15801561108f57600080fd5b505af11580156110a3573d6000803e3d6000fd5b5050600e54600289015460405163a9059cbb60e01b81526001600160a01b03928316945063a9059cbb93506110e09290911690889060040161480e565b600060405180830381600087803b1580156110fa57600080fd5b505af115801561110e573d6000803e3d6000fd5b505050505b600685015460018701546040516323b872dd60e01b81526001600160a01b038b8116936323b872dd9361114e933093909216916004016147b1565b600060405180830381600087803b15801561116857600080fd5b505af115801561117c573d6000803e3d6000fd5b5050505061118e600280546001019055565b6001860154600387015460068701546040517f16f1dbd97e6bf646d429ed186cce832f1f7fd9907814293b83181e9970ab7bd2936111e1938d9391926001600160a01b0391821692909116908990614827565b60405180910390a15050505050505050565b3360009081526009602052604090205460ff16156112235760405162461bcd60e51b81526004016107b59061485a565b336000908152600a602052604090205460ff16156112535760405162461bcd60e51b81526004016107b5906146fa565b61125b613ef4565b600082815260056020526040812090611272612dec565b61127c90846147d5565b60048301546001600160a01b031660009081526009602052604090205490915060ff16156112bc5760405162461bcd60e51b81526004016107b59061488f565b60048201546001600160a01b03166000908152600a602052604090205460ff16156112f95760405162461bcd60e51b81526004016107b5906148e5565b808260050154101561133a5760405162461bcd60e51b815260206004820152600a60248201526953656e64206d6f72652160b01b60448201526064016107b5565b600282015460048301546000913391839182916001600160a01b03908116911614156114bc57600e546040516323b872dd60e01b81526001600160a01b03909116906323b872dd9061139490339030908c906004016147b1565b600060405180830381600087803b1580156113ae57600080fd5b505af11580156113c2573d6000803e3d6000fd5b505050506113cf87613ebc565b6113d990886147f7565b9050886001141561145757600e54600387015460405163a9059cbb60e01b81526001600160a01b039283169263a9059cbb9261141c92911690859060040161480e565b600060405180830381600087803b15801561143657600080fd5b505af115801561144a573d6000803e3d6000fd5b505050506001935061169e565b61146081612795565b600061146a612dec565b61147490836147d5565b60038801546040519192506001600160a01b03169082156108fc029083906000818181858888f193505050501580156114b1573d6000803e3d6000fd5b50600194505061169e565b60006114cc888860070154613ed5565b90506114d881896147f7565b92506114e383613ebc565b6114ed90896147f7565b600e546040516323b872dd60e01b81529193506001600160a01b0316906323b872dd9061152290339030908d906004016147b1565b600060405180830381600087803b15801561153c57600080fd5b505af1158015611550573d6000803e3d6000fd5b5050600e5460028a015460405163a9059cbb60e01b81526001600160a01b03928316945063a9059cbb935061158d9290911690859060040161480e565b600060405180830381600087803b1580156115a757600080fd5b505af11580156115bb573d6000803e3d6000fd5b50505050896001141561163b57600e54600388015460405163a9059cbb60e01b81526001600160a01b039283169263a9059cbb9261160092911690869060040161480e565b600060405180830381600087803b15801561161a57600080fd5b505af115801561162e573d6000803e3d6000fd5b505050506001945061169c565b61164482612795565b600061164e612dec565b61165890846147d5565b60038901546040519192506001600160a01b03169082156108fc029083906000818181858888f19350505050158015611695573d6000803e3d6000fd5b5060019550505b505b831561178f5760018601546040516323b872dd60e01b81526001600160a01b038c16916323b872dd916116d89130918891906004016147b1565b600060405180830381600087803b1580156116f257600080fd5b505af1158015611706573d6000803e3d6000fd5b505050506004860180546001600160a01b0319166001600160a01b03851617905560068601805460ff19169055600280546001019055600186015460038701546040517f16f1dbd97e6bf646d429ed186cce832f1f7fd9907814293b83181e9970ab7bd292611786928e926001600160a01b039091169088908890614827565b60405180910390a15b50505050505061179f6001600055565b50505050565b6117ad613e62565b6001600160a01b03166000908152600960205260409020805460ff19169055565b336000908152600a602052604090205460609060ff16156118015760405162461bcd60e51b81526004016107b5906146fa565b3360009081526009602052604090205460ff16156118315760405162461bcd60e51b81526004016107b59061485a565b600061183c60035490565b90506000805b828110156118ac576000818152600560205260409020600301546001600160a01b038681169116148015611887575060008181526005602052604090206006015460ff165b1561189a578161189681614796565b9250505b806118a481614796565b915050611842565b5060008167ffffffffffffffff8111156118c8576118c86141af565b60405190808252806020026020018201604052801561190157816020015b6118ee6140ba565b8152602001906001900390816118e65790505b5090506000805b84811015611a7d576000818152600560205260409020600301546001600160a01b03888116911614801561194d575060008181526005602052604090206006015460ff165b15611a6b5760008181526005602081815260409283902083516101408101855281546001600160a01b039081168252600180840154948301949094526002830154811695820195909552600382015485166060820152600482015490941660808501529182015460a0840152600682015460ff908116151560c0850152600783015460e085015260088301546101008501929116908111156119f1576119f1614320565b6001811115611a0257611a02614320565b81526020016008820160019054906101000a900460ff166002811115611a2a57611a2a614320565b6002811115611a3b57611a3b614320565b81525050838381518110611a5157611a5161476a565b60200260200101819052508180611a6790614796565b9250505b80611a7581614796565b915050611908565b509093505050505b919050565b3360009081526009602052604081205460ff1680611ab75750336000908152600a602052604090205460ff165b15611ac25750600190565b50600090565b3360009081526009602052604090205460ff1615611af85760405162461bcd60e51b81526004016107b59061485a565b336000908152600a602052604090205460ff1615611b285760405162461bcd60e51b81526004016107b5906146fa565b611b30613ef4565b600081815260056020908152604080832060048101546001600160a01b0316845260099092529091205460ff1615611b7a5760405162461bcd60e51b81526004016107b59061488f565b60048101546001600160a01b03166000908152600a602052604090205460ff1615611bb75760405162461bcd60e51b81526004016107b5906148e5565b8060050154341015611c1a5760405162461bcd60e51b815260206004820152602660248201527f4e6f7420656e6f75676820657468657220746f20636f7665722061736b696e6760448201526520707269636560d01b60648201526084016107b5565b600281015460048201546000913391839182916001600160a01b0390811691161415611d3357611c4934613ebc565b611c5390346147f7565b905086611ca05760038501546040516001600160a01b039091169082156108fc029083906000818181858888f19350505050158015611c96573d6000803e3d6000fd5b5060019350611e82565b611ca981611fc7565b6000611cb3612dec565b611cbd9083614942565b600e54600388015460405163a9059cbb60e01b81529293506001600160a01b039182169263a9059cbb92611cf7921690859060040161480e565b600060405180830381600087803b158015611d1157600080fd5b505af1158015611d25573d6000803e3d6000fd5b505050506001945050611e82565b60003490506000611d48828860070154613ed5565b9050611d5382613ebc565b611d5d82846147f7565b611d6791906147f7565b60028801546040519194506001600160a01b03169082156108fc029083906000818181858888f19350505050158015611da4573d6000803e3d6000fd5b5088611df05760038701546040516001600160a01b039091169084156108fc029085906000818181858888f19350505050158015611de6573d6000803e3d6000fd5b5060019550611e7f565b611df983611fc7565b6000611e03612dec565b611e0d9085614942565b600e5460038a015460405163a9059cbb60e01b81529293506001600160a01b039182169263a9059cbb92611e47921690859060040161480e565b600060405180830381600087803b158015611e6157600080fd5b505af1158015611e75573d6000803e3d6000fd5b5050505060019650505b50505b8315611f735760018501546040516323b872dd60e01b81526001600160a01b038a16916323b872dd91611ebc9130918891906004016147b1565b600060405180830381600087803b158015611ed657600080fd5b505af1158015611eea573d6000803e3d6000fd5b505050506004850180546001600160a01b0319166001600160a01b03851617905560068501805460ff19169055600280546001019055600185015460038601546040517f16f1dbd97e6bf646d429ed186cce832f1f7fd9907814293b83181e9970ab7bd292611f6a928c926001600160a01b039091169088908890614827565b60405180910390a15b5050505050611f826001600055565b505050565b611f8f613e62565b6001600160a01b03166000908152600a60205260409020805460ff19166001179055565b611fbb613e62565b611fc56000613f4e565b565b6040805160028082526060820183526000926020830190803683375050600d54604080516315ab88c960e31b815290519394506001600160a01b039091169263ad5c464892506004808301926020929190829003018186803b15801561202c57600080fd5b505afa158015612040573d6000803e3d6000fd5b505050506040513d601f19601f820116820180604052508101906120649190614961565b816000815181106120775761207761476a565b6001600160a01b039283166020918202929092010152600c548251911690829060019081106120a8576120a861476a565b6001600160a01b039290921660209283029190910182015260408051600280825260608201835260009391929091830190803683375050600d5460405163d06ca61f60e01b81529293506001600160a01b03169163d06ca61f9150612113908690869060040161497e565b60006040518083038186803b15801561212b57600080fd5b505afa15801561213f573d6000803e3d6000fd5b505050506040513d6000823e601f3d908101601f19168201604052612167919081019061499f565b600d5481519192506001600160a01b031690637ff36ab5903490849060019081106121945761219461476a565b60200260200101518530426040518663ffffffff1660e01b81526004016121be9493929190614a25565b6000604051808303818588803b1580156121d757600080fd5b505af11580156121eb573d6000803e3d6000fd5b50505050506040513d6000823e601f3d908101601f1916820160405261179f919081019061499f565b3360009081526009602052604090205460ff16156122445760405162461bcd60e51b81526004016107b59061485a565b336000908152600a602052604090205460ff16156122745760405162461bcd60e51b81526004016107b5906146fa565b61227c613ef4565b600085116122cc5760405162461bcd60e51b815260206004820152601c60248201527f5072696365206d757374206265206174206c656173742031207765690000000060448201526064016107b5565b6040516323b872dd60e01b81526001600160a01b038816906323b872dd906122fc90339030908b906004016147b1565b600060405180830381600087803b15801561231657600080fd5b505af115801561232a573d6000803e3d6000fd5b50505060008781526005602081905260409091206003810180546001600160a01b031990811633179091556004820180549091163017905590810187905560068101805460ff19166001908117909155909150859081111561238e5761238e614320565b60088201805460ff1916600183818111156123ab576123ab614320565b02179055508160028111156123c2576123c2614320565b60088201805461ff0019166101008360028111156123e2576123e2614320565b0217905550600185141561253a57604051806101200160405280888152602001336001600160a01b031681526020018781526020018581526020018481526020016000815260200160006001600160a01b0316815260200183600281111561244c5761244c614320565b600281111561245d5761245d614320565b815260006020918201819052898152600680835260409182902084518155928401516001840180546001600160a01b039283166001600160a01b03199182161790915592850151600280860191909155606086015160038601556080860151600486015560a0860151600586015560c08601519285018054939092169383168417825560e08601519391926001600160a81b03191690911790600160a01b90849081111561250d5761250d614320565b0217905550610100919091015160069091018054911515600160a81b0260ff60a81b199092169190911790555b6125446002613fa0565b7fa0c6c0d02d86fdacecbaa5fdf5894bab204e31a778250474108540733a9b8d19888833308a60405161257b959493929190614827565b60405180910390a15061258e6001600055565b50505050505050565b6001600160a01b0381166125e35760405162461bcd60e51b8152602060048201526013602482015272496e76616c69642066616e206164647265737360681b60448201526064016107b5565b3360009081526007602090815260408083206001600160a01b038516845290915290205460ff1661264d5760405162461bcd60e51b815260206004820152601460248201527320b2323932b9b99034b9903737ba1030903330b760611b60448201526064016107b5565b336000908152600860205260408120905b815481101561276557826001600160a01b03168282815481106126835761268361476a565b6000918252602090912001546001600160a01b0316141561275357815482906126ae906001906147f7565b815481106126be576126be61476a565b9060005260206000200160009054906101000a90046001600160a01b03168282815481106126ee576126ee61476a565b9060005260206000200160006101000a8154816001600160a01b0302191690836001600160a01b031602179055508180548061272c5761272c614a5a565b600082815260209020810160001990810180546001600160a01b0319169055019055612765565b8061275d81614796565b91505061265e565b50503360009081526007602090815260408083206001600160a01b0394909416835292905220805460ff19169055565b6127bd60405180604001604052806006815260200165746573743d3160d01b81525082613ff7565b6040805160028082526060820183526000926020830190803683375050600c5482519293506001600160a01b0316918391506000906127fe576127fe61476a565b6001600160a01b03928316602091820292909201810191909152600d54604080516315ab88c960e31b81529051919093169263ad5c4648926004808301939192829003018186803b15801561285257600080fd5b505afa158015612866573d6000803e3d6000fd5b505050506040513d601f19601f8201168201806040525081019061288a9190614961565b8160018151811061289d5761289d61476a565b6001600160a01b039283166020918202929092010152600e546040516323b872dd60e01b81529116906323b872dd906128de903390309087906004016147b1565b600060405180830381600087803b1580156128f857600080fd5b505af115801561290c573d6000803e3d6000fd5b5050600e54600b5460405163095ea7b360e01b81526001600160a01b03928316945063095ea7b393506129479290911690869060040161480e565b600060405180830381600087803b15801561296157600080fd5b505af1158015612975573d6000803e3d6000fd5b5050505061299f60405180604001604052806005815260200164746573743360d81b81525061403c565b6040805160028082526060820183526000926020830190803683375050600d5460405163d06ca61f60e01b81529293506001600160a01b03169163d06ca61f91506129f0908690869060040161497e565b60006040518083038186803b158015612a0857600080fd5b505afa158015612a1c573d6000803e3d6000fd5b505050506040513d6000823e601f3d908101601f19168201604052612a44919081019061499f565b9050612a8860405180604001604052806006815260200165185b5bdd5b9d60d21b81525082600181518110612a7b57612a7b61476a565b6020026020010151613ff7565b600d5481516001600160a01b0390911690634a25d94a9083906001908110612ab257612ab261476a565b6020026020010151858530426040518663ffffffff1660e01b8152600401612ade959493929190614a70565b600060405180830381600087803b158015612af857600080fd5b505af1158015612b0c573d6000803e3d6000fd5b505050506040513d6000823e601f3d908101601f19168201604052612b34919081019061499f565b50611f82604051806040016040528060058152602001641d195cdd0d60da1b81525061403c565b336000908152600a602052604090205460609060ff1615612b8e5760405162461bcd60e51b81526004016107b5906146fa565b6000612b9960035490565b90506000612ba660025490565b612bb090836147f7565b9050612bdc604051806040016040528060088152602001671b999d10dbdd5b9d60c21b81525083613ff7565b612c0d6040518060400160405280600f81526020016e1d5b9cdbdb1913999d1cd0dbdd5b9d608a1b81525082613ff7565b60008167ffffffffffffffff811115612c2857612c286141af565b604051908082528060200260200182016040528015612c6157816020015b612c4e6140ba565b815260200190600190039081612c465790505b5090506000612c926040518060400160405280600b81526020016a5f6964546f4e46545b695d60a81b81525061403c565b60005b84811015612de25760008181526005602052604090206006015460ff1615612dd05760008181526005602081815260409283902083516101408101855281546001600160a01b039081168252600180840154948301949094526002830154811695820195909552600382015485166060820152600482015490941660808501529182015460a0840152600682015460ff908116151560c0850152600783015460e08501526008830154610100850192911690811115612d5657612d56614320565b6001811115612d6757612d67614320565b81526020016008820160019054906101000a900460ff166002811115612d8f57612d8f614320565b6002811115612da057612da0614320565b81525050838381518110612db657612db661476a565b60200260200101819052508180612dcc90614796565b9250505b80612dda81614796565b915050612c95565b5090935050505090565b60008073ee9f2375b4bdf6387aa8265dd4fb8f16512a1d4690506000816001600160a01b031663feaf968c6040518163ffffffff1660e01b815260040160a06040518083038186803b158015612e4157600080fd5b505afa158015612e55573d6000803e3d6000fd5b505050506040513d601f19601f82011682018060405250810190612e799190614ac6565b50505091505060008113612ec45760405162461bcd60e51b8152602060048201526012602482015271496e76616c6964205553445420707269636560701b60448201526064016107b5565b92915050565b60008181526006602052604081206003015442118015612efa575060008281526006602052604090206004015442105b15612f0757506001919050565b506000919050565b612f17613ef4565b3360009081526009602052604090205460ff1615612f475760405162461bcd60e51b81526004016107b59061485a565b336000908152600a602052604090205460ff1615612f775760405162461bcd60e51b81526004016107b5906146fa565b60005b87518110156135c457612fba6040518060400160405280600981526020016874686973206973203160b81b815250898381518110612a7b57612a7b61476a565b612fe86040518060400160405280600c81526020016b5f6c697374696e675479706560a01b81525086613ff7565b60408051808201909152601c81527f75696e74323536284c697374696e67547970652e41756374696f6e29000000006020820152613027906001613ff7565b6001851115613049576040516317142a4d60e01b815260040160405180910390fd5b6130826040518060400160405280600b81526020016a5f746f6b656e49645b695d60a81b815250898381518110612a7b57612a7b61476a565b886001600160a01b03166323b872dd33308b85815181106130a5576130a561476a565b60200260200101516040518463ffffffff1660e01b81526004016130cb939291906147b1565b600060405180830381600087803b1580156130e557600080fd5b505af11580156130f9573d6000803e3d6000fd5b50505050613127604051806040016040528060098152602001683a3434b99034b9901960b91b81525061403c565b613135600380546001019055565b61315f604051806040016040528060098152602001681d1a1a5cc81a5cc80d60ba1b81525061403c565b6040518061014001604052808a6001600160a01b0316815260200189838151811061318c5761318c61476a565b60200260200101518152602001336001600160a01b03168152602001336001600160a01b03168152602001306001600160a01b031681526020018881526020016001151581526020018781526020018660018111156131ed576131ed614320565b60018111156131fe576131fe614320565b815260200183600281111561321557613215614320565b600281111561322657613226614320565b815250600560008a848151811061323f5761323f61476a565b6020908102919091018101518252818101929092526040908101600020835181546001600160a01b03199081166001600160a01b039283161783559385015160018084019190915592850151600283018054861691831691909117905560608501516003830180548616918316919091179055608085015160048301805490951691161790925560a0830151600583015560c083015160068301805460ff1990811692151592909217905560e08401516007840155610100840151600884018054919390929190911690838181111561331a5761331a614320565b021790555061012082015160088201805461ff00191661010083600281111561334557613345614320565b02179055509050506133776040518060400160405280600981526020016874686973206973203560b81b81525061403c565b6001851415613530576133aa604051806040016040528060098152602001683a3434b99034b9901b60b91b81525061403c565b6040518061012001604052808983815181106133c8576133c861476a565b60200260200101518152602001336001600160a01b031681526020018881526020018581526020018481526020016000815260200160006001600160a01b0316815260200183600281111561341f5761341f614320565b600281111561343057613430614320565b815260200160001515815250600660008a84815181106134525761345261476a565b602090810291909101810151825281810192909252604090810160002083518155918301516001830180546001600160a01b03199081166001600160a01b039384161790915591840151600280850191909155606085015160038501556080850151600485015560a0850151600585015560c085015160068501805494851691909316908117835560e0860151936001600160a81b0319161790600160a01b90849081111561350357613503614320565b0217905550610100919091015160069091018054911515600160a81b0260ff60a81b199092169190911790555b61355a6040518060400160405280600981526020016874686973206973203760b81b81525061403c565b7fa0c6c0d02d86fdacecbaa5fdf5894bab204e31a778250474108540733a9b8d198989838151811061358e5761358e61476a565b602002602001015133308b6040516135aa959493929190614827565b60405180910390a1806135bc81614796565b915050612f7a565b506135cf6001600055565b5050505050505050565b600083815260066020819052604090912001548390600160a81b900460ff166136145760405162461bcd60e51b81526004016107b590614b16565b60008181526006602052604090206003015442118015613644575060008181526006602052604090206004015442105b6136605760405162461bcd60e51b81526004016107b590614b16565b336000908152600a602052604090205460ff16156136905760405162461bcd60e51b81526004016107b5906146fa565b3360009081526009602052604090205460ff16156136c05760405162461bcd60e51b81526004016107b59061485a565b60006136ca612dec565b905060006136d882866147d5565b60008781526006602052604090206002015490915081101561373c5760405162461bcd60e51b815260206004820152601c60248201527f4d696e696d756d206269642068617320746f206265206869676865720000000060448201526064016107b5565b60008681526006602052604090206005015485101561376d5760405162461bcd60e51b81526004016107b590614b5f565b60008681526006602081905260409091209081015460058201546001600160a01b039091169081156137fe57600e5460405163a9059cbb60e01b81526001600160a01b039091169063a9059cbb906137cb908590859060040161480e565b600060405180830381600087803b1580156137e557600080fd5b505af11580156137f9573d6000803e3d6000fd5b505050505b600583018490556006830180546001600160a01b0319163317905586600281111561382b5761382b614320565b60068401805460ff60a01b1916600160a01b83600281111561384f5761384f614320565b021790555061386042610258614bbc565b836004015410156138bf5761012c8360040160008282546138819190614bbc565b909155505060048301546040519081527f63929ab50521717a96992aeaa109afc8cfc926d99096bbeaf23ee4322db546e89060200160405180910390a15b505050505050505050565b600860205281600052604060002081815481106138e657600080fd5b6000918252602090912001546001600160a01b03169150829050565b61390a613e62565b6001600160a01b03811661396f5760405162461bcd60e51b815260206004820152602660248201527f4f776e61626c653a206e6577206f776e657220697320746865207a65726f206160448201526564647265737360d01b60648201526084016107b5565b610a8c81613f4e565b600082815260066020819052604090912001548290600160a81b900460ff166139b35760405162461bcd60e51b81526004016107b590614b16565b600081815260066020526040902060030154421180156139e3575060008181526006602052604090206004015442105b6139ff5760405162461bcd60e51b81526004016107b590614b16565b336000908152600a602052604090205460ff1615613a2f5760405162461bcd60e51b81526004016107b5906146fa565b3360009081526009602052604090205460ff1615613a5f5760405162461bcd60e51b81526004016107b59061485a565b600083815260066020526040902060020154341015613ac05760405162461bcd60e51b815260206004820152601c60248201527f4d696e696d756d206269642068617320746f206265206869676865720000000060448201526064016107b5565b600083815260066020526040902060050154341015613af15760405162461bcd60e51b81526004016107b590614b5f565b60008381526006602081905260409091209081015460058201546001600160a01b03909116908115613b55576040516001600160a01b0383169082156108fc029083906000818181858888f19350505050158015613b53573d6000803e3d6000fd5b505b3460058401556006830180546001600160a01b03191633179055846002811115613b8157613b81614320565b60068401805460ff60a01b1916600160a01b836002811115613ba557613ba5614320565b0217905550613bb642610258614bbc565b83600401541015613c155761012c836004016000828254613bd79190614bbc565b909155505060048301546040519081527f63929ab50521717a96992aeaa109afc8cfc926d99096bbeaf23ee4322db546e89060200160405180910390a15b505050505050565b336000908152600a602052604090205460609060ff1615613c505760405162461bcd60e51b81526004016107b5906146fa565b6000613c5b60035490565b90506000805b82811015613cae576000818152600560205260409020600401546001600160a01b0386811691161415613c9c5781613c9881614796565b9250505b80613ca681614796565b915050613c61565b5060008167ffffffffffffffff811115613cca57613cca6141af565b604051908082528060200260200182016040528015613d0357816020015b613cf06140ba565b815260200190600190039081613ce85790505b5090506000805b84811015611a7d576000818152600560205260409020600401546001600160a01b0388811691161415613e505760008181526005602081815260409283902083516101408101855281546001600160a01b039081168252600180840154948301949094526002830154811695820195909552600382015485166060820152600482015490941660808501529182015460a0840152600682015460ff908116151560c0850152600783015460e08501526008830154610100850192911690811115613dd657613dd6614320565b6001811115613de757613de7614320565b81526020016008820160019054906101000a900460ff166002811115613e0f57613e0f614320565b6002811115613e2057613e20614320565b81525050838381518110613e3657613e3661476a565b60200260200101819052508180613e4c90614796565b9250505b80613e5a81614796565b915050613d0a565b6001546001600160a01b03163314611fc55760405162461bcd60e51b815260206004820181905260248201527f4f776e61626c653a2063616c6c6572206973206e6f7420746865206f776e657260448201526064016107b5565b60006064613ecb836003614942565b612ec491906147d5565b60006064613ee38385614942565b613eed91906147d5565b9392505050565b60026000541415613f475760405162461bcd60e51b815260206004820152601f60248201527f5265656e7472616e637947756172643a207265656e7472616e742063616c6c0060448201526064016107b5565b6002600055565b600180546001600160a01b038381166001600160a01b0319831681179093556040519116919082907f8be0079c531659141344cd1fd0a4f28419497f9722a3daafe3b4186f6b6457e090600090a35050565b805480613fef5760405162461bcd60e51b815260206004820152601b60248201527f436f756e7465723a2064656372656d656e74206f766572666c6f77000000000060448201526064016107b5565b600019019055565b6109ea828260405160240161400d929190614c21565b60408051601f198184030181529190526020810180516001600160e01b0316632d839cb360e21b17905261407b565b610a8c816040516024016140509190614c43565b60408051601f198184030181529190526020810180516001600160e01b031663104c13eb60e21b1790525b80516a636f6e736f6c652e6c6f67602083016000808483855afa5050505050565b5080546000825590600052602060002090810190610a8c919061410d565b6040805161014081018252600080825260208201819052918101829052606081018290526080810182905260a0810182905260c0810182905260e081018290529061010082019081526020016000905290565b5b80821115614122576000815560010161410e565b5090565b600081518084526020808501945080840160005b8381101561415f5781516001600160a01b03168752958201959082019060010161413a565b509495945050505050565b602081526000613eed6020830184614126565b6001600160a01b0381168114610a8c57600080fd5b6000602082840312156141a457600080fd5b8135613eed8161417d565b634e487b7160e01b600052604160045260246000fd5b604051601f8201601f1916810167ffffffffffffffff811182821017156141ee576141ee6141af565b604052919050565b600067ffffffffffffffff821115614210576142106141af565b5060051b60200190565b6000602080838503121561422d57600080fd5b823567ffffffffffffffff81111561424457600080fd5b8301601f8101851361425557600080fd5b8035614268614263826141f6565b6141c5565b81815260059190911b8201830190838101908783111561428757600080fd5b928401925b828410156142ae57833561429f8161417d565b8252928401929084019061428c565b979650505050505050565b600080604083850312156142cc57600080fd5b82356142d78161417d565b946020939093013593505050565b600080600080608085870312156142fb57600080fd5b84356143068161417d565b966020860135965060408601359560600135945092505050565b634e487b7160e01b600052602160045260246000fd5b6002811061434657614346614320565b9052565b6003811061434657614346614320565b602080825282518282018190526000919060409081850190868401855b8281101561441a57815180516001600160a01b0390811686528782015188870152868201518116878701526060808301518216908701526080808301519091169086015260a0808201519086015260c08082015115159086015260e08082015190860152610100808201516143ee82880182614336565b505061012090810151906144048682018361434a565b5050610140939093019290850190600101614377565b5091979650505050505050565b60008060006060848603121561443c57600080fd5b83356144478161417d565b95602085013595506040909401359392505050565b60006020828403121561446e57600080fd5b5035919050565b600080600080600080600060e0888a03121561449057600080fd5b873561449b8161417d565b9960208901359950604089013598606081013598506080810135975060a0810135965060c00135945092505050565b600080600080600080600080610100898b0312156144e757600080fd5b88356144f28161417d565b975060208981013567ffffffffffffffff81111561450f57600080fd5b8a01601f81018c1361452057600080fd5b803561452e614263826141f6565b81815260059190911b8201830190838101908e83111561454d57600080fd5b928401925b8284101561456b57833582529284019290840190614552565b9b9e9b9d5050505060408a0135996060810135996080820135995060a0820135985060c0820135975060e09091013595509350505050565b8981526001600160a01b03898116602083015260408201899052606082018890526080820187905260a08201869052841660c082015261012081016145eb60e083018561434a565b8215156101008301529a9950505050505050505050565b60008060006060848603121561461757600080fd5b505081359360208301359350604090920135919050565b6001600160a01b038b81168252602082018b9052898116604083015288811660608301528716608082015260a0810186905284151560c082015260e081018490526101408101614682610100830185614336565b61469061012083018461434a565b9b9a5050505050505050505050565b600080604083850312156146b257600080fd5b82356146bd8161417d565b915060208301356146cd8161417d565b809150509250929050565b600080604083850312156146eb57600080fd5b50508035926020909101359150565b6020808252604a908201527f596f7520617265207065726d656e616e746c792064656c657465642066726f6d60408201527f207468697320706c6174666f726d20666f722076696f6c6174696e6720746865606082015269103837b634b1b4b2b99760b11b608082015260a00190565b634e487b7160e01b600052603260045260246000fd5b634e487b7160e01b600052601160045260246000fd5b60006000198214156147aa576147aa614780565b5060010190565b6001600160a01b039384168152919092166020820152604081019190915260600190565b6000826147f257634e487b7160e01b600052601260045260246000fd5b500490565b60008282101561480957614809614780565b500390565b6001600160a01b03929092168252602082015260400190565b6001600160a01b039586168152602081019490945291841660408401529092166060820152608081019190915260a00190565b6020808252818101527f596f75206172652062616e6e6564206f6e207468697320706c6174666f726d2e604082015260600190565b60208082526036908201527f546865206f776e6572206f662074686973206e667420697320626c61636b6c6960408201527539ba32b21037b7103a3434b990383630ba3337b9369760511b606082015260800190565b6020808252603d908201527f546865206f776e6572206f662074686973206e6674206973207065726d616e6160408201527f6e746c792062616e6e6564206f6e207468697320706c6174666f726d2e000000606082015260800190565b600081600019048311821515161561495c5761495c614780565b500290565b60006020828403121561497357600080fd5b8151613eed8161417d565b8281526040602082015260006149976040830184614126565b949350505050565b600060208083850312156149b257600080fd5b825167ffffffffffffffff8111156149c957600080fd5b8301601f810185136149da57600080fd5b80516149e8614263826141f6565b81815260059190911b82018301908381019087831115614a0757600080fd5b928401925b828410156142ae57835182529284019290840190614a0c565b848152608060208201526000614a3e6080830186614126565b6001600160a01b03949094166040830152506060015292915050565b634e487b7160e01b600052603160045260246000fd5b85815284602082015260a060408201526000614a8f60a0830186614126565b6001600160a01b0394909416606083015250608001529392505050565b805169ffffffffffffffffffff81168114611a8557600080fd5b600080600080600060a08688031215614ade57600080fd5b614ae786614aac565b9450602086015193506040860151925060608601519150614b0a60808701614aac565b90509295509295909350565b60208082526029908201527f54686973204e4654206973206e6f74206f6e2061756374696f6e206174207468604082015268329036b7b6b2b73a1760b91b606082015260800190565b6020808252603c908201527f596f75206861766520746f2062696420686967686572207468616e207468652060408201527f686967686573742062696420746f206d616b6520616e206f6666657200000000606082015260800190565b60008219821115614bcf57614bcf614780565b500190565b6000815180845260005b81811015614bfa57602081850181015186830182015201614bde565b81811115614c0c576000602083870101525b50601f01601f19169290920160200192915050565b604081526000614c346040830185614bd4565b90508260208301529392505050565b602081526000613eed6020830184614bd456fea26469706673582212200379df0c20f7143a5240955517c88b82a2ece4d8bedebcf4658c0d28d64b854f64736f6c63430008090033",
  "linkReferences": {},
  "deployedLinkReferences": {}
}