{
  "_format": "hh-sol-artifact-1",
  "contractName": "ArtiziaMarketplace",
  "sourceName": "contracts/ArtiziaMarketplace.sol",
  "abi": [
    {
      "inputs": [],
      "stateMutability": "nonpayable",
      "type": "constructor"
    },
    {
      "inputs": [],
      "name": "invalidListingType",
      "type": "error"
    },
    {
      "inputs": [],
      "name": "invalidPrice",
      "type": "error"
    },
    {
      "anonymous": false,
      "inputs": [
        {
          "indexed": false,
          "internalType": "address",
          "name": "nftContract",
          "type": "address"
        },
        {
          "indexed": false,
          "internalType": "uint256",
          "name": "tokenId",
          "type": "uint256"
        },
        {
          "indexed": false,
          "internalType": "address",
          "name": "seller",
          "type": "address"
        },
        {
          "indexed": false,
          "internalType": "address",
          "name": "owner",
          "type": "address"
        },
        {
          "indexed": false,
          "internalType": "uint256",
          "name": "price",
          "type": "uint256"
        },
        {
          "indexed": false,
          "internalType": "uint256",
          "name": "collectionId",
          "type": "uint256"
        },
        {
          "indexed": false,
          "internalType": "uint256",
          "name": "listingType",
          "type": "uint256"
        },
        {
          "indexed": false,
          "internalType": "uint256",
          "name": "sellerId",
          "type": "uint256"
        }
      ],
      "name": "NFTListed",
      "type": "event"
    },
    {
      "anonymous": false,
      "inputs": [
        {
          "indexed": false,
          "internalType": "address",
          "name": "nftContract",
          "type": "address"
        },
        {
          "indexed": false,
          "internalType": "uint256",
          "name": "tokenId",
          "type": "uint256"
        },
        {
          "indexed": false,
          "internalType": "uint256",
          "name": "price",
          "type": "uint256"
        },
        {
          "indexed": false,
          "internalType": "address",
          "name": "seller",
          "type": "address"
        },
        {
          "indexed": false,
          "internalType": "address",
          "name": "buyer",
          "type": "address"
        },
        {
          "indexed": false,
          "internalType": "uint256",
          "name": "sellerId",
          "type": "uint256"
        },
        {
          "indexed": false,
          "internalType": "uint256",
          "name": "buyerId",
          "type": "uint256"
        }
      ],
      "name": "NFTSold",
      "type": "event"
    },
    {
      "anonymous": false,
      "inputs": [
        {
          "indexed": true,
          "internalType": "address",
          "name": "previousOwner",
          "type": "address"
        },
        {
          "indexed": true,
          "internalType": "address",
          "name": "newOwner",
          "type": "address"
        }
      ],
      "name": "OwnershipTransferred",
      "type": "event"
    },
    {
      "anonymous": false,
      "inputs": [
        {
          "indexed": false,
          "internalType": "uint256",
          "name": "tokenId",
          "type": "uint256"
        },
        {
          "indexed": false,
          "internalType": "bool",
          "name": "decision",
          "type": "bool"
        }
      ],
      "name": "approvalUpdate",
      "type": "event"
    },
    {
      "anonymous": false,
      "inputs": [
        {
          "indexed": false,
          "internalType": "uint256",
          "name": "tokenId",
          "type": "uint256"
        },
        {
          "indexed": false,
          "internalType": "address",
          "name": "seller",
          "type": "address"
        },
        {
          "indexed": false,
          "internalType": "uint256",
          "name": "newTime",
          "type": "uint256"
        }
      ],
      "name": "auctionEndTimeIncreased",
      "type": "event"
    },
    {
      "anonymous": false,
      "inputs": [
        {
          "indexed": false,
          "internalType": "address",
          "name": "nftContract",
          "type": "address"
        },
        {
          "indexed": false,
          "internalType": "uint256",
          "name": "tokenId",
          "type": "uint256"
        },
        {
          "indexed": false,
          "internalType": "address",
          "name": "owner",
          "type": "address"
        },
        {
          "indexed": false,
          "internalType": "uint256",
          "name": "sellerId",
          "type": "uint256"
        }
      ],
      "name": "cancelList",
      "type": "event"
    },
    {
      "anonymous": false,
      "inputs": [
        {
          "indexed": false,
          "internalType": "uint256",
          "name": "tokenId",
          "type": "uint256"
        },
        {
          "indexed": false,
          "internalType": "address",
          "name": "seller",
          "type": "address"
        },
        {
          "indexed": false,
          "internalType": "address",
          "name": "highestBidder",
          "type": "address"
        },
        {
          "indexed": false,
          "internalType": "uint256",
          "name": "highestBidIntoETH",
          "type": "uint256"
        },
        {
          "indexed": false,
          "internalType": "uint256",
          "name": "highestBidIntoUSDT",
          "type": "uint256"
        }
      ],
      "name": "receivedABid",
      "type": "event"
    },
    {
      "stateMutability": "payable",
      "type": "fallback"
    },
    {
      "inputs": [],
      "name": "UNISWAP_ROUTER_ADDRESS",
      "outputs": [
        {
          "internalType": "address",
          "name": "",
          "type": "address"
        }
      ],
      "stateMutability": "view",
      "type": "function"
    },
    {
      "inputs": [],
      "name": "USDT_ADDRESS",
      "outputs": [
        {
          "internalType": "address",
          "name": "",
          "type": "address"
        }
      ],
      "stateMutability": "view",
      "type": "function"
    },
    {
      "inputs": [
        {
          "internalType": "uint256",
          "name": "",
          "type": "uint256"
        }
      ],
      "name": "_idToAuction",
      "outputs": [
        {
          "internalType": "uint256",
          "name": "tokenId",
          "type": "uint256"
        },
        {
          "internalType": "address payable",
          "name": "seller",
          "type": "address"
        },
        {
          "internalType": "uint256",
          "name": "basePrice",
          "type": "uint256"
        },
        {
          "internalType": "uint256",
          "name": "startTime",
          "type": "uint256"
        },
        {
          "internalType": "uint256",
          "name": "endTime",
          "type": "uint256"
        },
        {
          "internalType": "uint256",
          "name": "highestBidIntoETH",
          "type": "uint256"
        },
        {
          "internalType": "uint256",
          "name": "highestBidIntoUSDT",
          "type": "uint256"
        },
        {
          "internalType": "address payable",
          "name": "highestBidder",
          "type": "address"
        },
        {
          "internalType": "enum ArtiziaMarketplace.PaymentMethod",
          "name": "highestBidCurrency",
          "type": "uint8"
        },
        {
          "internalType": "uint8",
          "name": "buyerPlane",
          "type": "uint8"
        },
        {
          "internalType": "bool",
          "name": "royalty",
          "type": "bool"
        }
      ],
      "stateMutability": "view",
      "type": "function"
    },
    {
      "inputs": [
        {
          "internalType": "uint256",
          "name": "",
          "type": "uint256"
        }
      ],
      "name": "_idToNFT",
      "outputs": [
        {
          "internalType": "address",
          "name": "nftContract",
          "type": "address"
        },
        {
          "internalType": "uint256",
          "name": "tokenId",
          "type": "uint256"
        },
        {
          "internalType": "address payable",
          "name": "firstOwner",
          "type": "address"
        },
        {
          "internalType": "address payable",
          "name": "seller",
          "type": "address"
        },
        {
          "internalType": "address payable",
          "name": "owner",
          "type": "address"
        },
        {
          "internalType": "uint256",
          "name": "price",
          "type": "uint256"
        },
        {
          "internalType": "bool",
          "name": "listed",
          "type": "bool"
        },
        {
          "internalType": "uint256",
          "name": "royaltyPrice",
          "type": "uint256"
        },
        {
          "internalType": "enum ArtiziaMarketplace.ListingType",
          "name": "listingType",
          "type": "uint8"
        },
        {
          "internalType": "enum ArtiziaMarketplace.PaymentMethod",
          "name": "paymentMethod",
          "type": "uint8"
        },
        {
          "internalType": "bool",
          "name": "approve",
          "type": "bool"
        },
        {
          "internalType": "uint256",
          "name": "collectionId",
          "type": "uint256"
        },
        {
          "internalType": "bool",
          "name": "royalty",
          "type": "bool"
        }
      ],
      "stateMutability": "view",
      "type": "function"
    },
    {
      "inputs": [],
      "name": "_nftCount",
      "outputs": [
        {
          "internalType": "uint256",
          "name": "",
          "type": "uint256"
        }
      ],
      "stateMutability": "view",
      "type": "function"
    },
    {
      "inputs": [],
      "name": "_nftsSold",
      "outputs": [
        {
          "internalType": "uint256",
          "name": "",
          "type": "uint256"
        }
      ],
      "stateMutability": "view",
      "type": "function"
    },
    {
      "inputs": [
        {
          "internalType": "uint256[]",
          "name": "_tokenId",
          "type": "uint256[]"
        },
        {
          "internalType": "bool",
          "name": "_decision",
          "type": "bool"
        }
      ],
      "name": "approveNfts",
      "outputs": [
        {
          "internalType": "bool",
          "name": "",
          "type": "bool"
        }
      ],
      "stateMutability": "nonpayable",
      "type": "function"
    },
    {
      "inputs": [
        {
          "internalType": "address",
          "name": "_user",
          "type": "address"
        },
        {
          "internalType": "bool",
          "name": "_status",
          "type": "bool"
        }
      ],
      "name": "banUser",
      "outputs": [],
      "stateMutability": "nonpayable",
      "type": "function"
    },
    {
      "inputs": [
        {
          "internalType": "address",
          "name": "",
          "type": "address"
        }
      ],
      "name": "bannedUsers",
      "outputs": [
        {
          "internalType": "bool",
          "name": "",
          "type": "bool"
        }
      ],
      "stateMutability": "view",
      "type": "function"
    },
    {
      "inputs": [
        {
          "internalType": "uint256",
          "name": "_tokenId",
          "type": "uint256"
        },
        {
          "internalType": "uint8",
          "name": "_buyerPlan",
          "type": "uint8"
        }
      ],
      "name": "bidInETH",
      "outputs": [],
      "stateMutability": "payable",
      "type": "function"
    },
    {
      "inputs": [
        {
          "internalType": "uint256",
          "name": "_tokenId",
          "type": "uint256"
        },
        {
          "internalType": "uint256",
          "name": "_amount",
          "type": "uint256"
        },
        {
          "internalType": "uint8",
          "name": "_buyerPlan",
          "type": "uint8"
        }
      ],
      "name": "bidInUSDT",
      "outputs": [],
      "stateMutability": "payable",
      "type": "function"
    },
    {
      "inputs": [
        {
          "internalType": "address",
          "name": "_nftContract",
          "type": "address"
        },
        {
          "internalType": "uint256",
          "name": "_tokenId",
          "type": "uint256"
        },
        {
          "internalType": "uint8",
          "name": "_sellerPlan",
          "type": "uint8"
        },
        {
          "internalType": "uint8",
          "name": "_buyerPlan",
          "type": "uint8"
        },
        {
          "internalType": "uint256",
          "name": "sellerId",
          "type": "uint256"
        },
        {
          "internalType": "uint256",
          "name": "buyerId",
          "type": "uint256"
        }
      ],
      "name": "buyWithETH",
      "outputs": [],
      "stateMutability": "payable",
      "type": "function"
    },
    {
      "inputs": [
        {
          "internalType": "address",
          "name": "_nftContract",
          "type": "address"
        },
        {
          "internalType": "uint256",
          "name": "_tokenId",
          "type": "uint256"
        },
        {
          "internalType": "uint8",
          "name": "_sellerPlan",
          "type": "uint8"
        },
        {
          "internalType": "address",
          "name": "_buyerAddress",
          "type": "address"
        },
        {
          "internalType": "uint8",
          "name": "_buyerPlan",
          "type": "uint8"
        },
        {
          "internalType": "uint256",
          "name": "sellerId",
          "type": "uint256"
        },
        {
          "internalType": "uint256",
          "name": "buyerId",
          "type": "uint256"
        }
      ],
      "name": "buyWithFIAT",
      "outputs": [],
      "stateMutability": "payable",
      "type": "function"
    },
    {
      "inputs": [
        {
          "internalType": "address",
          "name": "_nftContract",
          "type": "address"
        },
        {
          "internalType": "uint256",
          "name": "_tokenId",
          "type": "uint256"
        },
        {
          "internalType": "uint256",
          "name": "_amount",
          "type": "uint256"
        },
        {
          "internalType": "uint8",
          "name": "_sellerPlan",
          "type": "uint8"
        },
        {
          "internalType": "uint8",
          "name": "_buyerPlan",
          "type": "uint8"
        },
        {
          "internalType": "uint256",
          "name": "sellerId",
          "type": "uint256"
        },
        {
          "internalType": "uint256",
          "name": "buyerId",
          "type": "uint256"
        }
      ],
      "name": "buyWithUSDT",
      "outputs": [],
      "stateMutability": "payable",
      "type": "function"
    },
    {
      "inputs": [
        {
          "internalType": "address",
          "name": "_nftContract",
          "type": "address"
        },
        {
          "internalType": "uint256",
          "name": "_tokenId",
          "type": "uint256"
        },
        {
          "internalType": "uint256",
          "name": "_sellerId",
          "type": "uint256"
        }
      ],
      "name": "cancelListing",
      "outputs": [],
      "stateMutability": "payable",
      "type": "function"
    },
    {
      "inputs": [
        {
          "internalType": "address",
          "name": "_nftContract",
          "type": "address"
        },
        {
          "internalType": "uint256",
          "name": "_tokenId",
          "type": "uint256"
        },
        {
          "internalType": "uint8",
          "name": "_sellerPlan",
          "type": "uint8"
        },
        {
          "internalType": "uint256",
          "name": "sellerId",
          "type": "uint256"
        },
        {
          "internalType": "uint256",
          "name": "buyerId",
          "type": "uint256"
        }
      ],
      "name": "closeAuction",
      "outputs": [],
      "stateMutability": "payable",
      "type": "function"
    },
    {
      "inputs": [
        {
          "internalType": "uint256",
          "name": "",
          "type": "uint256"
        },
        {
          "internalType": "uint256",
          "name": "",
          "type": "uint256"
        }
      ],
      "name": "collection",
      "outputs": [
        {
          "internalType": "uint256",
          "name": "",
          "type": "uint256"
        }
      ],
      "stateMutability": "view",
      "type": "function"
    },
    {
      "inputs": [
        {
          "internalType": "uint256",
          "name": "_collectionId",
          "type": "uint256"
        }
      ],
      "name": "getCollectionNfts",
      "outputs": [
        {
          "components": [
            {
              "internalType": "address",
              "name": "nftContract",
              "type": "address"
            },
            {
              "internalType": "uint256",
              "name": "tokenId",
              "type": "uint256"
            },
            {
              "internalType": "address payable",
              "name": "firstOwner",
              "type": "address"
            },
            {
              "internalType": "address payable",
              "name": "seller",
              "type": "address"
            },
            {
              "internalType": "address payable",
              "name": "owner",
              "type": "address"
            },
            {
              "internalType": "uint256",
              "name": "price",
              "type": "uint256"
            },
            {
              "internalType": "bool",
              "name": "listed",
              "type": "bool"
            },
            {
              "internalType": "uint256",
              "name": "royaltyPrice",
              "type": "uint256"
            },
            {
              "internalType": "enum ArtiziaMarketplace.ListingType",
              "name": "listingType",
              "type": "uint8"
            },
            {
              "internalType": "enum ArtiziaMarketplace.PaymentMethod",
              "name": "paymentMethod",
              "type": "uint8"
            },
            {
              "internalType": "bool",
              "name": "approve",
              "type": "bool"
            },
            {
              "internalType": "uint256",
              "name": "collectionId",
              "type": "uint256"
            },
            {
              "internalType": "bool",
              "name": "royalty",
              "type": "bool"
            }
          ],
          "internalType": "struct ArtiziaMarketplace.NFT[]",
          "name": "",
          "type": "tuple[]"
        }
      ],
      "stateMutability": "view",
      "type": "function"
    },
    {
      "inputs": [
        {
          "internalType": "uint256",
          "name": "EthAmountIn",
          "type": "uint256"
        }
      ],
      "name": "getETHIntoUSDT",
      "outputs": [
        {
          "internalType": "uint256",
          "name": "",
          "type": "uint256"
        }
      ],
      "stateMutability": "view",
      "type": "function"
    },
    {
      "inputs": [
        {
          "internalType": "uint256",
          "name": "EthAmountOut",
          "type": "uint256"
        }
      ],
      "name": "getETHOutUSDTInOutPut",
      "outputs": [
        {
          "internalType": "uint256",
          "name": "",
          "type": "uint256"
        }
      ],
      "stateMutability": "view",
      "type": "function"
    },
    {
      "inputs": [],
      "name": "getListedNfts",
      "outputs": [
        {
          "components": [
            {
              "internalType": "address",
              "name": "nftContract",
              "type": "address"
            },
            {
              "internalType": "uint256",
              "name": "tokenId",
              "type": "uint256"
            },
            {
              "internalType": "address payable",
              "name": "firstOwner",
              "type": "address"
            },
            {
              "internalType": "address payable",
              "name": "seller",
              "type": "address"
            },
            {
              "internalType": "address payable",
              "name": "owner",
              "type": "address"
            },
            {
              "internalType": "uint256",
              "name": "price",
              "type": "uint256"
            },
            {
              "internalType": "bool",
              "name": "listed",
              "type": "bool"
            },
            {
              "internalType": "uint256",
              "name": "royaltyPrice",
              "type": "uint256"
            },
            {
              "internalType": "enum ArtiziaMarketplace.ListingType",
              "name": "listingType",
              "type": "uint8"
            },
            {
              "internalType": "enum ArtiziaMarketplace.PaymentMethod",
              "name": "paymentMethod",
              "type": "uint8"
            },
            {
              "internalType": "bool",
              "name": "approve",
              "type": "bool"
            },
            {
              "internalType": "uint256",
              "name": "collectionId",
              "type": "uint256"
            },
            {
              "internalType": "bool",
              "name": "royalty",
              "type": "bool"
            }
          ],
          "internalType": "struct ArtiziaMarketplace.NFT[]",
          "name": "",
          "type": "tuple[]"
        }
      ],
      "stateMutability": "view",
      "type": "function"
    },
    {
      "inputs": [
        {
          "internalType": "address",
          "name": "_user",
          "type": "address"
        }
      ],
      "name": "getMyListedNfts",
      "outputs": [
        {
          "components": [
            {
              "internalType": "address",
              "name": "nftContract",
              "type": "address"
            },
            {
              "internalType": "uint256",
              "name": "tokenId",
              "type": "uint256"
            },
            {
              "internalType": "address payable",
              "name": "firstOwner",
              "type": "address"
            },
            {
              "internalType": "address payable",
              "name": "seller",
              "type": "address"
            },
            {
              "internalType": "address payable",
              "name": "owner",
              "type": "address"
            },
            {
              "internalType": "uint256",
              "name": "price",
              "type": "uint256"
            },
            {
              "internalType": "bool",
              "name": "listed",
              "type": "bool"
            },
            {
              "internalType": "uint256",
              "name": "royaltyPrice",
              "type": "uint256"
            },
            {
              "internalType": "enum ArtiziaMarketplace.ListingType",
              "name": "listingType",
              "type": "uint8"
            },
            {
              "internalType": "enum ArtiziaMarketplace.PaymentMethod",
              "name": "paymentMethod",
              "type": "uint8"
            },
            {
              "internalType": "bool",
              "name": "approve",
              "type": "bool"
            },
            {
              "internalType": "uint256",
              "name": "collectionId",
              "type": "uint256"
            },
            {
              "internalType": "bool",
              "name": "royalty",
              "type": "bool"
            }
          ],
          "internalType": "struct ArtiziaMarketplace.NFT[]",
          "name": "",
          "type": "tuple[]"
        }
      ],
      "stateMutability": "view",
      "type": "function"
    },
    {
      "inputs": [
        {
          "internalType": "address",
          "name": "_user",
          "type": "address"
        }
      ],
      "name": "getMyNfts",
      "outputs": [
        {
          "components": [
            {
              "internalType": "address",
              "name": "nftContract",
              "type": "address"
            },
            {
              "internalType": "uint256",
              "name": "tokenId",
              "type": "uint256"
            },
            {
              "internalType": "address payable",
              "name": "firstOwner",
              "type": "address"
            },
            {
              "internalType": "address payable",
              "name": "seller",
              "type": "address"
            },
            {
              "internalType": "address payable",
              "name": "owner",
              "type": "address"
            },
            {
              "internalType": "uint256",
              "name": "price",
              "type": "uint256"
            },
            {
              "internalType": "bool",
              "name": "listed",
              "type": "bool"
            },
            {
              "internalType": "uint256",
              "name": "royaltyPrice",
              "type": "uint256"
            },
            {
              "internalType": "enum ArtiziaMarketplace.ListingType",
              "name": "listingType",
              "type": "uint8"
            },
            {
              "internalType": "enum ArtiziaMarketplace.PaymentMethod",
              "name": "paymentMethod",
              "type": "uint8"
            },
            {
              "internalType": "bool",
              "name": "approve",
              "type": "bool"
            },
            {
              "internalType": "uint256",
              "name": "collectionId",
              "type": "uint256"
            },
            {
              "internalType": "bool",
              "name": "royalty",
              "type": "bool"
            }
          ],
          "internalType": "struct ArtiziaMarketplace.NFT[]",
          "name": "",
          "type": "tuple[]"
        }
      ],
      "stateMutability": "view",
      "type": "function"
    },
    {
      "inputs": [
        {
          "internalType": "uint256",
          "name": "_tokenId",
          "type": "uint256"
        }
      ],
      "name": "getStatusOfAuction",
      "outputs": [
        {
          "internalType": "bool",
          "name": "",
          "type": "bool"
        }
      ],
      "stateMutability": "view",
      "type": "function"
    },
    {
      "inputs": [
        {
          "internalType": "uint8",
          "name": "level",
          "type": "uint8"
        }
      ],
      "name": "getSubscriptionFee",
      "outputs": [
        {
          "internalType": "uint256",
          "name": "",
          "type": "uint256"
        }
      ],
      "stateMutability": "view",
      "type": "function"
    },
    {
      "inputs": [
        {
          "internalType": "uint256",
          "name": "usdtAmountIn",
          "type": "uint256"
        }
      ],
      "name": "getUSDTIntoETH",
      "outputs": [
        {
          "internalType": "uint256",
          "name": "",
          "type": "uint256"
        }
      ],
      "stateMutability": "view",
      "type": "function"
    },
    {
      "inputs": [
        {
          "internalType": "uint256",
          "name": "USDTAmountOut",
          "type": "uint256"
        }
      ],
      "name": "getUSDTOutETHInOutPut",
      "outputs": [
        {
          "internalType": "uint256",
          "name": "",
          "type": "uint256"
        }
      ],
      "stateMutability": "view",
      "type": "function"
    },
    {
      "inputs": [
        {
          "internalType": "address",
          "name": "_user",
          "type": "address"
        }
      ],
      "name": "getUsersNfts",
      "outputs": [
        {
          "components": [
            {
              "internalType": "address",
              "name": "nftContract",
              "type": "address"
            },
            {
              "internalType": "uint256",
              "name": "tokenId",
              "type": "uint256"
            },
            {
              "internalType": "address payable",
              "name": "firstOwner",
              "type": "address"
            },
            {
              "internalType": "address payable",
              "name": "seller",
              "type": "address"
            },
            {
              "internalType": "address payable",
              "name": "owner",
              "type": "address"
            },
            {
              "internalType": "uint256",
              "name": "price",
              "type": "uint256"
            },
            {
              "internalType": "bool",
              "name": "listed",
              "type": "bool"
            },
            {
              "internalType": "uint256",
              "name": "royaltyPrice",
              "type": "uint256"
            },
            {
              "internalType": "enum ArtiziaMarketplace.ListingType",
              "name": "listingType",
              "type": "uint8"
            },
            {
              "internalType": "enum ArtiziaMarketplace.PaymentMethod",
              "name": "paymentMethod",
              "type": "uint8"
            },
            {
              "internalType": "bool",
              "name": "approve",
              "type": "bool"
            },
            {
              "internalType": "uint256",
              "name": "collectionId",
              "type": "uint256"
            },
            {
              "internalType": "bool",
              "name": "royalty",
              "type": "bool"
            }
          ],
          "internalType": "struct ArtiziaMarketplace.NFT[]",
          "name": "",
          "type": "tuple[]"
        }
      ],
      "stateMutability": "view",
      "type": "function"
    },
    {
      "inputs": [
        {
          "internalType": "address",
          "name": "_nftContract",
          "type": "address"
        },
        {
          "internalType": "uint256[]",
          "name": "_tokenId",
          "type": "uint256[]"
        },
        {
          "internalType": "uint256[]",
          "name": "_price",
          "type": "uint256[]"
        },
        {
          "internalType": "uint256[]",
          "name": "_royaltyPrice",
          "type": "uint256[]"
        },
        {
          "internalType": "uint256",
          "name": "_listingType",
          "type": "uint256"
        },
        {
          "internalType": "uint256[]",
          "name": "_startTime",
          "type": "uint256[]"
        },
        {
          "internalType": "uint256[]",
          "name": "_endTime",
          "type": "uint256[]"
        },
        {
          "internalType": "uint256",
          "name": "_collectionId",
          "type": "uint256"
        },
        {
          "internalType": "uint256",
          "name": "_paymentMethod",
          "type": "uint256"
        },
        {
          "internalType": "uint256",
          "name": "_sellerId",
          "type": "uint256"
        }
      ],
      "name": "listNft",
      "outputs": [],
      "stateMutability": "payable",
      "type": "function"
    },
    {
      "inputs": [],
      "name": "owner",
      "outputs": [
        {
          "internalType": "address",
          "name": "",
          "type": "address"
        }
      ],
      "stateMutability": "view",
      "type": "function"
    },
    {
      "inputs": [],
      "name": "renounceOwnership",
      "outputs": [],
      "stateMutability": "nonpayable",
      "type": "function"
    },
    {
      "inputs": [
        {
          "internalType": "address",
          "name": "_nftContract",
          "type": "address"
        },
        {
          "internalType": "uint256",
          "name": "_tokenId",
          "type": "uint256"
        },
        {
          "internalType": "uint256",
          "name": "_price",
          "type": "uint256"
        },
        {
          "internalType": "uint256",
          "name": "_listingType",
          "type": "uint256"
        },
        {
          "internalType": "uint256",
          "name": "_startTime",
          "type": "uint256"
        },
        {
          "internalType": "uint256",
          "name": "_endTime",
          "type": "uint256"
        },
        {
          "internalType": "uint256",
          "name": "sellerId",
          "type": "uint256"
        }
      ],
      "name": "resellNft",
      "outputs": [],
      "stateMutability": "nonpayable",
      "type": "function"
    },
    {
      "inputs": [
        {
          "internalType": "enum ArtiziaMarketplace.SubscriptionLevel",
          "name": "",
          "type": "uint8"
        }
      ],
      "name": "subscriptionFees",
      "outputs": [
        {
          "internalType": "uint256",
          "name": "",
          "type": "uint256"
        }
      ],
      "stateMutability": "view",
      "type": "function"
    },
    {
      "inputs": [
        {
          "internalType": "uint256",
          "name": "usdtAmountOut",
          "type": "uint256"
        },
        {
          "internalType": "uint256",
          "name": "meth",
          "type": "uint256"
        }
      ],
      "name": "swapETHForUSDT",
      "outputs": [
        {
          "internalType": "uint256",
          "name": "",
          "type": "uint256"
        }
      ],
      "stateMutability": "payable",
      "type": "function"
    },
    {
      "inputs": [
        {
          "internalType": "uint256",
          "name": "usdtAmountIn",
          "type": "uint256"
        }
      ],
      "name": "swapUSDTForETH",
      "outputs": [
        {
          "internalType": "uint256",
          "name": "",
          "type": "uint256"
        }
      ],
      "stateMutability": "nonpayable",
      "type": "function"
    },
    {
      "inputs": [
        {
          "internalType": "address",
          "name": "newOwner",
          "type": "address"
        }
      ],
      "name": "transferOwnership",
      "outputs": [],
      "stateMutability": "nonpayable",
      "type": "function"
    },
    {
      "stateMutability": "payable",
      "type": "receive"
    }
  ],
  "bytecode": "0x608060409080825234620001b457600160008181558154336001600160a01b031980831682178555929493916001600160a01b03919082167f8be0079c531659141344cd1fd0a4f28419497f9722a3daafe3b4186f6b6457e08780a381600255816003557310ed43c718714eb63d5aa57b78b54704e256024e928381600a541617600a557355d398326f99059ff775485246999027b3197955908181600b541617600b55600494338287541617865581600c541617600c55600d541617600d55828552602093600985528587812055338284541603620001865750600385526009845260648686205533818354160362000156576002855260098452609686862055339154160362000127575081600984928260969552522055516155be9081620001ba8239f35b8160649285519262461bcd60e51b84528301526024820152600080516020620057788339815191526044820152fd5b606483858089519262461bcd60e51b84528301526024820152600080516020620057788339815191526044820152fd5b60649085808662461bcd60e51b84528301526024820152600080516020620057788339815191526044820152fd5b600080fdfe60806040526004361015610018575b361561001657005b005b6000803560e01c806302a18c8014613d005780632381c58d14613ce157806331824a4914613cc35780634afbcdae14613c835780634b3320e014613aed5780634d3fb81714613ac35780635021b42b146134cf5780635274cff6146133625780635f96218b14613343578063715018a6146132cf57806379b36943146132a85780638110c57914612dc55780638988d07814612d885780638cd410f414612d695780638d6cb3fb14612c115780638da5cb5b14612bea5780638ee223f914612b935780639c74405814612b6a578063aeb46a1b14612b32578063b4fa041214612a81578063b8820d8214612a65578063b9e07df114612987578063c189205814612960578063c36ac2d2146127f2578063c3e11ced1461272f578063d12824f1146125b5578063d6cbb20214612597578063d6fc3dbd146122ce578063e599423114611ecc578063e7fc941214611a99578063e89fe4b7146112eb578063f2fde38b146111f9578063f6c1b77a14611039578063f711a4e9146107bd578063fbe8d30f146103335763fe25db09146101b0575061000e565b346103305760208060031936011261032c576040516101ce8161429b565b6002815260403683830137826001600160a01b039182600c5416604051937fad5c46480000000000000000000000000000000000000000000000000000000085528585600481855afa80156103215761029f9585916102f4575b50816102338561449d565b91169052600b5416610244836144aa565b52604080516102528161429b565b60028152863691013760405180809581947f1f00ca740000000000000000000000000000000000000000000000000000000083526004356004840152604060248401526044830190614567565b03915afa9081156102e957836102bd9394926102c6575b505061449d565b51604051908152f35b6102e292503d8091833e6102da81836142b7565b8101906144ed565b38806102b6565b6040513d85823e3d90fd5b6103149150873d891161031a575b61030c81836142b7565b8101906144ce565b38610228565b503d610302565b6040513d86823e3d90fd5b5080fd5b80fd5b5060e0600319360112610330576103486140fa565b602435610353614086565b90606435906001600160a01b03938483168093036107b8576103736140a6565b93828752600560205260019560ff9361039b8886600860408d20015460101c16151514614e68565b33895260076020526103b38560408b20541615614d05565b6103bb614e13565b885260056020526103d86103d260408a20936143c6565b966143c6565b90600383019681885416956103ef33881415614eb3565b868b5260076020526104078160408d20541615614f6f565b60088501918183541660028110156107a4576104239015614fe0565b60068601946104388c84885416151514614f24565b8c600588018054916127109261046661045e858304926104588885615279565b9061502b565b341015615045565b8a87600a82015416156000146106f8575050506104989261049261049e95936104589354049384615279565b92615279565b34615038565b915460081c1660038110156106e4578a91829161065357818091858c541682821561064a575bf11561063f57875b6104d8575b8888815580f35b8316918888820193845490803b1561063b576040517f23b872dd0000000000000000000000000000000000000000000000000000000081523060048201526001600160a01b038a166024820152604481019290925282908290606490829084905af1801561063057610610575b5050907f36622ac3c55df2afe092b02595624d4572c4cc04125857ad1b41a57b58e7cdf3966004610601959493017fffffffffffffffffffffffff0000000000000000000000000000000000000000908882825416179055815416905560ff1981541690556105b5600254614d50565b60025554604080516001600160a01b039384168152602081019290925234908201529281166060840152909216608082015260a43560a082015260c43560c082015290819060e0820190565b0390a1388080808080806104d1565b61061e909594939295614237565b61062c579091928838610545565b8880fd5b6040513d84823e3d90fd5b8280fd5b6040513d8a823e3d90fd5b506108fc6104c4565b61065d9150614a0e565b82600d541690838a541690823b156106e0576040517fa9059cbb0000000000000000000000000000000000000000000000000000000081526001600160a01b0392909216600483015260248201529082908290604490829084905af18015610630576106cc575b5050876104cc565b6106d590614237565b61062c5788386106c4565b8380fd5b60248b634e487b7160e01b81526021600452fd5b8295839550839450610736926104586107309261049261072160076107299f9d97015485615279565b9d8e34615038565b9584615279565b90615038565b968860028c01541682821561079b575bf115610790575460081c1660038110156106e4578a91829161078657818091858c541682821561077d575bf11561063f57876104cc565b506108fc610771565b61065d9150614832565b6040513d8d823e3d90fd5b506108fc610746565b60248d634e487b7160e01b81526021600452fd5b600080fd5b5060a0600319360112610330576107d26140fa565b6107da614086565b906024803584526005602052604084209260066020526107fd60408620916143c6565b92600782019283549460ff91610817838860a81c166143c6565b9260038901926001600160a01b039485855416998681168015600014610a09575050505050826001860154169081330361099f575088908385169060018a0154823b156106e0576040517f23b872dd0000000000000000000000000000000000000000000000000000000081523060048201526001600160a01b0392909216602483015260448201529082908290606490829084905af180156106305761097f575b50509060056001888361097997969560067f36622ac3c55df2afe092b02595624d4572c4cc04125857ad1b41a57b58e7cdf39c0160ff198154169055541660048201907fffffffffffffffffffffffff00000000000000000000000000000000000000008254161790555b0154930154945416604051958695608435946064359488939060c09591989796939860e08601996001600160a01b03948580941688526020880152604087015216606085015216608083015260a08201520152565b0390a180f35b61098d909594939295614237565b61099b5790919287386108b9565b8780fd5b608490602c6040519162461bcd60e51b8352602060048401528201527f4f6e6c79207468652073656c6c65722063616e20636c6f73652074686520756e60448201527f736f6c642061756374696f6e00000000000000000000000000000000000000006064820152fd5b9490919293943314801561102a575b15610fc0576004890154421115610f7c57908b9160058a01549186600860068d015495015460081c166003811015610f685780610cc9575050858b5460a01c16906003821015610cb7575092878e96938e96936001899714600014610c6b5750610a81906145a4565b93600a8701541615600014610be6575083945091610730610ab092610458869561049261271086049384615279565b86865416828215610bdd575bf115610bd2575b878284168387541660018a0154823b156106e0576040517f23b872dd0000000000000000000000000000000000000000000000000000000081523060048201526001600160a01b0392909216602483015260448201529082908290606490829084905af1801561063057610bb6575b505090600560017f36622ac3c55df2afe092b02595624d4572c4cc04125857ad1b41a57b58e7cdf39861097996959484895416600483017fffffffffffffffffffffffff0000000000000000000000000000000000000000918282541617905581541690556006810160ff198154169055610bae600254614d50565b600255610924565b610bc4909594939295614237565b61099b579091928738610b32565b6040513d89823e3d90fd5b506108fc610abc565b9284936002610c1a8695610730879661045860078d015491610492610729610c136127108c049586615279565b809b615038565b97015416828215610c62575bf115610c55578180809286865416828215610c4c575bf1610ac3576040513d89823e3d90fd5b506108fc610c3c565b50604051903d90823e3d90fd5b506108fc610c26565b949050600a8701541615600014610be6575083945091610730610c9c92610458869561049261271086049384615279565b86865416828215610c4c57f1610ac3576040513d89823e3d90fd5b8e634e487b7160e01b81526021600452fd5b94969594929392600114610ce4575b50505050505050610ac3565b60a01c8516906003821015610cb75750918c918e9695949315600014610ede5750610d0e90614832565b92600a8201541615600014610dc2575061073090610458610d389461049261271086049384615279565b83600d5416908484541690823b156106e0576040517fa9059cbb0000000000000000000000000000000000000000000000000000000081526001600160a01b0392909216600483015260248201529082908290604490829084905af1801561063057610dae575b50505b38808080808080610cd8565b610db790614237565b61099b578738610d9f565b610def9293610458600761073093015491610492610729610de86127108a049586615279565b8099615038565b9084600d5416908560028c01541691803b15610ec6576040517fa9059cbb000000000000000000000000000000000000000000000000000000008082526001600160a01b03949094166004820152602481019290925284908290604490829084905af1908115610321578491610eca575b505084600d5416918585541692803b15610ec6576040519283526001600160a01b03909316600483015260248201529082908290818381604481015b03925af1801561063057610eb2575b5050610da2565b610ebb90614237565b61099b578738610eab565b8480fd5b610ed390614237565b61063b578238610e60565b939050600a8201541615600014610dc2575061073090610458610f0a9461049261271086049384615279565b83600d5416908484541690823b156106e0576040517fa9059cbb0000000000000000000000000000000000000000000000000000000081526001600160a01b0390921660048301526024820152908290829081838160448101610e9c565b50508d634e487b7160e01b81526021600452fd5b606490601a6040519162461bcd60e51b8352602060048401528201527f41756374696f6e20686173206e6f7420656e646564207965742e0000000000006044820152fd5b60849060386040519162461bcd60e51b8352602060048401528201527f4f6e6c792074686520686967686573742062696464657220616e64207468652060448201527f73656c6c65722063616e20636c61696d20746865204e465400000000000000006064820152fd5b508660018a0154163314610a18565b50346103305760208060031936011261032c576110546140fa565b91338152600780835260ff61106f8160408520541615614d05565b600394855494849285936001600160a01b03809416945b8881106111be575061109790615481565b978695875b8981106110b557604051806110b18d82614140565b0390f35b8089528a600580875260408b2090886004830154168a81146110e4575b505050506110df90614d50565b61109c565b9a6111b2938989600a6110df989f966111ac968f9887998e6040519761110989614261565b828654168952600186015490890152816002860154166040890152840154166060870152608086015281015460a085015282600682015416151560c08501528a81015460e085015282600861117a8282850154809361116e8383166101008c01614d93565b1c166101208801614d9f565b60101c161515610140850152600981015461016085015201541615156101808201526111a683836144ba565b526144ba565b50614d50565b9790508a3880806110d2565b808852600584528585600460408b20015416146111e4575b6111df90614d50565b611086565b906111f16111df91614d50565b9190506111d6565b5034610330576020600319360112610330576112136140fa565b61121b61436e565b6001600160a01b0380911690811561128157600154827fffffffffffffffffffffffff0000000000000000000000000000000000000000821617600155167f8be0079c531659141344cd1fd0a4f28419497f9722a3daafe3b4186f6b6457e0600080a380f35b608460405162461bcd60e51b815260206004820152602660248201527f4f776e61626c653a206e6577206f776e657220697320746865207a65726f206160448201527f64647265737300000000000000000000000000000000000000000000000000006064820152fd5b50610140600319360112610330576113016140fa565b67ffffffffffffffff906024358281116106e057611323903690600401614310565b604435838111610ec65761133b903690600401614310565b9360643584811161032c57611354903690600401614310565b9360a43581811161063b5761136d903690600401614310565b9060c43590811161063b57611386903690600401614310565b9061138f614e13565b33835260076020526113a860ff60408520541615614d05565b825b8451811015611a91576113bd81896144ba565b516113ec5760046040517fb52612a6000000000000000000000000000000000000000000000000000000008152fd5b600160843511156114215760046040517f17142a4d000000000000000000000000000000000000000000000000000000008152fd5b61142b81866144ba565b516001600160a01b0387163b15610ec6576040517f23b872dd00000000000000000000000000000000000000000000000000000000815233600482015230602482015260448101919091528481606481836001600160a01b038c165af18015611a8657908591611a72575b50506114a3600354614d50565b60035560e43584526008602052604084206114be82876144ba565b519080549068010000000000000000821015611a5e57906114e4916001820181556140cc565b7fffffffffffffffffffffffffffffffffffffffffffffffffffffffffffffffff829392549160031b92831b921b191617905561152181866144ba565b5161152c828a6144ba565b51611537838a6144ba565b519060026084351015611a4a576003610104351015611a4a576040519261155d84614261565b6001600160a01b038a168452602084015233604084015233606084015230608084015260a0830152600160c083015260e08201526115a16084356101008301614d93565b6115b2610104356101208301614d9f565b600161014082015260e435610160820152846101808201526115d482876144ba565b518552600560205260408520906001600160a01b038151167fffffffffffffffffffffffff000000000000000000000000000000000000000083541617825560208101516001830155600282016001600160a01b036040830151167fffffffffffffffffffffffff0000000000000000000000000000000000000000825416179055600382016001600160a01b036060830151167fffffffffffffffffffffffff0000000000000000000000000000000000000000825416179055600482016001600160a01b036080830151167fffffffffffffffffffffffff000000000000000000000000000000000000000082541617905560a081015160058301556116f260c08201511515600684019060ff60ff1983541691151516179055565b60e081015160078301556101008101516002811015611a4a576117189060088401614dab565b6101208101516003811015611a4a57600880840180546101408501517fffffffffffffffffffffffffffffffffffffffffffffffffffffffffff0000ff9091169390921b61ff00169290921790151560101b62ff0000161790556117a19190600a906101809061016081015160098501550151151591019060ff60ff1983541691151516179055565b600160843514611837575b807ff744c4e912fa3b7b216317585f74fc338fdfb67d0aa78e9c1078c6c7bb0d16b36117db61183293886144ba565b516117e6838c6144ba565b51604080516001600160a01b038c16815260208101939093523390830152306060830152608082015260e43560a082015260843560c08201526101243560e082015261010090a1614d50565b6113aa565b61184181866144ba565b5161184c828a6144ba565b5161185783856144ba565b5161186284876144ba565b5191604051936118718561427e565b84523360208501526040840152606083015260808201528460a08201528460c08201528460e08201526118ab610104356101008301614d9f565b6096610120820152846101408201526118c482876144ba565b5185526006602052604085209080518255600182016001600160a01b036020830151167fffffffffffffffffffffffff000000000000000000000000000000000000000082541617905560408101516002830155606081015160038301556080810151600483015560a0810151600583015560c081015160068301556001600160a01b0360e0820151167fffffffffffffffffffffffff00000000000000000000000000000000000000006007840154161760078301556101008101516003811015611a4a5761014083926119a160079384611832989701614dc4565b6119f760ff61012083015116848601907fffffffffffffffffffff00ffffffffffffffffffffffffffffffffffffffffff75ff00000000000000000000000000000000000000000083549260a81b169116179055565b015115157fffffffffffffffffff00ffffffffffffffffffffffffffffffffffffffffffff76ff00000000000000000000000000000000000000000000838501549260b01b1691161791015590506117ac565b602487634e487b7160e01b81526021600452fd5b602487634e487b7160e01b81526041600452fd5b611a7b90614237565b6106e0578338611496565b6040513d87823e3d90fd5b836001815580f35b5060406003193601126103305760ff9060243560043583821682036107b8578083526006602052611adb60408420600381015442119081611ebe575b506150b6565b8083526005602052600193611aff8582600860408820015460101c16151514614e68565b3384526007602052611b178160408620541615614d05565b8184526006602052604084209460056020526040852090611b37856143c6565b9660028101549561271096611b4e8a898304615279565b611b60600585019b8c549a8b04615279565b916001600160a01b0396611b7c88600383015416331415615127565b8860088201541660028110156107a457611bcc93611bd39593611bb98a8d6006611bc697611bae84611bbe9914615172565b015416151514614f24565b61502b565b3410156151bd565b8961502b565b3411615208565b600782019687549085821690600685019788549383611dba575b5050505050611c7190348a55611c02346153cd565b865587547fffffffffffffffffffff0000ffffffffffffffffffffffffffffffffffffffff33167fffffffffffffffffffff000000000000000000000000000000000000000000009091161760a89190911b75ff00000000000000000000000000000000000000000016178755565b600481018054906102584201804211611da6578210611cf7575b50500154935495549154604080519485526001600160a01b039583168616602086015296909116939093169482019490945260608101939093526080830152907fd2bac7185d7afc210e088ad31a00e9c773a7ad5c90bbf00d874a34af391b46b3908060a08101610979565b61012c8201809211611d92579284927f8e1cb85d0855921b3c958b068fa707efb7db88099af764dd47f37eef82c3334d837fd2bac7185d7afc210e088ad31a00e9c773a7ad5c90bbf00d874a34af391b46b39b9c9794610979999755848484015416611d836040519283928d846001600160a01b03604092959493606083019683521660208201520152565b0390a192949998509294611c8b565b602489634e487b7160e01b81526011600452fd5b60248a634e487b7160e01b81526011600452fd5b60a01c166003811015611eaa578b9190878103611e6f5750505085600d541690813b15611e6b576040517fa9059cbb0000000000000000000000000000000000000000000000000000000081526001600160a01b03919091166004820152602481019290925289908290604490829084905af18015611e6057908991611e4c575b5050611c71905b9038808080611bed565b611e5590614237565b61099b578738611e3b565b6040513d8b823e3d90fd5b8a80fd5b909291935015611e86575b505050611c7190611e42565b8280928192828215611ea1575bf115610bd257873880611e7a565b506108fc611e93565b60248c634e487b7160e01b81526021600452fd5b600491500154421038611ad5565b5060c060031936011261033057611ee16140fa565b602435611eec614086565b91611ef5614096565b91808552600560205260019360ff91611f1d8684600860408b20015460101c16151514614e68565b3387526007602052611f358360408920541615614d05565b611f3d614e13565b86526005602052611f5a611f5460408820926143c6565b946143c6565b60038201946001600160a01b03908187541694611f7933871415614eb3565b858a526007602052611f918160408c20541615614f6f565b6008850191818354166002811015611eaa57611fad9015614fe0565b6006860194611fc28b84885416151514614f24565b600587018054908d61271092611fe261045e858304926104588885615279565b8a87600a8201541615600014612237575050506104989261049261200e95936104589354049384615279565b915460081c166003811015612223578991829161219657818091858b541682821561218d575bf115610bd257865b612048575b8787815580f35b8416918787820193845490803b1561063b576040517f23b872dd000000000000000000000000000000000000000000000000000000008152306004820152336024820152604481019290925282908290606490829084905af1801561063057612173575b5050907f36622ac3c55df2afe092b02595624d4572c4cc04125857ad1b41a57b58e7cdf39560046121659493017fffffffffffffffffffffffff0000000000000000000000000000000000000000903382825416179055815416905560ff19815416905561211b600254614d50565b60025554604080516001600160a01b0395861681526020810192909252349082015292909116606083015233608083015260843560a083015260a43560c0830152819060e0820190565b0390a1388080808080612041565b6121809094939294614237565b61099b57909187386120ac565b506108fc612034565b6121a09150614a0e565b82600d5416908389541690823b156106e0576040517fa9059cbb0000000000000000000000000000000000000000000000000000000081526001600160a01b0392909216600483015260248201529082908290604490829084905af180156106305761220f575b50508661203c565b61221890614237565b61099b578738612207565b60248a634e487b7160e01b81526021600452fd5b8295839550839450612260926104586107309261049261072160076107299f9d97015485615279565b968860028c0154168282156122c5575bf1156122ba575460081c16600381101561222357899182916122b057818091858b54168282156122a7575bf115610bd2578661203c565b506108fc61229b565b6121a09150614832565b6040513d8c823e3d90fd5b506108fc612270565b50346103305760406003193601126103305760043567ffffffffffffffff811161032c57612300903690600401614310565b612308614228565b61231061436e565b82908015938415925b845181101561258c5761232c81866144ba565b51808352600560208181526040852060080180547fffffffffffffffffffffffffffffffffffffffffffffffffffffffffff00ffff1687151560101b62ff0000161781558792908a9081612558575b506123bf575b506123ba93927f6ffa1c2dfe558962660d78387d612607ef3f19ee482f7d51a12634d131e8db6e926040928351928352820152a1614d50565b612319565b83865260069081835260408720916007830154926001600160a01b039182851693846123f0575b5050505050612381565b8260ff9394959697985001549201549460a01c166003811015612544578a918991600181036124db5750505050600d541690813b156124d7576040517fa9059cbb0000000000000000000000000000000000000000000000000000000081526001600160a01b03919091166004820152602481019290925285908290604490829084905af18015611a865787929186916124be575b50506123ba93927f6ffa1c2dfe558962660d78387d612607ef3f19ee482f7d51a12634d131e8db6e926040925b928295968295386123e6565b6124ca91929350614237565b6106e05785908438612485565b8680fd5b91949296955092501561251b575b5050506123ba93927f6ffa1c2dfe558962660d78387d612607ef3f19ee482f7d51a12634d131e8db6e926040926124b2565b829394508291829182821561253b575bf1156102e95785908438806124e9565b506108fc61252b565b602489634e487b7160e01b81526021600452fd5b905060ff919293505416600281101561257857906001889392143861237b565b602486634e487b7160e01b81526021600452fd5b602084604051908152f35b50346103305780600319360112610330576020600354604051908152f35b50346103305760208060031936011261032c576125d06140fa565b33835260079081835260ff936125ec8560408320541615614d05565b600391825494829683976001600160a01b03809416985b8881106126f5575061261490615481565b978495855b89811061262e57604051806110b18d82614140565b8087528a60058087528a60408a209189868401541687811461265e575b505050505061265990614d50565b612619565b938989600a612659989f966111ac968f9689976126e89b6040519761268289614261565b8286541689526001860154908901528160028601541660408901526060880152600484015416608087015282015460a086015283600683015416151560c086015281015460e085015282600861117a8282850154809361116e8383166101008c01614d93565b9790508a388a818061264b565b80865260058452898588604089200154161461271a575b61271590614d50565b612603565b9061272761271591614d50565b91905061270c565b50346103305760208060031936011261032c5760405161274e8161429b565b6002815260403683830137826001600160a01b039182600b54166127718261449d565b5282600c5416604051937fad5c46480000000000000000000000000000000000000000000000000000000085528585600481855afa9081156103215761029f9585926127d3575b506127c2846144aa565b91169052604080516102528161429b565b6127eb919250873d891161031a5761030c81836142b7565b90386127b8565b5034610330576020908160031936011261033057600435600392835492600261282461281f825487615038565b615481565b958293835b87811061283e57604051806110b18b82614140565b80855260058083526040862060ff9081600682015416808091612953575b80612943575b612879575b5050505061287490614d50565b612829565b91600a6129399492612874969b946040519461289486614261565b6001600160a01b0380845416875260018401548b880152808d850154166040880152808c850154166060880152600484015416608087015282015460a0860152151560c0850152600781015460e08501528260086129028282850154809361116e8383166101008c01614d93565b60101c1615156101408501526009810154610160850152015416151561018082015261292e828d6144ba565b526111ac818c6144ba565b9590388080612867565b5082600883015460101c16612862565b508a60098301541461285c565b503461033057806003193601126103305760206001600160a01b03600b5416604051908152f35b50346103305760206003193601126103305760406101a09160043581526005602052206001600160a01b03808254169160ff600182015492806002840154169080600385015416906004850154166005850154846006870154169160078701549360088801549587600a60098b01549a015416996040519b8c5260208c015260408b015260608a0152608089015260a0880152151560c087015260e0860152612a366101008601838316614110565b612a496101208601838360081c16614133565b60101c1615156101408401526101608301521515610180820152f35b6020612a79612a73366140b6565b90614ba4565b604051908152f35b503461033057602060031936011261033057604061016091600435815260066020522060ff8154916001600160a01b038060018301541691600281015460038201546004830154906005840154926007600686015495015496604051998a5260208a015260408901526060880152608087015260a086015260c0850152811660e0840152612b186101008401838360a01c16614133565b818160a81c1661012084015260b01c161515610140820152f35b503461033057602060031936011261033057600435906005821015610330575060005260096020526020604060002054604051908152f35b5034610330576020600319360112610330576020612b8960043561554f565b6040519015158152f35b503461033057604060031936011261033057612be7612bb06140fa565b6001600160a01b03612bc0614228565b91612bc961436e565b1683526007602052604083209060ff60ff1983541691151516179055565b80f35b503461033057806003193601126103305760206001600160a01b0360015416604051908152f35b50346103305780600319360112610330576003908154906002612c3861281f825485615038565b938291835b858110612c5257604051806110b18982614140565b80855260056020908082526040872060ff918260068301541690818092612d59575b612c8c575b5050505050612c8790614d50565b612c3d565b612d4e9492612c8796999492600a9260405195612ca887614261565b6001600160a01b0390818554168852600185015490880152808b850154166040880152808c850154166060880152600484015416608087015282015460a0860152151560c0850152600781015460e0850152826008612d178282850154809361116e8383166101008c01614d93565b60101c16151561014085015260098101546101608501520154161515610180820152612d43828b6144ba565b526111ac818a6144ba565b939038808080612c79565b5083600884015460101c16612c74565b5034610330576020600319360112610330576020612a796004356145a4565b50346103305760206003193601126103305760ff60406020926001600160a01b03612db16140fa565b168152600784522054166040519015158152f35b50346103305760e060031936011261033057612ddf6140fa565b90604435606435923383526007602052612e0060ff60408520541615614d05565b612e08614e13565b6024938435845260056020526040842083156132645760048101336001600160a01b03825416036131fa576001600160a01b038416803b156124d7576040517f23b872dd000000000000000000000000000000000000000000000000000000008152336004820152306024820152883560448201529087908290606490829084905af18015610bd2579087916131e2575b505060038201337fffffffffffffffffffffffff0000000000000000000000000000000000000000825416179055307fffffffffffffffffffffffff00000000000000000000000000000000000000008254161790558360058201556006810160ff199060018282541617905560028310156131cf576008820190612f1e8483614dab565b6001600a84019182541617905560018314612fed575b506002548015612fda577fffffffffffffffffffffffffffffffffffffffffffffffffffffffffffffffff0160025560090154604080516001600160a01b03949094168452953560208401523395830195909552306060830152608082019290925260a081019390935260c083015260c43560e0830152907ff744c4e912fa3b7b216317585f74fc338fdfb67d0aa78e9c1078c6c7bb0d16b39061010090a16001815580f35b8686634e487b7160e01b81526011600452fd5b60ff905460081c16613041604051916130058361427e565b88358352336020840152866040840152608435606084015260a43560808401528760a08401528760c08401528760e08401526101008301614d9f565b6096610120820152600161014082015286358652600660205260076040872082518155600181016001600160a01b036020850151167fffffffffffffffffffffffff000000000000000000000000000000000000000082541617905560408301516002820155606083015160038201556080830151600482015560a0830151600582015560c0830151600682015501906001600160a01b0360e0820151167fffffffffffffffffffffffff00000000000000000000000000000000000000008354161782556101008101519060038210156131bc576131236101409284614dc4565b61012081015183547fffffffffffffffffffff00ffffffffffffffffffffffffffffffffffffffffff1660a89190911b75ff00000000000000000000000000000000000000000016178355015181547fffffffffffffffffff00ffffffffffffffffffffffffffffffffffffffffffff1690151560b01b76ff000000000000000000000000000000000000000000001617905538612f34565b8888634e487b7160e01b81526021600452fd5b8686634e487b7160e01b81526021600452fd5b6131eb90614237565b6131f6578538612e99565b8580fd5b608487602a6040519162461bcd60e51b8352602060048401528201527f4f6e6c7920746865206f776e6572206f6620616e206e66742063616e206c697360448201527f7420746865206e66742e000000000000000000000000000000000000000000006064820152fd5b606486601c6040519162461bcd60e51b8352602060048401528201527f5072696365206d757374206265206174206c65617374203120776569000000006044820152fd5b503461033057806003193601126103305760206001600160a01b03600a5416604051908152f35b50346103305780600319360112610330576132e861436e565b60006001600160a01b036001547fffffffffffffffffffffffff00000000000000000000000000000000000000008116600155167f8be0079c531659141344cd1fd0a4f28419497f9722a3daafe3b4186f6b6457e08280a380f35b5034610330576020600319360112610330576020612a7960043561528c565b50346103305760208060031936011261032c5761337d6140fa565b33835260079081835260ff936133998560408320541615614d05565b600391825494829683976001600160a01b03809416985b88811061346557506133c190615481565b978495855b8981106133db57604051806110b18d82614140565b8087528a60058087528a60408a209189868401541687811480613458575b80613448575b613417575b505050505061341290614d50565b6133c6565b938989600a613412989f966111ac968f96899761343b9b6040519761268289614261565b9790508a388a8180613404565b5088600885015460101c166133ff565b50886006850154166133f9565b8086526005845260408620838b878a840154161491826134c1575b826134b0575b505061349b575b61349690614d50565b6133b0565b906134a861349691614d50565b91905061348d565b6008015460101c1690508338613486565b600681015482169250613480565b5060e0600319360112610330576134e46140fa565b602435906134f0614096565b906134f96140a6565b838552600560205260019361351e8560ff600860408a20015460101c16151514614e68565b338652600760205261353760ff60408820541615614d05565b61353f614e13565b8552600560205261355c61355660408720946143c6565b916143c6565b6001600160a01b036003850154169161357733841415614eb3565b61358b8660ff600688015416151514614f24565b82875260076020526135a460ff60408920541615614f6f565b60ff6008860154166002811015613a1d576135bf9015614fe0565b60058501546135e66135d5846127108404615279565b6135e060443561528c565b9261502b565b11613a5957866001600160a01b03600d5416803b1561032c576040517f23b872dd00000000000000000000000000000000000000000000000000000000815233600482015230602482015260448035908201529082908290606490829084905af1801561063057613a45575b5050600a85015460ff166138c95761367c9061045861368493610492612710604435049384615279565b604435615038565b60ff600885015460081c166003811015611a4a5790868681931460001461389357506001600160a01b03600d5416906001600160a01b0360038701541690823b156106e0576040517fa9059cbb0000000000000000000000000000000000000000000000000000000081526001600160a01b0392909216600483015260248201529082908290604490829084905af180156106305761387f575b5050835b61372f575b505050815580f35b6001600160a01b038216928585820194855490803b1561063b576040517f23b872dd000000000000000000000000000000000000000000000000000000008152306004820152336024820152604481019290925282908290606490829084905af180156106305761386b575b50507f36622ac3c55df2afe092b02595624d4572c4cc04125857ad1b41a57b58e7cdf39381600461386093017fffffffffffffffffffffffff00000000000000000000000000000000000000009033828254161790556003820154166003820155600660ff198183015416910155613814600254614d50565b60025554604080516001600160a01b03958616815260208101929092526044359082015292909116606083015233608083015260a43560a083015260c43560c0830152819060e0820190565b0390a1388080613727565b61387490614237565b6131f657853861379b565b61388890614237565b610ec657843861371e565b8061389e81936145a4565b6001600160a01b036003890154168282156138c0575bf1156103215783613722565b506108fc6138b4565b6138f99061073060078701546104586138e9612710604435049283615279565b9561049261072988604435615038565b90866001600160a01b03600d5416916001600160a01b0360028801541692803b1561063b576040517fa9059cbb000000000000000000000000000000000000000000000000000000008082526001600160a01b03959095166004820152602481019290925282908290604490829084905af1801561063057613a31575b505060ff600886015460081c166003811015613a1d5790878781949314600014613a0f57506001600160a01b03600d5416916001600160a01b0360038801541692803b15610ec6576040519283526001600160a01b0393909316600483015260248201529082908290604490829084905af18015610630576139fb575b505083613722565b613a0490614237565b610ec65784386139f3565b809281925061389e906145a4565b602488634e487b7160e01b81526021600452fd5b613a3a90614237565b6124d7578638613976565b613a4e90614237565b6124d7578638613652565b608460405162461bcd60e51b815260206004820152602760248201527f4e6f7420656e6f75676820616d6f756e7420746f20636f7665722061736b696e60448201527f67207072696365000000000000000000000000000000000000000000000000006064820152fd5b50346103305760206003193601126103305760043560ff811681036107b857612a796020916143c6565b50606060031936011261033057613b026140fa565b60243590613b0e614e13565b3383526007602052613b2760ff60408520541615614d05565b8183526005602052604083209060038201918254906001600160a01b03938483163303613c3f5760069260048301907fffffffffffffffffffffffff00000000000000000000000000000000000000009133838254161790551690550160ff1981541690551690813b1561063b576040517f23b872dd000000000000000000000000000000000000000000000000000000008152306004820152336024820152604481018290528390818160648183885af1801561063057613c2b575b507f9894bb06983a241f784ad8cc4a606cf1b279c281ba0c7dc78e53b678d1492ee56080848460405191825260208201523360408201526044356060820152a16001815580f35b613c3490614237565b61063b578238613be4565b606460405162461bcd60e51b815260206004820152601d60248201527f4f6e6c792053656c6c65722063616e2063616e63656c4c697374696e670000006044820152fd5b503461033057613c92366140b6565b91908152600860205260408120908154831015610330576020613cb584846140cc565b90546040519160031b1c8152f35b50346103305780600319360112610330576020600254604051908152f35b5034610330576020600319360112610330576020612a796004356153cd565b5060606003193601126103305760043590602435613d1c614086565b928083526006602052613d3f60408420600381015442119081611ebe57506150b6565b808352600560205260019384604085206008015460101c60ff16151514613d6590614e68565b3384526007602052604084205460ff1615613d7f90614d05565b8184526006602052604084209460056020526040852090613d9f836143c6565b96600281015493612710938985870490613db891615279565b94600584019a8b5491820490613dcd91615279565b613dd68a61528c565b976001600160a01b039788600386015416331415613df390615127565b613dfc9161502b565b881015613e08906151bd565b613e119161502b565b8611613e1c90615208565b600881015460ff1660028110156122235760ff6006613e4193611bae88809514615172565b83600d5416803b1561062c576040517f23b872dd000000000000000000000000000000000000000000000000000000008152336004820152306024820152604481018990529089908290606490829084905af18015611e6057614073575b506007820196875495858716968b5497600686019889549282613f6f575b505050908b5550855586547fffffffffffffffffffff00ffffffffffffffffffffffffffffffffffffffffff7fffffffffffffffffffffff000000000000000000000000000000000000000000909116337fffffffffffffffffffffff00ffffffffffffffffffffffffffffffffffffffff161774010000000000000000000000000000000000000000171660a89190911b75ff00000000000000000000000000000000000000000016178655611c71565b60a01c60ff16600381101561405f578d91908981036140225750505087600d541690813b1561401e576040517fa9059cbb0000000000000000000000000000000000000000000000000000000081526001600160a01b0391909116600482015260248101929092528b908290604490829084905af1801561079057908b91614006575b505090611c7192915b909192388080613ebd565b61400f90614237565b61401a578938613ff2565b8980fd5b8c80fd5b90929193501561403b575b50505090611c719291613ffb565b8280928192828215614056575bf115611e605789388061402d565b506108fc614048565b60248e634e487b7160e01b81526021600452fd5b61407f90989198614237565b9638613e9f565b6044359060ff821682036107b857565b6064359060ff821682036107b857565b6084359060ff821682036107b857565b60031960409101126107b8576004359060243590565b80548210156140e45760005260206000200190600090565b634e487b7160e01b600052603260045260246000fd5b600435906001600160a01b03821682036107b857565b90600282101561411d5752565b634e487b7160e01b600052602160045260246000fd5b90600382101561411d5752565b60208082019080835283518092528060408094019401926000905b83821061416a57505050505090565b9091929394836101a060019288516001600160a01b0380825116835284820151858401528087830151168784015260608181840151169084015260809081830151169083015260a0808201519083015260c08082015115159083015260e080820151908301526141e36101008083015190840190614110565b6141f66101208083015190840190614133565b61014081810151151590830152610160808201519083015261018090810151151590820152019601949392019061415b565b6024359081151582036107b857565b67ffffffffffffffff811161424b57604052565b634e487b7160e01b600052604160045260246000fd5b6101a0810190811067ffffffffffffffff82111761424b57604052565b610160810190811067ffffffffffffffff82111761424b57604052565b6060810190811067ffffffffffffffff82111761424b57604052565b90601f7fffffffffffffffffffffffffffffffffffffffffffffffffffffffffffffffe0910116810190811067ffffffffffffffff82111761424b57604052565b67ffffffffffffffff811161424b5760051b60200190565b81601f820112156107b857803591614327836142f8565b9261433560405194856142b7565b808452602092838086019260051b8201019283116107b8578301905b82821061435f575050505090565b81358152908301908301614351565b6001600160a01b0360015416330361438257565b606460405162461bcd60e51b815260206004820152602060248201527f4f776e61626c653a2063616c6c6572206973206e6f7420746865206f776e65726044820152fd5b60ff16600381036144015750600460005260096020527f8dc18c4ccfd75f5c815b63770fa542fd953e8fef7e0e44bbdd4913470ce7e9cb5490565b600281036144395750600360005260096020527fc575c31fea594a6eb97c8e9d3f9caee4c16218c6ef37e923234c0fe9014a61e75490565b60010361446f57600260005260096020527f6cde3cea4b3a3fb2488b2808bae7556f4a405e50f65e1794383bc026131b13c35490565b6000805260096020527fec8156718a8372b1db44bb411437d0870f3e3790d4a08526d024ce1b0b668f6b5490565b8051156140e45760200190565b8051600110156140e45760400190565b80518210156140e45760209160051b010190565b908160209103126107b857516001600160a01b03811681036107b85790565b60209081818403126107b85780519067ffffffffffffffff82116107b857019180601f840112156107b8578251614523816142f8565b9361453160405195866142b7565b818552838086019260051b8201019283116107b8578301905b828210614558575050505090565b8151815290830190830161454a565b90815180825260208080930193019160005b828110614587575050505090565b83516001600160a01b031685529381019392810192600101614579565b9060009160409283516145b68161429b565b60028152843660208301376001600160a01b0380600b54166145d78361449d565b526004602082600c54168851928380927fad5c46480000000000000000000000000000000000000000000000000000000082525afa9081156147c55784916147e2575b5081614625846144aa565b9116905280600d541681600a5416813b15610ec6578491604483928a5194859384927f095ea7b300000000000000000000000000000000000000000000000000000000845260048401528a60248401525af180156147c5576147cf575b5085805161468f8161429b565b60028152602036910137600c54168551937fd06ca61f0000000000000000000000000000000000000000000000000000000085528060048601528660248601528385806146df6044820187614567565b0381855afa9485156147c557849561479f575b5091839161474c9383614704886144aa565b518a51968795869485937f4a25d94a0000000000000000000000000000000000000000000000000000000085526004850152602484015260a0604484015260a4830190614567565b30606483015242608483015203925af194851561479457506147759394614779575b50506144aa565b5190565b61478c913d8091833e6102da81836142b7565b50388061476e565b51913d9150823e3d90fd5b61474c93919550916147bb85933d8086833e6102da81836142b7565b95919350916146f2565b87513d86823e3d90fd5b6147db90939193614237565b9138614682565b6147fa915060203d811161031a5761030c81836142b7565b3861461a565b906148276060936001600160a01b0392979695978452608060208501526080840190614567565b951660408201520152565b9060409182516148418161429b565b60028152833660208301376001600160a01b0380600c54169085517fad5c4648000000000000000000000000000000000000000000000000000000008152602081600481865afa908115614a03576000916149e5575b50816148a28561449d565b91169052600b54166148b3836144aa565b528480516148c08161429b565b600281526020369101378451927fd06ca61f00000000000000000000000000000000000000000000000000000000845260048401528460248401526000838061490c6044820186614567565b0381845afa9283156149da576000936149b6575b50614975916000916149318561449d565b5161493b866144aa565b519088518096819582947f7ff36ab50000000000000000000000000000000000000000000000000000000084524291309160048601614800565b03925af180156149ab57614775939450614990575b506144aa565b6149a4903d806000833e6102da81836142b7565b503861498a565b84513d6000823e3d90fd5b916149d161497593600093953d8091833e6102da81836142b7565b93915091614920565b85513d6000823e3d90fd5b6149fd915060203d811161031a5761030c81836142b7565b38614897565b87513d6000823e3d90fd5b906040918251614a1d8161429b565b60028152833660208301376001600160a01b0380600c54169085517fad5c4648000000000000000000000000000000000000000000000000000000008152602081600481865afa908115614a0357600091614b86575b5081614a7e8561449d565b91169052600b5416614a8f836144aa565b52848051614a9c8161429b565b600281526020369101378451927fd06ca61f000000000000000000000000000000000000000000000000000000008452600484015284602484015260008380614ae86044820186614567565b0381845afa9283156149da57600093614b62575b50614b4691600091614b0d856144aa565b5187518095819482937f7ff36ab50000000000000000000000000000000000000000000000000000000084524291309160048601614800565b039134905af180156149ab5761477593945061499057506144aa565b91614b7d614b4693600093953d8091833e6102da81836142b7565b93915091614afc565b614b9e915060203d811161031a5761030c81836142b7565b38614a73565b60408051909392614bb48261429b565b60028252843660208401376001600160a01b039081600c54169086517fad5c4648000000000000000000000000000000000000000000000000000000008152602081600481865afa908115614cfa57600091614cdc575b5083614c168661449d565b9116905282600b5416614c28856144aa565b52868051614c358161429b565b600281526020369101378651947fd06ca61f000000000000000000000000000000000000000000000000000000008652600486015286602486015260008580614c816044820188614567565b0381855afa948515614a0357600095614cc1575b50614caf5750614b4691600091600c5416614b0d856144aa565b6000915091614975926149318561449d565b614cd591953d8091833e6102da81836142b7565b9338614c95565b614cf4915060203d811161031a5761030c81836142b7565b38614c0b565b88513d6000823e3d90fd5b15614d0c57565b606460405162461bcd60e51b815260206004820152602060248201527f596f75206172652062616e6e6564206f6e207468697320706c6174666f726d2e6044820152fd5b7fffffffffffffffffffffffffffffffffffffffffffffffffffffffffffffffff8114614d7d5760010190565b634e487b7160e01b600052601160045260246000fd5b600282101561411d5752565b600382101561411d5752565b90600281101561411d5760ff60ff198354169116179055565b90600381101561411d577fffffffffffffffffffffff00ffffffffffffffffffffffffffffffffffffffff74ff000000000000000000000000000000000000000083549260a01b169116179055565b600260005414614e24576002600055565b606460405162461bcd60e51b815260206004820152601f60248201527f5265656e7472616e637947756172643a207265656e7472616e742063616c6c006044820152fd5b15614e6f57565b606460405162461bcd60e51b815260206004820152601460248201527f61646d696e20426c6f636b2054686973204e46540000000000000000000000006044820152fd5b15614eba57565b608460405162461bcd60e51b815260206004820152602560248201527f416e206f776e65722063616e6e6f7420707572636861736520697473206f776e60448201527f204e46542e0000000000000000000000000000000000000000000000000000006064820152fd5b15614f2b57565b606460405162461bcd60e51b815260206004820152601d60248201527f4e6674206973206e6f74206c697374656420746f2070757263686173650000006044820152fd5b15614f7657565b608460405162461bcd60e51b815260206004820152603660248201527f546865206f776e6572206f662074686973206e667420697320626c61636b6c6960448201527f73746564206f6e207468697320706c6174666f726d2e000000000000000000006064820152fd5b15614fe757565b606460405162461bcd60e51b815260206004820152601a60248201527f54686973204e4654206973206e6f742061742061756374696f6e0000000000006044820152fd5b91908201809211614d7d57565b91908203918211614d7d57565b1561504c57565b608460405162461bcd60e51b815260206004820152602660248201527f4e6f7420656e6f75676820657468657220746f20636f7665722061736b696e6760448201527f20707269636500000000000000000000000000000000000000000000000000006064820152fd5b156150bd57565b608460405162461bcd60e51b815260206004820152602960248201527f54686973204e4654206973206e6f74206f6e2061756374696f6e20617420746860448201527f65206d6f6d656e742e00000000000000000000000000000000000000000000006064820152fd5b1561512e57565b606460405162461bcd60e51b815260206004820152601b60248201527f73656c6c65722063616e27742062696420696e2061756374696f6e00000000006044820152fd5b1561517957565b606460405162461bcd60e51b815260206004820152601960248201527f54686973204e46542069732061742061742061756374696f6e000000000000006044820152fd5b156151c457565b606460405162461bcd60e51b815260206004820152601c60248201527f4d696e696d756d206269642068617320746f20626520686967686572000000006044820152fd5b1561520f57565b608460405162461bcd60e51b815260206004820152603c60248201527f596f75206861766520746f2062696420686967686572207468616e207468652060448201527f686967686573742062696420746f206d616b6520616e206f66666572000000006064820152fd5b81810292918115918404141715614d7d57565b9060409182519061529c8261429b565b60028252833660208401376001600160a01b039182600b54166152be8261449d565b5282600c54168551927fad5c4648000000000000000000000000000000000000000000000000000000008452602084600481855afa8015614a035761536b9560009586926153ad575b50615311856144aa565b911690528680516153218161429b565b6002815260203691013786518095819482937fd06ca61f00000000000000000000000000000000000000000000000000000000845260048401528960248401526044830190614567565b03915afa9081156153a25761477592935060009161538957506144aa565b61539c913d8091833e6102da81836142b7565b3861498a565b83513d6000823e3d90fd5b6153c691925060203d811161031a5761030c81836142b7565b9038615307565b906040918251906153dd8261429b565b60028252833660208401376001600160a01b039182600c54168551927fad5c4648000000000000000000000000000000000000000000000000000000008452602084600481855afa948515614a035761536b956000958691615463575b50816154458661449d565b91169052600b5416615456846144aa565b528680516153218161429b565b61547b915060203d811161031a5761030c81836142b7565b3861543a565b9061548b826142f8565b60409061549a825191826142b7565b8381527fffffffffffffffffffffffffffffffffffffffffffffffffffffffffffffffe06154c882956142f8565b019160005b8381106154da5750505050565b60209082516154e881614261565b60008152826000818301526000858301526000606083015260006080830152600060a0830152600060c0830152600060e0830152600061010083015260006101208301526000610140830152600061016083015260006101808301528286010152016154cd565b6000526006602052604060002060038101544211908161557a575b501561557557600190565b600090565b60049150015442103861556a56fea2646970667358221220709e0bbb4ba9f758bfffbcb72d6dc0674faae9a423a9143a2564f71ba483acc064736f6c634300081400334f776e61626c653a2063616c6c6572206973206e6f7420746865206f776e6572",
  "linkReferences": {},
  "deployedLinkReferences": {}
}