{
  "_format": "hh-sol-artifact-1",
  "contractName": "ArtiziaMarketplace",
  "sourceName": "contracts/ArtiziaMarketplace.sol",
  "abi": [
    {
      "inputs": [
        {
          "internalType": "address",
          "name": "_token",
          "type": "address"
        }
      ],
      "stateMutability": "nonpayable",
      "type": "constructor"
    },
    {
      "inputs": [],
      "name": "invalidListingType",
      "type": "error"
    },
    {
      "inputs": [],
      "name": "invalidPrice",
      "type": "error"
    },
    {
      "anonymous": false,
      "inputs": [
        {
          "indexed": false,
          "internalType": "address",
          "name": "nftContract",
          "type": "address"
        },
        {
          "indexed": false,
          "internalType": "uint256",
          "name": "tokenId",
          "type": "uint256"
        },
        {
          "indexed": false,
          "internalType": "address",
          "name": "seller",
          "type": "address"
        },
        {
          "indexed": false,
          "internalType": "address",
          "name": "owner",
          "type": "address"
        },
        {
          "indexed": false,
          "internalType": "uint256",
          "name": "price",
          "type": "uint256"
        },
        {
          "indexed": false,
          "internalType": "uint256",
          "name": "collectionId",
          "type": "uint256"
        },
        {
          "indexed": false,
          "internalType": "uint256",
          "name": "listingType",
          "type": "uint256"
        }
      ],
      "name": "NFTListed",
      "type": "event"
    },
    {
      "anonymous": false,
      "inputs": [
        {
          "indexed": false,
          "internalType": "uint256",
          "name": "tokenId",
          "type": "uint256"
        },
        {
          "indexed": false,
          "internalType": "address",
          "name": "seller",
          "type": "address"
        },
        {
          "indexed": false,
          "internalType": "address",
          "name": "buyer",
          "type": "address"
        },
        {
          "indexed": false,
          "internalType": "uint256",
          "name": "price",
          "type": "uint256"
        }
      ],
      "name": "NFTSold",
      "type": "event"
    },
    {
      "anonymous": false,
      "inputs": [
        {
          "indexed": true,
          "internalType": "address",
          "name": "previousOwner",
          "type": "address"
        },
        {
          "indexed": true,
          "internalType": "address",
          "name": "newOwner",
          "type": "address"
        }
      ],
      "name": "OwnershipTransferred",
      "type": "event"
    },
    {
      "anonymous": false,
      "inputs": [
        {
          "indexed": false,
          "internalType": "address[]",
          "name": "fans",
          "type": "address[]"
        }
      ],
      "name": "addedFans",
      "type": "event"
    },
    {
      "anonymous": false,
      "inputs": [
        {
          "indexed": false,
          "internalType": "uint256",
          "name": "tokenId",
          "type": "uint256"
        },
        {
          "indexed": false,
          "internalType": "bool",
          "name": "decision",
          "type": "bool"
        }
      ],
      "name": "approvalUpdate",
      "type": "event"
    },
    {
      "anonymous": false,
      "inputs": [
        {
          "indexed": false,
          "internalType": "uint256",
          "name": "tokenId",
          "type": "uint256"
        },
        {
          "indexed": false,
          "internalType": "address",
          "name": "seller",
          "type": "address"
        },
        {
          "indexed": false,
          "internalType": "uint256",
          "name": "newTime",
          "type": "uint256"
        }
      ],
      "name": "auctionEndTimeIncreased",
      "type": "event"
    },
    {
      "anonymous": false,
      "inputs": [
        {
          "indexed": false,
          "internalType": "uint256",
          "name": "tokenId",
          "type": "uint256"
        },
        {
          "indexed": false,
          "internalType": "address",
          "name": "seller",
          "type": "address"
        },
        {
          "indexed": false,
          "internalType": "address",
          "name": "highestBidder",
          "type": "address"
        },
        {
          "indexed": false,
          "internalType": "uint256",
          "name": "highestBid",
          "type": "uint256"
        }
      ],
      "name": "receivedABid",
      "type": "event"
    },
    {
      "anonymous": false,
      "inputs": [
        {
          "indexed": false,
          "internalType": "address",
          "name": "fan",
          "type": "address"
        }
      ],
      "name": "removeFan",
      "type": "event"
    },
    {
      "stateMutability": "payable",
      "type": "fallback"
    },
    {
      "inputs": [],
      "name": "UNISWAP_ROUTER_ADDRESS",
      "outputs": [
        {
          "internalType": "address",
          "name": "",
          "type": "address"
        }
      ],
      "stateMutability": "view",
      "type": "function"
    },
    {
      "inputs": [],
      "name": "USDT_ADDRESS",
      "outputs": [
        {
          "internalType": "address",
          "name": "",
          "type": "address"
        }
      ],
      "stateMutability": "view",
      "type": "function"
    },
    {
      "inputs": [
        {
          "internalType": "uint256",
          "name": "",
          "type": "uint256"
        }
      ],
      "name": "_idToAuction",
      "outputs": [
        {
          "internalType": "uint256",
          "name": "tokenId",
          "type": "uint256"
        },
        {
          "internalType": "address payable",
          "name": "seller",
          "type": "address"
        },
        {
          "internalType": "uint256",
          "name": "basePrice",
          "type": "uint256"
        },
        {
          "internalType": "uint256",
          "name": "startTime",
          "type": "uint256"
        },
        {
          "internalType": "uint256",
          "name": "endTime",
          "type": "uint256"
        },
        {
          "internalType": "uint256",
          "name": "highestBid",
          "type": "uint256"
        },
        {
          "internalType": "address payable",
          "name": "highestBidder",
          "type": "address"
        },
        {
          "internalType": "enum ArtiziaMarketplace.PaymentMethod",
          "name": "highestBidCurrency",
          "type": "uint8"
        }
      ],
      "stateMutability": "view",
      "type": "function"
    },
    {
      "inputs": [
        {
          "internalType": "uint256",
          "name": "",
          "type": "uint256"
        }
      ],
      "name": "_idToNFT",
      "outputs": [
        {
          "internalType": "address",
          "name": "nftContract",
          "type": "address"
        },
        {
          "internalType": "uint256",
          "name": "tokenId",
          "type": "uint256"
        },
        {
          "internalType": "address payable",
          "name": "firstOwner",
          "type": "address"
        },
        {
          "internalType": "address payable",
          "name": "seller",
          "type": "address"
        },
        {
          "internalType": "address payable",
          "name": "owner",
          "type": "address"
        },
        {
          "internalType": "uint256",
          "name": "price",
          "type": "uint256"
        },
        {
          "internalType": "bool",
          "name": "listed",
          "type": "bool"
        },
        {
          "internalType": "uint256",
          "name": "royaltyPrice",
          "type": "uint256"
        },
        {
          "internalType": "enum ArtiziaMarketplace.ListingType",
          "name": "listingType",
          "type": "uint8"
        },
        {
          "internalType": "enum ArtiziaMarketplace.PaymentMethod",
          "name": "paymentMethod",
          "type": "uint8"
        },
        {
          "internalType": "bool",
          "name": "approve",
          "type": "bool"
        },
        {
          "internalType": "uint256",
          "name": "collectionId",
          "type": "uint256"
        }
      ],
      "stateMutability": "view",
      "type": "function"
    },
    {
      "inputs": [
        {
          "internalType": "uint256",
          "name": "",
          "type": "uint256"
        }
      ],
      "name": "_idToNFT2",
      "outputs": [
        {
          "internalType": "uint256",
          "name": "tokenId",
          "type": "uint256"
        },
        {
          "internalType": "bool",
          "name": "onlyFans",
          "type": "bool"
        },
        {
          "internalType": "uint256",
          "name": "fanDiscountPercent",
          "type": "uint256"
        }
      ],
      "stateMutability": "view",
      "type": "function"
    },
    {
      "inputs": [],
      "name": "_nftCount",
      "outputs": [
        {
          "internalType": "uint256",
          "name": "_value",
          "type": "uint256"
        }
      ],
      "stateMutability": "view",
      "type": "function"
    },
    {
      "inputs": [],
      "name": "_nftsSold",
      "outputs": [
        {
          "internalType": "uint256",
          "name": "_value",
          "type": "uint256"
        }
      ],
      "stateMutability": "view",
      "type": "function"
    },
    {
      "inputs": [
        {
          "internalType": "address[]",
          "name": "fans",
          "type": "address[]"
        }
      ],
      "name": "addFans",
      "outputs": [],
      "stateMutability": "nonpayable",
      "type": "function"
    },
    {
      "inputs": [
        {
          "internalType": "uint256[]",
          "name": "_tokenId",
          "type": "uint256[]"
        },
        {
          "internalType": "bool",
          "name": "_decision",
          "type": "bool"
        }
      ],
      "name": "approveNfts",
      "outputs": [
        {
          "internalType": "bool",
          "name": "",
          "type": "bool"
        }
      ],
      "stateMutability": "nonpayable",
      "type": "function"
    },
    {
      "inputs": [
        {
          "internalType": "address",
          "name": "_user",
          "type": "address"
        }
      ],
      "name": "banUser",
      "outputs": [],
      "stateMutability": "nonpayable",
      "type": "function"
    },
    {
      "inputs": [
        {
          "internalType": "address",
          "name": "",
          "type": "address"
        },
        {
          "internalType": "uint256",
          "name": "",
          "type": "uint256"
        }
      ],
      "name": "bannedNfts",
      "outputs": [
        {
          "internalType": "uint256",
          "name": "",
          "type": "uint256"
        }
      ],
      "stateMutability": "view",
      "type": "function"
    },
    {
      "inputs": [
        {
          "internalType": "address",
          "name": "",
          "type": "address"
        }
      ],
      "name": "bannedUsers",
      "outputs": [
        {
          "internalType": "bool",
          "name": "",
          "type": "bool"
        }
      ],
      "stateMutability": "view",
      "type": "function"
    },
    {
      "inputs": [
        {
          "internalType": "uint256",
          "name": "_tokenId",
          "type": "uint256"
        },
        {
          "internalType": "uint256",
          "name": "_bidCurrency",
          "type": "uint256"
        }
      ],
      "name": "bidInETH",
      "outputs": [],
      "stateMutability": "payable",
      "type": "function"
    },
    {
      "inputs": [
        {
          "internalType": "uint256",
          "name": "_tokenId",
          "type": "uint256"
        },
        {
          "internalType": "uint256",
          "name": "_amount",
          "type": "uint256"
        },
        {
          "internalType": "uint256",
          "name": "_bidCurrency",
          "type": "uint256"
        },
        {
          "internalType": "uint256",
          "name": "_amountInETHInWei",
          "type": "uint256"
        }
      ],
      "name": "bidInUSDT",
      "outputs": [],
      "stateMutability": "payable",
      "type": "function"
    },
    {
      "inputs": [
        {
          "internalType": "address",
          "name": "_nftContract",
          "type": "address"
        },
        {
          "internalType": "uint256",
          "name": "_paymentMethod",
          "type": "uint256"
        },
        {
          "internalType": "uint256",
          "name": "_tokenId",
          "type": "uint256"
        },
        {
          "internalType": "uint8",
          "name": "_sellerPlan",
          "type": "uint8"
        },
        {
          "internalType": "uint8",
          "name": "_buyerPlan",
          "type": "uint8"
        }
      ],
      "name": "buyWithETH",
      "outputs": [],
      "stateMutability": "payable",
      "type": "function"
    },
    {
      "inputs": [
        {
          "internalType": "address",
          "name": "_nftContract",
          "type": "address"
        },
        {
          "internalType": "uint256",
          "name": "_paymentMethod",
          "type": "uint256"
        },
        {
          "internalType": "uint256",
          "name": "_tokenId",
          "type": "uint256"
        },
        {
          "internalType": "uint8",
          "name": "_sellerPlan",
          "type": "uint8"
        },
        {
          "internalType": "uint8",
          "name": "_buyerPlan",
          "type": "uint8"
        },
        {
          "internalType": "uint256",
          "name": "_amount",
          "type": "uint256"
        },
        {
          "internalType": "uint256",
          "name": "_amountInETHInWei",
          "type": "uint256"
        }
      ],
      "name": "buyWithUSDT",
      "outputs": [],
      "stateMutability": "payable",
      "type": "function"
    },
    {
      "inputs": [
        {
          "internalType": "uint256",
          "name": "_tokenId",
          "type": "uint256"
        },
        {
          "internalType": "uint256",
          "name": "_newDiscountPercent",
          "type": "uint256"
        }
      ],
      "name": "changeFanDiscountPercent",
      "outputs": [],
      "stateMutability": "nonpayable",
      "type": "function"
    },
    {
      "inputs": [
        {
          "internalType": "uint256",
          "name": "_tokenId",
          "type": "uint256"
        }
      ],
      "name": "checkFan",
      "outputs": [
        {
          "internalType": "bool",
          "name": "",
          "type": "bool"
        }
      ],
      "stateMutability": "view",
      "type": "function"
    },
    {
      "inputs": [
        {
          "internalType": "address",
          "name": "_nftContract",
          "type": "address"
        },
        {
          "internalType": "uint256",
          "name": "_tokenId",
          "type": "uint256"
        },
        {
          "internalType": "uint8",
          "name": "_sellerPlan",
          "type": "uint8"
        },
        {
          "internalType": "uint8",
          "name": "_buyerPlan",
          "type": "uint8"
        }
      ],
      "name": "closeAuction",
      "outputs": [],
      "stateMutability": "payable",
      "type": "function"
    },
    {
      "inputs": [
        {
          "internalType": "uint256",
          "name": "",
          "type": "uint256"
        },
        {
          "internalType": "uint256",
          "name": "",
          "type": "uint256"
        }
      ],
      "name": "collection",
      "outputs": [
        {
          "internalType": "uint256",
          "name": "",
          "type": "uint256"
        }
      ],
      "stateMutability": "view",
      "type": "function"
    },
    {
      "inputs": [
        {
          "internalType": "address",
          "name": "",
          "type": "address"
        },
        {
          "internalType": "uint256",
          "name": "",
          "type": "uint256"
        }
      ],
      "name": "fanLists",
      "outputs": [
        {
          "internalType": "address",
          "name": "",
          "type": "address"
        }
      ],
      "stateMutability": "view",
      "type": "function"
    },
    {
      "inputs": [
        {
          "internalType": "uint256",
          "name": "_collectionId",
          "type": "uint256"
        }
      ],
      "name": "getCollectionNfts",
      "outputs": [
        {
          "components": [
            {
              "internalType": "address",
              "name": "nftContract",
              "type": "address"
            },
            {
              "internalType": "uint256",
              "name": "tokenId",
              "type": "uint256"
            },
            {
              "internalType": "address payable",
              "name": "firstOwner",
              "type": "address"
            },
            {
              "internalType": "address payable",
              "name": "seller",
              "type": "address"
            },
            {
              "internalType": "address payable",
              "name": "owner",
              "type": "address"
            },
            {
              "internalType": "uint256",
              "name": "price",
              "type": "uint256"
            },
            {
              "internalType": "bool",
              "name": "listed",
              "type": "bool"
            },
            {
              "internalType": "uint256",
              "name": "royaltyPrice",
              "type": "uint256"
            },
            {
              "internalType": "enum ArtiziaMarketplace.ListingType",
              "name": "listingType",
              "type": "uint8"
            },
            {
              "internalType": "enum ArtiziaMarketplace.PaymentMethod",
              "name": "paymentMethod",
              "type": "uint8"
            },
            {
              "internalType": "bool",
              "name": "approve",
              "type": "bool"
            },
            {
              "internalType": "uint256",
              "name": "collectionId",
              "type": "uint256"
            }
          ],
          "internalType": "struct ArtiziaMarketplace.NFT[]",
          "name": "",
          "type": "tuple[]"
        }
      ],
      "stateMutability": "view",
      "type": "function"
    },
    {
      "inputs": [
        {
          "internalType": "address",
          "name": "user",
          "type": "address"
        }
      ],
      "name": "getFans",
      "outputs": [
        {
          "internalType": "address[]",
          "name": "",
          "type": "address[]"
        }
      ],
      "stateMutability": "view",
      "type": "function"
    },
    {
      "inputs": [],
      "name": "getLatestUSDTPrice",
      "outputs": [
        {
          "internalType": "uint256",
          "name": "",
          "type": "uint256"
        }
      ],
      "stateMutability": "view",
      "type": "function"
    },
    {
      "inputs": [],
      "name": "getListedNfts",
      "outputs": [
        {
          "components": [
            {
              "internalType": "address",
              "name": "nftContract",
              "type": "address"
            },
            {
              "internalType": "uint256",
              "name": "tokenId",
              "type": "uint256"
            },
            {
              "internalType": "address payable",
              "name": "firstOwner",
              "type": "address"
            },
            {
              "internalType": "address payable",
              "name": "seller",
              "type": "address"
            },
            {
              "internalType": "address payable",
              "name": "owner",
              "type": "address"
            },
            {
              "internalType": "uint256",
              "name": "price",
              "type": "uint256"
            },
            {
              "internalType": "bool",
              "name": "listed",
              "type": "bool"
            },
            {
              "internalType": "uint256",
              "name": "royaltyPrice",
              "type": "uint256"
            },
            {
              "internalType": "enum ArtiziaMarketplace.ListingType",
              "name": "listingType",
              "type": "uint8"
            },
            {
              "internalType": "enum ArtiziaMarketplace.PaymentMethod",
              "name": "paymentMethod",
              "type": "uint8"
            },
            {
              "internalType": "bool",
              "name": "approve",
              "type": "bool"
            },
            {
              "internalType": "uint256",
              "name": "collectionId",
              "type": "uint256"
            }
          ],
          "internalType": "struct ArtiziaMarketplace.NFT[]",
          "name": "",
          "type": "tuple[]"
        }
      ],
      "stateMutability": "view",
      "type": "function"
    },
    {
      "inputs": [
        {
          "internalType": "address",
          "name": "_user",
          "type": "address"
        }
      ],
      "name": "getMyListedNfts",
      "outputs": [
        {
          "components": [
            {
              "internalType": "address",
              "name": "nftContract",
              "type": "address"
            },
            {
              "internalType": "uint256",
              "name": "tokenId",
              "type": "uint256"
            },
            {
              "internalType": "address payable",
              "name": "firstOwner",
              "type": "address"
            },
            {
              "internalType": "address payable",
              "name": "seller",
              "type": "address"
            },
            {
              "internalType": "address payable",
              "name": "owner",
              "type": "address"
            },
            {
              "internalType": "uint256",
              "name": "price",
              "type": "uint256"
            },
            {
              "internalType": "bool",
              "name": "listed",
              "type": "bool"
            },
            {
              "internalType": "uint256",
              "name": "royaltyPrice",
              "type": "uint256"
            },
            {
              "internalType": "enum ArtiziaMarketplace.ListingType",
              "name": "listingType",
              "type": "uint8"
            },
            {
              "internalType": "enum ArtiziaMarketplace.PaymentMethod",
              "name": "paymentMethod",
              "type": "uint8"
            },
            {
              "internalType": "bool",
              "name": "approve",
              "type": "bool"
            },
            {
              "internalType": "uint256",
              "name": "collectionId",
              "type": "uint256"
            }
          ],
          "internalType": "struct ArtiziaMarketplace.NFT[]",
          "name": "",
          "type": "tuple[]"
        }
      ],
      "stateMutability": "view",
      "type": "function"
    },
    {
      "inputs": [
        {
          "internalType": "address",
          "name": "_user",
          "type": "address"
        }
      ],
      "name": "getMyNfts",
      "outputs": [
        {
          "components": [
            {
              "internalType": "address",
              "name": "nftContract",
              "type": "address"
            },
            {
              "internalType": "uint256",
              "name": "tokenId",
              "type": "uint256"
            },
            {
              "internalType": "address payable",
              "name": "firstOwner",
              "type": "address"
            },
            {
              "internalType": "address payable",
              "name": "seller",
              "type": "address"
            },
            {
              "internalType": "address payable",
              "name": "owner",
              "type": "address"
            },
            {
              "internalType": "uint256",
              "name": "price",
              "type": "uint256"
            },
            {
              "internalType": "bool",
              "name": "listed",
              "type": "bool"
            },
            {
              "internalType": "uint256",
              "name": "royaltyPrice",
              "type": "uint256"
            },
            {
              "internalType": "enum ArtiziaMarketplace.ListingType",
              "name": "listingType",
              "type": "uint8"
            },
            {
              "internalType": "enum ArtiziaMarketplace.PaymentMethod",
              "name": "paymentMethod",
              "type": "uint8"
            },
            {
              "internalType": "bool",
              "name": "approve",
              "type": "bool"
            },
            {
              "internalType": "uint256",
              "name": "collectionId",
              "type": "uint256"
            }
          ],
          "internalType": "struct ArtiziaMarketplace.NFT[]",
          "name": "",
          "type": "tuple[]"
        }
      ],
      "stateMutability": "view",
      "type": "function"
    },
    {
      "inputs": [
        {
          "internalType": "uint256",
          "name": "_tokenId",
          "type": "uint256"
        }
      ],
      "name": "getStatusOfAuction",
      "outputs": [
        {
          "internalType": "bool",
          "name": "",
          "type": "bool"
        }
      ],
      "stateMutability": "view",
      "type": "function"
    },
    {
      "inputs": [
        {
          "internalType": "uint8",
          "name": "level",
          "type": "uint8"
        }
      ],
      "name": "getSubscriptionFee",
      "outputs": [
        {
          "internalType": "uint256",
          "name": "",
          "type": "uint256"
        }
      ],
      "stateMutability": "view",
      "type": "function"
    },
    {
      "inputs": [
        {
          "internalType": "address",
          "name": "_user",
          "type": "address"
        }
      ],
      "name": "getUsersNfts",
      "outputs": [
        {
          "components": [
            {
              "internalType": "address",
              "name": "nftContract",
              "type": "address"
            },
            {
              "internalType": "uint256",
              "name": "tokenId",
              "type": "uint256"
            },
            {
              "internalType": "address payable",
              "name": "firstOwner",
              "type": "address"
            },
            {
              "internalType": "address payable",
              "name": "seller",
              "type": "address"
            },
            {
              "internalType": "address payable",
              "name": "owner",
              "type": "address"
            },
            {
              "internalType": "uint256",
              "name": "price",
              "type": "uint256"
            },
            {
              "internalType": "bool",
              "name": "listed",
              "type": "bool"
            },
            {
              "internalType": "uint256",
              "name": "royaltyPrice",
              "type": "uint256"
            },
            {
              "internalType": "enum ArtiziaMarketplace.ListingType",
              "name": "listingType",
              "type": "uint8"
            },
            {
              "internalType": "enum ArtiziaMarketplace.PaymentMethod",
              "name": "paymentMethod",
              "type": "uint8"
            },
            {
              "internalType": "bool",
              "name": "approve",
              "type": "bool"
            },
            {
              "internalType": "uint256",
              "name": "collectionId",
              "type": "uint256"
            }
          ],
          "internalType": "struct ArtiziaMarketplace.NFT[]",
          "name": "",
          "type": "tuple[]"
        }
      ],
      "stateMutability": "view",
      "type": "function"
    },
    {
      "inputs": [
        {
          "internalType": "address",
          "name": "",
          "type": "address"
        },
        {
          "internalType": "address",
          "name": "",
          "type": "address"
        }
      ],
      "name": "isFan",
      "outputs": [
        {
          "internalType": "bool",
          "name": "",
          "type": "bool"
        }
      ],
      "stateMutability": "view",
      "type": "function"
    },
    {
      "inputs": [
        {
          "internalType": "address",
          "name": "_nftContract",
          "type": "address"
        },
        {
          "internalType": "uint256[]",
          "name": "_tokenId",
          "type": "uint256[]"
        },
        {
          "internalType": "uint256[]",
          "name": "_price",
          "type": "uint256[]"
        },
        {
          "internalType": "uint256[]",
          "name": "_royaltyPrice",
          "type": "uint256[]"
        },
        {
          "internalType": "uint256",
          "name": "_listingType",
          "type": "uint256"
        },
        {
          "internalType": "uint256[]",
          "name": "_startTime",
          "type": "uint256[]"
        },
        {
          "internalType": "uint256[]",
          "name": "_endTime",
          "type": "uint256[]"
        },
        {
          "internalType": "uint256",
          "name": "_collectionId",
          "type": "uint256"
        },
        {
          "internalType": "uint256",
          "name": "_paymentMethod",
          "type": "uint256"
        }
      ],
      "name": "listNft",
      "outputs": [],
      "stateMutability": "payable",
      "type": "function"
    },
    {
      "inputs": [],
      "name": "owner",
      "outputs": [
        {
          "internalType": "address",
          "name": "",
          "type": "address"
        }
      ],
      "stateMutability": "view",
      "type": "function"
    },
    {
      "inputs": [
        {
          "internalType": "address",
          "name": "addressToRemove",
          "type": "address"
        }
      ],
      "name": "removeFans",
      "outputs": [],
      "stateMutability": "nonpayable",
      "type": "function"
    },
    {
      "inputs": [],
      "name": "renounceOwnership",
      "outputs": [],
      "stateMutability": "nonpayable",
      "type": "function"
    },
    {
      "inputs": [
        {
          "internalType": "address",
          "name": "_nftContract",
          "type": "address"
        },
        {
          "internalType": "uint256",
          "name": "_tokenId",
          "type": "uint256"
        },
        {
          "internalType": "uint256",
          "name": "_price",
          "type": "uint256"
        },
        {
          "internalType": "uint256",
          "name": "_listingType",
          "type": "uint256"
        },
        {
          "internalType": "uint256",
          "name": "_startTime",
          "type": "uint256"
        },
        {
          "internalType": "uint256",
          "name": "_endTime",
          "type": "uint256"
        }
      ],
      "name": "resellNft",
      "outputs": [],
      "stateMutability": "nonpayable",
      "type": "function"
    },
    {
      "inputs": [
        {
          "internalType": "enum ArtiziaMarketplace.SubscriptionLevel",
          "name": "",
          "type": "uint8"
        }
      ],
      "name": "subscriptionFees",
      "outputs": [
        {
          "internalType": "uint256",
          "name": "",
          "type": "uint256"
        }
      ],
      "stateMutability": "view",
      "type": "function"
    },
    {
      "inputs": [
        {
          "internalType": "uint256",
          "name": "usdtAmountOut",
          "type": "uint256"
        },
        {
          "internalType": "uint256",
          "name": "meth",
          "type": "uint256"
        }
      ],
      "name": "swapETHForUSDT",
      "outputs": [],
      "stateMutability": "payable",
      "type": "function"
    },
    {
      "inputs": [
        {
          "internalType": "uint256",
          "name": "usdtAmountIn",
          "type": "uint256"
        }
      ],
      "name": "swapUSDTForETH",
      "outputs": [
        {
          "internalType": "uint256",
          "name": "",
          "type": "uint256"
        }
      ],
      "stateMutability": "nonpayable",
      "type": "function"
    },
    {
      "inputs": [
        {
          "internalType": "address",
          "name": "newOwner",
          "type": "address"
        }
      ],
      "name": "transferOwnership",
      "outputs": [],
      "stateMutability": "nonpayable",
      "type": "function"
    },
    {
      "inputs": [
        {
          "internalType": "address",
          "name": "_user",
          "type": "address"
        }
      ],
      "name": "unbanUser",
      "outputs": [],
      "stateMutability": "nonpayable",
      "type": "function"
    },
    {
      "stateMutability": "payable",
      "type": "receive"
    }
  ],
  "bytecode": "0x6080604052600e80546001600160a01b0319908116737a250d5630b4cf539739df2c5dacb4c659f2488d17909155600f805490911673dac17f958d2ee523a2206206994597c13d831ec71790553480156200005957600080fd5b5060405162005f7e38038062005f7e8339810160408190526200007c9162000213565b60016000556200008c3362000113565b600480546001600160a01b03199081163317909155600e546010805483166001600160a01b039283161790556011805491841691909216179055620000d46000609662000165565b620000e26001609662000165565b620000f06002609662000165565b620000fe6003606462000165565b6200010c6004600062000165565b506200025b565b600180546001600160a01b038381166001600160a01b0319831681179093556040519116919082907f8be0079c531659141344cd1fd0a4f28419497f9722a3daafe3b4186f6b6457e090600090a35050565b6200016f620001b2565b80600d600084600481111562000189576200018962000245565b60048111156200019d576200019d62000245565b81526020810191909152604001600020555050565b6001546001600160a01b03163314620002115760405162461bcd60e51b815260206004820181905260248201527f4f776e61626c653a2063616c6c6572206973206e6f7420746865206f776e6572604482015260640160405180910390fd5b565b6000602082840312156200022657600080fd5b81516001600160a01b03811681146200023e57600080fd5b9392505050565b634e487b7160e01b600052602160045260246000fd5b615d13806200026b6000396000f3fe6080604052600436106102325760003560e01c80639a6e94be1161012d578063bbffa07b116100b0578063d6fc3dbd11610077578063d6fc3dbd146107eb578063e4fb2ab21461080b578063ed5a1c0f1461082b578063f2fde38b14610866578063f41dfb1814610886578063f6c1b77a1461089957005b8063bbffa07b14610754578063c189205814610774578063c36ac2d214610794578063d12824f1146107b4578063d6cbb202146107d457005b8063aeb46a1b116100f4578063aeb46a1b146105cb578063b32ac0c6146105f8578063b4fa04121461060b578063b8820d8214610690578063b9e07df1146106a357005b80639a6e94be146104b35780639c7440581461050d5780639ea36e881461052d578063a8ab8c031461057e578063ace5e90e146105ab57005b80635274cff6116101b55780638988d0781161017c5780638988d0781461040b5780638cd410f41461044b5780638d6cb3fb1461046b5780638da5cb5b1461048057806398dd36bf1461049e57005b80635274cff6146103515780635ca11fa31461037e578063715018a61461039e578063719b2188146103b357806379b36943146103d357005b80634348478b116101f95780634348478b146102cb5780634afbcdae146102de5780634d12b695146102fe5780634d3fb8171461031e5780635021b42b1461033e57005b806310d86b1f1461023b57806330221fc51461025b57806331824a491461026e57806331a7a70f146102985780633fa9df4b146102b857005b3661023957005b005b34801561024757600080fd5b50610239610256366004614eb2565b6108b9565b610239610269366004614ee0565b61097f565b34801561027a57600080fd5b506002546102859081565b6040519081526020015b60405180910390f35b3480156102a457600080fd5b506102396102b3366004614fa2565b610f36565b6102396102c63660046150a6565b611171565b6102396102d93660046151a5565b61181d565b3480156102ea57600080fd5b506102856102f93660046151d7565b611d1f565b34801561030a57600080fd5b50610239610319366004614eb2565b611d50565b34801561032a57600080fd5b506102856103393660046151f9565b611d79565b61023961034c366004615214565b611def565b34801561035d57600080fd5b5061037161036c366004614eb2565b6123d7565b60405161028f91906152ba565b34801561038a57600080fd5b506102396103993660046151d7565b6126c7565b3480156103aa57600080fd5b50610239612761565b3480156103bf57600080fd5b506102396103ce366004614eb2565b612775565b3480156103df57600080fd5b50600e546103f3906001600160a01b031681565b6040516001600160a01b03909116815260200161028f565b34801561041757600080fd5b5061043b610426366004614eb2565b600b6020526000908152604090205460ff1681565b604051901515815260200161028f565b34801561045757600080fd5b5061028561046636600461539d565b6128cb565b34801561047757600080fd5b50610371612b88565b34801561048c57600080fd5b506001546001600160a01b03166103f3565b3480156104aa57600080fd5b50610285612da3565b3480156104bf57600080fd5b506104f26104ce36600461539d565b600660205260009081526040902080546001820154600290920154909160ff169083565b6040805193845291151560208401529082015260600161028f565b34801561051957600080fd5b5061043b61052836600461539d565b612e72565b34801561053957600080fd5b5061043b61054836600461539d565b6000908152600560209081526040808320600301546001600160a01b031683526007825280832033845290915290205460ff1690565b34801561058a57600080fd5b5061059e610599366004614eb2565b612eb7565b60405161028f91906153fa565b3480156105b757600080fd5b506102396105c636600461540d565b612f5e565b3480156105d757600080fd5b506102856105e6366004615459565b600d6020526000908152604090205481565b61023961060636600461547a565b613318565b34801561061757600080fd5b5061067c61062636600461539d565b600a60205260009081526040902080546001820154600283015460038401546004850154600586015460069096015494956001600160a01b0394851695939492939192909190811690600160a01b900460ff1688565b60405161028f9897969594939291906154c9565b61023961069e3660046151d7565b613a31565b3480156106af57600080fd5b5061073c6106be36600461539d565b600560208190526000918252604090912080546001820154600283015460038401546004850154958501546006860154600787015460088801546009909801546001600160a01b03978816999698958816979485169690941694929360ff92831693919282811692610100810482169262010000909104909116908c565b60405161028f9c9b9a9998979695949392919061551e565b34801561076057600080fd5b506103f361076f36600461559c565b613d27565b34801561078057600080fd5b50600f546103f3906001600160a01b031681565b3480156107a057600080fd5b506103716107af36600461539d565b613d5f565b3480156107c057600080fd5b506103716107cf366004614eb2565b613f8c565b3480156107e057600080fd5b506003546102859081565b3480156107f757600080fd5b5061043b6108063660046155c8565b6141ef565b34801561081757600080fd5b5061028561082636600461559c565b614432565b34801561083757600080fd5b5061043b61084636600461561e565b600760209081526000928352604080842090915290825290205460ff1681565b34801561087257600080fd5b50610239610881366004614eb2565b61444e565b6102396108943660046151d7565b6144c7565b3480156108a557600080fd5b506103716108b4366004614eb2565b61495f565b6108c1614bc2565b6001600160a01b0381166000908152600b60205260408120805460ff191660011790556108ed60035490565b905060005b8181101561097a576000818152600560205260409020600301546001600160a01b038085169116036109685760008181526005602052604090206004810180546001600160a01b03199081163017909155600382018054909116905560068101805460ff19169055600801805462ff0000191690555b8061097281615662565b9150506108f2565b505050565b600083815260056020526040902060080154839062010000900460ff1615156001146109c65760405162461bcd60e51b81526004016109bd9061567b565b60405180910390fd5b336000908152600b602052604090205460ff16156109f65760405162461bcd60e51b81526004016109bd906156d3565b6109fe614c1c565b600084815260056020526040812090610a1685611d79565b90506000610a2385611d79565b6003840154909150336001600160a01b0390911603610a545760405162461bcd60e51b81526004016109bd90615708565b60038301546001600160a01b03166000908152600b602052604090205460ff1615610a915760405162461bcd60e51b81526004016109bd9061574d565b6000600884015460ff166001811115610aac57610aac615280565b14610ac95760405162461bcd60e51b81526004016109bd906157a3565b600683015460ff161515600114610af25760405162461bcd60e51b81526004016109bd906157da565b6000878152600560209081526040808320600301546001600160a01b0316835260078252808320338085529252822054349060ff16610b8e578560050154341015610b8e5760405162461bcd60e51b815260206004820152602660248201527f4e6f7420656e6f75676820657468657220746f20636f7665722061736b696e6760448201526520707269636560d01b60648201526084016109bd565b600286015460038701546001600160a01b03918216911603610cb357610bb5818686614c75565b610bbf9082615811565b90508a600003610c0f5760038601546040516001600160a01b039091169082156108fc029083906000818181858888f19350505050158015610c05573d6000803e3d6000fd5b5060019250610e18565b6000610c19612da3565b610c239083615824565b9050610c3281620f4240615846565b9050610c3f816000613a31565b601154600388015460405163a9059cbb60e01b81526001600160a01b039283169263a9059cbb92610c7792911690859060040161585d565b600060405180830381600087803b158015610c9157600080fd5b505af1158015610ca5573d6000803e3d6000fd5b505050506001935050610e18565b60008190506000610cc8828960070154614cbb565b9050610cd5838888614c75565b610cdf8284615811565b610ce99190615811565b60028901546040519194506001600160a01b03169082156108fc029083906000818181858888f19350505050158015610d26573d6000803e3d6000fd5b508c600003610d755760038801546040516001600160a01b039091169084156108fc029085906000818181858888f19350505050158015610d6b573d6000803e3d6000fd5b5060019450610e15565b6000610d7f612da3565b610d899085615824565b9050610d9881620f4240615846565b9050610da5816000613a31565b60115460038a015460405163a9059cbb60e01b81526001600160a01b039283169263a9059cbb92610ddd92911690859060040161585d565b600060405180830381600087803b158015610df757600080fd5b505af1158015610e0b573d6000803e3d6000fd5b5050505060019550505b50505b8215610f1e5760018601546040516323b872dd60e01b81526001600160a01b038e16916323b872dd91610e52913091879190600401615876565b600060405180830381600087803b158015610e6c57600080fd5b505af1158015610e80573d6000803e3d6000fd5b50505060018701546003880154604051600080516020615cbe8339815191529350610eb992916001600160a01b0316908690349061589a565b60405180910390a16004860180546001600160a01b0384166001600160a01b031991821617909155600387018054909116905560068601805460ff19169055610f06600280546001019055565b60018601546000908152600660205260408120600201555b505050505050610f2e6001600055565b505050505050565b600081516001600160401b03811115610f5157610f51614f39565b604051908082528060200260200182016040528015610f7a578160200160208202803683370190505b50905060005b8251811015611135576000838281518110610f9d57610f9d6158bf565b6020026020010151905060006001600160a01b0316816001600160a01b031603610ffa57610ff560405180604001604052806013815260200172496e76616c69642066616e206164647265737360681b815250614cda565b611122565b3360009081526007602090815260408083206001600160a01b038516845290915290205460ff161561105f57610ff56040518060400160405280601881526020017720b2323932b9b99034b99030b63932b0b23c9030903330b760411b815250614cda565b3360008181526008602090815260408083208054600180820183559185528385200180546001600160a01b0319166001600160a01b0388169081179091559484526007835281842094845293825291829020805460ff19169093179092558051808201909152601181527011985b881859191959081d1bc81b1a5cdd607a1b918101919091526110ee90614cda565b80838381518110611101576111016158bf565b60200260200101906001600160a01b031690816001600160a01b0316815250505b508061112d81615662565b915050610f80565b507fa99d709f8a9c899ba566c9b2515b1715239783ff40126e24d86e081505a7f50e8160405161116591906153fa565b60405180910390a15050565b611179614c1c565b336000908152600b602052604090205460ff16156111a95760405162461bcd60e51b81526004016109bd906156d3565b60005b88518110156118075760008882815181106111c9576111c96158bf565b602002602001015110156111f057604051635a93095360e11b815260040160405180910390fd5b6001861115611212576040516317142a4d60e01b815260040160405180910390fd5b896001600160a01b03166323b872dd33308c8581518110611235576112356158bf565b60200260200101516040518463ffffffff1660e01b815260040161125b93929190615876565b600060405180830381600087803b15801561127557600080fd5b505af1158015611289573d6000803e3d6000fd5b5050505061129b600380546001019055565b6000838152600c6020526040902089518a90839081106112bd576112bd6158bf565b602002602001015190806001815401808255809150506001900390600052602060002001600090919091909150556040518061018001604052808b6001600160a01b031681526020018a8381518110611318576113186158bf565b60200260200101518152602001336001600160a01b03168152602001336001600160a01b03168152602001306001600160a01b03168152602001898381518110611364576113646158bf565b6020026020010151815260200160011515815260200188838151811061138c5761138c6158bf565b602002602001015181526020018760018111156113ab576113ab615280565b60018111156113bc576113bc615280565b81526020018360028111156113d3576113d3615280565b60028111156113e4576113e4615280565b815260200160011515815260200184815250600560008b848151811061140c5761140c6158bf565b6020908102919091018101518252818101929092526040908101600020835181546001600160a01b03199081166001600160a01b039283161783559385015160018084019190915592850151600283018054861691831691909117905560608501516003830180548616918316919091179055608085015160048301805490951691161790925560a0830151600583015560c083015160068301805460ff1990811692151592909217905560e0840151600784015561010084015160088401805491939092919091169083818111156114e7576114e7615280565b021790555061012082015160088201805461ff00191661010083600281111561151257611512615280565b02179055506101408201518160080160026101000a81548160ff021916908315150217905550610160820151816009015590505060405180606001604052808a8381518110611563576115636158bf565b602002602001015181526020016000151581526020016000815250600660008b8481518110611594576115946158bf565b602090810291909101810151825281810192909252604090810160002083518155918301516001808401805460ff1916921515929092179091559201516002909101558603611780576040518061010001604052808a83815181106115fb576115fb6158bf565b60200260200101518152602001336001600160a01b03168152602001898381518110611629576116296158bf565b60200260200101518152602001868381518110611648576116486158bf565b60200260200101518152602001858381518110611667576116676158bf565b602002602001015181526020016000815260200160006001600160a01b0316815260200183600281111561169d5761169d615280565b60028111156116ae576116ae615280565b815250600a60008b84815181106116c7576116c76158bf565b602090810291909101810151825281810192909252604090810160002083518155918301516001830180546001600160a01b03199081166001600160a01b039384161790915591840151600280850191909155606085015160038501556080850151600485015560a0850151600585015560c085015160068501805494851691909316908117835560e0860151936001600160a81b0319161790600160a01b90849081111561177857611778615280565b021790555050505b7f380acab0ee1d651da065961944240ee750b6935ba0edefa78afb1c8e076762868a8a83815181106117b4576117b46158bf565b602002602001015133308c86815181106117d0576117d06158bf565b6020026020010151888c6040516117ed97969594939291906158d5565b60405180910390a1806117ff81615662565b9150506111ac565b506118126001600055565b505050505050505050565b6000848152600a602052604090206003015484904211801561184f57506000818152600a602052604090206004015442105b61186b5760405162461bcd60e51b81526004016109bd90615919565b600085815260056020526040902060080154859062010000900460ff1615156001146118a95760405162461bcd60e51b81526004016109bd9061567b565b336000908152600b602052604090205460ff16156118d95760405162461bcd60e51b81526004016109bd906156d3565b60008681526006602052604081206001015460ff1615611942576000878152600560209081526040808320600301546001600160a01b031683526007825280832033845290915290205460ff166119425760405162461bcd60e51b81526004016109bd90615962565b6000878152600a60205260409020600601546001600160a01b0316611992576000878152600a60205260409020600201548410156119925760405162461bcd60e51b81526004016109bd90615999565b6000878152600a60205260409020600501548410156119c35760405162461bcd60e51b81526004016109bd906159d0565b600160008881526005602052604090206008015460ff1660018111156119eb576119eb615280565b14611a085760405162461bcd60e51b81526004016109bd90615a2d565b60008781526005602052604090206006015460ff161515600114611a3e5760405162461bcd60e51b81526004016109bd906157da565b6011546040516323b872dd60e01b81526001600160a01b03909116906323b872dd90611a7290339030908b90600401615876565b600060405180830381600087803b158015611a8c57600080fd5b505af1158015611aa0573d6000803e3d6000fd5b5050506000888152600a60205260409020600681015460058201549192506001600160a01b0316908115611be25760016006840154600160a01b900460ff166002811115611af057611af0615280565b03611b83576000611aff612da3565b611b099083615824565b9050611b1881620f4240615846565b60115460405163a9059cbb60e01b81529192506001600160a01b03169063a9059cbb90611b4b908690859060040161585d565b600060405180830381600087803b158015611b6557600080fd5b505af1158015611b79573d6000803e3d6000fd5b5050505050611be2565b60006006840154600160a01b900460ff166002811115611ba557611ba5615280565b03611be2576040516001600160a01b0383169082156108fc029083906000818181858888f19350505050158015611be0573d6000803e3d6000fd5b505b600583018790556006830180546001600160a01b03191633179055876002811115611c0f57611c0f615280565b60068401805460ff60a01b1916600160a01b836002811115611c3357611c33615280565b0217905550611c4442610258615a60565b83600401541015611cb95761012c836004016000828254611c659190615a60565b9091555050600183015460048401546040517f8e1cb85d0855921b3c958b068fa707efb7db88099af764dd47f37eef82c3334d92611cb0928e926001600160a01b0390921691615a73565b60405180910390a15b600183810154600685015460058601546040519397507f4307392e6f0e441e74a4982d9fa9ddc49b3cd9d3902a9d3ecab0ad3c60a0acd193611d0b938f936001600160a01b039182169391169161589a565b60405180910390a150505050505050505050565b600c6020528160005260406000208181548110611d3b57600080fd5b90600052602060002001600091509150505481565b611d58614bc2565b6001600160a01b03166000908152600b60205260409020805460ff19169055565b60008160ff16600303611db457600d600060045b6004811115611d9e57611d9e615280565b8152602001908152602001600020549050919050565b8160ff16600203611dca57600d60006003611d8d565b8160ff16600103611de057600d60006002611d8d565b600d600080611d8d565b919050565b600085815260056020526040902060080154859062010000900460ff161515600114611e2d5760405162461bcd60e51b81526004016109bd9061567b565b336000908152600b602052604090205460ff1615611e5d5760405162461bcd60e51b81526004016109bd906156d3565b611e65614c1c565b60008681526005602052604090206003810154336001600160a01b0390911603611ea15760405162461bcd60e51b81526004016109bd90615708565b6000611eac87611d79565b90506000611eb987611d79565b60038401546001600160a01b03166000908152600b602052604090205490915060ff1615611ef95760405162461bcd60e51b81526004016109bd9061574d565b6000600884015460ff166001811115611f1457611f14615280565b14611f315760405162461bcd60e51b81526004016109bd906157a3565b6000898152600560209081526040808320600301546001600160a01b031683526007825280832033845290915281205460ff16611fcc578360050154861015611fcc5760405162461bcd60e51b815260206004820152602760248201527f4e6f7420656e6f75676820616d6f756e7420746f20636f7665722061736b696e6044820152666720707269636560c81b60648201526084016109bd565b6011546040516323b872dd60e01b8152600091339183916001600160a01b0316906323b872dd9061200590859030908f90600401615876565b600060405180830381600087803b15801561201f57600080fd5b505af1158015612033573d6000803e3d6000fd5b50505050600287015460038801546001600160a01b039182169116036121385761205e8a8787614c75565b612068908b615811565b93508d6001036120e557601154600388015460405163a9059cbb60e01b81526001600160a01b039283169263a9059cbb926120aa92911690889060040161585d565b600060405180830381600087803b1580156120c457600080fd5b505af11580156120d8573d6000803e3d6000fd5b50505050600192506122b6565b60006120f0856128cb565b60038901546040519192506001600160a01b03169082156108fc029083906000818181858888f1935050505015801561212d573d6000803e3d6000fd5b5060019350506122b6565b60006121488b8960070154614cbb565b9050612154818c615811565b9150612161828888614c75565b61216b9083615811565b60115460028a015460405163a9059cbb60e01b81529297506001600160a01b039182169263a9059cbb926121a5921690859060040161585d565b600060405180830381600087803b1580156121bf57600080fd5b505af11580156121d3573d6000803e3d6000fd5b505050508e60010361225257601154600389015460405163a9059cbb60e01b81526001600160a01b039283169263a9059cbb9261221792911690899060040161585d565b600060405180830381600087803b15801561223157600080fd5b505af1158015612245573d6000803e3d6000fd5b50505050600193506122b4565b61225b856128cb565b506000612266612da3565b6122709087615846565b60038a01546040519192506001600160a01b03169082156108fc029083906000818181858888f193505050501580156122ad573d6000803e3d6000fd5b5060019450505b505b82156123bc578e6001600160a01b03166323b872dd30848a600101546040518463ffffffff1660e01b81526004016122f093929190615876565b600060405180830381600087803b15801561230a57600080fd5b505af115801561231e573d6000803e3d6000fd5b50505060018801546003890154604051600080516020615cbe833981519152935061235792916001600160a01b03169086908e9061589a565b60405180910390a16004870180546001600160a01b0384166001600160a01b031991821617909155600388018054909116905560068701805460ff191690556123a4600280546001019055565b60018701546000908152600660205260408120600201555b505050505050506123cd6001600055565b5050505050505050565b336000908152600b602052604090205460609060ff161561240a5760405162461bcd60e51b81526004016109bd906156d3565b600061241560035490565b90506000805b828110156124a8576000818152600560205260409020600301546001600160a01b038681169116148015612460575060008181526005602052604090206006015460ff165b8015612483575060008181526005602052604090206008015462010000900460ff165b15612496578161249281615662565b9250505b806124a081615662565b91505061241b565b506000816001600160401b038111156124c3576124c3614f39565b6040519080825280602002602001820160405280156124fc57816020015b6124e9614e30565b8152602001906001900390816124e15790505b5090506000805b848110156126bc576000818152600560205260409020600301546001600160a01b038881169116148015612548575060008181526005602052604090206006015460ff165b801561256b575060008181526005602052604090206008015462010000900460ff165b156126aa5760008181526005602081815260409283902083516101808101855281546001600160a01b039081168252600180840154948301949094526002830154811695820195909552600382015485166060820152600482015490941660808501529182015460a0840152600682015460ff908116151560c0850152600783015460e0850152600883015461010085019291169081111561260f5761260f615280565b600181111561262057612620615280565b81526020016008820160019054906101000a900460ff16600281111561264857612648615280565b600281111561265957612659615280565b8152600882015462010000900460ff16151560208201526009909101546040909101528351849084908110612690576126906158bf565b602002602001018190525081806126a690615662565b9250505b806126b481615662565b915050612503565b509095945050505050565b6000828152600560205260409020600301546001600160a01b0316331461274c5760405162461bcd60e51b815260206004820152603360248201527f4f6e6c7920746865206f776e6572206f6620616e206e66742063616e20736574604482015272103234b9b1b7bab73a32b210383934b1b2b99760691b60648201526084016109bd565b60009182526006602052604090912060020155565b612769614bc2565b6127736000614d1d565b565b336000908152600860205260408120905b815481101561097a57826001600160a01b03168282815481106127ab576127ab6158bf565b6000918252602090912001546001600160a01b0316036128b957815482906127d590600190615811565b815481106127e5576127e56158bf565b9060005260206000200160009054906101000a90046001600160a01b0316828281548110612815576128156158bf565b9060005260206000200160006101000a8154816001600160a01b0302191690836001600160a01b031602179055508180548061285357612853615a92565b6000828152602090819020600019908301810180546001600160a01b03191690559091019091556040516001600160a01b03851681527f89ec8e1c730740239f81b0dfce48eedca9d700bbc36fe56311fe9175c16f64ad910160405180910390a1505050565b806128c381615662565b915050612786565b604080516002808252606082018352600092839291906020830190803683375050600f5482519293506001600160a01b031691839150600090612910576129106158bf565b6001600160a01b03928316602091820292909201810191909152601054604080516315ab88c960e31b81529051919093169263ad5c46489260048083019391928290030181865afa158015612969573d6000803e3d6000fd5b505050506040513d601f19601f8201168201806040525081019061298d9190615aa8565b816001815181106129a0576129a06158bf565b6001600160a01b039283166020918202929092010152601154600e5460405163095ea7b360e01b81529183169263095ea7b3926129e59290911690879060040161585d565b600060405180830381600087803b1580156129ff57600080fd5b505af1158015612a13573d6000803e3d6000fd5b506000925060029150612a239050565b604051908082528060200260200182016040528015612a4c578160200160208202803683370190505b5060105460405163d06ca61f60e01b81529192506001600160a01b03169063d06ca61f90612a809087908690600401615ac5565b600060405180830381865afa158015612a9d573d6000803e3d6000fd5b505050506040513d6000823e601f3d908101601f19168201604052612ac59190810190615ae6565b60105481519192506001600160a01b031690634a25d94a9083906001908110612af057612af06158bf565b6020026020010151868530426040518663ffffffff1660e01b8152600401612b1c959493929190615b6b565b6000604051808303816000875af1158015612b3b573d6000803e3d6000fd5b505050506040513d6000823e601f3d908101601f19168201604052612b639190810190615ae6565b5080600181518110612b7757612b776158bf565b602002602001015192505050919050565b60606000612b9560035490565b90506000612ba260025490565b612bac9083615811565b90506000816001600160401b03811115612bc857612bc8614f39565b604051908082528060200260200182016040528015612c0157816020015b612bee614e30565b815260200190600190039081612be65790505b5090506000805b84811015612d995760008181526005602052604090206006015460ff168015612c48575060008181526005602052604090206008015462010000900460ff165b15612d875760008181526005602081815260409283902083516101808101855281546001600160a01b039081168252600180840154948301949094526002830154811695820195909552600382015485166060820152600482015490941660808501529182015460a0840152600682015460ff908116151560c0850152600783015460e08501526008830154610100850192911690811115612cec57612cec615280565b6001811115612cfd57612cfd615280565b81526020016008820160019054906101000a900460ff166002811115612d2557612d25615280565b6002811115612d3657612d36615280565b8152600882015462010000900460ff16151560208201526009909101546040909101528351849084908110612d6d57612d6d6158bf565b60200260200101819052508180612d8390615662565b9250505b80612d9181615662565b915050612c08565b5090949350505050565b60008073ee9f2375b4bdf6387aa8265dd4fb8f16512a1d4690506000816001600160a01b031663feaf968c6040518163ffffffff1660e01b815260040160a060405180830381865afa158015612dfd573d6000803e3d6000fd5b505050506040513d601f19601f82011682018060405250810190612e219190615bc1565b50505091505060008113612e6c5760405162461bcd60e51b8152602060048201526012602482015271496e76616c6964205553445420707269636560701b60448201526064016109bd565b92915050565b6000818152600a602052604081206003015442118015612ea257506000828152600a602052604090206004015442105b15612eaf57506001919050565b506000919050565b336000908152600b602052604090205460609060ff1615612eea5760405162461bcd60e51b81526004016109bd906156d3565b6001600160a01b03821660009081526008602090815260409182902080548351818402810184019094528084529091830182828015612f5257602002820191906000526020600020905b81546001600160a01b03168152600190910190602001808311612f34575b50505050509050919050565b336000908152600b602052604090205460ff1615612f8e5760405162461bcd60e51b81526004016109bd906156d3565b612f96614c1c565b600085815260056020526040902084612ff15760405162461bcd60e51b815260206004820152601c60248201527f5072696365206d757374206265206174206c656173742031207765690000000060448201526064016109bd565b60408051808201909152600981526837333a1737bbb732b960b91b6020820152600482015461302991906001600160a01b0316614d6f565b6130556040518060400160405280600a81526020016936b9b39739b2b73232b960b11b81525033614d6f565b60048101546001600160a01b031633146130c45760405162461bcd60e51b815260206004820152602a60248201527f4f6e6c7920746865206f776e6572206f6620616e206e66742063616e206c69736044820152693a103a34329037333a1760b11b60648201526084016109bd565b6040516323b872dd60e01b81526001600160a01b038816906323b872dd906130f490339030908b90600401615876565b600060405180830381600087803b15801561310e57600080fd5b505af1158015613122573d6000803e3d6000fd5b5050506003820180546001600160a01b0319908116331790915560048301805490911630179055506005810185905560068101805460ff19166001908117909155849081111561317457613174615280565b60088201805460ff19166001838181111561319157613191615280565b0217905550600184036132bc57604051806101000160405280878152602001336001600160a01b031681526020018681526020018481526020018381526020016000815260200160006001600160a01b031681526020018260080160019054906101000a900460ff16600281111561320b5761320b615280565b90526000878152600a602090815260409182902083518155908301516001820180546001600160a01b03199081166001600160a01b039384161790915592840151600280840191909155606085015160038401556080850151600484015560a0850151600584015560c085015160068401805495861691909316908117835560e086015193946001600160a81b0319161790600160a01b9084908111156132b4576132b4615280565b021790555050505b6132c66002614db8565b7f380acab0ee1d651da065961944240ee750b6935ba0edefa78afb1c8e07676286878733308986600901548a60405161330597969594939291906158d5565b60405180910390a150610f2e6001600055565b600061332383611d79565b9050600061333083611d79565b6000868152600560209081526040808320600a9092528220600681015493945090929091906001600160a01b031661347b576000888152600a60205260409020600101546001600160a01b031633146133e05760405162461bcd60e51b815260206004820152602c60248201527f4f6e6c79207468652073656c6c65722063616e20636c6f73652074686520756e60448201526b39b7b6321030bab1ba34b7b760a11b60648201526084016109bd565b6003830154600480850180546001600160a01b0319166001600160a01b0393841617905560068501805460ff19169055600184810154908601546040516323b872dd60e01b81528d8516946323b872dd9461344094309492169201615876565b600060405180830381600087803b15801561345a57600080fd5b505af115801561346e573d6000803e3d6000fd5b50505050600190506139dd565b6000888152600a60205260409020600601546001600160a01b03163314806134bc57506000888152600a60205260409020600101546001600160a01b031633145b6135295760405162461bcd60e51b815260206004820152603860248201527f4f6e6c792074686520686967686573742062696464657220616e6420746865206044820152771cd95b1b195c8818d85b8818db185a5b481d1a194813919560421b60648201526084016109bd565b6005820154600090808261353b612da3565b6135459084615824565b905061355481620f4240615846565b905060006008880154610100900460ff16600281111561357657613576615280565b036136f35760016006870154600160a01b900460ff16600281111561359d5761359d615280565b036135d65760006135ac612da3565b6135b69085615824565b90506135c581620f4240615846565b90506135d0816128cb565b50839250505b600287015460038801546001600160a01b0391821691160361364a576135fd828a8a614c75565b6136079083615811565b60038801546040519193506001600160a01b03169083156108fc029084906000818181858888f19350505050158015613644573d6000803e3d6000fd5b506138fa565b613658828860070154614cbb565b9350613665828a8a614c75565b61366f8584615811565b6136799190615811565b60028801546040519193506001600160a01b03169085156108fc029086906000818181858888f193505050501580156136b6573d6000803e3d6000fd5b5060038701546040516001600160a01b039091169083156108fc029084906000818181858888f19350505050158015613644573d6000803e3d6000fd5b60016008880154610100900460ff16600281111561371357613713615280565b036138fa5790508060006006870154600160a01b900460ff16600281111561373d5761373d615280565b036137515761374d816001613a31565b8091505b600287015460038801546001600160a01b039182169116036137f357613778828a8a614c75565b6137829083615811565b601154600389015460405163a9059cbb60e01b81529294506001600160a01b039182169263a9059cbb926137bc921690869060040161585d565b600060405180830381600087803b1580156137d657600080fd5b505af11580156137ea573d6000803e3d6000fd5b505050506138fa565b613801828860070154614cbb565b935061380e828a8a614c75565b6138188584615811565b6138229190615811565b601154600389015460405163a9059cbb60e01b81529294506001600160a01b039182169263a9059cbb9261385c921690869060040161585d565b600060405180830381600087803b15801561387657600080fd5b505af115801561388a573d6000803e3d6000fd5b505060115460028a015460405163a9059cbb60e01b81526001600160a01b03928316945063a9059cbb93506138c79290911690889060040161585d565b600060405180830381600087803b1580156138e157600080fd5b505af11580156138f5573d6000803e3d6000fd5b505050505b8461397d578c6001600160a01b03166323b872dd308860060160009054906101000a90046001600160a01b03168a600101546040518463ffffffff1660e01b815260040161394a93929190615876565b600060405180830381600087803b15801561396457600080fd5b505af1158015613978573d6000803e3d6000fd5b505050505b6006868101546004890180546001600160a01b039092166001600160a01b031992831617905560038901805490911690558701805460ff191690556002805460010190555050506001840154600090815260066020526040812060020155505b6001830154600384015460068401546005850154604051600080516020615cbe83398151915294613a1e9490936001600160a01b039182169391169161589a565b60405180910390a1505050505050505050565b6040805160028082526060820183526000926020830190803683375050601054604080516315ab88c960e31b815290519394506001600160a01b039091169263ad5c4648925060048083019260209291908290030181865afa158015613a9b573d6000803e3d6000fd5b505050506040513d601f19601f82011682018060405250810190613abf9190615aa8565b81600081518110613ad257613ad26158bf565b6001600160a01b039283166020918202929092010152600f54825191169082906001908110613b0357613b036158bf565b6001600160a01b03929092166020928302919091018201526040805160028082526060820183526000939192909183019080368337505060105460405163d06ca61f60e01b81529293506001600160a01b03169163d06ca61f9150613b6e9087908690600401615ac5565b600060405180830381865afa158015613b8b573d6000803e3d6000fd5b505050506040513d6000823e601f3d908101601f19168201604052613bb39190810190615ae6565b905082600003613c605760105481516001600160a01b0390911690637ff36ab590349084906001908110613be957613be96158bf565b60200260200101518530426040518663ffffffff1660e01b8152600401613c139493929190615c05565b60006040518083038185885af1158015613c31573d6000803e3d6000fd5b50505050506040513d6000823e601f3d908101601f19168201604052613c5a9190810190615ae6565b50613d21565b6000613c6a612da3565b613c749086615846565b9050613c83620f424082615824565b60105483519192506001600160a01b031690637ff36ab590839085906001908110613cb057613cb06158bf565b60200260200101518630426040518663ffffffff1660e01b8152600401613cda9493929190615c05565b60006040518083038185885af1158015613cf8573d6000803e3d6000fd5b50505050506040513d6000823e601f3d908101601f19168201604052610f2e9190810190615ae6565b50505050565b60086020528160005260406000208181548110613d4357600080fd5b6000918252602090912001546001600160a01b03169150829050565b60606000613d6c60035490565b90506000613d7960025490565b613d839083615811565b90506000816001600160401b03811115613d9f57613d9f614f39565b604051908082528060200260200182016040528015613dd857816020015b613dc5614e30565b815260200190600190039081613dbd5790505b5090506000805b848110156126bc5760008181526005602052604090206006015460ff168015613e18575060008181526005602052604090206009015487145b8015613e3b575060008181526005602052604090206008015462010000900460ff165b15613f7a5760008181526005602081815260409283902083516101808101855281546001600160a01b039081168252600180840154948301949094526002830154811695820195909552600382015485166060820152600482015490941660808501529182015460a0840152600682015460ff908116151560c0850152600783015460e08501526008830154610100850192911690811115613edf57613edf615280565b6001811115613ef057613ef0615280565b81526020016008820160019054906101000a900460ff166002811115613f1857613f18615280565b6002811115613f2957613f29615280565b8152600882015462010000900460ff16151560208201526009909101546040909101528351849084908110613f6057613f606158bf565b60200260200101819052508180613f7690615662565b9250505b80613f8481615662565b915050613ddf565b336000908152600b602052604090205460609060ff1615613fbf5760405162461bcd60e51b81526004016109bd906156d3565b6000613fca60035490565b90506000805b8281101561401c576000818152600560205260409020600301546001600160a01b0380871691160361400a578161400681615662565b9250505b8061401481615662565b915050613fd0565b506000816001600160401b0381111561403757614037614f39565b60405190808252806020026020018201604052801561407057816020015b61405d614e30565b8152602001906001900390816140555790505b5090506000805b848110156126bc576000818152600560205260409020600301546001600160a01b038089169116036141dd5760008181526005602081815260409283902083516101808101855281546001600160a01b039081168252600180840154948301949094526002830154811695820195909552600382015485166060820152600482015490941660808501529182015460a0840152600682015460ff908116151560c0850152600783015460e0850152600883015461010085019291169081111561414257614142615280565b600181111561415357614153615280565b81526020016008820160019054906101000a900460ff16600281111561417b5761417b615280565b600281111561418c5761418c615280565b8152600882015462010000900460ff161515602082015260099091015460409091015283518490849081106141c3576141c36158bf565b602002602001018190525081806141d990615662565b9250505b806141e781615662565b915050614077565b60006141f9614bc2565b6000805b845181101561442957848181518110614218576142186158bf565b602090810291909101810151600081815260059092526040909120600801805462ff000019166201000087158015918202929092179092559193506142825750600160008381526005602052604090206008015460ff16600181111561428057614280615280565b145b156143dd576000828152600a6020526040902060068101546001600160a01b0316156143db57600681015460058201546001600160a01b039091169081156143d85760016006840154600160a01b900460ff1660028111156142e6576142e6615280565b036143795760006142f5612da3565b6142ff9083615824565b905061430e81620f4240615846565b60115460405163a9059cbb60e01b81529192506001600160a01b03169063a9059cbb90614341908690859060040161585d565b600060405180830381600087803b15801561435b57600080fd5b505af115801561436f573d6000803e3d6000fd5b50505050506143d8565b60006006840154600160a01b900460ff16600281111561439b5761439b615280565b036143d8576040516001600160a01b0383169082156108fc029083906000818181858888f193505050501580156143d6573d6000803e3d6000fd5b505b50505b505b6040805183815285151560208201527f6ffa1c2dfe558962660d78387d612607ef3f19ee482f7d51a12634d131e8db6e910160405180910390a18061442181615662565b9150506141fd565b50919392505050565b60096020528160005260406000208181548110611d3b57600080fd5b614456614bc2565b6001600160a01b0381166144bb5760405162461bcd60e51b815260206004820152602660248201527f4f776e61626c653a206e6577206f776e657220697320746865207a65726f206160448201526564647265737360d01b60648201526084016109bd565b6144c481614d1d565b50565b6000828152600a60205260409020600301548290421180156144f957506000818152600a602052604090206004015442105b6145155760405162461bcd60e51b81526004016109bd90615919565b600083815260056020526040902060080154839062010000900460ff1615156001146145535760405162461bcd60e51b81526004016109bd9061567b565b336000908152600b602052604090205460ff16156145835760405162461bcd60e51b81526004016109bd906156d3565b60008481526006602052604081206001015460ff16156145ec576000858152600560209081526040808320600301546001600160a01b031683526007825280832033845290915290205460ff166145ec5760405162461bcd60e51b81526004016109bd90615962565b6000858152600a60205260409020600601546001600160a01b031661463c576000858152600a602052604090206002015434101561463c5760405162461bcd60e51b81526004016109bd90615999565b6000858152600a6020526040902060050154341161466c5760405162461bcd60e51b81526004016109bd906159d0565b600160008681526005602052604090206008015460ff16600181111561469457614694615280565b146146b15760405162461bcd60e51b81526004016109bd90615a2d565b60008581526005602052604090206006015460ff1615156001146146e75760405162461bcd60e51b81526004016109bd906157da565b6000858152600a60205260409020600681015460058201546001600160a01b039091169081156148255760016006840154600160a01b900460ff16600281111561473357614733615280565b036147c6576000614742612da3565b61474c9083615824565b905061475b81620f4240615846565b60115460405163a9059cbb60e01b81529192506001600160a01b03169063a9059cbb9061478e908690859060040161585d565b600060405180830381600087803b1580156147a857600080fd5b505af11580156147bc573d6000803e3d6000fd5b5050505050614825565b60006006840154600160a01b900460ff1660028111156147e8576147e8615280565b03614825576040516001600160a01b0383169082156108fc029083906000818181858888f19350505050158015614823573d6000803e3d6000fd5b505b3460058401556006830180546001600160a01b0319163317905586600281111561485157614851615280565b60068401805460ff60a01b1916600160a01b83600281111561487557614875615280565b021790555061488642610258615a60565b836004015410156148fb5761012c8360040160008282546148a79190615a60565b9091555050600183015460048401546040517f8e1cb85d0855921b3c958b068fa707efb7db88099af764dd47f37eef82c3334d926148f2928c926001600160a01b0390921691615a73565b60405180910390a15b600183810154600685015460058601546040519397507f4307392e6f0e441e74a4982d9fa9ddc49b3cd9d3902a9d3ecab0ad3c60a0acd19361494d938d936001600160a01b039182169391169161589a565b60405180910390a15050505050505050565b336000908152600b602052604090205460609060ff16156149925760405162461bcd60e51b81526004016109bd906156d3565b600061499d60035490565b90506000805b828110156149ef576000818152600560205260409020600401546001600160a01b038087169116036149dd57816149d981615662565b9250505b806149e781615662565b9150506149a3565b506000816001600160401b03811115614a0a57614a0a614f39565b604051908082528060200260200182016040528015614a4357816020015b614a30614e30565b815260200190600190039081614a285790505b5090506000805b848110156126bc576000818152600560205260409020600401546001600160a01b03808916911603614bb05760008181526005602081815260409283902083516101808101855281546001600160a01b039081168252600180840154948301949094526002830154811695820195909552600382015485166060820152600482015490941660808501529182015460a0840152600682015460ff908116151560c0850152600783015460e08501526008830154610100850192911690811115614b1557614b15615280565b6001811115614b2657614b26615280565b81526020016008820160019054906101000a900460ff166002811115614b4e57614b4e615280565b6002811115614b5f57614b5f615280565b8152600882015462010000900460ff16151560208201526009909101546040909101528351849084908110614b9657614b966158bf565b60200260200101819052508180614bac90615662565b9250505b80614bba81615662565b915050614a4a565b6001546001600160a01b031633146127735760405162461bcd60e51b815260206004820181905260248201527f4f776e61626c653a2063616c6c6572206973206e6f7420746865206f776e657260448201526064016109bd565b600260005403614c6e5760405162461bcd60e51b815260206004820152601f60248201527f5265656e7472616e637947756172643a207265656e7472616e742063616c6c0060448201526064016109bd565b6002600055565b600080612710614c858587615846565b614c8f9190615824565b9050612710614c9e8487615846565b614ca89190615824565b614cb29082615a60565b95945050505050565b60006064614cc98385615846565b614cd39190615824565b9392505050565b6144c481604051602401614cee9190615c80565b60408051601f198184030181529190526020810180516001600160e01b031663104c13eb60e21b179052614e0f565b600180546001600160a01b038381166001600160a01b0319831681179093556040519116919082907f8be0079c531659141344cd1fd0a4f28419497f9722a3daafe3b4186f6b6457e090600090a35050565b614db48282604051602401614d85929190615c93565b60408051601f198184030181529190526020810180516001600160e01b031663319af33360e01b179052614e0f565b5050565b805480614e075760405162461bcd60e51b815260206004820152601b60248201527f436f756e7465723a2064656372656d656e74206f766572666c6f77000000000060448201526064016109bd565b600019019055565b60006a636f6e736f6c652e6c6f679050600080835160208501845afa505050565b6040805161018081018252600080825260208201819052918101829052606081018290526080810182905260a0810182905260c0810182905260e081018290529061010082019081526020016000815260006020820181905260409091015290565b6001600160a01b03811681146144c457600080fd5b8035611dea81614e92565b600060208284031215614ec457600080fd5b8135614cd381614e92565b803560ff81168114611dea57600080fd5b600080600080600060a08688031215614ef857600080fd5b8535614f0381614e92565b94506020860135935060408601359250614f1f60608701614ecf565b9150614f2d60808701614ecf565b90509295509295909350565b634e487b7160e01b600052604160045260246000fd5b604051601f8201601f191681016001600160401b0381118282101715614f7757614f77614f39565b604052919050565b60006001600160401b03821115614f9857614f98614f39565b5060051b60200190565b60006020808385031215614fb557600080fd5b82356001600160401b03811115614fcb57600080fd5b8301601f81018513614fdc57600080fd5b8035614fef614fea82614f7f565b614f4f565b81815260059190911b8201830190838101908783111561500e57600080fd5b928401925b8284101561503557833561502681614e92565b82529284019290840190615013565b979650505050505050565b600082601f83011261505157600080fd5b81356020615061614fea83614f7f565b82815260059290921b8401810191818101908684111561508057600080fd5b8286015b8481101561509b5780358352918301918301615084565b509695505050505050565b60008060008060008060008060006101208a8c0312156150c557600080fd5b6150ce8a614ea7565b985060208a01356001600160401b03808211156150ea57600080fd5b6150f68d838e01615040565b995060408c013591508082111561510c57600080fd5b6151188d838e01615040565b985060608c013591508082111561512e57600080fd5b61513a8d838e01615040565b975060808c0135965060a08c013591508082111561515757600080fd5b6151638d838e01615040565b955060c08c013591508082111561517957600080fd5b506151868c828d01615040565b93505060e08a013591506101008a013590509295985092959850929598565b600080600080608085870312156151bb57600080fd5b5050823594602084013594506040840135936060013592509050565b600080604083850312156151ea57600080fd5b50508035926020909101359150565b60006020828403121561520b57600080fd5b614cd382614ecf565b600080600080600080600060e0888a03121561522f57600080fd5b873561523a81614e92565b9650602088013595506040880135945061525660608901614ecf565b935061526460808901614ecf565b925060a0880135915060c0880135905092959891949750929550565b634e487b7160e01b600052602160045260246000fd5b600281106152a6576152a6615280565b9052565b600381106152a6576152a6615280565b602080825282518282018190526000919060409081850190868401855b8281101561539057815180516001600160a01b0390811686528782015188870152868201518116878701526060808301518216908701526080808301519091169086015260a0808201519086015260c08082015115159086015260e080820151908601526101008082015161534e82880182615296565b505061012080820151615363828801826152aa565b505061014081810151151590860152610160908101519085015261018090930192908501906001016152d7565b5091979650505050505050565b6000602082840312156153af57600080fd5b5035919050565b600081518084526020808501945080840160005b838110156153ef5781516001600160a01b0316875295820195908201906001016153ca565b509495945050505050565b602081526000614cd360208301846153b6565b60008060008060008060c0878903121561542657600080fd5b863561543181614e92565b9860208801359850604088013597606081013597506080810135965060a00135945092505050565b60006020828403121561546b57600080fd5b813560058110614cd357600080fd5b6000806000806080858703121561549057600080fd5b843561549b81614e92565b9350602085013592506154b060408601614ecf565b91506154be60608601614ecf565b905092959194509250565b8881526001600160a01b03888116602083015260408201889052606082018790526080820186905260a08201859052831660c0820152610100810161551160e08301846152aa565b9998505050505050505050565b6001600160a01b038d81168252602082018d90528b811660408301528a811660608301528916608082015260a0810188905286151560c082015260e081018690526101808101615572610100830187615296565b6155806101208301866152aa565b92151561014082015261016001529a9950505050505050505050565b600080604083850312156155af57600080fd5b82356155ba81614e92565b946020939093013593505050565b600080604083850312156155db57600080fd5b82356001600160401b038111156155f157600080fd5b6155fd85828601615040565b9250506020830135801515811461561357600080fd5b809150509250929050565b6000806040838503121561563157600080fd5b823561563c81614e92565b9150602083013561561381614e92565b634e487b7160e01b600052601160045260246000fd5b6000600182016156745761567461564c565b5060010190565b60208082526038908201527f54686973204e4654206973206e6f7420617070726f766564207965742066726f6040820152776d207468652061646d696e20666f7220707572636861736560401b606082015260800190565b6020808252818101527f596f75206172652062616e6e6564206f6e207468697320706c6174666f726d2e604082015260600190565b60208082526025908201527f416e206f776e65722063616e6e6f7420707572636861736520697473206f776e6040820152641027232a1760d91b606082015260800190565b60208082526036908201527f546865206f776e6572206f662074686973206e667420697320626c61636b6c6960408201527539ba32b21037b7103a3434b990383630ba3337b9369760511b606082015260800190565b6020808252601a908201527f54686973204e4654206973206e6f742061742061756374696f6e000000000000604082015260600190565b6020808252601d908201527f4e6674206973206e6f74206c697374656420746f207075726368617365000000604082015260600190565b81810381811115612e6c57612e6c61564c565b60008261584157634e487b7160e01b600052601260045260246000fd5b500490565b8082028115828204841417612e6c57612e6c61564c565b6001600160a01b03929092168252602082015260400190565b6001600160a01b039384168152919092166020820152604081019190915260600190565b9384526001600160a01b03928316602085015291166040830152606082015260800190565b634e487b7160e01b600052603260045260246000fd5b6001600160a01b03978816815260208101969096529386166040860152919094166060840152608083019390935260a082019290925260c081019190915260e00190565b60208082526029908201527f54686973204e4654206973206e6f74206f6e2061756374696f6e206174207468604082015268329036b7b6b2b73a1760b91b606082015260800190565b6020808252601b908201527f596f7520617265206e6f7420696e207468652066616e206c6973740000000000604082015260600190565b6020808252601c908201527f4d696e696d756d206269642068617320746f2062652068696768657200000000604082015260600190565b6020808252603c908201527f596f75206861766520746f2062696420686967686572207468616e207468652060408201527f686967686573742062696420746f206d616b6520616e206f6666657200000000606082015260800190565b6020808252601990820152782a3434b99027232a1034b99030ba1030ba1030bab1ba34b7b760391b604082015260600190565b80820180821115612e6c57612e6c61564c565b9283526001600160a01b03919091166020830152604082015260600190565b634e487b7160e01b600052603160045260246000fd5b600060208284031215615aba57600080fd5b8151614cd381614e92565b828152604060208201526000615ade60408301846153b6565b949350505050565b60006020808385031215615af957600080fd5b82516001600160401b03811115615b0f57600080fd5b8301601f81018513615b2057600080fd5b8051615b2e614fea82614f7f565b81815260059190911b82018301908381019087831115615b4d57600080fd5b928401925b8284101561503557835182529284019290840190615b52565b85815284602082015260a060408201526000615b8a60a08301866153b6565b6001600160a01b0394909416606083015250608001529392505050565b805169ffffffffffffffffffff81168114611dea57600080fd5b600080600080600060a08688031215615bd957600080fd5b615be286615ba7565b9450602086015193506040860151925060608601519150614f2d60808701615ba7565b848152608060208201526000615c1e60808301866153b6565b6001600160a01b03949094166040830152506060015292915050565b6000815180845260005b81811015615c6057602081850181015186830182015201615c44565b506000602082860101526020601f19601f83011685010191505092915050565b602081526000614cd36020830184615c3a565b604081526000615ca66040830185615c3a565b905060018060a01b0383166020830152939250505056fe8562eb94748e30bb0071e932744ce902b460c683474fcb3bfd567ffa16b1afb2a2646970667358221220b31af45f8b41732df59c632270e86d1db4ed94e27fd8b476e929520b37b5069664736f6c63430008130033",
  "linkReferences": {},
  "deployedLinkReferences": {}
}