{
  "_format": "hh-sol-artifact-1",
  "contractName": "ArtiziaMarketplace",
  "sourceName": "contracts/ArtiziaMarketplace.sol",
  "abi": [
    {
      "inputs": [
        {
          "internalType": "address",
          "name": "_token",
          "type": "address"
        }
      ],
      "stateMutability": "nonpayable",
      "type": "constructor"
    },
    {
      "inputs": [],
      "name": "invalidListingType",
      "type": "error"
    },
    {
      "inputs": [],
      "name": "invalidPrice",
      "type": "error"
    },
    {
      "anonymous": false,
      "inputs": [
        {
          "indexed": false,
          "internalType": "address",
          "name": "nftContract",
          "type": "address"
        },
        {
          "indexed": false,
          "internalType": "uint256",
          "name": "tokenId",
          "type": "uint256"
        },
        {
          "indexed": false,
          "internalType": "address",
          "name": "seller",
          "type": "address"
        },
        {
          "indexed": false,
          "internalType": "address",
          "name": "owner",
          "type": "address"
        },
        {
          "indexed": false,
          "internalType": "uint256",
          "name": "price",
          "type": "uint256"
        },
        {
          "indexed": false,
          "internalType": "uint256",
          "name": "collectionId",
          "type": "uint256"
        },
        {
          "indexed": false,
          "internalType": "uint256",
          "name": "listingType",
          "type": "uint256"
        }
      ],
      "name": "NFTListed",
      "type": "event"
    },
    {
      "anonymous": false,
      "inputs": [
        {
          "indexed": false,
          "internalType": "uint256",
          "name": "tokenId",
          "type": "uint256"
        },
        {
          "indexed": false,
          "internalType": "address",
          "name": "seller",
          "type": "address"
        },
        {
          "indexed": false,
          "internalType": "address",
          "name": "buyer",
          "type": "address"
        },
        {
          "indexed": false,
          "internalType": "uint256",
          "name": "price",
          "type": "uint256"
        }
      ],
      "name": "NFTSold",
      "type": "event"
    },
    {
      "anonymous": false,
      "inputs": [
        {
          "indexed": true,
          "internalType": "address",
          "name": "previousOwner",
          "type": "address"
        },
        {
          "indexed": true,
          "internalType": "address",
          "name": "newOwner",
          "type": "address"
        }
      ],
      "name": "OwnershipTransferred",
      "type": "event"
    },
    {
      "anonymous": false,
      "inputs": [
        {
          "indexed": false,
          "internalType": "address[]",
          "name": "fans",
          "type": "address[]"
        }
      ],
      "name": "addedFans",
      "type": "event"
    },
    {
      "anonymous": false,
      "inputs": [
        {
          "indexed": false,
          "internalType": "uint256",
          "name": "tokenId",
          "type": "uint256"
        },
        {
          "indexed": false,
          "internalType": "bool",
          "name": "decision",
          "type": "bool"
        }
      ],
      "name": "approvalUpdate",
      "type": "event"
    },
    {
      "anonymous": false,
      "inputs": [
        {
          "indexed": false,
          "internalType": "uint256",
          "name": "tokenId",
          "type": "uint256"
        },
        {
          "indexed": false,
          "internalType": "address",
          "name": "seller",
          "type": "address"
        },
        {
          "indexed": false,
          "internalType": "uint256",
          "name": "newTime",
          "type": "uint256"
        }
      ],
      "name": "auctionEndTimeIncreased",
      "type": "event"
    },
    {
      "anonymous": false,
      "inputs": [
        {
          "indexed": false,
          "internalType": "uint256",
          "name": "tokenId",
          "type": "uint256"
        },
        {
          "indexed": false,
          "internalType": "address",
          "name": "seller",
          "type": "address"
        },
        {
          "indexed": false,
          "internalType": "address",
          "name": "highestBidder",
          "type": "address"
        },
        {
          "indexed": false,
          "internalType": "uint256",
          "name": "highestBid",
          "type": "uint256"
        }
      ],
      "name": "receivedABid",
      "type": "event"
    },
    {
      "anonymous": false,
      "inputs": [
        {
          "indexed": false,
          "internalType": "address",
          "name": "fan",
          "type": "address"
        }
      ],
      "name": "removeFan",
      "type": "event"
    },
    {
      "stateMutability": "payable",
      "type": "fallback"
    },
    {
      "inputs": [],
      "name": "UNISWAP_ROUTER_ADDRESS",
      "outputs": [
        {
          "internalType": "address",
          "name": "",
          "type": "address"
        }
      ],
      "stateMutability": "view",
      "type": "function"
    },
    {
      "inputs": [],
      "name": "USDT_ADDRESS",
      "outputs": [
        {
          "internalType": "address",
          "name": "",
          "type": "address"
        }
      ],
      "stateMutability": "view",
      "type": "function"
    },
    {
      "inputs": [
        {
          "internalType": "uint256",
          "name": "",
          "type": "uint256"
        }
      ],
      "name": "_idToAuction",
      "outputs": [
        {
          "internalType": "uint256",
          "name": "tokenId",
          "type": "uint256"
        },
        {
          "internalType": "address payable",
          "name": "seller",
          "type": "address"
        },
        {
          "internalType": "uint256",
          "name": "basePrice",
          "type": "uint256"
        },
        {
          "internalType": "uint256",
          "name": "startTime",
          "type": "uint256"
        },
        {
          "internalType": "uint256",
          "name": "endTime",
          "type": "uint256"
        },
        {
          "internalType": "uint256",
          "name": "highestBid",
          "type": "uint256"
        },
        {
          "internalType": "address payable",
          "name": "highestBidder",
          "type": "address"
        },
        {
          "internalType": "enum ArtiziaMarketplace.PaymentMethod",
          "name": "highestBidCurrency",
          "type": "uint8"
        }
      ],
      "stateMutability": "view",
      "type": "function"
    },
    {
      "inputs": [
        {
          "internalType": "uint256",
          "name": "",
          "type": "uint256"
        }
      ],
      "name": "_idToNFT",
      "outputs": [
        {
          "internalType": "address",
          "name": "nftContract",
          "type": "address"
        },
        {
          "internalType": "uint256",
          "name": "tokenId",
          "type": "uint256"
        },
        {
          "internalType": "address payable",
          "name": "firstOwner",
          "type": "address"
        },
        {
          "internalType": "address payable",
          "name": "seller",
          "type": "address"
        },
        {
          "internalType": "address payable",
          "name": "owner",
          "type": "address"
        },
        {
          "internalType": "uint256",
          "name": "price",
          "type": "uint256"
        },
        {
          "internalType": "bool",
          "name": "listed",
          "type": "bool"
        },
        {
          "internalType": "uint256",
          "name": "royaltyPrice",
          "type": "uint256"
        },
        {
          "internalType": "enum ArtiziaMarketplace.ListingType",
          "name": "listingType",
          "type": "uint8"
        },
        {
          "internalType": "enum ArtiziaMarketplace.PaymentMethod",
          "name": "paymentMethod",
          "type": "uint8"
        },
        {
          "internalType": "bool",
          "name": "approve",
          "type": "bool"
        },
        {
          "internalType": "uint256",
          "name": "collectionId",
          "type": "uint256"
        }
      ],
      "stateMutability": "view",
      "type": "function"
    },
    {
      "inputs": [
        {
          "internalType": "uint256",
          "name": "",
          "type": "uint256"
        }
      ],
      "name": "_idToNFT2",
      "outputs": [
        {
          "internalType": "uint256",
          "name": "tokenId",
          "type": "uint256"
        },
        {
          "internalType": "bool",
          "name": "onlyFans",
          "type": "bool"
        },
        {
          "internalType": "uint256",
          "name": "fanDiscountPercent",
          "type": "uint256"
        }
      ],
      "stateMutability": "view",
      "type": "function"
    },
    {
      "inputs": [],
      "name": "_nftCount",
      "outputs": [
        {
          "internalType": "uint256",
          "name": "_value",
          "type": "uint256"
        }
      ],
      "stateMutability": "view",
      "type": "function"
    },
    {
      "inputs": [],
      "name": "_nftsSold",
      "outputs": [
        {
          "internalType": "uint256",
          "name": "_value",
          "type": "uint256"
        }
      ],
      "stateMutability": "view",
      "type": "function"
    },
    {
      "inputs": [
        {
          "internalType": "address[]",
          "name": "fans",
          "type": "address[]"
        }
      ],
      "name": "addFans",
      "outputs": [],
      "stateMutability": "nonpayable",
      "type": "function"
    },
    {
      "inputs": [
        {
          "internalType": "uint256[]",
          "name": "_tokenId",
          "type": "uint256[]"
        },
        {
          "internalType": "bool",
          "name": "_decision",
          "type": "bool"
        }
      ],
      "name": "approveNfts",
      "outputs": [
        {
          "internalType": "bool",
          "name": "",
          "type": "bool"
        }
      ],
      "stateMutability": "nonpayable",
      "type": "function"
    },
    {
      "inputs": [
        {
          "internalType": "address",
          "name": "_user",
          "type": "address"
        }
      ],
      "name": "banUser",
      "outputs": [],
      "stateMutability": "nonpayable",
      "type": "function"
    },
    {
      "inputs": [
        {
          "internalType": "address",
          "name": "",
          "type": "address"
        },
        {
          "internalType": "uint256",
          "name": "",
          "type": "uint256"
        }
      ],
      "name": "bannedNfts",
      "outputs": [
        {
          "internalType": "uint256",
          "name": "",
          "type": "uint256"
        }
      ],
      "stateMutability": "view",
      "type": "function"
    },
    {
      "inputs": [
        {
          "internalType": "address",
          "name": "",
          "type": "address"
        }
      ],
      "name": "bannedUsers",
      "outputs": [
        {
          "internalType": "bool",
          "name": "",
          "type": "bool"
        }
      ],
      "stateMutability": "view",
      "type": "function"
    },
    {
      "inputs": [
        {
          "internalType": "uint256",
          "name": "_tokenId",
          "type": "uint256"
        },
        {
          "internalType": "uint256",
          "name": "_bidCurrency",
          "type": "uint256"
        }
      ],
      "name": "bidInETH",
      "outputs": [],
      "stateMutability": "payable",
      "type": "function"
    },
    {
      "inputs": [
        {
          "internalType": "uint256",
          "name": "_tokenId",
          "type": "uint256"
        },
        {
          "internalType": "uint256",
          "name": "_amount",
          "type": "uint256"
        },
        {
          "internalType": "uint256",
          "name": "_bidCurrency",
          "type": "uint256"
        }
      ],
      "name": "bidInUSDT",
      "outputs": [],
      "stateMutability": "payable",
      "type": "function"
    },
    {
      "inputs": [
        {
          "internalType": "address",
          "name": "_nftContract",
          "type": "address"
        },
        {
          "internalType": "uint256",
          "name": "_paymentMethod",
          "type": "uint256"
        },
        {
          "internalType": "uint256",
          "name": "_tokenId",
          "type": "uint256"
        },
        {
          "internalType": "uint8",
          "name": "_sellerPlan",
          "type": "uint8"
        },
        {
          "internalType": "uint8",
          "name": "_buyerPlan",
          "type": "uint8"
        }
      ],
      "name": "buyWithETH",
      "outputs": [],
      "stateMutability": "payable",
      "type": "function"
    },
    {
      "inputs": [
        {
          "internalType": "address",
          "name": "_nftContract",
          "type": "address"
        },
        {
          "internalType": "uint256",
          "name": "_paymentMethod",
          "type": "uint256"
        },
        {
          "internalType": "uint256",
          "name": "_tokenId",
          "type": "uint256"
        },
        {
          "internalType": "uint8",
          "name": "_sellerPlan",
          "type": "uint8"
        },
        {
          "internalType": "uint8",
          "name": "_buyerPlan",
          "type": "uint8"
        },
        {
          "internalType": "uint256",
          "name": "_amount",
          "type": "uint256"
        }
      ],
      "name": "buyWithUSDT",
      "outputs": [],
      "stateMutability": "payable",
      "type": "function"
    },
    {
      "inputs": [
        {
          "internalType": "uint256",
          "name": "_tokenId",
          "type": "uint256"
        },
        {
          "internalType": "uint256",
          "name": "_newDiscountPercent",
          "type": "uint256"
        }
      ],
      "name": "changeFanDiscountPercent",
      "outputs": [],
      "stateMutability": "nonpayable",
      "type": "function"
    },
    {
      "inputs": [],
      "name": "checkBannedOrDeletedUser",
      "outputs": [
        {
          "internalType": "bool",
          "name": "",
          "type": "bool"
        }
      ],
      "stateMutability": "view",
      "type": "function"
    },
    {
      "inputs": [
        {
          "internalType": "uint256",
          "name": "_tokenId",
          "type": "uint256"
        }
      ],
      "name": "checkFan",
      "outputs": [
        {
          "internalType": "bool",
          "name": "",
          "type": "bool"
        }
      ],
      "stateMutability": "view",
      "type": "function"
    },
    {
      "inputs": [
        {
          "internalType": "address",
          "name": "_nftContract",
          "type": "address"
        },
        {
          "internalType": "uint256",
          "name": "_tokenId",
          "type": "uint256"
        },
        {
          "internalType": "uint8",
          "name": "_sellerPlan",
          "type": "uint8"
        },
        {
          "internalType": "uint8",
          "name": "_buyerPlan",
          "type": "uint8"
        }
      ],
      "name": "closeAuction",
      "outputs": [],
      "stateMutability": "payable",
      "type": "function"
    },
    {
      "inputs": [
        {
          "internalType": "uint256",
          "name": "",
          "type": "uint256"
        },
        {
          "internalType": "uint256",
          "name": "",
          "type": "uint256"
        }
      ],
      "name": "collection",
      "outputs": [
        {
          "internalType": "uint256",
          "name": "",
          "type": "uint256"
        }
      ],
      "stateMutability": "view",
      "type": "function"
    },
    {
      "inputs": [
        {
          "internalType": "address",
          "name": "_user",
          "type": "address"
        }
      ],
      "name": "deleteUser",
      "outputs": [],
      "stateMutability": "nonpayable",
      "type": "function"
    },
    {
      "inputs": [
        {
          "internalType": "address",
          "name": "",
          "type": "address"
        }
      ],
      "name": "deletedUsers",
      "outputs": [
        {
          "internalType": "bool",
          "name": "",
          "type": "bool"
        }
      ],
      "stateMutability": "view",
      "type": "function"
    },
    {
      "inputs": [
        {
          "internalType": "address",
          "name": "",
          "type": "address"
        },
        {
          "internalType": "uint256",
          "name": "",
          "type": "uint256"
        }
      ],
      "name": "fanLists",
      "outputs": [
        {
          "internalType": "address",
          "name": "",
          "type": "address"
        }
      ],
      "stateMutability": "view",
      "type": "function"
    },
    {
      "inputs": [
        {
          "internalType": "uint256",
          "name": "_collectionId",
          "type": "uint256"
        }
      ],
      "name": "getCollectionNfts",
      "outputs": [
        {
          "components": [
            {
              "internalType": "address",
              "name": "nftContract",
              "type": "address"
            },
            {
              "internalType": "uint256",
              "name": "tokenId",
              "type": "uint256"
            },
            {
              "internalType": "address payable",
              "name": "firstOwner",
              "type": "address"
            },
            {
              "internalType": "address payable",
              "name": "seller",
              "type": "address"
            },
            {
              "internalType": "address payable",
              "name": "owner",
              "type": "address"
            },
            {
              "internalType": "uint256",
              "name": "price",
              "type": "uint256"
            },
            {
              "internalType": "bool",
              "name": "listed",
              "type": "bool"
            },
            {
              "internalType": "uint256",
              "name": "royaltyPrice",
              "type": "uint256"
            },
            {
              "internalType": "enum ArtiziaMarketplace.ListingType",
              "name": "listingType",
              "type": "uint8"
            },
            {
              "internalType": "enum ArtiziaMarketplace.PaymentMethod",
              "name": "paymentMethod",
              "type": "uint8"
            },
            {
              "internalType": "bool",
              "name": "approve",
              "type": "bool"
            },
            {
              "internalType": "uint256",
              "name": "collectionId",
              "type": "uint256"
            }
          ],
          "internalType": "struct ArtiziaMarketplace.NFT[]",
          "name": "",
          "type": "tuple[]"
        }
      ],
      "stateMutability": "view",
      "type": "function"
    },
    {
      "inputs": [
        {
          "internalType": "address",
          "name": "user",
          "type": "address"
        }
      ],
      "name": "getFans",
      "outputs": [
        {
          "internalType": "address[]",
          "name": "",
          "type": "address[]"
        }
      ],
      "stateMutability": "view",
      "type": "function"
    },
    {
      "inputs": [],
      "name": "getLatestUSDTPrice",
      "outputs": [
        {
          "internalType": "uint256",
          "name": "",
          "type": "uint256"
        }
      ],
      "stateMutability": "view",
      "type": "function"
    },
    {
      "inputs": [],
      "name": "getListedNfts",
      "outputs": [
        {
          "components": [
            {
              "internalType": "address",
              "name": "nftContract",
              "type": "address"
            },
            {
              "internalType": "uint256",
              "name": "tokenId",
              "type": "uint256"
            },
            {
              "internalType": "address payable",
              "name": "firstOwner",
              "type": "address"
            },
            {
              "internalType": "address payable",
              "name": "seller",
              "type": "address"
            },
            {
              "internalType": "address payable",
              "name": "owner",
              "type": "address"
            },
            {
              "internalType": "uint256",
              "name": "price",
              "type": "uint256"
            },
            {
              "internalType": "bool",
              "name": "listed",
              "type": "bool"
            },
            {
              "internalType": "uint256",
              "name": "royaltyPrice",
              "type": "uint256"
            },
            {
              "internalType": "enum ArtiziaMarketplace.ListingType",
              "name": "listingType",
              "type": "uint8"
            },
            {
              "internalType": "enum ArtiziaMarketplace.PaymentMethod",
              "name": "paymentMethod",
              "type": "uint8"
            },
            {
              "internalType": "bool",
              "name": "approve",
              "type": "bool"
            },
            {
              "internalType": "uint256",
              "name": "collectionId",
              "type": "uint256"
            }
          ],
          "internalType": "struct ArtiziaMarketplace.NFT[]",
          "name": "",
          "type": "tuple[]"
        }
      ],
      "stateMutability": "view",
      "type": "function"
    },
    {
      "inputs": [
        {
          "internalType": "address",
          "name": "_user",
          "type": "address"
        }
      ],
      "name": "getMyListedNfts",
      "outputs": [
        {
          "components": [
            {
              "internalType": "address",
              "name": "nftContract",
              "type": "address"
            },
            {
              "internalType": "uint256",
              "name": "tokenId",
              "type": "uint256"
            },
            {
              "internalType": "address payable",
              "name": "firstOwner",
              "type": "address"
            },
            {
              "internalType": "address payable",
              "name": "seller",
              "type": "address"
            },
            {
              "internalType": "address payable",
              "name": "owner",
              "type": "address"
            },
            {
              "internalType": "uint256",
              "name": "price",
              "type": "uint256"
            },
            {
              "internalType": "bool",
              "name": "listed",
              "type": "bool"
            },
            {
              "internalType": "uint256",
              "name": "royaltyPrice",
              "type": "uint256"
            },
            {
              "internalType": "enum ArtiziaMarketplace.ListingType",
              "name": "listingType",
              "type": "uint8"
            },
            {
              "internalType": "enum ArtiziaMarketplace.PaymentMethod",
              "name": "paymentMethod",
              "type": "uint8"
            },
            {
              "internalType": "bool",
              "name": "approve",
              "type": "bool"
            },
            {
              "internalType": "uint256",
              "name": "collectionId",
              "type": "uint256"
            }
          ],
          "internalType": "struct ArtiziaMarketplace.NFT[]",
          "name": "",
          "type": "tuple[]"
        }
      ],
      "stateMutability": "view",
      "type": "function"
    },
    {
      "inputs": [
        {
          "internalType": "address",
          "name": "_user",
          "type": "address"
        }
      ],
      "name": "getMyNfts",
      "outputs": [
        {
          "components": [
            {
              "internalType": "address",
              "name": "nftContract",
              "type": "address"
            },
            {
              "internalType": "uint256",
              "name": "tokenId",
              "type": "uint256"
            },
            {
              "internalType": "address payable",
              "name": "firstOwner",
              "type": "address"
            },
            {
              "internalType": "address payable",
              "name": "seller",
              "type": "address"
            },
            {
              "internalType": "address payable",
              "name": "owner",
              "type": "address"
            },
            {
              "internalType": "uint256",
              "name": "price",
              "type": "uint256"
            },
            {
              "internalType": "bool",
              "name": "listed",
              "type": "bool"
            },
            {
              "internalType": "uint256",
              "name": "royaltyPrice",
              "type": "uint256"
            },
            {
              "internalType": "enum ArtiziaMarketplace.ListingType",
              "name": "listingType",
              "type": "uint8"
            },
            {
              "internalType": "enum ArtiziaMarketplace.PaymentMethod",
              "name": "paymentMethod",
              "type": "uint8"
            },
            {
              "internalType": "bool",
              "name": "approve",
              "type": "bool"
            },
            {
              "internalType": "uint256",
              "name": "collectionId",
              "type": "uint256"
            }
          ],
          "internalType": "struct ArtiziaMarketplace.NFT[]",
          "name": "",
          "type": "tuple[]"
        }
      ],
      "stateMutability": "view",
      "type": "function"
    },
    {
      "inputs": [
        {
          "internalType": "uint256",
          "name": "_tokenId",
          "type": "uint256"
        }
      ],
      "name": "getStatusOfAuction",
      "outputs": [
        {
          "internalType": "bool",
          "name": "",
          "type": "bool"
        }
      ],
      "stateMutability": "view",
      "type": "function"
    },
    {
      "inputs": [
        {
          "internalType": "uint8",
          "name": "level",
          "type": "uint8"
        }
      ],
      "name": "getSubscriptionFee",
      "outputs": [
        {
          "internalType": "uint256",
          "name": "",
          "type": "uint256"
        }
      ],
      "stateMutability": "view",
      "type": "function"
    },
    {
      "inputs": [
        {
          "internalType": "address",
          "name": "_user",
          "type": "address"
        }
      ],
      "name": "getUsersNfts",
      "outputs": [
        {
          "components": [
            {
              "internalType": "address",
              "name": "nftContract",
              "type": "address"
            },
            {
              "internalType": "uint256",
              "name": "tokenId",
              "type": "uint256"
            },
            {
              "internalType": "address payable",
              "name": "firstOwner",
              "type": "address"
            },
            {
              "internalType": "address payable",
              "name": "seller",
              "type": "address"
            },
            {
              "internalType": "address payable",
              "name": "owner",
              "type": "address"
            },
            {
              "internalType": "uint256",
              "name": "price",
              "type": "uint256"
            },
            {
              "internalType": "bool",
              "name": "listed",
              "type": "bool"
            },
            {
              "internalType": "uint256",
              "name": "royaltyPrice",
              "type": "uint256"
            },
            {
              "internalType": "enum ArtiziaMarketplace.ListingType",
              "name": "listingType",
              "type": "uint8"
            },
            {
              "internalType": "enum ArtiziaMarketplace.PaymentMethod",
              "name": "paymentMethod",
              "type": "uint8"
            },
            {
              "internalType": "bool",
              "name": "approve",
              "type": "bool"
            },
            {
              "internalType": "uint256",
              "name": "collectionId",
              "type": "uint256"
            }
          ],
          "internalType": "struct ArtiziaMarketplace.NFT[]",
          "name": "",
          "type": "tuple[]"
        }
      ],
      "stateMutability": "view",
      "type": "function"
    },
    {
      "inputs": [
        {
          "internalType": "address",
          "name": "",
          "type": "address"
        },
        {
          "internalType": "address",
          "name": "",
          "type": "address"
        }
      ],
      "name": "isFan",
      "outputs": [
        {
          "internalType": "bool",
          "name": "",
          "type": "bool"
        }
      ],
      "stateMutability": "view",
      "type": "function"
    },
    {
      "inputs": [
        {
          "internalType": "address",
          "name": "_nftContract",
          "type": "address"
        },
        {
          "internalType": "uint256[]",
          "name": "_tokenId",
          "type": "uint256[]"
        },
        {
          "internalType": "uint256[]",
          "name": "_price",
          "type": "uint256[]"
        },
        {
          "internalType": "uint256[]",
          "name": "_royaltyPrice",
          "type": "uint256[]"
        },
        {
          "internalType": "uint256",
          "name": "_listingType",
          "type": "uint256"
        },
        {
          "internalType": "uint256[]",
          "name": "_startTime",
          "type": "uint256[]"
        },
        {
          "internalType": "uint256[]",
          "name": "_endTime",
          "type": "uint256[]"
        },
        {
          "internalType": "uint256",
          "name": "_collectionId",
          "type": "uint256"
        },
        {
          "internalType": "uint256",
          "name": "_paymentMethod",
          "type": "uint256"
        }
      ],
      "name": "listNft",
      "outputs": [],
      "stateMutability": "payable",
      "type": "function"
    },
    {
      "inputs": [],
      "name": "owner",
      "outputs": [
        {
          "internalType": "address",
          "name": "",
          "type": "address"
        }
      ],
      "stateMutability": "view",
      "type": "function"
    },
    {
      "inputs": [
        {
          "internalType": "address",
          "name": "addressToRemove",
          "type": "address"
        }
      ],
      "name": "removeFans",
      "outputs": [],
      "stateMutability": "nonpayable",
      "type": "function"
    },
    {
      "inputs": [],
      "name": "renounceOwnership",
      "outputs": [],
      "stateMutability": "nonpayable",
      "type": "function"
    },
    {
      "inputs": [
        {
          "internalType": "address",
          "name": "_nftContract",
          "type": "address"
        },
        {
          "internalType": "uint256",
          "name": "_tokenId",
          "type": "uint256"
        },
        {
          "internalType": "uint256",
          "name": "_price",
          "type": "uint256"
        },
        {
          "internalType": "uint256",
          "name": "_listingType",
          "type": "uint256"
        },
        {
          "internalType": "uint256",
          "name": "_startTime",
          "type": "uint256"
        },
        {
          "internalType": "uint256",
          "name": "_endTime",
          "type": "uint256"
        }
      ],
      "name": "resellNft",
      "outputs": [],
      "stateMutability": "nonpayable",
      "type": "function"
    },
    {
      "inputs": [
        {
          "internalType": "enum ArtiziaMarketplace.SubscriptionLevel",
          "name": "",
          "type": "uint8"
        }
      ],
      "name": "subscriptionFees",
      "outputs": [
        {
          "internalType": "uint256",
          "name": "",
          "type": "uint256"
        }
      ],
      "stateMutability": "view",
      "type": "function"
    },
    {
      "inputs": [
        {
          "internalType": "uint256",
          "name": "usdtAmountOut",
          "type": "uint256"
        }
      ],
      "name": "swapETHForUSDT",
      "outputs": [
        {
          "internalType": "uint256",
          "name": "",
          "type": "uint256"
        }
      ],
      "stateMutability": "payable",
      "type": "function"
    },
    {
      "inputs": [
        {
          "internalType": "uint256",
          "name": "usdtAmountIn",
          "type": "uint256"
        }
      ],
      "name": "swapUSDTForETH",
      "outputs": [
        {
          "internalType": "uint256",
          "name": "",
          "type": "uint256"
        }
      ],
      "stateMutability": "nonpayable",
      "type": "function"
    },
    {
      "inputs": [
        {
          "internalType": "address",
          "name": "newOwner",
          "type": "address"
        }
      ],
      "name": "transferOwnership",
      "outputs": [],
      "stateMutability": "nonpayable",
      "type": "function"
    },
    {
      "inputs": [
        {
          "internalType": "address",
          "name": "_user",
          "type": "address"
        }
      ],
      "name": "unbanUser",
      "outputs": [],
      "stateMutability": "nonpayable",
      "type": "function"
    },
    {
      "stateMutability": "payable",
      "type": "receive"
    }
  ],
  "bytecode": "0x6080604052600f80546001600160a01b0319908116737a250d5630b4cf539739df2c5dacb4c659f2488d179091556010805490911673dac17f958d2ee523a2206206994597c13d831ec71790553480156200005957600080fd5b506040516200619b3803806200619b8339810160408190526200007c9162000213565b60016000556200008c3362000113565b600480546001600160a01b03199081163317909155600f546011805483166001600160a01b039283161790556012805491841691909216179055620000d46000609662000165565b620000e26001609662000165565b620000f06002609662000165565b620000fe6003606462000165565b6200010c6004600062000165565b506200025b565b600180546001600160a01b038381166001600160a01b0319831681179093556040519116919082907f8be0079c531659141344cd1fd0a4f28419497f9722a3daafe3b4186f6b6457e090600090a35050565b6200016f620001b2565b80600e600084600481111562000189576200018962000245565b60048111156200019d576200019d62000245565b81526020810191909152604001600020555050565b6001546001600160a01b03163314620002115760405162461bcd60e51b815260206004820181905260248201527f4f776e61626c653a2063616c6c6572206973206e6f7420746865206f776e6572604482015260640160405180910390fd5b565b6000602082840312156200022657600080fd5b81516001600160a01b03811681146200023e57600080fd5b9392505050565b634e487b7160e01b600052602160045260246000fd5b615f30806200026b6000396000f3fe6080604052600436106102535760003560e01c806398dd36bf11610138578063bbffa07b116100b0578063d6fc3dbd11610077578063d6fc3dbd14610871578063e4fb2ab214610891578063ed5a1c0f146108b1578063f2fde38b146108ec578063f41dfb181461090c578063f6c1b77a1461091f57005b8063bbffa07b146107da578063c1892058146107fa578063c36ac2d21461081a578063d12824f11461083a578063d6cbb2021461085a57005b8063ace5e90e116100ff578063ace5e90e14610631578063aeb46a1b14610651578063b32ac0c61461067e578063b4fa041214610691578063b8b3455d14610716578063b9e07df11461072957005b806398dd36bf146105245780639a6e94be146105395780639c744058146105935780639ea36e88146105b3578063a8ab8c031461060457005b80635ca11fa3116101cb57806379b369431161019257806379b36943146104565780638090551e1461048e5780638988d078146104a15780638cd410f4146104d15780638d6cb3fb146104f15780638da5cb5b1461050657005b80635ca11fa3146103be578063715018a6146103de578063719b2188146103f357806373c118811461041357806377ec6a471461042657005b80634afbcdae1161021a5780634afbcdae146102ec5780634d12b6951461030c5780634d3fb8171461032c5780635274cff61461034c5780635674c2e6146103795780635c60f2261461039e57005b806310d86b1f1461025c57806330221fc51461027c57806331824a491461028f57806331a7a70f146102b95780633fa9df4b146102d957005b3661025a57005b005b34801561026857600080fd5b5061025a610277366004614fbb565b61093f565b61025a61028a366004614fe9565b610a05565b34801561029b57600080fd5b506002546102a69081565b6040519081526020015b60405180910390f35b3480156102c557600080fd5b5061025a6102d43660046150ab565b611028565b61025a6102e73660046151af565b611263565b3480156102f857600080fd5b506102a66103073660046152ae565b61193f565b34801561031857600080fd5b5061025a610327366004614fbb565b611970565b34801561033857600080fd5b506102a66103473660046152d0565b611999565b34801561035857600080fd5b5061036c610367366004614fbb565b611a0f565b6040516102b09190615325565b34801561038557600080fd5b5061038e611d2f565b60405190151581526020016102b0565b3480156103aa57600080fd5b5061025a6103b9366004614fbb565b611d6d565b3480156103ca57600080fd5b5061025a6103d93660046152ae565b611d99565b3480156103ea57600080fd5b5061025a611e33565b3480156103ff57600080fd5b5061025a61040e366004614fbb565b611e47565b61025a610421366004615408565b611f9d565b34801561043257600080fd5b5061038e610441366004614fbb565b600c6020526000908152604090205460ff1681565b34801561046257600080fd5b50600f54610476906001600160a01b031681565b6040516001600160a01b0390911681526020016102b0565b6102a661049c366004615469565b612652565b3480156104ad57600080fd5b5061038e6104bc366004614fbb565b600b6020526000908152604090205460ff1681565b3480156104dd57600080fd5b506102a66104ec366004615469565b61289b565b3480156104fd57600080fd5b5061036c612b33565b34801561051257600080fd5b506001546001600160a01b0316610476565b34801561053057600080fd5b506102a6612d7f565b34801561054557600080fd5b50610578610554366004615469565b600660205260009081526040902080546001820154600290920154909160ff169083565b604080519384529115156020840152908201526060016102b0565b34801561059f57600080fd5b5061038e6105ae366004615469565b612e4e565b3480156105bf57600080fd5b5061038e6105ce366004615469565b6000908152600560209081526040808320600301546001600160a01b031683526007825280832033845290915290205460ff1690565b34801561061057600080fd5b5061062461061f366004614fbb565b612e93565b6040516102b091906154c6565b34801561063d57600080fd5b5061025a61064c3660046154d9565b612f3a565b34801561065d57600080fd5b506102a661066c366004615525565b600e6020526000908152604090205481565b61025a61068c366004615546565b6132c0565b34801561069d57600080fd5b506107026106ac366004615469565b600a60205260009081526040902080546001820154600283015460038401546004850154600586015460069096015494956001600160a01b0394851695939492939192909190811690600160a01b900460ff1688565b6040516102b0989796959493929190615595565b61025a6107243660046155ea565b613a1a565b34801561073557600080fd5b506107c2610744366004615469565b600560208190526000918252604090912080546001820154600283015460038401546004850154958501546006860154600787015460088801546009909801546001600160a01b03978816999698958816979485169690941694929360ff92831693919282811692610100810482169262010000909104909116908c565b6040516102b09c9b9a99989796959493929190615616565b3480156107e657600080fd5b506104766107f5366004615694565b613fa8565b34801561080657600080fd5b50601054610476906001600160a01b031681565b34801561082657600080fd5b5061036c610835366004615469565b613fe0565b34801561084657600080fd5b5061036c610855366004614fbb565b61420d565b34801561086657600080fd5b506003546102a69081565b34801561087d57600080fd5b5061038e61088c3660046156c0565b6144a0565b34801561089d57600080fd5b506102a66108ac366004615694565b614554565b3480156108bd57600080fd5b5061038e6108cc366004615716565b600760209081526000928352604080842090915290825290205460ff1681565b3480156108f857600080fd5b5061025a610907366004614fbb565b614570565b61025a61091a3660046152ae565b6145e9565b34801561092b57600080fd5b5061036c61093a366004614fbb565b614ab1565b610947614d14565b6001600160a01b0381166000908152600b60205260408120805460ff1916600117905561097360035490565b905060005b81811015610a00576000818152600560205260409020600301546001600160a01b038085169116036109ee5760008181526005602052604090206004810180546001600160a01b03199081163017909155600382018054909116905560068101805460ff19169055600801805462ff0000191690555b806109f88161575a565b915050610978565b505050565b600083815260056020526040902060080154839062010000900460ff161515600114610a4c5760405162461bcd60e51b8152600401610a4390615773565b60405180910390fd5b336000908152600b602052604090205460ff1615610a7c5760405162461bcd60e51b8152600401610a43906157cb565b336000908152600c602052604090205460ff1615610aac5760405162461bcd60e51b8152600401610a4390615800565b610ab4614d6e565b600084815260056020526040812090610acc85611999565b90506000610ad985611999565b6003840154909150336001600160a01b0390911603610b0a5760405162461bcd60e51b8152600401610a4390615870565b60038301546001600160a01b03166000908152600b602052604090205460ff1615610b475760405162461bcd60e51b8152600401610a43906158b5565b60038301546001600160a01b03166000908152600c602052604090205460ff1615610b845760405162461bcd60e51b8152600401610a439061590b565b6000600884015460ff166001811115610b9f57610b9f6152eb565b14610bbc5760405162461bcd60e51b8152600401610a4390615968565b600683015460ff161515600114610be55760405162461bcd60e51b8152600401610a439061599f565b6000878152600560209081526040808320600301546001600160a01b0316835260078252808320338085529252822054829060ff1615610c6d5760008a815260066020526040902060020154610c3c903490614dc7565b610c4690346159d6565b905080341015610c685760405162461bcd60e51b8152600401610a43906159e9565b610c94565b8560050154341015610c915760405162461bcd60e51b8152600401610a43906159e9565b50345b600286015460038701546001600160a01b03918216911603610dbb57610cbb818686614de6565b610cc590826159d6565b90508a600003610d155760038601546040516001600160a01b039091169082156108fc029083906000818181858888f19350505050158015610d0b573d6000803e3d6000fd5b5060019250610f22565b610d1e81612652565b506000610d29612d7f565b610d339083615a2f565b90506000610d4482620f4240615a2f565b60125460038a015460405163a9059cbb60e01b81529293506001600160a01b039182169263a9059cbb92610d7e9216908590600401615a46565b600060405180830381600087803b158015610d9857600080fd5b505af1158015610dac573d6000803e3d6000fd5b50505050600194505050610f22565b60008190506000610dd0828960070154614dc7565b9050610ddd838888614de6565b610de782846159d6565b610df191906159d6565b60028901546040519194506001600160a01b03169082156108fc029083906000818181858888f19350505050158015610e2e573d6000803e3d6000fd5b508c600003610e7d5760038801546040516001600160a01b039091169084156108fc029085906000818181858888f19350505050158015610e73573d6000803e3d6000fd5b5060019450610f1f565b610e8683612652565b506000610e91612d7f565b610e9b9085615a5f565b90506000610eac82620f4240615a2f565b60125460038c015460405163a9059cbb60e01b81529293506001600160a01b039182169263a9059cbb92610ee69216908590600401615a46565b600060405180830381600087803b158015610f0057600080fd5b505af1158015610f14573d6000803e3d6000fd5b505050506001965050505b50505b82156110105760018601546040516323b872dd60e01b81526001600160a01b038e16916323b872dd91610f5c913091879190600401615a81565b600060405180830381600087803b158015610f7657600080fd5b505af1158015610f8a573d6000803e3d6000fd5b50505060018701546003880154604051600080516020615edb8339815191529350610fc392916001600160a01b03169086903490615aa5565b60405180910390a16004860180546001600160a01b0384166001600160a01b031991821617909155600387018054909116905560068601805460ff19169055611010600280546001019055565b5050505050506110206001600055565b505050505050565b600081516001600160401b0381111561104357611043615042565b60405190808252806020026020018201604052801561106c578160200160208202803683370190505b50905060005b825181101561122757600083828151811061108f5761108f615aca565b6020026020010151905060006001600160a01b0316816001600160a01b0316036110ec576110e760405180604001604052806013815260200172496e76616c69642066616e206164647265737360681b815250614e2c565b611214565b3360009081526007602090815260408083206001600160a01b038516845290915290205460ff1615611151576110e76040518060400160405280601881526020017720b2323932b9b99034b99030b63932b0b23c9030903330b760411b815250614e2c565b3360008181526008602090815260408083208054600180820183559185528385200180546001600160a01b0319166001600160a01b0388169081179091559484526007835281842094845293825291829020805460ff19169093179092558051808201909152601181527011985b881859191959081d1bc81b1a5cdd607a1b918101919091526111e090614e2c565b808383815181106111f3576111f3615aca565b60200260200101906001600160a01b031690816001600160a01b0316815250505b508061121f8161575a565b915050611072565b507fa99d709f8a9c899ba566c9b2515b1715239783ff40126e24d86e081505a7f50e8160405161125791906154c6565b60405180910390a15050565b61126b614d6e565b336000908152600b602052604090205460ff161561129b5760405162461bcd60e51b8152600401610a43906157cb565b336000908152600c602052604090205460ff16156112cb5760405162461bcd60e51b8152600401610a4390615800565b60005b88518110156119295760008882815181106112eb576112eb615aca565b6020026020010151101561131257604051635a93095360e11b815260040160405180910390fd5b6001861115611334576040516317142a4d60e01b815260040160405180910390fd5b896001600160a01b03166323b872dd33308c858151811061135757611357615aca565b60200260200101516040518463ffffffff1660e01b815260040161137d93929190615a81565b600060405180830381600087803b15801561139757600080fd5b505af11580156113ab573d6000803e3d6000fd5b505050506113bd600380546001019055565b6000838152600d6020526040902089518a90839081106113df576113df615aca565b602002602001015190806001815401808255809150506001900390600052602060002001600090919091909150556040518061018001604052808b6001600160a01b031681526020018a838151811061143a5761143a615aca565b60200260200101518152602001336001600160a01b03168152602001336001600160a01b03168152602001306001600160a01b0316815260200189838151811061148657611486615aca565b602002602001015181526020016001151581526020018883815181106114ae576114ae615aca565b602002602001015181526020018760018111156114cd576114cd6152eb565b60018111156114de576114de6152eb565b81526020018360028111156114f5576114f56152eb565b6002811115611506576115066152eb565b815260200160001515815260200184815250600560008b848151811061152e5761152e615aca565b6020908102919091018101518252818101929092526040908101600020835181546001600160a01b03199081166001600160a01b039283161783559385015160018084019190915592850151600283018054861691831691909117905560608501516003830180548616918316919091179055608085015160048301805490951691161790925560a0830151600583015560c083015160068301805460ff1990811692151592909217905560e084015160078401556101008401516008840180549193909291909116908381811115611609576116096152eb565b021790555061012082015160088201805461ff001916610100836002811115611634576116346152eb565b02179055506101408201518160080160026101000a81548160ff021916908315150217905550610160820151816009015590505060405180606001604052808a838151811061168557611685615aca565b602002602001015181526020016000151581526020016000815250600660008b84815181106116b6576116b6615aca565b602090810291909101810151825281810192909252604090810160002083518155918301516001808401805460ff19169215159290921790915592015160029091015586036118a2576040518061010001604052808a838151811061171d5761171d615aca565b60200260200101518152602001336001600160a01b0316815260200189838151811061174b5761174b615aca565b6020026020010151815260200186838151811061176a5761176a615aca565b6020026020010151815260200185838151811061178957611789615aca565b602002602001015181526020016000815260200160006001600160a01b031681526020018360028111156117bf576117bf6152eb565b60028111156117d0576117d06152eb565b815250600a60008b84815181106117e9576117e9615aca565b602090810291909101810151825281810192909252604090810160002083518155918301516001830180546001600160a01b03199081166001600160a01b039384161790915591840151600280850191909155606085015160038501556080850151600485015560a0850151600585015560c085015160068501805494851691909316908117835560e0860151936001600160a81b0319161790600160a01b90849081111561189a5761189a6152eb565b021790555050505b7f380acab0ee1d651da065961944240ee750b6935ba0edefa78afb1c8e076762868a8a83815181106118d6576118d6615aca565b602002602001015133308c86815181106118f2576118f2615aca565b6020026020010151888c60405161190f9796959493929190615ae0565b60405180910390a1806119218161575a565b9150506112ce565b506119346001600055565b505050505050505050565b600d602052816000526040600020818154811061195b57600080fd5b90600052602060002001600091509150505481565b611978614d14565b6001600160a01b03166000908152600b60205260409020805460ff19169055565b60008160ff166003036119d457600e600060045b60048111156119be576119be6152eb565b8152602001908152602001600020549050919050565b8160ff166002036119ea57600e600060036119ad565b8160ff16600103611a0057600e600060026119ad565b600e6000806119ad565b919050565b336000908152600c602052604090205460609060ff1615611a425760405162461bcd60e51b8152600401610a4390615800565b336000908152600b602052604090205460ff1615611a725760405162461bcd60e51b8152600401610a43906157cb565b6000611a7d60035490565b90506000805b82811015611b10576000818152600560205260409020600301546001600160a01b038681169116148015611ac8575060008181526005602052604090206006015460ff165b8015611aeb575060008181526005602052604090206008015462010000900460ff165b15611afe5781611afa8161575a565b9250505b80611b088161575a565b915050611a83565b506000816001600160401b03811115611b2b57611b2b615042565b604051908082528060200260200182016040528015611b6457816020015b611b51614f39565b815260200190600190039081611b495790505b5090506000805b84811015611d24576000818152600560205260409020600301546001600160a01b038881169116148015611bb0575060008181526005602052604090206006015460ff165b8015611bd3575060008181526005602052604090206008015462010000900460ff165b15611d125760008181526005602081815260409283902083516101808101855281546001600160a01b039081168252600180840154948301949094526002830154811695820195909552600382015485166060820152600482015490941660808501529182015460a0840152600682015460ff908116151560c0850152600783015460e08501526008830154610100850192911690811115611c7757611c776152eb565b6001811115611c8857611c886152eb565b81526020016008820160019054906101000a900460ff166002811115611cb057611cb06152eb565b6002811115611cc157611cc16152eb565b8152600882015462010000900460ff16151560208201526009909101546040909101528351849084908110611cf857611cf8615aca565b60200260200101819052508180611d0e9061575a565b9250505b80611d1c8161575a565b915050611b6b565b509095945050505050565b336000908152600b602052604081205460ff1680611d5c5750336000908152600c602052604090205460ff165b15611d675750600190565b50600090565b611d75614d14565b6001600160a01b03166000908152600c60205260409020805460ff19166001179055565b6000828152600560205260409020600301546001600160a01b03163314611e1e5760405162461bcd60e51b815260206004820152603360248201527f4f6e6c7920746865206f776e6572206f6620616e206e66742063616e20736574604482015272103234b9b1b7bab73a32b210383934b1b2b99760691b6064820152608401610a43565b60009182526006602052604090912060020155565b611e3b614d14565b611e456000614e6f565b565b336000908152600860205260408120905b8154811015610a0057826001600160a01b0316828281548110611e7d57611e7d615aca565b6000918252602090912001546001600160a01b031603611f8b5781548290611ea7906001906159d6565b81548110611eb757611eb7615aca565b9060005260206000200160009054906101000a90046001600160a01b0316828281548110611ee757611ee7615aca565b9060005260206000200160006101000a8154816001600160a01b0302191690836001600160a01b0316021790555081805480611f2557611f25615b24565b6000828152602090819020600019908301810180546001600160a01b03191690559091019091556040516001600160a01b03851681527f89ec8e1c730740239f81b0dfce48eedca9d700bbc36fe56311fe9175c16f64ad910160405180910390a1505050565b80611f958161575a565b915050611e58565b600084815260056020526040902060080154849062010000900460ff161515600114611fdb5760405162461bcd60e51b8152600401610a4390615773565b336000908152600b602052604090205460ff161561200b5760405162461bcd60e51b8152600401610a43906157cb565b336000908152600c602052604090205460ff161561203b5760405162461bcd60e51b8152600401610a4390615800565b612043614d6e565b60008581526005602052604090206003810154336001600160a01b039091160361207f5760405162461bcd60e51b8152600401610a4390615870565b6000612089612d7f565b9050600061209687611999565b905060006120a387611999565b905060006120b68764e8d4a51000615a2f565b90506120c28482615a2f565b90506120d6670de0b6b3a764000082615a5f565b60038601546001600160a01b03166000908152600b602052604090205490915060ff16156121165760405162461bcd60e51b8152600401610a43906158b5565b60038501546001600160a01b03166000908152600c602052604090205460ff16156121535760405162461bcd60e51b8152600401610a439061590b565b6000600886015460ff16600181111561216e5761216e6152eb565b1461218b5760405162461bcd60e51b8152600401610a4390615968565b60008a8152600560209081526040808320600301546001600160a01b031683526007825280832033845290915281205460ff16156122115760008b8152600660205260409020600201546121e0908390614dc7565b6121ea90836159d6565b90508082101561220c5760405162461bcd60e51b8152600401610a4390615b3a565b612238565b85600501548210156122355760405162461bcd60e51b8152600401610a4390615b3a565b50805b6000803390506000601260009054906101000a90046001600160a01b03166001600160a01b03166323b872dd33308e6040518463ffffffff1660e01b815260040161228593929190615a81565b600060405180830381600087803b15801561229f57600080fd5b505af11580156122b3573d6000803e3d6000fd5b50505050600289015460038a01546001600160a01b039182169116036123b8576122de8b8888614de6565b6122e8908c6159d6565b93508e6001036123655760125460038a015460405163a9059cbb60e01b81526001600160a01b039283169263a9059cbb9261232a929116908890600401615a46565b600060405180830381600087803b15801561234457600080fd5b505af1158015612358573d6000803e3d6000fd5b5050505060019250612548565b60006123708561289b565b60038b01546040519192506001600160a01b03169082156108fc029083906000818181858888f193505050501580156123ad573d6000803e3d6000fd5b506001935050612548565b60006123c88c8b60070154614dc7565b90506123d4818d6159d6565b91506123e1828989614de6565b6123eb908d6159d6565b60125460028c015460405163a9059cbb60e01b81529297506001600160a01b039182169263a9059cbb926124259216908590600401615a46565b600060405180830381600087803b15801561243f57600080fd5b505af1158015612453573d6000803e3d6000fd5b505050508f6001036124e457600061246e86620f4240615a2f565b60125460038d015460405163a9059cbb60e01b81529293506001600160a01b039182169263a9059cbb926124a89216908590600401615a46565b600060405180830381600087803b1580156124c257600080fd5b505af11580156124d6573d6000803e3d6000fd5b505050506001945050612546565b6124ed8561289b565b5060006124f8612d7f565b6125029087615a2f565b60038c01546040519192506001600160a01b03169082156108fc029083906000818181858888f1935050505015801561253f573d6000803e3d6000fd5b5060019450505b505b8215612636578f6001600160a01b03166323b872dd30848c600101546040518463ffffffff1660e01b815260040161258293929190615a81565b600060405180830381600087803b15801561259c57600080fd5b505af11580156125b0573d6000803e3d6000fd5b50505060018a015460038b0154604051600080516020615edb83398151915293506125e992916001600160a01b03169086908a90615aa5565b60405180910390a16004890180546001600160a01b0384166001600160a01b03199182161790915560038a018054909116905560068901805460ff19169055612636600280546001019055565b5050505050505050506126496001600055565b50505050505050565b604080516002808252606082018352600092839291906020830190803683375050601154604080516315ab88c960e31b815290519394506001600160a01b039091169263ad5c4648925060048083019260209291908290030181865afa1580156126c0573d6000803e3d6000fd5b505050506040513d601f19601f820116820180604052508101906126e49190615b81565b816000815181106126f7576126f7615aca565b6001600160a01b03928316602091820292909201015260105482519116908290600190811061272857612728615aca565b6001600160a01b03929092166020928302919091018201526040805160028082526060820183526000939192909183019080368337505060115460405163d06ca61f60e01b81529293506001600160a01b03169163d06ca61f91506127939087908690600401615b9e565b600060405180830381865afa1580156127b0573d6000803e3d6000fd5b505050506040513d6000823e601f3d908101601f191682016040526127d89190810190615bbf565b60115481519192506001600160a01b031690637ff36ab59034908490600190811061280557612805615aca565b60200260200101518530426040518663ffffffff1660e01b815260040161282f9493929190615c44565b60006040518083038185885af115801561284d573d6000803e3d6000fd5b50505050506040513d6000823e601f3d908101601f191682016040526128769190810190615bbf565b508060018151811061288a5761288a615aca565b602002602001015192505050919050565b60408051600280825260608201835260009283929190602083019080368337505060105482519293506001600160a01b0316918391506000906128e0576128e0615aca565b6001600160a01b03928316602091820292909201810191909152601154604080516315ab88c960e31b81529051919093169263ad5c46489260048083019391928290030181865afa158015612939573d6000803e3d6000fd5b505050506040513d601f19601f8201168201806040525081019061295d9190615b81565b8160018151811061297057612970615aca565b6001600160a01b039283166020918202929092010152601254600f5460405163095ea7b360e01b81529183169263095ea7b3926129b592909116908790600401615a46565b600060405180830381600087803b1580156129cf57600080fd5b505af11580156129e3573d6000803e3d6000fd5b5060009250600291506129f39050565b604051908082528060200260200182016040528015612a1c578160200160208202803683370190505b5060115460405163d06ca61f60e01b81529192506001600160a01b03169063d06ca61f90612a509087908690600401615b9e565b600060405180830381865afa158015612a6d573d6000803e3d6000fd5b505050506040513d6000823e601f3d908101601f19168201604052612a959190810190615bbf565b60115481519192506001600160a01b031690634a25d94a9083906001908110612ac057612ac0615aca565b6020026020010151868530426040518663ffffffff1660e01b8152600401612aec959493929190615c79565b6000604051808303816000875af1158015612b0b573d6000803e3d6000fd5b505050506040513d6000823e601f3d908101601f191682016040526128769190810190615bbf565b336000908152600c602052604090205460609060ff1615612b665760405162461bcd60e51b8152600401610a4390615800565b6000612b7160035490565b90506000612b7e60025490565b612b8890836159d6565b90506000816001600160401b03811115612ba457612ba4615042565b604051908082528060200260200182016040528015612bdd57816020015b612bca614f39565b815260200190600190039081612bc25790505b5090506000805b84811015612d755760008181526005602052604090206006015460ff168015612c24575060008181526005602052604090206008015462010000900460ff165b15612d635760008181526005602081815260409283902083516101808101855281546001600160a01b039081168252600180840154948301949094526002830154811695820195909552600382015485166060820152600482015490941660808501529182015460a0840152600682015460ff908116151560c0850152600783015460e08501526008830154610100850192911690811115612cc857612cc86152eb565b6001811115612cd957612cd96152eb565b81526020016008820160019054906101000a900460ff166002811115612d0157612d016152eb565b6002811115612d1257612d126152eb565b8152600882015462010000900460ff16151560208201526009909101546040909101528351849084908110612d4957612d49615aca565b60200260200101819052508180612d5f9061575a565b9250505b80612d6d8161575a565b915050612be4565b5090935050505090565b60008073ee9f2375b4bdf6387aa8265dd4fb8f16512a1d4690506000816001600160a01b031663feaf968c6040518163ffffffff1660e01b815260040160a060405180830381865afa158015612dd9573d6000803e3d6000fd5b505050506040513d601f19601f82011682018060405250810190612dfd9190615ccf565b50505091505060008113612e485760405162461bcd60e51b8152602060048201526012602482015271496e76616c6964205553445420707269636560701b6044820152606401610a43565b92915050565b6000818152600a602052604081206003015442118015612e7e57506000828152600a602052604090206004015442105b15612e8b57506001919050565b506000919050565b336000908152600c602052604090205460609060ff1615612ec65760405162461bcd60e51b8152600401610a4390615800565b6001600160a01b03821660009081526008602090815260409182902080548351818402810184019094528084529091830182828015612f2e57602002820191906000526020600020905b81546001600160a01b03168152600190910190602001808311612f10575b50505050509050919050565b336000908152600b602052604090205460ff1615612f6a5760405162461bcd60e51b8152600401610a43906157cb565b336000908152600c602052604090205460ff1615612f9a5760405162461bcd60e51b8152600401610a4390615800565b612fa2614d6e565b600085815260056020526040902084612ffd5760405162461bcd60e51b815260206004820152601c60248201527f5072696365206d757374206265206174206c65617374203120776569000000006044820152606401610a43565b60048101546001600160a01b0316331461306c5760405162461bcd60e51b815260206004820152602a60248201527f4f6e6c7920746865206f776e6572206f6620616e206e66742063616e206c69736044820152693a103a34329037333a1760b11b6064820152608401610a43565b6040516323b872dd60e01b81526001600160a01b038816906323b872dd9061309c90339030908b90600401615a81565b600060405180830381600087803b1580156130b657600080fd5b505af11580156130ca573d6000803e3d6000fd5b5050506003820180546001600160a01b0319908116331790915560048301805490911630179055506005810185905560068101805460ff19166001908117909155849081111561311c5761311c6152eb565b60088201805460ff191660018381811115613139576131396152eb565b02179055506001840361326457604051806101000160405280878152602001336001600160a01b031681526020018681526020018481526020018381526020016000815260200160006001600160a01b031681526020018260080160019054906101000a900460ff1660028111156131b3576131b36152eb565b90526000878152600a602090815260409182902083518155908301516001820180546001600160a01b03199081166001600160a01b039384161790915592840151600280840191909155606085015160038401556080850151600484015560a0850151600584015560c085015160068401805495861691909316908117835560e086015193946001600160a81b0319161790600160a01b90849081111561325c5761325c6152eb565b021790555050505b61326e6002614ec1565b7f380acab0ee1d651da065961944240ee750b6935ba0edefa78afb1c8e07676286878733308986600901548a6040516132ad9796959493929190615ae0565b60405180910390a1506110206001600055565b6000838152600a602052604090206004015442116133205760405162461bcd60e51b815260206004820152601a60248201527f41756374696f6e20686173206e6f7420656e646564207965742e0000000000006044820152606401610a43565b600061332b83611999565b9050600061333883611999565b6000868152600a60205260409020600601549091506001600160a01b03161561340e576000858152600a60205260409020600601546001600160a01b031633148061339c57506000858152600a60205260409020600101546001600160a01b031633145b6134095760405162461bcd60e51b815260206004820152603860248201527f4f6e6c792074686520686967686573742062696464657220616e6420746865206044820152771cd95b1b195c8818d85b8818db185a5b481d1a194813919560421b6064820152608401610a43565b61348c565b6000858152600a60205260409020600101546001600160a01b0316331461348c5760405162461bcd60e51b815260206004820152602c60248201527f4f6e6c79207468652073656c6c65722063616e20636c6f73652074686520756e60448201526b39b7b6321030bab1ba34b7b760a11b6064820152608401610a43565b6000858152600560209081526040808320600a90925282206006810154919290916001600160a01b0316613555576003830154600480850180546001600160a01b0319166001600160a01b0393841617905560068501805460ff19169055600184810154908601546040516323b872dd60e01b81528d8516946323b872dd9461351a94309492169201615a81565b600060405180830381600087803b15801561353457600080fd5b505af1158015613548573d6000803e3d6000fd5b50505050600190506139c6565b60058201546000908190816008870154610100900460ff16600281111561357e5761357e6152eb565b036136fb5760016006860154600160a01b900460ff1660028111156135a5576135a56152eb565b036135da5760006135b4612d7f565b6135be9083615a5f565b90506135cd81620f4240615a2f565b506135d78161289b565b50505b600286015460038701546001600160a01b0391821691160361364e57613601818989614de6565b61360b90826159d6565b60038701546040519193506001600160a01b03169083156108fc029084906000818181858888f19350505050158015613648573d6000803e3d6000fd5b50613900565b61366085600501548760070154614dc7565b925061366d818989614de6565b61367784836159d6565b61368191906159d6565b60028701546040519193506001600160a01b03169084156108fc029085906000818181858888f193505050501580156136be573d6000803e3d6000fd5b5060038601546040516001600160a01b039091169083156108fc029084906000818181858888f19350505050158015613648573d6000803e3d6000fd5b60016008870154610100900460ff16600281111561371b5761371b6152eb565b036139005760006006860154600160a01b900460ff166002811115613742576137426152eb565b036137535761375081612652565b90505b600286015460038701546001600160a01b039182169116036137f55761377a818989614de6565b61378490826159d6565b601254600388015460405163a9059cbb60e01b81529294506001600160a01b039182169263a9059cbb926137be9216908690600401615a46565b600060405180830381600087803b1580156137d857600080fd5b505af11580156137ec573d6000803e3d6000fd5b50505050613900565b61380785600501548760070154614dc7565b9250613814818989614de6565b61381e84836159d6565b61382891906159d6565b601254600388015460405163a9059cbb60e01b81529294506001600160a01b039182169263a9059cbb926138629216908690600401615a46565b600060405180830381600087803b15801561387c57600080fd5b505af1158015613890573d6000803e3d6000fd5b5050601254600289015460405163a9059cbb60e01b81526001600160a01b03928316945063a9059cbb93506138cd92909116908790600401615a46565b600060405180830381600087803b1580156138e757600080fd5b505af11580156138fb573d6000803e3d6000fd5b505050505b83613983578b6001600160a01b03166323b872dd308760060160009054906101000a90046001600160a01b031689600101546040518463ffffffff1660e01b815260040161395093929190615a81565b600060405180830381600087803b15801561396a57600080fd5b505af115801561397e573d6000803e3d6000fd5b505050505b6006808601546004880180546001600160a01b0319166001600160a01b039092169190911790558601805460ff191690556139c2600280546001019055565b5050505b6001830154600384015460068401546005850154604051600080516020615edb83398151915294613a079490936001600160a01b0391821693911691615aa5565b60405180910390a1505050505050505050565b6000838152600a6020526040902060030154839042118015613a4c57506000818152600a602052604090206004015442105b613a685760405162461bcd60e51b8152600401610a4390615d13565b600084815260056020526040902060080154849062010000900460ff161515600114613aa65760405162461bcd60e51b8152600401610a4390615773565b336000908152600c602052604090205460ff1615613ad65760405162461bcd60e51b8152600401610a4390615800565b336000908152600b602052604090205460ff1615613b065760405162461bcd60e51b8152600401610a43906157cb565b6000613b10612d7f565b6000878152600660205260408120600101549192509060ff1615613b7d576000878152600560209081526040808320600301546001600160a01b031683526007825280832033845290915290205460ff16613b7d5760405162461bcd60e51b8152600401610a4390615d5c565b6000613b8e8764e8d4a51000615a2f565b9050613b9a8382615a2f565b9050613bae670de0b6b3a764000082615a5f565b6000898152600a60205260409020600601549091506001600160a01b0316613c01576000888152600a6020526040902060020154811015613c015760405162461bcd60e51b8152600401610a4390615d93565b6000888152600a6020526040902060050154811015613c325760405162461bcd60e51b8152600401610a4390615dca565b600160008981526005602052604090206008015460ff166001811115613c5a57613c5a6152eb565b14613c775760405162461bcd60e51b8152600401610a4390615e27565b60008881526005602052604090206006015460ff161515600114613cad5760405162461bcd60e51b8152600401610a439061599f565b6012546040516323b872dd60e01b81526001600160a01b03909116906323b872dd90613ce190339030908c90600401615a81565b600060405180830381600087803b158015613cfb57600080fd5b505af1158015613d0f573d6000803e3d6000fd5b5050506000898152600a60205260409020600681015460058201549192506001600160a01b0316908115613e515760016006840154600160a01b900460ff166002811115613d5f57613d5f6152eb565b03613df2576000613d6e612d7f565b613d789083615a5f565b9050613d8781620f4240615a2f565b60125460405163a9059cbb60e01b81529192506001600160a01b03169063a9059cbb90613dba9086908590600401615a46565b600060405180830381600087803b158015613dd457600080fd5b505af1158015613de8573d6000803e3d6000fd5b5050505050613e51565b60006006840154600160a01b900460ff166002811115613e1457613e146152eb565b03613e51576040516001600160a01b0383169082156108fc029083906000818181858888f19350505050158015613e4f573d6000803e3d6000fd5b505b600583018490556006830180546001600160a01b03191633179055886002811115613e7e57613e7e6152eb565b60068401805460ff60a01b1916600160a01b836002811115613ea257613ea26152eb565b0217905550613eb342610258615e5a565b83600401541015613f285761012c836004016000828254613ed49190615e5a565b9091555050600183015460048401546040517f8e1cb85d0855921b3c958b068fa707efb7db88099af764dd47f37eef82c3334d92613f1f928f926001600160a01b0390921691615e6d565b60405180910390a15b600194507f4307392e6f0e441e74a4982d9fa9ddc49b3cd9d3902a9d3ecab0ad3c60a0acd18b8460010160009054906101000a90046001600160a01b03168560060160009054906101000a90046001600160a01b03168660050154604051613f939493929190615aa5565b60405180910390a15050505050505050505050565b60086020528160005260406000208181548110613fc457600080fd5b6000918252602090912001546001600160a01b03169150829050565b60606000613fed60035490565b90506000613ffa60025490565b61400490836159d6565b90506000816001600160401b0381111561402057614020615042565b60405190808252806020026020018201604052801561405957816020015b614046614f39565b81526020019060019003908161403e5790505b5090506000805b84811015611d245760008181526005602052604090206006015460ff168015614099575060008181526005602052604090206009015487145b80156140bc575060008181526005602052604090206008015462010000900460ff165b156141fb5760008181526005602081815260409283902083516101808101855281546001600160a01b039081168252600180840154948301949094526002830154811695820195909552600382015485166060820152600482015490941660808501529182015460a0840152600682015460ff908116151560c0850152600783015460e08501526008830154610100850192911690811115614160576141606152eb565b6001811115614171576141716152eb565b81526020016008820160019054906101000a900460ff166002811115614199576141996152eb565b60028111156141aa576141aa6152eb565b8152600882015462010000900460ff161515602082015260099091015460409091015283518490849081106141e1576141e1615aca565b602002602001018190525081806141f79061575a565b9250505b806142058161575a565b915050614060565b336000908152600c602052604090205460609060ff16156142405760405162461bcd60e51b8152600401610a4390615800565b336000908152600b602052604090205460ff16156142705760405162461bcd60e51b8152600401610a43906157cb565b600061427b60035490565b90506000805b828110156142cd576000818152600560205260409020600301546001600160a01b038087169116036142bb57816142b78161575a565b9250505b806142c58161575a565b915050614281565b506000816001600160401b038111156142e8576142e8615042565b60405190808252806020026020018201604052801561432157816020015b61430e614f39565b8152602001906001900390816143065790505b5090506000805b84811015611d24576000818152600560205260409020600301546001600160a01b0380891691160361448e5760008181526005602081815260409283902083516101808101855281546001600160a01b039081168252600180840154948301949094526002830154811695820195909552600382015485166060820152600482015490941660808501529182015460a0840152600682015460ff908116151560c0850152600783015460e085015260088301546101008501929116908111156143f3576143f36152eb565b6001811115614404576144046152eb565b81526020016008820160019054906101000a900460ff16600281111561442c5761442c6152eb565b600281111561443d5761443d6152eb565b8152600882015462010000900460ff1615156020820152600990910154604090910152835184908490811061447457614474615aca565b6020026020010181905250818061448a9061575a565b9250505b806144988161575a565b915050614328565b60006144aa614d14565b6000805b8451811015614549578481815181106144c9576144c9615aca565b602090810291909101810151600081815260058352604090819020600801805462ff0000191662010000891515908102919091179091558151838152938401529093507f6ffa1c2dfe558962660d78387d612607ef3f19ee482f7d51a12634d131e8db6e910160405180910390a1806145418161575a565b9150506144ae565b506001949350505050565b6009602052816000526040600020818154811061195b57600080fd5b614578614d14565b6001600160a01b0381166145dd5760405162461bcd60e51b815260206004820152602660248201527f4f776e61626c653a206e6577206f776e657220697320746865207a65726f206160448201526564647265737360d01b6064820152608401610a43565b6145e681614e6f565b50565b6000828152600a602052604090206003015482904211801561461b57506000818152600a602052604090206004015442105b6146375760405162461bcd60e51b8152600401610a4390615d13565b600083815260056020526040902060080154839062010000900460ff1615156001146146755760405162461bcd60e51b8152600401610a4390615773565b336000908152600c602052604090205460ff16156146a55760405162461bcd60e51b8152600401610a4390615800565b336000908152600b602052604090205460ff16156146d55760405162461bcd60e51b8152600401610a43906157cb565b60008481526006602052604081206001015460ff161561473e576000858152600560209081526040808320600301546001600160a01b031683526007825280832033845290915290205460ff1661473e5760405162461bcd60e51b8152600401610a4390615d5c565b6000858152600a60205260409020600601546001600160a01b031661478e576000858152600a602052604090206002015434101561478e5760405162461bcd60e51b8152600401610a4390615d93565b6000858152600a602052604090206005015434116147be5760405162461bcd60e51b8152600401610a4390615dca565b600160008681526005602052604090206008015460ff1660018111156147e6576147e66152eb565b146148035760405162461bcd60e51b8152600401610a4390615e27565b60008581526005602052604090206006015460ff1615156001146148395760405162461bcd60e51b8152600401610a439061599f565b6000858152600a60205260409020600681015460058201546001600160a01b039091169081156149775760016006840154600160a01b900460ff166002811115614885576148856152eb565b03614918576000614894612d7f565b61489e9083615a5f565b90506148ad81620f4240615a2f565b60125460405163a9059cbb60e01b81529192506001600160a01b03169063a9059cbb906148e09086908590600401615a46565b600060405180830381600087803b1580156148fa57600080fd5b505af115801561490e573d6000803e3d6000fd5b5050505050614977565b60006006840154600160a01b900460ff16600281111561493a5761493a6152eb565b03614977576040516001600160a01b0383169082156108fc029083906000818181858888f19350505050158015614975573d6000803e3d6000fd5b505b3460058401556006830180546001600160a01b031916331790558660028111156149a3576149a36152eb565b60068401805460ff60a01b1916600160a01b8360028111156149c7576149c76152eb565b02179055506149d842610258615e5a565b83600401541015614a4d5761012c8360040160008282546149f99190615e5a565b9091555050600183015460048401546040517f8e1cb85d0855921b3c958b068fa707efb7db88099af764dd47f37eef82c3334d92614a44928c926001600160a01b0390921691615e6d565b60405180910390a15b600183810154600685015460058601546040519397507f4307392e6f0e441e74a4982d9fa9ddc49b3cd9d3902a9d3ecab0ad3c60a0acd193614a9f938d936001600160a01b0391821693911691615aa5565b60405180910390a15050505050505050565b336000908152600c602052604090205460609060ff1615614ae45760405162461bcd60e51b8152600401610a4390615800565b6000614aef60035490565b90506000805b82811015614b41576000818152600560205260409020600401546001600160a01b03808716911603614b2f5781614b2b8161575a565b9250505b80614b398161575a565b915050614af5565b506000816001600160401b03811115614b5c57614b5c615042565b604051908082528060200260200182016040528015614b9557816020015b614b82614f39565b815260200190600190039081614b7a5790505b5090506000805b84811015611d24576000818152600560205260409020600401546001600160a01b03808916911603614d025760008181526005602081815260409283902083516101808101855281546001600160a01b039081168252600180840154948301949094526002830154811695820195909552600382015485166060820152600482015490941660808501529182015460a0840152600682015460ff908116151560c0850152600783015460e08501526008830154610100850192911690811115614c6757614c676152eb565b6001811115614c7857614c786152eb565b81526020016008820160019054906101000a900460ff166002811115614ca057614ca06152eb565b6002811115614cb157614cb16152eb565b8152600882015462010000900460ff16151560208201526009909101546040909101528351849084908110614ce857614ce8615aca565b60200260200101819052508180614cfe9061575a565b9250505b80614d0c8161575a565b915050614b9c565b6001546001600160a01b03163314611e455760405162461bcd60e51b815260206004820181905260248201527f4f776e61626c653a2063616c6c6572206973206e6f7420746865206f776e65726044820152606401610a43565b600260005403614dc05760405162461bcd60e51b815260206004820152601f60248201527f5265656e7472616e637947756172643a207265656e7472616e742063616c6c006044820152606401610a43565b6002600055565b60006064614dd58385615a2f565b614ddf9190615a5f565b9392505050565b6000806103e8614df68587615a2f565b614e009190615a5f565b90506103e8614e0f8487615a2f565b614e199190615a5f565b614e239082615e5a565b95945050505050565b6145e681604051602401614e409190615e8c565b60408051601f198184030181529190526020810180516001600160e01b031663104c13eb60e21b179052614f18565b600180546001600160a01b038381166001600160a01b0319831681179093556040519116919082907f8be0079c531659141344cd1fd0a4f28419497f9722a3daafe3b4186f6b6457e090600090a35050565b805480614f105760405162461bcd60e51b815260206004820152601b60248201527f436f756e7465723a2064656372656d656e74206f766572666c6f7700000000006044820152606401610a43565b600019019055565b60006a636f6e736f6c652e6c6f679050600080835160208501845afa505050565b6040805161018081018252600080825260208201819052918101829052606081018290526080810182905260a0810182905260c0810182905260e081018290529061010082019081526020016000815260006020820181905260409091015290565b6001600160a01b03811681146145e657600080fd5b8035611a0a81614f9b565b600060208284031215614fcd57600080fd5b8135614ddf81614f9b565b803560ff81168114611a0a57600080fd5b600080600080600060a0868803121561500157600080fd5b853561500c81614f9b565b9450602086013593506040860135925061502860608701614fd8565b915061503660808701614fd8565b90509295509295909350565b634e487b7160e01b600052604160045260246000fd5b604051601f8201601f191681016001600160401b038111828210171561508057615080615042565b604052919050565b60006001600160401b038211156150a1576150a1615042565b5060051b60200190565b600060208083850312156150be57600080fd5b82356001600160401b038111156150d457600080fd5b8301601f810185136150e557600080fd5b80356150f86150f382615088565b615058565b81815260059190911b8201830190838101908783111561511757600080fd5b928401925b8284101561513e57833561512f81614f9b565b8252928401929084019061511c565b979650505050505050565b600082601f83011261515a57600080fd5b8135602061516a6150f383615088565b82815260059290921b8401810191818101908684111561518957600080fd5b8286015b848110156151a4578035835291830191830161518d565b509695505050505050565b60008060008060008060008060006101208a8c0312156151ce57600080fd5b6151d78a614fb0565b985060208a01356001600160401b03808211156151f357600080fd5b6151ff8d838e01615149565b995060408c013591508082111561521557600080fd5b6152218d838e01615149565b985060608c013591508082111561523757600080fd5b6152438d838e01615149565b975060808c0135965060a08c013591508082111561526057600080fd5b61526c8d838e01615149565b955060c08c013591508082111561528257600080fd5b5061528f8c828d01615149565b93505060e08a013591506101008a013590509295985092959850929598565b600080604083850312156152c157600080fd5b50508035926020909101359150565b6000602082840312156152e257600080fd5b614ddf82614fd8565b634e487b7160e01b600052602160045260246000fd5b60028110615311576153116152eb565b9052565b60038110615311576153116152eb565b602080825282518282018190526000919060409081850190868401855b828110156153fb57815180516001600160a01b0390811686528782015188870152868201518116878701526060808301518216908701526080808301519091169086015260a0808201519086015260c08082015115159086015260e08082015190860152610100808201516153b982880182615301565b5050610120808201516153ce82880182615315565b50506101408181015115159086015261016090810151908501526101809093019290850190600101615342565b5091979650505050505050565b60008060008060008060c0878903121561542157600080fd5b863561542c81614f9b565b9550602087013594506040870135935061544860608801614fd8565b925061545660808801614fd8565b915060a087013590509295509295509295565b60006020828403121561547b57600080fd5b5035919050565b600081518084526020808501945080840160005b838110156154bb5781516001600160a01b031687529582019590820190600101615496565b509495945050505050565b602081526000614ddf6020830184615482565b60008060008060008060c087890312156154f257600080fd5b86356154fd81614f9b565b9860208801359850604088013597606081013597506080810135965060a00135945092505050565b60006020828403121561553757600080fd5b813560058110614ddf57600080fd5b6000806000806080858703121561555c57600080fd5b843561556781614f9b565b93506020850135925061557c60408601614fd8565b915061558a60608601614fd8565b905092959194509250565b8881526001600160a01b03888116602083015260408201889052606082018790526080820186905260a08201859052831660c082015261010081016155dd60e0830184615315565b9998505050505050505050565b6000806000606084860312156155ff57600080fd5b505081359360208301359350604090920135919050565b6001600160a01b038d81168252602082018d90528b811660408301528a811660608301528916608082015260a0810188905286151560c082015260e08101869052610180810161566a610100830187615301565b615678610120830186615315565b92151561014082015261016001529a9950505050505050505050565b600080604083850312156156a757600080fd5b82356156b281614f9b565b946020939093013593505050565b600080604083850312156156d357600080fd5b82356001600160401b038111156156e957600080fd5b6156f585828601615149565b9250506020830135801515811461570b57600080fd5b809150509250929050565b6000806040838503121561572957600080fd5b823561573481614f9b565b9150602083013561570b81614f9b565b634e487b7160e01b600052601160045260246000fd5b60006001820161576c5761576c615744565b5060010190565b60208082526038908201527f54686973204e4654206973206e6f7420617070726f766564207965742066726f6040820152776d207468652061646d696e20666f7220707572636861736560401b606082015260800190565b6020808252818101527f596f75206172652062616e6e6564206f6e207468697320706c6174666f726d2e604082015260600190565b6020808252604a908201527f596f7520617265207065726d656e616e746c792064656c657465642066726f6d60408201527f207468697320706c6174666f726d20666f722076696f6c6174696e6720746865606082015269103837b634b1b4b2b99760b11b608082015260a00190565b60208082526025908201527f416e206f776e65722063616e6e6f7420707572636861736520697473206f776e6040820152641027232a1760d91b606082015260800190565b60208082526036908201527f546865206f776e6572206f662074686973206e667420697320626c61636b6c6960408201527539ba32b21037b7103a3434b990383630ba3337b9369760511b606082015260800190565b6020808252603d908201527f546865206f776e6572206f662074686973206e6674206973207065726d616e6160408201527f6e746c792062616e6e6564206f6e207468697320706c6174666f726d2e000000606082015260800190565b6020808252601a908201527f54686973204e4654206973206e6f742061742061756374696f6e000000000000604082015260600190565b6020808252601d908201527f4e6674206973206e6f74206c697374656420746f207075726368617365000000604082015260600190565b81810381811115612e4857612e48615744565b60208082526026908201527f4e6f7420656e6f75676820657468657220746f20636f7665722061736b696e6760408201526520707269636560d01b606082015260800190565b8082028115828204841417612e4857612e48615744565b6001600160a01b03929092168252602082015260400190565b600082615a7c57634e487b7160e01b600052601260045260246000fd5b500490565b6001600160a01b039384168152919092166020820152604081019190915260600190565b9384526001600160a01b03928316602085015291166040830152606082015260800190565b634e487b7160e01b600052603260045260246000fd5b6001600160a01b03978816815260208101969096529386166040860152919094166060840152608083019390935260a082019290925260c081019190915260e00190565b634e487b7160e01b600052603160045260246000fd5b60208082526027908201527f4e6f7420656e6f75676820616d6f756e7420746f20636f7665722061736b696e6040820152666720707269636560c81b606082015260800190565b600060208284031215615b9357600080fd5b8151614ddf81614f9b565b828152604060208201526000615bb76040830184615482565b949350505050565b60006020808385031215615bd257600080fd5b82516001600160401b03811115615be857600080fd5b8301601f81018513615bf957600080fd5b8051615c076150f382615088565b81815260059190911b82018301908381019087831115615c2657600080fd5b928401925b8284101561513e57835182529284019290840190615c2b565b848152608060208201526000615c5d6080830186615482565b6001600160a01b03949094166040830152506060015292915050565b85815284602082015260a060408201526000615c9860a0830186615482565b6001600160a01b0394909416606083015250608001529392505050565b805169ffffffffffffffffffff81168114611a0a57600080fd5b600080600080600060a08688031215615ce757600080fd5b615cf086615cb5565b945060208601519350604086015192506060860151915061503660808701615cb5565b60208082526029908201527f54686973204e4654206973206e6f74206f6e2061756374696f6e206174207468604082015268329036b7b6b2b73a1760b91b606082015260800190565b6020808252601b908201527f596f7520617265206e6f7420696e207468652066616e206c6973740000000000604082015260600190565b6020808252601c908201527f4d696e696d756d206269642068617320746f2062652068696768657200000000604082015260600190565b6020808252603c908201527f596f75206861766520746f2062696420686967686572207468616e207468652060408201527f686967686573742062696420746f206d616b6520616e206f6666657200000000606082015260800190565b6020808252601990820152782a3434b99027232a1034b99030ba1030ba1030bab1ba34b7b760391b604082015260600190565b80820180821115612e4857612e48615744565b9283526001600160a01b03919091166020830152604082015260600190565b600060208083528351808285015260005b81811015615eb957858101830151858201604001528201615e9d565b506000604082860101526040601f19601f830116850101925050509291505056fe8562eb94748e30bb0071e932744ce902b460c683474fcb3bfd567ffa16b1afb2a2646970667358221220a01674a31220f53a113761d63c39450c5a6ae9e73635fafd80129b47757459fb64736f6c63430008130033",
  "linkReferences": {},
  "deployedLinkReferences": {}
}