{
  "_format": "hh-sol-artifact-1",
  "contractName": "ArtiziaMarketplace",
  "sourceName": "contracts/ArtiziaMarketplace.sol",
  "abi": [
    {
      "inputs": [
        {
          "internalType": "address",
          "name": "_token",
          "type": "address"
        }
      ],
      "stateMutability": "nonpayable",
      "type": "constructor"
    },
    {
      "inputs": [],
      "name": "invalidListingType",
      "type": "error"
    },
    {
      "inputs": [],
      "name": "invalidPrice",
      "type": "error"
    },
    {
      "anonymous": false,
      "inputs": [
        {
          "indexed": false,
          "internalType": "address",
          "name": "nftContract",
          "type": "address"
        },
        {
          "indexed": false,
          "internalType": "uint256",
          "name": "tokenId",
          "type": "uint256"
        },
        {
          "indexed": false,
          "internalType": "address",
          "name": "seller",
          "type": "address"
        },
        {
          "indexed": false,
          "internalType": "address",
          "name": "owner",
          "type": "address"
        },
        {
          "indexed": false,
          "internalType": "uint256",
          "name": "price",
          "type": "uint256"
        },
        {
          "indexed": false,
          "internalType": "uint256",
          "name": "collectionId",
          "type": "uint256"
        },
        {
          "indexed": false,
          "internalType": "uint256",
          "name": "listingType",
          "type": "uint256"
        }
      ],
      "name": "NFTListed",
      "type": "event"
    },
    {
      "anonymous": false,
      "inputs": [
        {
          "indexed": false,
          "internalType": "uint256",
          "name": "tokenId",
          "type": "uint256"
        },
        {
          "indexed": false,
          "internalType": "address",
          "name": "seller",
          "type": "address"
        },
        {
          "indexed": false,
          "internalType": "address",
          "name": "buyer",
          "type": "address"
        },
        {
          "indexed": false,
          "internalType": "uint256",
          "name": "price",
          "type": "uint256"
        }
      ],
      "name": "NFTSold",
      "type": "event"
    },
    {
      "anonymous": false,
      "inputs": [
        {
          "indexed": true,
          "internalType": "address",
          "name": "previousOwner",
          "type": "address"
        },
        {
          "indexed": true,
          "internalType": "address",
          "name": "newOwner",
          "type": "address"
        }
      ],
      "name": "OwnershipTransferred",
      "type": "event"
    },
    {
      "anonymous": false,
      "inputs": [
        {
          "indexed": false,
          "internalType": "address[]",
          "name": "fans",
          "type": "address[]"
        }
      ],
      "name": "addedFans",
      "type": "event"
    },
    {
      "anonymous": false,
      "inputs": [
        {
          "indexed": false,
          "internalType": "uint256",
          "name": "tokenId",
          "type": "uint256"
        },
        {
          "indexed": false,
          "internalType": "bool",
          "name": "decision",
          "type": "bool"
        }
      ],
      "name": "approvalUpdate",
      "type": "event"
    },
    {
      "anonymous": false,
      "inputs": [
        {
          "indexed": false,
          "internalType": "uint256",
          "name": "tokenId",
          "type": "uint256"
        },
        {
          "indexed": false,
          "internalType": "address",
          "name": "seller",
          "type": "address"
        },
        {
          "indexed": false,
          "internalType": "uint256",
          "name": "newTime",
          "type": "uint256"
        }
      ],
      "name": "auctionEndTimeIncreased",
      "type": "event"
    },
    {
      "anonymous": false,
      "inputs": [
        {
          "indexed": false,
          "internalType": "uint256",
          "name": "tokenId",
          "type": "uint256"
        },
        {
          "indexed": false,
          "internalType": "address",
          "name": "seller",
          "type": "address"
        },
        {
          "indexed": false,
          "internalType": "address",
          "name": "highestBidder",
          "type": "address"
        },
        {
          "indexed": false,
          "internalType": "uint256",
          "name": "highestBid",
          "type": "uint256"
        }
      ],
      "name": "receivedABid",
      "type": "event"
    },
    {
      "anonymous": false,
      "inputs": [
        {
          "indexed": false,
          "internalType": "address",
          "name": "fan",
          "type": "address"
        }
      ],
      "name": "removeFan",
      "type": "event"
    },
    {
      "stateMutability": "payable",
      "type": "fallback"
    },
    {
      "inputs": [],
      "name": "UNISWAP_ROUTER_ADDRESS",
      "outputs": [
        {
          "internalType": "address",
          "name": "",
          "type": "address"
        }
      ],
      "stateMutability": "view",
      "type": "function"
    },
    {
      "inputs": [],
      "name": "USDT_ADDRESS",
      "outputs": [
        {
          "internalType": "address",
          "name": "",
          "type": "address"
        }
      ],
      "stateMutability": "view",
      "type": "function"
    },
    {
      "inputs": [
        {
          "internalType": "uint256",
          "name": "",
          "type": "uint256"
        }
      ],
      "name": "_idToAuction",
      "outputs": [
        {
          "internalType": "uint256",
          "name": "tokenId",
          "type": "uint256"
        },
        {
          "internalType": "address payable",
          "name": "seller",
          "type": "address"
        },
        {
          "internalType": "uint256",
          "name": "basePrice",
          "type": "uint256"
        },
        {
          "internalType": "uint256",
          "name": "startTime",
          "type": "uint256"
        },
        {
          "internalType": "uint256",
          "name": "endTime",
          "type": "uint256"
        },
        {
          "internalType": "uint256",
          "name": "highestBid",
          "type": "uint256"
        },
        {
          "internalType": "address payable",
          "name": "highestBidder",
          "type": "address"
        },
        {
          "internalType": "enum ArtiziaMarketplace.PaymentMethod",
          "name": "highestBidCurrency",
          "type": "uint8"
        }
      ],
      "stateMutability": "view",
      "type": "function"
    },
    {
      "inputs": [
        {
          "internalType": "uint256",
          "name": "",
          "type": "uint256"
        }
      ],
      "name": "_idToNFT",
      "outputs": [
        {
          "internalType": "address",
          "name": "nftContract",
          "type": "address"
        },
        {
          "internalType": "uint256",
          "name": "tokenId",
          "type": "uint256"
        },
        {
          "internalType": "address payable",
          "name": "firstOwner",
          "type": "address"
        },
        {
          "internalType": "address payable",
          "name": "seller",
          "type": "address"
        },
        {
          "internalType": "address payable",
          "name": "owner",
          "type": "address"
        },
        {
          "internalType": "uint256",
          "name": "price",
          "type": "uint256"
        },
        {
          "internalType": "bool",
          "name": "listed",
          "type": "bool"
        },
        {
          "internalType": "uint256",
          "name": "royaltyPrice",
          "type": "uint256"
        },
        {
          "internalType": "enum ArtiziaMarketplace.ListingType",
          "name": "listingType",
          "type": "uint8"
        },
        {
          "internalType": "enum ArtiziaMarketplace.PaymentMethod",
          "name": "paymentMethod",
          "type": "uint8"
        },
        {
          "internalType": "bool",
          "name": "approve",
          "type": "bool"
        },
        {
          "internalType": "uint256",
          "name": "collectionId",
          "type": "uint256"
        }
      ],
      "stateMutability": "view",
      "type": "function"
    },
    {
      "inputs": [
        {
          "internalType": "uint256",
          "name": "",
          "type": "uint256"
        }
      ],
      "name": "_idToNFT2",
      "outputs": [
        {
          "internalType": "uint256",
          "name": "tokenId",
          "type": "uint256"
        },
        {
          "internalType": "bool",
          "name": "onlyFans",
          "type": "bool"
        },
        {
          "internalType": "uint256",
          "name": "fanDiscountPercent",
          "type": "uint256"
        }
      ],
      "stateMutability": "view",
      "type": "function"
    },
    {
      "inputs": [],
      "name": "_nftCount",
      "outputs": [
        {
          "internalType": "uint256",
          "name": "_value",
          "type": "uint256"
        }
      ],
      "stateMutability": "view",
      "type": "function"
    },
    {
      "inputs": [],
      "name": "_nftsSold",
      "outputs": [
        {
          "internalType": "uint256",
          "name": "_value",
          "type": "uint256"
        }
      ],
      "stateMutability": "view",
      "type": "function"
    },
    {
      "inputs": [
        {
          "internalType": "address[]",
          "name": "fans",
          "type": "address[]"
        }
      ],
      "name": "addFans",
      "outputs": [],
      "stateMutability": "nonpayable",
      "type": "function"
    },
    {
      "inputs": [
        {
          "internalType": "uint256[]",
          "name": "_tokenId",
          "type": "uint256[]"
        },
        {
          "internalType": "bool",
          "name": "_decision",
          "type": "bool"
        }
      ],
      "name": "approveNfts",
      "outputs": [
        {
          "internalType": "bool",
          "name": "",
          "type": "bool"
        }
      ],
      "stateMutability": "nonpayable",
      "type": "function"
    },
    {
      "inputs": [
        {
          "internalType": "address",
          "name": "_user",
          "type": "address"
        }
      ],
      "name": "banUser",
      "outputs": [],
      "stateMutability": "nonpayable",
      "type": "function"
    },
    {
      "inputs": [
        {
          "internalType": "address",
          "name": "",
          "type": "address"
        },
        {
          "internalType": "uint256",
          "name": "",
          "type": "uint256"
        }
      ],
      "name": "bannedNfts",
      "outputs": [
        {
          "internalType": "uint256",
          "name": "",
          "type": "uint256"
        }
      ],
      "stateMutability": "view",
      "type": "function"
    },
    {
      "inputs": [
        {
          "internalType": "address",
          "name": "",
          "type": "address"
        }
      ],
      "name": "bannedUsers",
      "outputs": [
        {
          "internalType": "bool",
          "name": "",
          "type": "bool"
        }
      ],
      "stateMutability": "view",
      "type": "function"
    },
    {
      "inputs": [
        {
          "internalType": "uint256",
          "name": "_tokenId",
          "type": "uint256"
        },
        {
          "internalType": "uint256",
          "name": "_bidCurrency",
          "type": "uint256"
        }
      ],
      "name": "bidInETH",
      "outputs": [],
      "stateMutability": "payable",
      "type": "function"
    },
    {
      "inputs": [
        {
          "internalType": "uint256",
          "name": "_tokenId",
          "type": "uint256"
        },
        {
          "internalType": "uint256",
          "name": "_amount",
          "type": "uint256"
        },
        {
          "internalType": "uint256",
          "name": "_bidCurrency",
          "type": "uint256"
        }
      ],
      "name": "bidInUSDT",
      "outputs": [],
      "stateMutability": "payable",
      "type": "function"
    },
    {
      "inputs": [
        {
          "internalType": "address",
          "name": "_nftContract",
          "type": "address"
        },
        {
          "internalType": "uint256",
          "name": "_paymentMethod",
          "type": "uint256"
        },
        {
          "internalType": "uint256",
          "name": "_tokenId",
          "type": "uint256"
        },
        {
          "internalType": "uint8",
          "name": "_sellerPlan",
          "type": "uint8"
        },
        {
          "internalType": "uint8",
          "name": "_buyerPlan",
          "type": "uint8"
        }
      ],
      "name": "buyWithETH",
      "outputs": [],
      "stateMutability": "payable",
      "type": "function"
    },
    {
      "inputs": [
        {
          "internalType": "address",
          "name": "_nftContract",
          "type": "address"
        },
        {
          "internalType": "uint256",
          "name": "_paymentMethod",
          "type": "uint256"
        },
        {
          "internalType": "uint256",
          "name": "_tokenId",
          "type": "uint256"
        },
        {
          "internalType": "uint8",
          "name": "_sellerPlan",
          "type": "uint8"
        },
        {
          "internalType": "uint8",
          "name": "_buyerPlan",
          "type": "uint8"
        },
        {
          "internalType": "uint256",
          "name": "_amount",
          "type": "uint256"
        }
      ],
      "name": "buyWithUSDT",
      "outputs": [],
      "stateMutability": "payable",
      "type": "function"
    },
    {
      "inputs": [
        {
          "internalType": "uint256",
          "name": "_tokenId",
          "type": "uint256"
        },
        {
          "internalType": "uint256",
          "name": "_newDiscountPercent",
          "type": "uint256"
        }
      ],
      "name": "changeFanDiscountPercent",
      "outputs": [],
      "stateMutability": "nonpayable",
      "type": "function"
    },
    {
      "inputs": [],
      "name": "checkBannedOrDeletedUser",
      "outputs": [
        {
          "internalType": "bool",
          "name": "",
          "type": "bool"
        }
      ],
      "stateMutability": "view",
      "type": "function"
    },
    {
      "inputs": [
        {
          "internalType": "uint256",
          "name": "_tokenId",
          "type": "uint256"
        }
      ],
      "name": "checkFan",
      "outputs": [
        {
          "internalType": "bool",
          "name": "",
          "type": "bool"
        }
      ],
      "stateMutability": "view",
      "type": "function"
    },
    {
      "inputs": [
        {
          "internalType": "address",
          "name": "_nftContract",
          "type": "address"
        },
        {
          "internalType": "uint256",
          "name": "_tokenId",
          "type": "uint256"
        },
        {
          "internalType": "uint8",
          "name": "_sellerPlan",
          "type": "uint8"
        },
        {
          "internalType": "uint8",
          "name": "_buyerPlan",
          "type": "uint8"
        }
      ],
      "name": "closeAuction",
      "outputs": [],
      "stateMutability": "payable",
      "type": "function"
    },
    {
      "inputs": [
        {
          "internalType": "uint256",
          "name": "",
          "type": "uint256"
        },
        {
          "internalType": "uint256",
          "name": "",
          "type": "uint256"
        }
      ],
      "name": "collection",
      "outputs": [
        {
          "internalType": "uint256",
          "name": "",
          "type": "uint256"
        }
      ],
      "stateMutability": "view",
      "type": "function"
    },
    {
      "inputs": [
        {
          "internalType": "address",
          "name": "_user",
          "type": "address"
        }
      ],
      "name": "deleteUser",
      "outputs": [],
      "stateMutability": "nonpayable",
      "type": "function"
    },
    {
      "inputs": [
        {
          "internalType": "address",
          "name": "",
          "type": "address"
        }
      ],
      "name": "deletedUsers",
      "outputs": [
        {
          "internalType": "bool",
          "name": "",
          "type": "bool"
        }
      ],
      "stateMutability": "view",
      "type": "function"
    },
    {
      "inputs": [
        {
          "internalType": "address",
          "name": "",
          "type": "address"
        },
        {
          "internalType": "uint256",
          "name": "",
          "type": "uint256"
        }
      ],
      "name": "fanLists",
      "outputs": [
        {
          "internalType": "address",
          "name": "",
          "type": "address"
        }
      ],
      "stateMutability": "view",
      "type": "function"
    },
    {
      "inputs": [
        {
          "internalType": "uint256",
          "name": "_collectionId",
          "type": "uint256"
        }
      ],
      "name": "getCollectionNfts",
      "outputs": [
        {
          "components": [
            {
              "internalType": "address",
              "name": "nftContract",
              "type": "address"
            },
            {
              "internalType": "uint256",
              "name": "tokenId",
              "type": "uint256"
            },
            {
              "internalType": "address payable",
              "name": "firstOwner",
              "type": "address"
            },
            {
              "internalType": "address payable",
              "name": "seller",
              "type": "address"
            },
            {
              "internalType": "address payable",
              "name": "owner",
              "type": "address"
            },
            {
              "internalType": "uint256",
              "name": "price",
              "type": "uint256"
            },
            {
              "internalType": "bool",
              "name": "listed",
              "type": "bool"
            },
            {
              "internalType": "uint256",
              "name": "royaltyPrice",
              "type": "uint256"
            },
            {
              "internalType": "enum ArtiziaMarketplace.ListingType",
              "name": "listingType",
              "type": "uint8"
            },
            {
              "internalType": "enum ArtiziaMarketplace.PaymentMethod",
              "name": "paymentMethod",
              "type": "uint8"
            },
            {
              "internalType": "bool",
              "name": "approve",
              "type": "bool"
            },
            {
              "internalType": "uint256",
              "name": "collectionId",
              "type": "uint256"
            }
          ],
          "internalType": "struct ArtiziaMarketplace.NFT[]",
          "name": "",
          "type": "tuple[]"
        }
      ],
      "stateMutability": "view",
      "type": "function"
    },
    {
      "inputs": [],
      "name": "getCurrentTimestamp",
      "outputs": [
        {
          "internalType": "uint256",
          "name": "",
          "type": "uint256"
        }
      ],
      "stateMutability": "view",
      "type": "function"
    },
    {
      "inputs": [
        {
          "internalType": "address",
          "name": "user",
          "type": "address"
        }
      ],
      "name": "getFans",
      "outputs": [
        {
          "internalType": "address[]",
          "name": "",
          "type": "address[]"
        }
      ],
      "stateMutability": "view",
      "type": "function"
    },
    {
      "inputs": [],
      "name": "getLatestUSDTPrice",
      "outputs": [
        {
          "internalType": "uint256",
          "name": "",
          "type": "uint256"
        }
      ],
      "stateMutability": "view",
      "type": "function"
    },
    {
      "inputs": [],
      "name": "getListedNfts",
      "outputs": [
        {
          "components": [
            {
              "internalType": "address",
              "name": "nftContract",
              "type": "address"
            },
            {
              "internalType": "uint256",
              "name": "tokenId",
              "type": "uint256"
            },
            {
              "internalType": "address payable",
              "name": "firstOwner",
              "type": "address"
            },
            {
              "internalType": "address payable",
              "name": "seller",
              "type": "address"
            },
            {
              "internalType": "address payable",
              "name": "owner",
              "type": "address"
            },
            {
              "internalType": "uint256",
              "name": "price",
              "type": "uint256"
            },
            {
              "internalType": "bool",
              "name": "listed",
              "type": "bool"
            },
            {
              "internalType": "uint256",
              "name": "royaltyPrice",
              "type": "uint256"
            },
            {
              "internalType": "enum ArtiziaMarketplace.ListingType",
              "name": "listingType",
              "type": "uint8"
            },
            {
              "internalType": "enum ArtiziaMarketplace.PaymentMethod",
              "name": "paymentMethod",
              "type": "uint8"
            },
            {
              "internalType": "bool",
              "name": "approve",
              "type": "bool"
            },
            {
              "internalType": "uint256",
              "name": "collectionId",
              "type": "uint256"
            }
          ],
          "internalType": "struct ArtiziaMarketplace.NFT[]",
          "name": "",
          "type": "tuple[]"
        }
      ],
      "stateMutability": "view",
      "type": "function"
    },
    {
      "inputs": [
        {
          "internalType": "address",
          "name": "_user",
          "type": "address"
        }
      ],
      "name": "getMyListedNfts",
      "outputs": [
        {
          "components": [
            {
              "internalType": "address",
              "name": "nftContract",
              "type": "address"
            },
            {
              "internalType": "uint256",
              "name": "tokenId",
              "type": "uint256"
            },
            {
              "internalType": "address payable",
              "name": "firstOwner",
              "type": "address"
            },
            {
              "internalType": "address payable",
              "name": "seller",
              "type": "address"
            },
            {
              "internalType": "address payable",
              "name": "owner",
              "type": "address"
            },
            {
              "internalType": "uint256",
              "name": "price",
              "type": "uint256"
            },
            {
              "internalType": "bool",
              "name": "listed",
              "type": "bool"
            },
            {
              "internalType": "uint256",
              "name": "royaltyPrice",
              "type": "uint256"
            },
            {
              "internalType": "enum ArtiziaMarketplace.ListingType",
              "name": "listingType",
              "type": "uint8"
            },
            {
              "internalType": "enum ArtiziaMarketplace.PaymentMethod",
              "name": "paymentMethod",
              "type": "uint8"
            },
            {
              "internalType": "bool",
              "name": "approve",
              "type": "bool"
            },
            {
              "internalType": "uint256",
              "name": "collectionId",
              "type": "uint256"
            }
          ],
          "internalType": "struct ArtiziaMarketplace.NFT[]",
          "name": "",
          "type": "tuple[]"
        }
      ],
      "stateMutability": "view",
      "type": "function"
    },
    {
      "inputs": [
        {
          "internalType": "address",
          "name": "_user",
          "type": "address"
        }
      ],
      "name": "getMyNfts",
      "outputs": [
        {
          "components": [
            {
              "internalType": "address",
              "name": "nftContract",
              "type": "address"
            },
            {
              "internalType": "uint256",
              "name": "tokenId",
              "type": "uint256"
            },
            {
              "internalType": "address payable",
              "name": "firstOwner",
              "type": "address"
            },
            {
              "internalType": "address payable",
              "name": "seller",
              "type": "address"
            },
            {
              "internalType": "address payable",
              "name": "owner",
              "type": "address"
            },
            {
              "internalType": "uint256",
              "name": "price",
              "type": "uint256"
            },
            {
              "internalType": "bool",
              "name": "listed",
              "type": "bool"
            },
            {
              "internalType": "uint256",
              "name": "royaltyPrice",
              "type": "uint256"
            },
            {
              "internalType": "enum ArtiziaMarketplace.ListingType",
              "name": "listingType",
              "type": "uint8"
            },
            {
              "internalType": "enum ArtiziaMarketplace.PaymentMethod",
              "name": "paymentMethod",
              "type": "uint8"
            },
            {
              "internalType": "bool",
              "name": "approve",
              "type": "bool"
            },
            {
              "internalType": "uint256",
              "name": "collectionId",
              "type": "uint256"
            }
          ],
          "internalType": "struct ArtiziaMarketplace.NFT[]",
          "name": "",
          "type": "tuple[]"
        }
      ],
      "stateMutability": "view",
      "type": "function"
    },
    {
      "inputs": [
        {
          "internalType": "uint256",
          "name": "_tokenId",
          "type": "uint256"
        }
      ],
      "name": "getStatusOfAuction",
      "outputs": [
        {
          "internalType": "bool",
          "name": "",
          "type": "bool"
        }
      ],
      "stateMutability": "view",
      "type": "function"
    },
    {
      "inputs": [
        {
          "internalType": "uint8",
          "name": "level",
          "type": "uint8"
        }
      ],
      "name": "getSubscriptionFee",
      "outputs": [
        {
          "internalType": "uint256",
          "name": "",
          "type": "uint256"
        }
      ],
      "stateMutability": "view",
      "type": "function"
    },
    {
      "inputs": [
        {
          "internalType": "address",
          "name": "_user",
          "type": "address"
        }
      ],
      "name": "getUsersNfts",
      "outputs": [
        {
          "components": [
            {
              "internalType": "address",
              "name": "nftContract",
              "type": "address"
            },
            {
              "internalType": "uint256",
              "name": "tokenId",
              "type": "uint256"
            },
            {
              "internalType": "address payable",
              "name": "firstOwner",
              "type": "address"
            },
            {
              "internalType": "address payable",
              "name": "seller",
              "type": "address"
            },
            {
              "internalType": "address payable",
              "name": "owner",
              "type": "address"
            },
            {
              "internalType": "uint256",
              "name": "price",
              "type": "uint256"
            },
            {
              "internalType": "bool",
              "name": "listed",
              "type": "bool"
            },
            {
              "internalType": "uint256",
              "name": "royaltyPrice",
              "type": "uint256"
            },
            {
              "internalType": "enum ArtiziaMarketplace.ListingType",
              "name": "listingType",
              "type": "uint8"
            },
            {
              "internalType": "enum ArtiziaMarketplace.PaymentMethod",
              "name": "paymentMethod",
              "type": "uint8"
            },
            {
              "internalType": "bool",
              "name": "approve",
              "type": "bool"
            },
            {
              "internalType": "uint256",
              "name": "collectionId",
              "type": "uint256"
            }
          ],
          "internalType": "struct ArtiziaMarketplace.NFT[]",
          "name": "",
          "type": "tuple[]"
        }
      ],
      "stateMutability": "view",
      "type": "function"
    },
    {
      "inputs": [
        {
          "internalType": "address",
          "name": "",
          "type": "address"
        },
        {
          "internalType": "address",
          "name": "",
          "type": "address"
        }
      ],
      "name": "isFan",
      "outputs": [
        {
          "internalType": "bool",
          "name": "",
          "type": "bool"
        }
      ],
      "stateMutability": "view",
      "type": "function"
    },
    {
      "inputs": [
        {
          "internalType": "address",
          "name": "_nftContract",
          "type": "address"
        },
        {
          "internalType": "uint256[]",
          "name": "_tokenId",
          "type": "uint256[]"
        },
        {
          "internalType": "uint256[]",
          "name": "_price",
          "type": "uint256[]"
        },
        {
          "internalType": "uint256",
          "name": "_royaltyPrice",
          "type": "uint256"
        },
        {
          "internalType": "uint256",
          "name": "_listingType",
          "type": "uint256"
        },
        {
          "internalType": "uint256[]",
          "name": "_startTime",
          "type": "uint256[]"
        },
        {
          "internalType": "uint256[]",
          "name": "_endTime",
          "type": "uint256[]"
        },
        {
          "internalType": "uint256",
          "name": "_collectionId",
          "type": "uint256"
        },
        {
          "internalType": "uint256",
          "name": "_paymentMethod",
          "type": "uint256"
        }
      ],
      "name": "listNft",
      "outputs": [],
      "stateMutability": "payable",
      "type": "function"
    },
    {
      "inputs": [],
      "name": "owner",
      "outputs": [
        {
          "internalType": "address",
          "name": "",
          "type": "address"
        }
      ],
      "stateMutability": "view",
      "type": "function"
    },
    {
      "inputs": [
        {
          "internalType": "address",
          "name": "addressToRemove",
          "type": "address"
        }
      ],
      "name": "removeFans",
      "outputs": [],
      "stateMutability": "nonpayable",
      "type": "function"
    },
    {
      "inputs": [],
      "name": "renounceOwnership",
      "outputs": [],
      "stateMutability": "nonpayable",
      "type": "function"
    },
    {
      "inputs": [
        {
          "internalType": "address",
          "name": "_nftContract",
          "type": "address"
        },
        {
          "internalType": "uint256",
          "name": "_tokenId",
          "type": "uint256"
        },
        {
          "internalType": "uint256",
          "name": "_price",
          "type": "uint256"
        },
        {
          "internalType": "uint256",
          "name": "_listingType",
          "type": "uint256"
        },
        {
          "internalType": "uint256",
          "name": "_startTime",
          "type": "uint256"
        },
        {
          "internalType": "uint256",
          "name": "_endTime",
          "type": "uint256"
        },
        {
          "internalType": "address",
          "name": "_user",
          "type": "address"
        }
      ],
      "name": "resellNft",
      "outputs": [],
      "stateMutability": "nonpayable",
      "type": "function"
    },
    {
      "inputs": [
        {
          "internalType": "enum ArtiziaMarketplace.SubscriptionLevel",
          "name": "",
          "type": "uint8"
        }
      ],
      "name": "subscriptionFees",
      "outputs": [
        {
          "internalType": "uint256",
          "name": "",
          "type": "uint256"
        }
      ],
      "stateMutability": "view",
      "type": "function"
    },
    {
      "inputs": [
        {
          "internalType": "uint256",
          "name": "usdtAmountOut",
          "type": "uint256"
        }
      ],
      "name": "swapETHForUSDT",
      "outputs": [
        {
          "internalType": "uint256",
          "name": "",
          "type": "uint256"
        }
      ],
      "stateMutability": "payable",
      "type": "function"
    },
    {
      "inputs": [
        {
          "internalType": "uint256",
          "name": "usdtAmountIn",
          "type": "uint256"
        }
      ],
      "name": "swapUSDTForETH",
      "outputs": [
        {
          "internalType": "uint256",
          "name": "",
          "type": "uint256"
        }
      ],
      "stateMutability": "nonpayable",
      "type": "function"
    },
    {
      "inputs": [
        {
          "internalType": "address",
          "name": "newOwner",
          "type": "address"
        }
      ],
      "name": "transferOwnership",
      "outputs": [],
      "stateMutability": "nonpayable",
      "type": "function"
    },
    {
      "inputs": [
        {
          "internalType": "address",
          "name": "_user",
          "type": "address"
        }
      ],
      "name": "unbanUser",
      "outputs": [],
      "stateMutability": "nonpayable",
      "type": "function"
    },
    {
      "stateMutability": "payable",
      "type": "receive"
    }
  ],
  "bytecode": "0x6080604052600f80546001600160a01b0319908116737a250d5630b4cf539739df2c5dacb4c659f2488d179091556010805490911673dac17f958d2ee523a2206206994597c13d831ec71790553480156200005957600080fd5b50604051620061ae380380620061ae8339810160408190526200007c9162000213565b60016000556200008c3362000113565b600480546001600160a01b03199081163317909155600f546011805483166001600160a01b039283161790556012805491841691909216179055620000d46000609662000165565b620000e26001609662000165565b620000f06002609662000165565b620000fe6003606462000165565b6200010c6004600062000165565b506200025b565b600180546001600160a01b038381166001600160a01b0319831681179093556040519116919082907f8be0079c531659141344cd1fd0a4f28419497f9722a3daafe3b4186f6b6457e090600090a35050565b6200016f620001b2565b80600e600084600481111562000189576200018962000245565b60048111156200019d576200019d62000245565b81526020810191909152604001600020555050565b6001546001600160a01b03163314620002115760405162461bcd60e51b815260206004820181905260248201527f4f776e61626c653a2063616c6c6572206973206e6f7420746865206f776e6572604482015260640160405180910390fd5b565b6000602082840312156200022657600080fd5b81516001600160a01b03811681146200023e57600080fd5b9392505050565b634e487b7160e01b600052602160045260246000fd5b615f43806200026b6000396000f3fe60806040526004361061025e5760003560e01c80638d6cb3fb11610143578063b9e07df1116100bb578063d6fc3dbd11610077578063d6fc3dbd1461088f578063e4fb2ab2146108af578063ed5a1c0f146108cf578063f2fde38b1461090a578063f41dfb181461092a578063f6c1b77a1461093d57005b8063b9e07df114610747578063bbffa07b146107f8578063c189205814610818578063c36ac2d214610838578063d12824f114610858578063d6cbb2021461087857005b80639ea36e881161010a5780639ea36e88146105f1578063a8ab8c0314610642578063aeb46a1b1461066f578063b32ac0c61461069c578063b4fa0412146106af578063b8b3455d1461073457005b80638d6cb3fb1461052f5780638da5cb5b1461054457806398dd36bf146105625780639a6e94be146105775780639c744058146105d157005b80635ca11fa3116101d657806373c118811161019d57806373c118811461045157806377ec6a471461046457806379b36943146104945780638090551e146104cc5780638988d078146104df5780638cd410f41461050f57005b80635ca11fa3146103c95780636c9230db146103e95780636f9e8876146103fc578063715018a61461041c578063719b21881461043157005b80634afbcdae116102255780634afbcdae146102f75780634d12b695146103175780634d3fb817146103375780635274cff6146103575780635674c2e6146103845780635c60f226146103a957005b806310d86b1f146102675780633000df5d1461028757806330221fc51461029a57806331824a49146102ad57806331a7a70f146102d757005b3661026557005b005b34801561027357600080fd5b50610265610282366004614fcc565b61095d565b6102656102953660046150bd565b610a23565b6102656102a83660046151b2565b6110ef565b3480156102b957600080fd5b506002546102c49081565b6040519081526020015b60405180910390f35b3480156102e357600080fd5b506102656102f236600461520b565b611709565b34801561030357600080fd5b506102c46103123660046152a4565b611944565b34801561032357600080fd5b50610265610332366004614fcc565b611975565b34801561034357600080fd5b506102c46103523660046152c6565b61199e565b34801561036357600080fd5b50610377610372366004614fcc565b611a14565b6040516102ce919061531b565b34801561039057600080fd5b50610399611d34565b60405190151581526020016102ce565b3480156103b557600080fd5b506102656103c4366004614fcc565b611d72565b3480156103d557600080fd5b506102656103e43660046152a4565b611d9e565b3480156103f557600080fd5b50426102c4565b34801561040857600080fd5b506102656104173660046153fe565b611e38565b34801561042857600080fd5b506102656121d3565b34801561043d57600080fd5b5061026561044c366004614fcc565b6121e7565b61026561045f366004615467565b61233d565b34801561047057600080fd5b5061039961047f366004614fcc565b600c6020526000908152604090205460ff1681565b3480156104a057600080fd5b50600f546104b4906001600160a01b031681565b6040516001600160a01b0390911681526020016102ce565b6102c46104da3660046154c8565b6129e9565b3480156104eb57600080fd5b506103996104fa366004614fcc565b600b6020526000908152604090205460ff1681565b34801561051b57600080fd5b506102c461052a3660046154c8565b612c32565b34801561053b57600080fd5b50610377612eca565b34801561055057600080fd5b506001546001600160a01b03166104b4565b34801561056e57600080fd5b506102c4613116565b34801561058357600080fd5b506105b66105923660046154c8565b600660205260009081526040902080546001820154600290920154909160ff169083565b604080519384529115156020840152908201526060016102ce565b3480156105dd57600080fd5b506103996105ec3660046154c8565b6131e5565b3480156105fd57600080fd5b5061039961060c3660046154c8565b6000908152600560209081526040808320600301546001600160a01b031683526007825280832033845290915290205460ff1690565b34801561064e57600080fd5b5061066261065d366004614fcc565b61322a565b6040516102ce9190615525565b34801561067b57600080fd5b506102c461068a366004615538565b600e6020526000908152604090205481565b6102656106aa366004615559565b6132d1565b3480156106bb57600080fd5b506107206106ca3660046154c8565b600a60205260009081526040902080546001820154600283015460038401546004850154600586015460069096015494956001600160a01b0394851695939492939192909190811690600160a01b900460ff1688565b6040516102ce9897969594939291906155a8565b6102656107423660046155fd565b613a2b565b34801561075357600080fd5b506107e06107623660046154c8565b600560208190526000918252604090912080546001820154600283015460038401546004850154958501546006860154600787015460088801546009909801546001600160a01b03978816999698958816979485169690941694929360ff92831693919282811692610100810482169262010000909104909116908c565b6040516102ce9c9b9a99989796959493929190615629565b34801561080457600080fd5b506104b46108133660046156a7565b613fb9565b34801561082457600080fd5b506010546104b4906001600160a01b031681565b34801561084457600080fd5b506103776108533660046154c8565b613ff1565b34801561086457600080fd5b50610377610873366004614fcc565b61421e565b34801561088457600080fd5b506003546102c49081565b34801561089b57600080fd5b506103996108aa3660046156d3565b6144b1565b3480156108bb57600080fd5b506102c46108ca3660046156a7565b614565565b3480156108db57600080fd5b506103996108ea366004615729565b600760209081526000928352604080842090915290825290205460ff1681565b34801561091657600080fd5b50610265610925366004614fcc565b614581565b6102656109383660046152a4565b6145fa565b34801561094957600080fd5b50610377610958366004614fcc565b614ac2565b610965614d25565b6001600160a01b0381166000908152600b60205260408120805460ff1916600117905561099160035490565b905060005b81811015610a1e576000818152600560205260409020600301546001600160a01b03808516911603610a0c5760008181526005602052604090206004810180546001600160a01b03199081163017909155600382018054909116905560068101805460ff19169055600801805462ff0000191690555b80610a168161576d565b915050610996565b505050565b610a2b614d7f565b336000908152600b602052604090205460ff1615610a645760405162461bcd60e51b8152600401610a5b90615786565b60405180910390fd5b336000908152600c602052604090205460ff1615610a945760405162461bcd60e51b8152600401610a5b906157bb565b60005b88518110156110d9576000888281518110610ab457610ab461582b565b60200260200101511015610adb57604051635a93095360e11b815260040160405180910390fd5b6001861115610afd576040516317142a4d60e01b815260040160405180910390fd5b896001600160a01b03166323b872dd33308c8581518110610b2057610b2061582b565b60200260200101516040518463ffffffff1660e01b8152600401610b4693929190615841565b600060405180830381600087803b158015610b6057600080fd5b505af1158015610b74573d6000803e3d6000fd5b50505050610b86600380546001019055565b6000838152600d6020526040902089518a9083908110610ba857610ba861582b565b602002602001015190806001815401808255809150506001900390600052602060002001600090919091909150556040518061018001604052808b6001600160a01b031681526020018a8381518110610c0357610c0361582b565b60200260200101518152602001336001600160a01b03168152602001336001600160a01b03168152602001306001600160a01b03168152602001898381518110610c4f57610c4f61582b565b60200260200101518152602001600115158152602001888152602001876001811115610c7d57610c7d6152e1565b6001811115610c8e57610c8e6152e1565b8152602001836002811115610ca557610ca56152e1565b6002811115610cb657610cb66152e1565b815260200160001515815260200184815250600560008b8481518110610cde57610cde61582b565b6020908102919091018101518252818101929092526040908101600020835181546001600160a01b03199081166001600160a01b039283161783559385015160018084019190915592850151600283018054861691831691909117905560608501516003830180548616918316919091179055608085015160048301805490951691161790925560a0830151600583015560c083015160068301805460ff1990811692151592909217905560e084015160078401556101008401516008840180549193909291909116908381811115610db957610db96152e1565b021790555061012082015160088201805461ff001916610100836002811115610de457610de46152e1565b02179055506101408201518160080160026101000a81548160ff021916908315150217905550610160820151816009015590505060405180606001604052808a8381518110610e3557610e3561582b565b602002602001015181526020016000151581526020016000815250600660008b8481518110610e6657610e6661582b565b602090810291909101810151825281810192909252604090810160002083518155918301516001808401805460ff1916921515929092179091559201516002909101558603611052576040518061010001604052808a8381518110610ecd57610ecd61582b565b60200260200101518152602001336001600160a01b03168152602001898381518110610efb57610efb61582b565b60200260200101518152602001868381518110610f1a57610f1a61582b565b60200260200101518152602001858381518110610f3957610f3961582b565b602002602001015181526020016000815260200160006001600160a01b03168152602001836002811115610f6f57610f6f6152e1565b6002811115610f8057610f806152e1565b815250600a60008b8481518110610f9957610f9961582b565b602090810291909101810151825281810192909252604090810160002083518155918301516001830180546001600160a01b03199081166001600160a01b039384161790915591840151600280850191909155606085015160038501556080850151600485015560a0850151600585015560c085015160068501805494851691909316908117835560e0860151936001600160a81b0319161790600160a01b90849081111561104a5761104a6152e1565b021790555050505b7f380acab0ee1d651da065961944240ee750b6935ba0edefa78afb1c8e076762868a8a83815181106110865761108661582b565b602002602001015133308c86815181106110a2576110a261582b565b6020026020010151888c6040516110bf9796959493929190615865565b60405180910390a1806110d18161576d565b915050610a97565b506110e46001600055565b505050505050505050565b600083815260056020526040902060080154839062010000900460ff16151560011461112d5760405162461bcd60e51b8152600401610a5b906158a9565b336000908152600b602052604090205460ff161561115d5760405162461bcd60e51b8152600401610a5b90615786565b336000908152600c602052604090205460ff161561118d5760405162461bcd60e51b8152600401610a5b906157bb565b611195614d7f565b6000848152600560205260408120906111ad8561199e565b905060006111ba8561199e565b6003840154909150336001600160a01b03909116036111eb5760405162461bcd60e51b8152600401610a5b90615901565b60038301546001600160a01b03166000908152600b602052604090205460ff16156112285760405162461bcd60e51b8152600401610a5b90615946565b60038301546001600160a01b03166000908152600c602052604090205460ff16156112655760405162461bcd60e51b8152600401610a5b9061599c565b6000600884015460ff166001811115611280576112806152e1565b1461129d5760405162461bcd60e51b8152600401610a5b906159f9565b600683015460ff1615156001146112c65760405162461bcd60e51b8152600401610a5b90615a30565b6000878152600560209081526040808320600301546001600160a01b0316835260078252808320338085529252822054829060ff161561134e5760008a81526006602052604090206002015461131d903490614dd8565b6113279034615a67565b9050803410156113495760405162461bcd60e51b8152600401610a5b90615a7a565b611375565b85600501543410156113725760405162461bcd60e51b8152600401610a5b90615a7a565b50345b600286015460038701546001600160a01b0391821691160361149c5761139c818686614df7565b6113a69082615a67565b90508a6000036113f65760038601546040516001600160a01b039091169082156108fc029083906000818181858888f193505050501580156113ec573d6000803e3d6000fd5b5060019250611603565b6113ff816129e9565b50600061140a613116565b6114149083615ac0565b9050600061142582620f4240615ac0565b60125460038a015460405163a9059cbb60e01b81529293506001600160a01b039182169263a9059cbb9261145f9216908590600401615ad7565b600060405180830381600087803b15801561147957600080fd5b505af115801561148d573d6000803e3d6000fd5b50505050600194505050611603565b600081905060006114b1828960070154614dd8565b90506114be838888614df7565b6114c88284615a67565b6114d29190615a67565b60028901546040519194506001600160a01b03169082156108fc029083906000818181858888f1935050505015801561150f573d6000803e3d6000fd5b508c60000361155e5760038801546040516001600160a01b039091169084156108fc029085906000818181858888f19350505050158015611554573d6000803e3d6000fd5b5060019450611600565b611567836129e9565b506000611572613116565b61157c9085615af0565b9050600061158d82620f4240615ac0565b60125460038c015460405163a9059cbb60e01b81529293506001600160a01b039182169263a9059cbb926115c79216908590600401615ad7565b600060405180830381600087803b1580156115e157600080fd5b505af11580156115f5573d6000803e3d6000fd5b505050506001965050505b50505b82156116f15760018601546040516323b872dd60e01b81526001600160a01b038e16916323b872dd9161163d913091879190600401615841565b600060405180830381600087803b15801561165757600080fd5b505af115801561166b573d6000803e3d6000fd5b50505060018701546003880154604051600080516020615eee83398151915293506116a492916001600160a01b03169086903490615b12565b60405180910390a16004860180546001600160a01b0384166001600160a01b031991821617909155600387018054909116905560068601805460ff191690556116f1600280546001019055565b5050505050506117016001600055565b505050505050565b600081516001600160401b0381111561172457611724614fe9565b60405190808252806020026020018201604052801561174d578160200160208202803683370190505b50905060005b82518110156119085760008382815181106117705761177061582b565b6020026020010151905060006001600160a01b0316816001600160a01b0316036117cd576117c860405180604001604052806013815260200172496e76616c69642066616e206164647265737360681b815250614e3d565b6118f5565b3360009081526007602090815260408083206001600160a01b038516845290915290205460ff1615611832576117c86040518060400160405280601881526020017720b2323932b9b99034b99030b63932b0b23c9030903330b760411b815250614e3d565b3360008181526008602090815260408083208054600180820183559185528385200180546001600160a01b0319166001600160a01b0388169081179091559484526007835281842094845293825291829020805460ff19169093179092558051808201909152601181527011985b881859191959081d1bc81b1a5cdd607a1b918101919091526118c190614e3d565b808383815181106118d4576118d461582b565b60200260200101906001600160a01b031690816001600160a01b0316815250505b50806119008161576d565b915050611753565b507fa99d709f8a9c899ba566c9b2515b1715239783ff40126e24d86e081505a7f50e816040516119389190615525565b60405180910390a15050565b600d602052816000526040600020818154811061196057600080fd5b90600052602060002001600091509150505481565b61197d614d25565b6001600160a01b03166000908152600b60205260409020805460ff19169055565b60008160ff166003036119d957600e600060045b60048111156119c3576119c36152e1565b8152602001908152602001600020549050919050565b8160ff166002036119ef57600e600060036119b2565b8160ff16600103611a0557600e600060026119b2565b600e6000806119b2565b919050565b336000908152600c602052604090205460609060ff1615611a475760405162461bcd60e51b8152600401610a5b906157bb565b336000908152600b602052604090205460ff1615611a775760405162461bcd60e51b8152600401610a5b90615786565b6000611a8260035490565b90506000805b82811015611b15576000818152600560205260409020600301546001600160a01b038681169116148015611acd575060008181526005602052604090206006015460ff165b8015611af0575060008181526005602052604090206008015462010000900460ff165b15611b035781611aff8161576d565b9250505b80611b0d8161576d565b915050611a88565b506000816001600160401b03811115611b3057611b30614fe9565b604051908082528060200260200182016040528015611b6957816020015b611b56614f4a565b815260200190600190039081611b4e5790505b5090506000805b84811015611d29576000818152600560205260409020600301546001600160a01b038881169116148015611bb5575060008181526005602052604090206006015460ff165b8015611bd8575060008181526005602052604090206008015462010000900460ff165b15611d175760008181526005602081815260409283902083516101808101855281546001600160a01b039081168252600180840154948301949094526002830154811695820195909552600382015485166060820152600482015490941660808501529182015460a0840152600682015460ff908116151560c0850152600783015460e08501526008830154610100850192911690811115611c7c57611c7c6152e1565b6001811115611c8d57611c8d6152e1565b81526020016008820160019054906101000a900460ff166002811115611cb557611cb56152e1565b6002811115611cc657611cc66152e1565b8152600882015462010000900460ff16151560208201526009909101546040909101528351849084908110611cfd57611cfd61582b565b60200260200101819052508180611d139061576d565b9250505b80611d218161576d565b915050611b70565b509095945050505050565b336000908152600b602052604081205460ff1680611d615750336000908152600c602052604090205460ff165b15611d6c5750600190565b50600090565b611d7a614d25565b6001600160a01b03166000908152600c60205260409020805460ff19166001179055565b6000828152600560205260409020600301546001600160a01b03163314611e235760405162461bcd60e51b815260206004820152603360248201527f4f6e6c7920746865206f776e6572206f6620616e206e66742063616e20736574604482015272103234b9b1b7bab73a32b210383934b1b2b99760691b6064820152608401610a5b565b60009182526006602052604090912060020155565b336000908152600b602052604090205460ff1615611e685760405162461bcd60e51b8152600401610a5b90615786565b336000908152600c602052604090205460ff1615611e985760405162461bcd60e51b8152600401610a5b906157bb565b611ea0614d7f565b600086815260056020526040902085611efb5760405162461bcd60e51b815260206004820152601c60248201527f5072696365206d757374206265206174206c65617374203120776569000000006044820152606401610a5b565b60048101546001600160a01b03838116911614611f6d5760405162461bcd60e51b815260206004820152602a60248201527f4f6e6c7920746865206f776e6572206f6620616e206e66742063616e206c69736044820152693a103a34329037333a1760b11b6064820152608401610a5b565b6040516323b872dd60e01b81526001600160a01b038916906323b872dd90611f9d90859030908c90600401615841565b600060405180830381600087803b158015611fb757600080fd5b505af1158015611fcb573d6000803e3d6000fd5b5050506003820180546001600160a01b0385166001600160a01b03199182161790915560048301805490911630179055506005810186905560068101805460ff191660019081179091558590811115612026576120266152e1565b60088201805460ff191660018381811115612043576120436152e1565b02179055506001850361216e57604051806101000160405280888152602001836001600160a01b031681526020018781526020018581526020018481526020016000815260200160006001600160a01b031681526020018260080160019054906101000a900460ff1660028111156120bd576120bd6152e1565b90526000888152600a602090815260409182902083518155908301516001820180546001600160a01b03199081166001600160a01b039384161790915592840151600280840191909155606085015160038401556080850151600484015560a0850151600584015560c085015160068401805495861691909316908117835560e086015193946001600160a81b0319161790600160a01b908490811115612166576121666152e1565b021790555050505b6121786002614e80565b7f380acab0ee1d651da065961944240ee750b6935ba0edefa78afb1c8e07676286888884308a86600901548b6040516121b79796959493929190615865565b60405180910390a1506121ca6001600055565b50505050505050565b6121db614d25565b6121e56000614ed7565b565b336000908152600860205260408120905b8154811015610a1e57826001600160a01b031682828154811061221d5761221d61582b565b6000918252602090912001546001600160a01b03160361232b578154829061224790600190615a67565b815481106122575761225761582b565b9060005260206000200160009054906101000a90046001600160a01b03168282815481106122875761228761582b565b9060005260206000200160006101000a8154816001600160a01b0302191690836001600160a01b03160217905550818054806122c5576122c5615b37565b6000828152602090819020600019908301810180546001600160a01b03191690559091019091556040516001600160a01b03851681527f89ec8e1c730740239f81b0dfce48eedca9d700bbc36fe56311fe9175c16f64ad910160405180910390a1505050565b806123358161576d565b9150506121f8565b600084815260056020526040902060080154849062010000900460ff16151560011461237b5760405162461bcd60e51b8152600401610a5b906158a9565b336000908152600b602052604090205460ff16156123ab5760405162461bcd60e51b8152600401610a5b90615786565b336000908152600c602052604090205460ff16156123db5760405162461bcd60e51b8152600401610a5b906157bb565b6123e3614d7f565b60008581526005602052604090206003810154336001600160a01b039091160361241f5760405162461bcd60e51b8152600401610a5b90615901565b6000612429613116565b905060006124368761199e565b905060006124438761199e565b905060006124568764e8d4a51000615ac0565b90506124628482615ac0565b9050612476670de0b6b3a764000082615af0565b60038601546001600160a01b03166000908152600b602052604090205490915060ff16156124b65760405162461bcd60e51b8152600401610a5b90615946565b60038501546001600160a01b03166000908152600c602052604090205460ff16156124f35760405162461bcd60e51b8152600401610a5b9061599c565b6000600886015460ff16600181111561250e5761250e6152e1565b1461252b5760405162461bcd60e51b8152600401610a5b906159f9565b60008a8152600560209081526040808320600301546001600160a01b031683526007825280832033845290915281205460ff16156125b15760008b815260066020526040902060020154612580908390614dd8565b61258a9083615a67565b9050808210156125ac5760405162461bcd60e51b8152600401610a5b90615b4d565b6125d8565b85600501548210156125d55760405162461bcd60e51b8152600401610a5b90615b4d565b50805b6000803390506000601260009054906101000a90046001600160a01b03166001600160a01b03166323b872dd33308e6040518463ffffffff1660e01b815260040161262593929190615841565b600060405180830381600087803b15801561263f57600080fd5b505af1158015612653573d6000803e3d6000fd5b50505050600289015460038a01546001600160a01b039182169116036127585761267e8b8888614df7565b612688908c615a67565b93508e6001036127055760125460038a015460405163a9059cbb60e01b81526001600160a01b039283169263a9059cbb926126ca929116908890600401615ad7565b600060405180830381600087803b1580156126e457600080fd5b505af11580156126f8573d6000803e3d6000fd5b50505050600192506128e8565b600061271085612c32565b60038b01546040519192506001600160a01b03169082156108fc029083906000818181858888f1935050505015801561274d573d6000803e3d6000fd5b5060019350506128e8565b60006127688c8b60070154614dd8565b9050612774818d615a67565b9150612781828989614df7565b61278b908d615a67565b60125460028c015460405163a9059cbb60e01b81529297506001600160a01b039182169263a9059cbb926127c59216908590600401615ad7565b600060405180830381600087803b1580156127df57600080fd5b505af11580156127f3573d6000803e3d6000fd5b505050508f60010361288457600061280e86620f4240615ac0565b60125460038d015460405163a9059cbb60e01b81529293506001600160a01b039182169263a9059cbb926128489216908590600401615ad7565b600060405180830381600087803b15801561286257600080fd5b505af1158015612876573d6000803e3d6000fd5b5050505060019450506128e6565b61288d85612c32565b506000612898613116565b6128a29087615ac0565b60038c01546040519192506001600160a01b03169082156108fc029083906000818181858888f193505050501580156128df573d6000803e3d6000fd5b5060019450505b505b82156129d6578f6001600160a01b03166323b872dd30848c600101546040518463ffffffff1660e01b815260040161292293929190615841565b600060405180830381600087803b15801561293c57600080fd5b505af1158015612950573d6000803e3d6000fd5b50505060018a015460038b0154604051600080516020615eee833981519152935061298992916001600160a01b03169086908a90615b12565b60405180910390a16004890180546001600160a01b0384166001600160a01b03199182161790915560038a018054909116905560068901805460ff191690556129d6600280546001019055565b5050505050505050506121ca6001600055565b604080516002808252606082018352600092839291906020830190803683375050601154604080516315ab88c960e31b815290519394506001600160a01b039091169263ad5c4648925060048083019260209291908290030181865afa158015612a57573d6000803e3d6000fd5b505050506040513d601f19601f82011682018060405250810190612a7b9190615b94565b81600081518110612a8e57612a8e61582b565b6001600160a01b039283166020918202929092010152601054825191169082906001908110612abf57612abf61582b565b6001600160a01b03929092166020928302919091018201526040805160028082526060820183526000939192909183019080368337505060115460405163d06ca61f60e01b81529293506001600160a01b03169163d06ca61f9150612b2a9087908690600401615bb1565b600060405180830381865afa158015612b47573d6000803e3d6000fd5b505050506040513d6000823e601f3d908101601f19168201604052612b6f9190810190615bd2565b60115481519192506001600160a01b031690637ff36ab590349084906001908110612b9c57612b9c61582b565b60200260200101518530426040518663ffffffff1660e01b8152600401612bc69493929190615c57565b60006040518083038185885af1158015612be4573d6000803e3d6000fd5b50505050506040513d6000823e601f3d908101601f19168201604052612c0d9190810190615bd2565b5080600181518110612c2157612c2161582b565b602002602001015192505050919050565b60408051600280825260608201835260009283929190602083019080368337505060105482519293506001600160a01b031691839150600090612c7757612c7761582b565b6001600160a01b03928316602091820292909201810191909152601154604080516315ab88c960e31b81529051919093169263ad5c46489260048083019391928290030181865afa158015612cd0573d6000803e3d6000fd5b505050506040513d601f19601f82011682018060405250810190612cf49190615b94565b81600181518110612d0757612d0761582b565b6001600160a01b039283166020918202929092010152601254600f5460405163095ea7b360e01b81529183169263095ea7b392612d4c92909116908790600401615ad7565b600060405180830381600087803b158015612d6657600080fd5b505af1158015612d7a573d6000803e3d6000fd5b506000925060029150612d8a9050565b604051908082528060200260200182016040528015612db3578160200160208202803683370190505b5060115460405163d06ca61f60e01b81529192506001600160a01b03169063d06ca61f90612de79087908690600401615bb1565b600060405180830381865afa158015612e04573d6000803e3d6000fd5b505050506040513d6000823e601f3d908101601f19168201604052612e2c9190810190615bd2565b60115481519192506001600160a01b031690634a25d94a9083906001908110612e5757612e5761582b565b6020026020010151868530426040518663ffffffff1660e01b8152600401612e83959493929190615c8c565b6000604051808303816000875af1158015612ea2573d6000803e3d6000fd5b505050506040513d6000823e601f3d908101601f19168201604052612c0d9190810190615bd2565b336000908152600c602052604090205460609060ff1615612efd5760405162461bcd60e51b8152600401610a5b906157bb565b6000612f0860035490565b90506000612f1560025490565b612f1f9083615a67565b90506000816001600160401b03811115612f3b57612f3b614fe9565b604051908082528060200260200182016040528015612f7457816020015b612f61614f4a565b815260200190600190039081612f595790505b5090506000805b8481101561310c5760008181526005602052604090206006015460ff168015612fbb575060008181526005602052604090206008015462010000900460ff165b156130fa5760008181526005602081815260409283902083516101808101855281546001600160a01b039081168252600180840154948301949094526002830154811695820195909552600382015485166060820152600482015490941660808501529182015460a0840152600682015460ff908116151560c0850152600783015460e0850152600883015461010085019291169081111561305f5761305f6152e1565b6001811115613070576130706152e1565b81526020016008820160019054906101000a900460ff166002811115613098576130986152e1565b60028111156130a9576130a96152e1565b8152600882015462010000900460ff161515602082015260099091015460409091015283518490849081106130e0576130e061582b565b602002602001018190525081806130f69061576d565b9250505b806131048161576d565b915050612f7b565b5090935050505090565b60008073ee9f2375b4bdf6387aa8265dd4fb8f16512a1d4690506000816001600160a01b031663feaf968c6040518163ffffffff1660e01b815260040160a060405180830381865afa158015613170573d6000803e3d6000fd5b505050506040513d601f19601f820116820180604052508101906131949190615ce2565b505050915050600081136131df5760405162461bcd60e51b8152602060048201526012602482015271496e76616c6964205553445420707269636560701b6044820152606401610a5b565b92915050565b6000818152600a60205260408120600301544211801561321557506000828152600a602052604090206004015442105b1561322257506001919050565b506000919050565b336000908152600c602052604090205460609060ff161561325d5760405162461bcd60e51b8152600401610a5b906157bb565b6001600160a01b038216600090815260086020908152604091829020805483518184028101840190945280845290918301828280156132c557602002820191906000526020600020905b81546001600160a01b031681526001909101906020018083116132a7575b50505050509050919050565b6000838152600a602052604090206004015442116133315760405162461bcd60e51b815260206004820152601a60248201527f41756374696f6e20686173206e6f7420656e646564207965742e0000000000006044820152606401610a5b565b600061333c8361199e565b905060006133498361199e565b6000868152600a60205260409020600601549091506001600160a01b03161561341f576000858152600a60205260409020600601546001600160a01b03163314806133ad57506000858152600a60205260409020600101546001600160a01b031633145b61341a5760405162461bcd60e51b815260206004820152603860248201527f4f6e6c792074686520686967686573742062696464657220616e6420746865206044820152771cd95b1b195c8818d85b8818db185a5b481d1a194813919560421b6064820152608401610a5b565b61349d565b6000858152600a60205260409020600101546001600160a01b0316331461349d5760405162461bcd60e51b815260206004820152602c60248201527f4f6e6c79207468652073656c6c65722063616e20636c6f73652074686520756e60448201526b39b7b6321030bab1ba34b7b760a11b6064820152608401610a5b565b6000858152600560209081526040808320600a90925282206006810154919290916001600160a01b0316613566576003830154600480850180546001600160a01b0319166001600160a01b0393841617905560068501805460ff19169055600184810154908601546040516323b872dd60e01b81528d8516946323b872dd9461352b94309492169201615841565b600060405180830381600087803b15801561354557600080fd5b505af1158015613559573d6000803e3d6000fd5b50505050600190506139d7565b60058201546000908190816008870154610100900460ff16600281111561358f5761358f6152e1565b0361370c5760016006860154600160a01b900460ff1660028111156135b6576135b66152e1565b036135eb5760006135c5613116565b6135cf9083615af0565b90506135de81620f4240615ac0565b506135e881612c32565b50505b600286015460038701546001600160a01b0391821691160361365f57613612818989614df7565b61361c9082615a67565b60038701546040519193506001600160a01b03169083156108fc029084906000818181858888f19350505050158015613659573d6000803e3d6000fd5b50613911565b61367185600501548760070154614dd8565b925061367e818989614df7565b6136888483615a67565b6136929190615a67565b60028701546040519193506001600160a01b03169084156108fc029085906000818181858888f193505050501580156136cf573d6000803e3d6000fd5b5060038601546040516001600160a01b039091169083156108fc029084906000818181858888f19350505050158015613659573d6000803e3d6000fd5b60016008870154610100900460ff16600281111561372c5761372c6152e1565b036139115760006006860154600160a01b900460ff166002811115613753576137536152e1565b0361376457613761816129e9565b90505b600286015460038701546001600160a01b039182169116036138065761378b818989614df7565b6137959082615a67565b601254600388015460405163a9059cbb60e01b81529294506001600160a01b039182169263a9059cbb926137cf9216908690600401615ad7565b600060405180830381600087803b1580156137e957600080fd5b505af11580156137fd573d6000803e3d6000fd5b50505050613911565b61381885600501548760070154614dd8565b9250613825818989614df7565b61382f8483615a67565b6138399190615a67565b601254600388015460405163a9059cbb60e01b81529294506001600160a01b039182169263a9059cbb926138739216908690600401615ad7565b600060405180830381600087803b15801561388d57600080fd5b505af11580156138a1573d6000803e3d6000fd5b5050601254600289015460405163a9059cbb60e01b81526001600160a01b03928316945063a9059cbb93506138de92909116908790600401615ad7565b600060405180830381600087803b1580156138f857600080fd5b505af115801561390c573d6000803e3d6000fd5b505050505b83613994578b6001600160a01b03166323b872dd308760060160009054906101000a90046001600160a01b031689600101546040518463ffffffff1660e01b815260040161396193929190615841565b600060405180830381600087803b15801561397b57600080fd5b505af115801561398f573d6000803e3d6000fd5b505050505b6006808601546004880180546001600160a01b0319166001600160a01b039092169190911790558601805460ff191690556139d3600280546001019055565b5050505b6001830154600384015460068401546005850154604051600080516020615eee83398151915294613a189490936001600160a01b0391821693911691615b12565b60405180910390a1505050505050505050565b6000838152600a6020526040902060030154839042118015613a5d57506000818152600a602052604090206004015442105b613a795760405162461bcd60e51b8152600401610a5b90615d26565b600084815260056020526040902060080154849062010000900460ff161515600114613ab75760405162461bcd60e51b8152600401610a5b906158a9565b336000908152600c602052604090205460ff1615613ae75760405162461bcd60e51b8152600401610a5b906157bb565b336000908152600b602052604090205460ff1615613b175760405162461bcd60e51b8152600401610a5b90615786565b6000613b21613116565b6000878152600660205260408120600101549192509060ff1615613b8e576000878152600560209081526040808320600301546001600160a01b031683526007825280832033845290915290205460ff16613b8e5760405162461bcd60e51b8152600401610a5b90615d6f565b6000613b9f8764e8d4a51000615ac0565b9050613bab8382615ac0565b9050613bbf670de0b6b3a764000082615af0565b6000898152600a60205260409020600601549091506001600160a01b0316613c12576000888152600a6020526040902060020154811015613c125760405162461bcd60e51b8152600401610a5b90615da6565b6000888152600a6020526040902060050154811015613c435760405162461bcd60e51b8152600401610a5b90615ddd565b600160008981526005602052604090206008015460ff166001811115613c6b57613c6b6152e1565b14613c885760405162461bcd60e51b8152600401610a5b90615e3a565b60008881526005602052604090206006015460ff161515600114613cbe5760405162461bcd60e51b8152600401610a5b90615a30565b6012546040516323b872dd60e01b81526001600160a01b03909116906323b872dd90613cf290339030908c90600401615841565b600060405180830381600087803b158015613d0c57600080fd5b505af1158015613d20573d6000803e3d6000fd5b5050506000898152600a60205260409020600681015460058201549192506001600160a01b0316908115613e625760016006840154600160a01b900460ff166002811115613d7057613d706152e1565b03613e03576000613d7f613116565b613d899083615af0565b9050613d9881620f4240615ac0565b60125460405163a9059cbb60e01b81529192506001600160a01b03169063a9059cbb90613dcb9086908590600401615ad7565b600060405180830381600087803b158015613de557600080fd5b505af1158015613df9573d6000803e3d6000fd5b5050505050613e62565b60006006840154600160a01b900460ff166002811115613e2557613e256152e1565b03613e62576040516001600160a01b0383169082156108fc029083906000818181858888f19350505050158015613e60573d6000803e3d6000fd5b505b600583018490556006830180546001600160a01b03191633179055886002811115613e8f57613e8f6152e1565b60068401805460ff60a01b1916600160a01b836002811115613eb357613eb36152e1565b0217905550613ec442610258615e6d565b83600401541015613f395761012c836004016000828254613ee59190615e6d565b9091555050600183015460048401546040517f8e1cb85d0855921b3c958b068fa707efb7db88099af764dd47f37eef82c3334d92613f30928f926001600160a01b0390921691615e80565b60405180910390a15b600194507f4307392e6f0e441e74a4982d9fa9ddc49b3cd9d3902a9d3ecab0ad3c60a0acd18b8460010160009054906101000a90046001600160a01b03168560060160009054906101000a90046001600160a01b03168660050154604051613fa49493929190615b12565b60405180910390a15050505050505050505050565b60086020528160005260406000208181548110613fd557600080fd5b6000918252602090912001546001600160a01b03169150829050565b60606000613ffe60035490565b9050600061400b60025490565b6140159083615a67565b90506000816001600160401b0381111561403157614031614fe9565b60405190808252806020026020018201604052801561406a57816020015b614057614f4a565b81526020019060019003908161404f5790505b5090506000805b84811015611d295760008181526005602052604090206006015460ff1680156140aa575060008181526005602052604090206009015487145b80156140cd575060008181526005602052604090206008015462010000900460ff165b1561420c5760008181526005602081815260409283902083516101808101855281546001600160a01b039081168252600180840154948301949094526002830154811695820195909552600382015485166060820152600482015490941660808501529182015460a0840152600682015460ff908116151560c0850152600783015460e08501526008830154610100850192911690811115614171576141716152e1565b6001811115614182576141826152e1565b81526020016008820160019054906101000a900460ff1660028111156141aa576141aa6152e1565b60028111156141bb576141bb6152e1565b8152600882015462010000900460ff161515602082015260099091015460409091015283518490849081106141f2576141f261582b565b602002602001018190525081806142089061576d565b9250505b806142168161576d565b915050614071565b336000908152600c602052604090205460609060ff16156142515760405162461bcd60e51b8152600401610a5b906157bb565b336000908152600b602052604090205460ff16156142815760405162461bcd60e51b8152600401610a5b90615786565b600061428c60035490565b90506000805b828110156142de576000818152600560205260409020600301546001600160a01b038087169116036142cc57816142c88161576d565b9250505b806142d68161576d565b915050614292565b506000816001600160401b038111156142f9576142f9614fe9565b60405190808252806020026020018201604052801561433257816020015b61431f614f4a565b8152602001906001900390816143175790505b5090506000805b84811015611d29576000818152600560205260409020600301546001600160a01b0380891691160361449f5760008181526005602081815260409283902083516101808101855281546001600160a01b039081168252600180840154948301949094526002830154811695820195909552600382015485166060820152600482015490941660808501529182015460a0840152600682015460ff908116151560c0850152600783015460e08501526008830154610100850192911690811115614404576144046152e1565b6001811115614415576144156152e1565b81526020016008820160019054906101000a900460ff16600281111561443d5761443d6152e1565b600281111561444e5761444e6152e1565b8152600882015462010000900460ff161515602082015260099091015460409091015283518490849081106144855761448561582b565b6020026020010181905250818061449b9061576d565b9250505b806144a98161576d565b915050614339565b60006144bb614d25565b6000805b845181101561455a578481815181106144da576144da61582b565b602090810291909101810151600081815260058352604090819020600801805462ff0000191662010000891515908102919091179091558151838152938401529093507f6ffa1c2dfe558962660d78387d612607ef3f19ee482f7d51a12634d131e8db6e910160405180910390a1806145528161576d565b9150506144bf565b506001949350505050565b6009602052816000526040600020818154811061196057600080fd5b614589614d25565b6001600160a01b0381166145ee5760405162461bcd60e51b815260206004820152602660248201527f4f776e61626c653a206e6577206f776e657220697320746865207a65726f206160448201526564647265737360d01b6064820152608401610a5b565b6145f781614ed7565b50565b6000828152600a602052604090206003015482904211801561462c57506000818152600a602052604090206004015442105b6146485760405162461bcd60e51b8152600401610a5b90615d26565b600083815260056020526040902060080154839062010000900460ff1615156001146146865760405162461bcd60e51b8152600401610a5b906158a9565b336000908152600c602052604090205460ff16156146b65760405162461bcd60e51b8152600401610a5b906157bb565b336000908152600b602052604090205460ff16156146e65760405162461bcd60e51b8152600401610a5b90615786565b60008481526006602052604081206001015460ff161561474f576000858152600560209081526040808320600301546001600160a01b031683526007825280832033845290915290205460ff1661474f5760405162461bcd60e51b8152600401610a5b90615d6f565b6000858152600a60205260409020600601546001600160a01b031661479f576000858152600a602052604090206002015434101561479f5760405162461bcd60e51b8152600401610a5b90615da6565b6000858152600a602052604090206005015434116147cf5760405162461bcd60e51b8152600401610a5b90615ddd565b600160008681526005602052604090206008015460ff1660018111156147f7576147f76152e1565b146148145760405162461bcd60e51b8152600401610a5b90615e3a565b60008581526005602052604090206006015460ff16151560011461484a5760405162461bcd60e51b8152600401610a5b90615a30565b6000858152600a60205260409020600681015460058201546001600160a01b039091169081156149885760016006840154600160a01b900460ff166002811115614896576148966152e1565b036149295760006148a5613116565b6148af9083615af0565b90506148be81620f4240615ac0565b60125460405163a9059cbb60e01b81529192506001600160a01b03169063a9059cbb906148f19086908590600401615ad7565b600060405180830381600087803b15801561490b57600080fd5b505af115801561491f573d6000803e3d6000fd5b5050505050614988565b60006006840154600160a01b900460ff16600281111561494b5761494b6152e1565b03614988576040516001600160a01b0383169082156108fc029083906000818181858888f19350505050158015614986573d6000803e3d6000fd5b505b3460058401556006830180546001600160a01b031916331790558660028111156149b4576149b46152e1565b60068401805460ff60a01b1916600160a01b8360028111156149d8576149d86152e1565b02179055506149e942610258615e6d565b83600401541015614a5e5761012c836004016000828254614a0a9190615e6d565b9091555050600183015460048401546040517f8e1cb85d0855921b3c958b068fa707efb7db88099af764dd47f37eef82c3334d92614a55928c926001600160a01b0390921691615e80565b60405180910390a15b600183810154600685015460058601546040519397507f4307392e6f0e441e74a4982d9fa9ddc49b3cd9d3902a9d3ecab0ad3c60a0acd193614ab0938d936001600160a01b0391821693911691615b12565b60405180910390a15050505050505050565b336000908152600c602052604090205460609060ff1615614af55760405162461bcd60e51b8152600401610a5b906157bb565b6000614b0060035490565b90506000805b82811015614b52576000818152600560205260409020600401546001600160a01b03808716911603614b405781614b3c8161576d565b9250505b80614b4a8161576d565b915050614b06565b506000816001600160401b03811115614b6d57614b6d614fe9565b604051908082528060200260200182016040528015614ba657816020015b614b93614f4a565b815260200190600190039081614b8b5790505b5090506000805b84811015611d29576000818152600560205260409020600401546001600160a01b03808916911603614d135760008181526005602081815260409283902083516101808101855281546001600160a01b039081168252600180840154948301949094526002830154811695820195909552600382015485166060820152600482015490941660808501529182015460a0840152600682015460ff908116151560c0850152600783015460e08501526008830154610100850192911690811115614c7857614c786152e1565b6001811115614c8957614c896152e1565b81526020016008820160019054906101000a900460ff166002811115614cb157614cb16152e1565b6002811115614cc257614cc26152e1565b8152600882015462010000900460ff16151560208201526009909101546040909101528351849084908110614cf957614cf961582b565b60200260200101819052508180614d0f9061576d565b9250505b80614d1d8161576d565b915050614bad565b6001546001600160a01b031633146121e55760405162461bcd60e51b815260206004820181905260248201527f4f776e61626c653a2063616c6c6572206973206e6f7420746865206f776e65726044820152606401610a5b565b600260005403614dd15760405162461bcd60e51b815260206004820152601f60248201527f5265656e7472616e637947756172643a207265656e7472616e742063616c6c006044820152606401610a5b565b6002600055565b60006064614de68385615ac0565b614df09190615af0565b9392505050565b6000806103e8614e078587615ac0565b614e119190615af0565b90506103e8614e208487615ac0565b614e2a9190615af0565b614e349082615e6d565b95945050505050565b6145f781604051602401614e519190615e9f565b60408051601f198184030181529190526020810180516001600160e01b031663104c13eb60e21b179052614f29565b805480614ecf5760405162461bcd60e51b815260206004820152601b60248201527f436f756e7465723a2064656372656d656e74206f766572666c6f7700000000006044820152606401610a5b565b600019019055565b600180546001600160a01b038381166001600160a01b0319831681179093556040519116919082907f8be0079c531659141344cd1fd0a4f28419497f9722a3daafe3b4186f6b6457e090600090a35050565b60006a636f6e736f6c652e6c6f679050600080835160208501845afa505050565b6040805161018081018252600080825260208201819052918101829052606081018290526080810182905260a0810182905260c0810182905260e081018290529061010082019081526020016000815260006020820181905260409091015290565b6001600160a01b03811681146145f757600080fd5b8035611a0f81614fac565b600060208284031215614fde57600080fd5b8135614df081614fac565b634e487b7160e01b600052604160045260246000fd5b604051601f8201601f191681016001600160401b038111828210171561502757615027614fe9565b604052919050565b60006001600160401b0382111561504857615048614fe9565b5060051b60200190565b600082601f83011261506357600080fd5b813560206150786150738361502f565b614fff565b82815260059290921b8401810191818101908684111561509757600080fd5b8286015b848110156150b2578035835291830191830161509b565b509695505050505050565b60008060008060008060008060006101208a8c0312156150dc57600080fd5b6150e58a614fc1565b985060208a01356001600160401b038082111561510157600080fd5b61510d8d838e01615052565b995060408c013591508082111561512357600080fd5b61512f8d838e01615052565b985060608c0135975060808c0135965060a08c013591508082111561515357600080fd5b61515f8d838e01615052565b955060c08c013591508082111561517557600080fd5b506151828c828d01615052565b93505060e08a013591506101008a013590509295985092959850929598565b803560ff81168114611a0f57600080fd5b600080600080600060a086880312156151ca57600080fd5b85356151d581614fac565b945060208601359350604086013592506151f1606087016151a1565b91506151ff608087016151a1565b90509295509295909350565b6000602080838503121561521e57600080fd5b82356001600160401b0381111561523457600080fd5b8301601f8101851361524557600080fd5b80356152536150738261502f565b81815260059190911b8201830190838101908783111561527257600080fd5b928401925b8284101561529957833561528a81614fac565b82529284019290840190615277565b979650505050505050565b600080604083850312156152b757600080fd5b50508035926020909101359150565b6000602082840312156152d857600080fd5b614df0826151a1565b634e487b7160e01b600052602160045260246000fd5b60028110615307576153076152e1565b9052565b60038110615307576153076152e1565b602080825282518282018190526000919060409081850190868401855b828110156153f157815180516001600160a01b0390811686528782015188870152868201518116878701526060808301518216908701526080808301519091169086015260a0808201519086015260c08082015115159086015260e08082015190860152610100808201516153af828801826152f7565b5050610120808201516153c48288018261530b565b50506101408181015115159086015261016090810151908501526101809093019290850190600101615338565b5091979650505050505050565b600080600080600080600060e0888a03121561541957600080fd5b873561542481614fac565b96506020880135955060408801359450606088013593506080880135925060a0880135915060c088013561545781614fac565b8091505092959891949750929550565b60008060008060008060c0878903121561548057600080fd5b863561548b81614fac565b955060208701359450604087013593506154a7606088016151a1565b92506154b5608088016151a1565b915060a087013590509295509295509295565b6000602082840312156154da57600080fd5b5035919050565b600081518084526020808501945080840160005b8381101561551a5781516001600160a01b0316875295820195908201906001016154f5565b509495945050505050565b602081526000614df060208301846154e1565b60006020828403121561554a57600080fd5b813560058110614df057600080fd5b6000806000806080858703121561556f57600080fd5b843561557a81614fac565b93506020850135925061558f604086016151a1565b915061559d606086016151a1565b905092959194509250565b8881526001600160a01b03888116602083015260408201889052606082018790526080820186905260a08201859052831660c082015261010081016155f060e083018461530b565b9998505050505050505050565b60008060006060848603121561561257600080fd5b505081359360208301359350604090920135919050565b6001600160a01b038d81168252602082018d90528b811660408301528a811660608301528916608082015260a0810188905286151560c082015260e08101869052610180810161567d6101008301876152f7565b61568b61012083018661530b565b92151561014082015261016001529a9950505050505050505050565b600080604083850312156156ba57600080fd5b82356156c581614fac565b946020939093013593505050565b600080604083850312156156e657600080fd5b82356001600160401b038111156156fc57600080fd5b61570885828601615052565b9250506020830135801515811461571e57600080fd5b809150509250929050565b6000806040838503121561573c57600080fd5b823561574781614fac565b9150602083013561571e81614fac565b634e487b7160e01b600052601160045260246000fd5b60006001820161577f5761577f615757565b5060010190565b6020808252818101527f596f75206172652062616e6e6564206f6e207468697320706c6174666f726d2e604082015260600190565b6020808252604a908201527f596f7520617265207065726d656e616e746c792064656c657465642066726f6d60408201527f207468697320706c6174666f726d20666f722076696f6c6174696e6720746865606082015269103837b634b1b4b2b99760b11b608082015260a00190565b634e487b7160e01b600052603260045260246000fd5b6001600160a01b039384168152919092166020820152604081019190915260600190565b6001600160a01b03978816815260208101969096529386166040860152919094166060840152608083019390935260a082019290925260c081019190915260e00190565b60208082526038908201527f54686973204e4654206973206e6f7420617070726f766564207965742066726f6040820152776d207468652061646d696e20666f7220707572636861736560401b606082015260800190565b60208082526025908201527f416e206f776e65722063616e6e6f7420707572636861736520697473206f776e6040820152641027232a1760d91b606082015260800190565b60208082526036908201527f546865206f776e6572206f662074686973206e667420697320626c61636b6c6960408201527539ba32b21037b7103a3434b990383630ba3337b9369760511b606082015260800190565b6020808252603d908201527f546865206f776e6572206f662074686973206e6674206973207065726d616e6160408201527f6e746c792062616e6e6564206f6e207468697320706c6174666f726d2e000000606082015260800190565b6020808252601a908201527f54686973204e4654206973206e6f742061742061756374696f6e000000000000604082015260600190565b6020808252601d908201527f4e6674206973206e6f74206c697374656420746f207075726368617365000000604082015260600190565b818103818111156131df576131df615757565b60208082526026908201527f4e6f7420656e6f75676820657468657220746f20636f7665722061736b696e6760408201526520707269636560d01b606082015260800190565b80820281158282048414176131df576131df615757565b6001600160a01b03929092168252602082015260400190565b600082615b0d57634e487b7160e01b600052601260045260246000fd5b500490565b9384526001600160a01b03928316602085015291166040830152606082015260800190565b634e487b7160e01b600052603160045260246000fd5b60208082526027908201527f4e6f7420656e6f75676820616d6f756e7420746f20636f7665722061736b696e6040820152666720707269636560c81b606082015260800190565b600060208284031215615ba657600080fd5b8151614df081614fac565b828152604060208201526000615bca60408301846154e1565b949350505050565b60006020808385031215615be557600080fd5b82516001600160401b03811115615bfb57600080fd5b8301601f81018513615c0c57600080fd5b8051615c1a6150738261502f565b81815260059190911b82018301908381019087831115615c3957600080fd5b928401925b8284101561529957835182529284019290840190615c3e565b848152608060208201526000615c7060808301866154e1565b6001600160a01b03949094166040830152506060015292915050565b85815284602082015260a060408201526000615cab60a08301866154e1565b6001600160a01b0394909416606083015250608001529392505050565b805169ffffffffffffffffffff81168114611a0f57600080fd5b600080600080600060a08688031215615cfa57600080fd5b615d0386615cc8565b94506020860151935060408601519250606086015191506151ff60808701615cc8565b60208082526029908201527f54686973204e4654206973206e6f74206f6e2061756374696f6e206174207468604082015268329036b7b6b2b73a1760b91b606082015260800190565b6020808252601b908201527f596f7520617265206e6f7420696e207468652066616e206c6973740000000000604082015260600190565b6020808252601c908201527f4d696e696d756d206269642068617320746f2062652068696768657200000000604082015260600190565b6020808252603c908201527f596f75206861766520746f2062696420686967686572207468616e207468652060408201527f686967686573742062696420746f206d616b6520616e206f6666657200000000606082015260800190565b6020808252601990820152782a3434b99027232a1034b99030ba1030ba1030bab1ba34b7b760391b604082015260600190565b808201808211156131df576131df615757565b9283526001600160a01b03919091166020830152604082015260600190565b600060208083528351808285015260005b81811015615ecc57858101830151858201604001528201615eb0565b506000604082860101526040601f19601f830116850101925050509291505056fe8562eb94748e30bb0071e932744ce902b460c683474fcb3bfd567ffa16b1afb2a26469706673582212201cc0a4fa235513d82061e974e113128004bb2c9e6ffaad7739035631c8fc6b3064736f6c63430008130033",
  "linkReferences": {},
  "deployedLinkReferences": {}
}