{
  "_format": "hh-sol-artifact-1",
  "contractName": "ArtiziaMarketplace",
  "sourceName": "contracts/ArtiziaMarketplace.sol",
  "abi": [
    {
      "inputs": [
        {
          "internalType": "address",
          "name": "_token",
          "type": "address"
        }
      ],
      "stateMutability": "nonpayable",
      "type": "constructor"
    },
    {
      "inputs": [],
      "name": "invalidListingType",
      "type": "error"
    },
    {
      "inputs": [],
      "name": "invalidPrice",
      "type": "error"
    },
    {
      "anonymous": false,
      "inputs": [
        {
          "indexed": false,
          "internalType": "address",
          "name": "nftContract",
          "type": "address"
        },
        {
          "indexed": false,
          "internalType": "uint256",
          "name": "tokenId",
          "type": "uint256"
        },
        {
          "indexed": false,
          "internalType": "address",
          "name": "seller",
          "type": "address"
        },
        {
          "indexed": false,
          "internalType": "address",
          "name": "owner",
          "type": "address"
        },
        {
          "indexed": false,
          "internalType": "uint256",
          "name": "price",
          "type": "uint256"
        }
      ],
      "name": "NFTListed",
      "type": "event"
    },
    {
      "anonymous": false,
      "inputs": [
        {
          "indexed": false,
          "internalType": "address",
          "name": "nftContract",
          "type": "address"
        },
        {
          "indexed": false,
          "internalType": "uint256",
          "name": "tokenId",
          "type": "uint256"
        },
        {
          "indexed": false,
          "internalType": "address",
          "name": "seller",
          "type": "address"
        },
        {
          "indexed": false,
          "internalType": "address",
          "name": "owner",
          "type": "address"
        },
        {
          "indexed": false,
          "internalType": "uint256",
          "name": "price",
          "type": "uint256"
        }
      ],
      "name": "NFTSold",
      "type": "event"
    },
    {
      "anonymous": false,
      "inputs": [
        {
          "indexed": true,
          "internalType": "address",
          "name": "previousOwner",
          "type": "address"
        },
        {
          "indexed": true,
          "internalType": "address",
          "name": "newOwner",
          "type": "address"
        }
      ],
      "name": "OwnershipTransferred",
      "type": "event"
    },
    {
      "anonymous": false,
      "inputs": [
        {
          "indexed": false,
          "internalType": "uint256",
          "name": "newTime",
          "type": "uint256"
        }
      ],
      "name": "auctionEndTimeIncreased",
      "type": "event"
    },
    {
      "anonymous": false,
      "inputs": [
        {
          "indexed": false,
          "internalType": "uint256",
          "name": "tokenId",
          "type": "uint256"
        },
        {
          "indexed": false,
          "internalType": "address",
          "name": "seller",
          "type": "address"
        },
        {
          "indexed": false,
          "internalType": "address",
          "name": "highestBidder",
          "type": "address"
        },
        {
          "indexed": false,
          "internalType": "uint256",
          "name": "highestBid",
          "type": "uint256"
        }
      ],
      "name": "getsOutbid",
      "type": "event"
    },
    {
      "anonymous": false,
      "inputs": [
        {
          "indexed": false,
          "internalType": "uint256",
          "name": "tokenId",
          "type": "uint256"
        },
        {
          "indexed": false,
          "internalType": "address",
          "name": "seller",
          "type": "address"
        },
        {
          "indexed": false,
          "internalType": "address",
          "name": "highestBidder",
          "type": "address"
        },
        {
          "indexed": false,
          "internalType": "uint256",
          "name": "highestBid",
          "type": "uint256"
        }
      ],
      "name": "receivedABid",
      "type": "event"
    },
    {
      "stateMutability": "payable",
      "type": "fallback"
    },
    {
      "inputs": [],
      "name": "UNISWAP_ROUTER_ADDRESS",
      "outputs": [
        {
          "internalType": "address",
          "name": "",
          "type": "address"
        }
      ],
      "stateMutability": "view",
      "type": "function"
    },
    {
      "inputs": [],
      "name": "USDT_ADDRESS",
      "outputs": [
        {
          "internalType": "address",
          "name": "",
          "type": "address"
        }
      ],
      "stateMutability": "view",
      "type": "function"
    },
    {
      "inputs": [
        {
          "internalType": "uint256",
          "name": "",
          "type": "uint256"
        }
      ],
      "name": "_idToAuction",
      "outputs": [
        {
          "internalType": "uint256",
          "name": "tokenId",
          "type": "uint256"
        },
        {
          "internalType": "address payable",
          "name": "seller",
          "type": "address"
        },
        {
          "internalType": "uint256",
          "name": "basePrice",
          "type": "uint256"
        },
        {
          "internalType": "uint256",
          "name": "startTime",
          "type": "uint256"
        },
        {
          "internalType": "uint256",
          "name": "endTime",
          "type": "uint256"
        },
        {
          "internalType": "uint256",
          "name": "highestBid",
          "type": "uint256"
        },
        {
          "internalType": "address payable",
          "name": "highestBidder",
          "type": "address"
        },
        {
          "internalType": "enum ArtiziaMarketplace.PaymentMethod",
          "name": "highestBidCurrency",
          "type": "uint8"
        }
      ],
      "stateMutability": "view",
      "type": "function"
    },
    {
      "inputs": [
        {
          "internalType": "uint256",
          "name": "",
          "type": "uint256"
        }
      ],
      "name": "_idToNFT",
      "outputs": [
        {
          "internalType": "address",
          "name": "nftContract",
          "type": "address"
        },
        {
          "internalType": "uint256",
          "name": "tokenId",
          "type": "uint256"
        },
        {
          "internalType": "address payable",
          "name": "firstOwner",
          "type": "address"
        },
        {
          "internalType": "address payable",
          "name": "seller",
          "type": "address"
        },
        {
          "internalType": "address payable",
          "name": "owner",
          "type": "address"
        },
        {
          "internalType": "uint256",
          "name": "price",
          "type": "uint256"
        },
        {
          "internalType": "bool",
          "name": "listed",
          "type": "bool"
        },
        {
          "internalType": "uint256",
          "name": "royaltyPrice",
          "type": "uint256"
        },
        {
          "internalType": "enum ArtiziaMarketplace.ListingType",
          "name": "listingType",
          "type": "uint8"
        },
        {
          "internalType": "enum ArtiziaMarketplace.PaymentMethod",
          "name": "paymentMethod",
          "type": "uint8"
        },
        {
          "internalType": "bool",
          "name": "approve",
          "type": "bool"
        },
        {
          "internalType": "uint256",
          "name": "collectionId",
          "type": "uint256"
        }
      ],
      "stateMutability": "view",
      "type": "function"
    },
    {
      "inputs": [],
      "name": "_nftCount",
      "outputs": [
        {
          "internalType": "uint256",
          "name": "_value",
          "type": "uint256"
        }
      ],
      "stateMutability": "view",
      "type": "function"
    },
    {
      "inputs": [],
      "name": "_nftsSold",
      "outputs": [
        {
          "internalType": "uint256",
          "name": "_value",
          "type": "uint256"
        }
      ],
      "stateMutability": "view",
      "type": "function"
    },
    {
      "inputs": [
        {
          "internalType": "address[]",
          "name": "fans",
          "type": "address[]"
        }
      ],
      "name": "addFans",
      "outputs": [],
      "stateMutability": "nonpayable",
      "type": "function"
    },
    {
      "inputs": [
        {
          "internalType": "uint256[]",
          "name": "_tokenId",
          "type": "uint256[]"
        },
        {
          "internalType": "bool",
          "name": "_decision",
          "type": "bool"
        }
      ],
      "name": "approveNfts",
      "outputs": [
        {
          "internalType": "bool",
          "name": "",
          "type": "bool"
        }
      ],
      "stateMutability": "nonpayable",
      "type": "function"
    },
    {
      "inputs": [
        {
          "internalType": "address",
          "name": "_user",
          "type": "address"
        }
      ],
      "name": "banUser",
      "outputs": [],
      "stateMutability": "nonpayable",
      "type": "function"
    },
    {
      "inputs": [
        {
          "internalType": "address",
          "name": "",
          "type": "address"
        }
      ],
      "name": "bannedUsers",
      "outputs": [
        {
          "internalType": "bool",
          "name": "",
          "type": "bool"
        }
      ],
      "stateMutability": "view",
      "type": "function"
    },
    {
      "inputs": [
        {
          "internalType": "uint256",
          "name": "_tokenId",
          "type": "uint256"
        },
        {
          "internalType": "uint256",
          "name": "_bidCurrency",
          "type": "uint256"
        }
      ],
      "name": "bidInETH",
      "outputs": [],
      "stateMutability": "payable",
      "type": "function"
    },
    {
      "inputs": [
        {
          "internalType": "uint256",
          "name": "_tokenId",
          "type": "uint256"
        },
        {
          "internalType": "uint256",
          "name": "_amount",
          "type": "uint256"
        },
        {
          "internalType": "uint256",
          "name": "_bidCurrency",
          "type": "uint256"
        }
      ],
      "name": "bidInUSDT",
      "outputs": [],
      "stateMutability": "payable",
      "type": "function"
    },
    {
      "inputs": [
        {
          "internalType": "address",
          "name": "_nftContract",
          "type": "address"
        },
        {
          "internalType": "uint256",
          "name": "_paymentMethod",
          "type": "uint256"
        },
        {
          "internalType": "uint256",
          "name": "_tokenId",
          "type": "uint256"
        }
      ],
      "name": "buyWithETH",
      "outputs": [],
      "stateMutability": "payable",
      "type": "function"
    },
    {
      "inputs": [
        {
          "internalType": "address",
          "name": "_nftContract",
          "type": "address"
        },
        {
          "internalType": "uint256",
          "name": "_paymentMethod",
          "type": "uint256"
        },
        {
          "internalType": "uint256",
          "name": "_tokenId",
          "type": "uint256"
        },
        {
          "internalType": "uint256",
          "name": "_amount",
          "type": "uint256"
        }
      ],
      "name": "buyWithUSDT",
      "outputs": [],
      "stateMutability": "payable",
      "type": "function"
    },
    {
      "inputs": [],
      "name": "checkBannedOrDeletedUser",
      "outputs": [
        {
          "internalType": "bool",
          "name": "",
          "type": "bool"
        }
      ],
      "stateMutability": "view",
      "type": "function"
    },
    {
      "inputs": [
        {
          "internalType": "address",
          "name": "_nftContract",
          "type": "address"
        },
        {
          "internalType": "uint256",
          "name": "_tokenId",
          "type": "uint256"
        }
      ],
      "name": "closeAuction",
      "outputs": [],
      "stateMutability": "payable",
      "type": "function"
    },
    {
      "inputs": [
        {
          "internalType": "uint256",
          "name": "",
          "type": "uint256"
        },
        {
          "internalType": "uint256",
          "name": "",
          "type": "uint256"
        }
      ],
      "name": "collection",
      "outputs": [
        {
          "internalType": "uint256",
          "name": "",
          "type": "uint256"
        }
      ],
      "stateMutability": "view",
      "type": "function"
    },
    {
      "inputs": [
        {
          "internalType": "address",
          "name": "_user",
          "type": "address"
        }
      ],
      "name": "deleteUser",
      "outputs": [],
      "stateMutability": "nonpayable",
      "type": "function"
    },
    {
      "inputs": [
        {
          "internalType": "address",
          "name": "",
          "type": "address"
        }
      ],
      "name": "deletedUsers",
      "outputs": [
        {
          "internalType": "bool",
          "name": "",
          "type": "bool"
        }
      ],
      "stateMutability": "view",
      "type": "function"
    },
    {
      "inputs": [
        {
          "internalType": "address",
          "name": "",
          "type": "address"
        },
        {
          "internalType": "uint256",
          "name": "",
          "type": "uint256"
        }
      ],
      "name": "fanLists",
      "outputs": [
        {
          "internalType": "address",
          "name": "",
          "type": "address"
        }
      ],
      "stateMutability": "view",
      "type": "function"
    },
    {
      "inputs": [],
      "name": "getContractBalance",
      "outputs": [
        {
          "internalType": "uint256",
          "name": "",
          "type": "uint256"
        }
      ],
      "stateMutability": "view",
      "type": "function"
    },
    {
      "inputs": [],
      "name": "getFans",
      "outputs": [
        {
          "internalType": "address[]",
          "name": "",
          "type": "address[]"
        }
      ],
      "stateMutability": "view",
      "type": "function"
    },
    {
      "inputs": [
        {
          "internalType": "uint256",
          "name": "_tokenId",
          "type": "uint256"
        }
      ],
      "name": "getHighestBid",
      "outputs": [
        {
          "internalType": "uint256",
          "name": "",
          "type": "uint256"
        }
      ],
      "stateMutability": "view",
      "type": "function"
    },
    {
      "inputs": [],
      "name": "getLatestUSDTPrice",
      "outputs": [
        {
          "internalType": "uint256",
          "name": "",
          "type": "uint256"
        }
      ],
      "stateMutability": "view",
      "type": "function"
    },
    {
      "inputs": [],
      "name": "getListedNfts",
      "outputs": [
        {
          "components": [
            {
              "internalType": "address",
              "name": "nftContract",
              "type": "address"
            },
            {
              "internalType": "uint256",
              "name": "tokenId",
              "type": "uint256"
            },
            {
              "internalType": "address payable",
              "name": "firstOwner",
              "type": "address"
            },
            {
              "internalType": "address payable",
              "name": "seller",
              "type": "address"
            },
            {
              "internalType": "address payable",
              "name": "owner",
              "type": "address"
            },
            {
              "internalType": "uint256",
              "name": "price",
              "type": "uint256"
            },
            {
              "internalType": "bool",
              "name": "listed",
              "type": "bool"
            },
            {
              "internalType": "uint256",
              "name": "royaltyPrice",
              "type": "uint256"
            },
            {
              "internalType": "enum ArtiziaMarketplace.ListingType",
              "name": "listingType",
              "type": "uint8"
            },
            {
              "internalType": "enum ArtiziaMarketplace.PaymentMethod",
              "name": "paymentMethod",
              "type": "uint8"
            },
            {
              "internalType": "bool",
              "name": "approve",
              "type": "bool"
            },
            {
              "internalType": "uint256",
              "name": "collectionId",
              "type": "uint256"
            }
          ],
          "internalType": "struct ArtiziaMarketplace.NFT[]",
          "name": "",
          "type": "tuple[]"
        }
      ],
      "stateMutability": "view",
      "type": "function"
    },
    {
      "inputs": [
        {
          "internalType": "address",
          "name": "_user",
          "type": "address"
        }
      ],
      "name": "getMyListedNfts",
      "outputs": [
        {
          "components": [
            {
              "internalType": "address",
              "name": "nftContract",
              "type": "address"
            },
            {
              "internalType": "uint256",
              "name": "tokenId",
              "type": "uint256"
            },
            {
              "internalType": "address payable",
              "name": "firstOwner",
              "type": "address"
            },
            {
              "internalType": "address payable",
              "name": "seller",
              "type": "address"
            },
            {
              "internalType": "address payable",
              "name": "owner",
              "type": "address"
            },
            {
              "internalType": "uint256",
              "name": "price",
              "type": "uint256"
            },
            {
              "internalType": "bool",
              "name": "listed",
              "type": "bool"
            },
            {
              "internalType": "uint256",
              "name": "royaltyPrice",
              "type": "uint256"
            },
            {
              "internalType": "enum ArtiziaMarketplace.ListingType",
              "name": "listingType",
              "type": "uint8"
            },
            {
              "internalType": "enum ArtiziaMarketplace.PaymentMethod",
              "name": "paymentMethod",
              "type": "uint8"
            },
            {
              "internalType": "bool",
              "name": "approve",
              "type": "bool"
            },
            {
              "internalType": "uint256",
              "name": "collectionId",
              "type": "uint256"
            }
          ],
          "internalType": "struct ArtiziaMarketplace.NFT[]",
          "name": "",
          "type": "tuple[]"
        }
      ],
      "stateMutability": "view",
      "type": "function"
    },
    {
      "inputs": [
        {
          "internalType": "address",
          "name": "_user",
          "type": "address"
        }
      ],
      "name": "getMyNfts",
      "outputs": [
        {
          "components": [
            {
              "internalType": "address",
              "name": "nftContract",
              "type": "address"
            },
            {
              "internalType": "uint256",
              "name": "tokenId",
              "type": "uint256"
            },
            {
              "internalType": "address payable",
              "name": "firstOwner",
              "type": "address"
            },
            {
              "internalType": "address payable",
              "name": "seller",
              "type": "address"
            },
            {
              "internalType": "address payable",
              "name": "owner",
              "type": "address"
            },
            {
              "internalType": "uint256",
              "name": "price",
              "type": "uint256"
            },
            {
              "internalType": "bool",
              "name": "listed",
              "type": "bool"
            },
            {
              "internalType": "uint256",
              "name": "royaltyPrice",
              "type": "uint256"
            },
            {
              "internalType": "enum ArtiziaMarketplace.ListingType",
              "name": "listingType",
              "type": "uint8"
            },
            {
              "internalType": "enum ArtiziaMarketplace.PaymentMethod",
              "name": "paymentMethod",
              "type": "uint8"
            },
            {
              "internalType": "bool",
              "name": "approve",
              "type": "bool"
            },
            {
              "internalType": "uint256",
              "name": "collectionId",
              "type": "uint256"
            }
          ],
          "internalType": "struct ArtiziaMarketplace.NFT[]",
          "name": "",
          "type": "tuple[]"
        }
      ],
      "stateMutability": "view",
      "type": "function"
    },
    {
      "inputs": [
        {
          "internalType": "uint256",
          "name": "_tokenId",
          "type": "uint256"
        }
      ],
      "name": "getNftApprovalStatus",
      "outputs": [
        {
          "internalType": "bool",
          "name": "",
          "type": "bool"
        }
      ],
      "stateMutability": "view",
      "type": "function"
    },
    {
      "inputs": [
        {
          "internalType": "uint256",
          "name": "_tokenId",
          "type": "uint256"
        }
      ],
      "name": "getStatusOfAuction",
      "outputs": [
        {
          "internalType": "bool",
          "name": "",
          "type": "bool"
        }
      ],
      "stateMutability": "view",
      "type": "function"
    },
    {
      "inputs": [
        {
          "internalType": "address",
          "name": "",
          "type": "address"
        },
        {
          "internalType": "address",
          "name": "",
          "type": "address"
        }
      ],
      "name": "isFan",
      "outputs": [
        {
          "internalType": "bool",
          "name": "",
          "type": "bool"
        }
      ],
      "stateMutability": "view",
      "type": "function"
    },
    {
      "inputs": [
        {
          "internalType": "address",
          "name": "_nftContract",
          "type": "address"
        },
        {
          "internalType": "uint256[]",
          "name": "_tokenId",
          "type": "uint256[]"
        },
        {
          "internalType": "uint256[]",
          "name": "_price",
          "type": "uint256[]"
        },
        {
          "internalType": "uint256",
          "name": "_royaltyPrice",
          "type": "uint256"
        },
        {
          "internalType": "uint256",
          "name": "_listingType",
          "type": "uint256"
        },
        {
          "internalType": "uint256[]",
          "name": "_startTime",
          "type": "uint256[]"
        },
        {
          "internalType": "uint256[]",
          "name": "_endTime",
          "type": "uint256[]"
        },
        {
          "internalType": "uint256",
          "name": "_collectionId",
          "type": "uint256"
        },
        {
          "internalType": "uint256",
          "name": "_paymentMethod",
          "type": "uint256"
        }
      ],
      "name": "listNft",
      "outputs": [],
      "stateMutability": "payable",
      "type": "function"
    },
    {
      "inputs": [],
      "name": "owner",
      "outputs": [
        {
          "internalType": "address",
          "name": "",
          "type": "address"
        }
      ],
      "stateMutability": "view",
      "type": "function"
    },
    {
      "inputs": [],
      "name": "removeAllFans",
      "outputs": [],
      "stateMutability": "nonpayable",
      "type": "function"
    },
    {
      "inputs": [
        {
          "internalType": "address",
          "name": "fan",
          "type": "address"
        }
      ],
      "name": "removeFan",
      "outputs": [],
      "stateMutability": "nonpayable",
      "type": "function"
    },
    {
      "inputs": [],
      "name": "renounceOwnership",
      "outputs": [],
      "stateMutability": "nonpayable",
      "type": "function"
    },
    {
      "inputs": [
        {
          "internalType": "address",
          "name": "_nftContract",
          "type": "address"
        },
        {
          "internalType": "uint256",
          "name": "_tokenId",
          "type": "uint256"
        },
        {
          "internalType": "uint256",
          "name": "_price",
          "type": "uint256"
        },
        {
          "internalType": "uint256",
          "name": "_listingType",
          "type": "uint256"
        },
        {
          "internalType": "uint256",
          "name": "_startTime",
          "type": "uint256"
        },
        {
          "internalType": "uint256",
          "name": "_endTime",
          "type": "uint256"
        },
        {
          "internalType": "uint256",
          "name": "_paymentMethod",
          "type": "uint256"
        }
      ],
      "name": "resellNft",
      "outputs": [],
      "stateMutability": "nonpayable",
      "type": "function"
    },
    {
      "inputs": [
        {
          "internalType": "uint256",
          "name": "usdtAmountOut",
          "type": "uint256"
        }
      ],
      "name": "swapETHForUSDT",
      "outputs": [],
      "stateMutability": "payable",
      "type": "function"
    },
    {
      "inputs": [
        {
          "internalType": "uint256",
          "name": "usdtAmountIn",
          "type": "uint256"
        }
      ],
      "name": "swapUSDTForETH",
      "outputs": [
        {
          "internalType": "uint256",
          "name": "",
          "type": "uint256"
        }
      ],
      "stateMutability": "nonpayable",
      "type": "function"
    },
    {
      "inputs": [
        {
          "internalType": "address",
          "name": "newOwner",
          "type": "address"
        }
      ],
      "name": "transferOwnership",
      "outputs": [],
      "stateMutability": "nonpayable",
      "type": "function"
    },
    {
      "inputs": [
        {
          "internalType": "address",
          "name": "_user",
          "type": "address"
        }
      ],
      "name": "unbanUser",
      "outputs": [],
      "stateMutability": "nonpayable",
      "type": "function"
    },
    {
      "stateMutability": "payable",
      "type": "receive"
    }
  ],
  "bytecode": "0x6080604052600b80546001600160a01b0319908116737a250d5630b4cf539739df2c5dacb4c659f2488d17909155600c805490911673dac17f958d2ee523a2206206994597c13d831ec71790553480156200005957600080fd5b5060405162005a5338038062005a538339810160408190526200007c9162000120565b60016000556200008c33620000ce565b60048054336001600160a01b031991821617909155600b54600d80546001600160a01b03928316908416179055600e8054909216921691909117905562000152565b600180546001600160a01b038381166001600160a01b0319831681179093556040519116919082907f8be0079c531659141344cd1fd0a4f28419497f9722a3daafe3b4186f6b6457e090600090a35050565b6000602082840312156200013357600080fd5b81516001600160a01b03811681146200014b57600080fd5b9392505050565b6158f180620001626000396000f3fe6080604052600436106102275760003560e01c80638988d07811610122578063b9e07df1116100a5578063ecb4ad0c1161006c578063ecb4ad0c1461075f578063ed5a1c0f14610798578063f2fde38b146107d3578063f41dfb18146107f3578063f6c1b77a1461080657005b8063b9e07df114610637578063bbffa07b146106e8578063c189205814610708578063d6cbb20214610728578063d6fc3dbd1461073f57005b80638f288644116100e95780638f2886441461053957806398dd36bf146105695780639c7440581461057e578063b4fa04121461059e578063b8b3455d1461062457005b80638988d0781461049657806389ec8e1c146104c65780638cd410f4146104e65780638d6cb3fb146105065780638da5cb5b1461051b57005b80635274cff6116101aa578063715018a611610171578063715018a6146103e657806377ec6a47146103fb57806379b369431461042b5780638090551e146104635780638110c5791461047657005b80635274cff61461034e5780635674c2e61461037b578063572e2afe146103a05780635c60f226146103b35780636f9fb98a146103d357005b80633b295cb0116101ee5780633b295cb0146102d3578063438364a1146102e85780634afbcdae146102fb5780634c070fe71461031b5780634d12b6951461032e57005b80630760943e1461023057806310d86b1f1461025b5780633000df5d1461027b57806331824a491461028e57806331a7a70f146102b357005b3661022e57005b005b34801561023c57600080fd5b50610245610826565b6040516102529190614cb6565b60405180910390f35b34801561026757600080fd5b5061022e610276366004614ce9565b6108cb565b61022e610289366004614ddc565b6108f7565b34801561029a57600080fd5b506002546102a59081565b604051908152602001610252565b3480156102bf57600080fd5b5061022e6102ce366004614ec1565b6110e2565b3480156102df57600080fd5b5061022e61127d565b61022e6102f6366004614f5b565b61131e565b34801561030757600080fd5b506102a5610316366004614f87565b6119b1565b61022e610329366004614fa9565b6119e2565b34801561033a57600080fd5b5061022e610349366004614ce9565b612245565b34801561035a57600080fd5b5061036e610369366004614ce9565b61226e565b604051610252919061501e565b34801561038757600080fd5b5061039061254b565b6040519015158152602001610252565b61022e6103ae366004615101565b612589565b3480156103bf57600080fd5b5061022e6103ce366004614ce9565b612b10565b3480156103df57600080fd5b50476102a5565b3480156103f257600080fd5b5061022e612b3c565b34801561040757600080fd5b50610390610416366004614ce9565b600a6020526000908152604090205460ff1681565b34801561043757600080fd5b50600b5461044b906001600160a01b031681565b6040516001600160a01b039091168152602001610252565b61022e610471366004615136565b612b50565b34801561048257600080fd5b5061022e61049136600461514f565b612d9d565b3480156104a257600080fd5b506103906104b1366004614ce9565b60096020526000908152604090205460ff1681565b3480156104d257600080fd5b5061022e6104e1366004614ce9565b613161565b3480156104f257600080fd5b506102a5610501366004615136565b61335f565b34801561051257600080fd5b5061036e61373e565b34801561052757600080fd5b506001546001600160a01b031661044b565b34801561054557600080fd5b506102a5610554366004615136565b60009081526006602052604090206005015490565b34801561057557600080fd5b506102a56139f0565b34801561058a57600080fd5b50610390610599366004615136565b613ace565b3480156105aa57600080fd5b506106106105b9366004615136565b6006602081905260009182526040909120805460018201546002830154600384015460048501546005860154959096015493956001600160a01b03938416959294919390929190811690600160a01b900460ff1688565b6040516102529897969594939291906151a4565b61022e6106323660046151f9565b613b13565b34801561064357600080fd5b506106d0610652366004615136565b600560208190526000918252604090912080546001820154600283015460038401546004850154958501546006860154600787015460088801546009909801546001600160a01b03978816999698958816979485169690941694929360ff92831693919282811692610100810482169262010000909104909116908c565b6040516102529c9b9a99989796959493929190615225565b3480156106f457600080fd5b5061044b610703366004614f5b565b6141a0565b34801561071457600080fd5b50600c5461044b906001600160a01b031681565b34801561073457600080fd5b506003546102a59081565b34801561074b57600080fd5b5061039061075a3660046152a3565b6141d8565b34801561076b57600080fd5b5061039061077a366004615136565b60009081526005602052604090206008015462010000900460ff1690565b3480156107a457600080fd5b506103906107b33660046152fa565b600760209081526000928352604080842090915290825290205460ff1681565b3480156107df57600080fd5b5061022e6107ee366004614ce9565b614251565b61022e610801366004614f87565b6142c7565b34801561081257600080fd5b5061036e610821366004614ce9565b614735565b336000908152600a602052604090205460609060ff16156108625760405162461bcd60e51b815260040161085990615328565b60405180910390fd5b33600090815260086020908152604091829020805483518184028101840190945280845290918301828280156108c157602002820191906000526020600020905b81546001600160a01b031681526001909101906020018083116108a3575b5050505050905090565b6108d361499b565b6001600160a01b03166000908152600960205260409020805460ff19166001179055565b6108ff6149f5565b3360009081526009602052604090205460ff161561092f5760405162461bcd60e51b815260040161085990615398565b336000908152600a602052604090205460ff161561095f5760405162461bcd60e51b815260040161085990615328565b60005b88518110156110cc576109af6040518060400160405280600981526020016874686973206973203160b81b8152508a83815181106109a2576109a26153cd565b6020026020010151614a4f565b6109dd6040518060400160405280600c81526020016b5f6c697374696e675479706560a01b81525087614a4f565b60408051808201909152601c81527f75696e74323536284c697374696e67547970652e41756374696f6e29000000006020820152610a1c906001614a4f565b6000888281518110610a3057610a306153cd565b60200260200101511015610a5757604051635a93095360e11b815260040160405180910390fd5b6001861115610a79576040516317142a4d60e01b815260040160405180910390fd5b610ab26040518060400160405280600b81526020016a5f746f6b656e49645b695d60a81b8152508a83815181106109a2576109a26153cd565b896001600160a01b03166323b872dd33308c8581518110610ad557610ad56153cd565b60200260200101516040518463ffffffff1660e01b8152600401610afb939291906153e3565b600060405180830381600087803b158015610b1557600080fd5b505af1158015610b29573d6000803e3d6000fd5b50505050610b57604051806040016040528060098152602001683a3434b99034b9901960b91b815250614a94565b610b65600380546001019055565b610b8f604051806040016040528060098152602001681d1a1a5cc81a5cc80d60ba1b815250614a94565b6000838152600f6020526040902089518a9083908110610bb157610bb16153cd565b602002602001015190806001815401808255809150506001900390600052602060002001600090919091909150556040518061018001604052808b6001600160a01b031681526020018a8381518110610c0c57610c0c6153cd565b60200260200101518152602001336001600160a01b03168152602001336001600160a01b03168152602001306001600160a01b03168152602001898381518110610c5857610c586153cd565b60200260200101518152602001600115158152602001888152602001876001811115610c8657610c86614fe4565b6001811115610c9757610c97614fe4565b8152602001836002811115610cae57610cae614fe4565b6002811115610cbf57610cbf614fe4565b815260200160001515815260200184815250600560008b8481518110610ce757610ce76153cd565b6020908102919091018101518252818101929092526040908101600020835181546001600160a01b03199081166001600160a01b039283161783559385015160018084019190915592850151600283018054861691831691909117905560608501516003830180548616918316919091179055608085015160048301805490951691161790925560a0830151600583015560c083015160068301805460ff1990811692151592909217905560e084015160078401556101008401516008840180549193909291909116908381811115610dc257610dc2614fe4565b021790555061012082015160088201805461ff001916610100836002811115610ded57610ded614fe4565b0217905550610140820151600882018054911515620100000262ff00001990921691909117905561016090910151600991820155604080518082019091529081526874686973206973203560b81b6020820152610e4990614a94565b600186141561101f57610e7c604051806040016040528060098152602001683a3434b99034b9901b60b91b815250614a94565b6040518061010001604052808a8381518110610e9a57610e9a6153cd565b60200260200101518152602001336001600160a01b03168152602001898381518110610ec857610ec86153cd565b60200260200101518152602001868381518110610ee757610ee76153cd565b60200260200101518152602001858381518110610f0657610f066153cd565b602002602001015181526020016000815260200160006001600160a01b03168152602001836002811115610f3c57610f3c614fe4565b6002811115610f4d57610f4d614fe4565b815250600660008b8481518110610f6657610f666153cd565b602090810291909101810151825281810192909252604090810160002083518155918301516001830180546001600160a01b03199081166001600160a01b039384161790915591840151600280850191909155606085015160038501556080850151600485015560a0850151600585015560c085015160068501805494851691909316908117835560e0860151936001600160a81b0319161790600160a01b90849081111561101757611017614fe4565b021790555050505b6110496040518060400160405280600981526020016874686973206973203760b81b815250614a94565b7fa0c6c0d02d86fdacecbaa5fdf5894bab204e31a778250474108540733a9b8d198a8a838151811061107d5761107d6153cd565b602002602001015133308c8681518110611099576110996153cd565b60200260200101516040516110b2959493929190615407565b60405180910390a1806110c481615450565b915050610962565b506110d76001600055565b505050505050505050565b336000908152600a602052604090205460ff16156111125760405162461bcd60e51b815260040161085990615328565b60005b8151811015611279576000828281518110611132576111326153cd565b6020026020010151905060006001600160a01b0316816001600160a01b031614156111955760405162461bcd60e51b8152602060048201526013602482015272496e76616c69642066616e206164647265737360681b6044820152606401610859565b3360009081526007602090815260408083206001600160a01b038516845290915290205460ff16156112095760405162461bcd60e51b815260206004820152601860248201527f4164647265737320697320616c726561647920612066616e00000000000000006044820152606401610859565b3360008181526008602090815260408083208054600180820183559185528385200180546001600160a01b0319166001600160a01b039790971696871790559383526007825280832094835293905291909120805460ff191690911790558061127181615450565b915050611115565b5050565b336000908152600860205260408120905b815481101561130257336000908152600760205260408120835482908590859081106112bc576112bc6153cd565b6000918252602080832091909101546001600160a01b031683528201929092526040019020805460ff1916911515919091179055806112fa81615450565b91505061128e565b5033600090815260086020526040812061131b91614bd9565b50565b600081815260066020526040902060040154421161137e5760405162461bcd60e51b815260206004820152601960248201527f41756374696f6e20686173206e6f7420656e64656420796574000000000000006044820152606401610859565b60008181526005602090815260408083206006928390529220908101546001600160a01b03166114de57600181810154908301546040516323b872dd60e01b81526001600160a01b03878116936323b872dd936113e3933093909216916004016153e3565b600060405180830381600087803b1580156113fd57600080fd5b505af1158015611411573d6000803e3d6000fd5b50505060038301546004840180546001600160a01b0319166001600160a01b039283161790556006808501805460ff191690556000868152602082905260409020015416151590506114de5760405162461bcd60e51b815260206004820152604a60248201527f4e6f7468696e6720746f20636c61696d2e20596f75206861766520676f74203060448201527f2062696473206f6e20796f75722061756374696f6e2e2052657475726e696e67606482015269103cb7bab91027232a1760b11b608482015260a401610859565b6006808301805460ff191690556005820154908201546004840180546001600160a01b0319166001600160a01b0390921691909117905560009081908190816008870154610100900460ff16600281111561153b5761153b614fe4565b14156116a95760016006860154600160a01b900460ff16600281111561156357611563614fe4565b141561158b5760006115736139f0565b61157d908361546b565b90506115888161335f565b50505b600286015460048701546001600160a01b03908116911614156115fe576115b181614ad7565b6115bb908261548a565b60038701546040519193506001600160a01b03169083156108fc029084906000818181858888f193505050501580156115f8573d6000803e3d6000fd5b506118d1565b61161085600501548760070154614af0565b935061161b81614ad7565b611625858361548a565b61162f919061548a565b60028701546040519193506001600160a01b03169085156108fc029086906000818181858888f1935050505015801561166c573d6000803e3d6000fd5b5060038601546040516001600160a01b039091169083156108fc029084906000818181858888f193505050501580156115f8573d6000803e3d6000fd5b60016008870154610100900460ff1660028111156116c9576116c9614fe4565b14156118d15760006006860154600160a01b900460ff1660028111156116f1576116f1614fe4565b14156117275760006117016139f0565b61170b90836154a1565b905061171682612b50565b61172381620f424061546b565b9150505b600286015460048701546001600160a01b03908116911614156117c85761174d81614ad7565b611757908261548a565b600e54600388015460405163a9059cbb60e01b81529294506001600160a01b039182169263a9059cbb9261179192169086906004016154c3565b600060405180830381600087803b1580156117ab57600080fd5b505af11580156117bf573d6000803e3d6000fd5b505050506118d1565b6117da85600501548760070154614af0565b93506117e581614ad7565b6117ef858361548a565b6117f9919061548a565b600e54600388015460405163a9059cbb60e01b81529294506001600160a01b039182169263a9059cbb9261183392169086906004016154c3565b600060405180830381600087803b15801561184d57600080fd5b505af1158015611861573d6000803e3d6000fd5b5050600e54600289015460405163a9059cbb60e01b81526001600160a01b03928316945063a9059cbb935061189e929091169088906004016154c3565b600060405180830381600087803b1580156118b857600080fd5b505af11580156118cc573d6000803e3d6000fd5b505050505b600685015460018701546040516323b872dd60e01b81526001600160a01b038b8116936323b872dd9361190c933093909216916004016153e3565b600060405180830381600087803b15801561192657600080fd5b505af115801561193a573d6000803e3d6000fd5b5050505061194c600280546001019055565b6001860154600387015460068701546040517f16f1dbd97e6bf646d429ed186cce832f1f7fd9907814293b83181e9970ab7bd29361199f938d9391926001600160a01b0391821692909116908990615407565b60405180910390a15050505050505050565b600f60205281600052604060002081815481106119cd57600080fd5b90600052602060002001600091509150505481565b3360009081526009602052604090205460ff1615611a125760405162461bcd60e51b815260040161085990615398565b336000908152600a602052604090205460ff1615611a425760405162461bcd60e51b815260040161085990615328565b611a4a6149f5565b600082815260056020526040812090611a616139f0565b90506000611a748464e8d4a5100061546b565b9050611a80828261546b565b9050611a94670de0b6b3a7640000826154a1565b60048401546001600160a01b031660009081526009602052604090205490915060ff1615611ad45760405162461bcd60e51b8152600401610859906154dc565b60048301546001600160a01b03166000908152600a602052604090205460ff1615611b115760405162461bcd60e51b815260040161085990615532565b8260050154811015611b525760405162461bcd60e51b815260206004820152600a60248201526953656e64206d6f72652160b01b6044820152606401610859565b6000600884015460ff166001811115611b6d57611b6d614fe4565b14611bba5760405162461bcd60e51b815260206004820152601a60248201527f54686973204e4654206973206e6f742061742061756374696f6e0000000000006044820152606401610859565b600683015460ff161515600114611be35760405162461bcd60e51b81526004016108599061558f565b600080339050611c1060405180604001604052806006815260200165436865636b3160d01b815250614a94565b600e546040516323b872dd60e01b815260009182916001600160a01b03909116906323b872dd90611c4990339030908d906004016153e3565b600060405180830381600087803b158015611c6357600080fd5b505af1158015611c77573d6000803e3d6000fd5b50505050600287015460038801546001600160a01b0391821691161415611e2557611cbf60405180604001604052806006815260200165436865636b3360d01b815250614a94565b611cc888614ad7565b611cd2908961548a565b90508960011415611d7757611d046040518060400160405280600681526020016510da1958dacd60d21b815250614a94565b600e54600388015460405163a9059cbb60e01b81526001600160a01b039283169263a9059cbb92611d3c9291169085906004016154c3565b600060405180830381600087803b158015611d5657600080fd5b505af1158015611d6a573d6000803e3d6000fd5b50505050600193506120b3565b611d9e60405180604001604052806006815260200165436865636b3560d01b815250614a94565b6000611da98261335f565b90506000611dbc8364e8d4a5100061546b565b9050611dc8888861546b565b9650611ddc670de0b6b3a7640000886154a1565b60038a01546040519198506001600160a01b03169083156108fc029084906000818181858888f19350505050158015611e19573d6000803e3d6000fd5b506001955050506120b3565b611e4c6040518060400160405280600681526020016521b432b1b59b60d11b815250614a94565b6000611e5c898960070154614af0565b9050611e68818a61548a565b9250611e7383614ad7565b611e7d908a61548a565b91506000611e8e82620f424061546b565b600e5460028b015460405163a9059cbb60e01b81529293506001600160a01b039182169263a9059cbb92611ec892169086906004016154c3565b600060405180830381600087803b158015611ee257600080fd5b505af1158015611ef6573d6000803e3d6000fd5b50505050611f2160405180604001604052806006815260200165436865636b3760d01b815250614a94565b8b60011415611ffd57611f5160405180604001604052806006815260200165086d0cac6d6760d31b815250614a94565b6000611f6084620f424061546b565b600e5460038c015460405163a9059cbb60e01b81529293506001600160a01b039182169263a9059cbb92611f9a92169085906004016154c3565b600060405180830381600087803b158015611fb457600080fd5b505af1158015611fc8573d6000803e3d6000fd5b5050505060019650611ff760405180604001604052806006815260200165436865636b3960d01b815250614a94565b506120b0565b6120068361335f565b5060006120116139f0565b61201b908561546b565b905061204560405180604001604052806007815260200166436865636b313160c81b815250614a94565b60038a01546040516001600160a01b039091169082156108fc029083906000818181858888f19350505050158015612081573d6000803e3d6000fd5b506120aa6040518060400160405280600781526020016621b432b1b5989960c91b815250614a94565b60019650505b50505b831561222e576120e160405180604001604052806007815260200166436865636b313360c81b815250614a94565b60018701546040516323b872dd60e01b81526001600160a01b038d16916323b872dd916121159130918891906004016153e3565b600060405180830381600087803b15801561212f57600080fd5b505af1158015612143573d6000803e3d6000fd5b5050505061216f6040518060400160405280600781526020016610da1958dacc4d60ca1b815250614a94565b6004870180546001600160a01b0385166001600160a01b031991821617909155600388018054909116905560068701805460ff191690556121b4600280546001019055565b600187015460038801546040517f16f1dbd97e6bf646d429ed186cce832f1f7fd9907814293b83181e9970ab7bd2926121fe928f926001600160a01b039091169088908890615407565b60405180910390a161222e60405180604001604052806007815260200166436865636b313560c81b815250614a94565b5050505050505061223f6001600055565b50505050565b61224d61499b565b6001600160a01b03166000908152600960205260409020805460ff19169055565b336000908152600a602052604090205460609060ff16156122a15760405162461bcd60e51b815260040161085990615328565b3360009081526009602052604090205460ff16156122d15760405162461bcd60e51b815260040161085990615398565b60006122dc60035490565b90506000805b8281101561234c576000818152600560205260409020600301546001600160a01b038681169116148015612327575060008181526005602052604090206006015460ff165b1561233a578161233681615450565b9250505b8061234481615450565b9150506122e2565b5060008167ffffffffffffffff81111561236857612368614d06565b6040519080825280602002602001820160405280156123a157816020015b61238e614bf7565b8152602001906001900390816123865790505b5090506000805b8481101561253e576000818152600560205260409020600301546001600160a01b0388811691161480156123ed575060008181526005602052604090206006015460ff165b1561252c5760008181526005602081815260409283902083516101808101855281546001600160a01b039081168252600180840154948301949094526002830154811695820195909552600382015485166060820152600482015490941660808501529182015460a0840152600682015460ff908116151560c0850152600783015460e0850152600883015461010085019291169081111561249157612491614fe4565b60018111156124a2576124a2614fe4565b81526020016008820160019054906101000a900460ff1660028111156124ca576124ca614fe4565b60028111156124db576124db614fe4565b8152600882015462010000900460ff16151560208201526009909101546040909101528351849084908110612512576125126153cd565b6020026020010181905250818061252890615450565b9250505b8061253681615450565b9150506123a8565b509093505050505b919050565b3360009081526009602052604081205460ff16806125785750336000908152600a602052604090205460ff165b156125835750600190565b50600090565b3360009081526009602052604090205460ff16156125b95760405162461bcd60e51b815260040161085990615398565b336000908152600a602052604090205460ff16156125e95760405162461bcd60e51b815260040161085990615328565b6125f16149f5565b600081815260056020908152604080832060048101546001600160a01b0316845260099092529091205460ff161561263b5760405162461bcd60e51b8152600401610859906154dc565b60048101546001600160a01b03166000908152600a602052604090205460ff16156126785760405162461bcd60e51b815260040161085990615532565b80600501543410156126db5760405162461bcd60e51b815260206004820152602660248201527f4e6f7420656e6f75676820657468657220746f20636f7665722061736b696e6760448201526520707269636560d01b6064820152608401610859565b6000600882015460ff1660018111156126f6576126f6614fe4565b146127435760405162461bcd60e51b815260206004820152601a60248201527f54686973204e4654206973206e6f742061742061756374696f6e0000000000006044820152606401610859565b600681015460ff16151560011461276c5760405162461bcd60e51b81526004016108599061558f565b600281015460038201546000913391839182916001600160a01b03908116911614156128975761279b34614ad7565b6127a5903461548a565b9050866127f25760038501546040516001600160a01b039091169082156108fc029083906000818181858888f193505050501580156127e8573d6000803e3d6000fd5b50600193506129f8565b6127fb81612b50565b60006128056139f0565b61280f908361546b565b9050600061282082620f424061546b565b600e54600389015460405163a9059cbb60e01b81529293506001600160a01b039182169263a9059cbb9261285a92169085906004016154c3565b600060405180830381600087803b15801561287457600080fd5b505af1158015612888573d6000803e3d6000fd5b505050506001955050506129f8565b600034905060006128ac828860070154614af0565b90506128b782614ad7565b6128c1828461548a565b6128cb919061548a565b60028801546040519194506001600160a01b03169082156108fc029083906000818181858888f19350505050158015612908573d6000803e3d6000fd5b50886129545760038701546040516001600160a01b039091169084156108fc029085906000818181858888f1935050505015801561294a573d6000803e3d6000fd5b50600195506129f5565b61295d83612b50565b60006129676139f0565b61297190856154a1565b9050600061298282620f424061546b565b600e5460038b015460405163a9059cbb60e01b81529293506001600160a01b039182169263a9059cbb926129bc92169085906004016154c3565b600060405180830381600087803b1580156129d657600080fd5b505af11580156129ea573d6000803e3d6000fd5b505050506001975050505b50505b8315612afc5760018501546040516323b872dd60e01b81526001600160a01b038a16916323b872dd91612a329130918891906004016153e3565b600060405180830381600087803b158015612a4c57600080fd5b505af1158015612a60573d6000803e3d6000fd5b5050506004860180546001600160a01b0386166001600160a01b03199182161790915560038701805490911690555060068501805460ff19169055612aa9600280546001019055565b600185015460038601546040517f16f1dbd97e6bf646d429ed186cce832f1f7fd9907814293b83181e9970ab7bd292612af3928c926001600160a01b039091169088908890615407565b60405180910390a15b5050505050612b0b6001600055565b505050565b612b1861499b565b6001600160a01b03166000908152600a60205260409020805460ff19166001179055565b612b4461499b565b612b4e6000614b0f565b565b6040805160028082526060820183526000926020830190803683375050600d54604080516315ab88c960e31b815290519394506001600160a01b039091169263ad5c464892506004808301926020929190829003018186803b158015612bb557600080fd5b505afa158015612bc9573d6000803e3d6000fd5b505050506040513d601f19601f82011682018060405250810190612bed91906155c6565b81600081518110612c0057612c006153cd565b6001600160a01b039283166020918202929092010152600c54825191169082906001908110612c3157612c316153cd565b6001600160a01b039290921660209283029190910182015260408051600280825260608201835260009391929091830190803683375050600d5460405163d06ca61f60e01b81529293506001600160a01b03169163d06ca61f9150612c9c90869086906004016155e3565b60006040518083038186803b158015612cb457600080fd5b505afa158015612cc8573d6000803e3d6000fd5b505050506040513d6000823e601f3d908101601f19168201604052612cf09190810190615604565b600d5481519192506001600160a01b031690637ff36ab590349084906001908110612d1d57612d1d6153cd565b60200260200101518530426040518663ffffffff1660e01b8152600401612d47949392919061568a565b6000604051808303818588803b158015612d6057600080fd5b505af1158015612d74573d6000803e3d6000fd5b50505050506040513d6000823e601f3d908101601f1916820160405261223f9190810190615604565b3360009081526009602052604090205460ff1615612dcd5760405162461bcd60e51b815260040161085990615398565b336000908152600a602052604090205460ff1615612dfd5760405162461bcd60e51b815260040161085990615328565b612e056149f5565b600086815260056020526040902085612e605760405162461bcd60e51b815260206004820152601c60248201527f5072696365206d757374206265206174206c65617374203120776569000000006044820152606401610859565b60048101546001600160a01b03163314612ecf5760405162461bcd60e51b815260206004820152602a60248201527f4f6e6c7920746865206f776e6572206f6620616e206e66742063616e206c69736044820152693a103a34329037333a1760b11b6064820152608401610859565b6040516323b872dd60e01b81526001600160a01b038916906323b872dd90612eff90339030908c906004016153e3565b600060405180830381600087803b158015612f1957600080fd5b505af1158015612f2d573d6000803e3d6000fd5b5050506003820180546001600160a01b0319908116331790915560048301805490911630179055506005810186905560068101805460ff191660019081179091558590811115612f7f57612f7f614fe4565b60088201805460ff191660018381811115612f9c57612f9c614fe4565b0217905550816002811115612fb357612fb3614fe4565b60088201805461ff001916610100836002811115612fd357612fd3614fe4565b0217905550600185141561310457604051806101000160405280888152602001336001600160a01b031681526020018781526020018581526020018481526020016000815260200160006001600160a01b0316815260200183600281111561303d5761303d614fe4565b600281111561304e5761304e614fe4565b905260008881526006602081815260409283902084518155908401516001820180546001600160a01b03199081166001600160a01b039384161790915593850151600280840191909155606086015160038401556080860151600484015560a0860151600584015560c0860151938301805495861694909216938417825560e08601519294929391926001600160a81b03191690911790600160a01b9084908111156130fc576130fc614fe4565b021790555050505b61310e6002614b61565b7fa0c6c0d02d86fdacecbaa5fdf5894bab204e31a778250474108540733a9b8d19888833308a604051613145959493929190615407565b60405180910390a1506131586001600055565b50505050505050565b6001600160a01b0381166131ad5760405162461bcd60e51b8152602060048201526013602482015272496e76616c69642066616e206164647265737360681b6044820152606401610859565b3360009081526007602090815260408083206001600160a01b038516845290915290205460ff166132175760405162461bcd60e51b815260206004820152601460248201527320b2323932b9b99034b9903737ba1030903330b760611b6044820152606401610859565b336000908152600860205260408120905b815481101561332f57826001600160a01b031682828154811061324d5761324d6153cd565b6000918252602090912001546001600160a01b0316141561331d57815482906132789060019061548a565b81548110613288576132886153cd565b9060005260206000200160009054906101000a90046001600160a01b03168282815481106132b8576132b86153cd565b9060005260206000200160006101000a8154816001600160a01b0302191690836001600160a01b03160217905550818054806132f6576132f66156bf565b600082815260209020810160001990810180546001600160a01b031916905501905561332f565b8061332781615450565b915050613228565b50503360009081526007602090815260408083206001600160a01b0394909416835292905220805460ff19169055565b600061338960405180604001604052806006815260200165746573743d3160d01b81525083614a4f565b6040805160028082526060820183526000926020830190803683375050600c5482519293506001600160a01b0316918391506000906133ca576133ca6153cd565b6001600160a01b03928316602091820292909201810191909152600d54604080516315ab88c960e31b81529051919093169263ad5c4648926004808301939192829003018186803b15801561341e57600080fd5b505afa158015613432573d6000803e3d6000fd5b505050506040513d601f19601f8201168201806040525081019061345691906155c6565b81600181518110613469576134696153cd565b6001600160a01b039283166020918202929092010152600e546040516323b872dd60e01b81529116906323b872dd906134aa903390309088906004016153e3565b600060405180830381600087803b1580156134c457600080fd5b505af11580156134d8573d6000803e3d6000fd5b5050600e54600b5460405163095ea7b360e01b81526001600160a01b03928316945063095ea7b39350613513929091169087906004016154c3565b600060405180830381600087803b15801561352d57600080fd5b505af1158015613541573d6000803e3d6000fd5b5050505061356b60405180604001604052806005815260200164746573743360d81b815250614a94565b6040805160028082526060820183526000926020830190803683375050600d5460405163d06ca61f60e01b81529293506001600160a01b03169163d06ca61f91506135bc90879086906004016155e3565b60006040518083038186803b1580156135d457600080fd5b505afa1580156135e8573d6000803e3d6000fd5b505050506040513d6000823e601f3d908101601f191682016040526136109190810190615604565b905061364760405180604001604052806006815260200165185b5bdd5b9d60d21b815250826001815181106109a2576109a26153cd565b600d5481516001600160a01b0390911690634a25d94a9083906001908110613671576136716153cd565b6020026020010151868530426040518663ffffffff1660e01b815260040161369d9594939291906156d5565b600060405180830381600087803b1580156136b757600080fd5b505af11580156136cb573d6000803e3d6000fd5b505050506040513d6000823e601f3d908101601f191682016040526136f39190810190615604565b5061371a604051806040016040528060058152602001641d195cdd0d60da1b815250614a94565b8060018151811061372d5761372d6153cd565b602002602001015192505050919050565b336000908152600a602052604090205460609060ff16156137715760405162461bcd60e51b815260040161085990615328565b600061377c60035490565b9050600061378960025490565b613793908361548a565b90506137bf604051806040016040528060088152602001671b999d10dbdd5b9d60c21b81525083614a4f565b6137f06040518060400160405280600f81526020016e1d5b9cdbdb1913999d1cd0dbdd5b9d608a1b81525082614a4f565b60008167ffffffffffffffff81111561380b5761380b614d06565b60405190808252806020026020018201604052801561384457816020015b613831614bf7565b8152602001906001900390816138295790505b50905060006138756040518060400160405280600b81526020016a5f6964546f4e46545b695d60a81b815250614a94565b60005b848110156139e65760008181526005602052604090206006015460ff16156139d45760008181526005602081815260409283902083516101808101855281546001600160a01b039081168252600180840154948301949094526002830154811695820195909552600382015485166060820152600482015490941660808501529182015460a0840152600682015460ff908116151560c0850152600783015460e0850152600883015461010085019291169081111561393957613939614fe4565b600181111561394a5761394a614fe4565b81526020016008820160019054906101000a900460ff16600281111561397257613972614fe4565b600281111561398357613983614fe4565b8152600882015462010000900460ff161515602082015260099091015460409091015283518490849081106139ba576139ba6153cd565b602002602001018190525081806139d090615450565b9250505b806139de81615450565b915050613878565b5090935050505090565b60008073ee9f2375b4bdf6387aa8265dd4fb8f16512a1d4690506000816001600160a01b031663feaf968c6040518163ffffffff1660e01b815260040160a06040518083038186803b158015613a4557600080fd5b505afa158015613a59573d6000803e3d6000fd5b505050506040513d601f19601f82011682018060405250810190613a7d919061572b565b50505091505060008113613ac85760405162461bcd60e51b8152602060048201526012602482015271496e76616c6964205553445420707269636560701b6044820152606401610859565b92915050565b60008181526006602052604081206003015442118015613afe575060008281526006602052604090206004015442105b15613b0b57506001919050565b506000919050565b600083815260066020526040902060030154839042118015613b45575060008181526006602052604090206004015442105b613b615760405162461bcd60e51b81526004016108599061577b565b336000908152600a602052604090205460ff1615613b915760405162461bcd60e51b815260040161085990615328565b3360009081526009602052604090205460ff1615613bc15760405162461bcd60e51b815260040161085990615398565b6000613bcb6139f0565b90506000613bde8564e8d4a5100061546b565b9050613bea828261546b565b9050613bfe670de0b6b3a7640000826154a1565b9050613c33604051806040016040528060118152602001705f616d6f756e74496e455448496e57656960781b81525082614a4f565b613c5a60405180604001604052806006815260200165436865636b3160d01b815250614a94565b600086815260066020819052604090912001546001600160a01b0316613cdb57600086815260066020526040902060020154811015613cdb5760405162461bcd60e51b815260206004820152601c60248201527f4d696e696d756d206269642068617320746f20626520686967686572000000006044820152606401610859565b613d026040518060400160405280600681526020016521b432b1b59960d11b815250614a94565b600086815260066020526040902060050154811015613d335760405162461bcd60e51b8152600401610859906157c4565b613d5a60405180604001604052806006815260200165436865636b3360d01b815250614a94565b600160008781526005602052604090206008015460ff166001811115613d8257613d82614fe4565b14613dcb5760405162461bcd60e51b81526020600482015260196024820152782a3434b99027232a1034b99030ba1030ba1030bab1ba34b7b760391b6044820152606401610859565b60008681526005602052604090206006015460ff161515600114613e015760405162461bcd60e51b81526004016108599061558f565b613e286040518060400160405280600681526020016510da1958dacd60d21b815250614a94565b600e546040516323b872dd60e01b81526001600160a01b03909116906323b872dd90613e5c90339030908a906004016153e3565b600060405180830381600087803b158015613e7657600080fd5b505af1158015613e8a573d6000803e3d6000fd5b505050600087815260066020818152604092839020808301546005820154855180870190965293855265436865636b3560d01b9285019290925293506001600160a01b031691613ed990614a94565b60068301546001600160a01b0316156140025760016006840154600160a01b900460ff166002811115613f0e57613f0e614fe4565b1415613fa2576000613f1e6139f0565b613f2890836154a1565b9050613f3781620f424061546b565b600e5460405163a9059cbb60e01b81529192506001600160a01b03169063a9059cbb90613f6a90869085906004016154c3565b600060405180830381600087803b158015613f8457600080fd5b505af1158015613f98573d6000803e3d6000fd5b5050505050614002565b60006006840154600160a01b900460ff166002811115613fc457613fc4614fe4565b1415614002576040516001600160a01b0383169082156108fc029083906000818181858888f19350505050158015614000573d6000803e3d6000fd5b505b600583018490556006830180546001600160a01b0319163317905586600281111561402f5761402f614fe4565b60068401805460ff60a01b1916600160a01b83600281111561405357614053614fe4565b021790555061407f60405180604001604052806006815260200165436865636b3760d01b815250614a94565b61408b42610258615821565b83600401541015614137576140bd60405180604001604052806006815260200165086d0cac6d6760d31b815250614a94565b61012c8360040160008282546140d39190615821565b909155505060048301546040519081527f63929ab50521717a96992aeaa109afc8cfc926d99096bbeaf23ee4322db546e89060200160405180910390a161413760405180604001604052806006815260200165436865636b3960d01b815250614a94565b600183015460068401546005850154604080518d81526001600160a01b03948516602082015293909216838301526060830152517f4307392e6f0e441e74a4982d9fa9ddc49b3cd9d3902a9d3ecab0ad3c60a0acd19181900360800190a1505050505050505050565b600860205281600052604060002081815481106141bc57600080fd5b6000918252602090912001546001600160a01b03169150829050565b60006141e261499b565b6000805b845181101561424657848181518110614201576142016153cd565b602090810291909101810151600081815260059092526040909120600801805462ff00001916620100008715150217905591508061423e81615450565b9150506141e6565b506001949350505050565b61425961499b565b6001600160a01b0381166142be5760405162461bcd60e51b815260206004820152602660248201527f4f776e61626c653a206e6577206f776e657220697320746865207a65726f206160448201526564647265737360d01b6064820152608401610859565b61131b81614b0f565b6000828152600660205260409020600301548290421180156142f9575060008181526006602052604090206004015442105b6143155760405162461bcd60e51b81526004016108599061577b565b336000908152600a602052604090205460ff16156143455760405162461bcd60e51b815260040161085990615328565b3360009081526009602052604090205460ff16156143755760405162461bcd60e51b815260040161085990615398565b600083815260066020819052604090912001546001600160a01b03166143f6576000838152600660205260409020600201543410156143f65760405162461bcd60e51b815260206004820152601c60248201527f4d696e696d756d206269642068617320746f20626520686967686572000000006044820152606401610859565b60008381526006602052604090206005015434116144265760405162461bcd60e51b8152600401610859906157c4565b600160008481526005602052604090206008015460ff16600181111561444e5761444e614fe4565b146144975760405162461bcd60e51b81526020600482015260196024820152782a3434b99027232a1034b99030ba1030ba1030bab1ba34b7b760391b6044820152606401610859565b60008381526005602052604090206006015460ff1615156001146144cd5760405162461bcd60e51b81526004016108599061558f565b60008381526006602081905260409091209081015460058201546001600160a01b0390911690811561460f5760016006840154600160a01b900460ff16600281111561451b5761451b614fe4565b14156145af57600061452b6139f0565b61453590836154a1565b905061454481620f424061546b565b600e5460405163a9059cbb60e01b81529192506001600160a01b03169063a9059cbb9061457790869085906004016154c3565b600060405180830381600087803b15801561459157600080fd5b505af11580156145a5573d6000803e3d6000fd5b505050505061460f565b60006006840154600160a01b900460ff1660028111156145d1576145d1614fe4565b141561460f576040516001600160a01b0383169082156108fc029083906000818181858888f1935050505015801561460d573d6000803e3d6000fd5b505b3460058401556006830180546001600160a01b0319163317905584600281111561463b5761463b614fe4565b60068401805460ff60a01b1916600160a01b83600281111561465f5761465f614fe4565b021790555061467042610258615821565b836004015410156146cf5761012c8360040160008282546146919190615821565b909155505060048301546040519081527f63929ab50521717a96992aeaa109afc8cfc926d99096bbeaf23ee4322db546e89060200160405180910390a15b600183015460068401546005850154604080518a81526001600160a01b03948516602082015293909216838301526060830152517f4307392e6f0e441e74a4982d9fa9ddc49b3cd9d3902a9d3ecab0ad3c60a0acd19181900360800190a1505050505050565b336000908152600a602052604090205460609060ff16156147685760405162461bcd60e51b815260040161085990615328565b600061477360035490565b90506000805b828110156147c6576000818152600560205260409020600401546001600160a01b03868116911614156147b457816147b081615450565b9250505b806147be81615450565b915050614779565b5060008167ffffffffffffffff8111156147e2576147e2614d06565b60405190808252806020026020018201604052801561481b57816020015b614808614bf7565b8152602001906001900390816148005790505b5090506000805b8481101561253e576000818152600560205260409020600401546001600160a01b03888116911614156149895760008181526005602081815260409283902083516101808101855281546001600160a01b039081168252600180840154948301949094526002830154811695820195909552600382015485166060820152600482015490941660808501529182015460a0840152600682015460ff908116151560c0850152600783015460e085015260088301546101008501929116908111156148ee576148ee614fe4565b60018111156148ff576148ff614fe4565b81526020016008820160019054906101000a900460ff16600281111561492757614927614fe4565b600281111561493857614938614fe4565b8152600882015462010000900460ff1615156020820152600990910154604090910152835184908490811061496f5761496f6153cd565b6020026020010181905250818061498590615450565b9250505b8061499381615450565b915050614822565b6001546001600160a01b03163314612b4e5760405162461bcd60e51b815260206004820181905260248201527f4f776e61626c653a2063616c6c6572206973206e6f7420746865206f776e65726044820152606401610859565b60026000541415614a485760405162461bcd60e51b815260206004820152601f60248201527f5265656e7472616e637947756172643a207265656e7472616e742063616c6c006044820152606401610859565b6002600055565b6112798282604051602401614a65929190615886565b60408051601f198184030181529190526020810180516001600160e01b0316632d839cb360e21b179052614bb8565b61131b81604051602401614aa891906158a8565b60408051601f198184030181529190526020810180516001600160e01b031663104c13eb60e21b179052614bb8565b60006064614ae683600661546b565b613ac891906154a1565b60006064614afe838561546b565b614b0891906154a1565b9392505050565b600180546001600160a01b038381166001600160a01b0319831681179093556040519116919082907f8be0079c531659141344cd1fd0a4f28419497f9722a3daafe3b4186f6b6457e090600090a35050565b805480614bb05760405162461bcd60e51b815260206004820152601b60248201527f436f756e7465723a2064656372656d656e74206f766572666c6f7700000000006044820152606401610859565b600019019055565b80516a636f6e736f6c652e6c6f67602083016000808483855afa5050505050565b508054600082559060005260206000209081019061131b9190614c59565b6040805161018081018252600080825260208201819052918101829052606081018290526080810182905260a0810182905260c0810182905260e081018290529061010082019081526020016000815260006020820181905260409091015290565b5b80821115614c6e5760008155600101614c5a565b5090565b600081518084526020808501945080840160005b83811015614cab5781516001600160a01b031687529582019590820190600101614c86565b509495945050505050565b602081526000614b086020830184614c72565b6001600160a01b038116811461131b57600080fd5b803561254681614cc9565b600060208284031215614cfb57600080fd5b8135614b0881614cc9565b634e487b7160e01b600052604160045260246000fd5b604051601f8201601f1916810167ffffffffffffffff81118282101715614d4557614d45614d06565b604052919050565b600067ffffffffffffffff821115614d6757614d67614d06565b5060051b60200190565b600082601f830112614d8257600080fd5b81356020614d97614d9283614d4d565b614d1c565b82815260059290921b84018101918181019086841115614db657600080fd5b8286015b84811015614dd15780358352918301918301614dba565b509695505050505050565b60008060008060008060008060006101208a8c031215614dfb57600080fd5b614e048a614cde565b985060208a013567ffffffffffffffff80821115614e2157600080fd5b614e2d8d838e01614d71565b995060408c0135915080821115614e4357600080fd5b614e4f8d838e01614d71565b985060608c0135975060808c0135965060a08c0135915080821115614e7357600080fd5b614e7f8d838e01614d71565b955060c08c0135915080821115614e9557600080fd5b50614ea28c828d01614d71565b93505060e08a013591506101008a013590509295985092959850929598565b60006020808385031215614ed457600080fd5b823567ffffffffffffffff811115614eeb57600080fd5b8301601f81018513614efc57600080fd5b8035614f0a614d9282614d4d565b81815260059190911b82018301908381019087831115614f2957600080fd5b928401925b82841015614f50578335614f4181614cc9565b82529284019290840190614f2e565b979650505050505050565b60008060408385031215614f6e57600080fd5b8235614f7981614cc9565b946020939093013593505050565b60008060408385031215614f9a57600080fd5b50508035926020909101359150565b60008060008060808587031215614fbf57600080fd5b8435614fca81614cc9565b966020860135965060408601359560600135945092505050565b634e487b7160e01b600052602160045260246000fd5b6002811061500a5761500a614fe4565b9052565b6003811061500a5761500a614fe4565b602080825282518282018190526000919060409081850190868401855b828110156150f457815180516001600160a01b0390811686528782015188870152868201518116878701526060808301518216908701526080808301519091169086015260a0808201519086015260c08082015115159086015260e08082015190860152610100808201516150b282880182614ffa565b5050610120808201516150c78288018261500e565b5050610140818101511515908601526101609081015190850152610180909301929085019060010161503b565b5091979650505050505050565b60008060006060848603121561511657600080fd5b833561512181614cc9565b95602085013595506040909401359392505050565b60006020828403121561514857600080fd5b5035919050565b600080600080600080600060e0888a03121561516a57600080fd5b873561517581614cc9565b9960208901359950604089013598606081013598506080810135975060a0810135965060c00135945092505050565b8881526001600160a01b03888116602083015260408201889052606082018790526080820186905260a08201859052831660c082015261010081016151ec60e083018461500e565b9998505050505050505050565b60008060006060848603121561520e57600080fd5b505081359360208301359350604090920135919050565b6001600160a01b038d81168252602082018d90528b811660408301528a811660608301528916608082015260a0810188905286151560c082015260e081018690526101808101615279610100830187614ffa565b61528761012083018661500e565b92151561014082015261016001529a9950505050505050505050565b600080604083850312156152b657600080fd5b823567ffffffffffffffff8111156152cd57600080fd5b6152d985828601614d71565b925050602083013580151581146152ef57600080fd5b809150509250929050565b6000806040838503121561530d57600080fd5b823561531881614cc9565b915060208301356152ef81614cc9565b6020808252604a908201527f596f7520617265207065726d656e616e746c792064656c657465642066726f6d60408201527f207468697320706c6174666f726d20666f722076696f6c6174696e6720746865606082015269103837b634b1b4b2b99760b11b608082015260a00190565b6020808252818101527f596f75206172652062616e6e6564206f6e207468697320706c6174666f726d2e604082015260600190565b634e487b7160e01b600052603260045260246000fd5b6001600160a01b039384168152919092166020820152604081019190915260600190565b6001600160a01b039586168152602081019490945291841660408401529092166060820152608081019190915260a00190565b634e487b7160e01b600052601160045260246000fd5b60006000198214156154645761546461543a565b5060010190565b60008160001904831182151516156154855761548561543a565b500290565b60008282101561549c5761549c61543a565b500390565b6000826154be57634e487b7160e01b600052601260045260246000fd5b500490565b6001600160a01b03929092168252602082015260400190565b60208082526036908201527f546865206f776e6572206f662074686973206e667420697320626c61636b6c6960408201527539ba32b21037b7103a3434b990383630ba3337b9369760511b606082015260800190565b6020808252603d908201527f546865206f776e6572206f662074686973206e6674206973207065726d616e6160408201527f6e746c792062616e6e6564206f6e207468697320706c6174666f726d2e000000606082015260800190565b6020808252601d908201527f4e6674206973206e6f74206c697374656420746f207075726368617365000000604082015260600190565b6000602082840312156155d857600080fd5b8151614b0881614cc9565b8281526040602082015260006155fc6040830184614c72565b949350505050565b6000602080838503121561561757600080fd5b825167ffffffffffffffff81111561562e57600080fd5b8301601f8101851361563f57600080fd5b805161564d614d9282614d4d565b81815260059190911b8201830190838101908783111561566c57600080fd5b928401925b82841015614f5057835182529284019290840190615671565b8481526080602082015260006156a36080830186614c72565b6001600160a01b03949094166040830152506060015292915050565b634e487b7160e01b600052603160045260246000fd5b85815284602082015260a0604082015260006156f460a0830186614c72565b6001600160a01b0394909416606083015250608001529392505050565b805169ffffffffffffffffffff8116811461254657600080fd5b600080600080600060a0868803121561574357600080fd5b61574c86615711565b945060208601519350604086015192506060860151915061576f60808701615711565b90509295509295909350565b60208082526029908201527f54686973204e4654206973206e6f74206f6e2061756374696f6e206174207468604082015268329036b7b6b2b73a1760b91b606082015260800190565b6020808252603c908201527f596f75206861766520746f2062696420686967686572207468616e207468652060408201527f686967686573742062696420746f206d616b6520616e206f6666657200000000606082015260800190565b600082198211156158345761583461543a565b500190565b6000815180845260005b8181101561585f57602081850181015186830182015201615843565b81811115615871576000602083870101525b50601f01601f19169290920160200192915050565b6040815260006158996040830185615839565b90508260208301529392505050565b602081526000614b08602083018461583956fea264697066735822122003f9ee4d8626bff8faf7172662c0fa10f6c48f2e447503caeb982015b5214e1064736f6c63430008090033",
  "linkReferences": {},
  "deployedLinkReferences": {}
}